:020000040800F2
:1000000010A0002049010008BB200008CB1A0008FE
:10001000F91F000869180008757200080000000048
:10002000000000000000000000000000E96E000871
:10003000C91A000800000000631500086D3E0008A2
:100040006301000863010008630100086301000800
:1000500063010008630100086301000863010008F0
:1000600063010008630100086301000863010008E0
:1000700063010008630100086301000863010008D0
:1000800063010008630100086301000863010008C0
:1000900063010008630100086301000863010008B0
:1000A00063010008630100086301000863010008A0
:1000B0006301000863010008630100086301000890
:1000C0006301000863010008630100086301000880
:1000D0006301000863010008630100086301000870
:1000E0006301000863010008630100086301000860
:1000F0006301000863010008630100086301000850
:10010000630100086301000863010008630100083F
:10011000630100086301000863010008630100082F
:10012000630100086301000863010008630100081F
:10013000DFF810D001F0C6F9004800474D74000800
:10014000AFF3008010A00020064880470648004713
:10015000FEE7FEE7FEE7FEE7FEE7FEE7FEE7FEE777
:10016000FEE7FEE749020008310100080CB5002057
:10017000019000906B48006840F480306949086045
:1001800000BF6848006800F4003000900198401CEF
:100190000190009818B90198B0F5A06FF1D16148AD
:1001A000006810F4003F02D00120009001E0002020
:1001B00000900098012842D15B48006840F0100090
:1001C000594908600846006820F0030008600846A6
:1001D000006840F002000860524840685149486099
:1001E0000846406848600846406840F480604860BF
:1001F0000846406820F47C1048600846406840F497
:10020000E81048600846006840F08070086000BF51
:100210004448006810F0007FFAD04248406820F05F
:100220000300404948600846406840F002004860CA
:1002300000BF3C48406800F00C000828F9D10CBD14
:1002400010B5FFF793FF10BD10B53648006840F0B9
:100250000100344908600846406834490840314983
:10026000486008460068324908402E490860084640
:10027000006820F4802008600846406820F4FE00F2
:1002800048604FF41F008860FFF7DAFF4FF000600E
:100290002849086010BD10B5002100200022214B24
:1002A0005B6803F00C0121B1042906D0082928D18C
:1002B00007E0214B214C236027E01F4B1F4C23609C
:1002C00023E0184B5B6803F47010164B5B6803F473
:1002D0008032022303EB904022B9194B4343174C61
:1002E00023600DE00F4B5B6813F4003F04D0144B08
:1002F0004343124C236003E00F4B43430F4C2360F6
:1003000003E00D4B0D4C236000BF00BF054B5B6845
:10031000C3F303130B4CE15C084B1B68CB40074C49
:10032000236010BD00100240002002400000FFF8D2
:10033000FFFFF6FE08ED00E000127A000C0000203E
:1003400000093D001000002010B50446CA48844250
:1003500008D10121042000F027FB0021042000F037
:1003600023FB46E0C548844208D10121082000F063
:100370001BFB0021082000F017FB3AE0C048844234
:1003800008D10121102000F00FFB0021102000F007
:100390000BFB2EE0BB48844208D10121202000F055
:1003A00003FB0021202000F0FFFA22E0B64884423F
:1003B00008D10121402000F0F7FA0021402000F090
:1003C000F3FA16E0B148844208D10121802000F000
:1003D000EBFA0021802000F0E7FA0AE0AC48844202
:1003E00007D10121801500F0DFFA0021A01500F0EF
:1003F000DBFA10BD10B50121084600F0D5FA002146
:10040000012000F0D1FA10BD2DE9F041024600258F
:100410000026002000230024002791F803C00CF0E0
:100420000F0591F803C01CF0100F03D091F802C023
:100430004CEA050591F800C0BCF1000F31D01468FA
:1004400000202BE04FF0010C0CFA00F3B1F800C0D3
:100450000CEA03069E4220D183004FF00F0C0CFAE9
:1004600003F7BC4305FA03FC4CEA040491F803C00B
:10047000BCF1280F06D14FF0010C0CFA00FCC2F8B9
:1004800014C00AE091F803C0BCF1480F05D14FF049
:10049000010C0CFA00FCC2F810C0401C0828D1D393
:1004A0001460B1F800C0BCF1FF0F34DD54680020C7
:1004B0002EE000F1080C4FF0010808FA0CF3B1F837
:1004C00000C00CEA03069E4221D183004FF00F0CBE
:1004D0000CFA03F7BC4305FA03FC4CEA040491F858
:1004E00003C0BCF1280F05D100F1080C08FA0CF884
:1004F000C2F8148091F803C0BCF1480F07D100F195
:10050000080C4FF0010808FA0CF8C2F81080401CE3
:100510000828CED35460BDE8F0814FF6FF7101800A
:10052000022181700421C170704702460020936847
:100530000B4201D0012000E000207047014688688E
:1005400080B2704702460020D3680B4201D00120E0
:1005500000E0002070470146C86880B27047016122
:100560007047416170470AB1016100E04161704725
:10057000C16070474FF480320A43826181618261B9
:1005800082698269704702460020424B18684FF624
:100590008073184040EA021008433E4B18607047D1
:1005A0003D49C8617047F0B50A4600230024002188
:1005B000002500F00046B6F1004F02D1354EF1693A
:1005C00001E0344E7168C0F3034583B200F4401675
:1005D000B6F5401F08D121F070612E4E766826F0E6
:1005E00070662C4F7E6012E000F48016B6F5801F16
:1005F00006D1032606FA05F4A14341F0706106E036
:10060000460D360103FA06F6B14341F0706122B19E
:10061000460D360103FA06F6314300F00046B6F106
:10062000004F02D11B4EF16101E01A4E7160F0BD26
:1006300030B500228B071C0F0F2303FA04F2154B71
:1006400008338C1053F824309343124C08348D1027
:1006500044F8253023468C1053F824308C07240F9F
:1006600000FA04F423430B4C08348D1044F8253071
:1006700030BD0A490860704700080140000C014085
:10068000001001400014014000180140001C01400E
:10069000002001400000014000002042DC00204218
:1006A000DD48006840F00100DB490860084640680A
:1006B000DA490840D849486008460068D8490840E7
:1006C000D54908600846006820F480200860084684
:1006D000406820F4FE0048604FF41F0088607047B7
:1006E000CD49096821F48031CB4A1160114609686F
:1006F00021F480211160B0F5803F03D0B0F5802F48
:100700000ED106E0C449096841F48031C24A116043
:1007100007E0C149096841F4A021BF4A116000E027
:1007200000BF00BF704710B5014600220023002023
:100730004A11012A02D1B84C236806E0022A02D1EC
:10074000B54C236A01E0B44C636A01F01F02012436
:1007500094401C4201D0012000E0002010BD38B5BB
:10076000002000900024002500BF3120FFF7DBFFB0
:1007700005460098401C00900098B0F5A06F01D08D
:10078000002DF2D03120FFF7CEFF08B1012400E0A8
:100790000024204638BD014600209F4A106820F002
:1007A000F80040EAC100106070479E490860704739
:1007B00002460020984B586820F47C1042EA01035E
:1007C0001843954B58607047964908667047014634
:1007D0000020914A506820F00300084350607047A1
:1007E0008D48406800F00C007047014600208A4A9E
:1007F000506820F0F0000843506070470146002028
:10080000854A506820F4E060084350607047014614
:100810000020814A506820F4605040EAC1005060D6
:10082000704729B17C4A527A02437B4B5A7204E0EA
:10083000794A527A8243784B5A7270477A490860F3
:10084000704701460020744A506820F44040084335
:10085000506070470021754A11706F4A82F820106D
:10086000012802D0042808D103E001216F4A117049
:1008700004E005216D4A117000E000BF00BF704721
:100880006B49086070476449096A0143624A116212
:100890007047674944390860704730B5002100222D
:1008A000002400235C4D6D6805F00C0121B1042982
:1008B00005D0082923D105E05E4D056022E05D4D9D
:1008C00005601FE0544D6D6805F47012524D6D685F
:1008D00005F48034022505EB92421CB9564D554370
:1008E00005600BE04C4D6D6815F4003F03D0524D90
:1008F0005543056002E04F4D5543056002E04D4D04
:10090000056000BF00BF444D6D6805F0F0010909A6
:100910004A4D6B5C0568DD4045603F4D6D6805F4F0
:10092000E061090A454D6B5C4568DD4085603A4DE4
:100930006D6805F46051C90A404D6B5C4568DD4047
:10094000C560354D6D6805F44041890B3C4D6B5CCD
:10095000C568B5FBF3F5056130BD29B12E4A526972
:1009600002432D4B5A6104E02B4A526982432A4BC1
:100970005A61704729B1284A92690243264B9A610D
:1009800004E0254A92698243234B9A61704729B15A
:10099000214AD2690243204BDA6104E01E4AD2693F
:1009A00082431D4BDA61704729B11B4AD26802436A
:1009B000194BDA6004E0184AD2688243164BDA60B9
:1009C000704729B1144A12690243134B1A6104E0BB
:1009D000114A12698243104B1A6170471449403919
:1009E000086070470F49C86470470B49C871704769
:1009F0000948406A40F080700749486270470146E4
:100A00000020054A92680A4201D0012000E000203F
:100A10007047014988727047001002400000FFF8DB
:100A2000FFFFF6FE00004242D80042422010024082
:100A30008004424200127A0000093D00200000209C
:100A40003000002030B943F2DB014FF0204242F881
:100A5000201005E043F2D2014FF0204242F820106E
:100A60006FF07042411C4FF0204343F821201146A3
:100A70001A4602EB8002C2F80411704710280AD10E
:100A800018214FF020421166402151664FF0FC3191
:100A90009166D16610E01821F84A11604FF04001CC
:100AA0004FF02042C2F884104FF0FC31F44A11603C
:100AB0004FF02042C2F88C1070471820F1490860AE
:100AC0004FF000004FF02041C1F8A4004FF0FC307F
:100AD000ED49086001F10401086001F104010860BA
:100AE0007047D0E901121143C268114302691143F2
:100AF0004269114382691143C2691143026A114379
:100B0000426A1143826A1143C26A1143026B114364
:100B10004FF02043026843F822108168082908D169
:100B20001A46016852F8211041F04001026843F86A
:100B30002210416B0968426B526841EA0211426B14
:100B4000926841EA0221426B928941EA0241426B7A
:100B5000128A41EA0251426B127D41EA0261426B04
:100B6000926911430268521C4FF0204343F822104F
:100B7000C16AB1F5804F1AD1816B0968826B5268E6
:100B800041EA0211826B926841EA0221826B128A69
:100B900041EA0251826B127D41EA0261826B9269E5
:100BA0001143026803EB8202C2F8041108E06FF0FF
:100BB00070414FF02043026803EB8202C2F8041137
:100BC000704730B5002100220023446844F0080437
:100BD00085682C43C5682C4305692C43456944EA64
:100BE0004524856944EA4531C4692468C5696D684E
:100BF00044EA0524C5692D8944EA0544C5692D7B6D
:100C000044EA0562046A2468056A6D6844EA0524BA
:100C1000056A2D8944EA0544056A2D7B44EA05638B
:100C20000468102C05D14FF020442166A266E366CB
:100C300007E0924C21604FF02044C4F88820934C88
:100C4000236030BD016841F01001426841EA422151
:100C5000826841EA42318B4A1160C1680968C26802
:100C6000526841EA0221C268128941EA0241C2681F
:100C7000127B41EA0261844A1160016909680269D4
:100C8000526841EA02210269128941EA024102697D
:100C9000127B41EA02617E4A11604169096842693A
:100CA000526841EA02214269128941EA02414269DD
:100CB000127B41EA02614FF02042C2F8B010704747
:100CC000002101600221416000218160C160016159
:100CD00041618161C16101624FF48051416249000B
:100CE00081620021C16201630F21426B1160426B7E
:100CF0005160FF21426B91600F21426BD160426BCA
:100D00001161426B51610021426B91610F21826B35
:100D10001160826B5160FF21826B91600F21826BA9
:100D2000D160826B1161826B51610021826B916194
:100D3000704710210160002141608160C160016144
:100D400041618161FC21C2691160C2695160C2695F
:100D50009160C269D160026A1160026A5160026AE0
:100D60009160026AD160704700210160416081603A
:100D7000FC21C2681160C2685160C2689160C2689B
:100D8000D160026911600269516002699160026973
:100D9000D160426911604269516042699160426963
:100DA000D160704751B14FF0204252F8202042F0FC
:100DB00001024FF0204343F8202009E04FF0204289
:100DC00052F82020334B1A404FF0204343F82020A4
:100DD000704799B1102808D14FF02042126E42F0AE
:100DE00004024FF020431A661DE0244A126842F0C4
:100DF00004024FF02043C3F8802014E0102809D1EA
:100E00004FF02042126E234BDB1E1A404FF020435E
:100E10001A6608E0194A12681F4B02EA03024FF0F3
:100E20002043C3F88020704740B11649096841F05B
:100E300004014FF02042C2F8A01008E011490968EF
:100E4000154A01EA02014FF02042C2F8A010704793
:100E500099B1102808D14FF02042126E42F04002A2
:100E60004FF020431A662DE0044A126842F0400217
:100E70004FF02043C3F8802024E00FE0800000A062
:100E8000880000A0A00000A0A80000A08C0000A086
:100E9000AC0000A0FEFF0F00FBFF0F00102808D1E0
:100EA0004FF02042126E684B1A404FF020431A66F2
:100EB00008E0664A1268644B02EA03024FF02043DE
:100EC000C3F88020704701460020102903D14FF05D
:100ED0002042506F01E05E4A1068704710B5F2B1D1
:100EE000102807D14FF020435B6E0B434FF0204496
:100EF000636632E0B0F5807F08D1564B1B6843EA49
:100F000001034FF02044C4F8843026E0524B1B68A4
:100F100043EA01034FF02044C4F8A4301DE0102838
:100F200007D14FF020435B6E8B434FF02044636644
:100F300013E0B0F5807F08D1464B1B6823EA01031C
:100F40004FF02044C4F8843007E0434B1B6823EA89
:100F500001034FF02044C4F8A43010BD10B5024680
:100F600000200023102A03D14FF02044636E07E0D5
:100F7000B2F5807F02D1374C236801E0364C2368FC
:100F80000B4201D0012000E0002010BD102807D145
:100F90004FF02042526E8A434FF020435A6613E0CE
:100FA000B0F5807F08D12B4A126822EA01024FF087
:100FB0002043C3F8842007E0274A126822EA01028E
:100FC0004FF02043C3F8A420704770B502460020BC
:100FD000002300240025102A03D14FF02046736E11
:100FE00007E0B2F5807F02D11A4E336801E01A4E55
:100FF000336803EA010403EAD10514B10DB10120FD
:1010000000E0002070BD102808D14FF02042526E41
:1010100022EAD1024FF020435A6613E0B0F5807FF8
:1010200008D10C4A126822EAD1024FF02043C3F8DB
:10103000842007E0084A126822EAD1024FF02043D8
:10104000C3F8A42070470000BFFF0F00800000A07D
:10105000940000A0840000A0A40000A010B50446E5
:10106000FB48844209D101218803FFF79DFC002140
:101070004FF48040FFF798FC32E0F648844209D1F3
:1010800001214804FFF79DFC00214FF40030FFF7D9
:1010900098FC25E0F048844209D101218804FFF73B
:1010A00090FC00214FF48020FFF78BFC18E0EB4808
:1010B000844209D10121C804FFF783FC00214FF4C9
:1010C0000020FFF77EFC0BE0E548844208D10121B7
:1010D0000805FFF776FC00214FF48010FFF771FC44
:1010E00010BD2DE9F04786B005460E460024A24605
:1010F00000BFA1460027B08900B100BF2F462C8A4F
:101100004CF6FF700440F08804432C82AC894EF604
:10111000F3100440B08831890843718908430443BF
:10112000AC81AC8A4FF6FF400440B0890443AC82E6
:1011300001A8FFF7B2FBC648874202D1DDF810A034
:1011400001E0DDF80CA0A88910F4004F08D00AEBEC
:10115000CA0000EB0A1031684900B0FBF1F807E063
:101160000AEBCA0000EB0A1031688900B0FBF1F805
:101170006420B8FBF0F004012009642101FB108910
:10118000A88910F4004F08D0322000EBC900B0FB52
:10119000F1F000F00700044308E0322000EB0910F2
:1011A0006421B0FBF1F000F00F0004432C8106B085
:1011B000BDE8F0874FF41651016000218180C180A5
:1011C00001810C21418100218181704710B50246C7
:1011D0000020108A4FF2FF0318400B884C882343ED
:1011E0008C882343CC8823431843108210BD0021F0
:1011F000018041808180C180704721B1828942F4A1
:101200000052828104E082894DF6FF731A40828188
:101210007047F0B503460024002600250020A1F504
:1012200010676A3F00D100BF1846C1F3421401F0B5
:101230001F06012707FA06F5012C01D10C3004E046
:10124000022C01D1103000E014301AB107682F438E
:10125000076002E00768AF430760F0BD1AB1838AF8
:101260000B43838202E0838A8B4383827047028A26
:101270004FF6F0731A400282028A0A4302827047D4
:1012800082894FF2FF731A40828182890A438281E8
:10129000704721B1828942F00202828104E0828992
:1012A0004FF6FD731A4082817047028A4FF6DF7352
:1012B0001A400282028A0A430282704721B1028ADE
:1012C00042F48042028204E0028A4BF6FF731A4025
:1012D00002827047C1F30802828070470146888805
:1012E000C0F308007047818941F001018181704796
:1012F000028BD2B20283028B42EA01220283704740
:10130000028B02F47F420283028B0A4302837047FE
:1013100021B1828A42F02002828204E0828A4FF662
:10132000DF731A408282704721B1828A42F0100234
:10133000828204E0828A4FF6EF731A4082827047FD
:1013400021B1828A42F00802828204E0828A4FF64A
:10135000F7731A408282704721B1828942F40042B9
:10136000828103E08289C2F30E028281704721B13B
:10137000828A42F40062828204E0828A4FF2FF7322
:101380001A4082827047828A4FF6FB731A4082822B
:10139000828A0A438282704721B1828A42F0020225
:1013A000828204E0828A4FF6FD731A40828270477F
:1013B00002460020B1F5007F00D100BF13880B4228
:1013C00001D0012000E00020704701F40072B2F566
:1013D000007F00D100BFCA430280704770B502464B
:1013E0000024002300250020A1F510666A3E00D1EC
:1013F00000BFC1F3421501F01F03012606FA03F3F3
:10140000012D02D19689334006E0022D02D1168AC1
:10141000334001E0968A33400C12012606FA04F4A8
:101420001688344013B10CB1012000E0002070BDDB
:1014300010B500220023A1F510646A3C00D100BF62
:101440000A1201249440A3B2DC43048010BD0000C2
:10145000003801400044004000480040004C00407B
:101460000050004072B6704762B67047EFF31080CC
:1014700072B6704780F31088704730BF704720BF46
:101480007047B0FA80F0704790FAA0F0B0FA80F0A0
:10149000704790FAA0F0704730B50B460146002027
:1014A0002022012409E021FA02F59D4205D303FA26
:1014B00002F5491B04FA02F52844151EA2F10102A7
:1014C000F1DC30BD064C074D06E0E06840F001035A
:1014D00094E8070098471034AC42F6D3FEF72CFE90
:1014E000ACC70008CCC7000870B58C1810F8015BB9
:1014F00015F0070301D110F8013B2A1106D110F8AD
:10150000012B03E010F8016B01F8016B5B1EF9D1B0
:101510002B0705D40023521E0DD401F8013BFAE736
:1015200010F8013BCB1A921C03E013F8015B01F8A1
:10153000015B521EF9D5A142D8D3002070BD000036
:1015400018484FF0FF010170002080F30988164809
:10155000016881F3088815484FF08051016062B638
:10156000FEE772B6EFF3098028B1203880E8F00F6B
:101570000F490968086000B50E4880475DF804EB24
:101580000D480E490A78027009480D490A68026040
:10159000106890E8F00F203080F309884EF0040EB8
:1015A00062B6704722ED00E02401002004ED00E067
:1015B0001C010020F5390008AA000020AB00002023
:1015C000200100200EB50025012661E002A80021BF
:1015D0004FF482730A46CDE9001003212D4800F034
:1015E000E1FD044604F0010010B3681CC5B22946B1
:1015F00029A005F041FE2CA018211E233C22CDE994
:1016000000103221084600F009FC81201821022335
:101610002A46CDE9001032217C2000F032FC012165
:101620002348FEF78FFF20B101212148FEF799FFE3
:1016300003E001211E48FEF792FF04F0010010B301
:10164000701CC6B231461BA005F016FE1DA0182165
:101650001E233C22CDE900106421322000F0DEFB85
:101660008120182102233246CDE9001064217C201C
:1016700000F007FC01210E48FEF764FF20B10121B4
:101680000B48FEF76EFF03E001210948FEF767FFF4
:101690009CE70000300100204B455931B0B4CFC267
:1016A0002564B4CE0A0000006B6579313A20000051
:1016B000001001404B455932B0B4CFC22564B4CEBE
:1016C0000A0000006B6579323A20000086B00020E5
:1016D0000590049028E005AB00220421134800F097
:1016E00021FA40B112A005F0C7FD03AB0022012191
:1016F000124801F09FF804AB002208210B4800F0CB
:1017000011FA40B10EA005F0B7FD03AB0022022193
:101710000A4801F08FF803A8002164230A46CDE9A6
:101720000010084602F060FAD5E7000000180140FA
:101730004B455931B1BBB0B4CFC20A0030010020D3
:101740004B455932B1BBB0B4CFC20A0070B58AB0B4
:10175000064600F07FF800F089F800F073F80446C0
:1017600024480068B4FBF0F5284602F09FFB00F027
:101770004FFC09A801F0D4FB00F0E6F809AB002209
:101780001DA1214800F09CFC09A80321002205921C
:10179000CDE90621089005204FF4007133221B4B40
:1017A000CDE90132CDE9031003200023184A19A125
:1017B00000901C4801F03EFC09A80321002205927C
:1017C000CDE90621089005204FF400713322164B15
:1017D000CDE90132CDE9031003200023134A14A1FF
:1017E0000090174801F026FC09A9002001F078FDBF
:1017F0000AB070BDFCC50008464C414720466F72D8
:101800002054657374000000300100202004002083
:10181000CD160008417070205461736B20506F73B7
:1018200074000000200C0020E80C0020C515000802
:10183000417070205461736B2050656E640000002D
:10184000E814002000B585B06846FFF726F8019837
:1018500005B000BD10B500F05FF900F0BBFB05F06E
:10186000C9FC05F0CDFB10BD00BFFEE710B500F0D0
:10187000FBF800F003F800F0F3F810BD70B5002697
:10188000002018490880184908801849086018493C
:101890000860184908601849086018490860002461
:1018A00000BFFFF7E3FD064600BF00250BE0002068
:1018B0001049086000F074F800F08CF80D480068DA
:1018C0000444681C85B2002DF1D00C48046000204F
:1018D000084908600849086000BF3046FFF7CAFDA4
:1018E00000BF70BD380000203A0000203C000020FE
:1018F00040000020480000204C0000204400002050
:1019000001460846044A1268904203D9024A126806
:10191000801A00E0002070474400002070B50025C8
:1019200000BFFFF7A3FD054600BF0648046800BFDF
:101930002846FFF79FFD00BF2046FFF7E1FF064660
:10194000304670BD4800002070B50025FFF7E6FF67
:10195000044600BFFFF78AFD054600BF002004498A
:10196000086000BF2846FFF785FD00BF204670BD18
:101970004800002070B5002500BFFFF777FD054641
:1019800000BF0648046800BF2846FFF773FD00BF8C
:101990002046FFF7B5FF0646304670BD4C000020DC
:1019A00010B509480088401C07490880074800888E
:1019B00018B900F083F80649086004480088401C04
:1019C0000249088010BD0000380000203A000020C5
:1019D0003C00002010B50F480088401E0D490880CB
:1019E00008460088A0B900F069F80B49086008466D
:1019F00000680A490968441A09480068A04201D2EF
:101A00000748046007480068A04201D20548046006
:101A100010BD00003A000020400000203C000020E3
:101A2000480000204C00002010B5002400BF00BF7B
:101A3000FFF71CFD044600BFFFF7B2FF00BF1021F7
:101A4000064800F0DBFA00BFFFF7C4FF00BF2046E6
:101A5000FFF710FD00BF00BF10BD0000B015002053
:101A600010B5FFF7E1FF10BD10B500200249086076
:101A700000F00AF810BD00003400002001490860A1
:101A8000704700003400002010B50A48006840F09C
:101A900080700849086000200749486008460068CF
:101AA00040F001000860FFF7CDFE04462046FFF736
:101AB000E5FF10BDFCED00E0001000E001484068CB
:101AC00070470000001000E0704700BFFEE7000014
:101AD00008B501214020FEF74DFF0420ADF80000BD
:101AE00048208DF8030069460148FEF78DFC08BDCB
:101AF0000018014008B501214020FEF73BFF0820F7
:101B0000ADF8000048208DF8030069460148FEF753
:101B10007BFC08BD0018014010B5FFF7D9FFFFF7A7
:101B2000E9FF10BD2DE9FE430746884614461D46D1
:101B30004FF0000941463846FEF7F7FC0646A6423C
:101B400011D102A8002114230A46CDE9001008464D
:101B500002F04AF841463846FEF7E7FC0646A64240
:101B600001D101202870A64205D02878012802D191
:101B70008146002028704846BDE8FE8370B50646C1
:101B80000F484088401E83B20D480088401E82B234
:101B90000021084600F05BF800240CE0002504E07A
:101BA000304600F0E3F9681C85B205484088A84239
:101BB000F6DC601C84B202480088A042EEDC70BDF6
:101BC0000400002010B50446134884715CB9082154
:101BD000362000F0BBF94FF4F0700F4948804FF405
:101BE000A070088016E02821362000F0AFF9B6205A
:101BF00000F0A6F9002000F0B3F9022000F0B0F9DF
:101C00003B2000F0ADF94FF4A070034948804FF439
:101C1000F070088010BD00000400002070B504467C
:101C20000D4616462B4622462946204600F00FF860
:101C3000304600F09BF970BD10B50246012000E06F
:101C400050430B1EA1F10104E1B2F9D110BD70B5F2
:101C500004460D462A2000F073F92646E11704EBEE
:101C60001161C1F30F2000F07BF9E11704EB116162
:101C70000912A4EB012188B200F072F91646D117BF
:101C800002EB1161C1F30F2000F06AF91646D1177B
:101C900002EB11610912A2EB012188B200F060F998
:101CA0002B2000F04DF92E46E91705EB1161C1F329
:101CB0000F2000F055F9E91705EB11610912A5EBAA
:101CC000012188B200F04CF91E46D91703EB1161CF
:101CD000C1F30F2000F044F91E46D91703EB116140
:101CE0000912A3EB012188B200F03AF92C2000F090
:101CF00027F970BD2DE9F84F80460E4617461C4661
:101D0000B3462046E31704EB5373DB1021464FEA3A
:101D1000E47C04EB5C7C4FEAEC0CA4EBCC0CBCF157
:101D2000000F02D04FF0010C01E04FF0000C6344B3
:101D3000224604EBD27C4FEA6C0C03FB0CF3DBB2C3
:101D40000093A7F12000C7B2002556E00C2C07D164
:101D500007EB47002B4901EB800010F8059013E0DA
:101D6000102C05D1284800EB071010F805900BE067
:101D7000182C07D107EBC700244901EB800010F8AD
:101D8000059001E0BDE8F88F4FF0000A2FE009F060
:101D9000800030B11E48028831464046FFF73EFFC2
:101DA00007E00A9828B91B48028831464046FFF7E9
:101DB00035FF4FEA49604FEA1069701C86B2164839
:101DC0004088B04200DCDDE7A6EB0B00A0420AD160
:101DD0005E4608F101001FFA80F80F480088404570
:101DE00000DCCFE706E00AF1010000F0FF0ABAF1DB
:101DF000080FCCDB00BF681CC5B200988542A5DB8C
:101E000000BFBFE7AC74000820790008107F00080D
:101E10000000002002000020040000202DE9F84707
:101E200004460D4690469946DDE9096704F0FF0A2D
:101E300008EB04001FFA80F809EB05001FFA80F98F
:101E400016E0444502DB5446A81985B24D4500DB37
:101E500014E0002000903A78334629462046FFF7E8
:101E600049FF304606EBD07104EB61018CB27F1C58
:101E700038787E2802DC38782028E2DA00BFBDE816
:101E8000F8872DE9FF4F82B0064692461F46DDE9EE
:101E90000F480020019000254DE0781B401EC1B284
:101EA0000A20FFF7C9FEBAFBF0F00A21B0FBF1F2FD
:101EB00001FB1209019850BB781EA84227DDB9F139
:101EC000000F22D108F0800078B108F00100A3468D
:101ED00004EBDB71491001FB0561009088B22346D9
:101EE00030220399FFF706FF0EE008F00100A34639
:101EF00004EBDB71491001FB0561009088B22346B9
:101F000020220399FFF7F6FE13E00120019008F06C
:101F10000100A34604EBDB71491001FB0561009051
:101F200088B209F13001CAB223460399FFF7E2FEF5
:101F300000BF681CC5B2BD42AFDB06B0BDE8F08F84
:101F40000149088070470000FE07006C00B5034699
:101F50000A461846FFF7F4FF104600F001F800BDEE
:101F600001490880704700000008006C0112024A15
:101F70001180C1B2118070470008006C08B50121C2
:101F80001020FEF7F7FC0120ADF8000010208DF8BE
:101F9000030003208DF8020069460D48FEF734FA6D
:101FA00001211020FEF7E6FC0220ADF80000694692
:101FB0000748FEF729FA01211020FEF7DBFC042078
:101FC000ADF8000069460248FEF71EFA08BD0000A1
:101FD0000010014010B5FFF7D1FF01210548FEF7C1
:101FE000BEFA02210348FEF7BAFA04210148FEF7BF
:101FF000B6FA10BD0010014000BFFEE730B505463F
:102000000C4622460021284600F026F830BD00008C
:102010000D480E4901600146416000218160C160A8
:10202000016141618161C16101620163C16241621B
:1020300007498163C1634FF4D8410164416401469B
:10204000044A116070470000C01500204845415007
:1020500008160020500000202DE9F04103460C46F0
:1020600017460FB9BDE8F08103B9FBE70025002250
:1020700002E02D022543521C042AFAD3384603F00D
:10208000030C1946BCF1000F08D0624603E001F8CA
:10209000014B401E521C08B1042AF8D30E4601E041
:1020A00020C6001F0428FBD2314602E001F8014B94
:1020B000401E0028FAD100BFD4E7704770470000E7
:1020C0002DE9F04104460E4617461D464FF0000824
:1020D00030480078002804DD42F6E1602880BDE841
:1020E000F0811CB945F6C3502880F8E700BF00BF57
:1020F00000BFFFF7BBF9804600BFFFF751FC00BFF0
:1021000025480078401C24490870084600780128BA
:1021100001D103F07DF800BFFFF75CFC00BF404633
:10212000FFF7A8F900BF00BF00BF1C482060666031
:1021300027620020606204F1080002F08BFD204657
:1021400001F0C6FF16480088401C1549088000BFF2
:1021500000BF00BFFFF78AF9804600BFFFF720FCF1
:1021600000BF0D480078401E0B49087008460078F3
:1021700008B903F05BF800BFFFF72CFC00BF404636
:10218000FFF778F900BF00BF00BF0020288000BF24
:10219000A5E7000074000020C4000020464C414721
:1021A000980000202DE9F04F8BB0054688469346F5
:1021B0009946DDE9147400200190FE48007800285B
:1021C00006DD46F2AE10208000200BB0BDE8F08F97
:1021D00025B945F6C35020800020F6E748F20101FA
:1021E000A9EB0100894536D01ADC40F20111A9EBB8
:1021F000010089452BD00CDCB9F1010F23D0B9F1D6
:10220000020F21D0B9F1040F1FD0B9F1080F2AD164
:102210001CE001281CD003281BD0072823D119E07B
:10222000B0F5807F1BD006DC012815D0032814D020
:10223000072818D112E0A0F2011088B1022810D0AE
:10224000062810D10EE000BF00BF00BF00BF00BFD6
:1022500000BF00BF00BF00BF00BF00BF00BF00BF86
:1022600000BF00BF04E045F6256020800020ACE7F9
:1022700000BFD1492868884204D045F6C450208068
:102280000020A2E709F4807010B14FF0010A01E0CC
:102290004FF0000A0FB10020386009F00F000A90DB
:1022A00000BF00BFFFF7E2F8019000BFFFF778FB27
:1022B00000BF0A9801287CD002287BD0042802D0D5
:1022C000082878D182E0286A00EA0806464519D134
:1022D000BAF1010F02D1286AB0432862B7480068FA
:1022E000C0F884600FB1686A386000BFFFF772FB06
:1022F00000BF0198FFF7BEF800BF00BF002020809C
:10230000304662E709F4004068B100BFFFF762FBA6
:1023100000BF0198FFF7AEF800BF00BF46F2B01053
:102320002080002051E7A648007800280DDD00BF7E
:10233000FFF750FB00BF0198FFF79CF800BF00BFFC
:1023400046F66350208000203FE700BF9C4800789D
:10235000401C9B49087008460078012801D102F012
:1023600057FF00BFFFF736FB00BF0198FFF782F869
:1023700000BF00BF00BF4B464246294602A8CDF829
:1023800000B001F085FE00BF00BF00BFFFF76EF890
:10239000019000BFFFF704FB00BF89480078401E92
:1023A000874908700846007808B902F03FFF00BF6F
:1023B00002E089E010E18DE1FFF70CFB00BF01981E
:1023C000FFF758F800BF00BF00BF91E1286A00EA9C
:1023D0000806CEB1BAF1010F02D1286AB0432862D3
:1023E00076480068C0F884600FB1686A386000BF42
:1023F000FFF7F0FA00BF0198FFF73CF800BF00BFFD
:10240000002020803046E0E609F4004068B100BFBB
:10241000FFF7E0FA00BF0198FFF72CF800BF00BFFC
:1024200046F2B01020800020CFE6654800780028F2
:102430000DDD00BFFFF7CEFA00BF0198FFF71AF8D5
:1024400000BF00BF46F6635020800020BDE600BFFD
:102450005B480078401C5A490870084600780128FB
:1024600001D102F0D5FE00BFFFF7B4FA00BF01981A
:10247000FFF700F800BF00BF00BF4B4642462946A9
:1024800002A8CDF800B001F003FE00BF00BF00BFFE
:10249000FEF7ECFF019000BFFFF782FA00BF48484B
:1024A0000078401E464908700846007808B902F0D6
:1024B000BDFE00BFFFF78EFA00BF0198FEF7DAFFFE
:1024C00000BF00BF00BF13E1286A28EA00064645A6
:1024D00019D1BAF1010F02D1286A30432862374876
:1024E0000068C0F884600FB1686A386000BFFFF709
:1024F00071FA00BF0198FEF7BDFF00BF00BF0020CA
:102500002080304661E609F4004068B100BFFFF763
:1025100061FA00BF0198FEF7ADFF00BF00BF46F2B1
:10252000B0102080002050E62548007800280DDDFE
:1025300000BFFFF74FFA00BF0198FEF79BFF00BFF7
:1025400000BF46F66350208000203EE600BF1C48D6
:102550000078401C1A49087008460078012801D10B
:1025600002F056FE00BFFFF735FA00BF0198FEF7F4
:1025700081FF00BF00BF00BF4B464246294602A86C
:10258000CDF800B001F084FD00BF00BF00BFFEF732
:102590006DFF019000BFFFF703FA00BF0848007805
:1025A000401E074908700846007808B902F03EFE50
:1025B00000BF07E074000020464C41471C0100208A
:1025C000C4000020FFF706FA00BF0198FEF752FF93
:1025D00000BF00BF00BF8BE0286A28EA0006CEB12A
:1025E000BAF1010F02D1286A304328628F4800688F
:1025F000C0F884600FB1686A386000BFFFF7EAF97D
:1026000000BF0198FEF736FF00BF00BF002020800A
:102610003046DAE509F4004068B100BFFFF7DAF9A7
:1026200000BF0198FEF726FF00BF00BF46F2B010C2
:1026300020800020C9E57E48007800280DDD00BF1D
:10264000FFF7C8F900BF0198FEF714FF00BF00BFF5
:1026500046F6635020800020B7E500BF744800783C
:10266000401C7349087008460078012801D102F027
:10267000CFFD00BFFFF7AEF900BF0198FEF7FAFEED
:1026800000BF00BF00BF4B464246294602A8CDF816
:1026900000B001F0FDFC00BF00BF00BFFEF7E6FE8A
:1026A000019000BFFFF77CF900BF61480078401E31
:1026B0005F4908700846007808B902F0B7FD00BF0E
:1026C000FFF788F900BF0198FEF7D4FE00BF00BFF6
:1026D00000BF0DE000BFFFF77DF900BF0198FEF7D6
:1026E000C9FE00BF00BF45F62560208000206CE5D4
:1026F00000BF00F04BFA00BF00BFFEF7B7FE01902D
:1027000000BFFFF74DF900BF4848006890F835005A
:1027100030B101280CD002282CD003283CD119E07C
:102720001FB142480068006C38600020208040E003
:102730001FB13E480068006C386000BFFFF74AF9DF
:1027400000BF0198FEF796FE00BF00BF46F2A91039
:1027500020802EE00FB10020386000BFFFF73AF96B
:1027600000BF0198FEF786FE00BF00BF47F2D920E8
:1027700020801EE01FB12D480068006C386000BF4B
:10278000FFF728F900BF0198FEF774FE00BF00BFF5
:1027900045F6C25020800CE000BFFFF71BF900BFD8
:1027A0000198FEF767FE00BF00BF46F62E6020804E
:1027B00000BF00BF208808B1002006E51B48006864
:1027C000D0F88460BAF1010F22D10A9801280BD009
:1027D00002280AD0042802D008280AD100E000BF4D
:1027E000286AB043286212E000BF286A304328629A
:1027F0000DE000BFFFF7EEF800BF0198FEF73AFECC
:1028000000BF00BF45F6256020800020DDE400BF4A
:1028100000BFFFF7DFF800BF0198FEF72BFE00BFF7
:1028200000BF002020803046CFE400001C010020C3
:10283000C40000202DE9FF470546884617461C4680
:1028400035B945F6C3502080002004B0BDE8F087BC
:102850004FB1012F08D0B7F5004F06D06FF40040FC
:10286000384420B902E000BF00BF00BF04E045F6D5
:10287000256020800020E8E700BF134928688842CF
:1028800004D045F6C45020800020DEE7FFF716F99B
:1028900006460E48007800280BDD00231A4629461C
:1028A0000948CDE90087CDE9026401F0FDFD002073
:1028B000CBE733463A4641462846009401F02CFCCB
:1028C00081464846C1E70000464C4147740000205D
:1028D00010B50348006810B101480068804710BD7A
:1028E0006000002070B5044600F0C2F8002048499E
:1028F00008704849087048490870484908604849C4
:1029000008604849087048490870484908704849B3
:1029100008604849086048490860484908704848C4
:1029200000680A21B0FBF1F046490860464800689B
:1029300058B14648056845B14348066803E0761E2D
:10294000002028602D1D002EF9D10020404908608C
:1029500040490860404908604049086040490860B3
:1029600040490860404908604049087002F06CFA2C
:1029700002F06AFB204601F0C3FB208800B170BD65
:10298000204601F0DDFF208800B1F8E7204601F085
:10299000E3FF208800B1F2E7204602F0C7F8208864
:1029A00000B1ECE7204602F07FFA208800B1E6E7AC
:1029B000204602F0CFFC208800B1E0E7204603F07B
:1029C00039F8208800B1DAE7204601F025FF208899
:1029D00000B1D4E7204601F02FFD208800B1CEE7FA
:1029E000204604F08FF8208800B1C8E7204602F0A6
:1029F00065FF208800B1C2E7204604F0DFF8208898
:102A000000B1BCE701F06AFAFFF758FB00BFB6E778
:102A1000740000207C000020C40000201C01002065
:102A200020010020AA000020AB000020AC00002004
:102A3000B8000020BC000020C0000020CC00002016
:102A4000FCC50008C8000020CCC50008C8C50008A7
:102A500054000020580000205C000020600000208E
:102A600064000020680000206C000020FA000020B4
:102A70000A4A1168002002E0002204C1401C084AF2
:102A800012689042F8D3054A1268054B1B6802EBA6
:102A90008302121F034B1A6070470000C8C500086C
:102AA000CCC500082401002010B500242E48007871
:102AB000012800D010BD00BFFEF7D8FC044600BFBF
:102AC0002A48007828B900BF2046FEF7D3FC00BF93
:102AD000F0E726480078401E244908700846007830
:102AE000002805DD00BF2046FEF7C4FC00BFE1E77B
:102AF0001F480078002805DD00BF2046FEF7BAFC1D
:102B000000BFD7E702F08CF91A4908700846007830
:102B100000EB4000184951F82000184908600846A9
:102B2000006817490968884205D100BF2046FEF7B2
:102B3000A1FC00BFBEE711480068D0F89000401C1F
:102B40000E490968C1F890000E480068401C0D4904
:102B500008604FF080500C49086000BF2046FEF727
:102B600089FC00BF00BFA5E77C00002074000020A6
:102B7000C4000020AB000020349800202001002079
:102B80001C010020F000002004ED00E010B500243E
:102B900020480078002800DD10BD1F48007800287C
:102BA00000DDF9E700BFFEF761FC044600BF02F05C
:102BB00037F91A4908700846007800EB40001849B8
:102BC00051F820001749086008460068164909684E
:102BD000884205D100BF2046FEF74CFC00BFDBE772
:102BE00010480068D0F89000401C0E490968C1F8F0
:102BF00090000E480068401C0C4908604FF080505F
:102C00000B49086000BF2046FEF734FC00BF00BF40
:102C1000C2E7000074000020C4000020AB000020C8
:102C200034980020200100201C010020F00000202A
:102C300004ED00E070B5044600251A48007800282D
:102C400003DD46F66250208070BD174800780128E9
:102C500003D045F689602080F6E714480078FA280A
:102C600003DB45F209202080EEE700BF00BFFEF73E
:102C7000FDFB054600BFFEF793FE00BF0B48007842
:102C8000401C0A49087002F0C3FA00BFFEF7A2FE1A
:102C900000BF2846FEF7EEFB00BF00BF00202080EB
:102CA00000BFD1E7740000207C000020C400002099
:102CB00070B50446002523480078002803DD46F659
:102CC0006550208070BD20480078012803D045F66B
:102CD00089602080F6E71D48007818B946F66450F0
:102CE0002080EFE700BF00BFFEF7C0FB054600BF36
:102CF000FEF756FE00BF15480078401E13490870C5
:102D00000846007800280CDD00BFFEF763FE00BF18
:102D10002846FEF7AFFB00BF00BF46F66350208099
:102D2000D0E702F083FA00BFFEF754FE00BF28464A
:102D3000FEF7A0FB00BF00BFFFF728FF00202080A8
:102D400000BFBFE7740000207C000020C40000200A
:102D500010B5044612480078E8B902F061F811494C
:102D6000087008460078104908700E48007800EB9B
:102D700040000E4951F820000D49086008460068DF
:102D80000C490860012006490870FEF7D9FB43F69C
:102D90009920208002E045F68A60208010BD000066
:102DA0007C000020AB000020AA0000203498002006
:102DB000200100201C0100202DE9F04107464FF0C2
:102DC000000800BF00BFFEF751FB804600BFFEF7C2
:102DD000E7FD00BF00204749086047490880474990
:102DE00008804749086047490860474908604749E3
:102DF0000860474908604749088100BFFEF7EAFDBF
:102E000000BF4046FEF736FB00BF00BF00BF00BF5B
:102E1000FEF72CFB804600BFFEF7C2FD00BF3E4818
:102E2000046800BFFEF7D6FD00BF4046FEF722FB58
:102E300000BF00BF26E000BF00BFFEF717FB8046C3
:102E400000BFFEF7ADFD00BF00207834E0632064D2
:102E500020602063A061A082E0826062A062FEF731
:102E60002DFE2062783C04F164060020B081D4F885
:102E7000C04000BFFEF7AEFD00BF4046FEF7FAFAC5
:102E800000BF00BF002CD6D100BF00BFFEF7EEFA96
:102E9000804600BFFEF784FD00BF2048056800BFE4
:102EA000FEF798FD00BF4046FEF7E4FA00BF00BF02
:102EB00016E000BF00BFFEF7D9FA804600BFFEF75C
:102EC0006FFD00BF05F120060020B081AD6900BF95
:102ED000FEF780FD00BF4046FEF7CCFA00BF00BF02
:102EE000002DE6D103F0D6FC03F064FF002038800B
:102EF000BDE8F081900000208A000020DA00002068
:102F0000EC000020000100200C01002078000020CF
:102F1000BC00002028980020F4000020B000002011
:102F2000F8B5044600266946364800F033FDBDF882
:102F3000000018B1BDF800002080F8BD6A460021ED
:102F4000022000F0A9FDBDF8000018B1BDF8000096
:102F50002080F2E700BF00BFFEF788FA064600BFF8
:102F6000FEF71EFD00BF00202749086000BFFEF7E6
:102F700031FD00BF3046FEF77DFA00BF00BF0025DF
:102F80002248006822490968884205D91F4800681C
:102F90001F490968B0FBF1F525B91C4800680A21F2
:102FA000B0FBF1F56A460021284600F075FD694640
:102FB000144800F0A5FABDF8000018B1BDF80000F3
:102FC0002080BAE700BF00BFFEF750FA064600BFF8
:102FD000FEF7E6FC00BF00200E4908600A480068C2
:102FE0000D49086001200D49087000BFFEF7F2FC92
:102FF00000BF3046FEF73EFA00BF00BF0020208031
:1030000000BF9AE7449B0020DC000020FCC50008BC
:10301000E4C50008EC000020E0000020E8000020EB
:1030200010B50348006810B101480068804710BD22
:10303000640000202DE9FF4F87B004469046DDE98B
:103040001BA5DDE91496179F002003909548007892
:10305000002805DD47F24A1028800BB0BDE8F08F4C
:103060001CB947F2AD102880F7E7B8F1000F03D183
:1030700047F24F102880F0E71EB946F62F602880EF
:10308000EBE789480068874203D246F63060288023
:10309000E3E71698B84203D346F631602880DCE7B0
:1030A000B9F1200F03D346F273202880D5E7B9F198
:1030B000000F06D17D48844203D046F27320288059
:1030C000CBE7B9F11F0F06D17948844203D046F20D
:1030D00073202880C1E7204602F0BCFC0020288035
:1030E0000AF0010090B10AF0020078B105960020C4
:1030F000069008E00021059801600598001D0590E4
:103100000698401C06900698B842F3D3169806EB32
:1031100080000490CDE9007A32464046049B0A992B
:1031200000F0D8FB0590C4F828800A98E06208985F
:10313000206284F83790059820600498A060199860
:103140006065199818B95B480068A06501E0199896
:10315000A0651A9860606662A763A4F83CA04FF06F
:10316000000B08E0002104F17C0040F82B100BF16B
:10317000010000F0FF0BBBF1000FF3D004F164007D
:10318000189901F049FC204600F09EF800BF00BFEE
:1031900000BFFEF76BF9039000BFFEF701FC00BF14
:1031A00045480078401C44490870084600780128CA
:1031B00001D102F02DF800BFFEF70CFC00BF039810
:1031C000FEF758F900BF00BF00BF94F8370001F0C8
:1031D00047FE204601F080FF204602F0F1FB374811
:1031E0000088401C3549088035480078012837D0D0
:1031F00000BF00BF00BFFEF739F9039000BFFEF724
:10320000CFFB00BF2C480078401E2B4908700846B1
:103210000078D0B902F00AF82A48008800280BDDAF
:1032200000BFFEF7D7FB00BF0398FEF723F900BFEE
:1032300000BF01F0BFFF11E000BFFEF7CBFB00BFF6
:103240000398FEF717F900BF08E000BFFEF7C2FBC6
:1032500000BF0398FEF70EF900BF00BF00BFFCE6F9
:1032600000BF00BF00BFFEF701F9039000BFFEF7EB
:1032700097FB00BF10480078401E0F4908700846B1
:10328000007808B901F0D2FF00BFFEF7A3FB00BF32
:103290000398FEF7EFF800BF00BF00BFFFF776FC12
:1032A00000BFDAE674000020F8C50008609700202F
:1032B00098960020C8000020C4000020F8000020DC
:1032C0007C0000208800002010B5044603480068F8
:1032D00018B1204601490968884710BD54000020F4
:1032E00070B504460D46002678480078002803DDB6
:1032F00047F24E10288070BD7548844203D147F2D2
:103300004C102880F7E77348844203D147F24D10F0
:103310002880F0E79CB900BF00BFFEF7A7F806467B
:1033200000BFFEF73DFB00BF6B48046800BFFEF71F
:1033300051FB00BF3046FEF79DF800BF00BF00BF45
:1033400000BF00BFFEF792F8064600BFFEF728FB5D
:1033500000BF62480078401C604908700846007849
:10336000012801D101F054FF00BFFEF733FB00BF7D
:103370003046FEF77FF800BF00BF00BF94F836006C
:1033800008282DD2DFE800F004090E10080A0F11FA
:10339000204601F0E1FE5EE05DE000BF204603F064
:1033A0005DFA58E000BF00BF00BF204603F056FAA8
:1033B00094F83400082810D2DFE800F0040705086C
:1033C000090A0B0600BF00BF08E000BF00BF00BF36
:1033D00000BF204601F076FC00E000BF00BF3AE0ED
:1033E00000BF00BF00BFFEF741F8064600BFFEF772
:1033F000D7FA00BF39480078401E3849087008469F
:103400000078D0B901F012FF3548008800280BDDA4
:1034100000BFFEF7DFFA00BF3046FEF72BF800BF13
:1034200000BF01F0C7FE11E000BFFEF7D3FA00BFF6
:103430003046FEF71FF800BF08E000BFFEF7CAFAEB
:1034400000BF3046FEF716F800BF00BF00BF46F6CB
:103450002D6028804FE700BF04F1640001F0BAFA44
:10346000204600F041F8204602F0C2FA1D480088CC
:10347000401E1C490880204602F0ECFAFF2084F828
:10348000360000BF00BF00BFFDF7F0FF064600BFDB
:10349000FEF786FA00BF11480078401E0F490870F9
:1034A0000846007808B901F0C1FE00BFFEF792FAA5
:1034B00000BF3046FDF7DEFF00BF00BF00BF0020A9
:1034C0002880FFF763FB00BF15E7000074000020B1
:1034D00098960020609700201C010020C400002066
:1034E00088000020F800002010B50446034800685A
:1034F00018B1204601490968884710BD58000020CE
:103500007FB504460D46002600BF00BFFDF7AEFFA5
:10351000064600BFFEF744FA00BF1CB1174800681A
:1035200084420CD100BFFEF755FA00BF3046FDF7CC
:10353000A1FF00BF00BF47F2571028807FBD00BF2A
:10354000FEF748FA00BF3046FDF794FF00BF00BF0A
:103550000B48007800280BDD002000900190034606
:1035600002462146CDE90205064800F09DFFE5E749
:103570002946204602F01AFC00BFDFE71C010020AC
:10358000740000205452455310B5044603480068A7
:1035900018B1204601490968884710BD5C00002029
:1035A0002DE9F04780460E4614461D464FF00009AF
:1035B0008C480078002805DD46F2AE1028800020F7
:1035C000BDE8F0871EB1B6F5004F02D100E000BFA4
:1035D00004E045F6256028800020F1E700BF0CB12B
:1035E0000020206000BF00BFFDF740FF814600BF04
:1035F000FEF7D6F900BF7C480068406CB8B37A4843
:103600000068406C401E7849096848647648006844
:10361000476C1CB174480068006C2060FEF74EFADD
:1036200071490968096C401A6F490968C1F8A4001A
:103630006D480068D0F8A8006B490968D1F8A4105B
:10364000884207D268480068D0F8A4006649096833
:10365000C1F8A80000BFFEF7BDF900BF4846FDF75E
:1036600009FF00BF00BF002028803846A8E7FFE719
:1036700006F4004068B100BFFEF7ACF900BF484651
:10368000FDF7F8FE00BF00BF46F2B0102880002012
:1036900096E75648007800280DDD00BFFEF79AF93E
:1036A00000BF4846FDF7E6FE00BF00BF46F6635088
:1036B0002880002084E700BF4C480078401C4B491C
:1036C000087008460078012801D101F0A1FD00BF73
:1036D000FEF780F900BF4846FDF7CCFE00BF00BFF3
:1036E00000BF434607220021084601F02BFA00BF25
:1036F00000BF00BFFDF7BAFE814600BFFEF750F9DC
:1037000000BF3A480078401E3849087008460078E3
:1037100008B901F08BFD00BFFEF75CF900BF484619
:10372000FDF7A8FE00BF00BF00BFFFF72FFA00BFE4
:1037300000BFFDF79BFE814600BFFEF731F900BFD9
:103740002948006890F8350020B1012826D00328C8
:1037500034D12CE0FCB124480068006C2060FEF7F6
:10376000ADF921490968096C401A1F490968C1F877
:10377000A4001D480068D0F8A8001B490968D1F8CA
:10378000A410884207D218480068D0F8A40016494F
:103790000968C1F8A8000020288013E01CB1124875
:1037A0000068006C206046F2A91028800AE00CB185
:1037B0000020206047F2D920288003E046F62E60E2
:1037C000288000BF00BF08480068476C00BFFEF7B4
:1037D00001F900BF4846FDF74DFE00BF00BF384667
:1037E000EEE60000740000201C010020C400002050
:1037F0002DE9F04705460E4617461C464FF0000AD5
:1038000032480078002804DD47F259102080BDE8D6
:10381000F0871EB946F2D5202080F8E71FB946F29E
:10382000D5202080F3E700BF00BFFDF71FFE8246D2
:1038300000BFFEF7B5F800BF0DB925480568286838
:1038400078B900BFFEF7C6F800BF5046FDF712FE7C
:1038500000BF00BF00203060386047F25210208067
:10386000D5E795F83C0000F0010078B900BFFEF7FD
:10387000B1F800BF5046FDF7FDFD00BF00BF0020BE
:103880003060386047F254102080C0E700BFFEF778
:10389000A1F800BF5046FDF7EDFD00BF00BF4FF09F
:1038A0000008D5F8249003E009F1040908F10108A3
:1038B000D9F800000028F7D0C6F80080A86BA0EB6C
:1038C000080038600020208000BFA0E774000020BE
:1038D0001C010020F0B50446DDE9055602EB850029
:1038E0004FF0807C071F3846C7F800C0071F3846D6
:1038F0003C60DFF89CC0071F3846C7F800C04FF097
:10390000123C071F3846C7F800C04FF0033C071FA2
:103910003846C7F800C04FF0023C071F3846C7F8CA
:1039200000C0071F38463B60071F384639604FF01C
:10393000113C071F3846C7F800C04FF0103C071F66
:103940003846C7F800C04FF0093C071F3846C7F893
:1039500000C04FF0083C071F3846C7F800C04FF0C2
:10396000073C071F3846C7F800C04FF0063C071F4A
:103970003846C7F800C04FF0053C071F3846C7F867
:1039800000C04FF0043C071F3846C7F800C0F0BD28
:10399000295F00087FB505460C461248854203D1D1
:1039A00047F25B1020807FBD0F48854203D147F26C
:1039B0005C102080F7E70D48007800280BDD002020
:1039C00000900190034602462946CDE902040848CA
:1039D00000F06AFDE7E72146284602F085FD00BFBA
:1039E000E1E7000098960020609700207400002016
:1039F0005453555370B52448006810B122480068EC
:103A00008047FEF75BF804462048006820490968B3
:103A1000884215D01D480068D0F89800201A1B492C
:103A20000968C1F8940019480068D0F89C0017494B
:103A30000968D1F89410084414490968C1F89C0039
:103A400013480068C0F89840FDF77EFF05460F4810
:103A50000068D0F8B400A84203D20C480068C0F84F
:103A6000B4500A480068D0F8B8000A49096888428A
:103A700005D20848006805490968C1F8B800002067
:103A80000449086070BD0000680000201C0100208F
:103A900020010020C00000202DE9F04105460E461F
:103AA000144600274D480078002804DD47F27520B1
:103AB0002080BDE8F0814A480078002803DD46F602
:103AC00063502080F5E736B1022E05D0042E0AD0CF
:103AD000082E09D101E000BF00BF1DB947F27E20CA
:103AE0002080E6E704E003E045F625602080E0E77B
:103AF00000BF00BF00BF00BFFDF7B8FC074600BF16
:103B0000FDF74EFF00BF36480078401C344908706E
:103B100008460078012801D101F07AFB00BFFDF7CB
:103B200059FF00BF3846FDF7A5FC00BF00BF00BF2E
:103B300001202C49096881F836002346324629467F
:103B40002848006802F0ACFD2088F0B100BF00BF3B
:103B500000BFFDF78BFC074600BFFDF721FF00BF4C
:103B60001F480078401E1E4908700846007808B9B2
:103B700001F05CFB00BFFDF72DFF00BF3846FDF7ED
:103B800079FC00BF00BF00BF93E71648006801F052
:103B9000E3FA00BF00BF00BFFDF768FC074600BFA7
:103BA000FDF7FEFE00BF0E480078401E0C4908706D
:103BB0000846007808B901F039FB00BFFDF70AFF9D
:103BC00000BF3846FDF756FC00BF00BF00BFFEF740
:103BD000DDFF0020208000BF6BE7000074000020A4
:103BE000C40000201C0100202DE9FF5F05460E46A1
:103BF00017469846DDE90EA4002000908148007821
:103C0000002804DD47F275202080BDE8FF9F7E4834
:103C10000078002803DD46F663502080F5E70AF0BF
:103C20000E0BBBF1000F09D0BBF1020F07D0BBF1A7
:103C3000040F10D0BBF1080F0ED101E000BF00BF90
:103C4000B8F1000F06D12FB926B91DB947F27E2071
:103C50002080DAE704E003E045F625602080D4E721
:103C600000BF2AF01E0008B1012000E000200390F0
:103C70000398012803D145F625602080C5E7CAF3E3
:103C8000001002900298C0B9B8F57A7F03D347F2CA
:103C90007B202080B9E73B2F03DD47F27A2020808C
:103CA000B3E73B2E03DD47F279202080ADE7632D9B
:103CB00012DD47F278202080A7E742F20F7086429B
:103CC00003DD47F2792020809FE7B5F57A7F03DB9B
:103CD00047F27820208098E74C48D0F800904FF4C5
:103CE000FA70B0FBF9F0404400FB09F04FF47A7130
:103CF000B0FBF1F14FF461606843C6EB061200EBD4
:103D00008200384400FB091001900198002873D00C
:103D100000BF00BF00BFFDF7A9FB009000BFFDF78B
:103D20003FFE00BF38480078401C374908700846FD
:103D30000078012801D101F06BFA00BFFDF74AFEBF
:103D400000BF0098FDF796FB00BF00BF00BF012039
:103D50002F49096881F8360023465A462C480199B4
:103D6000006802F09DFC2088F0B100BF00BF00BFDA
:103D7000FDF77CFB009000BFFDF712FE00BF22485C
:103D80000078401E204908700846007808B901F004
:103D90004DFA00BFFDF71EFE00BF0098FDF76AFB5D
:103DA00000BF00BF00BF30E71948006801F0D4F938
:103DB00000BF00BF00BFFDF759FB009000BFFDF73B
:103DC000EFFD00BF10480078401E0F4908700846FC
:103DD000007808B901F02AFA00BFFDF7FBFD00BF2B
:103DE0000098FDF747FB00BF00BF00BFFEF7CEFE07
:103DF0000020208003E0FFE747F27E20208000BF04
:103E000003E7000074000020C4000020FCC5000887
:103E10001C01002010B586B000F01EF8FDF74EFE24
:103E2000044605A800210091CDE90114039007483C
:103E3000007800EB4000064A02EB800100231A469E
:103E4000044800F031FB06B010BD0000AA000020BD
:103E5000349800205449434B10B50348006810B112
:103E600001480068804710BD6C00002010B5002498
:103E700000BF00BFFDF7FAFA044600BFFDF790FD52
:103E800000BF09480078401C0749087000BFFDF7D3
:103E9000A1FD00BF2046FDF7EDFA00BF00BFFFF710
:103EA000B9FFFEF701FE10BD7400002001464A1E56
:103EB0004FF0E0235A61084A106820F07F4000BFAD
:103EC00010601A46126942F005021A611A46126918
:103ED00042F002021A61704720ED00E0254A2649AF
:103EE000264A274A2749284A2848294A294A2A4A45
:103EF0002A4A2B482B482C482C4A2D482D4A2E481C
:103F00002E4A2F482F4830483048314A314A324AE9
:103F10003248334A334A34483448354835483648BD
:103F200036483748374A384A384A394A39483A4889
:103F30003A483B4A3B4A3C4A3C483D483D483E495A
:103F40003E483F4A3F4A404A404A414A414A424A23
:103F50004248434A434A44484448454A454A4648F9
:103F6000464A474A47484848484800BF00BF00BF44
:103F70007047000040C60008A8C7000841C60008F6
:103F800042C6000844C6000848C600084CC60008DF
:103F900049C6000874C6000875C6000876C6000841
:103FA00078C600087AC600087CC600087EC60008ED
:103FB00080C60008A0C60008A2C60008A4C6000863
:103FC000A6C60008A8C60008AAC60008ACC6000815
:103FD000D8C60008D9C60008DAC60008DCC6000842
:103FE000DEC60008DFC60008E0C60008E2C600081A
:103FF000E4C60008E6C60008E8C60008EAC60008ED
:10400000ECC600081CC700081DC700081EC7000832
:104010001FC7000820C7000822C7000824C70008DF
:104020004CC700084DC700084EC700084FC700081E
:1040300050C7000852C7000854C7000858C70008F6
:1040400059C700085AC700085BC700085CC70008CA
:104050005DC700085EC700085FC7000860C70008AA
:1040600062C7000863C7000864C7000866C7000885
:1040700068C7000869C700086CC70008A0C7000827
:10408000A1C70008A2C70008A4C70008A6C7000867
:104090002DE9F04106460F4614461D46DDF818800E
:1040A0000A480068C0F8804008480068A0F88850B6
:1040B000002006490968C1F88400434601223946B8
:1040C000304600F03FFDBDE8F08100001C010020FB
:1040D00009A1C161002141610849096811B90021A4
:1040E000816105E005490968816104490968486101
:1040F0000249086070470000200000009400002082
:104100000021034A1160034A1180018070470000BA
:1041100094000020980000202DE9F04F85B004465F
:10412000894692469B46DDF838800020009000BF0B
:1041300000BFFDF79BF9009000BFFDF731FC00BF09
:10414000BAF1000F0AD0BAF1010F0DD0BAF5004F45
:1041500005D06FF40040504460B906E000BF206A0B
:1041600040EA0900206216E000BF206A20EA090048
:10417000206210E000BFFDF72DFC00BF0098FDF7A6
:1041800079F900BF00BF45F62560A8F800000020BF
:1041900005B0BDE8F08F00BFC4F824B004F10800FA
:1041A00001900198008968B900BFFDF713FC00BFBA
:1041B0000098FDF75FF900BF00BF0020A8F80000DD
:1041C000206AE5E700BF71480078401C6F4908701D
:1041D00008460078012801D101F01AF800BFFDF768
:1041E000F9FB00BF0098FDF745F900BF00BF00BF15
:1041F00001980768BD6889E07868029095F88800A2
:1042000000F00F0003900398012821D002282ED03F
:10421000042802D0082836D10EE0206AD5F8801094
:1042200000EA0106D5F88000B04204D15A46314672
:10423000284600F0AFF863E0206AD5F8801000EA65
:10424000010626B15A463146284600F0A3F857E049
:10425000D5F88000216A20EA0106D5F88000B04236
:1042600004D15A463146284600F094F848E0D5F883
:104270008000216A20EA010626B15A4631462846C6
:1042800000F088F83CE000BF00BF00BFFDF7EEF88B
:10429000009000BFFDF784FB00BF3C480078401E43
:1042A0003A49087008460078D0B900F0BFFF384896
:1042B000008800280BDD00BFFDF78CFB00BF0098D5
:1042C000FDF7D8F800BF00BF00F074FF11E000BF99
:1042D000FDF780FB00BF0098FDF7CCF800BF08E0B9
:1042E00000BFFDF777FB00BF0098FDF7C3F800BFE4
:1042F00000BF00BF43F6FF20A8F80000002047E7FA
:1043000000BF029F0FB1BD6800E00025002D7FF4C3
:1043100073AF00BF00BF00BFFDF7A8F8009000BF5B
:10432000FDF73EFB00BF19480078401E1749087092
:104330000846007808B900F079FF00BFFDF74AFB96
:1043400000BF0098FDF796F800BF00BF00BF0AF459
:10435000004008B9FEF71AFC00BF00BFFDF786F861
:10436000009000BFFDF71CFB00BF206A049000BF57
:10437000FDF730FB00BF0098FDF77CF800BF00BFE1
:104380000020A8F80000049802E70000C400002004
:104390008800002070B504460E4615463434266564
:1043A000002060702070E560A078343C082816D2A8
:1043B000DFE800F0040508090706101100BF00BF80
:1043C00000BF0DE000BF204601F0E2FC002084F8B1
:1043D000360005E000BF042084F8360000E000BF8E
:1043E00000BF204600F06EFC70BD0000002400BF3E
:1043F0001DE000BF00BFFDF739F8044600BFFDF720
:10440000CFFA00BF0A480068401C09490860094803
:104410000068401C0749086000BFFDF7DBFA00BFD9
:104420002046FDF727F800BF00BFFEF751FAE0E78E
:1044300070000020DC00002010B58AB00446002087
:104440000E4908600B2000210591CDE90704069173
:1044500008460B4909680B4A12680B4B1B68CDE9EB
:104460000132CDE903101F200023084A08A1009063
:104470000C48FEF7DFFD0AB010BD00007000002000
:10448000A4C50008A0C500089CC50008ED430008AD
:1044900075432F4F532D4949492049646C65205479
:1044A00061736B00989600202DE9F84F04460D4685
:1044B00016461F46DDE90BABDDF82890DDF83480A9
:1044C0000020009000BF00BFFCF7D0FF009000BFAD
:1044D000FDF766FA00BF2C4800882C4909888842FD
:1044E0003EDA29480088401C27490880284800886F
:1044F0000988884203DA244800882549088025482D
:104500000068046023480068856022480068C6602F
:104510002048006807821F480068C0F814901D48B2
:104520000068A0F818A01B480068C0F81CB0194823
:10453000006840681749086001201749088117483A
:1045400008604860002000F08BFC1548007818B126
:1045500013480078134908700020A8F8000008E00C
:1045600011480088401C1049088044F25360A8F8A4
:10457000000000BFFDF72EFA00BF0098FCF77AFF9D
:1045800000BF00BFBDE8F88F88000020B0C500085C
:104590008A000020800000203498002060970020CE
:1045A000AA000020AC0000208C0000203EB5594835
:1045B00000680068584A811A904279D00FDC574948
:1045C000084400283ED056490844A8B1554908443B
:1045D000002860D05449084400286AD13FE053487D
:1045E0000844002850D052490844002862D051495C
:1045F00008440028F1D110E002A8464D00902D6833
:10460000EB69444D2D682A8B424D2D686969414DF7
:104610002D68A868FFF780FD7AE002A93D48006890
:10462000C0693C4DCDE900012D682B8B394D2D68BB
:104630002A8A384D2D68E968364D2D68A86800F043
:104640003FFC65E0334B1B68DA69324B1B68198B02
:10465000304B1B68986802AB00F088FE58E002A956
:104660002C480068C0692B4DCDE900012D682B8BCB
:10467000284D2D682A8A274D2D68E968254D2D681B
:10468000A86801F04FFA43E022490968886802A946
:1046900001F08CFB3CE01F4B1B68DA691D4B1B686B
:1046A000198B1C4B1B68986802AB01F049FC2FE08A
:1046B00007E02CE017490968886802A901F014FF97
:1046C00026E01D49097801EB41011C4A02EB8100FB
:1046D00000F0CAFD0F48006802AB0021C26918480B
:1046E00001F02EFC17480068401E16490860084675
:1046F000006858B9144800680860FDF7DFF90446FF
:1047000002AB22460021114801F01AFC00E000BF74
:1047100000BF3EBD840000205449434BADBAB2BE39
:104720000DF90BFAF2F8F7FF0006F6FF00F7FDF7B8
:1047300000FFEFFF03FE0FFEAC00002034980020C6
:104740007C9A00201801002014010020449B0020C6
:10475000002700BF56E0002652E000BF00BFFCF774
:1047600085FE074600BFFDF71BF900BF26480088FD
:1047700098B90020254908810860486000F082FB54
:1047800000BFFDF727F900BF3846FCF773FE00BFF6
:1047900000BFFEF7FBF9012632E000BFFDF71AF972
:1047A00000BF3846FCF766FE00BF00BFFDF786F984
:1047B0000546FFF7FBFEFDF781F9441B144800682E
:1047C000A04201D21248046000BF00BFFCF74EFEB9
:1047D000074600BFFDF7E4F800BF0E4800684068D8
:1047E0000C49086008480088401E0749088000BF3F
:1047F000FDF7F0F800BF3846FCF73CFE00BF00BFF5
:10480000002EAAD0A7E700008800002034980020DE
:104810009000002084000020F0B589B005460020FB
:10482000314908803148006820B944F2526028803C
:1048300009B0F0BD2E480088022803DA44F2546023
:104840002880F5E700202B490860284804682646A0
:10485000203600270CE0284820600020A060E0609F
:10486000208260612083666020342036781C87B205
:104870001F4800888742EEDB203C1C4806686660C3
:104880001E4806601E48066000201E4908801E491A
:1048900008801E48006818B944F255602880C7E7B0
:1048A0001B4800681B490968884203D244F25660DD
:1048B0002880BDE7032000210591CDE90705069179
:1048C00013480068144A1268104B1B68CDE90301B5
:1048D000CDE9013200910B46104A11A11748FEF7AD
:1048E000A9FB00BFA4E700008C000020ACC50008B5
:1048F000B0C50008900000204E4F4E4580000020BB
:1049000084000020880000208A000020B8C500082C
:10491000C0C50008F8C50008BCC50008514700081C
:1049200075432F4F532D4949492049535220517502
:10493000657565205461736B00000000609700206E
:104940000021034A1160034A118001807047000072
:104950009C000020A000002070B501461A4D2D6873
:104960001DB945F21E750D8070BD184D2D881DB9FD
:1049700045F21D750D80F7E7134D28682A6810323F
:10498000124D2D886D1EACB2002308E00260002598
:1049900045600581C560103010325D1CABB2A3428A
:1049A000F4DB0025056045600581C560064D2D6876
:1049B000074E3560054D2D88B5800025F580358181
:1049C0000D8000BFD0E70000DCC50008D4C500089A
:1049D0002898002010B5014648894B89002B17DD27
:1049E0000A680C4B1B6813600A4C4B682360234613
:1049F000DB884C891B1B074CE38023469B884C8932
:104A00002344044CA38000234B818B810B604B60BB
:104A100010BD00002898002001810022428182817F
:104A200002604260704700002DE9F0410D46DDE96B
:104A30000674B0F80AC0B0F80880C44505DB46F239
:104A4000935CA4F800C0BDE8F081DFF8DCC0BCF8DE
:104A500004C0BCF1000F04D145F21D7CA4F800C0D5
:104A6000F1E7DFF8C4C0DCF80010DFF8BC80D1F853
:104A700000C0C8F800C0C446BCF804C0ACF1010CCA
:104A8000A8F804C0C446BCF806C00CF1010CA8F894
:104A900006C0C446BCF808C0B8F80680C44507DAAA
:104AA000DFF884C0BCF806C0DFF87C80A8F808C036
:104AB000B0F80AC0BCF1000F0AD1016041604FF0AC
:104AC000010CA0F80AC04FF0000CC1F800C017E0BC
:104AD00003F0100CBCF1000F07D1066831600160D3
:104AE0004FF0000CC1F800C004E0D0F804C0C1F8D9
:104AF00000C04160B0F80AC00CF1010CA0F80AC077
:104B0000B0F80CC0B0F80A80C44503DAB0F80AC0A7
:104B1000A0F80CC04D600A81CF604FF0000CA4F8E3
:104B200000C000BF8FE70000289800200021034A42
:104B30001160034A1180018070470000A40000202A
:104B4000A80000202DE9F04105460C4616461F46F8
:104B50001548006880F8346000201349096881F81E
:104B6000350039461048006800F00EFF6CB104F1C2
:104B70000808EC60012229460B48006800F016F88E
:104B80002946404600F06BF806E000200649096817
:104B9000C88705490968086303480168204600F092
:104BA00019F8BDE8F08100001C01002010B5C28793
:104BB000016300230AE000244C600C600C614C612E
:104BC0000C83CC61886020315C1CA3B29342F2DB81
:104BD00010BD000030B548B14568C1F8C45000F1BF
:104BE0000804226893681D6AC56113E091F8345087
:104BF000022D02D0072D08D103E007A5C1F8C4504B
:104C000007E007A5C1F8C45003E008A5C1F8C450E7
:104C100000BF00BF30BD00005461736B2051000025
:104C20005461736B2053656D00000000200000008C
:104C300030B507A5C1F8C45000F1080422681AB1C4
:104C400093681D6AC56101E001A5C56130BD000022
:104C50002000000000210160416001817047F0B533
:104C60008E6896F8375007893FB9012707810027DA
:104C70004F600F600160416023E007897F1C07815E
:104C8000026806E0946894F83770AF4200DD02E0F5
:104C90005268002AF6D100BF32B900274F6043683E
:104CA0000B60596041600CE017682FB91160002754
:104CB0000F604A60016004E013680B604A6059604D
:104CC0001160F0BD2DE9F0410446256BE68F0AE046
:104CD000D5F80C8008F108072946384600F00AF894
:104CE0002035701E86B2002EF2DC0020E0872063A3
:104CF000BDE8F08110B50489012C03D100240460C3
:104D0000446011E00C6824B94A6800241460026011
:104D10000AE04C6824B90B6800245C60436003E03F
:104D20000B684A685A6013600489641E0481002479
:104D30004C600C6010BD2DE9F84306460C46174642
:104D40009846089D94F83600082850D2DFE800F015
:104D50000405080906072B2C00BF00BF00BF47E071
:104D600000BF94F83400032807D143463A46214651
:104D70003046009500F03FF803E0E765A4F8608056
:104D8000256436B12046FFF79DFF21463046FFF7E8
:104D90004FFF204600F0FCFF00203434A07060700C
:104DA00004F8340924E000BF94F83400032807D144
:104DB00043463A4621463046009500F01CF803E091
:104DC000E765A4F860802564204601F047FD36B110
:104DD0002046FFF777FF21463046FFF729FF0420E2
:104DE0003434A0700020607004F8340900E000BF83
:104DF00000BFBDE8F883F0B50446059E086BCD8F73
:104E00000AE0C768A74204D1046142610383C66116
:104E100004E020306F1EBDB2002DF2DC00BFF0BDFB
:104E200070B50025074C03E005F12000C5B2241D34
:104E300020680028F8D02068FCF723FB2844C5B27E
:104E4000284670BD28010020002004E00021034A0C
:104E500042F82010401C0028F8D07047280100209C
:104E600030B5420900F01F030121C3F11F04A14026
:104E7000034C54F822400C43014D45F8224030BD0C
:104E80002801002030B5420900F01F030121C3F1C1
:104E90001F04A140034C54F822408C43014D45F8B7
:104EA000224030BD280100200021034A1160034A3E
:104EB0001180018070470000B0000020B400002085
:104EC0002DE9F04F85B007468A4693461C460020E0
:104ED000029000BF00BF00BFFCF7C8FA029000BFFD
:104EE000FCF75EFD00BF56480078401C544908702E
:104EF00008460078012801D100F08AF900BFFCF7CC
:104F000069FD00BF0298FCF7B5FA00BF00BF00BF03
:104F100007F10806308900284CD104F0100010B9C0
:104F20004FF0000801E04FF01008DDE90E014346A4
:104F30005A46CDE90001514607F12000FFF774FD04
:104F400000BF00BF00BFFCF791FA029000BFFCF762
:104F500027FD00BF3A480078401E394908700846CE
:104F60000078D0B900F062F93648008800280BDDDF
:104F700000BFFCF72FFD00BF0298FCF77BFA00BFD3
:104F800000BF00F017F911E000BFFCF723FD00BFE0
:104F90000298FCF76FFA00BF08E000BFFCF71AFDAB
:104FA00000BF0298FCF766FA00BF00BF00BF05B063
:104FB000BDE8F08F04F4007008B1358900E00125E8
:104FC000D6F8009011E0D9F808000390D9F8040051
:104FD00004900E985B465246009038460399FFF7BE
:104FE000AAFEDDF81090681E85B2002DEBD100BF3F
:104FF00000BF00BFFCF73AFA029000BFFCF7D0FCFC
:1050000000BF0F480078401E0D4908700846007820
:1050100008B900F00BF900BFFCF7DCFC00BF0298F8
:10502000FCF728FA00BF00BF00BF04F4004008B935
:10503000FDF7ACFD00210F98018000BFB7E700002D
:10504000C40000208800002000210AE001EB41029A
:10505000054B03EB820000220281026042604A1C81
:10506000D1B22029F2D370473498002010B50446FD
:1050700094F83700FFF7F4FE94F8370005490978F3
:10508000884203D1204600F027F802E0204600F0D5
:1050900003F810BDAA00002010B590F8373003EBDC
:1050A00043030C4C04EB83010B893BB901230B81B7
:1050B0000023C36003610860486009E00B895B1C42
:1050C0000B810B68C360002303610A6810610860EC
:1050D00010BD00003498002010B590F8373003EB75
:1050E00043030B4C04EB83010B893BB901230B8178
:1050F0000023C36003610860486008E00B895B1C03
:105100000B810023C3604A680261D060486010BD13
:105110003498002010B501460C8924B1012C03D02D
:10512000022C0CD101E000BF14E008684A6802615B
:105130000024C4601461D0600A6048600AE0086816
:105140004A68C36800241C61C4600261D0600B60BF
:10515000486000BF00BF10BD2DE9F041054695F83D
:10516000370000EB4000124901EB80042F69EE6824
:1051700087B946B9002020812060606095F837002B
:10518000FFF780FE0EE02089401E20810020306164
:10519000266007E02089401E2081FE600EB967600E
:1051A00000E0376100202861E860BDE8F081000080
:1051B0003498002010B5002400BFFCF757F90446CE
:1051C00000BF00200D4908700D480E4908600846D0
:1051D0000068D0F89000401C0968C1F890000A48A7
:1051E0000068401C084908604FF08050074908607B
:1051F00000BF2046FCF73EF900BF10BDAB00002009
:105200006097002020010020F000002004ED00E065
:1052100010B504480078012803D1FCF74FFC02497F
:10522000086010BDC4000020B800002010B50A4876
:10523000007880B9FCF742FC08490968441A08481C
:105240000068A04201D20648046006480068A042F7
:1052500001D20448046010BDC4000020B800002042
:10526000BC000020C000002070B50546002635486F
:105270000078012800D070BD00BF00BFFCF7F6F831
:10528000064600BFFCF78CFB00BF2C684CB900BF82
:10529000FCF7A0FB00BF3046FCF7ECF800BF00BFF6
:1052A000E9E72948844209D100BFFCF793FB00BF1E
:1052B0003046FCF7DFF800BF00BFDCE7A06D10B19F
:1052C000A06D401EA065A06D48B100BFFCF782FB39
:1052D00000BF3046FCF7CEF800BF00BFCBE72889FF
:1052E000022809DA00BFFCF775FB00BF3046FCF767
:1052F000C1F800BF00BFBEE714480078002809DDF0
:1053000000BFFCF767FB00BF3046FCF7B3F800BFF7
:1053100000BFB0E72846FFF7FDFE2C68606D18B9A6
:105320000B480068A06501E0606DA06500BFFCF758
:1053300051FB00BF3046FCF79DF800BF00BF00BF27
:1053400099E70000CC00002098960020C4000020BF
:10535000C80000200021034A1160034A1180018027
:1053600070470000D0000020D40000202DE9FF5F2E
:105370000446884691461D460020019000BF00BFAC
:10538000FCF774F8019000BFFCF70AFB00BF04F1C2
:1053900008073889002857D10420012804D00228A2
:1053A00016D004283AD127E0206AFF280FD100BF89
:1053B000FCF710FB00BF0198FCF75CF800BF00BFD2
:1053C00046F6C5502880002004B0BDE8F09F26E0D6
:1053D0004FF6FF71206A88420DD100BFFCF7FAFA40
:1053E00000BF0198FCF746F800BF00BF46F6C55065
:1053F00028800020E8E712E0206A401C68B900BF5E
:10540000FCF7E8FA00BF0198FCF734F800BF00BFD2
:1054100046F6C55028800020D6E700E000BF00BF58
:10542000206A401C2062D4F820A0C4F8249000BF59
:10543000FCF7D0FA00BF0198FCF71CF800BF00BFD2
:10544000002028805046BFE700BF2D480078401C50
:105450002B49087008460078012801D1FFF7D8FED3
:1054600000BFFCF7B7FA00BF0198FCF703F800BFD4
:1054700000BF00BF08F4007008B13E8900E00126BB
:10548000D7F800B011E0DBF808000290DBF8040068
:10549000039000231A46CDF8009020460299FFF7AA
:1054A0004AFCDDF80CB0701E86B2002EEBD1D4F8A9
:1054B00020A000BF00BF00BFFBF7D8FF019000BFD6
:1054C000FCF76EFA00BF0E480078401E0C490870C9
:1054D0000846007808B9FFF7A9FE00BFFCF77AFA82
:1054E00000BF0198FBF7C6FF00BF00BF00BF08F474
:1054F000004008B9FDF74AFB00202880504663E7CA
:10550000C400002086B00020009000BF06E0D9490A
:105510000968480001AA0021FEF7BEFAD6480078C3
:105520000128F4D101A8FDF747FC0027D348006803
:10553000D0490968884205D9D0480068CD49096832
:10554000B0FBF1F727B9CD4800680A21B0FBF1F7AD
:105550008EE1FCF7B3FA8246FCF70CFAC849086002
:1055600000BF00BFFBF782FF009000BFFCF718FAF6
:1055700000BFC4480068C44908600020C1490860F1
:1055800000BFFCF727FA00BF0098FBF773FF00BFCE
:1055900000BFBE480068BC490968884248D9BB487A
:1055A0000068BB49884205D242F210700390012086
:1055B000029023E0B5480068B649884205D24FF40E
:1055C0007A7003900A20029018E0B0480068B2494F
:1055D000884203D26420039002900FE0AB48006839
:1055E000AE49884205D20A2003904FF47A700290A7
:1055F00004E00120039042F210700290A348016879
:105600000298B1FBF0F9A049039809684843B0FB40
:10561000F9F042F21071081AA1490880A1480088E7
:105620000988884208DA9E4800889E49088003E07D
:1056300042F210709A490880FDF7F2FC002500BF85
:1056400000BFFBF713FF009000BFFCF7A9F900BFF4
:105650009548046800BFFCF7BDF900BF0098FBF750
:1056600009FF00BF00BF72E000BF00BF00BFFBF733
:10567000FDFE009000BFFCF793F900BF8B48007857
:10568000401C8A49087008460078012801D1FFF7BC
:10569000BFFD00BFFCF79EF900BF0098FBF7EAFED4
:1056A00000BF00BF00BF54F89C0F6060002044F8AA
:1056B0009C0900BF00BF00BFFBF7D8FE009000BFF1
:1056C000FCF76EF900BF79480078401E77490870F2
:1056D00008460078D0B9FFF7A9FD75480088002872
:1056E0000BDD00BFFCF776F900BF0098FBF7C2FEA8
:1056F00000BF00BFFFF75EFD11E000BFFCF76AF9D5
:1057000000BF0098FBF7B6FE00BF08E000BFFCF743
:1057100061F900BF0098FBF7ADFE00BF00BF00BFFE
:10572000D4F8A000054400BF00BFFBF79FFE009027
:1057300000BFFCF735F900BFD4F8C04000BFFCF74C
:1057400049F900BF0098FBF795FE00BF00BF002C91
:105750008AD145B34E48854205D242F21070059079
:105760004FF0010B1BE04B48854205D24FF47A7095
:1057700005904FF00A0B12E04748854203D264209F
:10578000059083460BE04548854204D20A200590E7
:105790004FF47A7B03E00120059042F2107BB5FBC9
:1057A000FBF0049003E0002005900120049000BF6E
:1057B00000BFFBF75BFE009000BFFCF7F1F800BFF5
:1057C0003948046800BFFCF705F900BF0098FBF7F3
:1057D00051FE00BF00BF2FE0D4F8A0000599484358
:1057E0000499B0FBF1F086B242F21070864200D903
:1057F0000646A4F88C60B4F88E00B04201DAA4F832
:105800008E6001AB04F1AC02111D2046FDF7F0FFE4
:1058100000BF00BFFBF72AFE009000BFFCF7C0F8F6
:1058200000BFD4F8C04000BFFCF7D4F800BF009818
:10583000FBF720FE00BF00BF002CCDD11D48007833
:10584000012805D100201B49087001A8FDF7B4FA12
:10585000FCF734F9A0EB0A0817480068404502D26B
:105860001548C0F8008001AA00213846FEF714F957
:105870006FE60000E4C50008E8000020FCC5000851
:1058800078000020DC000020E4000020E000002080
:10589000801A060000093D00005A62020084D717F2
:1058A000D8000020DA000020F4000020C40000200E
:1058B00088000020D6000020EC00002010B58AB03F
:1058C000044600201F4908601F4908601F490860FE
:1058D0001F4908701F4908701F48006820B946F624
:1058E0002B6020800AB010BD1C4800681C49096864
:1058F000884203D246F62C602080F3E719480078EE
:105900001F2803D346F62A602080EBE703200021FE
:105910000591CDE907040691084610490968124A25
:1059200012680D4B1B68CDE90132CDE903100D481B
:10593000007800230D4A0EA100901248FDF77AFB73
:1059400000BFCFE7DC000020E4000020E0000020E2
:10595000E8000020D6000020E8C50008F0C50008D7
:10596000F8C50008E0C50008ECC5000805550008AA
:1059700075432F4F532D4949492053746174205466
:1059800061736B00B499002038B504460D4685B1AB
:105990006B4602222946204600F082FEBDF8000038
:1059A00018B9032084F8360006E0022084F8360097
:1059B00002E0022084F836002046FFF7CDFB38BD18
:1059C0000021C0F8BC100949096819B90021C0F8C4
:1059D000C01007E005490968C0F8C010034909680C
:1059E000C1F8BC000149086070470000F4000020C5
:1059F000D0F8BC20D0F8C0104AB90D4B196011B1D5
:105A00000023C1F8BC300023C0F8C0300FE029B932
:105A10000023C2F8C030C0F8BC3008E0C2F8C010A3
:105A2000C1F8BC200023C0F8C030C0F8BC307047BB
:105A3000F40000200021044A1160044A1180044A45
:105A40001160018070470000F4000020F800002081
:105A5000F000002070B5044600202060A060606067
:105A6000E06020616061A061E0612BA02062002005
:105A70006062A062E0622063E0872064E065A4F8D1
:105A80006000002104F16400FEF7C6FF002044F826
:105A9000740F6060E060A0822061743C002506E025
:105AA000002104F17C0040F82510681CC5B2002DCF
:105AB000F6D000203434206120676067606084F88D
:105AC0005600E067A06720814FF000406061002031
:105AD000A061E06120626062A4F85800A4F85A0056
:105AE000E0652066FBF7EAFF064666660020A066D2
:105AF000C4F88000C4F8840020706070A07020207A
:105B0000E0700020C4F88800C4F88C0004A0C4F839
:105B10009000343C70BD00003F5461736B00000086
:105B2000200000002DE9FC4704460F4690469946A8
:105B3000DDE90A654FF0000A00BF00BF00BFFBF7B8
:105B400095FC824600BFFBF72BFF00BF8D48007815
:105B5000401C8C49087008460078012801D1FFF7E5
:105B600057FB00BFFBF736FF00BF5046FBF782FC38
:105B700000BF00BF00BF0CB9834804680020288024
:105B800094F8360008287CD2DFE800F00405484984
:105B900006074A4B00BF00BF00BF4B46424639468E
:105BA00004F16400CDE90065FEF73EFF00BF00BFD1
:105BB00000BFFBF75BFC824600BFFBF7F1FE00BFB6
:105BC00070480078401E6F49087008460078D0B9C8
:105BD000FFF72CFB6D48008800280BDD00BFFBF7AA
:105BE000F9FE00BF5046FBF745FC00BF00BFFFF7C2
:105BF000E1FA11E000BFFBF7EDFE00BF5046FBF7F6
:105C000039FC00BF08E000BFFBF7E4FE00BF5046D0
:105C1000FBF730FC00BF00BF00BFAFE000BF00BF1C
:105C200000BF94F8340002282CD143463A4621465E
:105C300000200096FFF77FF800BF00BF00BFFBF712
:105C400015FC824600BFFBF7ABFE00BF4D48007855
:105C5000401E4C4908700846007808B9FFF7E6FA7C
:105C600000BFFBF7B7FE00BF5046FBF703FC00BFC9
:105C700000BF00BF09F40040002843D1FCF786FFB5
:105C800040E040E04B464246394604F16400CDE92D
:105C90000065FEF7C9FE00BF00BF00BFFBF7E6FBD3
:105CA000824600BFFBF77CFE00BF36480078401EEE
:105CB0003449087008460078D0B9FFF7B7FA33487E
:105CC000008800280BDD00BFFBF784FE00BF5046B4
:105CD000FBF7D0FB00BF00BFFFF76CFA11E000BF7D
:105CE000FBF778FE00BF5046FBF7C4FB00BF08E09F
:105CF00000BFFBF76FFE00BF5046FBF7BBFB00BFCA
:105D000000BF00BF3AE000BF00BF00BFFBF7AEFB23
:105D1000824600BFFBF744FE00BF1A480078401ED1
:105D20001849087008460078D0B9FFF77FFA17487D
:105D3000008800280BDD00BFFBF74CFE00BF50467B
:105D4000FBF798FB00BF00BFFFF734FA11E000BF7C
:105D5000FBF740FE00BF5046FBF78CFB00BF08E09E
:105D600000BFFBF737FE00BF5046FBF783FB00BFC9
:105D700000BF00BF46F62D60288000BF00BFBDE811
:105D8000FC870000C40000201C01002088000020C7
:105D900010B50446204600F061FD94F8360000F08E
:105DA000040010B92046FFF761F910BD70B5044634
:105DB0000D46002600BF00BFFBF758FB064600BF9C
:105DC000FBF7EEFD00BF0020288094F8360008287D
:105DD0007ED2DFE800F00405060714566A8000BF93
:105DE00000BF00BF00BFFBF7F5FD00BF3046FBF76B
:105DF00041FB00BF00BF47F2531028808CE000BF7A
:105E000048480078401C4749087008460078012837
:105E100001D1FFF7FDF900BFFBF7DCFD00BF304605
:105E2000FBF728FB00BF00BF00BF14F88A0F401E1D
:105E3000207014F88A0928B9002084F8360020461A
:105E4000FFF7A6FF00BF00BF00BFFBF70FFB064632
:105E500000BFFBF7A5FD00BF32480078401E314966
:105E600008700846007808B9FFF7E0F900BFFBF7B3
:105E7000B1FD00BF3046FBF7FDFA00BF00BF00BF19
:105E80004AE014F88A0F401E207014F88A0910B9ED
:105E9000012084F8360000BFFBF79CFD00BF3046B0
:105EA000FBF7E8FA00BF00BF36E014F88A0F401E87
:105EB000207014F88A0910B9022084F8360000BF57
:105EC000FBF788FD00BF3046FBF7D4FA00BF00E0C7
:105ED00015E000BF20E014F88A0F401E207014F86F
:105EE0008A0910B9032084F8360000BFFBF772FD61
:105EF00000BF3046FBF7BEFA00BF00BF0CE000BF9A
:105F0000FBF768FD00BF3046FBF7B4FA00BF00BFE7
:105F100046F62D60288070BD00BFFCF737FE00BF3D
:105F2000F9E70000C400002008B504480068FDF748
:105F30002BFB69460020FDF7D3F908BD1C010020AA
:105F40002DE9F8430446884617461D464FF00009E0
:105F500000BF00BF00BFFBF789FA814600BFFBF717
:105F60001FFD00BFFB480078401CFA490870084636
:105F70000078012801D1FFF74BF900BFFBF72AFD9C
:105F800000BF4846FBF776FA00BF00BF00BF0CB960
:105F9000F148046827640020288094F83600082817
:105FA0007AD2DFE800F00405FEFD0607FCFB00BF27
:105FB00000BF00BF0420012804D0022843D00428D9
:105FC0006BD184E0606CFF283CD100BF00BF00BFF4
:105FD000FBF74CFA814600BFFBF7E2FC00BFDD484F
:105FE0000078401EDB49087008460078D0B9FFF7FA
:105FF0001DF9DA48008800280BDD00BFFBF7EAFC3A
:1060000000BF4846FBF736FA00BF00BFFFF7D2F8E3
:1060100011E000BFFBF7DEFC00BF4846FBF72AFAA1
:1060200000BF08E000BFFBF7D5FC00BF4846FBF708
:1060300021FA00BF00BF00BF46F6C55028800020EF
:10604000BDE8F88385E04FF6FF71606C88423DD172
:1060500000BF00BF00BFFBF709FA814600BFFBF796
:106060009FFC00BFBB480078401EBA490870084634
:106070000078E0B9FFF7DAF8B848008800280DDDAD
:1060800000BFFBF7A7FC00BF4846FBF7F3F900BFD2
:1060900000BFFFF78FF813E0E2E159E000BFFBF724
:1060A00099FC00BF4846FBF7E5F900BF08E000BFD8
:1060B000FBF790FC00BF4846FBF7DCF900BF00BFD0
:1060C00000BF46F6C55028800020B9E741E0606C6B
:1060D000401CD8BB00BF00BF00BFFBF7C7F981461B
:1060E00000BFFBF75DFC00BF9A480078401E99494D
:1060F000087008460078D0B9FFF798F897480088EC
:1061000000280BDD00BFFBF765FC00BF4846FBF72E
:10611000B1F900BF00BFFFF74DF811E000BFFBF77A
:1061200059FC00BF4846FBF7A5F900BF08E000BFD7
:10613000FBF750FC00BF4846FBF79CF900BF00BFCF
:1061400000BF46F6C5502880002079E7FFE700E051
:1061500000BF00BF606C401C6064666C00BF00BF85
:1061600000BFFBF783F9814600BFFBF719FC00BFB6
:1061700078480078401E7749087008460078F8B9DA
:10618000FFF754F875480088002810DD00BFFBF7C2
:1061900021FC00BF4846FBF76DF903E01EE01CE060
:1061A0001AE018E000BF00BFFFF704F811E000BFDD
:1061B000FBF710FC00BF4846FBF75CF900BF08E0A6
:1061C00000BFFBF707FC00BF4846FBF753F900BFD1
:1061D00000BF00BF80E100BF00BF00BF94F83400E3
:1061E00007282CD100231A46214618460097FEF7AF
:1061F000A2FD666C00BF00BF00BFFBF737F9814608
:1062000000BFFBF7CDFB00BF52480078401E51494C
:1062100008700846007808B9FFF708F800BFFBF7D8
:10622000D9FB00BF4846FBF725F900BF00BF00BF00
:1062300008F40040002801D1FCF7A8FC0FE104207D
:10624000012804D0022842D0042872D189E0606C71
:10625000FF283BD100BF00BF00BFFBF707F9814615
:1062600000BFFBF79DFB00BF3A480078401E39494C
:10627000087008460078D0B9FEF7D8FF3748008884
:1062800000280BDD00BFFBF7A5FB00BF4846FBF76E
:10629000F1F800BF00BFFEF78DFF11E000BFFBF774
:1062A00099FB00BF4846FBF7E5F800BF08E000BFD8
:1062B000FBF790FB00BF4846FBF7DCF800BF00BFD0
:1062C00000BF46F6C55028800020B9E68BE04FF6A7
:1062D000FF71606C884243D100BF00BF00BFFBF775
:1062E000C5F8814600BFFBF75BFB00BF194800788B
:1062F000401E1849087008460078D8B9FEF796FF86
:106300001648008800280BDD00BFFBF763FB00BFC9
:106310004846FBF7AFF800BF00BFFEF74BFF12E0A7
:1063200000BFFBF757FB00BF4846FBF7A3F800BFD1
:1063300009E057E000BFFBF74DFB00BF4846FBF705
:1063400099F800BF00BF00BF46F6C5502880002066
:1063500076E60000C40000201C0100208800002018
:1063600041E0606C401CD8BB00BF00BF00BFFBF722
:106370007DF8814600BFFBF713FB00BF584800784B
:10638000401E5749087008460078D0B9FEF74EFF06
:106390005448008800280BDD00BFFBF71BFB00BF43
:1063A0004846FBF767F800BF00BFFEF703FF11E0A8
:1063B00000BFFBF70FFB00BF4846FBF75BF800BFD1
:1063C00008E000BFFBF706FB00BF4846FBF752F8AA
:1063D00000BF00BF00BF46F6C550288000202FE652
:1063E000FFE700E000BF00BF606C401C6064666CAB
:1063F00000BF00BF00BFFBF739F8814600BFFBF7C5
:10640000CFFA00BF36480078401E3549087008466C
:106410000078D0B9FEF70AFF3248008800280BDD6B
:1064200000BFFBF7D7FA00BF4846FBF723F800BFD1
:1064300000BFFEF7BFFE11E000BFFBF7CBFA00BFC5
:106440004846FBF717F800BF08E000BFFBF7C2FAA9
:1064500000BF4846FBF70EF800BF00BF00BF3BE09F
:1064600000BF00BF00BFFBF701F8814600BFFBF78C
:1064700097FA00BF1A480078401E1949087008466C
:106480000078D0B9FEF7D2FE1648008800280BDD50
:1064900000BFFBF79FFA00BF4846FAF7EBFF00BFCB
:1064A00000BFFEF787FE11E000BFFBF793FA00BFC5
:1064B0004846FAF7DFFF00BF08E000BFFBF78AFAA3
:1064C00000BF4846FAF7D6FF00BF00BF00BF46F640
:1064D0002D602880002600BF00BF3046B0E50000D8
:1064E000C40000208800002070B504460D46002638
:1064F00000BF00BFFAF7BAFF064600BFFBF750FA2D
:1065000000BF0CB95A48046859480068844210D149
:106510005848007800280CDD00BFFBF75BFA00BF8D
:106520003046FAF7A7FF00BF00BF46F66350288049
:1065300070BD0020288094F83600082873D2DFE868
:1065400000F0044252627374757600BF49480078C7
:10655000401C4849087008460078012801D1FEF720
:1065600057FE00BFFBF736FA00BF3046FAF782FF4E
:1065700000BF00BF00BF042084F83600012084F86B
:106580008A002046FEF7E8FD00BF00BF00BFFAF713
:106590006DFF064600BFFBF703FA00BF35480078E1
:1065A000401E344908700846007808B9FEF73EFEE0
:1065B00000BFFBF70FFA00BF3046FAF75BFF00BFE2
:1065C00000BF00BF4FE0052084F83600012084F8AA
:1065D0008A0000BFFBF7FEF900BF3046FAF74AFF1A
:1065E00000BF00BF3FE0062084F83600012084F899
:1065F0008A0000BFFBF7EEF900BF3046FAF73AFF1A
:1066000000BF00BF2FE0072084F83600012084F887
:106610008A0000BFFBF7DEF900BF3046FAF72AFF19
:1066200000BF00BF1FE011E000BF00BF00BF94F833
:106630008A00401C84F88A0000BFFBF7CBF900BF3A
:106640003046FAF717FF00BF00BF0CE000BFFBF7B2
:10665000C1F900BF3046FAF70DFF00BF00BF46F694
:106660002D60288064E700BFFCF790FA00BF5FE769
:106670001C010020C4000020002108E0064A02EBB3
:10668000C100002202608280C2804A1C91B2034A8B
:1066900012889142F2DB70478893002014C60008EC
:1066A0002DE9F04F0C4616461D46042E1ED1DFF88C
:1066B000A091D9F80090A4EB0909A9F1010313F501
:1066C000803F0DD94FF00009C0F84C90C0F85090B1
:1066D000C0F81C9047F27E29A5F80090BDE8F08F25
:1066E000C46403F10109C0F850903FE084B3082E60
:1066F00025D1D0F8489009EB0407DFF85491D9F878
:106700000090A7EB0909A9F10103A34201D2C764D4
:1067100006E0DFF83C91D9F80090A144C0F84C9015
:10672000DFF82CA1D0F84C90DAF800A0A9EB0A0908
:10673000C0F85090D0F84C90C0F8489016E0DFF8C0
:106740001091D9F80090A144C0F84C9004650DE078
:10675000FFE74FF00009C0F84C90C0F85090C0F827
:106760001C9047F27E29A5F80090B7E7DFF8E4A077
:10677000BAF800A0D0F84C90B9FBFAFB0AFB1B99C1
:106780001FFA89F8DFF8D09009EBC802B2F804903C
:10679000B9F1000F0BD14FF00009C0F81490C0F808
:1067A000189010604FF00109A2F804903EE01168C3
:1067B00034E0DFF89CA0D1F84C90DAF800A0A9EB07
:1067C0000A09C1F85090D0F85090D1F850A0D145A6
:1067D0000ED9D1F81490B9F1000F01D049691DE02C
:1067E0004FF00009C0F8149081614861002115E064
:1067F000D1F81890B9F1000F07D14FF00009C0F897
:10680000189041618861106007E0D1F818C0C0F8A5
:1068100018C04161CCF81400886100210029C8D15A
:10682000B2F8049009F10109A2F80490B2F80690B8
:10683000B2F804A0D14503DAB2F80490A2F80690A9
:10684000C2614FF00009A5F8009000BF46E70000C4
:10685000FC00002014C600088893002010B5C2690F
:10686000BAB1002404651468844205D141691160FD
:1068700039B100248C6104E0816943694B6103B143
:106880009961002444618461C461C4649488641E75
:10689000948010BD002006E0054A02EBC0010022F2
:1068A000CA80421C90B2034A12889042F4DB7047BF
:1068B0008893002014C600082DE9F05F4FF0000B0C
:1068C00000BF00BF00BFFAF7D1FD834600BFFBF752
:1068D00067F800BF7A480078401C7949087008467C
:1068E0000078012801D1FEF793FC00BFFBF772F896
:1068F00000BF5846FAF7BEFD00BF00BF00BFFBF760
:10690000DDF805466F480068401C6E49086008467F
:1069100000686D490988B0FBF1F201FB12001FFA13
:1069200080FA6A4800EBCA08D8F80040002782E0E5
:10693000002C7FD0D4F8149094F83600082875D233
:10694000DFE800F00408051B063D075000BF00BF4C
:1069500000BF6CE05B49E06C0968401A206559494A
:10696000E06C0968884206D1002084F83600204691
:10697000FFF70EFA00E0012759E05249E06C096880
:10698000401A20654F49E06C0968884215D1002003
:10699000E065A4F86000FBF791F820642046FEF75C
:1069A00091F92046FFF7F4F900203434A070032059
:1069B0006070002004F8340900E0012737E0414905
:1069C000E06C0968401A20653E49E06C096888421D
:1069D00006D1042084F836002046FFF73FFF00E090
:1069E000012724E03749E06C0968401A20653549E1
:1069F000E06C0968884217D10020E065A4F86000C7
:106A0000FBF75CF820642046FEF75CF92046FFF7B0
:106A100025FF04203434A07003206070002004F8A7
:106A2000340902E006E001E0012700E000BF00BFFA
:106A30004C4600E00127002F3FF47AAFFBF73EF809
:106A4000461B23480068B04201D22148066000BFBF
:106A500000BF00BFFAF70AFD834600BFFAF7A0FFA8
:106A600000BF17480078401E154908700846007896
:106A7000D0B9FEF7DBFB1748008800280BDD00BF0C
:106A8000FAF7A8FF00BF5846FAF7F4FC00BF00BFB2
:106A9000FEF790FB11E000BFFAF79CFF00BF5846DD
:106AA000FAF7E8FC00BF08E000BFFAF793FF00BF69
:106AB0005846FAF7DFFC00BF00BF00BFBDE8F09FFB
:106AC000C4000020FC00002014C6000888930020A9
:106AD00000010020880000201CB500BF0EE001ABC3
:106AE0006A4600210846FCF75BFDBDF8040028B9A2
:106AF00003480078012801D1FFF7DEFEEFE7000030
:106B00007C00002010B58AB0044600201D490860B2
:106B10001D490860FFF7B0FD1C48006820B947F226
:106B2000122020800AB010BD194800681949096870
:106B3000884203D247F213202080F3E716480078FA
:106B40001F2803D347F211202080EBE70B20002100
:106B500005910A46CDE9070406910D4800680F49E2
:106B600009680A4B1B68CDE90131CDE903020A48E7
:106B7000007800230A4A0BA100900F48FCF75AFA4C
:106B800000BFCFE7FC0000200001002004C6000881
:106B90000CC60008F8C5000800C6000808C60008B2
:106BA000D96A000875432F4F532D4949492054692C
:106BB000636B205461736B007C9A002070B58AB0BF
:106BC00004460020314908603148006840B131482E
:106BD00000682F490968B0FBF1F02F49086006E012
:106BE0002C4800680A21B0FBF1F02B4908602A48C4
:106BF00000682A490860002029490860294908607E
:106C0000002508E0284800EBC5060020B080F08091
:106C10003060681C85B2254800888542F2DB244834
:106C2000006820B947F2473020800AB070BD214883
:106C3000006821490968884203D247F24830208021
:106C4000F3E71E4800781F2803D347F24630208020
:106C5000EBE70B2000210591CDE9070406910846DA
:106C600014490968164A1268114B1B68CDE90132B4
:106C7000CDE90310114800780023124A12A10090B8
:106C80001748FCF7D7F900BFCFE700000401002048
:106C900020C60008FCC500081401002018010020CF
:106CA000100100200C0100201096002034C60008BE
:106CB00024C600082CC60008F8C500081CC6000839
:106CC00028C60008D96D000875432F4F532D494938
:106CD000492054696D6572205461736B0000000097
:106CE000449B0020F0B50C46022680F82A60012C57
:106CF00005D12D4F466A3F683E4486610CE0066A26
:106D00002EB9294F466A3F683E44866104E0264F0B
:106D1000066A3F683E448661244F3F888669B6FB19
:106D2000F7FC07FB1C66B5B2214E06EBC5021668E0
:106D300036B90026066146611060012696802CE077
:106D4000194F86693F68F61BC661116820E0164F2F
:106D50008E693F68F61BCE61C669CF69BE4209D90C
:106D60000E690EB1096913E00026066141610861F0
:106D700000210DE04E692EB900264661016148618F
:106D8000106004E04B6943610161186148610021B2
:106D90000029DCD19688761C9680D6889788BE42DA
:106DA00001DA9688D680F0BD1001002034C60008B4
:106DB00010960020002006E0054A02EBC0010022E8
:106DC000CA80421C90B2034A12889042F4DB70479A
:106DD0001096002034C600081CB500BF53E001AB7C
:106DE0006A4600210846FCF7DBFB01A8FBF722FFFF
:106DF000FAF764FE064624480068401C22490860F1
:106E00000846006821490988B0FBF1F201FB120035
:106E10001FFA80FA1E4800EBCA08D8F800404FF06D
:106E2000000B21E0F4B1D4F810901749A06909686B
:106E3000884214D1204600F02FF8208D022804D17A
:106E400001212046FFF74EFF02E0032084F82A00CC
:106E5000A56815B12046E168A8474C4604E04FF00C
:106E6000010B01E04FF0010BBBF1000FDAD0FAF794
:106E700025FE871B01A8FBF71BFF06480068B842E8
:106E800001D204480760AAE71001002034C60008B8
:106E9000109600200C010020F0B5114E368885694F
:106EA000B5FBF6F706FB1755ACB20E4D05EBC40269
:106EB0001568854205D10169116039B100254D6120
:106EC00004E0416903690B6103B15961012580F850
:106ED0002A5000250561456195886D1E9580F0BD9D
:106EE00034C6000810960020704700B59DB00121FF
:106EF0000802F9F732FD01200790002008900F20CA
:106F0000099000200A900B900C900D901520009095
:106F100001900520029000200390049005900690B7
:106F200006200E9000200F9010901020119000204D
:106F3000129014901390159016904FF48050179063
:106F4000002018904FF48040199000201A9007A854
:106F50001B90CDF870D00EA8F9F7C3FD01210620D3
:106F6000F9F720FF1DB000BD08B501214FF4B47042
:106F7000F9F700FD4CF23370ADF8000018208DF8E1
:106F8000030003208DF8020069461848F9F73CFA1F
:106F90004FF68070ADF8000018208DF80300032034
:106FA0008DF8020069461248F9F72EFA41F2010005
:106FB000ADF8000018208DF8030003208DF80200C2
:106FC00069460C48F9F720FA0120ADF800001020BE
:106FD0008DF8030003208DF8020069460648F9F792
:106FE00013FA01200549086008BD000000140140A3
:106FF0000018014000200140000C01408081214226
:1070000010B5FFF7B1FFFFF770FF322000F0FEF977
:10701000DA20FAF795FF754800887549888073482B
:1070200000884FF6FF7101EA002071498880DB205B
:10703000FAF786FF6E4880886C49098808436C49D6
:10704000888008468088694909880843684988809B
:10705000E020FAF775FF0020FAF782FF1320FAF715
:107060007FFF1820FAF77CFF0420FAF779FF0F2042
:10707000FAF776FF0620FAF773FF3A20FAF770FF67
:107080005620FAF76DFF4D20FAF76AFF0320FAF752
:1070900067FF0A20FAF764FF0620FAF761FF302045
:1070A000FAF75EFF3E20FAF75BFF0F20FAF758FF72
:1070B000E120FAF745FF0020FAF752FF1320FAF714
:1070C0004FFF1820FAF74CFF0120FAF749FF112073
:1070D000FAF746FF0620FAF743FF3820FAF740FF99
:1070E0003420FAF73DFF4D20FAF73AFF0620FAF771
:1070F00037FF0D20FAF734FF0B20FAF731FF31206C
:10710000FAF72EFF3720FAF72BFF0F20FAF728FFA8
:10711000C020FAF715FF1820FAF722FF1720FAF718
:107120001FFFC120FAF70CFF4120FAF719FFC52015
:10713000FAF706FF0020FAF713FF1A20FAF710FFFC
:107140008020FAF70DFF3620FAF7FAFE0820FAF74A
:1071500007FF3A20FAF7F4FE5520FAF701FFB020B6
:10716000FAF7EEFE0020FAF7FBFEB120FAF7E8FE90
:10717000A020FAF7F5FEB420FAF7E2FE0220FAF7B3
:10718000EFFEB620FAF7DCFE0020FAF7E9FE222037
:10719000FAF7E6FE3B20FAF7E3FEE920FAF7D0FE25
:1071A0000020FAF7DDFEF720FAF7CAFEA920FAF769
:1071B000D7FE5120FAF7D4FE2C20FAF7D1FE822018
:1071C000FAF7CEFE1120FAF7BBFE782000F01EF988
:1071D0002920FAF7B5FE2C20FAF7B2FE0020FAF7C4
:1071E000F1FC4FF6FF70FAF7C9FC10BD0008006C07
:1071F0000400002000B585B001218803F9F7BAFB2F
:1072000001210420F9F7B6FB4FF40070ADF810002F
:1072100018208DF8130003208DF8120004A91348DC
:10722000F9F7F2F84FF48060ADF8100004208DF803
:10723000130004A90D48F9F7E7F84FF4E130009086
:107240000020ADF80400ADF80600ADF80800ADF878
:107250000C000C20ADF80A0069460548F9F741FF1B
:1072600001210348F9F7C9FF05B000BD000801403E
:107270000038014000BFFEE70FB4054B10B503A96D
:10728000044A029800F018F810BC5DF814FB0000E6
:10729000297400082C01002002E008C8121F08C150
:1072A000002AFAD170477047002001E001C1121F87
:1072B000002AFBD1704700002DE9FF4F89B09B46A3
:1072C0000446002506E025280BD05A460B99904726
:1072D000641C6D1C20780028F5D10DB02846BDE84F
:1072E000F08F0027B8460122474900E0074314F811
:1072F000013F203B02FA03F00842F7D120782E2804
:1073000019D114F8010F47F004072A280ED06FF0A6
:107310002F022078A0F1300109290CD808EB880150
:1073200002EB410100EB0108641CF2E70A98641CBF
:1073300050F8048B0A9020780028CED0642808D01A
:10734000692806D075281ED05A460B9990476D1CA7
:1073500058E00A994FF00A0901C90A91002802DA97
:1073600040422D2102E0390504D52B218DF8201053
:10737000012103E0F90704D02021F7E78A4608AE8F
:107380000DE00021FAE70A994FF00A0901C90A91B4
:10739000F7E74946FAF780F8303106F8011D002872
:1073A000F7D1ADEB060000F12009780701D44FF0CA
:1073B0000108C84502DDA8EB090000E00020804676
:1073C000002706E008A85A46C05D0B9990476D1C3F
:1073D0007F1C5745F6DB04E030205A460B99904756
:1073E0006D1CB8F10001A8F10108F5DC05E016F804
:1073F000010B5A460B9990476D1CB9F10001A9F198
:107400000109F4DC641C65E709280100014608E075
:1074100042F6E06201E0531E9AB2002AFBDC4B1EEA
:1074200099B20029F4DC704770B504460D46E1B20C
:107430000548F9F74FFF00BF80210348F9F7B8FF6F
:107440000028F9D0204670BD0038014000B58BB04F
:107450000AA8FBF747FA0AA8032100220592CDE902
:1074600006210890052080210C22094BCDE901322C
:10747000CDE9031002200023064A07A100900A4824
:10748000FBF7D8FD0AA8FBF763FC00200BB000BD9A
:10749000580100204D170008417070205461736B33
:1074A0002053746172740000580300200000000033
:1074B0000000000000000000000000003F4000004D
:1074C00000000000000030004000300040000000DC
:1074D00009000BC03D000BC03D00090018C024404E
:1074E0007FE0224031800000180024C01B000D8086
:1074F0003240018003801C4027401C800740004030
:10750000100060000000000000000000000000000B
:1075100000001F80204040200000402020401F80AD
:1075200000000000090006001F800600090000009E
:10753000040004003F80040004000000001000600C
:10754000000000000000000004000400040004002B
:1075500004000000000000400000000000000000E7
:10756000002001C006003800400000001F802040BD
:10757000204020401F800000000010403FC000401D
:107580000000000018C021402240244018400000A4
:1075900010802040244024401B80000002000D0089
:1075A00011003FC0014000003C80244024402440A2
:1075B000238000001F8024402440344003800000CA
:1075C0003000200027C03800200000001B8024402D
:1075D000244024401B8000001C0022C02240224086
:1075E0001F800000000000000840000000000000B4
:1075F0000000000004600000000000000000040023
:107600000A0011002080404009000900090009001B
:107610000900000000004040208011000A00040022
:107620001800200023402400180000001F80204084
:10763000274029401F400000004007C039000F00CC
:1076400001C0004020403FC0244024401B80000077
:107650001F802040204020403080000020403FC05C
:10766000204020401F80000020403FC024402E408A
:1076700030C0000020403FC024402E0030000000F9
:107680000F001080204022403380020020403FC085
:10769000040004003FC02040204020403FC0204064
:1076A000204000000060202020203FC0200020005B
:1076B00020403FC024400B0030C0204020403FC04D
:1076C00020400040004000C03FC03C0003C03C00E0
:1076D0003FC0000020403FC00C4023003FC02000BE
:1076E0001F802040204020401F80000020403FC0DD
:1076F00024402400180000001F802140214020E089
:107700001FA0000020403FC02440260019C00040B8
:1077100018C0244024402240318000003000204026
:107720003FC020403000000020003F80004000406B
:107730003F80200020003E0001C0070038002000EC
:10774000380007C03C0007C038000000204039C0A6
:10775000060039C0204000002000384007C03840F3
:1077600020000000304021C02640384020C00000EA
:10777000000000007FE0402040200000000070007A
:107780000C000380004000000000402040207FE00B
:107790000000000000002000400020000000000069
:1077A0000010001000100010001000100000000079
:1077B000400000000000000000000280054005407D
:1077C00003C0004020003FC004400440038000008C
:1077D00000000380044004400640000000000380D5
:1077E000044024403FC000400000038005400540A5
:1077F00003400000000004401FC02440244020003B
:10780000000002E0055005500650042020403FC013
:107810000440040003C000400000044027C00040B2
:107820000000000000100010041027E0000000001D
:1078300020403FC00140070004C0044020402040D9
:107840003FC000400040000007C0040007C0040023
:1078500003C00000044007C00440040003C000400F
:10786000000003800440044003800000041007F07F
:1078700004500440038000000000038004400450D2
:1078800007F00010044007C002400400040000009C
:10789000000006400540054004C000000000040050
:1078A0001F800440004000000400078000400440A6
:1078B00007C000400400070004C001800600040067
:1078C000060001C0070001C006000000044006C019
:1078D000010006C0044000000410071004E001800D
:1078E000060004000000044005C0064004400000FB
:1078F0000000000004007BE04020000000000000C9
:107900000000FFF000000000000040207BE00400C9
:1079100000000000400080004000200020004000E7
:107920000000000000000000000000000000000057
:107930000000000000001FCC000C00000000000050
:107940000000080030006000080030006000000007
:10795000022003FC1E20022003FC1E200220000047
:1079600000000E1811043FFF10840C780000000086
:107970000F0010840F3800C00778188400780000CA
:1079800000780F8410C411240E9800E400840008CD
:107990000800680070000000000000000000000007
:1079A00000000000000007E018182004400200005A
:1079B000000040022004181807E00000000000004A
:1079C0000240024001800FF00180024002400000AE
:1079D0000080008000800FF80080008000800000A0
:1079E0000001000D000E000000000000000000007B
:1079F0000000008000800080008000800080008007
:107A00000000000C000C000000000000000000005E
:107A10000000000600180060018006001800200029
:107A2000000007F0080810041004080807F0000020
:107A30000000080408041FFC00040004000000000B
:107A400000000E0C10141024104411840E0C0000C1
:107A500000000C1810041104110412880C700000AE
:107A6000000000E00320042408241FFC0024000080
:107A700000001F9810841104110410881070000079
:107A8000000007F008881104110418880070000035
:107A900000001C00100010FC13001C00100000006F
:107AA00000000E3811441084108411440E38000078
:107AB00000000700088C10441044088807F00000FC
:107AC000000000000000030C030C00000000000098
:107AD000000000000001010600000000000000009E
:107AE000000000800140022004100808100400007B
:107AF0000220022002200220022002200220000098
:107B0000000010040808041002200140008000005A
:107B100000000E001200100C106C10800F0000000E
:107B200003E00C1813E4142417C4082807D000003D
:107B30000004003C03C41C40074000E4001C000497
:107B400010041FFC1104110411040E8800700000C1
:107B500003E00C1810041004100410081C1000009E
:107B600010041FFC100410041004080807F00000A3
:107B700010041FFC1104110417C41004081800009D
:107B800010041FFC1104110017C0100008000000B1
:107B900003E00C181004100410441C78004000008E
:107BA00010041FFC10840080008010841FFC10044F
:107BB0000000100410041FFC10041004000000005A
:107BC00000030001100110011FFE10001000000052
:107BD00010041FFC110403801464181C100400001E
:107BE00010041FFC1004000400040004000C00003A
:107BF00010041FFC1F0000FC1F001FFC10040000ED
:107C000010041FFC0C04030000E010181FFC1000FF
:107C100007F00808100410041004080807F000001A
:107C200010041FFC10841080108010800F000000D2
:107C300007F0081810241024101C080A07F200008E
:107C400010041FFC1104110011C011300E0C0004AF
:107C500000000E1C11041084108410441C38000015
:107C60001800100010041FFC100410001800000081
:107C700010001FF810040004000410041FF8100086
:107C800010001E0011E0001C007013801C0010008A
:107C90001FC0103C00E01F0000E0103C1FC00000AF
:107CA0001004180C163401C001C01634180C10044E
:107CB00010001C00130400FC13041C001000000042
:107CC0000804101C1064108413041C041018000015
:107CD0000000000000007FFE400240024002000061
:107CE000000030000C0003800060001C0003000056
:107CF00000004002400240027FFE00000000000041
:107D00000000000020004000400040002000000073
:107D1000000100010001000100010001000100015B
:107D200000004000400020000000000000000000B3
:107D300000000098012401440144014400FC0004B7
:107D400010001FFC0088010401040088007000007E
:107D50000000007000880104010401040088000094
:107D60000000007000880104010411081FFC0004D9
:107D7000000000F8014401440144014400C800002F
:107D80000000010401040FFC11041104110018008B
:107D9000000000D601290129012901C901060000BE
:107DA00010041FFC008401000100010400FC000419
:107DB00000000104190419FC000400040000000084
:107DC0000000000300010101190119FE000000007C
:107DD00010041FFC0024004001B4010C0104000049
:107DE0000000100410041FFC000400040000000048
:107DF000010401FC0104010001FC0104010000FC7C
:107E0000010401FC008401000100010400FC0004E5
:107E1000000000F8010401040104010400F800005E
:107E2000010101FF008501040104008800700000C9
:107E300000000070008801040104010501FF000139
:107E40000104010401FC0084010401000180000020
:107E5000000000CC01240124012401240198000029
:107E600000000100010007F8010401040000000007
:107E7000010001F8000400040004010801FC0004F2
:107E8000010001800170000C001001600180010000
:107E900001F0010C003001C00030010C01F00100C4
:107EA00000000104018C00740170018C01040000C9
:107EB000010101810171000E0018016001800100C3
:107EC00000000184010C013401440184010C000014
:107ED000000000000000000001003EFC40024002E3
:107EE0000000000000000000FFFF00000000000094
:107EF0000000400240023EFC0100000000000000C3
:107F00000000600080008000400040002000200051
:107F10000000000000000000000000000000000061
:107F20000000000000000000000000000000000051
:107F30000000000000000000000000000000000041
:107F40000000000F80380FFE380F8038000000005E
:107F50000000000000000000000000000000010020
:107F6000000600000C000038000031000006000090
:107F70000C0000380000300000000000000000008D
:107F800061800067F807F98000618000618000610E
:107F9000800061800067F807F980006180000000C0
:107FA00000000000000001C0E003E0F0063008041B
:107FB00018081FFFFE040E080787F00381E0000089
:107FC0000000000001F000060C00040408060C701C
:107FD00001F9C0000E00003BE000EC18070808049F
:107FE0000C180003E00000000001E00007F003F8B7
:107FF00018041C0804170807E1D003C0E00023B0F0
:10800000003C0800200800001000000000000001F3
:1080100000003100003200001C00000000000000E1
:108020000000000000000000000000000000000050
:108030000000000000000000000000000000000040
:108040007F0001FFC00780F00C0018100004200022
:10805000020000000000002000021000040C0018C4
:108060000780F001FFC0007F00000000000000005A
:108070000000000000000000000000004200006658
:1080800000006600003C0000180003FFC00018005C
:10809000003C000066000066000042000000000096
:1080A000080000080000080000080000080001FFA8
:1080B000C0000800000800000800000800000800D8
:1080C00000000000000100003100003200001C0030
:1080D00000000000000000000000000000000000A0
:1080E0000000000000000000080000080000080078
:1080F0000008000008000008000008000008000058
:10810000080000080000000000000000000000005F
:1081100038000038000038000000000000000000B7
:10812000000000000000000000000000000000004F
:10813000000600001C000070000180000E000038E6
:108140000000C0000700001C00003000000000001C
:10815000000000007F8001FFE0038070060018042B
:10816000000804000806001803807001FFE0007F8B
:10817000800000000000000000000100080100086D
:1081800001000803FFF807FFF800000800000800DE
:10819000000800000000000000000001C03802C01C
:1081A00058040098040118040218040418061C1846
:1081B00003F81801E0F800000000000000000001D2
:1081C000C0E003C0F004000804080804080806180A
:1081D0000803F41801E7F00001E0000000000000CF
:1081E000000000000300000D00001100006100000D
:1081F000810803010807FFF80FFFF80001080001DC
:10820000080000000000000000E007FCD00608089D
:10821000061008061008061008061838060FF006A3
:1082200007C0000000000000000000003F8001FFC8
:10823000E003843002081804100804100804100831
:10824000071810030FF00007C00000000000000036
:10825000000003C0000700000600000600F8060743
:10826000F806180006E00007000006000000000005
:1082700000000001E1E003F7F006341004180804E0
:108280001808040C08040C0806161803F3F001C1C2
:10829000E000000000000000F80003FC3003063896
:1082A0000402080402080402080404100308F00190
:1082B000FFC0007F00000000000000000000000080
:1082C00000000000000000007038007038007038B6
:1082D000000000000000000000000000000000009E
:1082E000000000000000000000000000301A003014
:1082F0001C00000000000000000000000000000062
:10830000000000000000000800001400002200002F
:10831000410000808001004002002004001008009D
:1083200008000000000000002100002100002100E2
:108330000021000021000021000021000021000098
:1083400021000021000000000000000000000800E3
:10835000080400100200200100400080800041005D
:1083600000220000140000080000000000000003CC
:10837000C00004C000040000080038080F380808D6
:10838000380810000C300007E00003C000000000B7
:10839000000000003F8000FFE0038070020F100625
:1083A000708804C088048308047F8802C090030199
:1083B0002000FE400000080000180001F8003E0800
:1083C00001C20007020007E20000FE00001FC80013
:1083D00001F800003800000804000807FFF807FF54
:1083E000F80408080408080408080408080618081F
:1083F00003F41801E7F00001E000000000000000B5
:108400003F8001FFE00380700200180400080400B0
:10841000080400080400100600200780C0000000C7
:1084200004000807FFF807FFF80400080400080428
:10843000000804001802001003807001FFE0007FB4
:108440008000000004000807FFF807FFF804080890
:10845000040808040808040808043E080400080684
:10846000001801006000000004000807FFF807FF83
:10847000F8040808040800040800040800043E008A
:10848000060000060000018000000000000000005F
:108490003F8001FFE003807006001804000804021A
:1084A000080402080203F00783F000020000020043
:1084B00004000807FFF807FFF80408080008000098
:1084C000080000080000080004080807FFF807FF7C
:1084D000F804000800000000000004000804000880
:1084E00004000807FFF807FFF80400080400080468
:1084F000000800000000000000000000000600006E
:108500000700000104000104000104000307FFFE4E
:1085100007FFFC040000040000040000040008073A
:10852000FFF807FFF8040C08001800003E0004C71D
:10853000800503C80600F80400380400180000088D
:1085400004000807FFF807FFF8040008000008000F
:1085500000080000080000080000080000180000E3
:108560006000000004000807FFF807800807FC000F
:10857000007FC00003F80007C000780007800807EC
:10858000FFF807FFF804000804000807FFF80700D9
:108590000803C00000E000003800001E00000700D3
:1085A0000001C00400F007FFF80400000000000014
:1085B0007F8001FFE00380700600180400080400BB
:1085C0000806001803003001FFE0007F8000000073
:1085D00004000807FFF807FFF80404080404000477
:1085E0000400040400040400060C0003F80001F079
:1085F00000000000000000007F8001FFE0038070A9
:108600000600880400880400C806003C03003E0100
:10861000FFE6007F8400000004000807FFF807FF62
:10862000F8040808040800040C00040F00040BC040
:108630000610F003F03801E0080000080000000117
:10864000E0F803F030063010041808041808040C91
:1086500008040C080206180207F00781E000000079
:108660000180000600000400000400000400080768
:10867000FFF807FFF80400080400000400000600EB
:108680000001800004000007FFE007FFF00400186D
:1086900000000800000800000800000800000804AE
:1086A000001007FFE004000004000006000007E0DF
:1086B0000007FE00041FE00001F80000380001E0A0
:1086C000043E0007C000060000040000040000078C
:1086D000E00007FFC0041FF80007C007F80007FF0D
:1086E00080043FF80007C004F80007000004000001
:1086F00000000004000806001807C07805F1C80053
:108700003E00001F800463E80780F806001804009C
:108710000800000004000006000007800007E008D1
:10872000047C08001FF80007F800180804E0080798
:108730000000060000040000000000010008060020
:10874000380400F80403E8040F08047C0805F00866
:1087500007C00807001804006000000000000000C7
:1087600000000000000000000000003FFFFE2000AD
:10877000022000022000022000022000020000006F
:1087800000000000000008000007000000C000001A
:1087900038000006000001C000003000000E00009C
:1087A0000100000000000000000020000220000284
:1087B0002000022000022000023FFFFE0000000017
:1087C00000000000000000000000000000000000A9
:1087D0000008000010000030000020000030000001
:1087E0001000000800000000000000000000010070
:1087F0000001000001000001000001000001000074
:108800000100000100000100000100000100000162
:108810000000000000000000002000002000001008
:108820000000100000000000000000000000000038
:10883000000000000000000000F00019F8001B1804
:10884000002208002608002408002410003FF80039
:108850001FF800000800001800000004000007FFD7
:10886000F80FFFF00018180010080020080020087A
:10887000003018001FF0000FC000000000000000D2
:1088800007C0001FF000183000200800200800205A
:1088900008003C08001C1000006000000000000000
:1088A0000000000007C0001FF0003818002008007A
:1088B000200800200804101007FFF80FFFF0000048
:1088C000100000000000000000000007C0001FF0C2
:1088D000001230002218002208002208003208008E
:1088E0001E10000E200000000000000020000020EC
:1088F0000800200801FFF803FFF8062008042008FC
:108900000420080720000300000000000000000011
:10891000000E000E6E001FF30031B10020B10020E8
:10892000B1003191001F13002E1E00200E003000F8
:1089300000000004000807FFF80FFFF8001008000F
:108940002000002000002008003FF8001FF8000071
:1089500008000000000000000000002008002008BF
:10896000002008063FF8063FF80000080000080055
:1089700000080000000000000000000000000000EF
:1089800003000003002001002001002003063FFE39
:10899000063FFC0000000000000000000000000492
:1089A000000807FFF80FFFF8000188000300002F00
:1089B000C00038F80020380020080000080000003F
:1089C000000000000000040008040008040008077C
:1089D000FFF80FFFF8000008000008000008000082
:1089E00000000000002008003FF8003FF8001008D9
:1089F000002000003FF8003FF800100800200000B1
:108A00003FF8003FF8000008000000002008003F89
:108A1000F8003FF8001008001000002000002008B7
:108A2000003FF8001FF800000800000000000000F0
:108A300007C0000FF00018300030080020080020A8
:108A400008003008001830000FF00007C0000000D8
:108A5000000000002001003FFF003FFF0010110058
:108A60002009002008002008003038001FF0000F07
:108A7000C00000000000000007C0001FF000381810
:108A8000002008002008002009001011001FFF002E
:108A90003FFF000001000000002008002008002027
:108AA00008003FF8003FF800080800100800200800
:108AB0000020000030000030000000000000000036
:108AC0000000000C78001E18003308002308002165
:108AD000080021880021980030F000386000000074
:108AE00000000000200000200000200000FFF00334
:108AF000FFF80020080020080020080000300000D7
:108B000000000000000000002000003FF0007FF89F
:108B1000000018000008000008002010003FF800C6
:108B20007FF0000010000000000000002000003076
:108B300000003C00003F800023F00000780000703F
:108B4000002380003C0000300000200000200000D6
:108B50003C00003FE00023F80000E0002700003E5A
:108B600000003FE00021F80001E0003E000020008E
:108B7000000000002008002008003838003E68008F
:108B800027800003C8002CF8003838002018002087
:108B900008000000000000002000003003003C013D
:108BA000003F830023EC000070002380003C0000A5
:108BB000200000200000000000000000000000383D
:108BC000080020380020F80023E8002F88003E0825
:108BD00000380800201800007000000000000000AD
:108BE0000000000000000000000000000800001469
:108BF000001FF7FC3000062000020000000000000B
:108C00000000000000000000000000000000000064
:108C10000000FFFFFF000000000000000000000057
:108C200000000000000000000000200002300006EC
:108C30001FF7FC0014000008000000000000000006
:108C400000000000000000000000001800006000AC
:108C5000004000004000002000001000000800005C
:108C60000400000400000C000010000000000000E0
:108C700000000000000000000000000000000000F4
:108C800000000000000000000000000000000000E4
:108C900000000000000000000000000000000000D4
:108CA00000000000000000000000000000000000C4
:108CB00000000000000000000000000000000000B4
:108CC00000000000000000000000000000000000A4
:108CD0000000000000000000000000000000000094
:108CE0000000000000000000000000000000000084
:108CF0000000000000000000000000000000000074
:108D00000000000007F000C007FFE1E007F001E00D
:108D1000000000C000000000000000000000000093
:108D20000000000000000000000000000000000043
:108D30000000000000000000000000000000000033
:108D40000000000000000000000000000000000023
:108D50000000000000000000000000000000000013
:108D60000000000000000000000000000000000003
:108D7000000000000020000001C00000078000008B
:108D80001F0000001E0000001C20000001C00000A9
:108D9000078000001F0000001E0000001C000000F3
:108DA00000000000000000000000000000000000C3
:108DB00000000000000000000000000000000000B3
:108DC00000000000000000000000000000000000A3
:108DD0000000000000000000000000000000000093
:108DE0000000000000000000000000000000000083
:108DF00000180C0000180C0000180FE0001FFC0009
:108E000003F80C0000180C0000180C0000180C00EF
:108E100000180C0000180FE0001FFC0003F80C0005
:108E200000180C0000180C000000000000000000FA
:108E30000000000000000000000000000000000032
:108E40000000000000000000000000000000000022
:108E50000000000000000000000000000000000012
:108E60000000000000000000000000000000000002
:108E70000000000000000780007807C000FC0640EA
:108E8000010E002003070020020380200FFFFFFCDB
:108E90000201C0200200E0600130704001F03F801C
:108EA00000F01F00000000000000000000000000B3
:108EB00000000000000000000000000000000000B2
:108EC00000000000000000000000000000000000A2
:108ED0000000000000000000000000000000000092
:108EE00000000000000000000000000000FE000084
:108EF00001FF00000301800002008060030181C0C7
:108F000001FF070000FE18000000E0000003BF00A2
:108F1000000CFFC00071806001C10020030180606F
:108F20000000FFC000003F00000000000000000043
:108F30000000000000000000000000000000000031
:108F40000000000000000000000000000000000021
:108F50000000000000000000000000000000000011
:108F600000000000000000000000000000001F00E2
:108F700000007FC000FCC0C001FF80600303E02050
:108F80000202782002061E2003FC074001F0038045
:108F9000000103C000011C600001E020000100206E
:108FA00000010040000001800000000000000000FF
:108FB00000000000000000000000000000000000B1
:108FC00000000000000000000000000000000000A1
:108FD0000000000000000000000000000000000091
:108FE0000000000000000000000000000000000081
:108FF000002000001C6000001C4000001F800000DA
:109000000F00000000000000000000000000000051
:109010000000000000000000000000000000000050
:109020000000000000000000000000000000000040
:109030000000000000000000000000000000000030
:109040000000000000000000000000000000000020
:109050000000000000000000000000000000000010
:109060000000000000000000000000000000000000
:1090700000000000000000000000000000000000F0
:1090800000000000000000000007F800003FFF00A3
:10909000007807C001C000E00300003004000008B1
:1090A00008000004100000020000000000000000A2
:1090B00000000000000000000000000000000000B0
:1090C00000000000000000000000000000000000A0
:1090D0000000000000000000000000000000000090
:1090E0000000000000000000000000000000000080
:1090F0001000000208000004040000080300003013
:1091000001C000E0007807C0003FFF000007F80042
:10911000000000000000000000000000000000004F
:10912000000000000000000000000000000000003F
:10913000000000000000000000000000000000002F
:10914000000000000000000000000000000000001F
:10915000000000000000000000000000000000000F
:1091600000000000000000000000000000000000FF
:1091700000000000000C1800000E3800000E38003F
:1091800000063000000360000061438000FFFF80A4
:10919000006143000003600000063000000E38004C
:1091A000000E3800000C1800000000000000000055
:1091B00000000000000000000000000000000000AF
:1091C000000000000000000000000000000000009F
:1091D000000000000000000000000000000000008F
:1091E000000000000000000000000000000000007F
:1091F00000000000000080000000800000008000EF
:10920000000080000000800000008000007FFF0060
:10921000000080000000800000008000000080004E
:10922000000080000000800000000000000000003E
:10923000000000000000000000000000000000002E
:10924000000000000000000000000000000000001E
:10925000000000000000000000000000000000000E
:1092600000000000000000000000000000000000FE
:1092700000000001000000E3000000E2000000FC2C
:109280000000007800000000000000000000000066
:1092900000000000000000000000000000000000CE
:1092A00000000000000000000000000000000000BE
:1092B00000000000000000000000000000000000AE
:1092C000000000000000000000000000000000009E
:1092D000000000000000000000000000000000008E
:1092E000000000000000000000000000000000007E
:1092F000000080000000800000008000000080006E
:10930000000080000000800000008000000080005D
:10931000000080000000800000008000000080004D
:10932000000080000000800000000000000000003D
:10933000000000000000000000000000000000002D
:10934000000000000000000000000000000000001D
:10935000000000000000000000000000000000000D
:1093600000000000000000000000000000000000FD
:1093700000000000000000C0000001E0000001E06B
:10938000000000C00000000000000000000000001D
:1093900000000000000000000000000000000000CD
:1093A00000000000000000000000000000000000BD
:1093B00000000000000000000000000000000000AD
:1093C000000000000000000000000000000000009D
:1093D000000000000000000000000000000000008D
:1093E000000000000000000000000000000000007D
:1093F0000000000C00000038000000E000000380C6
:1094000000000E00000038000000E00000038000B3
:10941000000E00000038000000E0000003800000A3
:109420000E00000018000000000000000000000016
:10943000000000000000000000000000000000002C
:10944000000000000000000000000000000000001C
:10945000000000000000000000000000000000000C
:1094600000000000000000000000000000000000FC
:1094700000000000000FF800007FFF0000F00780F0
:10948000018000C0030000600200002002000020F4
:109490000200002003000060018000C000E00380A3
:1094A000007FFF00000FF800000000000000000037
:1094B00000000000000000000000000000000000AC
:1094C000000000000000000000000000000000009C
:1094D000000000000000000000000000000000008C
:1094E000000000000000000000000000000000007C
:1094F000000000000000000000800020008000202C
:10950000008000200080006001FFFFE003FFFFE01B
:10951000000000600000002000000020000000208B
:10952000000000000000000000000000000000003B
:10953000000000000000000000000000000000002B
:10954000000000000000000000000000000000001B
:10955000000000000000000000000000000000000B
:1095600000000000000000000000000000000000FB
:1095700000000000007800E0009801600100026037
:109580000200046002000860020010600200206017
:1095900002004060030080600183006001FE00E083
:1095A000007C0780000000000000000000000000B8
:1095B00000000000000000000000000000000000AB
:1095C000000000000000000000000000000000009B
:1095D000000000000000000000000000000000008B
:1095E000000000000000000000000000000000007B
:1095F0000000000000F0078001F007C001000040FB
:1096000002000020020100200201002002010020CF
:10961000030380200186804001FCC0C000787F8069
:1096200000001E000000000000000000000000001C
:10963000000000000000000000000000000000002A
:10964000000000000000000000000000000000001A
:10965000000000000000000000000000000000000A
:1096600000000000000000000000000000000000FA
:1096700000000800000038000000480000018800D9
:1096800000060800000C0810003008100040081008
:1096900001FFFFF003FFFFF003FFFFF000000810E1
:1096A000000008100000081000000000000000008A
:1096B00000000000000000000000000000000000AA
:1096C000000000000000000000000000000000009A
:1096D000000000000000000000000000000000008A
:1096E000000000000000000000000000000000007A
:1096F0000000000000000780001F864003E10020FA
:1097000003020020030400200304002003040020BF
:109710000304002003060040030301C00301FF808F
:1097200003007E00000000000000000000000000B8
:109730000000000000000000000000000000000029
:109740000000000000000000000000000000000019
:109750000000000000000000000000000000000009
:1097600000000000000000000000000000000000F9
:10977000000000000007FC00003FFF000070C380F5
:10978000008180C00101006003020020020200206D
:1097900002020020020200200203004001C180C03A
:1097A00000C0FF8000007E000000000000000000FC
:1097B00000000000000000000000000000000000A9
:1097C0000000000000000000000000000000000099
:1097D0000000000000000000000000000000000089
:1097E0000000000000000000000000000000000079
:1097F0000000000000F0000003C000000380000033
:1098000003000000030007E003003FE00301C00085
:10981000030600000318000003600000038000003E
:109820000300000000000000000000000000000035
:109830000000000000000000000000000000000028
:109840000000000000000000000000000000000018
:109850000000000000000000000000000000000008
:1098600000000000000000000000000000000000F8
:1098700000001F0000783F8000FC60C0018EC040E7
:1098800003078020020300200201802002018020C3
:109890000201C0200301E040018670C000FC3F804F
:1098A00000781F0000000000000000000000000021
:1098B00000000000000000000000000000000000A8
:1098C0000000000000000000000000000000000098
:1098D0000000000000000000000000000000000088
:1098E0000000000000000000000000000000000078
:1098F000003F000000FF81C001C0C1C00100602026
:10990000020020200200202002002020020020600F
:10991000020040C00100C18000C18F00007FFE0036
:10992000001FF00000000000000000000000000028
:109930000000000000000000000000000000000027
:109940000000000000000000000000000000000017
:109950000000000000000000000000000000000007
:1099600000000000000000000000000000000000F7
:1099700000000000000000000000000000000000E7
:1099800000000000000300C0000781E0000781E044
:10999000000300C000000000000000000000000004
:1099A00000000000000000000000000000000000B7
:1099B00000000000000000000000000000000000A7
:1099C0000000000000000000000000000000000097
:1099D0000000000000000000000000000000000087
:1099E0000000000000000000000000000000000077
:1099F0000000000000000000000000000000000067
:109A0000000000000006006600060078000000006C
:109A10000000000000000000000000000000000046
:109A20000000000000000000000000000000000036
:109A30000000000000000000000000000000000026
:109A40000000000000000000000000000000000016
:109A50000000000000000000000000000000000006
:109A600000000000000000000000000000000000F6
:109A700000000000000080000001C0000003600042
:109A800000063000000C180000180C000030060022
:109A90000060030000C001800100004002000020BF
:109AA00004000010000000000000000000000000A2
:109AB00000000000000000000000000000000000A6
:109AC0000000000000000000000000000000000096
:109AD0000000000000000000000000000000000086
:109AE0000000000000000000000000000000000076
:109AF0000004100000041000000410000004100016
:109B00000004100000041000000410000004100005
:109B100000041000000410000004100000041000F5
:109B2000000410000004100000000000000000000D
:109B30000000000000000000000000000000000025
:109B40000000000000000000000000000000000015
:109B50000000000000000000000000000000000005
:109B600000000000000000000000000000000000F5
:109B7000000000000400001002000020010000406E
:109B800000C00180006003000030060000180C00D7
:109B9000000C180000063000000360000001C00047
:109BA0000000800000000000000000000000000035
:109BB00000000000000000000000000000000000A5
:109BC0000000000000000000000000000000000095
:109BD0000000000000000000000000000000000085
:109BE0000000000000000000000000000000000075
:109BF000000000000078000001F8000002380000BA
:109C000002000000040000C0040079E0040081E0CC
:109C1000040100C00403000002020000030600006B
:109C200001FC000000F8000000000000000000003F
:109C30000000000000000000000000000000000024
:109C40000000000000000000000000000000000014
:109C50000000000000000000000000000000000004
:109C600000000000000000000000000000000000F4
:109C7000000FF800003FFE000070078000C000C029
:109C80000101F8400307FC20021E042002300820D6
:109C900002203020023FFC20013F044001800CC024
:109CA00000E03180001FC200000000000000000042
:109CB00000000000000000000000000000000000A4
:109CC0000000000000000000000000000000000094
:109CD0000000000000000000000000000000000084
:109CE0000000000000000000000000000000002054
:109CF00000000060000003E000003E200003E020C0
:109D0000003E200003E020000380200007FC20002C
:109D1000003FE0000003FE2000003FE0000001E003
:109D200000000020000000200000000000000000F3
:109D30000000000000000000000000000000000023
:109D40000000000000000000000000000000000013
:109D50000000000000000000000000000000000003
:109D600000000000000000000000000000000000F3
:109D7000020000200200002003FFFFE003FFFFE0DD
:109D80000201002002010020020100200201002047
:109D900002010020030300200186806001FCC0C096
:109DA00000F87F8000001F0000000000000000009D
:109DB00000000000000000000000000000000000A3
:109DC0000000000000000000000000000000000093
:109DD0000000000000000000000000000000000083
:109DE0000000000000000000000000000000000073
:109DF0000007F800003FFF000070078000C000C0AF
:109E000001000040030000200200002002000020AA
:109E1000020000200200002001000040018000C07C
:109E200003C00180003006000000000000000000B8
:109E30000000000000000000000000000000000022
:109E40000000000000000000000000000000000012
:109E50000000000000000000000000000000000002
:109E600000000000000000000000000000000000F2
:109E7000020000200200002003FFFFE003FFFFE0DC
:109E8000020000200200002002000020020000204A
:109E90000300006001000040018000C000F0078066
:109EA000007FFE00000FF80000000000000000002E
:109EB00000000000000000000000000000000000A2
:109EC0000000000000000000000000000000000092
:109ED0000000000000000000000000000000000082
:109EE0000000000000000000000000000000000072
:109EF000020000200200002003FFFFE003FFFFE05C
:109F000002010020020100200201002002010020C5
:109F10000201002002038020020FE0200300006005
:109F200003C000E00060030000000000000000002B
:109F30000000000000000000000000000000000021
:109F40000000000000000000000000000000000011
:109F50000000000000000000000000000000000001
:109F600000000000000000000000000000000000F1
:109F7000020000200200002003FFFFE003FFFFE0DB
:109F80000201002002010020020100000201000085
:109F9000020100000201000002038000030FE00044
:109FA0000300000003C0000000600000000000008B
:109FB00000000000000000000000000000000000A1
:109FC0000000000000000000000000000000000091
:109FD0000000000000000000000000000000000081
:109FE0000000000000000000000000000000000071
:109FF0000007F800003FFE000070078001C001C0AC
:10A0000001000040030000200200002002000020A8
:10A0100002000020010020200100204003C03F80FA
:10A0200000303F8000002000000020000000000001
:10A030000000000000000000000000000000000020
:10A040000000000000000000000000000000000010
:10A050000000000000000000000000000000000000
:10A0600000000000000000000000000002000020CE
:10A070000200002003FFFFE003FFFFE0020080205A
:10A0800002008020000080000000800000008000AE
:10A09000020080200200802003FFFFE003FFFFE0BA
:10A0A000020000200200002000000000000000006C
:10A0B00000000000000000000000000000000000A0
:10A0C0000000000000000000000000000000000090
:10A0D0000000000000000000000000000000000080
:10A0E0000000000000000000000000000000000070
:10A0F000000000000000000002000020020000201C
:10A10000020000200200002003FFFFE003FFFFE049
:10A1100002000020020000200200002002000020B7
:10A12000000000000000000000000000000000002F
:10A13000000000000000000000000000000000001F
:10A14000000000000000000000000000000000000F
:10A1500000000000000000000000000000000000FF
:10A1600000000000000000000000000000000000EF
:10A170000000000E0000000F0000000F00000001B2
:10A1800002000001020000010200000302000006BC
:10A1900003FFFFFC03FFFFF80200000002000000C5
:10A1A00002000000020000000000000000000000AB
:10A1B000000000000000000000000000000000009F
:10A1C000000000000000000000000000000000008F
:10A1D000000000000000000000000000000000007F
:10A1E000000000000000000000000000000000006F
:10A1F000020000200200002003FFFFE003FFFFE059
:10A200000200C0200201002000078000000FE000D3
:10A210000030F80002603E2003800F20030003E0BE
:10A22000020000E00200002000000020000000000A
:10A23000000000000000000000000000000000001E
:10A24000000000000000000000000000000000000E
:10A2500000000000000000000000000000000000FE
:10A2600000000000000000000000000000000000EE
:10A27000020000200200002003FFFFE003FFFFE0D8
:10A28000020000200200002000000020000000204A
:10A2900000000020000000200000002000000060FE
:10A2A000000000E0000003000000000000000000CB
:10A2B000000000000000000000000000000000009E
:10A2C000000000000000000000000000000000008E
:10A2D000000000000000000000000000000000007E
:10A2E000000000000000000000000000020000204C
:10A2F0000200002003FFFFE003E0002003FF002036
:10A30000001FF0000001FF8000000FE000001E00B1
:10A310000003E000003E002003E0002003FFFFE018
:10A3200003FFFFE002000020020000200000000008
:10A33000000000000000000000000000000000001D
:10A34000000000000000000000000000000000000D
:10A3500000000000000000000000000000000000FD
:10A3600000000000000000000000000002000020CB
:10A370000200002003FFFFE00380002003F0002024
:10A3800000FC0000001F00000007C0000001F000FA
:10A3900000007C0002001F80020007E003FFFFE0D6
:10A3A00002000000020000000000000000000000A9
:10A3B000000000000000000000000000000000009D
:10A3C000000000000000000000000000000000008D
:10A3D000000000000000000000000000000000007D
:10A3E000000000000000000000000000000000006D
:10A3F000000FF800003FFE0000F00780018000C061
:10A4000001000040020000200200002002000020A5
:10A410000200002001000040018000C000F0038025
:10A42000003FFE00000FF8000000000000000000E8
:10A43000000000000000000000000000000000001C
:10A44000000000000000000000000000000000000C
:10A4500000000000000000000000000000000000FC
:10A4600000000000000000000000000000000000EC
:10A47000020000200200002003FFFFE003FFFFE0D6
:10A480000200802002008020020080000200800084
:10A4900002008000020080000301800001830000B0
:10A4A00000FE0000007C0000000000000000000032
:10A4B000000000000000000000000000000000009C
:10A4C000000000000000000000000000000000008C
:10A4D000000000000000000000000000000000007C
:10A4E000000000000000000000000000000000006C
:10A4F000000FF800007FFF0000F00380018001C022
:10A500000100064002000420020004200200062090
:10A51000020003E0010000F80180005C00E0038C11
:10A52000003FFF0C000FFC180000000000000000BE
:10A53000000000000000000000000000000000001B
:10A54000000000000000000000000000000000000B
:10A5500000000000000000000000000000000000FB
:10A5600000000000000000000000000000000000EB
:10A57000020000200200002003FFFFE003FFFFE0D5
:10A580000201002002010020020180000201E0001F
:10A590000201FC0003033F80018607E001FC00E0AC
:10A5A00000F8002000000020000000000000000073
:10A5B000000000000000000000000000000000009B
:10A5C000000000000000000000000000000000008B
:10A5D000000000000000000000000000000000007B
:10A5E000000000000000000000000000000000006B
:10A5F000000000000078060000FE01E0018600C0B7
:10A600000303004002030020020180200201802099
:10A610000201C0200200C0200100E060018070C083
:10A6200003E03F8000001F00000000000000000069
:10A63000000000000000000000000000000000001A
:10A64000000000000000000000000000000000000A
:10A6500000000000000000000000000000000000FA
:10A6600000000000000000000000000000000000EA
:10A6700000600000038000000300000002000000F2
:10A68000020000200200002003FFFFE003FFFFE0C4
:10A690000200002002000020020000000200000072
:10A6A0000380000000E00000000000000000000047
:10A6B000000000000000000000000000000000009A
:10A6C000000000000000000000000000000000008A
:10A6D000000000000000000000000000000000007A
:10A6E0000000000000000000000000000200000068
:10A6F0000200000003FFFF0003FFFFC00200004054
:10A700000200006000000020000000200000002087
:10A7100000000020020000400200008003FFFF0054
:10A720000200000002000000000000000000000025
:10A730000000000000000000000000000000000019
:10A740000000000000000000000000000000000009
:10A7500000000000000000000000000000000000F9
:10A7600000000000000000000000000000000000E9
:10A77000020000000200000003C0000003FC000013
:10A78000023FC0000003F80000007F80000007E0E7
:10A7900000000780000078000203C000023C0000B7
:10A7A00003C00000020000000200000000000000E2
:10A7B0000000000000000000000000000000000099
:10A7C0000000000000000000000000000000000089
:10A7D0000000000000000000000000000000000079
:10A7E0000000000000000000000000000200000067
:10A7F00003C0000003FF8000023FFE0002007FE074
:10A8000000000F000200F00003EF000003FF8000D3
:10A81000020FFE0000003FE000001F000207E00002
:10A8200003F8000003000000020000000000000028
:10A830000000000000000000000000000000000018
:10A840000000000000000000000000000000000008
:10A8500000000000000000000000000000000000F8
:10A8600000000000000000000000000000000000E8
:10A870000200002002000020038000E003F003201B
:10A8800002FC0C20021F30000007C0000007F0008F
:10A8900002187C0002601F20038003E0020000E039
:10A8A0000200002000000020000000000000000066
:10A8B0000000000000000000000000000000000098
:10A8C0000000000000000000000000000000000088
:10A8D0000000000000000000000000000000000078
:10A8E0000000000000000000000000000000000068
:10A8F000020000000300000003C0000003F8000095
:10A90000023E0020020FC0200001FFE000007FE0B7
:10A9100000038020021C0020027000000380000061
:10A920000200000002000000000000000000000023
:10A930000000000000000000000000000000000017
:10A940000000000000000000000000000000000007
:10A9500000000000000000000000000000000000F7
:10A9600000000000000000000000000000000000E7
:10A9700000000020006000E0038003E003000FA05F
:10A9800002003E200200F8200203E020020F802097
:10A99000023E00200278002003E00060038000E017
:10A9A00002000300000000000000000000000000A2
:10A9B0000000000000000000000000000000000097
:10A9C0000000000000000000000000000000000087
:10A9D0000000000000000000000000000000000077
:10A9E0000000000000000000000000000000000067
:10A9F0000000000000000000000000000000000057
:10AA0000000000001FFFFFFC100000041000000405
:10AA100010000004100000041000000410000004E6
:10AA20001000000400000000000000000000000012
:10AA30000000000000000000000000000000000016
:10AA40000000000000000000000000000000000006
:10AA500000000000000000000000000000000000F6
:10AA600000000000000000000000000000000000E6
:10AA700000000000000000000700000003C000000C
:10AA800000780000001E00000003C0000000F0007D
:10AA900000001E0000000780000000F00000003CE5
:10AAA00000000006000000000000000000000000A0
:10AAB0000000000000000000000000000000000096
:10AAC0000000000000000000000000000000000086
:10AAD0000000000000000000000000000000000076
:10AAE0000000000000000000000000000000000066
:10AAF000000000001000000410000004100000041A
:10AB000010000004100000041000000410000004F5
:10AB10001FFFFFFC0000000000000000000000001C
:10AB20000000000000000000000000000000000025
:10AB30000000000000000000000000000000000015
:10AB40000000000000000000000000000000000005
:10AB500000000000000000000000000000000000F5
:10AB600000000000000000000000000000000000E5
:10AB700000000000000000000000000002000000D3
:10AB80000400000008000000180000001000000091
:10AB9000180000001800000004000000020000007F
:10ABA00000000000000000000000000000000000A5
:10ABB0000000000000000000000000000000000095
:10ABC0000000000000000000000000000000000085
:10ABD0000000000000000000000000000000000075
:10ABE0000000000000000000000000000000000164
:10ABF0000000000100000001000000010000000151
:10AC00000000000100000001000000010000000140
:10AC10000000000100000001000000010000000130
:10AC20000000000100000001000000010000000021
:10AC30000000000000000000000000000000000014
:10AC40000000000000000000000000000000000004
:10AC500000000000000000000000000000000000F4
:10AC600000000000000000000000000000000000E4
:10AC700000000000000000001000000010000000B4
:10AC80001000000018000000080000000400000090
:10AC900000000000000000000000000000000000B4
:10ACA00000000000000000000000000000000000A4
:10ACB0000000000000000000000000000000000094
:10ACC0000000000000000000000000000000000084
:10ACD0000000000000000000000000000000000074
:10ACE0000000000000000000000000000000000064
:10ACF0000000038000018FC000038C600006182054
:10AD00000004102000041020000420200004204033
:10AD1000000620400003FFC00001FFE0000000200B
:10AD200000000020000000C0000000000000000043
:10AD30000000000000000000000000000000000013
:10AD40000000000000000000000000000000000003
:10AD500000000000000000000000000000000000F3
:10AD600000000000000000000000000000000000E3
:10AD7000020000000200000003FFFFE007FFFFC029
:10AD8000000180C0000200600002002000040020DA
:10AD9000000400200004002000060040000300C062
:10ADA0000001FF800000FE00000000000000000025
:10ADB0000000000000000000000000000000000093
:10ADC0000000000000000000000000000000000083
:10ADD0000000000000000000000000000000000073
:10ADE0000000000000000000000000000000000063
:10ADF0000000000000007E000001FF80000381C011
:10AE00000002004000060020000400200004002092
:10AE100000040020000600200003C0400001C080A4
:10AE2000000003000000000000000000000000001F
:10AE30000000000000000000000000000000000012
:10AE40000000000000000000000000000000000002
:10AE500000000000000000000000000000000000F2
:10AE600000000000000000000000000000000000E2
:10AE70000000000000007E000001FF80000380C091
:10AE800000060060000400200004002000040020F0
:10AE9000020400400202008003FFFFE007FFFFC042
:10AEA0000000004000000040000000000000000022
:10AEB0000000000000000000000000000000000092
:10AEC0000000000000000000000000000000000082
:10AED0000000000000000000000000000000000072
:10AEE0000000000000000000000000000000000062
:10AEF0000000000000007E000001FF80000311C080
:10AF00000002104000041060000410200004102013
:10AF10000004102000061020000310400001F0C0C3
:10AF200000007100000000000000000000000000B0
:10AF30000000000000000000000000000000000011
:10AF40000000000000000000000000000000000001
:10AF500000000000000000000000000000000000F1
:10AF600000000000000000000000000000000000E1
:10AF70000000000000040000000400200004002085
:10AF800000040020007FFFE001FFFFE0010400203B
:10AF90000304002002040020020400200204000038
:10AFA0000200000001C0000001C00000000000001D
:10AFB0000000000000000000000000000000000091
:10AFC0000000000000000000000000000000000081
:10AFD0000000000000000000000000000000000071
:10AFE0000000000000000000000000000000000061
:10AFF000000000000000001C0000E33E0003FFC250
:10B0000000020CC3000404C1000404C1000404C114
:10B01000000404C100060CC10003F8C30005F0627F
:10B020000006007E0006003C00000000000000005A
:10B030000000000000000000000000000000000010
:10B040000000000000000000000000000000000000
:10B0500000000000000000000000000000000000F0
:10B0600000000000000000000000000000000000E0
:10B07000020000200200002003FFFFE007FFFFE0C6
:10B080000001002000020020000600000004000073
:10B090000004000000040020000600200003FFE080
:10B0A0000001FFE000000020000000200000000080
:10B0B0000000000000000000000000000000000090
:10B0C0000000000000000000000000000000000080
:10B0D0000000000000000000000000000000000070
:10B0E0000000000000000000000000000000000060
:10B0F0000000000000000000000400200004002008
:10B1000000040020000400200387FFE0038FFFE01D
:10B11000038000200000002000000020000000202C
:10B12000000000000000000000000000000000001F
:10B13000000000000000000000000000000000000F
:10B1400000000000000000000000000000000000FF
:10B1500000000000000000000000000000000000EF
:10B1600000000000000000000000000000000000DF
:10B1700000000000000000000000000600000007C2
:10B1800000000001000000010004000100040001B3
:10B1900000040003000400060387FFFC038FFFF890
:10B1A000038000000000000000000000000000001C
:10B1B000000000000000000000000000000000008F
:10B1C000000000000000000000000000000000007F
:10B1D000000000000000000000000000000000006F
:10B1E000000000000000000000000000000000005F
:10B1F000020000200200002003FFFFE007FFFFE045
:10B200000000082000001020000030000000FC00BA
:10B2100000058E00000707A0000601E0000400E022
:10B2200000040020000000200000000000000000DA
:10B23000000000000000000000000000000000000E
:10B2400000000000000000000000000000000000FE
:10B2500000000000000000000000000000000000EE
:10B2600000000000000000000000000000000000DE
:10B27000000000000000000002000020020000208A
:10B28000020000200200002003FFFFE007FFFFE0B4
:10B29000000000200000002000000020000000202E
:10B2A000000000000000000000000000000000009E
:10B2B000000000000000000000000000000000008E
:10B2C000000000000000000000000000000000007E
:10B2D000000000000000000000000000000000006E
:10B2E000000000000000000000000000000000005E
:10B2F000000400200007FFE0000FFFE00002002034
:10B3000000040000000400200007FFE00003FFE04D
:10B310000002002000040000000400200007FFE0FD
:10B320000003FFE00000002000000000000000001B
:10B33000000000000000000000000000000000000D
:10B3400000000000000000000000000000000000FD
:10B3500000000000000000000000000000000000ED
:10B3600000000000000000000000000000000000DD
:10B3700000040020000400200007FFE0000FFFE0B1
:10B380000001002000020020000200000004000074
:10B390000004000000040020000600200003FFE07D
:10B3A0000001FFE00000002000000020000000007D
:10B3B000000000000000000000000000000000008D
:10B3C000000000000000000000000000000000007D
:10B3D000000000000000000000000000000000006D
:10B3E000000000000000000000000000000000005D
:10B3F0000000000000007E000000FF80000381C00C
:10B40000000200400006002000040020000400208C
:10B41000000400200006002000020040000381C05C
:10B420000001FF8000007E0000000000000000001E
:10B43000000000000000000000000000000000000C
:10B4400000000000000000000000000000000000FC
:10B4500000000000000000000000000000000000EC
:10B4600000000000000000000000000000000000DC
:10B4700000040001000400010007FFFF000FFFFFB0
:10B48000000100C10002004100040020000400206F
:10B49000000400200004002000060040000301C05A
:10B4A0000001FF8000007E0000000000000000009E
:10B4B000000000000000000000000000000000008C
:10B4C000000000000000000000000000000000007C
:10B4D000000000000000000000000000000000006C
:10B4E000000000000000000000000000000000005C
:10B4F0000000000000007E000001FF80000380C00B
:10B50000000200600004002000040020000400206D
:10B510000004002000020041000300C10003FFFFFF
:10B520000007FFFF00000001000000010000000014
:10B53000000000000000000000000000000000000B
:10B5400000000000000000000000000000000000FB
:10B5500000000000000000000000000000000000EB
:10B5600000000000000000000000000000000000DB
:10B57000000400200004002000040020000400203B
:10B58000000FFFE0000FFFE00000C02000010020DE
:10B59000000200200006002000040000000400005B
:10B5A0000007000000030000000000000000000091
:10B5B000000000000000000000000000000000008B
:10B5C000000000000000000000000000000000007B
:10B5D000000000000000000000000000000000006B
:10B5E000000000000000000000000000000000005B
:10B5F00000000000000003E00001C0E00003E040A4
:10B600000006302000043020000418200004182018
:10B610000004182000040C2000020C60000307C086
:10B620000007838000000000000000000000000010
:10B63000000000000000000000000000000000000A
:10B6400000000000000000000000000000000000FA
:10B6500000000000000000000000000000000000EA
:10B6600000000000000000000000000000000000DA
:10B6700000000000000400000004000000040000BE
:10B68000000C0000001FFF8000FFFFC000040060EE
:10B6900000040020000400200004002000040040FA
:10B6A0000000018000000000000000000000000019
:10B6B000000000000000000000000000000000008A
:10B6C000000000000000000000000000000000007A
:10B6D000000000000000000000000000000000006A
:10B6E000000000000000000000000000000000005A
:10B6F00000040000000400000007FF80000FFFC0EE
:10B700000000006000000020000000200000002079
:10B710000000002000040040000400800007FFE05B
:10B72000000FFFC0000000400000004000000000CB
:10B730000000000000000000000000000000000009
:10B7400000000000000000000000000000000000F9
:10B7500000000000000000000000000000000000E9
:10B7600000000000000000000000000000000000D9
:10B770000004000000040000000780000007F00043
:10B780000004FE0000041FC0000003E0000003806E
:10B7900000001C000004600000078000000600009C
:10B7A0000004000000000000000000000000000095
:10B7B0000000000000000000000000000000000089
:10B7C0000000000000000000000000000000000079
:10B7D0000000000000000000000000000000000069
:10B7E0000000000000000000000000000004000055
:10B7F000000600000007C0000007FC0000043F80B6
:10B80000000003E000040F800006F0000007F000D5
:10B810000007FF8000040FE00000038000043C00EC
:10B820000007C00000060000000400000000000047
:10B830000000000000000000000000000000000008
:10B8400000000000000000000000000000000000F8
:10B8500000000000000000000000000000000000E8
:10B8600000000000000000000000000000000000D8
:10B87000000000200004002000040060000700E039
:10B88000000783200007E6000004F80000003C00E9
:10B8900000045E20000587A0000601E000040060AF
:10B8A0000004002000000020000000000000000054
:10B8B0000000000000000000000000000000000088
:10B8C0000000000000000000000000000000000078
:10B8D0000000000000000000000000000000000068
:10B8E0000000000000000000000000000000000058
:10B8F0000004000000040003000700030007E0014B
:10B900000004F80100041F02000007FC000000E032
:10B9100000000700000438000007C0000006000017
:10B92000000400000004000000000000000000000F
:10B930000000000000000000000000000000000007
:10B9400000000000000000000000000000000000F7
:10B9500000000000000000000000000000000000E7
:10B9600000000000000000000000000000000000D7
:10B970000000000000078060000600E0000403E013
:10B98000000407A000040E2000043C2000047020E6
:10B990000005E0200007802000070060000400E0B0
:10B9A0000000038000000000000000000000000014
:10B9B0000000000000000000000000000000000087
:10B9C0000000000000000000000000000000000077
:10B9D0000000000000000000000000000000000067
:10B9E0000000000000000000000000000000000057
:10B9F0000000000000000000000000000000000047
:10BA00000000000000000000000080000000800036
:10BA10000001400007FE3FF808000004100000028B
:10BA20001000000200000000000000000000000004
:10BA30000000000000000000000000000000000006
:10BA400000000000000000000000000000000000F6
:10BA500000000000000000000000000000000000E6
:10BA600000000000000000000000000000000000D6
:10BA700000000000000000000000000000000000C6
:10BA8000000000000000000000000000FFFFFFFFBA
:10BA900000000000000000000000000000000000A6
:10BAA0000000000000000000000000000000000096
:10BAB0000000000000000000000000000000000086
:10BAC0000000000000000000000000000000000076
:10BAD0000000000000000000000000000000000066
:10BAE0000000000000000000000000000000000056
:10BAF0000000000010000002100000020800000416
:10BB000007FE3FF8000140000000800000008000B8
:10BB10000000000000000000000000000000000025
:10BB20000000000000000000000000000000000015
:10BB30000000000000000000000000000000000005
:10BB400000000000000000000000000000000000F5
:10BB500000000000000000000000000000000000E5
:10BB600000000000000000000000000000000000D5
:10BB700018000000300000004000000040000000FD
:10BB8000400000002000000030000000080000001D
:10BB9000040000000200000002000000020000009B
:10BBA0000C00000018000000000000000000000071
:10BBB0000000000000000000000000000000000085
:10BBC0000000000000000000000000000000000075
:10BBD0000000000000000000000000000000000065
:10BBE000000000000000000000000000C7EB0000A3
:10BBF000000000000000000010000800180006000F
:10BC0000180007001810031FFFF8030018000000B9
:10BC100018600007FFF000001800020018007F0005
:10BC20001818033FFFFC030000000300004003035B
:10BC3000FFE00302006003020060030200600303F0
:10BC4000FFE003120060032200600343FFE003C231
:10BC500000600382006007020060030200600002CF
:10BC60000FC0B0B400000000000000000100200080
:10BC700001C0180001800C0001800C0001820C083A
:10BC80000183FFFC01A200183FF60010018E38204E
:10BC900001803000018030000190600001A0601838
:10BCA00001DFFFFC0380C0C00F8080C03D81818028
:10BCB0003981018011830180018303000180E30049
:10BCC00001801E000180070001800DC0018038F056
:10BCD000018060381F81C018C6F400000000000019
:10BCE000000000030000000180000000C000000010
:10BCF000C0000100804001FFFFE0018000400180A2
:10BD0000004001800040018000400180004001FFB0
:10BD1000FFC0018000400180000001800000019010
:10BD20000000011FFFE0031800C0031800C0031843
:10BD300000C0031800C0021800C0061800C0061892
:10BD400000C0041800C0081FFFC0181800C0B6AF1C
:10BD500000000000000000000000080000000E00CD
:10BD600000000C00000C0C001FFE0C0000000C007A
:10BD700000000C0000000C000000FFFC00020C188A
:10BD80003FFF0C1800800C1801E00C1801800C1803
:10BD900003000818030008180610181804081818DB
:10BDA0000C0C101808061018107F30103F8320105C
:10BDB000380260100000C0300001803000010C30FB
:10BDC000000603E0C3EB00000000000000000000DC
:10BDD00004000038060000FC06001F8006000180F9
:10BDE000060001800600018006800180E66001886F
:10BDF000C6303FFCC6180180860C0180860C03818A
:10BE0000860803F1060003B90600079A0630059A72
:10BE1000063809840660198006E0118005C021807B
:10BE20000180418003000180060001801C00018028
:10BE300030000180E00001838000B1ED00000000CF
:10BE4000000000000001000000018000000100006F
:10BE5000000100600FFFFFF0000100000001000082
:10BE60000001018003FFFFC000010000000100008D
:10BE700000010010000100383FFFFFFC0007000038
:10BE8000000680C0000C81E000184300003066000E
:10BE90000070280001B03000033018000C300C0096
:10BEA00030300700003083C0003701FE007C00788E
:10BEB000D5D4000000000000000000400000006039
:10BEC00000000040003000400038004220301FFFDA
:10BED0002060004010600040086000400CC000403E
:10BEE00004C0004182803FFFC38000600180006089
:10BEF0000380006002C00660066006610C60047F7B
:10BF000088300C6010300C6030380C6060180A60AB
:10BF1000C0100961000018E0000010700000201F30
:10BF2000003C2007FFF0BDF0000000000002000010
:10BF3000000380000007000000068000000E4000A3
:10BF4000000C6000001830000038180000700C0071
:10BF50000060060000C00380030005F006FFFE7CC1
:10BF6000180100182001000000010000000100007D
:10BF7000000100C007FFFFE0000100000101020016
:10BF80000081070000E1060000710C0000310C0088
:10BF900000311800002110183FFFFFFCBBC000005B
:10BFA000000002004000030070000300C000030016
:10BFB000C1000301FF800301830003330600033245
:10BFC000040003640800134C08201397FFF01326A5
:10BFD00018203306182073061820030618200306BD
:10BFE0001820030618200306182803BFFFFC02C010
:10BFF00034000670340006302200041063000C1078
:10C00000C180080180C018030070100C003E203071
:10C010000018B7D60000000000000000000010006B
:10C02000000C1000000C1000001810000018080090
:10C0300000300800003004000060060000C003006B
:10C0400000800180010002E002FFFF780402063058
:10C0500008060600000606000006060000040600AA
:10C06000000C0600000C0600000806000018040082
:10C070000030040000600C0000C0FC000300380029
:10C080000400100000000000CAFD000000000010C5
:10C09000080000180E0002118C0003110800019224
:10C0A000180001921800011490100FFFFFF80070A3
:10C0B0003040005C304000975040011350C00211E6
:10C0C00090C00C1088C0003008C0006008800FFFCE
:10C0D00089800043058000C205000086070000FC3F
:10C0E0000700001E070000338DC00060B0E0018033
:10C0F000607C0E0180300002000000000000A3BA46
:10C10000000000000000000000000000000000002F
:10C11000000000000000000000000000000000001F
:10C12000000000000000000000000000000000000F
:10C13000000000000000000001C0000003C000007B
:10C1400003C00000018000000000000000000000AB
:10C150000000000001C0000003C0000003C0000098
:10C16000018000000000000000000000000000004E
:10C1700000000000B0B4000000000080100000E0EB
:10C18000180000C00C0000C00C0000C1081000D155
:10C19000FFF80FFB003000C3102000C6384000C07D
:10C1A000300000C8300000D0601000EFFFF801C080
:10C1B00040C007C0C0800EC081800CC1818000C11A
:10C1C000030000C3C30000C07E0000C00E0000C01A
:10C1D0000F8000C018E000C0307007C0C030018779
:10C1E00000100118000000000000CFC20000000095
:10C1F0000000000000000000000000200FFFFFF022
:10C20000000180000001800000018000000180002A
:10C2100000018000000180000001C0000001B800A2
:10C2200000018F000001878000018380000181C030
:10C23000000180800001800000018000000180007A
:10C2400000018000000180000001800000018000EA
:10C2500000018000000180000001000000000000DB
:10C26000B0B4000000000080100000E0180000C022
:10C270000C0000C00C0000C1081000D1FFF80FFB3B
:10C28000003000C3102000C6384000C0300000C895
:10C29000300000D0601000EFFFF801C040C007C0C0
:10C2A000C0800EC081800CC1818000C1030000C32A
:10C2B000C30000C07E0000C00E0000C00F8000C0A0
:10C2C00018E000C0307007C0C030018700100118AE
:10C2D000000000000000BCFC0000000001000200A3
:10C2E000018003000100020003000220032FFFF081
:10C2F00003F182200601022004037FF804020220D9
:10C300000FE2022011060220010FFFE00104C2200B
:10C310000100C2200120BFF01FF882000108820046
:10C32000010482100105FFF8010702000103020069
:10C330000123020001C78200018CE40001183FF8CC
:10C34000002007F000C0000000000000D7DB010063
:10C35000080003000C000301FFF00207FFFC060CBD
:10C360000004040C00040C6C000C086C000C184356
:10C37000FFF830C3FFF030C000007F8000007980FC
:10C380000000010000000307FFFC0607FFF80C0097
:10C3900004000CF184403FC184603C018420000112
:10C3A0000430000304100033041803E204183F06AD
:10C3B00004082004040C000C84040009FC040000A0
:10C3C0003800BACF0003C00000066000000C300047
:10C3D00000181C0000300E0000E0070001C001C082
:10C3E000070000E01C00003873FFFFCE03FFFFC012
:10C3F00000000000000000000000000003FFFFC07C
:10C4000007FFFFE006000060060000600600006015
:10C410000600006006000060060000600600006084
:10C4200006000060060000600600006007FFFFE0F5
:10C4300003FFFFC000000000C1B7030018000200A6
:10C44000100006003000061FFFFC0C0060000C000E
:10C4500060000860C0001840C00030CFFC00308190
:10C4600086007F8302007F02060003060600020C9E
:10C470000600060C06000C07FFFC0800060018006A
:10C48000060033F086207F8186300001863000036D
:10C490000618000306180076060807E6060C7E0C50
:10C4A00006046018E60600087C0000000000CFB01B
:10C4B0000FFFFFE00FFFFFF00000001000800030D2
:10C4C00000C000300060003000300030003000302C
:10C4D00000180030000C0030000C0330000607305C
:10C4E00000020E3000021C300000303000006030CE
:10C4F0000000C0300003803000060030001C003017
:10C500000038003000E00030038000300E000030C2
:10C51000080000300000302000003FE000000780ED
:10C52000000000005F320000000000000000000773
:10C53000E000000838000010180000200C00002067
:10C540000C0000300C0000300C0000000C0000005B
:10C550001800000010000000200000004000000053
:10C560008000000100000002000000040400000838
:10C5700004000010040000200C00003FF800003F01
:10C58000F8000000000000000000000000000000B3
:10C5900000000000000000000000000008820020F1
:10C5A0000C00000080000000000200000884002051
:10C5B0000A00000040010000488500200C00000037
:10C5C000800000000002000048870020800000007A
:10C5D00000020000640000004006000048890020BE
:10C5E0000B0000000A000000888F00200C000000F3
:10C5F000800000000002000040000000E80300008E
:10C600000A000000889100200C000000800000005B
:10C610000002000011000000880000000B00000074
:10C620000A000000109400200C00000080000000B0
:10C6300000020000110000008800000090140000BB
:10C6400001010100785634120101000000000000D1
:10C6500000000000000000000000000000000000DA
:10C6600000000000000000000000000000000000CA
:10C67000000000000101010028000400200001006A
:10C6800000000000000000000000000000000000AA
:10C69000000000000000000000000000000000009A
:10C6A00001002000010010000C001000000000003C
:10C6B000000000000000000000000000000000007A
:10C6C000000000000000000000000000000000006A
:10C6D0000000000000000000010101002C00010129
:10C6E00020000C00200020000400040000000000D6
:10C6F000000000000000000000000000000000003A
:10C700000000000000000000000000000000000029
:10C710000000000000000000000000000101010115
:10C7200030000100000000000000000000000000D8
:10C7300000000000000000000000000000000000F9
:10C7400000000000000000000000000001010101E5
:10C7500028000C0080010000040101010101010119
:10C7600001000101C80008000101000000000000F4
:10C7700000000000000000000000000000000000B9
:10C7800000000000000000000000000000000000A9
:10C790000000000000000000000000000000000099
:10C7A0000101340008005D762A060000CCC70008AD
:10C7B0000000002030010000E8140008E8C700086D
:10C7C00030010020E09E0000A87200082193FFFFC6
:10C7D00084A24A04680901020304060708090C69D7
:08C7E0001005FC02040608002C
:0400000508000131BD
:00000001FF
