Component: ARM Compiler 5.06 update 7 (build 960) Tool: armlink [4d3601]

==============================================================================

Section Cross References

    startup_stm32f10x_hd.o(RESET) refers to startup_stm32f10x_hd.o(STACK) for __initial_sp
    startup_stm32f10x_hd.o(RESET) refers to startup_stm32f10x_hd.o(.text) for Reset_Handler
    startup_stm32f10x_hd.o(RESET) refers to stm32f10x_it.o(i.NMI_Handler) for NMI_Handler
    startup_stm32f10x_hd.o(RESET) refers to stm32f10x_it.o(i.HardFault_Handler) for HardFault_Handler
    startup_stm32f10x_hd.o(RESET) refers to stm32f10x_it.o(i.MemManage_Handler) for MemManage_Handler
    startup_stm32f10x_hd.o(RESET) refers to stm32f10x_it.o(i.BusFault_Handler) for BusFault_Handler
    startup_stm32f10x_hd.o(RESET) refers to stm32f10x_it.o(i.UsageFault_Handler) for UsageFault_Handler
    startup_stm32f10x_hd.o(RESET) refers to stm32f10x_it.o(i.SVC_Handler) for SVC_Handler
    startup_stm32f10x_hd.o(RESET) refers to stm32f10x_it.o(i.DebugMon_Handler) for DebugMon_Handler
    startup_stm32f10x_hd.o(RESET) refers to os_cpu_a.o(CODE) for OS_CPU_PendSVHandler
    startup_stm32f10x_hd.o(RESET) refers to os_cpu_c.o(i.OS_CPU_SysTickHandler) for OS_CPU_SysTickHandler
    startup_stm32f10x_hd.o(.text) refers to system_stm32f10x.o(.text) for SystemInit
    startup_stm32f10x_hd.o(.text) refers to entry.o(.ARM.Collect$$$$00000000) for __main
    main.o(i.AppTaskLed1) refers to stm32f10x_gpio.o(.text) for GPIO_ReadOutputDataBit
    main.o(i.AppTaskLed1) refers to os_time.o(i.OSTimeDly) for OSTimeDly
    main.o(i.AppTaskLed2) refers to stm32f10x_gpio.o(.text) for GPIO_ReadOutputDataBit
    main.o(i.AppTaskLed2) refers to os_time.o(i.OSTimeDly) for OSTimeDly
    main.o(i.AppTaskLed3) refers to tftlcd.o(i.LCD_ShowFontHZ) for LCD_ShowFontHZ
==============================================================================

Removing Unused input sections from the image.

    Removing startup_stm32f10x_hd.o(HEAP), (512 bytes).
    Removing os_app_hooks.o(i.App_OS_ClrAllHooks), (100 bytes).
    Removing os_app_hooks.o(i.App_OS_IdleTaskHook), (2 bytes).
    Removing os_app_hooks.o(i.App_OS_InitHook), (2 bytes).
    Removing os_app_hooks.o(i.App_OS_SetAllHooks), (140 bytes).
    Removing os_app_hooks.o(i.App_OS_StatTaskHook), (2 bytes).
    Removing os_app_hooks.o(i.App_OS_TaskCreateHook), (2 bytes).
    Removing os_app_hooks.o(i.App_OS_TaskDelHook), (2 bytes).
    Removing os_app_hooks.o(i.App_OS_TaskReturnHook), (2 bytes).
    Removing os_app_hooks.o(i.App_OS_TaskSwHook), (2 bytes).
    Removing os_app_hooks.o(i.App_OS_TimeTickHook), (2 bytes).
    Removing stm32f10x_it.o(i.PendSV_Handler), (2 bytes).
    Removing stm32f10x_it.o(i.SysTick_Handler), (2 bytes).
    Removing bsp.o(.data), (4 bytes).
    Removing bsp_usart1.o(i.USARTx_Config), (128 bytes).
    Removing bsp_usart1.o(i.fgetc), (32 bytes).
    Removing bsp_usart1.o(i.fputc), (36 bytes).
    Removing bsp_key.o(i.Key1_Config), (36 bytes).
==============================================================================

Image Symbol Table

    Local Symbols

    Symbol Name                              Value     Ov Type        Size  Object(Section)

    ../clib/../cmprslib/zerorunl2.c          0x00000000   Number         0  __dczerorl2.o ABSOLUTE
    ../clib/microlib/init/entry.s            0x00000000   Number         0  entry7a.o ABSOLUTE
    ../clib/microlib/init/entry.s            0x00000000   Number         0  entry12b.o ABSOLUTE
    ../clib/microlib/init/entry.s            0x00000000   Number         0  entry12a.o ABSOLUTE
    ../clib/microlib/init/entry.s            0x00000000   Number         0  entry11a.o ABSOLUTE
    ../clib/microlib/init/entry.s            0x00000000   Number         0  entry10b.o ABSOLUTE
    ../clib/microlib/init/entry.s            0x00000000   Number         0  entry10a.o ABSOLUTE
    ../clib/microlib/init/entry.s            0x00000000   Number         0  entry9b.o ABSOLUTE
    ../clib/microlib/init/entry.s            0x00000000   Number         0  entry9a.o ABSOLUTE
    ../clib/microlib/init/entry.s            0x00000000   Number         0  entry11b.o ABSOLUTE
    ../clib/microlib/init/entry.s            0x00000000   Number         0  entry8b.o ABSOLUTE
    ../clib/microlib/init/entry.s            0x00000000   Number         0  entry8a.o ABSOLUTE
    ../clib/microlib/init/entry.s            0x00000000   Number         0  entry7b.o ABSOLUTE
    ../clib/microlib/init/entry.s            0x00000000   Number         0  entry5.o ABSOLUTE
    ../clib/microlib/init/entry.s            0x00000000   Number         0  entry2.o ABSOLUTE
    ../clib/microlib/init/entry.s            0x00000000   Number         0  entry.o ABSOLUTE
    ../clib/microlib/longlong.c              0x00000000   Number         0  llushr.o ABSOLUTE
    ../clib/microlib/longlong.c              0x00000000   Number         0  llshl.o ABSOLUTE
    ../clib/microlib/stubs.s                 0x00000000   Number         0  iusefp.o ABSOLUTE
    ../fplib/microlib/fpepilogue.c           0x00000000   Number         0  depilogue.o ABSOLUTE
    ../fplib/microlib/fpfix.c                0x00000000   Number         0  dfixui.o ABSOLUTE
    ../fplib/microlib/fpflt.c                0x00000000   Number         0  dfltui.o ABSOLUTE
    ../fplib/microlib/fpmul.c                0x00000000   Number         0  dmul.o ABSOLUTE
    ..\..\User\uC-CPU\ARM-Cortex-M3\RealView\cpu_a.asm 0x00000000   Number         0  cpu_a.o ABSOLUTE
    ..\..\User\uC-CPU\cpu_core.c             0x00000000   Number         0  cpu_core.o ABSOLUTE
    ..\..\User\uC-LIB\Ports\ARM-Cortex-M3\RealView\lib_mem_a.asm 0x00000000   Number         0  lib_mem_a.o ABSOLUTE
    ..\..\User\uC-LIB\lib_ascii.c            0x00000000   Number         0  lib_ascii.o ABSOLUTE
    ..\..\User\uC-LIB\lib_mem.c              0x00000000   Number         0  lib_mem.o ABSOLUTE
    ..\..\User\uC-LIB\lib_str.c              0x00000000   Number         0  lib_str.o ABSOLUTE
    ..\..\User\uCOS-III\Ports\ARM-Cortex-M3\Generic\RealView\os_cpu_a.s 0x00000000   Number         0  os_cpu_a.o ABSOLUTE
    ..\..\User\uCOS-III\Ports\ARM-Cortex-M3\Generic\RealView\os_cpu_c.c 0x00000000   Number         0  os_cpu_c.o ABSOLUTE
    ..\..\User\uCOS-III\Source\os_cfg_app.c  0x00000000   Number         0  os_cfg_app.o ABSOLUTE
    ..\..\User\uCOS-III\Source\os_core.c     0x00000000   Number         0  os_core.o ABSOLUTE
    ..\..\User\uCOS-III\Source\os_dbg.c      0x00000000   Number         0  os_dbg.o ABSOLUTE
    ..\..\User\uCOS-III\Source\os_flag.c     0x00000000   Number         0  os_flag.o ABSOLUTE
    ..\..\User\uCOS-III\Source\os_int.c      0x00000000   Number         0  os_int.o ABSOLUTE
    ..\..\User\uCOS-III\Source\os_mem.c      0x00000000   Number         0  os_mem.o ABSOLUTE
    ..\..\User\uCOS-III\Source\os_msg.c      0x00000000   Number         0  os_msg.o ABSOLUTE
    ..\..\User\uCOS-III\Source\os_mutex.c    0x00000000   Number         0  os_mutex.o ABSOLUTE
    ..\..\User\uCOS-III\Source\os_prio.c     0x00000000   Number         0  os_prio.o ABSOLUTE
    ..\..\User\uCOS-III\Source\os_q.c        0x00000000   Number         0  os_q.o ABSOLUTE
    ..\..\User\uCOS-III\Source\os_sem.c      0x00000000   Number         0  os_sem.o ABSOLUTE
    ..\..\User\uCOS-III\Source\os_stat.c     0x00000000   Number         0  os_stat.o ABSOLUTE
    ..\..\User\uCOS-III\Source\os_task.c     0x00000000   Number         0  os_task.o ABSOLUTE
    ..\..\User\uCOS-III\Source\os_tick.c     0x00000000   Number         0  os_tick.o ABSOLUTE
    ..\..\User\uCOS-III\Source\os_time.c     0x00000000   Number         0  os_time.o ABSOLUTE
    ..\..\User\uCOS-III\Source\os_tmr.c      0x00000000   Number         0  os_tmr.o ABSOLUTE
    ..\..\User\uCOS-III\Source\os_var.c      0x00000000   Number         0  os_var.o ABSOLUTE
    ..\FW_LIB\startup_stm32f10x_hd.s         0x00000000   Number         0  startup_stm32f10x_hd.o ABSOLUTE
    ..\USER\APP\main.c                       0x00000000   Number         0  main.o ABSOLUTE
    ..\USER\APP\os_app_hooks.c               0x00000000   Number         0  os_app_hooks.o ABSOLUTE
    ..\USER\APP\stm32f10x_it.c               0x00000000   Number         0  stm32f10x_it.o ABSOLUTE
    ..\USER\BSP\Key\bsp_key.c                0x00000000   Number         0  bsp_key.o ABSOLUTE
    ..\USER\BSP\bsp.c                        0x00000000   Number         0  bsp.o ABSOLUTE
    ..\USER\BSP\led\bsp_led.c                0x00000000   Number         0  bsp_led.o ABSOLUTE
    ..\USER\BSP\tftlcd\tftlcd.c              0x00000000   Number         0  tftlcd.o ABSOLUTE
    ..\USER\BSP\usart\bsp_usart1.c           0x00000000   Number         0  bsp_usart1.o ABSOLUTE
    Libraries\CMSIS\CM3\DeviceSupport\ST\STM32F10x\system_stm32f10x.c 0x00000000   Number         0  system_stm32f10x.o ABSOLUTE
    Libraries\STM32F10x_StdPeriph_Driver\src\stm32f10x_fsmc.c 0x00000000   Number         0  stm32f10x_fsmc.o ABSOLUTE
    Libraries\STM32F10x_StdPeriph_Driver\src\stm32f10x_gpio.c 0x00000000   Number         0  stm32f10x_gpio.o ABSOLUTE
    Libraries\STM32F10x_StdPeriph_Driver\src\stm32f10x_rcc.c 0x00000000   Number         0  stm32f10x_rcc.o ABSOLUTE
    Libraries\STM32F10x_StdPeriph_Driver\src\stm32f10x_usart.c 0x00000000   Number         0  stm32f10x_usart.o ABSOLUTE
    dc.s                                     0x00000000   Number         0  dc.o ABSOLUTE
    handlers.s                               0x00000000   Number         0  handlers.o ABSOLUTE
    init.s                                   0x00000000   Number         0  init.o ABSOLUTE
    RESET                                    0x08000000   Section      304  startup_stm32f10x_hd.o(RESET)
    .ARM.Collect$$$$00000000                 0x08000130   Section        0  entry.o(.ARM.Collect$$$$00000000)
    .ARM.Collect$$$$00000001                 0x08000130   Section        4  entry2.o(.ARM.Collect$$$$00000001)
    .ARM.Collect$$$$00000004                 0x08000134   Section        4  entry5.o(.ARM.Collect$$$$00000004)
    .ARM.Collect$$$$00000008                 0x08000138   Section        0  entry7b.o(.ARM.Collect$$$$00000008)
    .ARM.Collect$$$$0000000A                 0x08000138   Section        0  entry8b.o(.ARM.Collect$$$$0000000A)
    .ARM.Collect$$$$0000000B                 0x08000138   Section        8  entry9a.o(.ARM.Collect$$$$0000000B)
    .ARM.Collect$$$$0000000E                 0x08000140   Section        4  entry12b.o(.ARM.Collect$$$$0000000E)
    .ARM.Collect$$$$0000000F                 0x08000144   Section        0  entry10a.o(.ARM.Collect$$$$0000000F)
    .ARM.Collect$$$$00000011                 0x08000144   Section        0  entry11a.o(.ARM.Collect$$$$00000011)
    .ARM.Collect$$$$00002712                 0x08000144   Section        4  entry2.o(.ARM.Collect$$$$00002712)
    __lit__00000000                          0x08000144   Data           4  entry2.o(.ARM.Collect$$$$00002712)
    .text                                    0x08000148   Section       36  startup_stm32f10x_hd.o(.text)
    .text                                    0x0800016c   Section        0  system_stm32f10x.o(.text)
    SetSysClockTo72                          0x0800016d   Thumb Code   212  system_stm32f10x.o(.text)
    SetSysClock                              0x08000241   Thumb Code     8  system_stm32f10x.o(.text)
    .text                                    0x08000348   Section        0  stm32f10x_gpio.o(.text)
    .text                                    0x080006a0   Section        0  stm32f10x_rcc.o(.text)
    .text                                    0x08000a44   Section        0  stm32f10x_fsmc.o(.text)
    .text                                    0x0800105c   Section       52  cpu_a.o(.text)
    .text                                    0x08001090   Section       36  init.o(.text)
    .text                                    0x080010b4   Section        0  __dczerorl2.o(.text)
    CODE                                     0x0800110c   Section      132  os_cpu_a.o(CODE)
    i.AppTaskLed1                            0x08001190   Section        0  main.o(i.AppTaskLed1)
    AppTaskLed1                              0x08001191   Thumb Code    46  main.o(i.AppTaskLed1)
    i.AppTaskLed2                            0x080011c4   Section        0  main.o(i.AppTaskLed2)
    AppTaskLed2                              0x080011c5   Thumb Code    46  main.o(i.AppTaskLed2)
    i.AppTaskLed3                            0x080011f8   Section        0  main.o(i.AppTaskLed3)
    AppTaskLed3                              0x080011f9   Thumb Code    60  main.o(i.AppTaskLed3)
    i.AppTaskStart                           0x08001244   Section        0  main.o(i.AppTaskStart)
    AppTaskStart                             0x08001245   Thumb Code   204  main.o(i.AppTaskStart)
    i.BSP_CPU_ClkFreq                        0x08001368   Section        0  bsp.o(i.BSP_CPU_ClkFreq)
    i.BSP_Init                               0x08001378   Section        0  bsp.o(i.BSP_Init)
    i.BusFault_Handler                       0x080013cc   Section        0  stm32f10x_it.o(i.BusFault_Handler)
    i.CPU_Init                               0x080013d0   Section        0  cpu_core.o(i.CPU_Init)
    i.CPU_IntDisMeasInit                     0x080013e0   Section        0  cpu_core.o(i.CPU_IntDisMeasInit)
    CPU_IntDisMeasInit                       0x080013e1   Thumb Code   104  cpu_core.o(i.CPU_IntDisMeasInit)
    i.CPU_IntDisMeasMaxCalc                  0x08001464   Section        0  cpu_core.o(i.CPU_IntDisMeasMaxCalc)
    CPU_IntDisMeasMaxCalc                    0x08001465   Thumb Code    24  cpu_core.o(i.CPU_IntDisMeasMaxCalc)
    i.CPU_IntDisMeasMaxCurGet                0x08001480   Section        0  cpu_core.o(i.CPU_IntDisMeasMaxCurGet)
    i.CPU_IntDisMeasMaxCurReset              0x080014ac   Section        0  cpu_core.o(i.CPU_IntDisMeasMaxCurReset)
    i.CPU_IntDisMeasMaxGet                   0x080014d8   Section        0  cpu_core.o(i.CPU_IntDisMeasMaxGet)
    i.CPU_IntDisMeasStart                    0x08001504   Section        0  cpu_core.o(i.CPU_IntDisMeasStart)
    i.CPU_IntDisMeasStop                     0x08001538   Section        0  cpu_core.o(i.CPU_IntDisMeasStop)
    i.CPU_NameClr                            0x0800158c   Section        0  cpu_core.o(i.CPU_NameClr)
    i.CPU_NameInit                           0x080015c4   Section        0  cpu_core.o(i.CPU_NameInit)
    CPU_NameInit                             0x080015c5   Thumb Code     8  cpu_core.o(i.CPU_NameInit)
    i.CPU_TS_Init                            0x080015cc   Section        0  cpu_core.o(i.CPU_TS_Init)
    CPU_TS_Init                              0x080015cd   Thumb Code    14  cpu_core.o(i.CPU_TS_Init)
    i.CPU_TS_TmrFreqSet                      0x080015e0   Section        0  cpu_core.o(i.CPU_TS_TmrFreqSet)
    i.CPU_TS_TmrInit                         0x080015ec   Section        0  bsp.o(i.CPU_TS_TmrInit)
    i.CPU_TS_TmrRd                           0x08001620   Section        0  bsp.o(i.CPU_TS_TmrRd)
    i.DebugMon_Handler                       0x0800162c   Section        0  stm32f10x_it.o(i.DebugMon_Handler)
    i.HardFault_Handler                      0x0800162e   Section        0  stm32f10x_it.o(i.HardFault_Handler)
    i.LCD_Clear                              0x08001634   Section        0  tftlcd.o(i.LCD_Clear)
    i.LCD_Display_Dir                        0x0800167c   Section        0  tftlcd.o(i.LCD_Display_Dir)
    i.LCD_DrawFRONT_COLOR                    0x080016d4   Section        0  tftlcd.o(i.LCD_DrawFRONT_COLOR)
    i.LCD_Pow                                0x080016f0   Section        0  tftlcd.o(i.LCD_Pow)
    i.LCD_Set_Window                         0x08001706   Section        0  tftlcd.o(i.LCD_Set_Window)
    i.LCD_ShowChar                           0x080017ac   Section        0  tftlcd.o(i.LCD_ShowChar)
    i.LCD_ShowFontHZ                         0x080018d4   Section        0  tftlcd.o(i.LCD_ShowFontHZ)
    i.LCD_ShowPicture                        0x080019bc   Section        0  tftlcd.o(i.LCD_ShowPicture)
    i.LCD_ShowxNum                           0x08001a46   Section        0  tftlcd.o(i.LCD_ShowxNum)
    i.LCD_WriteCmd                           0x08001b04   Section        0  tftlcd.o(i.LCD_WriteCmd)
    i.LCD_WriteCmdData                       0x08001b10   Section        0  tftlcd.o(i.LCD_WriteCmdData)
    i.LCD_WriteData                          0x08001b24   Section        0  tftlcd.o(i.LCD_WriteData)
    i.LCD_WriteData_Color                    0x08001b30   Section        0  tftlcd.o(i.LCD_WriteData_Color)
    i.LED_GPIO_Config                        0x08001b40   Section        0  bsp_led.o(i.LED_GPIO_Config)
    LED_GPIO_Config                          0x08001b41   Thumb Code    82  bsp_led.o(i.LED_GPIO_Config)
    i.LED_Init                               0x08001b98   Section        0  bsp_led.o(i.LED_Init)
    i.MemManage_Handler                      0x08001bbc   Section        0  stm32f10x_it.o(i.MemManage_Handler)
    i.Mem_Clr                                0x08001bc0   Section        0  lib_mem.o(i.Mem_Clr)
    i.Mem_Init                               0x08001bd4   Section        0  lib_mem.o(i.Mem_Init)
    i.Mem_Set                                0x08001c1c   Section        0  lib_mem.o(i.Mem_Set)
    i.NMI_Handler                            0x08001c7e   Section        0  stm32f10x_it.o(i.NMI_Handler)
    i.OSCfg_Init                             0x08001c80   Section        0  os_cfg_app.o(i.OSCfg_Init)
    i.OSIdleTaskHook                         0x08001c84   Section        0  os_cpu_c.o(i.OSIdleTaskHook)
    i.OSInit                                 0x08001c98   Section        0  os_core.o(i.OSInit)
    i.OSInitHook                             0x08001e24   Section        0  os_cpu_c.o(i.OSInitHook)
    i.OSIntExit                              0x08001e5c   Section        0  os_core.o(i.OSIntExit)
    i.OSSched                                0x08001f40   Section        0  os_core.o(i.OSSched)
    i.OSSchedLock                            0x08001fe8   Section        0  os_core.o(i.OSSchedLock)
    i.OSSchedUnlock                          0x08002064   Section        0  os_core.o(i.OSSchedUnlock)
    i.OSStart                                0x08002104   Section        0  os_core.o(i.OSStart)
    i.OSStatReset                            0x0800216c   Section        0  os_stat.o(i.OSStatReset)
    i.OSStatTaskCPUUsageInit                 0x080022d4   Section        0  os_stat.o(i.OSStatTaskCPUUsageInit)
    i.OSStatTaskHook                         0x080023d4   Section        0  os_cpu_c.o(i.OSStatTaskHook)
    i.OSTaskCreate                           0x080023e8   Section        0  os_task.o(i.OSTaskCreate)
    i.OSTaskCreateHook                       0x0800267c   Section        0  os_cpu_c.o(i.OSTaskCreateHook)
    i.OSTaskDel                              0x08002694   Section        0  os_task.o(i.OSTaskDel)
    i.OSTaskDelHook                          0x0800289c   Section        0  os_cpu_c.o(i.OSTaskDelHook)
    i.OSTaskResume                           0x080028b4   Section        0  os_task.o(i.OSTaskResume)
    i.OSTaskReturnHook                       0x0800293c   Section        0  os_cpu_c.o(i.OSTaskReturnHook)
    i.OSTaskSemPend                          0x08002954   Section        0  os_task.o(i.OSTaskSemPend)
    i.OSTaskStkChk                           0x08002ba4   Section        0  os_task.o(i.OSTaskStkChk)
    i.OSTaskStkInit                          0x08002c88   Section        0  os_cpu_c.o(i.OSTaskStkInit)
    i.OSTaskSuspend                          0x08002d48   Section        0  os_task.o(i.OSTaskSuspend)
    i.OSTaskSwHook                           0x08002da8   Section        0  os_cpu_c.o(i.OSTaskSwHook)
    i.OSTimeDly                              0x08002e4c   Section        0  os_time.o(i.OSTimeDly)
    i.OSTimeTick                             0x08002f9c   Section        0  os_time.o(i.OSTimeTick)
    i.OSTimeTickHook                         0x08002fe0   Section        0  os_cpu_c.o(i.OSTimeTickHook)
    i.OS_CPU_SysTickHandler                  0x08002ff4   Section        0  os_cpu_c.o(i.OS_CPU_SysTickHandler)
    i.OS_CPU_SysTickInit                     0x08003034   Section        0  os_cpu_c.o(i.OS_CPU_SysTickInit)
    i.OS_Dbg_Init                            0x08003064   Section        0  os_dbg.o(i.OS_Dbg_Init)
    i.OS_FlagInit                            0x08003218   Section        0  os_flag.o(i.OS_FlagInit)
    i.OS_FlagPost                            0x08003230   Section        0  os_flag.o(i.OS_FlagPost)
    i.OS_FlagTaskRdy                         0x080034ac   Section        0  os_flag.o(i.OS_FlagTaskRdy)
    i.OS_IdleTask                            0x08003504   Section        0  os_core.o(i.OS_IdleTask)
    i.OS_IdleTaskInit                        0x08003550   Section        0  os_core.o(i.OS_IdleTaskInit)
    i.OS_IntQPost                            0x080035c0   Section        0  os_int.o(i.OS_IntQPost)
    i.OS_IntQRePost                          0x080036c4   Section        0  os_int.o(i.OS_IntQRePost)
    i.OS_IntQTask                            0x08003868   Section        0  os_int.o(i.OS_IntQTask)
    i.OS_IntQTaskInit                        0x08003930   Section        0  os_int.o(i.OS_IntQTaskInit)
    i.OS_MemInit                             0x08003a58   Section        0  os_mem.o(i.OS_MemInit)
    i.OS_MsgPoolInit                         0x08003a70   Section        0  os_msg.o(i.OS_MsgPoolInit)
    i.OS_MsgQFreeAll                         0x08003aec   Section        0  os_msg.o(i.OS_MsgQFreeAll)
    i.OS_MsgQInit                            0x08003b30   Section        0  os_msg.o(i.OS_MsgQInit)
    i.OS_MsgQPut                             0x08003b40   Section        0  os_msg.o(i.OS_MsgQPut)
    i.OS_MutexInit                           0x08003c44   Section        0  os_mutex.o(i.OS_MutexInit)
    i.OS_Pend                                0x08003c5c   Section        0  os_core.o(i.OS_Pend)
    i.OS_PendDataInit                        0x08003cc4   Section        0  os_core.o(i.OS_PendDataInit)
    i.OS_PendDbgNameAdd                      0x08003cec   Section        0  os_core.o(i.OS_PendDbgNameAdd)
    i.OS_PendDbgNameRemove                   0x08003d48   Section        0  os_core.o(i.OS_PendDbgNameRemove)
    i.OS_PendListInsertPrio                  0x08003d6c   Section        0  os_core.o(i.OS_PendListInsertPrio)
    i.OS_PendListRemove                      0x08003dd2   Section        0  os_core.o(i.OS_PendListRemove)
    i.OS_PendListRemove1                     0x08003e02   Section        0  os_core.o(i.OS_PendListRemove1)
    i.OS_Post                                0x08003e44   Section        0  os_core.o(i.OS_Post)
    i.OS_Post1                               0x08003f04   Section        0  os_core.o(i.OS_Post1)
    i.OS_PrioGetHighest                      0x08003f30   Section        0  os_prio.o(i.OS_PrioGetHighest)
    i.OS_PrioInit                            0x08003f58   Section        0  os_prio.o(i.OS_PrioInit)
    i.OS_PrioInsert                          0x08003f70   Section        0  os_prio.o(i.OS_PrioInsert)
    i.OS_PrioRemove                          0x08003f94   Section        0  os_prio.o(i.OS_PrioRemove)
    i.OS_QInit                               0x08003fb8   Section        0  os_q.o(i.OS_QInit)
    i.OS_QPost                               0x08003fd0   Section        0  os_q.o(i.OS_QPost)
    i.OS_RdyListInit                         0x08004158   Section        0  os_core.o(i.OS_RdyListInit)
    i.OS_RdyListInsert                       0x0800417c   Section        0  os_core.o(i.OS_RdyListInsert)
    i.OS_RdyListInsertHead                   0x080041a8   Section        0  os_core.o(i.OS_RdyListInsertHead)
    i.OS_RdyListInsertTail                   0x080041e8   Section        0  os_core.o(i.OS_RdyListInsertTail)
    i.OS_RdyListMoveHeadToTail               0x08004224   Section        0  os_core.o(i.OS_RdyListMoveHeadToTail)
    i.OS_RdyListRemove                       0x08004268   Section        0  os_core.o(i.OS_RdyListRemove)
    i.OS_Sched0                              0x080042c4   Section        0  os_core.o(i.OS_Sched0)
    i.OS_SchedLockTimeMeasStart              0x08004320   Section        0  os_core.o(i.OS_SchedLockTimeMeasStart)
    i.OS_SchedLockTimeMeasStop               0x0800433c   Section        0  os_core.o(i.OS_SchedLockTimeMeasStop)
    i.OS_SchedRoundRobin                     0x08004378   Section        0  os_core.o(i.OS_SchedRoundRobin)
    i.OS_SemInit                             0x08004464   Section        0  os_sem.o(i.OS_SemInit)
    i.OS_SemPost                             0x0800447c   Section        0  os_sem.o(i.OS_SemPost)
    i.OS_StatTask                            0x08004614   Section        0  os_stat.o(i.OS_StatTask)
    i.OS_StatTaskInit                        0x080049cc   Section        0  os_stat.o(i.OS_StatTaskInit)
    i.OS_TaskBlock                           0x08004a98   Section        0  os_core.o(i.OS_TaskBlock)
    i.OS_TaskDbgListAdd                      0x08004ad0   Section        0  os_task.o(i.OS_TaskDbgListAdd)
    i.OS_TaskDbgListRemove                   0x08004b00   Section        0  os_task.o(i.OS_TaskDbgListRemove)
    i.OS_TaskInit                            0x08004b44   Section        0  os_task.o(i.OS_TaskInit)
    i.OS_TaskInitTCB                         0x08004b64   Section        0  os_task.o(i.OS_TaskInitTCB)
    i.OS_TaskQPost                           0x08004c34   Section        0  os_task.o(i.OS_TaskQPost)
    i.OS_TaskRdy                             0x08004ea0   Section        0  os_core.o(i.OS_TaskRdy)
    i.OS_TaskResume                          0x08004ebc   Section        0  os_task.o(i.OS_TaskResume)
    i.OS_TaskReturn                          0x08005038   Section        0  os_task.o(i.OS_TaskReturn)
    i.OS_TaskSemPost                         0x08005050   Section        0  os_task.o(i.OS_TaskSemPost)
    i.OS_TaskSuspend                         0x080055f8   Section        0  os_task.o(i.OS_TaskSuspend)
    i.OS_TickListInit                        0x08005788   Section        0  os_tick.o(i.OS_TickListInit)
    i.OS_TickListInsert                      0x080057b0   Section        0  os_tick.o(i.OS_TickListInsert)
    i.OS_TickListRemove                      0x0800596c   Section        0  os_tick.o(i.OS_TickListRemove)
    i.OS_TickListResetPeak                   0x080059a4   Section        0  os_tick.o(i.OS_TickListResetPeak)
    i.OS_TickListUpdate                      0x080059c8   Section        0  os_tick.o(i.OS_TickListUpdate)
    i.OS_TickTask                            0x08005be8   Section        0  os_tick.o(i.OS_TickTask)
    i.OS_TickTaskInit                        0x08005c14   Section        0  os_tick.o(i.OS_TickTaskInit)
    i.OS_TmrInit                             0x08005ccc   Section        0  os_tmr.o(i.OS_TmrInit)
    i.OS_TmrLink                             0x08005df4   Section        0  os_tmr.o(i.OS_TmrLink)
    i.OS_TmrResetPeak                        0x08005ec4   Section        0  os_tmr.o(i.OS_TmrResetPeak)
    i.OS_TmrTask                             0x08005ee8   Section        0  os_tmr.o(i.OS_TmrTask)
    i.OS_TmrUnlink                           0x08005fa8   Section        0  os_tmr.o(i.OS_TmrUnlink)
    i.SVC_Handler                            0x08005ff8   Section        0  stm32f10x_it.o(i.SVC_Handler)
    i.TFTLCD_FSMC_Init                       0x08005ffa   Section        0  tftlcd.o(i.TFTLCD_FSMC_Init)
    i.TFTLCD_GPIO_Init                       0x08006078   Section        0  tftlcd.o(i.TFTLCD_GPIO_Init)
    i.TFTLCD_Init                            0x08006110   Section        0  tftlcd.o(i.TFTLCD_Init)
    i.UsageFault_Handler                     0x08006304   Section        0  stm32f10x_it.o(i.UsageFault_Handler)
    i.__scatterload_copy                     0x08006308   Section       14  handlers.o(i.__scatterload_copy)
    i.__scatterload_null                     0x08006316   Section        2  handlers.o(i.__scatterload_null)
    i.__scatterload_zeroinit                 0x08006318   Section       14  handlers.o(i.__scatterload_zeroinit)
    i.delay_ms                               0x08006326   Section        0  tftlcd.o(i.delay_ms)
    i.main                                   0x08006344   Section        0  main.o(i.main)
    .constdata                               0x080063a4   Section    231224  bsp.o(.constdata)
    .constdata                               0x0803eadc   Section    18948  tftlcd.o(.constdata)
    .constdata                               0x080434e0   Section      164  os_cfg_app.o(.constdata)
    .constdata                               0x08043584   Section      364  os_dbg.o(.constdata)
    .data                                    0x20000000   Section        1  main.o(.data)
    .data                                    0x20000002   Section       12  tftlcd.o(.data)
    .data                                    0x20000010   Section       20  system_stm32f10x.o(.data)
    .data                                    0x20000024   Section       20  stm32f10x_rcc.o(.data)
    APBAHBPrescTable                         0x20000024   Data          16  stm32f10x_rcc.o(.data)
    ADCPrescTable                            0x20000034   Data           4  stm32f10x_rcc.o(.data)
    .data                                    0x20000038   Section       28  cpu_core.o(.data)
    .data                                    0x20000054   Section        4  lib_mem.o(.data)
    .data                                    0x20000058   Section      208  os_var.o(.data)
    .data                                    0x20000128   Section        4  os_cpu_c.o(.data)
    .data                                    0x2000012c   Section        4  os_prio.o(.data)
    .bss                                     0x20000130   Section     7456  main.o(.bss)
    AppTaskStartStk                          0x20000130   Data         512  main.o(.bss)
    AppTaskStartTCB                          0x20000330   Data         200  main.o(.bss)
    AppTaskLed1Stk                           0x200003f8   Data        2048  main.o(.bss)
    AppTaskLed1TCB                           0x20000bf8   Data         200  main.o(.bss)
    AppTaskLed2Stk                           0x20000cc0   Data        2048  main.o(.bss)
    AppTaskLed2TCB                           0x200014c0   Data         200  main.o(.bss)
    AppTaskLed3Stk                           0x20001588   Data        2048  main.o(.bss)
    AppTaskLed3TCB                           0x20001d88   Data         200  main.o(.bss)
    .bss                                     0x20001e50   Section       16  cpu_core.o(.bss)
    .bss                                     0x20001e60   Section    27720  lib_mem.o(.bss)
    .bss                                     0x20008aa8   Section     5264  os_cfg_app.o(.bss)
    .bss                                     0x20009f38   Section     1396  os_var.o(.bss)
    STACK                                    0x2000a4b0   Section     1024  startup_stm32f10x_hd.o(STACK)

    Global Symbols

    Symbol Name                              Value     Ov Type        Size  Object(Section)

    BuildAttributes$$THM_ISAv4$P$D$K$B$S$PE$A:L22UL41UL21$X:L11$S22US41US21$IEEE1$IW$USESV6$~STKCKD$USESV7$~SHL$OSPACE$ROPI$EBA8$MICROLIB$REQ8$PRES8$EABIv2 0x00000000   Number         0  anon$$obj.o ABSOLUTE
    __ARM_use_no_argv                        0x00000000   Number         0  main.o ABSOLUTE
    __arm_fini_                               - Undefined Weak Reference
    __cpp_initialize__aeabi_                  - Undefined Weak Reference
    __cxa_finalize                            - Undefined Weak Reference
    _clock_init                               - Undefined Weak Reference
    _microlib_exit                            - Undefined Weak Reference
    __Vectors_Size                           0x00000130   Number         0  startup_stm32f10x_hd.o ABSOLUTE
    __Vectors                                0x08000000   Data           4  startup_stm32f10x_hd.o(RESET)
    __Vectors_End                            0x08000130   Data           0  startup_stm32f10x_hd.o(RESET)
    __main                                   0x08000131   Thumb Code     0  entry.o(.ARM.Collect$$$$00000000)
    _main_stk                                0x08000131   Thumb Code     0  entry2.o(.ARM.Collect$$$$00000001)
    _main_scatterload                        0x08000135   Thumb Code     0  entry5.o(.ARM.Collect$$$$00000004)
    __main_after_scatterload                 0x08000139   Thumb Code     0  entry5.o(.ARM.Collect$$$$00000004)
    _main_clock                              0x08000139   Thumb Code     0  entry7b.o(.ARM.Collect$$$$00000008)
    _main_cpp_init                           0x08000139   Thumb Code     0  entry8b.o(.ARM.Collect$$$$0000000A)
    _main_init                               0x08000139   Thumb Code     0  entry9a.o(.ARM.Collect$$$$0000000B)
    __rt_lib_shutdown_fini                   0x08000141   Thumb Code     0  entry12b.o(.ARM.Collect$$$$0000000E)
    __rt_final_cpp                           0x08000145   Thumb Code     0  entry10a.o(.ARM.Collect$$$$0000000F)
    __rt_final_exit                          0x08000145   Thumb Code     0  entry11a.o(.ARM.Collect$$$$00000011)
    Reset_Handler                            0x08000149   Thumb Code     8  startup_stm32f10x_hd.o(.text)
    ADC1_2_IRQHandler                        0x08000163   Thumb Code     0  startup_stm32f10x_hd.o(.text)
    ADC3_IRQHandler                          0x08000163   Thumb Code     0  startup_stm32f10x_hd.o(.text)
    CAN1_RX1_IRQHandler                      0x08000163   Thumb Code     0  startup_stm32f10x_hd.o(.text)
    CAN1_SCE_IRQHandler                      0x08000163   Thumb Code     0  startup_stm32f10x_hd.o(.text)
    DMA1_Channel1_IRQHandler                 0x08000163   Thumb Code     0  startup_stm32f10x_hd.o(.text)
    DMA1_Channel2_IRQHandler                 0x08000163   Thumb Code     0  startup_stm32f10x_hd.o(.text)
    DMA1_Channel3_IRQHandler                 0x08000163   Thumb Code     0  startup_stm32f10x_hd.o(.text)
    DMA1_Channel4_IRQHandler                 0x08000163   Thumb Code     0  startup_stm32f10x_hd.o(.text)
    DMA1_Channel5_IRQHandler                 0x08000163   Thumb Code     0  startup_stm32f10x_hd.o(.text)
    DMA1_Channel6_IRQHandler                 0x08000163   Thumb Code     0  startup_stm32f10x_hd.o(.text)
    DMA1_Channel7_IRQHandler                 0x08000163   Thumb Code     0  startup_stm32f10x_hd.o(.text)
    DMA2_Channel1_IRQHandler                 0x08000163   Thumb Code     0  startup_stm32f10x_hd.o(.text)
    DMA2_Channel2_IRQHandler                 0x08000163   Thumb Code     0  startup_stm32f10x_hd.o(.text)
    DMA2_Channel3_IRQHandler                 0x08000163   Thumb Code     0  startup_stm32f10x_hd.o(.text)
    DMA2_Channel4_5_IRQHandler               0x08000163   Thumb Code     0  startup_stm32f10x_hd.o(.text)
    EXTI0_IRQHandler                         0x08000163   Thumb Code     0  startup_stm32f10x_hd.o(.text)
    EXTI15_10_IRQHandler                     0x08000163   Thumb Code     0  startup_stm32f10x_hd.o(.text)
    EXTI1_IRQHandler                         0x08000163   Thumb Code     0  startup_stm32f10x_hd.o(.text)
    EXTI2_IRQHandler                         0x08000163   Thumb Code     0  startup_stm32f10x_hd.o(.text)
    EXTI3_IRQHandler                         0x08000163   Thumb Code     0  startup_stm32f10x_hd.o(.text)
    EXTI4_IRQHandler                         0x08000163   Thumb Code     0  startup_stm32f10x_hd.o(.text)
    EXTI9_5_IRQHandler                       0x08000163   Thumb Code     0  startup_stm32f10x_hd.o(.text)
    FLASH_IRQHandler                         0x08000163   Thumb Code     0  startup_stm32f10x_hd.o(.text)
    FSMC_IRQHandler                          0x08000163   Thumb Code     0  startup_stm32f10x_hd.o(.text)
    I2C1_ER_IRQHandler                       0x08000163   Thumb Code     0  startup_stm32f10x_hd.o(.text)
    I2C1_EV_IRQHandler                       0x08000163   Thumb Code     0  startup_stm32f10x_hd.o(.text)
    I2C2_ER_IRQHandler                       0x08000163   Thumb Code     0  startup_stm32f10x_hd.o(.text)
    I2C2_EV_IRQHandler                       0x08000163   Thumb Code     0  startup_stm32f10x_hd.o(.text)
    PVD_IRQHandler                           0x08000163   Thumb Code     0  startup_stm32f10x_hd.o(.text)
    RCC_IRQHandler                           0x08000163   Thumb Code     0  startup_stm32f10x_hd.o(.text)
    RTCAlarm_IRQHandler                      0x08000163   Thumb Code     0  startup_stm32f10x_hd.o(.text)
    RTC_IRQHandler                           0x08000163   Thumb Code     0  startup_stm32f10x_hd.o(.text)
    SDIO_IRQHandler                          0x08000163   Thumb Code     0  startup_stm32f10x_hd.o(.text)
    SPI1_IRQHandler                          0x08000163   Thumb Code     0  startup_stm32f10x_hd.o(.text)
    SPI2_IRQHandler                          0x08000163   Thumb Code     0  startup_stm32f10x_hd.o(.text)
    SPI3_IRQHandler                          0x08000163   Thumb Code     0  startup_stm32f10x_hd.o(.text)
    TAMPER_IRQHandler                        0x08000163   Thumb Code     0  startup_stm32f10x_hd.o(.text)
    TIM1_BRK_IRQHandler                      0x08000163   Thumb Code     0  startup_stm32f10x_hd.o(.text)
    TIM1_CC_IRQHandler                       0x08000163   Thumb Code     0  startup_stm32f10x_hd.o(.text)
    TIM1_TRG_COM_IRQHandler                  0x08000163   Thumb Code     0  startup_stm32f10x_hd.o(.text)
    TIM1_UP_IRQHandler                       0x08000163   Thumb Code     0  startup_stm32f10x_hd.o(.text)
    TIM2_IRQHandler                          0x08000163   Thumb Code     0  startup_stm32f10x_hd.o(.text)
    TIM3_IRQHandler                          0x08000163   Thumb Code     0  startup_stm32f10x_hd.o(.text)
    TIM4_IRQHandler                          0x08000163   Thumb Code     0  startup_stm32f10x_hd.o(.text)
    TIM5_IRQHandler                          0x08000163   Thumb Code     0  startup_stm32f10x_hd.o(.text)
    TIM6_IRQHandler                          0x08000163   Thumb Code     0  startup_stm32f10x_hd.o(.text)
    TIM7_IRQHandler                          0x08000163   Thumb Code     0  startup_stm32f10x_hd.o(.text)
    TIM8_BRK_IRQHandler                      0x08000163   Thumb Code     0  startup_stm32f10x_hd.o(.text)
    TIM8_CC_IRQHandler                       0x08000163   Thumb Code     0  startup_stm32f10x_hd.o(.text)
    TIM8_TRG_COM_IRQHandler                  0x08000163   Thumb Code     0  startup_stm32f10x_hd.o(.text)
    TIM8_UP_IRQHandler                       0x08000163   Thumb Code     0  startup_stm32f10x_hd.o(.text)
    UART4_IRQHandler                         0x08000163   Thumb Code     0  startup_stm32f10x_hd.o(.text)
    UART5_IRQHandler                         0x08000163   Thumb Code     0  startup_stm32f10x_hd.o(.text)
    USART1_IRQHandler                        0x08000163   Thumb Code     0  startup_stm32f10x_hd.o(.text)
    USART2_IRQHandler                        0x08000163   Thumb Code     0  startup_stm32f10x_hd.o(.text)
    USART3_IRQHandler                        0x08000163   Thumb Code     0  startup_stm32f10x_hd.o(.text)
    USBWakeUp_IRQHandler                     0x08000163   Thumb Code     0  startup_stm32f10x_hd.o(.text)
    USB_HP_CAN1_TX_IRQHandler                0x08000163   Thumb Code     0  startup_stm32f10x_hd.o(.text)
    USB_LP_CAN1_RX0_IRQHandler               0x08000163   Thumb Code     0  startup_stm32f10x_hd.o(.text)
    WWDG_IRQHandler                          0x08000163   Thumb Code     0  startup_stm32f10x_hd.o(.text)
    SystemInit                               0x08000249   Thumb Code    78  system_stm32f10x.o(.text)
    SystemCoreClockUpdate                    0x08000297   Thumb Code   142  system_stm32f10x.o(.text)
    GPIO_DeInit                              0x08000349   Thumb Code   172  stm32f10x_gpio.o(.text)
    GPIO_AFIODeInit                          0x080003f5   Thumb Code    20  stm32f10x_gpio.o(.text)
    GPIO_Init                                0x08000409   Thumb Code   274  stm32f10x_gpio.o(.text)
    GPIO_StructInit                          0x0800051b   Thumb Code    16  stm32f10x_gpio.o(.text)
    GPIO_ReadInputDataBit                    0x0800052b   Thumb Code    18  stm32f10x_gpio.o(.text)
    GPIO_ReadInputData                       0x0800053d   Thumb Code     8  stm32f10x_gpio.o(.text)
    GPIO_ReadOutputDataBit                   0x08000545   Thumb Code    18  stm32f10x_gpio.o(.text)
    GPIO_ReadOutputData                      0x08000557   Thumb Code     8  stm32f10x_gpio.o(.text)
    GPIO_SetBits                             0x0800055f   Thumb Code     4  stm32f10x_gpio.o(.text)
    GPIO_ResetBits                           0x08000563   Thumb Code     4  stm32f10x_gpio.o(.text)
    GPIO_WriteBit                            0x08000567   Thumb Code    10  stm32f10x_gpio.o(.text)
    GPIO_Write                               0x08000571   Thumb Code     4  stm32f10x_gpio.o(.text)
    GPIO_PinLockConfig                       0x08000575   Thumb Code    18  stm32f10x_gpio.o(.text)
    GPIO_EventOutputConfig                   0x08000587   Thumb Code    26  stm32f10x_gpio.o(.text)
    GPIO_EventOutputCmd                      0x080005a1   Thumb Code     6  stm32f10x_gpio.o(.text)
    GPIO_PinRemapConfig                      0x080005a7   Thumb Code   138  stm32f10x_gpio.o(.text)
    GPIO_EXTILineConfig                      0x08000631   Thumb Code    66  stm32f10x_gpio.o(.text)
    GPIO_ETH_MediaInterfaceConfig            0x08000673   Thumb Code     6  stm32f10x_gpio.o(.text)
    RCC_DeInit                               0x080006a1   Thumb Code    64  stm32f10x_rcc.o(.text)
    RCC_HSEConfig                            0x080006e1   Thumb Code    70  stm32f10x_rcc.o(.text)
    RCC_GetFlagStatus                        0x08000727   Thumb Code    56  stm32f10x_rcc.o(.text)
    RCC_WaitForHSEStartUp                    0x0800075f   Thumb Code    56  stm32f10x_rcc.o(.text)
    RCC_AdjustHSICalibrationValue            0x08000797   Thumb Code    20  stm32f10x_rcc.o(.text)
    RCC_HSICmd                               0x080007ab   Thumb Code     6  stm32f10x_rcc.o(.text)
    RCC_PLLConfig                            0x080007b1   Thumb Code    24  stm32f10x_rcc.o(.text)
    RCC_PLLCmd                               0x080007c9   Thumb Code     6  stm32f10x_rcc.o(.text)
    RCC_SYSCLKConfig                         0x080007cf   Thumb Code    18  stm32f10x_rcc.o(.text)
    RCC_GetSYSCLKSource                      0x080007e1   Thumb Code    10  stm32f10x_rcc.o(.text)
    RCC_HCLKConfig                           0x080007eb   Thumb Code    18  stm32f10x_rcc.o(.text)
    RCC_PCLK1Config                          0x080007fd   Thumb Code    18  stm32f10x_rcc.o(.text)
    RCC_PCLK2Config                          0x0800080f   Thumb Code    20  stm32f10x_rcc.o(.text)
    RCC_ITConfig                             0x08000823   Thumb Code    26  stm32f10x_rcc.o(.text)
    RCC_USBCLKConfig                         0x0800083d   Thumb Code     6  stm32f10x_rcc.o(.text)
    RCC_ADCCLKConfig                         0x08000843   Thumb Code    18  stm32f10x_rcc.o(.text)
    RCC_LSEConfig                            0x08000855   Thumb Code    44  stm32f10x_rcc.o(.text)
    RCC_LSICmd                               0x08000881   Thumb Code     6  stm32f10x_rcc.o(.text)
    RCC_RTCCLKConfig                         0x08000887   Thumb Code    12  stm32f10x_rcc.o(.text)
    RCC_RTCCLKCmd                            0x08000893   Thumb Code     8  stm32f10x_rcc.o(.text)
    RCC_GetClocksFreq                        0x0800089b   Thumb Code   192  stm32f10x_rcc.o(.text)
    RCC_AHBPeriphClockCmd                    0x0800095b   Thumb Code    26  stm32f10x_rcc.o(.text)
    RCC_APB2PeriphClockCmd                   0x08000975   Thumb Code    26  stm32f10x_rcc.o(.text)
    RCC_APB1PeriphClockCmd                   0x0800098f   Thumb Code    26  stm32f10x_rcc.o(.text)
    RCC_APB2PeriphResetCmd                   0x080009a9   Thumb Code    26  stm32f10x_rcc.o(.text)
    RCC_APB1PeriphResetCmd                   0x080009c3   Thumb Code    26  stm32f10x_rcc.o(.text)
    RCC_BackupResetCmd                       0x080009dd   Thumb Code     8  stm32f10x_rcc.o(.text)
    RCC_ClockSecuritySystemCmd               0x080009e5   Thumb Code     6  stm32f10x_rcc.o(.text)
    RCC_MCOConfig                            0x080009eb   Thumb Code     6  stm32f10x_rcc.o(.text)
    RCC_ClearFlag                            0x080009f1   Thumb Code    14  stm32f10x_rcc.o(.text)
    RCC_GetITStatus                          0x080009ff   Thumb Code    20  stm32f10x_rcc.o(.text)
    RCC_ClearITPendingBit                    0x08000a13   Thumb Code     6  stm32f10x_rcc.o(.text)
    FSMC_NORSRAMDeInit                       0x08000a45   Thumb Code    56  stm32f10x_fsmc.o(.text)
    FSMC_NANDDeInit                          0x08000a7d   Thumb Code    62  stm32f10x_fsmc.o(.text)
    FSMC_PCCARDDeInit                        0x08000abb   Thumb Code    40  stm32f10x_fsmc.o(.text)
    FSMC_NORSRAMInit                         0x08000ae3   Thumb Code   224  stm32f10x_fsmc.o(.text)
    FSMC_NANDInit                            0x08000bc3   Thumb Code   130  stm32f10x_fsmc.o(.text)
    FSMC_PCCARDInit                          0x08000c45   Thumb Code   124  stm32f10x_fsmc.o(.text)
    FSMC_NORSRAMStructInit                   0x08000cc1   Thumb Code   114  stm32f10x_fsmc.o(.text)
    FSMC_NANDStructInit                      0x08000d33   Thumb Code    54  stm32f10x_fsmc.o(.text)
    FSMC_PCCARDStructInit                    0x08000d69   Thumb Code    60  stm32f10x_fsmc.o(.text)
    FSMC_NORSRAMCmd                          0x08000da5   Thumb Code    46  stm32f10x_fsmc.o(.text)
    FSMC_NANDCmd                             0x08000dd3   Thumb Code    86  stm32f10x_fsmc.o(.text)
    FSMC_PCCARDCmd                           0x08000e29   Thumb Code    40  stm32f10x_fsmc.o(.text)
    FSMC_NANDECCCmd                          0x08000e51   Thumb Code   118  stm32f10x_fsmc.o(.text)
    FSMC_GetECC                              0x08000ec7   Thumb Code    22  stm32f10x_fsmc.o(.text)
    FSMC_ITConfig                            0x08000edd   Thumb Code   128  stm32f10x_fsmc.o(.text)
    FSMC_GetFlagStatus                       0x08000f5d   Thumb Code    48  stm32f10x_fsmc.o(.text)
    FSMC_ClearFlag                           0x08000f8d   Thumb Code    62  stm32f10x_fsmc.o(.text)
    FSMC_GetITStatus                         0x08000fcb   Thumb Code    60  stm32f10x_fsmc.o(.text)
    FSMC_ClearITPendingBit                   0x08001007   Thumb Code    64  stm32f10x_fsmc.o(.text)
    CPU_IntDis                               0x0800105d   Thumb Code     0  cpu_a.o(.text)
    CPU_IntEn                                0x08001061   Thumb Code     0  cpu_a.o(.text)
    CPU_SR_Save                              0x08001065   Thumb Code     0  cpu_a.o(.text)
    CPU_SR_Restore                           0x0800106d   Thumb Code     0  cpu_a.o(.text)
    CPU_WaitForInt                           0x08001073   Thumb Code     0  cpu_a.o(.text)
    CPU_WaitForExcept                        0x08001077   Thumb Code     0  cpu_a.o(.text)
    CPU_CntLeadZeros                         0x0800107b   Thumb Code     0  cpu_a.o(.text)
    CPU_CntTrailZeros                        0x08001081   Thumb Code     0  cpu_a.o(.text)
    CPU_RevBits                              0x0800108b   Thumb Code     0  cpu_a.o(.text)
    __scatterload                            0x08001091   Thumb Code    28  init.o(.text)
    __scatterload_rt2                        0x08001091   Thumb Code     0  init.o(.text)
    __decompress                             0x080010b5   Thumb Code     0  __dczerorl2.o(.text)
    __decompress1                            0x080010b5   Thumb Code    86  __dczerorl2.o(.text)
    OSStartHighRdy                           0x0800110d   Thumb Code     0  os_cpu_a.o(CODE)
    OS_CPU_PendSVHandler                     0x0800112f   Thumb Code     0  os_cpu_a.o(CODE)
    BSP_CPU_ClkFreq                          0x08001369   Thumb Code    16  bsp.o(i.BSP_CPU_ClkFreq)
    BSP_Init                                 0x08001379   Thumb Code    68  bsp.o(i.BSP_Init)
    BusFault_Handler                         0x080013cd   Thumb Code     4  stm32f10x_it.o(i.BusFault_Handler)
    CPU_Init                                 0x080013d1   Thumb Code    16  cpu_core.o(i.CPU_Init)
    CPU_IntDisMeasMaxCurGet                  0x08001481   Thumb Code    40  cpu_core.o(i.CPU_IntDisMeasMaxCurGet)
    CPU_IntDisMeasMaxCurReset                0x080014ad   Thumb Code    40  cpu_core.o(i.CPU_IntDisMeasMaxCurReset)
    CPU_IntDisMeasMaxGet                     0x080014d9   Thumb Code    40  cpu_core.o(i.CPU_IntDisMeasMaxGet)
    CPU_IntDisMeasStart                      0x08001505   Thumb Code    38  cpu_core.o(i.CPU_IntDisMeasStart)
    CPU_IntDisMeasStop                       0x08001539   Thumb Code    62  cpu_core.o(i.CPU_IntDisMeasStop)
    CPU_NameClr                              0x0800158d   Thumb Code    50  cpu_core.o(i.CPU_NameClr)
    CPU_TS_TmrFreqSet                        0x080015e1   Thumb Code     6  cpu_core.o(i.CPU_TS_TmrFreqSet)
    CPU_TS_TmrInit                           0x080015ed   Thumb Code    44  bsp.o(i.CPU_TS_TmrInit)
    CPU_TS_TmrRd                             0x08001621   Thumb Code     6  bsp.o(i.CPU_TS_TmrRd)
    DebugMon_Handler                         0x0800162d   Thumb Code     2  stm32f10x_it.o(i.DebugMon_Handler)
    HardFault_Handler                        0x0800162f   Thumb Code     4  stm32f10x_it.o(i.HardFault_Handler)
    LCD_Clear                                0x08001635   Thumb Code    68  tftlcd.o(i.LCD_Clear)
    LCD_Display_Dir                          0x0800167d   Thumb Code    82  tftlcd.o(i.LCD_Display_Dir)
    LCD_DrawFRONT_COLOR                      0x080016d5   Thumb Code    28  tftlcd.o(i.LCD_DrawFRONT_COLOR)
    LCD_Pow                                  0x080016f1   Thumb Code    22  tftlcd.o(i.LCD_Pow)
    LCD_Set_Window                           0x08001707   Thumb Code   166  tftlcd.o(i.LCD_Set_Window)
    LCD_ShowChar                             0x080017ad   Thumb Code   272  tftlcd.o(i.LCD_ShowChar)
    LCD_ShowFontHZ                           0x080018d5   Thumb Code   220  tftlcd.o(i.LCD_ShowFontHZ)
    LCD_ShowPicture                          0x080019bd   Thumb Code   138  tftlcd.o(i.LCD_ShowPicture)
    LCD_ShowxNum                             0x08001a47   Thumb Code   190  tftlcd.o(i.LCD_ShowxNum)
    LCD_WriteCmd                             0x08001b05   Thumb Code     6  tftlcd.o(i.LCD_WriteCmd)
    LCD_WriteCmdData                         0x08001b11   Thumb Code    20  tftlcd.o(i.LCD_WriteCmdData)
    LCD_WriteData                            0x08001b25   Thumb Code     6  tftlcd.o(i.LCD_WriteData)
    LCD_WriteData_Color                      0x08001b31   Thumb Code    12  tftlcd.o(i.LCD_WriteData_Color)
    LED_Init                                 0x08001b99   Thumb Code    32  bsp_led.o(i.LED_Init)
    MemManage_Handler                        0x08001bbd   Thumb Code     4  stm32f10x_it.o(i.MemManage_Handler)
    Mem_Clr                                  0x08001bc1   Thumb Code    18  lib_mem.o(i.Mem_Clr)
    Mem_Init                                 0x08001bd5   Thumb Code    54  lib_mem.o(i.Mem_Init)
    Mem_Set                                  0x08001c1d   Thumb Code    98  lib_mem.o(i.Mem_Set)
    NMI_Handler                              0x08001c7f   Thumb Code     2  stm32f10x_it.o(i.NMI_Handler)
    OSCfg_Init                               0x08001c81   Thumb Code     2  os_cfg_app.o(i.OSCfg_Init)
    OSIdleTaskHook                           0x08001c85   Thumb Code    16  os_cpu_c.o(i.OSIdleTaskHook)
    OSInit                                   0x08001c99   Thumb Code   300  os_core.o(i.OSInit)
    OSInitHook                               0x08001e25   Thumb Code    42  os_cpu_c.o(i.OSInitHook)
    OSIntExit                                0x08001e5d   Thumb Code   192  os_core.o(i.OSIntExit)
    OSSched                                  0x08001f41   Thumb Code   134  os_core.o(i.OSSched)
    OSSchedLock                              0x08001fe9   Thumb Code   112  os_core.o(i.OSSchedLock)
    OSSchedUnlock                            0x08002065   Thumb Code   148  os_core.o(i.OSSchedUnlock)
    OSStart                                  0x08002105   Thumb Code    78  os_core.o(i.OSStart)
    OSStatReset                              0x0800216d   Thumb Code   316  os_stat.o(i.OSStatReset)
    OSStatTaskCPUUsageInit                   0x080022d5   Thumb Code   228  os_stat.o(i.OSStatTaskCPUUsageInit)
    OSStatTaskHook                           0x080023d5   Thumb Code    16  os_cpu_c.o(i.OSStatTaskHook)
    OSTaskCreate                             0x080023e9   Thumb Code   624  os_task.o(i.OSTaskCreate)
    OSTaskCreateHook                         0x0800267d   Thumb Code    20  os_cpu_c.o(i.OSTaskCreateHook)
    OSTaskDel                                0x08002695   Thumb Code   490  os_task.o(i.OSTaskDel)
    OSTaskDelHook                            0x0800289d   Thumb Code    20  os_cpu_c.o(i.OSTaskDelHook)
    OSTaskResume                             0x080028b5   Thumb Code   124  os_task.o(i.OSTaskResume)
    OSTaskReturnHook                         0x0800293d   Thumb Code    20  os_cpu_c.o(i.OSTaskReturnHook)
    OSTaskSemPend                            0x08002955   Thumb Code   578  os_task.o(i.OSTaskSemPend)
    OSTaskStkChk                             0x08002ba5   Thumb Code   220  os_task.o(i.OSTaskStkChk)
    OSTaskStkInit                            0x08002c89   Thumb Code   188  os_cpu_c.o(i.OSTaskStkInit)
    OSTaskSuspend                            0x08002d49   Thumb Code    78  os_task.o(i.OSTaskSuspend)
    OSTaskSwHook                             0x08002da9   Thumb Code   146  os_cpu_c.o(i.OSTaskSwHook)
    OSTimeDly                                0x08002e4d   Thumb Code   322  os_time.o(i.OSTimeDly)
    OSTimeTick                               0x08002f9d   Thumb Code    54  os_time.o(i.OSTimeTick)
    OSTimeTickHook                           0x08002fe1   Thumb Code    16  os_cpu_c.o(i.OSTimeTickHook)
    OS_CPU_SysTickHandler                    0x08002ff5   Thumb Code    60  os_cpu_c.o(i.OS_CPU_SysTickHandler)
    OS_CPU_SysTickInit                       0x08003035   Thumb Code    44  os_cpu_c.o(i.OS_CPU_SysTickInit)
    OS_Dbg_Init                              0x08003065   Thumb Code   150  os_dbg.o(i.OS_Dbg_Init)
    OS_FlagInit                              0x08003219   Thumb Code    14  os_flag.o(i.OS_FlagInit)
    OS_FlagPost                              0x08003231   Thumb Code   626  os_flag.o(i.OS_FlagPost)
    OS_FlagTaskRdy                           0x080034ad   Thumb Code    86  os_flag.o(i.OS_FlagTaskRdy)
    OS_IdleTask                              0x08003505   Thumb Code    68  os_core.o(i.OS_IdleTask)
    OS_IdleTaskInit                          0x08003551   Thumb Code    66  os_core.o(i.OS_IdleTaskInit)
    OS_IntQPost                              0x080035c1   Thumb Code   224  os_int.o(i.OS_IntQPost)
    OS_IntQRePost                            0x080036c5   Thumb Code   360  os_int.o(i.OS_IntQRePost)
    OS_IntQTask                              0x08003869   Thumb Code   182  os_int.o(i.OS_IntQTask)
    OS_IntQTaskInit                          0x08003931   Thumb Code   206  os_int.o(i.OS_IntQTaskInit)
    OS_MemInit                               0x08003a59   Thumb Code    14  os_mem.o(i.OS_MemInit)
    OS_MsgPoolInit                           0x08003a71   Thumb Code   110  os_msg.o(i.OS_MsgPoolInit)
    OS_MsgQFreeAll                           0x08003aed   Thumb Code    62  os_msg.o(i.OS_MsgQFreeAll)
    OS_MsgQInit                              0x08003b31   Thumb Code    14  os_msg.o(i.OS_MsgQInit)
    OS_MsgQPut                               0x08003b41   Thumb Code   254  os_msg.o(i.OS_MsgQPut)
    OS_MutexInit                             0x08003c45   Thumb Code    14  os_mutex.o(i.OS_MutexInit)
    OS_Pend                                  0x08003c5d   Thumb Code    98  os_core.o(i.OS_Pend)
    OS_PendDataInit                          0x08003cc5   Thumb Code    38  os_core.o(i.OS_PendDataInit)
    OS_PendDbgNameAdd                        0x08003ced   Thumb Code    66  os_core.o(i.OS_PendDbgNameAdd)
    OS_PendDbgNameRemove                     0x08003d49   Thumb Code    30  os_core.o(i.OS_PendDbgNameRemove)
    OS_PendListInsertPrio                    0x08003d6d   Thumb Code   102  os_core.o(i.OS_PendListInsertPrio)
    OS_PendListRemove                        0x08003dd3   Thumb Code    48  os_core.o(i.OS_PendListRemove)
    OS_PendListRemove1                       0x08003e03   Thumb Code    66  os_core.o(i.OS_PendListRemove1)
    OS_Post                                  0x08003e45   Thumb Code   192  os_core.o(i.OS_Post)
    OS_Post1                                 0x08003f05   Thumb Code    42  os_core.o(i.OS_Post1)
    OS_PrioGetHighest                        0x08003f31   Thumb Code    36  os_prio.o(i.OS_PrioGetHighest)
    OS_PrioInit                              0x08003f59   Thumb Code    20  os_prio.o(i.OS_PrioInit)
    OS_PrioInsert                            0x08003f71   Thumb Code    32  os_prio.o(i.OS_PrioInsert)
    OS_PrioRemove                            0x08003f95   Thumb Code    32  os_prio.o(i.OS_PrioRemove)
    OS_QInit                                 0x08003fb9   Thumb Code    14  os_q.o(i.OS_QInit)
    OS_QPost                                 0x08003fd1   Thumb Code   382  os_q.o(i.OS_QPost)
    OS_RdyListInit                           0x08004159   Thumb Code    32  os_core.o(i.OS_RdyListInit)
    OS_RdyListInsert                         0x0800417d   Thumb Code    40  os_core.o(i.OS_RdyListInsert)
    OS_RdyListInsertHead                     0x080041a9   Thumb Code    58  os_core.o(i.OS_RdyListInsertHead)
    OS_RdyListInsertTail                     0x080041e9   Thumb Code    56  os_core.o(i.OS_RdyListInsertTail)
    OS_RdyListMoveHeadToTail                 0x08004225   Thumb Code    68  os_core.o(i.OS_RdyListMoveHeadToTail)
    OS_RdyListRemove                         0x08004269   Thumb Code    86  os_core.o(i.OS_RdyListRemove)
    OS_Sched0                                0x080042c5   Thumb Code    72  os_core.o(i.OS_Sched0)
    OS_SchedLockTimeMeasStart                0x08004321   Thumb Code    20  os_core.o(i.OS_SchedLockTimeMeasStart)
    OS_SchedLockTimeMeasStop                 0x0800433d   Thumb Code    44  os_core.o(i.OS_SchedLockTimeMeasStop)
    OS_SchedRoundRobin                       0x08004379   Thumb Code   218  os_core.o(i.OS_SchedRoundRobin)
    OS_SemInit                               0x08004465   Thumb Code    14  os_sem.o(i.OS_SemInit)
    OS_SemPost                               0x0800447d   Thumb Code   404  os_sem.o(i.OS_SemPost)
    OS_StatTask                              0x08004615   Thumb Code   878  os_stat.o(i.OS_StatTask)
    OS_StatTaskInit                          0x080049cd   Thumb Code   136  os_stat.o(i.OS_StatTaskInit)
    OS_TaskBlock                             0x08004a99   Thumb Code    56  os_core.o(i.OS_TaskBlock)
    OS_TaskDbgListAdd                        0x08004ad1   Thumb Code    42  os_task.o(i.OS_TaskDbgListAdd)
    OS_TaskDbgListRemove                     0x08004b01   Thumb Code    64  os_task.o(i.OS_TaskDbgListRemove)
    OS_TaskInit                              0x08004b45   Thumb Code    18  os_task.o(i.OS_TaskInit)
    OS_TaskInitTCB                           0x08004b65   Thumb Code   194  os_task.o(i.OS_TaskInitTCB)
    OS_TaskQPost                             0x08004c35   Thumb Code   606  os_task.o(i.OS_TaskQPost)
    OS_TaskRdy                               0x08004ea1   Thumb Code    28  os_core.o(i.OS_TaskRdy)
    OS_TaskResume                            0x08004ebd   Thumb Code   374  os_task.o(i.OS_TaskResume)
    OS_TaskReturn                            0x08005039   Thumb Code    20  os_task.o(i.OS_TaskReturn)
    OS_TaskSemPost                           0x08005051   Thumb Code  1438  os_task.o(i.OS_TaskSemPost)
    OS_TaskSuspend                           0x080055f9   Thumb Code   392  os_task.o(i.OS_TaskSuspend)
    OS_TickListInit                          0x08005789   Thumb Code    32  os_tick.o(i.OS_TickListInit)
    OS_TickListInsert                        0x080057b1   Thumb Code   430  os_tick.o(i.OS_TickListInsert)
    OS_TickListRemove                        0x0800596d   Thumb Code    56  os_tick.o(i.OS_TickListRemove)
    OS_TickListResetPeak                     0x080059a5   Thumb Code    28  os_tick.o(i.OS_TickListResetPeak)
    OS_TickListUpdate                        0x080059c9   Thumb Code   520  os_tick.o(i.OS_TickListUpdate)
    OS_TickTask                              0x08005be9   Thumb Code    38  os_tick.o(i.OS_TickTask)
    OS_TickTaskInit                          0x08005c15   Thumb Code   128  os_tick.o(i.OS_TickTaskInit)
    OS_TmrInit                               0x08005ccd   Thumb Code   206  os_tmr.o(i.OS_TmrInit)
    OS_TmrLink                               0x08005df5   Thumb Code   196  os_tmr.o(i.OS_TmrLink)
    OS_TmrResetPeak                          0x08005ec5   Thumb Code    28  os_tmr.o(i.OS_TmrResetPeak)
    OS_TmrTask                               0x08005ee9   Thumb Code   176  os_tmr.o(i.OS_TmrTask)
    OS_TmrUnlink                             0x08005fa9   Thumb Code    72  os_tmr.o(i.OS_TmrUnlink)
    SVC_Handler                              0x08005ff9   Thumb Code     2  stm32f10x_it.o(i.SVC_Handler)
    TFTLCD_FSMC_Init                         0x08005ffb   Thumb Code   126  tftlcd.o(i.TFTLCD_FSMC_Init)
    TFTLCD_GPIO_Init                         0x08006079   Thumb Code   130  tftlcd.o(i.TFTLCD_GPIO_Init)
    TFTLCD_Init                              0x08006111   Thumb Code   492  tftlcd.o(i.TFTLCD_Init)
    UsageFault_Handler                       0x08006305   Thumb Code     4  stm32f10x_it.o(i.UsageFault_Handler)
    __scatterload_copy                       0x08006309   Thumb Code    14  handlers.o(i.__scatterload_copy)
    __scatterload_null                       0x08006317   Thumb Code     2  handlers.o(i.__scatterload_null)
    __scatterload_zeroinit                   0x08006319   Thumb Code    14  handlers.o(i.__scatterload_zeroinit)
    delay_ms                                 0x08006327   Thumb Code    28  tftlcd.o(i.delay_ms)
    main                                     0x08006345   Thumb Code    68  main.o(i.main)
    gImage_picture                           0x080063a4   Data       44800  bsp.o(.constdata)
    gImage_pic1                              0x080112a4   Data       115208  bsp.o(.constdata)
    gImage_pic2                              0x0802d4ac   Data       51208  bsp.o(.constdata)
    gImage_pic3                              0x08039cb4   Data       20008  bsp.o(.constdata)
    ascii_1206                               0x0803eadc   Data        1140  tftlcd.o(.constdata)
    ascii_1608                               0x0803ef50   Data        1520  tftlcd.o(.constdata)
    ascii_2412                               0x0803f540   Data        3420  tftlcd.o(.constdata)
    ascii_3216                               0x0804029c   Data       12160  tftlcd.o(.constdata)
    CnChar32x29                              0x0804321c   Data         708  tftlcd.o(.constdata)
    OSCfg_IdleTaskStkBasePtr                 0x080434e0   Data           4  os_cfg_app.o(.constdata)
    OSCfg_IdleTaskStkLimit                   0x080434e4   Data           4  os_cfg_app.o(.constdata)
    OSCfg_IdleTaskStkSize                    0x080434e8   Data           4  os_cfg_app.o(.constdata)
    OSCfg_IdleTaskStkSizeRAM                 0x080434ec   Data           4  os_cfg_app.o(.constdata)
    OSCfg_IntQBasePtr                        0x080434f0   Data           4  os_cfg_app.o(.constdata)
    OSCfg_IntQSize                           0x080434f4   Data           2  os_cfg_app.o(.constdata)
    OSCfg_IntQSizeRAM                        0x080434f8   Data           4  os_cfg_app.o(.constdata)
    OSCfg_IntQTaskStkBasePtr                 0x080434fc   Data           4  os_cfg_app.o(.constdata)
    OSCfg_IntQTaskStkLimit                   0x08043500   Data           4  os_cfg_app.o(.constdata)
    OSCfg_IntQTaskStkSize                    0x08043504   Data           4  os_cfg_app.o(.constdata)
    OSCfg_IntQTaskStkSizeRAM                 0x08043508   Data           4  os_cfg_app.o(.constdata)
    OSCfg_ISRStkBasePtr                      0x0804350c   Data           4  os_cfg_app.o(.constdata)
    OSCfg_ISRStkSize                         0x08043510   Data           4  os_cfg_app.o(.constdata)
    OSCfg_ISRStkSizeRAM                      0x08043514   Data           4  os_cfg_app.o(.constdata)
    OSCfg_MsgPoolSize                        0x08043518   Data           2  os_cfg_app.o(.constdata)
    OSCfg_MsgPoolSizeRAM                     0x0804351c   Data           4  os_cfg_app.o(.constdata)
    OSCfg_MsgPoolBasePtr                     0x08043520   Data           4  os_cfg_app.o(.constdata)
    OSCfg_StatTaskPrio                       0x08043524   Data           1  os_cfg_app.o(.constdata)
    OSCfg_StatTaskRate_Hz                    0x08043528   Data           4  os_cfg_app.o(.constdata)
    OSCfg_StatTaskStkBasePtr                 0x0804352c   Data           4  os_cfg_app.o(.constdata)
    OSCfg_StatTaskStkLimit                   0x08043530   Data           4  os_cfg_app.o(.constdata)
    OSCfg_StatTaskStkSize                    0x08043534   Data           4  os_cfg_app.o(.constdata)
    OSCfg_StatTaskStkSizeRAM                 0x08043538   Data           4  os_cfg_app.o(.constdata)
    OSCfg_StkSizeMin                         0x0804353c   Data           4  os_cfg_app.o(.constdata)
    OSCfg_TickRate_Hz                        0x08043540   Data           4  os_cfg_app.o(.constdata)
    OSCfg_TickTaskPrio                       0x08043544   Data           1  os_cfg_app.o(.constdata)
    OSCfg_TickTaskStkBasePtr                 0x08043548   Data           4  os_cfg_app.o(.constdata)
    OSCfg_TickTaskStkLimit                   0x0804354c   Data           4  os_cfg_app.o(.constdata)
    OSCfg_TickTaskStkSize                    0x08043550   Data           4  os_cfg_app.o(.constdata)
    OSCfg_TickTaskStkSizeRAM                 0x08043554   Data           4  os_cfg_app.o(.constdata)
    OSCfg_TickWheelSize                      0x08043558   Data           2  os_cfg_app.o(.constdata)
    OSCfg_TickWheelSizeRAM                   0x0804355c   Data           4  os_cfg_app.o(.constdata)
    OSCfg_TmrTaskPrio                        0x08043560   Data           1  os_cfg_app.o(.constdata)
    OSCfg_TmrTaskRate_Hz                     0x08043564   Data           4  os_cfg_app.o(.constdata)
    OSCfg_TmrTaskStkBasePtr                  0x08043568   Data           4  os_cfg_app.o(.constdata)
    OSCfg_TmrTaskStkLimit                    0x0804356c   Data           4  os_cfg_app.o(.constdata)
    OSCfg_TmrTaskStkSize                     0x08043570   Data           4  os_cfg_app.o(.constdata)
    OSCfg_TmrTaskStkSizeRAM                  0x08043574   Data           4  os_cfg_app.o(.constdata)
    OSCfg_TmrWheelSize                       0x08043578   Data           2  os_cfg_app.o(.constdata)
    OSCfg_TmrWheelSizeRAM                    0x0804357c   Data           4  os_cfg_app.o(.constdata)
    OSCfg_DataSizeRAM                        0x08043580   Data           4  os_cfg_app.o(.constdata)
    OSDbg_DbgEn                              0x08043584   Data           1  os_dbg.o(.constdata)
    OSDbg_ArgChkEn                           0x08043585   Data           1  os_dbg.o(.constdata)
    OSDbg_AppHooksEn                         0x08043586   Data           1  os_dbg.o(.constdata)
    OSDbg_EndiannessTest                     0x08043588   Data           4  os_dbg.o(.constdata)
    OSDbg_CalledFromISRChkEn                 0x0804358c   Data           1  os_dbg.o(.constdata)
    OSDbg_FlagEn                             0x0804358d   Data           1  os_dbg.o(.constdata)
    OSDbg_FlagGrp                            0x08043590   Data          40  os_dbg.o(.constdata)
    OSDbg_FlagDelEn                          0x080435b8   Data           1  os_dbg.o(.constdata)
    OSDbg_FlagModeClrEn                      0x080435b9   Data           1  os_dbg.o(.constdata)
    OSDbg_FlagPendAbortEn                    0x080435ba   Data           1  os_dbg.o(.constdata)
    OSDbg_FlagGrpSize                        0x080435bc   Data           2  os_dbg.o(.constdata)
    OSDbg_FlagWidth                          0x080435be   Data           2  os_dbg.o(.constdata)
    OSDbg_IntQ                               0x080435c0   Data           2  os_dbg.o(.constdata)
    OSDbg_ISRPostDeferredEn                  0x080435c2   Data           1  os_dbg.o(.constdata)
    OSDbg_Mem                                0x080435c4   Data          32  os_dbg.o(.constdata)
    OSDbg_MemEn                              0x080435e4   Data           1  os_dbg.o(.constdata)
    OSDbg_MemSize                            0x080435e6   Data           2  os_dbg.o(.constdata)
    OSDbg_MsgEn                              0x080435e8   Data           1  os_dbg.o(.constdata)
    OSDbg_MsgSize                            0x080435ea   Data           2  os_dbg.o(.constdata)
    OSDbg_MsgPoolSize                        0x080435ec   Data           2  os_dbg.o(.constdata)
    OSDbg_MsgQSize                           0x080435ee   Data           2  os_dbg.o(.constdata)
    OSDbg_Mutex                              0x080435f0   Data          44  os_dbg.o(.constdata)
    OSDbg_MutexEn                            0x0804361c   Data           1  os_dbg.o(.constdata)
    OSDbg_MutexDelEn                         0x0804361d   Data           1  os_dbg.o(.constdata)
    OSDbg_MutexPendAbortEn                   0x0804361e   Data           1  os_dbg.o(.constdata)
    OSDbg_MutexSize                          0x08043620   Data           2  os_dbg.o(.constdata)
    OSDbg_ObjTypeChkEn                       0x08043622   Data           1  os_dbg.o(.constdata)
    OSDbg_PendMultiEn                        0x08043623   Data           1  os_dbg.o(.constdata)
    OSDbg_PendDataSize                       0x08043624   Data           2  os_dbg.o(.constdata)
    OSDbg_PendListSize                       0x08043626   Data           2  os_dbg.o(.constdata)
    OSDbg_PendObjSize                        0x08043628   Data           2  os_dbg.o(.constdata)
    OSDbg_PrioMax                            0x0804362a   Data           2  os_dbg.o(.constdata)
    OSDbg_PrioTblSize                        0x0804362c   Data           2  os_dbg.o(.constdata)
    OSDbg_PtrSize                            0x0804362e   Data           2  os_dbg.o(.constdata)
    OSDbg_Q                                  0x08043630   Data          48  os_dbg.o(.constdata)
    OSDbg_QEn                                0x08043660   Data           1  os_dbg.o(.constdata)
    OSDbg_QDelEn                             0x08043661   Data           1  os_dbg.o(.constdata)
    OSDbg_QFlushEn                           0x08043662   Data           1  os_dbg.o(.constdata)
    OSDbg_QPendAbortEn                       0x08043663   Data           1  os_dbg.o(.constdata)
    OSDbg_QSize                              0x08043664   Data           2  os_dbg.o(.constdata)
    OSDbg_SchedRoundRobinEn                  0x08043666   Data           1  os_dbg.o(.constdata)
    OSDbg_Sem                                0x08043668   Data          40  os_dbg.o(.constdata)
    OSDbg_SemEn                              0x08043690   Data           1  os_dbg.o(.constdata)
    OSDbg_SemDelEn                           0x08043691   Data           1  os_dbg.o(.constdata)
    OSDbg_SemPendAbortEn                     0x08043692   Data           1  os_dbg.o(.constdata)
    OSDbg_SemSetEn                           0x08043693   Data           1  os_dbg.o(.constdata)
    OSDbg_SemSize                            0x08043694   Data           2  os_dbg.o(.constdata)
    OSDbg_RdyList                            0x08043696   Data           2  os_dbg.o(.constdata)
    OSDbg_RdyListSize                        0x08043698   Data           4  os_dbg.o(.constdata)
    OSDbg_StkWidth                           0x0804369c   Data           1  os_dbg.o(.constdata)
    OSDbg_StatTaskEn                         0x0804369d   Data           1  os_dbg.o(.constdata)
    OSDbg_StatTaskStkChkEn                   0x0804369e   Data           1  os_dbg.o(.constdata)
    OSDbg_TaskChangePrioEn                   0x0804369f   Data           1  os_dbg.o(.constdata)
    OSDbg_TaskDelEn                          0x080436a0   Data           1  os_dbg.o(.constdata)
    OSDbg_TaskQEn                            0x080436a1   Data           1  os_dbg.o(.constdata)
    OSDbg_TaskQPendAbortEn                   0x080436a2   Data           1  os_dbg.o(.constdata)
    OSDbg_TaskProfileEn                      0x080436a3   Data           1  os_dbg.o(.constdata)
    OSDbg_TaskRegTblSize                     0x080436a4   Data           2  os_dbg.o(.constdata)
    OSDbg_TaskSemPendAbortEn                 0x080436a6   Data           1  os_dbg.o(.constdata)
    OSDbg_TaskSuspendEn                      0x080436a7   Data           1  os_dbg.o(.constdata)
    OSDbg_TCBSize                            0x080436a8   Data           2  os_dbg.o(.constdata)
    OSDbg_TickSpokeSize                      0x080436aa   Data           2  os_dbg.o(.constdata)
    OSDbg_TimeDlyHMSMEn                      0x080436ac   Data           1  os_dbg.o(.constdata)
    OSDbg_TimeDlyResumeEn                    0x080436ad   Data           1  os_dbg.o(.constdata)
    OSDbg_TLS_TblSize                        0x080436ae   Data           2  os_dbg.o(.constdata)
    OSDbg_Tmr                                0x080436b0   Data          52  os_dbg.o(.constdata)
    OSDbg_TmrEn                              0x080436e4   Data           1  os_dbg.o(.constdata)
    OSDbg_TmrDelEn                           0x080436e5   Data           1  os_dbg.o(.constdata)
    OSDbg_TmrSize                            0x080436e6   Data           2  os_dbg.o(.constdata)
    OSDbg_TmrSpokeSize                       0x080436e8   Data           2  os_dbg.o(.constdata)
    OSDbg_VersionNbr                         0x080436ea   Data           2  os_dbg.o(.constdata)
    OSDbg_DataSize                           0x080436ec   Data           4  os_dbg.o(.constdata)
    Region$$Table$$Base                      0x080436f0   Number         0  anon$$obj.o(Region$$Table)
    Region$$Table$$Limit                     0x08043710   Number         0  anon$$obj.o(Region$$Table)
    i                                        0x20000000   Data           1  main.o(.data)
    FRONT_COLOR                              0x20000002   Data           2  tftlcd.o(.data)
    BACK_COLOR                               0x20000004   Data           2  tftlcd.o(.data)
    tftlcd_data                              0x20000006   Data           8  tftlcd.o(.data)
    SystemCoreClock                          0x20000010   Data           4  system_stm32f10x.o(.data)
    AHBPrescTable                            0x20000014   Data          16  system_stm32f10x.o(.data)
    CPU_TS_TmrFreq_Hz                        0x20000038   Data           4  cpu_core.o(.data)
    CPU_IntDisMeasCtr                        0x2000003c   Data           2  cpu_core.o(.data)
    CPU_IntDisNestCtr                        0x2000003e   Data           2  cpu_core.o(.data)
    CPU_IntDisMeasStart_cnts                 0x20000040   Data           4  cpu_core.o(.data)
    CPU_IntDisMeasStop_cnts                  0x20000044   Data           4  cpu_core.o(.data)
    CPU_IntDisMeasOvrhd_cnts                 0x20000048   Data           4  cpu_core.o(.data)
    CPU_IntDisMeasMaxCur_cnts                0x2000004c   Data           4  cpu_core.o(.data)
    CPU_IntDisMeasMax_cnts                   0x20000050   Data           4  cpu_core.o(.data)
    Mem_PoolTbl                              0x20000054   Data           4  lib_mem.o(.data)
    OS_AppTaskCreateHookPtr                  0x20000058   Data           4  os_var.o(.data)
    OS_AppTaskDelHookPtr                     0x2000005c   Data           4  os_var.o(.data)
    OS_AppTaskReturnHookPtr                  0x20000060   Data           4  os_var.o(.data)
    OS_AppIdleTaskHookPtr                    0x20000064   Data           4  os_var.o(.data)
    OS_AppStatTaskHookPtr                    0x20000068   Data           4  os_var.o(.data)
    OS_AppTaskSwHookPtr                      0x2000006c   Data           4  os_var.o(.data)
    OS_AppTimeTickHookPtr                    0x20000070   Data           4  os_var.o(.data)
    OSIdleTaskCtr                            0x20000074   Data           4  os_var.o(.data)
    OSIntNestingCtr                          0x20000078   Data           1  os_var.o(.data)
    OSIntDisTimeMax                          0x2000007c   Data           4  os_var.o(.data)
    OSRunning                                0x20000080   Data           1  os_var.o(.data)
    OSIntQInPtr                              0x20000084   Data           4  os_var.o(.data)
    OSIntQOutPtr                             0x20000088   Data           4  os_var.o(.data)
    OSIntQNbrEntries                         0x2000008c   Data           2  os_var.o(.data)
    OSIntQNbrEntriesMax                      0x2000008e   Data           2  os_var.o(.data)
    OSIntQOvfCtr                             0x20000090   Data           2  os_var.o(.data)
    OSIntQTaskTimeMax                        0x20000094   Data           4  os_var.o(.data)
    OSFlagDbgListPtr                         0x20000098   Data           4  os_var.o(.data)
    OSFlagQty                                0x2000009c   Data           2  os_var.o(.data)
    OSMemDbgListPtr                          0x200000a0   Data           4  os_var.o(.data)
    OSMemQty                                 0x200000a4   Data           2  os_var.o(.data)
    OSMutexDbgListPtr                        0x200000a8   Data           4  os_var.o(.data)
    OSMutexQty                               0x200000ac   Data           2  os_var.o(.data)
    OSPrioCur                                0x200000ae   Data           1  os_var.o(.data)
    OSPrioHighRdy                            0x200000af   Data           1  os_var.o(.data)
    OSPrioSaved                              0x200000b0   Data           1  os_var.o(.data)
    OSQDbgListPtr                            0x200000b4   Data           4  os_var.o(.data)
    OSQQty                                   0x200000b8   Data           2  os_var.o(.data)
    OSSchedLockTimeBegin                     0x200000bc   Data           4  os_var.o(.data)
    OSSchedLockTimeMax                       0x200000c0   Data           4  os_var.o(.data)
    OSSchedLockTimeMaxCur                    0x200000c4   Data           4  os_var.o(.data)
    OSSchedLockNestingCtr                    0x200000c8   Data           1  os_var.o(.data)
    OSSchedRoundRobinDfltTimeQuanta          0x200000cc   Data           4  os_var.o(.data)
    OSSchedRoundRobinEn                      0x200000d0   Data           1  os_var.o(.data)
    OSSemDbgListPtr                          0x200000d4   Data           4  os_var.o(.data)
    OSSemQty                                 0x200000d8   Data           2  os_var.o(.data)
    OSStatResetFlag                          0x200000da   Data           1  os_var.o(.data)
    OSStatTaskCPUUsage                       0x200000dc   Data           2  os_var.o(.data)
    OSStatTaskCPUUsageMax                    0x200000de   Data           2  os_var.o(.data)
    OSStatTaskCtr                            0x200000e0   Data           4  os_var.o(.data)
    OSStatTaskCtrMax                         0x200000e4   Data           4  os_var.o(.data)
    OSStatTaskCtrRun                         0x200000e8   Data           4  os_var.o(.data)
    OSStatTaskRdy                            0x200000ec   Data           1  os_var.o(.data)
    OSStatTaskTimeMax                        0x200000f0   Data           4  os_var.o(.data)
    OSTaskCtxSwCtr                           0x200000f4   Data           4  os_var.o(.data)
    OSTaskDbgListPtr                         0x200000f8   Data           4  os_var.o(.data)
    OSTaskQty                                0x200000fc   Data           2  os_var.o(.data)
    OSTaskRegNextAvailID                     0x200000fe   Data           1  os_var.o(.data)
    OSTickCtr                                0x20000100   Data           4  os_var.o(.data)
    OSTickTaskTimeMax                        0x20000104   Data           4  os_var.o(.data)
    OSTmrDbgListPtr                          0x20000108   Data           4  os_var.o(.data)
    OSTmrQty                                 0x2000010c   Data           2  os_var.o(.data)
    OSTmrTaskTimeMax                         0x20000110   Data           4  os_var.o(.data)
    OSTmrTickCtr                             0x20000114   Data           4  os_var.o(.data)
    OSTmrUpdateCnt                           0x20000118   Data           4  os_var.o(.data)
    OSTmrUpdateCtr                           0x2000011c   Data           4  os_var.o(.data)
    OSTCBCurPtr                              0x20000120   Data           4  os_var.o(.data)
    OSTCBHighRdyPtr                          0x20000124   Data           4  os_var.o(.data)
    OS_CPU_ExceptStkBase                     0x20000128   Data           4  os_cpu_c.o(.data)
    OSPrioTbl                                0x2000012c   Data           4  os_prio.o(.data)
    CPU_Name                                 0x20001e50   Data          16  cpu_core.o(.bss)
    Mem_PoolHeap                             0x20001e60   Data          72  lib_mem.o(.bss)
    Mem_Heap                                 0x20001ea8   Data       27648  lib_mem.o(.bss)
    OSCfg_IdleTaskStk                        0x20008aa8   Data         512  os_cfg_app.o(.bss)
    OSCfg_IntQ                               0x20008ca8   Data         320  os_cfg_app.o(.bss)
    OSCfg_IntQTaskStk                        0x20008de8   Data         512  os_cfg_app.o(.bss)
    OSCfg_ISRStk                             0x20008fe8   Data         512  os_cfg_app.o(.bss)
    OSCfg_MsgPool                            0x200091e8   Data        1600  os_cfg_app.o(.bss)
    OSCfg_StatTaskStk                        0x20009828   Data         512  os_cfg_app.o(.bss)
    OSCfg_TickTaskStk                        0x20009a28   Data         512  os_cfg_app.o(.bss)
    OSCfg_TickWheel                          0x20009c28   Data         136  os_cfg_app.o(.bss)
    OSCfg_TmrTaskStk                         0x20009cb0   Data         512  os_cfg_app.o(.bss)
    OSCfg_TmrWheel                           0x20009eb0   Data         136  os_cfg_app.o(.bss)
    OSIdleTaskTCB                            0x20009f38   Data         200  os_var.o(.bss)
    OSIntQTaskTCB                            0x2000a000   Data         200  os_var.o(.bss)
    OSMsgPool                                0x2000a0c8   Data          12  os_var.o(.bss)
    OSRdyList                                0x2000a0d4   Data         384  os_var.o(.bss)
    OSStatTaskTCB                            0x2000a254   Data         200  os_var.o(.bss)
    OSTickTaskTCB                            0x2000a31c   Data         200  os_var.o(.bss)
    OSTmrTaskTCB                             0x2000a3e4   Data         200  os_var.o(.bss)
    __initial_sp                             0x2000a8b0   Data           0  startup_stm32f10x_hd.o(STACK)



==============================================================================

Memory Map of the image

  Image Entry point : 0x08000131

  Load Region LR_IROM1 (Base: 0x08000000, Size: 0x00043840, Max: 0x00080000, ABSOLUTE, COMPRESSED[0x0004372c])

    Execution Region ER_IROM1 (Exec base: 0x08000000, Load base: 0x08000000, Size: 0x00043710, Max: 0x00080000, ABSOLUTE)

    Exec Addr    Load Addr    Size         Type   Attr      Idx    E Section Name        Object

    0x08000000   0x08000000   0x00000130   Data   RO            3    RESET               startup_stm32f10x_hd.o
    0x08000130   0x08000130   0x00000000   Code   RO         2631  * .ARM.Collect$$$$00000000  mc_w.l(entry.o)
    0x08000130   0x08000130   0x00000004   Code   RO         2640    .ARM.Collect$$$$00000001  mc_w.l(entry2.o)
    0x08000134   0x08000134   0x00000004   Code   RO         2643    .ARM.Collect$$$$00000004  mc_w.l(entry5.o)
    0x08000138   0x08000138   0x00000000   Code   RO         2645    .ARM.Collect$$$$00000008  mc_w.l(entry7b.o)
    0x08000138   0x08000138   0x00000000   Code   RO         2647    .ARM.Collect$$$$0000000A  mc_w.l(entry8b.o)
    0x08000138   0x08000138   0x00000008   Code   RO         2648    .ARM.Collect$$$$0000000B  mc_w.l(entry9a.o)
    0x08000140   0x08000140   0x00000004   Code   RO         2655    .ARM.Collect$$$$0000000E  mc_w.l(entry12b.o)
    0x08000144   0x08000144   0x00000000   Code   RO         2650    .ARM.Collect$$$$0000000F  mc_w.l(entry10a.o)
    0x08000144   0x08000144   0x00000000   Code   RO         2652    .ARM.Collect$$$$00000011  mc_w.l(entry11a.o)
    0x08000144   0x08000144   0x00000004   Code   RO         2641    .ARM.Collect$$$$00002712  mc_w.l(entry2.o)
    0x08000148   0x08000148   0x00000024   Code   RO            4    .text               startup_stm32f10x_hd.o
    0x0800016c   0x0800016c   0x000001dc   Code   RO          678    .text               stm32f10x_hd.lib(system_stm32f10x.o)
    0x08000348   0x08000348   0x00000358   Code   RO          778    .text               stm32f10x_hd.lib(stm32f10x_gpio.o)
    0x080006a0   0x080006a0   0x000003a4   Code   RO          813    .text               stm32f10x_hd.lib(stm32f10x_rcc.o)
    0x08000a44   0x08000a44   0x00000618   Code   RO          827    .text               stm32f10x_hd.lib(stm32f10x_fsmc.o)
    0x0800105c   0x0800105c   0x00000034   Code   RO         1041    .text               UCOSIII.lib(cpu_a.o)
    0x08001090   0x08001090   0x00000024   Code   RO         2661    .text               mc_w.l(init.o)
    0x080010b4   0x080010b4   0x00000056   Code   RO         2673    .text               mc_w.l(__dczerorl2.o)
    0x0800110a   0x0800110a   0x00000002   PAD
    0x0800110c   0x0800110c   0x00000084   Code   RO         2523    CODE                UCOSIII.lib(os_cpu_a.o)
    0x08001190   0x08001190   0x00000034   Code   RO           10    i.AppTaskLed1       main.o
    0x080011c4   0x080011c4   0x00000034   Code   RO           11    i.AppTaskLed2       main.o
    0x080011f8   0x080011f8   0x0000004c   Code   RO           12    i.AppTaskLed3       main.o
    0x08001244   0x08001244   0x00000124   Code   RO           13    i.AppTaskStart      main.o
    0x08001368   0x08001368   0x00000010   Code   RO          352    i.BSP_CPU_ClkFreq   bsp.o
    0x08001378   0x08001378   0x00000054   Code   RO          353    i.BSP_Init          bsp.o
    0x080013cc   0x080013cc   0x00000004   Code   RO          289    i.BusFault_Handler  stm32f10x_it.o
    0x080013d0   0x080013d0   0x00000010   Code   RO          859    i.CPU_Init          UCOSIII.lib(cpu_core.o)
    0x080013e0   0x080013e0   0x00000084   Code   RO          860    i.CPU_IntDisMeasInit  UCOSIII.lib(cpu_core.o)
    0x08001464   0x08001464   0x0000001c   Code   RO          861    i.CPU_IntDisMeasMaxCalc  UCOSIII.lib(cpu_core.o)
    0x08001480   0x08001480   0x0000002c   Code   RO          862    i.CPU_IntDisMeasMaxCurGet  UCOSIII.lib(cpu_core.o)
    0x080014ac   0x080014ac   0x0000002c   Code   RO          863    i.CPU_IntDisMeasMaxCurReset  UCOSIII.lib(cpu_core.o)
    0x080014d8   0x080014d8   0x0000002c   Code   RO          864    i.CPU_IntDisMeasMaxGet  UCOSIII.lib(cpu_core.o)
    0x08001504   0x08001504   0x00000034   Code   RO          865    i.CPU_IntDisMeasStart  UCOSIII.lib(cpu_core.o)
    0x08001538   0x08001538   0x00000054   Code   RO          866    i.CPU_IntDisMeasStop  UCOSIII.lib(cpu_core.o)
    0x0800158c   0x0800158c   0x00000038   Code   RO          867    i.CPU_NameClr       UCOSIII.lib(cpu_core.o)
    0x080015c4   0x080015c4   0x00000008   Code   RO          869    i.CPU_NameInit      UCOSIII.lib(cpu_core.o)
    0x080015cc   0x080015cc   0x00000014   Code   RO          873    i.CPU_TS_Init       UCOSIII.lib(cpu_core.o)
    0x080015e0   0x080015e0   0x0000000c   Code   RO          875    i.CPU_TS_TmrFreqSet  UCOSIII.lib(cpu_core.o)
    0x080015ec   0x080015ec   0x00000034   Code   RO          354    i.CPU_TS_TmrInit    bsp.o
    0x08001620   0x08001620   0x0000000c   Code   RO          355    i.CPU_TS_TmrRd      bsp.o
    0x0800162c   0x0800162c   0x00000002   Code   RO          290    i.DebugMon_Handler  stm32f10x_it.o
    0x0800162e   0x0800162e   0x00000004   Code   RO          291    i.HardFault_Handler  stm32f10x_it.o
    0x08001632   0x08001632   0x00000002   PAD
    0x08001634   0x08001634   0x00000048   Code   RO          476    i.LCD_Clear         tftlcd.o
    0x0800167c   0x0800167c   0x00000058   Code   RO          478    i.LCD_Display_Dir   tftlcd.o
    0x080016d4   0x080016d4   0x0000001c   Code   RO          479    i.LCD_DrawFRONT_COLOR  tftlcd.o
    0x080016f0   0x080016f0   0x00000016   Code   RO          487    i.LCD_Pow           tftlcd.o
    0x08001706   0x08001706   0x000000a6   Code   RO          492    i.LCD_Set_Window    tftlcd.o
    0x080017ac   0x080017ac   0x00000128   Code   RO          493    i.LCD_ShowChar      tftlcd.o
    0x080018d4   0x080018d4   0x000000e8   Code   RO          494    i.LCD_ShowFontHZ    tftlcd.o
    0x080019bc   0x080019bc   0x0000008a   Code   RO          496    i.LCD_ShowPicture   tftlcd.o
    0x08001a46   0x08001a46   0x000000be   Code   RO          498    i.LCD_ShowxNum      tftlcd.o
    0x08001b04   0x08001b04   0x0000000c   Code   RO          499    i.LCD_WriteCmd      tftlcd.o
    0x08001b10   0x08001b10   0x00000014   Code   RO          500    i.LCD_WriteCmdData  tftlcd.o
    0x08001b24   0x08001b24   0x0000000c   Code   RO          501    i.LCD_WriteData     tftlcd.o
    0x08001b30   0x08001b30   0x00000010   Code   RO          502    i.LCD_WriteData_Color  tftlcd.o
    0x08001b40   0x08001b40   0x00000058   Code   RO          425    i.LED_GPIO_Config   bsp_led.o
    0x08001b98   0x08001b98   0x00000024   Code   RO          426    i.LED_Init          bsp_led.o
    0x08001bbc   0x08001bbc   0x00000004   Code   RO          292    i.MemManage_Handler  stm32f10x_it.o
    0x08001bc0   0x08001bc0   0x00000012   Code   RO         1044    i.Mem_Clr           UCOSIII.lib(lib_mem.o)
    0x08001bd2   0x08001bd2   0x00000002   PAD
    0x08001bd4   0x08001bd4   0x00000048   Code   RO         1048    i.Mem_Init          UCOSIII.lib(lib_mem.o)
    0x08001c1c   0x08001c1c   0x00000062   Code   RO         1061    i.Mem_Set           UCOSIII.lib(lib_mem.o)
    0x08001c7e   0x08001c7e   0x00000002   Code   RO          293    i.NMI_Handler       stm32f10x_it.o
    0x08001c80   0x08001c80   0x00000002   Code   RO         1169    i.OSCfg_Init        UCOSIII.lib(os_cfg_app.o)
    0x08001c82   0x08001c82   0x00000002   PAD
    0x08001c84   0x08001c84   0x00000014   Code   RO         1709    i.OSIdleTaskHook    UCOSIII.lib(os_cpu_c.o)
    0x08001c98   0x08001c98   0x0000018c   Code   RO         1205    i.OSInit            UCOSIII.lib(os_core.o)
    0x08001e24   0x08001e24   0x00000038   Code   RO         1710    i.OSInitHook        UCOSIII.lib(os_cpu_c.o)
    0x08001e5c   0x08001e5c   0x000000e4   Code   RO         1207    i.OSIntExit         UCOSIII.lib(os_core.o)
    0x08001f40   0x08001f40   0x000000a8   Code   RO         1208    i.OSSched           UCOSIII.lib(os_core.o)
    0x08001fe8   0x08001fe8   0x0000007c   Code   RO         1209    i.OSSchedLock       UCOSIII.lib(os_core.o)
    0x08002064   0x08002064   0x000000a0   Code   RO         1212    i.OSSchedUnlock     UCOSIII.lib(os_core.o)
    0x08002104   0x08002104   0x00000068   Code   RO         1213    i.OSStart           UCOSIII.lib(os_core.o)
    0x0800216c   0x0800216c   0x00000168   Code   RO         1455    i.OSStatReset       UCOSIII.lib(os_stat.o)
    0x080022d4   0x080022d4   0x00000100   Code   RO         1456    i.OSStatTaskCPUUsageInit  UCOSIII.lib(os_stat.o)
    0x080023d4   0x080023d4   0x00000014   Code   RO         1711    i.OSStatTaskHook    UCOSIII.lib(os_cpu_c.o)
    0x080023e8   0x080023e8   0x00000294   Code   RO         1486    i.OSTaskCreate      UCOSIII.lib(os_task.o)
    0x0800267c   0x0800267c   0x00000018   Code   RO         1712    i.OSTaskCreateHook  UCOSIII.lib(os_cpu_c.o)
    0x08002694   0x08002694   0x00000208   Code   RO         1487    i.OSTaskDel         UCOSIII.lib(os_task.o)
    0x0800289c   0x0800289c   0x00000018   Code   RO         1713    i.OSTaskDelHook     UCOSIII.lib(os_cpu_c.o)
    0x080028b4   0x080028b4   0x00000088   Code   RO         1495    i.OSTaskResume      UCOSIII.lib(os_task.o)
    0x0800293c   0x0800293c   0x00000018   Code   RO         1714    i.OSTaskReturnHook  UCOSIII.lib(os_cpu_c.o)
    0x08002954   0x08002954   0x00000250   Code   RO         1496    i.OSTaskSemPend     UCOSIII.lib(os_task.o)
    0x08002ba4   0x08002ba4   0x000000e4   Code   RO         1500    i.OSTaskStkChk      UCOSIII.lib(os_task.o)
    0x08002c88   0x08002c88   0x000000c0   Code   RO         1715    i.OSTaskStkInit     UCOSIII.lib(os_cpu_c.o)
    0x08002d48   0x08002d48   0x00000060   Code   RO         1501    i.OSTaskSuspend     UCOSIII.lib(os_task.o)
    0x08002da8   0x08002da8   0x000000a4   Code   RO         1716    i.OSTaskSwHook      UCOSIII.lib(os_cpu_c.o)
    0x08002e4c   0x08002e4c   0x00000150   Code   RO         1653    i.OSTimeDly         UCOSIII.lib(os_time.o)
    0x08002f9c   0x08002f9c   0x00000044   Code   RO         1658    i.OSTimeTick        UCOSIII.lib(os_time.o)
    0x08002fe0   0x08002fe0   0x00000014   Code   RO         1717    i.OSTimeTickHook    UCOSIII.lib(os_cpu_c.o)
    0x08002ff4   0x08002ff4   0x00000040   Code   RO         1718    i.OS_CPU_SysTickHandler  UCOSIII.lib(os_cpu_c.o)
    0x08003034   0x08003034   0x00000030   Code   RO         1719    i.OS_CPU_SysTickInit  UCOSIII.lib(os_cpu_c.o)
    0x08003064   0x08003064   0x000001b4   Code   RO         1943    i.OS_Dbg_Init       UCOSIII.lib(os_dbg.o)
    0x08003218   0x08003218   0x00000018   Code   RO         1968    i.OS_FlagInit       UCOSIII.lib(os_flag.o)
    0x08003230   0x08003230   0x0000027c   Code   RO         1969    i.OS_FlagPost       UCOSIII.lib(os_flag.o)
    0x080034ac   0x080034ac   0x00000056   Code   RO         1970    i.OS_FlagTaskRdy    UCOSIII.lib(os_flag.o)
    0x08003502   0x08003502   0x00000002   PAD
    0x08003504   0x08003504   0x0000004c   Code   RO         1215    i.OS_IdleTask       UCOSIII.lib(os_core.o)
    0x08003550   0x08003550   0x00000070   Code   RO         1216    i.OS_IdleTaskInit   UCOSIII.lib(os_core.o)
    0x080035c0   0x080035c0   0x00000104   Code   RO         2042    i.OS_IntQPost       UCOSIII.lib(os_int.o)
    0x080036c4   0x080036c4   0x000001a4   Code   RO         2043    i.OS_IntQRePost     UCOSIII.lib(os_int.o)
    0x08003868   0x08003868   0x000000c8   Code   RO         2044    i.OS_IntQTask       UCOSIII.lib(os_int.o)
    0x08003930   0x08003930   0x00000128   Code   RO         2045    i.OS_IntQTaskInit   UCOSIII.lib(os_int.o)
    0x08003a58   0x08003a58   0x00000018   Code   RO         2076    i.OS_MemInit        UCOSIII.lib(os_mem.o)
    0x08003a70   0x08003a70   0x0000007c   Code   RO         2108    i.OS_MsgPoolInit    UCOSIII.lib(os_msg.o)
    0x08003aec   0x08003aec   0x00000044   Code   RO         2109    i.OS_MsgQFreeAll    UCOSIII.lib(os_msg.o)
    0x08003b30   0x08003b30   0x0000000e   Code   RO         2111    i.OS_MsgQInit       UCOSIII.lib(os_msg.o)
    0x08003b3e   0x08003b3e   0x00000002   PAD
    0x08003b40   0x08003b40   0x00000104   Code   RO         2112    i.OS_MsgQPut        UCOSIII.lib(os_msg.o)
    0x08003c44   0x08003c44   0x00000018   Code   RO         2152    i.OS_MutexInit      UCOSIII.lib(os_mutex.o)
    0x08003c5c   0x08003c5c   0x00000068   Code   RO         1217    i.OS_Pend           UCOSIII.lib(os_core.o)
    0x08003cc4   0x08003cc4   0x00000026   Code   RO         1220    i.OS_PendDataInit   UCOSIII.lib(os_core.o)
    0x08003cea   0x08003cea   0x00000002   PAD
    0x08003cec   0x08003cec   0x0000005c   Code   RO         1221    i.OS_PendDbgNameAdd  UCOSIII.lib(os_core.o)
    0x08003d48   0x08003d48   0x00000024   Code   RO         1222    i.OS_PendDbgNameRemove  UCOSIII.lib(os_core.o)
    0x08003d6c   0x08003d6c   0x00000066   Code   RO         1226    i.OS_PendListInsertPrio  UCOSIII.lib(os_core.o)
    0x08003dd2   0x08003dd2   0x00000030   Code   RO         1227    i.OS_PendListRemove  UCOSIII.lib(os_core.o)
    0x08003e02   0x08003e02   0x00000042   Code   RO         1228    i.OS_PendListRemove1  UCOSIII.lib(os_core.o)
    0x08003e44   0x08003e44   0x000000c0   Code   RO         1231    i.OS_Post           UCOSIII.lib(os_core.o)
    0x08003f04   0x08003f04   0x0000002a   Code   RO         1232    i.OS_Post1          UCOSIII.lib(os_core.o)
    0x08003f2e   0x08003f2e   0x00000002   PAD
    0x08003f30   0x08003f30   0x00000028   Code   RO         2204    i.OS_PrioGetHighest  UCOSIII.lib(os_prio.o)
    0x08003f58   0x08003f58   0x00000018   Code   RO         2205    i.OS_PrioInit       UCOSIII.lib(os_prio.o)
    0x08003f70   0x08003f70   0x00000024   Code   RO         2206    i.OS_PrioInsert     UCOSIII.lib(os_prio.o)
    0x08003f94   0x08003f94   0x00000024   Code   RO         2207    i.OS_PrioRemove     UCOSIII.lib(os_prio.o)
    0x08003fb8   0x08003fb8   0x00000018   Code   RO         2250    i.OS_QInit          UCOSIII.lib(os_q.o)
    0x08003fd0   0x08003fd0   0x00000188   Code   RO         2251    i.OS_QPost          UCOSIII.lib(os_q.o)
    0x08004158   0x08004158   0x00000024   Code   RO         1233    i.OS_RdyListInit    UCOSIII.lib(os_core.o)
    0x0800417c   0x0800417c   0x0000002c   Code   RO         1234    i.OS_RdyListInsert  UCOSIII.lib(os_core.o)
    0x080041a8   0x080041a8   0x00000040   Code   RO         1235    i.OS_RdyListInsertHead  UCOSIII.lib(os_core.o)
    0x080041e8   0x080041e8   0x0000003c   Code   RO         1236    i.OS_RdyListInsertTail  UCOSIII.lib(os_core.o)
    0x08004224   0x08004224   0x00000044   Code   RO         1237    i.OS_RdyListMoveHeadToTail  UCOSIII.lib(os_core.o)
    0x08004268   0x08004268   0x0000005c   Code   RO         1238    i.OS_RdyListRemove  UCOSIII.lib(os_core.o)
    0x080042c4   0x080042c4   0x0000005c   Code   RO         1239    i.OS_Sched0         UCOSIII.lib(os_core.o)
    0x08004320   0x08004320   0x0000001c   Code   RO         1240    i.OS_SchedLockTimeMeasStart  UCOSIII.lib(os_core.o)
    0x0800433c   0x0800433c   0x0000003c   Code   RO         1241    i.OS_SchedLockTimeMeasStop  UCOSIII.lib(os_core.o)
    0x08004378   0x08004378   0x000000ec   Code   RO         1242    i.OS_SchedRoundRobin  UCOSIII.lib(os_core.o)
    0x08004464   0x08004464   0x00000018   Code   RO         2322    i.OS_SemInit        UCOSIII.lib(os_sem.o)
    0x0800447c   0x0800447c   0x00000198   Code   RO         2323    i.OS_SemPost        UCOSIII.lib(os_sem.o)
    0x08004614   0x08004614   0x000003b8   Code   RO         1457    i.OS_StatTask       UCOSIII.lib(os_stat.o)
    0x080049cc   0x080049cc   0x000000cc   Code   RO         1458    i.OS_StatTaskInit   UCOSIII.lib(os_stat.o)
    0x08004a98   0x08004a98   0x00000038   Code   RO         1243    i.OS_TaskBlock      UCOSIII.lib(os_core.o)
    0x08004ad0   0x08004ad0   0x00000030   Code   RO         1503    i.OS_TaskDbgListAdd  UCOSIII.lib(os_task.o)
    0x08004b00   0x08004b00   0x00000044   Code   RO         1504    i.OS_TaskDbgListRemove  UCOSIII.lib(os_task.o)
    0x08004b44   0x08004b44   0x00000020   Code   RO         1505    i.OS_TaskInit       UCOSIII.lib(os_task.o)
    0x08004b64   0x08004b64   0x000000d0   Code   RO         1506    i.OS_TaskInitTCB    UCOSIII.lib(os_task.o)
    0x08004c34   0x08004c34   0x0000026c   Code   RO         1507    i.OS_TaskQPost      UCOSIII.lib(os_task.o)
    0x08004ea0   0x08004ea0   0x0000001c   Code   RO         1244    i.OS_TaskRdy        UCOSIII.lib(os_core.o)
    0x08004ebc   0x08004ebc   0x0000017c   Code   RO         1508    i.OS_TaskResume     UCOSIII.lib(os_task.o)
    0x08005038   0x08005038   0x00000018   Code   RO         1509    i.OS_TaskReturn     UCOSIII.lib(os_task.o)
    0x08005050   0x08005050   0x000005a8   Code   RO         1510    i.OS_TaskSemPost    UCOSIII.lib(os_task.o)
    0x080055f8   0x080055f8   0x00000190   Code   RO         1511    i.OS_TaskSuspend    UCOSIII.lib(os_task.o)
    0x08005788   0x08005788   0x00000028   Code   RO         2385    i.OS_TickListInit   UCOSIII.lib(os_tick.o)
    0x080057b0   0x080057b0   0x000001bc   Code   RO         2386    i.OS_TickListInsert  UCOSIII.lib(os_tick.o)
    0x0800596c   0x0800596c   0x00000038   Code   RO         2387    i.OS_TickListRemove  UCOSIII.lib(os_tick.o)
    0x080059a4   0x080059a4   0x00000024   Code   RO         2388    i.OS_TickListResetPeak  UCOSIII.lib(os_tick.o)
    0x080059c8   0x080059c8   0x00000220   Code   RO         2389    i.OS_TickListUpdate  UCOSIII.lib(os_tick.o)
    0x08005be8   0x08005be8   0x0000002c   Code   RO         2390    i.OS_TickTask       UCOSIII.lib(os_tick.o)
    0x08005c14   0x08005c14   0x000000b8   Code   RO         2391    i.OS_TickTaskInit   UCOSIII.lib(os_tick.o)
    0x08005ccc   0x08005ccc   0x00000128   Code   RO         2442    i.OS_TmrInit        UCOSIII.lib(os_tmr.o)
    0x08005df4   0x08005df4   0x000000d0   Code   RO         2443    i.OS_TmrLink        UCOSIII.lib(os_tmr.o)
    0x08005ec4   0x08005ec4   0x00000024   Code   RO         2444    i.OS_TmrResetPeak   UCOSIII.lib(os_tmr.o)
    0x08005ee8   0x08005ee8   0x000000c0   Code   RO         2445    i.OS_TmrTask        UCOSIII.lib(os_tmr.o)
    0x08005fa8   0x08005fa8   0x00000050   Code   RO         2446    i.OS_TmrUnlink      UCOSIII.lib(os_tmr.o)
    0x08005ff8   0x08005ff8   0x00000002   Code   RO          295    i.SVC_Handler       stm32f10x_it.o
    0x08005ffa   0x08005ffa   0x0000007e   Code   RO          503    i.TFTLCD_FSMC_Init  tftlcd.o
    0x08006078   0x08006078   0x00000098   Code   RO          504    i.TFTLCD_GPIO_Init  tftlcd.o
    0x08006110   0x08006110   0x000001f4   Code   RO          505    i.TFTLCD_Init       tftlcd.o
    0x08006304   0x08006304   0x00000004   Code   RO          297    i.UsageFault_Handler  stm32f10x_it.o
    0x08006308   0x08006308   0x0000000e   Code   RO         2667    i.__scatterload_copy  mc_w.l(handlers.o)
    0x08006316   0x08006316   0x00000002   Code   RO         2668    i.__scatterload_null  mc_w.l(handlers.o)
    0x08006318   0x08006318   0x0000000e   Code   RO         2669    i.__scatterload_zeroinit  mc_w.l(handlers.o)
    0x08006326   0x08006326   0x0000001c   Code   RO          506    i.delay_ms          tftlcd.o
    0x08006342   0x08006342   0x00000002   PAD
    0x08006344   0x08006344   0x00000060   Code   RO           14    i.main              main.o
    0x080063a4   0x080063a4   0x00038738   Data   RO          356    .constdata          bsp.o
    0x0803eadc   0x0803eadc   0x00004a04   Data   RO          507    .constdata          tftlcd.o
    0x080434e0   0x080434e0   0x000000a4   Data   RO         1171    .constdata          UCOSIII.lib(os_cfg_app.o)
    0x08043584   0x08043584   0x0000016c   Data   RO         1944    .constdata          UCOSIII.lib(os_dbg.o)
    0x080436f0   0x080436f0   0x00000020   Data   RO         2665    Region$$Table       anon$$obj.o


    Execution Region RW_IRAM1 (Exec base: 0x20000000, Load base: 0x08043710, Size: 0x0000a8b0, Max: 0x00010000, ABSOLUTE, COMPRESSED[0x0000001c])

    Exec Addr    Load Addr    Size         Type   Attr      Idx    E Section Name        Object

    0x20000000   COMPRESSED   0x00000001   Data   RW           16    .data               main.o
    0x20000001   COMPRESSED   0x00000001   PAD
    0x20000002   COMPRESSED   0x0000000c   Data   RW          508    .data               tftlcd.o
    0x2000000e   COMPRESSED   0x00000002   PAD
    0x20000010   COMPRESSED   0x00000014   Data   RW          679    .data               stm32f10x_hd.lib(system_stm32f10x.o)
    0x20000024   COMPRESSED   0x00000014   Data   RW          814    .data               stm32f10x_hd.lib(stm32f10x_rcc.o)
    0x20000038   COMPRESSED   0x0000001c   Data   RW          879    .data               UCOSIII.lib(cpu_core.o)
    0x20000054   COMPRESSED   0x00000004   Data   RW         1063    .data               UCOSIII.lib(lib_mem.o)
    0x20000058   COMPRESSED   0x000000d0   Data   RW         1696    .data               UCOSIII.lib(os_var.o)
    0x20000128   COMPRESSED   0x00000004   Data   RW         1720    .data               UCOSIII.lib(os_cpu_c.o)
    0x2000012c   COMPRESSED   0x00000004   Data   RW         2208    .data               UCOSIII.lib(os_prio.o)
    0x20000130        -       0x00001d20   Zero   RW           15    .bss                main.o
    0x20001e50        -       0x00000010   Zero   RW          877    .bss                UCOSIII.lib(cpu_core.o)
    0x20001e60        -       0x00006c48   Zero   RW         1062    .bss                UCOSIII.lib(lib_mem.o)
    0x20008aa8        -       0x00001490   Zero   RW         1170    .bss                UCOSIII.lib(os_cfg_app.o)
    0x20009f38        -       0x00000574   Zero   RW         1695    .bss                UCOSIII.lib(os_var.o)
    0x2000a4ac   COMPRESSED   0x00000004   PAD
    0x2000a4b0        -       0x00000400   Zero   RW            1    STACK               startup_stm32f10x_hd.o


==============================================================================

Image component sizes


      Code (inc. data)   RO Data    RW Data    ZI Data      Debug   Object Name

       164         30     231224          0          0       2742   bsp.o
       124         10          0          0          0        939   bsp_led.o
       568        144          0          1       7456     265234   main.o
        36          8        304          0       1024        828   startup_stm32f10x_hd.o
        22          0          0          0          0       3015   stm32f10x_it.o
      2098         92      18948         12          0      13464   tftlcd.o

    ----------------------------------------------------------------------
      3016        284     250508         16       8480     286222   Object Totals
         0          0         32          0          0          0   (incl. Generated)
         4          0          0          3          0          0   (incl. Padding)

    ----------------------------------------------------------------------

      Code (inc. data)   RO Data    RW Data    ZI Data      Debug   Library Member Name

        52          0          0          0          0        368   cpu_a.o
       540         98          0         28         16      28417   cpu_core.o
       188         18          0          4      27720      23347   lib_mem.o
         2          0        164          0       5264      21914   os_cfg_app.o
      2952        402          0          0          0      39307   os_core.o
       132         32          0          0          0        412   os_cpu_a.o
       656         68          0          4          0       8625   os_cpu_c.o
       436        286        364          0          0       4901   os_dbg.o
       746         28          0          0          0       3225   os_flag.o
      1176        204          0          0          0       3654   os_int.o
        24         10          0          0          0        937   os_mem.o
       466         26          0          0          0       3385   os_msg.o
        24         10          0          0          0        939   os_mutex.o
       136         16          0          4          0       3018   os_prio.o
       416         20          0          0          0       2302   os_q.o
       432         14          0          0          0       2326   os_sem.o
      1772        214          0          0          0       4215   os_stat.o
      5460        260          0          0          0      14344   os_task.o
      1348        124          0          0          0       5721   os_tick.o
       404         28          0          0          0       1849   os_time.o
       812        134          0          0          0       4332   os_tmr.o
         0          0          0        208       1396      19553   os_var.o
        86          0          0          0          0          0   __dczerorl2.o
         0          0          0          0          0          0   entry.o
         0          0          0          0          0          0   entry10a.o
         0          0          0          0          0          0   entry11a.o
         4          0          0          0          0          0   entry12b.o
         8          4          0          0          0          0   entry2.o
         4          0          0          0          0          0   entry5.o
         0          0          0          0          0          0   entry7b.o
         0          0          0          0          0          0   entry8b.o
         8          4          0          0          0          0   entry9a.o
        30          0          0          0          0          0   handlers.o
        36          8          0          0          0         68   init.o
      1560         54          0          0          0       5419   stm32f10x_fsmc.o
       856         40          0          0          0     208913   stm32f10x_gpio.o
       932         44          0         20          0       8904   stm32f10x_rcc.o
       476         36          0         20          0      30027   system_stm32f10x.o

    ----------------------------------------------------------------------
     22188       2182        528        288      34400     450422   Library Totals
        14          0          0          0          4          0   (incl. Padding)

    ----------------------------------------------------------------------

      Code (inc. data)   RO Data    RW Data    ZI Data      Debug   Library Name

     18174       1992        528        248      34396     197091   UCOSIII.lib
       176         16          0          0          0         68   mc_w.l
      3824        174          0         40          0     253263   stm32f10x_hd.lib

    ----------------------------------------------------------------------
     22188       2182        528        288      34400     450422   Library Totals

    ----------------------------------------------------------------------

==============================================================================


      Code (inc. data)   RO Data    RW Data    ZI Data      Debug   

     25204       2466     251036        304      42880     728972   Grand Totals
     25204       2466     251036         28      42880     728972   ELF Image Totals (compressed)
     25204       2466     251036         28          0          0   ROM Totals

==============================================================================

    Total RO  Size (Code + RO Data)               276240 ( 269.77kB)
    Total RW  Size (RW Data + ZI Data)             43184 (  42.17kB)
    Total ROM Size (Code + RO Data + RW Data)     276268 ( 269.79kB)

==============================================================================

