:020000040800F2
:10000000F804002045010008250A000869040008DA
:10001000210A00082F0200087F14000800000000D9
:10002000000000000000000000000000C50B0008F8
:100030003302000800000000AD0A0008D90C0008D7
:100040005F0100085F0100085F0100085F01000810
:100050005F0100085F0100085F0100085F01000800
:100060005F0100085F0100085F0100085F010008F0
:100070005F0100085F0100085F0100085F010008E0
:100080005F0100085F0100085F0100085F010008D0
:100090005F0100085F0100085F0100085F010008C0
:1000A0005F0100085F0100085F0100085F010008B0
:1000B0005F0100085F0100085F0100085F010008A0
:1000C0005F0100085F0100085F0100085F01000890
:1000D0005F010008791100085F0100085F01000856
:1000E0005F0100085F0100085F0100085F01000870
:1000F0005F0100085F0100085F0100085F01000860
:100100005F0100085F0100085F0100085F0100084F
:100110005F0100085F0100085F0100085F0100083F
:100120005F0100085F0100085F0100085F0100082F
:10013000DFF80CD000F05AF800480047F517000827
:10014000F80400200648804706480047FEE7FEE71F
:10015000FEE7FEE7FEE7FEE7FEE7FEE7FEE7FEE777
:10016000190D0008310100082DE9F05F0546002057
:1001700092469B4688460646814640241BE0284618
:1001800041464746224600F020F853465A46C01AD8
:10019000914110D311461846224600F039F82D1A25
:1001A00067EB01084F4622460120002100F030F89D
:1001B00017EB00094E41201EA4F10104DFDC484684
:1001C00031462A464346BDE8F09F202A04DB203A08
:1001D00021FA02F00021704721FA02F3D040C2F167
:1001E000200291400843194670470000064C074D15
:1001F00006E0E06840F0010394E8070098471034F7
:10020000AC42F6D3FFF798FF4C1101086C110108BE
:10021000202A04DB203A00FA02F1002070479140C6
:10022000C2F1200320FA03F319439040704700BF46
:10023000FEE7704751B18200A2F1C042126842F05D
:1002400001038200A2F1C042136009E08200A2F122
:10025000C0421268034B1A408300A3F1C0431A60E6
:1002600070470000FEFF0F00D0E901121143C26881
:100270001143026911434269114382691143C26902
:100280001143026A1143426A1143826A1143C26AEE
:100290001143026B114302689200A2F1C042116047
:1002A000816808290BD101688900A1F1C041096862
:1002B00041F0400201688900A1F1C0410A60416B30
:1002C0000968426B526841EA0211426B926841EA46
:1002D0000221426B928941EA0241426B128A41EA51
:1002E0000251426B127D41EA0261426B92691143F5
:1002F0000268521C9200A2F1C0421160C16AB1F5BD
:10030000804F1BD1816B0968826B526841EA0211F0
:10031000826B926841EA0221826B128A41EA0251A1
:10032000826B127D41EA0261826B9269114302681D
:100330009200A2F1C042C2F8041107E06FF07042CF
:1003400001688900A1F1C041C1F8042170472DE97D
:10035000F04102460025002600200023002400274B
:1003600091F803C00CF00F0591F803C00CF0100CCD
:10037000BCF1000F03D091F802C04CEA050591F8DA
:1003800000C0BCF1000F31D0146800202BE04FF00A
:10039000010C0CFA00F3B1F800C00CEA03069E420F
:1003A00020D183004FF00F0C0CFA03F7BC4305FA81
:1003B00003FC4CEA040491F803C0BCF1280F06D1F9
:1003C0004FF0010C0CFA00FCC2F814C00AE091F8DE
:1003D00003C0BCF1480F05D14FF0010C0CFA00FC32
:1003E000C2F810C0401C0828D1D31460B1F800C076
:1003F000BCF1FF0F34DD546800202EE000F1080C42
:100400004FF0010808FA0CF3B1F800C00CEA03063B
:100410009E4221D183004FF00F0C0CFA03F7BC432E
:1004200005FA03FC4CEA040491F803C0BCF1280F60
:1004300005D100F1080C08FA0CF8C2F8148091F804
:1004400003C0BCF1480F07D100F1080C4FF00108C0
:1004500008FA0CF8C2F81080401C0828CED354606B
:10046000BDE8F0810161704700BFFEE770B5064648
:100470000F484088401E83B20D480088401E82B25B
:100480000021084600F0B2F800240CE0002504E04A
:10049000304600F099FA681C85B205484088A842A9
:1004A000F6DC601C84B202480088A042EEDC70BD1D
:1004B0001800002000B5024615488271A2B901203B
:1004C00000F076FA4FF4807000F078FA032000F024
:1004D0006FFA41F2300000F071FA4FF4C8700C4925
:1004E0004880F020088012E0012000F061FA00202E
:1004F00000F064FA032000F05BFA41F2380000F0EB
:100500005DFAF020024948804FF4C870088000BDB1
:100510001800002070B504460D4616462B462246AC
:100520002946204600F062F8304600F04DFA70BDD2
:100530002DE9F04304460D4616461F46DDF81C80A3
:10054000B44201DCBD4201DDBDE8F0833B463246EA
:100550002946204600F04AF8301B401C84B2781B24
:10056000401C85B20BE0A94602E0404600F02CFAA0
:10057000B9F10000A9F101011FFA81F9F5D1201E9E
:10058000A4F101018CB2EED100BFDDE70148008883
:10059000704700000008006C2DE9F04104460D464C
:1005A00000260027B04610480088A04203DD0E4810
:1005B0004088A84202DC0020BDE8F0812B4622469C
:1005C0002946204600F012F840F2022000F0F0F92F
:1005D000FFF7DCFF0646FFF7D9FF0646FFF7D6FF19
:1005E00006463046E8E700001800002030B5054612
:1005F0000C462E48807950BB4FF4047000F0D8F9B7
:10060000284600F0DBF940F2112000F0D1F9104645
:1006100000F0D4F940F2122000F0CAF9204600F0B0
:10062000CDF940F2132000F0C3F9184600F0C6F9E6
:100630004FF4007000F0BCF9284600F0BFF940F21A
:10064000012000F0B5F9204600F0B8F929E040F2A9
:10065000122000F0ADF9284600F0B0F940F2132066
:1006600000F0A6F9104600F0A9F94FF4047000F06C
:100670009FF9204600F0A2F940F2112000F098F90D
:10068000184600F09BF940F2012000F091F928464D
:1006900000F094F94FF4007000F08AF9204600F061
:1006A0008DF940F2022000F083F930BD18000020DF
:1006B0002DE9F84F80460E4617461C46B3462046A5
:1006C000E31704EB5373DB1021464FEAE47C04EBA1
:1006D0005C7C4FEAEC0CA4EBCC0CBCF1000F02D01C
:1006E0004FF0010C01E04FF0000C6344224604EB94
:1006F000D27C4FEA6C0C03FB0CF3DBB20093A7F146
:100700002000C7B2002556E00C2C07D107EB4700AC
:100710002B4901EB800010F8059013E0102C05D157
:10072000284800EB071010F805900BE0182C07D1B3
:1007300007EBC700244901EB800010F8059001E0A9
:10074000BDE8F88F4FF0000A2FE009F0800030B1CB
:100750001E48028831464046FFF7DCFE07E00A9853
:1007600028B91B48028831464046FFF7D3FE4FEABE
:1007700049604FEA1069701C86B216484088B04242
:1007800000DCDDE7A6EB0B00A0420AD15E4608F1D3
:1007900001001FFA80F80F480088404500DCCFE7D1
:1007A00006E00AF1010000F0FF0ABAF1080FCCDB05
:1007B00000BF681CC5B200988542A5DB00BFBFE73B
:1007C00034C80008A8CC000898D200081400002003
:1007D00016000020180000202DE9F84F04460F46AF
:1007E0001546A346009760E0002657E006EB86001A
:1007F000C0EB86102F4911F81000297888424BD1A0
:1008000006EB8600C0EB86102A4901EB40004078D9
:100810006978884240D14FF000083AE006EB860044
:10082000C0EB8610234901EB4000801C10F808A0A3
:100830004FF0000926E00AF08000802806D11E480B
:10084000028839462046FFF765FE05E01B4802880E
:1008500039462046FFF75EFE4FF6FF7000EA4A0A6F
:10086000601C84B2A4EB0B00202807D15C46781CE6
:1008700087B20098381A1D2800D1009F09F10100A5
:1008800000F0FF09B9F1080FD5DB08F1010000F015
:10089000FF08B8F1740FC1DB701CC6B2142EA5DBC3
:1008A000AD1C04F1200084B2A346287800289BD117
:1008B000BDE8F88F740F0108140000201600002016
:1008C0002DE9F84F06460F4614461D464FF0000A24
:1008D000D346002000907819401E83B23019401E84
:1008E00082B239463046FFF781FE04FB05F0400036
:1008F0000090D04625E04FF000091CE00BF101010B
:100900000A9810F801A04FF6FF7000EA0A2A0A9828
:1009100010F80B0040EA0A0A07EB080291B206EB56
:10092000090290B25246FFF7F5FD0BF1020B09F1F7
:1009300001001FFA80F9A145E0DB08F101001FFA70
:1009400080F8A845D7DBBDE8F88F2DE9F8470446C5
:100950000D4690469946DDE9096704F0FF0A08EB69
:1009600004001FFA80F809EB05001FFA80F916E071
:10097000444502DB5446A81985B24D4500DB14E01E
:10098000002000903A78334629462046FFF790FE33
:10099000304606EBD07104EB61018CB27F1C3878D5
:1009A0007E2802DC38782028E2DA00BFBDE8F8872C
:1009B0000149088070470000FE07006C014908806B
:1009C000704700000008006C014908807047000073
:1009D0000008006C08B50121482000F079F82020BB
:1009E000ADF8000010208DF8030003208DF8020000
:1009F00069460948FFF7ABFC20210748FFF732FDA5
:100A00002020ADF8000069460448FFF7A0FC202133
:100A10000248FFF727FD08BD000C01400018014007
:100A200000BFFEE77047000070B5002100230F22D1
:100A3000C47804B3154C246804F4E064C4F5E0649D
:100A4000210AC1F10403CA40447804FA03F184780E
:100A50001440214309010E4C0678A155047804F096
:100A60001F050124AC4005786D11AD0005F1E025AE
:100A7000C5F8004109E0047804F01F050124AC40EA
:100A8000044D0678761145F8264070BD0CED00E067
:100A900000E400E080E100E002490143024A116005
:100AA000704700000000FA050CED00E07047000000
:100AB00029B1064A52690243044B5A6104E0034AD1
:100AC00052698243014B5A61704700000010024096
:100AD00029B1064A92690243044B9A6104E0034A31
:100AE00092698243014B9A617047000000100240F6
:100AF00030B500210022002400232D4D6D6805F043
:100B00000C0121B1042905D0082923D105E0294D84
:100B1000056022E0274D05601FE0254D6D6805F456
:100B20007012234D6D6805F48034022505EB924266
:100B30001CB9214D554305600BE01D4D6D6805F452
:100B400000351DB11C4D5543056002E0194D55435C
:100B5000056002E0174D056000BF00BF144D6D68D1
:100B600005F0F0010909154D6B5C0568DD40456035
:100B70000F4D6D6805F4E061090A104D6B5C456826
:100B8000DD4085600A4D6D6805F46051C90A0B4D62
:100B90006B5C4568DD40C560054D6D6805F44041FE
:100BA000890B074D6B5CC568B5FBF3F5056130BD7E
:100BB0000010024000127A0000093D0000000020F1
:100BC00010000020704710B500F002F810BD0000C2
:100BD0000CB50020019000903348006840F480304C
:100BE0003149086000BF3048006800F400300090D0
:100BF0000198401C0190009818B90198B0F5A06FB9
:100C0000F1D12948006800F4003010B101200090B3
:100C100001E0002000900098012843D1234800689B
:100C200040F01000214908600846006820F00300E9
:100C300008600846006840F0020008601A484068F2
:100C4000194948600846406848600846406840F4D2
:100C5000806048600846406820F47C104860084680
:100C6000406840F4E81048600846006840F0807032
:100C7000086000BF0C48006800F000700028F9D040
:100C80000948406820F0030007494860084640686A
:100C900040F00200486000BF0348406800F00C00CC
:100CA0000828F9D10CBD00000010024000200240CD
:100CB000042808D14FF0E021096941F004014FF008
:100CC000E022116107E04FF0E021096921F0040101
:100CD0004FF0E022116170477047000010B50446E4
:100CE0006FF00400FFF7E4FFE11704EB5171C1F36B
:100CF000C701074A11701046007800EB4001C1EBB4
:100D0000C0104FF6FF7101EAC0000249088010BD13
:100D1000200000202200002010B51348006840F099
:100D200001001149086008464068104908400E4912
:100D30004860084600680E4908400B4908600846AC
:100D4000006820F4802008600846406820F4FE0017
:100D500048604FF41F008860FFF735FF4FF00060D8
:100D60000449086010BD0000001002400000FFF8B8
:100D7000FFFFF6FE08ED00E000B59DB0012108027E
:100D8000FFF796FE01200790002008900F200990A1
:100D900000200A900B900C900D901520009001906F
:100DA00005200290002003900490059006900620F4
:100DB0000E9000200F9010901020119000201290A3
:100DC00014901390159016904FF4805017900020B7
:100DD00018904FF48040199000201A9007A81B909B
:100DE000CDF870D00EA8FFF73FFA01210620FFF7DB
:100DF00021FA1DB000BD000008B501214FF4B47008
:100E0000FFF766FE4CF23370ADF8000018208DF845
:100E1000030003208DF8020069461848FFF797FA8F
:100E20004FF68070ADF8000018208DF80300032005
:100E30008DF8020069461248FFF789FA41F2010075
:100E4000ADF8000018208DF8030003208DF8020093
:100E500069460C48FFF77BFA0120ADF8000010202E
:100E60008DF8030003208DF8020069460648FFF75D
:100E70006EFA01200549086008BD00000014014019
:100E80000018014000200140000C014080812142F7
:100E900010B5FFF7B1FFFFF76FFF322000F072FCD3
:100EA0000020FFF785FDFFF771FBAE4988800846FB
:100EB0008188ADA000F0E6FA4FF4FA7401E0601EFC
:100EC00084B2002CFBDC0020FFF772FD0020FFF74E
:100ED00075FD0020FFF76CFD0020FFF76FFD00207F
:100EE000FFF766FD0020FFF769FD4FF4FA7401E09B
:100EF000601E84B2002CFBDC4FF48060FFF758FDCD
:100F00004FF4C440FFF75AFD0820FFF751FD40F6AB
:100F10000800FFF753FD4FF44070FFF749FD4FF411
:100F20004060FFF74BFD40F20130FFF741FD45F611
:100F30000B20FFF743FD40F20230FFF739FD40F68A
:100F40000610FFF73BFD40F20330FFF731FD41F2A1
:100F50001700FFF733FD4FF44170FFF729FD4FF401
:100F60000C50FFF72BFD40F20530FFF721FD4FF449
:100F7000B850FFF723FD40F20630FFF719FD46F2A7
:100F80000930FFF71BFD40F20730FFF711FD40F677
:100F90000940FFF713FD4FF44270FFF709FD4FF4CE
:100FA0008670FFF70BFD40F20930FFF701FD42F2BA
:100FB0003220FFF703FD1020FFF7FAFC1620FFF7A1
:100FC000FDFC1120FFF7F4FC40F20110FFF7F6FCE6
:100FD0001220FFF7EDFC0020FFF7F0FC1320FFF7D5
:100FE000E7FC0120FFF7EAFC4FF48070FFF7E0FC1C
:100FF0004FF44C70FFF7E2FC40F20110FFF7D8FC11
:1010000040F23630FFF7DAFC40F20310FFF7D0FC75
:101010004FF48050FFF7D2FC4FF42070FFF7C8FC6C
:101020004FF4C240FFF7CAFC4FF48170FFF7C0FCD9
:101030004BF6B430FFF7C2FC4FF4FA7401E0601EC7
:1010400084B2002CFBDC0120FFF7B2FC4FF480706F
:10105000FFF7B4FC0220FFF7ABFC4FF48070FFF702
:10106000ADFC0320FFF7A4FC41F23000FFF7A6FC23
:101070000920FFF79DFC0120FFF7A0FC0C20FFF7E3
:1010800097FC0020FFF79AFC9020FFF791FC4FF4AB
:101090000060FFF793FC0F20FFF78AFC0020FFF7AA
:1010A0008DFC4FF40470FFF783FC0020FFF786FCF3
:1010B00040F21120FFF77CFCEF20FFF77FFC40F2AD
:1010C0001220FFF775FC0020FFF778FC40F2132098
:1010D000FFF76EFC40F28F10FFF770FC4FF4A0603A
:1010E000FFF766FC0020FFF769FC40F20150FFF7B4
:1010F0005FFC0020FFF762FC40F20250FFF758FC53
:101100005F20FFF75BFC40F20140FFF751FC01203C
:10111000FFF754FC40F20440FFF74AFC0020FFF7C1
:101120004DFC4FF4FA7401E0601E84B2002CFBDC2D
:101130000720FFF73DFC4FF48070FFF73FFC4FF4B2
:10114000FA7401E0601E84B2002CFBDC40F2022045
:10115000FFF72EFC0020FFF7ADF94FF6FF70FFF709
:1011600085F910BD18000020204C43442049443A22
:1011700025780D0A0000000010B540F225511D48E9
:1011800000F0B8F810B31B4800F070F9C4B21A4868
:10119000008800F40040C8B91748008800F4804077
:1011A00060B10A2C03D000201349088020E01248C7
:1011B000008840F400401049088019E00D2C06D149
:1011C0000D48008840F480400B49088010E00A4830
:1011D0000088C0F30D0009490C5407480088401CE2
:1011E0000549088008460088C72801DD00200880DE
:1011F00010BD000000380140240000202C00002019
:1012000010B586B0044601210420FFF761FC0121DE
:101210008803FFF75DFC4FF40070ADF81400032065
:101220008DF8160018208DF8170005A91E48FFF745
:101230008EF84FF48060ADF8140004208DF817008C
:1012400005A91948FFF783F801940020ADF80800BC
:10125000ADF80A00ADF80C00ADF810000C20ADF8A8
:101260000E0001A9114800F095F801210F4800F087
:1012700028F840210D4800F01BF8012240F22551CA
:101280000A4800F061F825208DF8000003208DF851
:1012900001008DF8020001208DF803006846FFF779
:1012A000C3FB06B010BD000000080140003801403B
:1012B00001F40072B2F5007F00D100BFCA43028082
:1012C000704721B1828942F40052828104E0828910
:1012D0004DF6FF731A408281704702460020B1F537
:1012E000007F00D100BF13880B400BB1012000E04C
:1012F0000020704770B5024600240023002500201E
:1013000040F66A16B14200D100BFC1F3421501F0A8
:101310001F03012606FA03F3012D02D196893340FB
:1013200006E0022D02D1168A334001E0968A33404E
:101330000C12012606FA04F41688344013B10CB1DD
:10134000012000E0002070BDF0B503460024002617
:101350000025002040F66A17B94200D100BF1846A8
:10136000C1F3421401F01F06012707FA06F5012C0C
:1013700001D10C3004E0022C01D1103000E0143017
:101380001AB107682F43076002E00768AF430760A0
:10139000F0BD00002DE9F04786B005460E4600245A
:1013A000A24600BFA1460027B08900B100BF2F466A
:1013B0002C8A4CF6FF700440F08804432C82AC89E0
:1013C0004EF6F3100440B088318908437189084310
:1013D0000443AC81AC8A4FF6FF400440B08904431B
:1013E000AC8201A8FFF784FB1F48874202D1DDF8D9
:1013F00010A001E0DDF80CA0A88900F4004040B185
:101400000AEBCA0000EB0A1031684900B0FBF1F8A2
:1014100007E00AEBCA0000EB0A1031688900B0FB54
:10142000F1F86420B8FBF0F004012009642101FB0D
:101430001089A88900F4004040B1322000EBC900B7
:10144000B0FBF1F000F00700044308E0322000EBAD
:1014500009106421B0FBF1F000F00F0004432C816F
:1014600006B0BDE8F08700000038014001468888DA
:10147000C0F308007047C1F308028280704700BFC4
:10148000FEE700000FB4054B10B503A9044A02980B
:1014900000F018F810BC5DF814FB0000D11700082C
:1014A0002800002002E008C8121F08C1002AFAD153
:1014B00070477047002001E001C1121F002AFBD1D4
:1014C000704700002DE9FF4F8DB09B460F46044644
:1014D000002606E025280BD05A460F999047641C39
:1014E000761C20780028F5D111B03046BDE8F08F89
:1014F0000025A8460122984900E0054314F8013F61
:10150000203B02FA03F00842F7D120782E2817D1A9
:1015100014F8010F45F004052A280ED06FF02F02B1
:101520002078A0F1300109290AD808EB880102EBE4
:10153000410100EB0108641CF2E757F8048B641CBE
:1015400020786C280DD004DC4C2812D06A2811D1E8
:1015500004E074280DD07A280CD10AE045F4001577
:1015600007E0617845F48015814202D1641C05F5DD
:101570008015641C2278692A45D008DC002AB3D083
:10158000582A69D0632A10D0642A08D13BE0702A17
:1015900067D0732A13D0752A5CD0782A5CD01046A5
:1015A0005A460F999047761CD3E017F8040B8DF834
:1015B000000000208DF80100E946012003E057F803
:1015C000049B4FF0FF3069074FF0000501D40AE09B
:1015D0006D1C45450DDA8542FADB19F80510002926
:1015E000F6D106E06D1C8542FCDB19F805100029D8
:1015F000F8D12E4404E019F8010B5A460F99904790
:101600006D1EF8D2A5E00A200021CDE90801C5F33E
:10161000025002280DD001CFC117031E71F1000343
:101620000DDA4FF0000CD0EB0C006CEB01012D2318
:1016300008E0FF1D27F00707F7E80201EDE72B059B
:1016400004D52B238DF8283001233BE0EB0739D05C
:101650002023F7E70A2000E010200021CDE908014F
:1016600007E01020002145F00405CDE908014FF006
:101670000808C5F3025002280FD001CF00214FF017
:10168000000A2B071FD5702A0DD0DDE908C38CF0A6
:10169000100C5CEA030C0CD015E0FF1D27F00707C7
:1016A000F7E80201EBE740228DF828204FF0010A0D
:1016B0000BE050EA010306D030238DF828308DF876
:1016C000292002239A46582A04D024A20DF1200989
:1016D0000B9209E026A2F9E7DDE90823FEF744FDB5
:1016E0000B9B9B5C09F8013D50EA0102F4D1ADEB84
:1016F000090020300890680701D44FF001080899CC
:10170000884502DDA8EB010000E0002080460025AE
:1017100006E00AA85A46405D0F9990476D1C761C5A
:101720005545F6DB04E030205A460F999047761C69
:10173000B8F10001A8F10108F5DC05E019F8010B8A
:101740005A460F999047761C0899481E0890002920
:10175000F4DC641CC5E60000092801003031323396
:1017600034353637383961626364656600000000DD
:1017700030313233343536373839414243444546C7
:10178000000000000146114A12884A434FF0E0234E
:101790005A6100229A611A46126942F001021A61E6
:1017A00000BF4FF0E022106900F001021AB100F40E
:1017B0008032002AF5D04FF0E022126922F00102B7
:1017C0004FF0E0231A6100229A6170472200002046
:1017D00070B504460D46E1B20548FFF74CFE00BF68
:1017E00080210348FFF779FD0028F9D0204670BD1D
:1017F000003801401CB5002400254820FFF76EFA90
:101800004FF4A060FFF748F9FFF7E4F84FF4E13038
:10181000FFF7F6FCFFF73CFB00203449088034A0BA
:101820000C21CDE900103648438802880A21084679
:10183000FFF78BF82EA01021CDE900103048438827
:1018400002881E210A20FFF780F829A01821CDE97F
:1018500000102B484388028832210A20FFF775F8D0
:1018600028A250210A20FEF7B7FF29A01821CDE9B0
:10187000001023484388028878210A20FFF765F882
:1018800048F23040B4233C22962100900A20FEF713
:101890004FFEA0211420FEF77FFE0546B4239622BA
:1018A000114664200095FEF743FE29461CA0FFF771
:1018B000E9FD1E487023C822DC2100901420FEF7A9
:1018C000FFFF12E0601CC4B2142094FBF0F100FB97
:1018D000114038B91648006808B9012000E000201E
:1018E000134908600A20FFF74DFFEBE714000020C2
:1018F00048656C6C6F20576F726C642100000000AB
:1019000018000020C6D5D6D0BFC6BCBC0000000061
:101910007777772E7072656368696E2E636E00004C
:10192000636F6C6F723D25780D0A00003419000852
:10193000948121428A4A8A4A8A4A8A4A8A4A8A4A37
:101940008A4A8A4A8A4A8A4A8A4A8A4A8A4A8A4AF7
:10195000AA52AA52AA52AA52AA52AA52AB52AB52A5
:10196000AB52AB52AB52CB52CB52CB52CB52CB52EF
:10197000CB52CB52CB52CB52EB5ACB52CB52EB5A2F
:10198000EB5AEB5AEC5AEB5AEC5A0C5B0C5B0C5BC7
:10199000EC5A0C5B0C5B0C5B0C5B0C5B0C5B2C6308
:1019A0002C630C5B2C630C5B2C630C632C5B2C6337
:1019B0000C5BEB5A4D634D634D634D6BEC5A2C63DE
:1019C0000C5B6E6BAA522421A218E318452904214E
:1019D00004212421E318C318A218C318C318A2189D
:1019E000A218C218A2108210A210A21082106108C0
:1019F00061084008410861088210611040086108D0
:101A000041088210A210E320C318C318E3206531F7
:101A100008420842EB5AAB524D6B4D634D634D6328
:101A20004D634D634D636D6B4D634D6B4D6B4D63FE
:101A30004D634D634D634D634D634D634D632D6346
:101A40004D632D632D632D632C632C632C630C631A
:101A50002C630C630C630C5B0C630C630C5B0C63FE
:101A60000C630C5BEC5AEC5AEC5AEC5AEC5AEC5AFC
:101A7000EC5AEC5AEB5AEB5ACB5AEB5ACB5AEB5A7C
:101A8000CB5ACB5ACB5ACB52CB5AAB52AB52AB52AE
:101A9000AB52AB52AB52AA52AA528A52AA528A52A3
:101AA000AA528A528A528A528A528A528A528A5236
:101AB0008A528A4A8A4A8A526A4A8A4A8A4A8A4A96
:101AC0006A4A8A4A8A4A8A4A8A4A8A4A8A4A8A4A96
:101AD0008A4A8A4A8A4A8A4A8A4AAA528A4AAA5216
:101AE000AA52AA52AA52AA52AA52AB52AA52AB5214
:101AF000AB52CB52CB52CB52CB52CB52CB52CB521E
:101B0000CB52CB52EB5ACB52CB52CB52EB5AEB5A75
:101B1000EB5AEC5AEB5AEC5A0C5B0C5B0C5B0C5B13
:101B20000C5B0C5B0C5B0C5B0C5B2C632C630C5B2D
:101B30002C632C632C632D630C630C632C632C636C
:101B40004D63EC5A2C634D6B4D6BCB5A4D6B0C5B5C
:101B50006C6B86316110A310042125290421042116
:101B6000E420E318C318A318C318C318A3188210DD
:101B700081108210A218610841088210611061086A
:101B800021084008610820084108610882106108A6
:101B90008210410861088210E3200421C318A210BA
:101BA000C3186529C739AA526A4A4D636E6B4D63E3
:101BB0008E6B4D636D6B6D6B6D6B6D6B6D6B6D6B6C
:101BC0004D6B4D6B4D6B4D6B4D634D634D634D6375
:101BD0004D6B4D634D632D632D632C632D632C631F
:101BE0002C632C632C632C630C630C630C630C63FD
:101BF0000C5B0C5B0C5B0C5B0C5BEC5A0C5B0C5BCE
:101C0000EC5AEC5AEC5AEB5AEB5AEB5ACB5ACB5AE9
:101C1000EB5ACB5ACB5ACB5ACB52CB5ACB52CB5294
:101C2000AB52AB52AB52AB52AA52AA52AA528A52F0
:101C30008A52AA528A528A528A528A528A528A52A4
:101C40008A4A8A4A8A528A528A4A6A4A6A4A8A4A24
:101C50006A4A8A4A8A4A8A4A8A4A8A4A8A4A8A4A04
:101C60008A4A8A4A8A4AAA52AA528A4AAA52AA5234
:101C7000AA52AA52AA52AA52AB52AB52AA52CB5261
:101C8000AB52CB52CB52CB52CB52CB52CB52CB528C
:101C9000CB52CB52EB5AEB5AEB5AEB5AEB5AEB5A6C
:101CA000EB5AEC5AEC5A0C5B0C5B0C5B0C5B0C5B60
:101CB0000C5B0C5B0C5B0C5B0C5B2C632C632C6374
:101CC0002C632C630C632D634D630C5B0C5B4D63C9
:101CD0002C632C630C634D63EB5A4D6B2C63EB5AF6
:101CE000E3206110C3182529042124214529252931
:101CF00004210421E320E320C318A218A218A21093
:101D0000610841086110C318811081108110A21070
:101D100061088210A218A21882108210811081100E
:101D2000A2102108410841086210E32065292421FE
:101D300082108210E31886318A528A520C636D6BCE
:101D40004D638E6B8E6B6E6B8E6B6D6B6D6B6D6B97
:101D50006D6B6D6B4D6B4D6B6D6B6D6B4D634D6B4B
:101D60004D6B4D6B4D6B4D6B2D634D634D632D6313
:101D70002C632C632C632C632C632C632C632C5BF3
:101D80000C5B0C5B0C630C5B0C5B0C5B0C5B0C5B13
:101D90000C5B0C5BEC5AEB5AEC5AEC5AEB5AEB5AD4
:101DA000EB5AEB5ACB5ACB5ACB5ACB5ACB5ACB52D3
:101DB000AB52AB52AB52AB52AB52AA52AA52AA523E
:101DC000AA528A52AA528A528A528A528A528A52F3
:101DD0008A528A528A528A52894A8A4A6A4A6A4A84
:101DE0008A4A8A528A4A8A4A8A4A8A4A8A4A8A4A4B
:101DF0008A4A8A4A8A4AAA528A4AAA52AA52AA52A3
:101E0000AA52AA52AA52AA52AA52AB52AB52AB52EF
:101E1000AB52CB52CB52CB52CB52CB52CB52EB5AD2
:101E2000CB52EB5AEB5AEB5AEB5AEB5AEB5AEC5AB1
:101E3000EC5A0C5B0C5B0C5B0C5B0C5B0C5B0C5B8B
:101E40000C5B0C5B0C5B0C5B2C632C632C632C63BA
:101E50002C632D632C634D634D632D632C632C63C6
:101E60004D6B2D63EB5AEC5A4D6BEC5A6952811055
:101E7000A218E32004212429452945292421E31817
:101E8000C318E320C3188210C318C318E320A21894
:101E9000A2188210A210A210C2188210A218C31891
:101EA000E318A2188210A218821061106108821033
:101EB00081108210611061086108A210A218252902
:101EC000452904218210611024292842694A0C63A3
:101ED0004D6B8E6B8E6B8E6B8E6B6E6B6E6B6E6BDB
:101EE0006E6B6D6B6D6B6D6B6D6B6D6B6D6B4D6B51
:101EF0006D6B4D6B4D6B4D6B4D6B4D6B4D634D6312
:101F00004D634D634D632C632C632C632C632C63F6
:101F10000C630C630C5B0C5B0C5B0C5B0C5B0C5B79
:101F20000C5B0C5BEC5AEC5AEB5AEB5AEB5AEB5A43
:101F3000EB5AEB5ACB5ACB5ACB5ACB5ACB5ACB5A39
:101F4000CB52AB52AB52AB52AB52AB52AA52AA528B
:101F5000AA52AA528A528A528A528A528A528A5261
:101F60008A528A528A4A8A528A4A8A528A4A8A4AB1
:101F70006A4A8A528A4A8A4A8A4A8A4A8A4A8A4AD9
:101F80008A4A8A4A8A4A8A4A8A4AAA52AA52AA5239
:101F9000AA52AA52AA52AA52AB52AA52CB52CB521E
:101FA000CB52CB52CB52CB52CB52EB5AEB5AEB5AD1
:101FB000CB52CB52EB5AEB5AEB5AEB5AEB5AEB5A49
:101FC000EC5AEC5A0C5B0C5B0C5B0C5B0C5B0C5B1B
:101FD0000C5B2C632C632C632C632C632D632C63B0
:101FE0004D634D634D632D636D6B2C634D632C63AB
:101FF0004D6B4D6BAA520C630C63284A8110C218BA
:10200000E3200421252965294529E32024210421F1
:102010000421C318C318C318A21061108110E32053
:102020000421C31882108110C3180421E320A218D0
:10203000C318A21882106110611041108110611044
:102040008210A21082104008811061088210C3180B
:10205000242924212529E420821004212842694AC8
:102060000C5B2C638E6B8E6B8E6B8E6B8E6B8E6BA4
:102070006E6B8E6B8E6B6E6B6D6B6D6B6D6B6D6B5C
:102080004D6B4D6B4D6B4D6B6D6B4D6B4D6B4D6378
:102090004D634D634D632D632D632C632C632C6363
:1020A0000C632C632C5B0C5B0C5B0C5B0C5B0C63A0
:1020B000EC5A0C63EC5AEC5AEC5AEC5AEB5AEB5AC9
:1020C000EC5AEB5ACB5AEB5ACB5ACB5ACB5ACB5A87
:1020D000CB5ACB52CB52AB52AB52AB52AA52AA52B2
:1020E000AB528A528A52AA528A528A528A528A52CF
:1020F0008A528A528A528A528A4A8A4A8A526A4A38
:102100006A4A8A528A4A8A4A8A4A8A4A8A4A8A4A47
:102110008A4AAA52AA52AA52AA528A528A52AA5247
:10212000AA52AA52AA52AB52AB52AA52CB52CB528B
:10213000CB52CB52CB52CB52CB52EB5AEB5ACB5267
:10214000EB5AEB5AEB5AEB5AEB5AEC5AEB5A0C5B44
:102150000C5BEC5A0C5B0C5B0C5B0C5B0C5B2C6340
:102160002C632C632C632C632C632D632D632D63F4
:102170002D634D634D634D632C636D6B6D6B2D63F0
:102180002C632C630C638A52C6398110A218042177
:102190002421242986310421042145290421E32016
:1021A000C318C3180321E320C318E320E320E3206E
:1021B000E320042124294531653103210321E32053
:1021C000A218A218A2188210821082108210611028
:1021D00081106110A2106108200841086108C2182E
:1021E000C31845294529E320E318A218E318A639A6
:1021F00089520C630C636E6B8E738E6B8E6B8E6B61
:102200008E6B8E6B6D6B6E6B8E6B6E6B6E6B6D6BA8
:102210006E6B6E6B6D6B6D6B6D6B6D6B4D6B4D6B3C
:102220004D634D634D634D634D634D632D632C636F
:102230002C632C632C632C632C630C5B0C5B0C5B9E
:102240000C5B0C630C630C5B0C5BEC5AEC5AEC5AA9
:10225000EB5AEB5AEB5AEB5AEB5ACB5ACB5ACB52BE
:10226000CB52CB5ACB5ACB52CB52AB52AB52AA52D7
:10227000AB52AA528A528A52AA52AA528A528A52FD
:102280008A528A528A528A528A528A528A526A4A96
:102290006A4A8A528A4A8A4A8A4A8A4A8A4A8A4AB6
:1022A000AA52AA528A4AAA52AA52AA52AA52AA5276
:1022B000AA52AA52AA52AB52AB52AB52CB52CB52F9
:1022C000CB52CB52CB52CB52CB52CB52EB5AEB5AD6
:1022D000EB5AEB5AEC5AEB5AEC5AEC5AEC5A0C5BB0
:1022E0000C5B0C5B0C5B0C5B0C5B2C632C632C633E
:1022F0002C632C632C632D632D634D634D634D6301
:102300004D634D634D636D6B4D634D638E6B6D6BB4
:102310000C63AB522C63A6398110C31845292529BB
:102320002421452924212421452924292429042143
:102330000421242982106110C318C318A21082102E
:10234000E31844294429242924292429E320C318F3
:10235000A218C318C2188210821082108210821034
:10236000A210A2108210A21861106108A210C21857
:10237000E318242924292421E318E318C318C218D8
:1023800065298A522C632D634D6BAE73AE73AE73A9
:102390006E6B6E6B8E6B8E6B8E6B8E6B8E6B8E6BB5
:1023A0008E6B6E6B8E6B6E6B6E6B6D6B6D6B6D6B28
:1023B0006D6B4D634D634D634D634D634D634D6375
:1023C0002D632C632C632C632C632C632C632C5B9C
:1023D0000C630C630C630C5B0C63EC5AEC5AEC5A08
:1023E000EC5AEB5AEC5AEB5AEB5AEB5AEB5ACB5AE3
:1023F000CB52CB5ACB5ACB5ACB5ACB52AB52AB5215
:10240000AB52AB52AA52AA52AA52AA528A528A522A
:102410008A528A528A528A528A528A528A4A8A4AEC
:102420008A4A8A528A4A8A4A8A4A8A4A8A4A8A4A04
:10243000AA52AA52AA52AA52AA52AA52AA52AA52BC
:10244000AA52AA52AB52AB52CB52CB52CB52CB5226
:10245000CB52CB52CB52CB52EB5AEB5AEB5AEB5AF4
:10246000EB5AEB5AEB5AEC5AEC5A0C5BEC5A0C5BFD
:102470000C5B0C5B0C5B0C5B0C5B2C632C632C63AC
:102480002C632D632D634D634D634D634D634D632D
:102490004D634D636D6B6D6B4D6B4D6B2C636D6B55
:1024A000CA5A2C6385316110A21804210421242901
:1024B0004529E318452945292429452904210321D3
:1024C000E3204108A210C3180421042945298631BC
:1024D00065312429442944290321C3200321E32011
:1024E000E320611061108210611041084108611001
:1024F0006110A21861108210A21061086108A21078
:10250000C318E318E420E318E320A210C318A318AB
:10251000A2104529CB5A2D634D6B4D6B6D6B8E6BA5
:10252000AE73AE738E6B8E6B8E6B8E6B8E6B8E6B93
:102530008E6B8E6B8E6B8E738E6B6D6B8E6B6D6B0D
:102540006D6B6D6B4D6B6D6B4D634D6B4D634D6383
:102550004D634D634D632C632C632C632C632C63A0
:102560000C630C630C630C630C630C5B0C5BEC5A2C
:10257000EC5AEC5AEB5AEB5AEB5AEB5AEB5ACB5A51
:10258000CB5ACB5ACB5ACB5ACB52CB52CB52AB5263
:10259000AB52AA52AB52AA52AA52AA52AA528A5279
:1025A0008A528A528A528A52AA528A528A528A522B
:1025B0008A4A8A528A4A8A4A8A4A8A4A8A4AAA524B
:1025C0008A4AAA52AA52AA52AA52AA52AA52AA5253
:1025D000AA52AB52AB52AB52CB52CB52CB52CB5294
:1025E000CB52CB52CB5AEB5AEB5AEB5AEB5AEB5A33
:1025F000EB5AEC5AEC5AEC5AEC5AEC5A0C5B0C5B6A
:102600000C5B0C5B0C5B2C632C632C632C632C63CA
:102610002C632D634D634D634D634D634D634D637B
:102620006D6B6D6B6D6B6D6B4D6B6D6B4D6BCB5ADD
:102630000C5BA6398110A318E3200421452904214D
:10264000E420653186316531042104210421C2185A
:10265000821004216529A6398531653185392429FF
:1026600024294431E320C218E320A218611061102C
:102670008210E32081104108611081106110611007
:1026800061088210811061106110A2186110611040
:10269000A218E32025294529E420C31882108210BE
:1026A000C318A21024296D6B0C630C5B6D6B6E6BF1
:1026B000AE738E6B8E6B8E6B8E6B8E6B8E6B8E6B2A
:1026C0008E6B8E6B8E6B8E6B8E6B8E6B8E6B8E6B42
:1026D0008E6B6D6B6D6B6D6B6D6B4D6B4D634D6389
:1026E0004D634D634D632D634D632C632C632C63ED
:1026F0002C630C630C630C630C5B0C630C5B0C5B5A
:102700000C63EC5AEC5AEB5AEB5AEC5AEB5ACB5A94
:10271000EB5ACB5ACB5ACB5ACB5ACB52CB52CB5289
:10272000AB52AA52AB52AA52AA52AA52AA528A52E7
:102730008A528A528A528A528A528A528A528A52B9
:102740008A4A8A528A4A8A4A8A4A8A4AAA528A4AB9
:10275000AA52AA52AA52AA52AA52AA52AA52AA5299
:10276000AB52AB52AB52AB52CB52CB52CB52CB5201
:10277000CB52CB5AEB5ACB5AEB5AEB5AEB5AEB5A99
:10278000EC5AEB5A0C5B0C5B0C5B0C5B0C5B0C5B54
:102790000C5B0C5B2C632C632C632C632D632C6310
:1027A0002C634D634D634D634D636D6B6D6B6D6B52
:1027B0006D6B6D6B6D6B8E6B6D6B6E6B0C63CB5A53
:1027C00007426110C318E318242145292429042154
:1027D0006531A6390421452925292429E32004212E
:1027E0006531A63165316531A63965312429242941
:1027F000E320C320E320C218A218A2108210C2183E
:1028000082108210E320C318A210811061104008CA
:1028100082108110811061106110811082104108B6
:102820008210A218042166312429E318C318A218C3
:102830008210C218C21803210C634D6B2D63EB5A32
:102840004D6B8E73AF73AF73AF73AF73AE73AE7305
:102850008E6BAE738E6BAE738E6B8E6B8E6B8E6B60
:102860008E6B6E6B6E6B6D6B6D6B6D6B6D6B4D63AD
:102870004D634D634D634D634D634D632D632C6319
:102880002C632C632C632C632C5B0C5B0C630C5B48
:102890000C5B0C5BEC5AEC5AEC5AEB5AEB5AEB5AC9
:1028A000EB5ACB5AEB5ACB5ACB5ACB5ACB5ACB52C8
:1028B000CB52AB52AA52AA52AA52AA52AA52AA5216
:1028C000AA52AA528A528A528A528A528A528A52E8
:1028D0008A52AA528A4A8A4A8A4AAA52AA52AA52B0
:1028E000AA52AA52AA52AA52AA52AA52AA52AA5208
:1028F000AA52AB52AB52CB52CB52CB52CB52CB5251
:10290000CB52EB52EB5AEB5AEB5AEB5AEB5AEC5ACE
:10291000EB5A0C5B0C5B0C5B0C5B0C5B0C5B0C5BA1
:102920000C5B2C632C632C632C632C634D634D6315
:102930004D634D634D634D634D636D6B6D6B6D6B9F
:102940006D6B6E6B6D6B8E6B6D6B0C63CB52694AEE
:102950008110A218C31804214529E32024298631B7
:1029600065310421863165314529242924294529E9
:1029700045296631A6398639653124292429242937
:1029800044294429E320E320A218C318C318821065
:10299000A2188110811082106110A2188218611093
:1029A0008210A210821081108210611082106110BA
:1029B00061086110A218C320653165310421A31894
:1029C000C318A210C218A2188631CB5A0C63AF7379
:1029D0004D6B4D6BCF73AE73AE73AE73AF73AE739F
:1029E000AE73AE73AE73AE73AE738E6BAE738E6B2F
:1029F0008E6B8E6B8E6B6E6B6E6B6E6B6D6B6D6BB1
:102A00006D6B4D6B4D634D634D634D634D632D6336
:102A10002D632C632C630C632C632C630C5B0C63A5
:102A20000C630C630C5B0C5BEC5AEC5AEC5AEB5AE3
:102A3000EB5AEB5AEB5ACB5ACB5ACB5ACB5ACB5A0E
:102A4000CB5AAB52AB52AB52AB52AB52AB52AB5276
:102A5000AA52AA52AA52AA52AA528A528A528A52F6
:102A60008A528A528A4A8A4A8A4AAA52AA528A4A66
:102A7000AA52AA52AA52AA52AA52AA52AB52AB5274
:102A8000AB52AB52CB52CB52CB52CB52CB52CB529E
:102A9000EB5AEB5AEB5AEB5AEB5AEC5AEC5AEC5A0B
:102AA000EC5A0C5B0C5B0C5B0C5B0C5B0C5B2C63E7
:102AB0002C632C632C632C632C632D634D634D635B
:102AC0004D634D634D634D636D6B6D6B6D6B6D6BE6
:102AD0006E6B8E6B6E6B8E730C630C63CA5AA2188E
:102AE000A218C31824292421C3186531653145294A
:102AF00045296531452986314529242965316531C6
:102B0000C639A6392429242965316531453144293E
:102B1000E320C318C218A218C318A218A218C31819
:102B2000A218A21882106110821082106110A218DF
:102B30008210821082108210A218821061108110FF
:102B400061088210C218C318C318E3206531E3205E
:102B500061108210A218A2188210E7392C632C632E
:102B60008E6B0C632D63CF73CF73AE73AE73AE7386
:102B7000AE73AF73CF73AF73AF73AE73AE73AE7329
:102B80008E6B8E738E6B8E6B6E6B8E6B6D6B6D6BD7
:102B90006D6B6D6B6D6B4D634D634D6B4D634D6335
:102BA0002D632D632D632C632C632C632C630C63CA
:102BB0000C630C630C630C5BEC5A0C5BEC5AEC5A28
:102BC000EB5AEC5AEB5AEB5ACB5ACB5ACB5ACB5A5C
:102BD000CB5ACB52AB52AB52AB52AB52AB52AA52C6
:102BE000AA52AA52AA528A528A52AA528A528A5285
:102BF0008A528A528A4A8A4AAA528A4A8A4AAA52D5
:102C0000AA52AA52AA52AA52AA52AA52AA52AB52E3
:102C1000AB52AB52CB52CB52CB52CB52CB52EB5AE4
:102C2000EB5ACB5AEB5AEB5AEC5AEB5AEC5AEC5A99
:102C3000EC5A0C5B0C5B0C5B0C5B0C5B0C5B2C6355
:102C40002C632C632C632C634D634D634D634D6388
:102C50004D636D6B6D6B6D6B6D6B6D6B6D6B6E6BDB
:102C60008E6B6E6B8E6B6D6B0C63AA522429821077
:102C7000A2180421E420E318242145290421452930
:102C8000452965318531863144298531A639C641CA
:102C9000A63965318639A639653185312429E32085
:102CA000C32004210421E320C318A218A218611034
:102CB00082108210A2188210811081108110A2103F
:102CC000A218A2188110A218A218E3208210A2183C
:102CD00061104108A218E32025292429042145294F
:102CE000E3188210410881108210E3208A526D6B34
:102CF000AE738E734D6B8E73F07BCF73CF73CF73C8
:102D0000CF73CF73CF73CF73CF73AF73AF73AE7314
:102D1000AE73AE738E6B8E6B8E6B8E6B8E6B8E6B9B
:102D20006E6B6E6B6D6B6D6B6D634D6B4D6B4D6351
:102D30004D634D634D634D632D632C630C630C63D6
:102D40000C630C630C630C630C5B0C5B0C5BEC5A4C
:102D5000EC5AEB5AEC5AEB5ACB5AEB5ACB5ACB5AA9
:102D6000CB5ACB5ACB5AAB52AB52AB52AB52AB5203
:102D7000AA52AA52AA52AA528A52AA52AA528A52B3
:102D80008A528A528A4A8A4AAA528A4AAA528A4A43
:102D9000AA52AA52AA52AA52AA52AA52AB52AB5251
:102DA000AB52CB52CB52CB52CB52CB52CB52CB525B
:102DB000EB5AEB5AEB5AEB5AEC5AEB5A0C5B0C5BA6
:102DC0000C5B0C5B0C5B0C5B0C5B0C5B2C632C637B
:102DD0002C634D632C634D634D634D634D636D6B8D
:102DE0004D636D6B6D6B6D6B6E6B6D6B6E6B8E6B28
:102DF0008E6B8E6B8E6B8E6BAA52A63182108210F8
:102E0000E320C31804210421242904214529042195
:102E100065316531653104216531A639A6396531E1
:102E20006531A639242945314429E320C3182429D2
:102E30004531E320C318A218C318C318C318E320F0
:102E4000A21882108210A218C218A218A218A218E2
:102E5000A218C218E320A218C218C218C218A218D9
:102E6000611041086110A218042145292429042178
:102E7000E320C218A21861108210A21804218A52FD
:102E80002D63EF7BAF730C5BCF7BEF7BEF7BEF7B37
:102E9000CF73CF73CF73CF73CF73CF73CF73CF7322
:102EA000AF73AE73AE73AE73AE738E6B8E6B8E6B91
:102EB0008E6B6E6B6E6B6D6B6E6B4D6B4D6B4D6B8E
:102EC0004D634D634D634D634D632D632C632C63E4
:102ED0002C630C630C630C630C630C5B0C5BEC5A93
:102EE000EC5AEC5AEB5AEB5AEB5ACB5ACB5ACB5A18
:102EF000CB5ACB5ACB5ACB5AAB52AB52AB52AB524A
:102F0000AB52AA52AA52AA52AA52AA528A528A5220
:102F10008A528A528A4AAA52AA528A4AAA52AA5261
:102F2000AA52AA52AA52AA52AB52AB52CB52AB529D
:102F3000CB52CB52CB52CB52CB52CB52CB52EB5A81
:102F4000EB5AEB5AEC5AEC5AEB5AEC5A0C5B0C5B12
:102F50000C630C630C5B0C5B2C632C632C632D6388
:102F60004D632D634D634D634D634D636D6B4D63D9
:102F70006D6B6D6B6D6B6D6B8E6B6E6B8E6B8E6B2D
:102F80008E6B8E6B8E6B2C632842A2108218A21857
:102F9000C318E32004214529242945292429653122
:102FA0008631653145296531C739C639A63965315C
:102FB000863145296531452965314429452904294A
:102FC000E320E320C2188210821081108108821051
:102FD0008210821082108210A218A218C318C3187F
:102FE000E320E3204429E320E320032103214429B3
:102FF0002429A218821041086110821004210421A2
:10300000E320C318A21882108110A2108218042194
:103010006D6B4D6BAF7331840C63EF7BCF73CF73EC
:10302000EF7BEF7BEF7BEF7BEF7BEF7BCF73CF73A0
:10303000CF73AF73AF73AF73AF73AE738E6B8E6BB3
:103040008E6B8E6B8E6B8E6B8E6B6D6B6D6B6D6B1B
:103050004D6B4D634D6B4D634D634D634D632D6300
:103060002C632C630C630C630C630C630C63EC5AD1
:103070000C5BEC5AEC5AEB5AEB5AEB5ACB5AEB5A24
:10308000EB5ACB5ACB5ACB52CB5ACB52CB52AB5238
:10309000AB52AB52AA52AA52AA52AA528A528A528E
:1030A0008A52AA528A4AAA528A4AAA52AA52AA52B0
:1030B000AA52AA52AA52AA52AB52AB52AB52CB520C
:1030C000CB52CB52CB52CB52CB52EB5AEB52EB5AA8
:1030D000EB5AEB5AEC5AEC5A0C5B0C5B0C5B0C5B3E
:1030E0000C630C630C632C632C632C632C632C63C8
:1030F0004D634D634D634D634D636D6B6D6B6D6BD8
:103100006D6B6D6B6D6B8E6B8E6B8E6B8E6B8E6B5A
:10311000AE6BAF736D6B8952E320A218A318C3186E
:10312000E32024290321452904212429452945296F
:10313000663145296531C741A639A63986318631C0
:103140006531653145312429242944290329042185
:10315000C31882108210A218C318E320E320E320D2
:10316000C318C318E320C3200321032104292431F9
:103170000321653145316539453145314431853962
:10318000E641A639A2188210A210C318C318C318AA
:103190002421C318C318821081108110C218A218EC
:1031A000A6398E6B2D631084CF738E6B107CF07BF1
:1031B000F07BF07BEF7BEF7BEF7BEF7BEF7BCF73E5
:1031C000CF73CF73CF73CF73AF73AE73AE73AE7372
:1031D000AE738E6B8E6B8E6B8E6B6E6B8E6B6D6B40
:1031E0006D6B4D6B6D6B4D6B4D6B4D6B4D6B4D63E7
:1031F0002D632C632C630C630C630C630C630C63F6
:103200000C630C5BEC5AEC5AEC5AEB5AEB5AEB5A47
:10321000CB5ACB5ACB5ACB5ACB5ACB5AAB52CB52B6
:10322000AB52AB52AB52AA52AA52AA528A52AA52DB
:103230008A52AA52AA528A4A8A4AAA52AA52AA521E
:10324000AA52AA52AA52AA52AB52AB52AB52CB527A
:10325000CB52CB52CB52CB52CB52EB5AEB5AEB5A0E
:10326000EB5AEB5AEC5A0C5B0C5B0C5B0C5B0C5B8B
:103270000C630C630C632C632C632C632D634D6314
:103280004D634D634D634D634D636D6B6D6B6D6B46
:103290006D6B8E6B8E6B6E6B8E6B8E6B8E6B8E6BA7
:1032A000AE73CF73AA52A6398210A218C318E320B6
:1032B000E320E32024292429E320653186314529B0
:1032C00045296531A639A639A63986318639653151
:1032D00065312429242986312429C320E320821042
:1032E000C320042924290421E3200421442924297A
:1032F000242945292429242924296531A6398539F9
:103300008539A539074AA639C741084AE741074A1E
:10331000895AE7416531E320E318E42004210421C0
:10332000C318E320C318A218811082108210A218BB
:10333000C318EC628E730C6351844D633184107C2E
:10334000107C107C107C107CF07BEF7BF07BF07BA2
:10335000F07BCF73CF73CF73CF73CF73AF73AE7375
:10336000AF73AE738E6B8E6B8E6B8E6B8E6B6E6B64
:103370006E6B6E6B6D6B6D6B4D6B4D6B4D6B4D6B0B
:103380004D632D632D632C632C630C630C630C6302
:103390000C630C5B0C5BEC5AEC5AEC5AEB5AEB5A94
:1033A000EB5ACB5ACB5ACB5ACB5ACB5ACB5ACB52DD
:1033B000AB52AB52AA52AA52AA52AA528A528A526B
:1033C0008A52AA52AA528A4AAA52AA52AA52AA5265
:1033D000AA52AA52AB52AB52CB52CB52CB52CB5287
:1033E000CB52CB52CB52CB52CB52EB5ACB5AEB5A9D
:1033F000EC5AEB5AEC5A0C5B0C5B0C5B0C5B0C5BF9
:103400000C630C630C632C632C632C632D634D6382
:103410004D6B4D634D636D6B6D6B6D6B6D6B6E6B5B
:103420006E6B8E6B8E6B8E6B8E6B8E6BAE73AE73A4
:10343000CF730C63CB5A8110A218C318C318042190
:10344000E32024290321E320653124294429452947
:1034500066318631A63986316631A63965316631E5
:1034600024296531863124292429E3200429453182
:103470000429E320E3202429242924290429443190
:10348000653124318539853944318539C641C64194
:10349000E6414852685A2852685ACA62685A2C73E0
:1034A000AA62C641A63944290421042124292429D9
:1034B0000421C318A218A218A21081108210821031
:1034C000821044296D6B8E732C63EF7BCF73318434
:1034D0003084107C107C107C107C107C107CF07B85
:1034E000F07BF07BF07BF07BCF73CF73CF73CF7328
:1034F000AF73AF73AF73AE738E6B8E6B8E6B8E6B61
:103500008E6B6E6B6E6B6D6B6D6B6D6B4D6B4D6B18
:103510004D6B4D632D632D632C632C630C630C6327
:103520000C630C630C63EC5AEC5AEC5AEC5AEB5AF1
:10353000EB5AEB5ACB5ACB5ACB5ACB5ACB5ACB5A23
:10354000CB52AB52AB52AB52AA52AA52AA52AA5277
:103550008A52AA528A4A8A4AAA52AA52AA52AA52FB
:10356000AA52AA52AB52CB52CB52CB52CB52CB52D5
:10357000CB52CB52CB52CB52EB5AEB5AEB5AEB5AC3
:10358000EC5AEC5A0C5B0C5B0C5B0C5B0C5B0C5B45
:103590000C632C632C632C632D634D634D634D636F
:1035A0004D6B4D6B4D636D6B6D6B6D6B8E6B6E6BA1
:1035B0006E6B8E6B8E6B8E6BAE73AE738E6BAE73EB
:1035C000AF73EB5A65298210A218C318E320E320D9
:1035D000E320E320E32024290421032104212429DA
:1035E0002429E7416531863965316531853103210B
:1035F00065316531E3200429E3200321C318A210BB
:10360000E31824292429653186398531C641853955
:10361000E7412852695A695A2752C6410752685AE7
:103620006852685A0B73685A2B7B8C83EA6A2B7337
:103630002852074AC6418639653124290421E320EE
:10364000C318C318C318A218A21881108210A21898
:103650008210A21869522C6310842C638E6B5184E3
:103660003184308430843184107C107C107C107C58
:10367000107CF07BF07BF07BF07BEF73CF73CF732C
:10368000CF73CF73AF73AF73AE73AE738E6BAE6B1E
:103690008E6B8E6B8E6B8E6B6E6B6D6B6D6B6D6BE5
:1036A0004D6B4D634D6B4D632C632C632C632C630E
:1036B0000C630C630C5B0C5BEC5AEC5AEC5AEB5A47
:1036C000EC5AEB5AEB5ACB5ACB5ACB5ACB5ACB5279
:1036D000CB52AB52AA52AA52AA52AA52AA52AA52E8
:1036E000AA52AA52AA528A4AAA52AA52AA52AA5222
:1036F000AB52AA52AB52AB52CB52CB52CB52CB5263
:10370000CB52CB52CB52EB5AEB5AEB5AEB5AEC5A08
:103710000C5BEC5A0C5B0C5B0C5B0C5B0C5B0C5B92
:103720002C632C632D632D632D634D634D634D63BB
:103730004D634D6B6D6B6D6B6E6B6E6B8E6B6E6BED
:103740006E6B8E6BAE738E6BAE73AE738E6BCF7310
:103750000C6369526110A218C218C318C318E32081
:10376000E320E32003210421E32003210421452950
:10377000A639653165318639653145316531A639FE
:103780004531E32024292429C318C318E3204529FF
:103790004529A639284A485248526852895A8962AE
:1037A0008962A9620B738D834F9C4B7B0A730B73E9
:1037B0000B7B89628C8B2B7BAC8BCD8B2B7B274A35
:1037C000E741C641A64165312429E320E320E320F7
:1037D000C318A218A2188210A21081108210A21879
:1037E000C218A2180429EB5A2C638E73CB5A10848A
:1037F0003184107C30843184318431843084107C75
:10380000107C107C107CF07BF07BF07BF07BEF7BFE
:10381000CF73CF73CF73CF73CF73AF73AF738F7318
:103820008E6B8E6B8E6B8E6B6E6B6E6B6D6B6D6B52
:103830004D6B6D634D634D6B4D632D632C632C633A
:103840000C632C5B0C5B0C630C5BEC5A0C5BEC5A52
:10385000EC5AEB5ACB5ACB5ACB5ACB5ACB5ACB5AFF
:10386000AB52AB52AB52AB52AA52AB52AA52AA5273
:10387000AA52AB52AA52AA52AA52AA52AA52AA5267
:10388000AB52AB52CB52CB52CB52CB52CB52CB5290
:10389000EB52EB5AEB5AEB5AEB5AEB5AEC5AEC5A06
:1038A000EC5A0C5B0C5B0C5B0C5B2C630C5B2C63B1
:1038B0002C632C632C634D634D634D634D634D63EB
:1038C0004D636D6B6D6B6E6B6E6B8E6B8E6B6E6B1B
:1038D0008E738E6BAE73AE73AE73AE73CF73AE7307
:1038E000EB5A0321A218C218A218C318E320E32040
:1038F000C318E3200421E320C3180421042945311F
:1039000085396531653186394529453186394531F5
:1039100045314429C3208218E3204529A639E749C7
:10392000CA62EB6AAE8BCE8B4F9C0E94EE93EE93F5
:10393000AD8B8D8B8C8B8C8B2E9C90AC0E9C4FA466
:103940004FA490AC2B7BAC8B4FA40E944C7B0B7391
:10395000485A074A853965312429E3208210A21884
:10396000C318A218611061106108811081108210C3
:10397000A218E320A21828428E738E732D638E73D3
:10398000518C518431843084107C31843084308473
:1039900031843084107C107C107C107CF07BF07BB8
:1039A000F07BCF73CF73CF73CF73CF73AF73AF731E
:1039B000AF738E6BAE738E6B8E6B6E6B6E6B6E6B4E
:1039C0006D6B4D6B6D6B4D6B4D634D634D632D6337
:1039D0002C630C630C630C630C630C630C5B0C5B5F
:1039E000EC5AEC5AEB5AEB5AEB5AEB5ACB5ACB5AED
:1039F000CB5ACB52CB52AB52AB52AA52AB52AA5279
:103A0000AA52AB52AA52AA52AA52AA52AA52AA52D5
:103A1000AB52AB52CB52CB52CB52CB52CB52CB52FE
:103A2000CB52CB5AEB5AEB5AEB5AEB5AEC5A0C5B93
:103A30000C5B0C5B0C5B0C5B0C5B2C630C5B2C63FE
:103A40002C632D632D634D634D634D634D636D6B2F
:103A50006D6B6D6B6E6B8E6B6E6B8E6B8E6B8E6B20
:103A6000AE73AE73AE73AF73CF73CF73EF7B4D6B2B
:103A70002842A2108210C318C218C318C318C31852
:103A8000E320C318E320A218E320C318E3208639FB
:103A900045316531A639242986398639443186393C
:103AA00024298218C3184531C641074A4852EB6A97
:103AB0000E9491A4D1B433BD73C594CDD5D574CD36
:103AC00094CD33C5D1B4B1B4B1B4D1BC32C5F2BC1C
:103AD00094CD12BD2FA46FAC0EA4CD93AD8BCA6A4A
:103AE000895A074AC64185392429E3200421E32065
:103AF00082106110811061106108611061108210E4
:103B0000A2108210C3200321EB5AAF738E73CA52E6
:103B1000308451845184518451845184107C318487
:103B200031843184107C107C107C107C107CF07B04
:103B3000F07BF07BF07BCF73CF73CF73CF73AF731A
:103B4000AF73AF73AE73AE738E6B8E6B8E6B8E6B0B
:103B50006E6B6E6B6D6B4D6B4D6B4D6B4D634D6353
:103B60002C632C630C632C630C630C630C630C637D
:103B7000EC5AEC5AEB5AEC5AEB5AEB5AEB5AEB5A1A
:103B8000CB5ACB5ACB5ACB52AB52AB52AB52AA52B6
:103B9000AA52AB52AA52AA52AA52AA52AA52AB5243
:103BA000AB52CB52CB52CB52CB52CB52CB52CB524D
:103BB000CB52EB5AEB5AEB5AEB5AEB5AEB5A0C5BE3
:103BC0000C5B0C5B0C5B0C5B2C632C632C632D631C
:103BD0002D632D634D634D636D6B4D636D6B6D6B2D
:103BE0006D6B6D6B8E6B8E6B8E6B8E6B6E6BAE7347
:103BF000AE73AE73CF73CF73CF73CF73EF7BAA5215
:103C0000E32082108210A218C318C318C318E3203F
:103C1000A218C318C218A218E320C31824296531BA
:103C20004531653145296539863945316539C320C6
:103C3000C2204431E7492852AA62CA6A6C7B70A448
:103C400012BDB5CD37DE57DE78E637DE57E637E60C
:103C500037DE37DE37E694CD53CD13C533C512C5F5
:103C6000B5D533C5B1B46FACAD93EA7A2B7B0A738B
:103C7000685AE74985396531653965310421C318CA
:103C8000A218821061106110611061106108610852
:103C90008210C318A218E320C6396D6BCF7B8E73D8
:103CA0000C63EF7B1084518451845184518431849E
:103CB000318451843184318411843084107C107CAF
:103CC000107CF07BF07BF07BCF73CF73CF73CF731F
:103CD000CF73CF73AF73AF73AE738E6B8E6B8E6B10
:103CE0008E6B6E6B6D6B6D6B6D6B4D6B4D6B4D635A
:103CF0004D632D632C632C632C630C630C630C638A
:103D00000C63EC5AEC5AEC5AEC5AEB5AEB5ACB5A7D
:103D1000CB5ACB5ACB5ACB5AAB52AB52AB52AB521B
:103D2000AA52AB52AA52AA52AA52AA52AA52AA52B2
:103D3000CB52CB52CB52CB52CB52CB52CB52CB529B
:103D4000EB5AEB5AEB5AEB5AEB5AEB5AEC5A0C5B28
:103D50000C5B0C5B0C5B0C5B0C5B2C632C634D6392
:103D60002D634D634D634D634D636D6B6D6B6D6B7B
:103D70006E6B6E6B8E6B8E6B8E6B8E738E6BAF738A
:103D8000AF73CF73CF73CF73CF73F07B4D6BA63907
:103D900082108210E320A218A218C318C320A21810
:103DA000C318C3188210C318C318E32086314529ED
:103DB000452986316531653165316531E320242936
:103DC000C649A96A2B7B8C8BAD9390A412B594C580
:103DD00016D678E678E6B9EEB9EEB9EE98EE99EE39
:103DE00098EE78EE57E636DED5D5B5D5B5D5B5D54E
:103DF000B5D594D533C590B470AC0E9C4EA44B7B16
:103E0000C96A8962074AA63986394429C318C31882
:103E1000A218A218A2188210611061086108610836
:103E200061088218A218E32024298952F07BEF7BD5
:103E3000EB5AEF7B1084318451845184728C728CE4
:103E40003184518451845184318431843084107C94
:103E5000107C107C107CF07BF07BF07BEF73CF73D9
:103E6000CF73CF73AF73AF73AF73AE738E6B8E6B55
:103E70008E6B8E6B6E6B6D6B6E6B6D6B4D6B4D6B7E
:103E80004D6B4D6B2D632D632C630C630C630C63C6
:103E90000C630C5BEC5AEC5AEB5AEC5AEB5ACB5ACB
:103EA000CB5ACB5ACB5ACB52CB52AB52AB52AB5272
:103EB000AA52AB52AA52AA52AA52AA52AB52CB52FF
:103EC000AB52CB52CB52CB52CB52CB52CB52EB5A02
:103ED000EB5AEB5AEB5AEB5AEB5A0C5B0C5B0C5B54
:103EE0000C5B0C5B2C632C632C632D634D634D6367
:103EF0004D634D634D636D6B6D6B6D6B6E6B6E6B78
:103F00006E6B8E6B8E6B8E6B8E6BAE738E6BAF73B8
:103F1000CF73CF73CF73CF73EF7BCF73EB5AA218EE
:103F20008210C318A218A218A218C318A218A218A7
:103F3000C318A218A218C318C31824294529242974
:103F400065316531653165314531E3208539A96ACF
:103F5000EE9B6FB4F2C453CD74CDD5CD36DE78E68A
:103F600098E6B9EEFAEEFAF6FAF6FAF6D9EED9EEE6
:103F7000D9EEB9F698EE57E637E6F6DDD5D5B5D5E4
:103F800094CDB5D553CD94CDF2BCB0BC90B4ED9BDF
:103F9000E9728862074AE74165394431E320A21893
:103FA0006110611041088210821081108110610837
:103FB00061086110A218C3180421C739CB5A318493
:103FC000CF7BEF7BCF7B107C518C718C5184728CBA
:103FD000728C318451845184518451843184308471
:103FE0003084107C107C107C107CF07BF07BF07BAC
:103FF000EF73CF73CF73CF73AF73AF73AF73AE7312
:10400000AE738E6B8E6B8E6B6D6B6D6B6D6B4D6B64
:104010004D6B4D632D632D632C630C632C630C631C
:104020000C630C630C5BEC5AEC5AEC5AEB5AEB5AEF
:10403000CB5ACB5ACB5ACB5ACB52CB5ACB5AAB5288
:10404000AA52AB52AA52AA52AA52AB52AA52AB528D
:10405000AB52CB52CB52CB52CB52CB5ACB5AEB5A60
:10406000EB5AEB5AEB5AEB5AEC5A0C5BEC5A0C5BE2
:104070000C5B0C5B2C632C632C632D632D634D63F5
:104080004D634D634D636D6B6D6B6D6B6E6B6E6BE6
:104090008E6B8E6B8E6B8E6BAE73AE73AE73CF7397
:1040A000CF73CF73CF73EF73CF7B8E73A63961104D
:1040B0008210C318A218A218A218C318C318A218F5
:1040C0008210A218A218A218A218653124298531DD
:1040D0006531453145316531C320C6416C8B12C510
:1040E000D5DDF6E516E6D5DD37E698EEB9EEB9EEA4
:1040F000DAEEFAF6FAF61BF71AF7FAF6FAF6FAF625
:10410000FAEEFAF6B9EE98EE58EE17E616DED5D5C9
:10411000D5D594CDB5D595D512C553CD4FACD2BC20
:10412000ED93C972A96A0752853944294429452962
:10413000A2186210410820006108821061088210F4
:104140008210410861108210C3182429294A6D6B1E
:10415000928C4D6B51843084F07B728C7184928C84
:10416000728C5184718C718C51845184518431844E
:10417000118431843084107C107C107C107CF07BA6
:10418000EF7BEF7BEF7BCF73CF73AF73AF73AE7308
:10419000AE738E738E736E6B8E6B6E6B6E6B6D6BA0
:1041A0004D6B4D6B4D634D632D632D632C630C6321
:1041B0000C630C630C630C5BEC5AEC5AEB5AEB5A35
:1041C000EB5ACB5ACB5ACB5ACB5ACB5ACB52CB52B7
:1041D000AB52CB52AA52AA52AA52AB52AB52AB52DA
:1041E000CB52CB52CB52CB5ACB52CB52CB5AEB5AAF
:1041F000EB5AEB5AEB5AEC5A0C5B0C5B0C5B0C5B0E
:104200000C5B0C5B2C632C632D632D634D634D6342
:104210004D634D636D6B6D6B6D6B6D6B6E6B8E6B0C
:104220008E6B8E6B8E6BAE73AF73AF73AE73CF73DB
:10423000CF73CF73EF7B107C6D6BAE73C318A21876
:10424000C218A218A2188210C320A218A218A2187D
:104250008210A2188210C218042924294429653129
:10426000453186394531E31885416C8B74D537EE7D
:1042700037E657E698EE99EEB9EEDAEEDAF6FAF6A8
:104280001AF71BF71BF73BFF1BF71BF71BF71BF777
:10429000FBF6DAF6D9F698EE78EE57E616DEF6DD9E
:1042A000D5D5B4D594D5B5D553C574CDB0BCD1BC96
:1042B000B0B4AD8BCA6A685AC641A63944312429C4
:1042C00004218210821062104108410882104110BE
:1042D0004108821061106110A2180421A639AA5267
:1042E000CF731084AF73F07B9294F07B518C728CFF
:1042F000518451845184728C728C718C51843184BC
:104300003184318431841084107C107C107C107CCA
:10431000F07BF07BF07BCF73CF73CF73CF73CF7312
:10432000AE73AE73AE738E6B8E6B8E6B6E6B6D6B8E
:104330006D6B4D6B4D6B4D6B2D632D632D630C635E
:104340000C630C630C630C630C5BEC5AEC5AEC5A78
:10435000EB5AEB5AEB5ACB5ACB5ACB5ACB5ACB52DD
:10436000AB52AB52AA52AA52AA52AB52CB52CB5228
:10437000CB52CB52CB5ACB5AEB52CB52EB5AEB5AD5
:10438000EB5AEB5AEB5AEC5A0C5B0C5B0C5B0C5B7C
:104390002C632C630C5B2C632D634D634D634D6369
:1043A0004D636D6B6D6B6D6B8E6B8E6B8E6B8E6BF1
:1043B0008E6BAE73AF73AF73CF73CF73AE73CF73B8
:1043C000EF7BEF7BF07BAE7311840842811082108B
:1043D000C318C3188210A218A218A218C2188110FC
:1043E000A2188210A21803210321E32045312429B9
:1043F00065396531E3286531CA7A12CD37E678EE42
:1044000078EE78EEB9F6D9F6FAF6FAF6FAF61BF780
:104410001BF71BF73BFF3BFF3BFF1BF71BF71BF794
:104420001BF7FAF6DAF6B9F698EE57E617E6F6DD78
:10443000D5D5D5DDD5D574CD53CD74D511C54FA403
:104440000FA42F9C2B7BCA6A4852C6418539242968
:104450002429A31861108210410861082108611005
:1044600061104108611082108110C3180421A6391F
:104470008E6B518CCF733184CF73928CEF7BB2945F
:10448000928C718C518451845184728C718C5184C2
:10449000518451845184318411843084107C107C87
:1044A000107C107CF07BF07BCF73CF73CF73CF7316
:1044B000CF73AF73AF73AE73AE6B8E6B8E736E6B69
:1044C0006D6B6D6B4D6B4D6B4D632D632D632C636D
:1044D0002C630C630C630C630C63EC5AEC5AEC5ABF
:1044E000EB5AEB5ACB5AEB5ACB5ACB5ACB5ACB524C
:1044F000CB52CB5AAA52AA52AA52AB52CB52CB524F
:10450000CB52CB5ACB5ACB5AEB52CB52EB5AEB5A3B
:10451000EB5AEC5AEC5A0C5B0C5B0C5B0C5B0C5BC7
:104520002C632C632C632D634D634D634D634D638E
:104530006D6B6D6B6D6B8E6B8E6B8E6B8E6B8E6B16
:10454000AE73AE73AE73AE73CF73CF73AE73F07BD7
:10455000EF7BF07B107C8E731084A2188210C2183F
:10456000C318C2188210C3188210A218A218A21869
:10457000A218C218E320E320E3204429452945314D
:1045800045310429042907528FB416E657EE78EE18
:1045900098EEB9F6FAF6FAF61AF71BF71BF73BFF97
:1045A0003BFF3BFF3CFF3CFF3BFF3BFF3BFF3BFF39
:1045B0001BF7FAF6FAF6B9F698EE78EE37E617E654
:1045C000F6DDF5DDD5DDB5D5D5DD53CD12C54FAC66
:1045D000AD93EE932B7BA96A485AC64186392429AC
:1045E000A318C318A21061086210410841084108CD
:1045F000410861104008611082108210C218AA5A46
:1046000028423084AF735184518C518C728C518408
:10461000B394728C928C928C928C51843184728C73
:10462000718C518451845184318431843184107C63
:10463000107C107C107CF07BF07BF07BEF7BCF73E9
:10464000CF73CF73AF73AE73AE738E6B8E6B8E6B97
:104650006E6B6D6B6D6B6D6B4D6B4D634D632D6351
:104660002C630C630C630C630C630C5B0C5BEC5AEB
:10467000EC5AEB5AEB5ACB5ACB5ACB5ACB5ACB5AB1
:10468000CB52CB5AAB52AA52AB52CB52CB52CB529B
:10469000CB52EB52CB52CB5AEB52EB5AEB5AEC5A71
:1046A000EC5AEB5A0C5B0C5B0C5B0C5B0C5B2C63ED
:1046B0000C5B2C632C634D634D634D636D6B4D63DD
:1046C0006D6B6D6B6E6B8E6B8E6B8E6BAE73AE7334
:1046D000AE73AF73AE73CF73CF73EF7BCF73EF7BDC
:1046E000F07B107C8E6B5184CB5A6110A218C318DA
:1046F000C218A218A218C318A218A218A2188210D1
:10470000C3188210C218E320E32024292429653924
:10471000E320242965396C93B4DD57EE78EE78EE0A
:1047200099F6D9F6FAF61AF71BF73BFF3BFF3BFF6A
:104730005CFF5CFF5CFF3CFF3BFF3BFF3BFF3BFF45
:104740003BFF1AF7FAF6D9F6B9F678EE57EE37E6E8
:1047500017E616E6F5DDB5D5F6DD94D5B0BCD1BCCF
:10476000CD9B0A732B7BEA72685A074A8639242943
:10477000E32082108210821061084108410841083C
:10478000610881108110410861108110A21865290B
:1047900008428E73728C107C928CCF7BD394718C78
:1047A000B394928CB294B294928C928C928C318409
:1047B000728C718C71845184518451843184318420
:1047C0003084107C107C107C107CF07BF07BF07BC4
:1047D000EF73CF73CF73CF73AF73AE738E6B8E6B7C
:1047E0008E6B6E6B6E6B6D6B4D6B4D6B4D634D6376
:1047F0002D632C632C630C630C630C630C630C5BE8
:10480000EC5AEB5AEC5AEB5AEB5ACB5ACB5ACB5ADE
:10481000CB5ACB5AAB52AB52CB52CB52CB52CB52E0
:10482000CB52CB52CB52EB52EB5AEB5AEB5AEC5ADF
:10483000EB5A0C5B0C5B0C5B0C5B0C5B0C5B2C633A
:104840002C632C634D634D634D636D6B6D6B6D6BB2
:104850006D6B6E6B8E6B8E6B8E6BAE73AE73AE7359
:10486000AF73AF73CF73CF73CF73EF7BEF7BCF7328
:10487000EF7BF07B8E6B518404218210C218C31829
:10488000C218A218C318C218A218A218A218C318D6
:104890008210A218C21824292429E3286531E328AC
:1048A00024294531A97212CD16E657EE98EEB9F6D5
:1048B000B9F6DAF61BF71BF73BFF1BF73CFF5CFF73
:1048C0003CFF5CFF5CFF5CFF3CFF5CFF5CFF3BFF71
:1048D0003BFF1BF71AF7D9F6B9EE78EE57EE57E61D
:1048E00037E637E616E6F6DDF5DDB5DD32CD4FAC61
:1048F0000EA46C83CA6A0B73AA62285286394429B3
:10490000E320C318821082106210621061088210C6
:104910004108411041086110410841086110E3203D
:104920000321AA5A92948E73F49C107C718CF39C90
:10493000718CB294B394B394B394928C928C928C05
:104940005184728C728C718C518451845184318465
:10495000318411843084107C107C107CF07BEF7BE0
:10496000EF7BEF7BCF73CF73CF73AE73AE738E736A
:104970008E738E6B6E6B6D6B6D6B4D6B4D6B4D6B8C
:104980002D632D632C632C630C630C630C5B0C6335
:10499000EC5AEC5AEC5AEB5AEB5AEB5ACB5ACB5A2C
:1049A000CB5AEB5AAB52AB52AB52CB52CB52CB524F
:1049B000CB52CB52CB52EB5AEB5AEB5AEC5AEC5A45
:1049C000EC5A0C5B0C5B0C5B0C5B0C5B2C632C6380
:1049D0002D632D634D634D634D636D6B6D6B6D6B1F
:1049E0006E6B8E6B8E6B8E6B8E6BAE73AF73AF73A5
:1049F000AF73CF73CF73CF73CF73F07BEF7B107C2C
:104A0000107CAF73107C4D6B8218A218A218E320A3
:104A1000A218A218A218A218A218C320A218C32074
:104A2000A218C2182429E320042945314531E3287E
:104A30004431C6514EACF5E537EE78EE98EEB9F656
:104A4000D9F6DAF61BF73BFF3BFF3BFF3CFF5CFF71
:104A50003CFF5CFF5CFF5CFF5CFF5CFF5CFF5CFF9E
:104A60003BFF1BF71AF7D9F6B9F698EE78EE58EE39
:104A700057E637E617E616E6F5DDF5DD94D5D1BC49
:104A8000D1BCAD934C7B89628A5A4952E741863941
:104A90004529E420C3188210A210821082106110F0
:104AA0002108200841084108611061106110A21816
:104AB000A2188531AE733184928CD394CF7BF39C52
:104AC000728CB394D394B394B3949294B294928C22
:104AD000728C728C728C728C728C51845184518461
:104AE00051843184318431843084107C107C107C7A
:104AF000F07BEF7BEF7BCF73CF73CF73AF73AE736E
:104B00008E738E6B8E6B8E6B6E6B6D6B6D6B4D6B78
:104B10004D6B4D632C632C630C632C630C630C6333
:104B20000C63EC5AEC5AEC5AEB5AEB5AEB5AEB5A30
:104B3000CB5ACB5AAB52CB52CB52CB52CB52CB529D
:104B4000CB52CB52EB5AEB5AEB5AEB5AEC5AEC5A8B
:104B50000C5B0C5B0C5B0C5B0C5B0C5B2C632C63CD
:104B60002D634D634D634D636D6B6D6B6D6B6E6B44
:104B70006E6B8E738E6B8E6BAE73AE73CF73CF73A3
:104B8000CF73CF73CF73CF73EF7BF07B107C107C30
:104B90003084AF73318486318210C318A218E320A9
:104BA000A210A218C318A218C318A218C320C320A9
:104BB000A2180321E32004290329243103294531C4
:104BC00064316C9353D536E657EE78F699F6D9F6FC
:104BD000DAF6FAF61BF73BFF3BFF3BFF5CFF5CFF9F
:104BE0005CFF5CFF5CFF5CFF5CFF5CFF5CFF5CFFED
:104BF0003BFF1BF71AF7D9F6B9F699EE78EE78EE87
:104C000078EE57EE37E636E6F6DDD5DDD5DD53CD69
:104C1000F2C4D1BC6C832B736952695AE741653188
:104C20000421C318A31062108210A2188210611010
:104C300061104108611061104108611081108110FC
:104C4000A218C3184429518C3184728C92943084F8
:104C5000B394B294D394D394B394B394B394B294DE
:104C6000B294718C928C928C728C728C718C5184F7
:104C7000518451845184318431843084107C107C7F
:104C8000107CF07BF07BF07BCF73CF73CF73AF736F
:104C9000AE73AE738E6B8E6B6E6B6D6B6D6B6D6B7F
:104CA0004D6B4D6B4D632D632D632C630C630C6357
:104CB0000C630C630C5BEC5AEC5AEB5AEB5AEB5A54
:104CC000EB5AEB5AAB52CB52CB52CB52EB52CB52AC
:104CD000CB52EB5AEB5AEB5AEB5AEC5AEB5A0C5BB1
:104CE0000C5B0C5B0C5B0C5B0C5B2C632D632D6312
:104CF0004D634D634D634D636D6B6E6B8E6B8E6B51
:104D00008E6B8E6B8E6BAE73AE73AF73CF73CF73D0
:104D1000CF73CF73EF7BF07B107C107C107C107C0A
:104D20003184CF7BEF7B04218210A218E320C218CC
:104D3000C218C318C318A218C318A218A218821048
:104D4000E420E3200321E3282429242924294431D1
:104D5000896AB0BCD5DD36E657EE98EED9F6DAF6BC
:104D6000FAF6FAF61BF73BFF3BFF3BFF5CFF3CFF0D
:104D70005CFF5CFF5CFF5CFF5CFF5CFF5CFF5CFF5B
:104D80003CFF1BF71AF7D9F6B9F6B9F678EE78EECC
:104D900078EE78EE57EE37E636E6F5DDF5DDB4D59C
:104DA00053CDD1BCF2BC2B7BCA624952084A863132
:104DB0002529A318C3180421C318A210621061107A
:104DC0006108210841086108410861106110A218BA
:104DD000C218242944294429518CD394D394107C9B
:104DE0009294928CF49CF39CD394D394B394B39404
:104DF000B394728C928C928C728C928C728C728C1A
:104E0000718C718451845184318431841184107C7B
:104E1000107C107CF07BF07BEF7BCF73CF73CF7374
:104E2000AF73AE73AE738E738E736E6B6D6B6D6B93
:104E30004D6B4D6B4D6B2D632D632D632C630C639C
:104E40000C630C630C5BEC5AEB5AEB5AEB5AEB5AC3
:104E5000EB5AEB5AAB52CB52CB5ACB5ACB52CB522A
:104E6000EB5AEB5AEB5AEB5AEB5AEC5AEC5AEC5A17
:104E70000C5B0C5B0C5B2C630C5B2C632D634D6338
:104E80004D634D636D6B6D6B6D6B6E6B8E6B8E6B6F
:104E90008E6BAE73AE73AE73AF73CF73CF73EF7BA6
:104EA000EF7BCF73F07BF07BF07B107C107C308449
:104EB0003184F07B0B63E320A218A2180321C318EE
:104EC000C318C320C318C320C320A218A218C3202C
:104ED000C320032124290429042924294431C64953
:104EE000EDA394D516E637EE78EE99F6D9F6FAF6F4
:104EF000FAF61AF71BF73BFF3BFF5CFF5CFF5CFF1A
:104F00005CFF5CFF5CFF5CFF7CFF7CFF7CFF3CFF89
:104F10003BFF3BFF1AF7FAF6D9F6B9EE98EE98EE9A
:104F200078EE78EE58EE57E636E616E6D5DDD5DDB6
:104F3000B5DDF2C470AC90AC4C7B48520742C73927
:104F400086316629E42082106210611061106108C8
:104F50006108610820004108400841086110811083
:104F60008210E3200421284A24293084359DD394DB
:104F70001084D394928CF39CF394D394D394B394ED
:104F8000D394928CB394928C928C928C928C728CDF
:104F9000728C5184518431843184318431843184E0
:104FA0003084107C107CF07BF07BEF7BEF7BCF7349
:104FB000CF73CF73AE738E738E736E6B8E6B6E6B9F
:104FC0006D6B6D6B4D6B4D6B4D632D632C632C6363
:104FD0000C630C5B0C63EC5AEC5AEB5AEC5AEC5A2F
:104FE000EB5AEB5AAB52CB52CB5ACB5ACB5ACB5A89
:104FF000CB5ACB5AEB5AEB5AEC5AEC5AEC5A0C5BA4
:105000000C5B0C5B0C630C632C632C632C634D6397
:105010004D634D6B4D6B6D6B6D6B6E6B8E6B8E6BF5
:105020008E738E73AF73CF73CF73CF73EF7BEF7BC2
:10503000EF7BCF73F07B107C107C30843184318423
:10504000F07B10840842A218C218A218C318A21834
:10505000C318C320E320E320A218A218E320C3183A
:1050600003212429042904292429E32865390A7BFA
:10507000F1C4F6DD37E678EE98F6B9F6F9F6FAF609
:105080001BF71BF73BFF3BFF3BFF5CFF5CFF5CFF3D
:105090005CFF5CFF5CFF5CFF5CFF5CFF5CFF5CFF38
:1050A0003BFF1BF7FAF6FAF6F9F6F9F698F698EEE2
:1050B00098EE78EE78EE58EE37E616E6F5DDF5DD9B
:1050C00074D553CDB1B4AD938C838962E749653112
:1050D000E320A21882106108610861086108610874
:1050E0006210410841082000811041084108611008
:1050F0006110A21804212429494A8639518C359D12
:10510000518C728CF39CD394D394F49CF39CD394E1
:10511000D394928CB394B394928C928C728C728C44
:10512000728C728C728C718C518451843184308475
:10513000107C107C107C107C107CF07BEF7BEF7B74
:10514000CF73CF73AE73AF73AE738E738E736E6B9C
:105150006E6B6D6B6D6B4D6B4D6B2D632C630C63C8
:105160000C630C630C630C5BEC5AEC5AEB5AEC5A74
:10517000EB5AEB5AAB52CB5ACB5ACB5ACB5ACB5AEF
:10518000EB5AEB5AEB5AEB5AEC5AEC5A0C5B0C5BB1
:105190000C5B0C5B0C632C632C632D634D634D63C4
:1051A0004D634D6B6E6B6D6B8E6B8E6B8E6BAE73DA
:1051B000AE73AE73AF73CF73CF73EF7BEF7BF07BC8
:1051C000F07BEF7B107C107C107C31843184518427
:1051D000F07B8E73A639A218C218C318C320A21878
:1051E000C318A218C318E320C218C218A218A21824
:1051F00024290429E328042903292429485A2EAC08
:1052000094DD16E657E698EEB9F6D9F6FAF6FAF610
:105210001BF71BF71BF73BFF3BFF3BFF5CFF5CFFF4
:105220005CFF5CFF5CFF5CFF5CFF5CFF5CFF5CFFA6
:105230003BFF3BFF1AF7FAF6FAF6F9F6B9F698EEE5
:10524000B9F698EE58EE58EE57E616E6F5DDD5DDE0
:1052500094D573D532C52FA44C7BAA62E749853912
:105260000429C318C318A318A318A210A210610818
:1052700061106108410861086108610861106110EE
:1052800061108210C3180429E3208A520742CF7BA1
:10529000D39C107C14A5149D149DB394F49CF39C92
:1052A000D394928CB394B294B394B294B294928CFB
:1052B000928C728C928C728C718C5184518451843A
:1052C00031843184107C107C107C107CF07BEF7B6F
:1052D000EF7BCF73CF73CF73AF738E73AE738E7359
:1052E0006E6B6E6B6D6B6D6B4D6B4D6B2D632C63CD
:1052F0002C630C630C630C630C5BEC5AEC5AEC5A99
:10530000EB5AEC5ACB52CB5ACB5ACB5ACB5AEB5A1C
:10531000EB5AEB5AEB5A0C5B0C5B0C5B0C5B0C5BBB
:105320000C5B0C5B2C632C632C634D634D634D63F2
:105330004D636E6B6E6B8E6B8E6B8E6BAE73AE73DE
:10534000AE73CF73CF73CF73CF73EF7BF07B107CD3
:10535000107C107C107C1084118431845184718401
:10536000F07BCB5A0421A218C318C218E320A2185C
:10537000C318A218E320A218C318E3208210A218B1
:1053800004292429042904290429C6416B9312C540
:10539000F6DD57E678EE99F6B9F6FAF6FAF61AF768
:1053A0001BF71BF71BF73BFF3CFF3CFF5CFF5CFF61
:1053B0005CFF5CFF5CFF5CFF5CFF5CFF5CFF5CFF15
:1053C0005CFF3BFF1BF71AF71AF7FAF6F9F6D9EE6E
:1053D000B9EE78EE78EE78EE58EE16E6F5DDD5DD2E
:1053E00094D573CD53CDB0B4EE93EA6A895A85391A
:1053F00065310421C31882106210410861086210EF
:105400004108411041086108610861106110611094
:10541000A2188110A218C320C739C3184952C6392F
:10542000CF7B718CB394F49C149D149DF39CD39406
:10543000928CF49CF39CF39CD394D394B394B29445
:10544000B294928C928C928C728C718C5184518417
:10545000518431843184107C107C107C107C107C51
:10546000F07BEF7BEF7BCF73AE73AE73AE738E7357
:105470008E736E6B6D6B6D6B4D6B4D6B4D6B2D63EA
:105480002C630C630C630C630C630C5BEC5AEC5ADE
:10549000EB5AEC5ACB52CB52CB5ACB5ACB5AEB5A93
:1054A000EB5AEB5AEC5AEC5AEC5A0C5B0C5B0C5B6B
:1054B0002C632C632C632C632D634D634D634D6310
:1054C0006D6B6D6B8E6B8E738E73AE6BAE73AE73D6
:1054D000AF73CF73CF73EF7BF07BF07B107C107CCE
:1054E000107C107C107C318431845184518451842F
:1054F000CF7B0842A218C318A218A218C318A2187A
:10550000A218A218C320A218C3188210811004295F
:10551000042904290429E3204531A96A0EAC73D576
:1055200016E657EE98EEB9F6D9F6FAF6FAF6FAF666
:105530001BF71BF71BF73BFF3BFF3CFF5CFF5CFFD0
:105540007CFF5CFF5CFF5CFF5CFF7CFF5CFF5CFF43
:105550003CFF3BFF1BF71BF7FAF61AF7FAF6F9EEDA
:10556000B9EE98EE78EE78EE58EE37E616E6F6DD10
:10557000B5DD94D573CD53CDD1B46C8BCA6A074ACF
:105580004431C3186210611062106108410841087B
:1055900041084108410841086110611081108210E2
:1055A0008110A218C3180321E320C639A21828428B
:1055B000284AEF7BCF7B35A5159D928C728C718C20
:1055C000518C728C718C518451845184B294928C20
:1055D000928C928C928C928C928C728C728C718C3C
:1055E0005184518451843184107C107C107C107C57
:1055F000F07BEF7BEF7BAF73AF73CF73AE738E73C4
:105600008E738E6B6E6B6D6B6D6B4D6B4D6B2D6317
:105610002D632D630C632C630C630C630C5B0C63B8
:10562000EC5AEC5ACB52CB52CB5ACB5ACB5AEB5A00
:10563000EB5AEC5AEC5AEC5A0C5B0C5B0C5B0C5BB7
:105640002C632C632C632D634D634D634D636D6B35
:105650006D6B8E6B8E6B8E738E73AE73AE73CF73FA
:10566000CF73CF73EF7BF07BF07BF07B107C117CF2
:1056700031843184107C318451845184318451844B
:105680004D6B6531A218C3188210C318A218C21836
:105690008218C218C320C320A2188210C21804297D
:1056A000E328042903210329C6416B83B1BCF5DD3E
:1056B00016E657EE98EEB9F6D9F6FAF6FAF61BF7B3
:1056C0001BF73BFF1BF71BF73BFF3CFF5CFF5CFF3F
:1056D0007CFF7CFF5CFF5CFF7CFF5CFF7CFF5CFF72
:1056E0005CFF3BFF3BFF1BF71AF71AF7FAF6F9EEE0
:1056F000D9EE98EE98EE78EE58EE57EE16E6F6DD17
:10570000B5DD94D573CD32CDB1B42E9C89622852CB
:10571000A639E320A21062106108610861106108D7
:10572000410820086108410861086110A218821030
:1057300082108210A218E3206531A6390842C318EE
:10574000084269520C632C6B928CF49CF49CD394A9
:10575000F49CF39CF39CD394B394B3945184928CB3
:10576000928C518431843184728C728C728C728CE4
:10577000728C518451845184318430843084107C03
:10578000107CEF7BEF7BCF73CF73CF73AF73AE73B0
:105790008E738E738E6B6E6B6D6B6D6B4D6B4D6B15
:1057A0002D632D632C632C630C630C630C630C63FF
:1057B000EC5AEC5ACB5ACB5ACB5AEB5AEB5AEB5A1F
:1057C000EC5AEB5AEC5AEC5A0C5B0C5B0C5B2C5B06
:1057D0002C632C632D634D634D634D636D6B6D6B5B
:1057E0006E6B8E6B8E6B8E6BAE73AE73CF73CF732F
:1057F000CF73EF7BEF7BF07B107C107C107C3084D0
:1058000031843184107C518430843184728C928C48
:10581000284AC318C318A218A218C318A218A2189D
:10582000A218C218C218C218A218A218E320E320B6
:1058300004290429C3202429A96A0E9C94D516E6BC
:1058400037E677EE98EED9EEF9F6FAF61AF71BF787
:105850001BF73BFF1BF73BFF3BFF3CFF3CFF3CFFC5
:105860007CFF7CFF5CFF5CFF7CFF7CFF5CFF5CFFE0
:105870005CFF3BFF3BFF1BF71AF71AF7FAF6F9EE4E
:10588000D9EEB9EEB8EE78EE58EE57E616E6F6DD4C
:10589000D5DDB4D574D553CDD1BC6FAC4B83485254
:1058A00085392429E320A2108210611041084108A3
:1058B000410841084108610861108210821082107D
:1058C000A218A218A218C3182429E741C739074211
:1058D0000321A6394C6B8E73B394D39CD394149D3F
:1058E000D394F39CD394149DF49CF49CD394D394BC
:1058F000D394D394B394928C51843184107C3184AA
:10590000728C728C718C5184518431843184107CFE
:10591000107CF07BCF73F07BCF73CF73AF73AF731B
:105920008E738E738E736E6B6E6B6E6B6D6B4D6B59
:105930004D6B4D632D632C632C630C630C630C5B0C
:10594000EC5AEC5ACB5ACB5ACB5ACB5AEB5AEB5AAD
:10595000EB5AEC5A0C5B0C5B0C5B0C5B0C5B2C632A
:105960002D632D634D634D634D634D636D6B6D6BA7
:105970006E6B8E6B8E6BAE73AE73AF73CF73CF7374
:10598000CF73EF7BF07B107C107C107C31843184F2
:105990003184518431843184718C5184728C30848F
:1059A0008639A218C318C218C218E320A218C21858
:1059B000C218E320E320C2188218C3180321C320B1
:1059C000E3282429C320C6414B8390B4B5DD16E6F5
:1059D00037E698EEB8EED9F6FAF6FAF6FAF61BF7CD
:1059E0003BFF3BFF3BFF3BFF3BFF3CFF5CFF3CFFC4
:1059F0007CFF7CFF5CFF5CFF7CFF7CFF5CFF5CFF4F
:105A00005CFF3BFF3BFF3BFF1AF71AF7FAF6FAF68B
:105A1000D9EEB9EEB8EE78EE58EE57E616E6F6DDBA
:105A2000D5DDB4D594D553CD53CDB0BC4FA4896248
:105A3000A6390421A21861086108410861084108DB
:105A40004108210841084108410862108210821073
:105A5000A218A2188210C218032165316952C739F1
:105A600008422429A6396D6B0B6314A555AD149D0E
:105A7000149DF49C149DF39CF49CF49CF49CB394AE
:105A8000D394D394D394B394B394B394928C718CF1
:105A9000518431843184718C51843184107C3184FF
:105AA000107CF07B107CF07BCF73CF73CF73CF7300
:105AB000AF73AE738E738E738E6B6E6B6D6B4D6B3F
:105AC0004D6B4D6B2D632D632C632C630C5B0C6352
:105AD0000C5B0C63CB5ACB5ACB5AEB5AEB5AEC5AB1
:105AE000EB5A0C5B0C5B0C5B0C5B0C5B2C632C6350
:105AF0002C632D634D634D634D634D636D638E6BFE
:105B00008E738E6B8E6BAE73AF73CF73CF73CF7399
:105B1000F07BF07B107C107C107C308431843184ED
:105B20005184518431845184728C728C928CAE7306
:105B30000429A2188210A218A218C218C218C218EA
:105B4000E320C218C218A218A218C320C320E32061
:105B5000042904290429A962EE9B13C5B5D5F6DDF5
:105B600037E678EEB8EED9F6F9F6FAF61AF71BF73B
:105B70003BFF3BFF3BFF3BFF1BF73BFF3CFF5CFF5B
:105B80005CFF5CFF7CFF7CFF7CFF7CFF5CFF7CFF9D
:105B90005CFF5CFF3BFF1BF7FAF6FAF6FAF6DAEE6B
:105BA000D9EEB9EEB8EE98EE57EE37E616DEF6DD32
:105BB000D5DDD5DD94D594D553CDF1BC4FACAD8BAF
:105BC00048522429A21882106108410800002000D0
:105BD0002000410841084108410861086110821015
:105BE0008210C2188210E320C320E320453189527D
:105BF0006531284AE741E741EF7B4D6BB29435A50B
:105C0000149D34A5F49CF49C149DF39CF49CD394B3
:105C1000F49CD394D394D394B394B394928C928CF5
:105C20003184928C5184107C318451843184F07B96
:105C3000107CF07BF07BEF7BF07BF07BCF7BCF7336
:105C4000CF73AE738E738E738E6B6E6B6D6B6D6B6D
:105C50004D6B4D6B4D634D632C630C630C630C6398
:105C60000C630C63CB5ACB5AEB5AEB5AEB5AEB5AF8
:105C7000EC5A0C5B0C5B0C5B0C630C632C632D63AC
:105C80004D634D634D634D634D6B6D6B6D6B8E6BF3
:105C90008E6B8E6B8E6BAE73CF73CF73CF73F07BC7
:105CA000EF7BF07B107C107C3084318451845184F4
:105CB0005184718C51845184728C928CB28C8A5A2A
:105CC000E320C318A218A218A218C318E320A21830
:105CD000C320E320A218A218C218E320C320C320C7
:105CE0002429E32065390A7B0E9C13C5B5D5F6DD62
:105CF00037DE78EE99EED9F6D9F6FAF6FAF61AF713
:105D00001BF73CFF3BFF3BFF3BFF3BFF3CFF5CFFC8
:105D10005CFF7CFF7CFF7CFF5CFF5CFF5CFF5CFF4B
:105D20005CFF3CFF3BF71BF7FAF6FAF6DAEEB9EE4A
:105D3000B9EE98EEB9EE98EE57E617E6F6DDF6DD29
:105D4000D5DDD5DDB4D594D553CD11C5D0BC4EA489
:105D5000C96AC641C218610841084108610861105A
:105D60004108410820004108410861086210821082
:105D7000C318E320C318A218A21824290429A6399D
:105D80000842AA52A6310842AA5A6E73CF7BD39C0E
:105D9000359DF49C149D149DD394F39CD394B3949B
:105DA000D394D394D394F394F394D394928C928C0D
:105DB000B294F07B107C107CAF73CF7B107C51844D
:105DC000318431843084107C107CF07BF07BCF7385
:105DD000CF73CF73AE73AE738E738E736E6B6D6B4A
:105DE0006D6B4D6B4D6B2D632C632D632C632C639E
:105DF0000C630C63CB5ACB5AEB5AEB5AEC5AEB5A66
:105E0000EC5A0C5B0C5B0C5B0C632C632C632C63FB
:105E10004D634D634D636D6B6D6B6E6B8E6B8E6BF7
:105E20008E6BAE73AE73AF73CF73CF73EF7BF07BBC
:105E3000EF7B107C107C30843184518451845184F8
:105E4000718C718C5184728C728C928CD394A63923
:105E5000C2188110C2188210E320A218C218C218FA
:105E6000E3208218C218A218E320A218C218C32087
:105E700003292429A641896ACD93F2BCD5D5F6DD44
:105E800057E698EEB9EEB9EED9F6FAF6FAF61AF741
:105E90003BF73BFF3CFF3BFF1BF73BFF3BFF5CFF40
:105EA0005CFF7CFF7CFF7CFF5CFF5CFF5CFF5CFFBA
:105EB0005CFF3CFF3BFFFBF6FAF6DAEEB9EE58DE8C
:105EC00038DEB5D5D5D598EE78EE16DED5DDB5D56C
:105ED000B5D5B5D5B4D594D573CD12C5D0BC4FAC1E
:105EE0006C83E749242982104108410820004108B9
:105EF00041084108200821086108621082106210E0
:105F0000A218C318E320A218E320E3204531032997
:105F1000284AC739494AC73969522D6B2C6B2C6BFB
:105F2000B29476AD55A5159D149D149D149DD394E2
:105F3000F49CF49CD39CB394728C51843184107C77
:105F4000F07B31845184718C728C318451847184E2
:105F5000518431843084107C107CF07BF07BEF7BAB
:105F6000EF73CF73AF73AE738E738E736E6B6E6B96
:105F70006E6B6D6B2D634D634D632D632C630C63F2
:105F80000C630C63EB5ACB5AEB5AEB5AEB5AEC5AB4
:105F90000C5B0C5B0C5B0C5B2C632C632C632D6328
:105FA0004D634D634D636D6B6D6B8E6B8E6B8E6B46
:105FB0008E6BAE73AF73CF73CF73EF7BF07BF07BE1
:105FC000107C107C30843184518451845184718CD4
:105FD000728C5184928C928C518451841084E32071
:105FE000E3206110C318A218C318C318C218C32035
:105FF000A218E320A218C218E320A218C320042983
:10600000E320E320443907520B7B8D8B8D932FAC1B
:1060100012CD73CD16E677EEB8EEDAF6D9F6FAF6CB
:106020001BF71BF73CFF3BFF3BFF3BFF3CFF3CFFED
:106030005CFF5CFF7CFF7CFF5CFF3BF73CFF3CFFB1
:106040005CFF5BF71BF799EE78E658E6B6D554C5CA
:10605000F2BC91B4B1BC70B433CDD5DDB5D595D516
:1060600095D594D5B4D594D553CD32C5D1BC6FACAC
:10607000AC8B685A2429C3186110410841082000DC
:10608000210841086110410861086108611062102F
:1060900082108210C31804210421E3200429452919
:1060A000242986310742C739494ACF7B4D6BEF7BA4
:1060B0002C638E73EF7BD39CF49CF49CD39CB394A1
:1060C000B394518C30843084518C9294B28C928CE5
:1060D000D394B394928C728C728C728C5184318470
:1060E0005184518431843084107C107C107CEF7B8F
:1060F000EF7BCF73CF73AF73AF738E738E738E6B73
:106100006E6B2D634D6B4D6B4D634D632C632C6338
:106110000C630C63CB5AEB5AEB5AEC5AEC5AEC5A20
:106120000C5B0C5B0C5B0C5B2C632C632D634D6375
:106130004D634D636D6B6D6B6E6B8E6B8E6B8E6B8B
:106140008E6BAF73CF73CF73EF7BF07BF07B107CE4
:10615000107C308431845184518451847184728CD8
:10616000728C718C928C928C928CD3946D6BE32098
:10617000A218A218C218E318C318E320C218E3201B
:10618000A218C318A218E320A218C218A220E32064
:10619000E320C3206539275A6962EA722B834B8B4F
:1061A0006B93CDA32EB490C4F2CCD5DD37E6B9F60F
:1061B0001AF71AF73BFF3BFF1BF71BF73BFF3BFFB1
:1061C0003BFF3BFF5CFF3BFF1BF7FBF699EEB9EE95
:1061D00078EE17E653CDB1C491BCCD9B2FA40E9C95
:1061E0000FA4EE9B6C8B0FA48D9B4B932FA433CDF0
:1061F00094D5B5D5B4D594D553CD32C5F1BC8FB4B3
:10620000CD93A9628539A2186210210800004108C7
:10621000200821082000210841086108821082100E
:106220008210A218E320C318E3200421E3202429CC
:10623000042145296531A639CB5AAA5A30846E7398
:10624000928C929434A51084108430849294718C32
:10625000928CD394F49CF394F394928CD394D3942F
:10626000D394B394728CB294728C928C928C51842D
:1062700031845184518431843084107C107C107CB2
:10628000F07BEF7BCF7BCF73AF73AE738E738E6B70
:106290004D6B6E6B6D6B4D6B4D6B2D632D632C6376
:1062A0002C632C63CB5ACB5AEB5AEB5AEC5AEC5A70
:1062B0000C630C630C5B2C632C632C634D634D638C
:1062C0004D636D6B6D6B6D6B8E6B8E6B8E6B8E6BB2
:1062D000AF73CF73CF73CF73F07BF07B107C107CE8
:1062E000107C31843184518451845184728C728C3D
:1062F000928C728C928C928CB294149D284AC31802
:106300006110A218C218C318A218E320A218C3185B
:10631000C320A218A218C2188218C218A220E3280B
:10632000E32803298539285A69628962A96AA97212
:10633000A96AAA6AEA7AEB7ACD9BD1BC32CDD5DDC7
:10634000B9F6FAF61BF71BF71BF71BF71BF71BF742
:106350001BF71BF73BF71BF778E658E6F6DD74CD25
:1063600012C50FA44C8B6C8BEA7A0B730B73AD9335
:106370008D8BCD93CE9B8D938D930A7B89722B8BC6
:10638000B0BC95D594D594D594D552CDF1BCB0B4CC
:106390000D9C2A738539E31882102108200800001B
:1063A0002108200021082008410882108210821054
:1063B0008210C218A218C318A21803212429242964
:1063C000442904212429453104218E73AE738E7330
:1063D0001084B2949294149DF394D394928C9294DA
:1063E000F49C14A5D394D394D394D394B294B2943C
:1063F000928C728C928C728C728C728C728C728C6D
:10640000518431845184318431843084107C107CF7
:10641000107CEF7BCF7BCF73CF73AE738E736E6BBD
:106420008E736E6B6E6B6D6B4D6B4D6B4D632C6332
:106430002C632C63CB5AEB5AEC5AEC5AEC5AEC5ABC
:106440000C5B0C630C632C632C634D634D634D63D9
:106450006D6B6D6B6D6B6E6B8E6B8E6B8E6BAE73CF
:10646000AF73AF73CF73EF7BF07B107C107C107C2D
:1064700011843184518451845184718C728C728C5A
:10648000928C728C9294B394D394D39C4429A2108E
:10649000A2188210C320C320A218E320C218C21879
:1064A000C2188218E320A218C218A218A220E32062
:1064B000E3280852EA72EA7ACA72EA728962495A91
:1064C000695A2852485AA9728C8B4FAC90B474D533
:1064D00016E6D9F6FAF61BF71BFFFAF6FAF61BFFDB
:1064E000FAF61AF7DAF698E617DE94D574CD33CDBE
:1064F00091B46C8B6C8B4C83EA72CA720B7B6C8B85
:106500000EA4CE9BEE9B2FAC0EAC0EA44C8B4C8BF2
:106510004B934FB474D594CD74CD73CD12C5B0B434
:106520002EA48C83E641C318A21041082000210844
:10653000200041084108200821088210A210A2185A
:10654000A2188210A218A218C318C3184429032144
:1065500065316531C6392429042989526D6B518C06
:10656000F07BAF73F39C149D76AD149DD394D394BC
:10657000728C928CD394F39CD394B394928CF49CAD
:10658000D394B394728C928C928C928C928C728CE9
:10659000718C31845184318430843184F07B107C5F
:1065A000107CF07BCF7BCF73CF73AE738E738E7303
:1065B0008E738E736E6B6D6B4D6B4D6B4D6B2D6370
:1065C0002D632D63EB5AEB5AEB5AEC5A0C5B0C63C0
:1065D0000C630C632C632D632C634D634D634D631F
:1065E0006D6B6D6B6D6B8E6B8E6B8E6BAE73AF73F5
:1065F000CF73CF73EF73F07BF07B107C107C318412
:106600003184318451845184728C728C728C928C5E
:10661000928C928CB394D394F494F07BC220C318E0
:10662000A218A218C318C320A218E320C218A218E7
:10663000C2188110E320A218A218A218A218A2184A
:10664000A5410EA453C5B4D5B5D553CDD1B46FACC7
:106650008D8B4B8B6C8BEA7AEA7A6B8B4FB46FBC69
:1066600054D578EED9F61AF7FAF6FAF6FAF6FAF6FB
:10667000FAF6FAF6D9EE16E6B4D553CD32CDB0BC63
:10668000CDA32B8B8C93AD93CD9B50AC75CD17D6F2
:1066900017DE79E678E617DE16DED5D5F6DDB5D558
:1066A00074CDD1BCB0BC53CD73CD53CD32C5B1B4D4
:1066B0004FACAD8B4852E320A2106108210841087D
:1066C00021084108610882106210A218821082100D
:1066D000A218A2188210C218C3180421E3200429AA
:1066E000A6396531A639E74144294529C639AA5A50
:1066F0008E73518CAE73928CF39435A535A575AD20
:1067000035A5149D35A5F39CD394F49CB394D394F0
:10671000928C928C928CD394B3949294928C928C0F
:10672000728C728C518451845184107C3084107C22
:10673000107CF07BF07BCF73AF73AF73AF73AE732E
:106740008E738E736E6B6E6B6D6B6D6B4D6B4D6B75
:106750002D632D63EB5AEC5AEC5A0C5B0C5B0C630B
:106760000C632C632C632D634D634D634D636D6B24
:106770006D6B6E6B6E6B8E6B8E6BAE73AE73AF7339
:10678000CF73CF73F07BF07BF07B107C108431846F
:10679000518451845184728C728C728C928C928C44
:1067A000B294928CD394D394349D8A5AE320E320FC
:1067B0006110C318C318E320A218C218C32082189E
:1067C000C2188218E328A218C218A218A218E3203F
:1067D000285AB1BC73CDD5D516DE16E6F6DDF6DD4A
:1067E00094DD32CD11C54FB40EAC0DA44EAC8FB4B8
:1067F00032CD16E698EED9F6FAF6FAF6DAF6FAF6A9
:10680000FAF6FAF6DAF6D5DD53D532CDD0C44FB468
:106810004EACB0BCB1B453CDD5DD37E6BAF61BF7FC
:10682000FAEEFAEEDAEEDAF6D9EE98EE57E637E659
:10683000D5DDB5D574CD53CD73CD73CD33CDD1BCAE
:106840006FACCD9368520421821082102008200082
:10685000200820084108410820086110A218821071
:10686000C318A2188210C218C318C3182429C32041
:106870004529C739E741284AC7390421284AEB622C
:106880000742CA5AAE733084D39CB39435A5149D85
:1068900034A5F49CD394149DF49CD39435A5728CA8
:1068A000D394D394D394B394B394928CB394928CA2
:1068B000928C928C718C5184318451843084107C00
:1068C0003084107CF07BCF7BCF73CF7BCF73AF73E3
:1068D000AE738E738E738E6B6E6B6D6B4D6B4D6B7B
:1068E0004D634D63EB5AEB5AEC5AEC5A0C630C5B5C
:1068F0000C632C632C634D634D634D634D636D6B73
:106900006E6B6E6B8E6B8E6B8E6BAF73AF73CF7364
:10691000CF73EF73F07BF07B107C107C308431847C
:1069200051845184718C728C728C728C728C928CAA
:10693000B394B28CD394F49C92940329C318A218F4
:106940008210C318C320C320C320C218A218E3209A
:10695000A218C320C220A218A2188110C320E320CD
:10696000EA72D0BC73D5B5DDD5DD15E616E616E6C0
:1069700036E615E6D5DD93D573D511CDF1CC11CD25
:1069800072D5B4DD37E678EE99F6D9F6D9F6FAF68F
:10699000F9F6D9F699EE16E673D552D5F1CC31D584
:1069A00052D593DDD5DD36E678EE98EEB9EE98EE69
:1069B000B9EE99EEB9EE98EE78EE58E637E616E6BF
:1069C000F6DDB5D594D574CD94D573CD53CDF1BC4A
:1069D00090B40E9C48522429A2104108410800009E
:1069E000200020004108410841084108C3188210D6
:1069F000C318C318E320A218C318A2184529E3201E
:106A00006531284A0842EB5A8A52A63904210842C5
:106A10006952E741074A69524D6B9294929414A5CA
:106A200035A555A5F39CD39455A5149D5184F39C8D
:106A3000149DF49CF49CD394D394D394B294928CEC
:106A4000928C728C718C718C518451843184107C45
:106A50003184F07BF07B107CF07BCF73CF7BCF73E6
:106A6000AF73AF738E736E6B8E6B6D6B6D6B4D6BA7
:106A70004D6B4D6BEB5AEB5AEC5AEC5A0C630C5BBA
:106A80002C630C632D634D634D636D6B6D6B6D6B90
:106A90006E6B8E6B8E6B8E6BAE73AF73AF73CF738B
:106AA000CF73F07BF07B107C107C30843184518478
:106AB0005184718C728C928C928C928C5184B39490
:106AC000D394B394D39435A5CB5AE320E420A218F1
:106AD0008210C3200421A318C218E320C218C218D0
:106AE000A218E328A218C218A218A218C320E320F3
:106AF0002B83D0BC73CDB3D5D5DD35E657EE78EE1C
:106B0000B9EE98EE78EE16E6B4DD93D532D511CD18
:106B100031CD73D5B4DD37E678EEB9F6D9F6F9F6AE
:106B2000F9F6B9EE57EEF5E5B4DD73D552D552D589
:106B3000B4DDD5DD37E698EE98EEB9F6B9EE99EE0C
:106B400078EE78EE78EE57EE78EE37E657EE16E60A
:106B5000D5DDD5DDB5D594D594D593D552CD11C518
:106B6000D0BC0EA4685A2529C31841082000200073
:106B7000210820002008410861104108C318A2180C
:106B80008210E320C318E320A218A218032144298D
:106B90004529A6398A52CB5AAF73CB5AE3208A5A79
:106BA0008F7308426952E741284AEB623084718C46
:106BB000B294149D149DB294D394D39435A5F39CB0
:106BC000149D149DF49CF49CF39CD394B294928CE9
:106BD000728C728C728C928C728C718C5184107C41
:106BE000107C107C107C107C107CCF7BCF7BCF7313
:106BF000CF73AF738E738E6B6E6B8E6B6D6B6D6BB5
:106C00004D6B4D6BEB5AEC5A0C5B0C5B0C632C5BC5
:106C10002C632C634D634D634D634D636D6B6E6BE5
:106C20006E6B8E6B8E6BAE73AF73AF73CF73CF73B0
:106C3000EF7BF07B107C107C107C3184518451847C
:106C4000518C728C728C928C928CB294928C928CAD
:106C5000B294D394F49C718C8A52E320E320A2185E
:106C60008218C320E320C318C320E320A218E32026
:106C7000A218C320C220A2188218C218A220E3289A
:106C80002B83B0BCB0BC11CDD1C40EACEDAB8FBC6E
:106C9000F1C416E6FAF6DAF698EEF5E5B4DD53D56A
:106CA00052CD52D5B4DD16E657EE99EEB9F6D9F6C7
:106CB000D9F698EE37E6D5DD93DD93D593DDD5DDB6
:106CC00036E657EE78EEB9EEB9EED9F678EED5DDC8
:106CD00094D5D4DDD5DD36EE16E636E616E6D5DDFE
:106CE000D5DDB4DDB4D594D594D593D552CD32C588
:106CF000D0BC4FA428522529C318611020000000E1
:106D0000210821082108410861086108A218C31858
:106D1000A21881100421C318E320A218A2188631FA
:106D2000242986316952494A2C638E73E839042933
:106D3000CE7B728C494A8E73CB5AAA5A69528E7393
:106D4000CF7B3184F39CF49CB394149D149DD39415
:106D5000F49CF49CD394D394D394B394D394D394C9
:106D6000B394B294928C718C728C728C3184F07B5F
:106D700051843184107C1084107CCF7BEF7BEF73C7
:106D8000CF73CF73AE738E738E738E736E6B6D6BAA
:106D90006D6B4D6BEC5AEC5A0C5B0C630C632C6303
:106DA0002C632D634D634D634D634D636E6B8E6B32
:106DB0008E6B8E6B8E6BAF73AF73AF73CF73EF73DE
:106DC000F07BF07B107C107C3084318451845184C2
:106DD000728C728C728C928CB294B394B394B29481
:106DE000B394928CF39C6D73E7410429C320821005
:106DF0008210E320E320C320C320C320C220C3208D
:106E0000A218E320C220A2188218C22081180329E8
:106E10002B830DA4EA82A549E65985498549476A2D
:106E2000CA7A6B8BCDA332CDB8F698EE17E6D5DDD6
:106E300093D552D593D5F5DD57EE78EEB9F6B9F680
:106E4000D9F6B9F657EED5DDB4DDD4DDF6E537E693
:106E500057E657EE57EE73D54FBC8C9BC97A6772D5
:106E6000A551476A0A8BACA3F1CC53D5B4DDB4DD90
:106E700094D573D574D594D594D593D573CD32C5A7
:106E8000D0BC4FA448524529C32062102000000006
:106E9000200841086108410861106210A218C31857
:106EA000A218A218C318C318C218E320A21886316A
:106EB00085318531284A4D6B10840C63AA5A042110
:106EC000863996B5928C2C6B2C6B2C6B8A528A5A15
:106ED000718C107C3084F49CB394149D34A5149D63
:106EE000F49C149D149D149DD394F49CD394D3943A
:106EF000B394B394928C928C51843084728C30848D
:106F000051845184318410841084F07BF07BF07BB9
:106F1000CF7BCF7BAF73AE738E738E738E6B6E6BC6
:106F20006D6B6D6BEC5A0C5B0C630C630C630C6348
:106F30002D634D634D634D636D6B6D6B6E6B6E6B4F
:106F40008E6B8E6BAF73AF73AF73CF73CF7BF07BF2
:106F5000F07BF07B107C1184318451845184718CDE
:106F6000728C728C928C928CB294B394D394D3948E
:106F7000D394F394CF7BEF7B65310421C218A21820
:106F8000C318E3200321E320E320E320E320A21839
:106F9000A218C318C318C218A218A220A21824311C
:106FA000A972C97AA651443981106210E84165314D
:106FB00061104110C320C972EDAB16E658EE16E61B
:106FC000D5DD73D573D5D4DD37EE98EED9F6FAF664
:106FD000D9F698EE57EEF6E5B5DDD5DD17E617E6FE
:106FE00016E615E64EBC8872443124292429032173
:106FF000E320A2180331E651476A2A936FC4F1CC0B
:1070000032CD32CD93D5B4D5B4DDB4D593D552CDF0
:10701000F1BC6FAC084A0429C31882104108000073
:10702000200061086210410882108210A218C31863
:10703000C318C318A218E320C318C320E320863165
:107040006531A63944292C638E73D3944D6B084265
:107050002429AA5A75AD3184528C2D63518C0C634E
:107060000742718C9294518CF39CF49CF49CB394E1
:10707000149D34A5149DF39C149DF49CF49CF39CE6
:10708000D394928C928C728C928C928C518430849A
:10709000518C518431843184307CF07BF07BF07BE7
:1070A000EF73CF73AF73AE73AE738E738E6B8E6BE5
:1070B0006E6B6D6BEC5AEC5A0C630C632C632C6397
:1070C0002D634D634D634D636D6B6D6B6E6B8E6B9E
:1070D0008E6BAF73AF73AF73CF73CF73EF7BF07BF8
:1070E000107C107C107C318431845184718C718CC3
:1070F000728C928C928CB394B394B394D394D394B3
:10710000F49CD39430848E73A639E320A2188210A5
:10711000C31804210321C218C320E320E3208210F6
:10712000C320E320E320C2208118A220C220854191
:107130006862A6490329A318A649D2A49ADE24317D
:107140004010B073ED5A20084439EDA3D5DDF6DDCB
:1071500017E6B5D573D5B4DD57E6B9EEFAF61AF7EA
:10716000FAF6B9EE57EE15E6F6E516E616E616E679
:10717000D5E5CDA34762294A0429A218179DE84105
:107180008118084A6A52A218E328E659EA82ACA399
:107190002EB4F1C493D5D5DDF5DDD4DDB4D553CD12
:1071A000F1C44FAC2852E420A3188210410800001B
:1071B00020008210A21061108210A318A218C31818
:1071C000E320A218C318E318E320C318C31804214E
:1071D000863186314429AA5A8E7396B5AE732C63D4
:1071E000A639C639AE733084AE7335A50B63308CC7
:1071F0001084284A518C929492943184D39CF49CAC
:10720000928CB294D39C149DF49CD394B394B39475
:10721000B394B394B394B394928C928C718C518444
:107220005184518451843184107C107C107CF07B1B
:10723000F07BCF7BCF7BAF73AE738E738E738E6B11
:107240006E6B6E6B0C5B0C5B0C630C632C632C63C2
:107250002D634D634D636D6B6D6B6D6B8E6B8E6BC4
:107260008E6BAF73AF73CF73CF73CF73F07BF07B45
:10727000107C107C3084318451845184728C728CE7
:10728000928C928CB294B394D394D394D394F49C70
:10729000149D3184728CCA5AC7392429A218C21885
:1072A000C21804290321E320C320C320E320A2182D
:1072B000E320C320C320A220A218A220C220285A63
:1072C000896AE6514431E759EF9B79D658CEC220FE
:1072D000A228E41804218118C741EF836FAC16E699
:1072E00017E616E6B4DDD4DD57E6B9EE1AF73BFF34
:1072F0001AF7D9F678EE57EE57E637E6F6E5D5DD1C
:10730000B0C448624D7339C6C2208118E939C32020
:10731000C220A641DBDE309C896A8549C649897254
:107320008CA311CDB5DD16E6F5DDD4DDD4DD53CD6E
:10733000F1C44FAC2852A318C320042141082108EE
:1073400020008210C3188210A318C318C318C318D2
:10735000C318C318A218E320E320E320A218E320F7
:10736000A639084265310842F07BD39CD39C6D73EB
:10737000AB5A484A0C63B294AE73B294F49C8A52EE
:10738000CF7BCF7B4952F07B728CF49CD39CD39CF7
:10739000F49CF49CD39CD394149D149D149DF49C54
:1073A000F39CD394B394B394B294928C718C518423
:1073B000728C51845184107C30843084107C107C19
:1073C000F07BEF7BCF7BCF7BAE73AE738E738E7310
:1073D0006E6B6E6BEC5A0C630C5B2C632D632C6331
:1073E0004D634D634D636D6B6D6B6E6B8E6B8E6B12
:1073F000AF73AF73CF73CF73CF73EF7BF07B107C22
:10740000107C3184318431845184718C728C928CE3
:10741000928CB294B394B394D394D394F49C149D6B
:10742000728CB394928C48528631E320A2180421C6
:10743000C3202429E320E320E320C320E320A31872
:10744000E320E328C220C320A218C220C220C972B0
:107450008C934B8BC6596449EA8AF7D53CEF853942
:10746000A220CB620C6B4018AF7BDADE2C83B4DD3C
:1074700098EE78EEF5DDF4DD36E6B9EE1BF75BFF4E
:107480003BFFFAF6B9F698EE78EE78EE16E6D4DD24
:107490000A8B4C9338CE3CDFE3288120F59C4431A5
:1074A000C228294A3DE72FB48882EA824B8BEDAB94
:1074B000D1C493D515E615E615E6D5DDD4DD73D533
:1074C000F1C40EA42752A218E32044296108410800
:1074D00021086210A318C318C318C318C318E320E7
:1074E000C318C318E320C318C318E320E320A2186D
:1074F0006531284A242986312C63518C9294107C62
:107500002C63E7390C6BB294929414A5D39CF49C31
:10751000CA5A8E7B8E73EB627294918CD39CF49CCE
:10752000149D55A5F49C35A5D394149D149DF49CED
:10753000F49CF39CD394D394B294718C928C728CFF
:10754000728C728C107C318451843184107C107C5C
:10755000107CF07BF07BCF73CF73AF73AE738E7301
:107560006E6B8E730C5B0C632C632C632D634D630D
:107570004D634D636D6B6D6B6E6B8E6B8E6BAE730F
:10758000AF73AF73CF73CF73EF7BF07B107C107C46
:1075900030843184318451845184728C928C928CE9
:1075A000928CB394B394D394D394F49CF49CD394DA
:1075B000D394518CD394C6394529E320A218C32013
:1075C000E3200429E3202429E328C320A218A218D9
:1075D000E320E320E320C320A218C320E2200A7B9B
:1075E000EDA3CDA3887AC661276A0A9375C5D7BD76
:1075F000E32861186118E74958D674CDC98AE98A29
:107600003BFFD9EE36E615E656E6B9EE3BF77CFFD2
:107610005BFFFAF6B9F6B9F6B9F698EE57EE2EB466
:10762000ADAB6CB3F6CD3CE772946118E228C12093
:107630008118B2A490BC0A93E98A4B9BB0CC73DD4D
:1076400016DE37E616E636E615E6F5DDD4DD73D54B
:10765000D1BC2FACE749C318A21861108110610892
:1076600020086210C318A210C318C318C318C31887
:10767000C218C318A21804210421E318C318C318A0
:107680006531E741A6394529EB62AF73F39CD39C82
:107690004D6B86394D6B308C728C728C55A5F7B55D
:1076A000149DAA5A6D73EB62AE7B0F7C35A5928C4C
:1076B000F49C149D55A5F49C34A5D394149D149D5D
:1076C000F49CF49CD394928C928CB394728C928C94
:1076D000728C51845184318431843184107C107CCB
:1076E000107CF07BF07BCF73CF73AF73AF738E736F
:1076F0008E738E730C5B0C5B2C632C632C632D637D
:107700004D6B6D6B6D6B6D6B6E6B8E6B8E6BAE734D
:10771000AF73AF73CF73EF7BF07BF07B107C107C8B
:107720003084318451845184728C728C928C928C0E
:107730009394B394D394D394F49CF49C149DB294F6
:10774000F49C5184718CC74145290421A218C318A7
:10775000C3202429E320E320E328C218A218C2187A
:1077600003290429E328C320C220A22023292B8334
:107770002EAC6FB4EDAB887AA982CA8A6CA30EAC2A
:107780002FACCE9350AC13C590BC90BCF3C470AC7E
:1077900057EEFAF657EE36E637E6B9EE3BFF7CFFDA
:1077A0005CFFFAF6D9F6D9F6F9F6B9EE77F6ACA39E
:1077B000CDB3ADAB8CA3D1C453C54C836A62EB721D
:1077C0008D93F1CCEDB34B9B6BA390C473D5D5DDFA
:1077D00037E637E636E636E616E6F5DDB4DD73D590
:1077E000D0BCCD9BC64165314110611820084108CD
:1077F00041086110C318C318A318C318C318C318CD
:10780000E320E320E320C2182429C318C320A218D0
:107810002429484A084244292C6BEB62518C14A558
:107820008E7308420C636E6BD394F39C929435A5CF
:10783000B7B535A5CB5AEB620C634D6B518C55AD8A
:10784000B394F49C149D349DF49C149DF49C149D5D
:10785000F39CD394B294D394D394928C728C728C04
:10786000728C928C728C5184518431843184107C5E
:10787000107C107CF07BF07BCF73CF7BAF73AF734A
:107880008E738E730C630C632C632C634D634D6B92
:107890004D6B6D6B6D6B6E6B8E6B8E6BAE73AF7372
:1078A000AF73CF73CF73EF7BF07B107C107C107CB9
:1078B0003184518451845184728C728C928CB29434
:1078C000B394B394D394D394F49C149D928C35A523
:1078D000D394518C108408426531A218C318A218A1
:1078E0000321E320C218E320C320A218A218C21863
:1078F00003292429E328C220C220A22044314B8B33
:107900008FB4B0BCB0BC2EB48BA3ACABACABEEB3FD
:10791000D2CCB1C495D574D553D573D517E637E617
:1079200077EED9F677EE36E636E6D9F65BFF9DFFC1
:107930005CFF1AF7F9F6F9F6F9EEFAF677EE15E6C6
:1079400094DDF2CC12CD33CD74DD33D5B5DDF6E563
:1079500033D54FBC70C490C4F1CCB4DD16E636E626
:1079600037E637E657E636E636E6F5E5B4DD53CDDD
:10797000B0BCAD93E641A5412429A541443141085D
:1079800062104108C318A318C318C318E320C31812
:10799000A218C218C318C218E320E320C318C320DA
:1079A000C32085316A52CB5AE7394D6BAE7B149DAB
:1079B000518C4D6B08426E73F49C14A555A5149D13
:1079C000B6AD18B697ADCB5AAA5A4D6B1084728CCF
:1079D00035A5B394B394B394D49CD394B294928CBD
:1079E000D39CD394D394928C928C928CB394B39472
:1079F000928C928C728C728C51845184318430843C
:107A0000107C107CF07BF07BCF7BCF73AF73AF73B8
:107A1000AE738E730C630C632C634D634D636D63A7
:107A20006D636D6B6D6B6E6B8E6B8E6BAE73AF73C8
:107A3000AF73CF73CF73F07BF07B107C107C3184FD
:107A4000318451845184728C928C928CB294B29411
:107A5000B394D394F394F49C149DD394F49C35A5DF
:107A6000D394728C8E73E741A631C320A218C31839
:107A7000E320E320E3200321C320C220C218A21880
:107A800004290329E328C320A218A22044398C9397
:107A9000B0BC11CD11CD12CDD1C4F1CCD1CCB1CC73
:107AA00032D574D554D554D553D5B4DD37E678EEF8
:107AB000B9F6B9F697EE36E657E6B9EE3BFF9DFF0D
:107AC0005CFFFAF6F9F6F9F61AF71BF7D9F6D9EED4
:107AD00016DE33D5D1CC33D574D574D5D5DDD5DD0F
:107AE00053D553D553D5B4DDF5E536E637E657E63D
:107AF00057EE57EE36EE37EE36E6F6E594DD53CD2B
:107B000090B44B83A64123314B7BA5416539610875
:107B100082104108A210A210C318C318E320E3206A
:107B2000A218C318C318E318C318E320A318C3206E
:107B3000C3202429E7396E6B04291084EB62B294C8
:107B4000F39C2D6B494A6D73518CD39CB7B555ADE1
:107B5000149D76ADB7B596B58A52CF7BCB5A91942A
:107B6000149DF49CB39414A535A5149DD394D39C73
:107B7000D39CD394B394D394F39CD394B394B394FD
:107B8000928C928C728C728C728C51845184318460
:107B90003084107C107CF07BF07BCF7BCF7BCF736D
:107BA000AF73AE730C632C632C632D634D634D6315
:107BB0004D6B6E6B6E6B8E6B8E6BAE73AE73AF7305
:107BC000CF73CF73EF7BF07B107C107C31843184DA
:107BD000518451845184728C728C928C928CB394A7
:107BE000D394D394D394F49CF49CB39435A5149D6E
:107BF000149DB394CB5A24298531E320A218A218EE
:107C0000E320E3200429E320E320C218A218A218ED
:107C100024290429E320E328A218A2202439CD9B9B
:107C2000F1C452CD73D594D594DDB4DDD4DDD4DD6B
:107C3000D5DDF5E5D5DDD6DD17EE57E678EE78EE45
:107C4000B9F6B9F677EE56E657E6B9F65BFF7CFF74
:107C50005CFF1AF71AF7FAF61AF71BF71AF7D9F6B4
:107C600078EE37E637E6F6DD16E616E637E637EE67
:107C700057EE36E657EE56EE36EE57EE57EE57EE27
:107C800078EE57EE57EE37EE16E6F5E5B4D532C589
:107C90004FACEA7285412B7B0A73C649853961086E
:107CA000C318A2108210A210C318C318C318C31897
:107CB000C318E320C320C320E320E320E320C3183C
:107CC000C218032185312C6BA631CF7BAA52729446
:107CD00092946E6BAA5ACB5ACF7BB7B596B596AD38
:107CE00076AD35A576AD35A5B394284A2C6B8E7349
:107CF00055AD149D35A514A5349D75AD149D149DE9
:107D0000149D149D149DF39CD394D394D394B39455
:107D1000B294928C928C928C728C51845184318466
:107D20001184107C107CF07BF07BF07BEF7BCF73B9
:107D3000AF73AE730C632C632D634D634D634D6362
:107D40006E6B6E6B6E6B8E6B8E6BAF73AF73AF7350
:107D5000CF73EF7BF07BF07B107C308431845184D7
:107D600051845184728C728C928C928CB394B394A3
:107D7000D394D394F49C149DD394F49C35A5149D72
:107D8000F49C728CCA5AC7418531E320A218C320E3
:107D9000E3200329C320E320E320C220A218C21855
:107DA00024292429E320E320C220A2202431EEA3A9
:107DB000F1C473D5B4DDF5DDF5E516E657EE57EE03
:107DC00057E657EE58EE57EE78EE98EE98EEB9F685
:107DD000B9F6B9F677EE56E637E6B9F63BFF7CFF23
:107DE0005BFF1AF7F9F6F9F61AF73BF73BFF1AFFB4
:107DF000D9F6B9EE98EE98EE99EEB9F6D9F6D9F62D
:107E0000B9F698F698EE78EE57EE57EE57EE78EE14
:107E100078EE78EE57EE37EE16E6F5E5B4DD12C5EE
:107E20002FA4485A88620A7B06526862C649200815
:107E3000C318C31861108210C318C318C318C3181D
:107E4000C318C318E3200421A218A218A218042101
:107E5000E320E320A6398A52EB5A4D6BAE731084AF
:107E60003184CF7B284A484A8E7355A555ADB7B5A6
:107E7000F7BD55AD96AD76A596AD4D6BCB628E73C5
:107E8000518476ADD39C55AD149D35A535A5149D73
:107E9000149D149D149D149DF49CD394B394D39479
:107EA000B394B294928C928C728C728C5184518463
:107EB00031843184107C107CF07BF07BCF7BCF7BD6
:107EC000AF73AF732C632C634D634D634D634D6B88
:107ED0006D6B6E6B8E6B8E6BAE73AF73AF73CF7358
:107EE000CF73EF7B107C107C107C31843184518403
:107EF0005184718C728C728C928CB294B394D394A2
:107F0000D394F49CF49CF49CD39415A535A535A585
:107F1000B394D3948952A7398531C318A218E320AA
:107F20000321E320C320C320C318C218E320C218D2
:107F300024290429E320E328C22082184439CD9B58
:107F400012C594D5D5E5F6E516E657EE78EE78EE4F
:107F500098EE98EE78EE98EE98EE99F6B9F6D9F696
:107F6000B9F698EE77EE37E657E6B9EE3BFF7CFFC1
:107F70003BF71AF7D9F6D9F61AF73AF73BFF3BFF6A
:107F80001AF7FAF6D9F6D9F6DAF6FAFEFAF6FAF6AA
:107F9000FAF6F9F6B9F698F698F698F678EE98EEBD
:107FA00078EE57EE57EE16E616E6F5E594D5F1C4F1
:107FB0000EA40752EA728862E972686220086110B2
:107FC000A218C318C318A210A318C318C318C31843
:107FD000C318C218C218C3200421C318E320A21872
:107FE000E32004214529EF7B284A494AB39C8E733C
:107FF000D39C1084CB5A6952EC62D39C18BE76ADE8
:10800000D7B5D7B596AD76AD76AD76AD284A69527F
:10801000149DB39435A5F49C55A555A5149D35A57F
:10802000149D149D149DF49CF49CF49CD394B394DF
:10803000D394B394928C928C928C728C718C518468
:1080400051843184107C107C107CF07BF07BCF7BE2
:10805000CF7BCF732C632C634D634D636D634D6B8E
:108060006E6B6E6B8E6B8E6B8E6BAF73AF73CF73ED
:10807000F07BF07B107C107C107C31843184518447
:108080005184728C728C928C928CB394B394D394EE
:10809000F39CF49C149DF39C149D35A535A535A542
:1080A000B29414A5484A8A528531C218A318C2183E
:1080B000E320E320E320E320C220C320E320A21832
:1080C000242904290429E328C22082182431CDA3BD
:1080D000F2C4B4DDF6E516E657EE78EE78EE98F6E3
:1080E000B9F6B9F6B9F6B9F6B9F6D9F6D9F6D9F6B8
:1080F000B9F698EE57E636E657E698EE3BFF5CFF9A
:108100003BF7FAF6F9F6B9F6F9F63AF73AFF3BFF1C
:108110003BFF1AF7FAF6FAF6FAF61AFF1BFF1AF700
:10812000FAF6FAF6D9F6B9F6B9F699F698F698F697
:1081300078F678F657EE37EEF6E5B5DD53D5B0BCF8
:10814000AD93285AEA72EA7A6B8B065200008210CD
:108150008210E318C3188210A210C3188210A2184C
:10816000C318E320C318C3180429E320E320E32045
:10817000E320E3202429EB5ACB5AA639EF7B55ADF7
:108180000C63B3946D6BC641AE7BEF7BB7B5D49CEB
:10819000F8BD96ADB7B576AD35A555A5149DA639F4
:1081A000518C35A5F49CB39435A555A5149DF39C2D
:1081B00035A535A5149D149D149DF49CF49CB39491
:1081C000D394B394B294928C928C728C728C5184AE
:1081D0005184318431841084107C107CF07BEF7BDF
:1081E000CF7BCF732C632C634D634D634D636E6BFC
:1081F0006E6B8E6B8E6BAE73AE73AF73CF73CF73CC
:10820000EF7BF07B107C107C30843184518451846E
:10821000728C728C928C928CB394B394D394D494C9
:10822000F49C149DF49CF49C35A555A555A5149D6E
:10823000D394F49C284A494AC739A218A218C218F4
:10824000E3200321C220E328C220C220C218A218C2
:1082500003292431E3280429C32082180331CDA344
:10826000F1C494D5F6E557EE78EE78F698F6B9F6BF
:10827000B9F6B9F6D9F6D9F6D9F6F9F6FAFED9F67D
:10828000B9F698EE36E616DE37E698EE1BFF5CFF91
:108290003BFF1AF7D9F6B9F6D9F61AF71AF71AF713
:1082A0003BFF3BFF3BFF1AFF1AF71AFF1BFF1BFFA9
:1082B000FAF6FAFED9F6B9F6D9F6B9F698F678F6DE
:1082C00098F678EE57EE16E6F6E5B4DD32CD4FA41B
:1082D0000B7B475A0A7B8B93AC93A2200000A21819
:1082E000A218C318C318C3188210C318C318A21049
:1082F000C318C318E320E320C3182429C320C318DC
:10830000C318A2180429CB5A284A284AAB5A149DEC
:10831000B7B50C63B2944531AE7B718CB7B576AD11
:1083200076ADF8BDD7B5B7B596ADF49CF8BDCB52D8
:10833000CB6275A555ADD49CF49C55A5149D149D98
:1083400035A534A534A534A5149DF49CF49CD39490
:10835000D394D394B394B294928C928C728C718C8B
:108360005184318431843184107C107C107CF07B0A
:10837000CF73CF732D634D634D636D6B6E6B6E6BFF
:108380006E6B8E6B8E6BAF73AF73CF73CF73CF7318
:10839000F07BF07B107C107C318451845184718C93
:1083A000728C928C928C9394B394B394D394F49CE7
:1083B000F49C149D149DF49C35A555A535A555A593
:1083C000D39434A5E741494A084AC320A218C218E9
:1083D000E320C320E320C320C320C320A218C21877
:1083E0000329243103290329A2208218C2208C9357
:1083F000D1BC73D5F6E557EE78EE98F698F6B9F657
:10840000D9F6D9F6DAF6DAF6D9F6FAF6D9F6D9F6D1
:10841000B9F677EE16E6F6DD37E6B9F63BFF5CFF18
:108420001AFFD9F6B9F698EED9F6F9F6FAFE1AFF60
:108430003BFF3BFF5BFF1BF73BFF1BFF3BFF1BFFB4
:108440001BFF1AFFFAFEDAFED9F699F699F699F6AD
:1084500078F658EE57EE16E6D5DD74D5F1BC0E9CD5
:10846000685A0A830DA4CCA3476200000000821062
:108470008210C318C318E318A218C318A318C3188E
:10848000C318C318E320E320E320E3204529C320D9
:10849000C318A218E3208639EB5A0742494ACF7B1A
:1084A00096AD928C2C63C741AA5AEF83B7B596B5A7
:1084B000B6B5F7BDD7B5D7B5F8BDF49C76AD159D6B
:1084C000853914A535A514A575A5149DF49C55A54D
:1084D00035A555A535A535A5149D149D149DF49C71
:1084E000D394D394D394B394928C928C728C728CD8
:1084F000718C518451843184307C1084107CF07BE9
:10850000F07BEF7B2D634D634D634D636D6B6E6B45
:108510008E6B8E6B8E6BAF73AF73CF73CF73F07B3D
:10852000F07BF07B107C1084318451845184728CF8
:10853000728C928C928C9294B394B394D394F49C56
:10854000149D149DF49C149D55A555A555A535A5C0
:10855000F49C34A5484ACB5AC741C320C218C2185C
:10856000C320C320C320C320E320A218C320A21825
:10857000E320042924310329C320821881184B8B5E
:10858000B0BC53D5F6E557EE78F678EE99F6B9F625
:10859000B9F6D9F6DAFEFAFEFAFEFAFED9F6B9F61F
:1085A00078EE56E6F5DDF5DD37E699EE1BF73CFF94
:1085B000FAF6D9F699F698EE98EED9F6D9F61AFFAA
:1085C0003BFF3BFF3BFF3BFF3BFF1BFF3BFF3BFFFB
:1085D0003BFF1BFFFBFED9FEDAFEB9F699F699F6D2
:1085E00078EE58EE37EE16E6B5DD33CD90B4AC93A9
:1085F00007520DA44EACA872000000002000A2108B
:10860000C318C318A210C3180421A318C318E32069
:10861000A318032124290429C320C32004212429C9
:10862000C3208210C3206531AA5208420C63108413
:10863000AF7B96B56D6BC739AE7B494AF7BD96AD3A
:1086400096AD18BEF7BDF8BD96AD96AD55A5B7B5BC
:108650008952CF7B96AD929496AD149D34A5F49C2F
:1086600035A555A555A535A534A5149D149DF49C97
:10867000D394F394D394B3949294928C728C728C1E
:108680005184518451843184107C1084107C107C7E
:10869000F07BEF7B2D634D634D6B6D6B6D6B6E6B84
:1086A0008E6B8E6B8E6BAF73AF73CF73CF73EF7BAD
:1086B000F07B107C107C1184318451845184728C45
:1086C000728C928C928C928CB394D394D394F49CAD
:1086D000149D149DD39435A555A535A576AD34A527
:1086E00034A5149D494A0C636A52A218C320C218CB
:1086F000C220C320C2200429A218A218C320A21895
:108700000429E32004290429C320A22040100A7B65
:1087100070B433D5D5DD37EE78F678EE99F699F664
:10872000B9F6B9F6DAFEFAFEFAFEDAF6D9F699F6F5
:1087300078EE16DED5DDD5DD17E698EE1BFF3BFFA4
:10874000FAF6B9F698F677EE57EE78EED9F6FAFE25
:108750001AFF3BFF3BFF3BFF3BFF3BFF3BFF3BFF6A
:108760003BFF1BFFFBFEFBFEFAFEB9FEB9F699F6D6
:1087700078F658EE17E6F6E594D5F2BC2FA44B83B5
:10878000C6490652A2200000410820082008821095
:10879000E318C318C318A210E3202529C318E32047
:1087A0000429C318E320242904212429C3182429D7
:1087B00045292429A2180429694AEB6208426D73ED
:1087C000518C728CF07BE7418A526952F39C96ADD2
:1087D00096AD18BE18BE18BE76ADD7B576AD35A528
:1087E000928C284AB7B555A535A555A555A596AD82
:1087F00055A555A555A535A535A5149D149D149DC4
:10880000D394F39CD394D394B394B28C928C728C03
:10881000728C51845184318431841084107C107C9A
:10882000F07BF07B2D634D636D636D636E6B6E6BE0
:108830008E6B8E6BAF73AF73CF73CF73CF73F07BD1
:10884000107C107C307C318451845184728C728C09
:10885000928C928CB394B394D394B394F49CF49C80
:10886000149D149D149D55A535A534A576AD55A52B
:10887000F39C55A5284A8E73294AA218C320E320E9
:10888000C320C3200429E320C320C218C320C21878
:10889000E328042904290329A220C3204008686290
:1088A0004FB412CDB5DD17EE58EE78F699F6B9F65D
:1088B000B9F6B9F6DAFEDAFEFAFED9F6D9F6B9F665
:1088C00078EEB4DD73CDD5DDF6E5B9F6FAF63BFF0B
:1088D000FAF699F678EE37EE16E636E6B8EEFAF6E0
:1088E000FAFE1AFF1BFF3BFF3BFF3BFF3BFF3CFF3A
:1088F0003BFF1BFFFBFEFBFEDAFED9F6B9F698F64E
:1089000078F637EE16E6B5DD53CDB1B4ED9BEA72DD
:1089100003210000000000006108410821088210C6
:10892000C318C318A2188210C318C3184529E3201E
:1089300004212429E32024290321E320042182188F
:1089400024292429E320E320A6398A528A528E73EF
:108950009294929435A5284A284ACB62518C9294DD
:10896000B6B5F8BD18BEB7B5D7B576AD76AD75ADB1
:1089700018BE453135A556ADF49C35A555A596AD27
:1089800076AD55A555A555A535A534A5149DF49CE2
:10899000F49CF49CD394D394B3949394928C928C3F
:1089A000728C728C5184518431843084107C107CA0
:1089B000F07BF07B4D6B4D634D6B6E6B8E6B8E6BF6
:1089C0008E6BAE73AF73AF73CF73CF73F07BF07BEF
:1089D000107C107C30845184518451845184728C79
:1089E000928C928CB394D394D394F49CD394F49CAF
:1089F000149DF49CF39C55A555A576AD35A5F49C26
:108A000014A576ADC7416E6B4952C220A218E3206F
:108A1000E320E320E328E328C218C320C218A220E1
:108A2000E328E32004290329C320C3204110C641C1
:108A30000FACD1C474DDF6E537EE78F698F6B9F6EA
:108A4000B9F6D9FED9FEFAFEFAFEFAFED9F6B9F663
:108A500077EE52CD73CDD5D5F6E598F63BFF3CFFCA
:108A6000DAF698EE57EE16E6F4DDB4DD57EEFAF6D8
:108A70001AFFFAFE1BFF3BFF3BFF3BFF3CFF3CFFA7
:108A80003CFF1BFFFBFEFBFEDAFEDAFE99F678F6F2
:108A900058F637EEF6E5B5DD12C590ACAD938962B8
:108AA000C218000021084108621041084108A210C4
:108AB000A210C318A2108210A2100421A318242906
:108AC00024294529042104214529E3200421E32008
:108AD000032103210421042965310742284A0B633D
:108AE000CF7BF8BDF07BCB5A6952AA5AB294CF7BA8
:108AF00035A576ADD7B5F7BD18BE96AD75ADD7B572
:108B0000F8BD69522F8496AD149D55AD76AD76AD06
:108B100076AD76AD55A555A535A535A534A5F39CFF
:108B2000149DF49CF39CD394D394B3949394928C1B
:108B3000728C728C718C518451843184107C107CC5
:108B4000F07BF07B2D634D6B6E6B6E6B6E6B8E6B83
:108B50008E6BAF73AF73CF73CF73EF7BF07BF07B14
:108B6000107C3084318451845184718C728C728C6D
:108B7000728C728C928CB394D394F49C149D149D3B
:108B800035A5149DF49CF49C35A555A555A5149DBB
:108B9000D394F49C484A694A8952E320A2180321DD
:108BA000E320C320E320C320C320C220C320E3204E
:108BB000C320E3200429E320C320C2204110E3287E
:108BC000AD9390BC53D5D6E537EE58F699F6B9F685
:108BD000B9F6B9F6FAFEFAFEFAFEFAFEFAF6D9F698
:108BE000F6E5F2C473CDB5DD16E699F61BF75CFF2A
:108BF000DAF678F657EE16E6F5E573D5B4DDB9F694
:108C00001AF7FAFE1AFF1BFF3BFF1BFF3BFF3BFF60
:108C10005BFF3BFF1BFFFAFEDAFEB9FE98F678EE2B
:108C200037EE17E6D5DD74D5F2BC4FA4AC8B695A8C
:108C300020082008410841086210410841088210BC
:108C4000C318A318A210A2108210E318E420C318BE
:108C5000042945298631042145292429E3200421BA
:108C6000C32004210321C2204429E74169526952EB
:108C7000108434A514A50842EB628A52EF83149D38
:108C8000D39CD7B576AD96ADF8BDB6B5B7B596ADB4
:108C9000D7B5107C4C6B55AD14A555AD55A596AD0B
:108CA00096AD76AD76AD55A555A555A5149D149DEB
:108CB000149DF49CF49CF39CD394D394B394928C21
:108CC000928C728C728C5184518431843084107CEB
:108CD000107CF07B4D6B4D6B6E6B6E6B6E6B8E6BA9
:108CE0008E6BAF73AF73CF73CF73F07BF07B107C61
:108CF000107C3184318451845184728C728C928CBA
:108D0000928CB394B394D394F39CF39CF39CF49C13
:108D1000149D149DF49C35A535A5F49C35A555A549
:108D200055A596ADCA5A2D636952A6398210032102
:108D3000C320C320E320E328C320A220C320A2181D
:108D4000E320E32803290429C320C3206118200855
:108D50004C832FAC13CDB5DD17EE58EE78F698F6B0
:108D6000B9F6DAFEFAFEFAFEFAFE1AFFFAF6D9F6BC
:108D700094D573D5B4D5D6DD37E699F63BFF5CFFC5
:108D8000B9F678EE57EE37E616E6B4DD53D536E69B
:108D9000FAF6FAFEFAFE1AFF1BFF1BFF3BFF3BFF32
:108DA0001BFF1BFF1BFFFAFED9FEB9F698F678EE03
:108DB00037EEF6E5B5DD33CDB1B42FA46C83074AA9
:108DC0000000410841084108821041084108821012
:108DD000C318A2188210C3186210C31804210421FA
:108DE000C318042124296531653145292429C31874
:108DF000042924290321A21804218639284A484A33
:108E0000CF7B1084728CEC628952F07BEB6214A5EC
:108E1000B39455ADB7B5B7B555A575ADD7B5D7B5FD
:108E2000F7BD76AD6952149D35A576AD96AD96AD7C
:108E300076AD96AD76AD75AD55A555A5149D149D31
:108E4000149D149DF49CF49CD394D394B394B29445
:108E5000928C728C728C5184518451843184107C38
:108E6000107C107C4D6B6D636E6B8E6B8E6B8E6B9E
:108E7000AF73AF73CF73CF73EF7BF07BF07B107C5E
:108E8000107C3184318451845184728C928C928C08
:108E9000928CB394D394D394F49CF49C149D35A5F4
:108EA00035A535A5149D55A555A596AD76AD55A509
:108EB000149DB6AD4D6B28422D6B85318218032170
:108EC000E320E328E3280329C320C220E3288218F3
:108ED000032103290329C320E320C2208218200094
:108EE000485ACD9BB1BC74D5F6E558F678F678F6BD
:108EF000B9F6D9FEFAFEFAFEFAFEFAFEFAFEFAFE1C
:108F000094D574D594D5D6DD37EEB9F65CFF5CFF09
:108F1000DAF678EE17E657EE36E636EEB4E593D598
:108F2000F9F6D9F6DAFEFAFE1AFF1BFF1BFF1BFF4C
:108F3000FBFE1BFFFAFED9FED9F699F678F658EE3D
:108F400017EEF6E594D512C570ACED930A73453172
:108F50000000410841084108821041084108821080
:108F6000C31882108210C318A2108210E320E320DD
:108F7000E42004210421042145292529452904212F
:108F80000429042124292429E320C739284A6952C5
:108F9000AE73CF7B3184CF7BC6396D6B6D6BB29472
:108FA000D39C75AD18BEF8BDD7B5B7B575AD96AD48
:108FB000B6B518BEA73955A535A596AD96AD96ADF3
:108FC00096AD76AD76AD76AD75AD35A535A5149D6E
:108FD00034A5149D149DF49CF394D394B394B3944A
:108FE000928C928C728C718C518451843184318436
:108FF000107C107C4D6B6D6B6E6B6E6B8E6B8E6B25
:10900000AF73AF73CF73CF73EF7BF07B107C107CAB
:109010003084318431845184728C928C928C928C05
:109020009394B394D394F39CF49C149D149D15A530
:1090300035A535A5F49C55A576AD76AD96AD96AD26
:10904000149D76ADEF83494AEB5A2429C3180321B6
:10905000E320E320E320E328C3200329A218A21879
:10906000032103292429E320C220A22082182008FA
:1090700024316C8B70B413CDB5DD53DD74DD78F61F
:1090800099F6B9F6FAFEFAFEFAFEFAFEFAFED9F6FB
:1090900094D594D573CD94D558EE78F6DAFE1AFFB0
:1090A000D9F677EEF5DD77F697EE57EEF5E553D581
:1090B000B9EED9F6D9F6FAFEFAFE1AFF1BFF1BFF2E
:1090C0001BFFFAFEFAFEB9FEB9F699F678EE37EE16
:1090D000F6E5B5DD53CDF1C44FA48C8BCA6A62109E
:1090E00000006110410841088210610841088210A7
:1090F000C318C3188210E320A3186108E318E42002
:10910000A21804212429C31804212529452924292A
:10911000A21804210421E320E3206531A639084286
:10912000EF7BF07B35A59294AA5ACA5AEF7B35A5FE
:10913000B29414A555AD18BE18BED7B5D7B5B6B5FF
:10914000B6B5B7B5284AB6B5B39496B576ADB7B54A
:10915000B6B596AD96AD76AD55A555A555A5149D5C
:1091600015A5149D149D149DF39CD394D394B3948E
:10917000B294928C928C728C718C51845184318413
:10918000107C107C6D636E6B6E6B8E6B8E6B8E6B5A
:10919000AE73AF73CF73CF73F07BF07B107C3084F2
:1091A0003084318451845184718C728C728C93948C
:1091B0009394D394D394F39CF49C149D149D35A55F
:1091C00055A575ADB39496AD76AD96AD96AD96AD0D
:1091D000149DD7B571940C638A524531A218C320EF
:1091E000E320E3200429E32004290329C218C2183C
:1091F000E32003290329E320C320A2208218411081
:1092000000080B730EA4B1BC74D5B5DDD6E578EEBD
:1092100098F6B9F6DAF6FAF6FAFE1AFFFAFED9F679
:1092200094D532CD8B9B6B8BF5E517EE16EE77EE72
:1092300016EEB4DD0EA4E6514FACF5E593DD32D564
:10924000FAF6FAFEF9F6FAFEFAFEFAFE1AFFFAFE4E
:10925000FAFEFAFEDAF6B9FE99F698F658EE37EE0F
:10926000F6E5B5DD33CDB0B40FA44B83685A0000EA
:109270002000410821084108821061088210621014
:10928000A2100421A218C318E3186110A210E32051
:109290002429A21824292429042145292429242900
:1092A000E32082102429C320C32004296531084209
:1092B000CA5A718C518C92946A52EB628D73B6B516
:1092C000B39496B5B394D7B5D7B5D7B596AD96AD9B
:1092D00075ADD7B50842D7B535A5149D96ADB7B5D0
:1092E000B7B596AD96AD76AD75AD75AD35A535A571
:1092F00035A534A5149DF49CF49CF49CD394B394AC
:10930000B294928C928C728C718C51845184318481
:109310003084107C6D6B6E6B6E6B8E6B8E6BAE7370
:10932000AF73CF73CF73F07BF07BF07B107C107C3E
:10933000318451845184518C728C728C928C928CB9
:10934000B394D394D394F49CF49C149D159D35A5AB
:1093500055A535A5149D75AD76AD96AD96ADB7B551
:1093600034A5D7B514A5CB5A8A526531C218C3208B
:10937000A218C32003290429C320E320A218C32074
:10938000C320243104290329A220C220811861109E
:1093900000002852AD9370AC33CDB5DDF6E537EE65
:1093A00078EE98F6D9F6FAF6FAF6F9F6D9F6B9F6AD
:1093B000D5DD2EB48FBC4B936B9373D593DD32D533
:1093C00011CDEA8AEA820662887AD0C4D0CCF5DD73
:1093D0001AFFFAFEFAFEFAFEFAFEFAFEFAFEFAFEAC
:1093E000FAFED9FEB9F6B9F699F658EE57EE37E619
:1093F000D5DD94D512C590B4CD9B2A7B653900008C
:109400004108410841084108821062106108821039
:10941000C318E418E420C318E320A2186108A318B5
:10942000042104218210E4200421E4204429242979
:109430002429C320C3200321E320A21886318639C2
:10944000EB6210841084B3940C634C6B8E7B96B5E6
:1094500076AD55ADB29414A539C6B7B5D7B596ADAE
:10946000B7B555AD0C6335A535A576AD96ADB6B59A
:1094700096ADB6B596AD76AD55A555A575AD35A5E8
:1094800035A535A5149D149DF49CF49CD394D394D8
:10949000B394928C928C728C728C718C51843184C6
:1094A000308430846D6B6E6B8E6B8E6BAE73AF736E
:1094B000AF73CF73CF73EF7BF07B107C107C308465
:1094C000318451845184728C928C928C928CB3949E
:1094D000D394D394F39CF49C149D149D14A535A5AA
:1094E00055A5149D55A535A596AD96AD76ADB7B5E8
:1094F00055A5B6AD96B5284A2C6385318118E32071
:10950000C318C31804292431E320C320E320C32057
:10951000E32024292431E320C220E32861106110D4
:109520002008E3204C830EA4D2C474D5D6DD17EEF8
:1095300057EE58EE98F6D9F6D9F6D9F6B9F698F668
:1095400037E612CD0EAC4EB40EACEDA3D1BC12CDAD
:10955000D0BC2EB432CD74DD94DDB0C474D5DAF64F
:109560001AFF1AFFFAF6FAFEFAFEFAFEFAFEFAFE01
:10957000D9F6B9F6B9F699F698F658EE37EEF6E55B
:10958000B5DD74D5D1C44FAC8C8B0A738118000043
:109590002108610841086110821061084108A31880
:1095A000E3208210E420A318E320C3188210611086
:1095B000C31804210421C318C318E320E32044295D
:1095C00024290421C3180321E320C32004210842D5
:1095D000E7414D6B8E73B3948A52EB62CF7BF39C61
:1095E00096AD59CE75ADCF7BD7BD39C639C675ADF1
:1095F00096ADF49CEC6255ADB7B576AD149DB7B59C
:1096000096AD76AD55A575AD96AD76AD75AD35A576
:1096100055A535A5149D149DF49CF49CF49CD394FD
:10962000D394B394928C928C728C728C51845184AA
:10963000318430846D6B6D6B8E6B8E6B8E6BAF7304
:10964000CF73CF73EF73F07BF07B107C107C318491
:10965000518451847184728C928C928C9394B394C3
:10966000D394D394F49CF49C149D149D35A555A5D6
:1096700035A555A555A535A596AD75ADB6B5B7B506
:1096800075AD96ADB7B5CB5A2C63E320A218C318BD
:10969000C318C31824310429E328E320C320E32896
:1096A000E32803296539E328E328C220A2206110BA
:1096B00041080000CA6AAD9390B413CD94D516E664
:1096C00037EE58EE98F699F6B9F6B9F699F698EE9F
:1096D00036E6D5DD94D511C5B0BC90B46FB490B466
:1096E000B0BC94D5F6DDB5DD53D537E6D9F63AFFF3
:1096F0001AFF1AF7FAF6FAFEFAFED9F6DAFED9F6EA
:10970000D9F6B9F699F698F678EE37EEF6E5D5DDA6
:1097100094D533CDB1BC0EA44B8368620000000029
:109720002008410841088210610862104108A2180F
:10973000E320A218C318A210E320E420A3186108B4
:10974000A210E3200421E420E320E420E320C31856
:10975000032104210421E3202429C318C318A639B6
:109760008A52E7412C6BF49C6D738A52CF7B34A5EF
:1097700055A538C639C676ADEF7B38C696AD18BE4E
:1097800034A5F8BD0C63D39CF8BDD7B576AD76ADE6
:1097900075AD76ADB7B576AD55A576AD55A555A5E4
:1097A00055A535A515A5149D149DF49CF49CD39442
:1097B000B394B394928C928C728C728C5184518439
:1097C000318431846D6B8E6B8E6B8E6BAE73AF7329
:1097D000CF73CF73F07BF07B107C107C30843184AE
:1097E00051845184728C728C928C928CB394B39409
:1097F000D394D394F49CF49C149D14A535A555A53D
:1098000035A555A576AD149D76AD96ADB6B5D7B553
:1098100055A5D7B596AD2C63CB5AE320A218A21854
:10982000C318C32004290429C320E328E328C32044
:10983000E320E3206539C320E328A220E328411078
:1098400081180000A6396C832FA4D2BC54D5D5DD75
:1098500016E657EE78EE98F698F698F698EE98EEAB
:1098600077EE37E6F6E594D573D573D573D573D512
:1098700073CD36E657E657EE78EEF9F61AFF1AFF83
:109880001AF7FAF6FAF6F9F6D9F6D9F6D9F6B9F6DC
:10989000B9F699F698F678EE58EE37E6F6E5B5DDC6
:1098A00074D512C570B4CD9B2B83653900000000C0
:1098B000410841086108A210410861088210A21005
:1098C0000421C318E318A218E320C318C318A21078
:1098D000A210A21004210421E42004212429E32061
:1098E000E320042104290429E3200421C2180321D0
:1098F000284A284A8E7330848E7369520C6355ADA2
:10990000F8BD18BE38C6D7B5F49C1084F8BD18BE93
:10991000728C59C6695275ADF8BDD7B5D7B596AD3D
:10992000B7B596AD75AD35A5149D96AD55A575AD7C
:1099300055A535A535A5149D149DF49CF49CD39490
:10994000D394B394B294928C928C728C728C518416
:10995000318431846D6B6E6B8E738E73AE73CF7387
:10996000CF73CF73F07BF07B107C308430843184F4
:1099700051845184728C728C928C928CB394B39477
:10998000D394F49CF49C149D149D15A535A555A560
:1099900056A535A576AD34A575AD96ADB7B5D7B599
:1099A00034A5B6B576AD518C284A2429C218E320D7
:1099B000C320A218C3202429E328E328E328C220D7
:1099C000E328C3208539E320E3200329A220C22015
:1099D0004110201041100B73ED9B90B433CDB5DDD9
:1099E00016E637EE78EE78EE78EE77EE77EE78EEF4
:1099F00078EE57EE36E6F5DDF5E516E616E6F6E521
:109A0000F5DD78EEB9F6B9F6B9F6D9F6F9F6FAF663
:109A1000FAF6F9F6F9F6D9F6B9F6B9F6B9F6B9F6ED
:109A200098F678EE78EE58EE57EE17E6D6DD94D538
:109A300053CDF1C42FAC8C8BEA7282180000000069
:109A4000410841086108A21021084108C31882108A
:109A50000421C3180421C318A318A218E320A210DC
:109A6000821082108210042104210421042124295F
:109A7000242904210421242924290429C218A218F4
:109A8000494A85312C6BCF7BAE73CB5A6D73728C88
:109A900018BED7B518BEF8BDB7B5F49C34A575ADE2
:109AA00035A559C60742F7BDD7B5B7B576AD76AD82
:109AB00055A5B6AD96ADB7B596B555A575AD75AD11
:109AC00055A555A535A535A5149D149DF49CD39495
:109AD000D394B394B394928C928C728C728C718C5C
:109AE000518431846E6B8E6B8E6B8E6BAF73CF73C4
:109AF000CF73EF7BF07B107C107C107C3184318441
:109B000051845184728C928C928C9394B394D3949C
:109B1000D394F49CF49CF49C149D35A535A535A5EF
:109B200075A535A535A576AD35A596AD96ADB6B579
:109B3000D39C96B535A5B2944531E320C318811066
:109B4000A218A218E3204531E320A218032103291B
:109B5000C320E32065390429E320E328A220042957
:109B6000611841100000695A8D8B4FACF1C474D557
:109B7000D5DD16E657EE77EE57EE57E657E637EEA9
:109B800057EE57EE57E637E616E698EE78EE57EEC4
:109B900036E678EEB9F6B9F6B9F6B9F6D9F6F9F6C9
:109BA000F9F6D9F6D9F6B9F699F6B9F699F698F61E
:109BB00098F678EE58EE57EE16E616E6B5DD94D533
:109BC00032CDB1BC0EA46B83485A40080000200877
:109BD000410841088210821041086110E3204108C9
:109BE0000421E320042104216110C318A210C3182A
:109BF000A21082108210C31804210421E320E32064
:109C00002429452904290429C32024292429C320DF
:109C1000E32086398A52B394284AEB5A6D739294A2
:109C200079C67ACE18BE59C638C6B6B5149D3084EA
:109C300018BEF7BDEB6218BEB6B576AD96ADF7BDF2
:109C4000D7B5B6B5B6B597B596AD76AD55A576ADE3
:109C500075AD55A535A535A514A5149DF49CF49CAA
:109C6000F39CD394B394B394928C928C728C518461
:109C7000518451846E6B8E6B8E6BAE73AF73CF73EA
:109C8000CF73F07BF07B107C107C31843184318485
:109C90005184728C728C928C928C9394B394D394E2
:109CA000D394F49C149D149D149D35A555A555A5DC
:109CB00055A555A576AD76AD149D96AD96AD76AD10
:109CC00096AD34A5D7BDD39C65312429C318A218FD
:109CD0008218811003214531E320C320A218E3201C
:109CE000E320E32804292431E3200329E320E320AF
:109CF000E32881182008E3284B83EEA3B0BC32CDC3
:109D000094D5F5E516E637E637E616DEF6DD16E617
:109D100016E637E657E698E698EE1AF777EE16E677
:109D200036E6D9EEFAF6FAF6F9F6D9F6B9F6D9F634
:109D3000D9EEB8EE98EE78EE78EE78EE78EE98F60A
:109D400098F678EE37EE16E6F6E5D5DDB4DD53CDC0
:109D5000F1C470B4CD9BEA72853920082000200838
:109D600041084108821062104108A210A21841085F
:109D7000C318E32004210421C318A3188210C318B8
:109D8000A21082108210C318C318E320E32004211C
:109D9000E32024294531242945290421452904218A
:109DA0002429C739A639B294494AEB5ACB621084A8
:109DB00039C6F8BDF8BD39C6B7B5B7B596B5308464
:109DC00018BE928C4D6B18BE55A5D7B5D7B5F7BD4B
:109DD000D7B5D7B5B7B576AD96AD96AD76AD76AD10
:109DE00075AD55A555A535A535A5149D149DF49CB7
:109DF000F49CD394D394B394928C928C728C728C86
:109E0000518451846E6B8E6B8E6BAF73AF73CF7357
:109E1000EF73F07BF07B107C107C318431845184B3
:109E20005184718C728C928C928CB394B394D39431
:109E3000D49CF49C149D149D149D35A535A555A561
:109E400076AD55A576AD96AD96AD55A596ADF7BD5B
:109E5000F49C76AD76AD14A50842E320A218A218B2
:109E600061106110E3202431C3200429A218E320EB
:109E7000C3200429C3204431C3200329E320C32085
:109E8000E328A21861180000C96AAD9370AC11C52F
:109E900074D5D5DDF5E516E615DEB5D5B5D594D581
:109EA000D5DD36E6B5EDB2EC10E414F5D6F598F64E
:109EB000DAF659FED7FD18F638F6D9F6D9F698EE47
:109EC00078EE57E637E616E637E658EE78EE78EEA7
:109ED00078EE57EE37E616E6F5DDB5DD94D532CDF2
:109EE000B1BC0EA46C8B475A4431200820082008CE
:109EF00041086108611041084108042161086110AE
:109F0000C318E320C32025290421C318A2188210F6
:109F1000C318821061108210C318E3200421E320CB
:109F200024290321E3204531242904212429453112
:109F300004294529C7416D736E738952C739318C25
:109F400096ADB6AD18C6F8BD38BED7B53184B7B535
:109F5000F49CF07BF39CD7B5D7B5F7BDF8BDD7B56A
:109F6000D7B5B7B5B6B5B7B596AD76AD76AD76AD76
:109F700055A555A555A535A534A5149D149DF49C4E
:109F8000F49CD394D394B394928C928C928C728CD4
:109F9000718C51848E6B8E6BAE73AF73CF73CF7336
:109FA000CF73F07BF07B107C107C31845184518422
:109FB0005184728C928C928C928C938CB394D394A7
:109FC000D394F49CF49C149DF49C15A555A556AD12
:109FD00076AD55A576AD96ADB7B5149DD7B596AD12
:109FE00055A5B6B576AD14A58631A218A218811074
:109FF0008110811003292429C3200329E320E320B1
:10A000000329C320032904290329E32003298218F3
:10A01000A218042961184110E3286C8B2FA4D1BC2D
:10A0200052CD93D5D5DDF5DDD4D573D512C512C586
:10A03000B1CC6ED3ABD28BD2ABDAABE2EDEA52F459
:10A0400052F4D0EB6EE32DDB4DDBF0E354ED57EE35
:10A0500057E6F6DD94D594D5D5DD37E678EE78EE83
:10A0600057EE57EE36E6F6E5D5DD94DD53CDF1C477
:10A070006FB4CD93C96A06522331611020002108C4
:10A080006108410862106108C318E3184108E41828
:10A09000C3180421E320042166318210C318821002
:10A0A000A218A318A218A2188210C318E320E32054
:10A0B000C318042904292429242945310421042111
:10A0C000E3204529E3208531AA5AEB62484A308CC7
:10A0D00059C659C6F8BD96ADB7B596ADF4A4F49C73
:10A0E000728C494A18BE96ADF8BDB7B5D7B5D7B58D
:10A0F000D7B5D7B5D7B5B6B596AD96AD96AD96AD45
:10A1000055A576AD55A555A535A534A5149DF49C4A
:10A11000F49CF39CD394B394B394928C928C728CF1
:10A12000718C51848E6B8E6BAF73AF73CF73CF73A3
:10A13000EF7BF07BF07B107C107C31843184518488
:10A14000718C728C928C928CB394B394D394D3947C
:10A15000F49CF49C149D15A535A535A535A555A5EC
:10A1600076AD56AD96AD96AD76AD96AD76AD75AD98
:10A1700096ADB7B5D7B5929408428110A218811058
:10A180008110611004292429C320E320032104291C
:10A19000E320E3202429E3202429E3280329C22003
:10A1A00081188218C22061100000A96ACD936FB493
:10A1B00011C573D5B4DDB4DD93D532C52EAC2CA357
:10A1C00029AA09A209AAC8A9C8B988B9A8C9ACDA34
:10A1D0006BDA46A94AB28BB22AAA09AA09B2CBBA4B
:10A1E000EFC390CC4C93EDA393D5F6E537E657EE4D
:10A1F00057EE37E616E6F6DDD5DD74D512C5B0BCF0
:10A200002EAC4B830652E6514431A218000041089F
:10A21000410841088210410824218210410804218C
:10A22000C318C318C31804216631C318E420A21848
:10A23000A218A218A218A218A2188210E320E320E4
:10A24000E320E320E320E32024290429242904290E
:10A25000E320C320AA5A2429CB5A2842E739518C3B
:10A2600096AD18BED7B539C6B7B596AD14A596B597
:10A27000D39CEB62F8BD96ADB7B5B6B5D7B5B7B55B
:10A2800096AD96AD76ADB6B596AD96AD96AD76ADCE
:10A2900076AD76AD55A555A535A534A5149D149D6F
:10A2A000F49CF49CD394B394B394B294928C928C17
:10A2B000728C718C8E6B8E6BAF73CF73CF73EF7BA1
:10A2C000F07BF07B107C107C1184318451845184AC
:10A2D000728C728C928CB28CB394D394D394F39C82
:10A2E000F49C149D149D159D35A555A535A575ADFA
:10A2F00075AD76AD75AD96AD96ADB6AD149DB7B5F1
:10A3000076AD96AD59C68E73863181108218811054
:10A310006110821804292431C320E320A2182429C3
:10A32000E3280429042904292431E328E320C32055
:10A3300082188118C22061186110A2206C8B0EA4B3
:10A34000D1BC52CD93D5B4DD73D552CD2FB40341DA
:10A3500082388228E3306862EB72AE93CEABCBB228
:10A360000CA334C558CE38D62C7B896A6549A340E6
:10A37000A348C458C7714FB4B4D516E637E657E6BC
:10A3800057E636E616E6D5DD94D533CDB1BC2FAC15
:10A390008C9388620652C5498439032900006210F3
:10A3A000210861086108821045294108A210E320B4
:10A3B000C318C318C318042145290421E320C31876
:10A3C000A318C318A218A218A218C318A218E32031
:10A3D000E320E320E320E32004210321E320E32022
:10A3E0002429E32086312429484A0D636531284A0F
:10A3F00059C6B7B57ACEF8BD96ADB6B534A596B503
:10A400003084318CB7B539C6F8BD18BE18BED7B583
:10A41000D7B5F7BDD7B5B7B596AD76AD55A555A5AA
:10A4200055A576AD55A555A535A535A5149D149D05
:10A43000F49CF39CD394D394B394B294928C928C66
:10A44000728C728C8E6B8E6BAF73AF73CF73EF7B2E
:10A45000F07BF07B107C107C3184318451845184FA
:10A46000728C728C928C9294B394D394D394F49C07
:10A47000F49C149D34A535A535A555A555A555A520
:10A4800076AD76AD55A555A576AD76AD55A5B7B5E6
:10A4900076ADB7B535A5CF7B452961108110611028
:10A4A0004008E320E3202429C320E320A218E32866
:10A4B0000429042924310429E320E328C320C320EC
:10A4C000821882186110A218611000082752AD93FB
:10A4D0006FAC11C573D593D593D593D5D5DDB1CCDC
:10A4E0006A9A088AE889A7798671086ACA724C7BD9
:10A4F000A96ACE9B0FACEFAB8799C9A92ABA09B25A
:10A500008BCAECD295E516DEF6DD16E636E637E6C2
:10A5100037E616E6D5DD94D553CDF1C46FB4CD9BA7
:10A52000E9720652265AE6518541643900086110E5
:10A53000410861084108E320E4204108E420E320C9
:10A54000C318C318C318C31804214529A21804212D
:10A55000A318C318A218C318A218A218E320A2189F
:10A56000E320E320E320E320E3200321E320E320B2
:10A570006110A2182429042145290C63E7410742F0
:10A580000C63B29435A5D7BDF39C55AD96ADD39C65
:10A59000CB5A18BEB7B5F7BD18BEF8BDD7B5F8BDD4
:10A5A000F8BDF7BDD7B5D7B5B7B5B7B576AD96ADEC
:10A5B00076AD35A535A555A535A535A534A5149D8C
:10A5C000149DF49CD394D394B394B394928C928CB2
:10A5D000728C728C8E6BAF73AF73AF73CF73CF7B94
:10A5E000F07BF07B107C3084318451845184718CF9
:10A5F000728C928C928CB394B394B394D394F49C55
:10A60000149D149DF49C35A535A555A576AD76AD64
:10A6100055A576AD55A5149D55A555A576AD35A581
:10A6200035A534A5107C6D6B85318110A2106210A8
:10A630006110E320C2200429C320E320A218E320F4
:10A64000E320E32024294431A2202431C220C32066
:10A65000A2208118611061188218201041100B7B14
:10A66000EE9BB0B432C593D594D594D594D5B4DDD2
:10A67000EFCBCCBA0DDB0DE30DDB8CD209B2C9A94F
:10A68000E9B94ACA8CDAADE2B0F36FEB2EF34EEBC8
:10A690008FDB54DD57E637E616E637E636E616E694
:10A6A00016E6D5DDB4D573D511C58FB40DA44B8393
:10A6B00006526762475A0652C549A54920086110EB
:10A6C0002008611041084529821061100421E3200F
:10A6D000C318E3188210E320E320242982102429E0
:10A6E000E320E320C318A218E320C318C318C3183B
:10A6F000C318E3202429E320E320C218E320E32049
:10A70000C3188110E320A639E3206A5A2842284A58
:10A7100055ADAE73EF7B76AD6E6BF49C55A5CF7BDC
:10A72000CF7B18BE96AD39C618BEF8BDF8BDD7B5FB
:10A73000F8BDF7BDD7B5D7B5B7B596ADB6B596AD3B
:10A7400076AD76AD75AD35A535A535A534A5149D89
:10A75000149DF49CD394D394B394B394B294928CF8
:10A76000728C728C8E73AF73AF73CF73CF73EF7BBA
:10A77000107C107C107C3084318451845184728C24
:10A78000728C928C928C9394D394D394F49CD394A3
:10A79000F49CF49CF49CF49CD394F39C149D149D21
:10A7A000149D149D149DF49C928C35A555A59294EE
:10A7B00035A5F49C76ADEB62032161106110611048
:10A7C0006110E320A2180429E320A218C318C320B3
:10A7D000C318E3280429243124290429A220E320D2
:10A7E000A21881188118411061188218000064397C
:10A7F0006C8B2EACF1BC73CD93D5B4D5B4D5B4D598
:10A80000F1C4AFC3CDCA0DEB6FF3D0FBAFEB31F4A6
:10A810008FFB73F432F4F1F3AFF34EEB4EE36ED3F0
:10A8200033D516DE17E637E637E636E616E6F5DD0B
:10A83000D5DD93D573CD11C58FB40DA46C8B476254
:10A8400047626862676226520652C549811820082D
:10A850002000610841080421610882104529C318BD
:10A86000C318C3188210C318C3182429E420C318BE
:10A870000421C318E320C318A218C320C320C32097
:10A88000E320E320E32004212429C31882100421BB
:10A89000A218A2186110E741042124298A52032931
:10A8A00055A539C631848E73AF7318C6D49C4952EE
:10A8B000D8BDB7B576ADF8BDF8BDF8BDF7BDF8BDEC
:10A8C000D7B5F8BDD7B5B6B5B7B5B7B596AD96ADF2
:10A8D00096AD76AD76AD75AD35A5149D34A5149DB8
:10A8E000149DF49CF39CD394D394B394928C928C47
:10A8F000928C728C8E738F73AF73CF73EF73EF7B09
:10A90000F07B107C107C3184318451845184728CB2
:10A91000928C928C928CB394D394F394F49CF49C88
:10A92000F49CF49C149D149D55A555A555A575AD95
:10A9300075AD75AD149DB7B596AD35A535A5B39478
:10A94000CF7B76ADB394284AE3208110611061106B
:10A950008218C218C220E320E320C218E320C320DB
:10A960000421A22004294431E328E3200429821889
:10A97000A220821861186118411041106110000076
:10A98000896ACD9B90B432C573D5B4D5B4D594D56E
:10A9900053CD4FAC8EC3ACD20DEB8FF3F1EB11EC7A
:10A9A000D0F373F411FC4EF3EDE20DD38DC312CD51
:10A9B000D5DD16E637E657E657E637E616DEF5DD6F
:10A9C000B4D553CD11C5B0BC0DA48C936862065AA2
:10A9D000686A886A886A6862475AE651C22000003D
:10A9E000200820008210A3186210E42024290421EA
:10A9F000A318E3208210A218E320E3206531A218F7
:10AA00000421E320C3180321C318A218C318C320CC
:10AA1000E320E320E320C318C3180421C318E32074
:10AA20000421811082106110E3200421C739A2188B
:10AA3000508CF7BDB7B5928C2D6B14A58A52518CF2
:10AA400018BE18BE96AD18BED7B5D7B5B7B5B6B552
:10AA500076AD76ADB7B5B7B5B7B596AD96AD76ADC3
:10AA600055A555A535A5149D34A555A535A5149D09
:10AA7000149DF49CF39CD394B394B394928C928CD5
:10AA8000728C728CAE6BAF73CF73CF73EF7BF07B36
:10AA9000107C107C107C318431845184518C728CF8
:10AAA000728C928CB294B394D394D394D394F39C39
:10AAB000149D149D35A555A555A575AD76AD76ADFE
:10AAC00096AD76AD96AD55A555A5D7B555AD718C5E
:10AAD0003184EF7B0842A63961108110611081102A
:10AAE000A218A220A220C320A218A218C318A2183C
:10AAF000A218C218E3204431A2182429E3286118BF
:10AB0000A2188218A2186110401061102010411084
:10AB100082188C8B2EA4D1BC73CDB4D5D4DDB4D522
:10AB200073CD12C54FAC8EB3CCCA0DDB6EEBB0EB60
:10AB30008FEB6FEB2EE30CCB6DBB4FB432C5B4D5AE
:10AB400016DE37E637E637E636E636E615E6D4DDD6
:10AB500093D511C5B0BC2EAC8C93686AE65168627F
:10AB60008872C972C872A86A6762265A643900007E
:10AB700020082008A2188210C3180421C318E3205B
:10AB80008210E31882108210E420C31824290421C3
:10AB9000E420E420A218E320E320A218C320C3206D
:10ABA000E320A218E320E320C318C318E320A2186F
:10ABB0002429E320A2188210611003216952611038
:10ABC000CA5A3084F8BDB294B2946E73494AD7BD64
:10ABD000D7BD39C676ADB7B5D7B5F8BDF8BDF7BDA9
:10ABE00018BEF8BDF7BDD7B5D7B5D7B5B7B596ADD3
:10ABF00096AD76AD76AD75AD55A555A535A515A522
:10AC0000149D149DF49CF39CD394B394B394928CB0
:10AC1000928C728C8E6BAF73CF73CF73F07BF07BA3
:10AC2000F07B107C1084318451845184728C728C3E
:10AC3000928C928CB394D394B394D394F49C149D3B
:10AC4000149D34A535A535A555A575AD76AD76AD64
:10AC500055A596AD96AD96ADB7B555A575AD108415
:10AC6000D39CD39CEB5A6952611061108110811002
:10AC70008218C2208218C320C2186110C318C318DA
:10AC800082108110C2184531C22082180329C320C6
:10AC9000611881186118611861104110401041104D
:10ACA0000000A641CD938FAC32C594D5D5DDD5DD5E
:10ACB000B4D573CD31C5AFB46FAC0EB40EB40EB411
:10ACC0000EB42EB44EB48FB4F1C473CDD4DDF5DD23
:10ACD00016E636E616E616E636E616E6F5DDB4DDE9
:10ACE00052CDD0BC4EAC8B93886AE651686AC9726B
:10ACF000E97AE97AE97AC97AA8724762C5494008CF
:10AD00002008210882108210C3180421E320821039
:10AD1000A318621082104108E320C318C3186531DC
:10AD2000C31804210421A218E3208218C320E320C1
:10AD30000321C218C318E320E320C318A218A218E5
:10AD4000E320C31882108210A21861108631853169
:10AD5000AA522C632D6B34A5B394C739308455ADFA
:10AD600055A5F8BD39C6D7B539C618BE18BE18BE28
:10AD7000F8BDF8BDF8BDF7BDD7B5D7B5B7B596AD39
:10AD800096AD76AD76AD76AD55A555A535A515A58F
:10AD9000149D149DF49CF39CD394D394B394928CFF
:10ADA000928C728CAE73AF73CF73CF73F07BF07BEA
:10ADB000F07B107C3184318451845184728C928C6C
:10ADC000928CB294B394928CD394F49CF49CF49CA3
:10ADD000149D149D34A535A535A535A535A555A5D6
:10ADE00076AD76AD76AD96AD96AD96AD14A5728C7A
:10ADF000149DAE7B4D6B6531611081106110A218FE
:10AE0000A218A2188218A218C21881108210E3207A
:10AE100061106110C220243182186110C320C22049
:10AE200082186110611881186110400840100000FC
:10AE300061100000A9620EA4D1BC53CDB4D5F6DDDB
:10AE4000F6DDD5DDB4D573CD32C5F1C4D0BCB0BC10
:10AE5000B0BCF1BC11C552CD94D5F6DD57E637E64E
:10AE600037E657E636E636E616E616DED4DD73D567
:10AE7000F0BC2EAC8C938872C551686AC972E97AAD
:10AE80002983098329830983E872686AE65144317A
:10AE900000004108611061100321C318A218A21814
:10AEA0008210410861104108E320C318A218042150
:10AEB0000421E4202429C318C318A218C220C320E7
:10AEC000E320C318A318E320C318C318A218A218BC
:10AED0006110C318E3204108611082108218A21883
:10AEE0006531AF736D6B494A6952518CD7B5728C1D
:10AEF000D7BDB7B5F8BD17BE39C618BE18BE18BE47
:10AF0000F8BDF8BDF7BDF7BDD7B5D7B5B7B597B59F
:10AF100096AD96AD76AD75AD55A555A535A535A5BE
:10AF2000149D149DF49CF49CD394D394B394B29444
:10AF3000928C728CAF73AF73CF73CF73F07BF07B57
:10AF4000107C3084318431845184718C728C728C89
:10AF5000928C928C928CD394D394F39CF49C149DF9
:10AF6000149D35A535A555A555A575AD76AD96AD00
:10AF700096AD96AD96AD96AD96AD35A555A5D39C3F
:10AF80009294CB5ACF7BA21882108110A2188218FB
:10AF90008110A218A2188218A2186110A21882109B
:10AFA0008210410882182431811061104010E32082
:10AFB000A22081182010811061106110611000081A
:10AFC0002008200800084C834FACF2BC94D5F5DD76
:10AFD00036E637E617E616E6F5DDD5DDD5DDD5DD57
:10AFE000B5D5D5DDF5DD36E637E678EE98EE98EEA8
:10AFF00078EE57EE36E616E6F5E5F5DD93D511C5A4
:10B000002EAC6B8B476AA5494762E97A29834A8B44
:10B010004A8B6A8B4A8B2A83097BA8726762E65146
:10B020008218200041088110A2188218A218410835
:10B030006110611061104108A2188210E320A3186A
:10B040004529C31804212429C218E320A218E320AB
:10B05000E320C218A218E320C318E320A218A21804
:10B0600082106110A218611061106110E320821833
:10B07000A2182D6B4D6B284A242996B596ADD7B5ED
:10B08000D394D7BDD7B5F7BD39C618BE18BE18BE04
:10B09000F8BDF8BDF8BDF8BDD7B5D7B5B7B5B7B5EC
:10B0A00096AD96AD76AD76AD55A555A555A535A50C
:10B0B000149D149DF49CF49CD394D394B394928CDB
:10B0C000928C928CAF73AF73CF73EF7BF07BF07B7E
:10B0D000107C30843184518451845184728C928CE0
:10B0E000928C928CB394D394D394F49CF49C149D3E
:10B0F000149D359D35A555A555A555A576AD96AD9F
:10B1000096AD96ADB7B5B7B576AD55A555A5B29484
:10B11000AF7B10848A52A218C2188110A218A218FC
:10B1200061108218C218611082188210821061109A
:10B13000410841086110243182182008201081182C
:10B14000C3208118611860104008200820082008DA
:10B150000008000000006110AD9390B453CDD5DD20
:10B1600016E657EE58EE78EE78EE98EE78EE98EE1A
:10B1700078EE98EE98EEB9EED9F6B9EED9F6B9F6C2
:10B1800078EE57EE36E616E6D5DD93D5F1C42EAC53
:10B190004B8B065AA4494762E97A2A838B938B9397
:10B1A0008B938B938B936B8B2A8BE97AA86A844160
:10B1B000443100086110821061108210200841089B
:10B1C0006110410841084108A2188210A218C31852
:10B1D00024290421C3182429E320E320E320C320E9
:10B1E000C218C218A218E320A218E320E320A21874
:10B1F000821081108210611082106110E3200421FE
:10B20000A218A639EC6286316E6B2942108439C6C9
:10B2100018BE929496AD39C639C618BE18BE18BE6F
:10B2200018BEF8BDF8BDF7BDD7B5D7B5B7B5B7B53A
:10B23000B6B596AD96AD76AD75AD55A555A535A50A
:10B2400034A5149D149DF49CD394D394B394B294D8
:10B25000928C928CAF73CF73CF73F07BF07B107CAA
:10B26000107C107C318451845184728C728C728C6D
:10B27000728CB394B394D394D394F49CF49C149DA3
:10B28000149D35A535A555A555A576AD76AD76ADFC
:10B2900096AD76AD76AD35A534A596B596ADF39C55
:10B2A0008952518C6531A218A218A2188110A218D7
:10B2B0006110A218A2188210A218821082108210A7
:10B2C00061108110C2180329811820084008400825
:10B2D000A220A2206118811861184008611000089E
:10B2E0000008000000000000E3282EA4F2BC94D562
:10B2F00015E657E698EE98F698EEB9EED9F6D9EE3F
:10B30000D9EED9EEF9F6FAF61AF7FAF6B9F698EE9A
:10B3100077EE36E616E6D4DD73D5F1C42EAC2A837B
:10B32000C55184494762E97A4A8B8B93CC9BEC9B4D
:10B33000CC9BCB9BAB93AB938A932A8B676A676258
:10B34000A541C22041106110611041084108410827
:10B3500020084008410841086110A2186210C31873
:10B36000E4204529E32003210421C2180421C31845
:10B37000C218C320A218E320A218C3184529E3204D
:10B380006110A21881106110A2186110A21824295E
:10B39000E7410421C739C739B294EF7BEF7B718C49
:10B3A00096ADD7B5518C9ACEF8BD38C618BE18BE2A
:10B3B000F8BDF8BDF8BDF8BDF7BDD7B5D7B5B7B581
:10B3C000B6B596AD76AD76AD75AD55A555A535A599
:10B3D00035A5149D149DF49CF39CD394B39493943D
:10B3E000928C928CAF73CF73CF73EF7BF07B107C1A
:10B3F000107C3184318451845184728C928C728C93
:10B4000092949394B394D394D394F49C149D149DE8
:10B41000149D35A535A535A535A555A555A575ADFD
:10B4200076AD96AD96AD76AD35A5D49C518C8E7328
:10B43000AB5A28426531C218A218A2188110A2186E
:10B4400082186110A2188110821082108210A21836
:10B45000611020088118C2206110200840082008CF
:10B46000821881188218611881188110200820081C
:10B470000008000000000000000044316FAC32CD35
:10B48000D5DD16E678EE98EE99F6B9F6D9F6D9F646
:10B49000FAF6FAF6D9F6FAF6D9F6D9F698EE57EEA4
:10B4A00037EEF5E5B4D553CDD0BC0DACE97A6441A7
:10B4B000A549265AC97A4A8BCC9BEC9B0CA42DA497
:10B4C0000CA4ECA3ECA3CB9BCC9B6A932983E97AD5
:10B4D0006439C22061102008410820084108200872
:10B4E000000020084108410861108210821082107B
:10B4F000E32045290421E3200421C218C320C320EE
:10B50000A218C3188218C318A21803210421863177
:10B51000821081106110A21861104108A2184429FC
:10B520000421CB5A4529494A718C6D6BB294B3946E
:10B5300035A5B7B5F07B59C618BE39C638C618BE92
:10B5400018BE18BEF8BDF8BDF7BDD7B5D7B5B7B5AD
:10B5500096AD96AD96AD76AD76AD55A555A555A5EE
:10B5600034A5149D149DF49CD394D394B394B394B4
:10B57000928C928CAF73CF73CF73F07BF07B107C87
:10B58000107C1184318451845184728C928C728C21
:10B59000B2949394B394D394F39CF49CF49C149D30
:10B5A000149D149D34A535A555A555A555A555A59E
:10B5B00076AD76AD35A555A514A514A5518C8E6B29
:10B5C000D39CEB6224298218C21881108218821839
:10B5D000821881108218A2188210811082104108EE
:10B5E00020084008811861106110200820084008D8
:10B5F0004008A218611081186118611041104108BB
:10B6000021080000000000000000000044316FB479
:10B6100032CDB5DD16E657EE78EEB9F6D9F6D9F6A5
:10B62000F9F6D9F6B9F6B9F698EE78EE37EE16EEE9
:10B63000D5DD93D511C58FB4CC9B47620331A449A6
:10B64000065AA8722A83AC9BECA30DAC2DAC2DAC92
:10B650002DAC0CA40CA4ECA3AB9B8B93E97AE65124
:10B660000329C22061106110000020084108200851
:10B67000000020086110410861108210A2186110BA
:10B68000A2182429452904210421C218A218E32064
:10B69000C218E320A218A218C318E320C73945290D
:10B6A000252161108210611082106110C318E320FF
:10B6B000C739CB5A45290C63AE73308414A535A520
:10B6C000D39C96B596B5718C59C639C618BE18BEAE
:10B6D00018BE18BEF8BDF7BDD7B5D7B5D7B5B7B545
:10B6E000B6B596AD96AD96AD76AD55A555A555A515
:10B6F00035A5149D149D149DF39CF394B394B394B9
:10B70000928C928CAF73CF73EF7BEF7BF07B107CCE
:10B7100030843184518451845184728C728C928C27
:10B72000928CB394D394D394F39CF49C149D149D65
:10B7300034A535A555A555A575A576AD76AD96ADBF
:10B7400096AD55A5149D76AD35A5149D31843084F4
:10B750000B63E741A6398110A218A2188218811044
:10B7600081108110811082108210821061102008D7
:10B7700020082008811820084108400800086110AE
:10B780004008811081186110611061106108200863
:10B7900021080000000000000000000000008118E7
:10B7A0002FA432CD94D5F6E557E678EEB9EED9F66A
:10B7B000B9F698EE58EE57E637EEF6E5D5E573D5CF
:10B7C00032CDB0C40EAC0A83434103318541E65902
:10B7D000886A2A83AB93ECA32DAC4DAC6EB46EB4E7
:10B7E0004EB42DB40DACECA3ECA3E9822662065254
:10B7F000233182188110A220200820082008200868
:10B800000000400861106110611061108210821008
:10B810008210E32045292429E32004218218C32033
:10B82000A218C318C318A218E320A218484AC7399F
:10B83000084241088110611041084108E3200421B9
:10B840006952E8414D638A522D63CF7376ADF49C03
:10B8500096B5928C96B5F49C34A559C638C618BED8
:10B8600018BEF8BDF8BDF8BDF7BDD7B5D7B5B7B5AB
:10B87000B7B596AD96AD96AD76AD55A555A555A582
:10B8800035A5349D149DF49CF39CD394D394B39428
:10B89000928C928CAF73CF73CF73F07B107C107C43
:10B8A00030843184518451845184728C728C928C96
:10B8B0009394B394D394D394F49CF49C149D149DCA
:10B8C00034A534A535A555A575A576AD96AD55A578
:10B8D00055A555A596AD96AD14A5F07BB2948E7383
:10B8E000AA52C741E320A218A2188218A2188110F8
:10B8F00061108110A2188210821082102008200886
:10B9000020080008A21800082008611041086110F2
:10B9100041106110A218611061102008210841082F
:10B9200020080000000000000000000020000000CF
:10B9300000000A7BB1BC53D5D5DD37E657E657EE9C
:10B9400037E6D5E5B5DDB4DD73D532CDB1C42FB45E
:10B95000CCA30A83A549E2284339A549E659886A58
:10B9600009838B930DA44DAC4EAC8EB48FB48EB4C2
:10B970006EB44DB42DB44DB40CA4C97A886A265A5D
:10B9800024316110A11885416539000000002008AC
:10B9900041080000400861108110611082106110A0
:10B9A000A2188218042124290421E320A318C31813
:10B9B000C320A218C318C318E320C32028428A5208
:10B9C000A63161106110821061106110E320A2188D
:10B9D000494AC739EF7B6A5210843184EF7BB394B4
:10B9E000B7B5929418C6F8BDF39C39C639C618BECF
:10B9F00018BE18BE18BEF8BDF7BDD7B5D7B5B7B5D8
:10BA0000B7B596AD96AD96AD76AD75AD55A555A5C8
:10BA100035A5149D149DF49CF49CF39CD394B3948D
:10BA2000B394928CCF73CF73EF7BF07BF07B107C61
:10BA3000107C318451845184728C728C728C928C03
:10BA4000B394B394D394D394F39CF49C149D149D19
:10BA500035A535A555A555A535A535A535A576AD8D
:10BA600096AD35A596ADB7B5D39C518CEF7BAE7B2B
:10BA70006D6B4429A218C218A2186118C320811046
:10BA80006110A21882108210A2184108000040081C
:10BA900040080000C218000820088110A218611098
:10BAA00061106110400881104108410821084108D7
:10BAB0004108000021080000000000000000000014
:10BAC0000000000024318C9390BC32D573D553D53F
:10BAD00053D5F2C490BC4FB4EEAB8C9B2A8B476A13
:10BAE0004441A120033164418549065A876A09838C
:10BAF000AC930DAC4EAC6EB48FBCAFBCAFBC8FBCC6
:10BB00006FBC6EBC6EB4EFC40983097B4A834439B1
:10BB1000A5494110A5412A7B065207522008000082
:10BB200040084108200861106110821082106110E5
:10BB30008210A2180421252904210421E320821067
:10BB4000C318C320C318E320C318C3180842EB5A14
:10BB5000494A411082104108821040086110A21821
:10BB6000A6392D6B4D6B8A52518C728C35A59294EF
:10BB70000C5B14A576ADB7B555AD39C618BE18BE69
:10BB8000F8BD18BED7B5F8BDF8BDF7BDD7B5B7B588
:10BB9000B7B5B7B596AD96AD76AD75AD55A555A50E
:10BBA00035A515A5149D149DF49CF39CD394B394D2
:10BBB000B294B294CF73CF73EF7BF07B107C107C88
:10BBC0003084318451845184728C728C728C928C4A
:10BBD000B394B394D394D394F49C149D149D149D66
:10BBE000F49CF49C149D149D55A576AD96AD96AD30
:10BBF00076AD76AD55A596ADB394D39C4D6BEB5A0F
:10BC0000284AA218A218A21882188118A22081100E
:10BC10008110A2188210C218611020084108410842
:10BC20002008200881182008A218C218A218811024
:10BC30008110611061104008410841084108410825
:10BC40004108000041080000000000000000000062
:10BC500000000000000041080331275AC97A0A8316
:10BC6000EA82A972686A065AC5494339C228A120E6
:10BC7000C22823316441A549065A676AE97A8B9341
:10BC80000DA46EB48FBCAFBCD0C4F0C4D0C4D0C4BB
:10BC9000AFC4AEBCCFC4CCA329830DA4676A475AF6
:10BCA000C9722010A5412EA4E97A886A065220089C
:10BCB000000020086110410882104108C21882105B
:10BCC0006110A218A21824290421E320A218C3207D
:10BCD000C320E320C320C318C320A21807426E6B01
:10BCE000694AA21061106110821061108210611007
:10BCF000E7416E6B694A8E734D6B96AD39C692946F
:10BD000039C6B6B5718C9294B39496B5D7B5F8BDD3
:10BD100038C6D7B5F7BD18BEF7BDF7BDD7B5D7B58F
:10BD2000B7B5B6AD96AD96AD76AD76AD55A555A584
:10BD300035A535A5149D149DF49CD394D394D39428
:10BD4000B394B294CF73CF73F07B107C107C107CD3
:10BD5000308451845184718C718C728C728C928C71
:10BD6000B394D394D394F39CD394F49CF49C149DF7
:10BD700035A535A555A555A575AD76AD96AD96AD50
:10BD800034A555A596AD96AD3184718CCB5ACB5A5E
:10BD9000A63982188210A21882188118A218611080
:10BDA000C320A218A218821040084108611041085F
:10BDB000000061108118C218A218C218E320611097
:10BDC00061106110400841084108610821084108DC
:10BDD00020002000210800000000000000000000FA
:10BDE0000000000000006110C2208110811881183D
:10BDF000A118A118A118A1188120C220C228E330DF
:10BE000023394439A549065A676AE97A8B93ECA32A
:10BE10006EB4AFBCF0C4F0C411C5F0C4F0C4F0C43B
:10BE2000F0C410CDAFBC2DB4C87A4DAC2983E97AEB
:10BE3000E97AA86A4010E6494B830DA46B8B475AF8
:10BE40004008000041088210811061108210C21861
:10BE500061108210A218A2182429C318E320C31865
:10BE6000C318C318C320E3208218C320853130844F
:10BE7000C7394108E32041086110A2186110410848
:10BE8000EF7B6A4A0B636E6BB29459C69294D7B536
:10BE900059C659C639C655A5D49C35A539C6D7B596
:10BEA000B6B5B7B5D7B5D7B5F8BDF7BDD7B5D7B522
:10BEB000B7B596AD96AD96AD76AD76AD55A555A513
:10BEC00035A535A5149D149DF49CF39CD394D3946F
:10BED000B394B394CF73EF73F07B107C107C107C21
:10BEE000318451845184718C728C728C728CB294B6
:10BEF000B394B394B394D394F49C149D149D14A55B
:10BF0000149D35A555A555A555A555A555A576ADA1
:10BF100076AD76ADD7B514A531840C63EB5A8A5251
:10BF2000C220A2188218A218811003216110E320F8
:10BF3000E320C3208210611081108210611041083B
:10BF40004108A218C320A218C320E320A218411060
:10BF50008210410841084108410861084108410830
:10BF6000000021082108000000000000000000007F
:10BF700000000000000041100329A220C220C228B6
:10BF8000C228C228C228C228C228E2280331243984
:10BF90006441A549065A6762C87A4A8BCB9B2DAC8F
:10BFA0008FBCD0C4F0C411CD32CD11CD11CD11C58F
:10BFB00031CD31CD4EB4ECA36A8B4DAC6B93ECA379
:10BFC0002A832A83E651C228E328A5412A7BCD9300
:10BFD000A96A6110410861108210611082108210FC
:10BFE000A21882108110A21804210421A218C318DB
:10BFF000C3188210C320C318A218A21886316E6B12
:10C00000C6396108242941086110C31882106110E3
:10C0100031846952AA52AF73F8BD92945ACE59C670
:10C02000F8BD59C618BE35A539C635A596AD38C672
:10C0300018BE38C6F8BD96ADB7B5D7B5D7B5D7B524
:10C04000B7B596B596AD96AD76AD76AD55A555A579
:10C0500035A535A5149D149DF49CF49CD394D394DC
:10C06000B394B294CF73CF73F07BF07B107C3084A9
:10C070003184318451845184718C728C728CB3946C
:10C08000B394B394D394F39CF49C149D149D149D89
:10C0900035A514A5149D34A535A576AD76AD96AD20
:10C0A00035A555AD96ADAE73B39469528D6B6531C0
:10C0B000C2188218A2188118C218A218C32003211E
:10C0C000C21861106110A218A218811041108110CD
:10C0D000C220C220E3202429E320C3188218411083
:10C0E00041086108210841084108611041084108E0
:10C0F00020084108000000000000000000000000CF
:10C1000000000000000020084431C220E320E228A3
:10C11000E228E228E228E228E32803314439644196
:10C12000A549E6512762A87209838B93ECA34EB40C
:10C130008FBCD0C411CD31CD52D552CD52CD51CDC1
:10C1400052D5B0BC6EB4F0C4A872CB9B0DAC0CA49D
:10C15000AB9B8B932A832A83A54161186110A5416B
:10C160002A7B485A200882106110A2186110A21878
:10C170004108A218A2188210A2182429C318C318B3
:10C18000A218A218A218C320A21861102429CB5A01
:10C19000C2184108A21861104108821061102429B8
:10C1A000F07B284A284239C6929459CE39C659C6DE
:10C1B000F7BD39C659C676ADB7B518BE76ADD7B599
:10C1C000D7B5B7B5D7B5D7B596ADB6B5B7B5D7B5B9
:10C1D000B7B596B596AD96AD96AD76AD55A555A5C8
:10C1E00035A535A5149D149DF49CF49CD394D3944B
:10C1F000B394B394CF73EF7BF07B107C30843084A6
:10C20000318451845184718C728C728C728CB39491
:10C21000B394D394D394D394D394D394D394F49CDD
:10C22000F49C149D55A555A575AD76AD96AD76AD2E
:10C2300055A596AD55A5F07BAE7B6D6B284AA22027
:10C24000A218A220A2186118A218E320E320E3207C
:10C250006110C2180321A218A320C3200321C32008
:10C26000C220C320C320E320C218A218C320200884
:10C2700041084108200841082008621020084108B0
:10C280002000410820000000000000000000000025
:10C29000000000000000000064390329E328033196
:10C2A0002331233123310331233144396441A549FA
:10C2B000E551065A686AE97A4A8BAB9B0CA42DB407
:10C2C0006FBCAFC411CD31CD31CD31CDF1CC33D533
:10C2D00054DD30CC0FB48FAC33BDB1AC509C2A834D
:10C2E000E551CA6AEF8BEF8BF2AC5094CF83E741F4
:10C2F000A2188439C6496110A218C318C318E320D4
:10C30000611082108210A218A218C318E320C2186C
:10C31000A218A218A218C320C318A21861106E7325
:10C320006110811061102008811081104108653171
:10C33000EB62E7413084929418C659C659C659C673
:10C3400018BE59C659C6D7B5B6B5F8BD96AD18BE14
:10C35000F7BDD7B5D7B518BEF7BDD7B5B6B576AD6D
:10C36000B7B596AD96AD96AD76AD75AD55A555A55F
:10C3700015A535A5149DF49CF39CF39CD394B3941C
:10C38000B394B394AE73CF73CF73EF7BEF7BF07B3B
:10C39000F07B107C107C3184318431843184728C48
:10C3A000928C928C928CB394F49C149D149D34A521
:10C3B00035A535A535A555A576AD76AD55A535A5DB
:10C3C00035A5D7B5CF7BEF7B07420C630329A218B5
:10C3D000A220A21882188210E3200429C318C320C7
:10C3E0000429E320C32003210429E328A218A22062
:10C3F000A220C320A218E320E320E320A2106108BA
:10C4000041084108210861084108610841084108C4
:10C4100021082108200000000000000000000000AA
:10C420000000000000000000854144310329033171
:10C4300024310329E2286541233103314339844102
:10C44000C549065267622A83AB9BECA3ECA32DB4CB
:10C450006EBCF1CC53D594DD34D5B2D4B2DCF4E467
:10C46000F3D49AE61CE73DE7FFFF5DE79EF73DE763
:10C47000DBDE34ADD3A4308CAF7B8E7B10847AD6D8
:10C48000B7B5308CA639032961108218A218C320D1
:10C49000A218A21861106110A2188210C318A21865
:10C4A000A218A218A218A218C318A218E320E32009
:10C4B00061104108410820086110A2184108242990
:10C4C00065312C6B14A5149D39C659CE7ACE59C648
:10C4D00018BE59C6B7B559C6B7B5F8BD75AD18BEC3
:10C4E000F8BD18BED7B5D7B5F8BDD7B5D7B5B7B570
:10C4F00055A559C6F8BDD7B539C6B7B5B7B5F8BD56
:10C5000038C6149DB6B576AD39C655A5F7BD55A547
:10C51000149DB294CF7BEF7BF07B107C107C318438
:10C52000318451845184728C728C928C728C928C76
:10C53000B394D394D394F49CD394D394F49CF49C68
:10C54000149D35A555A555A576AD76AD76AD55A509
:10C5500035A5D39CAF7BAA5A6952C739C220A2180D
:10C56000A220A2188218E320E32004210321042939
:10C57000C320C320A220C320C218A2188218A22060
:10C580008118C318C318E320A218A21882186210D9
:10C590004108611020006110410861104108410804
:10C5A00041084108000000004108000000000000B0
:10C5B0000000000000000000854185412331A220D9
:10C5C00043398C9311D552DD73DD12C590B44EAC56
:10C5D0004EAC2EAC4FBC8FBCF0C4B0C44EB4F1D442
:10C5E00053DD53DD33DDD3D451CC30CCEFCB95D5F7
:10C5F000FFFF7ACE9EF71CDF7DF779D63CEFBEF7C2
:10C60000FBDEDFFF7DEFDBDE5DE7FCDED7BD8E7B93
:10C61000108CF8C5B7BD8D7B695AE320A218821033
:10C62000E320C318A21881108210C318A218A21800
:10C630008210A218A21882108210C320A218E32030
:10C640008110410840084108410882104108E74133
:10C65000C218718C728C59CE7ACE79CE79CE7ACEC0
:10C6600018BE7ACE96AD59C6D7B5F8BDF49C39C67A
:10C67000F8BD18BEF8BD96ADF8BDF8BDD7B5B7B5D5
:10C68000B6B555A596AD96AD96AD96AD76AD76ADF3
:10C6900055A535A535A5149D149D149D149DD394C1
:10C6A000D394B394CF7BF07BF07B107C307C3184CF
:10C6B000318451845184728C728C728C928C928CE5
:10C6C000D394D394D394F49CF49C149D149D14A5FA
:10C6D00035A535A535A555A5F49CD394D394B3942D
:10C6E000B3943084AA526952AA5A4531A220A2209A
:10C6F0008218A218C218E3204429E320E32003296A
:10C70000C320E320C320A218E420A21881188110BE
:10C710008110A2186210A318C31882108210A218E8
:10C7200020006108200861084108610841082108CB
:10C73000200821082000000021080000000000005F
:10C7400000000000000000006539A649A96A70AC2D
:10C75000B4E5B4DDF6E517EE58EE78F678F657EE68
:10C76000D5EDB5E5B5E595E5B5E595E595E554DD9A
:10C7700013D574DD34D5B1CCCEC30FC459DE7DEFF3
:10C780001CE779D616D652CD93D594D5B4D5F2BC44
:10C7900099DEBEF7BAD69EF7DBDEFCDE5DE79EEFE4
:10C7A00039C6108C96B539CE34ADCF7BC64104293D
:10C7B000E320C220C31882108218C3208210A2185E
:10C7C000A2188110A218C3186110A218C320A218C1
:10C7D000C2188210000020088110821061102429E4
:10C7E0004429F07B718C18C69ACE59C659C69ACE88
:10C7F00018BE18BE39C639C6D7B5F8BDF49C59C69F
:10C80000F8BD18BE18BED7B5B7B5F7BDF7BDD7B5DB
:10C81000B7B596AD35A596AD76AD76AD55A555A512
:10C8200055A535A5349D149DF49CF49CD394D394C4
:10C83000B394B3940000000000000000000000006A
:10C84000000000003F400000000000000000300039
:10C85000400030004000000009000BC03D000BC04C
:10C860003D00090018C024407FE0224031800000D4
:10C87000180024C01B000D803240018003801C4042
:10C8800027401C80074000401000600000000000AE
:10C89000000000000000000000001F802040402039
:10C8A0000000402020401F8000000000090006001A
:10C8B0001F80060009000000040004003F800400FF
:10C8C00004000000001000600000000000000000F4
:10C8D0000400040004000400040000000000004004
:10C8E0000000000000000000002001C00600380029
:10C8F000400000001F802040204020401F8000009A
:10C90000000010403FC000400000000018C021405F
:10C910002240244018400000108020402440244041
:10C920001B80000002000D0011003FC0014000000C
:10C930003C80244024402440238000001F80244069
:10C9400024403440038000003000200027C038001D
:10C95000200000001B802440244024401B80000055
:10C960001C0022C0224022401F8000000000000066
:10C97000084000000000000000000000046000000B
:10C9800000000000000004000A0011002080404068
:10C9900009000900090009000900000000004040EA
:10C9A000208011000A000400180020002340240009
:10C9B000180000001F802040274029401F40000031
:10C9C000004007C039000F0001C0004020403FC0B8
:10C9D000244024401B8000001F8020402040204035
:10C9E0003080000020403FC0204020401F800000D9
:10C9F00020403FC024402E4030C0000020403FC0B7
:10CA000024402E00300000000F0010802040224003
:10CA10003380020020403FC0040004003FC020409B
:10CA2000204020403FC020402040000000602020E7
:10CA300020203FC02000200020403FC024400B00A9
:10CA400030C0204020403FC020400040004000C097
:10CA50003FC03C0003C03C003FC0000020403FC03E
:10CA60000C4023003FC020001F8020402040204079
:10CA70001F80000020403FC0244024001800000018
:10CA80001F802140214020E01FA0000020403FC027
:10CA90002440260019C0004018C0244024402240F1
:10CAA00031800000300020403FC0204030000000B6
:10CAB00020003F80004000403F80200020003E00DA
:10CAC00001C0070038002000380007C03C0007C044
:10CAD00038000000204039C0060039C02040000066
:10CAE0002000384007C0384020000000304021C0FE
:10CAF0002640384020C00000000000007FE04020B9
:10CB000040200000000070000C0003800040000086
:10CB10000000402040207FE00000000000002000D6
:10CB20004000200000000000001000100010001065
:10CB30000010001000000000400000000000000095
:10CB4000000002800540054003C0004020003FC0B7
:10CB500004400440038000000000038004400440BF
:10CB60000640000000000380044024403FC0004015
:10CB70000000038005400540034000000000044021
:10CB80001FC0244024402000000002E00550055052
:10CB90000650042020403FC00440040003C0004071
:10CBA0000000044027C000400000000000100010FA
:10CBB000041027E00000000020403FC001400700B3
:10CBC00004C00440204020403FC00040004000001E
:10CBD00007C0040007C0040003C00000044007C0F1
:10CBE0000440040003C000400000038004400440EF
:10CBF00003800000041007F004500440038000008C
:10CC0000000003800440045007F00010044007C0F7
:10CC100002400400040000000000064005400540FA
:10CC200004C00000000004001F8004400040000019
:10CC3000040007800040044007C0004004000700D3
:10CC400004C0018006000400060001C0070001C006
:10CC500006000000044006C0010006C004400000B9
:10CC60000410071004E001800600040000000440E6
:10CC700005C00640044000000000000004007BE006
:10CC800040200000000000000000FFF00000000055
:10CC9000000040207BE00400000000004000800015
:10CCA00040002000200040000000000000000000C4
:10CCB00000000000000000000000000000001FCC89
:10CCC000000C0000000000000000080030006000C0
:10CCD0000800300060000000022003FC1E2002203B
:10CCE00003FC1E200220000000000E1811043FFF6C
:10CCF00010840C78000000000F0010840F3800C072
:10CD0000077818840078000000780F8410C411247C
:10CD10000E9800E40084000808006800700000001D
:10CD2000000000000000000000000000000007E01C
:10CD300018182004400200000000400220041818C7
:10CD400007E00000000000000240024001800FF0F8
:10CD500001800240024000000080008000800FF847
:10CD600000800080008000000001000D000E000027
:10CD70000000000000000000000000800080008033
:10CD800000800080008000800000000C000C00008B
:10CD90000000000000000000000000060018006015
:10CDA0000180060018002000000007F008081004A9
:10CDB0001004080807F000000000080408041FFC25
:10CDC000000400040000000000000E0C10141024E9
:10CDD000104411840E0C000000000C181004110403
:10CDE000110412880C700000000000E003200424ED
:10CDF00008241FFC0024000000001F981084110468
:10CE00001104108810700000000007F00888110459
:10CE1000110418880070000000001C00100010FCB5
:10CE200013001C001000000000000E381144108494
:10CE3000108411440E38000000000700088C1044D4
:10CE40001044088807F00000000000000000030CF8
:10CE5000030C0000000000000000000000010106BB
:10CE600000000000000000000000008001400220DF
:10CE700004100808100400000220022002200220F2
:10CE80000220022002200000000010040808041004
:10CE9000022001400080000000000E001200100C73
:10CEA000106C10800F00000003E00C1813E4142431
:10CEB00017C4082807D000000004003C03C41C402D
:10CEC000074000E4001C000410041FFC11041104BE
:10CED00011040E880070000003E00C181004100408
:10CEE000100410081C10000010041FFC1004100493
:10CEF0001004080807F0000010041FFC11041104BE
:10CF000017C410040818000010041FFC11041100BD
:10CF100017C010000800000003E00C1810041004F3
:10CF200010441C780040000010041FFC1084008096
:10CF3000008010841FFC10040000100410041FFC6B
:10CF40001004100400000000000300011001100193
:10CF50001FFE10001000000010041FFC11040380CD
:10CF60001464181C1004000010041FFC10040004BA
:10CF700000040004000C000010041FFC1F0000FC53
:10CF80001F001FFC1004000010041FFC0C04030011
:10CF900000E010181FFC100007F00808100410042F
:10CFA0001004080807F0000010041FFC1084108013
:10CFB000108010800F00000007F0081810241024C3
:10CFC000101C080A07F2000010041FFC11041100D5
:10CFD00011C011300E0C000400000E1C110410844E
:10CFE000108410441C3800001800100010041FFCAE
:10CFF000100410001800000010001FF810040004B6
:10D00000000410041FF8100010001E0011E0001CA6
:10D01000007013801C0010001FC0103C00E01F00B7
:10D0200000E0103C1FC000001004180C163401C0B2
:10D0300001C01634180C100410001C00130400FC6E
:10D0400013041C00100000000804101C106410845D
:10D0500013041C04101800000000000000007FFEF4
:10D060004002400240020000000030000C0003803B
:10D070000060001C0003000000004002400240026B
:10D080007FFE0000000000000000000020004000C3
:10D0900040004000200000000001000100010001EC
:10D0A00000010001000100010000400040002000DC
:10D0B000000000000000000000000098012401446E
:10D0C0000144014400FC000410001FFC008801041E
:10D0D0000104008800700000000000700088010456
:10D0E00001040104008800000000007000880104B1
:10D0F000010411081FFC0004000000F80144014471
:10D100000144014400C800000000010401040FFCB8
:10D110001104110411001800000000D60129012992
:10D12000012901C90106000010041FFC0084010050
:10D130000100010400FC000400000104190419FCB2
:10D1400000040004000000000000000300010101D1
:10D15000190119FE0000000010041FFC002400400B
:10D1600001B4010C010400000000100410041FFCB5
:10D170000004000400000000010401FC010401009F
:10D1800001FC0104010000FC010401FC0084010019
:10D190000100010400FC0004000000F80104010487
:10D1A0000104010400F80000010101FF00850104F1
:10D1B0000104008800700000000000700088010475
:10D1C0000104010501FF00010104010401FC0084C8
:10D1D0000104010001800000000000CC01240124B2
:10D1E000012401240198000000000100010007F85B
:10D1F0000104010400000000010001F80004000423
:10D200000004010801FC0004010001800170000C11
:10D21000001001600180010001F0010C003001C02C
:10D220000030010C01F0010000000104018C0074C9
:10D230000170018C01040000010101810171000EE7
:10D24000001801600180010000000184010C01341C
:10D2500001440184010C00000000000000000000F7
:10D2600001003EFC400240020000000000000000FF
:10D27000FFFF0000000000000000400240023EFCF2
:10D28000010000000000000000006000800080003D
:10D2900040004000200020000000000000000000CE
:10D2A000000000000000000000000000000000007E
:10D2B000000000000000000000000000000000006E
:10D2C00000000000000000000000000F80380FFE8A
:10D2D000380F80380000000000000000000000004F
:10D2E0000000000000000100000600000C000038F3
:10D2F00000003100000600000C0000380000300083
:10D30000000000000000000061800067F807F9805D
:10D310000061800061800061800061800067F80723
:10D32000F98000618000000000000000000001C0E2
:10D33000E003E0F00630080418081FFFFE040E08A2
:10D340000787F00381E000000000000001F0000604
:10D350000C00040408060C7001F9C0000E00003B2C
:10D36000E000EC18070808040C180003E0000000B7
:10D370000001E00007F003F818041C080417080770
:10D38000E1D003C0E00023B0003C0800200800000A
:10D390001000000000000001000031000032000019
:10D3A0001C00000000000000000000000000000061
:10D3B000000000000000000000000000000000006D
:10D3C00000000000000000007F0001FFC00780F0A7
:10D3D0000C001810000420000200000000000020D3
:10D3E00000021000040C00180780F001FFC0007F4D
:10D3F000000000000000000000000000000000002D
:10D40000000000004200006600006600003C0000D2
:10D41000180003FFC0001800003C00006600006612
:10D4200000004200000000000800000800000800A2
:10D4300000080000080001FFC0000800000800000C
:10D4400008000008000008000000000000010000C3
:10D450003100003200001C0000000000000000004D
:10D4600000000000000000000000000000000000BC
:10D47000080000080000080000080000080000087C
:10D48000000008000008000008000008000000007C
:10D4900000000000000000003800003800003800E4
:10D4A000000000000000000000000000000000007C
:10D4B0000000000000000000000600001C000070DA
:10D4C000000180000E0000380000C0000700001CB2
:10D4D0000000300000000000000000007F8001FF1D
:10D4E000E003807006001804000804000806001815
:10D4F00003807001FFE0007F80000000000000005A
:10D50000000001000801000801000803FFF807FF00
:10D51000F8000008000008000008000000000000FB
:10D5200000000001C03802C058040098040118042B
:10D530000218040418061C1803F81801E0F800008B
:10D540000000000000000001C0E003C0F00400087B
:10D5500004080804080806180803F41801E7F00096
:10D5600001E0000000000000000000000300000DCA
:10D570000000110000610000810803010807FFF8A6
:10D580000FFFF80001080001080000000000000083
:10D5900000E007FCD0060808061008061008061070
:10D5A00008061838060FF00607C00000000000004B
:10D5B000000000003F8001FFE003843002081804EF
:10D5C0001008041008041008071810030FF00007D3
:10D5D000C000000000000000000003C000070000C1
:10D5E0000600000600F80607F806180006E0000727
:10D5F000000006000000000000000001E1E003F769
:10D60000F0063410041808041808040C08040C0868
:10D6100006161803F3F001C1E0000000000000004E
:10D62000F80003FC30030638040208040208040270
:10D63000080404100308F001FFC0007F0000000090
:10D6400000000000000000000000000000000000DA
:10D6500070380070380070380000000000000000D2
:10D6600000000000000000000000000000000000BA
:10D6700000000000301A00301C0000000000000014
:10D680000000000000000000000000000000000892
:10D6900000001400002200004100008080010040D2
:10D6A0000200200400100800080000000000000034
:10D6B00021000021000021000021000021000021A4
:10D6C00000002100002100002100002100000000D6
:10D6D0000000000000000800080400100200200103
:10D6E000004000808000410000220000140000087B
:10D6F0000000000000000003C00004C0000400009F
:10D70000080038080F380808380810000C300007E7
:10D71000E00003C000000000000000003F8000FFA8
:10D72000E0038070020F1006708804C0880483082C
:10D73000047F8802C09003012000FE400000080022
:10D7400000180001F8003E0801C20007020007E2CD
:10D750000000FE00001FC80001F8000038000008AB
:10D7600004000807FFF807FFF80408080408080485
:10D77000080804080806180803F41801E7F0000177
:10D78000E0000000000000003F8001FFE003807027
:10D790000200180400080400080400080400100631
:10D7A00000200780C000000004000807FFF807FF02
:10D7B000F80400080400080400080400180200101F
:10D7C00003807001FFE0007F800000000400080774
:10D7D000FFF807FFF804080804080804080804080C
:10D7E00008043E080400080600180100600000005C
:10D7F00004000807FFF807FFF804080804080004FD
:10D800000800040800043E00060000060000018035
:10D8100000000000000000003F8001FFE003807076
:10D820000600180400080402080402080203F007B6
:10D8300083F000020000020004000807FFF807FF61
:10D84000F8040808000800000800000800000800AC
:10D8500004080807FFF807FFF804000800000000AC
:10D86000000004000804000804000807FFF807FF90
:10D87000F80400080400080400080000000000008C
:10D880000000000000060000070000010400010481
:10D89000000104000307FFFE07FFFC040000040072
:10D8A0000004000004000807FFF807FFF8040C0854
:10D8B000001800003E0004C7800503C80600F804F5
:10D8C000003804001800000804000807FFF807FFEC
:10D8D000F804000800000800000800000800000824
:10D8E00000000800001800006000000004000807A5
:10D8F000FFF807800807FC00007FC00003F800075E
:10D90000C000780007800807FFF807FFF804000848
:10D9100004000807FFF807000803C00000E000004B
:10D920003800001E000007000001C00400F007FFDF
:10D93000F8040000000000007F8001FFE003807019
:10D94000060018040008040008060018030030014F
:10D95000FFE0007F8000000004000807FFF807FFD9
:10D96000F80404080404000404000404000404008F
:10D97000060C0003F80001F00000000000000000A9
:10D980007F8001FFE00380700600880400880400A7
:10D99000C806003C03003E01FFE6007F8400000053
:10D9A00004000807FFF807FFF8040808040800044B
:10D9B0000C00040F00040BC00610F003F03801E067
:10D9C0000800000800000001E0F803F03006301005
:10D9D000041808041808040C08040C0802061802AD
:10D9E00007F00781E000000001800006000004004D
:10D9F0000004000004000807FFF807FFF80400080F
:10DA0000040000040000060000018000040000077C
:10DA1000FFE007FFF0040018000008000008000005
:10DA20000800000800000804001007FFE0040000E0
:10DA300004000006000007E00007FE00041FE000ED
:10DA400001F80000380001E0043E0007C0000600B5
:10DA50000004000004000007E00007FFC0041FF8F6
:10DA60000007C007F80007FF80043FF80007C00464
:10DA7000F800070000040000000000040008060091
:10DA80001807C07805F1C8003E00001F800463E855
:10DA90000780F806001804000800000004000006D3
:10DAA000000007800007E008047C08001FF800075A
:10DAB000F800180804E00807000006000004000051
:10DAC0000000000100080600380400F80403E80420
:10DAD0000F08047C0805F00807C0080700180400B8
:10DAE00060000000000000000000000000000000D6
:10DAF0000000003FFFFE2000022000022000022064
:10DB000000022000020000000000000000000800E9
:10DB10000007000000C0000038000006000001C03F
:10DB200000003000000E00000100000000000000B6
:10DB3000000020000220000220000220000220003D
:10DB4000023FFFFE00000000000000000000000097
:10DB5000000000000000000000080000100000307D
:10DB6000000020000030000010000008000000004D
:10DB700000000000000001000001000001000001A1
:10DB80000000010000010000010000010000010090
:10DB90000001000001000001000000000000000082
:10DBA0000020000020000010000010000000000015
:10DBB0000000000000000000000000000000000065
:10DBC00000F00019F8001B180022080026080024A5
:10DBD00008002410003FF8001FF80000080000189B
:10DBE00000000004000007FFF80FFFF00018180005
:10DBF0001008002008002008003018001FF0000F57
:10DC0000C00000000000000007C0001FF000183036
:10DC1000002008002008002008003C08001C10001C
:10DC200000600000000000000000000007C0001FAE
:10DC3000F000381800200800200800200804101008
:10DC400007FFF80FFFF000001000000000000000C8
:10DC500000000007C0001FF0001230002218002250
:10DC600008002208003208001E10000E20000000EC
:10DC700000000000200000200800200801FFF80339
:10DC8000FFF80620080420080420080720000300ED
:10DC90000000000000000000000E000E6E001FF3E8
:10DCA0000031B10020B10020B1003191001F1300FC
:10DCB0002E1E00200E00300000000004000807FFA8
:10DCC000F80FFFF8001008002000002000002008D6
:10DCD000003FF8001FF800000800000000000000EE
:10DCE0000000002008002008002008063FF8063F3A
:10DCF000F800000800000800000800000000000014
:10DD000000000000000000000300000300200100EC
:10DD10002001002003063FFE063FFC00000000003B
:10DD20000000000000000004000807FFF80FFFF8E3
:10DD3000000188000300002FC00038F800203800E0
:10DD4000200800000800000000000000000004009F
:10DD50000804000804000807FFF80FFFF800000897
:10DD6000000008000008000000000000002008007B
:10DD70003FF8003FF8001008002000003FF8003F87
:10DD8000F8001008002000003FF8003FF8000008ED
:10DD9000000000002008003FF8003FF800100800D5
:10DDA0001000002000002008003FF8001FF80000CD
:10DDB000080000000000000007C0000FF00018304D
:10DDC000003008002008002008003008001830004B
:10DDD0000FF00007C0000000000000002001003F1D
:10DDE000FF003FFF0010110020090020080020085C
:10DDF000003038001FF0000FC000000000000000DD
:10DE000007C0001FF000381800200800200800207C
:10DE100009001011001FFF003FFF0000010000007B
:10DE2000002008002008002008003FF8003FF8000C
:10DE30000808001008002008002000003000003012
:10DE400000000000000000000000000C78001E1818
:10DE500000330800230800210800218800219800D1
:10DE600030F00038600000000000000020000020BA
:10DE70000000200000FFF003FFF800200800200849
:10DE8000002008000030000000000000000000003A
:10DE90002000003FF0007FF800001800000800009C
:10DEA00008002010003FF8007FF000001000000084
:10DEB000000000002000003000003C00003F800017
:10DEC00023F0000078000070002380003C00003048
:10DED00000002000002000003C00003FE00023F88C
:10DEE0000000E0002700003E00003FE00021F800B5
:10DEF00001E0003E0000200000000000200800209B
:10DF000008003838003E680027800003C8002CF85D
:10DF10000038380020180020080000000000000031
:10DF20002000003003003C01003F830023EC000090
:10DF300070002380003C0000200000200000000052
:10DF40000000000000000038080020380020F80021
:10DF500023E8002F88003E08003808002018000041
:10DF60007000000000000000000000000000000041
:10DF70000000000008000014001FF7FC300006201D
:10DF8000000200000000000000000000000000008F
:10DF900000000000000000000000FFFFFF00000084
:10DFA0000000000000000000000000000000000071
:10DFB00000002000023000061FF7FC0014000008DB
:10DFC0000000000000000000000000000000000051
:10DFD0000000001800006000004000004000002029
:10DFE00000001000000800000400000400000C0005
:10DFF0000010000000000000000000000000000011
:10E000000000000000000000000000000000000010
:10E010000000000000000000000000000000000000
:10E0200000000000000000000000000000000000F0
:10E0300000000000000000000000000000000000E0
:10E0400000000000000000000000000000000000D0
:10E0500000000000000000000000000000000000C0
:10E0600000000000000000000000000000000000B0
:10E0700000000000000000000000000000000000A0
:10E0800000000000000000000000000007F000C0D9
:10E0900007FFE1E007F001E0000000C00000000021
:10E0A0000000000000000000000000000000000070
:10E0B0000000000000000000000000000000000060
:10E0C0000000000000000000000000000000000050
:10E0D0000000000000000000000000000000000040
:10E0E0000000000000000000000000000000000030
:10E0F0000000000000000000000000000020000000
:10E1000001C00000078000001F0000001E0000008A
:10E110001C20000001C00000078000001F0000005C
:10E120001E0000001C0000000000000000000000B5
:10E1300000000000000000000000000000000000DF
:10E1400000000000000000000000000000000000CF
:10E1500000000000000000000000000000000000BF
:10E1600000000000000000000000000000000000AF
:10E17000000000000000000000180C0000180C0057
:10E1800000180FE0001FFC0003F80C0000180C0042
:10E1900000180C0000180C0000180C0000180FE00C
:10E1A000001FFC0003F80C0000180C0000180C0005
:10E1B000000000000000000000000000000000005F
:10E1C000000000000000000000000000000000004F
:10E1D000000000000000000000000000000000003F
:10E1E000000000000000000000000000000000002F
:10E1F0000000000000000000000000000000078098
:10E20000007807C000FC0640010E00200307002034
:10E21000020380200FFFFFFC0201C0200200E0602B
:10E220000130704001F03F8000F01F00000000004E
:10E2300000000000000000000000000000000000DE
:10E2400000000000000000000000000000000000CE
:10E2500000000000000000000000000000000000BE
:10E2600000000000000000000000000000000000AE
:10E270000000000000FE000001FF0000030180001C
:10E2800002008060030181C001FF070000FE18004A
:10E290000000E0000003BF00000CFFC000718060C0
:10E2A00001C10020030180600000FFC000003F00AA
:10E2B000000000000000000000000000000000005E
:10E2C000000000000000000000000000000000004E
:10E2D000000000000000000000000000000000003E
:10E2E000000000000000000000000000000000002E
:10E2F0000000000000001F0000007FC000FCC0C044
:10E3000001FF80600303E0200202782002061E2045
:10E3100003FC074001F00380000103C000011C6002
:10E320000001E02000010020000100400000018009
:10E3300000000000000000000000000000000000DD
:10E3400000000000000000000000000000000000CD
:10E3500000000000000000000000000000000000BD
:10E3600000000000000000000000000000000000AD
:10E370000000000000000000002000001C60000001
:10E380001C4000001F8000000F0000000000000083
:10E39000000000000000000000000000000000007D
:10E3A000000000000000000000000000000000006D
:10E3B000000000000000000000000000000000005D
:10E3C000000000000000000000000000000000004D
:10E3D000000000000000000000000000000000003D
:10E3E000000000000000000000000000000000002D
:10E3F000000000000000000000000000000000001D
:10E40000000000000000000000000000000000000C
:10E410000007F800003FFF00007807C001C000E0DF
:10E42000030000300400000808000004100000028F
:10E4300000000000000000000000000000000000DC
:10E4400000000000000000000000000000000000CC
:10E4500000000000000000000000000000000000BC
:10E4600000000000000000000000000000000000AC
:10E47000000000000000000010000002080000047E
:10E48000040000080300003001C000E0007807C06D
:10E49000003FFF000007F80000000000000000003F
:10E4A000000000000000000000000000000000006C
:10E4B000000000000000000000000000000000005C
:10E4C000000000000000000000000000000000004C
:10E4D000000000000000000000000000000000003C
:10E4E000000000000000000000000000000000002C
:10E4F000000000000000000000000000000C1800F8
:10E50000000E3800000E38000006300000036000E6
:10E510000061438000FFFF80006143000003600052
:10E5200000063000000E3800000E3800000C180005
:10E5300000000000000000000000000000000000DB
:10E5400000000000000000000000000000000000CB
:10E5500000000000000000000000000000000000BB
:10E5600000000000000000000000000000000000AB
:10E57000000000000000000000000000000080001B
:10E58000000080000000800000008000000080008B
:10E5900000008000007FFF0000008000000080007D
:10E5A000000080000000800000008000000080006B
:10E5B000000000000000000000000000000000005B
:10E5C000000000000000000000000000000000004B
:10E5D000000000000000000000000000000000003B
:10E5E000000000000000000000000000000000002B
:10E5F000000000000000000000000001000000E337
:10E60000000000E2000000FC0000007800000000B4
:10E6100000000000000000000000000000000000FA
:10E6200000000000000000000000000000000000EA
:10E6300000000000000000000000000000000000DA
:10E6400000000000000000000000000000000000CA
:10E6500000000000000000000000000000000000BA
:10E6600000000000000000000000000000000000AA
:10E67000000000000000000000008000000080009A
:10E68000000080000000800000008000000080008A
:10E69000000080000000800000008000000080007A
:10E6A000000080000000800000008000000080006A
:10E6B000000000000000000000000000000000005A
:10E6C000000000000000000000000000000000004A
:10E6D000000000000000000000000000000000003A
:10E6E000000000000000000000000000000000002A
:10E6F000000000000000000000000000000000C05A
:10E70000000001E0000001E0000000C00000000087
:10E7100000000000000000000000000000000000F9
:10E7200000000000000000000000000000000000E9
:10E7300000000000000000000000000000000000D9
:10E7400000000000000000000000000000000000C9
:10E7500000000000000000000000000000000000B9
:10E7600000000000000000000000000000000000A9
:10E7700000000000000000000000000C0000003855
:10E78000000000E00000038000000E0000003800E0
:10E790000000E00000038000000E000000380000D0
:10E7A00000E00000038000000E00000018000000E0
:10E7B0000000000000000000000000000000000059
:10E7C0000000000000000000000000000000000049
:10E7D0000000000000000000000000000000000039
:10E7E0000000000000000000000000000000000029
:10E7F000000000000000000000000000000FF80012
:10E80000007FFF0000F00780018000C0030000606F
:10E81000020000200200002002000020030000602F
:10E82000018000C000E00380007FFF00000FF800BF
:10E8300000000000000000000000000000000000D8
:10E8400000000000000000000000000000000000C8
:10E8500000000000000000000000000000000000B8
:10E8600000000000000000000000000000000000A8
:10E870000000000000000000000000000000000098
:10E8800000800020008000200080002000800060C8
:10E8900001FFFFE003FFFFE0000000600000002038
:10E8A0000000002000000020000000000000000028
:10E8B0000000000000000000000000000000000058
:10E8C0000000000000000000000000000000000048
:10E8D0000000000000000000000000000000000038
:10E8E0000000000000000000000000000000000028
:10E8F000000000000000000000000000007800E0C0
:10E9000000980160010002600200046002000860DB
:10E91000020010600200206002004060030080607E
:10E920000183006001FE00E0007C07800000000021
:10E9300000000000000000000000000000000000D7
:10E9400000000000000000000000000000000000C7
:10E9500000000000000000000000000000000000B7
:10E9600000000000000000000000000000000000A7
:10E9700000000000000000000000000000F0078020
:10E9800001F007C001000040020000200201002049
:10E990000201002002010020030380200186804044
:10E9A00001FCC0C000787F8000001E000000000055
:10E9B0000000000000000000000000000000000057
:10E9C0000000000000000000000000000000000047
:10E9D0000000000000000000000000000000000037
:10E9E0000000000000000000000000000000000027
:10E9F00000000000000000000000080000003800D7
:10EA0000000048000001880000060800000C081003
:10EA1000003008100040081001FFFFF003FFFFF076
:10EA200003FFFFF0000008100000081000000810AD
:10EA300000000000000000000000000000000000D6
:10EA400000000000000000000000000000000000C6
:10EA500000000000000000000000000000000000B6
:10EA600000000000000000000000000000000000A6
:10EA7000000000000000000000000000000007800F
:10EA8000001F864003E10020030200200304002051
:10EA900003040020030400200304002003060040B8
:10EAA000030301C00301FF8003007E00000000009B
:10EAB0000000000000000000000000000000000056
:10EAC0000000000000000000000000000000000046
:10EAD0000000000000000000000000000000000036
:10EAE0000000000000000000000000000000000026
:10EAF0000000000000000000000000000007FC0013
:10EB0000003FFF000070C380008180C001010060F1
:10EB10000302002002020020020200200202002064
:10EB20000203004001C180C000C0FF8000007E00E1
:10EB300000000000000000000000000000000000D5
:10EB400000000000000000000000000000000000C5
:10EB500000000000000000000000000000000000B5
:10EB600000000000000000000000000000000000A5
:10EB700000000000000000000000000000F00000A5
:10EB800003C000000380000003000000030007E052
:10EB900003003FE00301C00003060000031800006B
:10EBA000036000000380000003000000000000007C
:10EBB0000000000000000000000000000000000055
:10EBC0000000000000000000000000000000000045
:10EBD0000000000000000000000000000000000035
:10EBE0000000000000000000000000000000000025
:10EBF000000000000000000000001F0000783F80BF
:10EC000000FC60C0018EC04003078020020300208A
:10EC100002018020020180200201C0200301E040A7
:10EC2000018670C000FC3F8000781F0000000000DB
:10EC300000000000000000000000000000000000D4
:10EC400000000000000000000000000000000000C4
:10EC500000000000000000000000000000000000B4
:10EC600000000000000000000000000000000000A4
:10EC70000000000000000000003F000000FF81C015
:10EC800001C0C1C00100602002002020020020203D
:10EC90000200202002002060020040C00100C1806C
:10ECA00000C18F00007FFE00001FF0000000000088
:10ECB0000000000000000000000000000000000054
:10ECC0000000000000000000000000000000000044
:10ECD0000000000000000000000000000000000034
:10ECE0000000000000000000000000000000000024
:10ECF0000000000000000000000000000000000014
:10ED0000000000000000000000000000000300C040
:10ED1000000781E0000781E0000300C00000000060
:10ED200000000000000000000000000000000000E3
:10ED300000000000000000000000000000000000D3
:10ED400000000000000000000000000000000000C3
:10ED500000000000000000000000000000000000B3
:10ED600000000000000000000000000000000000A3
:10ED70000000000000000000000000000000000093
:10ED80000000000000000000000000000006006617
:10ED900000060078000000000000000000000000F5
:10EDA0000000000000000000000000000000000063
:10EDB0000000000000000000000000000000000053
:10EDC0000000000000000000000000000000000043
:10EDD0000000000000000000000000000000000033
:10EDE0000000000000000000000000000000000023
:10EDF0000000000000000000000000000000800093
:10EE00000001C0000003600000063000000C180084
:10EE100000180C00003006000060030000C00180F4
:10EE2000010000400200002004000010000000006B
:10EE300000000000000000000000000000000000D2
:10EE400000000000000000000000000000000000C2
:10EE500000000000000000000000000000000000B2
:10EE600000000000000000000000000000000000A2
:10EE7000000000000000000000041000000410006A
:10EE80000004100000041000000410000004100032
:10EE90000004100000041000000410000004100022
:10EEA0000004100000041000000410000004100012
:10EEB0000000000000000000000000000000000052
:10EEC0000000000000000000000000000000000042
:10EED0000000000000000000000000000000000032
:10EEE0000000000000000000000000000000000022
:10EEF00000000000000000000000000004000010FE
:10EF0000020000200100004000C0018000600300FA
:10EF10000030060000180C00000C1800000630003D
:10EF2000000360000001C00000008000000000003D
:10EF300000000000000000000000000000000000D1
:10EF400000000000000000000000000000000000C1
:10EF500000000000000000000000000000000000B1
:10EF600000000000000000000000000000000000A1
:10EF70000000000000000000000000000078000019
:10EF800001F800000238000002000000040000C088
:10EF9000040079E0040081E0040100C004030000E3
:10EFA000020200000306000001FC000000F800005F
:10EFB0000000000000000000000000000000000051
:10EFC0000000000000000000000000000000000041
:10EFD0000000000000000000000000000000000031
:10EFE0000000000000000000000000000000000021
:10EFF0000000000000000000000FF800003FFE00CD
:10F000000070078000C000C00101F8400307FC2029
:10F01000021E04200230082002203020023FFC2083
:10F02000013F044001800CC000E03180001FC2009D
:10F0300000000000000000000000000000000000D0
:10F0400000000000000000000000000000000000C0
:10F0500000000000000000000000000000000000B0
:10F0600000000000000000000000000000000000A0
:10F07000000000000000002000000060000003E02D
:10F0800000003E200003E020003E200003E02000BE
:10F090000380200007FC2000003FE0000003FE206A
:10F0A00000003FE0000001E0000000200000002020
:10F0B0000000000000000000000000000000000050
:10F0C0000000000000000000000000000000000040
:10F0D0000000000000000000000000000000000030
:10F0E0000000000000000000000000000000000020
:10F0F00000000000000000000200002002000020CC
:10F1000003FFFFE003FFFFE00201002002010020F7
:10F110000201002002010020020100200303002060
:10F120000186806001FCC0C000F87F8000001F00E5
:10F1300000000000000000000000000000000000CF
:10F1400000000000000000000000000000000000BF
:10F1500000000000000000000000000000000000AF
:10F16000000000000000000000000000000000009F
:10F1700000000000000000000007F800003FFF0052
:10F180000070078000C000C00100004003000020A4
:10F1900002000020020000200200002002000020E7
:10F1A00001000040018000C003C001800030060063
:10F1B000000000000000000000000000000000004F
:10F1C000000000000000000000000000000000003F
:10F1D000000000000000000000000000000000002F
:10F1E000000000000000000000000000000000001F
:10F1F00000000000000000000200002002000020CB
:10F2000003FFFFE003FFFFE00200002002000020F8
:10F210000200002002000020030000600100004006
:10F22000018000C000F00780007FFE00000FF800A2
:10F2300000000000000000000000000000000000CE
:10F2400000000000000000000000000000000000BE
:10F2500000000000000000000000000000000000AE
:10F26000000000000000000000000000000000009E
:10F27000000000000000000002000020020000204A
:10F2800003FFFFE003FFFFE0020100200201002076
:10F290000201002002010020020100200203802060
:10F2A000020FE0200300006003C000E000600300E4
:10F2B000000000000000000000000000000000004E
:10F2C000000000000000000000000000000000003E
:10F2D000000000000000000000000000000000002E
:10F2E000000000000000000000000000000000001E
:10F2F00000000000000000000200002002000020CA
:10F3000003FFFFE003FFFFE00201002002010020F5
:10F3100002010000020100000201000002010000E1
:10F3200002038000030FE0000300000003C00000A0
:10F33000006000000000000000000000000000006D
:10F3400000000000000000000000000000000000BD
:10F3500000000000000000000000000000000000AD
:10F36000000000000000000000000000000000009D
:10F3700000000000000000000007F800003FFE0051
:10F380000070078001C001C00100004003000020A0
:10F3900002000020020000200200002001002020C6
:10F3A0000100204003C03F8000303F80000020006B
:10F3B000000020000000000000000000000000002D
:10F3C000000000000000000000000000000000003D
:10F3D000000000000000000000000000000000002D
:10F3E000000000000000000000000000000000001D
:10F3F00000000000020000200200002003FFFFE0E8
:10F4000003FFFFE002008020020080200000800057
:10F4100000008000000080000200802002008020A8
:10F4200003FFFFE003FFFFE00200002002000020D6
:10F4300000000000000000000000000000000000CC
:10F4400000000000000000000000000000000000BC
:10F4500000000000000000000000000000000000AC
:10F46000000000000000000000000000000000009C
:10F47000000000000000000000000000000000008C
:10F4800002000020020000200200002002000020F4
:10F4900003FFFFE003FFFFE0020000200200002066
:10F4A0000200002002000020000000000000000018
:10F4B000000000000000000000000000000000004C
:10F4C000000000000000000000000000000000003C
:10F4D000000000000000000000000000000000002C
:10F4E000000000000000000000000000000000001C
:10F4F00000000000000000000000000E0000000FEF
:10F500000000000F000000010200000102000001E5
:10F51000020000030200000603FFFFFC03FFFFF8E8
:10F5200002000000020000000200000002000000D3
:10F5300000000000000000000000000000000000CB
:10F5400000000000000000000000000000000000BB
:10F5500000000000000000000000000000000000AB
:10F56000000000000000000000000000000000009B
:10F570000000000000000000020000200200002047
:10F5800003FFFFE003FFFFE00200C02002010020B4
:10F5900000078000000FE0000030F80002603E200D
:10F5A00003800F20030003E0020000E002000020BF
:10F5B000000000200000000000000000000000002B
:10F5C000000000000000000000000000000000003B
:10F5D000000000000000000000000000000000002B
:10F5E000000000000000000000000000000000001B
:10F5F00000000000000000000200002002000020C7
:10F6000003FFFFE003FFFFE00200002002000020F4
:10F61000000000200000002000000020000000206A
:10F620000000002000000060000000E00000030077
:10F6300000000000000000000000000000000000CA
:10F6400000000000000000000000000000000000BA
:10F6500000000000000000000000000000000000AA
:10F66000000000000000000000000000000000009A
:10F6700000000000020000200200002003FFFFE065
:10F6800003E0002003FF0020001FF0000001FF80C6
:10F6900000000FE000001E000003E000003E00201C
:10F6A00003E0002003FFFFE003FFFFE00200002073
:10F6B0000200002000000000000000000000000028
:10F6C000000000000000000000000000000000003A
:10F6D000000000000000000000000000000000002A
:10F6E000000000000000000000000000000000001A
:10F6F00000000000020000200200002003FFFFE0E5
:10F700000380002003F0002000FC0000001F000028
:10F710000007C0000001F00000007C0002001F8014
:10F72000020007E003FFFFE002000000020000000B
:10F7300000000000000000000000000000000000C9
:10F7400000000000000000000000000000000000B9
:10F7500000000000000000000000000000000000A9
:10F760000000000000000000000000000000000099
:10F770000000000000000000000FF800003FFE0045
:10F7800000F00780018000C001000040020000205E
:10F7900002000020020000200200002001000040C2
:10F7A000018000C000F00380003FFE00000FF80061
:10F7B0000000000000000000000000000000000049
:10F7C0000000000000000000000000000000000039
:10F7D0000000000000000000000000000000000029
:10F7E0000000000000000000000000000000000019
:10F7F00000000000000000000200002002000020C5
:10F8000003FFFFE003FFFFE00200802002008020F2
:10F8100002008000020080000200800002008000E0
:10F82000030180000183000000FE0000007C000056
:10F8300000000000000000000000000000000000C8
:10F8400000000000000000000000000000000000B8
:10F8500000000000000000000000000000000000A8
:10F860000000000000000000000000000000000098
:10F870000000000000000000000FF800007FFF0003
:10F8800000F00380018001C0010006400200042056
:10F890000200042002000620020003E0010000F83C
:10F8A0000180005C00E0038C003FFF0C000FFC189F
:10F8B0000000000000000000000000000000000048
:10F8C0000000000000000000000000000000000038
:10F8D0000000000000000000000000000000000028
:10F8E0000000000000000000000000000000000018
:10F8F00000000000000000000200002002000020C4
:10F9000003FFFFE003FFFFE00201002002010020EF
:10F91000020180000201E0000201FC0003033F80BD
:10F92000018607E001FC00E000F800200000002054
:10F9300000000000000000000000000000000000C7
:10F9400000000000000000000000000000000000B7
:10F9500000000000000000000000000000000000A7
:10F960000000000000000000000000000000000097
:10F970000000000000000000000000000078060009
:10F9800000FE01E0018600C00303004002030020E6
:10F9900002018020020180200201C0200200C0205C
:10F9A0000100E060018070C003E03F8000001F00A4
:10F9B0000000000000000000000000000000000047
:10F9C0000000000000000000000000000000000037
:10F9D0000000000000000000000000000000000027
:10F9E0000000000000000000000000000000000017
:10F9F0000000000000000000006000000380000024
:10FA000003000000020000000200002002000020AD
:10FA100003FFFFE003FFFFE00200002002000020E0
:10FA200002000000020000000380000000E000006F
:10FA300000000000000000000000000000000000C6
:10FA400000000000000000000000000000000000B6
:10FA500000000000000000000000000000000000A6
:10FA60000000000000000000000000000000000096
:10FA700000000000020000000200000003FFFF0081
:10FA800003FFFFC0020000400200006000000020F1
:10FA900000000020000000200000002002000040C4
:10FAA0000200008003FFFF000200000002000000CF
:10FAB0000000000000000000000000000000000046
:10FAC0000000000000000000000000000000000036
:10FAD0000000000000000000000000000000000026
:10FAE0000000000000000000000000000000000016
:10FAF0000000000000000000020000000200000002
:10FB000003C0000003FC0000023FC0000003F80037
:10FB100000007F80000007E0000007800000780000
:10FB20000203C000023C000003C00000020000000D
:10FB300002000000000000000000000000000000C3
:10FB400000000000000000000000000000000000B5
:10FB500000000000000000000000000000000000A5
:10FB60000000000000000000000000000000000095
:10FB7000000000000200000003C0000003FF80003E
:10FB8000023FFE0002007FE000000F000200F000D4
:10FB900003EF000003FF8000020FFE0000003FE0C3
:10FBA00000001F000207E00003F80000030000004F
:10FBB0000200000000000000000000000000000043
:10FBC0000000000000000000000000000000000035
:10FBD0000000000000000000000000000000000025
:10FBE0000000000000000000000000000000000015
:10FBF00000000000000000000200002002000020C1
:10FC0000038000E003F0032002FC0C20021F300000
:10FC10000007C0000007F00002187C0002601F20EF
:10FC2000038003E0020000E002000020000000204A
:10FC300000000000000000000000000000000000C4
:10FC400000000000000000000000000000000000B4
:10FC500000000000000000000000000000000000A4
:10FC60000000000000000000000000000000000094
:10FC7000000000000000000002000000030000007F
:10FC800003C0000003F80000023E0020020FC02065
:10FC90000001FFE000007FE000038020021C002044
:10FCA000027000000380000002000000020000005B
:10FCB0000000000000000000000000000000000044
:10FCC0000000000000000000000000000000000034
:10FCD0000000000000000000000000000000000024
:10FCE0000000000000000000000000000000000014
:10FCF000000000000000000000000020006000E0A4
:10FD0000038003E003000FA002003E200200F82061
:10FD10000203E020020F8020023E00200278002033
:10FD200003E00060038000E0020003000000000028
:10FD300000000000000000000000000000000000C3
:10FD400000000000000000000000000000000000B3
:10FD500000000000000000000000000000000000A3
:10FD60000000000000000000000000000000000093
:10FD70000000000000000000000000000000000083
:10FD80000000000000000000000000001FFFFFFC5A
:10FD90001000000410000004100000041000000413
:10FDA0001000000410000004100000040000000017
:10FDB0000000000000000000000000000000000043
:10FDC0000000000000000000000000000000000033
:10FDD0000000000000000000000000000000000023
:10FDE0000000000000000000000000000000000013
:10FDF0000000000000000000000000000000000003
:10FE00000700000003C0000000780000001E000092
:10FE10000003C0000000F00000001E00000007808A
:10FE2000000000F00000003C0000000600000000A0
:10FE300000000000000000000000000000000000C2
:10FE400000000000000000000000000000000000B2
:10FE500000000000000000000000000000000000A2
:10FE60000000000000000000000000000000000092
:10FE7000000000000000000000000000100000046E
:10FE80001000000410000004100000041000000422
:10FE900010000004100000041FFFFFFC0000000021
:10FEA0000000000000000000000000000000000052
:10FEB0000000000000000000000000000000000042
:10FEC0000000000000000000000000000000000032
:10FED0000000000000000000000000000000000022
:10FEE0000000000000000000000000000000000012
:10FEF0000000000000000000000000000000000002
:10FF000000000000020000000400000008000000E3
:10FF10001800000010000000180000001800000089
:10FF200004000000020000000000000000000000CB
:10FF300000000000000000000000000000000000C1
:10FF400000000000000000000000000000000000B1
:10FF500000000000000000000000000000000000A1
:10FF60000000000000000000000000000000000091
:10FF7000000000000000000100000001000000017E
:10FF8000000000010000000100000001000000016D
:10FF9000000000010000000100000001000000015D
:10FFA000000000010000000100000001000000014D
:10FFB0000000000100000000000000000000000040
:10FFC0000000000000000000000000000000000031
:10FFD0000000000000000000000000000000000021
:10FFE0000000000000000000000000000000000011
:10FFF0000000000000000000000000000000000001
:020000040801F1
:1000000010000000100000001000000018000000A8
:1000100008000000040000000000000000000000D4
:1000200000000000000000000000000000000000D0
:1000300000000000000000000000000000000000C0
:1000400000000000000000000000000000000000B0
:1000500000000000000000000000000000000000A0
:100060000000000000000000000000000000000090
:1000700000000000000000000000038000018FC0AD
:1000800000038C60000618200004102000041020DB
:100090000004202000042040000620400003FFC090
:1000A0000001FFE00000002000000020000000C070
:1000B0000000000000000000000000000000000040
:1000C0000000000000000000000000000000000030
:1000D0000000000000000000000000000000000020
:1000E0000000000000000000000000000000000010
:1000F00000000000000000000200000002000000FC
:1001000003FFFFE007FFFFC0000180C000020060A6
:100110000002002000040020000400200004002051
:1001200000060040000300C00001FF800000FE0048
:1001300000000000000000000000000000000000BF
:1001400000000000000000000000000000000000AF
:10015000000000000000000000000000000000009F
:10016000000000000000000000000000000000008F
:1001700000000000000000000000000000007E0001
:100180000001FF80000381C0000200400006002043
:1001900000040020000400200004002000060020CD
:1001A0000003C0400001C080000003000000000008
:1001B000000000000000000000000000000000003F
:1001C000000000000000000000000000000000002F
:1001D000000000000000000000000000000000001F
:1001E000000000000000000000000000000000000F
:1001F00000000000000000000000000000007E0081
:100200000001FF80000380C00006006000040020A1
:1002100000040020000400200204004002020080CC
:1002200003FFFFE007FFFFC00000004000000040A8
:1002300000000000000000000000000000000000BE
:1002400000000000000000000000000000000000AE
:10025000000000000000000000000000000000009E
:10026000000000000000000000000000000000008E
:1002700000000000000000000000000000007E0000
:100280000001FF80000311C0000210400004106054
:10029000000410200004102000041020000610208C
:1002A000000310400001F0C00000710000000000D9
:1002B000000000000000000000000000000000003E
:1002C000000000000000000000000000000000002E
:1002D000000000000000000000000000000000001E
:1002E000000000000000000000000000000000000E
:1002F00000000000000000000000000000040000FA
:10030000000400200004002000040020007FFFE023
:1003100001FFFFE00104002003040020020400208C
:1003200002040020020400000200000001C00000DE
:1003300001C00000000000000000000000000000FC
:1003400000000000000000000000000000000000AD
:10035000000000000000000000000000000000009D
:10036000000000000000000000000000000000008D
:100370000000000000000000000000000000001C61
:100380000000E33E0003FFC200020CC3000404C1EE
:10039000000404C1000404C1000404C100060CC12F
:1003A0000003F8C30005F0620006007E0006003C72
:1003B000000000000000000000000000000000003D
:1003C000000000000000000000000000000000002D
:1003D000000000000000000000000000000000001D
:1003E000000000000000000000000000000000000D
:1003F00000000000000000000200002002000020B9
:1004000003FFFFE007FFFFE00001002000020020E3
:1004100000060000000400000004000000040020AA
:10042000000600200003FFE00001FFE000000020C4
:10043000000000200000000000000000000000009C
:1004400000000000000000000000000000000000AC
:10045000000000000000000000000000000000009C
:10046000000000000000000000000000000000008C
:10047000000000000000000000000000000000007C
:1004800000040020000400200004002000040020DC
:100490000387FFE0038FFFE00380002000000020BF
:1004A000000000200000002000000000000000000C
:1004B000000000000000000000000000000000003C
:1004C000000000000000000000000000000000002C
:1004D000000000000000000000000000000000001C
:1004E000000000000000000000000000000000000C
:1004F00000000000000000000000000000000000FC
:1005000000000006000000070000000100000001DC
:1005100000040001000400010004000300040006C0
:100520000387FFFC038FFFF803800000000000003A
:1005300000000000000000000000000000000000BB
:1005400000000000000000000000000000000000AB
:10055000000000000000000000000000000000009B
:10056000000000000000000000000000000000008B
:100570000000000000000000020000200200002037
:1005800003FFFFE007FFFFE000000820000010204D
:10059000000030000000FC0000058E00000707A0EE
:1005A000000601E0000400E000040020000000203C
:1005B000000000000000000000000000000000003B
:1005C000000000000000000000000000000000002B
:1005D000000000000000000000000000000000001B
:1005E000000000000000000000000000000000000B
:1005F00000000000000000000000000000000000FB
:100600000200002002000020020000200200002062
:1006100003FFFFE007FFFFE00000002000000020D4
:10062000000000200000002000000000000000008A
:1006300000000000000000000000000000000000BA
:1006400000000000000000000000000000000000AA
:10065000000000000000000000000000000000009A
:10066000000000000000000000000000000000008A
:100670000000000000000000000400200007FFE070
:10068000000FFFE000020020000400000004002032
:100690000007FFE00003FFE000020020000400006C
:1006A000000400200007FFE00003FFE0000000203E
:1006B000000000000000000000000000000000003A
:1006C000000000000000000000000000000000002A
:1006D000000000000000000000000000000000001A
:1006E000000000000000000000000000000000000A
:1006F00000000000000000000004002000040020B2
:100700000007FFE0000FFFE00001002000020020D2
:1007100000020000000400000004000000040020AB
:10072000000600200003FFE00001FFE000000020C1
:100730000000002000000000000000000000000099
:1007400000000000000000000000000000000000A9
:100750000000000000000000000000000000000099
:100760000000000000000000000000000000000089
:1007700000000000000000000000000000007E00FB
:100780000000FF80000381C000020040000600203E
:1007900000040020000400200004002000060020C7
:1007A00000020040000381C00001FF8000007E00C5
:1007B0000000000000000000000000000000000039
:1007C0000000000000000000000000000000000029
:1007D0000000000000000000000000000000000019
:1007E0000000000000000000000000000000000009
:1007F00000000000000000000004000100040001EF
:100800000007FFFF000FFFFF000100C100020041D1
:100810000004002000040020000400200004002048
:1008200000060040000301C00001FF8000007E00C0
:1008300000000000000000000000000000000000B8
:1008400000000000000000000000000000000000A8
:100850000000000000000000000000000000000098
:100860000000000000000000000000000000000088
:1008700000000000000000000000000000007E00FA
:100880000001FF80000380C000020060000400201F
:1008900000040020000400200004002000020041A9
:1008A000000300C10003FFFF0007FFFF000000017D
:1008B0000000000100000000000000000000000037
:1008C0000000000000000000000000000000000028
:1008D0000000000000000000000000000000000018
:1008E0000000000000000000000000000000000008
:1008F00000000000000000000004002000040020B0
:100900000004002000040020000FFFE0000FFFE0C3
:100910000000C0200001002000020020000600208E
:1009200000040000000400000007000000030000B5
:1009300000000000000000000000000000000000B7
:1009400000000000000000000000000000000000A7
:100950000000000000000000000000000000000097
:100960000000000000000000000000000000000087
:10097000000000000000000000000000000003E094
:100980000001C0E00003E0400006302000043020F9
:1009900000041820000418200004182000040C2073
:1009A00000020C60000307C0000783800000000005
:1009B0000000000000000000000000000000000037
:1009C0000000000000000000000000000000000027
:1009D0000000000000000000000000000000000017
:1009E0000000000000000000000000000000000007
:1009F00000000000000000000000000000040000F3
:100A00000004000000040000000C0000001FFF8034
:100A100000FFFFC00004006000040020000400206C
:100A200000040020000400400000018000000000DD
:100A300000000000000000000000000000000000B6
:100A400000000000000000000000000000000000A6
:100A50000000000000000000000000000000000096
:100A60000000000000000000000000000000000086
:100A7000000000000000000000040000000400006E
:100A80000007FF80000FFFC0000000600000002092
:100A900000000020000000200000002000040040B2
:100AA000000400800007FFE0000FFFC000000040CE
:100AB00000000040000000000000000000000000F6
:100AC0000000000000000000000000000000000026
:100AD0000000000000000000000000000000000016
:100AE0000000000000000000000000000000000006
:100AF00000000000000000000004000000040000EE
:100B0000000780000007F0000004FE0000041FC082
:100B1000000003E00000038000001C0000046000EF
:100B20000007800000060000000400000000000034
:100B300000000000000000000000000000000000B5
:100B400000000000000000000000000000000000A5
:100B50000000000000000000000000000000000095
:100B60000000000000000000000000000000000085
:100B70000000000000040000000600000007C000A4
:100B80000007FC0000043F80000003E000040F8029
:100B90000006F0000007F0000007FF8000040FE0EF
:100BA0000000038000043C000007C00000060000B5
:100BB0000004000000000000000000000000000031
:100BC0000000000000000000000000000000000025
:100BD0000000000000000000000000000000000015
:100BE0000000000000000000000000000000000005
:100BF00000000000000000000000002000040020B1
:100C000000040060000700E0000783200007E60002
:100C10000004F80000003C0000045E20000587A0EE
:100C2000000601E000040060000400200000002035
:100C300000000000000000000000000000000000B4
:100C400000000000000000000000000000000000A4
:100C50000000000000000000000000000000000094
:100C60000000000000000000000000000000000084
:100C70000000000000000000000400000004000369
:100C8000000700030007E0010004F80100041F0250
:100C9000000007FC000000E000000700000438002E
:100CA0000007C0000006000000040000000400006F
:100CB0000000000000000000000000000000000034
:100CC0000000000000000000000000000000000024
:100CD0000000000000000000000000000000000014
:100CE0000000000000000000000000000000000004
:100CF000000000000000000000000000000780600D
:100D0000000600E0000403E0000407A000040E2039
:100D100000043C20000470200005E0200007802033
:100D200000070060000400E00000038000000000F5
:100D300000000000000000000000000000000000B3
:100D400000000000000000000000000000000000A3
:100D50000000000000000000000000000000000093
:100D60000000000000000000000000000000000083
:100D70000000000000000000000000000000000073
:100D80000000000000000000000000000000000063
:100D900000008000000080000001400007FE3FF8D6
:100DA0000800000410000002100000020000000013
:100DB0000000000000000000000000000000000033
:100DC0000000000000000000000000000000000023
:100DD0000000000000000000000000000000000013
:100DE0000000000000000000000000000000000003
:100DF00000000000000000000000000000000000F3
:100E000000000000000000000000000000000000E2
:100E100000000000FFFFFFFF0000000000000000D6
:100E200000000000000000000000000000000000C2
:100E300000000000000000000000000000000000B2
:100E400000000000000000000000000000000000A2
:100E50000000000000000000000000000000000092
:100E60000000000000000000000000000000000082
:100E70000000000000000000000000001000000260
:100E8000100000020800000407FE3FF800014000C7
:100E90000000800000008000000000000000000052
:100EA0000000000000000000000000000000000042
:100EB0000000000000000000000000000000000032
:100EC0000000000000000000000000000000000022
:100ED0000000000000000000000000000000000012
:100EE0000000000000000000000000000000000002
:100EF00000000000000000001800000030000000AA
:100F00004000000040000000400000002000000001
:100F10003000000008000000040000000200000093
:100F200002000000020000000C0000001800000099
:100F300000000000000000000000000000000000B1
:100F400000000000000000000000000000000000A1
:100F50000000000000000000000000000000000091
:100F60000000000000000000000000000000000081
:100F700000000000C6D50000000000E03800007846
:100F80003C00003C7800003C70C0001CE1E01FFF0A
:100F9000FFF0001CE3000E1CE7C0079CE78003DCA9
:100FA000EF0003DCEE0001DCFC60009CF9F07FFF49
:100FB000FFF80000000001C00E0001FFFF0001C0AB
:100FC0000E0001C00E0001C00E0001FFFE0001C0B6
:100FD0000E0001C00E0001C00E0001FFFE0001C0A6
:100FE0000E0001C00E0000000000D6D0000000007E
:100FF0000007000000078000000700000007000055
:1010000000070000000701801FFFFFE01FFFFFE057
:101010001E0701C01E0701C01E0701C01E0701C038
:101020001E0701C01E0701C01FFFFFC01FFFFFC03A
:101030001E0701C01C070180000700000007000018
:101040000007000000070000000700000007000084
:10105000000700000007000000070000000000007B
:10106000BFC60000000000000780003C07C001FC74
:1010700007803FE0078039C1C78001C0E78001C019
:10108000F78001C0778001DE77807FFE078001C096
:10109000078003C3C78003E1E78003F8F78007FCFC
:1010A000E7F00FDE67F80FDC07F81FC0FF801DDFD9
:1010B000E78039CC078071C0078061C0078001C01C
:1010C000078001C0078001E0078001E0078001C0C0
:1010D000070000000000BCBC0000000003803000DE
:1010E00003C03C0003C03C0003C0380003C038000C
:1010F00003C0386003F838F07FFFFFF003C038000A
:1011000003C0380003C0380003DC39C003FFFFE030
:1011100007E383C03FC183C07FC1C3803BC1C78099
:1011200003C0EF0003C0EF0003C07E0003C07C00DB
:1011300003C07C0003C0FE003BC3EF803F8787F8FD
:101140000FBF03F8077800E0000000006C110108F1
:10115000000000202C000000A414000898110108D1
:101160002C000020CC040000B41400080000000093
:101170000102030401020304060708090204060829
:101180000000FFFF00000000000000000000000061
:08119000000000000000000057
:0400000508000131BD
:00000001FF
