Component: ARM Compiler 5.06 update 7 (build 960) Tool: armlink [4d3601]

==============================================================================

Section Cross References

    startup_stm32f10x_hd.o(RESET) refers to startup_stm32f10x_hd.o(STACK) for __initial_sp
    startup_stm32f10x_hd.o(RESET) refers to startup_stm32f10x_hd.o(.text) for Reset_Handler
    startup_stm32f10x_hd.o(RESET) refers to stm32f10x_it.o(i.NMI_Handler) for NMI_Handler
    startup_stm32f10x_hd.o(RESET) refers to stm32f10x_it.o(i.HardFault_Handler) for HardFault_Handler
    startup_stm32f10x_hd.o(RESET) refers to stm32f10x_it.o(i.MemManage_Handler) for MemManage_Handler
    startup_stm32f10x_hd.o(RESET) refers to stm32f10x_it.o(i.BusFault_Handler) for BusFault_Handler
    startup_stm32f10x_hd.o(RESET) refers to stm32f10x_it.o(i.UsageFault_Handler) for UsageFault_Handler
    startup_stm32f10x_hd.o(RESET) refers to stm32f10x_it.o(i.SVC_Handler) for SVC_Handler
    startup_stm32f10x_hd.o(RESET) refers to stm32f10x_it.o(i.DebugMon_Handler) for DebugMon_Handler
    startup_stm32f10x_hd.o(RESET) refers to os_cpu_a.o(CODE) for OS_CPU_PendSVHandler
    startup_stm32f10x_hd.o(RESET) refers to os_cpu_c.o(i.OS_CPU_SysTickHandler) for OS_CPU_SysTickHandler
    startup_stm32f10x_hd.o(.text) refers to system_stm32f10x.o(.text) for SystemInit
    startup_stm32f10x_hd.o(.text) refers to entry.o(.ARM.Collect$$$$00000000) for __main
    main.o(i.AppTaskStart) refers to memcpya.o(.text) for __aeabi_memcpy4
    main.o(i.AppTaskStart) refers to bsp.o(i.BSP_Init) for BSP_Init
    main.o(i.AppTaskStart) refers to cpu_core.o(i.CPU_Init) for CPU_Init
    main.o(i.AppTaskStart) refers to bsp.o(i.BSP_CPU_ClkFreq) for BSP_CPU_ClkFreq
    main.o(i.AppTaskStart) refers to os_cpu_c.o(i.OS_CPU_SysTickInit) for OS_CPU_SysTickInit
==============================================================================

Removing Unused input sections from the image.

    Removing startup_stm32f10x_hd.o(HEAP), (512 bytes).
    Removing os_app_hooks.o(i.App_OS_ClrAllHooks), (100 bytes).
    Removing os_app_hooks.o(i.App_OS_IdleTaskHook), (2 bytes).
    Removing os_app_hooks.o(i.App_OS_InitHook), (2 bytes).
    Removing os_app_hooks.o(i.App_OS_SetAllHooks), (140 bytes).
    Removing os_app_hooks.o(i.App_OS_StatTaskHook), (2 bytes).
    Removing os_app_hooks.o(i.App_OS_TaskCreateHook), (2 bytes).
    Removing os_app_hooks.o(i.App_OS_TaskDelHook), (2 bytes).
    Removing os_app_hooks.o(i.App_OS_TaskReturnHook), (2 bytes).
    Removing os_app_hooks.o(i.App_OS_TaskSwHook), (2 bytes).
    Removing os_app_hooks.o(i.App_OS_TimeTickHook), (2 bytes).
    Removing stm32f10x_it.o(i.PendSV_Handler), (2 bytes).
    Removing stm32f10x_it.o(i.SysTick_Handler), (2 bytes).
    Removing bsp.o(.data), (4 bytes).
    Removing bsp_usart1.o(i.USARTx_Config), (128 bytes).
    Removing bsp_usart1.o(i.fgetc), (32 bytes).
    Removing bsp_usart1.o(i.fputc), (36 bytes).
    Removing bsp_key.o(i.Key1_Config), (36 bytes).
==============================================================================

Image Symbol Table

    Local Symbols

    Symbol Name                              Value     Ov Type        Size  Object(Section)

    ../clib/microlib/init/entry.s            0x00000000   Number         0  entry.o ABSOLUTE
    ../clib/microlib/init/entry.s            0x00000000   Number         0  entry8b.o ABSOLUTE
    ../clib/microlib/init/entry.s            0x00000000   Number         0  entry9a.o ABSOLUTE
    ../clib/microlib/init/entry.s            0x00000000   Number         0  entry9b.o ABSOLUTE
    ../clib/microlib/init/entry.s            0x00000000   Number         0  entry10a.o ABSOLUTE
    ../clib/microlib/init/entry.s            0x00000000   Number         0  entry10b.o ABSOLUTE
    ../clib/microlib/init/entry.s            0x00000000   Number         0  entry7b.o ABSOLUTE
    ../clib/microlib/init/entry.s            0x00000000   Number         0  entry11a.o ABSOLUTE
    ../clib/microlib/init/entry.s            0x00000000   Number         0  entry11b.o ABSOLUTE
    ../clib/microlib/init/entry.s            0x00000000   Number         0  entry2.o ABSOLUTE
    ../clib/microlib/init/entry.s            0x00000000   Number         0  entry12a.o ABSOLUTE
    ../clib/microlib/init/entry.s            0x00000000   Number         0  entry12b.o ABSOLUTE
    ../clib/microlib/init/entry.s            0x00000000   Number         0  entry5.o ABSOLUTE
    ../clib/microlib/init/entry.s            0x00000000   Number         0  entry7a.o ABSOLUTE
    ../clib/microlib/init/entry.s            0x00000000   Number         0  entry8a.o ABSOLUTE
    ../clib/microlib/string/memcpy.c         0x00000000   Number         0  memcpya.o ABSOLUTE
    ../clib/microlib/string/memcpy.c         0x00000000   Number         0  memcpyb.o ABSOLUTE
    ..\..\FW_LIB\startup_stm32f10x_hd.s      0x00000000   Number         0  startup_stm32f10x_hd.o ABSOLUTE
    ..\..\User\uC-CPU\ARM-Cortex-M3\RealView\cpu_a.asm 0x00000000   Number         0  cpu_a.o ABSOLUTE
    ..\..\User\uC-CPU\cpu_core.c             0x00000000   Number         0  cpu_core.o ABSOLUTE
    ..\..\User\uC-LIB\Ports\ARM-Cortex-M3\RealView\lib_mem_a.asm 0x00000000   Number         0  lib_mem_a.o ABSOLUTE
    ..\..\User\uC-LIB\lib_ascii.c            0x00000000   Number         0  lib_ascii.o ABSOLUTE
    ..\..\User\uC-LIB\lib_mem.c              0x00000000   Number         0  lib_mem.o ABSOLUTE
    ..\..\User\uC-LIB\lib_str.c              0x00000000   Number         0  lib_str.o ABSOLUTE
    ..\..\User\uCOS-III\Ports\ARM-Cortex-M3\Generic\RealView\os_cpu_a.s 0x00000000   Number         0  os_cpu_a.o ABSOLUTE
    ..\..\User\uCOS-III\Ports\ARM-Cortex-M3\Generic\RealView\os_cpu_c.c 0x00000000   Number         0  os_cpu_c.o ABSOLUTE
    ..\..\User\uCOS-III\Source\os_cfg_app.c  0x00000000   Number         0  os_cfg_app.o ABSOLUTE
    ..\..\User\uCOS-III\Source\os_core.c     0x00000000   Number         0  os_core.o ABSOLUTE
    ..\..\User\uCOS-III\Source\os_dbg.c      0x00000000   Number         0  os_dbg.o ABSOLUTE
    ..\..\User\uCOS-III\Source\os_flag.c     0x00000000   Number         0  os_flag.o ABSOLUTE
    ..\..\User\uCOS-III\Source\os_int.c      0x00000000   Number         0  os_int.o ABSOLUTE
    ..\..\User\uCOS-III\Source\os_mem.c      0x00000000   Number         0  os_mem.o ABSOLUTE
    ..\..\User\uCOS-III\Source\os_msg.c      0x00000000   Number         0  os_msg.o ABSOLUTE
    ..\..\User\uCOS-III\Source\os_mutex.c    0x00000000   Number         0  os_mutex.o ABSOLUTE
    ..\..\User\uCOS-III\Source\os_prio.c     0x00000000   Number         0  os_prio.o ABSOLUTE
    ..\..\User\uCOS-III\Source\os_q.c        0x00000000   Number         0  os_q.o ABSOLUTE
    ..\..\User\uCOS-III\Source\os_sem.c      0x00000000   Number         0  os_sem.o ABSOLUTE
    ..\..\User\uCOS-III\Source\os_stat.c     0x00000000   Number         0  os_stat.o ABSOLUTE
    ..\..\User\uCOS-III\Source\os_task.c     0x00000000   Number         0  os_task.o ABSOLUTE
    ..\..\User\uCOS-III\Source\os_tick.c     0x00000000   Number         0  os_tick.o ABSOLUTE
    ..\..\User\uCOS-III\Source\os_time.c     0x00000000   Number         0  os_time.o ABSOLUTE
    ..\..\User\uCOS-III\Source\os_tmr.c      0x00000000   Number         0  os_tmr.o ABSOLUTE
    ..\..\User\uCOS-III\Source\os_var.c      0x00000000   Number         0  os_var.o ABSOLUTE
    ..\USER\APP\main.c                       0x00000000   Number         0  main.o ABSOLUTE
    ..\USER\APP\os_app_hooks.c               0x00000000   Number         0  os_app_hooks.o ABSOLUTE
    ..\USER\APP\stm32f10x_it.c               0x00000000   Number         0  stm32f10x_it.o ABSOLUTE
    ..\USER\BSP\Key\bsp_key.c                0x00000000   Number         0  bsp_key.o ABSOLUTE
    ..\USER\BSP\bsp.c                        0x00000000   Number         0  bsp.o ABSOLUTE
    ..\USER\BSP\led\bsp_led.c                0x00000000   Number         0  bsp_led.o ABSOLUTE
    ..\USER\BSP\usart\bsp_usart1.c           0x00000000   Number         0  bsp_usart1.o ABSOLUTE
    Libraries\CMSIS\CM3\DeviceSupport\ST\STM32F10x\system_stm32f10x.c 0x00000000   Number         0  system_stm32f10x.o ABSOLUTE
    Libraries\STM32F10x_StdPeriph_Driver\src\stm32f10x_gpio.c 0x00000000   Number         0  stm32f10x_gpio.o ABSOLUTE
    Libraries\STM32F10x_StdPeriph_Driver\src\stm32f10x_rcc.c 0x00000000   Number         0  stm32f10x_rcc.o ABSOLUTE
    Libraries\STM32F10x_StdPeriph_Driver\src\stm32f10x_usart.c 0x00000000   Number         0  stm32f10x_usart.o ABSOLUTE
    dc.s                                     0x00000000   Number         0  dc.o ABSOLUTE
    handlers.s                               0x00000000   Number         0  handlers.o ABSOLUTE
    init.s                                   0x00000000   Number         0  init.o ABSOLUTE
    RESET                                    0x08000000   Section      304  startup_stm32f10x_hd.o(RESET)
    .ARM.Collect$$$$00000000                 0x08000130   Section        0  entry.o(.ARM.Collect$$$$00000000)
    .ARM.Collect$$$$00000001                 0x08000130   Section        4  entry2.o(.ARM.Collect$$$$00000001)
    .ARM.Collect$$$$00000004                 0x08000134   Section        4  entry5.o(.ARM.Collect$$$$00000004)
    .ARM.Collect$$$$00000008                 0x08000138   Section        0  entry7b.o(.ARM.Collect$$$$00000008)
    .ARM.Collect$$$$0000000A                 0x08000138   Section        0  entry8b.o(.ARM.Collect$$$$0000000A)
    .ARM.Collect$$$$0000000B                 0x08000138   Section        8  entry9a.o(.ARM.Collect$$$$0000000B)
    .ARM.Collect$$$$0000000E                 0x08000140   Section        4  entry12b.o(.ARM.Collect$$$$0000000E)
    .ARM.Collect$$$$0000000F                 0x08000144   Section        0  entry10a.o(.ARM.Collect$$$$0000000F)
    .ARM.Collect$$$$00000011                 0x08000144   Section        0  entry11a.o(.ARM.Collect$$$$00000011)
    .ARM.Collect$$$$00002712                 0x08000144   Section        4  entry2.o(.ARM.Collect$$$$00002712)
    __lit__00000000                          0x08000144   Data           4  entry2.o(.ARM.Collect$$$$00002712)
    .text                                    0x08000148   Section       36  startup_stm32f10x_hd.o(.text)
    .text                                    0x0800016c   Section        0  system_stm32f10x.o(.text)
    SetSysClockTo72                          0x0800016d   Thumb Code   212  system_stm32f10x.o(.text)
    SetSysClock                              0x08000241   Thumb Code     8  system_stm32f10x.o(.text)
    .text                                    0x08000348   Section        0  stm32f10x_gpio.o(.text)
    .text                                    0x080006a0   Section        0  stm32f10x_rcc.o(.text)
    .text                                    0x08000a44   Section       52  cpu_a.o(.text)
    .text                                    0x08000a78   Section        0  memcpya.o(.text)
    .text                                    0x08000a9c   Section       36  init.o(.text)
    CODE                                     0x08000ac0   Section      132  os_cpu_a.o(CODE)
    i.AppTaskStart                           0x08000b44   Section        0  main.o(i.AppTaskStart)
    AppTaskStart                             0x08000b45   Thumb Code    98  main.o(i.AppTaskStart)
    i.BSP_CPU_ClkFreq                        0x08000bb4   Section        0  bsp.o(i.BSP_CPU_ClkFreq)
    i.BSP_Init                               0x08000bc4   Section        0  bsp.o(i.BSP_Init)
    i.BusFault_Handler                       0x08000bcc   Section        0  stm32f10x_it.o(i.BusFault_Handler)
    i.CPU_Init                               0x08000bd0   Section        0  cpu_core.o(i.CPU_Init)
    i.CPU_IntDisMeasInit                     0x08000be0   Section        0  cpu_core.o(i.CPU_IntDisMeasInit)
    CPU_IntDisMeasInit                       0x08000be1   Thumb Code   104  cpu_core.o(i.CPU_IntDisMeasInit)
    i.CPU_IntDisMeasMaxCalc                  0x08000c64   Section        0  cpu_core.o(i.CPU_IntDisMeasMaxCalc)
    CPU_IntDisMeasMaxCalc                    0x08000c65   Thumb Code    24  cpu_core.o(i.CPU_IntDisMeasMaxCalc)
    i.CPU_IntDisMeasMaxCurGet                0x08000c80   Section        0  cpu_core.o(i.CPU_IntDisMeasMaxCurGet)
    i.CPU_IntDisMeasMaxCurReset              0x08000cac   Section        0  cpu_core.o(i.CPU_IntDisMeasMaxCurReset)
    i.CPU_IntDisMeasMaxGet                   0x08000cd8   Section        0  cpu_core.o(i.CPU_IntDisMeasMaxGet)
    i.CPU_IntDisMeasStart                    0x08000d04   Section        0  cpu_core.o(i.CPU_IntDisMeasStart)
    i.CPU_IntDisMeasStop                     0x08000d38   Section        0  cpu_core.o(i.CPU_IntDisMeasStop)
    i.CPU_NameClr                            0x08000d8c   Section        0  cpu_core.o(i.CPU_NameClr)
    i.CPU_NameInit                           0x08000dc4   Section        0  cpu_core.o(i.CPU_NameInit)
    CPU_NameInit                             0x08000dc5   Thumb Code     8  cpu_core.o(i.CPU_NameInit)
    i.CPU_TS_Init                            0x08000dcc   Section        0  cpu_core.o(i.CPU_TS_Init)
    CPU_TS_Init                              0x08000dcd   Thumb Code    14  cpu_core.o(i.CPU_TS_Init)
    i.CPU_TS_TmrFreqSet                      0x08000de0   Section        0  cpu_core.o(i.CPU_TS_TmrFreqSet)
    i.CPU_TS_TmrInit                         0x08000dec   Section        0  bsp.o(i.CPU_TS_TmrInit)
    i.CPU_TS_TmrRd                           0x08000e20   Section        0  bsp.o(i.CPU_TS_TmrRd)
    i.DebugMon_Handler                       0x08000e2c   Section        0  stm32f10x_it.o(i.DebugMon_Handler)
    i.HardFault_Handler                      0x08000e2e   Section        0  stm32f10x_it.o(i.HardFault_Handler)
    i.LED_GPIO_Config                        0x08000e34   Section        0  bsp_led.o(i.LED_GPIO_Config)
    LED_GPIO_Config                          0x08000e35   Thumb Code    38  bsp_led.o(i.LED_GPIO_Config)
    i.LED_Init                               0x08000e60   Section        0  bsp_led.o(i.LED_Init)
    i.MemManage_Handler                      0x08000e74   Section        0  stm32f10x_it.o(i.MemManage_Handler)
    i.Mem_Clr                                0x08000e78   Section        0  lib_mem.o(i.Mem_Clr)
    i.Mem_Init                               0x08000e8c   Section        0  lib_mem.o(i.Mem_Init)
    i.Mem_Set                                0x08000ed4   Section        0  lib_mem.o(i.Mem_Set)
    i.NMI_Handler                            0x08000f36   Section        0  stm32f10x_it.o(i.NMI_Handler)
    i.OSCfg_Init                             0x08000f38   Section        0  os_cfg_app.o(i.OSCfg_Init)
    i.OSIdleTaskHook                         0x08000f3c   Section        0  os_cpu_c.o(i.OSIdleTaskHook)
    i.OSInit                                 0x08000f50   Section        0  os_core.o(i.OSInit)
    i.OSInitHook                             0x080010dc   Section        0  os_cpu_c.o(i.OSInitHook)
    i.OSIntExit                              0x08001114   Section        0  os_core.o(i.OSIntExit)
    i.OSSched                                0x080011f8   Section        0  os_core.o(i.OSSched)
    i.OSSchedLock                            0x080012a0   Section        0  os_core.o(i.OSSchedLock)
    i.OSSchedUnlock                          0x0800131c   Section        0  os_core.o(i.OSSchedUnlock)
    i.OSStart                                0x080013bc   Section        0  os_core.o(i.OSStart)
    i.OSStatReset                            0x08001424   Section        0  os_stat.o(i.OSStatReset)
    i.OSStatTaskCPUUsageInit                 0x0800158c   Section        0  os_stat.o(i.OSStatTaskCPUUsageInit)
    i.OSStatTaskHook                         0x0800168c   Section        0  os_cpu_c.o(i.OSStatTaskHook)
    i.OSTaskCreate                           0x080016a0   Section        0  os_task.o(i.OSTaskCreate)
    i.OSTaskCreateHook                       0x08001934   Section        0  os_cpu_c.o(i.OSTaskCreateHook)
    i.OSTaskDel                              0x0800194c   Section        0  os_task.o(i.OSTaskDel)
    i.OSTaskDelHook                          0x08001b54   Section        0  os_cpu_c.o(i.OSTaskDelHook)
    i.OSTaskResume                           0x08001b6c   Section        0  os_task.o(i.OSTaskResume)
    i.OSTaskReturnHook                       0x08001bf4   Section        0  os_cpu_c.o(i.OSTaskReturnHook)
    i.OSTaskSemPend                          0x08001c0c   Section        0  os_task.o(i.OSTaskSemPend)
    i.OSTaskStkChk                           0x08001e5c   Section        0  os_task.o(i.OSTaskStkChk)
    i.OSTaskStkInit                          0x08001f40   Section        0  os_cpu_c.o(i.OSTaskStkInit)
    i.OSTaskSuspend                          0x08002000   Section        0  os_task.o(i.OSTaskSuspend)
    i.OSTaskSwHook                           0x08002060   Section        0  os_cpu_c.o(i.OSTaskSwHook)
    i.OSTimeDly                              0x08002104   Section        0  os_time.o(i.OSTimeDly)
    i.OSTimeTick                             0x08002254   Section        0  os_time.o(i.OSTimeTick)
    i.OSTimeTickHook                         0x08002298   Section        0  os_cpu_c.o(i.OSTimeTickHook)
    i.OS_CPU_SysTickHandler                  0x080022ac   Section        0  os_cpu_c.o(i.OS_CPU_SysTickHandler)
    i.OS_CPU_SysTickInit                     0x080022ec   Section        0  os_cpu_c.o(i.OS_CPU_SysTickInit)
    i.OS_Dbg_Init                            0x0800231c   Section        0  os_dbg.o(i.OS_Dbg_Init)
    i.OS_FlagInit                            0x080024d0   Section        0  os_flag.o(i.OS_FlagInit)
    i.OS_FlagPost                            0x080024e8   Section        0  os_flag.o(i.OS_FlagPost)
    i.OS_FlagTaskRdy                         0x08002764   Section        0  os_flag.o(i.OS_FlagTaskRdy)
    i.OS_IdleTask                            0x080027bc   Section        0  os_core.o(i.OS_IdleTask)
    i.OS_IdleTaskInit                        0x08002808   Section        0  os_core.o(i.OS_IdleTaskInit)
    i.OS_IntQPost                            0x08002878   Section        0  os_int.o(i.OS_IntQPost)
    i.OS_IntQRePost                          0x0800297c   Section        0  os_int.o(i.OS_IntQRePost)
    i.OS_IntQTask                            0x08002b20   Section        0  os_int.o(i.OS_IntQTask)
    i.OS_IntQTaskInit                        0x08002be8   Section        0  os_int.o(i.OS_IntQTaskInit)
    i.OS_MemInit                             0x08002d10   Section        0  os_mem.o(i.OS_MemInit)
    i.OS_MsgPoolInit                         0x08002d28   Section        0  os_msg.o(i.OS_MsgPoolInit)
    i.OS_MsgQFreeAll                         0x08002da4   Section        0  os_msg.o(i.OS_MsgQFreeAll)
    i.OS_MsgQInit                            0x08002de8   Section        0  os_msg.o(i.OS_MsgQInit)
    i.OS_MsgQPut                             0x08002df8   Section        0  os_msg.o(i.OS_MsgQPut)
    i.OS_MutexInit                           0x08002efc   Section        0  os_mutex.o(i.OS_MutexInit)
    i.OS_Pend                                0x08002f14   Section        0  os_core.o(i.OS_Pend)
    i.OS_PendDataInit                        0x08002f7c   Section        0  os_core.o(i.OS_PendDataInit)
    i.OS_PendDbgNameAdd                      0x08002fa4   Section        0  os_core.o(i.OS_PendDbgNameAdd)
    i.OS_PendDbgNameRemove                   0x08003000   Section        0  os_core.o(i.OS_PendDbgNameRemove)
    i.OS_PendListInsertPrio                  0x08003024   Section        0  os_core.o(i.OS_PendListInsertPrio)
    i.OS_PendListRemove                      0x0800308a   Section        0  os_core.o(i.OS_PendListRemove)
    i.OS_PendListRemove1                     0x080030ba   Section        0  os_core.o(i.OS_PendListRemove1)
    i.OS_Post                                0x080030fc   Section        0  os_core.o(i.OS_Post)
    i.OS_Post1                               0x080031bc   Section        0  os_core.o(i.OS_Post1)
    i.OS_PrioGetHighest                      0x080031e8   Section        0  os_prio.o(i.OS_PrioGetHighest)
    i.OS_PrioInit                            0x08003210   Section        0  os_prio.o(i.OS_PrioInit)
    i.OS_PrioInsert                          0x08003228   Section        0  os_prio.o(i.OS_PrioInsert)
    i.OS_PrioRemove                          0x0800324c   Section        0  os_prio.o(i.OS_PrioRemove)
    i.OS_QInit                               0x08003270   Section        0  os_q.o(i.OS_QInit)
    i.OS_QPost                               0x08003288   Section        0  os_q.o(i.OS_QPost)
    i.OS_RdyListInit                         0x08003410   Section        0  os_core.o(i.OS_RdyListInit)
    i.OS_RdyListInsert                       0x08003434   Section        0  os_core.o(i.OS_RdyListInsert)
    i.OS_RdyListInsertHead                   0x08003460   Section        0  os_core.o(i.OS_RdyListInsertHead)
    i.OS_RdyListInsertTail                   0x080034a0   Section        0  os_core.o(i.OS_RdyListInsertTail)
    i.OS_RdyListMoveHeadToTail               0x080034dc   Section        0  os_core.o(i.OS_RdyListMoveHeadToTail)
    i.OS_RdyListRemove                       0x08003520   Section        0  os_core.o(i.OS_RdyListRemove)
    i.OS_Sched0                              0x0800357c   Section        0  os_core.o(i.OS_Sched0)
    i.OS_SchedLockTimeMeasStart              0x080035d8   Section        0  os_core.o(i.OS_SchedLockTimeMeasStart)
    i.OS_SchedLockTimeMeasStop               0x080035f4   Section        0  os_core.o(i.OS_SchedLockTimeMeasStop)
    i.OS_SchedRoundRobin                     0x08003630   Section        0  os_core.o(i.OS_SchedRoundRobin)
    i.OS_SemInit                             0x0800371c   Section        0  os_sem.o(i.OS_SemInit)
    i.OS_SemPost                             0x08003734   Section        0  os_sem.o(i.OS_SemPost)
    i.OS_StatTask                            0x080038cc   Section        0  os_stat.o(i.OS_StatTask)
    i.OS_StatTaskInit                        0x08003c84   Section        0  os_stat.o(i.OS_StatTaskInit)
    i.OS_TaskBlock                           0x08003d50   Section        0  os_core.o(i.OS_TaskBlock)
    i.OS_TaskDbgListAdd                      0x08003d88   Section        0  os_task.o(i.OS_TaskDbgListAdd)
    i.OS_TaskDbgListRemove                   0x08003db8   Section        0  os_task.o(i.OS_TaskDbgListRemove)
    i.OS_TaskInit                            0x08003dfc   Section        0  os_task.o(i.OS_TaskInit)
    i.OS_TaskInitTCB                         0x08003e1c   Section        0  os_task.o(i.OS_TaskInitTCB)
    i.OS_TaskQPost                           0x08003eec   Section        0  os_task.o(i.OS_TaskQPost)
    i.OS_TaskRdy                             0x08004158   Section        0  os_core.o(i.OS_TaskRdy)
    i.OS_TaskResume                          0x08004174   Section        0  os_task.o(i.OS_TaskResume)
    i.OS_TaskReturn                          0x080042f0   Section        0  os_task.o(i.OS_TaskReturn)
    i.OS_TaskSemPost                         0x08004308   Section        0  os_task.o(i.OS_TaskSemPost)
    i.OS_TaskSuspend                         0x080048b0   Section        0  os_task.o(i.OS_TaskSuspend)
    i.OS_TickListInit                        0x08004a40   Section        0  os_tick.o(i.OS_TickListInit)
    i.OS_TickListInsert                      0x08004a68   Section        0  os_tick.o(i.OS_TickListInsert)
    i.OS_TickListRemove                      0x08004c24   Section        0  os_tick.o(i.OS_TickListRemove)
    i.OS_TickListResetPeak                   0x08004c5c   Section        0  os_tick.o(i.OS_TickListResetPeak)
    i.OS_TickListUpdate                      0x08004c80   Section        0  os_tick.o(i.OS_TickListUpdate)
    i.OS_TickTask                            0x08004ea0   Section        0  os_tick.o(i.OS_TickTask)
    i.OS_TickTaskInit                        0x08004ecc   Section        0  os_tick.o(i.OS_TickTaskInit)
    i.OS_TmrInit                             0x08004f84   Section        0  os_tmr.o(i.OS_TmrInit)
    i.OS_TmrLink                             0x080050ac   Section        0  os_tmr.o(i.OS_TmrLink)
    i.OS_TmrResetPeak                        0x0800517c   Section        0  os_tmr.o(i.OS_TmrResetPeak)
    i.OS_TmrTask                             0x080051a0   Section        0  os_tmr.o(i.OS_TmrTask)
    i.OS_TmrUnlink                           0x08005260   Section        0  os_tmr.o(i.OS_TmrUnlink)
    i.SVC_Handler                            0x080052b0   Section        0  stm32f10x_it.o(i.SVC_Handler)
    i.UsageFault_Handler                     0x080052b2   Section        0  stm32f10x_it.o(i.UsageFault_Handler)
    i.__scatterload_copy                     0x080052b6   Section       14  handlers.o(i.__scatterload_copy)
    i.__scatterload_null                     0x080052c4   Section        2  handlers.o(i.__scatterload_null)
    i.__scatterload_zeroinit                 0x080052c6   Section       14  handlers.o(i.__scatterload_zeroinit)
    i.main                                   0x080052d4   Section        0  main.o(i.main)
    .constdata                               0x08005334   Section       24  main.o(.constdata)
    .constdata                               0x0800534c   Section      164  os_cfg_app.o(.constdata)
    .constdata                               0x080053f0   Section      364  os_dbg.o(.constdata)
    .data                                    0x20000000   Section       20  system_stm32f10x.o(.data)
    .data                                    0x20000014   Section       20  stm32f10x_rcc.o(.data)
    APBAHBPrescTable                         0x20000014   Data          16  stm32f10x_rcc.o(.data)
    ADCPrescTable                            0x20000024   Data           4  stm32f10x_rcc.o(.data)
    .data                                    0x20000028   Section       28  cpu_core.o(.data)
    .data                                    0x20000044   Section        4  lib_mem.o(.data)
    .data                                    0x20000048   Section      208  os_var.o(.data)
    .data                                    0x20000118   Section        4  os_cpu_c.o(.data)
    .data                                    0x2000011c   Section        4  os_prio.o(.data)
    .bss                                     0x20000120   Section      712  main.o(.bss)
    AppTaskStartStk                          0x20000120   Data         512  main.o(.bss)
    AppTaskStartTCB                          0x20000320   Data         200  main.o(.bss)
    .bss                                     0x200003e8   Section       16  cpu_core.o(.bss)
    .bss                                     0x200003f8   Section    27720  lib_mem.o(.bss)
    .bss                                     0x20007040   Section     5264  os_cfg_app.o(.bss)
    .bss                                     0x200084d0   Section     1396  os_var.o(.bss)
    STACK                                    0x20008a48   Section     1024  startup_stm32f10x_hd.o(STACK)

    Global Symbols

    Symbol Name                              Value     Ov Type        Size  Object(Section)

    BuildAttributes$$THM_ISAv4$P$D$K$B$S$PE$A:L22UL41UL21$X:L11$S22US41US21$IEEE1$IW$USESV6$~STKCKD$USESV7$~SHL$OSPACE$EBA8$MICROLIB$REQ8$PRES8$EABIv2 0x00000000   Number         0  anon$$obj.o ABSOLUTE
    __ARM_use_no_argv                        0x00000000   Number         0  main.o ABSOLUTE
    __arm_fini_                               - Undefined Weak Reference
    __cpp_initialize__aeabi_                  - Undefined Weak Reference
    __cxa_finalize                            - Undefined Weak Reference
    __decompress                              - Undefined Weak Reference
    _clock_init                               - Undefined Weak Reference
    _microlib_exit                            - Undefined Weak Reference
    __Vectors_Size                           0x00000130   Number         0  startup_stm32f10x_hd.o ABSOLUTE
    __Vectors                                0x08000000   Data           4  startup_stm32f10x_hd.o(RESET)
    __Vectors_End                            0x08000130   Data           0  startup_stm32f10x_hd.o(RESET)
    __main                                   0x08000131   Thumb Code     0  entry.o(.ARM.Collect$$$$00000000)
    _main_stk                                0x08000131   Thumb Code     0  entry2.o(.ARM.Collect$$$$00000001)
    _main_scatterload                        0x08000135   Thumb Code     0  entry5.o(.ARM.Collect$$$$00000004)
    __main_after_scatterload                 0x08000139   Thumb Code     0  entry5.o(.ARM.Collect$$$$00000004)
    _main_clock                              0x08000139   Thumb Code     0  entry7b.o(.ARM.Collect$$$$00000008)
    _main_cpp_init                           0x08000139   Thumb Code     0  entry8b.o(.ARM.Collect$$$$0000000A)
    _main_init                               0x08000139   Thumb Code     0  entry9a.o(.ARM.Collect$$$$0000000B)
    __rt_lib_shutdown_fini                   0x08000141   Thumb Code     0  entry12b.o(.ARM.Collect$$$$0000000E)
    __rt_final_cpp                           0x08000145   Thumb Code     0  entry10a.o(.ARM.Collect$$$$0000000F)
    __rt_final_exit                          0x08000145   Thumb Code     0  entry11a.o(.ARM.Collect$$$$00000011)
    Reset_Handler                            0x08000149   Thumb Code     8  startup_stm32f10x_hd.o(.text)
    ADC1_2_IRQHandler                        0x08000163   Thumb Code     0  startup_stm32f10x_hd.o(.text)
    ADC3_IRQHandler                          0x08000163   Thumb Code     0  startup_stm32f10x_hd.o(.text)
    CAN1_RX1_IRQHandler                      0x08000163   Thumb Code     0  startup_stm32f10x_hd.o(.text)
    CAN1_SCE_IRQHandler                      0x08000163   Thumb Code     0  startup_stm32f10x_hd.o(.text)
    DMA1_Channel1_IRQHandler                 0x08000163   Thumb Code     0  startup_stm32f10x_hd.o(.text)
    DMA1_Channel2_IRQHandler                 0x08000163   Thumb Code     0  startup_stm32f10x_hd.o(.text)
    DMA1_Channel3_IRQHandler                 0x08000163   Thumb Code     0  startup_stm32f10x_hd.o(.text)
    DMA1_Channel4_IRQHandler                 0x08000163   Thumb Code     0  startup_stm32f10x_hd.o(.text)
    DMA1_Channel5_IRQHandler                 0x08000163   Thumb Code     0  startup_stm32f10x_hd.o(.text)
    DMA1_Channel6_IRQHandler                 0x08000163   Thumb Code     0  startup_stm32f10x_hd.o(.text)
    DMA1_Channel7_IRQHandler                 0x08000163   Thumb Code     0  startup_stm32f10x_hd.o(.text)
    DMA2_Channel1_IRQHandler                 0x08000163   Thumb Code     0  startup_stm32f10x_hd.o(.text)
    DMA2_Channel2_IRQHandler                 0x08000163   Thumb Code     0  startup_stm32f10x_hd.o(.text)
    DMA2_Channel3_IRQHandler                 0x08000163   Thumb Code     0  startup_stm32f10x_hd.o(.text)
    DMA2_Channel4_5_IRQHandler               0x08000163   Thumb Code     0  startup_stm32f10x_hd.o(.text)
    EXTI0_IRQHandler                         0x08000163   Thumb Code     0  startup_stm32f10x_hd.o(.text)
    EXTI15_10_IRQHandler                     0x08000163   Thumb Code     0  startup_stm32f10x_hd.o(.text)
    EXTI1_IRQHandler                         0x08000163   Thumb Code     0  startup_stm32f10x_hd.o(.text)
    EXTI2_IRQHandler                         0x08000163   Thumb Code     0  startup_stm32f10x_hd.o(.text)
    EXTI3_IRQHandler                         0x08000163   Thumb Code     0  startup_stm32f10x_hd.o(.text)
    EXTI4_IRQHandler                         0x08000163   Thumb Code     0  startup_stm32f10x_hd.o(.text)
    EXTI9_5_IRQHandler                       0x08000163   Thumb Code     0  startup_stm32f10x_hd.o(.text)
    FLASH_IRQHandler                         0x08000163   Thumb Code     0  startup_stm32f10x_hd.o(.text)
    FSMC_IRQHandler                          0x08000163   Thumb Code     0  startup_stm32f10x_hd.o(.text)
    I2C1_ER_IRQHandler                       0x08000163   Thumb Code     0  startup_stm32f10x_hd.o(.text)
    I2C1_EV_IRQHandler                       0x08000163   Thumb Code     0  startup_stm32f10x_hd.o(.text)
    I2C2_ER_IRQHandler                       0x08000163   Thumb Code     0  startup_stm32f10x_hd.o(.text)
    I2C2_EV_IRQHandler                       0x08000163   Thumb Code     0  startup_stm32f10x_hd.o(.text)
    PVD_IRQHandler                           0x08000163   Thumb Code     0  startup_stm32f10x_hd.o(.text)
    RCC_IRQHandler                           0x08000163   Thumb Code     0  startup_stm32f10x_hd.o(.text)
    RTCAlarm_IRQHandler                      0x08000163   Thumb Code     0  startup_stm32f10x_hd.o(.text)
    RTC_IRQHandler                           0x08000163   Thumb Code     0  startup_stm32f10x_hd.o(.text)
    SDIO_IRQHandler                          0x08000163   Thumb Code     0  startup_stm32f10x_hd.o(.text)
    SPI1_IRQHandler                          0x08000163   Thumb Code     0  startup_stm32f10x_hd.o(.text)
    SPI2_IRQHandler                          0x08000163   Thumb Code     0  startup_stm32f10x_hd.o(.text)
    SPI3_IRQHandler                          0x08000163   Thumb Code     0  startup_stm32f10x_hd.o(.text)
    TAMPER_IRQHandler                        0x08000163   Thumb Code     0  startup_stm32f10x_hd.o(.text)
    TIM1_BRK_IRQHandler                      0x08000163   Thumb Code     0  startup_stm32f10x_hd.o(.text)
    TIM1_CC_IRQHandler                       0x08000163   Thumb Code     0  startup_stm32f10x_hd.o(.text)
    TIM1_TRG_COM_IRQHandler                  0x08000163   Thumb Code     0  startup_stm32f10x_hd.o(.text)
    TIM1_UP_IRQHandler                       0x08000163   Thumb Code     0  startup_stm32f10x_hd.o(.text)
    TIM2_IRQHandler                          0x08000163   Thumb Code     0  startup_stm32f10x_hd.o(.text)
    TIM3_IRQHandler                          0x08000163   Thumb Code     0  startup_stm32f10x_hd.o(.text)
    TIM4_IRQHandler                          0x08000163   Thumb Code     0  startup_stm32f10x_hd.o(.text)
    TIM5_IRQHandler                          0x08000163   Thumb Code     0  startup_stm32f10x_hd.o(.text)
    TIM6_IRQHandler                          0x08000163   Thumb Code     0  startup_stm32f10x_hd.o(.text)
    TIM7_IRQHandler                          0x08000163   Thumb Code     0  startup_stm32f10x_hd.o(.text)
    TIM8_BRK_IRQHandler                      0x08000163   Thumb Code     0  startup_stm32f10x_hd.o(.text)
    TIM8_CC_IRQHandler                       0x08000163   Thumb Code     0  startup_stm32f10x_hd.o(.text)
    TIM8_TRG_COM_IRQHandler                  0x08000163   Thumb Code     0  startup_stm32f10x_hd.o(.text)
    TIM8_UP_IRQHandler                       0x08000163   Thumb Code     0  startup_stm32f10x_hd.o(.text)
    UART4_IRQHandler                         0x08000163   Thumb Code     0  startup_stm32f10x_hd.o(.text)
    UART5_IRQHandler                         0x08000163   Thumb Code     0  startup_stm32f10x_hd.o(.text)
    USART1_IRQHandler                        0x08000163   Thumb Code     0  startup_stm32f10x_hd.o(.text)
    USART2_IRQHandler                        0x08000163   Thumb Code     0  startup_stm32f10x_hd.o(.text)
    USART3_IRQHandler                        0x08000163   Thumb Code     0  startup_stm32f10x_hd.o(.text)
    USBWakeUp_IRQHandler                     0x08000163   Thumb Code     0  startup_stm32f10x_hd.o(.text)
    USB_HP_CAN1_TX_IRQHandler                0x08000163   Thumb Code     0  startup_stm32f10x_hd.o(.text)
    USB_LP_CAN1_RX0_IRQHandler               0x08000163   Thumb Code     0  startup_stm32f10x_hd.o(.text)
    WWDG_IRQHandler                          0x08000163   Thumb Code     0  startup_stm32f10x_hd.o(.text)
    SystemInit                               0x08000249   Thumb Code    78  system_stm32f10x.o(.text)
    SystemCoreClockUpdate                    0x08000297   Thumb Code   142  system_stm32f10x.o(.text)
    GPIO_DeInit                              0x08000349   Thumb Code   172  stm32f10x_gpio.o(.text)
    GPIO_AFIODeInit                          0x080003f5   Thumb Code    20  stm32f10x_gpio.o(.text)
    GPIO_Init                                0x08000409   Thumb Code   274  stm32f10x_gpio.o(.text)
    GPIO_StructInit                          0x0800051b   Thumb Code    16  stm32f10x_gpio.o(.text)
    GPIO_ReadInputDataBit                    0x0800052b   Thumb Code    18  stm32f10x_gpio.o(.text)
    GPIO_ReadInputData                       0x0800053d   Thumb Code     8  stm32f10x_gpio.o(.text)
    GPIO_ReadOutputDataBit                   0x08000545   Thumb Code    18  stm32f10x_gpio.o(.text)
    GPIO_ReadOutputData                      0x08000557   Thumb Code     8  stm32f10x_gpio.o(.text)
    GPIO_SetBits                             0x0800055f   Thumb Code     4  stm32f10x_gpio.o(.text)
    GPIO_ResetBits                           0x08000563   Thumb Code     4  stm32f10x_gpio.o(.text)
    GPIO_WriteBit                            0x08000567   Thumb Code    10  stm32f10x_gpio.o(.text)
    GPIO_Write                               0x08000571   Thumb Code     4  stm32f10x_gpio.o(.text)
    GPIO_PinLockConfig                       0x08000575   Thumb Code    18  stm32f10x_gpio.o(.text)
    GPIO_EventOutputConfig                   0x08000587   Thumb Code    26  stm32f10x_gpio.o(.text)
    GPIO_EventOutputCmd                      0x080005a1   Thumb Code     6  stm32f10x_gpio.o(.text)
    GPIO_PinRemapConfig                      0x080005a7   Thumb Code   138  stm32f10x_gpio.o(.text)
    GPIO_EXTILineConfig                      0x08000631   Thumb Code    66  stm32f10x_gpio.o(.text)
    GPIO_ETH_MediaInterfaceConfig            0x08000673   Thumb Code     6  stm32f10x_gpio.o(.text)
    RCC_DeInit                               0x080006a1   Thumb Code    64  stm32f10x_rcc.o(.text)
    RCC_HSEConfig                            0x080006e1   Thumb Code    70  stm32f10x_rcc.o(.text)
    RCC_GetFlagStatus                        0x08000727   Thumb Code    56  stm32f10x_rcc.o(.text)
    RCC_WaitForHSEStartUp                    0x0800075f   Thumb Code    56  stm32f10x_rcc.o(.text)
    RCC_AdjustHSICalibrationValue            0x08000797   Thumb Code    20  stm32f10x_rcc.o(.text)
    RCC_HSICmd                               0x080007ab   Thumb Code     6  stm32f10x_rcc.o(.text)
    RCC_PLLConfig                            0x080007b1   Thumb Code    24  stm32f10x_rcc.o(.text)
    RCC_PLLCmd                               0x080007c9   Thumb Code     6  stm32f10x_rcc.o(.text)
    RCC_SYSCLKConfig                         0x080007cf   Thumb Code    18  stm32f10x_rcc.o(.text)
    RCC_GetSYSCLKSource                      0x080007e1   Thumb Code    10  stm32f10x_rcc.o(.text)
    RCC_HCLKConfig                           0x080007eb   Thumb Code    18  stm32f10x_rcc.o(.text)
    RCC_PCLK1Config                          0x080007fd   Thumb Code    18  stm32f10x_rcc.o(.text)
    RCC_PCLK2Config                          0x0800080f   Thumb Code    20  stm32f10x_rcc.o(.text)
    RCC_ITConfig                             0x08000823   Thumb Code    26  stm32f10x_rcc.o(.text)
    RCC_USBCLKConfig                         0x0800083d   Thumb Code     6  stm32f10x_rcc.o(.text)
    RCC_ADCCLKConfig                         0x08000843   Thumb Code    18  stm32f10x_rcc.o(.text)
    RCC_LSEConfig                            0x08000855   Thumb Code    44  stm32f10x_rcc.o(.text)
    RCC_LSICmd                               0x08000881   Thumb Code     6  stm32f10x_rcc.o(.text)
    RCC_RTCCLKConfig                         0x08000887   Thumb Code    12  stm32f10x_rcc.o(.text)
    RCC_RTCCLKCmd                            0x08000893   Thumb Code     8  stm32f10x_rcc.o(.text)
    RCC_GetClocksFreq                        0x0800089b   Thumb Code   192  stm32f10x_rcc.o(.text)
    RCC_AHBPeriphClockCmd                    0x0800095b   Thumb Code    26  stm32f10x_rcc.o(.text)
    RCC_APB2PeriphClockCmd                   0x08000975   Thumb Code    26  stm32f10x_rcc.o(.text)
    RCC_APB1PeriphClockCmd                   0x0800098f   Thumb Code    26  stm32f10x_rcc.o(.text)
    RCC_APB2PeriphResetCmd                   0x080009a9   Thumb Code    26  stm32f10x_rcc.o(.text)
    RCC_APB1PeriphResetCmd                   0x080009c3   Thumb Code    26  stm32f10x_rcc.o(.text)
    RCC_BackupResetCmd                       0x080009dd   Thumb Code     8  stm32f10x_rcc.o(.text)
    RCC_ClockSecuritySystemCmd               0x080009e5   Thumb Code     6  stm32f10x_rcc.o(.text)
    RCC_MCOConfig                            0x080009eb   Thumb Code     6  stm32f10x_rcc.o(.text)
    RCC_ClearFlag                            0x080009f1   Thumb Code    14  stm32f10x_rcc.o(.text)
    RCC_GetITStatus                          0x080009ff   Thumb Code    20  stm32f10x_rcc.o(.text)
    RCC_ClearITPendingBit                    0x08000a13   Thumb Code     6  stm32f10x_rcc.o(.text)
    CPU_IntDis                               0x08000a45   Thumb Code     0  cpu_a.o(.text)
    CPU_IntEn                                0x08000a49   Thumb Code     0  cpu_a.o(.text)
    CPU_SR_Save                              0x08000a4d   Thumb Code     0  cpu_a.o(.text)
    CPU_SR_Restore                           0x08000a55   Thumb Code     0  cpu_a.o(.text)
    CPU_WaitForInt                           0x08000a5b   Thumb Code     0  cpu_a.o(.text)
    CPU_WaitForExcept                        0x08000a5f   Thumb Code     0  cpu_a.o(.text)
    CPU_CntLeadZeros                         0x08000a63   Thumb Code     0  cpu_a.o(.text)
    CPU_CntTrailZeros                        0x08000a69   Thumb Code     0  cpu_a.o(.text)
    CPU_RevBits                              0x08000a73   Thumb Code     0  cpu_a.o(.text)
    __aeabi_memcpy                           0x08000a79   Thumb Code    36  memcpya.o(.text)
    __aeabi_memcpy4                          0x08000a79   Thumb Code     0  memcpya.o(.text)
    __aeabi_memcpy8                          0x08000a79   Thumb Code     0  memcpya.o(.text)
    __scatterload                            0x08000a9d   Thumb Code    28  init.o(.text)
    __scatterload_rt2                        0x08000a9d   Thumb Code     0  init.o(.text)
    OSStartHighRdy                           0x08000ac1   Thumb Code     0  os_cpu_a.o(CODE)
    OS_CPU_PendSVHandler                     0x08000ae3   Thumb Code     0  os_cpu_a.o(CODE)
    BSP_CPU_ClkFreq                          0x08000bb5   Thumb Code    16  bsp.o(i.BSP_CPU_ClkFreq)
    BSP_Init                                 0x08000bc5   Thumb Code     8  bsp.o(i.BSP_Init)
    BusFault_Handler                         0x08000bcd   Thumb Code     4  stm32f10x_it.o(i.BusFault_Handler)
    CPU_Init                                 0x08000bd1   Thumb Code    16  cpu_core.o(i.CPU_Init)
    CPU_IntDisMeasMaxCurGet                  0x08000c81   Thumb Code    40  cpu_core.o(i.CPU_IntDisMeasMaxCurGet)
    CPU_IntDisMeasMaxCurReset                0x08000cad   Thumb Code    40  cpu_core.o(i.CPU_IntDisMeasMaxCurReset)
    CPU_IntDisMeasMaxGet                     0x08000cd9   Thumb Code    40  cpu_core.o(i.CPU_IntDisMeasMaxGet)
    CPU_IntDisMeasStart                      0x08000d05   Thumb Code    38  cpu_core.o(i.CPU_IntDisMeasStart)
    CPU_IntDisMeasStop                       0x08000d39   Thumb Code    62  cpu_core.o(i.CPU_IntDisMeasStop)
    CPU_NameClr                              0x08000d8d   Thumb Code    50  cpu_core.o(i.CPU_NameClr)
    CPU_TS_TmrFreqSet                        0x08000de1   Thumb Code     6  cpu_core.o(i.CPU_TS_TmrFreqSet)
    CPU_TS_TmrInit                           0x08000ded   Thumb Code    44  bsp.o(i.CPU_TS_TmrInit)
    CPU_TS_TmrRd                             0x08000e21   Thumb Code     6  bsp.o(i.CPU_TS_TmrRd)
    DebugMon_Handler                         0x08000e2d   Thumb Code     2  stm32f10x_it.o(i.DebugMon_Handler)
    HardFault_Handler                        0x08000e2f   Thumb Code     4  stm32f10x_it.o(i.HardFault_Handler)
    LED_Init                                 0x08000e61   Thumb Code    16  bsp_led.o(i.LED_Init)
    MemManage_Handler                        0x08000e75   Thumb Code     4  stm32f10x_it.o(i.MemManage_Handler)
    Mem_Clr                                  0x08000e79   Thumb Code    18  lib_mem.o(i.Mem_Clr)
    Mem_Init                                 0x08000e8d   Thumb Code    54  lib_mem.o(i.Mem_Init)
    Mem_Set                                  0x08000ed5   Thumb Code    98  lib_mem.o(i.Mem_Set)
    NMI_Handler                              0x08000f37   Thumb Code     2  stm32f10x_it.o(i.NMI_Handler)
    OSCfg_Init                               0x08000f39   Thumb Code     2  os_cfg_app.o(i.OSCfg_Init)
    OSIdleTaskHook                           0x08000f3d   Thumb Code    16  os_cpu_c.o(i.OSIdleTaskHook)
    OSInit                                   0x08000f51   Thumb Code   300  os_core.o(i.OSInit)
    OSInitHook                               0x080010dd   Thumb Code    42  os_cpu_c.o(i.OSInitHook)
    OSIntExit                                0x08001115   Thumb Code   192  os_core.o(i.OSIntExit)
    OSSched                                  0x080011f9   Thumb Code   134  os_core.o(i.OSSched)
    OSSchedLock                              0x080012a1   Thumb Code   112  os_core.o(i.OSSchedLock)
    OSSchedUnlock                            0x0800131d   Thumb Code   148  os_core.o(i.OSSchedUnlock)
    OSStart                                  0x080013bd   Thumb Code    78  os_core.o(i.OSStart)
    OSStatReset                              0x08001425   Thumb Code   316  os_stat.o(i.OSStatReset)
    OSStatTaskCPUUsageInit                   0x0800158d   Thumb Code   228  os_stat.o(i.OSStatTaskCPUUsageInit)
    OSStatTaskHook                           0x0800168d   Thumb Code    16  os_cpu_c.o(i.OSStatTaskHook)
    OSTaskCreate                             0x080016a1   Thumb Code   624  os_task.o(i.OSTaskCreate)
    OSTaskCreateHook                         0x08001935   Thumb Code    20  os_cpu_c.o(i.OSTaskCreateHook)
    OSTaskDel                                0x0800194d   Thumb Code   490  os_task.o(i.OSTaskDel)
    OSTaskDelHook                            0x08001b55   Thumb Code    20  os_cpu_c.o(i.OSTaskDelHook)
    OSTaskResume                             0x08001b6d   Thumb Code   124  os_task.o(i.OSTaskResume)
    OSTaskReturnHook                         0x08001bf5   Thumb Code    20  os_cpu_c.o(i.OSTaskReturnHook)
    OSTaskSemPend                            0x08001c0d   Thumb Code   578  os_task.o(i.OSTaskSemPend)
    OSTaskStkChk                             0x08001e5d   Thumb Code   220  os_task.o(i.OSTaskStkChk)
    OSTaskStkInit                            0x08001f41   Thumb Code   188  os_cpu_c.o(i.OSTaskStkInit)
    OSTaskSuspend                            0x08002001   Thumb Code    78  os_task.o(i.OSTaskSuspend)
    OSTaskSwHook                             0x08002061   Thumb Code   146  os_cpu_c.o(i.OSTaskSwHook)
    OSTimeDly                                0x08002105   Thumb Code   322  os_time.o(i.OSTimeDly)
    OSTimeTick                               0x08002255   Thumb Code    54  os_time.o(i.OSTimeTick)
    OSTimeTickHook                           0x08002299   Thumb Code    16  os_cpu_c.o(i.OSTimeTickHook)
    OS_CPU_SysTickHandler                    0x080022ad   Thumb Code    60  os_cpu_c.o(i.OS_CPU_SysTickHandler)
    OS_CPU_SysTickInit                       0x080022ed   Thumb Code    44  os_cpu_c.o(i.OS_CPU_SysTickInit)
    OS_Dbg_Init                              0x0800231d   Thumb Code   150  os_dbg.o(i.OS_Dbg_Init)
    OS_FlagInit                              0x080024d1   Thumb Code    14  os_flag.o(i.OS_FlagInit)
    OS_FlagPost                              0x080024e9   Thumb Code   626  os_flag.o(i.OS_FlagPost)
    OS_FlagTaskRdy                           0x08002765   Thumb Code    86  os_flag.o(i.OS_FlagTaskRdy)
    OS_IdleTask                              0x080027bd   Thumb Code    68  os_core.o(i.OS_IdleTask)
    OS_IdleTaskInit                          0x08002809   Thumb Code    66  os_core.o(i.OS_IdleTaskInit)
    OS_IntQPost                              0x08002879   Thumb Code   224  os_int.o(i.OS_IntQPost)
    OS_IntQRePost                            0x0800297d   Thumb Code   360  os_int.o(i.OS_IntQRePost)
    OS_IntQTask                              0x08002b21   Thumb Code   182  os_int.o(i.OS_IntQTask)
    OS_IntQTaskInit                          0x08002be9   Thumb Code   206  os_int.o(i.OS_IntQTaskInit)
    OS_MemInit                               0x08002d11   Thumb Code    14  os_mem.o(i.OS_MemInit)
    OS_MsgPoolInit                           0x08002d29   Thumb Code   110  os_msg.o(i.OS_MsgPoolInit)
    OS_MsgQFreeAll                           0x08002da5   Thumb Code    62  os_msg.o(i.OS_MsgQFreeAll)
    OS_MsgQInit                              0x08002de9   Thumb Code    14  os_msg.o(i.OS_MsgQInit)
    OS_MsgQPut                               0x08002df9   Thumb Code   254  os_msg.o(i.OS_MsgQPut)
    OS_MutexInit                             0x08002efd   Thumb Code    14  os_mutex.o(i.OS_MutexInit)
    OS_Pend                                  0x08002f15   Thumb Code    98  os_core.o(i.OS_Pend)
    OS_PendDataInit                          0x08002f7d   Thumb Code    38  os_core.o(i.OS_PendDataInit)
    OS_PendDbgNameAdd                        0x08002fa5   Thumb Code    66  os_core.o(i.OS_PendDbgNameAdd)
    OS_PendDbgNameRemove                     0x08003001   Thumb Code    30  os_core.o(i.OS_PendDbgNameRemove)
    OS_PendListInsertPrio                    0x08003025   Thumb Code   102  os_core.o(i.OS_PendListInsertPrio)
    OS_PendListRemove                        0x0800308b   Thumb Code    48  os_core.o(i.OS_PendListRemove)
    OS_PendListRemove1                       0x080030bb   Thumb Code    66  os_core.o(i.OS_PendListRemove1)
    OS_Post                                  0x080030fd   Thumb Code   192  os_core.o(i.OS_Post)
    OS_Post1                                 0x080031bd   Thumb Code    42  os_core.o(i.OS_Post1)
    OS_PrioGetHighest                        0x080031e9   Thumb Code    36  os_prio.o(i.OS_PrioGetHighest)
    OS_PrioInit                              0x08003211   Thumb Code    20  os_prio.o(i.OS_PrioInit)
    OS_PrioInsert                            0x08003229   Thumb Code    32  os_prio.o(i.OS_PrioInsert)
    OS_PrioRemove                            0x0800324d   Thumb Code    32  os_prio.o(i.OS_PrioRemove)
    OS_QInit                                 0x08003271   Thumb Code    14  os_q.o(i.OS_QInit)
    OS_QPost                                 0x08003289   Thumb Code   382  os_q.o(i.OS_QPost)
    OS_RdyListInit                           0x08003411   Thumb Code    32  os_core.o(i.OS_RdyListInit)
    OS_RdyListInsert                         0x08003435   Thumb Code    40  os_core.o(i.OS_RdyListInsert)
    OS_RdyListInsertHead                     0x08003461   Thumb Code    58  os_core.o(i.OS_RdyListInsertHead)
    OS_RdyListInsertTail                     0x080034a1   Thumb Code    56  os_core.o(i.OS_RdyListInsertTail)
    OS_RdyListMoveHeadToTail                 0x080034dd   Thumb Code    68  os_core.o(i.OS_RdyListMoveHeadToTail)
    OS_RdyListRemove                         0x08003521   Thumb Code    86  os_core.o(i.OS_RdyListRemove)
    OS_Sched0                                0x0800357d   Thumb Code    72  os_core.o(i.OS_Sched0)
    OS_SchedLockTimeMeasStart                0x080035d9   Thumb Code    20  os_core.o(i.OS_SchedLockTimeMeasStart)
    OS_SchedLockTimeMeasStop                 0x080035f5   Thumb Code    44  os_core.o(i.OS_SchedLockTimeMeasStop)
    OS_SchedRoundRobin                       0x08003631   Thumb Code   218  os_core.o(i.OS_SchedRoundRobin)
    OS_SemInit                               0x0800371d   Thumb Code    14  os_sem.o(i.OS_SemInit)
    OS_SemPost                               0x08003735   Thumb Code   404  os_sem.o(i.OS_SemPost)
    OS_StatTask                              0x080038cd   Thumb Code   878  os_stat.o(i.OS_StatTask)
    OS_StatTaskInit                          0x08003c85   Thumb Code   136  os_stat.o(i.OS_StatTaskInit)
    OS_TaskBlock                             0x08003d51   Thumb Code    56  os_core.o(i.OS_TaskBlock)
    OS_TaskDbgListAdd                        0x08003d89   Thumb Code    42  os_task.o(i.OS_TaskDbgListAdd)
    OS_TaskDbgListRemove                     0x08003db9   Thumb Code    64  os_task.o(i.OS_TaskDbgListRemove)
    OS_TaskInit                              0x08003dfd   Thumb Code    18  os_task.o(i.OS_TaskInit)
    OS_TaskInitTCB                           0x08003e1d   Thumb Code   194  os_task.o(i.OS_TaskInitTCB)
    OS_TaskQPost                             0x08003eed   Thumb Code   606  os_task.o(i.OS_TaskQPost)
    OS_TaskRdy                               0x08004159   Thumb Code    28  os_core.o(i.OS_TaskRdy)
    OS_TaskResume                            0x08004175   Thumb Code   374  os_task.o(i.OS_TaskResume)
    OS_TaskReturn                            0x080042f1   Thumb Code    20  os_task.o(i.OS_TaskReturn)
    OS_TaskSemPost                           0x08004309   Thumb Code  1438  os_task.o(i.OS_TaskSemPost)
    OS_TaskSuspend                           0x080048b1   Thumb Code   392  os_task.o(i.OS_TaskSuspend)
    OS_TickListInit                          0x08004a41   Thumb Code    32  os_tick.o(i.OS_TickListInit)
    OS_TickListInsert                        0x08004a69   Thumb Code   430  os_tick.o(i.OS_TickListInsert)
    OS_TickListRemove                        0x08004c25   Thumb Code    56  os_tick.o(i.OS_TickListRemove)
    OS_TickListResetPeak                     0x08004c5d   Thumb Code    28  os_tick.o(i.OS_TickListResetPeak)
    OS_TickListUpdate                        0x08004c81   Thumb Code   520  os_tick.o(i.OS_TickListUpdate)
    OS_TickTask                              0x08004ea1   Thumb Code    38  os_tick.o(i.OS_TickTask)
    OS_TickTaskInit                          0x08004ecd   Thumb Code   128  os_tick.o(i.OS_TickTaskInit)
    OS_TmrInit                               0x08004f85   Thumb Code   206  os_tmr.o(i.OS_TmrInit)
    OS_TmrLink                               0x080050ad   Thumb Code   196  os_tmr.o(i.OS_TmrLink)
    OS_TmrResetPeak                          0x0800517d   Thumb Code    28  os_tmr.o(i.OS_TmrResetPeak)
    OS_TmrTask                               0x080051a1   Thumb Code   176  os_tmr.o(i.OS_TmrTask)
    OS_TmrUnlink                             0x08005261   Thumb Code    72  os_tmr.o(i.OS_TmrUnlink)
    SVC_Handler                              0x080052b1   Thumb Code     2  stm32f10x_it.o(i.SVC_Handler)
    UsageFault_Handler                       0x080052b3   Thumb Code     4  stm32f10x_it.o(i.UsageFault_Handler)
    __scatterload_copy                       0x080052b7   Thumb Code    14  handlers.o(i.__scatterload_copy)
    __scatterload_null                       0x080052c5   Thumb Code     2  handlers.o(i.__scatterload_null)
    __scatterload_zeroinit                   0x080052c7   Thumb Code    14  handlers.o(i.__scatterload_zeroinit)
    main                                     0x080052d5   Thumb Code    68  main.o(i.main)
    OSCfg_IdleTaskStkBasePtr                 0x0800534c   Data           4  os_cfg_app.o(.constdata)
    OSCfg_IdleTaskStkLimit                   0x08005350   Data           4  os_cfg_app.o(.constdata)
    OSCfg_IdleTaskStkSize                    0x08005354   Data           4  os_cfg_app.o(.constdata)
    OSCfg_IdleTaskStkSizeRAM                 0x08005358   Data           4  os_cfg_app.o(.constdata)
    OSCfg_IntQBasePtr                        0x0800535c   Data           4  os_cfg_app.o(.constdata)
    OSCfg_IntQSize                           0x08005360   Data           2  os_cfg_app.o(.constdata)
    OSCfg_IntQSizeRAM                        0x08005364   Data           4  os_cfg_app.o(.constdata)
    OSCfg_IntQTaskStkBasePtr                 0x08005368   Data           4  os_cfg_app.o(.constdata)
    OSCfg_IntQTaskStkLimit                   0x0800536c   Data           4  os_cfg_app.o(.constdata)
    OSCfg_IntQTaskStkSize                    0x08005370   Data           4  os_cfg_app.o(.constdata)
    OSCfg_IntQTaskStkSizeRAM                 0x08005374   Data           4  os_cfg_app.o(.constdata)
    OSCfg_ISRStkBasePtr                      0x08005378   Data           4  os_cfg_app.o(.constdata)
    OSCfg_ISRStkSize                         0x0800537c   Data           4  os_cfg_app.o(.constdata)
    OSCfg_ISRStkSizeRAM                      0x08005380   Data           4  os_cfg_app.o(.constdata)
    OSCfg_MsgPoolSize                        0x08005384   Data           2  os_cfg_app.o(.constdata)
    OSCfg_MsgPoolSizeRAM                     0x08005388   Data           4  os_cfg_app.o(.constdata)
    OSCfg_MsgPoolBasePtr                     0x0800538c   Data           4  os_cfg_app.o(.constdata)
    OSCfg_StatTaskPrio                       0x08005390   Data           1  os_cfg_app.o(.constdata)
    OSCfg_StatTaskRate_Hz                    0x08005394   Data           4  os_cfg_app.o(.constdata)
    OSCfg_StatTaskStkBasePtr                 0x08005398   Data           4  os_cfg_app.o(.constdata)
    OSCfg_StatTaskStkLimit                   0x0800539c   Data           4  os_cfg_app.o(.constdata)
    OSCfg_StatTaskStkSize                    0x080053a0   Data           4  os_cfg_app.o(.constdata)
    OSCfg_StatTaskStkSizeRAM                 0x080053a4   Data           4  os_cfg_app.o(.constdata)
    OSCfg_StkSizeMin                         0x080053a8   Data           4  os_cfg_app.o(.constdata)
    OSCfg_TickRate_Hz                        0x080053ac   Data           4  os_cfg_app.o(.constdata)
    OSCfg_TickTaskPrio                       0x080053b0   Data           1  os_cfg_app.o(.constdata)
    OSCfg_TickTaskStkBasePtr                 0x080053b4   Data           4  os_cfg_app.o(.constdata)
    OSCfg_TickTaskStkLimit                   0x080053b8   Data           4  os_cfg_app.o(.constdata)
    OSCfg_TickTaskStkSize                    0x080053bc   Data           4  os_cfg_app.o(.constdata)
    OSCfg_TickTaskStkSizeRAM                 0x080053c0   Data           4  os_cfg_app.o(.constdata)
    OSCfg_TickWheelSize                      0x080053c4   Data           2  os_cfg_app.o(.constdata)
    OSCfg_TickWheelSizeRAM                   0x080053c8   Data           4  os_cfg_app.o(.constdata)
    OSCfg_TmrTaskPrio                        0x080053cc   Data           1  os_cfg_app.o(.constdata)
    OSCfg_TmrTaskRate_Hz                     0x080053d0   Data           4  os_cfg_app.o(.constdata)
    OSCfg_TmrTaskStkBasePtr                  0x080053d4   Data           4  os_cfg_app.o(.constdata)
    OSCfg_TmrTaskStkLimit                    0x080053d8   Data           4  os_cfg_app.o(.constdata)
    OSCfg_TmrTaskStkSize                     0x080053dc   Data           4  os_cfg_app.o(.constdata)
    OSCfg_TmrTaskStkSizeRAM                  0x080053e0   Data           4  os_cfg_app.o(.constdata)
    OSCfg_TmrWheelSize                       0x080053e4   Data           2  os_cfg_app.o(.constdata)
    OSCfg_TmrWheelSizeRAM                    0x080053e8   Data           4  os_cfg_app.o(.constdata)
    OSCfg_DataSizeRAM                        0x080053ec   Data           4  os_cfg_app.o(.constdata)
    OSDbg_DbgEn                              0x080053f0   Data           1  os_dbg.o(.constdata)
    OSDbg_ArgChkEn                           0x080053f1   Data           1  os_dbg.o(.constdata)
    OSDbg_AppHooksEn                         0x080053f2   Data           1  os_dbg.o(.constdata)
    OSDbg_EndiannessTest                     0x080053f4   Data           4  os_dbg.o(.constdata)
    OSDbg_CalledFromISRChkEn                 0x080053f8   Data           1  os_dbg.o(.constdata)
    OSDbg_FlagEn                             0x080053f9   Data           1  os_dbg.o(.constdata)
    OSDbg_FlagGrp                            0x080053fc   Data          40  os_dbg.o(.constdata)
    OSDbg_FlagDelEn                          0x08005424   Data           1  os_dbg.o(.constdata)
    OSDbg_FlagModeClrEn                      0x08005425   Data           1  os_dbg.o(.constdata)
    OSDbg_FlagPendAbortEn                    0x08005426   Data           1  os_dbg.o(.constdata)
    OSDbg_FlagGrpSize                        0x08005428   Data           2  os_dbg.o(.constdata)
    OSDbg_FlagWidth                          0x0800542a   Data           2  os_dbg.o(.constdata)
    OSDbg_IntQ                               0x0800542c   Data           2  os_dbg.o(.constdata)
    OSDbg_ISRPostDeferredEn                  0x0800542e   Data           1  os_dbg.o(.constdata)
    OSDbg_Mem                                0x08005430   Data          32  os_dbg.o(.constdata)
    OSDbg_MemEn                              0x08005450   Data           1  os_dbg.o(.constdata)
    OSDbg_MemSize                            0x08005452   Data           2  os_dbg.o(.constdata)
    OSDbg_MsgEn                              0x08005454   Data           1  os_dbg.o(.constdata)
    OSDbg_MsgSize                            0x08005456   Data           2  os_dbg.o(.constdata)
    OSDbg_MsgPoolSize                        0x08005458   Data           2  os_dbg.o(.constdata)
    OSDbg_MsgQSize                           0x0800545a   Data           2  os_dbg.o(.constdata)
    OSDbg_Mutex                              0x0800545c   Data          44  os_dbg.o(.constdata)
    OSDbg_MutexEn                            0x08005488   Data           1  os_dbg.o(.constdata)
    OSDbg_MutexDelEn                         0x08005489   Data           1  os_dbg.o(.constdata)
    OSDbg_MutexPendAbortEn                   0x0800548a   Data           1  os_dbg.o(.constdata)
    OSDbg_MutexSize                          0x0800548c   Data           2  os_dbg.o(.constdata)
    OSDbg_ObjTypeChkEn                       0x0800548e   Data           1  os_dbg.o(.constdata)
    OSDbg_PendMultiEn                        0x0800548f   Data           1  os_dbg.o(.constdata)
    OSDbg_PendDataSize                       0x08005490   Data           2  os_dbg.o(.constdata)
    OSDbg_PendListSize                       0x08005492   Data           2  os_dbg.o(.constdata)
    OSDbg_PendObjSize                        0x08005494   Data           2  os_dbg.o(.constdata)
    OSDbg_PrioMax                            0x08005496   Data           2  os_dbg.o(.constdata)
    OSDbg_PrioTblSize                        0x08005498   Data           2  os_dbg.o(.constdata)
    OSDbg_PtrSize                            0x0800549a   Data           2  os_dbg.o(.constdata)
    OSDbg_Q                                  0x0800549c   Data          48  os_dbg.o(.constdata)
    OSDbg_QEn                                0x080054cc   Data           1  os_dbg.o(.constdata)
    OSDbg_QDelEn                             0x080054cd   Data           1  os_dbg.o(.constdata)
    OSDbg_QFlushEn                           0x080054ce   Data           1  os_dbg.o(.constdata)
    OSDbg_QPendAbortEn                       0x080054cf   Data           1  os_dbg.o(.constdata)
    OSDbg_QSize                              0x080054d0   Data           2  os_dbg.o(.constdata)
    OSDbg_SchedRoundRobinEn                  0x080054d2   Data           1  os_dbg.o(.constdata)
    OSDbg_Sem                                0x080054d4   Data          40  os_dbg.o(.constdata)
    OSDbg_SemEn                              0x080054fc   Data           1  os_dbg.o(.constdata)
    OSDbg_SemDelEn                           0x080054fd   Data           1  os_dbg.o(.constdata)
    OSDbg_SemPendAbortEn                     0x080054fe   Data           1  os_dbg.o(.constdata)
    OSDbg_SemSetEn                           0x080054ff   Data           1  os_dbg.o(.constdata)
    OSDbg_SemSize                            0x08005500   Data           2  os_dbg.o(.constdata)
    OSDbg_RdyList                            0x08005502   Data           2  os_dbg.o(.constdata)
    OSDbg_RdyListSize                        0x08005504   Data           4  os_dbg.o(.constdata)
    OSDbg_StkWidth                           0x08005508   Data           1  os_dbg.o(.constdata)
    OSDbg_StatTaskEn                         0x08005509   Data           1  os_dbg.o(.constdata)
    OSDbg_StatTaskStkChkEn                   0x0800550a   Data           1  os_dbg.o(.constdata)
    OSDbg_TaskChangePrioEn                   0x0800550b   Data           1  os_dbg.o(.constdata)
    OSDbg_TaskDelEn                          0x0800550c   Data           1  os_dbg.o(.constdata)
    OSDbg_TaskQEn                            0x0800550d   Data           1  os_dbg.o(.constdata)
    OSDbg_TaskQPendAbortEn                   0x0800550e   Data           1  os_dbg.o(.constdata)
    OSDbg_TaskProfileEn                      0x0800550f   Data           1  os_dbg.o(.constdata)
    OSDbg_TaskRegTblSize                     0x08005510   Data           2  os_dbg.o(.constdata)
    OSDbg_TaskSemPendAbortEn                 0x08005512   Data           1  os_dbg.o(.constdata)
    OSDbg_TaskSuspendEn                      0x08005513   Data           1  os_dbg.o(.constdata)
    OSDbg_TCBSize                            0x08005514   Data           2  os_dbg.o(.constdata)
    OSDbg_TickSpokeSize                      0x08005516   Data           2  os_dbg.o(.constdata)
    OSDbg_TimeDlyHMSMEn                      0x08005518   Data           1  os_dbg.o(.constdata)
    OSDbg_TimeDlyResumeEn                    0x08005519   Data           1  os_dbg.o(.constdata)
    OSDbg_TLS_TblSize                        0x0800551a   Data           2  os_dbg.o(.constdata)
    OSDbg_Tmr                                0x0800551c   Data          52  os_dbg.o(.constdata)
    OSDbg_TmrEn                              0x08005550   Data           1  os_dbg.o(.constdata)
    OSDbg_TmrDelEn                           0x08005551   Data           1  os_dbg.o(.constdata)
    OSDbg_TmrSize                            0x08005552   Data           2  os_dbg.o(.constdata)
    OSDbg_TmrSpokeSize                       0x08005554   Data           2  os_dbg.o(.constdata)
    OSDbg_VersionNbr                         0x08005556   Data           2  os_dbg.o(.constdata)
    OSDbg_DataSize                           0x08005558   Data           4  os_dbg.o(.constdata)
    Region$$Table$$Base                      0x0800555c   Number         0  anon$$obj.o(Region$$Table)
    Region$$Table$$Limit                     0x0800557c   Number         0  anon$$obj.o(Region$$Table)
    SystemCoreClock                          0x20000000   Data           4  system_stm32f10x.o(.data)
    AHBPrescTable                            0x20000004   Data          16  system_stm32f10x.o(.data)
    CPU_TS_TmrFreq_Hz                        0x20000028   Data           4  cpu_core.o(.data)
    CPU_IntDisMeasCtr                        0x2000002c   Data           2  cpu_core.o(.data)
    CPU_IntDisNestCtr                        0x2000002e   Data           2  cpu_core.o(.data)
    CPU_IntDisMeasStart_cnts                 0x20000030   Data           4  cpu_core.o(.data)
    CPU_IntDisMeasStop_cnts                  0x20000034   Data           4  cpu_core.o(.data)
    CPU_IntDisMeasOvrhd_cnts                 0x20000038   Data           4  cpu_core.o(.data)
    CPU_IntDisMeasMaxCur_cnts                0x2000003c   Data           4  cpu_core.o(.data)
    CPU_IntDisMeasMax_cnts                   0x20000040   Data           4  cpu_core.o(.data)
    Mem_PoolTbl                              0x20000044   Data           4  lib_mem.o(.data)
    OS_AppTaskCreateHookPtr                  0x20000048   Data           4  os_var.o(.data)
    OS_AppTaskDelHookPtr                     0x2000004c   Data           4  os_var.o(.data)
    OS_AppTaskReturnHookPtr                  0x20000050   Data           4  os_var.o(.data)
    OS_AppIdleTaskHookPtr                    0x20000054   Data           4  os_var.o(.data)
    OS_AppStatTaskHookPtr                    0x20000058   Data           4  os_var.o(.data)
    OS_AppTaskSwHookPtr                      0x2000005c   Data           4  os_var.o(.data)
    OS_AppTimeTickHookPtr                    0x20000060   Data           4  os_var.o(.data)
    OSIdleTaskCtr                            0x20000064   Data           4  os_var.o(.data)
    OSIntNestingCtr                          0x20000068   Data           1  os_var.o(.data)
    OSIntDisTimeMax                          0x2000006c   Data           4  os_var.o(.data)
    OSRunning                                0x20000070   Data           1  os_var.o(.data)
    OSIntQInPtr                              0x20000074   Data           4  os_var.o(.data)
    OSIntQOutPtr                             0x20000078   Data           4  os_var.o(.data)
    OSIntQNbrEntries                         0x2000007c   Data           2  os_var.o(.data)
    OSIntQNbrEntriesMax                      0x2000007e   Data           2  os_var.o(.data)
    OSIntQOvfCtr                             0x20000080   Data           2  os_var.o(.data)
    OSIntQTaskTimeMax                        0x20000084   Data           4  os_var.o(.data)
    OSFlagDbgListPtr                         0x20000088   Data           4  os_var.o(.data)
    OSFlagQty                                0x2000008c   Data           2  os_var.o(.data)
    OSMemDbgListPtr                          0x20000090   Data           4  os_var.o(.data)
    OSMemQty                                 0x20000094   Data           2  os_var.o(.data)
    OSMutexDbgListPtr                        0x20000098   Data           4  os_var.o(.data)
    OSMutexQty                               0x2000009c   Data           2  os_var.o(.data)
    OSPrioCur                                0x2000009e   Data           1  os_var.o(.data)
    OSPrioHighRdy                            0x2000009f   Data           1  os_var.o(.data)
    OSPrioSaved                              0x200000a0   Data           1  os_var.o(.data)
    OSQDbgListPtr                            0x200000a4   Data           4  os_var.o(.data)
    OSQQty                                   0x200000a8   Data           2  os_var.o(.data)
    OSSchedLockTimeBegin                     0x200000ac   Data           4  os_var.o(.data)
    OSSchedLockTimeMax                       0x200000b0   Data           4  os_var.o(.data)
    OSSchedLockTimeMaxCur                    0x200000b4   Data           4  os_var.o(.data)
    OSSchedLockNestingCtr                    0x200000b8   Data           1  os_var.o(.data)
    OSSchedRoundRobinDfltTimeQuanta          0x200000bc   Data           4  os_var.o(.data)
    OSSchedRoundRobinEn                      0x200000c0   Data           1  os_var.o(.data)
    OSSemDbgListPtr                          0x200000c4   Data           4  os_var.o(.data)
    OSSemQty                                 0x200000c8   Data           2  os_var.o(.data)
    OSStatResetFlag                          0x200000ca   Data           1  os_var.o(.data)
    OSStatTaskCPUUsage                       0x200000cc   Data           2  os_var.o(.data)
    OSStatTaskCPUUsageMax                    0x200000ce   Data           2  os_var.o(.data)
    OSStatTaskCtr                            0x200000d0   Data           4  os_var.o(.data)
    OSStatTaskCtrMax                         0x200000d4   Data           4  os_var.o(.data)
    OSStatTaskCtrRun                         0x200000d8   Data           4  os_var.o(.data)
    OSStatTaskRdy                            0x200000dc   Data           1  os_var.o(.data)
    OSStatTaskTimeMax                        0x200000e0   Data           4  os_var.o(.data)
    OSTaskCtxSwCtr                           0x200000e4   Data           4  os_var.o(.data)
    OSTaskDbgListPtr                         0x200000e8   Data           4  os_var.o(.data)
    OSTaskQty                                0x200000ec   Data           2  os_var.o(.data)
    OSTaskRegNextAvailID                     0x200000ee   Data           1  os_var.o(.data)
    OSTickCtr                                0x200000f0   Data           4  os_var.o(.data)
    OSTickTaskTimeMax                        0x200000f4   Data           4  os_var.o(.data)
    OSTmrDbgListPtr                          0x200000f8   Data           4  os_var.o(.data)
    OSTmrQty                                 0x200000fc   Data           2  os_var.o(.data)
    OSTmrTaskTimeMax                         0x20000100   Data           4  os_var.o(.data)
    OSTmrTickCtr                             0x20000104   Data           4  os_var.o(.data)
    OSTmrUpdateCnt                           0x20000108   Data           4  os_var.o(.data)
    OSTmrUpdateCtr                           0x2000010c   Data           4  os_var.o(.data)
    OSTCBCurPtr                              0x20000110   Data           4  os_var.o(.data)
    OSTCBHighRdyPtr                          0x20000114   Data           4  os_var.o(.data)
    OS_CPU_ExceptStkBase                     0x20000118   Data           4  os_cpu_c.o(.data)
    OSPrioTbl                                0x2000011c   Data           4  os_prio.o(.data)
    CPU_Name                                 0x200003e8   Data          16  cpu_core.o(.bss)
    Mem_PoolHeap                             0x200003f8   Data          72  lib_mem.o(.bss)
    Mem_Heap                                 0x20000440   Data       27648  lib_mem.o(.bss)
    OSCfg_IdleTaskStk                        0x20007040   Data         512  os_cfg_app.o(.bss)
    OSCfg_IntQ                               0x20007240   Data         320  os_cfg_app.o(.bss)
    OSCfg_IntQTaskStk                        0x20007380   Data         512  os_cfg_app.o(.bss)
    OSCfg_ISRStk                             0x20007580   Data         512  os_cfg_app.o(.bss)
    OSCfg_MsgPool                            0x20007780   Data        1600  os_cfg_app.o(.bss)
    OSCfg_StatTaskStk                        0x20007dc0   Data         512  os_cfg_app.o(.bss)
    OSCfg_TickTaskStk                        0x20007fc0   Data         512  os_cfg_app.o(.bss)
    OSCfg_TickWheel                          0x200081c0   Data         136  os_cfg_app.o(.bss)
    OSCfg_TmrTaskStk                         0x20008248   Data         512  os_cfg_app.o(.bss)
    OSCfg_TmrWheel                           0x20008448   Data         136  os_cfg_app.o(.bss)
    OSIdleTaskTCB                            0x200084d0   Data         200  os_var.o(.bss)
    OSIntQTaskTCB                            0x20008598   Data         200  os_var.o(.bss)
    OSMsgPool                                0x20008660   Data          12  os_var.o(.bss)
    OSRdyList                                0x2000866c   Data         384  os_var.o(.bss)
    OSStatTaskTCB                            0x200087ec   Data         200  os_var.o(.bss)
    OSTickTaskTCB                            0x200088b4   Data         200  os_var.o(.bss)
    OSTmrTaskTCB                             0x2000897c   Data         200  os_var.o(.bss)
    __initial_sp                             0x20008e48   Data           0  startup_stm32f10x_hd.o(STACK)



==============================================================================

Memory Map of the image

  Image Entry point : 0x08000131

  Load Region LR_IROM1 (Base: 0x08000000, Size: 0x0000569c, Max: 0x00080000, ABSOLUTE)

    Execution Region ER_IROM1 (Exec base: 0x08000000, Load base: 0x08000000, Size: 0x0000557c, Max: 0x00080000, ABSOLUTE)

    Exec Addr    Load Addr    Size         Type   Attr      Idx    E Section Name        Object

    0x08000000   0x08000000   0x00000130   Data   RO            3    RESET               startup_stm32f10x_hd.o
    0x08000130   0x08000130   0x00000000   Code   RO         2385  * .ARM.Collect$$$$00000000  mc_w.l(entry.o)
    0x08000130   0x08000130   0x00000004   Code   RO         2392    .ARM.Collect$$$$00000001  mc_w.l(entry2.o)
    0x08000134   0x08000134   0x00000004   Code   RO         2395    .ARM.Collect$$$$00000004  mc_w.l(entry5.o)
    0x08000138   0x08000138   0x00000000   Code   RO         2397    .ARM.Collect$$$$00000008  mc_w.l(entry7b.o)
    0x08000138   0x08000138   0x00000000   Code   RO         2399    .ARM.Collect$$$$0000000A  mc_w.l(entry8b.o)
    0x08000138   0x08000138   0x00000008   Code   RO         2400    .ARM.Collect$$$$0000000B  mc_w.l(entry9a.o)
    0x08000140   0x08000140   0x00000004   Code   RO         2407    .ARM.Collect$$$$0000000E  mc_w.l(entry12b.o)
    0x08000144   0x08000144   0x00000000   Code   RO         2402    .ARM.Collect$$$$0000000F  mc_w.l(entry10a.o)
    0x08000144   0x08000144   0x00000000   Code   RO         2404    .ARM.Collect$$$$00000011  mc_w.l(entry11a.o)
    0x08000144   0x08000144   0x00000004   Code   RO         2393    .ARM.Collect$$$$00002712  mc_w.l(entry2.o)
    0x08000148   0x08000148   0x00000024   Code   RO            4    .text               startup_stm32f10x_hd.o
    0x0800016c   0x0800016c   0x000001dc   Code   RO          444    .text               stm32f10x_hd.lib(system_stm32f10x.o)
    0x08000348   0x08000348   0x00000358   Code   RO          544    .text               stm32f10x_hd.lib(stm32f10x_gpio.o)
    0x080006a0   0x080006a0   0x000003a4   Code   RO          579    .text               stm32f10x_hd.lib(stm32f10x_rcc.o)
    0x08000a44   0x08000a44   0x00000034   Code   RO          795    .text               UCOSIII.lib(cpu_a.o)
    0x08000a78   0x08000a78   0x00000024   Code   RO         2388    .text               mc_w.l(memcpya.o)
    0x08000a9c   0x08000a9c   0x00000024   Code   RO         2408    .text               mc_w.l(init.o)
    0x08000ac0   0x08000ac0   0x00000084   Code   RO         2277    CODE                UCOSIII.lib(os_cpu_a.o)
    0x08000b44   0x08000b44   0x00000070   Code   RO           10    i.AppTaskStart      main.o
    0x08000bb4   0x08000bb4   0x00000010   Code   RO          329    i.BSP_CPU_ClkFreq   bsp.o
    0x08000bc4   0x08000bc4   0x00000008   Code   RO          330    i.BSP_Init          bsp.o
    0x08000bcc   0x08000bcc   0x00000004   Code   RO          266    i.BusFault_Handler  stm32f10x_it.o
    0x08000bd0   0x08000bd0   0x00000010   Code   RO          613    i.CPU_Init          UCOSIII.lib(cpu_core.o)
    0x08000be0   0x08000be0   0x00000084   Code   RO          614    i.CPU_IntDisMeasInit  UCOSIII.lib(cpu_core.o)
    0x08000c64   0x08000c64   0x0000001c   Code   RO          615    i.CPU_IntDisMeasMaxCalc  UCOSIII.lib(cpu_core.o)
    0x08000c80   0x08000c80   0x0000002c   Code   RO          616    i.CPU_IntDisMeasMaxCurGet  UCOSIII.lib(cpu_core.o)
    0x08000cac   0x08000cac   0x0000002c   Code   RO          617    i.CPU_IntDisMeasMaxCurReset  UCOSIII.lib(cpu_core.o)
    0x08000cd8   0x08000cd8   0x0000002c   Code   RO          618    i.CPU_IntDisMeasMaxGet  UCOSIII.lib(cpu_core.o)
    0x08000d04   0x08000d04   0x00000034   Code   RO          619    i.CPU_IntDisMeasStart  UCOSIII.lib(cpu_core.o)
    0x08000d38   0x08000d38   0x00000054   Code   RO          620    i.CPU_IntDisMeasStop  UCOSIII.lib(cpu_core.o)
    0x08000d8c   0x08000d8c   0x00000038   Code   RO          621    i.CPU_NameClr       UCOSIII.lib(cpu_core.o)
    0x08000dc4   0x08000dc4   0x00000008   Code   RO          623    i.CPU_NameInit      UCOSIII.lib(cpu_core.o)
    0x08000dcc   0x08000dcc   0x00000014   Code   RO          627    i.CPU_TS_Init       UCOSIII.lib(cpu_core.o)
    0x08000de0   0x08000de0   0x0000000c   Code   RO          629    i.CPU_TS_TmrFreqSet  UCOSIII.lib(cpu_core.o)
    0x08000dec   0x08000dec   0x00000034   Code   RO          331    i.CPU_TS_TmrInit    bsp.o
    0x08000e20   0x08000e20   0x0000000c   Code   RO          332    i.CPU_TS_TmrRd      bsp.o
    0x08000e2c   0x08000e2c   0x00000002   Code   RO          267    i.DebugMon_Handler  stm32f10x_it.o
    0x08000e2e   0x08000e2e   0x00000004   Code   RO          268    i.HardFault_Handler  stm32f10x_it.o
    0x08000e32   0x08000e32   0x00000002   PAD
    0x08000e34   0x08000e34   0x0000002c   Code   RO          393    i.LED_GPIO_Config   bsp_led.o
    0x08000e60   0x08000e60   0x00000014   Code   RO          394    i.LED_Init          bsp_led.o
    0x08000e74   0x08000e74   0x00000004   Code   RO          269    i.MemManage_Handler  stm32f10x_it.o
    0x08000e78   0x08000e78   0x00000012   Code   RO          798    i.Mem_Clr           UCOSIII.lib(lib_mem.o)
    0x08000e8a   0x08000e8a   0x00000002   PAD
    0x08000e8c   0x08000e8c   0x00000048   Code   RO          802    i.Mem_Init          UCOSIII.lib(lib_mem.o)
    0x08000ed4   0x08000ed4   0x00000062   Code   RO          815    i.Mem_Set           UCOSIII.lib(lib_mem.o)
    0x08000f36   0x08000f36   0x00000002   Code   RO          270    i.NMI_Handler       stm32f10x_it.o
    0x08000f38   0x08000f38   0x00000002   Code   RO          923    i.OSCfg_Init        UCOSIII.lib(os_cfg_app.o)
    0x08000f3a   0x08000f3a   0x00000002   PAD
    0x08000f3c   0x08000f3c   0x00000014   Code   RO         1463    i.OSIdleTaskHook    UCOSIII.lib(os_cpu_c.o)
    0x08000f50   0x08000f50   0x0000018c   Code   RO          959    i.OSInit            UCOSIII.lib(os_core.o)
    0x080010dc   0x080010dc   0x00000038   Code   RO         1464    i.OSInitHook        UCOSIII.lib(os_cpu_c.o)
    0x08001114   0x08001114   0x000000e4   Code   RO          961    i.OSIntExit         UCOSIII.lib(os_core.o)
    0x080011f8   0x080011f8   0x000000a8   Code   RO          962    i.OSSched           UCOSIII.lib(os_core.o)
    0x080012a0   0x080012a0   0x0000007c   Code   RO          963    i.OSSchedLock       UCOSIII.lib(os_core.o)
    0x0800131c   0x0800131c   0x000000a0   Code   RO          966    i.OSSchedUnlock     UCOSIII.lib(os_core.o)
    0x080013bc   0x080013bc   0x00000068   Code   RO          967    i.OSStart           UCOSIII.lib(os_core.o)
    0x08001424   0x08001424   0x00000168   Code   RO         1209    i.OSStatReset       UCOSIII.lib(os_stat.o)
    0x0800158c   0x0800158c   0x00000100   Code   RO         1210    i.OSStatTaskCPUUsageInit  UCOSIII.lib(os_stat.o)
    0x0800168c   0x0800168c   0x00000014   Code   RO         1465    i.OSStatTaskHook    UCOSIII.lib(os_cpu_c.o)
    0x080016a0   0x080016a0   0x00000294   Code   RO         1240    i.OSTaskCreate      UCOSIII.lib(os_task.o)
    0x08001934   0x08001934   0x00000018   Code   RO         1466    i.OSTaskCreateHook  UCOSIII.lib(os_cpu_c.o)
    0x0800194c   0x0800194c   0x00000208   Code   RO         1241    i.OSTaskDel         UCOSIII.lib(os_task.o)
    0x08001b54   0x08001b54   0x00000018   Code   RO         1467    i.OSTaskDelHook     UCOSIII.lib(os_cpu_c.o)
    0x08001b6c   0x08001b6c   0x00000088   Code   RO         1249    i.OSTaskResume      UCOSIII.lib(os_task.o)
    0x08001bf4   0x08001bf4   0x00000018   Code   RO         1468    i.OSTaskReturnHook  UCOSIII.lib(os_cpu_c.o)
    0x08001c0c   0x08001c0c   0x00000250   Code   RO         1250    i.OSTaskSemPend     UCOSIII.lib(os_task.o)
    0x08001e5c   0x08001e5c   0x000000e4   Code   RO         1254    i.OSTaskStkChk      UCOSIII.lib(os_task.o)
    0x08001f40   0x08001f40   0x000000c0   Code   RO         1469    i.OSTaskStkInit     UCOSIII.lib(os_cpu_c.o)
    0x08002000   0x08002000   0x00000060   Code   RO         1255    i.OSTaskSuspend     UCOSIII.lib(os_task.o)
    0x08002060   0x08002060   0x000000a4   Code   RO         1470    i.OSTaskSwHook      UCOSIII.lib(os_cpu_c.o)
    0x08002104   0x08002104   0x00000150   Code   RO         1407    i.OSTimeDly         UCOSIII.lib(os_time.o)
    0x08002254   0x08002254   0x00000044   Code   RO         1412    i.OSTimeTick        UCOSIII.lib(os_time.o)
    0x08002298   0x08002298   0x00000014   Code   RO         1471    i.OSTimeTickHook    UCOSIII.lib(os_cpu_c.o)
    0x080022ac   0x080022ac   0x00000040   Code   RO         1472    i.OS_CPU_SysTickHandler  UCOSIII.lib(os_cpu_c.o)
    0x080022ec   0x080022ec   0x00000030   Code   RO         1473    i.OS_CPU_SysTickInit  UCOSIII.lib(os_cpu_c.o)
    0x0800231c   0x0800231c   0x000001b4   Code   RO         1697    i.OS_Dbg_Init       UCOSIII.lib(os_dbg.o)
    0x080024d0   0x080024d0   0x00000018   Code   RO         1722    i.OS_FlagInit       UCOSIII.lib(os_flag.o)
    0x080024e8   0x080024e8   0x0000027c   Code   RO         1723    i.OS_FlagPost       UCOSIII.lib(os_flag.o)
    0x08002764   0x08002764   0x00000056   Code   RO         1724    i.OS_FlagTaskRdy    UCOSIII.lib(os_flag.o)
    0x080027ba   0x080027ba   0x00000002   PAD
    0x080027bc   0x080027bc   0x0000004c   Code   RO          969    i.OS_IdleTask       UCOSIII.lib(os_core.o)
    0x08002808   0x08002808   0x00000070   Code   RO          970    i.OS_IdleTaskInit   UCOSIII.lib(os_core.o)
    0x08002878   0x08002878   0x00000104   Code   RO         1796    i.OS_IntQPost       UCOSIII.lib(os_int.o)
    0x0800297c   0x0800297c   0x000001a4   Code   RO         1797    i.OS_IntQRePost     UCOSIII.lib(os_int.o)
    0x08002b20   0x08002b20   0x000000c8   Code   RO         1798    i.OS_IntQTask       UCOSIII.lib(os_int.o)
    0x08002be8   0x08002be8   0x00000128   Code   RO         1799    i.OS_IntQTaskInit   UCOSIII.lib(os_int.o)
    0x08002d10   0x08002d10   0x00000018   Code   RO         1830    i.OS_MemInit        UCOSIII.lib(os_mem.o)
    0x08002d28   0x08002d28   0x0000007c   Code   RO         1862    i.OS_MsgPoolInit    UCOSIII.lib(os_msg.o)
    0x08002da4   0x08002da4   0x00000044   Code   RO         1863    i.OS_MsgQFreeAll    UCOSIII.lib(os_msg.o)
    0x08002de8   0x08002de8   0x0000000e   Code   RO         1865    i.OS_MsgQInit       UCOSIII.lib(os_msg.o)
    0x08002df6   0x08002df6   0x00000002   PAD
    0x08002df8   0x08002df8   0x00000104   Code   RO         1866    i.OS_MsgQPut        UCOSIII.lib(os_msg.o)
    0x08002efc   0x08002efc   0x00000018   Code   RO         1906    i.OS_MutexInit      UCOSIII.lib(os_mutex.o)
    0x08002f14   0x08002f14   0x00000068   Code   RO          971    i.OS_Pend           UCOSIII.lib(os_core.o)
    0x08002f7c   0x08002f7c   0x00000026   Code   RO          974    i.OS_PendDataInit   UCOSIII.lib(os_core.o)
    0x08002fa2   0x08002fa2   0x00000002   PAD
    0x08002fa4   0x08002fa4   0x0000005c   Code   RO          975    i.OS_PendDbgNameAdd  UCOSIII.lib(os_core.o)
    0x08003000   0x08003000   0x00000024   Code   RO          976    i.OS_PendDbgNameRemove  UCOSIII.lib(os_core.o)
    0x08003024   0x08003024   0x00000066   Code   RO          980    i.OS_PendListInsertPrio  UCOSIII.lib(os_core.o)
    0x0800308a   0x0800308a   0x00000030   Code   RO          981    i.OS_PendListRemove  UCOSIII.lib(os_core.o)
    0x080030ba   0x080030ba   0x00000042   Code   RO          982    i.OS_PendListRemove1  UCOSIII.lib(os_core.o)
    0x080030fc   0x080030fc   0x000000c0   Code   RO          985    i.OS_Post           UCOSIII.lib(os_core.o)
    0x080031bc   0x080031bc   0x0000002a   Code   RO          986    i.OS_Post1          UCOSIII.lib(os_core.o)
    0x080031e6   0x080031e6   0x00000002   PAD
    0x080031e8   0x080031e8   0x00000028   Code   RO         1958    i.OS_PrioGetHighest  UCOSIII.lib(os_prio.o)
    0x08003210   0x08003210   0x00000018   Code   RO         1959    i.OS_PrioInit       UCOSIII.lib(os_prio.o)
    0x08003228   0x08003228   0x00000024   Code   RO         1960    i.OS_PrioInsert     UCOSIII.lib(os_prio.o)
    0x0800324c   0x0800324c   0x00000024   Code   RO         1961    i.OS_PrioRemove     UCOSIII.lib(os_prio.o)
    0x08003270   0x08003270   0x00000018   Code   RO         2004    i.OS_QInit          UCOSIII.lib(os_q.o)
    0x08003288   0x08003288   0x00000188   Code   RO         2005    i.OS_QPost          UCOSIII.lib(os_q.o)
    0x08003410   0x08003410   0x00000024   Code   RO          987    i.OS_RdyListInit    UCOSIII.lib(os_core.o)
    0x08003434   0x08003434   0x0000002c   Code   RO          988    i.OS_RdyListInsert  UCOSIII.lib(os_core.o)
    0x08003460   0x08003460   0x00000040   Code   RO          989    i.OS_RdyListInsertHead  UCOSIII.lib(os_core.o)
    0x080034a0   0x080034a0   0x0000003c   Code   RO          990    i.OS_RdyListInsertTail  UCOSIII.lib(os_core.o)
    0x080034dc   0x080034dc   0x00000044   Code   RO          991    i.OS_RdyListMoveHeadToTail  UCOSIII.lib(os_core.o)
    0x08003520   0x08003520   0x0000005c   Code   RO          992    i.OS_RdyListRemove  UCOSIII.lib(os_core.o)
    0x0800357c   0x0800357c   0x0000005c   Code   RO          993    i.OS_Sched0         UCOSIII.lib(os_core.o)
    0x080035d8   0x080035d8   0x0000001c   Code   RO          994    i.OS_SchedLockTimeMeasStart  UCOSIII.lib(os_core.o)
    0x080035f4   0x080035f4   0x0000003c   Code   RO          995    i.OS_SchedLockTimeMeasStop  UCOSIII.lib(os_core.o)
    0x08003630   0x08003630   0x000000ec   Code   RO          996    i.OS_SchedRoundRobin  UCOSIII.lib(os_core.o)
    0x0800371c   0x0800371c   0x00000018   Code   RO         2076    i.OS_SemInit        UCOSIII.lib(os_sem.o)
    0x08003734   0x08003734   0x00000198   Code   RO         2077    i.OS_SemPost        UCOSIII.lib(os_sem.o)
    0x080038cc   0x080038cc   0x000003b8   Code   RO         1211    i.OS_StatTask       UCOSIII.lib(os_stat.o)
    0x08003c84   0x08003c84   0x000000cc   Code   RO         1212    i.OS_StatTaskInit   UCOSIII.lib(os_stat.o)
    0x08003d50   0x08003d50   0x00000038   Code   RO          997    i.OS_TaskBlock      UCOSIII.lib(os_core.o)
    0x08003d88   0x08003d88   0x00000030   Code   RO         1257    i.OS_TaskDbgListAdd  UCOSIII.lib(os_task.o)
    0x08003db8   0x08003db8   0x00000044   Code   RO         1258    i.OS_TaskDbgListRemove  UCOSIII.lib(os_task.o)
    0x08003dfc   0x08003dfc   0x00000020   Code   RO         1259    i.OS_TaskInit       UCOSIII.lib(os_task.o)
    0x08003e1c   0x08003e1c   0x000000d0   Code   RO         1260    i.OS_TaskInitTCB    UCOSIII.lib(os_task.o)
    0x08003eec   0x08003eec   0x0000026c   Code   RO         1261    i.OS_TaskQPost      UCOSIII.lib(os_task.o)
    0x08004158   0x08004158   0x0000001c   Code   RO          998    i.OS_TaskRdy        UCOSIII.lib(os_core.o)
    0x08004174   0x08004174   0x0000017c   Code   RO         1262    i.OS_TaskResume     UCOSIII.lib(os_task.o)
    0x080042f0   0x080042f0   0x00000018   Code   RO         1263    i.OS_TaskReturn     UCOSIII.lib(os_task.o)
    0x08004308   0x08004308   0x000005a8   Code   RO         1264    i.OS_TaskSemPost    UCOSIII.lib(os_task.o)
    0x080048b0   0x080048b0   0x00000190   Code   RO         1265    i.OS_TaskSuspend    UCOSIII.lib(os_task.o)
    0x08004a40   0x08004a40   0x00000028   Code   RO         2139    i.OS_TickListInit   UCOSIII.lib(os_tick.o)
    0x08004a68   0x08004a68   0x000001bc   Code   RO         2140    i.OS_TickListInsert  UCOSIII.lib(os_tick.o)
    0x08004c24   0x08004c24   0x00000038   Code   RO         2141    i.OS_TickListRemove  UCOSIII.lib(os_tick.o)
    0x08004c5c   0x08004c5c   0x00000024   Code   RO         2142    i.OS_TickListResetPeak  UCOSIII.lib(os_tick.o)
    0x08004c80   0x08004c80   0x00000220   Code   RO         2143    i.OS_TickListUpdate  UCOSIII.lib(os_tick.o)
    0x08004ea0   0x08004ea0   0x0000002c   Code   RO         2144    i.OS_TickTask       UCOSIII.lib(os_tick.o)
    0x08004ecc   0x08004ecc   0x000000b8   Code   RO         2145    i.OS_TickTaskInit   UCOSIII.lib(os_tick.o)
    0x08004f84   0x08004f84   0x00000128   Code   RO         2196    i.OS_TmrInit        UCOSIII.lib(os_tmr.o)
    0x080050ac   0x080050ac   0x000000d0   Code   RO         2197    i.OS_TmrLink        UCOSIII.lib(os_tmr.o)
    0x0800517c   0x0800517c   0x00000024   Code   RO         2198    i.OS_TmrResetPeak   UCOSIII.lib(os_tmr.o)
    0x080051a0   0x080051a0   0x000000c0   Code   RO         2199    i.OS_TmrTask        UCOSIII.lib(os_tmr.o)
    0x08005260   0x08005260   0x00000050   Code   RO         2200    i.OS_TmrUnlink      UCOSIII.lib(os_tmr.o)
    0x080052b0   0x080052b0   0x00000002   Code   RO          272    i.SVC_Handler       stm32f10x_it.o
    0x080052b2   0x080052b2   0x00000004   Code   RO          274    i.UsageFault_Handler  stm32f10x_it.o
    0x080052b6   0x080052b6   0x0000000e   Code   RO         2412    i.__scatterload_copy  mc_w.l(handlers.o)
    0x080052c4   0x080052c4   0x00000002   Code   RO         2413    i.__scatterload_null  mc_w.l(handlers.o)
    0x080052c6   0x080052c6   0x0000000e   Code   RO         2414    i.__scatterload_zeroinit  mc_w.l(handlers.o)
    0x080052d4   0x080052d4   0x00000060   Code   RO           11    i.main              main.o
    0x08005334   0x08005334   0x00000018   Data   RO           13    .constdata          main.o
    0x0800534c   0x0800534c   0x000000a4   Data   RO          925    .constdata          UCOSIII.lib(os_cfg_app.o)
    0x080053f0   0x080053f0   0x0000016c   Data   RO         1698    .constdata          UCOSIII.lib(os_dbg.o)
    0x0800555c   0x0800555c   0x00000020   Data   RO         2410    Region$$Table       anon$$obj.o


    Execution Region RW_IRAM1 (Exec base: 0x20000000, Load base: 0x0800557c, Size: 0x00008e48, Max: 0x00010000, ABSOLUTE)

    Exec Addr    Load Addr    Size         Type   Attr      Idx    E Section Name        Object

    0x20000000   0x0800557c   0x00000014   Data   RW          445    .data               stm32f10x_hd.lib(system_stm32f10x.o)
    0x20000014   0x08005590   0x00000014   Data   RW          580    .data               stm32f10x_hd.lib(stm32f10x_rcc.o)
    0x20000028   0x080055a4   0x0000001c   Data   RW          633    .data               UCOSIII.lib(cpu_core.o)
    0x20000044   0x080055c0   0x00000004   Data   RW          817    .data               UCOSIII.lib(lib_mem.o)
    0x20000048   0x080055c4   0x000000d0   Data   RW         1450    .data               UCOSIII.lib(os_var.o)
    0x20000118   0x08005694   0x00000004   Data   RW         1474    .data               UCOSIII.lib(os_cpu_c.o)
    0x2000011c   0x08005698   0x00000004   Data   RW         1962    .data               UCOSIII.lib(os_prio.o)
    0x20000120        -       0x000002c8   Zero   RW           12    .bss                main.o
    0x200003e8        -       0x00000010   Zero   RW          631    .bss                UCOSIII.lib(cpu_core.o)
    0x200003f8        -       0x00006c48   Zero   RW          816    .bss                UCOSIII.lib(lib_mem.o)
    0x20007040        -       0x00001490   Zero   RW          924    .bss                UCOSIII.lib(os_cfg_app.o)
    0x200084d0        -       0x00000574   Zero   RW         1449    .bss                UCOSIII.lib(os_var.o)
    0x20008a44   0x0800569c   0x00000004   PAD
    0x20008a48        -       0x00000400   Zero   RW            1    STACK               startup_stm32f10x_hd.o


==============================================================================

Image component sizes


      Code (inc. data)   RO Data    RW Data    ZI Data      Debug   Object Name

        88         14          0          0          0       1845   bsp.o
        64         10          0          0          0        911   bsp_led.o
       208         42         24          0        712      52378   main.o
        36          8        304          0       1024        832   startup_stm32f10x_hd.o
        22          0          0          0          0       2991   stm32f10x_it.o

    ----------------------------------------------------------------------
       420         74        360          0       1736      58957   Object Totals
         0          0         32          0          0          0   (incl. Generated)
         2          0          0          0          0          0   (incl. Padding)

    ----------------------------------------------------------------------

      Code (inc. data)   RO Data    RW Data    ZI Data      Debug   Library Member Name

        52          0          0          0          0        368   cpu_a.o
       540         98          0         28         16      28417   cpu_core.o
       188         18          0          4      27720      23347   lib_mem.o
         2          0        164          0       5264      21914   os_cfg_app.o
      2952        402          0          0          0      39307   os_core.o
       132         32          0          0          0        412   os_cpu_a.o
       656         68          0          4          0       8625   os_cpu_c.o
       436        286        364          0          0       4901   os_dbg.o
       746         28          0          0          0       3225   os_flag.o
      1176        204          0          0          0       3654   os_int.o
        24         10          0          0          0        937   os_mem.o
       466         26          0          0          0       3385   os_msg.o
        24         10          0          0          0        939   os_mutex.o
       136         16          0          4          0       3018   os_prio.o
       416         20          0          0          0       2302   os_q.o
       432         14          0          0          0       2326   os_sem.o
      1772        214          0          0          0       4215   os_stat.o
      5460        260          0          0          0      14344   os_task.o
      1348        124          0          0          0       5721   os_tick.o
       404         28          0          0          0       1849   os_time.o
       812        134          0          0          0       4332   os_tmr.o
         0          0          0        208       1396      19553   os_var.o
         0          0          0          0          0          0   entry.o
         0          0          0          0          0          0   entry10a.o
         0          0          0          0          0          0   entry11a.o
         4          0          0          0          0          0   entry12b.o
         8          4          0          0          0          0   entry2.o
         4          0          0          0          0          0   entry5.o
         0          0          0          0          0          0   entry7b.o
         0          0          0          0          0          0   entry8b.o
         8          4          0          0          0          0   entry9a.o
        30          0          0          0          0          0   handlers.o
        36          8          0          0          0         68   init.o
        36          0          0          0          0         68   memcpya.o
       856         40          0          0          0     208913   stm32f10x_gpio.o
       932         44          0         20          0       8904   stm32f10x_rcc.o
       476         36          0         20          0      22027   system_stm32f10x.o

    ----------------------------------------------------------------------
     20576       2128        528        288      34400     437071   Library Totals
        12          0          0          0          4          0   (incl. Padding)

    ----------------------------------------------------------------------

      Code (inc. data)   RO Data    RW Data    ZI Data      Debug   Library Name

     18174       1992        528        248      34396     197091   UCOSIII.lib
       126         16          0          0          0        136   mc_w.l
      2264        120          0         40          0     239844   stm32f10x_hd.lib

    ----------------------------------------------------------------------
     20576       2128        528        288      34400     437071   Library Totals

    ----------------------------------------------------------------------

==============================================================================


      Code (inc. data)   RO Data    RW Data    ZI Data      Debug   

     20996       2202        888        288      36136     489472   Grand Totals
     20996       2202        888        288      36136     489472   ELF Image Totals
     20996       2202        888        288          0          0   ROM Totals

==============================================================================

    Total RO  Size (Code + RO Data)                21884 (  21.37kB)
    Total RW  Size (RW Data + ZI Data)             36424 (  35.57kB)
    Total ROM Size (Code + RO Data + RW Data)      22172 (  21.65kB)

==============================================================================

