:020000040800F2
:10000000D0A8002049010008D31600083B150008BD
:1000100011160008D91200082D6400080000000025
:10002000000000000000000000000000A9630008BC
:100030003915000800000000C70E0008253300082D
:100040006301000863010008630100086301000800
:1000500063010008630100086301000863010008F0
:1000600063010008630100086301000863010008E0
:1000700063010008630100086301000863010008D0
:1000800063010008630100086301000863010008C0
:1000900063010008630100086301000863010008B0
:1000A00063010008630100086301000863010008A0
:1000B0006301000863010008630100086301000890
:1000C0006301000863010008630100086301000880
:1000D0006301000863010008630100086301000870
:1000E0006301000863010008630100086301000860
:1000F0006301000863010008630100086301000850
:10010000630100086301000863010008630100083F
:10011000630100086301000863010008630100082F
:10012000630100086301000863010008630100081F
:10013000DFF810D000F0A4FE00480047A5640008D6
:10014000AFF30080D0A8002006488047064800474B
:10015000FEE7FEE7FEE7FEE7FEE7FEE7FEE7FEE777
:10016000FEE7FEE749020008310100080CB5002057
:10017000019000906B48006840F480306949086045
:1001800000BF6848006800F4003000900198401CEF
:100190000190009818B90198B0F5A06FF1D16148AD
:1001A000006810F4003F02D00120009001E0002020
:1001B00000900098012842D15B48006840F0100090
:1001C000594908600846006820F0030008600846A6
:1001D000006840F002000860524840685149486099
:1001E0000846406848600846406840F480604860BF
:1001F0000846406820F47C1048600846406840F497
:10020000E81048600846006840F08070086000BF51
:100210004448006810F0007FFAD04248406820F05F
:100220000300404948600846406840F002004860CA
:1002300000BF3C48406800F00C000828F9D10CBD14
:1002400010B5FFF793FF10BD10B53648006840F0B9
:100250000100344908600846406834490840314983
:10026000486008460068324908402E490860084640
:10027000006820F4802008600846406820F4FE00F2
:1002800048604FF41F008860FFF7DAFF4FF000600E
:100290002849086010BD10B5002100200022214B24
:1002A0005B6803F00C0121B1042906D0082928D18C
:1002B00007E0214B214C236027E01F4B1F4C23609C
:1002C00023E0184B5B6803F47010164B5B6803F473
:1002D0008032022303EB904022B9194B4343174C61
:1002E00023600DE00F4B5B6813F4003F04D0144B08
:1002F0004343124C236003E00F4B43430F4C2360F6
:1003000003E00D4B0D4C236000BF00BF054B5B6845
:10031000C3F303130B4CE15C084B1B68CB40074C49
:10032000236010BD00100240002002400000FFF8D2
:10033000FFFFF6FE08ED00E000127A000400002046
:1003400000093D000800002010B50446CA48844258
:1003500008D10121042000F027FB0021042000F037
:1003600023FB46E0C548844208D10121082000F063
:100370001BFB0021082000F017FB3AE0C048844234
:1003800008D10121102000F00FFB0021102000F007
:100390000BFB2EE0BB48844208D10121202000F055
:1003A00003FB0021202000F0FFFA22E0B64884423F
:1003B00008D10121402000F0F7FA0021402000F090
:1003C000F3FA16E0B148844208D10121802000F000
:1003D000EBFA0021802000F0E7FA0AE0AC48844202
:1003E00007D10121801500F0DFFA0021A01500F0EF
:1003F000DBFA10BD10B50121084600F0D5FA002146
:10040000012000F0D1FA10BD2DE9F041024600258F
:100410000026002000230024002791F803C00CF0E0
:100420000F0591F803C01CF0100F03D091F802C023
:100430004CEA050591F800C0BCF1000F31D01468FA
:1004400000202BE04FF0010C0CFA00F3B1F800C0D3
:100450000CEA03069E4220D183004FF00F0C0CFAE9
:1004600003F7BC4305FA03FC4CEA040491F803C00B
:10047000BCF1280F06D14FF0010C0CFA00FCC2F8B9
:1004800014C00AE091F803C0BCF1480F05D14FF049
:10049000010C0CFA00FCC2F810C0401C0828D1D393
:1004A0001460B1F800C0BCF1FF0F34DD54680020C7
:1004B0002EE000F1080C4FF0010808FA0CF3B1F837
:1004C00000C00CEA03069E4221D183004FF00F0CBE
:1004D0000CFA03F7BC4305FA03FC4CEA040491F858
:1004E00003C0BCF1280F05D100F1080C08FA0CF884
:1004F000C2F8148091F803C0BCF1480F07D100F195
:10050000080C4FF0010808FA0CF8C2F81080401CE3
:100510000828CED35460BDE8F0814FF6FF7101800A
:10052000022181700421C170704702460020936847
:100530000B4201D0012000E000207047014688688E
:1005400080B2704702460020D3680B4201D00120E0
:1005500000E0002070470146C86880B27047016122
:100560007047416170470AB1016100E04161704725
:10057000C16070474FF480320A43826181618261B9
:1005800082698269704702460020424B18684FF624
:100590008073184040EA021008433E4B18607047D1
:1005A0003D49C8617047F0B50A4600230024002188
:1005B000002500F00046B6F1004F02D1354EF1693A
:1005C00001E0344E7168C0F3034583B200F4401675
:1005D000B6F5401F08D121F070612E4E766826F0E6
:1005E00070662C4F7E6012E000F48016B6F5801F16
:1005F00006D1032606FA05F4A14341F0706106E036
:10060000460D360103FA06F6B14341F0706122B19E
:10061000460D360103FA06F6314300F00046B6F106
:10062000004F02D11B4EF16101E01A4E7160F0BD26
:1006300030B500228B071C0F0F2303FA04F2154B71
:1006400008338C1053F824309343124C08348D1027
:1006500044F8253023468C1053F824308C07240F9F
:1006600000FA04F423430B4C08348D1044F8253071
:1006700030BD0A490860704700080140000C014085
:10068000001001400014014000180140001C01400E
:10069000002001400000014000002042DC00204218
:1006A000DD48006840F00100DB490860084640680A
:1006B000DA490840D849486008460068D8490840E7
:1006C000D54908600846006820F480200860084684
:1006D000406820F4FE0048604FF41F0088607047B7
:1006E000CD49096821F48031CB4A1160114609686F
:1006F00021F480211160B0F5803F03D0B0F5802F48
:100700000ED106E0C449096841F48031C24A116043
:1007100007E0C149096841F4A021BF4A116000E027
:1007200000BF00BF704710B5014600220023002023
:100730004A11012A02D1B84C236806E0022A02D1EC
:10074000B54C236A01E0B44C636A01F01F02012436
:1007500094401C4201D0012000E0002010BD38B5BB
:10076000002000900024002500BF3120FFF7DBFFB0
:1007700005460098401C00900098B0F5A06F01D08D
:10078000002DF2D03120FFF7CEFF08B1012400E0A8
:100790000024204638BD014600209F4A106820F002
:1007A000F80040EAC100106070479E490860704739
:1007B00002460020984B586820F47C1042EA01035E
:1007C0001843954B58607047964908667047014634
:1007D0000020914A506820F00300084350607047A1
:1007E0008D48406800F00C007047014600208A4A9E
:1007F000506820F0F0000843506070470146002028
:10080000854A506820F4E060084350607047014614
:100810000020814A506820F4605040EAC1005060D6
:10082000704729B17C4A527A02437B4B5A7204E0EA
:10083000794A527A8243784B5A7270477A490860F3
:10084000704701460020744A506820F44040084335
:10085000506070470021754A11706F4A82F820106D
:10086000012802D0042808D103E001216F4A117049
:1008700004E005216D4A117000E000BF00BF704721
:100880006B49086070476449096A0143624A116212
:100890007047674944390860704730B5002100222D
:1008A000002400235C4D6D6805F00C0121B1042982
:1008B00005D0082923D105E05E4D056022E05D4D9D
:1008C00005601FE0544D6D6805F47012524D6D685F
:1008D00005F48034022505EB92421CB9564D554370
:1008E00005600BE04C4D6D6815F4003F03D0524D90
:1008F0005543056002E04F4D5543056002E04D4D04
:10090000056000BF00BF444D6D6805F0F0010909A6
:100910004A4D6B5C0568DD4045603F4D6D6805F4F0
:10092000E061090A454D6B5C4568DD4085603A4DE4
:100930006D6805F46051C90A404D6B5C4568DD4047
:10094000C560354D6D6805F44041890B3C4D6B5CCD
:10095000C568B5FBF3F5056130BD29B12E4A526972
:1009600002432D4B5A6104E02B4A526982432A4BC1
:100970005A61704729B1284A92690243264B9A610D
:1009800004E0254A92698243234B9A61704729B15A
:10099000214AD2690243204BDA6104E01E4AD2693F
:1009A00082431D4BDA61704729B11B4AD26802436A
:1009B000194BDA6004E0184AD2688243164BDA60B9
:1009C000704729B1144A12690243134B1A6104E0BB
:1009D000114A12698243104B1A6170471449403919
:1009E000086070470F49C86470470B49C871704769
:1009F0000948406A40F080700749486270470146E4
:100A00000020054A92680A4201D0012000E000203F
:100A10007047014988727047001002400000FFF8DB
:100A2000FFFFF6FE00004242D80042422010024082
:100A30008004424200127A0000093D0018000020A4
:100A40002800002010B50446FB48844209D101214A
:100A50008803FFF7A9FF00214FF48040FFF7A4FFB0
:100A600032E0F648844209D101214804FFF7A9FF8A
:100A700000214FF40030FFF7A4FF25E0F048844246
:100A800009D101218804FFF79CFF00214FF4802049
:100A9000FFF797FF18E0EB48844209D10121C80411
:100AA000FFF78FFF00214FF40020FFF78AFF0BE0D4
:100AB000E548844208D101210805FFF782FF0021A3
:100AC0004FF48010FFF77DFF10BD2DE9F04786B091
:100AD00005460E460024A24600BFA1460027B08965
:100AE00000B100BF2F462C8A4CF6FF700440F088FE
:100AF00004432C82AC894EF6F3100440B08831894F
:100B00000843718908430443AC81AC8A4FF6FF4027
:100B10000440B0890443AC8201A8FFF7BEFEC6487A
:100B2000874202D1DDF810A001E0DDF80CA0A88911
:100B300010F4004F08D00AEBCA0000EB0A1031682D
:100B40004900B0FBF1F807E00AEBCA0000EB0A101D
:100B500031688900B0FBF1F86420B8FBF0F00401C3
:100B60002009642101FB1089A88910F4004F08D0E6
:100B7000322000EBC900B0FBF1F000F007000443A5
:100B800008E0322000EB09106421B0FBF1F000F026
:100B90000F0004432C8106B0BDE8F0874FF41651D6
:100BA000016000218180C18001810C2141810021EF
:100BB0008181704710B502460020108A4FF2FF0372
:100BC00018400B884C8823438C882343CC882343CC
:100BD0001843108210BD0021018041808180C180B6
:100BE000704721B1828942F40052828104E08289F7
:100BF0004DF6FF731A4082817047F0B5034600241A
:100C0000002600250020A1F510676A3F00D100BF33
:100C10001846C1F3421401F01F06012707FA06F532
:100C2000012C01D10C3004E0022C01D1103000E085
:100C300014301AB107682F43076002E00768AF431A
:100C40000760F0BD1AB1838A0B43838202E0838A76
:100C50008B4383827047028A4FF6F0731A400282F8
:100C6000028A0A430282704782894FF2FF731A4058
:100C7000828182890A438281704721B1828942F050
:100C80000202828104E082894FF6FD731A4082815C
:100C90007047028A4FF6DF731A400282028A0A43C3
:100CA0000282704721B1028A42F48042028204E04B
:100CB000028A4BF6FF731A4002827047C1F30802A2
:100CC0008280704701468888C0F308007047818998
:100CD00041F0010181817047028BD2B20283028B05
:100CE00042EA012202837047028B02F47F420283B0
:100CF000028B0A430283704721B1828A42F02002AC
:100D0000828204E0828A4FF6DF731A408282704743
:100D100021B1828A42F01002828204E0828A4FF678
:100D2000EF731A408282704721B1828A42F0080232
:100D3000828204E0828A4FF6F7731A4082827047FB
:100D400021B1828942F40042828103E08289C2F3A8
:100D50000E028281704721B1828A42F4006282824F
:100D600004E0828A4FF2FF731A4082827047828ABF
:100D70004FF6FB731A408282828A0A43828270474E
:100D800021B1828A42F00202828204E0828A4FF616
:100D9000FD731A408282704702460020B1F5007F41
:100DA00000D100BF13880B4201D0012000E00020D9
:100DB000704701F40072B2F5007F00D100BFCA4352
:100DC0000280704770B502460024002300250020F1
:100DD000A1F510666A3E00D100BFC1F3421501F0D3
:100DE0001F03012606FA03F3012D02D19689334031
:100DF00006E0022D02D1168A334001E0968A334084
:100E00000C12012606FA04F41688344013B10CB112
:100E1000012000E0002070BD10B500220023A1F5E4
:100E200010646A3C00D100BF0A1201249440A3B2AE
:100E3000DC43048010BD0000003801400044004045
:100E400000480040004C00400050004072B670471F
:100E500062B67047EFF3108072B6704780F3108867
:100E6000704730BF704720BF7047B0FA80F07047BE
:100E700090FAA0F0B0FA80F0704790FAA0F07047B6
:100E8000064C074D06E0E06840F0010394E80700D7
:100E900098471034AC42F6D3FFF74EF914670008B8
:100EA0003467000818484FF0FF010170002080F3FC
:100EB00009881648016881F3088815484FF0805169
:100EC000016062B6FEE772B6EFF3098028B1203800
:100ED00080E8F00F0F490968086000B50E488047A8
:100EE0005DF804EB0D480E490A78027009480D4977
:100EF0000A680260106890E8F00F203080F30988DB
:100F00004EF0040E62B6704722ED00E01C01002096
:100F100004ED00E014010020AD2E0008A200002026
:100F2000A3000020180100200EB543E022A005F028
:100F30007FFA02A800231A4619460090254800F0BF
:100F40009DFD25A005F074FA2AA005F071FA002095
:100F50002D49086006E001F075F82B480068401C38
:100F6000294908602848006828498842F3D328A006
:100F700005F05EFA2BA005F05BFA02AA00211548E5
:100F800000F010FF01212E48FFF7DCFA20B101210B
:100F90002B48FFF7E6FA03E001212948FFF7DFFAC3
:100FA00002A8082100230122CDE9001019461846A5
:100FB00002F076F8BAE700004170705461736B4C30
:100FC00065643120C9EAC7EBBBA5B3E2C1BF0D0A16
:100FD00000000000280100204170705461736B4CC8
:100FE00065643120BBF1C8A1BBA5B3E2C1BF0D0A46
:100FF000000000004C65643120C6F4B6AFC8CECE08
:10100000F1B5F7B6C80D0A000000002080841E006C
:101010004C65643120CDA3D6B9C8CECEF1B5F7B6B4
:10102000C80D0A004170705461736B4C65643120C7
:10103000CACDB7C5BBA5B3E2C1BF0D0A0000000011
:10104000001001400EB51AE00DA005F0F1F90221E3
:101050001148FFF777FA20B102210F48FFF781FA14
:1010600003E002210C48FFF77AFA02A808210023C6
:101070000122CDE900101946184602F011F8E3E705
:101080004170705461736B4C6564322052756E6EA2
:10109000696E670D0A000000001001400EB52EE0D9
:1010A00017A005F0C5F902A800231A4619460090BA
:1010B0001A4800F0E3FC04211948FFF743FA20B175
:1010C00004211748FFF74DFA03E004211448FFF705
:1010D00046FA14A005F0ACF919A005F0A9F902AA86
:1010E00000210E4800F05EFE02A808214FF4FA73BA
:1010F0000022CDE900101146104601F0D1FFCFE7E4
:101100004170705461736B4C65643320C9EAC7EB5E
:10111000BBA5B3E2C1BF0D0A0000000028010020FA
:10112000001001404170705461736B4C6564332052
:10113000BBF1C8A1BBA5B3E2C1BF0D0A000000000E
:101140004170705461736B4C65643320CACDB7C570
:10115000BBA5B3E2C1BF0D0A0000000070B58AB0A4
:10116000064600F0B1F800F0B9F800F0A5F8044622
:1011700031480068B4FBF0F5284602F0F3F800F0BF
:1011800053FA09A801F028F900F016F909AA2BA1D1
:101190002E4800F0FFFB09A8032100220592CDE9AB
:1011A0000621089005204FF400713322284BCDE929
:1011B0000132CDE903100A200023264A26A100901F
:1011C000294801F093F909A8032100220592CDE9ED
:1011D0000621089005204FF400713322234BCDE9FE
:1011E0000310CDE9013200900023214A21A12548B6
:1011F00001F07CF909A8032100220592CDE906211E
:10120000089005204FF4007133221F4BCDE90132C5
:10121000CDE90310042000231C4A1DA100902048A2
:1012200001F064F91FA005F003F909A9002001F0FD
:10123000B3FA0AB070BD0000646500084D757465AE
:101240007820466F722054657374000028010020D6
:101250001C040020290F0008417070205461736B3A
:10126000204C6564310000001C0C0020E40C0020C0
:1012700045100008417070205461736B204C656408
:1012800032000000E4140020AC1500209D1000087E
:10129000417070205461736B204C65643300000012
:1012A000AC1D00200D0A4170705461736B53746162
:1012B0007274210D0A00000000B585B06846FFF782
:1012C000ECFA019805B000BD10B500F05DF900F032
:1012D0008DF905F06BF810BD00BFFEE710B500F00A
:1012E000FBF800F003F800F0F3F810BD70B500262D
:1012F00000201849088018490880184908601849D2
:1013000008601849086018490860184908600024F6
:1013100000BFFFF79FFD064600BF00250BE0002041
:101320001049086000F074F800F08CF80D4800686F
:101330000444681C85B2002DF1D00C4804600020E4
:10134000084908600849086000BF3046FFF786FD7D
:1013500000BF70BD300000203200002034000020AB
:101360003800002040000020440000203C00002005
:1013700001460846044A1268904203D9024A12689C
:10138000801A00E0002070473C00002070B5002566
:1013900000BFFFF75FFD054600BF0648046800BFB9
:1013A0002846FFF75BFD00BF2046FFF7E1FF06463A
:1013B000304670BD4000002070B50025FFF7E6FF05
:1013C000044600BFFFF746FD054600BF0020044964
:1013D000086000BF2846FFF741FD00BF204670BDF2
:1013E0004000002070B5002500BFFFF733FD054623
:1013F00000BF0648046800BF2846FFF72FFD00BF66
:101400002046FFF7B5FF0646304670BD4400002079
:1014100010B509480088401C074908800748008823
:1014200018B900F083F80649086004480088401C99
:101430000249088010BD000030000020320000206A
:101440003400002010B50F480088401E0D49088068
:1014500008460088A0B900F069F80B490860084602
:1014600000680A490968441A09480068A04201D284
:101470000748046007480068A04201D2054804609C
:1014800010BD000032000020380000203400002091
:10149000400000204400002010B5002400BF00BF21
:1014A000FFF7D8FC044600BFFFF7B2FF00BF1021D2
:1014B000064800F0AFF800BFFFF7C4FF00BF2046AA
:1014C000FFF7CCFC00BF00BF10BD0000741E002061
:1014D00010B5FFF7E1FF10BD10B50020024908600C
:1014E00000F00AF810BD00002C000020014908603F
:1014F000704700002C00002010B50A48006840F03A
:101500008070084908600020074948600846006864
:1015100040F001000860FFF7CFFE04462046FFF7C9
:10152000E5FF10BDFCED00E0001000E00148406860
:1015300070470000001000E0704700BFFEE70000A9
:1015400008B501214020FFF715FA0420ADF800008E
:1015500048208DF8030069460148FEF755FF08BD95
:101560000018014008B501214020FFF703FA0820C8
:10157000ADF8000048208DF8030069460148FEF7E9
:1015800043FF08BD0018014010B5FFF7D9FFFFF772
:10159000E9FF10BD08B501211020FFF7EBF901208C
:1015A000ADF8000010208DF8030003208DF8020034
:1015B00069460D48FEF728FF01211020FFF7DAF9F0
:1015C0000220ADF8000069460748FEF71DFF012123
:1015D0001020FFF7CFF90420ADF80000694602485B
:1015E000FEF712FF08BD00000010014010B5FFF724
:1015F000D1FF01210548FEF7B2FF02210348FEF7A3
:10160000AEFF04210148FEF7AAFF10BD0010014003
:1016100000BFFEE730B505460C46224600212846AD
:1016200000F026F830BD00000D480E49016001466B
:10163000416000218160C160016141618161C161DE
:1016400001620163C162416207498163C1634FF472
:10165000D841016441640146044A116070470000AA
:10166000841E002048454150CC1E00204800002028
:101670002DE9F04103460C4617460FB9BDE8F0814D
:1016800003B9FBE70025002202E02D022543521C8E
:10169000042AFAD3384603F0030C1946BCF1000FB4
:1016A00008D0624603E001F8014B401E521C08B10D
:1016B000042AF8D30E4601E020C6001F0428FBD2FE
:1016C000314602E001F8014B401E0028FAD100BF6C
:1016D000D4E770477047000010B50348006810B1A8
:1016E00001480068804710BD5800002070B50446CE
:1016F00000F0C2F80020484908704849087048497D
:1017000008704849086048490860484908704849D5
:1017100008704849087048490860484908604849C5
:10172000086048490870484800680A21B0FBF1F099
:10173000464908604648006858B14648056845B1C2
:101740004348066803E0761E002028602D1D002E09
:10175000F9D10020404908604049086040490860CC
:1017600040490860404908604049086040490860B5
:101770004049087002F0C8FD02F0C6FE204601F0A4
:10178000E3FE208800B170BD204602F0FDFA2088FB
:1017900000B1F8E7204602F003FB208800B1F2E731
:1017A000204602F0FFFB208800B1ECE7204602F063
:1017B000DBFD208800B1E6E7204603F02BF8208807
:1017C00000B1E0E7204603F095FB208800B1DAE79E
:1017D000204602F045FA208800B1D4E7204602F006
:1017E0004FF8208800B1CEE7204604F0EBFB2088BC
:1017F00000B1C8E7204603F0C1FA208800B1C2E773
:10180000204604F03BFC208800B1BCE701F0C2FD9B
:10181000FFF760FF00BFB6E76C00002074000020F7
:10182000BC0000201401002018010020A2000020AC
:10183000A3000020A4000020B0000020B40000207D
:10184000B8000020C400002064650008C00000202B
:1018500034650008306500084C000020500000206E
:1018600054000020580000205C0000206000002090
:1018700064000020F20000200A4A1168002002E003
:10188000002204C1401C084A12689042F8D3054A5D
:101890001268054B1B6802EB8302121F034B1A6090
:1018A0007047000030650008346500081C01002006
:1018B00010B500242E480078012800D010BD00BFCC
:1018C000FFF7C8FA044600BF2A48007828B900BFCD
:1018D0002046FFF7C3FA00BFF0E726480078401E15
:1018E0002449087008460078002805DD00BF20461E
:1018F000FFF7B4FA00BFE1E71F480078002805DDD4
:1019000000BF2046FFF7AAFA00BFD7E702F0E8FCC5
:101910001A4908700846007800EB4000184951F851
:10192000200018490860084600681749096888427D
:1019300005D100BF2046FFF791FA00BFBEE711486E
:101940000068D0F89000401C0E490968C1F890006A
:101950000E480068401C0D4908604FF080500C494B
:10196000086000BF2046FFF779FA00BF00BFA5E777
:10197000740000206C000020BC000020A3000020A8
:10198000F8A000201801002014010020E800002029
:1019900004ED00E02DE9F04104460E46154600270F
:1019A00032480078002804DD42F6E1602880BDE876
:1019B000F0811CB945F6C3502880F8E700BF00BF8E
:1019C00000BFFFF747FA074600BFFFF721FD00BF42
:1019D00027480078401C26490870084600780128EE
:1019E00001D102F075FE00BFFFF72CFD00BF3846A5
:1019F000FFF734FA00BF00BF00BF1E4820606660DA
:101A00000020206284F82500A062202084F82400B1
:101A100004F1080002F07DFB204602F0ABFA164804
:101A20000088401C1449088000BF00BF00BFFFF7BA
:101A300011FA074600BFFFF7EBFC00BF0C48007827
:101A4000401E0B4908700846007808B902F04EFEA7
:101A500000BFFFF7F7FC00BF3846FFF7FFF900BFF4
:101A600000BF00BF0020288000BFA0E76C0000205E
:101A7000BC0000204D555458A00000202DE9F0472F
:101A800088B00546894690461C46109E4FF0000AD5
:101A9000BF480078002805DD46F2AE10308008B05F
:101AA000BDE8F0871DB945F6C3503080F7E7B8F1BF
:101AB000000F03D0B8F5004F02D100E000BF03E0F3
:101AC00045F625603080EAE700BFB24928688842C1
:101AD00003D045F6C4503080E1E70CB1002020600F
:101AE00000BF00BFFFF7B6F9824600BFFFF790FCCA
:101AF00000BF95F82500D0B9A74800682862A6481D
:101B0000006890F8370085F82400012085F825004A
:101B10000CB1A86A206000BFFFF794FC00BF5046DC
:101B2000FFF79CF900BF00BF00203080B7E79A495B
:101B3000286A0968884214D195F82500401C85F868
:101B400025000CB1A86A206000BFFFF77BFC00BF36
:101B50005046FFF783F900BF00BF45F28270308026
:101B60009DE708F4004060B100BFFFF76BFC00BFC9
:101B70005046FFF773F900BF00BF46F2B010308047
:101B80008DE78648007800280CDD00BFFFF75AFC7F
:101B900000BF5046FFF762F900BF00BF46F6635032
:101BA00030807CE700BF7D480078401C7B4908708E
:101BB00008460078012801D102F08AFD00BFFFF736
:101BC00041FC00BF5046FFF749F900BF00BF00BF0E
:101BD0002F6A97F837007049096891F837108842E2
:101BE0006ADD97F8360008282AD2DFE800F00415ED
:101BF0001E1F17162021384602F00EFD66480068A9
:101C000090F8370087F8370097F8370002F088FB24
:101C1000384602F0A1FC4EE000BF00BF5E480068FD
:101C200090F8370087F8370045E000BF00BF00BFDD
:101C30005948006890F83710384602F047FA3AE001
:101C400000BF00BF00BFFFF705F9824600BFFFF7E6
:101C5000DFFB00BF51480078401E5049087008461D
:101C60000078D0B902F042FD4D48008800280BDD15
:101C700000BFFFF7E7FB00BF5046FFF7EFF800BFDC
:101C800000BF02F0F7FC11E000BFFFF7DBFB00BF75
:101C90005046FFF7E3F800BF08E000BFFFF7D2FBB4
:101CA00000BF5046FFF7DAF800BF00BF00BF46F69E
:101CB0002D603080F3E600BF4B460422294668467B
:101CC00002F07CF900BF00BF00BFFFF7C3F88246F7
:101CD00000BFFFF79DFB00BF30480078401E2F4932
:101CE00008700846007808B902F000FD00BFFFF751
:101CF000A9FB00BF5046FFF7B1F800BF00BF00BF0F
:101D000000F0A0F900BF00BFFFF7A4F8824600BFB3
:101D1000FFF77EFB00BF2048006890F8350030B127
:101D200001280CD002281AD0032821D110E01CB1C0
:101D300019480068006C2060002030801CE01CB155
:101D400015480068006C206046F2A910308013E04E
:101D50000CB10020206047F2D92030800CE01CB18B
:101D60000D480068006C206045F6C250308003E0EA
:101D700046F62E60308000BF00BF00BFFFF762FB59
:101D800000BF5046FFF76AF800BF00BF00BF86E6FD
:101D90006C0000204D55545814010020BC00002058
:101DA000800000202DE9F84F0446884615464FF084
:101DB000000A9E480078002804DD46F20E202880A4
:101DC000BDE8F88F1CB945F6C3502880F8E7B8F194
:101DD000000F03D0B8F5004F02D100E000BF03E0D0
:101DE00045F625602880EBE700BF914920688842CE
:101DF00003D045F6C4502880E2E700BF00BFFFF7DC
:101E000029F8824600BFFFF703FB00BF8949206A1B
:101E1000096888420CD000BFFFF714FB00BF504692
:101E2000FFF71CF800BF00BF45F281702880C7E7AC
:101E300000BF81480078401C7F4908700846007840
:101E4000012801D102F044FC00BFFFF7FBFA00BFFC
:101E50005046FFF703F800BF00BF00BFFFF766FB67
:101E60000746A76294F82500401E84F8250094F8E0
:101E7000250000283ADD00BF00BF00BFFEF7EAFFE3
:101E8000824600BFFFF7C4FA00BF6B480078401ECF
:101E90006949087008460078D0B902F027FC674805
:101EA000008800280BDD00BFFFF7CCFA00BF5046CA
:101EB000FEF7D4FF00BF00BF02F0DCFB11E000BF63
:101EC000FFF7C0FA00BF5046FEF7C8FF00BF08E0AA
:101ED00000BFFFF7B7FA00BF5046FEF7BFFF00BFD5
:101EE00000BF00BF45F28370288069E704F108094C
:101EF000B9F8080080BB0020206284F8250000BFEC
:101F000000BF00BFFEF7A6FF824600BFFFF780FAC2
:101F100000BF49480078401E4749087008460078CD
:101F2000D8B902F0E3FB4548008800280BDD00BF6C
:101F3000FFF788FA00BF5046FEF790FF00BF00BFD2
:101F400002F098FB12E000BFFFF77CFA00BF50469A
:101F5000FEF784FF00BF09E00CE000BFFFF772FA54
:101F600000BF5046FEF77AFF00BF00BF00BF002051
:101F7000288025E72F48006890F8370094F824104F
:101F8000884219D02B48006802F046FB94F82400E0
:101F90002849096881F837002649096891F837000F
:101FA00002F0BEF92348006802F0F6FA2148006802
:101FB00090F8370022490870D9F800008668266238
:101FC00096F8370084F82400012084F825000023C7
:101FD0001A4631462046009702F00CF900BF00BFB8
:101FE00000BFFEF737FF824600BFFFF711FA00BFC0
:101FF00011480078401E104908700846007808B95A
:1020000002F074FB00BFFFF71DFA00BF5046FEF759
:1020100025FF00BF00BF00BF08F4004008B900F072
:1020200011F80020288000BFCAE600006C000020E4
:102030004D55545814010020BC00002080000020A1
:10204000A200002010B5002420480078002800DD00
:1020500010BD1F480078002800DDF9E700BFFEF73B
:10206000F9FE044600BF02F03BF91A490870084621
:10207000007800EB4000184951F82000174908602B
:102080000846006816490968884205D100BF204605
:10209000FEF7E4FE00BFDBE710480068D0F89000D0
:1020A000401C0E490968C1F890000E480068401CA9
:1020B0000C4908604FF080500B49086000BF204673
:1020C000FEF7CCFE00BF00BFC2E700006C0000209E
:1020D000BC000020A3000020F8A000201801002070
:1020E00014010020E800002004ED00E070B5044673
:1020F00000251A480078002803DD46F6625020804B
:1021000070BD17480078012803D045F6896020800B
:10211000F6E714480078FA2803DB45F2092020800E
:10212000EEE700BF00BFFEF795FE054600BFFFF7D4
:102130006FF900BF0B480078401C0A49087002F094
:10214000C7FA00BFFFF77EF900BF2846FEF786FEFC
:1021500000BF00BF0020208000BFD1E76C0000203E
:1021600074000020BC00002070B504460025234800
:102170000078002803DD46F66550208070BD2048B9
:102180000078012803D045F689602080F6E71D48D5
:10219000007818B946F664502080EFE700BF00BF12
:1021A000FEF758FE054600BFFFF732F900BF15489D
:1021B0000078401E134908700846007800280CDD9E
:1021C00000BFFFF73FF900BF2846FEF747FE00BFFC
:1021D00000BF46F663502080D0E702F087FA00BFC8
:1021E000FFF730F900BF2846FEF738FE00BF00BFFA
:1021F000FFF728FF0020208000BFBFE76C00002011
:1022000074000020BC00002010B50446124800787D
:10221000E8B902F065F811490870084600781049DD
:1022200008700E48007800EB40000E4951F820007D
:102230000D490860084600680C49086001200649FD
:102240000870FEF72FFE43F69920208002E045F645
:102250008A60208010BD000074000020A3000020D0
:10226000A2000020F8A00020180100201401002086
:102270002DE9F04107464FF0000800BF00BFFEF710
:10228000E9FD804600BFFFF7C3F800BF00204749C3
:10229000086047490880474908804749086047491E
:1022A000086047490860474908604749086047494E
:1022B000088100BFFFF7C6F800BF4046FEF7CEFD1D
:1022C00000BF00BF00BF00BFFEF7C4FD804600BFD7
:1022D000FFF79EF800BF3E48046800BFFFF7B2F862
:1022E00000BF4046FEF7BAFD00BF00BF26E000BFBA
:1022F00000BFFEF7AFFD804600BFFFF789F800BFC3
:1023000000207834E063206420602063A061A08214
:10231000E0826062A062FFF709F92062783C04F174
:1023200064060020B081D4F8C04000BFFFF78AF8EF
:1023300000BF4046FEF792FD00BF00BF002CD6D183
:1023400000BF00BFFEF786FD804600BFFFF760F8C4
:1023500000BF2048056800BFFFF774F800BF404683
:10236000FEF77CFD00BF00BF16E000BF00BFFEF718
:1023700071FD804600BFFFF74BF800BF05F1200656
:102380000020B081AD6900BFFFF75CF800BF404698
:10239000FEF764FD00BF00BF002DE6D103F0DAFCBC
:1023A00003F068FF00203880BDE8F081880000203D
:1023B00082000020D2000020E4000020F80000206D
:1023C0000401002070000020B4000020ECA00020D8
:1023D000EC000020A8000020F8B50446002669465D
:1023E000364800F033FDBDF8000018B1BDF800001C
:1023F0002080F8BD6A460021022000F0A9FDBDF84A
:10240000000018B1BDF800002080F2E700BF00BF57
:10241000FEF720FD064600BFFEF7FAFF00BF0020D2
:102420002749086000BFFFF70DF800BF3046FEF7F0
:1024300015FD00BF00BF0025224800682249096839
:10244000884205D91F4800681F490968B0FBF1F5AB
:1024500025B91C4800680A21B0FBF1F56A46002145
:10246000284600F075FD6946144800F0A5FABDF84D
:10247000000018B1BDF800002080BAE700BF00BF1F
:10248000FEF7E8FC064600BFFEF7C2FF00BF0020D3
:102490000E4908600A4800680D49086001200D498E
:1024A000087000BFFEF7CEFF00BF3046FEF7D6FC37
:1024B00000BF00BF0020208000BF9AE708A40020D2
:1024C000D4000020646500084C650008E40000208A
:1024D000D8000020E000002010B50348006810B1CB
:1024E00001480068804710BD5C0000202DE9FF4FC7
:1024F00087B004469046DDE91BA5DDE91496179FD9
:102500000020039095480078002805DD47F24A1026
:1025100028800BB0BDE8F08F1CB947F2AD102880C1
:10252000F7E7B8F1000F03D147F24F102880F0E72A
:102530001EB946F62F602880EBE78948006887427D
:1025400003D246F630602880E3E71698B84203D3FA
:1025500046F631602880DCE7B9F1200F03D346F25C
:1025600073202880D5E7B9F1000F06D17D48844259
:1025700003D046F273202880CBE7B9F11F0F06D1B4
:102580007948844203D046F273202880C1E7204670
:1025900002F0C0FC002028800AF0010090B10AF08F
:1025A000020078B105960020069008E00021059809
:1025B00001600598001D05900698401C069006983D
:1025C000B842F3D3169806EB80000490CDE9007A68
:1025D00032464046049B0A9900F0D8FB0590C4F8A7
:1025E00028800A98E0620898206284F8379005985D
:1025F00020600498A06019986065199818B95B4824
:102600000068A06501E01998A0651A98606066628C
:10261000A763A4F83CA04FF0000B08E0002104F1F0
:102620007C0040F82B100BF1010000F0FF0BBBF118
:10263000000FF3D004F16400189901F011FC20465A
:1026400000F09EF800BF00BF00BFFEF703FC039040
:1026500000BFFEF7DDFE00BF45480078401C44493E
:10266000087008460078012801D102F031F800BF57
:10267000FEF7E8FE00BF0398FEF7F0FB00BF00BFC7
:1026800000BF94F8370001F04BFE204601F084FFB4
:10269000204602F0F5FB37480088401C3549088089
:1026A00035480078012837D000BF00BF00BFFEF7D3
:1026B000D1FB039000BFFEF7ABFE00BF2C480078B3
:1026C000401E2B49087008460078D0B902F00EF879
:1026D0002A48008800280BDD00BFFEF7B3FE00BFCC
:1026E0000398FEF7BBFB00BF00BF01F0C3FF11E082
:1026F00000BFFEF7A7FE00BF0398FEF7AFFB00BFC9
:1027000008E000BFFEF79EFE00BF0398FEF7A6FBA1
:1027100000BF00BF00BFFCE600BF00BF00BFFEF768
:1027200099FB039000BFFEF773FE00BF10480078CE
:10273000401E0F4908700846007808B901F0D6FF1E
:1027400000BFFEF77FFE00BF0398FEF787FB00BFC8
:1027500000BF00BFFFF776FC00BFDAE66C00002088
:102760006065000824A000205C9F0020C0000020BD
:10277000BC000020F0000020740000208000002039
:1027800010B504460348006818B12046014909689D
:10279000884710BD4C00002070B504460D46002649
:1027A00078480078002803DD47F24E10288070BD7D
:1027B0007548844203D147F24C102880F7E77348EC
:1027C000844203D147F24D102880F0E79CB900BF46
:1027D00000BFFEF73FFB064600BFFEF719FE00BF35
:1027E0006B48046800BFFEF72DFE00BF3046FEF7C1
:1027F00035FB00BF00BF00BF00BF00BFFEF72AFBD4
:10280000064600BFFEF704FE00BF62480078401C89
:102810006049087008460078012801D101F058FF8E
:1028200000BFFEF70FFE00BF3046FEF717FB00BFEC
:1028300000BF00BF94F8360008282DD2DFE800F072
:1028400004090E10080A0F11204601F0E5FE5EE0B3
:102850005DE000BF204603F061FA58E000BF00BF12
:1028600000BF204603F05AFA94F83400082810D22A
:10287000DFE800F004070508090A0B0600BF00BFE7
:1028800008E000BF00BF00BF00BF204601F079FC98
:1028900000E000BF00BF3AE000BF00BF00BFFEF78E
:1028A000D9FA064600BFFEF7B3FD00BF39480078ED
:1028B000401E3849087008460078D0B901F016FF6C
:1028C0003548008800280BDD00BFFEF7BBFD00BFC8
:1028D0003046FEF7C3FA00BF00BF01F0CBFE11E0A7
:1028E00000BFFEF7AFFD00BF3046FEF7B7FA00BFEE
:1028F00008E000BFFEF7A6FD00BF3046FEF7AEFAC7
:1029000000BF00BF00BF46F62D6028804FE700BF24
:1029100004F1640001F082FA204600F041F82046FC
:1029200002F0C6FA1D480088401E1C490880204657
:1029300002F0F0FAFF2084F8360000BF00BF00BFAD
:10294000FEF788FA064600BFFEF762FD00BF114899
:102950000078401E0F4908700846007808B901F059
:10296000C5FE00BFFEF76EFD00BF3046FEF776FAEB
:1029700000BF00BF00BF00202880FFF763FB00BF3F
:1029800015E700006C0000205C9F002024A00020C0
:1029900014010020BC00002080000020F000002076
:1029A00010B504460348006818B12046014909687B
:1029B000884710BD500000207FB504460D46002614
:1029C00000BF00BFFEF746FA064600BFFEF720FD37
:1029D00000BF1CB11748006884420CD100BFFEF74D
:1029E00031FD00BF3046FEF739FA00BF00BF47F2A5
:1029F000571028807FBD00BFFEF724FD00BF304682
:102A0000FEF72CFA00BF00BF0B48007800280BDD52
:102A1000002000900190034602462146CDE90205C0
:102A2000064800F065FFE5E72946204602F01EFC57
:102A300000BFDFE7140100206C0000205452455312
:102A400010B504460348006818B1204601490968DA
:102A5000884710BD540000202DE9F04780460E46FF
:102A600014461D464FF000098C480078002805DD0B
:102A700046F2AE1028800020BDE8F0871EB1B6F502
:102A8000004F02D100E000BF04E045F62560288039
:102A90000020F1E700BF0CB10020206000BF00BFA4
:102AA000FEF7D8F9814600BFFEF7B2FC00BF7C48B4
:102AB0000068406CB8B37A480068406C401E7849A2
:102AC0000968486476480068476C1CB1744800681F
:102AD000006C2060FEF72AFD71490968096C401AF4
:102AE0006F490968C1F8A4006D480068D0F8A800D3
:102AF0006B490968D1F8A410884207D26848006879
:102B0000D0F8A40066490968C1F8A80000BFFEF724
:102B100099FC00BF4846FEF7A1F900BF00BF0020A6
:102B200028803846A8E7FFE706F4004068B100BFF8
:102B3000FEF788FC00BF4846FEF790F900BF00BFD3
:102B400046F2B0102880002096E75648007800280A
:102B50000DDD00BFFEF776FC00BF4846FEF77EF9AC
:102B600000BF00BF46F663502880002084E700BF06
:102B70004C480078401C4B490870084600780128F2
:102B800001D101F0A5FD00BFFEF75CFC00BF484687
:102B9000FEF764F900BF00BF00BF434607220021D3
:102BA000084601F00BFA00BF00BF00BFFEF752F964
:102BB000814600BFFEF72CFC00BF3A480078401E5B
:102BC000384908700846007808B901F08FFD00BF49
:102BD000FEF738FC00BF4846FEF740F900BF00BFD3
:102BE00000BFFFF72FFA00BF00BFFEF733F98146A1
:102BF00000BFFEF70DFC00BF2948006890F83500C3
:102C000020B1012826D0032834D12CE0FCB124487F
:102C10000068006C2060FEF789FC21490968096C96
:102C2000401A1F490968C1F8A4001D480068D0F87F
:102C3000A8001B490968D1F8A410884207D2184897
:102C40000068D0F8A40016490968C1F8A80000205F
:102C5000288013E01CB112480068006C206046F226
:102C6000A91028800AE00CB10020206047F2D9208A
:102C7000288003E046F62E60288000BF00BF084889
:102C80000068476C00BFFEF7DDFB00BF4846FEF75B
:102C9000E5F800BF00BF3846EEE600006C000020FB
:102CA00014010020BC0000202DE9F04705460E4627
:102CB00017461C464FF0000A32480078002804DD11
:102CC00047F259102080BDE8F0871EB946F2D520A2
:102CD0002080F8E71FB946F2D5202080F3E700BF37
:102CE00000BFFEF7B7F8824600BFFEF791FB00BFBA
:102CF0000DB925480568286878B900BFFEF7A2FB22
:102D000000BF5046FEF7AAF800BF00BF00203060A9
:102D1000386047F252102080D5E795F83C0000F06B
:102D2000010078B900BFFEF78DFB00BF5046FEF7EB
:102D300095F800BF00BF00203060386047F25410A3
:102D40002080C0E700BFFEF77DFB00BF5046FEF7C6
:102D500085F800BF00BF4FF00008D5F8249003E0CD
:102D600009F1040908F10108D9F800000028F7D09A
:102D7000C6F80080A86BA0EB080038600020208017
:102D800000BFA0E76C00002014010020F0B504464D
:102D9000DDE9055602EB85004FF0807C071F3846C1
:102DA000C7F800C0071F38463C60DFF89CC0071F0B
:102DB0003846C7F800C04FF0123C071F3846C7F826
:102DC00000C04FF0033C071F3846C7F800C04FF063
:102DD000023C071F3846C7F800C0071F38463B6053
:102DE000071F384639604FF0113C071F3846C7F8B7
:102DF00000C04FF0103C071F3846C7F800C04FF026
:102E0000093C071F3846C7F800C04FF0083C071FB1
:102E10003846C7F800C04FF0073C071F3846C7F8D0
:102E200000C04FF0063C071F3846C7F800C04FF0FF
:102E3000053C071F3846C7F800C04FF0043C071F89
:102E40003846C7F800C0F0BDE95300087FB5054615
:102E50000C461248854203D147F25B1020807FBDAB
:102E60000F48854203D147F25C102080F7E70D48F8
:102E7000007800280BDD00200090019003460246F8
:102E80002946CDE90204084800F032FDE7E7214673
:102E9000284602F089FD00BFE1E700005C9F0020AA
:102EA00024A000206C0000205453555370B52448D2
:102EB000006810B1224800688047FEF737FB0446DF
:102EC0002048006820490968884215D01D480068DC
:102ED000D0F89800201A1B490968C1F894001948D5
:102EE0000068D0F89C0017490968D1F8941008448C
:102EF00014490968C1F89C0013480068C0F898405C
:102F0000FEF75AFA05460F480068D0F8B400A84208
:102F100003D20C480068C0F8B4500A480068D0F8E2
:102F2000B8000A490968884205D20848006805497E
:102F30000968C1F8B80000200449086070BD0000AD
:102F4000600000201401002018010020B8000020BB
:102F50002DE9F04105460E46144600274D480078FD
:102F6000002804DD47F275202080BDE8F0814A4842
:102F70000078002803DD46F663502080F5E736B17F
:102F8000022E05D0042E0AD0082E09D101E000BF80
:102F900000BF1DB947F27E202080E6E704E003E091
:102FA00045F625602080E0E700BF00BF00BF00BFFE
:102FB000FDF750FF074600BFFEF72AFA00BF36486C
:102FC0000078401C3449087008460078012801D177
:102FD00001F07EFB00BFFEF735FA00BF3846FDF773
:102FE0003DFF00BF00BF00BF01202C49096881F8E8
:102FF00036002346324629462848006802F0B0FDD4
:103000002088F0B100BF00BF00BFFDF723FF0746D7
:1030100000BFFEF7FDF900BF1F480078401E1E49A3
:1030200008700846007808B901F060FB00BFFEF7A1
:1030300009FA00BF3846FDF711FF00BF00BF00BF0F
:1030400093E71648006801F0E7FA00BF00BF00BF31
:10305000FDF700FF074600BFFEF7DAF900BF0E4894
:103060000078401E0C4908700846007808B901F045
:103070003DFB00BFFEF7E6F900BF3846FDF7EEFE68
:1030800000BF00BF00BFFEF7DDFF0020208000BFB3
:103090006BE700006C000020BC0000201401002041
:1030A0002DE9FF5F05460E4617469846DDE90EA45A
:1030B0000020009081480078002804DD47F2752048
:1030C0002080BDE8FF9F7E480078002803DD46F69B
:1030D00063502080F5E70AF00E0BBBF1000F09D01A
:1030E000BBF1020F07D0BBF1040F10D0BBF1080FEA
:1030F0000ED101E000BF00BFB8F1000F06D12FB91B
:1031000026B91DB947F27E202080DAE704E003E00B
:1031100045F625602080D4E700BF2AF01E0008B1E4
:10312000012000E0002003900398012803D145F618
:1031300025602080C5E7CAF3001002900298C0B94C
:10314000B8F57A7F03D347F27B202080B9E73B2F85
:1031500003DD47F27A202080B3E73B2E03DD47F200
:1031600079202080ADE7632D12DD47F278202080A2
:10317000A7E742F20F70864203DD47F279202080F4
:103180009FE7B5F57A7F03DB47F27820208098E748
:103190004C48D0F800904FF4FA70B0FBF9F040447E
:1031A00000FB09F04FF47A71B0FBF1F14FF461606C
:1031B0006843C6EB061200EB8200384400FB09109E
:1031C00001900198002873D000BF00BF00BFFDF739
:1031D00041FE009000BFFEF71BF900BF38480078A1
:1031E000401C3749087008460078012801D101F0D9
:1031F0006FFA00BFFEF726F900BF0098FDF72EFE1C
:1032000000BF00BF00BF01202F49096881F83600C8
:1032100023465A462C480199006802F0A1FC2088F8
:10322000F0B100BF00BF00BFFDF714FE009000BF6B
:10323000FEF7EEF800BF22480078401E20490870D3
:103240000846007808B901F051FA00BFFEF7FAF815
:1032500000BF0098FDF702FE00BF00BF00BF30E7CF
:103260001948006801F0D8F900BF00BF00BFFDF7A2
:10327000F1FD009000BFFEF7CBF800BF10480078CA
:10328000401E0F4908700846007808B901F02EFA70
:1032900000BFFEF7D7F800BF0098FDF7DFFD00BFC5
:1032A00000BF00BFFEF7CEFE0020208003E0FFE756
:1032B00047F27E20208000BF03E700006C00002062
:1032C000BC000020646500081401002010B586B021
:1032D00000F01EF8FEF72AF9044605A80021009127
:1032E000CDE9011403900748007800EB4000064A3E
:1032F00002EB800100231A46044800F0F9FA06B0F8
:1033000010BD0000A2000020F8A000205449434B4B
:1033100010B50348006810B101480068804710BD2F
:103320006400002010B5002400BF00BFFDF792FD2F
:10333000044600BFFEF76CF800BF09480078401C47
:103340000749087000BFFEF77DF800BF2046FDF773
:1033500085FD00BF00BFFFF7B9FFFEF7A9FA10BD5A
:103360006C00002001464A1E4FF0E0235A61084AD3
:10337000106820F07F4000BF10601A46126942F0CA
:1033800005021A611A46126942F002021A61704778
:1033900020ED00E0254A2649264A274A2749284A9F
:1033A0002848294A294A2A4A2A4A2B482B482C4885
:1033B0002C4A2D482D4A2E482E4A2F482F48304857
:1033C0003048314A314A324A3248334A334A344823
:1033D000344835483548364836483748374A384AF9
:1033E000384A394A39483A483A483B4A3B4A3C4AC3
:1033F0003C483D483D483E493E483F4A3F4A404A96
:10340000404A414A414A424A4248434A434A444860
:103410004448454A454A4648464A474A4748484834
:10342000484800BF00BF00BF70470000A865000803
:1034300010670008A9650008AA650008AC650008C7
:10344000B0650008B4650008B1650008DC650008D7
:10345000DD650008DE650008E0650008E26500083B
:10346000E4650008E6650008E865000808660008ED
:103470000A6600080C6600080E6600081066000860
:1034800012660008146600084066000841660008DD
:103490004266000844660008466600084766000861
:1034A000486600084A6600084C6600084E66000838
:1034B00050660008526600085466000884660008DA
:1034C000856600088666000887660008886600082A
:1034D0008A6600088C660008B4660008B5660008B5
:1034E000B6660008B7660008B8660008BA66000845
:1034F000BC660008C0660008C1660008C266000815
:10350000C3660008C4660008C5660008C6660008F1
:10351000C7660008C8660008CA660008CB660008CF
:10352000CC660008CE660008D0660008D1660008A8
:10353000D466000808670008096700080A670008E1
:103540000C6700080E6700080021034A1160034A57
:1035500011800180704700008C0000209000002046
:103560002DE9F04F85B00446894692469B46DDF82A
:1035700038800020009000BF00BFFDF76BFC00907A
:1035800000BFFDF745FF00BFBAF1000F0AD0BAF146
:10359000010F0DD0BAF5004F05D06FF40040504434
:1035A00060B906E000BF206A40EA0900206216E028
:1035B00000BF206A20EA0900206210E000BFFDF78A
:1035C00041FF00BF0098FDF749FC00BF00BF45F672
:1035D0002560A8F80000002005B0BDE8F08F00BF0E
:1035E000C4F824B004F1080001900198008968B97A
:1035F00000BFFDF727FF00BF0098FDF72FFC00BFBD
:1036000000BF0020A8F80000206AE5E700BF71486D
:103610000078401C6F49087008460078012801D1E5
:1036200001F056F800BFFDF70DFF00BF0098FDF751
:1036300015FC00BF00BF00BF01980768BD6889E0A6
:103640007868029095F8880000F00F0003900398C6
:10365000012821D002282ED0042802D0082836D1F3
:103660000EE0206AD5F8801000EA0106D5F8800047
:10367000B04204D15A463146284600F0AFF863E024
:10368000206AD5F8801000EA010626B15A46314674
:10369000284600F0A3F857E0D5F88000216A20EA18
:1036A0000106D5F88000B04204D15A46314628467A
:1036B00000F094F848E0D5F88000216A20EA01067D
:1036C00026B15A463146284600F088F83CE000BF53
:1036D00000BF00BFFDF7BEFB009000BFFDF798FEE6
:1036E00000BF3C480078401E3A4908700846007800
:1036F000D0B900F0FBFF3848008800280BDD00BF80
:10370000FDF7A0FE00BF0098FDF7A8FB00BF00BFBB
:1037100000F0B0FF11E000BFFDF794FE00BF00987D
:10372000FDF79CFB00BF08E000BFFDF78BFE00BF6C
:103730000098FDF793FB00BF00BF00BF43F6FF20DA
:10374000A8F80000002047E700BF029F0FB1BD6846
:1037500000E00025002D7FF473AF00BF00BF00BF65
:10376000FDF778FB009000BFFDF752FE00BF19483F
:103770000078401E174908700846007808B900F024
:10378000B5FF00BFFDF75EFE00BF0098FDF766FBCA
:1037900000BF00BF00BF0AF4004008B9FEF752FCAA
:1037A00000BF00BFFDF756FB009000BFFDF730FEE5
:1037B00000BF206A049000BFFDF744FE00BF0098E0
:1037C000FDF74CFB00BF00BF0020A8F800000498E4
:1037D00002E70000BC0000208000002070B5044615
:1037E0000E46154634342665002060702070E56072
:1037F000A078343C082816D2DFE800F00405080958
:103800000706101100BF00BF00BF0DE000BF20463B
:1038100001F01EFD002084F8360005E000BF042002
:1038200084F8360000E000BF00BF204600F0A9FC8D
:1038300070BD0000002400BF1DE000BF00BFFDF709
:1038400009FB044600BFFDF7E3FD00BF0A4800681E
:10385000401C0949086009480068401C0749086085
:1038600000BFFDF7EFFD00BF2046FDF7F7FA00BFF0
:1038700000BFFDF731FFE0E768000020D400002022
:1038800010B58AB0044600200E4908600B200021C4
:103890000591CDE90704069108460B4909680B4AD2
:1038A00012680B4B1B68CDE90132CDE903101F20D4
:1038B0000023084A08A100900C48FEF717FE0AB042
:1038C00010BD0000680000200C65000808650008B5
:1038D000046500083538000875432F4F532D4949BA
:1038E000492049646C65205461736B005C9F002023
:1038F0002DE9F84F04460D4616461F46DDE90BAB91
:10390000DDF82890DDF834800020009000BF00BF73
:10391000FDF7A0FA009000BFFDF77AFD00BF2C482C
:1039200000882C49098888423EDA29480088401CD2
:1039300027490880284800880988884203DA2448F3
:1039400000882549088025480068046023480068ED
:10395000856022480068C6602048006807821F48CA
:103960000068C0F814901D480068A0F818A01B4813
:103970000068C0F81CB01948006840681749086022
:10398000012017490881174808604860002000F0AE
:10399000C7FC1548007818B113480078134908701F
:1039A0000020A8F8000008E011480088401C1049D9
:1039B000088044F25360A8F8000000BFFDF742FD04
:1039C00000BF0098FDF74AFA00BF00BFBDE8F88FBE
:1039D0008000002018650008820000207800002088
:1039E000F8A0002024A00020A2000020A4000020B5
:1039F000840000203EB5594800680068584A811A82
:103A0000904279D00FDC5749084400283ED05649EF
:103A10000844A8B155490844002860D054490844D6
:103A200000286AD13FE053480844002850D052494A
:103A30000844002862D0514908440028F1D110E020
:103A400002A8464D00902D68EB69444D2D682A8BE5
:103A5000424D2D686969414D2D68A868FFF780FDCA
:103A60007AE002A93D480068C0693C4DCDE90001FB
:103A70002D682B8B394D2D682A8A384D2D68E968C1
:103A8000364D2D68A86800F07BFC65E0334B1B6861
:103A9000DA69324B1B68198B304B1B68986802AB94
:103AA00000F0C4FE58E002A92C480068C0692B4D04
:103AB000CDE900012D682B8B284D2D682A8A274DD2
:103AC0002D68E968254D2D68A86801F08BFA43E060
:103AD00022490968886802A901F0C8FB3CE01F4B35
:103AE0001B68DA691D4B1B68198B1C4B1B68986897
:103AF00002AB01F085FC2FE007E02CE017490968D4
:103B0000886802A901F050FF26E01D49097801EB01
:103B100041011C4A02EB810000F006FE0F480068DC
:103B200002AB0021C269184801F06AFC174800681E
:103B3000401E164908600846006858B914480068D5
:103B40000860FDF7F3FC044602AB22460021114851
:103B500001F056FC00E000BF00BF3EBD7C0000202D
:103B60005449434BADBAB2BE0DF90BFAF2F8F7FF68
:103B70000006F6FF00F7FDF700FFEFFF03FE0FFE64
:103B8000A4000020F8A0002040A300201001002085
:103B90000C01002008A40020002700BF56E00026EA
:103BA00052E000BF00BFFDF755F9074600BFFDF723
:103BB0002FFC00BF2648008898B9002025490881BD
:103BC0000860486000F0BEFB00BFFDF73BFC00BF93
:103BD0003846FDF743F900BF00BFFEF733FA012670
:103BE00032E000BFFDF72EFC00BF3846FDF736F986
:103BF00000BF00BFFDF79AFC0546FFF7FBFEFDF78F
:103C000095FC441B14480068A04201D2124804608D
:103C100000BF00BFFDF71EF9074600BFFDF7F8FB28
:103C200000BF0E48006840680C49086008480088DA
:103C3000401E0749088000BFFDF704FC00BF38465E
:103C4000FDF70CF900BF00BF002EAAD0A7E70000C7
:103C500080000020F8A00020880000207C000020C8
:103C6000F0B589B005460020314908803148006828
:103C700020B944F25260288009B0F0BD2E48008877
:103C8000022803DA44F254602880F5E700202B492B
:103C90000860284804682646203600270CE028489B
:103CA00020600020A060E060208260612083666068
:103CB00020342036781C87B21F4800888742EEDB0C
:103CC000203C1C48066866601E4806601E48066068
:103CD00000201E4908801E4908801E48006818B947
:103CE00044F255602880C7E71B4800681B490968F3
:103CF000884203D244F256602880BDE703200021A9
:103D00000591CDE90705069113480068144A126829
:103D1000104B1B68CDE90301CDE9013200910B4640
:103D2000104A11A11748FEF7E1FB00BFA4E700000D
:103D30008400002014650008186500088800002031
:103D40004E4F4E45780000207C000020800000206F
:103D500082000020206500082865000860650008D2
:103D600024650008993B000875432F4F532D49499E
:103D70004920495352205175657565205461736B14
:103D80000000000024A000200021034A1160034A23
:103D900011800180704700009400002098000020EE
:103DA00070B501461A4D2D681DB945F21E750D807E
:103DB00070BD184D2D881DB945F21D750D80F7E7B2
:103DC000134D28682A681032124D2D886D1EACB232
:103DD000002308E00260002545600581C5601030C1
:103DE00010325D1CABB2A342F4DB002505604560D8
:103DF0000581C560064D2D68074E3560054D2D883F
:103E0000B5800025F58035810D8000BFD0E700002A
:103E1000446500083C650008ECA0002010B5014690
:103E200048894B89002B17DD0A680C4B1B6813600F
:103E30000A4C4B6823602346DB884C891B1B074CCC
:103E4000E38023469B884C892344044CA3800023B1
:103E50004B818B810B604B6010BD0000ECA00020FB
:103E6000018100224281828102604260704700002D
:103E70002DE9F0410D46DDE90674B0F80AC0B0F84E
:103E80000880C44505DB46F2935CA4F800C0BDE899
:103E9000F081DFF8DCC0BCF804C0BCF1000F04D135
:103EA00045F21D7CA4F800C0F1E7DFF8C4C0DCF8DF
:103EB0000010DFF8BC80D1F800C0C8F800C0C446CC
:103EC000BCF804C0ACF1010CA8F804C0C446BCF8AE
:103ED00006C00CF1010CA8F806C0C446BCF808C026
:103EE000B8F80680C44507DADFF884C0BCF806C01D
:103EF000DFF87C80A8F808C0B0F80AC0BCF1000F59
:103F00000AD1016041604FF0010CA0F80AC04FF0E7
:103F1000000CC1F800C017E003F0100CBCF1000F5A
:103F200007D10668316001604FF0000CC1F800C095
:103F300004E0D0F804C0C1F800C04160B0F80AC085
:103F40000CF1010CA0F80AC0B0F80CC0B0F80A805F
:103F5000C44503DAB0F80AC0A0F80CC04D600A816D
:103F6000CF604FF0000CA4F800C000BF8FE7000046
:103F7000ECA0002009A1C161002141610849096844
:103F800011B90021816105E0054909688161044991
:103F9000096848610249086070470000200000007D
:103FA0009C0000200021034A1160034A1180018017
:103FB000704700009C000020A00000202DE9F04187
:103FC00005460C4616461F461548006880F83460C2
:103FD00000201349096881F8350039461048006807
:103FE00000F032FF6CB104F10808EC6001222946B0
:103FF0000B48006800F016F82946404600F08EF89D
:1040000006E0002006490968C88705490968086371
:1040100003480168204600F019F8BDE8F08100006F
:104020001401002010B5C287016300230AE00024B8
:104030004C600C600C614C610C83CC618860203159
:104040005C1CA3B29342F2DB10BD000030B548B156
:104050004568C1F8C45000F10804226893681D6ADD
:10406000C56113E091F83450022D02D0072D08D11C
:1040700003E007A5C1F8C45007E007A5C1F8C45084
:1040800003E008A5C1F8C45000BF00BF30BD000068
:104090005461736B205100005461736B2053656D44
:1040A000000000002000000030B507A5C1F8C45092
:1040B00000F1080422681AB193681D6AC56101E025
:1040C00001A5C56130BD0000200000002DE9F043CE
:1040D00004460F4684F83770256BB4F83E8013E031
:1040E000D5F80C9009F108063089012807D929462E
:1040F000304600F05EF82946304600F00FF82035D3
:10410000A8F101001FFA80F8B8F1000FE8D1BDE86E
:10411000F08300210160416001817047F0B58E6835
:1041200096F8375007893FB90127078100274F606C
:104130000F600160416023E007897F1C07810268EE
:1041400006E0946894F83770AF4200DD02E05268F0
:10415000002AF6D100BF32B900274F6043680B60D8
:10416000596041600CE017682FB9116000270F609B
:104170004A60016004E013680B604A605960116096
:10418000F0BD2DE9F0410446256BE68F0AE0D5F835
:104190000C8008F108072946384600F00AF8203557
:1041A000701E86B2002EF2DC0020E0872063BDE89E
:1041B000F08110B50489012C03D10024046044600F
:1041C00011E00C6824B94A680024146002600AE017
:1041D0004C6824B90B6800245C60436003E00B6802
:1041E0004A685A6013600489641E048100244C608C
:1041F0000C6010BD2DE9F84306460C46174698465C
:10420000089D94F83600082850D2DFE800F0040535
:10421000080906072B2C00BF00BF00BF47E000BF06
:1042200094F83400032807D143463A4621463046E5
:10423000009500F03FF803E0E765A4F8608025648E
:1042400036B12046FFF79DFF21463046FFF72CFF91
:10425000204600F0FDFF00203434A070607004F8A8
:10426000340924E000BF94F83400032807D1434602
:104270003A4621463046009500F01CF803E0E76519
:10428000A4F860802564204601F048FD36B1204640
:10429000FFF777FF21463046FFF706FF042034344E
:1042A000A0700020607004F8340900E000BF00BF77
:1042B000BDE8F883F0B50446059E086BCD8F0AE093
:1042C000C768A74204D1046142610383C66104E068
:1042D00020306F1EBDB2002DF2DC00BFF0BD00002B
:1042E00070B50025074C03E005F12000C5B2241D80
:1042F00020680028F8D02068FCF7B7FD2844C5B234
:10430000284670BD20010020002004E00021034A5F
:1043100042F82010401C0028F8D0704720010020EF
:1043200030B5420900F01F030121C3F11F04A14071
:10433000034C54F822400C43014D45F8224030BD57
:104340002001002030B5420900F01F030121C3F114
:104350001F04A140034C54F822408C43014D45F802
:10436000224030BD200100200021034A1160034A91
:104370001180018070470000A8000020AC000020E0
:104380002DE9F04F85B007468A4693461C4600202B
:10439000029000BF00BF00BFFCF75CFD029000BFB1
:1043A000FDF736F800BF56480078401C54490870A5
:1043B00008460078012801D100F08AF900BFFDF716
:1043C00041F800BF0298FCF749FD00BF00BF00BFE5
:1043D00007F10806308900284CD104F0100010B90C
:1043E0004FF0000801E04FF01008DDE90E014346F0
:1043F0005A46CDE90001514607F12000FFF738FD8C
:1044000000BF00BF00BFFCF725FD029000BFFCF716
:10441000FFFF00BF3A480078401E3949087008463F
:104420000078D0B900F062F93648008800280BDD2A
:1044300000BFFDF707F800BF0298FCF70FFD00BFB3
:1044400000BF00F017F911E000BFFCF7FBFF00BF51
:104450000298FCF703FD00BF08E000BFFCF7F2FF85
:1044600000BF0298FCF7FAFC00BF00BF00BF05B018
:10447000BDE8F08F04F4007008B1358900E0012533
:10448000D6F8009011E0D9F808000390D9F804009C
:1044900004900E985B465246009038460399FFF709
:1044A000A9FEDDF81090681E85B2002DEBD100BF8B
:1044B00000BF00BFFCF7CEFC029000BFFCF7A8FFD6
:1044C00000BF0F480078401E0D490870084600786C
:1044D00008B900F00BF900BFFCF7B4FF00BF029869
:1044E000FCF7BCFC00BF00BF00BF04F4004008B9EB
:1044F000FDF7A8FD00210F98018000BFB7E700007D
:10450000BC0000208000002000210AE001EB4102F5
:10451000054B03EB820000220281026042604A1CCC
:10452000D1B22029F2D37047F8A0002010B504467C
:1045300094F83700FFF7F4FE94F83700054909783E
:10454000884203D1204600F027F802E0204600F020
:1045500003F810BDA200002010B590F8373003EB2F
:1045600043030C4C04EB83010B893BB901230B8102
:104570000023C36003610860486009E00B895B1C8D
:104580000B810B68C360002303610A681061086037
:1045900010BD0000F8A0002010B590F8373003EBF4
:1045A00043030B4C04EB83010B893BB901230B81C3
:1045B0000023C36003610860486008E00B895B1C4E
:1045C0000B810023C3604A680261D060486010BD5F
:1045D000F8A0002010B501460C8924B1012C03D0AD
:1045E000022C0CD101E000BF14E008684A680261A7
:1045F0000024C4601461D0600A6048600AE0086862
:104600004A68C36800241C61C4600261D0600B600A
:10461000486000BF00BF10BD2DE9F041054695F888
:10462000370000EB4000124901EB80042F69EE686F
:1046300087B946B9002020812060606095F8370076
:10464000FFF780FE0EE02089401E208100203061AF
:10465000266007E02089401E2081FE600EB9676059
:1046600000E0376100202861E860BDE8F0810000CB
:10467000F8A0002010B5002400BFFCF7EBFB0446B7
:1046800000BF00200D4908700D480E49086008461B
:104690000068D0F89000401C0968C1F890000A48F2
:1046A0000068401C084908604FF0805007490860C6
:1046B00000BF2046FCF7D2FB00BF10BDA3000020C6
:1046C00024A0002018010020E800002004ED00E0F4
:1046D00010B504480078012803D1FCF727FF0249F0
:1046E000086010BDBC000020B000002010B50A48D2
:1046F000007880B9FCF71AFF08490968441A08488D
:104700000068A04201D20648046006480068A04242
:1047100001D20448046010BDBC000020B00000209D
:10472000B4000020B800002070B5054600263548CA
:104730000078012800D070BD00BF00BFFCF78AFBE5
:10474000064600BFFCF764FE00BF2C684CB900BFF2
:10475000FCF778FE00BF3046FCF780FB00BF00BFCF
:10476000E9E72948844209D100BFFCF76BFE00BF8E
:104770003046FCF773FB00BF00BFDCE7A06D10B153
:10478000A06D401EA065A06D48B100BFFCF75AFEA9
:1047900000BF3046FCF762FB00BF00BFCBE72889B3
:1047A000022809DA00BFFCF74DFE00BF3046FCF7D7
:1047B00055FB00BF00BFBEE714480078002809DDA4
:1047C00000BFFCF73FFE00BF3046FCF747FB00BFD1
:1047D00000BFB0E72846FFF7FDFE2C68606D18B9F2
:1047E0000B480068A06501E0606DA06500BFFCF7A4
:1047F00029FE00BF3046FCF731FB00BF00BF00BF01
:1048000099E70000C40000205C9F0020BC0000204D
:10481000C00000200021034A1160034A118001807A
:1048200070470000C8000020CC0000202DE9FF5F89
:104830000446884691461D460020019000BF00BFF7
:10484000FCF708FB019000BFFCF7E2FD00BF04F19C
:1048500008073889002857D10420012804D00228ED
:1048600016D004283AD127E0206AFF280FD100BFD4
:10487000FCF7E8FD00BF0198FCF7F0FA00BF00BFAD
:1048800046F6C5502880002004B0BDE8F09F26E021
:104890004FF6FF71206A88420DD100BFFCF7D2FDB0
:1048A00000BF0198FCF7DAFA00BF00BF46F6C5501A
:1048B00028800020E8E712E0206A401C68B900BFA9
:1048C000FCF7C0FD00BF0198FCF7C8FA00BF00BFAD
:1048D00046F6C55028800020D6E700E000BF00BFA4
:1048E000206A401C2062D4F820A0C4F8249000BFA5
:1048F000FCF7A8FD00BF0198FCF7B0FA00BF00BFAD
:10490000002028805046BFE700BF2D480078401C9B
:104910002B49087008460078012801D1FFF7D8FE1E
:1049200000BFFCF78FFD00BF0198FCF797FA00BFAE
:1049300000BF00BF08F4007008B13E8900E0012606
:10494000D7F800B011E0DBF808000290DBF80400B3
:10495000039000231A46CDF8009020460299FFF7F5
:1049600049FCDDF80CB0701E86B2002EEBD1D4F8F5
:1049700020A000BF00BF00BFFCF76CFA019000BF91
:10498000FCF746FD00BF0E480078401E0C49087039
:104990000846007808B9FFF7A9FE00BFFCF752FDF2
:1049A00000BF0198FCF75AFA00BF00BF00BF08F42F
:1049B000004008B9FDF746FB00202880504663E719
:1049C000BC00002086B00020009000BF06E0D9495E
:1049D0000968480001AA0021FEF7BAFAD648007813
:1049E0000128F4D101A8FDF743FC0027D348006853
:1049F000D0490968884205D9D0480068CD4909687E
:104A0000B0FBF1F727B9CD4800680A21B0FBF1F7F8
:104A10008EE1FCF78BFD8246FCF7E4FCC849086098
:104A200000BF00BFFCF716FA009000BFFCF7F0FCD7
:104A300000BFC4480068C44908600020C14908603C
:104A400000BFFCF7FFFC00BF0098FCF707FA00BFAF
:104A500000BFBE480068BC490968884248D9BB48C5
:104A60000068BB49884205D242F2107003900120D1
:104A7000029023E0B5480068B649884205D24FF459
:104A80007A7003900A20029018E0B0480068B2499A
:104A9000884203D26420039002900FE0AB48006884
:104AA000AE49884205D20A2003904FF47A700290F2
:104AB00004E00120039042F210700290A3480168C4
:104AC0000298B1FBF0F9A049039809684843B0FB8C
:104AD000F9F042F21071081AA1490880A148008833
:104AE0000988884208DA9E4800889E49088003E0C9
:104AF00042F210709A490880FDF7EEFC002500BFD5
:104B000000BFFCF7A7F9009000BFFCF781FC00BFD5
:104B10009548046800BFFCF795FC00BF0098FCF7BF
:104B20009DF900BF00BF72E000BF00BF00BFFCF7EF
:104B300091F9009000BFFCF76BFC00BF8B48007838
:104B4000401C8A49087008460078012801D1FFF707
:104B5000BFFD00BFFCF776FC00BF0098FCF77EF9B4
:104B600000BF00BF00BF54F89C0F6060002044F8F5
:104B70009C0900BF00BF00BFFCF76CF9009000BFAC
:104B8000FCF746FC00BF79480078401E7749087062
:104B900008460078D0B9FFF7A9FD754800880028BD
:104BA0000BDD00BFFCF74EFC00BF0098FCF756F988
:104BB00000BF00BFFFF75EFD11E000BFFCF742FC45
:104BC00000BF0098FCF74AF900BF08E000BFFCF7FF
:104BD00039FC00BF0098FCF741F900BF00BF00BFDF
:104BE000D4F8A000054400BF00BFFCF733F90090E3
:104BF00000BFFCF70DFC00BFD4F8C04000BFFCF7BD
:104C000021FC00BF0098FCF729F900BF00BF002C71
:104C10008AD145B34E48854205D242F210700590C4
:104C20004FF0010B1BE04B48854205D24FF47A70E0
:104C300005904FF00A0B12E04748854203D26420EA
:104C4000059083460BE04548854204D20A20059032
:104C50004FF47A7B03E00120059042F2107BB5FB14
:104C6000FBF0049003E0002005900120049000BFB9
:104C700000BFFCF7EFF8009000BFFCF7C9FB00BFD6
:104C80003948046800BFFCF7DDFB00BF0098FCF763
:104C9000E5F800BF00BF2FE0D4F8A0000599484315
:104CA0000499B0FBF1F086B242F21070864200D94E
:104CB0000646A4F88C60B4F88E00B04201DAA4F87D
:104CC0008E6001AB04F1AC02111D2046FDF7ECFF34
:104CD00000BF00BFFCF7BEF8009000BFFCF798FBD8
:104CE00000BFD4F8C04000BFFCF7ACFB00BF009889
:104CF000FCF7B4F800BF00BF002CCDD11D480078F0
:104D0000012805D100201B49087001A8FDF7B0FA61
:104D1000FCF70CFCA0EB0A0817480068404502D2DB
:104D20001548C0F8008001AA00213846FEF710F9A6
:104D30006FE600004C650008E00000206465000894
:104D400070000020D4000020DC000020D8000020EB
:104D5000801A060000093D00005A62020084D7173D
:104D6000D0000020D2000020EC000020BC00002079
:104D700080000020CE000020E400002010B58AB0A2
:104D8000044600201F4908601F4908601F49086049
:104D90001F4908701F4908701F48006820B946F66F
:104DA0002B6020800AB010BD1C4800681C490968AF
:104DB000884203D246F62C602080F3E71948007839
:104DC0001F2803D346F62A602080EBE7032000214A
:104DD0000591CDE907040691084610490968124A71
:104DE00012680D4B1B68CDE90132CDE903100D4867
:104DF000007800230D4A0EA100901248FDF776FBC3
:104E000000BFCFE7D4000020DC000020D800002045
:104E1000E0000020CE000020506500085865000822
:104E2000606500084865000854650008C549000829
:104E300075432F4F532D49494920537461742054B1
:104E400061736B0078A2002038B504460D4685B129
:104E50006B4602222946204600F082FEBDF8000083
:104E600018B9032084F8360006E0022084F83600E2
:104E700002E0022084F836002046FFF7CDFB38BD63
:104E80000021C0F8BC100949096819B90021C0F80F
:104E9000C01007E005490968C0F8C0100349096857
:104EA000C1F8BC000149086070470000EC00002018
:104EB000D0F8BC20D0F8C0104AB90D4B196011B120
:104EC0000023C1F8BC300023C0F8C0300FE029B97E
:104ED0000023C2F8C030C0F8BC3008E0C2F8C010EF
:104EE000C1F8BC200023C0F8C030C0F8BC30704707
:104EF000EC0000200021044A1160044A1180044A99
:104F00001160018070470000EC000020F0000020DC
:104F1000E800002070B5044600202060A0606060BA
:104F2000E06020616061A061E0612BA02062002050
:104F30006062A062E0622063E0872064E065A4F81C
:104F40006000002104F16400FEF78AFF002044F8AD
:104F5000740F6060E060A0822061743C002506E070
:104F6000002104F17C0040F82510681CC5B2002D1A
:104F7000F6D000203434206120676067606084F8D8
:104F80005600E067A06720814FF00040606100207C
:104F9000A061E06120626062A4F85800A4F85A00A1
:104FA000E0652066FCF7C2FA064666660020A06649
:104FB000C4F88000C4F8840020706070A0702020C5
:104FC000E0700020C4F88800C4F88C0004A0C4F885
:104FD0009000343C70BD00003F5461736B000000D2
:104FE000200000002DE9FC4704460F4690469946F4
:104FF000DDE90A654FF0000A00BF00BF00BFFBF704
:1050000029FF824600BFFCF703FA00BF8D480078F5
:10501000401C8C49087008460078012801D1FFF730
:1050200057FB00BFFCF70EFA00BF5046FBF716FF18
:1050300000BF00BF00BF0CB983480468002028806F
:1050400094F8360008287CD2DFE800F004054849CF
:1050500006074A4B00BF00BF00BF4B4642463946D9
:1050600004F16400CDE90065FEF702FF00BF00BF58
:1050700000BFFBF7EFFE824600BFFCF7C9F900BF97
:1050800070480078401E6F49087008460078D0B913
:10509000FFF72CFB6D48008800280BDD00BFFCF7F4
:1050A000D1F900BF5046FBF7D9FE00BF00BFFFF7A4
:1050B000E1FA11E000BFFCF7C5F900BF5046FBF76D
:1050C000CDFE00BF08E000BFFCF7BCF900BF5046B2
:1050D000FBF7C4FE00BF00BF00BFAFE000BF00BFD2
:1050E00000BF94F8340002282CD143463A462146AA
:1050F00000200096FFF77EF800BF00BF00BFFBF75F
:10510000A9FE824600BFFCF783F900BF4D48007836
:10511000401E4C4908700846007808B9FFF7E6FAC7
:1051200000BFFCF78FF900BF5046FBF797FE00BFAA
:1051300000BF00BF09F40040002843D1FCF782FF04
:1051400040E040E04B464246394604F16400CDE978
:105150000065FEF78DFE00BF00BF00BFFBF77AFEC3
:10516000824600BFFCF754F900BF36480078401E65
:105170003449087008460078D0B9FFF7B7FA3348C9
:10518000008800280BDD00BFFCF75CF900BF50462B
:10519000FBF764FE00BF00BFFFF76CFA11E000BF31
:1051A000FCF750F900BF5046FBF758FE00BF08E07F
:1051B00000BFFCF747F900BF5046FBF74FFE00BFAA
:1051C00000BF00BF3AE000BF00BF00BFFBF742FED8
:1051D000824600BFFCF71CF900BF1A480078401E49
:1051E0001849087008460078D0B9FFF77FFA1748C9
:1051F000008800280BDD00BFFCF724F900BF5046F3
:10520000FBF72CFE00BF00BFFFF734FA11E000BF30
:10521000FCF718F900BF5046FBF720FE00BF08E07E
:1052200000BFFCF70FF900BF5046FBF717FE00BFA9
:1052300000BF00BF46F62D60288000BF00BFBDE85C
:10524000FC870000BC00002014010020800000202A
:1052500010B50446204600F061FD94F8360000F0D9
:10526000040010B92046FFF761F910BD70B504467F
:105270000D46002600BF00BFFBF7ECFD064600BF51
:10528000FCF7C6F800BF0020288094F836000828F4
:105290007ED2DFE800F00405060714566A8000BFDE
:1052A00000BF00BF00BFFCF7CDF800BF3046FBF7E2
:1052B000D5FD00BF00BF47F2531028808CE000BF2F
:1052C00048480078401C4749087008460078012883
:1052D00001D1FFF7FDF900BFFCF7B4F800BF30467D
:1052E000FBF7BCFD00BF00BF00BF14F88A0F401ED3
:1052F000207014F88A0928B9002084F83600204666
:10530000FFF7A6FF00BF00BF00BFFBF7A3FD0646E7
:1053100000BFFCF77DF800BF32480078401E3149DD
:1053200008700846007808B9FFF7E0F900BFFCF7FD
:1053300089F800BF3046FBF791FD00BF00BF00BFFA
:105340004AE014F88A0F401E207014F88A0910B938
:10535000012084F8360000BFFCF774F800BF304627
:10536000FBF77CFD00BF00BF36E014F88A0F401E3B
:10537000207014F88A0910B9022084F8360000BFA2
:10538000FCF760F800BF3046FBF768FD00BF00E0A7
:1053900015E000BF20E014F88A0F401E207014F8BA
:1053A0008A0910B9032084F8360000BFFCF74AF8D8
:1053B00000BF3046FBF752FD00BF00BF0CE000BF4E
:1053C000FCF740F800BF3046FBF748FD00BF00BFC8
:1053D00046F62D60288070BD00BFFCF733FE00BF8D
:1053E000F9E70000BC00002008B504480068FDF79C
:1053F00027FB69460020FDF7CFF908BD1401002006
:105400002DE9F8430446884617461D464FF000092B
:1054100000BF00BF00BFFBF71DFD814600BFFBF7CB
:10542000F7FF00BFFB480078401CFA4908700846A7
:105430000078012801D1FFF74BF900BFFCF702F813
:1054400000BF4846FBF70AFD00BF00BF00BF0CB914
:10545000F148046827640020288094F83600082862
:105460007AD2DFE800F00405FEFD0607FCFB00BF72
:1054700000BF00BF0420012804D0022843D0042824
:105480006BD184E0606CFF283CD100BF00BF00BF3F
:10549000FBF7E0FC814600BFFBF7BAFF00BFDD4829
:1054A0000078401EDB49087008460078D0B9FFF745
:1054B0001DF9DA48008800280BDD00BFFBF7C2FFAA
:1054C00000BF4846FBF7CAFC00BF00BFFFF7D2F899
:1054D00011E000BFFBF7B6FF00BF4846FBF7BEFC7C
:1054E00000BF08E000BFFBF7ADFF00BF4846FBF779
:1054F000B5FC00BF00BF00BF46F6C55028800020A5
:10550000BDE8F88385E04FF6FF71606C88423DD1BD
:1055100000BF00BF00BFFBF79DFC814600BFFBF74B
:1055200077FF00BFBB480078401EBA4908700846A4
:105530000078E0B9FFF7DAF8B848008800280DDDF8
:1055400000BFFBF77FFF00BF4846FBF787FC00BFAB
:1055500000BFFFF78FF813E0E2E159E000BFFBF76F
:1055600071FF00BF4846FBF779FC00BF08E000BFB1
:10557000FBF768FF00BF4846FBF770FC00BF00BFA9
:1055800000BF46F6C55028800020B9E741E0606CB6
:10559000401CD8BB00BF00BF00BFFBF75BFC8146CF
:1055A00000BFFBF735FF00BF9A480078401E9949BD
:1055B000087008460078D0B9FFF798F89748008837
:1055C00000280BDD00BFFBF73DFF00BF4846FBF79F
:1055D00045FC00BF00BFFFF74DF811E000BFFBF72F
:1055E00031FF00BF4846FBF739FC00BF08E000BFB1
:1055F000FBF728FF00BF4846FBF730FC00BF00BFA9
:1056000000BF46F6C5502880002079E7FFE700E09C
:1056100000BF00BF606C401C6064666C00BF00BFD0
:1056200000BFFBF717FC814600BFFBF7F1FE00BF90
:1056300078480078401E7749087008460078F8B925
:10564000FFF754F875480088002810DD00BFFBF70D
:10565000F9FE00BF4846FBF701FC03E01EE01CE03A
:105660001AE018E000BF00BFFFF704F811E000BF28
:10567000FBF7E8FE00BF4846FBF7F0FB00BF08E081
:1056800000BFFBF7DFFE00BF4846FBF7E7FB00BFAC
:1056900000BF00BF80E100BF00BF00BF94F834002E
:1056A00007282CD100231A46214618460097FEF7FA
:1056B000A1FD666C00BF00BF00BFFBF7CBFB8146BE
:1056C00000BFFBF7A5FE00BF52480078401E5149BD
:1056D00008700846007808B9FFF708F800BFFBF724
:1056E000B1FE00BF4846FBF7B9FB00BF00BF00BFDB
:1056F00008F40040002801D1FCF7A4FC0FE10420CD
:10570000012804D0022842D0042872D189E0606CBC
:10571000FF283BD100BF00BF00BFFBF79BFB8146CA
:1057200000BFFBF775FE00BF3A480078401E3949BC
:10573000087008460078D0B9FEF7D8FF37480088CF
:1057400000280BDD00BFFBF77DFE00BF4846FBF7DE
:1057500085FB00BF00BFFEF78DFF11E000BFFBF728
:1057600071FE00BF4846FBF779FB00BF08E000BFB1
:10577000FBF768FE00BF4846FBF770FB00BF00BFA9
:1057800000BF46F6C55028800020B9E68BE04FF6F2
:10579000FF71606C884243D100BF00BF00BFFBF7C0
:1057A00059FB814600BFFBF733FE00BF1948007864
:1057B000401E1849087008460078D8B9FEF796FFD1
:1057C0001648008800280BDD00BFFBF73BFE00BF3A
:1057D0004846FBF743FB00BF00BFFEF74BFF12E05C
:1057E00000BFFBF72FFE00BF4846FBF737FB00BFAB
:1057F00009E057E000BFFBF725FE00BF4846FBF776
:105800002DFB00BF00BF00BF46F6C550288000201A
:1058100076E60000BC00002014010020800000207B
:1058200041E0606C401CD8BB00BF00BF00BFFBF76D
:1058300011FB814600BFFBF7EBFD00BF5848007825
:10584000401E5749087008460078D0B9FEF74EFF51
:105850005448008800280BDD00BFFBF7F3FD00BFB4
:105860004846FBF7FBFA00BF00BFFEF703FF11E05D
:1058700000BFFBF7E7FD00BF4846FBF7EFFA00BFAC
:1058800008E000BFFBF7DEFD00BF4846FBF7E6FA85
:1058900000BF00BF00BF46F6C550288000202FE69D
:1058A000FFE700E000BF00BF606C401C6064666CF6
:1058B00000BF00BF00BFFBF7CDFA814600BFFBF77A
:1058C000A7FD00BF36480078401E354908700846DD
:1058D0000078D0B9FEF70AFF3248008800280BDDB7
:1058E00000BFFBF7AFFD00BF4846FBF7B7FA00BFAC
:1058F00000BFFEF7BFFE11E000BFFBF7A3FD00BF36
:105900004846FBF7ABFA00BF08E000BFFBF79AFD83
:1059100000BF4846FBF7A2FA00BF00BF00BF3BE054
:1059200000BF00BF00BFFBF795FA814600BFFBF741
:105930006FFD00BF1A480078401E194908700846DC
:105940000078D0B9FEF7D2FE1648008800280BDD9B
:1059500000BFFBF777FD00BF4846FBF77FFA00BFAB
:1059600000BFFEF787FE11E000BFFBF76BFD00BF35
:105970004846FBF773FA00BF08E000BFFBF762FD83
:1059800000BF4846FBF76AFA00BF00BF00BF46F6FB
:105990002D602880002600BF00BF3046B0E5000023
:1059A000BC0000208000002070B504460D46002693
:1059B00000BF00BFFBF74EFA064600BFFBF728FD0D
:1059C00000BF0CB95A48046859480068844210D195
:1059D0005848007800280CDD00BFFBF733FD00BFFE
:1059E0003046FBF73BFA00BF00BF46F66350288005
:1059F00070BD0020288094F83600082873D2DFE8B4
:105A000000F0044252627374757600BF4948007812
:105A1000401C4849087008460078012801D1FEF76B
:105A200057FE00BFFBF70EFD00BF3046FBF716FA2E
:105A300000BF00BF00BF042084F83600012084F8B6
:105A40008A002046FEF7E8FD00BF00BF00BFFBF75D
:105A500001FA064600BFFBF7DBFC00BF35480078C3
:105A6000401E344908700846007808B9FEF73EFE2B
:105A700000BFFBF7E7FC00BF3046FBF7EFF900BFC4
:105A800000BF00BF4FE0052084F83600012084F8F5
:105A90008A0000BFFBF7D6FC00BF3046FBF7DEF9FB
:105AA00000BF00BF3FE0062084F83600012084F8E4
:105AB0008A0000BFFBF7C6FC00BF3046FBF7CEF9FB
:105AC00000BF00BF2FE0072084F83600012084F8D3
:105AD0008A0000BFFBF7B6FC00BF3046FBF7BEF9FB
:105AE00000BF00BF1FE011E000BF00BF00BF94F87F
:105AF0008A00401C84F88A0000BFFBF7A3FC00BFAB
:105B00003046FBF7ABF900BF00BF0CE000BFFBF76E
:105B100099FC00BF3046FBF7A1F900BF00BF46F675
:105B20002D60288064E700BFFCF78CFA00BF5FE7B8
:105B300014010020BC000020002108E0064A02EB0E
:105B4000C100002202608280C2804A1C91B2034AD6
:105B500012889142F2DB70474C9C00207C65000863
:105B60002DE9F04F0C4616461D46042E1ED1DFF8D7
:105B7000A091D9F80090A4EB0909A9F1010313F54C
:105B8000803F0DD94FF00009C0F84C90C0F85090FC
:105B9000C0F81C9047F27E29A5F80090BDE8F08F70
:105BA000C46403F10109C0F850903FE084B3082EAB
:105BB00025D1D0F8489009EB0407DFF85491D9F8C3
:105BC0000090A7EB0909A9F10103A34201D2C76420
:105BD00006E0DFF83C91D9F80090A144C0F84C9061
:105BE000DFF82CA1D0F84C90DAF800A0A9EB0A0954
:105BF000C0F85090D0F84C90C0F8489016E0DFF80C
:105C00001091D9F80090A144C0F84C9004650DE0C3
:105C1000FFE74FF00009C0F84C90C0F85090C0F872
:105C20001C9047F27E29A5F80090B7E7DFF8E4A0C2
:105C3000BAF800A0D0F84C90B9FBFAFB0AFB1B990C
:105C40001FFA89F8DFF8D09009EBC802B2F8049087
:105C5000B9F1000F0BD14FF00009C0F81490C0F853
:105C6000189010604FF00109A2F804903EE011680E
:105C700034E0DFF89CA0D1F84C90DAF800A0A9EB52
:105C80000A09C1F85090D0F85090D1F850A0D145F1
:105C90000ED9D1F81490B9F1000F01D049691DE077
:105CA0004FF00009C0F8149081614861002115E0AF
:105CB000D1F81890B9F1000F07D14FF00009C0F8E2
:105CC000189041618861106007E0D1F818C0C0F8F1
:105CD00018C04161CCF81400886100210029C8D1A6
:105CE000B2F8049009F10109A2F80490B2F8069004
:105CF000B2F804A0D14503DAB2F80490A2F80690F5
:105D0000C2614FF00009A5F8009000BF46E700000F
:105D1000F40000207C6500084C9C002010B5C2698E
:105D2000BAB1002404651468844205D14169116048
:105D300039B100248C6104E0816943694B6103B18E
:105D40009961002444618461C461C4649488641EC0
:105D5000948010BD002006E0054A02EBC00100223D
:105D6000CA80421C90B2034A12889042F4DB70470A
:105D70004C9C00207C6500082DE9F05F4FF0000B83
:105D800000BF00BF00BFFBF765F8834600BFFBF70D
:105D90003FFB00BF7A480078401C794908700846EC
:105DA0000078012801D1FEF793FC00BFFBF74AFB06
:105DB00000BF5846FBF752F800BF00BF00BFFBF71B
:105DC000B5FB05466F480068401C6E4908600846F0
:105DD00000686D490988B0FBF1F201FB12001FFA5F
:105DE00080FA6A4800EBCA08D8F80040002782E031
:105DF000002C7FD0D4F8149094F83600082875D27F
:105E0000DFE800F00408051B063D075000BF00BF97
:105E100000BF6CE05B49E06C0968401A2065594995
:105E2000E06C0968884206D1002084F836002046DC
:105E3000FFF70EFA00E0012759E05249E06C0968CB
:105E4000401A20654F49E06C0968884215D100204E
:105E5000E065A4F86000FBF769FB20642046FEF7CC
:105E600090F92046FFF7F4F900203434A0700320A5
:105E70006070002004F8340900E0012737E0414950
:105E8000E06C0968401A20653E49E06C0968884268
:105E900006D1042084F836002046FFF73FFF00E0DB
:105EA000012724E03749E06C0968401A206535492C
:105EB000E06C0968884217D10020E065A4F8600012
:105EC000FBF734FB20642046FEF75BF92046FFF722
:105ED00025FF04203434A07003206070002004F8F3
:105EE000340902E006E001E0012700E000BF00BF46
:105EF0004C4600E00127002F3FF47AAFFBF716FB7A
:105F0000461B23480068B04201D22148066000BF0A
:105F100000BF00BFFAF79EFF834600BFFBF778FA89
:105F200000BF17480078401E1549087008460078E1
:105F3000D0B9FEF7DBFB1748008800280BDD00BF57
:105F4000FBF780FA00BF5846FAF788FF00BF00BF92
:105F5000FEF790FB11E000BFFBF774FA00BF584654
:105F6000FAF77CFF00BF08E000BFFBF76BFA00BF49
:105F70005846FAF773FF00BF00BF00BFBDE8F09FAF
:105F8000BC000020F40000207C6500084C9C002030
:105F9000F8000020800000201CB500BF0EE001AB1F
:105FA0006A4600210846FCF757FDBDF8040028B9F1
:105FB00003480078012801D1FFF7DEFEEFE700007B
:105FC0007400002010B58AB0044600201D49086006
:105FD0001D490860FFF7B0FD1C48006820B947F272
:105FE000122020800AB010BD1948006819490968BC
:105FF000884203D247F213202080F3E71648007846
:106000001F2803D347F211202080EBE70B2000214B
:1060100005910A46CDE9070406910D4800680F492D
:1060200009680A4B1B68CDE90131CDE903020A4832
:10603000007800230A4A0BA100900F48FCF756FA9B
:1060400000BFCFE7F4000020F80000206C650008D6
:1060500074650008606500086865000870650008E0
:10606000995F000875432F4F532D494949205469C2
:10607000636B205461736B0040A3002070B58AB03D
:1060800004460020314908603148006840B1314879
:1060900000682F490968B0FBF1F02F49086006E05D
:1060A0002C4800680A21B0FBF1F02B4908602A480F
:1060B00000682A49086000202949086029490860C9
:1060C000002508E0284800EBC5060020B080F080DD
:1060D0003060681C85B2254800888542F2DB244880
:1060E000006820B947F2473020800AB070BD2148CF
:1060F000006821490968884203D247F2483020806D
:10610000F3E71E4800781F2803D347F2463020806B
:10611000EBE70B2000210591CDE907040691084625
:1061200014490968164A1268114B1B68CDE90132FF
:10613000CDE90310114800780023124A12A1009003
:106140001748FCF7D3F900BFCFE70000FC000020A0
:1061500088650008646500080C010020100100201B
:106160000801002004010020D49E00209C65000846
:106170008C65000894650008606500088465000867
:10618000906500089962000875432F4F532D4949C7
:10619000492054696D6572205461736B00000000E2
:1061A00008A40020F0B50C46022680F82A60012CD5
:1061B00005D12D4F466A3F683E4486610CE0066A71
:1061C0002EB9294F466A3F683E44866104E0264F57
:1061D000066A3F683E448661244F3F888669B6FB65
:1061E000F7FC07FB1C66B5B2214E06EBC50216682C
:1061F00036B90026066146611060012696802CE0C3
:10620000194F86693F68F61BC661116820E0164F7A
:106210008E693F68F61BCE61C669CF69BE4209D957
:106220000E690EB1096913E000260661416108613B
:1062300000210DE04E692EB90026466101614861DA
:10624000106004E04B6943610161186148610021FD
:106250000029DCD19688761C9680D6889788BE4225
:1062600001DA9688D680F0BD080100209C65000800
:10627000D49E0020002006E0054A02EBC001002267
:10628000CA80421C90B2034A12889042F4DB7047E5
:10629000D49E00209C6500081CB500BF53E001ABF4
:1062A0006A4600210846FCF7D7FB01A8FBF71EFF52
:1062B000FBF73CF9064624480068401C2249086068
:1062C0000846006821490988B0FBF1F201FB120081
:1062D0001FFA80FA1E4800EBCA08D8F800404FF0B9
:1062E000000B21E0F4B1D4F810901749A0690968B7
:1062F000884214D1204600F02FF8208D022804D1C6
:1063000001212046FFF74EFF02E0032084F82A0017
:10631000A56815B12046E168A8474C4604E04FF057
:10632000010B01E04FF0010BBBF1000FDAD0FBF7DE
:10633000FDF8871B01A8FBF717FF06480068B84265
:1063400001D204480760AAE7080100209C65000804
:10635000D49E002004010020F0B5114E36888569D6
:10636000B5FBF6F706FB1755ACB20E4D05EBC402B4
:106370001568854205D10169116039B100254D616B
:1063800004E0416903690B6103B15961012580F89B
:106390002A5000250561456195886D1E9580F0BDE8
:1063A0009C650008D49E00207047000000B585B0B1
:1063B00001218803FAF7DEFA01210420FAF7DAFA5C
:1063C0004FF40070ADF8100018208DF81300032072
:1063D0008DF8120004A91348FAF716F84FF48060FC
:1063E000ADF8100004208DF8130004A90D48FAF749
:1063F0000BF84FF4E13000900020ADF80400ADF848
:106400000600ADF80800ADF80C000C20ADF80A004D
:1064100069460548FAF759FB01210348FAF7E1FB01
:1064200005B000BD000801400038014000BFFEE794
:10643000014A024900F013B88164000824010020D9
:1064400002E008C8121F08C1002AFAD1704770473D
:10645000002001E001C1121F002AFBD170472DE985
:10646000F04116460F460446002503E03946B04782
:10647000641C6D1C20780028F8D12846BDE8F08106
:1064800070B504460D46E1B20548FAF717FC00BFA7
:1064900080210348FAF780FC0028F9D0204670BD1F
:1064A0000038014000B58BB00AA8FBF71FF90AA815
:1064B000032100220592CDE90621089005208021C4
:1064C0000C22094BCDE90132CDE903100320002352
:1064D000064A07A100900A48FCF708F80AA8FBF74B
:1064E00093FE00200BB000BD540100205D11000898
:1064F000417070205461736B20537461727400009A
:1065000054030020CC8A00200C0000008000000012
:1065100000020000CC8C00200A00000040010000B6
:106520000C8E00200C000000800000000002000023
:106530000C900020800000000002000064000000B9
:10654000400600000C9200200B0000000A00000032
:106550004C9800200C0000008000000000020000A9
:1065600040000000E80300000A0000004C9A0020F0
:106570000C0000008000000000020000110000007C
:10658000880000000B0000000A000000D49C0020DE
:106590000C0000008000000000020000110000005C
:1065A00088000000901400000101010078563412A8
:1065B00001010000000000000000000000000000D9
:1065C00000000000000000000000000000000000CB
:1065D00000000000000000000000000001010100B8
:1065E000280004002000010000000000000000005E
:1065F000000000000000000000000000000000009B
:106600000000000000000000010020000100100058
:106610000C0010000000000000000000000000005E
:10662000000000000000000000000000000000006A
:10663000000000000000000000000000000000005A
:10664000010101002C00010120000C0020002000AD
:106650000400040000000000000000000000000032
:10666000000000000000000000000000000000002A
:10667000000000000000000000000000000000001A
:1066800000000000010101013000010000000000D5
:1066900000000000000000000000000000000000FA
:1066A00000000000000000000000000000000000EA
:1066B000000000000101010128000C008001000021
:1066C000040101010101010101000101C8000800EC
:1066D00001010000000000000000000000000000B8
:1066E00000000000000000000000000000000000AA
:1066F000000000000000000000000000000000009A
:1067000000000000000000000101340008005D7678
:106710002A0600003467000800000020280100005D
:10672000406400085C68000828010020A8A7000059
:10673000506400080000000000A24A0400000000AD
:106740000000000001020304060708090000000021
:1067500001020304010203040607080902040608F3
:106760000000000000000000000000000000000029
:106770000000000000000000000000000000000019
:106780000000000000000000000000000000000009
:1067900000000000000000000000000000000000F9
:1067A00000000000000000000000000000000000E9
:1067B00000000000000000000000000000000000D9
:1067C00000000000000000000000000000000000C9
:1067D00000000000000000000000000000000000B9
:1067E00000000000000000000000000000000000A9
:1067F0000000000000000000000000000000000099
:106800000000000000000000000000000000000088
:106810000000000000000000000000000000000078
:106820000000000000000000000000000000000068
:106830000000000000000000000000000000000058
:106840000000000000000000000000000000000048
:0C6850000000000000000000000000003C
:0400000508000131BD
:00000001FF
