Component: ARM Compiler 5.06 update 6 (build 750) Tool: armlink [4d35ed]

==============================================================================

Section Cross References

    startup_stm32f10x_hd.o(RESET) refers to startup_stm32f10x_hd.o(STACK) for __initial_sp
    startup_stm32f10x_hd.o(RESET) refers to startup_stm32f10x_hd.o(.text) for Reset_Handler
    startup_stm32f10x_hd.o(RESET) refers to stm32f10x_it.o(i.NMI_Handler) for NMI_Handler
    startup_stm32f10x_hd.o(RESET) refers to stm32f10x_it.o(i.HardFault_Handler) for HardFault_Handler
    startup_stm32f10x_hd.o(RESET) refers to stm32f10x_it.o(i.MemManage_Handler) for MemManage_Handler
    startup_stm32f10x_hd.o(RESET) refers to stm32f10x_it.o(i.BusFault_Handler) for BusFault_Handler
    startup_stm32f10x_hd.o(RESET) refers to stm32f10x_it.o(i.UsageFault_Handler) for UsageFault_Handler
    startup_stm32f10x_hd.o(RESET) refers to stm32f10x_it.o(i.SVC_Handler) for SVC_Handler
    startup_stm32f10x_hd.o(RESET) refers to stm32f10x_it.o(i.DebugMon_Handler) for DebugMon_Handler
    startup_stm32f10x_hd.o(RESET) refers to os_cpu_a.o(CODE) for OS_CPU_PendSVHandler
    startup_stm32f10x_hd.o(RESET) refers to os_cpu_c.o(i.OS_CPU_SysTickHandler) for OS_CPU_SysTickHandler
    startup_stm32f10x_hd.o(.text) refers to system_stm32f10x.o(.text) for SystemInit
    startup_stm32f10x_hd.o(.text) refers to entry.o(.ARM.Collect$$$$00000000) for __main
    main.o(i.AppTaskKEY) refers to stm32f10x_gpio.o(.text) for GPIO_ReadInputDataBit
    main.o(i.AppTaskKEY) refers to os_time.o(i.OSTimeDly) for OSTimeDly
    main.o(i.AppTaskKEY) refers to os_task.o(i.OSTaskResume) for OSTaskResume
    main.o(i.AppTaskKEY) refers to main.o(.data) for Flag
    main.o(i.AppTaskKEY) refers to main.o(.bss) for AppTaskLCDTCB
==============================================================================

Removing Unused input sections from the image.

    Removing startup_stm32f10x_hd.o(HEAP), (512 bytes).
    Removing os_app_hooks.o(i.App_OS_ClrAllHooks), (100 bytes).
    Removing os_app_hooks.o(i.App_OS_IdleTaskHook), (2 bytes).
    Removing os_app_hooks.o(i.App_OS_InitHook), (2 bytes).
    Removing os_app_hooks.o(i.App_OS_SetAllHooks), (140 bytes).
    Removing os_app_hooks.o(i.App_OS_StatTaskHook), (2 bytes).
    Removing os_app_hooks.o(i.App_OS_TaskCreateHook), (2 bytes).
    Removing os_app_hooks.o(i.App_OS_TaskDelHook), (2 bytes).
    Removing os_app_hooks.o(i.App_OS_TaskReturnHook), (2 bytes).
    Removing os_app_hooks.o(i.App_OS_TaskSwHook), (2 bytes).
    Removing os_app_hooks.o(i.App_OS_TimeTickHook), (2 bytes).
    Removing stm32f10x_it.o(i.PendSV_Handler), (2 bytes).
    Removing stm32f10x_it.o(i.SysTick_Handler), (2 bytes).
    Removing bsp.o(.data), (4 bytes).
    Removing bsp_usart1.o(i.fgetc), (32 bytes).
    Removing bsp_usart1.o(i.fputc), (36 bytes).
    Removing bsp_key.o(i.Key_ReadStatus), (34 bytes).
    Removing bsp_key.o(i.Key_Scan), (88 bytes).
==============================================================================

Image Symbol Table

    Local Symbols

    Symbol Name                              Value     Ov Type        Size  Object(Section)

    ../clib/../cmprslib/zerorunl2.c          0x00000000   Number         0  __dczerorl2.o ABSOLUTE
    ../clib/microlib/division.c              0x00000000   Number         0  uldiv.o ABSOLUTE
    ../clib/microlib/division.c              0x00000000   Number         0  uidiv.o ABSOLUTE
    ../clib/microlib/init/entry.s            0x00000000   Number         0  entry5.o ABSOLUTE
    ../clib/microlib/init/entry.s            0x00000000   Number         0  entry7b.o ABSOLUTE
    ../clib/microlib/init/entry.s            0x00000000   Number         0  entry9a.o ABSOLUTE
    ../clib/microlib/init/entry.s            0x00000000   Number         0  entry2.o ABSOLUTE
    ../clib/microlib/init/entry.s            0x00000000   Number         0  entry7a.o ABSOLUTE
    ../clib/microlib/init/entry.s            0x00000000   Number         0  entry10b.o ABSOLUTE
    ../clib/microlib/init/entry.s            0x00000000   Number         0  entry.o ABSOLUTE
    ../clib/microlib/init/entry.s            0x00000000   Number         0  entry8b.o ABSOLUTE
    ../clib/microlib/init/entry.s            0x00000000   Number         0  entry8a.o ABSOLUTE
    ../clib/microlib/init/entry.s            0x00000000   Number         0  entry11b.o ABSOLUTE
    ../clib/microlib/init/entry.s            0x00000000   Number         0  entry11a.o ABSOLUTE
    ../clib/microlib/init/entry.s            0x00000000   Number         0  entry10a.o ABSOLUTE
    ../clib/microlib/init/entry.s            0x00000000   Number         0  entry9b.o ABSOLUTE
    ../clib/microlib/longlong.c              0x00000000   Number         0  llshl.o ABSOLUTE
    ../clib/microlib/longlong.c              0x00000000   Number         0  llsshr.o ABSOLUTE
    ../clib/microlib/longlong.c              0x00000000   Number         0  llushr.o ABSOLUTE
    ../clib/microlib/printf/printf.c         0x00000000   Number         0  printfa.o ABSOLUTE
    ../clib/microlib/printf/printf.c         0x00000000   Number         0  printf5.o ABSOLUTE
    ../clib/microlib/printf/printf.c         0x00000000   Number         0  printf4.o ABSOLUTE
    ../clib/microlib/printf/printf.c         0x00000000   Number         0  printf1.o ABSOLUTE
    ../clib/microlib/printf/printf.c         0x00000000   Number         0  printf2.o ABSOLUTE
    ../clib/microlib/printf/printf.c         0x00000000   Number         0  printf3.o ABSOLUTE
    ../clib/microlib/printf/printf.c         0x00000000   Number         0  printf8.o ABSOLUTE
    ../clib/microlib/printf/printf.c         0x00000000   Number         0  printf6.o ABSOLUTE
    ../clib/microlib/printf/printf.c         0x00000000   Number         0  printf0.o ABSOLUTE
    ../clib/microlib/printf/printf.c         0x00000000   Number         0  printfb.o ABSOLUTE
    ../clib/microlib/printf/printf.c         0x00000000   Number         0  printf7.o ABSOLUTE
    ../clib/microlib/printf/stubs.s          0x00000000   Number         0  stubs.o ABSOLUTE
    ../clib/microlib/stdio/streams.c         0x00000000   Number         0  stdout.o ABSOLUTE
    ../clib/microlib/string/memcpy.c         0x00000000   Number         0  memcpya.o ABSOLUTE
    ../clib/microlib/string/memcpy.c         0x00000000   Number         0  memcpyb.o ABSOLUTE
    ../clib/microlib/string/memset.c         0x00000000   Number         0  memseta.o ABSOLUTE
    ../clib/microlib/stubs.s                 0x00000000   Number         0  iusefp.o ABSOLUTE
    ../fplib/microlib/fpadd.c                0x00000000   Number         0  dadd.o ABSOLUTE
    ../fplib/microlib/fpdiv.c                0x00000000   Number         0  ddiv.o ABSOLUTE
    ../fplib/microlib/fpepilogue.c           0x00000000   Number         0  depilogue.o ABSOLUTE
    ../fplib/microlib/fpfix.c                0x00000000   Number         0  dfixul.o ABSOLUTE
    ../fplib/microlib/fpmul.c                0x00000000   Number         0  dmul.o ABSOLUTE
    ..\..\User\uC-CPU\ARM-Cortex-M3\RealView\cpu_a.asm 0x00000000   Number         0  cpu_a.o ABSOLUTE
    ..\..\User\uC-CPU\cpu_core.c             0x00000000   Number         0  cpu_core.o ABSOLUTE
    ..\..\User\uC-LIB\Ports\ARM-Cortex-M3\RealView\lib_mem_a.asm 0x00000000   Number         0  lib_mem_a.o ABSOLUTE
    ..\..\User\uC-LIB\lib_ascii.c            0x00000000   Number         0  lib_ascii.o ABSOLUTE
    ..\..\User\uC-LIB\lib_mem.c              0x00000000   Number         0  lib_mem.o ABSOLUTE
    ..\..\User\uC-LIB\lib_str.c              0x00000000   Number         0  lib_str.o ABSOLUTE
    ..\..\User\uCOS-III\Ports\ARM-Cortex-M3\Generic\RealView\os_cpu_a.s 0x00000000   Number         0  os_cpu_a.o ABSOLUTE
    ..\..\User\uCOS-III\Ports\ARM-Cortex-M3\Generic\RealView\os_cpu_c.c 0x00000000   Number         0  os_cpu_c.o ABSOLUTE
    ..\..\User\uCOS-III\Source\os_cfg_app.c  0x00000000   Number         0  os_cfg_app.o ABSOLUTE
    ..\..\User\uCOS-III\Source\os_core.c     0x00000000   Number         0  os_core.o ABSOLUTE
    ..\..\User\uCOS-III\Source\os_dbg.c      0x00000000   Number         0  os_dbg.o ABSOLUTE
    ..\..\User\uCOS-III\Source\os_flag.c     0x00000000   Number         0  os_flag.o ABSOLUTE
    ..\..\User\uCOS-III\Source\os_int.c      0x00000000   Number         0  os_int.o ABSOLUTE
    ..\..\User\uCOS-III\Source\os_mem.c      0x00000000   Number         0  os_mem.o ABSOLUTE
    ..\..\User\uCOS-III\Source\os_msg.c      0x00000000   Number         0  os_msg.o ABSOLUTE
    ..\..\User\uCOS-III\Source\os_mutex.c    0x00000000   Number         0  os_mutex.o ABSOLUTE
    ..\..\User\uCOS-III\Source\os_prio.c     0x00000000   Number         0  os_prio.o ABSOLUTE
    ..\..\User\uCOS-III\Source\os_q.c        0x00000000   Number         0  os_q.o ABSOLUTE
    ..\..\User\uCOS-III\Source\os_sem.c      0x00000000   Number         0  os_sem.o ABSOLUTE
    ..\..\User\uCOS-III\Source\os_stat.c     0x00000000   Number         0  os_stat.o ABSOLUTE
    ..\..\User\uCOS-III\Source\os_task.c     0x00000000   Number         0  os_task.o ABSOLUTE
    ..\..\User\uCOS-III\Source\os_tick.c     0x00000000   Number         0  os_tick.o ABSOLUTE
    ..\..\User\uCOS-III\Source\os_time.c     0x00000000   Number         0  os_time.o ABSOLUTE
    ..\..\User\uCOS-III\Source\os_tmr.c      0x00000000   Number         0  os_tmr.o ABSOLUTE
    ..\..\User\uCOS-III\Source\os_var.c      0x00000000   Number         0  os_var.o ABSOLUTE
    ..\FW_LIB\startup_stm32f10x_hd.s         0x00000000   Number         0  startup_stm32f10x_hd.o ABSOLUTE
    ..\USER\APP\main.c                       0x00000000   Number         0  main.o ABSOLUTE
    ..\USER\APP\os_app_hooks.c               0x00000000   Number         0  os_app_hooks.o ABSOLUTE
    ..\USER\APP\stm32f10x_it.c               0x00000000   Number         0  stm32f10x_it.o ABSOLUTE
    ..\USER\BSP\Key\bsp_key.c                0x00000000   Number         0  bsp_key.o ABSOLUTE
    ..\USER\BSP\bsp.c                        0x00000000   Number         0  bsp.o ABSOLUTE
    ..\USER\BSP\led\bsp_led.c                0x00000000   Number         0  bsp_led.o ABSOLUTE
    ..\USER\BSP\tftlcd\tftlcd.c              0x00000000   Number         0  tftlcd.o ABSOLUTE
    ..\USER\BSP\usart\bsp_usart1.c           0x00000000   Number         0  bsp_usart1.o ABSOLUTE
    ..\app\HzLib.c                           0x00000000   Number         0  hzlib.o ABSOLUTE
    Libraries\CMSIS\CM3\DeviceSupport\ST\STM32F10x\system_stm32f10x.c 0x00000000   Number         0  system_stm32f10x.o ABSOLUTE
    Libraries\STM32F10x_StdPeriph_Driver\src\stm32f10x_fsmc.c 0x00000000   Number         0  stm32f10x_fsmc.o ABSOLUTE
    Libraries\STM32F10x_StdPeriph_Driver\src\stm32f10x_gpio.c 0x00000000   Number         0  stm32f10x_gpio.o ABSOLUTE
    Libraries\STM32F10x_StdPeriph_Driver\src\stm32f10x_rcc.c 0x00000000   Number         0  stm32f10x_rcc.o ABSOLUTE
    Libraries\STM32F10x_StdPeriph_Driver\src\stm32f10x_usart.c 0x00000000   Number         0  stm32f10x_usart.o ABSOLUTE
    cdrcmple.s                               0x00000000   Number         0  cdrcmple.o ABSOLUTE
    dc.s                                     0x00000000   Number         0  dc.o ABSOLUTE
    handlers.s                               0x00000000   Number         0  handlers.o ABSOLUTE
    init.s                                   0x00000000   Number         0  init.o ABSOLUTE
    RESET                                    0x08000000   Section      304  startup_stm32f10x_hd.o(RESET)
    .ARM.Collect$$$$00000000                 0x08000130   Section        0  entry.o(.ARM.Collect$$$$00000000)
    .ARM.Collect$$$$00000001                 0x08000130   Section        4  entry2.o(.ARM.Collect$$$$00000001)
    .ARM.Collect$$$$00000004                 0x08000134   Section        4  entry5.o(.ARM.Collect$$$$00000004)
    .ARM.Collect$$$$00000008                 0x08000138   Section        0  entry7b.o(.ARM.Collect$$$$00000008)
    .ARM.Collect$$$$0000000A                 0x08000138   Section        0  entry8b.o(.ARM.Collect$$$$0000000A)
    .ARM.Collect$$$$0000000B                 0x08000138   Section        8  entry9a.o(.ARM.Collect$$$$0000000B)
    .ARM.Collect$$$$0000000D                 0x08000140   Section        0  entry10a.o(.ARM.Collect$$$$0000000D)
    .ARM.Collect$$$$0000000F                 0x08000140   Section        0  entry11a.o(.ARM.Collect$$$$0000000F)
    .ARM.Collect$$$$00002712                 0x08000140   Section        4  entry2.o(.ARM.Collect$$$$00002712)
    __lit__00000000                          0x08000140   Data           4  entry2.o(.ARM.Collect$$$$00002712)
    .text                                    0x08000144   Section       36  startup_stm32f10x_hd.o(.text)
    .text                                    0x08000168   Section        0  system_stm32f10x.o(.text)
    SetSysClockTo72                          0x08000169   Thumb Code   212  system_stm32f10x.o(.text)
    SetSysClock                              0x0800023d   Thumb Code     8  system_stm32f10x.o(.text)
    .text                                    0x08000344   Section        0  stm32f10x_gpio.o(.text)
    .text                                    0x0800069c   Section        0  stm32f10x_rcc.o(.text)
    .text                                    0x08000a40   Section        0  stm32f10x_fsmc.o(.text)
    .text                                    0x08001058   Section        0  stm32f10x_usart.o(.text)
    .text                                    0x08001460   Section        0  hzlib.o(.text)
    .text                                    0x08001494   Section       52  cpu_a.o(.text)
    .text                                    0x080014c8   Section        0  memcpya.o(.text)
    .text                                    0x080014ec   Section        0  memseta.o(.text)
    .text                                    0x08001510   Section        0  uidiv.o(.text)
    .text                                    0x0800153c   Section       36  init.o(.text)
    .text                                    0x08001560   Section        0  __dczerorl2.o(.text)
    CODE                                     0x080015b8   Section      132  os_cpu_a.o(CODE)
    i.AppTaskKEY                             0x0800163c   Section        0  main.o(i.AppTaskKEY)
    AppTaskKEY                               0x0800163d   Thumb Code   232  main.o(i.AppTaskKEY)
    i.AppTaskLCD                             0x08001734   Section        0  main.o(i.AppTaskLCD)
    AppTaskLCD                               0x08001735   Thumb Code   492  main.o(i.AppTaskLCD)
    i.AppTaskStart                           0x08001a44   Section        0  main.o(i.AppTaskStart)
    AppTaskStart                             0x08001a45   Thumb Code   178  main.o(i.AppTaskStart)
    i.BSP_CPU_ClkFreq                        0x08001b44   Section        0  bsp.o(i.BSP_CPU_ClkFreq)
    i.BSP_Init                               0x08001b54   Section        0  bsp.o(i.BSP_Init)
    i.BusFault_Handler                       0x08001bac   Section        0  stm32f10x_it.o(i.BusFault_Handler)
    i.CPU_Init                               0x08001bb0   Section        0  cpu_core.o(i.CPU_Init)
    i.CPU_IntDisMeasInit                     0x08001bc0   Section        0  cpu_core.o(i.CPU_IntDisMeasInit)
    CPU_IntDisMeasInit                       0x08001bc1   Thumb Code   104  cpu_core.o(i.CPU_IntDisMeasInit)
    i.CPU_IntDisMeasMaxCalc                  0x08001c44   Section        0  cpu_core.o(i.CPU_IntDisMeasMaxCalc)
    CPU_IntDisMeasMaxCalc                    0x08001c45   Thumb Code    24  cpu_core.o(i.CPU_IntDisMeasMaxCalc)
    i.CPU_IntDisMeasMaxCurGet                0x08001c60   Section        0  cpu_core.o(i.CPU_IntDisMeasMaxCurGet)
    i.CPU_IntDisMeasMaxCurReset              0x08001c8c   Section        0  cpu_core.o(i.CPU_IntDisMeasMaxCurReset)
    i.CPU_IntDisMeasMaxGet                   0x08001cb8   Section        0  cpu_core.o(i.CPU_IntDisMeasMaxGet)
    i.CPU_IntDisMeasStart                    0x08001ce4   Section        0  cpu_core.o(i.CPU_IntDisMeasStart)
    i.CPU_IntDisMeasStop                     0x08001d18   Section        0  cpu_core.o(i.CPU_IntDisMeasStop)
    i.CPU_NameClr                            0x08001d6c   Section        0  cpu_core.o(i.CPU_NameClr)
    i.CPU_NameInit                           0x08001da4   Section        0  cpu_core.o(i.CPU_NameInit)
    CPU_NameInit                             0x08001da5   Thumb Code     8  cpu_core.o(i.CPU_NameInit)
    i.CPU_TS_Init                            0x08001dac   Section        0  cpu_core.o(i.CPU_TS_Init)
    CPU_TS_Init                              0x08001dad   Thumb Code    14  cpu_core.o(i.CPU_TS_Init)
    i.CPU_TS_TmrFreqSet                      0x08001dc0   Section        0  cpu_core.o(i.CPU_TS_TmrFreqSet)
    i.CPU_TS_TmrInit                         0x08001dcc   Section        0  bsp.o(i.CPU_TS_TmrInit)
    i.CPU_TS_TmrRd                           0x08001e00   Section        0  bsp.o(i.CPU_TS_TmrRd)
    i.DebugMon_Handler                       0x08001e0c   Section        0  stm32f10x_it.o(i.DebugMon_Handler)
    i.GUI_Chinese                            0x08001e0e   Section        0  tftlcd.o(i.GUI_Chinese)
    i.HardFault_Handler                      0x08001e70   Section        0  stm32f10x_it.o(i.HardFault_Handler)
    i.Key1_Config                            0x08001e74   Section        0  bsp_key.o(i.Key1_Config)
    Key1_Config                              0x08001e75   Thumb Code    32  bsp_key.o(i.Key1_Config)
    i.Key2_Config                            0x08001e98   Section        0  bsp_key.o(i.Key2_Config)
    Key2_Config                              0x08001e99   Thumb Code    32  bsp_key.o(i.Key2_Config)
    i.Key3_Config                            0x08001ebc   Section        0  bsp_key.o(i.Key3_Config)
    Key3_Config                              0x08001ebd   Thumb Code    32  bsp_key.o(i.Key3_Config)
    i.Key_Initial                            0x08001ee0   Section        0  bsp_key.o(i.Key_Initial)
    i.Key_UP_Config                          0x08001ef4   Section        0  bsp_key.o(i.Key_UP_Config)
    Key_UP_Config                            0x08001ef5   Thumb Code    32  bsp_key.o(i.Key_UP_Config)
    i.LCD_Clear                              0x08001f18   Section        0  tftlcd.o(i.LCD_Clear)
    i.LCD_Display_Dir                        0x08001f60   Section        0  tftlcd.o(i.LCD_Display_Dir)
    i.LCD_DrawFRONT_COLOR                    0x08001fac   Section        0  tftlcd.o(i.LCD_DrawFRONT_COLOR)
    i.LCD_ReadData                           0x08001fc8   Section        0  tftlcd.o(i.LCD_ReadData)
    i.LCD_Set_Window                         0x08001fd4   Section        0  tftlcd.o(i.LCD_Set_Window)
    i.LCD_ShowChar                           0x08002020   Section        0  tftlcd.o(i.LCD_ShowChar)
    i.LCD_WriteCmd                           0x08002148   Section        0  tftlcd.o(i.LCD_WriteCmd)
    i.LCD_WriteData                          0x08002154   Section        0  tftlcd.o(i.LCD_WriteData)
    i.LCD_WriteData_Color                    0x08002160   Section        0  tftlcd.o(i.LCD_WriteData_Color)
    i.LED_GPIO_Config                        0x0800216c   Section        0  bsp_led.o(i.LED_GPIO_Config)
    LED_GPIO_Config                          0x0800216d   Thumb Code    82  bsp_led.o(i.LED_GPIO_Config)
    i.LED_Init                               0x080021c4   Section        0  bsp_led.o(i.LED_Init)
    i.MemManage_Handler                      0x08002210   Section        0  stm32f10x_it.o(i.MemManage_Handler)
    i.Mem_Clr                                0x08002214   Section        0  lib_mem.o(i.Mem_Clr)
    i.Mem_Init                               0x08002228   Section        0  lib_mem.o(i.Mem_Init)
    i.Mem_Set                                0x08002270   Section        0  lib_mem.o(i.Mem_Set)
    i.NMI_Handler                            0x080022d2   Section        0  stm32f10x_it.o(i.NMI_Handler)
    i.OSCfg_Init                             0x080022d4   Section        0  os_cfg_app.o(i.OSCfg_Init)
    i.OSIdleTaskHook                         0x080022d8   Section        0  os_cpu_c.o(i.OSIdleTaskHook)
    i.OSInit                                 0x080022ec   Section        0  os_core.o(i.OSInit)
    i.OSInitHook                             0x08002478   Section        0  os_cpu_c.o(i.OSInitHook)
    i.OSIntExit                              0x080024b0   Section        0  os_core.o(i.OSIntExit)
    i.OSSched                                0x08002594   Section        0  os_core.o(i.OSSched)
    i.OSSchedLock                            0x0800263c   Section        0  os_core.o(i.OSSchedLock)
    i.OSSchedRoundRobinCfg                   0x080026b8   Section        0  os_core.o(i.OSSchedRoundRobinCfg)
    i.OSSchedUnlock                          0x08002724   Section        0  os_core.o(i.OSSchedUnlock)
    i.OSSemCreate                            0x080027c4   Section        0  os_sem.o(i.OSSemCreate)
    i.OSSemPend                              0x080028a8   Section        0  os_sem.o(i.OSSemPend)
    i.OSSemPost                              0x08002ac4   Section        0  os_sem.o(i.OSSemPost)
    i.OSStart                                0x08002b5c   Section        0  os_core.o(i.OSStart)
    i.OSStatReset                            0x08002bc4   Section        0  os_stat.o(i.OSStatReset)
    i.OSStatTaskCPUUsageInit                 0x08002d2c   Section        0  os_stat.o(i.OSStatTaskCPUUsageInit)
    i.OSStatTaskHook                         0x08002e2c   Section        0  os_cpu_c.o(i.OSStatTaskHook)
    i.OSTaskCreate                           0x08002e40   Section        0  os_task.o(i.OSTaskCreate)
    i.OSTaskCreateHook                       0x080030d4   Section        0  os_cpu_c.o(i.OSTaskCreateHook)
    i.OSTaskDel                              0x080030ec   Section        0  os_task.o(i.OSTaskDel)
    i.OSTaskDelHook                          0x080032f4   Section        0  os_cpu_c.o(i.OSTaskDelHook)
    i.OSTaskResume                           0x0800330c   Section        0  os_task.o(i.OSTaskResume)
    i.OSTaskReturnHook                       0x08003394   Section        0  os_cpu_c.o(i.OSTaskReturnHook)
    i.OSTaskSemPend                          0x080033ac   Section        0  os_task.o(i.OSTaskSemPend)
    i.OSTaskStkChk                           0x080035fc   Section        0  os_task.o(i.OSTaskStkChk)
    i.OSTaskStkInit                          0x080036e0   Section        0  os_cpu_c.o(i.OSTaskStkInit)
    i.OSTaskSuspend                          0x080037a0   Section        0  os_task.o(i.OSTaskSuspend)
    i.OSTaskSwHook                           0x08003800   Section        0  os_cpu_c.o(i.OSTaskSwHook)
    i.OSTimeDly                              0x080038a4   Section        0  os_time.o(i.OSTimeDly)
    i.OSTimeTick                             0x080039f4   Section        0  os_time.o(i.OSTimeTick)
    i.OSTimeTickHook                         0x08003a38   Section        0  os_cpu_c.o(i.OSTimeTickHook)
    i.OS_CPU_SysTickHandler                  0x08003a4c   Section        0  os_cpu_c.o(i.OS_CPU_SysTickHandler)
    i.OS_CPU_SysTickInit                     0x08003a8c   Section        0  os_cpu_c.o(i.OS_CPU_SysTickInit)
    i.OS_Dbg_Init                            0x08003abc   Section        0  os_dbg.o(i.OS_Dbg_Init)
    i.OS_FlagInit                            0x08003c70   Section        0  os_flag.o(i.OS_FlagInit)
    i.OS_FlagPost                            0x08003c88   Section        0  os_flag.o(i.OS_FlagPost)
    i.OS_FlagTaskRdy                         0x08003f04   Section        0  os_flag.o(i.OS_FlagTaskRdy)
    i.OS_IdleTask                            0x08003f5c   Section        0  os_core.o(i.OS_IdleTask)
    i.OS_IdleTaskInit                        0x08003fa8   Section        0  os_core.o(i.OS_IdleTaskInit)
    i.OS_IntQPost                            0x08004018   Section        0  os_int.o(i.OS_IntQPost)
    i.OS_IntQRePost                          0x0800411c   Section        0  os_int.o(i.OS_IntQRePost)
    i.OS_IntQTask                            0x080042c0   Section        0  os_int.o(i.OS_IntQTask)
    i.OS_IntQTaskInit                        0x08004388   Section        0  os_int.o(i.OS_IntQTaskInit)
    i.OS_MemInit                             0x080044b0   Section        0  os_mem.o(i.OS_MemInit)
    i.OS_MsgPoolInit                         0x080044c8   Section        0  os_msg.o(i.OS_MsgPoolInit)
    i.OS_MsgQFreeAll                         0x08004544   Section        0  os_msg.o(i.OS_MsgQFreeAll)
    i.OS_MsgQInit                            0x08004588   Section        0  os_msg.o(i.OS_MsgQInit)
    i.OS_MsgQPut                             0x08004598   Section        0  os_msg.o(i.OS_MsgQPut)
    i.OS_MutexInit                           0x0800469c   Section        0  os_mutex.o(i.OS_MutexInit)
    i.OS_Pend                                0x080046b4   Section        0  os_core.o(i.OS_Pend)
    i.OS_PendDataInit                        0x0800471c   Section        0  os_core.o(i.OS_PendDataInit)
    i.OS_PendDbgNameAdd                      0x08004744   Section        0  os_core.o(i.OS_PendDbgNameAdd)
    i.OS_PendDbgNameRemove                   0x080047a0   Section        0  os_core.o(i.OS_PendDbgNameRemove)
    i.OS_PendListInit                        0x080047c4   Section        0  os_core.o(i.OS_PendListInit)
    i.OS_PendListInsertPrio                  0x080047ce   Section        0  os_core.o(i.OS_PendListInsertPrio)
    i.OS_PendListRemove                      0x08004834   Section        0  os_core.o(i.OS_PendListRemove)
    i.OS_PendListRemove1                     0x08004864   Section        0  os_core.o(i.OS_PendListRemove1)
    i.OS_Post                                0x080048a6   Section        0  os_core.o(i.OS_Post)
    i.OS_Post1                               0x08004966   Section        0  os_core.o(i.OS_Post1)
    i.OS_PrioGetHighest                      0x08004990   Section        0  os_prio.o(i.OS_PrioGetHighest)
    i.OS_PrioInit                            0x080049b8   Section        0  os_prio.o(i.OS_PrioInit)
    i.OS_PrioInsert                          0x080049d0   Section        0  os_prio.o(i.OS_PrioInsert)
    i.OS_PrioRemove                          0x080049f4   Section        0  os_prio.o(i.OS_PrioRemove)
    i.OS_QInit                               0x08004a18   Section        0  os_q.o(i.OS_QInit)
    i.OS_QPost                               0x08004a30   Section        0  os_q.o(i.OS_QPost)
    i.OS_RdyListInit                         0x08004bb8   Section        0  os_core.o(i.OS_RdyListInit)
    i.OS_RdyListInsert                       0x08004bdc   Section        0  os_core.o(i.OS_RdyListInsert)
    i.OS_RdyListInsertHead                   0x08004c08   Section        0  os_core.o(i.OS_RdyListInsertHead)
    i.OS_RdyListInsertTail                   0x08004c48   Section        0  os_core.o(i.OS_RdyListInsertTail)
    i.OS_RdyListMoveHeadToTail               0x08004c84   Section        0  os_core.o(i.OS_RdyListMoveHeadToTail)
    i.OS_RdyListRemove                       0x08004cc8   Section        0  os_core.o(i.OS_RdyListRemove)
    i.OS_Sched0                              0x08004d24   Section        0  os_core.o(i.OS_Sched0)
    i.OS_SchedLockTimeMeasStart              0x08004d80   Section        0  os_core.o(i.OS_SchedLockTimeMeasStart)
    i.OS_SchedLockTimeMeasStop               0x08004d9c   Section        0  os_core.o(i.OS_SchedLockTimeMeasStop)
    i.OS_SchedRoundRobin                     0x08004dd8   Section        0  os_core.o(i.OS_SchedRoundRobin)
    i.OS_SemDbgListAdd                       0x08004ec4   Section        0  os_sem.o(i.OS_SemDbgListAdd)
    i.OS_SemInit                             0x08004ef4   Section        0  os_sem.o(i.OS_SemInit)
    i.OS_SemPost                             0x08004f0c   Section        0  os_sem.o(i.OS_SemPost)
    i.OS_StatTask                            0x080050a4   Section        0  os_stat.o(i.OS_StatTask)
    i.OS_StatTaskInit                        0x0800545c   Section        0  os_stat.o(i.OS_StatTaskInit)
    i.OS_TaskBlock                           0x08005528   Section        0  os_core.o(i.OS_TaskBlock)
    i.OS_TaskDbgListAdd                      0x08005560   Section        0  os_task.o(i.OS_TaskDbgListAdd)
    i.OS_TaskDbgListRemove                   0x08005590   Section        0  os_task.o(i.OS_TaskDbgListRemove)
    i.OS_TaskInit                            0x080055d4   Section        0  os_task.o(i.OS_TaskInit)
    i.OS_TaskInitTCB                         0x080055f4   Section        0  os_task.o(i.OS_TaskInitTCB)
    i.OS_TaskQPost                           0x080056c4   Section        0  os_task.o(i.OS_TaskQPost)
    i.OS_TaskRdy                             0x08005930   Section        0  os_core.o(i.OS_TaskRdy)
    i.OS_TaskResume                          0x0800594c   Section        0  os_task.o(i.OS_TaskResume)
    i.OS_TaskReturn                          0x08005ac8   Section        0  os_task.o(i.OS_TaskReturn)
    i.OS_TaskSemPost                         0x08005ae0   Section        0  os_task.o(i.OS_TaskSemPost)
    i.OS_TaskSuspend                         0x08006088   Section        0  os_task.o(i.OS_TaskSuspend)
    i.OS_TickListInit                        0x08006218   Section        0  os_tick.o(i.OS_TickListInit)
    i.OS_TickListInsert                      0x08006240   Section        0  os_tick.o(i.OS_TickListInsert)
    i.OS_TickListRemove                      0x080063fc   Section        0  os_tick.o(i.OS_TickListRemove)
    i.OS_TickListResetPeak                   0x08006434   Section        0  os_tick.o(i.OS_TickListResetPeak)
    i.OS_TickListUpdate                      0x08006458   Section        0  os_tick.o(i.OS_TickListUpdate)
    i.OS_TickTask                            0x08006678   Section        0  os_tick.o(i.OS_TickTask)
    i.OS_TickTaskInit                        0x080066a4   Section        0  os_tick.o(i.OS_TickTaskInit)
    i.OS_TmrInit                             0x0800675c   Section        0  os_tmr.o(i.OS_TmrInit)
    i.OS_TmrLink                             0x08006884   Section        0  os_tmr.o(i.OS_TmrLink)
    i.OS_TmrResetPeak                        0x08006954   Section        0  os_tmr.o(i.OS_TmrResetPeak)
    i.OS_TmrTask                             0x08006978   Section        0  os_tmr.o(i.OS_TmrTask)
    i.OS_TmrUnlink                           0x08006a38   Section        0  os_tmr.o(i.OS_TmrUnlink)
    i.Put_Chinese                            0x08006a88   Section        0  tftlcd.o(i.Put_Chinese)
    i.SVC_Handler                            0x08006b00   Section        0  stm32f10x_it.o(i.SVC_Handler)
    i.TFTLCD_FSMC_Init                       0x08006b02   Section        0  tftlcd.o(i.TFTLCD_FSMC_Init)
    i.TFTLCD_GPIO_Init                       0x08006b80   Section        0  tftlcd.o(i.TFTLCD_GPIO_Init)
    i.TFTLCD_Init                            0x08006bf0   Section        0  tftlcd.o(i.TFTLCD_Init)
    i.USARTx_Config                          0x08006d94   Section        0  bsp_usart1.o(i.USARTx_Config)
    i.UsageFault_Handler                     0x08006e14   Section        0  stm32f10x_it.o(i.UsageFault_Handler)
    i.__0sprintf$1                           0x08006e18   Section        0  printf1.o(i.__0sprintf$1)
    i.__scatterload_copy                     0x08006e40   Section       14  handlers.o(i.__scatterload_copy)
    i.__scatterload_null                     0x08006e4e   Section        2  handlers.o(i.__scatterload_null)
    i.__scatterload_zeroinit                 0x08006e50   Section       14  handlers.o(i.__scatterload_zeroinit)
    i._printf_core                           0x08006e60   Section        0  printf1.o(i._printf_core)
    _printf_core                             0x08006e61   Thumb Code   336  printf1.o(i._printf_core)
    i._sputc                                 0x08006fb4   Section        0  printf1.o(i._sputc)
    _sputc                                   0x08006fb5   Thumb Code    10  printf1.o(i._sputc)
    i.delay_ms                               0x08006fbe   Section        0  tftlcd.o(i.delay_ms)
    i.main                                   0x08006fdc   Section        0  main.o(i.main)
    .constdata                               0x0800703c   Section     7142  tftlcd.o(.constdata)
    .constdata                               0x08008c22   Section    216576  hzlib.o(.constdata)
    HzLib                                    0x08008c22   Data       216576  hzlib.o(.constdata)
    .constdata                               0x0803da24   Section      164  os_cfg_app.o(.constdata)
    .constdata                               0x0803dac8   Section      364  os_dbg.o(.constdata)
    .data                                    0x20000000   Section        1  main.o(.data)
    .data                                    0x20000002   Section       12  tftlcd.o(.data)
    .data                                    0x20000010   Section       20  system_stm32f10x.o(.data)
    .data                                    0x20000024   Section       20  stm32f10x_rcc.o(.data)
    APBAHBPrescTable                         0x20000024   Data          16  stm32f10x_rcc.o(.data)
    ADCPrescTable                            0x20000034   Data           4  stm32f10x_rcc.o(.data)
    .data                                    0x20000038   Section       28  cpu_core.o(.data)
    .data                                    0x20000054   Section        4  lib_mem.o(.data)
    .data                                    0x20000058   Section      208  os_var.o(.data)
    .data                                    0x20000128   Section        4  os_cpu_c.o(.data)
    .data                                    0x2000012c   Section        4  os_prio.o(.data)
    .bss                                     0x20000130   Section     5248  main.o(.bss)
    AppTaskStartStk                          0x20000158   Data         512  main.o(.bss)
    AppTaskStartTCB                          0x20000358   Data         200  main.o(.bss)
    AppTaskKEYStk                            0x20000420   Data        2048  main.o(.bss)
    AppTaskKEYTCB                            0x20000c20   Data         200  main.o(.bss)
    AppTaskLCDStk                            0x20000ce8   Data        2048  main.o(.bss)
    AppTaskLCDTCB                            0x200014e8   Data         200  main.o(.bss)
    .bss                                     0x200015b0   Section       16  cpu_core.o(.bss)
    .bss                                     0x200015c0   Section    27720  lib_mem.o(.bss)
    .bss                                     0x20008208   Section     5264  os_cfg_app.o(.bss)
    .bss                                     0x20009698   Section     1396  os_var.o(.bss)
    STACK                                    0x20009c10   Section     1024  startup_stm32f10x_hd.o(STACK)

    Global Symbols

    Symbol Name                              Value     Ov Type        Size  Object(Section)

    BuildAttributes$$THM_ISAv4$P$D$K$B$S$PE$A:L22UL41UL21$X:L11$S22US41US21$IEEE1$IW$USESV6$~STKCKD$USESV7$~SHL$OSPACE$ROPI$EBA8$MICROLIB$REQ8$PRES8$EABIv2 0x00000000   Number         0  anon$$obj.o ABSOLUTE
    __ARM_use_no_argv                        0x00000000   Number         0  main.o ABSOLUTE
    _printf_a                                0x00000000   Number         0  stubs.o ABSOLUTE
    _printf_c                                0x00000000   Number         0  stubs.o ABSOLUTE
    _printf_charcount                        0x00000000   Number         0  stubs.o ABSOLUTE
    _printf_d                                0x00000000   Number         0  stubs.o ABSOLUTE
    _printf_e                                0x00000000   Number         0  stubs.o ABSOLUTE
    _printf_f                                0x00000000   Number         0  stubs.o ABSOLUTE
    _printf_flags                            0x00000000   Number         0  stubs.o ABSOLUTE
    _printf_fp_dec                           0x00000000   Number         0  stubs.o ABSOLUTE
    _printf_fp_hex                           0x00000000   Number         0  stubs.o ABSOLUTE
    _printf_g                                0x00000000   Number         0  stubs.o ABSOLUTE
    _printf_i                                0x00000000   Number         0  stubs.o ABSOLUTE
    _printf_int_dec                          0x00000000   Number         0  stubs.o ABSOLUTE
    _printf_l                                0x00000000   Number         0  stubs.o ABSOLUTE
    _printf_lc                               0x00000000   Number         0  stubs.o ABSOLUTE
    _printf_ll                               0x00000000   Number         0  stubs.o ABSOLUTE
    _printf_lld                              0x00000000   Number         0  stubs.o ABSOLUTE
    _printf_lli                              0x00000000   Number         0  stubs.o ABSOLUTE
    _printf_llo                              0x00000000   Number         0  stubs.o ABSOLUTE
    _printf_llu                              0x00000000   Number         0  stubs.o ABSOLUTE
    _printf_llx                              0x00000000   Number         0  stubs.o ABSOLUTE
    _printf_longlong_dec                     0x00000000   Number         0  stubs.o ABSOLUTE
    _printf_longlong_hex                     0x00000000   Number         0  stubs.o ABSOLUTE
    _printf_longlong_oct                     0x00000000   Number         0  stubs.o ABSOLUTE
    _printf_ls                               0x00000000   Number         0  stubs.o ABSOLUTE
    _printf_mbtowc                           0x00000000   Number         0  stubs.o ABSOLUTE
    _printf_n                                0x00000000   Number         0  stubs.o ABSOLUTE
    _printf_o                                0x00000000   Number         0  stubs.o ABSOLUTE
    _printf_p                                0x00000000   Number         0  stubs.o ABSOLUTE
    _printf_percent                          0x00000000   Number         0  stubs.o ABSOLUTE
    _printf_pre_padding                      0x00000000   Number         0  stubs.o ABSOLUTE
    _printf_return_value                     0x00000000   Number         0  stubs.o ABSOLUTE
    _printf_s                                0x00000000   Number         0  stubs.o ABSOLUTE
    _printf_sizespec                         0x00000000   Number         0  stubs.o ABSOLUTE
    _printf_str                              0x00000000   Number         0  stubs.o ABSOLUTE
    _printf_truncate_signed                  0x00000000   Number         0  stubs.o ABSOLUTE
    _printf_truncate_unsigned                0x00000000   Number         0  stubs.o ABSOLUTE
    _printf_u                                0x00000000   Number         0  stubs.o ABSOLUTE
    _printf_wc                               0x00000000   Number         0  stubs.o ABSOLUTE
    _printf_wctomb                           0x00000000   Number         0  stubs.o ABSOLUTE
    _printf_widthprec                        0x00000000   Number         0  stubs.o ABSOLUTE
    _printf_x                                0x00000000   Number         0  stubs.o ABSOLUTE
    __cpp_initialize__aeabi_                  - Undefined Weak Reference
    __cxa_finalize                            - Undefined Weak Reference
    _clock_init                               - Undefined Weak Reference
    _microlib_exit                            - Undefined Weak Reference
    __Vectors_Size                           0x00000130   Number         0  startup_stm32f10x_hd.o ABSOLUTE
    __Vectors                                0x08000000   Data           4  startup_stm32f10x_hd.o(RESET)
    __Vectors_End                            0x08000130   Data           0  startup_stm32f10x_hd.o(RESET)
    __main                                   0x08000131   Thumb Code     0  entry.o(.ARM.Collect$$$$00000000)
    _main_stk                                0x08000131   Thumb Code     0  entry2.o(.ARM.Collect$$$$00000001)
    _main_scatterload                        0x08000135   Thumb Code     0  entry5.o(.ARM.Collect$$$$00000004)
    __main_after_scatterload                 0x08000139   Thumb Code     0  entry5.o(.ARM.Collect$$$$00000004)
    _main_clock                              0x08000139   Thumb Code     0  entry7b.o(.ARM.Collect$$$$00000008)
    _main_cpp_init                           0x08000139   Thumb Code     0  entry8b.o(.ARM.Collect$$$$0000000A)
    _main_init                               0x08000139   Thumb Code     0  entry9a.o(.ARM.Collect$$$$0000000B)
    __rt_final_cpp                           0x08000141   Thumb Code     0  entry10a.o(.ARM.Collect$$$$0000000D)
    __rt_final_exit                          0x08000141   Thumb Code     0  entry11a.o(.ARM.Collect$$$$0000000F)
    Reset_Handler                            0x08000145   Thumb Code     8  startup_stm32f10x_hd.o(.text)
    ADC1_2_IRQHandler                        0x0800015f   Thumb Code     0  startup_stm32f10x_hd.o(.text)
    ADC3_IRQHandler                          0x0800015f   Thumb Code     0  startup_stm32f10x_hd.o(.text)
    CAN1_RX1_IRQHandler                      0x0800015f   Thumb Code     0  startup_stm32f10x_hd.o(.text)
    CAN1_SCE_IRQHandler                      0x0800015f   Thumb Code     0  startup_stm32f10x_hd.o(.text)
    DMA1_Channel1_IRQHandler                 0x0800015f   Thumb Code     0  startup_stm32f10x_hd.o(.text)
    DMA1_Channel2_IRQHandler                 0x0800015f   Thumb Code     0  startup_stm32f10x_hd.o(.text)
    DMA1_Channel3_IRQHandler                 0x0800015f   Thumb Code     0  startup_stm32f10x_hd.o(.text)
    DMA1_Channel4_IRQHandler                 0x0800015f   Thumb Code     0  startup_stm32f10x_hd.o(.text)
    DMA1_Channel5_IRQHandler                 0x0800015f   Thumb Code     0  startup_stm32f10x_hd.o(.text)
    DMA1_Channel6_IRQHandler                 0x0800015f   Thumb Code     0  startup_stm32f10x_hd.o(.text)
    DMA1_Channel7_IRQHandler                 0x0800015f   Thumb Code     0  startup_stm32f10x_hd.o(.text)
    DMA2_Channel1_IRQHandler                 0x0800015f   Thumb Code     0  startup_stm32f10x_hd.o(.text)
    DMA2_Channel2_IRQHandler                 0x0800015f   Thumb Code     0  startup_stm32f10x_hd.o(.text)
    DMA2_Channel3_IRQHandler                 0x0800015f   Thumb Code     0  startup_stm32f10x_hd.o(.text)
    DMA2_Channel4_5_IRQHandler               0x0800015f   Thumb Code     0  startup_stm32f10x_hd.o(.text)
    EXTI0_IRQHandler                         0x0800015f   Thumb Code     0  startup_stm32f10x_hd.o(.text)
    EXTI15_10_IRQHandler                     0x0800015f   Thumb Code     0  startup_stm32f10x_hd.o(.text)
    EXTI1_IRQHandler                         0x0800015f   Thumb Code     0  startup_stm32f10x_hd.o(.text)
    EXTI2_IRQHandler                         0x0800015f   Thumb Code     0  startup_stm32f10x_hd.o(.text)
    EXTI3_IRQHandler                         0x0800015f   Thumb Code     0  startup_stm32f10x_hd.o(.text)
    EXTI4_IRQHandler                         0x0800015f   Thumb Code     0  startup_stm32f10x_hd.o(.text)
    EXTI9_5_IRQHandler                       0x0800015f   Thumb Code     0  startup_stm32f10x_hd.o(.text)
    FLASH_IRQHandler                         0x0800015f   Thumb Code     0  startup_stm32f10x_hd.o(.text)
    FSMC_IRQHandler                          0x0800015f   Thumb Code     0  startup_stm32f10x_hd.o(.text)
    I2C1_ER_IRQHandler                       0x0800015f   Thumb Code     0  startup_stm32f10x_hd.o(.text)
    I2C1_EV_IRQHandler                       0x0800015f   Thumb Code     0  startup_stm32f10x_hd.o(.text)
    I2C2_ER_IRQHandler                       0x0800015f   Thumb Code     0  startup_stm32f10x_hd.o(.text)
    I2C2_EV_IRQHandler                       0x0800015f   Thumb Code     0  startup_stm32f10x_hd.o(.text)
    PVD_IRQHandler                           0x0800015f   Thumb Code     0  startup_stm32f10x_hd.o(.text)
    RCC_IRQHandler                           0x0800015f   Thumb Code     0  startup_stm32f10x_hd.o(.text)
    RTCAlarm_IRQHandler                      0x0800015f   Thumb Code     0  startup_stm32f10x_hd.o(.text)
    RTC_IRQHandler                           0x0800015f   Thumb Code     0  startup_stm32f10x_hd.o(.text)
    SDIO_IRQHandler                          0x0800015f   Thumb Code     0  startup_stm32f10x_hd.o(.text)
    SPI1_IRQHandler                          0x0800015f   Thumb Code     0  startup_stm32f10x_hd.o(.text)
    SPI2_IRQHandler                          0x0800015f   Thumb Code     0  startup_stm32f10x_hd.o(.text)
    SPI3_IRQHandler                          0x0800015f   Thumb Code     0  startup_stm32f10x_hd.o(.text)
    TAMPER_IRQHandler                        0x0800015f   Thumb Code     0  startup_stm32f10x_hd.o(.text)
    TIM1_BRK_IRQHandler                      0x0800015f   Thumb Code     0  startup_stm32f10x_hd.o(.text)
    TIM1_CC_IRQHandler                       0x0800015f   Thumb Code     0  startup_stm32f10x_hd.o(.text)
    TIM1_TRG_COM_IRQHandler                  0x0800015f   Thumb Code     0  startup_stm32f10x_hd.o(.text)
    TIM1_UP_IRQHandler                       0x0800015f   Thumb Code     0  startup_stm32f10x_hd.o(.text)
    TIM2_IRQHandler                          0x0800015f   Thumb Code     0  startup_stm32f10x_hd.o(.text)
    TIM3_IRQHandler                          0x0800015f   Thumb Code     0  startup_stm32f10x_hd.o(.text)
    TIM4_IRQHandler                          0x0800015f   Thumb Code     0  startup_stm32f10x_hd.o(.text)
    TIM5_IRQHandler                          0x0800015f   Thumb Code     0  startup_stm32f10x_hd.o(.text)
    TIM6_IRQHandler                          0x0800015f   Thumb Code     0  startup_stm32f10x_hd.o(.text)
    TIM7_IRQHandler                          0x0800015f   Thumb Code     0  startup_stm32f10x_hd.o(.text)
    TIM8_BRK_IRQHandler                      0x0800015f   Thumb Code     0  startup_stm32f10x_hd.o(.text)
    TIM8_CC_IRQHandler                       0x0800015f   Thumb Code     0  startup_stm32f10x_hd.o(.text)
    TIM8_TRG_COM_IRQHandler                  0x0800015f   Thumb Code     0  startup_stm32f10x_hd.o(.text)
    TIM8_UP_IRQHandler                       0x0800015f   Thumb Code     0  startup_stm32f10x_hd.o(.text)
    UART4_IRQHandler                         0x0800015f   Thumb Code     0  startup_stm32f10x_hd.o(.text)
    UART5_IRQHandler                         0x0800015f   Thumb Code     0  startup_stm32f10x_hd.o(.text)
    USART1_IRQHandler                        0x0800015f   Thumb Code     0  startup_stm32f10x_hd.o(.text)
    USART2_IRQHandler                        0x0800015f   Thumb Code     0  startup_stm32f10x_hd.o(.text)
    USART3_IRQHandler                        0x0800015f   Thumb Code     0  startup_stm32f10x_hd.o(.text)
    USBWakeUp_IRQHandler                     0x0800015f   Thumb Code     0  startup_stm32f10x_hd.o(.text)
    USB_HP_CAN1_TX_IRQHandler                0x0800015f   Thumb Code     0  startup_stm32f10x_hd.o(.text)
    USB_LP_CAN1_RX0_IRQHandler               0x0800015f   Thumb Code     0  startup_stm32f10x_hd.o(.text)
    WWDG_IRQHandler                          0x0800015f   Thumb Code     0  startup_stm32f10x_hd.o(.text)
    SystemInit                               0x08000245   Thumb Code    78  system_stm32f10x.o(.text)
    SystemCoreClockUpdate                    0x08000293   Thumb Code   142  system_stm32f10x.o(.text)
    GPIO_DeInit                              0x08000345   Thumb Code   172  stm32f10x_gpio.o(.text)
    GPIO_AFIODeInit                          0x080003f1   Thumb Code    20  stm32f10x_gpio.o(.text)
    GPIO_Init                                0x08000405   Thumb Code   274  stm32f10x_gpio.o(.text)
    GPIO_StructInit                          0x08000517   Thumb Code    16  stm32f10x_gpio.o(.text)
    GPIO_ReadInputDataBit                    0x08000527   Thumb Code    18  stm32f10x_gpio.o(.text)
    GPIO_ReadInputData                       0x08000539   Thumb Code     8  stm32f10x_gpio.o(.text)
    GPIO_ReadOutputDataBit                   0x08000541   Thumb Code    18  stm32f10x_gpio.o(.text)
    GPIO_ReadOutputData                      0x08000553   Thumb Code     8  stm32f10x_gpio.o(.text)
    GPIO_SetBits                             0x0800055b   Thumb Code     4  stm32f10x_gpio.o(.text)
    GPIO_ResetBits                           0x0800055f   Thumb Code     4  stm32f10x_gpio.o(.text)
    GPIO_WriteBit                            0x08000563   Thumb Code    10  stm32f10x_gpio.o(.text)
    GPIO_Write                               0x0800056d   Thumb Code     4  stm32f10x_gpio.o(.text)
    GPIO_PinLockConfig                       0x08000571   Thumb Code    18  stm32f10x_gpio.o(.text)
    GPIO_EventOutputConfig                   0x08000583   Thumb Code    26  stm32f10x_gpio.o(.text)
    GPIO_EventOutputCmd                      0x0800059d   Thumb Code     6  stm32f10x_gpio.o(.text)
    GPIO_PinRemapConfig                      0x080005a3   Thumb Code   138  stm32f10x_gpio.o(.text)
    GPIO_EXTILineConfig                      0x0800062d   Thumb Code    66  stm32f10x_gpio.o(.text)
    GPIO_ETH_MediaInterfaceConfig            0x0800066f   Thumb Code     6  stm32f10x_gpio.o(.text)
    RCC_DeInit                               0x0800069d   Thumb Code    64  stm32f10x_rcc.o(.text)
    RCC_HSEConfig                            0x080006dd   Thumb Code    70  stm32f10x_rcc.o(.text)
    RCC_GetFlagStatus                        0x08000723   Thumb Code    56  stm32f10x_rcc.o(.text)
    RCC_WaitForHSEStartUp                    0x0800075b   Thumb Code    56  stm32f10x_rcc.o(.text)
    RCC_AdjustHSICalibrationValue            0x08000793   Thumb Code    20  stm32f10x_rcc.o(.text)
    RCC_HSICmd                               0x080007a7   Thumb Code     6  stm32f10x_rcc.o(.text)
    RCC_PLLConfig                            0x080007ad   Thumb Code    24  stm32f10x_rcc.o(.text)
    RCC_PLLCmd                               0x080007c5   Thumb Code     6  stm32f10x_rcc.o(.text)
    RCC_SYSCLKConfig                         0x080007cb   Thumb Code    18  stm32f10x_rcc.o(.text)
    RCC_GetSYSCLKSource                      0x080007dd   Thumb Code    10  stm32f10x_rcc.o(.text)
    RCC_HCLKConfig                           0x080007e7   Thumb Code    18  stm32f10x_rcc.o(.text)
    RCC_PCLK1Config                          0x080007f9   Thumb Code    18  stm32f10x_rcc.o(.text)
    RCC_PCLK2Config                          0x0800080b   Thumb Code    20  stm32f10x_rcc.o(.text)
    RCC_ITConfig                             0x0800081f   Thumb Code    26  stm32f10x_rcc.o(.text)
    RCC_USBCLKConfig                         0x08000839   Thumb Code     6  stm32f10x_rcc.o(.text)
    RCC_ADCCLKConfig                         0x0800083f   Thumb Code    18  stm32f10x_rcc.o(.text)
    RCC_LSEConfig                            0x08000851   Thumb Code    44  stm32f10x_rcc.o(.text)
    RCC_LSICmd                               0x0800087d   Thumb Code     6  stm32f10x_rcc.o(.text)
    RCC_RTCCLKConfig                         0x08000883   Thumb Code    12  stm32f10x_rcc.o(.text)
    RCC_RTCCLKCmd                            0x0800088f   Thumb Code     8  stm32f10x_rcc.o(.text)
    RCC_GetClocksFreq                        0x08000897   Thumb Code   192  stm32f10x_rcc.o(.text)
    RCC_AHBPeriphClockCmd                    0x08000957   Thumb Code    26  stm32f10x_rcc.o(.text)
    RCC_APB2PeriphClockCmd                   0x08000971   Thumb Code    26  stm32f10x_rcc.o(.text)
    RCC_APB1PeriphClockCmd                   0x0800098b   Thumb Code    26  stm32f10x_rcc.o(.text)
    RCC_APB2PeriphResetCmd                   0x080009a5   Thumb Code    26  stm32f10x_rcc.o(.text)
    RCC_APB1PeriphResetCmd                   0x080009bf   Thumb Code    26  stm32f10x_rcc.o(.text)
    RCC_BackupResetCmd                       0x080009d9   Thumb Code     8  stm32f10x_rcc.o(.text)
    RCC_ClockSecuritySystemCmd               0x080009e1   Thumb Code     6  stm32f10x_rcc.o(.text)
    RCC_MCOConfig                            0x080009e7   Thumb Code     6  stm32f10x_rcc.o(.text)
    RCC_ClearFlag                            0x080009ed   Thumb Code    14  stm32f10x_rcc.o(.text)
    RCC_GetITStatus                          0x080009fb   Thumb Code    20  stm32f10x_rcc.o(.text)
    RCC_ClearITPendingBit                    0x08000a0f   Thumb Code     6  stm32f10x_rcc.o(.text)
    FSMC_NORSRAMDeInit                       0x08000a41   Thumb Code    56  stm32f10x_fsmc.o(.text)
    FSMC_NANDDeInit                          0x08000a79   Thumb Code    62  stm32f10x_fsmc.o(.text)
    FSMC_PCCARDDeInit                        0x08000ab7   Thumb Code    40  stm32f10x_fsmc.o(.text)
    FSMC_NORSRAMInit                         0x08000adf   Thumb Code   224  stm32f10x_fsmc.o(.text)
    FSMC_NANDInit                            0x08000bbf   Thumb Code   130  stm32f10x_fsmc.o(.text)
    FSMC_PCCARDInit                          0x08000c41   Thumb Code   124  stm32f10x_fsmc.o(.text)
    FSMC_NORSRAMStructInit                   0x08000cbd   Thumb Code   114  stm32f10x_fsmc.o(.text)
    FSMC_NANDStructInit                      0x08000d2f   Thumb Code    54  stm32f10x_fsmc.o(.text)
    FSMC_PCCARDStructInit                    0x08000d65   Thumb Code    60  stm32f10x_fsmc.o(.text)
    FSMC_NORSRAMCmd                          0x08000da1   Thumb Code    46  stm32f10x_fsmc.o(.text)
    FSMC_NANDCmd                             0x08000dcf   Thumb Code    86  stm32f10x_fsmc.o(.text)
    FSMC_PCCARDCmd                           0x08000e25   Thumb Code    40  stm32f10x_fsmc.o(.text)
    FSMC_NANDECCCmd                          0x08000e4d   Thumb Code   118  stm32f10x_fsmc.o(.text)
    FSMC_GetECC                              0x08000ec3   Thumb Code    22  stm32f10x_fsmc.o(.text)
    FSMC_ITConfig                            0x08000ed9   Thumb Code   128  stm32f10x_fsmc.o(.text)
    FSMC_GetFlagStatus                       0x08000f59   Thumb Code    48  stm32f10x_fsmc.o(.text)
    FSMC_ClearFlag                           0x08000f89   Thumb Code    62  stm32f10x_fsmc.o(.text)
    FSMC_GetITStatus                         0x08000fc7   Thumb Code    60  stm32f10x_fsmc.o(.text)
    FSMC_ClearITPendingBit                   0x08001003   Thumb Code    64  stm32f10x_fsmc.o(.text)
    USART_DeInit                             0x08001059   Thumb Code   134  stm32f10x_usart.o(.text)
    USART_Init                               0x080010df   Thumb Code   210  stm32f10x_usart.o(.text)
    USART_StructInit                         0x080011b1   Thumb Code    24  stm32f10x_usart.o(.text)
    USART_ClockInit                          0x080011c9   Thumb Code    34  stm32f10x_usart.o(.text)
    USART_ClockStructInit                    0x080011eb   Thumb Code    12  stm32f10x_usart.o(.text)
    USART_Cmd                                0x080011f7   Thumb Code    24  stm32f10x_usart.o(.text)
    USART_ITConfig                           0x0800120f   Thumb Code    74  stm32f10x_usart.o(.text)
    USART_DMACmd                             0x08001259   Thumb Code    18  stm32f10x_usart.o(.text)
    USART_SetAddress                         0x0800126b   Thumb Code    18  stm32f10x_usart.o(.text)
    USART_WakeUpConfig                       0x0800127d   Thumb Code    18  stm32f10x_usart.o(.text)
    USART_ReceiverWakeUpCmd                  0x0800128f   Thumb Code    24  stm32f10x_usart.o(.text)
    USART_LINBreakDetectLengthConfig         0x080012a7   Thumb Code    18  stm32f10x_usart.o(.text)
    USART_LINCmd                             0x080012b9   Thumb Code    24  stm32f10x_usart.o(.text)
    USART_SendData                           0x080012d1   Thumb Code     8  stm32f10x_usart.o(.text)
    USART_ReceiveData                        0x080012d9   Thumb Code    10  stm32f10x_usart.o(.text)
    USART_SendBreak                          0x080012e3   Thumb Code    10  stm32f10x_usart.o(.text)
    USART_SetGuardTime                       0x080012ed   Thumb Code    16  stm32f10x_usart.o(.text)
    USART_SetPrescaler                       0x080012fd   Thumb Code    16  stm32f10x_usart.o(.text)
    USART_SmartCardCmd                       0x0800130d   Thumb Code    24  stm32f10x_usart.o(.text)
    USART_SmartCardNACKCmd                   0x08001325   Thumb Code    24  stm32f10x_usart.o(.text)
    USART_HalfDuplexCmd                      0x0800133d   Thumb Code    24  stm32f10x_usart.o(.text)
    USART_OverSampling8Cmd                   0x08001355   Thumb Code    22  stm32f10x_usart.o(.text)
    USART_OneBitMethodCmd                    0x0800136b   Thumb Code    24  stm32f10x_usart.o(.text)
    USART_IrDAConfig                         0x08001383   Thumb Code    18  stm32f10x_usart.o(.text)
    USART_IrDACmd                            0x08001395   Thumb Code    24  stm32f10x_usart.o(.text)
    USART_GetFlagStatus                      0x080013ad   Thumb Code    26  stm32f10x_usart.o(.text)
    USART_ClearFlag                          0x080013c7   Thumb Code    18  stm32f10x_usart.o(.text)
    USART_GetITStatus                        0x080013d9   Thumb Code    84  stm32f10x_usart.o(.text)
    USART_ClearITPendingBit                  0x0800142d   Thumb Code    52  stm32f10x_usart.o(.text)
    GetGBKCode                               0x08001461   Thumb Code    48  hzlib.o(.text)
    CPU_IntDis                               0x08001495   Thumb Code     0  cpu_a.o(.text)
    CPU_IntEn                                0x08001499   Thumb Code     0  cpu_a.o(.text)
    CPU_SR_Save                              0x0800149d   Thumb Code     0  cpu_a.o(.text)
    CPU_SR_Restore                           0x080014a5   Thumb Code     0  cpu_a.o(.text)
    CPU_WaitForInt                           0x080014ab   Thumb Code     0  cpu_a.o(.text)
    CPU_WaitForExcept                        0x080014af   Thumb Code     0  cpu_a.o(.text)
    CPU_CntLeadZeros                         0x080014b3   Thumb Code     0  cpu_a.o(.text)
    CPU_CntTrailZeros                        0x080014b9   Thumb Code     0  cpu_a.o(.text)
    CPU_RevBits                              0x080014c3   Thumb Code     0  cpu_a.o(.text)
    __aeabi_memcpy                           0x080014c9   Thumb Code    36  memcpya.o(.text)
    __aeabi_memcpy4                          0x080014c9   Thumb Code     0  memcpya.o(.text)
    __aeabi_memcpy8                          0x080014c9   Thumb Code     0  memcpya.o(.text)
    __aeabi_memset                           0x080014ed   Thumb Code    14  memseta.o(.text)
    __aeabi_memset4                          0x080014ed   Thumb Code     0  memseta.o(.text)
    __aeabi_memset8                          0x080014ed   Thumb Code     0  memseta.o(.text)
    __aeabi_memclr                           0x080014fb   Thumb Code     4  memseta.o(.text)
    __aeabi_memclr4                          0x080014fb   Thumb Code     0  memseta.o(.text)
    __aeabi_memclr8                          0x080014fb   Thumb Code     0  memseta.o(.text)
    _memset$wrapper                          0x080014ff   Thumb Code    18  memseta.o(.text)
    __aeabi_uidiv                            0x08001511   Thumb Code     0  uidiv.o(.text)
    __aeabi_uidivmod                         0x08001511   Thumb Code    44  uidiv.o(.text)
    __scatterload                            0x0800153d   Thumb Code    28  init.o(.text)
    __scatterload_rt2                        0x0800153d   Thumb Code     0  init.o(.text)
    __decompress                             0x08001561   Thumb Code     0  __dczerorl2.o(.text)
    __decompress1                            0x08001561   Thumb Code    86  __dczerorl2.o(.text)
    OSStartHighRdy                           0x080015b9   Thumb Code     0  os_cpu_a.o(CODE)
    OS_CPU_PendSVHandler                     0x080015db   Thumb Code     0  os_cpu_a.o(CODE)
    BSP_CPU_ClkFreq                          0x08001b45   Thumb Code    16  bsp.o(i.BSP_CPU_ClkFreq)
    BSP_Init                                 0x08001b55   Thumb Code    46  bsp.o(i.BSP_Init)
    BusFault_Handler                         0x08001bad   Thumb Code     4  stm32f10x_it.o(i.BusFault_Handler)
    CPU_Init                                 0x08001bb1   Thumb Code    16  cpu_core.o(i.CPU_Init)
    CPU_IntDisMeasMaxCurGet                  0x08001c61   Thumb Code    40  cpu_core.o(i.CPU_IntDisMeasMaxCurGet)
    CPU_IntDisMeasMaxCurReset                0x08001c8d   Thumb Code    40  cpu_core.o(i.CPU_IntDisMeasMaxCurReset)
    CPU_IntDisMeasMaxGet                     0x08001cb9   Thumb Code    40  cpu_core.o(i.CPU_IntDisMeasMaxGet)
    CPU_IntDisMeasStart                      0x08001ce5   Thumb Code    38  cpu_core.o(i.CPU_IntDisMeasStart)
    CPU_IntDisMeasStop                       0x08001d19   Thumb Code    62  cpu_core.o(i.CPU_IntDisMeasStop)
    CPU_NameClr                              0x08001d6d   Thumb Code    50  cpu_core.o(i.CPU_NameClr)
    CPU_TS_TmrFreqSet                        0x08001dc1   Thumb Code     6  cpu_core.o(i.CPU_TS_TmrFreqSet)
    CPU_TS_TmrInit                           0x08001dcd   Thumb Code    44  bsp.o(i.CPU_TS_TmrInit)
    CPU_TS_TmrRd                             0x08001e01   Thumb Code     6  bsp.o(i.CPU_TS_TmrRd)
    DebugMon_Handler                         0x08001e0d   Thumb Code     2  stm32f10x_it.o(i.DebugMon_Handler)
    GUI_Chinese                              0x08001e0f   Thumb Code    98  tftlcd.o(i.GUI_Chinese)
    HardFault_Handler                        0x08001e71   Thumb Code     4  stm32f10x_it.o(i.HardFault_Handler)
    Key_Initial                              0x08001ee1   Thumb Code    20  bsp_key.o(i.Key_Initial)
    LCD_Clear                                0x08001f19   Thumb Code    68  tftlcd.o(i.LCD_Clear)
    LCD_Display_Dir                          0x08001f61   Thumb Code    70  tftlcd.o(i.LCD_Display_Dir)
    LCD_DrawFRONT_COLOR                      0x08001fad   Thumb Code    28  tftlcd.o(i.LCD_DrawFRONT_COLOR)
    LCD_ReadData                             0x08001fc9   Thumb Code     6  tftlcd.o(i.LCD_ReadData)
    LCD_Set_Window                           0x08001fd5   Thumb Code    74  tftlcd.o(i.LCD_Set_Window)
    LCD_ShowChar                             0x08002021   Thumb Code   272  tftlcd.o(i.LCD_ShowChar)
    LCD_WriteCmd                             0x08002149   Thumb Code     6  tftlcd.o(i.LCD_WriteCmd)
    LCD_WriteData                            0x08002155   Thumb Code     6  tftlcd.o(i.LCD_WriteData)
    LCD_WriteData_Color                      0x08002161   Thumb Code     6  tftlcd.o(i.LCD_WriteData_Color)
    LED_Init                                 0x080021c5   Thumb Code    72  bsp_led.o(i.LED_Init)
    MemManage_Handler                        0x08002211   Thumb Code     4  stm32f10x_it.o(i.MemManage_Handler)
    Mem_Clr                                  0x08002215   Thumb Code    18  lib_mem.o(i.Mem_Clr)
    Mem_Init                                 0x08002229   Thumb Code    54  lib_mem.o(i.Mem_Init)
    Mem_Set                                  0x08002271   Thumb Code    98  lib_mem.o(i.Mem_Set)
    NMI_Handler                              0x080022d3   Thumb Code     2  stm32f10x_it.o(i.NMI_Handler)
    OSCfg_Init                               0x080022d5   Thumb Code     2  os_cfg_app.o(i.OSCfg_Init)
    OSIdleTaskHook                           0x080022d9   Thumb Code    16  os_cpu_c.o(i.OSIdleTaskHook)
    OSInit                                   0x080022ed   Thumb Code   300  os_core.o(i.OSInit)
    OSInitHook                               0x08002479   Thumb Code    42  os_cpu_c.o(i.OSInitHook)
    OSIntExit                                0x080024b1   Thumb Code   192  os_core.o(i.OSIntExit)
    OSSched                                  0x08002595   Thumb Code   134  os_core.o(i.OSSched)
    OSSchedLock                              0x0800263d   Thumb Code   112  os_core.o(i.OSSchedLock)
    OSSchedRoundRobinCfg                     0x080026b9   Thumb Code    96  os_core.o(i.OSSchedRoundRobinCfg)
    OSSchedUnlock                            0x08002725   Thumb Code   148  os_core.o(i.OSSchedUnlock)
    OSSemCreate                              0x080027c5   Thumb Code   210  os_sem.o(i.OSSemCreate)
    OSSemPend                                0x080028a9   Thumb Code   524  os_sem.o(i.OSSemPend)
    OSSemPost                                0x08002ac5   Thumb Code   144  os_sem.o(i.OSSemPost)
    OSStart                                  0x08002b5d   Thumb Code    78  os_core.o(i.OSStart)
    OSStatReset                              0x08002bc5   Thumb Code   316  os_stat.o(i.OSStatReset)
    OSStatTaskCPUUsageInit                   0x08002d2d   Thumb Code   228  os_stat.o(i.OSStatTaskCPUUsageInit)
    OSStatTaskHook                           0x08002e2d   Thumb Code    16  os_cpu_c.o(i.OSStatTaskHook)
    OSTaskCreate                             0x08002e41   Thumb Code   624  os_task.o(i.OSTaskCreate)
    OSTaskCreateHook                         0x080030d5   Thumb Code    20  os_cpu_c.o(i.OSTaskCreateHook)
    OSTaskDel                                0x080030ed   Thumb Code   490  os_task.o(i.OSTaskDel)
    OSTaskDelHook                            0x080032f5   Thumb Code    20  os_cpu_c.o(i.OSTaskDelHook)
    OSTaskResume                             0x0800330d   Thumb Code   124  os_task.o(i.OSTaskResume)
    OSTaskReturnHook                         0x08003395   Thumb Code    20  os_cpu_c.o(i.OSTaskReturnHook)
    OSTaskSemPend                            0x080033ad   Thumb Code   578  os_task.o(i.OSTaskSemPend)
    OSTaskStkChk                             0x080035fd   Thumb Code   220  os_task.o(i.OSTaskStkChk)
    OSTaskStkInit                            0x080036e1   Thumb Code   188  os_cpu_c.o(i.OSTaskStkInit)
    OSTaskSuspend                            0x080037a1   Thumb Code    78  os_task.o(i.OSTaskSuspend)
    OSTaskSwHook                             0x08003801   Thumb Code   146  os_cpu_c.o(i.OSTaskSwHook)
    OSTimeDly                                0x080038a5   Thumb Code   322  os_time.o(i.OSTimeDly)
    OSTimeTick                               0x080039f5   Thumb Code    54  os_time.o(i.OSTimeTick)
    OSTimeTickHook                           0x08003a39   Thumb Code    16  os_cpu_c.o(i.OSTimeTickHook)
    OS_CPU_SysTickHandler                    0x08003a4d   Thumb Code    60  os_cpu_c.o(i.OS_CPU_SysTickHandler)
    OS_CPU_SysTickInit                       0x08003a8d   Thumb Code    44  os_cpu_c.o(i.OS_CPU_SysTickInit)
    OS_Dbg_Init                              0x08003abd   Thumb Code   150  os_dbg.o(i.OS_Dbg_Init)
    OS_FlagInit                              0x08003c71   Thumb Code    14  os_flag.o(i.OS_FlagInit)
    OS_FlagPost                              0x08003c89   Thumb Code   626  os_flag.o(i.OS_FlagPost)
    OS_FlagTaskRdy                           0x08003f05   Thumb Code    86  os_flag.o(i.OS_FlagTaskRdy)
    OS_IdleTask                              0x08003f5d   Thumb Code    68  os_core.o(i.OS_IdleTask)
    OS_IdleTaskInit                          0x08003fa9   Thumb Code    66  os_core.o(i.OS_IdleTaskInit)
    OS_IntQPost                              0x08004019   Thumb Code   224  os_int.o(i.OS_IntQPost)
    OS_IntQRePost                            0x0800411d   Thumb Code   360  os_int.o(i.OS_IntQRePost)
    OS_IntQTask                              0x080042c1   Thumb Code   182  os_int.o(i.OS_IntQTask)
    OS_IntQTaskInit                          0x08004389   Thumb Code   206  os_int.o(i.OS_IntQTaskInit)
    OS_MemInit                               0x080044b1   Thumb Code    14  os_mem.o(i.OS_MemInit)
    OS_MsgPoolInit                           0x080044c9   Thumb Code   110  os_msg.o(i.OS_MsgPoolInit)
    OS_MsgQFreeAll                           0x08004545   Thumb Code    62  os_msg.o(i.OS_MsgQFreeAll)
    OS_MsgQInit                              0x08004589   Thumb Code    14  os_msg.o(i.OS_MsgQInit)
    OS_MsgQPut                               0x08004599   Thumb Code   254  os_msg.o(i.OS_MsgQPut)
    OS_MutexInit                             0x0800469d   Thumb Code    14  os_mutex.o(i.OS_MutexInit)
    OS_Pend                                  0x080046b5   Thumb Code    98  os_core.o(i.OS_Pend)
    OS_PendDataInit                          0x0800471d   Thumb Code    38  os_core.o(i.OS_PendDataInit)
    OS_PendDbgNameAdd                        0x08004745   Thumb Code    66  os_core.o(i.OS_PendDbgNameAdd)
    OS_PendDbgNameRemove                     0x080047a1   Thumb Code    30  os_core.o(i.OS_PendDbgNameRemove)
    OS_PendListInit                          0x080047c5   Thumb Code    10  os_core.o(i.OS_PendListInit)
    OS_PendListInsertPrio                    0x080047cf   Thumb Code   102  os_core.o(i.OS_PendListInsertPrio)
    OS_PendListRemove                        0x08004835   Thumb Code    48  os_core.o(i.OS_PendListRemove)
    OS_PendListRemove1                       0x08004865   Thumb Code    66  os_core.o(i.OS_PendListRemove1)
    OS_Post                                  0x080048a7   Thumb Code   192  os_core.o(i.OS_Post)
    OS_Post1                                 0x08004967   Thumb Code    42  os_core.o(i.OS_Post1)
    OS_PrioGetHighest                        0x08004991   Thumb Code    36  os_prio.o(i.OS_PrioGetHighest)
    OS_PrioInit                              0x080049b9   Thumb Code    20  os_prio.o(i.OS_PrioInit)
    OS_PrioInsert                            0x080049d1   Thumb Code    32  os_prio.o(i.OS_PrioInsert)
    OS_PrioRemove                            0x080049f5   Thumb Code    32  os_prio.o(i.OS_PrioRemove)
    OS_QInit                                 0x08004a19   Thumb Code    14  os_q.o(i.OS_QInit)
    OS_QPost                                 0x08004a31   Thumb Code   382  os_q.o(i.OS_QPost)
    OS_RdyListInit                           0x08004bb9   Thumb Code    32  os_core.o(i.OS_RdyListInit)
    OS_RdyListInsert                         0x08004bdd   Thumb Code    40  os_core.o(i.OS_RdyListInsert)
    OS_RdyListInsertHead                     0x08004c09   Thumb Code    58  os_core.o(i.OS_RdyListInsertHead)
    OS_RdyListInsertTail                     0x08004c49   Thumb Code    56  os_core.o(i.OS_RdyListInsertTail)
    OS_RdyListMoveHeadToTail                 0x08004c85   Thumb Code    68  os_core.o(i.OS_RdyListMoveHeadToTail)
    OS_RdyListRemove                         0x08004cc9   Thumb Code    86  os_core.o(i.OS_RdyListRemove)
    OS_Sched0                                0x08004d25   Thumb Code    72  os_core.o(i.OS_Sched0)
    OS_SchedLockTimeMeasStart                0x08004d81   Thumb Code    20  os_core.o(i.OS_SchedLockTimeMeasStart)
    OS_SchedLockTimeMeasStop                 0x08004d9d   Thumb Code    44  os_core.o(i.OS_SchedLockTimeMeasStop)
    OS_SchedRoundRobin                       0x08004dd9   Thumb Code   218  os_core.o(i.OS_SchedRoundRobin)
    OS_SemDbgListAdd                         0x08004ec5   Thumb Code    38  os_sem.o(i.OS_SemDbgListAdd)
    OS_SemInit                               0x08004ef5   Thumb Code    14  os_sem.o(i.OS_SemInit)
    OS_SemPost                               0x08004f0d   Thumb Code   404  os_sem.o(i.OS_SemPost)
    OS_StatTask                              0x080050a5   Thumb Code   878  os_stat.o(i.OS_StatTask)
    OS_StatTaskInit                          0x0800545d   Thumb Code   136  os_stat.o(i.OS_StatTaskInit)
    OS_TaskBlock                             0x08005529   Thumb Code    56  os_core.o(i.OS_TaskBlock)
    OS_TaskDbgListAdd                        0x08005561   Thumb Code    42  os_task.o(i.OS_TaskDbgListAdd)
    OS_TaskDbgListRemove                     0x08005591   Thumb Code    64  os_task.o(i.OS_TaskDbgListRemove)
    OS_TaskInit                              0x080055d5   Thumb Code    18  os_task.o(i.OS_TaskInit)
    OS_TaskInitTCB                           0x080055f5   Thumb Code   194  os_task.o(i.OS_TaskInitTCB)
    OS_TaskQPost                             0x080056c5   Thumb Code   606  os_task.o(i.OS_TaskQPost)
    OS_TaskRdy                               0x08005931   Thumb Code    28  os_core.o(i.OS_TaskRdy)
    OS_TaskResume                            0x0800594d   Thumb Code   374  os_task.o(i.OS_TaskResume)
    OS_TaskReturn                            0x08005ac9   Thumb Code    20  os_task.o(i.OS_TaskReturn)
    OS_TaskSemPost                           0x08005ae1   Thumb Code  1438  os_task.o(i.OS_TaskSemPost)
    OS_TaskSuspend                           0x08006089   Thumb Code   392  os_task.o(i.OS_TaskSuspend)
    OS_TickListInit                          0x08006219   Thumb Code    32  os_tick.o(i.OS_TickListInit)
    OS_TickListInsert                        0x08006241   Thumb Code   430  os_tick.o(i.OS_TickListInsert)
    OS_TickListRemove                        0x080063fd   Thumb Code    56  os_tick.o(i.OS_TickListRemove)
    OS_TickListResetPeak                     0x08006435   Thumb Code    28  os_tick.o(i.OS_TickListResetPeak)
    OS_TickListUpdate                        0x08006459   Thumb Code   520  os_tick.o(i.OS_TickListUpdate)
    OS_TickTask                              0x08006679   Thumb Code    38  os_tick.o(i.OS_TickTask)
    OS_TickTaskInit                          0x080066a5   Thumb Code   128  os_tick.o(i.OS_TickTaskInit)
    OS_TmrInit                               0x0800675d   Thumb Code   206  os_tmr.o(i.OS_TmrInit)
    OS_TmrLink                               0x08006885   Thumb Code   196  os_tmr.o(i.OS_TmrLink)
    OS_TmrResetPeak                          0x08006955   Thumb Code    28  os_tmr.o(i.OS_TmrResetPeak)
    OS_TmrTask                               0x08006979   Thumb Code   176  os_tmr.o(i.OS_TmrTask)
    OS_TmrUnlink                             0x08006a39   Thumb Code    72  os_tmr.o(i.OS_TmrUnlink)
    Put_Chinese                              0x08006a89   Thumb Code   120  tftlcd.o(i.Put_Chinese)
    SVC_Handler                              0x08006b01   Thumb Code     2  stm32f10x_it.o(i.SVC_Handler)
    TFTLCD_FSMC_Init                         0x08006b03   Thumb Code   126  tftlcd.o(i.TFTLCD_FSMC_Init)
    TFTLCD_GPIO_Init                         0x08006b81   Thumb Code    98  tftlcd.o(i.TFTLCD_GPIO_Init)
    TFTLCD_Init                              0x08006bf1   Thumb Code   416  tftlcd.o(i.TFTLCD_Init)
    USARTx_Config                            0x08006d95   Thumb Code   120  bsp_usart1.o(i.USARTx_Config)
    UsageFault_Handler                       0x08006e15   Thumb Code     4  stm32f10x_it.o(i.UsageFault_Handler)
    __0sprintf$1                             0x08006e19   Thumb Code    34  printf1.o(i.__0sprintf$1)
    __1sprintf$1                             0x08006e19   Thumb Code     0  printf1.o(i.__0sprintf$1)
    __2sprintf                               0x08006e19   Thumb Code     0  printf1.o(i.__0sprintf$1)
    __scatterload_copy                       0x08006e41   Thumb Code    14  handlers.o(i.__scatterload_copy)
    __scatterload_null                       0x08006e4f   Thumb Code     2  handlers.o(i.__scatterload_null)
    __scatterload_zeroinit                   0x08006e51   Thumb Code    14  handlers.o(i.__scatterload_zeroinit)
    delay_ms                                 0x08006fbf   Thumb Code    28  tftlcd.o(i.delay_ms)
    main                                     0x08006fdd   Thumb Code    68  main.o(i.main)
    ascii_1206                               0x0800703c   Data        1140  tftlcd.o(.constdata)
    ascii_1608                               0x080074b0   Data        1520  tftlcd.o(.constdata)
    ascii_2412                               0x08007aa0   Data        3420  tftlcd.o(.constdata)
    CnChar32x29                              0x080087fc   Data        1062  tftlcd.o(.constdata)
    OSCfg_IdleTaskStkBasePtr                 0x0803da24   Data           4  os_cfg_app.o(.constdata)
    OSCfg_IdleTaskStkLimit                   0x0803da28   Data           4  os_cfg_app.o(.constdata)
    OSCfg_IdleTaskStkSize                    0x0803da2c   Data           4  os_cfg_app.o(.constdata)
    OSCfg_IdleTaskStkSizeRAM                 0x0803da30   Data           4  os_cfg_app.o(.constdata)
    OSCfg_IntQBasePtr                        0x0803da34   Data           4  os_cfg_app.o(.constdata)
    OSCfg_IntQSize                           0x0803da38   Data           2  os_cfg_app.o(.constdata)
    OSCfg_IntQSizeRAM                        0x0803da3c   Data           4  os_cfg_app.o(.constdata)
    OSCfg_IntQTaskStkBasePtr                 0x0803da40   Data           4  os_cfg_app.o(.constdata)
    OSCfg_IntQTaskStkLimit                   0x0803da44   Data           4  os_cfg_app.o(.constdata)
    OSCfg_IntQTaskStkSize                    0x0803da48   Data           4  os_cfg_app.o(.constdata)
    OSCfg_IntQTaskStkSizeRAM                 0x0803da4c   Data           4  os_cfg_app.o(.constdata)
    OSCfg_ISRStkBasePtr                      0x0803da50   Data           4  os_cfg_app.o(.constdata)
    OSCfg_ISRStkSize                         0x0803da54   Data           4  os_cfg_app.o(.constdata)
    OSCfg_ISRStkSizeRAM                      0x0803da58   Data           4  os_cfg_app.o(.constdata)
    OSCfg_MsgPoolSize                        0x0803da5c   Data           2  os_cfg_app.o(.constdata)
    OSCfg_MsgPoolSizeRAM                     0x0803da60   Data           4  os_cfg_app.o(.constdata)
    OSCfg_MsgPoolBasePtr                     0x0803da64   Data           4  os_cfg_app.o(.constdata)
    OSCfg_StatTaskPrio                       0x0803da68   Data           1  os_cfg_app.o(.constdata)
    OSCfg_StatTaskRate_Hz                    0x0803da6c   Data           4  os_cfg_app.o(.constdata)
    OSCfg_StatTaskStkBasePtr                 0x0803da70   Data           4  os_cfg_app.o(.constdata)
    OSCfg_StatTaskStkLimit                   0x0803da74   Data           4  os_cfg_app.o(.constdata)
    OSCfg_StatTaskStkSize                    0x0803da78   Data           4  os_cfg_app.o(.constdata)
    OSCfg_StatTaskStkSizeRAM                 0x0803da7c   Data           4  os_cfg_app.o(.constdata)
    OSCfg_StkSizeMin                         0x0803da80   Data           4  os_cfg_app.o(.constdata)
    OSCfg_TickRate_Hz                        0x0803da84   Data           4  os_cfg_app.o(.constdata)
    OSCfg_TickTaskPrio                       0x0803da88   Data           1  os_cfg_app.o(.constdata)
    OSCfg_TickTaskStkBasePtr                 0x0803da8c   Data           4  os_cfg_app.o(.constdata)
    OSCfg_TickTaskStkLimit                   0x0803da90   Data           4  os_cfg_app.o(.constdata)
    OSCfg_TickTaskStkSize                    0x0803da94   Data           4  os_cfg_app.o(.constdata)
    OSCfg_TickTaskStkSizeRAM                 0x0803da98   Data           4  os_cfg_app.o(.constdata)
    OSCfg_TickWheelSize                      0x0803da9c   Data           2  os_cfg_app.o(.constdata)
    OSCfg_TickWheelSizeRAM                   0x0803daa0   Data           4  os_cfg_app.o(.constdata)
    OSCfg_TmrTaskPrio                        0x0803daa4   Data           1  os_cfg_app.o(.constdata)
    OSCfg_TmrTaskRate_Hz                     0x0803daa8   Data           4  os_cfg_app.o(.constdata)
    OSCfg_TmrTaskStkBasePtr                  0x0803daac   Data           4  os_cfg_app.o(.constdata)
    OSCfg_TmrTaskStkLimit                    0x0803dab0   Data           4  os_cfg_app.o(.constdata)
    OSCfg_TmrTaskStkSize                     0x0803dab4   Data           4  os_cfg_app.o(.constdata)
    OSCfg_TmrTaskStkSizeRAM                  0x0803dab8   Data           4  os_cfg_app.o(.constdata)
    OSCfg_TmrWheelSize                       0x0803dabc   Data           2  os_cfg_app.o(.constdata)
    OSCfg_TmrWheelSizeRAM                    0x0803dac0   Data           4  os_cfg_app.o(.constdata)
    OSCfg_DataSizeRAM                        0x0803dac4   Data           4  os_cfg_app.o(.constdata)
    OSDbg_DbgEn                              0x0803dac8   Data           1  os_dbg.o(.constdata)
    OSDbg_ArgChkEn                           0x0803dac9   Data           1  os_dbg.o(.constdata)
    OSDbg_AppHooksEn                         0x0803daca   Data           1  os_dbg.o(.constdata)
    OSDbg_EndiannessTest                     0x0803dacc   Data           4  os_dbg.o(.constdata)
    OSDbg_CalledFromISRChkEn                 0x0803dad0   Data           1  os_dbg.o(.constdata)
    OSDbg_FlagEn                             0x0803dad1   Data           1  os_dbg.o(.constdata)
    OSDbg_FlagGrp                            0x0803dad4   Data          40  os_dbg.o(.constdata)
    OSDbg_FlagDelEn                          0x0803dafc   Data           1  os_dbg.o(.constdata)
    OSDbg_FlagModeClrEn                      0x0803dafd   Data           1  os_dbg.o(.constdata)
    OSDbg_FlagPendAbortEn                    0x0803dafe   Data           1  os_dbg.o(.constdata)
    OSDbg_FlagGrpSize                        0x0803db00   Data           2  os_dbg.o(.constdata)
    OSDbg_FlagWidth                          0x0803db02   Data           2  os_dbg.o(.constdata)
    OSDbg_IntQ                               0x0803db04   Data           2  os_dbg.o(.constdata)
    OSDbg_ISRPostDeferredEn                  0x0803db06   Data           1  os_dbg.o(.constdata)
    OSDbg_Mem                                0x0803db08   Data          32  os_dbg.o(.constdata)
    OSDbg_MemEn                              0x0803db28   Data           1  os_dbg.o(.constdata)
    OSDbg_MemSize                            0x0803db2a   Data           2  os_dbg.o(.constdata)
    OSDbg_MsgEn                              0x0803db2c   Data           1  os_dbg.o(.constdata)
    OSDbg_MsgSize                            0x0803db2e   Data           2  os_dbg.o(.constdata)
    OSDbg_MsgPoolSize                        0x0803db30   Data           2  os_dbg.o(.constdata)
    OSDbg_MsgQSize                           0x0803db32   Data           2  os_dbg.o(.constdata)
    OSDbg_Mutex                              0x0803db34   Data          44  os_dbg.o(.constdata)
    OSDbg_MutexEn                            0x0803db60   Data           1  os_dbg.o(.constdata)
    OSDbg_MutexDelEn                         0x0803db61   Data           1  os_dbg.o(.constdata)
    OSDbg_MutexPendAbortEn                   0x0803db62   Data           1  os_dbg.o(.constdata)
    OSDbg_MutexSize                          0x0803db64   Data           2  os_dbg.o(.constdata)
    OSDbg_ObjTypeChkEn                       0x0803db66   Data           1  os_dbg.o(.constdata)
    OSDbg_PendMultiEn                        0x0803db67   Data           1  os_dbg.o(.constdata)
    OSDbg_PendDataSize                       0x0803db68   Data           2  os_dbg.o(.constdata)
    OSDbg_PendListSize                       0x0803db6a   Data           2  os_dbg.o(.constdata)
    OSDbg_PendObjSize                        0x0803db6c   Data           2  os_dbg.o(.constdata)
    OSDbg_PrioMax                            0x0803db6e   Data           2  os_dbg.o(.constdata)
    OSDbg_PrioTblSize                        0x0803db70   Data           2  os_dbg.o(.constdata)
    OSDbg_PtrSize                            0x0803db72   Data           2  os_dbg.o(.constdata)
    OSDbg_Q                                  0x0803db74   Data          48  os_dbg.o(.constdata)
    OSDbg_QEn                                0x0803dba4   Data           1  os_dbg.o(.constdata)
    OSDbg_QDelEn                             0x0803dba5   Data           1  os_dbg.o(.constdata)
    OSDbg_QFlushEn                           0x0803dba6   Data           1  os_dbg.o(.constdata)
    OSDbg_QPendAbortEn                       0x0803dba7   Data           1  os_dbg.o(.constdata)
    OSDbg_QSize                              0x0803dba8   Data           2  os_dbg.o(.constdata)
    OSDbg_SchedRoundRobinEn                  0x0803dbaa   Data           1  os_dbg.o(.constdata)
    OSDbg_Sem                                0x0803dbac   Data          40  os_dbg.o(.constdata)
    OSDbg_SemEn                              0x0803dbd4   Data           1  os_dbg.o(.constdata)
    OSDbg_SemDelEn                           0x0803dbd5   Data           1  os_dbg.o(.constdata)
    OSDbg_SemPendAbortEn                     0x0803dbd6   Data           1  os_dbg.o(.constdata)
    OSDbg_SemSetEn                           0x0803dbd7   Data           1  os_dbg.o(.constdata)
    OSDbg_SemSize                            0x0803dbd8   Data           2  os_dbg.o(.constdata)
    OSDbg_RdyList                            0x0803dbda   Data           2  os_dbg.o(.constdata)
    OSDbg_RdyListSize                        0x0803dbdc   Data           4  os_dbg.o(.constdata)
    OSDbg_StkWidth                           0x0803dbe0   Data           1  os_dbg.o(.constdata)
    OSDbg_StatTaskEn                         0x0803dbe1   Data           1  os_dbg.o(.constdata)
    OSDbg_StatTaskStkChkEn                   0x0803dbe2   Data           1  os_dbg.o(.constdata)
    OSDbg_TaskChangePrioEn                   0x0803dbe3   Data           1  os_dbg.o(.constdata)
    OSDbg_TaskDelEn                          0x0803dbe4   Data           1  os_dbg.o(.constdata)
    OSDbg_TaskQEn                            0x0803dbe5   Data           1  os_dbg.o(.constdata)
    OSDbg_TaskQPendAbortEn                   0x0803dbe6   Data           1  os_dbg.o(.constdata)
    OSDbg_TaskProfileEn                      0x0803dbe7   Data           1  os_dbg.o(.constdata)
    OSDbg_TaskRegTblSize                     0x0803dbe8   Data           2  os_dbg.o(.constdata)
    OSDbg_TaskSemPendAbortEn                 0x0803dbea   Data           1  os_dbg.o(.constdata)
    OSDbg_TaskSuspendEn                      0x0803dbeb   Data           1  os_dbg.o(.constdata)
    OSDbg_TCBSize                            0x0803dbec   Data           2  os_dbg.o(.constdata)
    OSDbg_TickSpokeSize                      0x0803dbee   Data           2  os_dbg.o(.constdata)
    OSDbg_TimeDlyHMSMEn                      0x0803dbf0   Data           1  os_dbg.o(.constdata)
    OSDbg_TimeDlyResumeEn                    0x0803dbf1   Data           1  os_dbg.o(.constdata)
    OSDbg_TLS_TblSize                        0x0803dbf2   Data           2  os_dbg.o(.constdata)
    OSDbg_Tmr                                0x0803dbf4   Data          52  os_dbg.o(.constdata)
    OSDbg_TmrEn                              0x0803dc28   Data           1  os_dbg.o(.constdata)
    OSDbg_TmrDelEn                           0x0803dc29   Data           1  os_dbg.o(.constdata)
    OSDbg_TmrSize                            0x0803dc2a   Data           2  os_dbg.o(.constdata)
    OSDbg_TmrSpokeSize                       0x0803dc2c   Data           2  os_dbg.o(.constdata)
    OSDbg_VersionNbr                         0x0803dc2e   Data           2  os_dbg.o(.constdata)
    OSDbg_DataSize                           0x0803dc30   Data           4  os_dbg.o(.constdata)
    Region$$Table$$Base                      0x0803dc34   Number         0  anon$$obj.o(Region$$Table)
    Region$$Table$$Limit                     0x0803dc54   Number         0  anon$$obj.o(Region$$Table)
    Flag                                     0x20000000   Data           1  main.o(.data)
    FRONT_COLOR                              0x20000002   Data           2  tftlcd.o(.data)
    BACK_COLOR                               0x20000004   Data           2  tftlcd.o(.data)
    tftlcd_data                              0x20000006   Data           8  tftlcd.o(.data)
    SystemCoreClock                          0x20000010   Data           4  system_stm32f10x.o(.data)
    AHBPrescTable                            0x20000014   Data          16  system_stm32f10x.o(.data)
    CPU_TS_TmrFreq_Hz                        0x20000038   Data           4  cpu_core.o(.data)
    CPU_IntDisMeasCtr                        0x2000003c   Data           2  cpu_core.o(.data)
    CPU_IntDisNestCtr                        0x2000003e   Data           2  cpu_core.o(.data)
    CPU_IntDisMeasStart_cnts                 0x20000040   Data           4  cpu_core.o(.data)
    CPU_IntDisMeasStop_cnts                  0x20000044   Data           4  cpu_core.o(.data)
    CPU_IntDisMeasOvrhd_cnts                 0x20000048   Data           4  cpu_core.o(.data)
    CPU_IntDisMeasMaxCur_cnts                0x2000004c   Data           4  cpu_core.o(.data)
    CPU_IntDisMeasMax_cnts                   0x20000050   Data           4  cpu_core.o(.data)
    Mem_PoolTbl                              0x20000054   Data           4  lib_mem.o(.data)
    OS_AppTaskCreateHookPtr                  0x20000058   Data           4  os_var.o(.data)
    OS_AppTaskDelHookPtr                     0x2000005c   Data           4  os_var.o(.data)
    OS_AppTaskReturnHookPtr                  0x20000060   Data           4  os_var.o(.data)
    OS_AppIdleTaskHookPtr                    0x20000064   Data           4  os_var.o(.data)
    OS_AppStatTaskHookPtr                    0x20000068   Data           4  os_var.o(.data)
    OS_AppTaskSwHookPtr                      0x2000006c   Data           4  os_var.o(.data)
    OS_AppTimeTickHookPtr                    0x20000070   Data           4  os_var.o(.data)
    OSIdleTaskCtr                            0x20000074   Data           4  os_var.o(.data)
    OSIntNestingCtr                          0x20000078   Data           1  os_var.o(.data)
    OSIntDisTimeMax                          0x2000007c   Data           4  os_var.o(.data)
    OSRunning                                0x20000080   Data           1  os_var.o(.data)
    OSIntQInPtr                              0x20000084   Data           4  os_var.o(.data)
    OSIntQOutPtr                             0x20000088   Data           4  os_var.o(.data)
    OSIntQNbrEntries                         0x2000008c   Data           2  os_var.o(.data)
    OSIntQNbrEntriesMax                      0x2000008e   Data           2  os_var.o(.data)
    OSIntQOvfCtr                             0x20000090   Data           2  os_var.o(.data)
    OSIntQTaskTimeMax                        0x20000094   Data           4  os_var.o(.data)
    OSFlagDbgListPtr                         0x20000098   Data           4  os_var.o(.data)
    OSFlagQty                                0x2000009c   Data           2  os_var.o(.data)
    OSMemDbgListPtr                          0x200000a0   Data           4  os_var.o(.data)
    OSMemQty                                 0x200000a4   Data           2  os_var.o(.data)
    OSMutexDbgListPtr                        0x200000a8   Data           4  os_var.o(.data)
    OSMutexQty                               0x200000ac   Data           2  os_var.o(.data)
    OSPrioCur                                0x200000ae   Data           1  os_var.o(.data)
    OSPrioHighRdy                            0x200000af   Data           1  os_var.o(.data)
    OSPrioSaved                              0x200000b0   Data           1  os_var.o(.data)
    OSQDbgListPtr                            0x200000b4   Data           4  os_var.o(.data)
    OSQQty                                   0x200000b8   Data           2  os_var.o(.data)
    OSSchedLockTimeBegin                     0x200000bc   Data           4  os_var.o(.data)
    OSSchedLockTimeMax                       0x200000c0   Data           4  os_var.o(.data)
    OSSchedLockTimeMaxCur                    0x200000c4   Data           4  os_var.o(.data)
    OSSchedLockNestingCtr                    0x200000c8   Data           1  os_var.o(.data)
    OSSchedRoundRobinDfltTimeQuanta          0x200000cc   Data           4  os_var.o(.data)
    OSSchedRoundRobinEn                      0x200000d0   Data           1  os_var.o(.data)
    OSSemDbgListPtr                          0x200000d4   Data           4  os_var.o(.data)
    OSSemQty                                 0x200000d8   Data           2  os_var.o(.data)
    OSStatResetFlag                          0x200000da   Data           1  os_var.o(.data)
    OSStatTaskCPUUsage                       0x200000dc   Data           2  os_var.o(.data)
    OSStatTaskCPUUsageMax                    0x200000de   Data           2  os_var.o(.data)
    OSStatTaskCtr                            0x200000e0   Data           4  os_var.o(.data)
    OSStatTaskCtrMax                         0x200000e4   Data           4  os_var.o(.data)
    OSStatTaskCtrRun                         0x200000e8   Data           4  os_var.o(.data)
    OSStatTaskRdy                            0x200000ec   Data           1  os_var.o(.data)
    OSStatTaskTimeMax                        0x200000f0   Data           4  os_var.o(.data)
    OSTaskCtxSwCtr                           0x200000f4   Data           4  os_var.o(.data)
    OSTaskDbgListPtr                         0x200000f8   Data           4  os_var.o(.data)
    OSTaskQty                                0x200000fc   Data           2  os_var.o(.data)
    OSTaskRegNextAvailID                     0x200000fe   Data           1  os_var.o(.data)
    OSTickCtr                                0x20000100   Data           4  os_var.o(.data)
    OSTickTaskTimeMax                        0x20000104   Data           4  os_var.o(.data)
    OSTmrDbgListPtr                          0x20000108   Data           4  os_var.o(.data)
    OSTmrQty                                 0x2000010c   Data           2  os_var.o(.data)
    OSTmrTaskTimeMax                         0x20000110   Data           4  os_var.o(.data)
    OSTmrTickCtr                             0x20000114   Data           4  os_var.o(.data)
    OSTmrUpdateCnt                           0x20000118   Data           4  os_var.o(.data)
    OSTmrUpdateCtr                           0x2000011c   Data           4  os_var.o(.data)
    OSTCBCurPtr                              0x20000120   Data           4  os_var.o(.data)
    OSTCBHighRdyPtr                          0x20000124   Data           4  os_var.o(.data)
    OS_CPU_ExceptStkBase                     0x20000128   Data           4  os_cpu_c.o(.data)
    OSPrioTbl                                0x2000012c   Data           4  os_prio.o(.data)
    SemOfFlag                                0x20000130   Data          40  main.o(.bss)
    CPU_Name                                 0x200015b0   Data          16  cpu_core.o(.bss)
    Mem_PoolHeap                             0x200015c0   Data          72  lib_mem.o(.bss)
    Mem_Heap                                 0x20001608   Data       27648  lib_mem.o(.bss)
    OSCfg_IdleTaskStk                        0x20008208   Data         512  os_cfg_app.o(.bss)
    OSCfg_IntQ                               0x20008408   Data         320  os_cfg_app.o(.bss)
    OSCfg_IntQTaskStk                        0x20008548   Data         512  os_cfg_app.o(.bss)
    OSCfg_ISRStk                             0x20008748   Data         512  os_cfg_app.o(.bss)
    OSCfg_MsgPool                            0x20008948   Data        1600  os_cfg_app.o(.bss)
    OSCfg_StatTaskStk                        0x20008f88   Data         512  os_cfg_app.o(.bss)
    OSCfg_TickTaskStk                        0x20009188   Data         512  os_cfg_app.o(.bss)
    OSCfg_TickWheel                          0x20009388   Data         136  os_cfg_app.o(.bss)
    OSCfg_TmrTaskStk                         0x20009410   Data         512  os_cfg_app.o(.bss)
    OSCfg_TmrWheel                           0x20009610   Data         136  os_cfg_app.o(.bss)
    OSIdleTaskTCB                            0x20009698   Data         200  os_var.o(.bss)
    OSIntQTaskTCB                            0x20009760   Data         200  os_var.o(.bss)
    OSMsgPool                                0x20009828   Data          12  os_var.o(.bss)
    OSRdyList                                0x20009834   Data         384  os_var.o(.bss)
    OSStatTaskTCB                            0x200099b4   Data         200  os_var.o(.bss)
    OSTickTaskTCB                            0x20009a7c   Data         200  os_var.o(.bss)
    OSTmrTaskTCB                             0x20009b44   Data         200  os_var.o(.bss)
    __initial_sp                             0x2000a010   Data           0  startup_stm32f10x_hd.o(STACK)



==============================================================================

Memory Map of the image

  Image Entry point : 0x08000131

  Load Region LR_IROM1 (Base: 0x08000000, Size: 0x0003dd84, Max: 0x00080000, ABSOLUTE, COMPRESSED[0x0003dc74])

    Execution Region ER_IROM1 (Exec base: 0x08000000, Load base: 0x08000000, Size: 0x0003dc54, Max: 0x00080000, ABSOLUTE)

    Exec Addr    Load Addr    Size         Type   Attr      Idx    E Section Name        Object

    0x08000000   0x08000000   0x00000130   Data   RO            3    RESET               startup_stm32f10x_hd.o
    0x08000130   0x08000130   0x00000000   Code   RO         2656  * .ARM.Collect$$$$00000000  mc_w.l(entry.o)
    0x08000130   0x08000130   0x00000004   Code   RO         2926    .ARM.Collect$$$$00000001  mc_w.l(entry2.o)
    0x08000134   0x08000134   0x00000004   Code   RO         2929    .ARM.Collect$$$$00000004  mc_w.l(entry5.o)
    0x08000138   0x08000138   0x00000000   Code   RO         2931    .ARM.Collect$$$$00000008  mc_w.l(entry7b.o)
    0x08000138   0x08000138   0x00000000   Code   RO         2933    .ARM.Collect$$$$0000000A  mc_w.l(entry8b.o)
    0x08000138   0x08000138   0x00000008   Code   RO         2934    .ARM.Collect$$$$0000000B  mc_w.l(entry9a.o)
    0x08000140   0x08000140   0x00000000   Code   RO         2936    .ARM.Collect$$$$0000000D  mc_w.l(entry10a.o)
    0x08000140   0x08000140   0x00000000   Code   RO         2938    .ARM.Collect$$$$0000000F  mc_w.l(entry11a.o)
    0x08000140   0x08000140   0x00000004   Code   RO         2927    .ARM.Collect$$$$00002712  mc_w.l(entry2.o)
    0x08000144   0x08000144   0x00000024   Code   RO            4    .text               startup_stm32f10x_hd.o
    0x08000168   0x08000168   0x000001dc   Code   RO          683    .text               stm32f10x_hd.lib(system_stm32f10x.o)
    0x08000344   0x08000344   0x00000358   Code   RO          783    .text               stm32f10x_hd.lib(stm32f10x_gpio.o)
    0x0800069c   0x0800069c   0x000003a4   Code   RO          818    .text               stm32f10x_hd.lib(stm32f10x_rcc.o)
    0x08000a40   0x08000a40   0x00000618   Code   RO          832    .text               stm32f10x_hd.lib(stm32f10x_fsmc.o)
    0x08001058   0x08001058   0x00000408   Code   RO          844    .text               stm32f10x_hd.lib(stm32f10x_usart.o)
    0x08001460   0x08001460   0x00000034   Code   RO          856    .text               HZ_GB2312.lib(hzlib.o)
    0x08001494   0x08001494   0x00000034   Code   RO         1066    .text               UCOSIII.lib(cpu_a.o)
    0x080014c8   0x080014c8   0x00000024   Code   RO         2659    .text               mc_w.l(memcpya.o)
    0x080014ec   0x080014ec   0x00000024   Code   RO         2661    .text               mc_w.l(memseta.o)
    0x08001510   0x08001510   0x0000002c   Code   RO         2941    .text               mc_w.l(uidiv.o)
    0x0800153c   0x0800153c   0x00000024   Code   RO         2956    .text               mc_w.l(init.o)
    0x08001560   0x08001560   0x00000056   Code   RO         2974    .text               mc_w.l(__dczerorl2.o)
    0x080015b6   0x080015b6   0x00000002   PAD
    0x080015b8   0x080015b8   0x00000084   Code   RO         2548    CODE                UCOSIII.lib(os_cpu_a.o)
    0x0800163c   0x0800163c   0x000000f8   Code   RO           10    i.AppTaskKEY        main.o
    0x08001734   0x08001734   0x00000310   Code   RO           11    i.AppTaskLCD        main.o
    0x08001a44   0x08001a44   0x00000100   Code   RO           12    i.AppTaskStart      main.o
    0x08001b44   0x08001b44   0x00000010   Code   RO          347    i.BSP_CPU_ClkFreq   bsp.o
    0x08001b54   0x08001b54   0x00000058   Code   RO          348    i.BSP_Init          bsp.o
    0x08001bac   0x08001bac   0x00000004   Code   RO          284    i.BusFault_Handler  stm32f10x_it.o
    0x08001bb0   0x08001bb0   0x00000010   Code   RO          884    i.CPU_Init          UCOSIII.lib(cpu_core.o)
    0x08001bc0   0x08001bc0   0x00000084   Code   RO          885    i.CPU_IntDisMeasInit  UCOSIII.lib(cpu_core.o)
    0x08001c44   0x08001c44   0x0000001c   Code   RO          886    i.CPU_IntDisMeasMaxCalc  UCOSIII.lib(cpu_core.o)
    0x08001c60   0x08001c60   0x0000002c   Code   RO          887    i.CPU_IntDisMeasMaxCurGet  UCOSIII.lib(cpu_core.o)
    0x08001c8c   0x08001c8c   0x0000002c   Code   RO          888    i.CPU_IntDisMeasMaxCurReset  UCOSIII.lib(cpu_core.o)
    0x08001cb8   0x08001cb8   0x0000002c   Code   RO          889    i.CPU_IntDisMeasMaxGet  UCOSIII.lib(cpu_core.o)
    0x08001ce4   0x08001ce4   0x00000034   Code   RO          890    i.CPU_IntDisMeasStart  UCOSIII.lib(cpu_core.o)
    0x08001d18   0x08001d18   0x00000054   Code   RO          891    i.CPU_IntDisMeasStop  UCOSIII.lib(cpu_core.o)
    0x08001d6c   0x08001d6c   0x00000038   Code   RO          892    i.CPU_NameClr       UCOSIII.lib(cpu_core.o)
    0x08001da4   0x08001da4   0x00000008   Code   RO          894    i.CPU_NameInit      UCOSIII.lib(cpu_core.o)
    0x08001dac   0x08001dac   0x00000014   Code   RO          898    i.CPU_TS_Init       UCOSIII.lib(cpu_core.o)
    0x08001dc0   0x08001dc0   0x0000000c   Code   RO          900    i.CPU_TS_TmrFreqSet  UCOSIII.lib(cpu_core.o)
    0x08001dcc   0x08001dcc   0x00000034   Code   RO          349    i.CPU_TS_TmrInit    bsp.o
    0x08001e00   0x08001e00   0x0000000c   Code   RO          350    i.CPU_TS_TmrRd      bsp.o
    0x08001e0c   0x08001e0c   0x00000002   Code   RO          285    i.DebugMon_Handler  stm32f10x_it.o
    0x08001e0e   0x08001e0e   0x00000062   Code   RO          472    i.GUI_Chinese       tftlcd.o
    0x08001e70   0x08001e70   0x00000004   Code   RO          286    i.HardFault_Handler  stm32f10x_it.o
    0x08001e74   0x08001e74   0x00000024   Code   RO          428    i.Key1_Config       bsp_key.o
    0x08001e98   0x08001e98   0x00000024   Code   RO          429    i.Key2_Config       bsp_key.o
    0x08001ebc   0x08001ebc   0x00000024   Code   RO          430    i.Key3_Config       bsp_key.o
    0x08001ee0   0x08001ee0   0x00000014   Code   RO          431    i.Key_Initial       bsp_key.o
    0x08001ef4   0x08001ef4   0x00000024   Code   RO          434    i.Key_UP_Config     bsp_key.o
    0x08001f18   0x08001f18   0x00000048   Code   RO          473    i.LCD_Clear         tftlcd.o
    0x08001f60   0x08001f60   0x0000004c   Code   RO          474    i.LCD_Display_Dir   tftlcd.o
    0x08001fac   0x08001fac   0x0000001c   Code   RO          475    i.LCD_DrawFRONT_COLOR  tftlcd.o
    0x08001fc8   0x08001fc8   0x0000000c   Code   RO          485    i.LCD_ReadData      tftlcd.o
    0x08001fd4   0x08001fd4   0x0000004a   Code   RO          487    i.LCD_Set_Window    tftlcd.o
    0x0800201e   0x0800201e   0x00000002   PAD
    0x08002020   0x08002020   0x00000128   Code   RO          488    i.LCD_ShowChar      tftlcd.o
    0x08002148   0x08002148   0x0000000c   Code   RO          495    i.LCD_WriteCmd      tftlcd.o
    0x08002154   0x08002154   0x0000000c   Code   RO          497    i.LCD_WriteData     tftlcd.o
    0x08002160   0x08002160   0x0000000c   Code   RO          498    i.LCD_WriteData_Color  tftlcd.o
    0x0800216c   0x0800216c   0x00000058   Code   RO          411    i.LED_GPIO_Config   bsp_led.o
    0x080021c4   0x080021c4   0x0000004c   Code   RO          412    i.LED_Init          bsp_led.o
    0x08002210   0x08002210   0x00000004   Code   RO          287    i.MemManage_Handler  stm32f10x_it.o
    0x08002214   0x08002214   0x00000012   Code   RO         1069    i.Mem_Clr           UCOSIII.lib(lib_mem.o)
    0x08002226   0x08002226   0x00000002   PAD
    0x08002228   0x08002228   0x00000048   Code   RO         1073    i.Mem_Init          UCOSIII.lib(lib_mem.o)
    0x08002270   0x08002270   0x00000062   Code   RO         1086    i.Mem_Set           UCOSIII.lib(lib_mem.o)
    0x080022d2   0x080022d2   0x00000002   Code   RO          288    i.NMI_Handler       stm32f10x_it.o
    0x080022d4   0x080022d4   0x00000002   Code   RO         1194    i.OSCfg_Init        UCOSIII.lib(os_cfg_app.o)
    0x080022d6   0x080022d6   0x00000002   PAD
    0x080022d8   0x080022d8   0x00000014   Code   RO         1806    i.OSIdleTaskHook    UCOSIII.lib(os_cpu_c.o)
    0x080022ec   0x080022ec   0x0000018c   Code   RO         1230    i.OSInit            UCOSIII.lib(os_core.o)
    0x08002478   0x08002478   0x00000038   Code   RO         1807    i.OSInitHook        UCOSIII.lib(os_cpu_c.o)
    0x080024b0   0x080024b0   0x000000e4   Code   RO         1232    i.OSIntExit         UCOSIII.lib(os_core.o)
    0x08002594   0x08002594   0x000000a8   Code   RO         1233    i.OSSched           UCOSIII.lib(os_core.o)
    0x0800263c   0x0800263c   0x0000007c   Code   RO         1234    i.OSSchedLock       UCOSIII.lib(os_core.o)
    0x080026b8   0x080026b8   0x0000006c   Code   RO         1235    i.OSSchedRoundRobinCfg  UCOSIII.lib(os_core.o)
    0x08002724   0x08002724   0x000000a0   Code   RO         1237    i.OSSchedUnlock     UCOSIII.lib(os_core.o)
    0x080027c4   0x080027c4   0x000000e4   Code   RO         1480    i.OSSemCreate       UCOSIII.lib(os_sem.o)
    0x080028a8   0x080028a8   0x0000021c   Code   RO         1482    i.OSSemPend         UCOSIII.lib(os_sem.o)
    0x08002ac4   0x08002ac4   0x00000098   Code   RO         1484    i.OSSemPost         UCOSIII.lib(os_sem.o)
    0x08002b5c   0x08002b5c   0x00000068   Code   RO         1238    i.OSStart           UCOSIII.lib(os_core.o)
    0x08002bc4   0x08002bc4   0x00000168   Code   RO         1552    i.OSStatReset       UCOSIII.lib(os_stat.o)
    0x08002d2c   0x08002d2c   0x00000100   Code   RO         1553    i.OSStatTaskCPUUsageInit  UCOSIII.lib(os_stat.o)
    0x08002e2c   0x08002e2c   0x00000014   Code   RO         1808    i.OSStatTaskHook    UCOSIII.lib(os_cpu_c.o)
    0x08002e40   0x08002e40   0x00000294   Code   RO         1583    i.OSTaskCreate      UCOSIII.lib(os_task.o)
    0x080030d4   0x080030d4   0x00000018   Code   RO         1809    i.OSTaskCreateHook  UCOSIII.lib(os_cpu_c.o)
    0x080030ec   0x080030ec   0x00000208   Code   RO         1584    i.OSTaskDel         UCOSIII.lib(os_task.o)
    0x080032f4   0x080032f4   0x00000018   Code   RO         1810    i.OSTaskDelHook     UCOSIII.lib(os_cpu_c.o)
    0x0800330c   0x0800330c   0x00000088   Code   RO         1592    i.OSTaskResume      UCOSIII.lib(os_task.o)
    0x08003394   0x08003394   0x00000018   Code   RO         1811    i.OSTaskReturnHook  UCOSIII.lib(os_cpu_c.o)
    0x080033ac   0x080033ac   0x00000250   Code   RO         1593    i.OSTaskSemPend     UCOSIII.lib(os_task.o)
    0x080035fc   0x080035fc   0x000000e4   Code   RO         1597    i.OSTaskStkChk      UCOSIII.lib(os_task.o)
    0x080036e0   0x080036e0   0x000000c0   Code   RO         1812    i.OSTaskStkInit     UCOSIII.lib(os_cpu_c.o)
    0x080037a0   0x080037a0   0x00000060   Code   RO         1598    i.OSTaskSuspend     UCOSIII.lib(os_task.o)
    0x08003800   0x08003800   0x000000a4   Code   RO         1813    i.OSTaskSwHook      UCOSIII.lib(os_cpu_c.o)
    0x080038a4   0x080038a4   0x00000150   Code   RO         1750    i.OSTimeDly         UCOSIII.lib(os_time.o)
    0x080039f4   0x080039f4   0x00000044   Code   RO         1755    i.OSTimeTick        UCOSIII.lib(os_time.o)
    0x08003a38   0x08003a38   0x00000014   Code   RO         1814    i.OSTimeTickHook    UCOSIII.lib(os_cpu_c.o)
    0x08003a4c   0x08003a4c   0x00000040   Code   RO         1815    i.OS_CPU_SysTickHandler  UCOSIII.lib(os_cpu_c.o)
    0x08003a8c   0x08003a8c   0x00000030   Code   RO         1816    i.OS_CPU_SysTickInit  UCOSIII.lib(os_cpu_c.o)
    0x08003abc   0x08003abc   0x000001b4   Code   RO         2040    i.OS_Dbg_Init       UCOSIII.lib(os_dbg.o)
    0x08003c70   0x08003c70   0x00000018   Code   RO         2065    i.OS_FlagInit       UCOSIII.lib(os_flag.o)
    0x08003c88   0x08003c88   0x0000027c   Code   RO         2066    i.OS_FlagPost       UCOSIII.lib(os_flag.o)
    0x08003f04   0x08003f04   0x00000056   Code   RO         2067    i.OS_FlagTaskRdy    UCOSIII.lib(os_flag.o)
    0x08003f5a   0x08003f5a   0x00000002   PAD
    0x08003f5c   0x08003f5c   0x0000004c   Code   RO         1240    i.OS_IdleTask       UCOSIII.lib(os_core.o)
    0x08003fa8   0x08003fa8   0x00000070   Code   RO         1241    i.OS_IdleTaskInit   UCOSIII.lib(os_core.o)
    0x08004018   0x08004018   0x00000104   Code   RO         2139    i.OS_IntQPost       UCOSIII.lib(os_int.o)
    0x0800411c   0x0800411c   0x000001a4   Code   RO         2140    i.OS_IntQRePost     UCOSIII.lib(os_int.o)
    0x080042c0   0x080042c0   0x000000c8   Code   RO         2141    i.OS_IntQTask       UCOSIII.lib(os_int.o)
    0x08004388   0x08004388   0x00000128   Code   RO         2142    i.OS_IntQTaskInit   UCOSIII.lib(os_int.o)
    0x080044b0   0x080044b0   0x00000018   Code   RO         2173    i.OS_MemInit        UCOSIII.lib(os_mem.o)
    0x080044c8   0x080044c8   0x0000007c   Code   RO         2205    i.OS_MsgPoolInit    UCOSIII.lib(os_msg.o)
    0x08004544   0x08004544   0x00000044   Code   RO         2206    i.OS_MsgQFreeAll    UCOSIII.lib(os_msg.o)
    0x08004588   0x08004588   0x0000000e   Code   RO         2208    i.OS_MsgQInit       UCOSIII.lib(os_msg.o)
    0x08004596   0x08004596   0x00000002   PAD
    0x08004598   0x08004598   0x00000104   Code   RO         2209    i.OS_MsgQPut        UCOSIII.lib(os_msg.o)
    0x0800469c   0x0800469c   0x00000018   Code   RO         2249    i.OS_MutexInit      UCOSIII.lib(os_mutex.o)
    0x080046b4   0x080046b4   0x00000068   Code   RO         1242    i.OS_Pend           UCOSIII.lib(os_core.o)
    0x0800471c   0x0800471c   0x00000026   Code   RO         1245    i.OS_PendDataInit   UCOSIII.lib(os_core.o)
    0x08004742   0x08004742   0x00000002   PAD
    0x08004744   0x08004744   0x0000005c   Code   RO         1246    i.OS_PendDbgNameAdd  UCOSIII.lib(os_core.o)
    0x080047a0   0x080047a0   0x00000024   Code   RO         1247    i.OS_PendDbgNameRemove  UCOSIII.lib(os_core.o)
    0x080047c4   0x080047c4   0x0000000a   Code   RO         1249    i.OS_PendListInit   UCOSIII.lib(os_core.o)
    0x080047ce   0x080047ce   0x00000066   Code   RO         1251    i.OS_PendListInsertPrio  UCOSIII.lib(os_core.o)
    0x08004834   0x08004834   0x00000030   Code   RO         1252    i.OS_PendListRemove  UCOSIII.lib(os_core.o)
    0x08004864   0x08004864   0x00000042   Code   RO         1253    i.OS_PendListRemove1  UCOSIII.lib(os_core.o)
    0x080048a6   0x080048a6   0x000000c0   Code   RO         1256    i.OS_Post           UCOSIII.lib(os_core.o)
    0x08004966   0x08004966   0x0000002a   Code   RO         1257    i.OS_Post1          UCOSIII.lib(os_core.o)
    0x08004990   0x08004990   0x00000028   Code   RO         2301    i.OS_PrioGetHighest  UCOSIII.lib(os_prio.o)
    0x080049b8   0x080049b8   0x00000018   Code   RO         2302    i.OS_PrioInit       UCOSIII.lib(os_prio.o)
    0x080049d0   0x080049d0   0x00000024   Code   RO         2303    i.OS_PrioInsert     UCOSIII.lib(os_prio.o)
    0x080049f4   0x080049f4   0x00000024   Code   RO         2304    i.OS_PrioRemove     UCOSIII.lib(os_prio.o)
    0x08004a18   0x08004a18   0x00000018   Code   RO         2347    i.OS_QInit          UCOSIII.lib(os_q.o)
    0x08004a30   0x08004a30   0x00000188   Code   RO         2348    i.OS_QPost          UCOSIII.lib(os_q.o)
    0x08004bb8   0x08004bb8   0x00000024   Code   RO         1258    i.OS_RdyListInit    UCOSIII.lib(os_core.o)
    0x08004bdc   0x08004bdc   0x0000002c   Code   RO         1259    i.OS_RdyListInsert  UCOSIII.lib(os_core.o)
    0x08004c08   0x08004c08   0x00000040   Code   RO         1260    i.OS_RdyListInsertHead  UCOSIII.lib(os_core.o)
    0x08004c48   0x08004c48   0x0000003c   Code   RO         1261    i.OS_RdyListInsertTail  UCOSIII.lib(os_core.o)
    0x08004c84   0x08004c84   0x00000044   Code   RO         1262    i.OS_RdyListMoveHeadToTail  UCOSIII.lib(os_core.o)
    0x08004cc8   0x08004cc8   0x0000005c   Code   RO         1263    i.OS_RdyListRemove  UCOSIII.lib(os_core.o)
    0x08004d24   0x08004d24   0x0000005c   Code   RO         1264    i.OS_Sched0         UCOSIII.lib(os_core.o)
    0x08004d80   0x08004d80   0x0000001c   Code   RO         1265    i.OS_SchedLockTimeMeasStart  UCOSIII.lib(os_core.o)
    0x08004d9c   0x08004d9c   0x0000003c   Code   RO         1266    i.OS_SchedLockTimeMeasStop  UCOSIII.lib(os_core.o)
    0x08004dd8   0x08004dd8   0x000000ec   Code   RO         1267    i.OS_SchedRoundRobin  UCOSIII.lib(os_core.o)
    0x08004ec4   0x08004ec4   0x00000030   Code   RO         1487    i.OS_SemDbgListAdd  UCOSIII.lib(os_sem.o)
    0x08004ef4   0x08004ef4   0x00000018   Code   RO         1489    i.OS_SemInit        UCOSIII.lib(os_sem.o)
    0x08004f0c   0x08004f0c   0x00000198   Code   RO         1490    i.OS_SemPost        UCOSIII.lib(os_sem.o)
    0x080050a4   0x080050a4   0x000003b8   Code   RO         1554    i.OS_StatTask       UCOSIII.lib(os_stat.o)
    0x0800545c   0x0800545c   0x000000cc   Code   RO         1555    i.OS_StatTaskInit   UCOSIII.lib(os_stat.o)
    0x08005528   0x08005528   0x00000038   Code   RO         1268    i.OS_TaskBlock      UCOSIII.lib(os_core.o)
    0x08005560   0x08005560   0x00000030   Code   RO         1600    i.OS_TaskDbgListAdd  UCOSIII.lib(os_task.o)
    0x08005590   0x08005590   0x00000044   Code   RO         1601    i.OS_TaskDbgListRemove  UCOSIII.lib(os_task.o)
    0x080055d4   0x080055d4   0x00000020   Code   RO         1602    i.OS_TaskInit       UCOSIII.lib(os_task.o)
    0x080055f4   0x080055f4   0x000000d0   Code   RO         1603    i.OS_TaskInitTCB    UCOSIII.lib(os_task.o)
    0x080056c4   0x080056c4   0x0000026c   Code   RO         1604    i.OS_TaskQPost      UCOSIII.lib(os_task.o)
    0x08005930   0x08005930   0x0000001c   Code   RO         1269    i.OS_TaskRdy        UCOSIII.lib(os_core.o)
    0x0800594c   0x0800594c   0x0000017c   Code   RO         1605    i.OS_TaskResume     UCOSIII.lib(os_task.o)
    0x08005ac8   0x08005ac8   0x00000018   Code   RO         1606    i.OS_TaskReturn     UCOSIII.lib(os_task.o)
    0x08005ae0   0x08005ae0   0x000005a8   Code   RO         1607    i.OS_TaskSemPost    UCOSIII.lib(os_task.o)
    0x08006088   0x08006088   0x00000190   Code   RO         1608    i.OS_TaskSuspend    UCOSIII.lib(os_task.o)
    0x08006218   0x08006218   0x00000028   Code   RO         2410    i.OS_TickListInit   UCOSIII.lib(os_tick.o)
    0x08006240   0x08006240   0x000001bc   Code   RO         2411    i.OS_TickListInsert  UCOSIII.lib(os_tick.o)
    0x080063fc   0x080063fc   0x00000038   Code   RO         2412    i.OS_TickListRemove  UCOSIII.lib(os_tick.o)
    0x08006434   0x08006434   0x00000024   Code   RO         2413    i.OS_TickListResetPeak  UCOSIII.lib(os_tick.o)
    0x08006458   0x08006458   0x00000220   Code   RO         2414    i.OS_TickListUpdate  UCOSIII.lib(os_tick.o)
    0x08006678   0x08006678   0x0000002c   Code   RO         2415    i.OS_TickTask       UCOSIII.lib(os_tick.o)
    0x080066a4   0x080066a4   0x000000b8   Code   RO         2416    i.OS_TickTaskInit   UCOSIII.lib(os_tick.o)
    0x0800675c   0x0800675c   0x00000128   Code   RO         2467    i.OS_TmrInit        UCOSIII.lib(os_tmr.o)
    0x08006884   0x08006884   0x000000d0   Code   RO         2468    i.OS_TmrLink        UCOSIII.lib(os_tmr.o)
    0x08006954   0x08006954   0x00000024   Code   RO         2469    i.OS_TmrResetPeak   UCOSIII.lib(os_tmr.o)
    0x08006978   0x08006978   0x000000c0   Code   RO         2470    i.OS_TmrTask        UCOSIII.lib(os_tmr.o)
    0x08006a38   0x08006a38   0x00000050   Code   RO         2471    i.OS_TmrUnlink      UCOSIII.lib(os_tmr.o)
    0x08006a88   0x08006a88   0x00000078   Code   RO          499    i.Put_Chinese       tftlcd.o
    0x08006b00   0x08006b00   0x00000002   Code   RO          290    i.SVC_Handler       stm32f10x_it.o
    0x08006b02   0x08006b02   0x0000007e   Code   RO          500    i.TFTLCD_FSMC_Init  tftlcd.o
    0x08006b80   0x08006b80   0x00000070   Code   RO          501    i.TFTLCD_GPIO_Init  tftlcd.o
    0x08006bf0   0x08006bf0   0x000001a4   Code   RO          502    i.TFTLCD_Init       tftlcd.o
    0x08006d94   0x08006d94   0x00000080   Code   RO          383    i.USARTx_Config     bsp_usart1.o
    0x08006e14   0x08006e14   0x00000004   Code   RO          292    i.UsageFault_Handler  stm32f10x_it.o
    0x08006e18   0x08006e18   0x00000028   Code   RO         2712    i.__0sprintf$1      mc_w.l(printf1.o)
    0x08006e40   0x08006e40   0x0000000e   Code   RO         2968    i.__scatterload_copy  mc_w.l(handlers.o)
    0x08006e4e   0x08006e4e   0x00000002   Code   RO         2969    i.__scatterload_null  mc_w.l(handlers.o)
    0x08006e50   0x08006e50   0x0000000e   Code   RO         2970    i.__scatterload_zeroinit  mc_w.l(handlers.o)
    0x08006e5e   0x08006e5e   0x00000002   PAD
    0x08006e60   0x08006e60   0x00000154   Code   RO         2717    i._printf_core      mc_w.l(printf1.o)
    0x08006fb4   0x08006fb4   0x0000000a   Code   RO         2719    i._sputc            mc_w.l(printf1.o)
    0x08006fbe   0x08006fbe   0x0000001c   Code   RO          503    i.delay_ms          tftlcd.o
    0x08006fda   0x08006fda   0x00000002   PAD
    0x08006fdc   0x08006fdc   0x00000060   Code   RO           13    i.main              main.o
    0x0800703c   0x0800703c   0x00001be6   Data   RO          504    .constdata          tftlcd.o
    0x08008c22   0x08008c22   0x00034e00   Data   RO          857    .constdata          HZ_GB2312.lib(hzlib.o)
    0x0803da22   0x0803da22   0x00000002   PAD
    0x0803da24   0x0803da24   0x000000a4   Data   RO         1196    .constdata          UCOSIII.lib(os_cfg_app.o)
    0x0803dac8   0x0803dac8   0x0000016c   Data   RO         2041    .constdata          UCOSIII.lib(os_dbg.o)
    0x0803dc34   0x0803dc34   0x00000020   Data   RO         2966    Region$$Table       anon$$obj.o


    Execution Region RW_IRAM1 (Exec base: 0x20000000, Load base: 0x0803dc54, Size: 0x0000a010, Max: 0x00010000, ABSOLUTE, COMPRESSED[0x00000020])

    Exec Addr    Load Addr    Size         Type   Attr      Idx    E Section Name        Object

    0x20000000   COMPRESSED   0x00000001   Data   RW           15    .data               main.o
    0x20000001   COMPRESSED   0x00000001   PAD
    0x20000002   COMPRESSED   0x0000000c   Data   RW          505    .data               tftlcd.o
    0x2000000e   COMPRESSED   0x00000002   PAD
    0x20000010   COMPRESSED   0x00000014   Data   RW          684    .data               stm32f10x_hd.lib(system_stm32f10x.o)
    0x20000024   COMPRESSED   0x00000014   Data   RW          819    .data               stm32f10x_hd.lib(stm32f10x_rcc.o)
    0x20000038   COMPRESSED   0x0000001c   Data   RW          904    .data               UCOSIII.lib(cpu_core.o)
    0x20000054   COMPRESSED   0x00000004   Data   RW         1088    .data               UCOSIII.lib(lib_mem.o)
    0x20000058   COMPRESSED   0x000000d0   Data   RW         1793    .data               UCOSIII.lib(os_var.o)
    0x20000128   COMPRESSED   0x00000004   Data   RW         1817    .data               UCOSIII.lib(os_cpu_c.o)
    0x2000012c   COMPRESSED   0x00000004   Data   RW         2305    .data               UCOSIII.lib(os_prio.o)
    0x20000130        -       0x00001480   Zero   RW           14    .bss                main.o
    0x200015b0        -       0x00000010   Zero   RW          902    .bss                UCOSIII.lib(cpu_core.o)
    0x200015c0        -       0x00006c48   Zero   RW         1087    .bss                UCOSIII.lib(lib_mem.o)
    0x20008208        -       0x00001490   Zero   RW         1195    .bss                UCOSIII.lib(os_cfg_app.o)
    0x20009698        -       0x00000574   Zero   RW         1792    .bss                UCOSIII.lib(os_var.o)
    0x20009c0c   COMPRESSED   0x00000004   PAD
    0x20009c10        -       0x00000400   Zero   RW            1    STACK               startup_stm32f10x_hd.o


==============================================================================

Image component sizes


      Code (inc. data)   RO Data    RW Data    ZI Data      Debug   Object Name

       168         56          0          0          0       1805   bsp.o
       164         16          0          0          0       2186   bsp_key.o
       164         10          0          0          0        923   bsp_led.o
       128          8          0          0          0        596   bsp_usart1.o
      1384        414          0          1       5248     270927   main.o
        36          8        304          0       1024        816   startup_stm32f10x_hd.o
        22          0          0          0          0       2887   stm32f10x_it.o
      1498         76       7142         12          0      11233   tftlcd.o

    ----------------------------------------------------------------------
      3568        588       7478         16       6272     291373   Object Totals
         0          0         32          0          0          0   (incl. Generated)
         4          0          0          3          0          0   (incl. Padding)

    ----------------------------------------------------------------------

      Code (inc. data)   RO Data    RW Data    ZI Data      Debug   Library Member Name

        52          4     216576          0          0       1021   hzlib.o
        52          0          0          0          0        368   cpu_a.o
       540         98          0         28         16      28417   cpu_core.o
       188         18          0          4      27720      23347   lib_mem.o
         2          0        164          0       5264      21914   os_cfg_app.o
      3070        414          0          0          0      40612   os_core.o
       132         32          0          0          0        412   os_cpu_a.o
       656         68          0          4          0       8625   os_cpu_c.o
       436        286        364          0          0       4901   os_dbg.o
       746         28          0          0          0       3225   os_flag.o
      1176        204          0          0          0       3654   os_int.o
        24         10          0          0          0        937   os_mem.o
       466         26          0          0          0       3385   os_msg.o
        24         10          0          0          0        939   os_mutex.o
       136         16          0          4          0       3018   os_prio.o
       416         20          0          0          0       2302   os_q.o
      1400         66          0          0          0       5971   os_sem.o
      1772        214          0          0          0       4215   os_stat.o
      5460        260          0          0          0      14344   os_task.o
      1348        124          0          0          0       5721   os_tick.o
       404         28          0          0          0       1849   os_time.o
       812        134          0          0          0       4332   os_tmr.o
         0          0          0        208       1396      19553   os_var.o
        86          0          0          0          0          0   __dczerorl2.o
         0          0          0          0          0          0   entry.o
         0          0          0          0          0          0   entry10a.o
         0          0          0          0          0          0   entry11a.o
         8          4          0          0          0          0   entry2.o
         4          0          0          0          0          0   entry5.o
         0          0          0          0          0          0   entry7b.o
         0          0          0          0          0          0   entry8b.o
         8          4          0          0          0          0   entry9a.o
        30          0          0          0          0          0   handlers.o
        36          8          0          0          0         68   init.o
        36          0          0          0          0         68   memcpya.o
        36          0          0          0          0        108   memseta.o
       390         10          0          0          0        252   printf1.o
        44          0          0          0          0         80   uidiv.o
      1560         54          0          0          0       5419   stm32f10x_fsmc.o
       856         40          0          0          0     208913   stm32f10x_gpio.o
       932         44          0         20          0       8904   stm32f10x_rcc.o
      1032         22          0          0          0       8448   stm32f10x_usart.o
       476         36          0         20          0      36147   system_stm32f10x.o

    ----------------------------------------------------------------------
     24860       2282     217106        288      34400     471469   Library Totals
        14          0          2          0          4          0   (incl. Padding)

    ----------------------------------------------------------------------

      Code (inc. data)   RO Data    RW Data    ZI Data      Debug   Library Name

        52          4     216576          0          0       1021   HZ_GB2312.lib
     19260       2056        528        248      34396     202041   UCOSIII.lib
       678         26          0          0          0        576   mc_w.l
      4856        196          0         40          0     267831   stm32f10x_hd.lib

    ----------------------------------------------------------------------
     24860       2282     217106        288      34400     471469   Library Totals

    ----------------------------------------------------------------------

==============================================================================


      Code (inc. data)   RO Data    RW Data    ZI Data      Debug   

     28428       2870     224584        304      40672     754234   Grand Totals
     28428       2870     224584         32      40672     754234   ELF Image Totals (compressed)
     28428       2870     224584         32          0          0   ROM Totals

==============================================================================

    Total RO  Size (Code + RO Data)               253012 ( 247.08kB)
    Total RW  Size (RW Data + ZI Data)             40976 (  40.02kB)
    Total ROM Size (Code + RO Data + RW Data)     253044 ( 247.11kB)

==============================================================================

