:020000040800F2
:1000000070A90020490100084B2D00089B21000821
:10001000892C0008391F00085977000800000000EB
:10002000000000000000000000000000CD73000888
:1000300099210008000000006B17000859430008D0
:100040006301000863010008630100086301000800
:1000500063010008630100086301000863010008F0
:1000600063010008630100086301000863010008E0
:1000700063010008630100086301000863010008D0
:1000800063010008630100086301000863010008C0
:1000900063010008630100086301000863010008B0
:1000A00063010008630100086301000863010008A0
:1000B0006301000863010008630100086301000890
:1000C0006301000863010008630100086301000880
:1000D0006301000863010008630100086301000870
:1000E0006301000863010008630100086301000860
:1000F0006301000863010008630100086301000850
:10010000630100086301000863010008630100083F
:10011000630100086301000863010008630100082F
:10012000630100086301000863010008630100081F
:10013000DFF810D001F0BCFA00480047A5770008AE
:10014000AFF3008070A900200648804706480047AA
:10015000FEE7FEE7FEE7FEE7FEE7FEE7FEE7FEE777
:10016000FEE7FEE749020008310100080CB5002057
:10017000019000906B48006840F480306949086045
:1001800000BF6848006800F4003000900198401CEF
:100190000190009818B90198B0F5A06FF1D16148AD
:1001A000006810F4003F02D00120009001E0002020
:1001B00000900098012842D15B48006840F0100090
:1001C000594908600846006820F0030008600846A6
:1001D000006840F002000860524840685149486099
:1001E0000846406848600846406840F480604860BF
:1001F0000846406820F47C1048600846406840F497
:10020000E81048600846006840F08070086000BF51
:100210004448006810F0007FFAD04248406820F05F
:100220000300404948600846406840F002004860CA
:1002300000BF3C48406800F00C000828F9D10CBD14
:1002400010B5FFF793FF10BD10B53648006840F0B9
:100250000100344908600846406834490840314983
:10026000486008460068324908402E490860084640
:10027000006820F4802008600846406820F4FE00F2
:1002800048604FF41F008860FFF7DAFF4FF000600E
:100290002849086010BD10B5002100200022214B24
:1002A0005B6803F00C0121B1042906D0082928D18C
:1002B00007E0214B214C236027E01F4B1F4C23609C
:1002C00023E0184B5B6803F47010164B5B6803F473
:1002D0008032022303EB904022B9194B4343174C61
:1002E00023600DE00F4B5B6813F4003F04D0144B08
:1002F0004343124C236003E00F4B43430F4C2360F6
:1003000003E00D4B0D4C236000BF00BF054B5B6845
:10031000C3F303130B4CE15C084B1B68CB40074C49
:10032000236010BD00100240002002400000FFF8D2
:10033000FFFFF6FE08ED00E000127A00C800002082
:1003400000093D00CC00002010B50446CA48844294
:1003500008D10121042000F027FB0021042000F037
:1003600023FB46E0C548844208D10121082000F063
:100370001BFB0021082000F017FB3AE0C048844234
:1003800008D10121102000F00FFB0021102000F007
:100390000BFB2EE0BB48844208D10121202000F055
:1003A00003FB0021202000F0FFFA22E0B64884423F
:1003B00008D10121402000F0F7FA0021402000F090
:1003C000F3FA16E0B148844208D10121802000F000
:1003D000EBFA0021802000F0E7FA0AE0AC48844202
:1003E00007D10121801500F0DFFA0021A01500F0EF
:1003F000DBFA10BD10B50121084600F0D5FA002146
:10040000012000F0D1FA10BD2DE9F041024600258F
:100410000026002000230024002791F803C00CF0E0
:100420000F0591F803C01CF0100F03D091F802C023
:100430004CEA050591F800C0BCF1000F31D01468FA
:1004400000202BE04FF0010C0CFA00F3B1F800C0D3
:100450000CEA03069E4220D183004FF00F0C0CFAE9
:1004600003F7BC4305FA03FC4CEA040491F803C00B
:10047000BCF1280F06D14FF0010C0CFA00FCC2F8B9
:1004800014C00AE091F803C0BCF1480F05D14FF049
:10049000010C0CFA00FCC2F810C0401C0828D1D393
:1004A0001460B1F800C0BCF1FF0F34DD54680020C7
:1004B0002EE000F1080C4FF0010808FA0CF3B1F837
:1004C00000C00CEA03069E4221D183004FF00F0CBE
:1004D0000CFA03F7BC4305FA03FC4CEA040491F858
:1004E00003C0BCF1280F05D100F1080C08FA0CF884
:1004F000C2F8148091F803C0BCF1480F07D100F195
:10050000080C4FF0010808FA0CF8C2F81080401CE3
:100510000828CED35460BDE8F0814FF6FF7101800A
:10052000022181700421C170704702460020936847
:100530000B4201D0012000E000207047014688688E
:1005400080B2704702460020D3680B4201D00120E0
:1005500000E0002070470146C86880B27047016122
:100560007047416170470AB1016100E04161704725
:10057000C16070474FF480320A43826181618261B9
:1005800082698269704702460020424B18684FF624
:100590008073184040EA021008433E4B18607047D1
:1005A0003D49C8617047F0B50A4600230024002188
:1005B000002500F00046B6F1004F02D1354EF1693A
:1005C00001E0344E7168C0F3034583B200F4401675
:1005D000B6F5401F08D121F070612E4E766826F0E6
:1005E00070662C4F7E6012E000F48016B6F5801F16
:1005F00006D1032606FA05F4A14341F0706106E036
:10060000460D360103FA06F6B14341F0706122B19E
:10061000460D360103FA06F6314300F00046B6F106
:10062000004F02D11B4EF16101E01A4E7160F0BD26
:1006300030B500228B071C0F0F2303FA04F2154B71
:1006400008338C1053F824309343124C08348D1027
:1006500044F8253023468C1053F824308C07240F9F
:1006600000FA04F423430B4C08348D1044F8253071
:1006700030BD0A490860704700080140000C014085
:10068000001001400014014000180140001C01400E
:10069000002001400000014000002042DC00204218
:1006A000DD48006840F00100DB490860084640680A
:1006B000DA490840D849486008460068D8490840E7
:1006C000D54908600846006820F480200860084684
:1006D000406820F4FE0048604FF41F0088607047B7
:1006E000CD49096821F48031CB4A1160114609686F
:1006F00021F480211160B0F5803F03D0B0F5802F48
:100700000ED106E0C449096841F48031C24A116043
:1007100007E0C149096841F4A021BF4A116000E027
:1007200000BF00BF704710B5014600220023002023
:100730004A11012A02D1B84C236806E0022A02D1EC
:10074000B54C236A01E0B44C636A01F01F02012436
:1007500094401C4201D0012000E0002010BD38B5BB
:10076000002000900024002500BF3120FFF7DBFFB0
:1007700005460098401C00900098B0F5A06F01D08D
:10078000002DF2D03120FFF7CEFF08B1012400E0A8
:100790000024204638BD014600209F4A106820F002
:1007A000F80040EAC100106070479E490860704739
:1007B00002460020984B586820F47C1042EA01035E
:1007C0001843954B58607047964908667047014634
:1007D0000020914A506820F00300084350607047A1
:1007E0008D48406800F00C007047014600208A4A9E
:1007F000506820F0F0000843506070470146002028
:10080000854A506820F4E060084350607047014614
:100810000020814A506820F4605040EAC1005060D6
:10082000704729B17C4A527A02437B4B5A7204E0EA
:10083000794A527A8243784B5A7270477A490860F3
:10084000704701460020744A506820F44040084335
:10085000506070470021754A11706F4A82F820106D
:10086000012802D0042808D103E001216F4A117049
:1008700004E005216D4A117000E000BF00BF704721
:100880006B49086070476449096A0143624A116212
:100890007047674944390860704730B5002100222D
:1008A000002400235C4D6D6805F00C0121B1042982
:1008B00005D0082923D105E05E4D056022E05D4D9D
:1008C00005601FE0544D6D6805F47012524D6D685F
:1008D00005F48034022505EB92421CB9564D554370
:1008E00005600BE04C4D6D6815F4003F03D0524D90
:1008F0005543056002E04F4D5543056002E04D4D04
:10090000056000BF00BF444D6D6805F0F0010909A6
:100910004A4D6B5C0568DD4045603F4D6D6805F4F0
:10092000E061090A454D6B5C4568DD4085603A4DE4
:100930006D6805F46051C90A404D6B5C4568DD4047
:10094000C560354D6D6805F44041890B3C4D6B5CCD
:10095000C568B5FBF3F5056130BD29B12E4A526972
:1009600002432D4B5A6104E02B4A526982432A4BC1
:100970005A61704729B1284A92690243264B9A610D
:1009800004E0254A92698243234B9A61704729B15A
:10099000214AD2690243204BDA6104E01E4AD2693F
:1009A00082431D4BDA61704729B11B4AD26802436A
:1009B000194BDA6004E0184AD2688243164BDA60B9
:1009C000704729B1144A12690243134B1A6104E0BB
:1009D000114A12698243104B1A6170471449403919
:1009E000086070470F49C86470470B49C871704769
:1009F0000948406A40F080700749486270470146E4
:100A00000020054A92680A4201D0012000E000203F
:100A10007047014988727047001002400000FFF8DB
:100A2000FFFFF6FE00004242D80042422010024082
:100A30008004424200127A0000093D00DC000020E0
:100A4000EC00002030B943F2DB014FF0204242F8C5
:100A5000201005E043F2D2014FF0204242F820106E
:100A60006FF07042411C4FF0204343F821201146A3
:100A70001A4602EB8002C2F80411704710280AD10E
:100A800018214FF020421166402151664FF0FC3191
:100A90009166D16610E01821F84A11604FF04001CC
:100AA0004FF02042C2F884104FF0FC31F44A11603C
:100AB0004FF02042C2F88C1070471820F1490860AE
:100AC0004FF000004FF02041C1F8A4004FF0FC307F
:100AD000ED49086001F10401086001F104010860BA
:100AE0007047D0E901121143C268114302691143F2
:100AF0004269114382691143C2691143026A114379
:100B0000426A1143826A1143C26A1143026B114364
:100B10004FF02043026843F822108168082908D169
:100B20001A46016852F8211041F04001026843F86A
:100B30002210416B0968426B526841EA0211426B14
:100B4000926841EA0221426B928941EA0241426B7A
:100B5000128A41EA0251426B127D41EA0261426B04
:100B6000926911430268521C4FF0204343F822104F
:100B7000C16AB1F5804F1AD1816B0968826B5268E6
:100B800041EA0211826B926841EA0221826B128A69
:100B900041EA0251826B127D41EA0261826B9269E5
:100BA0001143026803EB8202C2F8041108E06FF0FF
:100BB00070414FF02043026803EB8202C2F8041137
:100BC000704730B5002100220023446844F0080437
:100BD00085682C43C5682C4305692C43456944EA64
:100BE0004524856944EA4531C4692468C5696D684E
:100BF00044EA0524C5692D8944EA0544C5692D7B6D
:100C000044EA0562046A2468056A6D6844EA0524BA
:100C1000056A2D8944EA0544056A2D7B44EA05638B
:100C20000468102C05D14FF020442166A266E366CB
:100C300007E0924C21604FF02044C4F88820934C88
:100C4000236030BD016841F01001426841EA422151
:100C5000826841EA42318B4A1160C1680968C26802
:100C6000526841EA0221C268128941EA0241C2681F
:100C7000127B41EA0261844A1160016909680269D4
:100C8000526841EA02210269128941EA024102697D
:100C9000127B41EA02617E4A11604169096842693A
:100CA000526841EA02214269128941EA02414269DD
:100CB000127B41EA02614FF02042C2F8B010704747
:100CC000002101600221416000218160C160016159
:100CD00041618161C16101624FF48051416249000B
:100CE00081620021C16201630F21426B1160426B7E
:100CF0005160FF21426B91600F21426BD160426BCA
:100D00001161426B51610021426B91610F21826B35
:100D10001160826B5160FF21826B91600F21826BA9
:100D2000D160826B1161826B51610021826B916194
:100D3000704710210160002141608160C160016144
:100D400041618161FC21C2691160C2695160C2695F
:100D50009160C269D160026A1160026A5160026AE0
:100D60009160026AD160704700210160416081603A
:100D7000FC21C2681160C2685160C2689160C2689B
:100D8000D160026911600269516002699160026973
:100D9000D160426911604269516042699160426963
:100DA000D160704751B14FF0204252F8202042F0FC
:100DB00001024FF0204343F8202009E04FF0204289
:100DC00052F82020334B1A404FF0204343F82020A4
:100DD000704799B1102808D14FF02042126E42F0AE
:100DE00004024FF020431A661DE0244A126842F0C4
:100DF00004024FF02043C3F8802014E0102809D1EA
:100E00004FF02042126E234BDB1E1A404FF020435E
:100E10001A6608E0194A12681F4B02EA03024FF0F3
:100E20002043C3F88020704740B11649096841F05B
:100E300004014FF02042C2F8A01008E011490968EF
:100E4000154A01EA02014FF02042C2F8A010704793
:100E500099B1102808D14FF02042126E42F04002A2
:100E60004FF020431A662DE0044A126842F0400217
:100E70004FF02043C3F8802024E00FE0800000A062
:100E8000880000A0A00000A0A80000A08C0000A086
:100E9000AC0000A0FEFF0F00FBFF0F00102808D1E0
:100EA0004FF02042126E684B1A404FF020431A66F2
:100EB00008E0664A1268644B02EA03024FF02043DE
:100EC000C3F88020704701460020102903D14FF05D
:100ED0002042506F01E05E4A1068704710B5F2B1D1
:100EE000102807D14FF020435B6E0B434FF0204496
:100EF000636632E0B0F5807F08D1564B1B6843EA49
:100F000001034FF02044C4F8843026E0524B1B68A4
:100F100043EA01034FF02044C4F8A4301DE0102838
:100F200007D14FF020435B6E8B434FF02044636644
:100F300013E0B0F5807F08D1464B1B6823EA01031C
:100F40004FF02044C4F8843007E0434B1B6823EA89
:100F500001034FF02044C4F8A43010BD10B5024680
:100F600000200023102A03D14FF02044636E07E0D5
:100F7000B2F5807F02D1374C236801E0364C2368FC
:100F80000B4201D0012000E0002010BD102807D145
:100F90004FF02042526E8A434FF020435A6613E0CE
:100FA000B0F5807F08D12B4A126822EA01024FF087
:100FB0002043C3F8842007E0274A126822EA01028E
:100FC0004FF02043C3F8A420704770B502460020BC
:100FD000002300240025102A03D14FF02046736E11
:100FE00007E0B2F5807F02D11A4E336801E01A4E55
:100FF000336803EA010403EAD10514B10DB10120FD
:1010000000E0002070BD102808D14FF02042526E41
:1010100022EAD1024FF020435A6613E0B0F5807FF8
:1010200008D10C4A126822EAD1024FF02043C3F8DB
:10103000842007E0084A126822EAD1024FF02043D8
:10104000C3F8A42070470000BFFF0F00800000A07D
:10105000940000A0840000A0A40000A010B50446E5
:10106000FB48844209D101218803FFF79DFC002140
:101070004FF48040FFF798FC32E0F648844209D1F3
:1010800001214804FFF79DFC00214FF40030FFF7D9
:1010900098FC25E0F048844209D101218804FFF73B
:1010A00090FC00214FF48020FFF78BFC18E0EB4808
:1010B000844209D10121C804FFF783FC00214FF4C9
:1010C0000020FFF77EFC0BE0E548844208D10121B7
:1010D0000805FFF776FC00214FF48010FFF771FC44
:1010E00010BD2DE9F04786B005460E460024A24605
:1010F00000BFA1460027B08900B100BF2F462C8A4F
:101100004CF6FF700440F08804432C82AC894EF604
:10111000F3100440B08831890843718908430443BF
:10112000AC81AC8A4FF6FF400440B0890443AC82E6
:1011300001A8FFF7B2FBC648874202D1DDF810A034
:1011400001E0DDF80CA0A88910F4004F08D00AEBEC
:10115000CA0000EB0A1031684900B0FBF1F807E063
:101160000AEBCA0000EB0A1031688900B0FBF1F805
:101170006420B8FBF0F004012009642101FB108910
:10118000A88910F4004F08D0322000EBC900B0FB52
:10119000F1F000F00700044308E0322000EB0910F2
:1011A0006421B0FBF1F000F00F0004432C8106B085
:1011B000BDE8F0874FF41651016000218180C180A5
:1011C00001810C21418100218181704710B50246C7
:1011D0000020108A4FF2FF0318400B884C882343ED
:1011E0008C882343CC8823431843108210BD0021F0
:1011F000018041808180C180704721B1828942F4A1
:101200000052828104E082894DF6FF731A40828188
:101210007047F0B503460024002600250020A1F504
:1012200010676A3F00D100BF1846C1F3421401F0B5
:101230001F06012707FA06F5012C01D10C3004E046
:10124000022C01D1103000E014301AB107682F438E
:10125000076002E00768AF430760F0BD1AB1838AF8
:101260000B43838202E0838A8B4383827047028A26
:101270004FF6F0731A400282028A0A4302827047D4
:1012800082894FF2FF731A40828182890A438281E8
:10129000704721B1828942F00202828104E0828992
:1012A0004FF6FD731A4082817047028A4FF6DF7352
:1012B0001A400282028A0A430282704721B1028ADE
:1012C00042F48042028204E0028A4BF6FF731A4025
:1012D00002827047C1F30802828070470146888805
:1012E000C0F308007047818941F001018181704796
:1012F000028BD2B20283028B42EA01220283704740
:10130000028B02F47F420283028B0A4302837047FE
:1013100021B1828A42F02002828204E0828A4FF662
:10132000DF731A408282704721B1828A42F0100234
:10133000828204E0828A4FF6EF731A4082827047FD
:1013400021B1828A42F00802828204E0828A4FF64A
:10135000F7731A408282704721B1828942F40042B9
:10136000828103E08289C2F30E028281704721B13B
:10137000828A42F40062828204E0828A4FF2FF7322
:101380001A4082827047828A4FF6FB731A4082822B
:10139000828A0A438282704721B1828A42F0020225
:1013A000828204E0828A4FF6FD731A40828270477F
:1013B00002460020B1F5007F00D100BF13880B4228
:1013C00001D0012000E00020704701F40072B2F566
:1013D000007F00D100BFCA430280704770B502464B
:1013E0000024002300250020A1F510666A3E00D1EC
:1013F00000BFC1F3421501F01F03012606FA03F3F3
:10140000012D02D19689334006E0022D02D1168AC1
:10141000334001E0968A33400C12012606FA04F4A8
:101420001688344013B10CB1012000E0002070BDDB
:1014300010B500220023A1F510646A3C00D100BF62
:101440000A1201249440A3B2DC43048010BD0000C2
:10145000003801400044004000480040004C00407B
:101460000050004072B6704762B67047EFF31080CC
:1014700072B6704780F31088704730BF704720BF46
:101480007047B0FA80F0704790FAA0F0B0FA80F0A0
:10149000704790FAA0F070470649074A0868504321
:1014A00043F239021044086040087047014908605F
:1014B00070470000E80100206D4EC64140EA01037C
:1014C0009B0703D009E008C9121F08C0042AFAD2FA
:1014D00003E011F8013B00F8013B521EF9D27047BE
:1014E0000EB5C10F80EAE0700844CA07002140F23F
:1014F00033438DE80E000A460B4600F03AF803B07D
:1015000000BD000030B5041E71F1000404DB4FF093
:101510000044404264EB0101141E73F1000405DB3A
:101520001C464FF00043524263EB04038B4208BF5A
:10153000824230BD202A04DB203A21FA02F0002149
:10154000704721FA02F3D040C2F1200291400843D3
:101550001946704710B5141E73F1000408DA401CD8
:1015600041F1000192185B411A4301D120F00100C2
:1015700010BD2DE9F04D92469B4611B1B1FA81F2B2
:1015800002E0B0FA80F22032904600F0A3F8044660
:101590000F4640EA0A0041EA0B0153465A46084307
:1015A00013D0114653EA010019D0C8F14002504649
:1015B000FFF7C0FF05460E4650465946424600F02A
:1015C00089F8084305D0012004E020463946BDE8EB
:1015D000F08D0020054346EAE0762C4337430A9815
:1015E0006305E40AA0EB08000022FD0A44EA475420
:1015F0000A3002D500200146E9E7010510196941CA
:10160000DDE9084500196941BDE8F04DA2E72DE983
:10161000F04D00231A461B1A8A4103DB00200146C5
:10162000BDE8F08DC1F30A52C1F3130141F48015F6
:101630004FF0000BD10702D100186D41521E002758
:10164000044640F2FF11384601EB620A3E468046EE
:10165000024600204FF48011FFF76CFFC219714160
:10166000BB1846EB0100B4EB030C75EB000C04D384
:10167000E41A65EB000517460E46241908F101002F
:101680006D4180463428E3DDF91946EB0600091B5D
:10169000A84103D24FF0FF32134601E00022134667
:1016A0001BEB070046EB0A51BDE8F04DFFF752BFB8
:1016B000064C074D06E0E06840F0010394E807009F
:1016C00098471034AC42F6D3FEF736FD50CB0008F5
:1016D00070CB0008202A04DB203A00FA02F1002037
:1016E00070479140C2F1200320FA03F31943904060
:1016F000704770B58C1810F8015B15F0070301D125
:1017000010F8013B2A1106D110F8012B03E010F864
:10171000016B01F8016B5B1EF9D12B0705D4002387
:10172000521E0DD401F8013BFAE710F8013BCB1A29
:10173000921C03E013F8015B01F8015B521EF9D51E
:10174000A142D8D3002070BD18484FF0FF010170AE
:10175000002080F309881648016881F3088815483D
:101760004FF08051016062B6FEE772B6EFF3098078
:1017700028B1203880E8F00F0F490968086000B5EB
:101780000E4880475DF804EB0D480E490A78027058
:1017900009480D490A680260106890E8F00F20308F
:1017A00080F309884EF0040E62B6704722ED00E027
:1017B000E001002004ED00E0D8010020E13E000837
:1017C0006601002067010020DC01002008B5B9494E
:1017D000088800EBD0714910B74A1180B74A1180D0
:1017E000B449488800EBD0714910B34A1180B44A1B
:1017F00011805DE1B3480088401CB2490880B248BE
:10180000007800285AD0B1480078032856D1B04853
:101810000088B0490988884222D1AF480088AF4982
:10182000098888421CD1A7480088FFF73FFEFFF7D0
:1018300033FEA0490988283990FBF1F201FB120020
:101840001430A4490880FFF727FE014699484088D4
:101850006A3891FBF0F200FB121056309F49088065
:101860009B4800889B490988884205DD9848008884
:10187000401E974908800AE09548008895490988E4
:10188000884204DA92480088401C914908809248B6
:10189000008892490988884205DD8F480088401EEB
:1018A0008D4908800AE08C4800888C490988884264
:1018B00004DA89480088401C87490880884800224B
:1018C00004210368874800F0ABFC18B10120864969
:1018D000088022E08248002208210368814800F045
:1018E0009FFC18B102208049088016E07C48002245
:1018F000102103687B4800F093FC18B103207A495B
:1019000008800AE07648012211460368774800F013
:1019100087FC10B1042074490880734800880028AF
:1019200066D06948007860B968480078042808DA09
:1019300001206549087000206B4908800220634936
:10194000087069480088012815D0022804D00328AF
:1019500032D0042842D11DE065480088401C64490B
:10196000088056480088062804DD54480088C01EB8
:101970005249088032E05E480088401C5C4908807B
:101980004F480088482804DD4D480088C01E4C4957
:10199000088023E056480088401C55490880454887
:1019A0000088801F50490988884204DD4348008828
:1019B000C01C4249088011E04D480088401C4C4939
:1019C00008803C484088801F3D490988884204DDE2
:1019D0003B480088C01C3A49088000BF00BF44480B
:1019E00000880A2804D10020414908803E49088027
:1019F00032490988364A1288891A4943304A12887E
:101A0000354B1B88D21A2E4B1B88DFF8CCC0BCF894
:101A100000C0A3EB0C0302FB0310FFF761FD0646B9
:101A200005F0F0FE04460022324BFFF76BFD22D298
:101A300031480078401C3049087000202249087065
:101A4000234800882D490880234800882C490880B5
:101A5000204800881E490880204800881E490880C8
:101A6000012028490870002027490870174800788D
:101A7000401C1649087023480078A0B14FF48071CB
:101A80002248FEF76CFD1F480078401C1D49087075
:101A900008460078062806D1002008704FF48071AF
:101AA0001A48FEF75EFD6A460021322002F06AFA0B
:101AB000A0E60000BE00002020000020180000204A
:101AC0001A0000200A0000202D0000202C00002019
:101AD0000C000020100000200E000020120000204A
:101AE00004000020001801401C00002000080140F4
:101AF0001E00002000002E4024000020B600002020
:101B0000B80000202F000020B4000020000C01408D
:101B10001CB501A9002002F0B3F9A0E050480078FC
:101B2000032802D0042831D131E010234D48028827
:101B30004D4801884D48008801F000F80F234FF40C
:101B400078424B4801884B48008800F0F7FF49482D
:101B50000088464908804648008843490880414833
:101B60000288454801884548008800F0C7FC0022EB
:101B7000434801884348008800F0C0FC4148008881
:101B80003E4908803E4800883B49088061E03E4865
:101B90000378344802883D4801883D48008800F0B9
:101BA000CDFF39480078C01C3749087008460078D6
:101BB0000A2835DB4FF478403649088032480078EF
:101BC000401CC2B2314801883148008800F04AFC0C
:101BD0002D480078801CC2B22C4801882C4800880F
:101BE00000F040FC28480078C01CC2B22748018899
:101BF0002748008800F036FC23480078001DC2B258
:101C0000224801882248008800F02CFC1E480078F9
:101C1000001DC2B21D4801881D48008800F022FC4A
:101C2000194800780F2813DD4FF6FF7000901A480E
:101C30004088801F83B218480088801F82B24721E5
:101C4000052000F09DFC06480078401E04490870FD
:101C500000BF00BF01AA0021642002F093F95DE7F4
:101C60002C000020BC0000201600002014000020E2
:101C70000E0000200C000020220000202000002088
:101C80001A00002018000020B4000020B800002036
:101C9000B6000020BA000020BE0000200EB505F0FE
:101CA0005DFB69E03548007820B101280AD00228A0
:101CB00046D11CE000F08AFE30480078401C2F49D5
:101CC00008703DE04FF6FF7000902D484088801F5F
:101CD00083B22B480088801F82B24721052000F084
:101CE0004FFC26480078401E2449087028E04FF633
:101CF000FF70009022484088801F83B220480088EF
:101D0000801F82B24721052000F03AFC0F234FF4D8
:101D100078421C4801881C48008800F00FFF002210
:101D20001A4801881A48008800F0E8FB02A91948FF
:101D300001F05CFE11480078401C1049087000BF9B
:101D400000BF002018210323CDE9001012480278BB
:101D50002121602000F0DBFD0F4800780A2190FB74
:101D6000F1F201FB1200C4B2204600F04BFF02AAC0
:101D70000021642002F006F994E700002C00002006
:101D8000BE0000200E0000200C0000201A000020E1
:101D900018000020801500202400002070B58AB0B3
:101DA000064600F0B7F800F0C9F800F0ABF80446BA
:101DB00030480068B4FBF0F5284602F0EDFA00F078
:101DC0006FFF09A801F022FB00F026F909AA002103
:101DD000012001F0ADF909A8032100220592CDE907
:101DE0000621089005204FF400713322224BCDE9E3
:101DF0000132CDE9031003200023204A20A10090E6
:101E0000234801F08DFB09A8032100220592CDE9AA
:101E10000621089005204FF4007133221D4BCDE9B7
:101E20000132CDE90310032000231B4A1BA10090BF
:101E30001E4801F075FB09A8032100220592CDE997
:101E40000621089005204FF400713322184BCDE98C
:101E50000132CDE9031004200023164A16A1009098
:101E6000194801F05DFB09A9002001F0AFFC0AB0A0
:101E700070BD0000A0C90008B8040020CD170008FC
:101E8000417070205461736B204C65643100000018
:101E9000B80C0020800D0020111B0008417070203C
:101EA0005461736B204C6564320000008015002083
:101EB000481600209D1C0008417070205461736B0F
:101EC000204C656433000000481E002008B5012145
:101ED0000820FEF74FFD4FF48070ADF80000102091
:101EE0008DF8030003208DF8020069460448FEF7D0
:101EF0008BFA4FF480710248FEF733FB08BD0000F7
:101F0000000C014000B585B06846FEF7C6FC01989C
:101F100005B000BD10B500F079F900F061FE05F0E4
:101F2000DBFB05F0DFFAFFF7D1FF00200149088055
:101F300010BD0000BA00002000BFFEE710B500F0A1
:101F4000FBF800F003F800F0F3F810BD70B50026C0
:101F50000020184908801849088018490860184965
:101F6000086018490860184908601849086000248A
:101F700000BFFFF77BFA064600BF00250BE00020FC
:101F80001049086000F074F800F08CF80D48006803
:101F90000444681C85B2002DF1D00C480460002078
:101FA000084908600849086000BF3046FFF762FA38
:101FB00000BF70BDF4000020F6000020F8000020F3
:101FC000FC00002004010020080100200001002086
:101FD00001460846044A1268904203D9024A126830
:101FE000801A00E0002070470001002070B5002535
:101FF00000BFFFF73BFA054600BF0648046800BF74
:102000002846FFF737FA00BF2046FFF7E1FF0646F4
:10201000304670BD0401002070B50025FFF7E6FFD3
:10202000044600BFFFF722FA054600BF002004491E
:10203000086000BF2846FFF71DFA00BF204670BDAC
:102040000401002070B5002500BFFFF70FFA054618
:1020500000BF0648046800BF2846FFF70BFA00BF20
:102060002046FFF7B5FF0646304670BD0801002048
:1020700010B509480088401C0749088007480088B7
:1020800018B900F083F80649086004480088401C2D
:102090000249088010BD0000F4000020F600002076
:1020A000F800002010B50F480088401E0D49088038
:1020B00008460088A0B900F069F80B490860084696
:1020C00000680A490968441A09480068A04201D218
:1020D0000748046007480068A04201D20548046030
:1020E00010BD0000F6000020FC000020F8000020D9
:1020F000040100200801002010B5002400BF00BF2B
:10210000FFF7B4F9044600BFFFF7B2FF00BF10218C
:10211000064800F0BBFD00BFFFF7C4FF00BF20462C
:10212000FFF7A8F900BF00BF10BD0000101F00207E
:1021300010B5FFF7E1FF10BD10B50020024908609F
:1021400000F00AF810BD0000F0000020014908600E
:1021500070470000F000002010B50A48006840F009
:1021600080700849086000200749486008460068F8
:1021700040F001000860FFF7C5FE04462046FFF767
:10218000E5FF10BDFCED00E0001000E001484068F4
:1021900070470000001000E0704700BFFEE700003D
:1021A00008B501214020FEF7E5FB0420ADF8000052
:1021B00048208DF8030069460148FEF725F908BD5F
:1021C0000018014008B501214020FEF7D3FB08208C
:1021D000ADF8000048208DF8030069460148FEF77D
:1021E00013F908BD0018014008B501214020FEF791
:1021F000C1FB1020ADF8000048208DF803006946AF
:102200000148FEF701F908BD0018014010B5FFF7BD
:10221000C7FFFFF7D7FFFFF7E7FF00F02DF810BD6E
:102220002DE9FE430746884614461D464FF0000937
:1022300041463846FEF779F90646A64211D102A872
:10224000002114230A46CDE90010084601F042FFA0
:1022500041463846FEF769F90646A64201D10120FB
:102260002870A64205D02878012802D18146002096
:1022700028704846BDE8FE8308B501210420FEF71A
:1022800079FB0120ADF8000028208DF80300694695
:102290000148FEF7B9F808BD0008014070B50646D0
:1022A0000F484088401E83B20D480088401E82B20D
:1022B0000021084600F09DF900240CE0002504E010
:1022C000304600F033FC681C85B205484088A842BF
:1022D000F6DC601C84B202480088A042EEDC70BDCF
:1022E000BE00002010B50446134884715CB9082173
:1022F000362000F00BFC4FF4F0700F4948804FF48B
:10230000A070088016E02821362000F0FFFBB620E0
:1023100000F0F6FB002000F003FC022000F000FCBF
:102320003B2000F0FDFB4FF4A070034948804FF4C0
:10233000F070088010BD0000BE00002070B504469B
:102340000D4616462B4622462946204600F051F9F6
:10235000304600F0EBFB70BD2DE9FF4F84B08146A5
:102360008A460020039002900698A0EB0905079882
:10237000A0EB0A06CDF80490CDF800A0002D01DDF9
:10238000012705E00DB9002702E04FF0FF376D424D
:10239000002E02DD4FF0010806E016B94FF00008EC
:1023A00002E04FF0FF387642B54201DD2C4600E0F6
:1023B00034464FF0000B21E0009A91B2019A90B29E
:1023C00000F022F8039828440390029830440290C9
:1023D0000398A04205DD0398001B03900198384440
:1023E00001900298A04205DD0298001B029000981F
:1023F000404400900BF101001FFA80FB601C8345F4
:10240000DADD08B0BDE8F08F30B504460D462B4646
:1024100022462946204600F0ECF80248008800F0E9
:1024200085FB30BDBA000020F0B504460D461646C7
:102430001F462B46324629462046FFF78DFF3B4676
:10244000224629462046FFF787FF3B46324639465B
:102450002046FFF781FF3B46324629463046FFF7CC
:102460007BFFF0BD2DE9F04306460F469046002461
:1024700045460320A0EB48093CE07A1B91B2321993
:1024800090B2FFF7C1FF3A1B91B2721990B2FFF7F9
:10249000BBFF3A1991B2721990B2FFF7B5FF7A19E2
:1024A00091B2321990B2FFF7AFFF7A1991B2321B95
:1024B00090B2FFF7A9FF3A1991B2721B90B2FFF7E1
:1024C000A3FF7A1B91B2321B90B2FFF79DFF3A1B1C
:1024D00091B2721B90B2FFF797FF641CB9F1000F25
:1024E00003DAA000801D814404E0601B80000A30F4
:1024F00081446D1EAC42C0DDBDE8F083F0B50446FA
:102500000D46174605F1010C1FFA8CF304F1010C7E
:102510001FFA8CF2A5F1010C1FFA8CF1A4F1010C49
:102520001FFA8CF000F065F8002604E0384600F051
:10253000FDFA701CC6B2092EF8DB211D8AB2211FDC
:1025400088B22B46294600F054F8002604E03846AD
:1025500000F0ECFA701CC6B2092EF8DB281D83B21D
:10256000281F81B22246204600F043F8002604E0EE
:10257000384600F0DBFA701CC6B2092EF8DBF0BD5D
:102580002DE9F04304460D4616461F46DDF81C8033
:10259000B44201DCBD4201DDBDE8F0833B4632467A
:1025A0002946204600F025F8301B401C84B2781BD9
:1025B000401C85B20BE0A94602E0404600F0B6FAA6
:1025C000B9F10000A9F101011FFA81F9F5D1201E2E
:1025D000A4F101018CB2EED100BFDDE710B50246D7
:1025E000012000E050430B1EA1F10104E1B2F9D13A
:1025F00010BD70B504460D462A2000F081FA26462B
:10260000E11704EB1161C1F30F2000F089FAE11723
:1026100004EB11610912A4EB012188B200F080FAE9
:102620001646D11702EB1161C1F30F2000F078FAC2
:102630001646D11702EB11610912A2EB012188B2F3
:1026400000F06EFA2B2000F05BFA2E46E91705EB3E
:102650001161C1F30F2000F063FAE91705EB116176
:102660000912A5EB012188B200F05AFA1E46D917CB
:1026700003EB1161C1F30F2000F052FA1E46D91787
:1026800003EB11610912A3EB012188B200F048FAB3
:102690002C2000F035FA70BD2DE9F84F80460E462B
:1026A00017461C46B3462046E31704EB5373DB1072
:1026B00021464FEAE47C04EB5C7C4FEAEC0CA4EB93
:1026C000CC0CBCF1000F02D04FF0010C01E04FF038
:1026D000000C6344224604EBD27C4FEA6C0C03FBF3
:1026E0000CF3DBB20093A7F12000C7B2002556E03F
:1026F0000C2C07D107EB47002B4901EB800010F8A9
:10270000059013E0102C05D1284800EB071010F8B5
:1027100005900BE0182C07D107EBC700244901EB0B
:10272000800010F8059001E0BDE8F88F4FF0000A36
:102730002FE009F0800030B11E4802883146404643
:10274000FFF7FCFD07E00A9828B91B4802883146CC
:102750004046FFF7F3FD4FEA49604FEA1069701CED
:1027600086B216484088B04200DCDDE7A6EB0B00DD
:10277000A0420AD15E4608F101001FFA80F80F4816
:102780000088404500DCCFE706E00AF1010000F0D8
:10279000FF0ABAF1080FCCDB00BF681CC5B2009875
:1027A0008542A5DB00BFBFE750780008C47C000865
:1027B000B4820008BA000020BC000020BE00002047
:1027C0002DE9F84F04460F461546A346009760E0F2
:1027D000002657E006EB8600C0EB86102F4911F863
:1027E0001000297888424BD106EB8600C0EB86109A
:1027F0002A4901EB400040786978884240D14FF087
:1028000000083AE006EB8600C0EB8610234901EB96
:102810004000801C10F808A04FF0000926E00AF0E4
:102820008000802806D11E48028839462046FFF7DE
:1028300085FD05E01B48028839462046FFF77EFDEE
:102840004FF6FF7000EA4A0A601C84B2A4EB0B004A
:10285000202807D15C46781C87B20098381A1D28BA
:1028600000D1009F09F1010000F0FF09B9F1080F44
:10287000D5DB08F1010000F0FF08B8F1740FC1DBEF
:10288000701CC6B2142EA5DBAD1C04F1200084B26E
:10289000A346287800289BD1BDE8F88F90BF000898
:1028A000BA000020BC0000202DE9F84704460D4680
:1028B00090469946DDE9096704F0FF0A08EB040039
:1028C0001FFA80F809EB05001FFA80F916E044456D
:1028D00002DB5446A81985B24D4500DB14E0002008
:1028E00000903A78334629462046FFF7D5FE304619
:1028F00006EBD07104EB61018CB27F1C38787E2826
:1029000002DC38782028E2DA00BFBDE8F8872DE93C
:10291000FF4F82B0064692461F46DDE90F48002071
:10292000019000254DE0781B401EC1B20A20FFF740
:1029300055FEBAFBF0F00A21B0FBF1F201FB1209DF
:10294000019850BB781EA84227DDB9F1000F22D1B3
:1029500008F0800078B108F00100A34604EBDB71B9
:10296000491001FB0561009088B22346302203998B
:10297000FFF792FE0EE008F00100A34604EBDB71C6
:10298000491001FB0561009088B22346202203997B
:10299000FFF782FE13E00120019008F00100A3463A
:1029A00004EBDB71491001FB0561009088B209F16D
:1029B0003001CAB223460399FFF76EFE00BF681CC0
:1029C000C5B2BD42AFDB06B0BDE8F08F7CB50020DC
:1029D0003C4908803CA200210846FFF7F1FE3CA0DC
:1029E0001821CDE900103D490C8804EBD471481042
:1029F0001D2360220021FFF757FF39A2212100206B
:102A0000FFF7DEFE1F202F490880002036490860AE
:102A10001BE0324C6488344D2D88641B641EA3B2C5
:102A20002E4C2488304D2D88641B641EA2B22E4C7F
:102A300024884234A1B22C4C2488A0B2FFF7F4FCC5
:102A400029480068401C2849086027480068052874
:102A5000DFDB22490C88E11704EB917188100F230A
:102A60004FF47842632100F069F81C490C8804EBAC
:102A7000D47148100F234FF4FC62632100F05EF81C
:102A800016490C88E11704EB9171891001EB4101A3
:102A900088B20F231F22632100F050F80F4A548898
:102AA00004EBD4725210213291B20C4A1288A2F572
:102AB000807505EBD572C2F34F000CA2FFF780FEC4
:102AC0007CBD0000BA000020D5D4BDF0BBC0000022
:102AD000323136383032333000000000BE00002082
:102AE000B7D6CAFDA3BA000028000020B0B4CFC2F8
:102AF000B0B4BCFCBFAACABCD3CECFB700000000A4
:102B00000149088070470000FE07006C00B50346CD
:102B10000A461846FFF7F4FF104600F001F800BD22
:102B200001490880704700000008006C0112024A49
:102B30001180C1B2118070470008006CF0B50646E4
:102B40000F4615461C460748058004E022463946D4
:102B50003046FFF787FC201EA4F10101CCB2F5D16D
:102B6000F0BD0000BA00002008B501211020FDF7DB
:102B700001FF0120ADF8000010208DF803000320B4
:102B80008DF8020069461548FDF73EFC0121102032
:102B9000FDF7F0FE0220ADF8000069460F48FDF792
:102BA00033FC01211020FDF7E5FE0420ADF8000004
:102BB00069460A48FDF728FC01211020FDF7DAFEDE
:102BC000F820ADF8000010208DF8030003208DF8E8
:102BD000020069460148FDF717FC08BD00100140DE
:102BE00010B5FFF7C1FF01210548FDF7B8FC022130
:102BF0000348FDF7B4FC04210148FDF7B0FC10BD0B
:102C00000010014010B504460A2C38D2DFE804F069
:102C1000050A0F14191E23282D32FF211948FDF72C
:102C2000A7FC2CE0FE211748FDF7A2FC27E0FC21C1
:102C30001448FDF79DFC22E0F8211248FDF798FCAE
:102C40001DE0F0210F48FDF793FC18E0E0210D484E
:102C5000FDF78EFC13E0C0210A48FDF789FC0EE069
:102C600080210848FDF784FC09E000210548FDF7B4
:102C70007FFC04E0AA210348FDF77AFC00BF00BFF7
:102C800010BD00000010014000BFFEE730B5054652
:102C90000C4622460021284600F026F830BD0000F0
:102CA0000D480E4901600146416000218160C1600C
:102CB000016141618161C16101620163C16241627F
:102CC00007498163C1634FF4D841016441640146FF
:102CD000044A116070470000201F00204845415001
:102CE000681F00200C0100202DE9F04103460C462E
:102CF00017460FB9BDE8F08103B9FBE700250022B4
:102D000002E02D022543521C042AFAD3384603F070
:102D1000030C1946BCF1000F08D0624603E001F82D
:102D2000014B401E521C08B1042AF8D30E4601E0A4
:102D300020C6001F0428FBD2314602E001F8014BF7
:102D4000401E0028FAD100BFD4E77047704700004A
:102D500010B50348006810B101480068804710BDF5
:102D60001C01002070B5044600F0C2F8002048495C
:102D7000087048490870484908704849086048493F
:102D8000086048490870484908704849087048492F
:102D90000860484908604849086048490870484840
:102DA00000680A21B0FBF1F0464908604648006817
:102DB00058B14648056845B14348066803E0761EA9
:102DC000002028602D1D002EF9D100204049086008
:102DD000404908604049086040490860404908602F
:102DE00040490860404908604049087002F066FAAE
:102DF00002F064FB204601F0C1FB208800B170BDE9
:102E0000204601F0DBFF208800B1F8E7204601F002
:102E1000E1FF208800B1F2E7204602F0C5F82088E3
:102E200000B1ECE7204602F079FA208800B1E6E72D
:102E3000204602F0C9FC208800B1E0E7204603F0FC
:102E400033F8208800B1DAE7204601F023FF20881C
:102E500000B1D4E7204601F02DFD208800B1CEE777
:102E6000204604F089F8208800B1C8E7204602F027
:102E70005FFF208800B1C2E7204604F0D9F820881F
:102E800000B1BCE701F0A0FAFFF760FF00BFB6E7B2
:102E9000300100203801002080010020D8010020EE
:102EA000DC0100206601002067010020680100208D
:102EB00074010020780100207C010020880100209E
:102EC000A0C900088401002070C900086CC900086E
:102ED0001001002014010020180100201C01002016
:102EE000200100202401002028010020B60100203C
:102EF0000A4A1168002002E0002204C1401C084A6E
:102F000012689042F8D3054A1268054B1B6802EB21
:102F10008302121F034B1A60704700006CC900083F
:102F200070C90008E001002010B500242E48007888
:102F3000012800D010BD00BFFEF798FA044600BF7C
:102F40002A48007828B900BF2046FEF793FA00BF50
:102F5000F0E726480078401E2449087008460078AB
:102F6000002805DD00BF2046FEF784FA00BFE1E738
:102F70001F480078002805DD00BF2046FEF77AFADA
:102F800000BFD7E702F086F91A49087008460078B2
:102F900000EB4000184951F8200018490860084625
:102FA000006817490968884205D100BF2046FEF72E
:102FB00061FA00BFBEE711480068D0F89000401CDD
:102FC0000E490968C1F890000E480068401C0D4980
:102FD00008604FF080500C49086000BF2046FEF7A3
:102FE00049FA00BF00BFA5E73801002030010020EA
:102FF000800100206701002094A10020DC01002056
:10300000D8010020AC01002004ED00E010B5002440
:1030100020480078002800DD10BD1F4800780028F7
:1030200000DDF9E700BFFEF721FA044600BF02F019
:1030300031F91A4908700846007800EB4000184939
:1030400051F82000174908600846006816490968C9
:10305000884205D100BF2046FEF70CFA00BFDBE72F
:1030600010480068D0F89000401C0E490968C1F86B
:1030700090000E480068401C0C4908604FF08050DA
:103080000B49086000BF2046FEF7F4F900BF00BFFF
:10309000C2E700003001002080010020670100200D
:1030A00094A10020DC010020D8010020AC01002008
:1030B00004ED00E070B5044600251A4800780028A9
:1030C00003DD46F66250208070BD17480078012865
:1030D00003D045F689602080F6E714480078FA2886
:1030E00003DB45F209202080EEE700BF00BFFEF7BA
:1030F000BDF9054600BFFEF7BBFF00BF0B480078D7
:10310000401C0A49087002F0BDFA00BFFEF7CAFF72
:1031100000BF2846FEF7AEF900BF00BF00202080A8
:1031200000BFD1E7300100203801002080010020DD
:103130002DE9F04105460C461646002700BF00BFAA
:10314000FEF794F9074600BFFEF792FF00BF012D7E
:1031500003D000200E49087002E001200C490870DD
:1031600014B10C48046006E00B4800680A21B0FB6B
:10317000F1F00849086000BFFEF794FF00BF384631
:10318000FEF778F900BF00BF00203080BDE8F08175
:103190008801002084010020A0C9000870B5044601
:1031A000002523480078002803DD46F6655020807E
:1031B00070BD20480078012803D045F68960208042
:1031C000F6E71D48007818B946F664502080EFE70E
:1031D00000BF00BFFEF74AF9054600BFFEF748FFF3
:1031E00000BF15480078401E134908700846007853
:1031F00000280CDD00BFFEF755FF00BF2846FEF794
:1032000039F900BF00BF46F663502080D0E702F0D6
:1032100047FA00BFFEF746FF00BF2846FEF72AF92F
:1032200000BF00BFFFF7F2FE0020208000BFBFE715
:1032300030010020380100208001002010B5044634
:1032400012480078E8B902F025F8114908700846DC
:103250000078104908700E48007800EB40000E49D5
:1032600051F820000D490860084600680C490860C4
:10327000012006490870FEF767FA43F6992020807E
:1032800002E045F68A60208010BD00003801002071
:10329000670100206601002094A10020DC010020CD
:1032A000D80100202DE9F04107464FF0000800BF8B
:1032B00000BFFEF7DBF8804600BFFEF7D9FE00BF77
:1032C0000020474908604749088047490880474926
:1032D000086047490860474908604749086047490E
:1032E00008604749088100BFFEF7DCFE00BF40468A
:1032F000FEF7C0F800BF00BF00BF00BFFEF7B6F882
:10330000804600BFFEF7B4FE00BF3E48046800BF21
:10331000FEF7C8FE00BF4046FEF7ACF800BF00BF96
:1033200026E000BF00BFFEF7A1F8804600BFFEF711
:103330009FFE00BF00207834E0632064206020639B
:10334000A061A082E0826062A062FEF71FFF20629F
:10335000783C04F164060020B081D4F8C04000BF7E
:10336000FEF7A0FE00BF4046FEF784F800BF00BF96
:10337000002CD6D100BF00BFFEF778F8804600BF12
:10338000FEF776FE00BF2048056800BFFEF78AFE04
:1033900000BF4046FEF76EF800BF00BF16E000BF5A
:1033A00000BFFEF763F8804600BFFEF761FE00BF76
:1033B00005F120060020B081AD6900BFFEF772FE66
:1033C00000BF4046FEF756F800BF00BF002DE6D113
:1033D00003F09AFC03F028FF00203880BDE8F0815C
:1033E0004C0100204601002096010020A801002089
:1033F000BC010020C8010020340100207801002019
:1034000088A10020B00100206C010020F8B504461E
:1034100000266946364800F033FDBDF8000018B1BB
:10342000BDF800002080F8BD6A460021022000F0AF
:10343000A9FDBDF8000018B1BDF800002080F2E73A
:1034400000BF00BFFEF712F8064600BFFEF710FEF1
:1034500000BF00202749086000BFFEF723FE00BF21
:103460003046FEF707F800BF00BF0025224800687D
:1034700022490968884205D91F4800681F49096820
:10348000B0FBF1F525B91C4800680A21B0FBF1F545
:103490006A460021284600F075FD6946144800F090
:1034A000A5FABDF8000018B1BDF800002080BAE709
:1034B00000BF00BFFDF7DAFF064600BFFEF7D8FDEC
:1034C00000BF00200E4908600A4800680D490860E6
:1034D00001200D49087000BFFEF7E4FD00BF304633
:1034E000FDF7C8FF00BF00BF0020208000BF9AE7A3
:1034F000A4A4002098010020A0C9000888C90008E1
:10350000A80100209C010020A401002010B5034860
:10351000006810B101480068804710BD20010020FC
:103520002DE9FF4F87B004469046DDE91BA5DDE994
:103530001496179F0020039095480078002805DD19
:1035400047F24A1028800BB0BDE8F08F1CB947F253
:10355000AD102880F7E7B8F1000F03D147F24F1004
:103560002880F0E71EB946F62F602880EBE78948EF
:103570000068874203D246F630602880E3E7169859
:10358000B84203D346F631602880DCE7B9F1200F5A
:1035900003D346F273202880D5E7B9F1000F06D196
:1035A0007D48844203D046F273202880CBE7B9F1EE
:1035B0001F0F06D17948844203D046F27320288039
:1035C000C1E7204602F080FC002028800AF00100BC
:1035D00090B10AF0020078B105960020069008E04C
:1035E0000021059801600598001D05900698401C73
:1035F00006900698B842F3D3169806EB8000049024
:10360000CDE9007A32464046049B0A9900F0D8FB87
:103610000590C4F828800A98E0620898206284F82F
:103620003790059820600498A060199860651998F3
:1036300018B95B480068A06501E01998A0651A9860
:1036400060606662A763A4F83CA04FF0000B08E03E
:10365000002104F17C0040F82B100BF1010000F078
:10366000FF0BBBF1000FF3D004F16400189901F0D7
:1036700011FC204600F09EF800BF00BF00BFFDF720
:10368000F5FE039000BFFEF7F3FC00BF454800784D
:10369000401C4449087008460078012801D101F017
:1036A000F1FF00BFFEF7FEFC00BF0398FDF7E2FE4E
:1036B00000BF00BF00BF94F8370001F00BFE2046AA
:1036C00001F044FF204602F0B5FB37480088401C5B
:1036D0003549088035480078012837D000BF00BF41
:1036E00000BFFDF7C3FE039000BFFEF7C1FC00BFA3
:1036F0002C480078401E2B49087008460078D0B945
:1037000001F0CEFF2A48008800280BDD00BFFEF73D
:10371000C9FC00BF0398FDF7ADFE00BF00BF01F07C
:1037200083FF11E000BFFEF7BDFC00BF0398FDF76B
:10373000A1FE00BF08E000BFFEF7B4FC00BF039885
:10374000FDF798FE00BF00BF00BFFCE600BF00BF52
:1037500000BFFDF78BFE039000BFFEF789FC00BFA2
:1037600010480078401E0F4908700846007808B9D4
:1037700001F096FF00BFFEF795FC00BF0398FDF730
:1037800079FE00BF00BF00BFFFF740FC00BFDAE6D4
:10379000300100209CC90008C0A00020F89F002034
:1037A0008401002080010020B401002038010020A5
:1037B0004401002010B504460348006818B12046B3
:1037C00001490968884710BD1001002070B5044602
:1037D0000D46002678480078002803DD47F24E1099
:1037E000288070BD7548844203D147F24C10288070
:1037F000F7E77348844203D147F24D102880F0E781
:103800009CB900BF00BFFDF731FE064600BFFEF7C2
:103810002FFC00BF6B48046800BFFEF743FC00BFED
:103820003046FDF727FE00BF00BF00BF00BF00BF4E
:10383000FDF71CFE064600BFFEF71AFC00BF6248FB
:103840000078401C6049087008460078012801D1C2
:1038500001F018FF00BFFEF725FC00BF3046FDF762
:1038600009FE00BF00BF00BF94F8360008282DD223
:10387000DFE800F004090E10080A0F11204601F0DD
:10388000A5FE5EE05DE000BF204603F021FA58E0AF
:1038900000BF00BF00BF204603F01AFA94F83400BE
:1038A000082810D2DFE800F004070508090A0B0613
:1038B00000BF00BF08E000BF00BF00BF00BF204640
:1038C00001F039FC00E000BF00BF3AE000BF00BFDC
:1038D00000BFFDF7CBFD064600BFFEF7C9FB00BFEA
:1038E00039480078401E3849087008460078D0B939
:1038F00001F0D6FE3548008800280BDD00BFFEF73A
:10390000D1FB00BF3046FDF7B5FD00BF00BF01F0A1
:103910008BFE11E000BFFEF7C5FB00BF3046FDF790
:10392000A9FD00BF08E000BFFEF7BCFB00BF3046AA
:10393000FDF7A0FD00BF00BF00BF46F62D60288048
:103940004FE700BF04F1640001F082FA204600F066
:1039500041F8204602F086FA1D480088401E1C49A6
:103960000880204602F0B0FAFF2084F8360000BF3D
:1039700000BF00BFFDF77AFD064600BFFEF778FBEB
:1039800000BF11480078401E0F49087008460078B3
:1039900008B901F085FE00BFFEF784FB00BF30468A
:1039A000FDF768FD00BF00BF00BF00202880FFF7C3
:1039B0002DFB00BF15E7000030010020F89F00201C
:1039C000C0A00020D8010020800100204401002078
:1039D000B401002010B504460348006818B1204621
:1039E00001490968884710BD140100207FB50446CD
:1039F0000D46002600BF00BFFDF738FD064600BF9C
:103A0000FEF736FB00BF1CB11748006884420CD19A
:103A100000BFFEF747FB00BF3046FDF72BFD00BFA0
:103A200000BF47F2571028807FBD00BFFEF73AFB6A
:103A300000BF3046FDF71EFD00BF00BF0B480078F9
:103A400000280BDD0020009001900346024621462D
:103A5000CDE90205064800F065FFE5E72946204666
:103A600002F0DEFB00BFDFE7D801002030010020BC
:103A70005452455310B504460348006818B1204617
:103A800001490968884710BD180100202DE9F04759
:103A900080460E4614461D464FF000098C480078BB
:103AA000002805DD46F2AE1028800020BDE8F08732
:103AB0001EB1B6F5004F02D100E000BF04E045F6AC
:103AC000256028800020F1E700BF0CB100202060B5
:103AD00000BF00BFFDF7CAFC814600BFFEF7C8FA71
:103AE00000BF7C480068406CB8B37A480068406CFE
:103AF000401E78490968486476480068476C1CB1E4
:103B000074480068006C2060FEF740FB714909684A
:103B1000096C401A6F490968C1F8A4006D48006833
:103B2000D0F8A8006B490968D1F8A410884207D2E0
:103B300068480068D0F8A40066490968C1F8A80080
:103B400000BFFEF7AFFA00BF4846FDF793FC00BF89
:103B500000BF002028803846A8E7FFE706F40040B1
:103B600068B100BFFEF79EFA00BF4846FDF782FC31
:103B700000BF00BF46F2B0102880002096E75648EC
:103B8000007800280DDD00BFFEF78CFA00BF484624
:103B9000FDF770FC00BF00BF46F663502880002090
:103BA00084E700BF4C480078401C4B490870084629
:103BB0000078012801D101F065FD00BFFEF772FA1F
:103BC00000BF4846FDF756FC00BF00BF00BF43469C
:103BD00007220021084601F0F3F900BF00BF00BF33
:103BE000FDF744FC814600BFFEF742FA00BF3A48A9
:103BF0000078401E384908700846007808B901F07E
:103C00004FFD00BFFEF74EFA00BF4846FDF732FCFD
:103C100000BF00BF00BFFFF7F9F900BF00BFFDF70D
:103C200025FC814600BFFEF723FA00BF2948006843
:103C300090F8350020B1012826D0032834D12CE09B
:103C4000FCB124480068006C2060FEF79FFA21490F
:103C50000968096C401A1F490968C1F8A4001D4889
:103C60000068D0F8A8001B490968D1F8A410884260
:103C700007D218480068D0F8A40016490968C1F8AE
:103C8000A8000020288013E01CB112480068006CD6
:103C9000206046F2A91028800AE00CB100202060C4
:103CA00047F2D920288003E046F62E60288000BF26
:103CB00000BF08480068476C00BFFEF7F3F900BF7B
:103CC0004846FDF7D7FB00BF00BF3846EEE60000D0
:103CD00030010020D8010020800100202DE9F047AC
:103CE00005460E4617461C464FF0000A324800783B
:103CF000002804DD47F259102080BDE8F0871EB986
:103D000046F2D5202080F8E71FB946F2D520208062
:103D1000F3E700BF00BFFDF7A9FB824600BFFEF737
:103D2000A7F900BF0DB925480568286878B900BF14
:103D3000FEF7B8F900BF5046FDF79CFB00BF00BF7F
:103D400000203060386047F252102080D5E795F8A7
:103D50003C0000F0010078B900BFFEF7A3F900BFF6
:103D60005046FDF787FB00BF00BF00203060386081
:103D700047F254102080C0E700BFFEF793F900BF60
:103D80005046FDF777FB00BF00BF4FF00008D5F8A5
:103D9000249003E009F1040908F10108D9F80000B2
:103DA0000028F7D0C6F80080A86BA0EB08003860A8
:103DB0000020208000BFA0E730010020D8010020B3
:103DC000F0B50446DDE9055602EB85004FF0807C36
:103DD000071F3846C7F800C0071F38463C60DFF8A9
:103DE0009CC0071F3846C7F800C04FF0123C071FA1
:103DF0003846C7F800C04FF0033C071F3846C7F8E5
:103E000000C04FF0023C071F3846C7F800C0071F2C
:103E100038463B60071F384639604FF0113C071F9A
:103E20003846C7F800C04FF0103C071F3846C7F8A7
:103E300000C04FF0093C071F3846C7F800C04FF0DC
:103E4000083C071F3846C7F800C04FF0073C071F63
:103E50003846C7F800C04FF0063C071F3846C7F881
:103E600000C04FF0053C071F3846C7F800C04FF0B0
:103E7000043C071F3846C7F800C0F0BD9D6300082A
:103E80007FB505460C461248854203D147F25B10C8
:103E900020807FBD0F48854203D147F25C1020800F
:103EA000F7E70D48007800280BDD00200090019016
:103EB000034602462946CDE90204084800F032FDD7
:103EC000E7E72146284602F049FD00BFE1E7000090
:103ED000F89F0020C0A0002030010020545355530B
:103EE00070B52448006810B1224800688047FEF78A
:103EF0004DF904462048006820490968884215D0D9
:103F00001D480068D0F89800201A1B490968C1F8BC
:103F1000940019480068D0F89C0017490968D1F846
:103F20009410084414490968C1F89C0013480068BB
:103F3000C0F89840FEF770F805460F480068D0F8C2
:103F4000B400A84203D20C480068C0F8B4500A4834
:103F50000068D0F8B8000A490968884205D20848C4
:103F6000006805490968C1F8B800002004490860E4
:103F700070BD000024010020D8010020DC010020D9
:103F80007C0100202DE9F04105460E46144600272D
:103F90004D480078002804DD47F275202080BDE8F8
:103FA000F0814A480078002803DD46F663502080FF
:103FB000F5E736B1022E05D0042E0AD0082E09D11D
:103FC00001E000BF00BF1DB947F27E202080E6E778
:103FD00004E003E045F625602080E0E700BF00BF75
:103FE00000BF00BFFDF742FA074600BFFEF740F8EA
:103FF00000BF36480078401C3449087008460078F5
:10400000012801D101F03EFB00BFFEF74BF800BFD5
:104010003846FDF72FFA00BF00BF00BF01202C4932
:10402000096881F836002346324629462848006848
:1040300002F070FD2088F0B100BF00BF00BFFDF7A7
:1040400015FA074600BFFEF713F800BF1F480078B7
:10405000401E1E4908700846007808B901F020FB90
:1040600000BFFEF71FF800BF3846FDF703FA00BF98
:1040700000BF00BF93E71648006801F0A7FA00BF31
:1040800000BF00BFFDF7F2F9074600BFFDF7F0FFE4
:1040900000BF0E480078401E0C49087008460078A2
:1040A00008B901F0FDFA00BFFDF7FCFF00BF38467C
:1040B000FDF7E0F900BF00BF00BFFEF7A7FF00203B
:1040C000208000BF6BE7000030010020800100204D
:1040D000D80100202DE9FF5F05460E461746984699
:1040E000DDE90EA40020009081480078002804DD5E
:1040F00047F275202080BDE8FF9F7E4800780028A9
:1041000003DD46F663502080F5E70AF00E0BBBF1A5
:10411000000F09D0BBF1020F07D0BBF1040F10D084
:10412000BBF1080F0ED101E000BF00BFB8F1000FD6
:1041300006D12FB926B91DB947F27E202080DAE7D3
:1041400004E003E045F625602080D4E700BF2AF0B4
:104150001E0008B1012000E0002003900398012810
:1041600003D145F625602080C5E7CAF30010029010
:104170000298C0B9B8F57A7F03D347F27B2020803C
:10418000B9E73B2F03DD47F27A202080B3E73B2ECF
:1041900003DD47F279202080ADE7632D12DD47F281
:1041A00078202080A7E742F20F70864203DD47F2B5
:1041B000792020809FE7B5F57A7F03DB47F27820EE
:1041C000208098E74C48D0F800904FF4FA70B0FB8C
:1041D000F9F0404400FB09F04FF47A71B0FBF1F1C3
:1041E0004FF461606843C6EB061200EB820038446E
:1041F00000FB091001900198002873D000BF00BF98
:1042000000BFFDF733F9009000BFFDF731FF00BF9D
:1042100038480078401C3749087008460078012863
:1042200001D101F02FFA00BFFDF73CFF00BF00985D
:10423000FDF720F900BF00BF00BF01202F4909682A
:1042400081F8360023465A462C480199006802F04E
:1042500061FC2088F0B100BF00BF00BFFDF706F988
:10426000009000BFFDF704FF00BF22480078401E09
:10427000204908700846007808B901F011FA00BF1B
:10428000FDF710FF00BF0098FDF7F4F800BF00BF76
:1042900000BF30E71948006801F098F900BF00BF7F
:1042A00000BFFDF7E3F8009000BFFDF7E1FE00BF9F
:1042B00010480078401E0F4908700846007808B979
:1042C00001F0EEF900BFFDF7EDFE00BF0098FDF72D
:1042D000D1F800BF00BF00BFFEF798FE002020808D
:1042E00003E0FFE747F27E20208000BF03E70000E5
:1042F0003001002080010020A0C90008D801002062
:1043000010B586B000F01EF8FDF740FF044605A882
:1043100000210091CDE9011403900748007800EBDB
:104320004000064A02EB800100231A46044800F0D0
:10433000F9FA06B010BD00006601002094A100202B
:104340005449434B10B50348006810B10148006858
:10435000804710BD2801002010B5002400BF00BF19
:10436000FDF784F8044600BFFDF782FE00BF094850
:104370000078401C0749087000BFFDF793FE00BF9E
:104380002046FDF777F800BF00BFFFF7B9FFFEF743
:10439000CBFD10BD3001002001464A1E4FF0E02346
:1043A0005A61084A106820F07F4000BF10601A462A
:1043B000126942F005021A611A46126942F00202BD
:1043C0001A61704720ED00E0254A2649264A274A0F
:1043D0002749284A2848294A294A2A4A2A4A2B484A
:1043E0002B482C482C4A2D482D4A2E482E4A2F481F
:1043F0002F4830483048314A314A324A3248334AED
:10440000334A3448344835483548364836483748C2
:10441000374A384A384A394A39483A483A483B4A8A
:104420003B4A3C4A3C483D483D483E493E483F4A5D
:104430003F4A404A404A414A414A424A4248434A26
:10444000434A44484448454A454A4648464A474AFA
:1044500047484848484800BF00BF00BF70470000B9
:10446000E4C900084CCB0008E5C90008E6C900080B
:10447000E8C90008ECC90008F0C90008EDC9000847
:1044800018CA000819CA00081ACA00081CCA00087D
:104490001ECA000820CA000822CA000824CA000850
:1044A00044CA000846CA000848CA00084ACA0008A8
:1044B0004CCA00084ECA000850CA00087CCA00084E
:1044C0007DCA00087ECA000880CA000882CA0008A7
:1044D00083CA000884CA000886CA000888CA00087F
:1044E0008ACA00088CCA00088ECA000890CA000850
:1044F000C0CA0008C1CA0008C2CA0008C3CA00086E
:10450000C4CA0008C6CA0008C8CA0008F0CA000821
:10451000F1CA0008F2CA0008F3CA0008F4CA000889
:10452000F6CA0008F8CA0008FCCA0008FDCA00085C
:10453000FECA0008FFCA000800CB000801CB000833
:1045400002CB000803CB000804CB000806CB000810
:1045500007CB000808CB00080ACB00080CCB0008EA
:104560000DCB000810CB000844CB000845CB000859
:1045700046CB000848CB00084ACB00080021034A7C
:104580001160034A11800180704700005001002033
:10459000540100202DE9F04F85B00446894692462B
:1045A0009B46DDF838800020009000BF00BFFCF77C
:1045B0005DFF009000BFFDF75BFD00BFBAF1000F8B
:1045C0000AD0BAF1010F0DD0BAF5004F05D06FF443
:1045D0000040504460B906E000BF206A40EA09008C
:1045E000206216E000BF206A20EA0900206210E085
:1045F00000BFFDF757FD00BF0098FCF73BFF00BF71
:1046000000BF45F62560A8F80000002005B0BDE811
:10461000F08F00BFC4F824B004F1080001900198A5
:10462000008968B900BFFDF73DFD00BF0098FCF7A9
:1046300021FF00BF00BF0020A8F80000206AE5E7C6
:1046400000BF71480078401C6F4908700846007828
:10465000012801D101F016F800BFFDF723FD00BFCE
:104660000098FCF707FF00BF00BF00BF0198076874
:10467000BD6889E07868029095F8880000F00F0026
:1046800003900398012821D002282ED0042802D0BC
:10469000082836D10EE0206AD5F8801000EA01061D
:1046A000D5F88000B04204D15A463146284600F081
:1046B000AFF863E0206AD5F8801000EA010626B161
:1046C0005A463146284600F0A3F857E0D5F8800056
:1046D000216A20EA0106D5F88000B04204D15A468A
:1046E0003146284600F094F848E0D5F88000216A69
:1046F00020EA010626B15A463146284600F088F8DD
:104700003CE000BF00BF00BFFCF7B0FE009000BF60
:10471000FDF7AEFC00BF3C480078401E3A490870E7
:1047200008460078D0B900F0BBFF38480088002860
:104730000BDD00BFFDF7B6FC00BF0098FCF79AFE4A
:1047400000BF00BF00F070FF11E000BFFDF7AAFC42
:1047500000BF0098FCF78EFE00BF08E000BFFDF729
:10476000A1FC00BF0098FCF785FE00BF00BF00BFA2
:1047700043F6FF20A8F80000002047E700BF029F93
:104780000FB1BD6800E00025002D7FF473AF00BFBE
:1047900000BF00BFFCF76AFE009000BFFDF768FC99
:1047A00000BF19480078401E174908700846007875
:1047B00008B900F075FF00BFFDF774FC00BF00985A
:1047C000FCF758FE00BF00BF00BF0AF4004008B964
:1047D000FEF71CFC00BF00BFFCF748FE009000BFC6
:1047E000FDF746FC00BF206A049000BFFDF75AFCAD
:1047F00000BF0098FCF73EFE00BF00BF0020A8F8F5
:104800000000049802E7000080010020440100201D
:1048100070B504460E461546343426650020607097
:104820002070E560A078343C082816D2DFE800F05C
:10483000040508090706101100BF00BF00BF0DE006
:1048400000BF204601F0DEFC002084F8360005E0C1
:1048500000BF042084F8360000E000BF00BF2046FF
:1048600000F069FC70BD0000002400BF1DE000BF27
:1048700000BFFCF7FBFD044600BFFDF7F9FB00BFDE
:104880000A480068401C0949086009480068401C43
:104890000749086000BFFDF705FC00BF2046FCF794
:1048A000E9FD00BF00BFFEF753FAE0E72C0100204E
:1048B0009801002010B58AB0044600200E49086017
:1048C0000B2000210591CDE90704069108460B490C
:1048D00009680B4A12680B4B1B68CDE90132CDE920
:1048E00003101F200023084A08A100900C48FEF77F
:1048F00017FE0AB010BD00002C01002048C90008B6
:1049000044C9000840C900086948000875432F4F92
:10491000532D4949492049646C65205461736B00EB
:10492000F89F00202DE9F84F04460D4616461F4615
:10493000DDE90BABDDF82890DDF834800020009035
:1049400000BF00BFFCF792FD009000BFFDF790FB99
:1049500000BF2C4800882C49098888423EDA294843
:104960000088401C27490880284800880988884218
:1049700003DA244800882549088025480068046037
:1049800023480068856022480068C66020480068A7
:1049900007821F480068C0F814901D480068A0F8FE
:1049A00018A01B480068C0F81CB01948006840688F
:1049B00017490860012017490881174808604860B6
:1049C000002000F087FC1548007818B113480078E3
:1049D000134908700020A8F8000008E0114800887A
:1049E000401C1049088044F25360A8F8000000BF42
:1049F000FDF758FB00BF0098FCF73CFD00BF00BF6F
:104A0000BDE8F88F4401002054C900084601002089
:104A10003C01002094A10020C0A0002066010020DD
:104A200068010020480100203EB559480068006830
:104A3000584A811A904279D00FDC5749084400281F
:104A40003ED056490844A8B155490844002860D0D2
:104A50005449084400286AD13FE0534808440028DC
:104A600050D052490844002862D0514908440028D7
:104A7000F1D110E002A8464D00902D68EB69444D3D
:104A80002D682A8B424D2D686969414D2D68A868B3
:104A9000FFF780FD7AE002A93D480068C0693C4DFF
:104AA000CDE900012D682B8B394D2D682A8A384DB0
:104AB0002D68E968364D2D68A86800F03BFC65E07C
:104AC000334B1B68DA69324B1B68198B304B1B6800
:104AD000986802AB00F084FE58E002A92C480068F8
:104AE000C0692B4DCDE900012D682B8B284D2D6819
:104AF0002A8A274D2D68E968254D2D68A86801F0A0
:104B00004BFA43E022490968886802A901F088FB52
:104B10003CE01F4B1B68DA691D4B1B68198B1C4B53
:104B20001B68986802AB01F045FC2FE007E02CE021
:104B300017490968886802A901F010FF26E01D499D
:104B4000097801EB41011C4A02EB810000F0C6FD2F
:104B50000F48006802AB0021C269184801F02AFC26
:104B600017480068401E164908600846006858B992
:104B7000144800680860FDF709FB044602AB2246B2
:104B80000021114801F016FC00E000BF00BF3EBD4F
:104B9000400100205449434BADBAB2BE0DF90BFAA7
:104BA000F2F8F7FF0006F6FF00F7FDF700FFEFFF52
:104BB00003FE0FFE6801002094A10020DCA300206A
:104BC000D4010020D0010020A4A40020002700BFB1
:104BD00056E0002652E000BF00BFFCF747FC074646
:104BE00000BFFDF745FA00BF2648008898B90020AD
:104BF000254908810860486000F07EFB00BFFDF792
:104C000051FA00BF3846FCF735FC00BF00BFFEF785
:104C1000FDF9012632E000BFFDF744FA00BF384637
:104C2000FCF728FC00BF00BFFDF7B0FA0546FFF710
:104C3000FBFEFDF7ABFA441B14480068A04201D20A
:104C40001248046000BF00BFFCF710FC074600BF1D
:104C5000FDF70EFA00BF0E48006840680C49086076
:104C600008480088401E0749088000BFFDF71AFA6F
:104C700000BF3846FCF7FEFB00BF00BF002EAAD0E5
:104C8000A7E700004401002094A100204C0100206F
:104C900040010020F0B589B0054600203149088068
:104CA0003148006820B944F25260288009B0F0BD54
:104CB0002E480088022803DA44F254602880F5E781
:104CC00000202B4908602848046826462036002723
:104CD0000CE0284820600020A060E0602082606135
:104CE0002083666020342036781C87B21F480088F5
:104CF0008742EEDB203C1C48066866601E48066062
:104D00001E48066000201E4908801E4908801E4873
:104D1000006818B944F255602880C7E71B4800684E
:104D20001B490968884203D244F256602880BDE7D7
:104D3000032000210591CDE907050691134800687D
:104D4000144A1268104B1B68CDE90301CDE901320A
:104D500000910B46104A11A11748FEF7E1FB00BF76
:104D6000A4E700004801002050C9000854C9000809
:104D70004C0100204E4F4E453C01002040010020D8
:104D800044010020460100205CC9000864C90008F5
:104D90009CC9000860C90008CD4B000875432F4F1F
:104DA000532D494949204953522051756575652055
:104DB0005461736B00000000C0A000200021034A72
:104DC0001160034A118001807047000058010020E3
:104DD0005C01002070B501461A4D2D681DB945F2E1
:104DE0001E750D8070BD184D2D881DB945F21D75BD
:104DF0000D80F7E7134D28682A681032124D2D8870
:104E00006D1EACB2002308E00260002545600581FC
:104E1000C560103010325D1CABB2A342F4DB00253C
:104E2000056045600581C560064D2D68074E3560FB
:104E3000054D2D88B5800025F58035810D8000BF9A
:104E4000D0E7000080C9000878C9000888A10020C8
:104E500010B5014648894B89002B17DD0A680C4BB9
:104E60001B6813600A4C4B6823602346DB884C891F
:104E70001B1B074CE38023469B884C892344044C2E
:104E8000A38000234B818B810B604B6010BD000021
:104E900088A100200181002242818281026042605B
:104EA000704700002DE9F0410D46DDE90674B0F8C9
:104EB0000AC0B0F80880C44505DB46F2935CA4F84C
:104EC00000C0BDE8F081DFF8DCC0BCF804C0BCF174
:104ED000000F04D145F21D7CA4F800C0F1E7DFF813
:104EE000C4C0DCF80010DFF8BC80D1F800C0C8F8FE
:104EF00000C0C446BCF804C0ACF1010CA8F804C062
:104F0000C446BCF806C00CF1010CA8F806C0C446A3
:104F1000BCF808C0B8F80680C44507DADFF884C0DA
:104F2000BCF806C0DFF87C80A8F808C0B0F80AC05A
:104F3000BCF1000F0AD1016041604FF0010CA0F8F4
:104F40000AC04FF0000CC1F800C017E003F0100CCD
:104F5000BCF1000F07D10668316001604FF0000C12
:104F6000C1F800C004E0D0F804C0C1F800C041603E
:104F7000B0F80AC00CF1010CA0F80AC0B0F80CC0DF
:104F8000B0F80A80C44503DAB0F80AC0A0F80CC033
:104F90004D600A81CF604FF0000CA4F800C000BF44
:104FA0008FE7000088A100200021034A1160034A16
:104FB0001180018070470000600100206401002022
:104FC0002DE9F04105460C4616461F461548006877
:104FD00080F8346000201349096881F835003946AB
:104FE0001048006800F00AFF6CB104F10808EC609A
:104FF000012229460B48006800F016F82946404671
:1050000000F066F806E0002006490968C8870549EF
:105010000968086303480168204600F019F8BDE8F4
:10502000F0810000D801002010B5C2870163002381
:105030000AE000244C600C600C614C610C83CC6174
:10504000886020315C1CA3B29342F2DB10BD0000EB
:1050500030B548B14568C1F8C45000F10804226871
:1050600093681D6AC56113E091F83450022D02D097
:10507000072D08D103E007A5C1F8C45007E007A534
:10508000C1F8C45003E008A5C1F8C45000BF00BF78
:1050900030BD00005461736B205100005461736B8C
:1050A0002053656D000000002000000030B507A50A
:1050B000C1F8C45000F1080422681AB193681D6A4F
:1050C000C56101E001A5C56130BD00002000000000
:1050D000F0B58E6896F8375007893FB901270781E8
:1050E00000274F600F600160416023E007897F1C4B
:1050F0000781026806E0946894F83770AF4200DDDB
:1051000002E05268002AF6D100BF32B900274F6092
:1051100043680B60596041600CE017682FB911605B
:1051200000270F604A60016004E013680B604A606A
:1051300059601160F0BD2DE9F0410446256BE68F02
:105140000AE0D5F80C8008F108072946384600F037
:105150000AF82035701E86B2002EF2DC0020E087AF
:105160002063BDE8F08110B50489012C03D100242F
:105170000460446011E00C6824B94A68002414609B
:1051800002600AE04C6824B90B6800245C6043604C
:1051900003E00B684A685A6013600489641E048146
:1051A00000244C600C6010BD2DE9F84306460C4607
:1051B00017469846089D94F83600082850D2DFE834
:1051C00000F00405080906072B2C00BF00BF00BF34
:1051D00047E000BF94F83400032807D143463A461D
:1051E00021463046009500F03FF803E0E765A4F85B
:1051F0006080256436B12046FFF79DFF214630468A
:10520000FFF754FF204600F0FDFF00203434A0706B
:10521000607004F8340924E000BF94F834000328D7
:1052200007D143463A4621463046009500F01CF827
:1052300003E0E765A4F860802564204601F048FD9E
:1052400036B12046FFF777FF21463046FFF72EFFA5
:1052500004203434A0700020607004F8340900E0A9
:1052600000BF00BFBDE8F883F0B50446059E086B9B
:10527000CD8F0AE0C768A74204D10461426103836D
:10528000C66104E020306F1EBDB2002DF2DC00BF0D
:10529000F0BD000070B50025074C03E005F12000CB
:1052A000C5B2241D20680028F8D02068FCF7E9F872
:1052B0002844C5B2284670BDE4010020002004E067
:1052C0000021034A42F82010401C0028F8D0704703
:1052D000E401002030B5420900F01F030121C3F1B1
:1052E0001F04A140034C54F822400C43014D45F8E3
:1052F000224030BDE401002030B5420900F01F0318
:105300000121C3F11F04A140034C54F822408C43F7
:10531000014D45F8224030BDE40100200021034A40
:105320001160034A11800180704700006C01002069
:10533000700100202DE9F04F85B007468A4693465C
:105340001C460020029000BF00BF00BFFCF78EF893
:10535000029000BFFCF78CFE00BF56480078401C4E
:105360005449087008460078012801D100F08AF9F4
:1053700000BFFCF797FE00BF0298FCF77BF800BF68
:1053800000BF00BF07F10806308900284CD104F0A7
:10539000100010B94FF0000801E04FF01008DDE9EF
:1053A0000E0143465A46CDE90001514607F120005F
:1053B000FFF778FD00BF00BF00BFFCF757F8029071
:1053C00000BFFCF755FE00BF3A480078401E39493F
:1053D000087008460078D0B900F062F936480088B5
:1053E00000280BDD00BFFCF75DFE00BF0298FCF754
:1053F00041F800BF00BF00F017F911E000BFFCF753
:1054000051FE00BF0298FCF735F800BF08E000BF6E
:10541000FCF748FE00BF0298FCF72CF800BF00BF65
:1054200000BF05B0BDE8F08F04F4007008B1358905
:1054300000E00125D6F8009011E0D9F808000390AB
:10544000D9F8040004900E985B4652460090384606
:105450000399FFF7A9FEDDF81090681E85B2002DB4
:10546000EBD100BF00BF00BFFCF700F8029000BF07
:10547000FCF7FEFD00BF0F480078401E0D49087084
:105480000846007808B900F00BF900BFFCF70AFEE7
:1054900000BF0298FBF7EEFF00BF00BF00BF04F49F
:1054A000004008B9FDF7B2FD00210F98018000BF50
:1054B000B7E70000800100204401002000210AE03D
:1054C00001EB4102054B03EB8200002202810260E6
:1054D00042604A1CD1B22029F2D3704794A1002027
:1054E00010B5044694F83700FFF7F4FE94F837003F
:1054F00005490978884203D1204600F027F802E0E8
:10550000204600F003F810BD6601002010B590F8A9
:10551000373003EB43030C4C04EB83010B893BB99D
:1055200001230B810023C36003610860486009E028
:105530000B895B1C0B810B68C360002303610A6845
:105540001061086010BD000094A1002010B590F813
:10555000373003EB43030B4C04EB83010B893BB95E
:1055600001230B810023C36003610860486008E0E9
:105570000B895B1C0B810023C3604A680261D06009
:10558000486010BD94A1002010B501460C8924B1DB
:10559000012C03D0022C0CD101E000BF14E00868FC
:1055A0004A6802610024C4601461D0600A604860E7
:1055B0000AE008684A68C36800241C61C46002618C
:1055C000D0600B60486000BF00BF10BD2DE9F04106
:1055D000054695F8370000EB4000124901EB8004C6
:1055E0002F69EE6887B946B900202081206060608D
:1055F00095F83700FFF780FE0EE02089401E2081DD
:1056000000203061266007E02089401E2081FE6076
:105610000EB9676000E0376100202861E860BDE8EE
:10562000F081000094A1002010B5002400BFFBF71A
:105630001DFF044600BF00200D4908700D480E49AB
:10564000086008460068D0F89000401C0968C1F85E
:1056500090000A480068401C084908604FF08050DC
:105660000749086000BF2046FBF704FF00BF10BDDC
:1056700067010020C0A00020DC010020AC01002058
:1056800004ED00E010B504480078012803D1FCF7D0
:105690007DFD0249086010BD8001002074010020DA
:1056A00010B50A48007880B9FCF770FD0849096810
:1056B000441A08480068A04201D20648046006481F
:1056C0000068A04201D20448046010BD800100209F
:1056D00074010020780100207C01002070B505468F
:1056E000002635480078012800D070BD00BF00BFFB
:1056F000FBF7BCFE064600BFFCF7BAFC00BF2C68F7
:105700004CB900BFFCF7CEFC00BF3046FBF7B2FE41
:1057100000BF00BFE9E72948844209D100BFFCF778
:10572000C1FC00BF3046FBF7A5FE00BF00BFDCE7B1
:10573000A06D10B1A06D401EA065A06D48B100BF66
:10574000FCF7B0FC00BF3046FBF794FE00BF00BF83
:10575000CBE72889022809DA00BFFCF7A3FC00BFC9
:105760003046FBF787FE00BF00BFBEE71448007855
:10577000002809DD00BFFCF795FC00BF3046FBF7B1
:1057800079FE00BF00BFB0E72846FFF7FDFE2C689A
:10579000606D18B90B480068A06501E0606DA065F8
:1057A00000BFFCF77FFC00BF3046FBF763FE00BF85
:1057B00000BF00BF99E7000088010020F89F00208B
:1057C00080010020840100200021034A1160034A67
:1057D00011800180704700008C01002090010020A2
:1057E0002DE9FF5F0446884691461D460020019042
:1057F00000BF00BFFBF73AFE019000BFFCF738FC8A
:1058000000BF04F108073889002857D10420012877
:1058100004D0022816D004283AD127E0206AFF28B5
:105820000FD100BFFCF73EFC00BF0198FBF722FE42
:1058300000BF00BF46F6C5502880002004B0BDE878
:10584000F09F26E04FF6FF71206A88420DD100BF1D
:10585000FCF728FC00BF0198FBF70CFE00BF00BF5F
:1058600046F6C55028800020E8E712E0206A401C78
:1058700068B900BFFCF716FC00BF0198FBF7FAFD02
:1058800000BF00BF46F6C55028800020D6E700E0E4
:1058900000BF00BF206A401C2062D4F820A0C4F8DA
:1058A000249000BFFCF7FEFB00BF0198FBF7E2FD70
:1058B00000BF00BF002028805046BFE700BF2D4832
:1058C0000078401C2B49087008460078012801D157
:1058D000FFF7D8FE00BFFCF7E5FB00BF0198FBF720
:1058E000C9FD00BF00BF00BF08F4007008B13E89C9
:1058F00000E00126D7F800B011E0DBF808000290C4
:10590000DBF80400039000231A46CDF800902046EF
:105910000299FFF749FCDDF80CB0701E86B2002E2C
:10592000EBD1D4F820A000BF00BF00BFFBF79EFD65
:10593000019000BFFCF79CFB00BF0E480078401EA2
:105940000C4908700846007808B9FFF7A9FE00BFA7
:10595000FCF7A8FB00BF0198FBF78CFD00BF00BF60
:1059600000BF08F4004008B9FDF750FB0020288074
:10597000504663E78001002086B00020009000BF01
:1059800006E0D9490968480001AA0021FEF7FAFAA1
:10599000D64800780128F4D101A8FDF783FC002740
:1059A000D3480068D0490968884205D9D0480068C2
:1059B000CD490968B0FBF1F727B9CD4800680A2145
:1059C000B0FBF1F78EE1FCF7E1FB8246FCF73AFB16
:1059D000C849086000BF00BFFBF748FD009000BF4A
:1059E000FCF746FB00BFC4480068C44908600020BB
:1059F000C149086000BFFCF755FB00BF0098FBF7EA
:105A000039FD00BF00BFBE480068BC490968884234
:105A100048D9BB480068BB49884205D242F21070A1
:105A200003900120029023E0B5480068B6498842FF
:105A300005D24FF47A7003900A20029018E0B04823
:105A40000068B249884203D26420039002900FE0BC
:105A5000AB480068AE49884205D20A2003904FF453
:105A60007A70029004E00120039042F210700290DC
:105A7000A34801680298B1FBF0F9A04903980968AE
:105A80004843B0FBF9F042F21071081AA1490880AE
:105A9000A14800880988884208DA9E4800889E4903
:105AA000088003E042F210709A490880FDF72EFD4D
:105AB000002500BF00BFFBF7D9FC009000BFFCF73A
:105AC000D7FA00BF9548046800BFFCF7EBFA00BFA7
:105AD0000098FBF7CFFC00BF00BF72E000BF00BF23
:105AE00000BFFBF7C3FC009000BFFCF7C1FA00BF8A
:105AF0008B480078401C8A490870084600780128C5
:105B000001D1FFF7BFFD00BFFCF7CCFA00BF009842
:105B1000FBF7B0FC00BF00BF00BF54F89C0F6060F3
:105B2000002044F89C0900BF00BF00BFFBF79EFCAB
:105B3000009000BFFCF79CFA00BF79480078401E37
:105B40007749087008460078D0B9FFF7A9FD754875
:105B5000008800280BDD00BFFCF7A4FA00BF009806
:105B6000FBF788FC00BF00BFFFF75EFD11E000BF40
:105B7000FCF798FA00BF0098FBF77CFC00BF08E038
:105B800000BFFCF78FFA00BF0098FBF773FC00BF63
:105B900000BF00BFD4F8A000054400BF00BFFBF762
:105BA00065FC009000BFFCF763FA00BFD4F8C0406A
:105BB00000BFFCF777FA00BF0098FBF75BFC00BF63
:105BC00000BF002C8AD145B34E48854205D242F22F
:105BD000107005904FF0010B1BE04B48854205D239
:105BE0004FF47A7005904FF00A0B12E04748854257
:105BF00003D26420059083460BE04548854204D2D9
:105C00000A2005904FF47A7B03E00120059042F2D0
:105C1000107BB5FBFBF0049003E000200590012011
:105C2000049000BF00BFFBF721FC009000BFFCF711
:105C30001FFA00BF3948046800BFFCF733FA00BF01
:105C40000098FBF717FC00BF00BF2FE0D4F8A000BE
:105C5000059948430499B0FBF1F086B242F2107006
:105C6000864200D90646A4F88C60B4F88E00B04293
:105C700001DAA4F88E6001AB04F1AC02111D2046DC
:105C8000FEF72CF800BF00BFFBF7F0FB009000BF51
:105C9000FCF7EEF900BFD4F8C04000BFFCF702FAF1
:105CA00000BF0098FBF7E6FB00BF00BF002CCDD182
:105CB0001D480078012805D100201B49087001A863
:105CC000FDF7F0FAFCF762FAA0EB0A081748006843
:105CD000404502D21548C0F8008001AA002138468C
:105CE000FEF750F96FE6000088C90008A401002003
:105CF000A0C900083401002098010020A001002064
:105D00009C010020801A060000093D00005A620232
:105D10000084D7179401002096010020B0010020D4
:105D2000800100204401002092010020A8010020F1
:105D300010B58AB0044600201F4908601F4908605A
:105D40001F4908601F4908701F4908701F480068F4
:105D500020B946F62B6020800AB010BD1C480068B0
:105D60001C490968884203D246F62C602080F3E77C
:105D7000194800781F2803D346F62A602080EBE7F5
:105D8000032000210591CDE907040691084610493A
:105D90000968124A12680D4B1B68CDE90132CDE942
:105DA00003100D48007800230D4A0EA10090124800
:105DB000FDF7B6FB00BFCFE798010020A00100204F
:105DC0009C010020A4010020920100208CC9000841
:105DD00094C900089CC9000884C9000890C900083B
:105DE0007959000875432F4F532D49494920537461
:105DF0006174205461736B0014A3002038B504460D
:105E00000D4685B16B4602222946204600F082FEEF
:105E1000BDF8000018B9032084F8360006E002201F
:105E200084F8360002E0022084F836002046FFF7AE
:105E3000CDFB38BD0021C0F8BC100949096819B96B
:105E40000021C0F8C01007E005490968C0F8C0107B
:105E500003490968C1F8BC000149086070470000A7
:105E6000B0010020D0F8BC20D0F8C0104AB90D4BCA
:105E7000196011B10023C1F8BC300023C0F8C03054
:105E80000FE029B90023C2F8C030C0F8BC3008E0E8
:105E9000C2F8C010C1F8BC200023C0F8C030C0F860
:105EA000BC307047B00100200021044A1160044A50
:105EB0001180044A1160018070470000B001002089
:105EC000B4010020AC01002070B504460020206021
:105ED000A0606060E06020616061A061E0612BA073
:105EE000206200206062A062E0622063E08720649C
:105EF000E065A4F86000002104F16400FEF7CAFF29
:105F0000002044F8740F6060E060A0822061743C5F
:105F1000002506E0002104F17C0040F82510681CF3
:105F2000C5B2002DF6D000203434206120676067B0
:105F3000606084F85600E067A06720814FF0004061
:105F400060610020A061E06120626062A4F85800F6
:105F5000A4F85A00E0652066FCF718F90646666664
:105F60000020A066C4F88000C4F88400207060702F
:105F7000A0702020E0700020C4F88800C4F88C00D5
:105F800004A0C4F89000343C70BD00003F5461731D
:105F90006B000000200000002DE9FC4704460F467E
:105FA00090469946DDE90A654FF0000A00BF00BF40
:105FB00000BFFBF75BFA824600BFFCF759F800BF51
:105FC0008D480078401C8C490870084600780128EC
:105FD00001D1FFF757FB00BFFCF764F800BF504644
:105FE000FBF748FA00BF00BF00BF0CB98348046844
:105FF0000020288094F8360008287CD2DFE800F0E2
:106000000405484906074A4B00BF00BF00BF4B4686
:106010004246394604F16400CDE90065FEF742FFCF
:1060200000BF00BF00BFFBF721FA824600BFFCF7AC
:106030001FF800BF70480078401E6F49087008467E
:106040000078D0B9FFF72CFB6D48008800280BDDE5
:1060500000BFFCF727F800BF5046FBF70BFA00BF64
:1060600000BFFFF7E1FA11E000BFFCF71BF800BF2B
:106070005046FBF7FFF900BF08E000BFFCF712F83D
:1060800000BF5046FBF7F6F900BF00BF00BFAFE00E
:1060900000BF00BF00BF94F8340002282CD1434653
:1060A0003A46214600200096FFF77EF800BF00BF69
:1060B00000BFFBF7DBF9824600BFFBF7D9FF00BF4B
:1060C0004D480078401E4C4908700846007808B9D1
:1060D000FFF7E6FA00BFFBF7E5FF00BF5046FBF70E
:1060E000C9F900BF00BF00BF09F40040002843D138
:1060F000FCF78CFF40E040E04B464246394604F155
:106100006400CDE90065FEF7CDFE00BF00BF00BF13
:10611000FBF7ACF9824600BFFBF7AAFF00BF364889
:106120000078401E3449087008460078D0B9FFF75F
:10613000B7FA3348008800280BDD00BFFBF7B2FF39
:1061400000BF5046FBF796F900BF00BFFFF76CFA9F
:1061500011E000BFFBF7A6FF00BF5046FBF78AF92E
:1061600000BF08E000BFFBF79DFF00BF5046FBF7F4
:1061700081F900BF00BF00BF3AE000BF00BF00BF11
:10618000FBF774F9824600BFFBF772FF00BF1A48A5
:106190000078401E1849087008460078D0B9FFF70B
:1061A0007FFA1748008800280BDD00BFFBF77AFF55
:1061B00000BF5046FBF75EF900BF00BFFFF734FA9F
:1061C00011E000BFFBF76EFF00BF5046FBF752F92E
:1061D00000BF08E000BFFBF765FF00BF5046FBF7BC
:1061E00049F900BF00BF00BF46F62D60288000BF00
:1061F00000BFBDE8FC87000080010020D80100201E
:106200004401002010B50446204600F061FD94F8DA
:10621000360000F0040010B92046FFF761F910BD08
:1062200070B504460D46002600BF00BFFBF71EF9FF
:10623000064600BFFBF71CFF00BF0020288094F833
:10624000360008287ED2DFE800F004050607145661
:106250006A8000BF00BF00BF00BFFBF723FF00BF85
:106260003046FBF707F900BF00BF47F25310288004
:106270008CE000BF48480078401C47490870084639
:106280000078012801D1FFF7FDF900BFFBF70AFFF5
:1062900000BF3046FBF7EEF800BF00BF00BF14F8A8
:1062A0008A0F401E207014F88A0928B9002084F84B
:1062B00036002046FFF7A6FF00BF00BF00BFFBF778
:1062C000D5F8064600BFFBF7D3FE00BF3248007882
:1062D000401E314908700846007808B9FFF7E0F918
:1062E00000BFFBF7DFFE00BF3046FBF7C3F800BF7F
:1062F00000BF00BF4AE014F88A0F401E207014F857
:106300008A0910B9012084F8360000BFFBF7CAFEE5
:1063100000BF3046FBF7AEF800BF00BF36E014F810
:106320008A0F401E207014F88A0910B9022084F8E0
:10633000360000BFFBF7B6FE00BF3046FBF79AF809
:1063400000BF00E015E000BF20E014F88A0F401EF7
:10635000207014F88A0910B9032084F8360000BFB1
:10636000FBF7A0FE00BF3046FBF784F800BF00BF7C
:106370000CE000BFFBF796FE00BF3046FBF77AF853
:1063800000BF00BF46F62D60288070BD00BFFCF73F
:106390003DFE00BFF9E700008001002008B5044879
:1063A0000068FDF767FB69460020FDF70FFA08BD9E
:1063B000D80100202DE9F8430446884617461D46BB
:1063C0004FF0000900BF00BF00BFFBF74FF8814648
:1063D00000BFFBF74DFE00BFFB480078401CFA49A8
:1063E000087008460078012801D1FFF74BF900BF7B
:1063F000FBF758FE00BF4846FBF73CF800BF00BF64
:1064000000BF0CB9F148046827640020288094F884
:10641000360008287AD2DFE800F00405FEFD060702
:10642000FCFB00BF00BF00BF0420012804D00228ED
:1064300043D004286BD184E0606CFF283CD100BFBE
:1064400000BF00BFFBF712F8814600BFFBF710FE4C
:1064500000BFDD480078401EDB4908700846007820
:10646000D0B9FFF71DF9DA48008800280BDD00BF1E
:10647000FBF718FE00BF4846FAF7FCFF00BF00BF5D
:10648000FFF7D2F811E000BFFBF70CFE00BF484653
:10649000FAF7F0FF00BF08E000BFFBF703FE00BF04
:1064A0004846FAF7E7FF00BF00BF00BF46F6C550F9
:1064B00028800020BDE8F88385E04FF6FF71606C0E
:1064C00088423DD100BF00BF00BFFAF7CFFF814631
:1064D00000BFFBF7CDFD00BFBB480078401EBA49A6
:1064E000087008460078E0B9FFF7DAF8B848008885
:1064F00000280DDD00BFFBF7D5FD00BF4846FAF7C9
:10650000B9FF00BF00BFFFF78FF813E0E2E159E0E9
:1065100000BFFBF7C7FD00BF4846FAF7ABFF00BF5F
:1065200008E000BFFBF7BEFD00BF4846FAF7A2FF38
:1065300000BF00BF00BF46F6C55028800020B9E765
:1065400041E0606C401CD8BB00BF00BF00BFFAF741
:106550008DFF814600BFFBF78BFD00BF9A48007896
:10656000401E9949087008460078D0B9FFF798F89E
:106570009748008800280BDD00BFFBF793FD00BFA4
:106580004846FAF777FF00BF00BFFFF74DF811E06C
:1065900000BFFBF787FD00BF4846FAF76BFF00BF5F
:1065A00008E000BFFBF77EFD00BF4846FAF762FF38
:1065B00000BF00BF00BF46F6C5502880002079E725
:1065C000FFE700E000BF00BF606C401C6064666CC9
:1065D00000BF00BF00BFFAF749FF814600BFFBF7CD
:1065E00047FD00BF78480078401E7749087008468C
:1065F0000078F8B9FFF754F875480088002810DDD6
:1066000000BFFBF74FFD00BF4846FAF733FF03E03A
:106610001EE01CE01AE018E000BF00BFFFF704F81E
:1066200011E000BFFBF73EFD00BF4846FAF722FF2E
:1066300000BF08E000BFFBF735FD00BF4846FAF792
:1066400019FF00BF00BF00BF80E100BF00BF00BF57
:1066500094F8340007282CD100231A462146184606
:106660000097FEF7A1FD666C00BF00BF00BFFAF700
:10667000FDFE814600BFFBF7FBFC00BF52480078DF
:10668000401E514908700846007808B9FFF708F81D
:1066900000BFFBF707FD00BF4846FAF7EBFE00BF5F
:1066A00000BF00BF08F40040002801D1FCF7AEFC99
:1066B0000FE10420012804D0022842D0042872D11E
:1066C00089E0606CFF283BD100BF00BF00BFFAF734
:1066D000CDFE814600BFFBF7CBFC00BF3A480078F7
:1066E000401E3949087008460078D0B9FEF7D8FF37
:1066F0003748008800280BDD00BFFBF7D3FC00BF44
:106700004846FAF7B7FE00BF00BFFEF78DFF11E065
:1067100000BFFBF7C7FC00BF4846FAF7ABFE00BF5F
:1067200008E000BFFBF7BEFC00BF4846FAF7A2FE38
:1067300000BF00BF00BF46F6C55028800020B9E664
:106740008BE04FF6FF71606C884243D100BF00BF01
:1067500000BFFAF78BFE814600BFFBF789FC00BF44
:1067600019480078401E1849087008460078D8B9C2
:10677000FEF796FF1648008800280BDD00BFFBF7E8
:1067800091FC00BF4846FAF775FE00BF00BFFEF758
:106790004BFF12E000BFFBF785FC00BF4846FAF74D
:1067A00069FE00BF09E057E000BFFBF77BFC00BFBC
:1067B0004846FAF75FFE00BF00BF00BF46F6C5506F
:1067C0002880002076E6000080010020D80100200B
:1067D0004401002041E0606C401CD8BB00BF00BFFA
:1067E00000BFFAF743FE814600BFFBF741FC00BF44
:1067F00058480078401E5749087008460078D0B9BC
:10680000FEF74EFF5448008800280BDD00BFFBF761
:1068100049FC00BF4846FAF72DFE00BF00BFFEF757
:1068200003FF11E000BFFBF73DFC00BF4846FAF74D
:1068300021FE00BF08E000BFFBF734FC00BF484664
:10684000FAF718FE00BF00BF00BF46F6C55028800B
:1068500000202FE6FFE700E000BF00BF606C401C97
:106860006064666C00BF00BF00BFFAF7FFFD8146A1
:1068700000BFFBF7FDFB00BF36480078401E3549DE
:10688000087008460078D0B9FEF70AFF3248008841
:1068900000280BDD00BFFBF705FC00BF4846FAF7F8
:1068A000E9FD00BF00BFFEF7BFFE11E000BFFBF730
:1068B000F9FB00BF4846FAF7DDFD00BF08E000BF66
:1068C000FBF7F0FB00BF4846FAF7D4FD00BF00BF5E
:1068D00000BF3BE000BF00BF00BFFAF7C7FD814625
:1068E00000BFFBF7C5FB00BF1A480078401E1949DE
:1068F000087008460078D0B9FEF7D2FE1648008826
:1069000000280BDD00BFFBF7CDFB00BF4846FAF7C0
:10691000B1FD00BF00BFFEF787FE11E000BFFBF72F
:10692000C1FB00BF4846FAF7A5FD00BF08E000BF65
:10693000FBF7B8FB00BF4846FAF79CFD00BF00BF5D
:1069400000BF46F62D602880002600BF00BF3046FD
:10695000B0E50000800100204401002070B504462D
:106960000D46002600BF00BFFAF780FD064600BFB7
:10697000FBF77EFB00BF0CB95A4804685948006811
:10698000844210D15848007800280CDD00BFFBF786
:1069900089FB00BF3046FAF76DFD00BF00BF46F629
:1069A0006350288070BD0020288094F836000828A5
:1069B00073D2DFE800F0044252627374757600BF50
:1069C00049480078401C484908700846007801286A
:1069D00001D1FEF757FE00BFFBF764FB00BF304656
:1069E000FAF748FD00BF00BF00BF042084F836005E
:1069F000012084F88A002046FEF7E8FD00BF00BFB2
:106A000000BFFAF733FD064600BFFBF731FB00BFBE
:106A100035480078401E344908700846007808B9A7
:106A2000FEF73EFE00BFFBF73DFB00BF3046FAF726
:106A300021FD00BF00BF00BF4FE0052084F83600F5
:106A4000012084F88A0000BFFBF72CFB00BF304612
:106A5000FAF710FD00BF00BF3FE0062084F83600C3
:106A6000012084F88A0000BFFBF71CFB00BF304602
:106A7000FAF700FD00BF00BF2FE0072084F83600C2
:106A8000012084F88A0000BFFBF70CFB00BF3046F2
:106A9000FAF7F0FC00BF00BF1FE011E000BF00BF2D
:106AA00000BF94F88A00401C84F88A0000BFFBF7FE
:106AB000F9FA00BF3046FAF7DDFC00BF00BF0CE07A
:106AC00000BFFBF7EFFA00BF3046FAF7D3FC00BF78
:106AD00000BF46F62D60288064E700BFFCF796FAF9
:106AE00000BF5FE7D801002080010020002108E0FE
:106AF000064A02EBC100002202608280C2804A1C6A
:106B000091B2034A12889142F2DB7047E89C002060
:106B1000B8C900082DE9F04F0C4616461D46042E54
:106B20001ED1DFF8A091D9F80090A4EB0909A9F1D2
:106B3000010313F5803F0DD94FF00009C0F84C90C8
:106B4000C0F85090C0F81C9047F27E29A5F800903C
:106B5000BDE8F08FC46403F10109C0F850903FE034
:106B600084B3082E25D1D0F8489009EB0407DFF84C
:106B70005491D9F80090A7EB0909A9F10103A342A8
:106B800001D2C76406E0DFF83C91D9F80090A14437
:106B9000C0F84C90DFF82CA1D0F84C90DAF800A0A7
:106BA000A9EB0A09C0F85090D0F84C90C0F8489072
:106BB00016E0DFF81091D9F80090A144C0F84C908D
:106BC00004650DE0FFE74FF00009C0F84C90C0F8F5
:106BD0005090C0F81C9047F27E29A5F80090B7E7C6
:106BE000DFF8E4A0BAF800A0D0F84C90B9FBFAFBAB
:106BF0000AFB1B991FFA89F8DFF8D09009EBC8024D
:106C0000B2F80490B9F1000F0BD14FF00009C0F8B1
:106C10001490C0F8189010604FF00109A2F8049089
:106C20003EE0116834E0DFF89CA0D1F84C90DAF82F
:106C300000A0A9EB0A09C1F85090D0F85090D1F803
:106C400050A0D1450ED9D1F81490B9F1000F01D060
:106C500049691DE04FF00009C0F814908161486156
:106C6000002115E0D1F81890B9F1000F07D14FF0CD
:106C70000009C0F8189041618861106007E0D1F800
:106C800018C0C0F818C04161CCF814008861002118
:106C90000029C8D1B2F8049009F10109A2F80490C2
:106CA000B2F80690B2F804A0D14503DAB2F8049025
:106CB000A2F80690C2614FF00009A5F8009000BF4D
:106CC00046E70000B8010020B8C90008E89C002091
:106CD00010B5C269BAB1002404651468844205D1B4
:106CE0004169116039B100248C6104E08169436914
:106CF0004B6103B19961002444618461C461C4643F
:106D00009488641E948010BD002006E0054A02EBC2
:106D1000C0010022CA80421C90B2034A12889042ED
:106D2000F4DB7047E89C0020B8C900082DE9F05F4B
:106D30004FF0000B00BF00BF00BFFAF797FB834680
:106D400000BFFBF795F900BF7A480078401C7949ED
:106D5000087008460078012801D1FEF793FC00BFB7
:106D6000FBF7A0F900BF5846FAF784FB00BF00BF4D
:106D700000BFFBF70BFA05466F480068401C6E49E0
:106D80000860084600686D490988B0FBF1F201FB14
:106D900012001FFA80FA6A4800EBCA08D8F80040CF
:106DA000002782E0002C7FD0D4F8149094F83600AD
:106DB000082875D2DFE800F00408051B063D0750DF
:106DC00000BF00BF00BF6CE05B49E06C0968401A7F
:106DD00020655949E06C0968884206D1002084F892
:106DE00036002046FFF70EFA00E0012759E052492D
:106DF000E06C0968401A20654F49E06C09688842D8
:106E000015D10020E065A4F86000FBF7BFF920640D
:106E10002046FEF790F92046FFF7F4F900203434BD
:106E2000A07003206070002004F8340900E00127FE
:106E300037E04149E06C0968401A20653E49E06C42
:106E40000968884206D1042084F836002046FFF7FE
:106E50003FFF00E0012724E03749E06C0968401A51
:106E600020653549E06C0968884217D10020E0654B
:106E7000A4F86000FBF78AF920642046FEF75BF96E
:106E80002046FFF725FF04203434A07003206070F3
:106E9000002004F8340902E006E001E0012700E0E8
:106EA00000BF00BF4C4600E00127002F3FF47AAF3F
:106EB000FBF76CF9461B23480068B04201D2214819
:106EC000066000BF00BF00BFFAF7D0FA834600BFDC
:106ED000FBF7CEF800BF17480078401E1549087030
:106EE00008460078D0B9FEF7DBFB17480088002879
:106EF0000BDD00BFFBF7D6F800BF5846FAF7BAFA29
:106F000000BF00BFFEF790FB11E000BFFBF7CAF81F
:106F100000BF5846FAF7AEFA00BF08E000BFFBF723
:106F2000C1F800BF5846FAF7A5FA00BF00BF00BF7E
:106F3000BDE8F09F80010020B8010020B8C900081A
:106F4000E89C0020BC010020440100201CB500BFCB
:106F50000EE001AB6A4600210846FCF797FDBDF83C
:106F6000040028B903480078012801D1FFF7DEFEAC
:106F7000EFE700003801002010B58AB00446002079
:106F80001D4908601D490860FFF7B0FD1C480068F6
:106F900020B947F2122020800AB010BD19480068BD
:106FA00019490968884203D247F213202080F3E789
:106FB000164800781F2803D347F211202080EBE702
:106FC0000B20002105910A46CDE9070406910D48E2
:106FD00000680F4909680A4B1B68CDE90131CDE90A
:106FE00003020A48007800230A4A0BA100900F48C8
:106FF000FCF796FA00BFCFE7B8010020BC010020E3
:10700000A8C90008B0C900089CC90008A4C90008A4
:10701000ACC900084D6F000875432F4F532D4949E7
:1070200049205469636B205461736B00DCA300201A
:1070300070B58AB0044600203149086031480068C4
:1070400040B1314800682F490968B0FBF1F02F4981
:10705000086006E02C4800680A21B0FBF1F02B49DB
:1070600008602A4800682A49086000202949086009
:1070700029490860002508E0284800EBC5060020E3
:10708000B080F0803060681C85B225480088854259
:10709000F2DB2448006820B947F2473020800AB06C
:1070A00070BD2148006821490968884203D247F22F
:1070B00048302080F3E71E4800781F2803D347F2AA
:1070C00046302080EBE70B2000210591CDE9070435
:1070D0000691084614490968164A1268114B1B6844
:1070E000CDE90132CDE90310114800780023124A9E
:1070F00012A100901748FCF713FA00BFCFE7000079
:10710000C0010020C4C90008A0C90008D0010020A7
:10711000D4010020CC010020C8010020709F002075
:10712000D8C90008C8C90008D0C900089CC900080F
:10713000C0C90008CCC900084D72000875432F4F24
:10714000532D4949492054696D6572205461736B10
:1071500000000000A4A40020F0B50C46022680F830
:107160002A60012C05D12D4F466A3F683E44866156
:107170000CE0066A2EB9294F466A3F683E44866194
:1071800004E0264F066A3F683E448661244F3F88EC
:107190008669B6FBF7FC07FB1C66B5B2214E06EB11
:1071A000C502166836B900260661466110600126E0
:1071B00096802CE0194F86693F68F61BC6611168FE
:1071C00020E0164F8E693F68F61BCE61C669CF6915
:1071D000BE4209D90E690EB1096913E000260661A5
:1071E0004161086100210DE04E692EB9002646611B
:1071F00001614861106004E04B69436101611861FD
:10720000486100210029DCD19688761C9680D688BA
:107210009788BE4201DA9688D680F0BDCC01002066
:10722000D8C90008709F0020002006E0054A02EB44
:10723000C0010022CA80421C90B2034A12889042C8
:10724000F4DB7047709F0020D8C900081CB500BF50
:1072500053E001AB6A4600210846FCF717FC01A881
:10726000FBF728FFFAF792FF064624480068401C07
:10727000224908600846006821490988B0FBF1F2FC
:1072800001FB12001FFA80FA1E4800EBCA08D8F86A
:1072900000404FF0000B21E0F4B1D4F810901749F2
:1072A000A0690968884214D1204600F02FF8208D8B
:1072B000022804D101212046FFF74EFF02E00320FF
:1072C00084F82A00A56815B12046E168A8474C4615
:1072D00004E04FF0010B01E04FF0010BBBF1000F98
:1072E000DAD0FAF753FF871B01A8FBF757FF0648D0
:1072F0000068B84201D204480760AAE7CC01002028
:10730000D8C90008709F0020C8010020F0B5114EB8
:1073100036888569B5FBF6F706FB1755ACB20E4DFE
:1073200005EBC4021568854205D10169116039B1C8
:1073300000254D6104E0416903690B6103B15961A6
:10734000012580F82A5000250561456195886D1E4C
:107350009580F0BDD8C90008709F002070B59EB020
:10736000184B0FCB1AAC0FC43422164910310DA89C
:10737000FAF7A4F83422134944316846FAF79EF824
:107380000A2600241AE0002509E00DA830F81400B0
:107390001AA931F810000C490880681C85B23DF824
:1073A00014000DA931F814101AAA32F8111048432C
:1073B000B0FBF6F0A842E8D8601C84B2192CE2D3E6
:1073C0001EB070BDC8C8000834000020704700B56A
:1073D0009DB001210802F9F7C0FA012007900020B2
:1073E00008900F20099000200A900B900C900D90AF
:1073F0001520009001900520029000200390049039
:107400000590069006200E9000200F9010901020FE
:1074100011900020129014901390159016904FF434
:1074200080501790002018904FF480401990002051
:107430001A9007A81B90CDF870D00EA8F9F751FB51
:1074400001210620F9F7AEFC1DB000BD08B50121F1
:107450004FF4B470F9F78EFA4CF23370ADF80000C7
:1074600018208DF8030003208DF8020069461848A3
:10747000F8F7CAFF4FF68070ADF8000018208DF8BD
:10748000030003208DF8020069461248F8F7BCFF9C
:1074900041F20100ADF8000018208DF80300032030
:1074A0008DF8020069460C48F8F7AEFF0120ADF8F0
:1074B000000010208DF8030003208DF802006946BB
:1074C0000648F8F7A1FF01200549086008BD000043
:1074D000001401400018014000200140000C014050
:1074E0008081214210B5FFF7B1FFFFF770FF322016
:1074F00000F04AF9DA20FBF703FB7548008875496C
:107500008880734800884FF6FF7101EA00207149B6
:107510008880DB20FBF7F4FA6E4880886C49098884
:1075200008436C498880084680886949098808436F
:1075300068498880E020FBF7E3FA0020FBF7F0FAC7
:107540001320FBF7EDFA1820FBF7EAFA0420FBF70B
:10755000E7FA0F20FBF7E4FA0620FBF7E1FA3A20FE
:10756000FBF7DEFA5620FBF7DBFA4D20FBF7D8FAE3
:107570000320FBF7D5FA0A20FBF7D2FA0620FBF727
:10758000CFFA3020FBF7CCFA3E20FBF7C9FA0F20E8
:10759000FBF7C6FAE120FBF7B3FA0020FBF7C0FACD
:1075A0001320FBF7BDFA1820FBF7BAFA0120FBF70E
:1075B000B7FA1120FBF7B4FA0620FBF7B1FA38202E
:1075C000FBF7AEFA3420FBF7ABFA4D20FBF7A8FA35
:1075D0000620FBF7A5FA0D20FBF7A2FA0B20FBF71C
:1075E0009FFA3120FBF79CFA3720FBF799FA0F201E
:1075F000FBF796FAC020FBF783FA1820FBF790FA06
:107600001720FBF78DFAC120FBF77AFA4120FBF730
:1076100087FAC520FBF774FA0020FBF781FA1A20DD
:10762000FBF77EFA8020FBF77BFA3620FBF768FA3F
:107630000820FBF775FA3A20FBF762FA5520FBF7B2
:107640006FFAB020FBF75CFA0020FBF769FAB12073
:10765000FBF756FAA020FBF763FAB420FBF750FAC9
:107660000220FBF75DFAB620FBF74AFA0020FBF791
:1076700057FA2220FBF754FA3B20FBF751FAE92096
:10768000FBF73EFA0020FBF74BFAF720FBF738FA3E
:10769000A920FBF745FA5120FBF742FA2C20FBF713
:1076A0003FFA8220FBF73CFA1120FBF729FA7820F9
:1076B00000F06AF82920FBF723FA2C20FBF720FAC8
:1076C0000020FAF70FFE4FF6FF70FAF7E7FD10BD46
:1076D0000008006CBE00002000B585B001218803C1
:1076E000F9F748F901210420F9F744F94FF4007043
:1076F000ADF8100018208DF8130003208DF812004B
:1077000004A91348F8F780FE4FF48060ADF810002C
:1077100004208DF8130004A90D48F8F775FE4FF406
:10772000E13000900020ADF80400ADF80600ADF89F
:107730000800ADF80C000C20ADF80A0069460548B9
:10774000F9F7CFFC01210348F9F757FD05B000BD5B
:10775000000801400038014000BFFEE702E008C811
:10776000121F08C1002AFAD170477047002001E0BB
:1077700001C1121F002AFBD17047000001490860B7
:1077800070470000EC010020014608E042F6E0628C
:1077900001E0531E9AB2002AFBDC4B1E99B200296D
:1077A000F4DC704700B58BB00AA8FBF7DBFA0AA837
:1077B000032100220592CDE90621089005208021B1
:1077C0000C22094BCDE90132CDE903100220002340
:1077D000064A07A100900A48FBF7A2FE0AA8FBF799
:1077E0002DFD00200BB000BDF00100209D1D000804
:1077F000417070205461736B205374617274000087
:10780000F00300202DE9F04106460F46F9F7FFFE90
:10781000041E0D4618BF0120284320F00040C0F18F
:107820007F6000F1E040C00F0ED0301C18BF012077
:10783000384320F00040C0F17F6000F1E040C00F0D
:1078400004BF0120FFF79AFF20462946BDE8F081DA
:107850000000000000000000000000000000000028
:107860003F400000000000000000300040003000F9
:107870004000000009000BC03D000BC03D000900A6
:1078800018C024407FE0224031800000180024C04E
:107890001B000D803240018003801C4027401C806B
:1078A00007400040100060000000000000000000E1
:1078B0000000000000001F80204040200000402009
:1078C00020401F8000000000090006001F80060005
:1078D00009000000040004003F80040004000000D0
:1078E0000010006000000000000000000400040020
:1078F000040004000400000000000040000000003C
:1079000000000000002001C0060038004000000018
:107910001F802040204020401F80000000001040B9
:107920003FC000400000000018C021402240244019
:107930001840000010802040244024401B8000009C
:1079400002000D0011003FC0014000003C802440B7
:1079500024402440238000001F80244024403440E1
:10796000038000003000200027C038002000000005
:107970001B802440244024401B8000001C0022C0A7
:10798000224022401F80000000000000084000004C
:107990000000000000000000046000000000000083
:1079A000000004000A001100208040400900090086
:1079B000090009000900000000004040208011007B
:1079C0000A000400180020002340240018000000D2
:1079D0001F802040274029401F400000004007C072
:1079E00039000F0001C0004020403FC02440244027
:1079F0001B8000001F80204020402040308000007D
:107A000020403FC0204020401F80000020403FC059
:107A100024402E4030C0000020403FC024402E00B3
:107A2000300000000F001080204022403380020010
:107A300020403FC0040004003FC0204020402040C0
:107A40003FC02040204000000060202020203FC098
:107A50002000200020403FC024400B0030C02040C8
:107A600020403FC020400040004000C03FC03C00DC
:107A700003C03C003FC0000020403FC00C4023003A
:107A80003FC020001F802040204020401F80000079
:107A900020403FC024402400180000001F802140E7
:107AA000214020E01FA0000020403FC024402600CD
:107AB00019C0004018C024402440224031800000FA
:107AC000300020403FC020403000000020003F80B8
:107AD000004000403F80200020003E0001C0070021
:107AE00038002000380007C03C0007C03800000004
:107AF000204039C0060039C0204000002000384036
:107B000007C0384020000000304021C026403840E7
:107B100020C00000000000007FE040204020000066
:107B2000000070000C0003800040000000004020B6
:107B300040207FE000000000000020004000200006
:107B400000000000001000100010001000100010D5
:107B50000000000040000000000000000000028063
:107B60000540054003C0004020003FC004400440E1
:107B70000380000000000380044004400640000031
:107B800000000380044024403FC000400000038008
:107B90000540054003400000000004401FC0244091
:107BA00024402000000002E005500550065004204B
:107BB00020403FC00440040003C0004000000440D7
:107BC00027C000400000000000100010041027E053
:107BD0000000000020403FC00140070004C00440F6
:107BE000204020403FC000400040000007C004008B
:107BF00007C0040003C00000044007C004400400A4
:107C000003C00040000003800440044003800000E3
:107C1000041007F0045004400380000000000380BB
:107C20000440045007F00010044007C00240040064
:107C300004000000000006400540054004C00000AC
:107C4000000004001F800440004000000400078082
:107C50000040044007C000400400070004C0018049
:107C600006000400060001C0070001C00600000075
:107C7000044006C0010006C00440000004100710C4
:107C800004E00180060004000000044005C0064036
:107C9000044000000000000004007BE040200000E1
:107CA000000000000000FFF0000000000000402085
:107CB0007BE0040000000000400080004000200045
:107CC0002000400000000000000000000000000054
:107CD000000000000000000000001FCC000C0000AD
:107CE00000000000000008003000600008003000C4
:107CF00060000000022003FC1E20022003FC1E2066
:107D00000220000000000E1811043FFF10840C78C0
:107D1000000000000F0010840F3800C0077818849E
:107D20000078000000780F8410C411240E9800E43D
:107D300000840008080068007000000000000000D7
:107D40000000000000000000000007E018182004F8
:107D500040020000000040022004181807E0000064
:107D6000000000000240024001800FF0018002404C
:107D7000024000000080008000800FF8008000803A
:107D8000008000000001000D000E00000000000057
:107D90000000000000000080008000800080008063
:107DA000008000800000000C000C000000000000BB
:107DB00000000000000000060018006001800600BE
:107DC00018002000000007F008081004100408083C
:107DD00007F000000000080408041FFC0004000471
:107DE0000000000000000E0C101410241044118438
:107DF0000E0C000000000C1810041104110412886D
:107E00000C700000000000E00320042408241FFC84
:107E10000024000000001F98108411041104108831
:107E200010700000000007F0088811041104188881
:107E30000070000000001C00100010FC13001C006B
:107E40001000000000000E3811441084108411440A
:107E50000E38000000000700088C10441044088809
:107E600007F00000000000000000030C030C0000FD
:107E700000000000000000000001010600000000FA
:107E800000000000000000800140022004100808EB
:107E90001004000002200220022002200220022002
:107EA0000220000000001004080804100220014015
:107EB0000080000000000E001200100C106C1080FA
:107EC0000F00000003E00C1813E4142417C4082862
:107ED00007D000000004003C03C41C40074000E43D
:107EE000001C000410041FFC1104110411040E886E
:107EF0000070000003E00C181004100410041008B7
:107F00001C10000010041FFC1004100410040808CA
:107F100007F0000010041FFC1104110417C4100422
:107F20000818000010041FFC1104110017C01000F5
:107F30000800000003E00C181004100410441C7822
:107F40000040000010041FFC10840080008010849A
:107F50001FFC10040000100410041FFC1004100487
:107F60000000000000030001100110011FFE1000BE
:107F70001000000010041FFC110403801464181C7E
:107F80001004000010041FFC10040004000400048E
:107F9000000C000010041FFC1F0000FC1F001FFC51
:107FA0001004000010041FFC0C04030000E0101873
:107FB0001FFC100007F00808100410041004080843
:107FC00007F0000010041FFC108410801080108047
:107FD0000F00000007F0081810241024101C080AD5
:107FE00007F2000010041FFC1104110011C0113031
:107FF0000E0C000400000E1C1104108410841044A8
:108000001C3800001800100010041FFC10041000A1
:108010001800000010001FF81004000400041004F1
:108020001FF8100010001E0011E0001C00701380EB
:108030001C0010001FC0103C00E01F0000E0103CBE
:108040001FC000001004180C163401C001C0163403
:10805000180C100410001C00130400FC13041C0076
:10806000100000000804101C1064108413041C0489
:10807000101800000000000000007FFE40024002D7
:1080800040020000000030000C0003800060001C73
:108090000003000000004002400240027FFE00009A
:1080A00000000000000000002000400040004000F0
:1080B000200000000001000100010001000100019A
:1080C000000100010000400040002000000000000E
:1080D0000000000000000098012401440144014414
:1080E00000FC000410001FFC00880104010400884B
:1080F0000070000000000070008801040104010409
:1081000000880000000000700088010401041108CC
:108110001FFC0004000000F8014401440144014434
:1081200000C800000000010401040FFC1104110448
:1081300011001800000000D601290129012901C9F8
:108140000106000010041FFC00840100010001046E
:1081500000FC000400000104190419FC00040004E0
:10816000000000000000000300010101190119FED8
:108170000000000010041FFC0024004001B4010CAA
:10818000010400000000100410041FFC000400049F
:1081900000000000010401FC0104010001FC0104D5
:1081A000010000FC010401FC008401000100010445
:1081B00000FC0004000000F80104010401040104B3
:1081C00000F80000010101FF00850104010400889E
:1081D0000070000000000070008801040104010527
:1081E00001FF00010104010401FC008401040100FD
:1081F00001800000000000CC01240124012401249E
:108200000198000000000100010007F801040104CA
:1082100000000000010001F800040004000401084F
:1082200001FC0004010001800170000C00100160DD
:108230000180010001F0010C003001C00030010C90
:1082400001F0010000000104018C00740170018C38
:1082500001040000010101810171000E001801609C
:108260000180010000000184010C013401440184FB
:10827000010C0000000000000000000001003EFCB6
:10828000400240020000000000000000FFFF00006C
:10829000000000000000400240023EFC010000001F
:1082A00000000000000060008000800040004000EE
:1082B000200020000000000000000000000000007E
:1082C00000000000000000000000000000000000AE
:1082D000000000000000000000000000000000009E
:1082E000000000000000000F80380FFE380F8038BB
:1082F000000000000000000000000000000000007E
:1083000000000100000600000C00003800003100F1
:10831000000600000C0000380000300000000000E3
:108320000000000061800067F807F98000618000AC
:1083300061800061800061800067F807F98000615A
:108340008000000000000000000001C0E003E0F039
:108350000630080418081FFFFE040E080787F00304
:1083600081E000000000000001F000060C000404A1
:1083700008060C7001F9C0000E00003BE000EC188C
:10838000070808040C180003E00000000001E000EA
:1083900007F003F818041C0804170807E1D003C00D
:1083A000E00023B0003C080020080000100000009E
:1083B0000000000100003100003200001C0000003D
:1083C00000000000000000000000000000000000AD
:1083D000000000000000000000000000000000009D
:1083E000000000007F0001FFC00780F00C001810A3
:1083F0000004200002000000000000200002100025
:10840000040C00180780F001FFC0007F000000008E
:10841000000000000000000000000000000000005C
:108420004200006600006600003C0000180003FFE8
:10843000C0001800003C000066000066000042001A
:10844000000000000800000800000800000800000C
:10845000080001FFC0000800000800000800000834
:1084600000000800000000000001000031000032A0
:1084700000001C00000000000000000000000000E0
:1084800000000000000000000000000008000008DC
:1084900000000800000800000800000800000800B4
:1084A00000080000080000080000000000000000B4
:1084B0000000000038000038000038000000000014
:1084C00000000000000000000000000000000000AC
:1084D00000000000000600001C0000700001800089
:1084E0000E0000380000C0000700001C0000300033
:1084F00000000000000000007F8001FFE0038070AA
:108500000600180400080400080600180380700123
:10851000FFE0007F8000000000000000000001007C
:108520000801000801000803FFF807FFF800000831
:10853000000008000008000000000000000000012A
:10854000C03802C05804009804011804021804043A
:1085500018061C1803F81801E0F8000000000000DD
:1085600000000001C0E003C0F00400080408080493
:10857000080806180803F41801E7F00001E00000FD
:1085800000000000000000000300000D00001100CA
:1085900000610000810803010807FFF80FFFF800E1
:1085A00001080001080000000000000000E007FCD6
:1085B000D006080806100806100806100806183825
:1085C000060FF00607C000000000000000000000D9
:1085D0003F8001FFE00384300208180410080410F3
:1085E00008041008071810030FF00007C00000006F
:1085F00000000000000003C00007000006000006A5
:1086000000F80607F806180006E00007000006005C
:108610000000000000000001E1E003F7F006341064
:10862000041808041808040C08040C08061618039B
:10863000F3F001C1E000000000000000F80003FCBE
:108640003003063804020804020804020804041077
:108650000308F001FFC0007F0000000000000000E0
:1086600000000000000000000000000070380070F2
:10867000380070380000000000000000000000001A
:1086800000000000000000000000000000000000EA
:10869000301A00301C000000000000000000000044
:1086A00000000000000000000000000800001400AE
:1086B00000220000410000808001004002002004F0
:1086C0000010080008000000000000002100002148
:1086D00000002100002100002100002100002100F5
:1086E0000021000021000021000000000000000027
:1086F0000000080008040010020020010040008073
:10870000800041000022000014000008000000006A
:1087100000000003C00004C0000400000800380886
:108720000F380808380810000C300007E00003C0BC
:1087300000000000000000003F8000FFE0038070A8
:10874000020F1006708804C088048308047F880222
:10875000C09003012000FE40000008000018000146
:10876000F8003E0801C20007020007E20000FE0018
:10877000001FC80001F800003800000804000807C6
:10878000FFF807FFF80408080408080408080408AC
:108790000806180803F41801E7F00001E0000000E3
:1087A000000000003F8001FFE00380700200180419
:1087B00000080400080400080400100600200780D8
:1087C000C000000004000807FFF807FFF8040008D5
:1087D000040008040008040018020010038070015F
:1087E000FFE0007F8000000004000807FFF807FF9B
:1087F000F8040808040808040808040808043E08E7
:1088000004000806001801006000000004000807CA
:10881000FFF807FFF804080804080004080004082B
:1088200000043E0006000006000001800000000079
:10883000000000003F8001FFE00380700600180484
:1088400000080402080402080203F00783F0000293
:108850000000020004000807FFF807FFF8040808FA
:1088600000080000080000080000080004080807CD
:10887000FFF807FFF80400080000000000000400F3
:108880000804000804000807FFF807FFF8040008C0
:1088900004000804000800000000000000000000C0
:1088A00000060000070000010400010400010400AC
:1088B0000307FFFE07FFFC040000040000040000A3
:1088C00004000807FFF807FFF8040C080018000070
:1088D0003E0004C7800503C80600F8040038040001
:1088E0001800000804000807FFF807FFF804000854
:1088F0000000080000080000080000080000080050
:10890000001800006000000004000807FFF807805E
:108910000807FC00007FC00003F80007C0007800D3
:1089200007800807FFF807FFF8040008040008079D
:10893000FFF807000803C00000E000003800001E38
:10894000000007000001C00400F007FFF804000069
:10895000000000007F8001FFE00380700600180423
:10896000000804000806001803003001FFE0007F43
:108970008000000004000807FFF807FFF80404085F
:10898000040400040400040400040400060C0003B2
:10899000F80001F000000000000000007F8001FFEF
:1089A000E00380700600880400880400C806003CCC
:1089B00003003E01FFE6007F84000000040008077A
:1089C000FFF807FFF8040808040800040C00040F6F
:1089D00000040BC00610F003F03801E008000008A6
:1089E00000000001E0F803F030063010041808041D
:1089F0001808040C08040C080206180207F0078186
:108A0000E0000000018000060000040000040000F7
:108A100004000807FFF807FFF8040008040000043A
:108A2000000006000001800004000007FFE007FFCF
:108A3000F00400180000080000080000080000080A
:108A400000000804001007FFE00400000400000616
:108A5000000007E00007FE00041FE00001F800002E
:108A6000380001E0043E0007C000060000040000DA
:108A700004000007E00007FFC0041FF80007C0075C
:108A8000F80007FF80043FF80007C004F800070063
:108A90000004000000000004000806001807C07869
:108AA00005F1C8003E00001F800463E80780F80657
:108AB0000018040008000000040000060000078001
:108AC0000007E008047C08001FF80007F8001808F9
:108AD00004E0080700000600000400000000000198
:108AE00000080600380400F80403E8040F08047CBA
:108AF0000805F00807C0080700180400600000001F
:108B00000000000000000000000000000000003F26
:108B1000FFFE2000022000022000022000022000B0
:108B20000200000000000000000008000007000034
:108B300000C0000038000006000001C00000300046
:108B4000000E0000010000000000000000002000F6
:108B5000022000022000022000022000023FFFFE4F
:108B60000000000000000000000000000000000005
:108B7000000000000008000010000030000020008D
:108B8000003000001000000800000000000000009D
:108B900000000100000100000100000100000100D0
:108BA00000010000010000010000010000010000C0
:108BB0000100000100000000000000000020000093
:108BC0002000001000001000000000000000000065
:108BD00000000000000000000000000000F000198C
:108BE000F8001B18002208002608002408002410A2
:108BF000003FF8001FF80000080000180000000403
:108C0000000007FFF80FFFF0001818001008002000
:108C100008002008003018001FF0000FC0000000FE
:108C20000000000007C0001FF000183000200800FE
:108C30002008002008003C08001C10000060000014
:108C4000000000000000000007C0001FF0003818FE
:108C500000200800200800200804101007FFF80F6B
:108C6000FFF00000100000000000000000000007FE
:108C7000C0001FF000123000221800220800220855
:108C8000003208001E10000E20000000000000004E
:108C9000200000200800200801FFF803FFF806204C
:108CA000080420080420080720000300000000003A
:108CB00000000000000E000E6E001FF30031B10036
:108CC00020B10020B1003191001F13002E1E0020A2
:108CD0000E00300000000004000807FFF80FFFF846
:108CE000001008002000002000002008003FF800CD
:108CF0001FF8000008000000000000000000002035
:108D000008002008002008063FF8063FF800000889
:108D10000000080000080000000000000000000043
:108D200000000000030000030020010020010020DB
:108D300003063FFE063FFC000000000000000000AC
:108D400000000004000807FFF80FFFF8000188008A
:108D50000300002FC00038F8002038002008000071
:108D600008000000000000000000040008040008E3
:108D700004000807FFF80FFFF800000800000800D3
:108D80000008000000000000002008003FF8003F3D
:108D9000F8001008002000003FF8003FF80010081D
:108DA000002000003FF8003FF8000008000000002D
:108DB0002008003FF8003FF80010080010000020D5
:108DC00000002008003FF8001FF800000800000025
:108DD0000000000007C0000FF0001830003008004D
:108DE0002008002008003008001830000FF00007AD
:108DF000C0000000000000002001003FFF003FFF16
:108E00000010110020090020080020080030380060
:108E10001FF0000FC00000000000000007C0001F8E
:108E2000F000381800200800200800200900101168
:108E3000001FFF003FFF00000100000000200800AD
:108E40002008002008003FF8003FF8000808001044
:108E50000800200800200000300000300000000062
:108E6000000000000000000C78001E18003308000D
:108E700023080021080021880021980030F00038E4
:108E80006000000000000000200000200000200022
:108E900000FFF003FFF80020080020080020080071
:108EA0000030000000000000000000002000003F33
:108EB000F0007FF8000018000008000008002010F3
:108EC000003FF8007FF000001000000000000000EC
:108ED0002000003000003C00003F800023F0000034
:108EE00078000070002380003C000030000020006B
:108EF000002000003C00003FE00023F80000E000FC
:108F00002700003E00003FE00021F80001E0003EA5
:108F10000000200000000000200800200800383871
:108F2000003E680027800003C8002CF80038380095
:108F30002018002008000000000000002000003081
:108F400003003C01003F830023EC000070002380FD
:108F5000003C000020000020000000000000000095
:108F600000000038080020380020F80023E8002F17
:108F700088003E080038080020180000700000003B
:108F800000000000000000000000000000000000E1
:108F900008000014001FF7FC30000620000200004B
:108FA00000000000000000000000000000000000C1
:108FB000000000000000FFFFFF00000000000000B4
:108FC0000000000000000000000000000000200081
:108FD000023000061FF7FC0014000008000000002B
:108FE0000000000000000000000000000000001869
:108FF0000000600000400000400000200000100061
:10900000000800000400000400000C000010000034
:109010000000000000000000000000000000000050
:109020000000000000000000000000000000000040
:109030000000000000000000000000000000000030
:109040000000000000000000000000000000000020
:109050000000000000000000000000000000000010
:109060000000000000000000000000000000000000
:1090700000000000000000000000000000000000F0
:1090800000000000000000000000000000000000E0
:1090900000000000000000000000000000000000D0
:1090A000000000000000000007F000C007FFE1E042
:1090B00007F001E0000000C0000000000000000018
:1090C00000000000000000000000000000000000A0
:1090D0000000000000000000000000000000000090
:1090E0000000000000000000000000000000000080
:1090F0000000000000000000000000000000000070
:10910000000000000000000000000000000000005F
:1091100000000000000000000020000001C000006E
:10912000078000001F0000001E0000001C2000003F
:1091300001C00000078000001F0000001E000000AA
:109140001C00000000000000000000000000000003
:10915000000000000000000000000000000000000F
:1091600000000000000000000000000000000000FF
:1091700000000000000000000000000000000000EF
:1091800000000000000000000000000000000000DF
:109190000000000000180C0000180C0000180FE080
:1091A000001FFC0003F80C0000180C0000180C0055
:1091B00000180C0000180C0000180FE0001FFC0045
:1091C00003F80C0000180C0000180C000000000050
:1091D000000000000000000000000000000000008F
:1091E000000000000000000000000000000000007F
:1091F000000000000000000000000000000000006F
:10920000000000000000000000000000000000005E
:10921000000000000000000000000780007807C088
:1092200000FC0640010E00200307002002038020FE
:109230000FFFFFFC0201C0200200E060013070401F
:1092400001F03F8000F01F0000000000000000005F
:10925000000000000000000000000000000000000E
:1092600000000000000000000000000000000000FE
:1092700000000000000000000000000000000000EE
:1092800000000000000000000000000000000000DE
:1092900000FE000001FF000003018000020080606A
:1092A000030181C001FF070000FE18000000E0007C
:1092B0000003BF00000CFFC00071806001C10020EE
:1092C000030180600000FFC000003F0000000000BC
:1092D000000000000000000000000000000000008E
:1092E000000000000000000000000000000000007E
:1092F000000000000000000000000000000000006E
:10930000000000000000000000000000000000005D
:1093100000001F0000007FC000FCC0C001FF806093
:109320000303E0200202782002061E2003FC07400F
:1093300001F00380000103C000011C600001E02077
:10934000000100200001004000000180000000003A
:10935000000000000000000000000000000000000D
:1093600000000000000000000000000000000000FD
:1093700000000000000000000000000000000000ED
:1093800000000000000000000000000000000000DD
:1093900000000000002000001C6000001C400000D5
:1093A0001F8000000F00000000000000000000000F
:1093B00000000000000000000000000000000000AD
:1093C000000000000000000000000000000000009D
:1093D000000000000000000000000000000000008D
:1093E000000000000000000000000000000000007D
:1093F000000000000000000000000000000000006D
:10940000000000000000000000000000000000005C
:10941000000000000000000000000000000000004C
:109420000000000000000000000000000007F8003D
:10943000003FFF00007807C001C000E003000030DB
:1094400004000008080000041000000200000000F2
:10945000000000000000000000000000000000000C
:1094600000000000000000000000000000000000FC
:1094700000000000000000000000000000000000EC
:1094800000000000000000000000000000000000DC
:1094900000000000100000020800000404000008A2
:1094A0000300003001C000E0007807C0003FFF006B
:1094B0000007F800000000000000000000000000AD
:1094C000000000000000000000000000000000009C
:1094D000000000000000000000000000000000008C
:1094E000000000000000000000000000000000007C
:1094F000000000000000000000000000000000006C
:10950000000000000000000000000000000000005B
:109510000000000000000000000C1800000E3800E1
:10952000000E380000063000000360000061438038
:1095300000FFFF8000614300000360000006300070
:10954000000E3800000E3800000C1800000000006B
:10955000000000000000000000000000000000000B
:1095600000000000000000000000000000000000FB
:1095700000000000000000000000000000000000EB
:1095800000000000000000000000000000000000DB
:1095900000000000000000000000800000008000CB
:1095A00000008000000080000000800000008000BB
:1095B000007FFF00000080000000800000008000AD
:1095C000000080000000800000008000000000001B
:1095D000000000000000000000000000000000008B
:1095E000000000000000000000000000000000007B
:1095F000000000000000000000000000000000006B
:10960000000000000000000000000000000000005A
:109610000000000000000001000000E3000000E284
:10962000000000FC000000780000000000000000C6
:10963000000000000000000000000000000000002A
:10964000000000000000000000000000000000001A
:10965000000000000000000000000000000000000A
:1096600000000000000000000000000000000000FA
:1096700000000000000000000000000000000000EA
:1096800000000000000000000000000000000000DA
:10969000000000000000800000008000000080004A
:1096A00000008000000080000000800000008000BA
:1096B00000008000000080000000800000008000AA
:1096C000000080000000800000008000000000001A
:1096D000000000000000000000000000000000008A
:1096E000000000000000000000000000000000007A
:1096F000000000000000000000000000000000006A
:109700000000000000000000000000000000000059
:109710000000000000000000000000C0000001E0A8
:10972000000001E0000000C0000000000000000098
:109730000000000000000000000000000000000029
:109740000000000000000000000000000000000019
:109750000000000000000000000000000000000009
:1097600000000000000000000000000000000000F9
:1097700000000000000000000000000000000000E9
:1097800000000000000000000000000000000000D9
:10979000000000000000000C00000038000000E0A5
:1097A0000000038000000E00000038000000E00010
:1097B00000038000000E00000038000000E0000000
:1097C000038000000E0000001800000000000000F0
:1097D0000000000000000000000000000000000089
:1097E0000000000000000000000000000000000079
:1097F0000000000000000000000000000000000069
:109800000000000000000000000000000000000058
:109810000000000000000000000FF800007FFF00C3
:1098200000F00780018000C00300006002000020FB
:10983000020000200200002003000060018000C040
:1098400000E00380007FFF00000FF8000000000030
:109850000000000000000000000000000000000008
:1098600000000000000000000000000000000000F8
:1098700000000000000000000000000000000000E8
:1098800000000000000000000000000000000000D8
:109890000000000000000000000000000080002028
:1098A00000800020008000200080006001FFFFE0B9
:1098B00003FFFFE000000060000000200000002027
:1098C0000000002000000000000000000000000078
:1098D0000000000000000000000000000000000088
:1098E0000000000000000000000000000000000078
:1098F0000000000000000000000000000000000068
:109900000000000000000000000000000000000057
:109910000000000000000000007800E000980160F6
:109920000100026002000460020008600200106092
:10993000020020600200406003008060018300603C
:1099400001FE00E0007C0780000000000000000035
:109950000000000000000000000000000000000007
:1099600000000000000000000000000000000000F7
:1099700000000000000000000000000000000000E7
:1099800000000000000000000000000000000000D7
:10999000000000000000000000F0078001F007C098
:1099A000010000400200002002010020020100200E
:1099B00002010020030380200186804001FCC0C01A
:1099C00000787F8000001E00000000000000000002
:1099D0000000000000000000000000000000000087
:1099E0000000000000000000000000000000000077
:1099F0000000000000000000000000000000000067
:109A00000000000000000000000000000000000056
:109A100000000000000008000000380000004800BE
:109A20000001880000060800000C08100030081033
:109A30000040081001FFFFF003FFFFF003FFFFF0FD
:109A400000000810000008100000081000000000CE
:109A50000000000000000000000000000000000006
:109A600000000000000000000000000000000000F6
:109A700000000000000000000000000000000000E6
:109A800000000000000000000000000000000000D6
:109A9000000000000000000000000780001F86405A
:109AA00003E100200302002003040020030400203F
:109AB000030400200304002003060040030301C048
:109AC0000301FF8003007E00000000000000000092
:109AD0000000000000000000000000000000000086
:109AE0000000000000000000000000000000000076
:109AF0000000000000000000000000000000000066
:109B00000000000000000000000000000000000055
:109B100000000000000000000007FC00003FFF0004
:109B20000070C380008180C001010060030200203A
:109B30000202002002020020020200200203004074
:109B400001C180C000C0FF8000007E000000000056
:109B50000000000000000000000000000000000005
:109B600000000000000000000000000000000000F5
:109B700000000000000000000000000000000000E5
:109B800000000000000000000000000000000000D5
:109B9000000000000000000000F0000003C0000012
:109BA0000380000003000000030007E003003FE023
:109BB0000301C0000306000003180000036000005A
:109BC000038000000300000000000000000000000F
:109BD0000000000000000000000000000000000085
:109BE0000000000000000000000000000000000075
:109BF0000000000000000000000000000000000065
:109C00000000000000000000000000000000000054
:109C10000000000000001F0000783F8000FC60C0D2
:109C2000018EC04003078020020300200201802033
:109C3000020180200201C0200301E040018670C0C3
:109C400000FC3F8000781F000000000000000000C2
:109C50000000000000000000000000000000000004
:109C600000000000000000000000000000000000F4
:109C700000000000000000000000000000000000E4
:109C800000000000000000000000000000000000D4
:109C900000000000003F000000FF81C001C0C1C003
:109CA000010060200200202002002020020020206D
:109CB00002002060020040C00100C18000C18F008E
:109CC000007FFE00001FF000000000000000000008
:109CD0000000000000000000000000000000000084
:109CE0000000000000000000000000000000000074
:109CF0000000000000000000000000000000000064
:109D00000000000000000000000000000000000053
:109D10000000000000000000000000000000000043
:109D20000000000000000000000300C0000781E008
:109D3000000781E0000300C00000000000000000F8
:109D40000000000000000000000000000000000013
:109D50000000000000000000000000000000000003
:109D600000000000000000000000000000000000F3
:109D700000000000000000000000000000000000E3
:109D800000000000000000000000000000000000D3
:109D900000000000000000000000000000000000C3
:109DA00000000000000000000006006600060078C9
:109DB00000000000000000000000000000000000A3
:109DC0000000000000000000000000000000000093
:109DD0000000000000000000000000000000000083
:109DE0000000000000000000000000000000000073
:109DF0000000000000000000000000000000000063
:109E00000000000000000000000000000000000052
:109E10000000000000000000000080000001C00001
:109E20000003600000063000000C180000180C0051
:109E3000003006000060030000C001800100004007
:109E400002000020040000100000000000000000DC
:109E50000000000000000000000000000000000002
:109E600000000000000000000000000000000000F2
:109E700000000000000000000000000000000000E2
:109E800000000000000000000000000000000000D2
:109E90000000000000041000000410000004100086
:109EA0000004100000041000000410000004100062
:109EB0000004100000041000000410000004100052
:109EC0000004100000041000000410000000000056
:109ED0000000000000000000000000000000000082
:109EE0000000000000000000000000000000000072
:109EF0000000000000000000000000000000000062
:109F00000000000000000000000000000000000051
:109F1000000000000000000004000010020000200B
:109F20000100004000C00180006003000030060016
:109F300000180C00000C1800000630000003600040
:109F40000001C000000080000000000000000000D0
:109F50000000000000000000000000000000000001
:109F600000000000000000000000000000000000F1
:109F700000000000000000000000000000000000E1
:109F800000000000000000000000000000000000D1
:109F900000000000000000000078000001F8000050
:109FA0000238000002000000040000C0040079E054
:109FB000040081E0040100C004030000020200006C
:109FC0000306000001FC000000F800000000000093
:109FD0000000000000000000000000000000000081
:109FE0000000000000000000000000000000000071
:109FF0000000000000000000000000000000000061
:10A000000000000000000000000000000000000050
:10A0100000000000000FF800003FFE000070078005
:10A0200000C000C00101F8400307FC20021E04200C
:10A030000230082002203020023FFC20013F044073
:10A0400001800CC000E03180001FC2000000000051
:10A050000000000000000000000000000000000000
:10A0600000000000000000000000000000000000F0
:10A0700000000000000000000000000000000000E0
:10A0800000000000000000000000000000000000D0
:10A090000000002000000060000003E000003E20FF
:10A0A0000003E020003E200003E0200003802000A9
:10A0B00007FC2000003FE0000003FE2000003FE01E
:10A0C000000001E00000002000000020000000006F
:10A0D0000000000000000000000000000000000080
:10A0E0000000000000000000000000000000000070
:10A0F0000000000000000000000000000000000060
:10A10000000000000000000000000000000000004F
:10A1100000000000020000200200002003FFFFE01A
:10A1200003FFFFE0020100200201002002010020E5
:10A13000020100200201002003030020018680604C
:10A1400001FCC0C000F87F8000001F00000000007C
:10A1500000000000000000000000000000000000FF
:10A1600000000000000000000000000000000000EF
:10A1700000000000000000000000000000000000DF
:10A1800000000000000000000000000000000000CF
:10A19000000000000007F800003FFF00007007808B
:10A1A00000C000C0010000400300002002000020A9
:10A1B00002000020020000200200002001000040F8
:10A1C000018000C003C001800030060000000000D4
:10A1D000000000000000000000000000000000007F
:10A1E000000000000000000000000000000000006F
:10A1F000000000000000000000000000000000005F
:10A20000000000000000000000000000000000004E
:10A2100000000000020000200200002003FFFFE019
:10A2200003FFFFE0020000200200002002000020E7
:10A23000020000200300006001000040018000C017
:10A2400000F00780007FFE00000FF8000000000013
:10A2500000000000000000000000000000000000FE
:10A2600000000000000000000000000000000000EE
:10A2700000000000000000000000000000000000DE
:10A2800000000000000000000000000000000000CE
:10A2900000000000020000200200002003FFFFE099
:10A2A00003FFFFE002010020020100200201002064
:10A2B000020100200201002002038020020FE020A2
:10A2C0000300006003C000E0006003000000000025
:10A2D000000000000000000000000000000000007E
:10A2E000000000000000000000000000000000006E
:10A2F000000000000000000000000000000000005E
:10A30000000000000000000000000000000000004D
:10A3100000000000020000200200002003FFFFE018
:10A3200003FFFFE002010020020100200201000003
:10A33000020100000201000002010000020380008F
:10A34000030FE0000300000003C0000000600000F5
:10A3500000000000000000000000000000000000FD
:10A3600000000000000000000000000000000000ED
:10A3700000000000000000000000000000000000DD
:10A3800000000000000000000000000000000000CD
:10A39000000000000007F800003FFE00007007808A
:10A3A00001C001C0010000400300002002000020A5
:10A3B00002000020020000200100202001002040B7
:10A3C00003C03F8000303F800000200000002000DC
:10A3D000000000000000000000000000000000007D
:10A3E000000000000000000000000000000000006D
:10A3F000000000000000000000000000000000005D
:10A40000000000000000000000000000000000004C
:10A41000020000200200002003FFFFE003FFFFE036
:10A4200002008020020080200000800000008000E8
:10A4300000008000020080200200802003FFFFE077
:10A4400003FFFFE0020000200200002000000000E7
:10A4500000000000000000000000000000000000FC
:10A4600000000000000000000000000000000000EC
:10A4700000000000000000000000000000000000DC
:10A4800000000000000000000000000000000000CC
:10A49000000000000000000000000000020000209A
:10A4A00002000020020000200200002003FFFFE065
:10A4B00003FFFFE002000020020000200200002055
:10A4C000020000200000000000000000000000006A
:10A4D000000000000000000000000000000000007C
:10A4E000000000000000000000000000000000006C
:10A4F000000000000000000000000000000000005C
:10A50000000000000000000000000000000000004B
:10A51000000000000000000E0000000F0000000F0F
:10A52000000000010200000102000001020000031F
:10A530000200000603FFFFFC03FFFFF8020000001B
:10A540000200000002000000020000000000000005
:10A5500000000000000000000000000000000000FB
:10A5600000000000000000000000000000000000EB
:10A5700000000000000000000000000000000000DB
:10A5800000000000000000000000000000000000CB
:10A5900000000000020000200200002003FFFFE096
:10A5A00003FFFFE00200C02002010020000780003E
:10A5B000000FE0000030F80002603E2003800F2012
:10A5C000030003E0020000E0020000200000002081
:10A5D000000000000000000000000000000000007B
:10A5E000000000000000000000000000000000006B
:10A5F000000000000000000000000000000000005B
:10A60000000000000000000000000000000000004A
:10A6100000000000020000200200002003FFFFE015
:10A6200003FFFFE0020000200200002000000020E5
:10A63000000000200000002000000020000000209A
:10A6400000000060000000E00000030000000000C7
:10A6500000000000000000000000000000000000FA
:10A6600000000000000000000000000000000000EA
:10A6700000000000000000000000000000000000DA
:10A6800000000000000000000000000000000000CA
:10A69000020000200200002003FFFFE003E0002092
:10A6A00003FF0020001FF0000001FF8000000FE00A
:10A6B00000001E000003E000003E002003E0002038
:10A6C00003FFFFE003FFFFE0020000200200002084
:10A6D000000000000000000000000000000000007A
:10A6E000000000000000000000000000000000006A
:10A6F000000000000000000000000000000000005A
:10A700000000000000000000000000000000000049
:10A71000020000200200002003FFFFE00380002071
:10A7200003F0002000FC0000001F00000007C00034
:10A730000001F00000007C0002001F80020007E022
:10A7400003FFFFE002000000020000000000000024
:10A7500000000000000000000000000000000000F9
:10A7600000000000000000000000000000000000E9
:10A7700000000000000000000000000000000000D9
:10A7800000000000000000000000000000000000C9
:10A7900000000000000FF800003FFE0000F00780FE
:10A7A000018000C0010000400200002002000020E3
:10A7B000020000200200002001000040018000C0D3
:10A7C00000F00380003FFE00000FF80000000000D2
:10A7D0000000000000000000000000000000000079
:10A7E0000000000000000000000000000000000069
:10A7F0000000000000000000000000000000000059
:10A800000000000000000000000000000000000048
:10A8100000000000020000200200002003FFFFE013
:10A8200003FFFFE002008020020080200200800081
:10A83000020080000200800002008000030180000E
:10A840000183000000FE0000007C0000000000000A
:10A8500000000000000000000000000000000000F8
:10A8600000000000000000000000000000000000E8
:10A8700000000000000000000000000000000000D8
:10A8800000000000000000000000000000000000C8
:10A8900000000000000FF800007FFF0000F00380C0
:10A8A000018001C0010006400200042002000420D3
:10A8B00002000620020003E0010000F80180005CB5
:10A8C00000E0038C003FFF0C000FFC1800000000AC
:10A8D0000000000000000000000000000000000078
:10A8E0000000000000000000000000000000000068
:10A8F0000000000000000000000000000000000058
:10A900000000000000000000000000000000000047
:10A9100000000000020000200200002003FFFFE012
:10A9200003FFFFE00201002002010020020180007D
:10A930000201E0000201FC0003033F80018607E002
:10A9400001FC00E000F800200000002000000000F2
:10A9500000000000000000000000000000000000F7
:10A9600000000000000000000000000000000000E7
:10A9700000000000000000000000000000000000D7
:10A9800000000000000000000000000000000000C7
:10A9900000000000000000000078060000FE01E05A
:10A9A000018600C003030040020300200201802052
:10A9B000020180200201C0200200C0200100E060EE
:10A9C000018070C003E03F8000001F000000000015
:10A9D0000000000000000000000000000000000077
:10A9E0000000000000000000000000000000000067
:10A9F0000000000000000000000000000000000057
:10AA00000000000000000000000000000000000046
:10AA10000000000000600000038000000300000050
:10AA200002000000020000200200002003FFFFE0FF
:10AA300003FFFFE0020000200200002002000000EF
:10AA4000020000000380000000E0000000000000A1
:10AA500000000000000000000000000000000000F6
:10AA600000000000000000000000000000000000E6
:10AA700000000000000000000000000000000000D6
:10AA800000000000000000000000000000000000C6
:10AA9000020000000200000003FFFF0003FFFFC0F0
:10AAA00002000040020000600000002000000020C2
:10AAB0000000002000000020020000400200008092
:10AAC00003FFFF0002000000020000000000000081
:10AAD0000000000000000000000000000000000076
:10AAE0000000000000000000000000000000000066
:10AAF0000000000000000000000000000000000056
:10AB00000000000000000000000000000000000045
:10AB100000000000020000000200000003C000006E
:10AB200003FC0000023FC0000003F80000007F802B
:10AB3000000007E000000780000078000203C0006A
:10AB4000023C000003C00000020000000200000000
:10AB500000000000000000000000000000000000F5
:10AB600000000000000000000000000000000000E5
:10AB700000000000000000000000000000000000D5
:10AB800000000000000000000000000000000000C5
:10AB90000200000003C0000003FF8000023FFE002F
:10ABA00002007FE000000F000200F00003EF000051
:10ABB00003FF8000020FFE0000003FE000001F00C6
:10ABC0000207E00003F8000003000000020000009C
:10ABD0000000000000000000000000000000000075
:10ABE0000000000000000000000000000000000065
:10ABF0000000000000000000000000000000000055
:10AC00000000000000000000000000000000000044
:10AC1000000000000200002002000020038000E08D
:10AC200003F0032002FC0C20021F30000007C000CC
:10AC30000007F00002187C0002601F20038003E080
:10AC4000020000E0020000200000002000000000E0
:10AC500000000000000000000000000000000000F4
:10AC600000000000000000000000000000000000E4
:10AC700000000000000000000000000000000000D4
:10AC800000000000000000000000000000000000C4
:10AC900000000000020000000300000003C00000EC
:10ACA00003F80000023E0020020FC0200001FFE078
:10ACB00000007FE000038020021C002002700000E2
:10ACC00003800000020000000200000000000000FD
:10ACD0000000000000000000000000000000000074
:10ACE0000000000000000000000000000000000064
:10ACF0000000000000000000000000000000000054
:10AD00000000000000000000000000000000000043
:10AD10000000000000000020006000E0038003E06D
:10AD200003000FA002003E200200F8200203E020F2
:10AD3000020F8020023E00200278002003E0006025
:10AD4000038000E00200030000000000000000009B
:10AD500000000000000000000000000000000000F3
:10AD600000000000000000000000000000000000E3
:10AD700000000000000000000000000000000000D3
:10AD800000000000000000000000000000000000C3
:10AD900000000000000000000000000000000000B3
:10ADA00000000000000000001FFFFFFC1000000476
:10ADB0001000000410000004100000041000000443
:10ADC000100000041000000400000000000000005B
:10ADD0000000000000000000000000000000000073
:10ADE0000000000000000000000000000000000063
:10ADF0000000000000000000000000000000000053
:10AE00000000000000000000000000000000000042
:10AE1000000000000000000000000000070000002B
:10AE200003C0000000780000001E00000003C00006
:10AE30000000F00000001E0000000780000000F08D
:10AE40000000003C000000060000000000000000C0
:10AE500000000000000000000000000000000000F2
:10AE600000000000000000000000000000000000E2
:10AE700000000000000000000000000000000000D2
:10AE800000000000000000000000000000000000C2
:10AE9000000000000000000010000004100000048A
:10AEA0001000000410000004100000041000000452
:10AEB000100000041FFFFFFC000000000000000065
:10AEC0000000000000000000000000000000000082
:10AED0000000000000000000000000000000000072
:10AEE0000000000000000000000000000000000062
:10AEF0000000000000000000000000000000000052
:10AF00000000000000000000000000000000000041
:10AF10000000000000000000000000000000000031
:10AF200002000000040000000800000018000000FB
:10AF300010000000180000001800000004000000CD
:10AF400002000000000000000000000000000000FF
:10AF500000000000000000000000000000000000F1
:10AF600000000000000000000000000000000000E1
:10AF700000000000000000000000000000000000D1
:10AF800000000000000000000000000000000000C1
:10AF900000000001000000010000000100000001AD
:10AFA000000000010000000100000001000000019D
:10AFB000000000010000000100000001000000018D
:10AFC000000000010000000100000001000000017D
:10AFD0000000000000000000000000000000000071
:10AFE0000000000000000000000000000000000061
:10AFF0000000000000000000000000000000000051
:10B000000000000000000000000000000000000040
:10B010000000000000000000000000001000000020
:10B0200010000000100000001800000008000000E0
:10B03000040000000000000000000000000000000C
:10B040000000000000000000000000000000000000
:10B0500000000000000000000000000000000000F0
:10B0600000000000000000000000000000000000E0
:10B0700000000000000000000000000000000000D0
:10B0800000000000000000000000000000000000C0
:10B09000000000000000038000018FC000038C60EE
:10B0A00000061820000410200004102000042020B6
:10B0B00000042040000620400003FFC00001FFE024
:10B0C0000000002000000020000000C00000000080
:10B0D0000000000000000000000000000000000070
:10B0E0000000000000000000000000000000000060
:10B0F0000000000000000000000000000000000050
:10B10000000000000000000000000000000000003F
:10B1100000000000020000000200000003FFFFE04A
:10B1200007FFFFC0000180C0000200600002002095
:10B13000000400200004002000040020000600405D
:10B14000000300C00001FF800000FE0000000000BE
:10B1500000000000000000000000000000000000EF
:10B1600000000000000000000000000000000000DF
:10B1700000000000000000000000000000000000CF
:10B1800000000000000000000000000000000000BF
:10B19000000000000000000000007E000001FF80B1
:10B1A000000381C0000200400006002000040020CF
:10B1B0000004002000040020000600200003C0401E
:10B1C0000001C0800000030000000000000000003B
:10B1D000000000000000000000000000000000006F
:10B1E000000000000000000000000000000000005F
:10B1F000000000000000000000000000000000004F
:10B20000000000000000000000000000000000003E
:10B21000000000000000000000007E000001FF8030
:10B22000000380C00006006000040020000400202D
:10B2300000040020020400400202008003FFFFE03F
:10B2400007FFFFC0000000400000004000000000B9
:10B2500000000000000000000000000000000000EE
:10B2600000000000000000000000000000000000DE
:10B2700000000000000000000000000000000000CE
:10B2800000000000000000000000000000000000BE
:10B29000000000000000000000007E000001FF80B0
:10B2A000000311C0000210400004106000041020D0
:10B2B000000410200004102000061020000310409D
:10B2C0000001F0C00000710000000000000000005C
:10B2D000000000000000000000000000000000006E
:10B2E000000000000000000000000000000000005E
:10B2F000000000000000000000000000000000004E
:10B30000000000000000000000000000000000003D
:10B310000000000000000000000400000004002005
:10B320000004002000040020007FFFE001FFFFE098
:10B330000104002003040020020400200204002075
:10B34000020400000200000001C0000001C0000073
:10B3500000000000000000000000000000000000ED
:10B3600000000000000000000000000000000000DD
:10B3700000000000000000000000000000000000CD
:10B3800000000000000000000000000000000000BD
:10B3900000000000000000000000001C0000E33E70
:10B3A0000003FFC200020CC3000404C1000404C176
:10B3B000000404C1000404C100060CC10003F8C36A
:10B3C0000005F0620006007E0006003C0000000060
:10B3D000000000000000000000000000000000006D
:10B3E000000000000000000000000000000000005D
:10B3F000000000000000000000000000000000004D
:10B40000000000000000000000000000000000003C
:10B4100000000000020000200200002003FFFFE007
:10B4200007FFFFE0000100200002002000060000EE
:10B4300000040000000400000004002000060020BA
:10B440000003FFE00001FFE00000002000000020FA
:10B4500000000000000000000000000000000000EC
:10B4600000000000000000000000000000000000DC
:10B4700000000000000000000000000000000000CC
:10B4800000000000000000000000000000000000BC
:10B490000000000000000000000000000004002088
:10B4A0000004002000040020000400200387FFE0C7
:10B4B000038FFFE003800020000000200000002038
:10B4C000000000200000000000000000000000005C
:10B4D000000000000000000000000000000000006C
:10B4E000000000000000000000000000000000005C
:10B4F000000000000000000000000000000000004C
:10B50000000000000000000000000000000000003B
:10B510000000000000000000000000000000000625
:10B52000000000070000000100000001000400010D
:10B530000004000100040003000400060387FFFC70
:10B54000038FFFF8038000000000000000000000EF
:10B5500000000000000000000000000000000000EB
:10B5600000000000000000000000000000000000DB
:10B5700000000000000000000000000000000000CB
:10B5800000000000000000000000000000000000BB
:10B5900000000000020000200200002003FFFFE086
:10B5A00007FFFFE00000082000001020000030002E
:10B5B0000000FC0000058E00000707A0000601E067
:10B5C000000400E000040020000000200000000053
:10B5D000000000000000000000000000000000006B
:10B5E000000000000000000000000000000000005B
:10B5F000000000000000000000000000000000004B
:10B60000000000000000000000000000000000003A
:10B610000000000000000000000000000200002008
:10B6200002000020020000200200002003FFFFE0D3
:10B6300007FFFFE0000000200000002000000020C5
:10B6400000000020000000000000000000000000DA
:10B6500000000000000000000000000000000000EA
:10B6600000000000000000000000000000000000DA
:10B6700000000000000000000000000000000000CA
:10B6800000000000000000000000000000000000BA
:10B6900000000000000400200007FFE0000FFFE0B2
:10B6A0000002002000040000000400200007FFE06A
:10B6B0000003FFE00002002000040000000400205E
:10B6C0000007FFE00003FFE0000000200000000092
:10B6D000000000000000000000000000000000006A
:10B6E000000000000000000000000000000000005A
:10B6F000000000000000000000000000000000004A
:10B700000000000000000000000000000000000039
:10B710000000000000040020000400200007FFE0FB
:10B72000000FFFE0000100200002002000020000E6
:10B7300000040000000400000004002000060020B7
:10B740000003FFE00001FFE00000002000000020F7
:10B7500000000000000000000000000000000000E9
:10B7600000000000000000000000000000000000D9
:10B7700000000000000000000000000000000000C9
:10B7800000000000000000000000000000000000B9
:10B79000000000000000000000007E000000FF80AC
:10B7A000000381C0000200400006002000040020C9
:10B7B00000040020000400200006002000020040D9
:10B7C000000381C00001FF8000007E000000000037
:10B7D0000000000000000000000000000000000069
:10B7E0000000000000000000000000000000000059
:10B7F0000000000000000000000000000000000049
:10B800000000000000000000000000000000000038
:10B810000000000000040001000400010007FFFF19
:10B82000000FFFFF000100C10002004100040020E2
:10B830000004002000040020000400200006004056
:10B84000000301C00001FF8000007E000000000036
:10B8500000000000000000000000000000000000E8
:10B8600000000000000000000000000000000000D8
:10B8700000000000000000000000000000000000C8
:10B8800000000000000000000000000000000000B8
:10B89000000000000000000000007E000001FF80AA
:10B8A000000380C0000200600004002000040020AB
:10B8B000000400200004002000020041000300C139
:10B8C0000003FFFF0007FFFF000000010000000170
:10B8D0000000000000000000000000000000000068
:10B8E0000000000000000000000000000000000058
:10B8F0000000000000000000000000000000000048
:10B900000000000000000000000000000000000037
:10B9100000000000000400200004002000040020BB
:10B9200000040020000FFFE0000FFFE00000C02037
:10B93000000100200002002000060020000400009A
:10B9400000040000000700000003000000000000E9
:10B9500000000000000000000000000000000000E7
:10B9600000000000000000000000000000000000D7
:10B9700000000000000000000000000000000000C7
:10B9800000000000000000000000000000000000B7
:10B990000000000000000000000003E00001C0E023
:10B9A0000003E0400006302000043020000418208E
:10B9B000000418200004182000040C2000020C6071
:10B9C000000307C0000783800000000000000000A3
:10B9D0000000000000000000000000000000000067
:10B9E0000000000000000000000000000000000057
:10B9F0000000000000000000000000000000000047
:10BA00000000000000000000000000000000000036
:10BA1000000000000000000000040000000400001E
:10BA200000040000000C0000001FFF8000FFFFC0AA
:10BA30000004006000040020000400200004002036
:10BA40000004004000000180000000000000000031
:10BA500000000000000000000000000000000000E6
:10BA600000000000000000000000000000000000D6
:10BA700000000000000000000000000000000000C6
:10BA800000000000000000000000000000000000B6
:10BA90000000000000040000000400000007FF8018
:10BAA000000FFFC000000060000000200000002028
:10BAB000000000200000002000040040000400807E
:10BAC0000007FFE0000FFFC0000000400000004042
:10BAD0000000000000000000000000000000000066
:10BAE0000000000000000000000000000000000056
:10BAF0000000000000000000000000000000000046
:10BB00000000000000000000000000000000000035
:10BB10000000000000040000000400000007800096
:10BB20000007F0000004FE0000041FC0000003E056
:10BB30000000038000001C0000046000000780007B
:10BB400000060000000400000000000000000000EB
:10BB500000000000000000000000000000000000E5
:10BB600000000000000000000000000000000000D5
:10BB700000000000000000000000000000000000C5
:10BB800000000000000000000000000000000000B5
:10BB900000040000000600000007C0000007FC00D1
:10BBA00000043F80000003E000040F800006F00066
:10BBB0000007F0000007FF8000040FE00000038092
:10BBC00000043C000007C000000600000004000064
:10BBD0000000000000000000000000000000000065
:10BBE0000000000000000000000000000000000055
:10BBF0000000000000000000000000000000000045
:10BC00000000000000000000000000000000000034
:10BC1000000000000000002000040020000400607C
:10BC2000000700E0000783200007E6000004F8009A
:10BC300000003C0000045E20000587A0000601E033
:10BC4000000400600004002000000020000000004C
:10BC500000000000000000000000000000000000E4
:10BC600000000000000000000000000000000000D4
:10BC700000000000000000000000000000000000C4
:10BC800000000000000000000000000000000000B4
:10BC9000000000000004000000040003000700038F
:10BCA0000007E0010004F80100041F02000007FC87
:10BCB000000000E000000700000438000007C0009A
:10BCC0000006000000040000000400000000000066
:10BCD0000000000000000000000000000000000064
:10BCE0000000000000000000000000000000000054
:10BCF0000000000000000000000000000000000044
:10BD00000000000000000000000000000000000033
:10BD1000000000000000000000078060000600E056
:10BD2000000403E0000407A000040E2000043C20EF
:10BD3000000470200005E02000078020000700605C
:10BD4000000400E00000038000000000000000008C
:10BD500000000000000000000000000000000000E3
:10BD600000000000000000000000000000000000D3
:10BD700000000000000000000000000000000000C3
:10BD800000000000000000000000000000000000B3
:10BD900000000000000000000000000000000000A3
:10BDA0000000000000000000000000000000800013
:10BDB000000080000001400007FE3FF8080000047A
:10BDC000100000021000000200000000000000004F
:10BDD0000000000000000000000000000000000063
:10BDE0000000000000000000000000000000000053
:10BDF0000000000000000000000000000000000043
:10BE00000000000000000000000000000000000032
:10BE10000000000000000000000000000000000022
:10BE20000000000000000000000000000000000012
:10BE3000FFFFFFFF00000000000000000000000006
:10BE400000000000000000000000000000000000F2
:10BE500000000000000000000000000000000000E2
:10BE600000000000000000000000000000000000D2
:10BE700000000000000000000000000000000000C2
:10BE800000000000000000000000000000000000B2
:10BE9000000000000000000010000002100000027E
:10BEA0000800000407FE3FF8000140000000800089
:10BEB0000000800000000000000000000000000002
:10BEC0000000000000000000000000000000000072
:10BED0000000000000000000000000000000000062
:10BEE0000000000000000000000000000000000052
:10BEF0000000000000000000000000000000000042
:10BF00000000000000000000000000000000000031
:10BF10000000000018000000300000004000000099
:10BF20004000000040000000200000003000000041
:10BF300008000000040000000200000002000000F1
:10BF4000020000000C0000001800000000000000CB
:10BF500000000000000000000000000000000000E1
:10BF600000000000000000000000000000000000D1
:10BF700000000000000000000000000000000000C1
:10BF800000000000000000000000000000000000B1
:10BF9000C7EB0000000000000000000010000800D7
:10BFA00018000600180007001810031FFFF8030010
:10BFB0001800000018600007FFF0000018000200E1
:10BFC00018007F001818033FFFFC03000000030067
:10BFD00000400303FFE0030200600302006003026D
:10BFE00000600303FFE003120060032200600343CC
:10BFF000FFE003C2006003820060070200600302EA
:10C00000006000020FC0B0B400000000000000009B
:10C010000100200001C0180001800C0001800C000C
:10C0200001820C080183FFFC01A200183FF60010FA
:10C03000018E3820018030000180300001906000C6
:10C0400001A0601801DFFFFC0380C0C00F8080C02A
:10C050003D8181803981018011830180018303004A
:10C060000180E30001801E000180070001800DC0F7
:10C07000018038F0018060381F81C018C6F40000CC
:10C08000000000000000000300000001800000002C
:10C09000C0000000C0000100804001FFFFE00180FF
:10C0A000004001800040018000400180004001808C
:10C0B000004001FFFFC001800040018000000180BE
:10C0C000000001900000011FFFE0031800C00318EA
:10C0D00000C0031800C0031800C0021800C00618F2
:10C0E00000C0061800C0041800C0081FFFC01818C0
:10C0F00000C0B6AF00000000000000000000080013
:10C1000000000E0000000C00000C0C001FFE0C00D4
:10C1100000000C0000000C0000000C000000FFFC00
:10C1200000020C183FFF0C1800800C1801E00C18DE
:10C1300001800C18030008180300081806101818CE
:10C14000040818180C0C101808061018107F30106E
:10C150003F832010380260100000C03000018030A2
:10C1600000010C30000603E0C3EB000000000000FB
:10C170000000000004000038060000FC06001F80DC
:10C180000600018006000180060001800680018013
:10C19000E6600188C6303FFCC6180180860C01802D
:10C1A000860C0381860803F1060003B90600079A8E
:10C1B0000630059A063809840660198006E0118069
:10C1C00005C02180018041800300018006000180BC
:10C1D0001C00018030000180E00001838000B1ED8F
:10C1E00000000000000000000001000000018000CD
:10C1F00000010000000100600FFFFFF000010000DF
:10C20000000100000001018003FFFFC000010000E9
:10C210000001000000010010000100383FFFFFFC9A
:10C2200000070000000680C0000C81E000184300F9
:10C23000003066000070280001B0300003301800A4
:10C240000C300C0030300700003083C0003701FE96
:10C25000007C0078D5D40000000000000000004001
:10C260000000006000000040003000400038004244
:10C2700020301FFF20600040106000400860004038
:10C280000CC0004004C0004182803FFFC3800060BA
:10C29000018000600380006002C0066006600661E5
:10C2A0000C60047F88300C6010300C6030380C60FB
:10C2B00060180A60C0100961000018E000001070EA
:10C2C0000000201F003C2007FFF0BDF00000000030
:10C2D000000200000003800000070000000680004C
:10C2E000000E4000000C60000018300000381800FC
:10C2F00000700C000060060000C00380030005F021
:10C3000006FFFE7C1801001820010000000100005B
:10C3100000010000000100C007FFFFE00001000075
:10C32000010102000081070000E1060000710C001D
:10C3300000310C0000311800002110183FFFFFFCF5
:10C34000BBC00000000002004000030070000300BA
:10C35000C0000300C1000301FF8003018300033319
:10C3600006000332040003640800134C08201397EE
:10C37000FFF0132618203306182073061820030632
:10C38000182003061820030618200306182803BFE8
:10C39000FFFC02C034000670340006302200041096
:10C3A00063000C10C180080180C018030070100CDD
:10C3B000003E20300018B7D600000000000000004A
:10C3C00000001000000C1000000C100000181000FD
:10C3D000001808000030080000300400006006006B
:10C3E00000C0030000800180010002E002FFFF782E
:10C3F00004020630080606000006060000060600D5
:10C4000000040600000C0600000C060000080600F0
:10C41000001804000030040000600C0000C0FC00A4
:10C42000030038000400100000000000CAFD0000F6
:10C4300000000010080000180E0002118C0003110B
:10C4400008000192180001921800011490100FFFCB
:10C45000FFF800703040005C3040009750400113FE
:10C4600050C0021190C00C1088C0003008C000609D
:10C4700008800FFF89800043058000C20500008608
:10C48000070000FC0700001E070000338DC000609D
:10C49000B0E00180607C0E018030000200000000EE
:10C4A0000000A3BA0000000000000000000000002F
:10C4B000000000000000000000000000000000007C
:10C4C000000000000000000000000000000000006C
:10C4D00000000000000000000000000001C000009B
:10C4E00003C0000003C00000018000000000000045
:10C4F000000000000000000001C0000003C00000B8
:10C5000003C00000018000000000000000000000E7
:10C510000000000000000000B0B400000000008037
:10C52000100000E0180000C00C0000C00C0000C1AA
:10C53000081000D1FFF80FFB003000C3102000C628
:10C54000384000C0300000C8300000D0601000EF5C
:10C55000FFF801C040C007C0C0800EC081800CC180
:10C56000818000C1030000C3C30000C07E0000C082
:10C570000E0000C00F8000C018E000C0307007C07F
:10C58000C030018700100118000000000000CFC279
:10C59000000000000000000000000000000000207B
:10C5A0000FFFFFF00001800000018000000180000B
:10C5B0000001800000018000000180000001C00037
:10C5C0000001B80000018F00000187800001838016
:10C5D000000181C000018080000180000001800016
:10C5E0000001800000018000000180000001800047
:10C5F00000018000000180000001800000010000B7
:10C6000000000000B0B4000000000080100000E056
:10C61000180000C00C0000C00C0000C1081000D1C0
:10C62000FFF80FFB003000C3102000C6384000C0E8
:10C63000300000C8300000D0601000EFFFF801C0EB
:10C6400040C007C0C0800EC081800CC1818000C185
:10C65000030000C3C30000C07E0000C00E0000C085
:10C660000F8000C018E000C0307007C0C0300187E4
:10C6700000100118000000000000BCFC00000000D9
:10C6800001000200018003000100020003000220FB
:10C69000032FFFF003F182200601022004037FF83C
:10C6A000040202200FE2022011060220010FFFE027
:10C6B0000104C2200100C2200120BFF01FF8820047
:10C6C00001088200010482100105FFF80107020041
:10C6D000010302000123020001C78200018CE40073
:10C6E00001183FF8002007F000C000000000000023
:10C6F000BFAA00000000000000000000006007FF6B
:10C70000FFF000180C0000180C0000180C000018B6
:10C710000C0000180C0000180C0000180C00001889
:10C720000C0000180C301FFFFFF800180C00001858
:10C730000C0000180C0000180C0000180C00001071
:10C740000C0000300C0000200C0000600C0000C049
:10C750000C0000800C0001000C0006000C0008001A
:10C76000080000000000CABC000000000000080033
:10C7700000600E0000C0180000C0180000C01000CB
:10C7800000803080008020401FFE4030018CC03887
:10C79000010D81F8010DFE18030C8008020800004D
:10C7A000021800000618002006187FF00410402030
:10C7B0000630402001F040200070402000784020EA
:10C7C00000CC40200084402001047FE00200402093
:10C7D000040040200800000000000000D3CE00004C
:10C7E0000000000004000208070001860600018620
:10C7F00004000082081000000FF8003FD000184429
:10C8000010000C4C2010064C5FF0064C4030028F9C
:10C81000E040008C4080008C4180010CC180010808
:10C82000C1900108FFF80308C1800E18C1800210F2
:10C830008180021081800620818006208180064D43
:10C84000818006870D800082030001000200000045
:10C850000000CFB7000000000000400000007000A2
:10C860000000660000006380000861C00FFE60C029
:10C87000000C2040001820100018303800187FC02D
:10C880000617B0000330304001B0306000E010E027
:10C89000006018C00070198000F81B0000980F009D
:10C8A000018C0E08010C0C0802041E08020033085B
:10C8B0000400C388080181D8100200F8000C007839
:10C8C00000000008000000000B024B029302BA02B5
:10C8D00010037003DC0316040000000001000000D8
:10C8E000030002000000000001000000040003003B
:10C8F0000000000007000500030002000100060020
:10C90000060005000300040003000000020002000E
:10C9100004000400040008000200020004000400F7
:10C9200004000800020002000400040004000400E7
:10C9300004000200020004000400040008000000DB
:10C94000688B00200C000000800000000002000046
:10C95000688D00200A00000040010000A88E002021
:10C960000C0000008000000000020000A8900020E1
:10C97000800000000002000064000000400600008B
:10C98000A89200200B0000000A000000E898002098
:10C990000C000000800000000002000040000000C9
:10C9A000E80300000A000000E89A00200C000000E4
:10C9B000800000000002000011000000880000005C
:10C9C0000B0000000A000000709D00200C00000019
:10C9D000800000000002000011000000880000003C
:10C9E000901400000101010078563412010100008A
:10C9F0000000000000000000000000000000000037
:10CA00000000000000000000000000000000000026
:10CA100000000000000000000101010028000400E7
:10CA200020000100000000000000000000000000E5
:10CA300000000000000000000000000000000000F6
:10CA40000000000001002000010010000C00100098
:10CA500000000000000000000000000000000000D6
:10CA600000000000000000000000000000000000C6
:10CA700000000000000000000000000001010100B3
:10CA80002C00010120000C00200020000400040004
:10CA90000000000000000000000000000000000096
:10CAA0000000000000000000000000000000000086
:10CAB0000000000000000000000000000000000076
:10CAC0000101010130000100000000000000000031
:10CAD0000000000000000000000000000000000056
:10CAE0000000000000000000000000000000000046
:10CAF0000101010128000C00800100000401010176
:10CB00000101010101000101C8000800010100004C
:10CB10000000000000000000000000000000000015
:10CB20000000000000000000000000000000000005
:10CB300000000000000000000000000000000000F5
:10CB4000000000000101340008005D762A060000A4
:10CB500070CB000800000020F0010000F216000871
:10CB6000D8CB0008F001002080A700006C770008F7
:10CB70004122032A200612147A5604011E40110B8A
:10CB8000024B029302BA0210037003DC0316043A4C
:10CB9000014A5202290C2A04583112073A05181288
:10CBA000011A0602290C291A1A02023A04020A156D
:10CBB000080C2902A91A21F20AB3FFFF3BA24A86F8
:10CBC000397E6808020304060708090C69102C0264
:08CBD00004064701FD0000000E
:0400000508000131BD
:00000001FF
