Component: ARM Compiler 5.06 update 6 (build 750) Tool: armlink [4d35ed]

==============================================================================

Section Cross References

    startup_stm32f10x_hd.o(RESET) refers to startup_stm32f10x_hd.o(STACK) for __initial_sp
    startup_stm32f10x_hd.o(RESET) refers to startup_stm32f10x_hd.o(.text) for Reset_Handler
    startup_stm32f10x_hd.o(RESET) refers to stm32f10x_it.o(i.NMI_Handler) for NMI_Handler
    startup_stm32f10x_hd.o(RESET) refers to stm32f10x_it.o(i.HardFault_Handler) for HardFault_Handler
    startup_stm32f10x_hd.o(RESET) refers to stm32f10x_it.o(i.MemManage_Handler) for MemManage_Handler
    startup_stm32f10x_hd.o(RESET) refers to stm32f10x_it.o(i.BusFault_Handler) for BusFault_Handler
    startup_stm32f10x_hd.o(RESET) refers to stm32f10x_it.o(i.UsageFault_Handler) for UsageFault_Handler
    startup_stm32f10x_hd.o(RESET) refers to stm32f10x_it.o(i.SVC_Handler) for SVC_Handler
    startup_stm32f10x_hd.o(RESET) refers to stm32f10x_it.o(i.DebugMon_Handler) for DebugMon_Handler
    startup_stm32f10x_hd.o(RESET) refers to os_cpu_a.o(CODE) for OS_CPU_PendSVHandler
    startup_stm32f10x_hd.o(RESET) refers to os_cpu_c.o(i.OS_CPU_SysTickHandler) for OS_CPU_SysTickHandler
    startup_stm32f10x_hd.o(.text) refers to system_stm32f10x.o(.text) for SystemInit
    startup_stm32f10x_hd.o(.text) refers to entry.o(.ARM.Collect$$$$00000000) for __main
    main.o(i.AppTaskLed1) refers to stm32f10x_gpio.o(.text) for GPIO_ReadOutputDataBit
    main.o(i.AppTaskLed1) refers to os_task.o(i.OSTaskRegGet) for OSTaskRegGet
    main.o(i.AppTaskLed1) refers to os_task.o(i.OSTaskRegSet) for OSTaskRegSet
    main.o(i.AppTaskLed1) refers to printfb.o(i.__0printf$bare) for __2printf
    main.o(i.AppTaskLed1) refers to tftlcd.o(i.LCD_ShowString) for LCD_ShowString
==============================================================================

Removing Unused input sections from the image.

    Removing startup_stm32f10x_hd.o(HEAP), (512 bytes).
    Removing os_app_hooks.o(i.App_OS_ClrAllHooks), (100 bytes).
    Removing os_app_hooks.o(i.App_OS_IdleTaskHook), (2 bytes).
    Removing os_app_hooks.o(i.App_OS_InitHook), (2 bytes).
    Removing os_app_hooks.o(i.App_OS_SetAllHooks), (140 bytes).
    Removing os_app_hooks.o(i.App_OS_StatTaskHook), (2 bytes).
    Removing os_app_hooks.o(i.App_OS_TaskCreateHook), (2 bytes).
    Removing os_app_hooks.o(i.App_OS_TaskDelHook), (2 bytes).
    Removing os_app_hooks.o(i.App_OS_TaskReturnHook), (2 bytes).
    Removing os_app_hooks.o(i.App_OS_TaskSwHook), (2 bytes).
    Removing os_app_hooks.o(i.App_OS_TimeTickHook), (2 bytes).
    Removing stm32f10x_it.o(i.PendSV_Handler), (2 bytes).
    Removing stm32f10x_it.o(i.SysTick_Handler), (2 bytes).
    Removing bsp.o(.data), (4 bytes).
    Removing bsp_usart1.o(i.fgetc), (32 bytes).
    Removing bsp_key.o(i.Key1_Config), (36 bytes).
    Removing bsp_key.o(i.Key2_Config), (36 bytes).
    Removing bsp_key.o(i.Key_Initial), (12 bytes).
==============================================================================

Image Symbol Table

    Local Symbols

    Symbol Name                              Value     Ov Type        Size  Object(Section)

    ../clib/../cmprslib/zerorunl2.c          0x00000000   Number         0  __dczerorl2.o ABSOLUTE
    ../clib/microlib/division.c              0x00000000   Number         0  uldiv.o ABSOLUTE
    ../clib/microlib/division.c              0x00000000   Number         0  uidiv.o ABSOLUTE
    ../clib/microlib/init/entry.s            0x00000000   Number         0  entry7a.o ABSOLUTE
    ../clib/microlib/init/entry.s            0x00000000   Number         0  entry.o ABSOLUTE
    ../clib/microlib/init/entry.s            0x00000000   Number         0  entry11b.o ABSOLUTE
    ../clib/microlib/init/entry.s            0x00000000   Number         0  entry8b.o ABSOLUTE
    ../clib/microlib/init/entry.s            0x00000000   Number         0  entry11a.o ABSOLUTE
    ../clib/microlib/init/entry.s            0x00000000   Number         0  entry10b.o ABSOLUTE
    ../clib/microlib/init/entry.s            0x00000000   Number         0  entry10a.o ABSOLUTE
    ../clib/microlib/init/entry.s            0x00000000   Number         0  entry9a.o ABSOLUTE
    ../clib/microlib/init/entry.s            0x00000000   Number         0  entry9b.o ABSOLUTE
    ../clib/microlib/init/entry.s            0x00000000   Number         0  entry8a.o ABSOLUTE
    ../clib/microlib/init/entry.s            0x00000000   Number         0  entry7b.o ABSOLUTE
    ../clib/microlib/init/entry.s            0x00000000   Number         0  entry2.o ABSOLUTE
    ../clib/microlib/init/entry.s            0x00000000   Number         0  entry5.o ABSOLUTE
    ../clib/microlib/longlong.c              0x00000000   Number         0  llushr.o ABSOLUTE
    ../clib/microlib/longlong.c              0x00000000   Number         0  llsshr.o ABSOLUTE
    ../clib/microlib/longlong.c              0x00000000   Number         0  llshl.o ABSOLUTE
    ../clib/microlib/printf/printf.c         0x00000000   Number         0  printf6.o ABSOLUTE
    ../clib/microlib/printf/printf.c         0x00000000   Number         0  printf7.o ABSOLUTE
    ../clib/microlib/printf/printf.c         0x00000000   Number         0  printfa.o ABSOLUTE
    ../clib/microlib/printf/printf.c         0x00000000   Number         0  printf8.o ABSOLUTE
    ../clib/microlib/printf/printf.c         0x00000000   Number         0  printf1.o ABSOLUTE
    ../clib/microlib/printf/printf.c         0x00000000   Number         0  printfb.o ABSOLUTE
    ../clib/microlib/printf/printf.c         0x00000000   Number         0  printf0.o ABSOLUTE
    ../clib/microlib/printf/printf.c         0x00000000   Number         0  printf5.o ABSOLUTE
    ../clib/microlib/printf/printf.c         0x00000000   Number         0  printf2.o ABSOLUTE
    ../clib/microlib/printf/printf.c         0x00000000   Number         0  printf3.o ABSOLUTE
    ../clib/microlib/printf/printf.c         0x00000000   Number         0  printf4.o ABSOLUTE
    ../clib/microlib/stdio/streams.c         0x00000000   Number         0  stdout.o ABSOLUTE
    ../clib/microlib/stubs.s                 0x00000000   Number         0  iusefp.o ABSOLUTE
    ../fplib/microlib/fpadd.c                0x00000000   Number         0  dadd.o ABSOLUTE
    ../fplib/microlib/fpdiv.c                0x00000000   Number         0  ddiv.o ABSOLUTE
    ../fplib/microlib/fpepilogue.c           0x00000000   Number         0  depilogue.o ABSOLUTE
    ../fplib/microlib/fpfix.c                0x00000000   Number         0  dfixul.o ABSOLUTE
    ../fplib/microlib/fpmul.c                0x00000000   Number         0  dmul.o ABSOLUTE
    ..\..\User\uC-CPU\ARM-Cortex-M3\RealView\cpu_a.asm 0x00000000   Number         0  cpu_a.o ABSOLUTE
    ..\..\User\uC-CPU\cpu_core.c             0x00000000   Number         0  cpu_core.o ABSOLUTE
    ..\..\User\uC-LIB\Ports\ARM-Cortex-M3\RealView\lib_mem_a.asm 0x00000000   Number         0  lib_mem_a.o ABSOLUTE
    ..\..\User\uC-LIB\lib_ascii.c            0x00000000   Number         0  lib_ascii.o ABSOLUTE
    ..\..\User\uC-LIB\lib_mem.c              0x00000000   Number         0  lib_mem.o ABSOLUTE
    ..\..\User\uC-LIB\lib_str.c              0x00000000   Number         0  lib_str.o ABSOLUTE
    ..\..\User\uCOS-III\Ports\ARM-Cortex-M3\Generic\RealView\os_cpu_a.s 0x00000000   Number         0  os_cpu_a.o ABSOLUTE
    ..\..\User\uCOS-III\Ports\ARM-Cortex-M3\Generic\RealView\os_cpu_c.c 0x00000000   Number         0  os_cpu_c.o ABSOLUTE
    ..\..\User\uCOS-III\Source\os_cfg_app.c  0x00000000   Number         0  os_cfg_app.o ABSOLUTE
    ..\..\User\uCOS-III\Source\os_core.c     0x00000000   Number         0  os_core.o ABSOLUTE
    ..\..\User\uCOS-III\Source\os_dbg.c      0x00000000   Number         0  os_dbg.o ABSOLUTE
    ..\..\User\uCOS-III\Source\os_flag.c     0x00000000   Number         0  os_flag.o ABSOLUTE
    ..\..\User\uCOS-III\Source\os_int.c      0x00000000   Number         0  os_int.o ABSOLUTE
    ..\..\User\uCOS-III\Source\os_mem.c      0x00000000   Number         0  os_mem.o ABSOLUTE
    ..\..\User\uCOS-III\Source\os_msg.c      0x00000000   Number         0  os_msg.o ABSOLUTE
    ..\..\User\uCOS-III\Source\os_mutex.c    0x00000000   Number         0  os_mutex.o ABSOLUTE
    ..\..\User\uCOS-III\Source\os_prio.c     0x00000000   Number         0  os_prio.o ABSOLUTE
    ..\..\User\uCOS-III\Source\os_q.c        0x00000000   Number         0  os_q.o ABSOLUTE
    ..\..\User\uCOS-III\Source\os_sem.c      0x00000000   Number         0  os_sem.o ABSOLUTE
    ..\..\User\uCOS-III\Source\os_stat.c     0x00000000   Number         0  os_stat.o ABSOLUTE
    ..\..\User\uCOS-III\Source\os_task.c     0x00000000   Number         0  os_task.o ABSOLUTE
    ..\..\User\uCOS-III\Source\os_tick.c     0x00000000   Number         0  os_tick.o ABSOLUTE
    ..\..\User\uCOS-III\Source\os_time.c     0x00000000   Number         0  os_time.o ABSOLUTE
    ..\..\User\uCOS-III\Source\os_tmr.c      0x00000000   Number         0  os_tmr.o ABSOLUTE
    ..\..\User\uCOS-III\Source\os_var.c      0x00000000   Number         0  os_var.o ABSOLUTE
    ..\FW_LIB\startup_stm32f10x_hd.s         0x00000000   Number         0  startup_stm32f10x_hd.o ABSOLUTE
    ..\USER\APP\main.c                       0x00000000   Number         0  main.o ABSOLUTE
    ..\USER\APP\os_app_hooks.c               0x00000000   Number         0  os_app_hooks.o ABSOLUTE
    ..\USER\APP\stm32f10x_it.c               0x00000000   Number         0  stm32f10x_it.o ABSOLUTE
    ..\USER\BSP\Key\bsp_key.c                0x00000000   Number         0  bsp_key.o ABSOLUTE
    ..\USER\BSP\bsp.c                        0x00000000   Number         0  bsp.o ABSOLUTE
    ..\USER\BSP\led\bsp_led.c                0x00000000   Number         0  bsp_led.o ABSOLUTE
    ..\USER\BSP\tftlcd\tftlcd.c              0x00000000   Number         0  tftlcd.o ABSOLUTE
    ..\USER\BSP\usart\bsp_usart1.c           0x00000000   Number         0  bsp_usart1.o ABSOLUTE
    Libraries\CMSIS\CM3\DeviceSupport\ST\STM32F10x\system_stm32f10x.c 0x00000000   Number         0  system_stm32f10x.o ABSOLUTE
    Libraries\STM32F10x_StdPeriph_Driver\src\stm32f10x_fsmc.c 0x00000000   Number         0  stm32f10x_fsmc.o ABSOLUTE
    Libraries\STM32F10x_StdPeriph_Driver\src\stm32f10x_gpio.c 0x00000000   Number         0  stm32f10x_gpio.o ABSOLUTE
    Libraries\STM32F10x_StdPeriph_Driver\src\stm32f10x_rcc.c 0x00000000   Number         0  stm32f10x_rcc.o ABSOLUTE
    Libraries\STM32F10x_StdPeriph_Driver\src\stm32f10x_usart.c 0x00000000   Number         0  stm32f10x_usart.o ABSOLUTE
    cdrcmple.s                               0x00000000   Number         0  cdrcmple.o ABSOLUTE
    dc.s                                     0x00000000   Number         0  dc.o ABSOLUTE
    handlers.s                               0x00000000   Number         0  handlers.o ABSOLUTE
    init.s                                   0x00000000   Number         0  init.o ABSOLUTE
    RESET                                    0x08000000   Section      304  startup_stm32f10x_hd.o(RESET)
    .ARM.Collect$$$$00000000                 0x08000130   Section        0  entry.o(.ARM.Collect$$$$00000000)
    .ARM.Collect$$$$00000001                 0x08000130   Section        4  entry2.o(.ARM.Collect$$$$00000001)
    .ARM.Collect$$$$00000004                 0x08000134   Section        4  entry5.o(.ARM.Collect$$$$00000004)
    .ARM.Collect$$$$00000008                 0x08000138   Section        0  entry7b.o(.ARM.Collect$$$$00000008)
    .ARM.Collect$$$$0000000A                 0x08000138   Section        0  entry8b.o(.ARM.Collect$$$$0000000A)
    .ARM.Collect$$$$0000000B                 0x08000138   Section        8  entry9a.o(.ARM.Collect$$$$0000000B)
    .ARM.Collect$$$$0000000D                 0x08000140   Section        0  entry10a.o(.ARM.Collect$$$$0000000D)
    .ARM.Collect$$$$0000000F                 0x08000140   Section        0  entry11a.o(.ARM.Collect$$$$0000000F)
    .ARM.Collect$$$$00002712                 0x08000140   Section        4  entry2.o(.ARM.Collect$$$$00002712)
    __lit__00000000                          0x08000140   Data           4  entry2.o(.ARM.Collect$$$$00002712)
    .text                                    0x08000144   Section       36  startup_stm32f10x_hd.o(.text)
    .text                                    0x08000168   Section        0  system_stm32f10x.o(.text)
    SetSysClockTo72                          0x08000169   Thumb Code   212  system_stm32f10x.o(.text)
    SetSysClock                              0x0800023d   Thumb Code     8  system_stm32f10x.o(.text)
    .text                                    0x08000344   Section        0  stm32f10x_gpio.o(.text)
    .text                                    0x0800069c   Section        0  stm32f10x_rcc.o(.text)
    .text                                    0x08000a40   Section        0  stm32f10x_fsmc.o(.text)
    .text                                    0x08001058   Section        0  stm32f10x_usart.o(.text)
    .text                                    0x08001460   Section       52  cpu_a.o(.text)
    .text                                    0x08001494   Section       36  init.o(.text)
    .text                                    0x080014b8   Section        0  __dczerorl2.o(.text)
    CODE                                     0x08001510   Section      132  os_cpu_a.o(CODE)
    i.AppTaskLed1                            0x08001594   Section        0  main.o(i.AppTaskLed1)
    AppTaskLed1                              0x08001595   Thumb Code   260  main.o(i.AppTaskLed1)
    i.AppTaskLed2                            0x080016fc   Section        0  main.o(i.AppTaskLed2)
    AppTaskLed2                              0x080016fd   Thumb Code   176  main.o(i.AppTaskLed2)
    i.AppTaskLed3                            0x080017f0   Section        0  main.o(i.AppTaskLed3)
    AppTaskLed3                              0x080017f1   Thumb Code   176  main.o(i.AppTaskLed3)
    i.AppTaskStart                           0x080018e4   Section        0  main.o(i.AppTaskStart)
    AppTaskStart                             0x080018e5   Thumb Code   214  main.o(i.AppTaskStart)
    i.BSP_CPU_ClkFreq                        0x08001a14   Section        0  bsp.o(i.BSP_CPU_ClkFreq)
    i.BSP_Init                               0x08001a24   Section        0  bsp.o(i.BSP_Init)
    i.BusFault_Handler                       0x08001a58   Section        0  stm32f10x_it.o(i.BusFault_Handler)
    i.CPU_Init                               0x08001a5c   Section        0  cpu_core.o(i.CPU_Init)
    i.CPU_IntDisMeasInit                     0x08001a6c   Section        0  cpu_core.o(i.CPU_IntDisMeasInit)
    CPU_IntDisMeasInit                       0x08001a6d   Thumb Code   104  cpu_core.o(i.CPU_IntDisMeasInit)
    i.CPU_IntDisMeasMaxCalc                  0x08001af0   Section        0  cpu_core.o(i.CPU_IntDisMeasMaxCalc)
    CPU_IntDisMeasMaxCalc                    0x08001af1   Thumb Code    24  cpu_core.o(i.CPU_IntDisMeasMaxCalc)
    i.CPU_IntDisMeasMaxCurGet                0x08001b0c   Section        0  cpu_core.o(i.CPU_IntDisMeasMaxCurGet)
    i.CPU_IntDisMeasMaxCurReset              0x08001b38   Section        0  cpu_core.o(i.CPU_IntDisMeasMaxCurReset)
    i.CPU_IntDisMeasMaxGet                   0x08001b64   Section        0  cpu_core.o(i.CPU_IntDisMeasMaxGet)
    i.CPU_IntDisMeasStart                    0x08001b90   Section        0  cpu_core.o(i.CPU_IntDisMeasStart)
    i.CPU_IntDisMeasStop                     0x08001bc4   Section        0  cpu_core.o(i.CPU_IntDisMeasStop)
    i.CPU_NameClr                            0x08001c18   Section        0  cpu_core.o(i.CPU_NameClr)
    i.CPU_NameInit                           0x08001c50   Section        0  cpu_core.o(i.CPU_NameInit)
    CPU_NameInit                             0x08001c51   Thumb Code     8  cpu_core.o(i.CPU_NameInit)
    i.CPU_TS_Init                            0x08001c58   Section        0  cpu_core.o(i.CPU_TS_Init)
    CPU_TS_Init                              0x08001c59   Thumb Code    14  cpu_core.o(i.CPU_TS_Init)
    i.CPU_TS_TmrFreqSet                      0x08001c6c   Section        0  cpu_core.o(i.CPU_TS_TmrFreqSet)
    i.CPU_TS_TmrInit                         0x08001c78   Section        0  bsp.o(i.CPU_TS_TmrInit)
    i.CPU_TS_TmrRd                           0x08001cac   Section        0  bsp.o(i.CPU_TS_TmrRd)
    i.DebugMon_Handler                       0x08001cb8   Section        0  stm32f10x_it.o(i.DebugMon_Handler)
    i.HardFault_Handler                      0x08001cba   Section        0  stm32f10x_it.o(i.HardFault_Handler)
    i.LCD_Clear                              0x08001cc0   Section        0  tftlcd.o(i.LCD_Clear)
    i.LCD_Display_Dir                        0x08001d08   Section        0  tftlcd.o(i.LCD_Display_Dir)
    i.LCD_DrawFRONT_COLOR                    0x08001d54   Section        0  tftlcd.o(i.LCD_DrawFRONT_COLOR)
    i.LCD_Set_Window                         0x08001d70   Section        0  tftlcd.o(i.LCD_Set_Window)
    i.LCD_ShowChar                           0x08001e18   Section        0  tftlcd.o(i.LCD_ShowChar)
    i.LCD_ShowFontHZ                         0x08001f40   Section        0  tftlcd.o(i.LCD_ShowFontHZ)
    i.LCD_ShowString                         0x08002028   Section        0  tftlcd.o(i.LCD_ShowString)
    i.LCD_WriteCmd                           0x08002090   Section        0  tftlcd.o(i.LCD_WriteCmd)
    i.LCD_WriteData                          0x0800209c   Section        0  tftlcd.o(i.LCD_WriteData)
    i.LCD_WriteData_Color                    0x080020a8   Section        0  tftlcd.o(i.LCD_WriteData_Color)
    i.LED_GPIO_Config                        0x080020b4   Section        0  bsp_led.o(i.LED_GPIO_Config)
    LED_GPIO_Config                          0x080020b5   Thumb Code    82  bsp_led.o(i.LED_GPIO_Config)
    i.LED_Init                               0x0800210c   Section        0  bsp_led.o(i.LED_Init)
    i.MemManage_Handler                      0x08002130   Section        0  stm32f10x_it.o(i.MemManage_Handler)
    i.Mem_Clr                                0x08002134   Section        0  lib_mem.o(i.Mem_Clr)
    i.Mem_Init                               0x08002148   Section        0  lib_mem.o(i.Mem_Init)
    i.Mem_Set                                0x08002190   Section        0  lib_mem.o(i.Mem_Set)
    i.NMI_Handler                            0x080021f2   Section        0  stm32f10x_it.o(i.NMI_Handler)
    i.OSCfg_Init                             0x080021f4   Section        0  os_cfg_app.o(i.OSCfg_Init)
    i.OSIdleTaskHook                         0x080021f8   Section        0  os_cpu_c.o(i.OSIdleTaskHook)
    i.OSInit                                 0x0800220c   Section        0  os_core.o(i.OSInit)
    i.OSInitHook                             0x08002398   Section        0  os_cpu_c.o(i.OSInitHook)
    i.OSIntExit                              0x080023d0   Section        0  os_core.o(i.OSIntExit)
    i.OSSched                                0x080024b4   Section        0  os_core.o(i.OSSched)
    i.OSSchedLock                            0x0800255c   Section        0  os_core.o(i.OSSchedLock)
    i.OSSchedRoundRobinCfg                   0x080025d8   Section        0  os_core.o(i.OSSchedRoundRobinCfg)
    i.OSSchedUnlock                          0x08002644   Section        0  os_core.o(i.OSSchedUnlock)
    i.OSStart                                0x080026e4   Section        0  os_core.o(i.OSStart)
    i.OSStatReset                            0x0800274c   Section        0  os_stat.o(i.OSStatReset)
    i.OSStatTaskCPUUsageInit                 0x080028b4   Section        0  os_stat.o(i.OSStatTaskCPUUsageInit)
    i.OSStatTaskHook                         0x080029b4   Section        0  os_cpu_c.o(i.OSStatTaskHook)
    i.OSTaskCreate                           0x080029c8   Section        0  os_task.o(i.OSTaskCreate)
    i.OSTaskCreateHook                       0x08002c5c   Section        0  os_cpu_c.o(i.OSTaskCreateHook)
    i.OSTaskDel                              0x08002c74   Section        0  os_task.o(i.OSTaskDel)
    i.OSTaskDelHook                          0x08002e7c   Section        0  os_cpu_c.o(i.OSTaskDelHook)
    i.OSTaskRegGet                           0x08002e94   Section        0  os_task.o(i.OSTaskRegGet)
    i.OSTaskRegSet                           0x08002ef0   Section        0  os_task.o(i.OSTaskRegSet)
    i.OSTaskResume                           0x08002f4c   Section        0  os_task.o(i.OSTaskResume)
    i.OSTaskReturnHook                       0x08002fd4   Section        0  os_cpu_c.o(i.OSTaskReturnHook)
    i.OSTaskSemPend                          0x08002fec   Section        0  os_task.o(i.OSTaskSemPend)
    i.OSTaskStkChk                           0x0800323c   Section        0  os_task.o(i.OSTaskStkChk)
    i.OSTaskStkInit                          0x08003320   Section        0  os_cpu_c.o(i.OSTaskStkInit)
    i.OSTaskSuspend                          0x080033e0   Section        0  os_task.o(i.OSTaskSuspend)
    i.OSTaskSwHook                           0x08003440   Section        0  os_cpu_c.o(i.OSTaskSwHook)
    i.OSTimeDly                              0x080034e4   Section        0  os_time.o(i.OSTimeDly)
    i.OSTimeTick                             0x08003634   Section        0  os_time.o(i.OSTimeTick)
    i.OSTimeTickHook                         0x08003678   Section        0  os_cpu_c.o(i.OSTimeTickHook)
    i.OS_CPU_SysTickHandler                  0x0800368c   Section        0  os_cpu_c.o(i.OS_CPU_SysTickHandler)
    i.OS_CPU_SysTickInit                     0x080036cc   Section        0  os_cpu_c.o(i.OS_CPU_SysTickInit)
    i.OS_Dbg_Init                            0x080036fc   Section        0  os_dbg.o(i.OS_Dbg_Init)
    i.OS_FlagInit                            0x080038b0   Section        0  os_flag.o(i.OS_FlagInit)
    i.OS_FlagPost                            0x080038c8   Section        0  os_flag.o(i.OS_FlagPost)
    i.OS_FlagTaskRdy                         0x08003b44   Section        0  os_flag.o(i.OS_FlagTaskRdy)
    i.OS_IdleTask                            0x08003b9c   Section        0  os_core.o(i.OS_IdleTask)
    i.OS_IdleTaskInit                        0x08003be8   Section        0  os_core.o(i.OS_IdleTaskInit)
    i.OS_IntQPost                            0x08003c58   Section        0  os_int.o(i.OS_IntQPost)
    i.OS_IntQRePost                          0x08003d5c   Section        0  os_int.o(i.OS_IntQRePost)
    i.OS_IntQTask                            0x08003f00   Section        0  os_int.o(i.OS_IntQTask)
    i.OS_IntQTaskInit                        0x08003fc8   Section        0  os_int.o(i.OS_IntQTaskInit)
    i.OS_MemInit                             0x080040f0   Section        0  os_mem.o(i.OS_MemInit)
    i.OS_MsgPoolInit                         0x08004108   Section        0  os_msg.o(i.OS_MsgPoolInit)
    i.OS_MsgQFreeAll                         0x08004184   Section        0  os_msg.o(i.OS_MsgQFreeAll)
    i.OS_MsgQInit                            0x080041c8   Section        0  os_msg.o(i.OS_MsgQInit)
    i.OS_MsgQPut                             0x080041d8   Section        0  os_msg.o(i.OS_MsgQPut)
    i.OS_MutexInit                           0x080042dc   Section        0  os_mutex.o(i.OS_MutexInit)
    i.OS_Pend                                0x080042f4   Section        0  os_core.o(i.OS_Pend)
    i.OS_PendDataInit                        0x0800435c   Section        0  os_core.o(i.OS_PendDataInit)
    i.OS_PendDbgNameAdd                      0x08004384   Section        0  os_core.o(i.OS_PendDbgNameAdd)
    i.OS_PendDbgNameRemove                   0x080043e0   Section        0  os_core.o(i.OS_PendDbgNameRemove)
    i.OS_PendListInsertPrio                  0x08004404   Section        0  os_core.o(i.OS_PendListInsertPrio)
    i.OS_PendListRemove                      0x0800446a   Section        0  os_core.o(i.OS_PendListRemove)
    i.OS_PendListRemove1                     0x0800449a   Section        0  os_core.o(i.OS_PendListRemove1)
    i.OS_Post                                0x080044dc   Section        0  os_core.o(i.OS_Post)
    i.OS_Post1                               0x0800459c   Section        0  os_core.o(i.OS_Post1)
    i.OS_PrioGetHighest                      0x080045c8   Section        0  os_prio.o(i.OS_PrioGetHighest)
    i.OS_PrioInit                            0x080045f0   Section        0  os_prio.o(i.OS_PrioInit)
    i.OS_PrioInsert                          0x08004608   Section        0  os_prio.o(i.OS_PrioInsert)
    i.OS_PrioRemove                          0x0800462c   Section        0  os_prio.o(i.OS_PrioRemove)
    i.OS_QInit                               0x08004650   Section        0  os_q.o(i.OS_QInit)
    i.OS_QPost                               0x08004668   Section        0  os_q.o(i.OS_QPost)
    i.OS_RdyListInit                         0x080047f0   Section        0  os_core.o(i.OS_RdyListInit)
    i.OS_RdyListInsert                       0x08004814   Section        0  os_core.o(i.OS_RdyListInsert)
    i.OS_RdyListInsertHead                   0x08004840   Section        0  os_core.o(i.OS_RdyListInsertHead)
    i.OS_RdyListInsertTail                   0x08004880   Section        0  os_core.o(i.OS_RdyListInsertTail)
    i.OS_RdyListMoveHeadToTail               0x080048bc   Section        0  os_core.o(i.OS_RdyListMoveHeadToTail)
    i.OS_RdyListRemove                       0x08004900   Section        0  os_core.o(i.OS_RdyListRemove)
    i.OS_Sched0                              0x0800495c   Section        0  os_core.o(i.OS_Sched0)
    i.OS_SchedLockTimeMeasStart              0x080049b8   Section        0  os_core.o(i.OS_SchedLockTimeMeasStart)
    i.OS_SchedLockTimeMeasStop               0x080049d4   Section        0  os_core.o(i.OS_SchedLockTimeMeasStop)
    i.OS_SchedRoundRobin                     0x08004a10   Section        0  os_core.o(i.OS_SchedRoundRobin)
    i.OS_SemInit                             0x08004afc   Section        0  os_sem.o(i.OS_SemInit)
    i.OS_SemPost                             0x08004b14   Section        0  os_sem.o(i.OS_SemPost)
    i.OS_StatTask                            0x08004cac   Section        0  os_stat.o(i.OS_StatTask)
    i.OS_StatTaskInit                        0x08005064   Section        0  os_stat.o(i.OS_StatTaskInit)
    i.OS_TaskBlock                           0x08005130   Section        0  os_core.o(i.OS_TaskBlock)
    i.OS_TaskDbgListAdd                      0x08005168   Section        0  os_task.o(i.OS_TaskDbgListAdd)
    i.OS_TaskDbgListRemove                   0x08005198   Section        0  os_task.o(i.OS_TaskDbgListRemove)
    i.OS_TaskInit                            0x080051dc   Section        0  os_task.o(i.OS_TaskInit)
    i.OS_TaskInitTCB                         0x080051fc   Section        0  os_task.o(i.OS_TaskInitTCB)
    i.OS_TaskQPost                           0x080052cc   Section        0  os_task.o(i.OS_TaskQPost)
    i.OS_TaskRdy                             0x08005538   Section        0  os_core.o(i.OS_TaskRdy)
    i.OS_TaskResume                          0x08005554   Section        0  os_task.o(i.OS_TaskResume)
    i.OS_TaskReturn                          0x080056d0   Section        0  os_task.o(i.OS_TaskReturn)
    i.OS_TaskSemPost                         0x080056e8   Section        0  os_task.o(i.OS_TaskSemPost)
    i.OS_TaskSuspend                         0x08005c90   Section        0  os_task.o(i.OS_TaskSuspend)
    i.OS_TickListInit                        0x08005e20   Section        0  os_tick.o(i.OS_TickListInit)
    i.OS_TickListInsert                      0x08005e48   Section        0  os_tick.o(i.OS_TickListInsert)
    i.OS_TickListRemove                      0x08006004   Section        0  os_tick.o(i.OS_TickListRemove)
    i.OS_TickListResetPeak                   0x0800603c   Section        0  os_tick.o(i.OS_TickListResetPeak)
    i.OS_TickListUpdate                      0x08006060   Section        0  os_tick.o(i.OS_TickListUpdate)
    i.OS_TickTask                            0x08006280   Section        0  os_tick.o(i.OS_TickTask)
    i.OS_TickTaskInit                        0x080062ac   Section        0  os_tick.o(i.OS_TickTaskInit)
    i.OS_TmrInit                             0x08006364   Section        0  os_tmr.o(i.OS_TmrInit)
    i.OS_TmrLink                             0x0800648c   Section        0  os_tmr.o(i.OS_TmrLink)
    i.OS_TmrResetPeak                        0x0800655c   Section        0  os_tmr.o(i.OS_TmrResetPeak)
    i.OS_TmrTask                             0x08006580   Section        0  os_tmr.o(i.OS_TmrTask)
    i.OS_TmrUnlink                           0x08006640   Section        0  os_tmr.o(i.OS_TmrUnlink)
    i.SVC_Handler                            0x08006690   Section        0  stm32f10x_it.o(i.SVC_Handler)
    i.TFTLCD_FSMC_Init                       0x08006692   Section        0  tftlcd.o(i.TFTLCD_FSMC_Init)
    i.TFTLCD_GPIO_Init                       0x08006710   Section        0  tftlcd.o(i.TFTLCD_GPIO_Init)
    i.TFTLCD_Init                            0x08006780   Section        0  tftlcd.o(i.TFTLCD_Init)
    i.USARTx_Config                          0x080069cc   Section        0  bsp_usart1.o(i.USARTx_Config)
    i.UsageFault_Handler                     0x08006a4c   Section        0  stm32f10x_it.o(i.UsageFault_Handler)
    i.__0printf$bare                         0x08006a50   Section        0  printfb.o(i.__0printf$bare)
    i.__scatterload_copy                     0x08006a60   Section       14  handlers.o(i.__scatterload_copy)
    i.__scatterload_null                     0x08006a6e   Section        2  handlers.o(i.__scatterload_null)
    i.__scatterload_zeroinit                 0x08006a70   Section       14  handlers.o(i.__scatterload_zeroinit)
    i._printf_core                           0x08006a7e   Section        0  printfb.o(i._printf_core)
    _printf_core                             0x08006a7f   Thumb Code    34  printfb.o(i._printf_core)
    i.delay_ms                               0x08006aa0   Section        0  tftlcd.o(i.delay_ms)
    i.fputc                                  0x08006abc   Section        0  bsp_usart1.o(i.fputc)
    i.main                                   0x08006ae0   Section        0  main.o(i.main)
    .constdata                               0x08006b40   Section     7142  tftlcd.o(.constdata)
    .constdata                               0x08008728   Section      164  os_cfg_app.o(.constdata)
    .constdata                               0x080087cc   Section      364  os_dbg.o(.constdata)
    .data                                    0x20000000   Section        4  main.o(.data)
    .data                                    0x20000004   Section       12  tftlcd.o(.data)
    .data                                    0x20000010   Section       20  system_stm32f10x.o(.data)
    .data                                    0x20000024   Section       20  stm32f10x_rcc.o(.data)
    APBAHBPrescTable                         0x20000024   Data          16  stm32f10x_rcc.o(.data)
    ADCPrescTable                            0x20000034   Data           4  stm32f10x_rcc.o(.data)
    .data                                    0x20000038   Section       28  cpu_core.o(.data)
    .data                                    0x20000054   Section        4  lib_mem.o(.data)
    .data                                    0x20000058   Section      208  os_var.o(.data)
    .data                                    0x20000128   Section        4  os_cpu_c.o(.data)
    .data                                    0x2000012c   Section        4  os_prio.o(.data)
    .data                                    0x20000130   Section        4  stdout.o(.data)
    .bss                                     0x20000134   Section     7456  main.o(.bss)
    AppTaskStartStk                          0x20000134   Data         512  main.o(.bss)
    AppTaskStartTCB                          0x20000334   Data         200  main.o(.bss)
    AppTaskLed1Stk                           0x200003fc   Data        2048  main.o(.bss)
    AppTaskLed1TCB                           0x20000bfc   Data         200  main.o(.bss)
    AppTaskLed2Stk                           0x20000cc4   Data        2048  main.o(.bss)
    AppTaskLed2TCB                           0x200014c4   Data         200  main.o(.bss)
    AppTaskLed3Stk                           0x2000158c   Data        2048  main.o(.bss)
    AppTaskLed3TCB                           0x20001d8c   Data         200  main.o(.bss)
    .bss                                     0x20001e54   Section       16  cpu_core.o(.bss)
    .bss                                     0x20001e64   Section    27720  lib_mem.o(.bss)
    .bss                                     0x20008aac   Section     5264  os_cfg_app.o(.bss)
    .bss                                     0x20009f3c   Section     1396  os_var.o(.bss)
    STACK                                    0x2000a4b0   Section     1024  startup_stm32f10x_hd.o(STACK)

    Global Symbols

    Symbol Name                              Value     Ov Type        Size  Object(Section)

    BuildAttributes$$THM_ISAv4$P$D$K$B$S$PE$A:L22UL41UL21$X:L11$S22US41US21$IEEE1$IW$USESV6$~STKCKD$USESV7$~SHL$OSPACE$ROPI$EBA8$MICROLIB$REQ8$PRES8$EABIv2 0x00000000   Number         0  anon$$obj.o ABSOLUTE
    __ARM_use_no_argv                        0x00000000   Number         0  main.o ABSOLUTE
    __cpp_initialize__aeabi_                  - Undefined Weak Reference
    __cxa_finalize                            - Undefined Weak Reference
    _clock_init                               - Undefined Weak Reference
    _microlib_exit                            - Undefined Weak Reference
    __Vectors_Size                           0x00000130   Number         0  startup_stm32f10x_hd.o ABSOLUTE
    __Vectors                                0x08000000   Data           4  startup_stm32f10x_hd.o(RESET)
    __Vectors_End                            0x08000130   Data           0  startup_stm32f10x_hd.o(RESET)
    __main                                   0x08000131   Thumb Code     0  entry.o(.ARM.Collect$$$$00000000)
    _main_stk                                0x08000131   Thumb Code     0  entry2.o(.ARM.Collect$$$$00000001)
    _main_scatterload                        0x08000135   Thumb Code     0  entry5.o(.ARM.Collect$$$$00000004)
    __main_after_scatterload                 0x08000139   Thumb Code     0  entry5.o(.ARM.Collect$$$$00000004)
    _main_clock                              0x08000139   Thumb Code     0  entry7b.o(.ARM.Collect$$$$00000008)
    _main_cpp_init                           0x08000139   Thumb Code     0  entry8b.o(.ARM.Collect$$$$0000000A)
    _main_init                               0x08000139   Thumb Code     0  entry9a.o(.ARM.Collect$$$$0000000B)
    __rt_final_cpp                           0x08000141   Thumb Code     0  entry10a.o(.ARM.Collect$$$$0000000D)
    __rt_final_exit                          0x08000141   Thumb Code     0  entry11a.o(.ARM.Collect$$$$0000000F)
    Reset_Handler                            0x08000145   Thumb Code     8  startup_stm32f10x_hd.o(.text)
    ADC1_2_IRQHandler                        0x0800015f   Thumb Code     0  startup_stm32f10x_hd.o(.text)
    ADC3_IRQHandler                          0x0800015f   Thumb Code     0  startup_stm32f10x_hd.o(.text)
    CAN1_RX1_IRQHandler                      0x0800015f   Thumb Code     0  startup_stm32f10x_hd.o(.text)
    CAN1_SCE_IRQHandler                      0x0800015f   Thumb Code     0  startup_stm32f10x_hd.o(.text)
    DMA1_Channel1_IRQHandler                 0x0800015f   Thumb Code     0  startup_stm32f10x_hd.o(.text)
    DMA1_Channel2_IRQHandler                 0x0800015f   Thumb Code     0  startup_stm32f10x_hd.o(.text)
    DMA1_Channel3_IRQHandler                 0x0800015f   Thumb Code     0  startup_stm32f10x_hd.o(.text)
    DMA1_Channel4_IRQHandler                 0x0800015f   Thumb Code     0  startup_stm32f10x_hd.o(.text)
    DMA1_Channel5_IRQHandler                 0x0800015f   Thumb Code     0  startup_stm32f10x_hd.o(.text)
    DMA1_Channel6_IRQHandler                 0x0800015f   Thumb Code     0  startup_stm32f10x_hd.o(.text)
    DMA1_Channel7_IRQHandler                 0x0800015f   Thumb Code     0  startup_stm32f10x_hd.o(.text)
    DMA2_Channel1_IRQHandler                 0x0800015f   Thumb Code     0  startup_stm32f10x_hd.o(.text)
    DMA2_Channel2_IRQHandler                 0x0800015f   Thumb Code     0  startup_stm32f10x_hd.o(.text)
    DMA2_Channel3_IRQHandler                 0x0800015f   Thumb Code     0  startup_stm32f10x_hd.o(.text)
    DMA2_Channel4_5_IRQHandler               0x0800015f   Thumb Code     0  startup_stm32f10x_hd.o(.text)
    EXTI0_IRQHandler                         0x0800015f   Thumb Code     0  startup_stm32f10x_hd.o(.text)
    EXTI15_10_IRQHandler                     0x0800015f   Thumb Code     0  startup_stm32f10x_hd.o(.text)
    EXTI1_IRQHandler                         0x0800015f   Thumb Code     0  startup_stm32f10x_hd.o(.text)
    EXTI2_IRQHandler                         0x0800015f   Thumb Code     0  startup_stm32f10x_hd.o(.text)
    EXTI3_IRQHandler                         0x0800015f   Thumb Code     0  startup_stm32f10x_hd.o(.text)
    EXTI4_IRQHandler                         0x0800015f   Thumb Code     0  startup_stm32f10x_hd.o(.text)
    EXTI9_5_IRQHandler                       0x0800015f   Thumb Code     0  startup_stm32f10x_hd.o(.text)
    FLASH_IRQHandler                         0x0800015f   Thumb Code     0  startup_stm32f10x_hd.o(.text)
    FSMC_IRQHandler                          0x0800015f   Thumb Code     0  startup_stm32f10x_hd.o(.text)
    I2C1_ER_IRQHandler                       0x0800015f   Thumb Code     0  startup_stm32f10x_hd.o(.text)
    I2C1_EV_IRQHandler                       0x0800015f   Thumb Code     0  startup_stm32f10x_hd.o(.text)
    I2C2_ER_IRQHandler                       0x0800015f   Thumb Code     0  startup_stm32f10x_hd.o(.text)
    I2C2_EV_IRQHandler                       0x0800015f   Thumb Code     0  startup_stm32f10x_hd.o(.text)
    PVD_IRQHandler                           0x0800015f   Thumb Code     0  startup_stm32f10x_hd.o(.text)
    RCC_IRQHandler                           0x0800015f   Thumb Code     0  startup_stm32f10x_hd.o(.text)
    RTCAlarm_IRQHandler                      0x0800015f   Thumb Code     0  startup_stm32f10x_hd.o(.text)
    RTC_IRQHandler                           0x0800015f   Thumb Code     0  startup_stm32f10x_hd.o(.text)
    SDIO_IRQHandler                          0x0800015f   Thumb Code     0  startup_stm32f10x_hd.o(.text)
    SPI1_IRQHandler                          0x0800015f   Thumb Code     0  startup_stm32f10x_hd.o(.text)
    SPI2_IRQHandler                          0x0800015f   Thumb Code     0  startup_stm32f10x_hd.o(.text)
    SPI3_IRQHandler                          0x0800015f   Thumb Code     0  startup_stm32f10x_hd.o(.text)
    TAMPER_IRQHandler                        0x0800015f   Thumb Code     0  startup_stm32f10x_hd.o(.text)
    TIM1_BRK_IRQHandler                      0x0800015f   Thumb Code     0  startup_stm32f10x_hd.o(.text)
    TIM1_CC_IRQHandler                       0x0800015f   Thumb Code     0  startup_stm32f10x_hd.o(.text)
    TIM1_TRG_COM_IRQHandler                  0x0800015f   Thumb Code     0  startup_stm32f10x_hd.o(.text)
    TIM1_UP_IRQHandler                       0x0800015f   Thumb Code     0  startup_stm32f10x_hd.o(.text)
    TIM2_IRQHandler                          0x0800015f   Thumb Code     0  startup_stm32f10x_hd.o(.text)
    TIM3_IRQHandler                          0x0800015f   Thumb Code     0  startup_stm32f10x_hd.o(.text)
    TIM4_IRQHandler                          0x0800015f   Thumb Code     0  startup_stm32f10x_hd.o(.text)
    TIM5_IRQHandler                          0x0800015f   Thumb Code     0  startup_stm32f10x_hd.o(.text)
    TIM6_IRQHandler                          0x0800015f   Thumb Code     0  startup_stm32f10x_hd.o(.text)
    TIM7_IRQHandler                          0x0800015f   Thumb Code     0  startup_stm32f10x_hd.o(.text)
    TIM8_BRK_IRQHandler                      0x0800015f   Thumb Code     0  startup_stm32f10x_hd.o(.text)
    TIM8_CC_IRQHandler                       0x0800015f   Thumb Code     0  startup_stm32f10x_hd.o(.text)
    TIM8_TRG_COM_IRQHandler                  0x0800015f   Thumb Code     0  startup_stm32f10x_hd.o(.text)
    TIM8_UP_IRQHandler                       0x0800015f   Thumb Code     0  startup_stm32f10x_hd.o(.text)
    UART4_IRQHandler                         0x0800015f   Thumb Code     0  startup_stm32f10x_hd.o(.text)
    UART5_IRQHandler                         0x0800015f   Thumb Code     0  startup_stm32f10x_hd.o(.text)
    USART1_IRQHandler                        0x0800015f   Thumb Code     0  startup_stm32f10x_hd.o(.text)
    USART2_IRQHandler                        0x0800015f   Thumb Code     0  startup_stm32f10x_hd.o(.text)
    USART3_IRQHandler                        0x0800015f   Thumb Code     0  startup_stm32f10x_hd.o(.text)
    USBWakeUp_IRQHandler                     0x0800015f   Thumb Code     0  startup_stm32f10x_hd.o(.text)
    USB_HP_CAN1_TX_IRQHandler                0x0800015f   Thumb Code     0  startup_stm32f10x_hd.o(.text)
    USB_LP_CAN1_RX0_IRQHandler               0x0800015f   Thumb Code     0  startup_stm32f10x_hd.o(.text)
    WWDG_IRQHandler                          0x0800015f   Thumb Code     0  startup_stm32f10x_hd.o(.text)
    SystemInit                               0x08000245   Thumb Code    78  system_stm32f10x.o(.text)
    SystemCoreClockUpdate                    0x08000293   Thumb Code   142  system_stm32f10x.o(.text)
    GPIO_DeInit                              0x08000345   Thumb Code   172  stm32f10x_gpio.o(.text)
    GPIO_AFIODeInit                          0x080003f1   Thumb Code    20  stm32f10x_gpio.o(.text)
    GPIO_Init                                0x08000405   Thumb Code   274  stm32f10x_gpio.o(.text)
    GPIO_StructInit                          0x08000517   Thumb Code    16  stm32f10x_gpio.o(.text)
    GPIO_ReadInputDataBit                    0x08000527   Thumb Code    18  stm32f10x_gpio.o(.text)
    GPIO_ReadInputData                       0x08000539   Thumb Code     8  stm32f10x_gpio.o(.text)
    GPIO_ReadOutputDataBit                   0x08000541   Thumb Code    18  stm32f10x_gpio.o(.text)
    GPIO_ReadOutputData                      0x08000553   Thumb Code     8  stm32f10x_gpio.o(.text)
    GPIO_SetBits                             0x0800055b   Thumb Code     4  stm32f10x_gpio.o(.text)
    GPIO_ResetBits                           0x0800055f   Thumb Code     4  stm32f10x_gpio.o(.text)
    GPIO_WriteBit                            0x08000563   Thumb Code    10  stm32f10x_gpio.o(.text)
    GPIO_Write                               0x0800056d   Thumb Code     4  stm32f10x_gpio.o(.text)
    GPIO_PinLockConfig                       0x08000571   Thumb Code    18  stm32f10x_gpio.o(.text)
    GPIO_EventOutputConfig                   0x08000583   Thumb Code    26  stm32f10x_gpio.o(.text)
    GPIO_EventOutputCmd                      0x0800059d   Thumb Code     6  stm32f10x_gpio.o(.text)
    GPIO_PinRemapConfig                      0x080005a3   Thumb Code   138  stm32f10x_gpio.o(.text)
    GPIO_EXTILineConfig                      0x0800062d   Thumb Code    66  stm32f10x_gpio.o(.text)
    GPIO_ETH_MediaInterfaceConfig            0x0800066f   Thumb Code     6  stm32f10x_gpio.o(.text)
    RCC_DeInit                               0x0800069d   Thumb Code    64  stm32f10x_rcc.o(.text)
    RCC_HSEConfig                            0x080006dd   Thumb Code    70  stm32f10x_rcc.o(.text)
    RCC_GetFlagStatus                        0x08000723   Thumb Code    56  stm32f10x_rcc.o(.text)
    RCC_WaitForHSEStartUp                    0x0800075b   Thumb Code    56  stm32f10x_rcc.o(.text)
    RCC_AdjustHSICalibrationValue            0x08000793   Thumb Code    20  stm32f10x_rcc.o(.text)
    RCC_HSICmd                               0x080007a7   Thumb Code     6  stm32f10x_rcc.o(.text)
    RCC_PLLConfig                            0x080007ad   Thumb Code    24  stm32f10x_rcc.o(.text)
    RCC_PLLCmd                               0x080007c5   Thumb Code     6  stm32f10x_rcc.o(.text)
    RCC_SYSCLKConfig                         0x080007cb   Thumb Code    18  stm32f10x_rcc.o(.text)
    RCC_GetSYSCLKSource                      0x080007dd   Thumb Code    10  stm32f10x_rcc.o(.text)
    RCC_HCLKConfig                           0x080007e7   Thumb Code    18  stm32f10x_rcc.o(.text)
    RCC_PCLK1Config                          0x080007f9   Thumb Code    18  stm32f10x_rcc.o(.text)
    RCC_PCLK2Config                          0x0800080b   Thumb Code    20  stm32f10x_rcc.o(.text)
    RCC_ITConfig                             0x0800081f   Thumb Code    26  stm32f10x_rcc.o(.text)
    RCC_USBCLKConfig                         0x08000839   Thumb Code     6  stm32f10x_rcc.o(.text)
    RCC_ADCCLKConfig                         0x0800083f   Thumb Code    18  stm32f10x_rcc.o(.text)
    RCC_LSEConfig                            0x08000851   Thumb Code    44  stm32f10x_rcc.o(.text)
    RCC_LSICmd                               0x0800087d   Thumb Code     6  stm32f10x_rcc.o(.text)
    RCC_RTCCLKConfig                         0x08000883   Thumb Code    12  stm32f10x_rcc.o(.text)
    RCC_RTCCLKCmd                            0x0800088f   Thumb Code     8  stm32f10x_rcc.o(.text)
    RCC_GetClocksFreq                        0x08000897   Thumb Code   192  stm32f10x_rcc.o(.text)
    RCC_AHBPeriphClockCmd                    0x08000957   Thumb Code    26  stm32f10x_rcc.o(.text)
    RCC_APB2PeriphClockCmd                   0x08000971   Thumb Code    26  stm32f10x_rcc.o(.text)
    RCC_APB1PeriphClockCmd                   0x0800098b   Thumb Code    26  stm32f10x_rcc.o(.text)
    RCC_APB2PeriphResetCmd                   0x080009a5   Thumb Code    26  stm32f10x_rcc.o(.text)
    RCC_APB1PeriphResetCmd                   0x080009bf   Thumb Code    26  stm32f10x_rcc.o(.text)
    RCC_BackupResetCmd                       0x080009d9   Thumb Code     8  stm32f10x_rcc.o(.text)
    RCC_ClockSecuritySystemCmd               0x080009e1   Thumb Code     6  stm32f10x_rcc.o(.text)
    RCC_MCOConfig                            0x080009e7   Thumb Code     6  stm32f10x_rcc.o(.text)
    RCC_ClearFlag                            0x080009ed   Thumb Code    14  stm32f10x_rcc.o(.text)
    RCC_GetITStatus                          0x080009fb   Thumb Code    20  stm32f10x_rcc.o(.text)
    RCC_ClearITPendingBit                    0x08000a0f   Thumb Code     6  stm32f10x_rcc.o(.text)
    FSMC_NORSRAMDeInit                       0x08000a41   Thumb Code    56  stm32f10x_fsmc.o(.text)
    FSMC_NANDDeInit                          0x08000a79   Thumb Code    62  stm32f10x_fsmc.o(.text)
    FSMC_PCCARDDeInit                        0x08000ab7   Thumb Code    40  stm32f10x_fsmc.o(.text)
    FSMC_NORSRAMInit                         0x08000adf   Thumb Code   224  stm32f10x_fsmc.o(.text)
    FSMC_NANDInit                            0x08000bbf   Thumb Code   130  stm32f10x_fsmc.o(.text)
    FSMC_PCCARDInit                          0x08000c41   Thumb Code   124  stm32f10x_fsmc.o(.text)
    FSMC_NORSRAMStructInit                   0x08000cbd   Thumb Code   114  stm32f10x_fsmc.o(.text)
    FSMC_NANDStructInit                      0x08000d2f   Thumb Code    54  stm32f10x_fsmc.o(.text)
    FSMC_PCCARDStructInit                    0x08000d65   Thumb Code    60  stm32f10x_fsmc.o(.text)
    FSMC_NORSRAMCmd                          0x08000da1   Thumb Code    46  stm32f10x_fsmc.o(.text)
    FSMC_NANDCmd                             0x08000dcf   Thumb Code    86  stm32f10x_fsmc.o(.text)
    FSMC_PCCARDCmd                           0x08000e25   Thumb Code    40  stm32f10x_fsmc.o(.text)
    FSMC_NANDECCCmd                          0x08000e4d   Thumb Code   118  stm32f10x_fsmc.o(.text)
    FSMC_GetECC                              0x08000ec3   Thumb Code    22  stm32f10x_fsmc.o(.text)
    FSMC_ITConfig                            0x08000ed9   Thumb Code   128  stm32f10x_fsmc.o(.text)
    FSMC_GetFlagStatus                       0x08000f59   Thumb Code    48  stm32f10x_fsmc.o(.text)
    FSMC_ClearFlag                           0x08000f89   Thumb Code    62  stm32f10x_fsmc.o(.text)
    FSMC_GetITStatus                         0x08000fc7   Thumb Code    60  stm32f10x_fsmc.o(.text)
    FSMC_ClearITPendingBit                   0x08001003   Thumb Code    64  stm32f10x_fsmc.o(.text)
    USART_DeInit                             0x08001059   Thumb Code   134  stm32f10x_usart.o(.text)
    USART_Init                               0x080010df   Thumb Code   210  stm32f10x_usart.o(.text)
    USART_StructInit                         0x080011b1   Thumb Code    24  stm32f10x_usart.o(.text)
    USART_ClockInit                          0x080011c9   Thumb Code    34  stm32f10x_usart.o(.text)
    USART_ClockStructInit                    0x080011eb   Thumb Code    12  stm32f10x_usart.o(.text)
    USART_Cmd                                0x080011f7   Thumb Code    24  stm32f10x_usart.o(.text)
    USART_ITConfig                           0x0800120f   Thumb Code    74  stm32f10x_usart.o(.text)
    USART_DMACmd                             0x08001259   Thumb Code    18  stm32f10x_usart.o(.text)
    USART_SetAddress                         0x0800126b   Thumb Code    18  stm32f10x_usart.o(.text)
    USART_WakeUpConfig                       0x0800127d   Thumb Code    18  stm32f10x_usart.o(.text)
    USART_ReceiverWakeUpCmd                  0x0800128f   Thumb Code    24  stm32f10x_usart.o(.text)
    USART_LINBreakDetectLengthConfig         0x080012a7   Thumb Code    18  stm32f10x_usart.o(.text)
    USART_LINCmd                             0x080012b9   Thumb Code    24  stm32f10x_usart.o(.text)
    USART_SendData                           0x080012d1   Thumb Code     8  stm32f10x_usart.o(.text)
    USART_ReceiveData                        0x080012d9   Thumb Code    10  stm32f10x_usart.o(.text)
    USART_SendBreak                          0x080012e3   Thumb Code    10  stm32f10x_usart.o(.text)
    USART_SetGuardTime                       0x080012ed   Thumb Code    16  stm32f10x_usart.o(.text)
    USART_SetPrescaler                       0x080012fd   Thumb Code    16  stm32f10x_usart.o(.text)
    USART_SmartCardCmd                       0x0800130d   Thumb Code    24  stm32f10x_usart.o(.text)
    USART_SmartCardNACKCmd                   0x08001325   Thumb Code    24  stm32f10x_usart.o(.text)
    USART_HalfDuplexCmd                      0x0800133d   Thumb Code    24  stm32f10x_usart.o(.text)
    USART_OverSampling8Cmd                   0x08001355   Thumb Code    22  stm32f10x_usart.o(.text)
    USART_OneBitMethodCmd                    0x0800136b   Thumb Code    24  stm32f10x_usart.o(.text)
    USART_IrDAConfig                         0x08001383   Thumb Code    18  stm32f10x_usart.o(.text)
    USART_IrDACmd                            0x08001395   Thumb Code    24  stm32f10x_usart.o(.text)
    USART_GetFlagStatus                      0x080013ad   Thumb Code    26  stm32f10x_usart.o(.text)
    USART_ClearFlag                          0x080013c7   Thumb Code    18  stm32f10x_usart.o(.text)
    USART_GetITStatus                        0x080013d9   Thumb Code    84  stm32f10x_usart.o(.text)
    USART_ClearITPendingBit                  0x0800142d   Thumb Code    52  stm32f10x_usart.o(.text)
    CPU_IntDis                               0x08001461   Thumb Code     0  cpu_a.o(.text)
    CPU_IntEn                                0x08001465   Thumb Code     0  cpu_a.o(.text)
    CPU_SR_Save                              0x08001469   Thumb Code     0  cpu_a.o(.text)
    CPU_SR_Restore                           0x08001471   Thumb Code     0  cpu_a.o(.text)
    CPU_WaitForInt                           0x08001477   Thumb Code     0  cpu_a.o(.text)
    CPU_WaitForExcept                        0x0800147b   Thumb Code     0  cpu_a.o(.text)
    CPU_CntLeadZeros                         0x0800147f   Thumb Code     0  cpu_a.o(.text)
    CPU_CntTrailZeros                        0x08001485   Thumb Code     0  cpu_a.o(.text)
    CPU_RevBits                              0x0800148f   Thumb Code     0  cpu_a.o(.text)
    __scatterload                            0x08001495   Thumb Code    28  init.o(.text)
    __scatterload_rt2                        0x08001495   Thumb Code     0  init.o(.text)
    __decompress                             0x080014b9   Thumb Code     0  __dczerorl2.o(.text)
    __decompress1                            0x080014b9   Thumb Code    86  __dczerorl2.o(.text)
    OSStartHighRdy                           0x08001511   Thumb Code     0  os_cpu_a.o(CODE)
    OS_CPU_PendSVHandler                     0x08001533   Thumb Code     0  os_cpu_a.o(CODE)
    BSP_CPU_ClkFreq                          0x08001a15   Thumb Code    16  bsp.o(i.BSP_CPU_ClkFreq)
    BSP_Init                                 0x08001a25   Thumb Code    34  bsp.o(i.BSP_Init)
    BusFault_Handler                         0x08001a59   Thumb Code     4  stm32f10x_it.o(i.BusFault_Handler)
    CPU_Init                                 0x08001a5d   Thumb Code    16  cpu_core.o(i.CPU_Init)
    CPU_IntDisMeasMaxCurGet                  0x08001b0d   Thumb Code    40  cpu_core.o(i.CPU_IntDisMeasMaxCurGet)
    CPU_IntDisMeasMaxCurReset                0x08001b39   Thumb Code    40  cpu_core.o(i.CPU_IntDisMeasMaxCurReset)
    CPU_IntDisMeasMaxGet                     0x08001b65   Thumb Code    40  cpu_core.o(i.CPU_IntDisMeasMaxGet)
    CPU_IntDisMeasStart                      0x08001b91   Thumb Code    38  cpu_core.o(i.CPU_IntDisMeasStart)
    CPU_IntDisMeasStop                       0x08001bc5   Thumb Code    62  cpu_core.o(i.CPU_IntDisMeasStop)
    CPU_NameClr                              0x08001c19   Thumb Code    50  cpu_core.o(i.CPU_NameClr)
    CPU_TS_TmrFreqSet                        0x08001c6d   Thumb Code     6  cpu_core.o(i.CPU_TS_TmrFreqSet)
    CPU_TS_TmrInit                           0x08001c79   Thumb Code    44  bsp.o(i.CPU_TS_TmrInit)
    CPU_TS_TmrRd                             0x08001cad   Thumb Code     6  bsp.o(i.CPU_TS_TmrRd)
    DebugMon_Handler                         0x08001cb9   Thumb Code     2  stm32f10x_it.o(i.DebugMon_Handler)
    HardFault_Handler                        0x08001cbb   Thumb Code     4  stm32f10x_it.o(i.HardFault_Handler)
    LCD_Clear                                0x08001cc1   Thumb Code    68  tftlcd.o(i.LCD_Clear)
    LCD_Display_Dir                          0x08001d09   Thumb Code    70  tftlcd.o(i.LCD_Display_Dir)
    LCD_DrawFRONT_COLOR                      0x08001d55   Thumb Code    28  tftlcd.o(i.LCD_DrawFRONT_COLOR)
    LCD_Set_Window                           0x08001d71   Thumb Code   166  tftlcd.o(i.LCD_Set_Window)
    LCD_ShowChar                             0x08001e19   Thumb Code   272  tftlcd.o(i.LCD_ShowChar)
    LCD_ShowFontHZ                           0x08001f41   Thumb Code   220  tftlcd.o(i.LCD_ShowFontHZ)
    LCD_ShowString                           0x08002029   Thumb Code   102  tftlcd.o(i.LCD_ShowString)
    LCD_WriteCmd                             0x08002091   Thumb Code     6  tftlcd.o(i.LCD_WriteCmd)
    LCD_WriteData                            0x0800209d   Thumb Code     6  tftlcd.o(i.LCD_WriteData)
    LCD_WriteData_Color                      0x080020a9   Thumb Code     6  tftlcd.o(i.LCD_WriteData_Color)
    LED_Init                                 0x0800210d   Thumb Code    32  bsp_led.o(i.LED_Init)
    MemManage_Handler                        0x08002131   Thumb Code     4  stm32f10x_it.o(i.MemManage_Handler)
    Mem_Clr                                  0x08002135   Thumb Code    18  lib_mem.o(i.Mem_Clr)
    Mem_Init                                 0x08002149   Thumb Code    54  lib_mem.o(i.Mem_Init)
    Mem_Set                                  0x08002191   Thumb Code    98  lib_mem.o(i.Mem_Set)
    NMI_Handler                              0x080021f3   Thumb Code     2  stm32f10x_it.o(i.NMI_Handler)
    OSCfg_Init                               0x080021f5   Thumb Code     2  os_cfg_app.o(i.OSCfg_Init)
    OSIdleTaskHook                           0x080021f9   Thumb Code    16  os_cpu_c.o(i.OSIdleTaskHook)
    OSInit                                   0x0800220d   Thumb Code   300  os_core.o(i.OSInit)
    OSInitHook                               0x08002399   Thumb Code    42  os_cpu_c.o(i.OSInitHook)
    OSIntExit                                0x080023d1   Thumb Code   192  os_core.o(i.OSIntExit)
    OSSched                                  0x080024b5   Thumb Code   134  os_core.o(i.OSSched)
    OSSchedLock                              0x0800255d   Thumb Code   112  os_core.o(i.OSSchedLock)
    OSSchedRoundRobinCfg                     0x080025d9   Thumb Code    96  os_core.o(i.OSSchedRoundRobinCfg)
    OSSchedUnlock                            0x08002645   Thumb Code   148  os_core.o(i.OSSchedUnlock)
    OSStart                                  0x080026e5   Thumb Code    78  os_core.o(i.OSStart)
    OSStatReset                              0x0800274d   Thumb Code   316  os_stat.o(i.OSStatReset)
    OSStatTaskCPUUsageInit                   0x080028b5   Thumb Code   228  os_stat.o(i.OSStatTaskCPUUsageInit)
    OSStatTaskHook                           0x080029b5   Thumb Code    16  os_cpu_c.o(i.OSStatTaskHook)
    OSTaskCreate                             0x080029c9   Thumb Code   624  os_task.o(i.OSTaskCreate)
    OSTaskCreateHook                         0x08002c5d   Thumb Code    20  os_cpu_c.o(i.OSTaskCreateHook)
    OSTaskDel                                0x08002c75   Thumb Code   490  os_task.o(i.OSTaskDel)
    OSTaskDelHook                            0x08002e7d   Thumb Code    20  os_cpu_c.o(i.OSTaskDelHook)
    OSTaskRegGet                             0x08002e95   Thumb Code    86  os_task.o(i.OSTaskRegGet)
    OSTaskRegSet                             0x08002ef1   Thumb Code    86  os_task.o(i.OSTaskRegSet)
    OSTaskResume                             0x08002f4d   Thumb Code   124  os_task.o(i.OSTaskResume)
    OSTaskReturnHook                         0x08002fd5   Thumb Code    20  os_cpu_c.o(i.OSTaskReturnHook)
    OSTaskSemPend                            0x08002fed   Thumb Code   578  os_task.o(i.OSTaskSemPend)
    OSTaskStkChk                             0x0800323d   Thumb Code   220  os_task.o(i.OSTaskStkChk)
    OSTaskStkInit                            0x08003321   Thumb Code   188  os_cpu_c.o(i.OSTaskStkInit)
    OSTaskSuspend                            0x080033e1   Thumb Code    78  os_task.o(i.OSTaskSuspend)
    OSTaskSwHook                             0x08003441   Thumb Code   146  os_cpu_c.o(i.OSTaskSwHook)
    OSTimeDly                                0x080034e5   Thumb Code   322  os_time.o(i.OSTimeDly)
    OSTimeTick                               0x08003635   Thumb Code    54  os_time.o(i.OSTimeTick)
    OSTimeTickHook                           0x08003679   Thumb Code    16  os_cpu_c.o(i.OSTimeTickHook)
    OS_CPU_SysTickHandler                    0x0800368d   Thumb Code    60  os_cpu_c.o(i.OS_CPU_SysTickHandler)
    OS_CPU_SysTickInit                       0x080036cd   Thumb Code    44  os_cpu_c.o(i.OS_CPU_SysTickInit)
    OS_Dbg_Init                              0x080036fd   Thumb Code   150  os_dbg.o(i.OS_Dbg_Init)
    OS_FlagInit                              0x080038b1   Thumb Code    14  os_flag.o(i.OS_FlagInit)
    OS_FlagPost                              0x080038c9   Thumb Code   626  os_flag.o(i.OS_FlagPost)
    OS_FlagTaskRdy                           0x08003b45   Thumb Code    86  os_flag.o(i.OS_FlagTaskRdy)
    OS_IdleTask                              0x08003b9d   Thumb Code    68  os_core.o(i.OS_IdleTask)
    OS_IdleTaskInit                          0x08003be9   Thumb Code    66  os_core.o(i.OS_IdleTaskInit)
    OS_IntQPost                              0x08003c59   Thumb Code   224  os_int.o(i.OS_IntQPost)
    OS_IntQRePost                            0x08003d5d   Thumb Code   360  os_int.o(i.OS_IntQRePost)
    OS_IntQTask                              0x08003f01   Thumb Code   182  os_int.o(i.OS_IntQTask)
    OS_IntQTaskInit                          0x08003fc9   Thumb Code   206  os_int.o(i.OS_IntQTaskInit)
    OS_MemInit                               0x080040f1   Thumb Code    14  os_mem.o(i.OS_MemInit)
    OS_MsgPoolInit                           0x08004109   Thumb Code   110  os_msg.o(i.OS_MsgPoolInit)
    OS_MsgQFreeAll                           0x08004185   Thumb Code    62  os_msg.o(i.OS_MsgQFreeAll)
    OS_MsgQInit                              0x080041c9   Thumb Code    14  os_msg.o(i.OS_MsgQInit)
    OS_MsgQPut                               0x080041d9   Thumb Code   254  os_msg.o(i.OS_MsgQPut)
    OS_MutexInit                             0x080042dd   Thumb Code    14  os_mutex.o(i.OS_MutexInit)
    OS_Pend                                  0x080042f5   Thumb Code    98  os_core.o(i.OS_Pend)
    OS_PendDataInit                          0x0800435d   Thumb Code    38  os_core.o(i.OS_PendDataInit)
    OS_PendDbgNameAdd                        0x08004385   Thumb Code    66  os_core.o(i.OS_PendDbgNameAdd)
    OS_PendDbgNameRemove                     0x080043e1   Thumb Code    30  os_core.o(i.OS_PendDbgNameRemove)
    OS_PendListInsertPrio                    0x08004405   Thumb Code   102  os_core.o(i.OS_PendListInsertPrio)
    OS_PendListRemove                        0x0800446b   Thumb Code    48  os_core.o(i.OS_PendListRemove)
    OS_PendListRemove1                       0x0800449b   Thumb Code    66  os_core.o(i.OS_PendListRemove1)
    OS_Post                                  0x080044dd   Thumb Code   192  os_core.o(i.OS_Post)
    OS_Post1                                 0x0800459d   Thumb Code    42  os_core.o(i.OS_Post1)
    OS_PrioGetHighest                        0x080045c9   Thumb Code    36  os_prio.o(i.OS_PrioGetHighest)
    OS_PrioInit                              0x080045f1   Thumb Code    20  os_prio.o(i.OS_PrioInit)
    OS_PrioInsert                            0x08004609   Thumb Code    32  os_prio.o(i.OS_PrioInsert)
    OS_PrioRemove                            0x0800462d   Thumb Code    32  os_prio.o(i.OS_PrioRemove)
    OS_QInit                                 0x08004651   Thumb Code    14  os_q.o(i.OS_QInit)
    OS_QPost                                 0x08004669   Thumb Code   382  os_q.o(i.OS_QPost)
    OS_RdyListInit                           0x080047f1   Thumb Code    32  os_core.o(i.OS_RdyListInit)
    OS_RdyListInsert                         0x08004815   Thumb Code    40  os_core.o(i.OS_RdyListInsert)
    OS_RdyListInsertHead                     0x08004841   Thumb Code    58  os_core.o(i.OS_RdyListInsertHead)
    OS_RdyListInsertTail                     0x08004881   Thumb Code    56  os_core.o(i.OS_RdyListInsertTail)
    OS_RdyListMoveHeadToTail                 0x080048bd   Thumb Code    68  os_core.o(i.OS_RdyListMoveHeadToTail)
    OS_RdyListRemove                         0x08004901   Thumb Code    86  os_core.o(i.OS_RdyListRemove)
    OS_Sched0                                0x0800495d   Thumb Code    72  os_core.o(i.OS_Sched0)
    OS_SchedLockTimeMeasStart                0x080049b9   Thumb Code    20  os_core.o(i.OS_SchedLockTimeMeasStart)
    OS_SchedLockTimeMeasStop                 0x080049d5   Thumb Code    44  os_core.o(i.OS_SchedLockTimeMeasStop)
    OS_SchedRoundRobin                       0x08004a11   Thumb Code   218  os_core.o(i.OS_SchedRoundRobin)
    OS_SemInit                               0x08004afd   Thumb Code    14  os_sem.o(i.OS_SemInit)
    OS_SemPost                               0x08004b15   Thumb Code   404  os_sem.o(i.OS_SemPost)
    OS_StatTask                              0x08004cad   Thumb Code   878  os_stat.o(i.OS_StatTask)
    OS_StatTaskInit                          0x08005065   Thumb Code   136  os_stat.o(i.OS_StatTaskInit)
    OS_TaskBlock                             0x08005131   Thumb Code    56  os_core.o(i.OS_TaskBlock)
    OS_TaskDbgListAdd                        0x08005169   Thumb Code    42  os_task.o(i.OS_TaskDbgListAdd)
    OS_TaskDbgListRemove                     0x08005199   Thumb Code    64  os_task.o(i.OS_TaskDbgListRemove)
    OS_TaskInit                              0x080051dd   Thumb Code    18  os_task.o(i.OS_TaskInit)
    OS_TaskInitTCB                           0x080051fd   Thumb Code   194  os_task.o(i.OS_TaskInitTCB)
    OS_TaskQPost                             0x080052cd   Thumb Code   606  os_task.o(i.OS_TaskQPost)
    OS_TaskRdy                               0x08005539   Thumb Code    28  os_core.o(i.OS_TaskRdy)
    OS_TaskResume                            0x08005555   Thumb Code   374  os_task.o(i.OS_TaskResume)
    OS_TaskReturn                            0x080056d1   Thumb Code    20  os_task.o(i.OS_TaskReturn)
    OS_TaskSemPost                           0x080056e9   Thumb Code  1438  os_task.o(i.OS_TaskSemPost)
    OS_TaskSuspend                           0x08005c91   Thumb Code   392  os_task.o(i.OS_TaskSuspend)
    OS_TickListInit                          0x08005e21   Thumb Code    32  os_tick.o(i.OS_TickListInit)
    OS_TickListInsert                        0x08005e49   Thumb Code   430  os_tick.o(i.OS_TickListInsert)
    OS_TickListRemove                        0x08006005   Thumb Code    56  os_tick.o(i.OS_TickListRemove)
    OS_TickListResetPeak                     0x0800603d   Thumb Code    28  os_tick.o(i.OS_TickListResetPeak)
    OS_TickListUpdate                        0x08006061   Thumb Code   520  os_tick.o(i.OS_TickListUpdate)
    OS_TickTask                              0x08006281   Thumb Code    38  os_tick.o(i.OS_TickTask)
    OS_TickTaskInit                          0x080062ad   Thumb Code   128  os_tick.o(i.OS_TickTaskInit)
    OS_TmrInit                               0x08006365   Thumb Code   206  os_tmr.o(i.OS_TmrInit)
    OS_TmrLink                               0x0800648d   Thumb Code   196  os_tmr.o(i.OS_TmrLink)
    OS_TmrResetPeak                          0x0800655d   Thumb Code    28  os_tmr.o(i.OS_TmrResetPeak)
    OS_TmrTask                               0x08006581   Thumb Code   176  os_tmr.o(i.OS_TmrTask)
    OS_TmrUnlink                             0x08006641   Thumb Code    72  os_tmr.o(i.OS_TmrUnlink)
    SVC_Handler                              0x08006691   Thumb Code     2  stm32f10x_it.o(i.SVC_Handler)
    TFTLCD_FSMC_Init                         0x08006693   Thumb Code   126  tftlcd.o(i.TFTLCD_FSMC_Init)
    TFTLCD_GPIO_Init                         0x08006711   Thumb Code    98  tftlcd.o(i.TFTLCD_GPIO_Init)
    TFTLCD_Init                              0x08006781   Thumb Code   580  tftlcd.o(i.TFTLCD_Init)
    USARTx_Config                            0x080069cd   Thumb Code   120  bsp_usart1.o(i.USARTx_Config)
    UsageFault_Handler                       0x08006a4d   Thumb Code     4  stm32f10x_it.o(i.UsageFault_Handler)
    __0printf$bare                           0x08006a51   Thumb Code     8  printfb.o(i.__0printf$bare)
    __1printf$bare                           0x08006a51   Thumb Code     0  printfb.o(i.__0printf$bare)
    __2printf                                0x08006a51   Thumb Code     0  printfb.o(i.__0printf$bare)
    __scatterload_copy                       0x08006a61   Thumb Code    14  handlers.o(i.__scatterload_copy)
    __scatterload_null                       0x08006a6f   Thumb Code     2  handlers.o(i.__scatterload_null)
    __scatterload_zeroinit                   0x08006a71   Thumb Code    14  handlers.o(i.__scatterload_zeroinit)
    delay_ms                                 0x08006aa1   Thumb Code    28  tftlcd.o(i.delay_ms)
    fputc                                    0x08006abd   Thumb Code    32  bsp_usart1.o(i.fputc)
    main                                     0x08006ae1   Thumb Code    68  main.o(i.main)
    ascii_1206                               0x08006b40   Data        1140  tftlcd.o(.constdata)
    ascii_1608                               0x08006fb4   Data        1520  tftlcd.o(.constdata)
    ascii_2412                               0x080075a4   Data        3420  tftlcd.o(.constdata)
    CnChar32x29                              0x08008300   Data        1062  tftlcd.o(.constdata)
    OSCfg_IdleTaskStkBasePtr                 0x08008728   Data           4  os_cfg_app.o(.constdata)
    OSCfg_IdleTaskStkLimit                   0x0800872c   Data           4  os_cfg_app.o(.constdata)
    OSCfg_IdleTaskStkSize                    0x08008730   Data           4  os_cfg_app.o(.constdata)
    OSCfg_IdleTaskStkSizeRAM                 0x08008734   Data           4  os_cfg_app.o(.constdata)
    OSCfg_IntQBasePtr                        0x08008738   Data           4  os_cfg_app.o(.constdata)
    OSCfg_IntQSize                           0x0800873c   Data           2  os_cfg_app.o(.constdata)
    OSCfg_IntQSizeRAM                        0x08008740   Data           4  os_cfg_app.o(.constdata)
    OSCfg_IntQTaskStkBasePtr                 0x08008744   Data           4  os_cfg_app.o(.constdata)
    OSCfg_IntQTaskStkLimit                   0x08008748   Data           4  os_cfg_app.o(.constdata)
    OSCfg_IntQTaskStkSize                    0x0800874c   Data           4  os_cfg_app.o(.constdata)
    OSCfg_IntQTaskStkSizeRAM                 0x08008750   Data           4  os_cfg_app.o(.constdata)
    OSCfg_ISRStkBasePtr                      0x08008754   Data           4  os_cfg_app.o(.constdata)
    OSCfg_ISRStkSize                         0x08008758   Data           4  os_cfg_app.o(.constdata)
    OSCfg_ISRStkSizeRAM                      0x0800875c   Data           4  os_cfg_app.o(.constdata)
    OSCfg_MsgPoolSize                        0x08008760   Data           2  os_cfg_app.o(.constdata)
    OSCfg_MsgPoolSizeRAM                     0x08008764   Data           4  os_cfg_app.o(.constdata)
    OSCfg_MsgPoolBasePtr                     0x08008768   Data           4  os_cfg_app.o(.constdata)
    OSCfg_StatTaskPrio                       0x0800876c   Data           1  os_cfg_app.o(.constdata)
    OSCfg_StatTaskRate_Hz                    0x08008770   Data           4  os_cfg_app.o(.constdata)
    OSCfg_StatTaskStkBasePtr                 0x08008774   Data           4  os_cfg_app.o(.constdata)
    OSCfg_StatTaskStkLimit                   0x08008778   Data           4  os_cfg_app.o(.constdata)
    OSCfg_StatTaskStkSize                    0x0800877c   Data           4  os_cfg_app.o(.constdata)
    OSCfg_StatTaskStkSizeRAM                 0x08008780   Data           4  os_cfg_app.o(.constdata)
    OSCfg_StkSizeMin                         0x08008784   Data           4  os_cfg_app.o(.constdata)
    OSCfg_TickRate_Hz                        0x08008788   Data           4  os_cfg_app.o(.constdata)
    OSCfg_TickTaskPrio                       0x0800878c   Data           1  os_cfg_app.o(.constdata)
    OSCfg_TickTaskStkBasePtr                 0x08008790   Data           4  os_cfg_app.o(.constdata)
    OSCfg_TickTaskStkLimit                   0x08008794   Data           4  os_cfg_app.o(.constdata)
    OSCfg_TickTaskStkSize                    0x08008798   Data           4  os_cfg_app.o(.constdata)
    OSCfg_TickTaskStkSizeRAM                 0x0800879c   Data           4  os_cfg_app.o(.constdata)
    OSCfg_TickWheelSize                      0x080087a0   Data           2  os_cfg_app.o(.constdata)
    OSCfg_TickWheelSizeRAM                   0x080087a4   Data           4  os_cfg_app.o(.constdata)
    OSCfg_TmrTaskPrio                        0x080087a8   Data           1  os_cfg_app.o(.constdata)
    OSCfg_TmrTaskRate_Hz                     0x080087ac   Data           4  os_cfg_app.o(.constdata)
    OSCfg_TmrTaskStkBasePtr                  0x080087b0   Data           4  os_cfg_app.o(.constdata)
    OSCfg_TmrTaskStkLimit                    0x080087b4   Data           4  os_cfg_app.o(.constdata)
    OSCfg_TmrTaskStkSize                     0x080087b8   Data           4  os_cfg_app.o(.constdata)
    OSCfg_TmrTaskStkSizeRAM                  0x080087bc   Data           4  os_cfg_app.o(.constdata)
    OSCfg_TmrWheelSize                       0x080087c0   Data           2  os_cfg_app.o(.constdata)
    OSCfg_TmrWheelSizeRAM                    0x080087c4   Data           4  os_cfg_app.o(.constdata)
    OSCfg_DataSizeRAM                        0x080087c8   Data           4  os_cfg_app.o(.constdata)
    OSDbg_DbgEn                              0x080087cc   Data           1  os_dbg.o(.constdata)
    OSDbg_ArgChkEn                           0x080087cd   Data           1  os_dbg.o(.constdata)
    OSDbg_AppHooksEn                         0x080087ce   Data           1  os_dbg.o(.constdata)
    OSDbg_EndiannessTest                     0x080087d0   Data           4  os_dbg.o(.constdata)
    OSDbg_CalledFromISRChkEn                 0x080087d4   Data           1  os_dbg.o(.constdata)
    OSDbg_FlagEn                             0x080087d5   Data           1  os_dbg.o(.constdata)
    OSDbg_FlagGrp                            0x080087d8   Data          40  os_dbg.o(.constdata)
    OSDbg_FlagDelEn                          0x08008800   Data           1  os_dbg.o(.constdata)
    OSDbg_FlagModeClrEn                      0x08008801   Data           1  os_dbg.o(.constdata)
    OSDbg_FlagPendAbortEn                    0x08008802   Data           1  os_dbg.o(.constdata)
    OSDbg_FlagGrpSize                        0x08008804   Data           2  os_dbg.o(.constdata)
    OSDbg_FlagWidth                          0x08008806   Data           2  os_dbg.o(.constdata)
    OSDbg_IntQ                               0x08008808   Data           2  os_dbg.o(.constdata)
    OSDbg_ISRPostDeferredEn                  0x0800880a   Data           1  os_dbg.o(.constdata)
    OSDbg_Mem                                0x0800880c   Data          32  os_dbg.o(.constdata)
    OSDbg_MemEn                              0x0800882c   Data           1  os_dbg.o(.constdata)
    OSDbg_MemSize                            0x0800882e   Data           2  os_dbg.o(.constdata)
    OSDbg_MsgEn                              0x08008830   Data           1  os_dbg.o(.constdata)
    OSDbg_MsgSize                            0x08008832   Data           2  os_dbg.o(.constdata)
    OSDbg_MsgPoolSize                        0x08008834   Data           2  os_dbg.o(.constdata)
    OSDbg_MsgQSize                           0x08008836   Data           2  os_dbg.o(.constdata)
    OSDbg_Mutex                              0x08008838   Data          44  os_dbg.o(.constdata)
    OSDbg_MutexEn                            0x08008864   Data           1  os_dbg.o(.constdata)
    OSDbg_MutexDelEn                         0x08008865   Data           1  os_dbg.o(.constdata)
    OSDbg_MutexPendAbortEn                   0x08008866   Data           1  os_dbg.o(.constdata)
    OSDbg_MutexSize                          0x08008868   Data           2  os_dbg.o(.constdata)
    OSDbg_ObjTypeChkEn                       0x0800886a   Data           1  os_dbg.o(.constdata)
    OSDbg_PendMultiEn                        0x0800886b   Data           1  os_dbg.o(.constdata)
    OSDbg_PendDataSize                       0x0800886c   Data           2  os_dbg.o(.constdata)
    OSDbg_PendListSize                       0x0800886e   Data           2  os_dbg.o(.constdata)
    OSDbg_PendObjSize                        0x08008870   Data           2  os_dbg.o(.constdata)
    OSDbg_PrioMax                            0x08008872   Data           2  os_dbg.o(.constdata)
    OSDbg_PrioTblSize                        0x08008874   Data           2  os_dbg.o(.constdata)
    OSDbg_PtrSize                            0x08008876   Data           2  os_dbg.o(.constdata)
    OSDbg_Q                                  0x08008878   Data          48  os_dbg.o(.constdata)
    OSDbg_QEn                                0x080088a8   Data           1  os_dbg.o(.constdata)
    OSDbg_QDelEn                             0x080088a9   Data           1  os_dbg.o(.constdata)
    OSDbg_QFlushEn                           0x080088aa   Data           1  os_dbg.o(.constdata)
    OSDbg_QPendAbortEn                       0x080088ab   Data           1  os_dbg.o(.constdata)
    OSDbg_QSize                              0x080088ac   Data           2  os_dbg.o(.constdata)
    OSDbg_SchedRoundRobinEn                  0x080088ae   Data           1  os_dbg.o(.constdata)
    OSDbg_Sem                                0x080088b0   Data          40  os_dbg.o(.constdata)
    OSDbg_SemEn                              0x080088d8   Data           1  os_dbg.o(.constdata)
    OSDbg_SemDelEn                           0x080088d9   Data           1  os_dbg.o(.constdata)
    OSDbg_SemPendAbortEn                     0x080088da   Data           1  os_dbg.o(.constdata)
    OSDbg_SemSetEn                           0x080088db   Data           1  os_dbg.o(.constdata)
    OSDbg_SemSize                            0x080088dc   Data           2  os_dbg.o(.constdata)
    OSDbg_RdyList                            0x080088de   Data           2  os_dbg.o(.constdata)
    OSDbg_RdyListSize                        0x080088e0   Data           4  os_dbg.o(.constdata)
    OSDbg_StkWidth                           0x080088e4   Data           1  os_dbg.o(.constdata)
    OSDbg_StatTaskEn                         0x080088e5   Data           1  os_dbg.o(.constdata)
    OSDbg_StatTaskStkChkEn                   0x080088e6   Data           1  os_dbg.o(.constdata)
    OSDbg_TaskChangePrioEn                   0x080088e7   Data           1  os_dbg.o(.constdata)
    OSDbg_TaskDelEn                          0x080088e8   Data           1  os_dbg.o(.constdata)
    OSDbg_TaskQEn                            0x080088e9   Data           1  os_dbg.o(.constdata)
    OSDbg_TaskQPendAbortEn                   0x080088ea   Data           1  os_dbg.o(.constdata)
    OSDbg_TaskProfileEn                      0x080088eb   Data           1  os_dbg.o(.constdata)
    OSDbg_TaskRegTblSize                     0x080088ec   Data           2  os_dbg.o(.constdata)
    OSDbg_TaskSemPendAbortEn                 0x080088ee   Data           1  os_dbg.o(.constdata)
    OSDbg_TaskSuspendEn                      0x080088ef   Data           1  os_dbg.o(.constdata)
    OSDbg_TCBSize                            0x080088f0   Data           2  os_dbg.o(.constdata)
    OSDbg_TickSpokeSize                      0x080088f2   Data           2  os_dbg.o(.constdata)
    OSDbg_TimeDlyHMSMEn                      0x080088f4   Data           1  os_dbg.o(.constdata)
    OSDbg_TimeDlyResumeEn                    0x080088f5   Data           1  os_dbg.o(.constdata)
    OSDbg_TLS_TblSize                        0x080088f6   Data           2  os_dbg.o(.constdata)
    OSDbg_Tmr                                0x080088f8   Data          52  os_dbg.o(.constdata)
    OSDbg_TmrEn                              0x0800892c   Data           1  os_dbg.o(.constdata)
    OSDbg_TmrDelEn                           0x0800892d   Data           1  os_dbg.o(.constdata)
    OSDbg_TmrSize                            0x0800892e   Data           2  os_dbg.o(.constdata)
    OSDbg_TmrSpokeSize                       0x08008930   Data           2  os_dbg.o(.constdata)
    OSDbg_VersionNbr                         0x08008932   Data           2  os_dbg.o(.constdata)
    OSDbg_DataSize                           0x08008934   Data           4  os_dbg.o(.constdata)
    Region$$Table$$Base                      0x08008938   Number         0  anon$$obj.o(Region$$Table)
    Region$$Table$$Limit                     0x08008958   Number         0  anon$$obj.o(Region$$Table)
    lcd_y                                    0x20000000   Data           4  main.o(.data)
    FRONT_COLOR                              0x20000004   Data           2  tftlcd.o(.data)
    BACK_COLOR                               0x20000006   Data           2  tftlcd.o(.data)
    tftlcd_data                              0x20000008   Data           8  tftlcd.o(.data)
    SystemCoreClock                          0x20000010   Data           4  system_stm32f10x.o(.data)
    AHBPrescTable                            0x20000014   Data          16  system_stm32f10x.o(.data)
    CPU_TS_TmrFreq_Hz                        0x20000038   Data           4  cpu_core.o(.data)
    CPU_IntDisMeasCtr                        0x2000003c   Data           2  cpu_core.o(.data)
    CPU_IntDisNestCtr                        0x2000003e   Data           2  cpu_core.o(.data)
    CPU_IntDisMeasStart_cnts                 0x20000040   Data           4  cpu_core.o(.data)
    CPU_IntDisMeasStop_cnts                  0x20000044   Data           4  cpu_core.o(.data)
    CPU_IntDisMeasOvrhd_cnts                 0x20000048   Data           4  cpu_core.o(.data)
    CPU_IntDisMeasMaxCur_cnts                0x2000004c   Data           4  cpu_core.o(.data)
    CPU_IntDisMeasMax_cnts                   0x20000050   Data           4  cpu_core.o(.data)
    Mem_PoolTbl                              0x20000054   Data           4  lib_mem.o(.data)
    OS_AppTaskCreateHookPtr                  0x20000058   Data           4  os_var.o(.data)
    OS_AppTaskDelHookPtr                     0x2000005c   Data           4  os_var.o(.data)
    OS_AppTaskReturnHookPtr                  0x20000060   Data           4  os_var.o(.data)
    OS_AppIdleTaskHookPtr                    0x20000064   Data           4  os_var.o(.data)
    OS_AppStatTaskHookPtr                    0x20000068   Data           4  os_var.o(.data)
    OS_AppTaskSwHookPtr                      0x2000006c   Data           4  os_var.o(.data)
    OS_AppTimeTickHookPtr                    0x20000070   Data           4  os_var.o(.data)
    OSIdleTaskCtr                            0x20000074   Data           4  os_var.o(.data)
    OSIntNestingCtr                          0x20000078   Data           1  os_var.o(.data)
    OSIntDisTimeMax                          0x2000007c   Data           4  os_var.o(.data)
    OSRunning                                0x20000080   Data           1  os_var.o(.data)
    OSIntQInPtr                              0x20000084   Data           4  os_var.o(.data)
    OSIntQOutPtr                             0x20000088   Data           4  os_var.o(.data)
    OSIntQNbrEntries                         0x2000008c   Data           2  os_var.o(.data)
    OSIntQNbrEntriesMax                      0x2000008e   Data           2  os_var.o(.data)
    OSIntQOvfCtr                             0x20000090   Data           2  os_var.o(.data)
    OSIntQTaskTimeMax                        0x20000094   Data           4  os_var.o(.data)
    OSFlagDbgListPtr                         0x20000098   Data           4  os_var.o(.data)
    OSFlagQty                                0x2000009c   Data           2  os_var.o(.data)
    OSMemDbgListPtr                          0x200000a0   Data           4  os_var.o(.data)
    OSMemQty                                 0x200000a4   Data           2  os_var.o(.data)
    OSMutexDbgListPtr                        0x200000a8   Data           4  os_var.o(.data)
    OSMutexQty                               0x200000ac   Data           2  os_var.o(.data)
    OSPrioCur                                0x200000ae   Data           1  os_var.o(.data)
    OSPrioHighRdy                            0x200000af   Data           1  os_var.o(.data)
    OSPrioSaved                              0x200000b0   Data           1  os_var.o(.data)
    OSQDbgListPtr                            0x200000b4   Data           4  os_var.o(.data)
    OSQQty                                   0x200000b8   Data           2  os_var.o(.data)
    OSSchedLockTimeBegin                     0x200000bc   Data           4  os_var.o(.data)
    OSSchedLockTimeMax                       0x200000c0   Data           4  os_var.o(.data)
    OSSchedLockTimeMaxCur                    0x200000c4   Data           4  os_var.o(.data)
    OSSchedLockNestingCtr                    0x200000c8   Data           1  os_var.o(.data)
    OSSchedRoundRobinDfltTimeQuanta          0x200000cc   Data           4  os_var.o(.data)
    OSSchedRoundRobinEn                      0x200000d0   Data           1  os_var.o(.data)
    OSSemDbgListPtr                          0x200000d4   Data           4  os_var.o(.data)
    OSSemQty                                 0x200000d8   Data           2  os_var.o(.data)
    OSStatResetFlag                          0x200000da   Data           1  os_var.o(.data)
    OSStatTaskCPUUsage                       0x200000dc   Data           2  os_var.o(.data)
    OSStatTaskCPUUsageMax                    0x200000de   Data           2  os_var.o(.data)
    OSStatTaskCtr                            0x200000e0   Data           4  os_var.o(.data)
    OSStatTaskCtrMax                         0x200000e4   Data           4  os_var.o(.data)
    OSStatTaskCtrRun                         0x200000e8   Data           4  os_var.o(.data)
    OSStatTaskRdy                            0x200000ec   Data           1  os_var.o(.data)
    OSStatTaskTimeMax                        0x200000f0   Data           4  os_var.o(.data)
    OSTaskCtxSwCtr                           0x200000f4   Data           4  os_var.o(.data)
    OSTaskDbgListPtr                         0x200000f8   Data           4  os_var.o(.data)
    OSTaskQty                                0x200000fc   Data           2  os_var.o(.data)
    OSTaskRegNextAvailID                     0x200000fe   Data           1  os_var.o(.data)
    OSTickCtr                                0x20000100   Data           4  os_var.o(.data)
    OSTickTaskTimeMax                        0x20000104   Data           4  os_var.o(.data)
    OSTmrDbgListPtr                          0x20000108   Data           4  os_var.o(.data)
    OSTmrQty                                 0x2000010c   Data           2  os_var.o(.data)
    OSTmrTaskTimeMax                         0x20000110   Data           4  os_var.o(.data)
    OSTmrTickCtr                             0x20000114   Data           4  os_var.o(.data)
    OSTmrUpdateCnt                           0x20000118   Data           4  os_var.o(.data)
    OSTmrUpdateCtr                           0x2000011c   Data           4  os_var.o(.data)
    OSTCBCurPtr                              0x20000120   Data           4  os_var.o(.data)
    OSTCBHighRdyPtr                          0x20000124   Data           4  os_var.o(.data)
    OS_CPU_ExceptStkBase                     0x20000128   Data           4  os_cpu_c.o(.data)
    OSPrioTbl                                0x2000012c   Data           4  os_prio.o(.data)
    __stdout                                 0x20000130   Data           4  stdout.o(.data)
    CPU_Name                                 0x20001e54   Data          16  cpu_core.o(.bss)
    Mem_PoolHeap                             0x20001e64   Data          72  lib_mem.o(.bss)
    Mem_Heap                                 0x20001eac   Data       27648  lib_mem.o(.bss)
    OSCfg_IdleTaskStk                        0x20008aac   Data         512  os_cfg_app.o(.bss)
    OSCfg_IntQ                               0x20008cac   Data         320  os_cfg_app.o(.bss)
    OSCfg_IntQTaskStk                        0x20008dec   Data         512  os_cfg_app.o(.bss)
    OSCfg_ISRStk                             0x20008fec   Data         512  os_cfg_app.o(.bss)
    OSCfg_MsgPool                            0x200091ec   Data        1600  os_cfg_app.o(.bss)
    OSCfg_StatTaskStk                        0x2000982c   Data         512  os_cfg_app.o(.bss)
    OSCfg_TickTaskStk                        0x20009a2c   Data         512  os_cfg_app.o(.bss)
    OSCfg_TickWheel                          0x20009c2c   Data         136  os_cfg_app.o(.bss)
    OSCfg_TmrTaskStk                         0x20009cb4   Data         512  os_cfg_app.o(.bss)
    OSCfg_TmrWheel                           0x20009eb4   Data         136  os_cfg_app.o(.bss)
    OSIdleTaskTCB                            0x20009f3c   Data         200  os_var.o(.bss)
    OSIntQTaskTCB                            0x2000a004   Data         200  os_var.o(.bss)
    OSMsgPool                                0x2000a0cc   Data          12  os_var.o(.bss)
    OSRdyList                                0x2000a0d8   Data         384  os_var.o(.bss)
    OSStatTaskTCB                            0x2000a258   Data         200  os_var.o(.bss)
    OSTickTaskTCB                            0x2000a320   Data         200  os_var.o(.bss)
    OSTmrTaskTCB                             0x2000a3e8   Data         200  os_var.o(.bss)
    __initial_sp                             0x2000a8b0   Data           0  startup_stm32f10x_hd.o(STACK)



==============================================================================

Memory Map of the image

  Image Entry point : 0x08000131

  Load Region LR_IROM1 (Base: 0x08000000, Size: 0x00008a8c, Max: 0x00080000, ABSOLUTE, COMPRESSED[0x00008974])

    Execution Region ER_IROM1 (Exec base: 0x08000000, Load base: 0x08000000, Size: 0x00008958, Max: 0x00080000, ABSOLUTE)

    Exec Addr    Load Addr    Size         Type   Attr      Idx    E Section Name        Object

    0x08000000   0x08000000   0x00000130   Data   RO            3    RESET               startup_stm32f10x_hd.o
    0x08000130   0x08000130   0x00000000   Code   RO         2607  * .ARM.Collect$$$$00000000  mc_w.l(entry.o)
    0x08000130   0x08000130   0x00000004   Code   RO         2870    .ARM.Collect$$$$00000001  mc_w.l(entry2.o)
    0x08000134   0x08000134   0x00000004   Code   RO         2873    .ARM.Collect$$$$00000004  mc_w.l(entry5.o)
    0x08000138   0x08000138   0x00000000   Code   RO         2875    .ARM.Collect$$$$00000008  mc_w.l(entry7b.o)
    0x08000138   0x08000138   0x00000000   Code   RO         2877    .ARM.Collect$$$$0000000A  mc_w.l(entry8b.o)
    0x08000138   0x08000138   0x00000008   Code   RO         2878    .ARM.Collect$$$$0000000B  mc_w.l(entry9a.o)
    0x08000140   0x08000140   0x00000000   Code   RO         2880    .ARM.Collect$$$$0000000D  mc_w.l(entry10a.o)
    0x08000140   0x08000140   0x00000000   Code   RO         2882    .ARM.Collect$$$$0000000F  mc_w.l(entry11a.o)
    0x08000140   0x08000140   0x00000004   Code   RO         2871    .ARM.Collect$$$$00002712  mc_w.l(entry2.o)
    0x08000144   0x08000144   0x00000024   Code   RO            4    .text               startup_stm32f10x_hd.o
    0x08000168   0x08000168   0x000001dc   Code   RO          654    .text               stm32f10x_hd.lib(system_stm32f10x.o)
    0x08000344   0x08000344   0x00000358   Code   RO          754    .text               stm32f10x_hd.lib(stm32f10x_gpio.o)
    0x0800069c   0x0800069c   0x000003a4   Code   RO          789    .text               stm32f10x_hd.lib(stm32f10x_rcc.o)
    0x08000a40   0x08000a40   0x00000618   Code   RO          803    .text               stm32f10x_hd.lib(stm32f10x_fsmc.o)
    0x08001058   0x08001058   0x00000408   Code   RO          815    .text               stm32f10x_hd.lib(stm32f10x_usart.o)
    0x08001460   0x08001460   0x00000034   Code   RO         1017    .text               UCOSIII.lib(cpu_a.o)
    0x08001494   0x08001494   0x00000024   Code   RO         2900    .text               mc_w.l(init.o)
    0x080014b8   0x080014b8   0x00000056   Code   RO         2918    .text               mc_w.l(__dczerorl2.o)
    0x0800150e   0x0800150e   0x00000002   PAD
    0x08001510   0x08001510   0x00000084   Code   RO         2499    CODE                UCOSIII.lib(os_cpu_a.o)
    0x08001594   0x08001594   0x00000168   Code   RO           10    i.AppTaskLed1       main.o
    0x080016fc   0x080016fc   0x000000f4   Code   RO           11    i.AppTaskLed2       main.o
    0x080017f0   0x080017f0   0x000000f4   Code   RO           12    i.AppTaskLed3       main.o
    0x080018e4   0x080018e4   0x00000130   Code   RO           13    i.AppTaskStart      main.o
    0x08001a14   0x08001a14   0x00000010   Code   RO          349    i.BSP_CPU_ClkFreq   bsp.o
    0x08001a24   0x08001a24   0x00000034   Code   RO          350    i.BSP_Init          bsp.o
    0x08001a58   0x08001a58   0x00000004   Code   RO          286    i.BusFault_Handler  stm32f10x_it.o
    0x08001a5c   0x08001a5c   0x00000010   Code   RO          835    i.CPU_Init          UCOSIII.lib(cpu_core.o)
    0x08001a6c   0x08001a6c   0x00000084   Code   RO          836    i.CPU_IntDisMeasInit  UCOSIII.lib(cpu_core.o)
    0x08001af0   0x08001af0   0x0000001c   Code   RO          837    i.CPU_IntDisMeasMaxCalc  UCOSIII.lib(cpu_core.o)
    0x08001b0c   0x08001b0c   0x0000002c   Code   RO          838    i.CPU_IntDisMeasMaxCurGet  UCOSIII.lib(cpu_core.o)
    0x08001b38   0x08001b38   0x0000002c   Code   RO          839    i.CPU_IntDisMeasMaxCurReset  UCOSIII.lib(cpu_core.o)
    0x08001b64   0x08001b64   0x0000002c   Code   RO          840    i.CPU_IntDisMeasMaxGet  UCOSIII.lib(cpu_core.o)
    0x08001b90   0x08001b90   0x00000034   Code   RO          841    i.CPU_IntDisMeasStart  UCOSIII.lib(cpu_core.o)
    0x08001bc4   0x08001bc4   0x00000054   Code   RO          842    i.CPU_IntDisMeasStop  UCOSIII.lib(cpu_core.o)
    0x08001c18   0x08001c18   0x00000038   Code   RO          843    i.CPU_NameClr       UCOSIII.lib(cpu_core.o)
    0x08001c50   0x08001c50   0x00000008   Code   RO          845    i.CPU_NameInit      UCOSIII.lib(cpu_core.o)
    0x08001c58   0x08001c58   0x00000014   Code   RO          849    i.CPU_TS_Init       UCOSIII.lib(cpu_core.o)
    0x08001c6c   0x08001c6c   0x0000000c   Code   RO          851    i.CPU_TS_TmrFreqSet  UCOSIII.lib(cpu_core.o)
    0x08001c78   0x08001c78   0x00000034   Code   RO          351    i.CPU_TS_TmrInit    bsp.o
    0x08001cac   0x08001cac   0x0000000c   Code   RO          352    i.CPU_TS_TmrRd      bsp.o
    0x08001cb8   0x08001cb8   0x00000002   Code   RO          287    i.DebugMon_Handler  stm32f10x_it.o
    0x08001cba   0x08001cba   0x00000004   Code   RO          288    i.HardFault_Handler  stm32f10x_it.o
    0x08001cbe   0x08001cbe   0x00000002   PAD
    0x08001cc0   0x08001cc0   0x00000048   Code   RO          464    i.LCD_Clear         tftlcd.o
    0x08001d08   0x08001d08   0x0000004c   Code   RO          465    i.LCD_Display_Dir   tftlcd.o
    0x08001d54   0x08001d54   0x0000001c   Code   RO          466    i.LCD_DrawFRONT_COLOR  tftlcd.o
    0x08001d70   0x08001d70   0x000000a6   Code   RO          478    i.LCD_Set_Window    tftlcd.o
    0x08001e16   0x08001e16   0x00000002   PAD
    0x08001e18   0x08001e18   0x00000128   Code   RO          479    i.LCD_ShowChar      tftlcd.o
    0x08001f40   0x08001f40   0x000000e8   Code   RO          480    i.LCD_ShowFontHZ    tftlcd.o
    0x08002028   0x08002028   0x00000066   Code   RO          483    i.LCD_ShowString    tftlcd.o
    0x0800208e   0x0800208e   0x00000002   PAD
    0x08002090   0x08002090   0x0000000c   Code   RO          485    i.LCD_WriteCmd      tftlcd.o
    0x0800209c   0x0800209c   0x0000000c   Code   RO          487    i.LCD_WriteData     tftlcd.o
    0x080020a8   0x080020a8   0x0000000c   Code   RO          488    i.LCD_WriteData_Color  tftlcd.o
    0x080020b4   0x080020b4   0x00000058   Code   RO          413    i.LED_GPIO_Config   bsp_led.o
    0x0800210c   0x0800210c   0x00000024   Code   RO          414    i.LED_Init          bsp_led.o
    0x08002130   0x08002130   0x00000004   Code   RO          289    i.MemManage_Handler  stm32f10x_it.o
    0x08002134   0x08002134   0x00000012   Code   RO         1020    i.Mem_Clr           UCOSIII.lib(lib_mem.o)
    0x08002146   0x08002146   0x00000002   PAD
    0x08002148   0x08002148   0x00000048   Code   RO         1024    i.Mem_Init          UCOSIII.lib(lib_mem.o)
    0x08002190   0x08002190   0x00000062   Code   RO         1037    i.Mem_Set           UCOSIII.lib(lib_mem.o)
    0x080021f2   0x080021f2   0x00000002   Code   RO          290    i.NMI_Handler       stm32f10x_it.o
    0x080021f4   0x080021f4   0x00000002   Code   RO         1145    i.OSCfg_Init        UCOSIII.lib(os_cfg_app.o)
    0x080021f6   0x080021f6   0x00000002   PAD
    0x080021f8   0x080021f8   0x00000014   Code   RO         1685    i.OSIdleTaskHook    UCOSIII.lib(os_cpu_c.o)
    0x0800220c   0x0800220c   0x0000018c   Code   RO         1181    i.OSInit            UCOSIII.lib(os_core.o)
    0x08002398   0x08002398   0x00000038   Code   RO         1686    i.OSInitHook        UCOSIII.lib(os_cpu_c.o)
    0x080023d0   0x080023d0   0x000000e4   Code   RO         1183    i.OSIntExit         UCOSIII.lib(os_core.o)
    0x080024b4   0x080024b4   0x000000a8   Code   RO         1184    i.OSSched           UCOSIII.lib(os_core.o)
    0x0800255c   0x0800255c   0x0000007c   Code   RO         1185    i.OSSchedLock       UCOSIII.lib(os_core.o)
    0x080025d8   0x080025d8   0x0000006c   Code   RO         1186    i.OSSchedRoundRobinCfg  UCOSIII.lib(os_core.o)
    0x08002644   0x08002644   0x000000a0   Code   RO         1188    i.OSSchedUnlock     UCOSIII.lib(os_core.o)
    0x080026e4   0x080026e4   0x00000068   Code   RO         1189    i.OSStart           UCOSIII.lib(os_core.o)
    0x0800274c   0x0800274c   0x00000168   Code   RO         1431    i.OSStatReset       UCOSIII.lib(os_stat.o)
    0x080028b4   0x080028b4   0x00000100   Code   RO         1432    i.OSStatTaskCPUUsageInit  UCOSIII.lib(os_stat.o)
    0x080029b4   0x080029b4   0x00000014   Code   RO         1687    i.OSStatTaskHook    UCOSIII.lib(os_cpu_c.o)
    0x080029c8   0x080029c8   0x00000294   Code   RO         1462    i.OSTaskCreate      UCOSIII.lib(os_task.o)
    0x08002c5c   0x08002c5c   0x00000018   Code   RO         1688    i.OSTaskCreateHook  UCOSIII.lib(os_cpu_c.o)
    0x08002c74   0x08002c74   0x00000208   Code   RO         1463    i.OSTaskDel         UCOSIII.lib(os_task.o)
    0x08002e7c   0x08002e7c   0x00000018   Code   RO         1689    i.OSTaskDelHook     UCOSIII.lib(os_cpu_c.o)
    0x08002e94   0x08002e94   0x0000005c   Code   RO         1468    i.OSTaskRegGet      UCOSIII.lib(os_task.o)
    0x08002ef0   0x08002ef0   0x0000005c   Code   RO         1470    i.OSTaskRegSet      UCOSIII.lib(os_task.o)
    0x08002f4c   0x08002f4c   0x00000088   Code   RO         1471    i.OSTaskResume      UCOSIII.lib(os_task.o)
    0x08002fd4   0x08002fd4   0x00000018   Code   RO         1690    i.OSTaskReturnHook  UCOSIII.lib(os_cpu_c.o)
    0x08002fec   0x08002fec   0x00000250   Code   RO         1472    i.OSTaskSemPend     UCOSIII.lib(os_task.o)
    0x0800323c   0x0800323c   0x000000e4   Code   RO         1476    i.OSTaskStkChk      UCOSIII.lib(os_task.o)
    0x08003320   0x08003320   0x000000c0   Code   RO         1691    i.OSTaskStkInit     UCOSIII.lib(os_cpu_c.o)
    0x080033e0   0x080033e0   0x00000060   Code   RO         1477    i.OSTaskSuspend     UCOSIII.lib(os_task.o)
    0x08003440   0x08003440   0x000000a4   Code   RO         1692    i.OSTaskSwHook      UCOSIII.lib(os_cpu_c.o)
    0x080034e4   0x080034e4   0x00000150   Code   RO         1629    i.OSTimeDly         UCOSIII.lib(os_time.o)
    0x08003634   0x08003634   0x00000044   Code   RO         1634    i.OSTimeTick        UCOSIII.lib(os_time.o)
    0x08003678   0x08003678   0x00000014   Code   RO         1693    i.OSTimeTickHook    UCOSIII.lib(os_cpu_c.o)
    0x0800368c   0x0800368c   0x00000040   Code   RO         1694    i.OS_CPU_SysTickHandler  UCOSIII.lib(os_cpu_c.o)
    0x080036cc   0x080036cc   0x00000030   Code   RO         1695    i.OS_CPU_SysTickInit  UCOSIII.lib(os_cpu_c.o)
    0x080036fc   0x080036fc   0x000001b4   Code   RO         1919    i.OS_Dbg_Init       UCOSIII.lib(os_dbg.o)
    0x080038b0   0x080038b0   0x00000018   Code   RO         1944    i.OS_FlagInit       UCOSIII.lib(os_flag.o)
    0x080038c8   0x080038c8   0x0000027c   Code   RO         1945    i.OS_FlagPost       UCOSIII.lib(os_flag.o)
    0x08003b44   0x08003b44   0x00000056   Code   RO         1946    i.OS_FlagTaskRdy    UCOSIII.lib(os_flag.o)
    0x08003b9a   0x08003b9a   0x00000002   PAD
    0x08003b9c   0x08003b9c   0x0000004c   Code   RO         1191    i.OS_IdleTask       UCOSIII.lib(os_core.o)
    0x08003be8   0x08003be8   0x00000070   Code   RO         1192    i.OS_IdleTaskInit   UCOSIII.lib(os_core.o)
    0x08003c58   0x08003c58   0x00000104   Code   RO         2018    i.OS_IntQPost       UCOSIII.lib(os_int.o)
    0x08003d5c   0x08003d5c   0x000001a4   Code   RO         2019    i.OS_IntQRePost     UCOSIII.lib(os_int.o)
    0x08003f00   0x08003f00   0x000000c8   Code   RO         2020    i.OS_IntQTask       UCOSIII.lib(os_int.o)
    0x08003fc8   0x08003fc8   0x00000128   Code   RO         2021    i.OS_IntQTaskInit   UCOSIII.lib(os_int.o)
    0x080040f0   0x080040f0   0x00000018   Code   RO         2052    i.OS_MemInit        UCOSIII.lib(os_mem.o)
    0x08004108   0x08004108   0x0000007c   Code   RO         2084    i.OS_MsgPoolInit    UCOSIII.lib(os_msg.o)
    0x08004184   0x08004184   0x00000044   Code   RO         2085    i.OS_MsgQFreeAll    UCOSIII.lib(os_msg.o)
    0x080041c8   0x080041c8   0x0000000e   Code   RO         2087    i.OS_MsgQInit       UCOSIII.lib(os_msg.o)
    0x080041d6   0x080041d6   0x00000002   PAD
    0x080041d8   0x080041d8   0x00000104   Code   RO         2088    i.OS_MsgQPut        UCOSIII.lib(os_msg.o)
    0x080042dc   0x080042dc   0x00000018   Code   RO         2128    i.OS_MutexInit      UCOSIII.lib(os_mutex.o)
    0x080042f4   0x080042f4   0x00000068   Code   RO         1193    i.OS_Pend           UCOSIII.lib(os_core.o)
    0x0800435c   0x0800435c   0x00000026   Code   RO         1196    i.OS_PendDataInit   UCOSIII.lib(os_core.o)
    0x08004382   0x08004382   0x00000002   PAD
    0x08004384   0x08004384   0x0000005c   Code   RO         1197    i.OS_PendDbgNameAdd  UCOSIII.lib(os_core.o)
    0x080043e0   0x080043e0   0x00000024   Code   RO         1198    i.OS_PendDbgNameRemove  UCOSIII.lib(os_core.o)
    0x08004404   0x08004404   0x00000066   Code   RO         1202    i.OS_PendListInsertPrio  UCOSIII.lib(os_core.o)
    0x0800446a   0x0800446a   0x00000030   Code   RO         1203    i.OS_PendListRemove  UCOSIII.lib(os_core.o)
    0x0800449a   0x0800449a   0x00000042   Code   RO         1204    i.OS_PendListRemove1  UCOSIII.lib(os_core.o)
    0x080044dc   0x080044dc   0x000000c0   Code   RO         1207    i.OS_Post           UCOSIII.lib(os_core.o)
    0x0800459c   0x0800459c   0x0000002a   Code   RO         1208    i.OS_Post1          UCOSIII.lib(os_core.o)
    0x080045c6   0x080045c6   0x00000002   PAD
    0x080045c8   0x080045c8   0x00000028   Code   RO         2180    i.OS_PrioGetHighest  UCOSIII.lib(os_prio.o)
    0x080045f0   0x080045f0   0x00000018   Code   RO         2181    i.OS_PrioInit       UCOSIII.lib(os_prio.o)
    0x08004608   0x08004608   0x00000024   Code   RO         2182    i.OS_PrioInsert     UCOSIII.lib(os_prio.o)
    0x0800462c   0x0800462c   0x00000024   Code   RO         2183    i.OS_PrioRemove     UCOSIII.lib(os_prio.o)
    0x08004650   0x08004650   0x00000018   Code   RO         2226    i.OS_QInit          UCOSIII.lib(os_q.o)
    0x08004668   0x08004668   0x00000188   Code   RO         2227    i.OS_QPost          UCOSIII.lib(os_q.o)
    0x080047f0   0x080047f0   0x00000024   Code   RO         1209    i.OS_RdyListInit    UCOSIII.lib(os_core.o)
    0x08004814   0x08004814   0x0000002c   Code   RO         1210    i.OS_RdyListInsert  UCOSIII.lib(os_core.o)
    0x08004840   0x08004840   0x00000040   Code   RO         1211    i.OS_RdyListInsertHead  UCOSIII.lib(os_core.o)
    0x08004880   0x08004880   0x0000003c   Code   RO         1212    i.OS_RdyListInsertTail  UCOSIII.lib(os_core.o)
    0x080048bc   0x080048bc   0x00000044   Code   RO         1213    i.OS_RdyListMoveHeadToTail  UCOSIII.lib(os_core.o)
    0x08004900   0x08004900   0x0000005c   Code   RO         1214    i.OS_RdyListRemove  UCOSIII.lib(os_core.o)
    0x0800495c   0x0800495c   0x0000005c   Code   RO         1215    i.OS_Sched0         UCOSIII.lib(os_core.o)
    0x080049b8   0x080049b8   0x0000001c   Code   RO         1216    i.OS_SchedLockTimeMeasStart  UCOSIII.lib(os_core.o)
    0x080049d4   0x080049d4   0x0000003c   Code   RO         1217    i.OS_SchedLockTimeMeasStop  UCOSIII.lib(os_core.o)
    0x08004a10   0x08004a10   0x000000ec   Code   RO         1218    i.OS_SchedRoundRobin  UCOSIII.lib(os_core.o)
    0x08004afc   0x08004afc   0x00000018   Code   RO         2298    i.OS_SemInit        UCOSIII.lib(os_sem.o)
    0x08004b14   0x08004b14   0x00000198   Code   RO         2299    i.OS_SemPost        UCOSIII.lib(os_sem.o)
    0x08004cac   0x08004cac   0x000003b8   Code   RO         1433    i.OS_StatTask       UCOSIII.lib(os_stat.o)
    0x08005064   0x08005064   0x000000cc   Code   RO         1434    i.OS_StatTaskInit   UCOSIII.lib(os_stat.o)
    0x08005130   0x08005130   0x00000038   Code   RO         1219    i.OS_TaskBlock      UCOSIII.lib(os_core.o)
    0x08005168   0x08005168   0x00000030   Code   RO         1479    i.OS_TaskDbgListAdd  UCOSIII.lib(os_task.o)
    0x08005198   0x08005198   0x00000044   Code   RO         1480    i.OS_TaskDbgListRemove  UCOSIII.lib(os_task.o)
    0x080051dc   0x080051dc   0x00000020   Code   RO         1481    i.OS_TaskInit       UCOSIII.lib(os_task.o)
    0x080051fc   0x080051fc   0x000000d0   Code   RO         1482    i.OS_TaskInitTCB    UCOSIII.lib(os_task.o)
    0x080052cc   0x080052cc   0x0000026c   Code   RO         1483    i.OS_TaskQPost      UCOSIII.lib(os_task.o)
    0x08005538   0x08005538   0x0000001c   Code   RO         1220    i.OS_TaskRdy        UCOSIII.lib(os_core.o)
    0x08005554   0x08005554   0x0000017c   Code   RO         1484    i.OS_TaskResume     UCOSIII.lib(os_task.o)
    0x080056d0   0x080056d0   0x00000018   Code   RO         1485    i.OS_TaskReturn     UCOSIII.lib(os_task.o)
    0x080056e8   0x080056e8   0x000005a8   Code   RO         1486    i.OS_TaskSemPost    UCOSIII.lib(os_task.o)
    0x08005c90   0x08005c90   0x00000190   Code   RO         1487    i.OS_TaskSuspend    UCOSIII.lib(os_task.o)
    0x08005e20   0x08005e20   0x00000028   Code   RO         2361    i.OS_TickListInit   UCOSIII.lib(os_tick.o)
    0x08005e48   0x08005e48   0x000001bc   Code   RO         2362    i.OS_TickListInsert  UCOSIII.lib(os_tick.o)
    0x08006004   0x08006004   0x00000038   Code   RO         2363    i.OS_TickListRemove  UCOSIII.lib(os_tick.o)
    0x0800603c   0x0800603c   0x00000024   Code   RO         2364    i.OS_TickListResetPeak  UCOSIII.lib(os_tick.o)
    0x08006060   0x08006060   0x00000220   Code   RO         2365    i.OS_TickListUpdate  UCOSIII.lib(os_tick.o)
    0x08006280   0x08006280   0x0000002c   Code   RO         2366    i.OS_TickTask       UCOSIII.lib(os_tick.o)
    0x080062ac   0x080062ac   0x000000b8   Code   RO         2367    i.OS_TickTaskInit   UCOSIII.lib(os_tick.o)
    0x08006364   0x08006364   0x00000128   Code   RO         2418    i.OS_TmrInit        UCOSIII.lib(os_tmr.o)
    0x0800648c   0x0800648c   0x000000d0   Code   RO         2419    i.OS_TmrLink        UCOSIII.lib(os_tmr.o)
    0x0800655c   0x0800655c   0x00000024   Code   RO         2420    i.OS_TmrResetPeak   UCOSIII.lib(os_tmr.o)
    0x08006580   0x08006580   0x000000c0   Code   RO         2421    i.OS_TmrTask        UCOSIII.lib(os_tmr.o)
    0x08006640   0x08006640   0x00000050   Code   RO         2422    i.OS_TmrUnlink      UCOSIII.lib(os_tmr.o)
    0x08006690   0x08006690   0x00000002   Code   RO          292    i.SVC_Handler       stm32f10x_it.o
    0x08006692   0x08006692   0x0000007e   Code   RO          489    i.TFTLCD_FSMC_Init  tftlcd.o
    0x08006710   0x08006710   0x00000070   Code   RO          490    i.TFTLCD_GPIO_Init  tftlcd.o
    0x08006780   0x08006780   0x0000024c   Code   RO          491    i.TFTLCD_Init       tftlcd.o
    0x080069cc   0x080069cc   0x00000080   Code   RO          385    i.USARTx_Config     bsp_usart1.o
    0x08006a4c   0x08006a4c   0x00000004   Code   RO          294    i.UsageFault_Handler  stm32f10x_it.o
    0x08006a50   0x08006a50   0x00000010   Code   RO         2611    i.__0printf$bare    mc_w.l(printfb.o)
    0x08006a60   0x08006a60   0x0000000e   Code   RO         2912    i.__scatterload_copy  mc_w.l(handlers.o)
    0x08006a6e   0x08006a6e   0x00000002   Code   RO         2913    i.__scatterload_null  mc_w.l(handlers.o)
    0x08006a70   0x08006a70   0x0000000e   Code   RO         2914    i.__scatterload_zeroinit  mc_w.l(handlers.o)
    0x08006a7e   0x08006a7e   0x00000022   Code   RO         2618    i._printf_core      mc_w.l(printfb.o)
    0x08006aa0   0x08006aa0   0x0000001c   Code   RO          492    i.delay_ms          tftlcd.o
    0x08006abc   0x08006abc   0x00000024   Code   RO          387    i.fputc             bsp_usart1.o
    0x08006ae0   0x08006ae0   0x00000060   Code   RO           14    i.main              main.o
    0x08006b40   0x08006b40   0x00001be6   Data   RO          493    .constdata          tftlcd.o
    0x08008726   0x08008726   0x00000002   PAD
    0x08008728   0x08008728   0x000000a4   Data   RO         1147    .constdata          UCOSIII.lib(os_cfg_app.o)
    0x080087cc   0x080087cc   0x0000016c   Data   RO         1920    .constdata          UCOSIII.lib(os_dbg.o)
    0x08008938   0x08008938   0x00000020   Data   RO         2910    Region$$Table       anon$$obj.o


    Execution Region RW_IRAM1 (Exec base: 0x20000000, Load base: 0x08008958, Size: 0x0000a8b0, Max: 0x00010000, ABSOLUTE, COMPRESSED[0x0000001c])

    Exec Addr    Load Addr    Size         Type   Attr      Idx    E Section Name        Object

    0x20000000   COMPRESSED   0x00000004   Data   RW           16    .data               main.o
    0x20000004   COMPRESSED   0x0000000c   Data   RW          494    .data               tftlcd.o
    0x20000010   COMPRESSED   0x00000014   Data   RW          655    .data               stm32f10x_hd.lib(system_stm32f10x.o)
    0x20000024   COMPRESSED   0x00000014   Data   RW          790    .data               stm32f10x_hd.lib(stm32f10x_rcc.o)
    0x20000038   COMPRESSED   0x0000001c   Data   RW          855    .data               UCOSIII.lib(cpu_core.o)
    0x20000054   COMPRESSED   0x00000004   Data   RW         1039    .data               UCOSIII.lib(lib_mem.o)
    0x20000058   COMPRESSED   0x000000d0   Data   RW         1672    .data               UCOSIII.lib(os_var.o)
    0x20000128   COMPRESSED   0x00000004   Data   RW         1696    .data               UCOSIII.lib(os_cpu_c.o)
    0x2000012c   COMPRESSED   0x00000004   Data   RW         2184    .data               UCOSIII.lib(os_prio.o)
    0x20000130   COMPRESSED   0x00000004   Data   RW         2884    .data               mc_w.l(stdout.o)
    0x20000134        -       0x00001d20   Zero   RW           15    .bss                main.o
    0x20001e54        -       0x00000010   Zero   RW          853    .bss                UCOSIII.lib(cpu_core.o)
    0x20001e64        -       0x00006c48   Zero   RW         1038    .bss                UCOSIII.lib(lib_mem.o)
    0x20008aac        -       0x00001490   Zero   RW         1146    .bss                UCOSIII.lib(os_cfg_app.o)
    0x20009f3c        -       0x00000574   Zero   RW         1671    .bss                UCOSIII.lib(os_var.o)
    0x2000a4b0        -       0x00000400   Zero   RW            1    STACK               startup_stm32f10x_hd.o


==============================================================================

Image component sizes


      Code (inc. data)   RO Data    RW Data    ZI Data      Debug   Object Name

       132         32          0          0          0       2221   bsp.o
       124         10          0          0          0       1103   bsp_led.o
       164         12          0          0          0       2576   bsp_usart1.o
      1248        354          0          4       7456     272794   main.o
        36          8        304          0       1024        880   startup_stm32f10x_hd.o
        22          0          0          0          0       3587   stm32f10x_it.o
      1862         86       7142         12          0      12672   tftlcd.o

    ----------------------------------------------------------------------
      3594        502       7480         16       8480     295833   Object Totals
         0          0         32          0          0          0   (incl. Generated)
         6          0          2          0          0          0   (incl. Padding)

    ----------------------------------------------------------------------

      Code (inc. data)   RO Data    RW Data    ZI Data      Debug   Library Member Name

        52          0          0          0          0        368   cpu_a.o
       540         98          0         28         16      28417   cpu_core.o
       188         18          0          4      27720      23347   lib_mem.o
         2          0        164          0       5264      21914   os_cfg_app.o
      3060        414          0          0          0      40066   os_core.o
       132         32          0          0          0        412   os_cpu_a.o
       656         68          0          4          0       8625   os_cpu_c.o
       436        286        364          0          0       4901   os_dbg.o
       746         28          0          0          0       3225   os_flag.o
      1176        204          0          0          0       3654   os_int.o
        24         10          0          0          0        937   os_mem.o
       466         26          0          0          0       3385   os_msg.o
        24         10          0          0          0        939   os_mutex.o
       136         16          0          4          0       3018   os_prio.o
       416         20          0          0          0       2302   os_q.o
       432         14          0          0          0       2326   os_sem.o
      1772        214          0          0          0       4215   os_stat.o
      5644        272          0          0          0      15986   os_task.o
      1348        124          0          0          0       5721   os_tick.o
       404         28          0          0          0       1849   os_time.o
       812        134          0          0          0       4332   os_tmr.o
         0          0          0        208       1396      19553   os_var.o
        86          0          0          0          0          0   __dczerorl2.o
         0          0          0          0          0          0   entry.o
         0          0          0          0          0          0   entry10a.o
         0          0          0          0          0          0   entry11a.o
         8          4          0          0          0          0   entry2.o
         4          0          0          0          0          0   entry5.o
         0          0          0          0          0          0   entry7b.o
         0          0          0          0          0          0   entry8b.o
         8          4          0          0          0          0   entry9a.o
        30          0          0          0          0          0   handlers.o
        36          8          0          0          0         68   init.o
        50          8          0          0          0        152   printfb.o
         0          0          0          4          0          0   stdout.o
      1560         54          0          0          0       5419   stm32f10x_fsmc.o
       856         40          0          0          0     208913   stm32f10x_gpio.o
       932         44          0         20          0       8904   stm32f10x_rcc.o
      1032         22          0          0          0       8448   stm32f10x_usart.o
       476         36          0         20          0      36147   system_stm32f10x.o

    ----------------------------------------------------------------------
     23558       2236        528        292      34396     467543   Library Totals
        14          0          0          0          0          0   (incl. Padding)

    ----------------------------------------------------------------------

      Code (inc. data)   RO Data    RW Data    ZI Data      Debug   Library Name

     18466       2016        528        248      34396     199492   UCOSIII.lib
       222         24          0          4          0        220   mc_w.l
      4856        196          0         40          0     267831   stm32f10x_hd.lib

    ----------------------------------------------------------------------
     23558       2236        528        292      34396     467543   Library Totals

    ----------------------------------------------------------------------

==============================================================================


      Code (inc. data)   RO Data    RW Data    ZI Data      Debug   

     27152       2738       8008        308      42876     755340   Grand Totals
     27152       2738       8008         28      42876     755340   ELF Image Totals (compressed)
     27152       2738       8008         28          0          0   ROM Totals

==============================================================================

    Total RO  Size (Code + RO Data)                35160 (  34.34kB)
    Total RW  Size (RW Data + ZI Data)             43184 (  42.17kB)
    Total ROM Size (Code + RO Data + RW Data)      35188 (  34.36kB)

==============================================================================

