Component: ARM Compiler 5.06 update 6 (build 750) Tool: armlink [4d35ed]

==============================================================================

Section Cross References

    startup_stm32f10x_hd.o(RESET) refers to startup_stm32f10x_hd.o(STACK) for __initial_sp
    startup_stm32f10x_hd.o(RESET) refers to startup_stm32f10x_hd.o(.text) for Reset_Handler
    startup_stm32f10x_hd.o(RESET) refers to stm32f10x_it.o(i.NMI_Handler) for NMI_Handler
    startup_stm32f10x_hd.o(RESET) refers to stm32f10x_it.o(i.HardFault_Handler) for HardFault_Handler
    startup_stm32f10x_hd.o(RESET) refers to stm32f10x_it.o(i.MemManage_Handler) for MemManage_Handler
    startup_stm32f10x_hd.o(RESET) refers to stm32f10x_it.o(i.BusFault_Handler) for BusFault_Handler
    startup_stm32f10x_hd.o(RESET) refers to stm32f10x_it.o(i.UsageFault_Handler) for UsageFault_Handler
    startup_stm32f10x_hd.o(RESET) refers to stm32f10x_it.o(i.SVC_Handler) for SVC_Handler
    startup_stm32f10x_hd.o(RESET) refers to stm32f10x_it.o(i.DebugMon_Handler) for DebugMon_Handler
    startup_stm32f10x_hd.o(RESET) refers to os_cpu_a.o(CODE) for OS_CPU_PendSVHandler
    startup_stm32f10x_hd.o(RESET) refers to os_cpu_c.o(i.OS_CPU_SysTickHandler) for OS_CPU_SysTickHandler
    startup_stm32f10x_hd.o(RESET) refers to stm32f10x_it.o(i.EXTI0_IRQHandler) for EXTI0_IRQHandler
    startup_stm32f10x_hd.o(RESET) refers to stm32f10x_it.o(i.USART1_IRQHandler) for USART1_IRQHandler
    startup_stm32f10x_hd.o(.text) refers to system_stm32f10x.o(.text) for SystemInit
    startup_stm32f10x_hd.o(.text) refers to entry.o(.ARM.Collect$$$$00000000) for __main
    main.o(i.AppTaskKey) refers to bsp.o(i.BSP_CPU_ClkFreq) for BSP_CPU_ClkFreq
    main.o(i.AppTaskKey) refers to os_task.o(i.OSTaskSemPend) for OSTaskSemPend
    main.o(i.AppTaskKey) refers to cpu_core.o(i.CPU_IntDisMeasMaxGet) for CPU_IntDisMeasMaxGet
==============================================================================

Removing Unused input sections from the image.

    Removing startup_stm32f10x_hd.o(HEAP), (512 bytes).
    Removing os_app_hooks.o(i.App_OS_ClrAllHooks), (100 bytes).
    Removing os_app_hooks.o(i.App_OS_IdleTaskHook), (2 bytes).
    Removing os_app_hooks.o(i.App_OS_InitHook), (2 bytes).
    Removing os_app_hooks.o(i.App_OS_SetAllHooks), (140 bytes).
    Removing os_app_hooks.o(i.App_OS_StatTaskHook), (2 bytes).
    Removing os_app_hooks.o(i.App_OS_TaskCreateHook), (2 bytes).
    Removing os_app_hooks.o(i.App_OS_TaskDelHook), (2 bytes).
    Removing os_app_hooks.o(i.App_OS_TaskReturnHook), (2 bytes).
    Removing os_app_hooks.o(i.App_OS_TaskSwHook), (2 bytes).
    Removing os_app_hooks.o(i.App_OS_TimeTickHook), (2 bytes).
    Removing stm32f10x_it.o(i.PendSV_Handler), (2 bytes).
    Removing stm32f10x_it.o(i.SysTick_Handler), (2 bytes).
    Removing bsp.o(.data), (4 bytes).
    Removing bsp_usart1.o(i.fgetc), (32 bytes).
    Removing bsp_key.o(i.Key1_Config), (36 bytes).
    Removing bsp_key.o(i.Key2_Config), (40 bytes).
    Removing bsp_key.o(i.Key_Initial), (12 bytes).
    Removing bsp_key.o(i.Key_ReadStatus), (34 bytes).
    Removing bsp_key.o(i.Key_Scan), (88 bytes).
    Removing cpu_core.o(i.CPU_CntLeadZeros08), (18 bytes).
    Removing cpu_core.o(i.CPU_CntLeadZeros16), (18 bytes).
    Removing cpu_core.o(i.CPU_CntLeadZeros32), (18 bytes).
    Removing cpu_core.o(i.CPU_CntLeadZeros64), (192 bytes).
    Removing cpu_core.o(i.CPU_CntTrailZeros08), (22 bytes).
    Removing cpu_core.o(i.CPU_CntTrailZeros16), (22 bytes).
    Removing cpu_core.o(i.CPU_CntTrailZeros32), (22 bytes).
    Removing cpu_core.o(i.CPU_CntTrailZeros64), (62 bytes).
    Removing cpu_core.o(i.CPU_NameGet), (84 bytes).
    Removing cpu_core.o(i.CPU_NameSet), (108 bytes).
    Removing cpu_core.o(i.CPU_SW_Exception), (4 bytes).
    Removing cpu_core.o(i.CPU_TS_Get32), (12 bytes).
    Removing cpu_core.o(i.CPU_TS_TmrFreqGet), (36 bytes).
    Removing cpu_core.o(i.CPU_TS_Update), (2 bytes).
    Removing cpu_core.o(.constdata), (256 bytes).
    Removing lib_mem.o(i.Mem_Cmp), (192 bytes).
    Removing lib_mem.o(i.Mem_HeapAlloc), (264 bytes).
    Removing lib_mem.o(i.Mem_HeapGetSizeRem), (28 bytes).
    Removing lib_mem.o(i.Mem_Move), (204 bytes).
    Removing lib_mem.o(i.Mem_PoolBlkFree), (352 bytes).
    Removing lib_mem.o(i.Mem_PoolBlkGet), (252 bytes).
    Removing lib_mem.o(i.Mem_PoolBlkGetNbrAvail), (152 bytes).
    Removing lib_mem.o(i.Mem_PoolBlkGetUsedAtIx), (240 bytes).
    Removing lib_mem.o(i.Mem_PoolBlkIsValidAddr), (102 bytes).
    Removing lib_mem.o(i.Mem_PoolBlkIxGet), (348 bytes).
    Removing lib_mem.o(i.Mem_PoolClr), (80 bytes).
    Removing lib_mem.o(i.Mem_PoolCreate), (1124 bytes).
    Removing lib_mem.o(i.Mem_SegAlloc), (80 bytes).
    Removing lib_mem.o(i.Mem_SegCalcTotSize), (164 bytes).
    Removing lib_mem.o(i.Mem_SegGetSizeRem), (244 bytes).
    Removing os_core.o(i.OSSchedRoundRobinYield), (200 bytes).
    Removing os_core.o(i.OSVersion), (12 bytes).
    Removing os_core.o(i.OS_PendAbort), (166 bytes).
    Removing os_core.o(i.OS_PendAbort1), (36 bytes).
    Removing os_core.o(i.OS_PendListChangePrio), (70 bytes).
    Removing os_core.o(i.OS_PendListInit), (10 bytes).
    Removing os_core.o(i.OS_PendListInsertHead), (32 bytes).
    Removing os_core.o(i.OS_PendObjDel), (162 bytes).
    Removing os_core.o(i.OS_PendObjDel1), (36 bytes).
    Removing os_task.o(i.OSTaskChangePrio), (500 bytes).
    Removing os_task.o(i.OSTaskQFlush), (280 bytes).
    Removing os_task.o(i.OSTaskQPendAbort), (300 bytes).
    Removing os_task.o(i.OSTaskRegGet), (92 bytes).
    Removing os_task.o(i.OSTaskRegGetID), (100 bytes).
    Removing os_task.o(i.OSTaskRegSet), (92 bytes).
    Removing os_task.o(i.OSTaskSemPendAbort), (336 bytes).
    Removing os_task.o(i.OSTaskSemSet), (96 bytes).
    Removing os_task.o(i.OSTaskTimeQuantaSet), (116 bytes).
    Removing os_time.o(i.OSTimeDlyHMSM), (556 bytes).
    Removing os_time.o(i.OSTimeDlyResume), (564 bytes).
    Removing os_time.o(i.OSTimeGet), (60 bytes).
    Removing os_time.o(i.OSTimeSet), (60 bytes).
    Removing lib_str.o(i.Str_Cat), (24 bytes).
    Removing lib_str.o(i.Str_Cat_N), (90 bytes).
    Removing lib_str.o(i.Str_Char), (24 bytes).
    Removing lib_str.o(i.Str_Char_Last), (24 bytes).
    Removing lib_str.o(i.Str_Char_Last_N), (76 bytes).
    Removing lib_str.o(i.Str_Char_N), (74 bytes).
    Removing lib_str.o(i.Str_Char_Replace), (28 bytes).
    Removing lib_str.o(i.Str_Char_Replace_N), (52 bytes).
    Removing lib_str.o(i.Str_Cmp), (24 bytes).
    Removing lib_str.o(i.Str_CmpIgnoreCase), (24 bytes).
    Removing lib_str.o(i.Str_CmpIgnoreCase_N), (264 bytes).
    Removing lib_str.o(i.Str_Cmp_N), (156 bytes).
    Removing lib_str.o(i.Str_Copy), (24 bytes).
    Removing lib_str.o(i.Str_Copy_N), (70 bytes).
    Removing lib_str.o(i.Str_FmtNbr_Int32), (474 bytes).
    Removing lib_str.o(i.Str_FmtNbr_Int32S), (62 bytes).
    Removing lib_str.o(i.Str_FmtNbr_Int32U), (46 bytes).
    Removing lib_str.o(i.Str_Len), (20 bytes).
    Removing lib_str.o(i.Str_Len_N), (28 bytes).
    Removing lib_str.o(i.Str_ParseNbr_Int32), (452 bytes).
    Removing lib_str.o(i.Str_ParseNbr_Int32S), (74 bytes).
    Removing lib_str.o(i.Str_ParseNbr_Int32U), (30 bytes).
    Removing lib_str.o(i.Str_Str), (24 bytes).
    Removing lib_str.o(i.Str_Str_N), (182 bytes).
    Removing lib_str.o(.constdata), (148 bytes).
    Removing lib_mem_a.o(.text), (544 bytes).
    Removing os_flag.o(i.OSFlagCreate), (228 bytes).
    Removing os_flag.o(i.OSFlagDel), (712 bytes).
    Removing os_flag.o(i.OSFlagPend), (1680 bytes).
    Removing os_flag.o(i.OSFlagPendAbort), (348 bytes).
    Removing os_flag.o(i.OSFlagPendGetFlagsRdy), (84 bytes).
    Removing os_flag.o(i.OSFlagPost), (156 bytes).
    Removing os_flag.o(i.OS_FlagBlock), (64 bytes).
    Removing os_flag.o(i.OS_FlagClr), (40 bytes).
    Removing os_flag.o(i.OS_FlagDbgListAdd), (48 bytes).
    Removing os_flag.o(i.OS_FlagDbgListRemove), (48 bytes).
    Removing os_mutex.o(i.OSMutexCreate), (232 bytes).
    Removing os_mutex.o(i.OSMutexDel), (940 bytes).
    Removing os_mutex.o(i.OSMutexPend), (808 bytes).
    Removing os_mutex.o(i.OSMutexPendAbort), (348 bytes).
    Removing os_mutex.o(i.OSMutexPost), (672 bytes).
    Removing os_mutex.o(i.OS_MutexClr), (52 bytes).
    Removing os_mutex.o(i.OS_MutexDbgListAdd), (48 bytes).
    Removing os_mutex.o(i.OS_MutexDbgListRemove), (48 bytes).
    Removing os_q.o(i.OSQCreate), (240 bytes).
    Removing os_q.o(i.OSQDel), (432 bytes).
    Removing os_q.o(i.OSQFlush), (268 bytes).
    Removing os_q.o(i.OSQPend), (576 bytes).
    Removing os_q.o(i.OSQPendAbort), (348 bytes).
    Removing os_q.o(i.OSQPost), (184 bytes).
    Removing os_q.o(i.OS_QClr), (48 bytes).
    Removing os_q.o(i.OS_QDbgListAdd), (48 bytes).
    Removing os_q.o(i.OS_QDbgListRemove), (48 bytes).
    Removing os_sem.o(i.OSSemCreate), (228 bytes).
    Removing os_sem.o(i.OSSemDel), (432 bytes).
    Removing os_sem.o(i.OSSemPend), (540 bytes).
    Removing os_sem.o(i.OSSemPendAbort), (348 bytes).
    Removing os_sem.o(i.OSSemPost), (152 bytes).
    Removing os_sem.o(i.OSSemSet), (136 bytes).
    Removing os_sem.o(i.OS_SemClr), (40 bytes).
    Removing os_sem.o(i.OS_SemDbgListAdd), (48 bytes).
    Removing os_sem.o(i.OS_SemDbgListRemove), (48 bytes).
    Removing os_tmr.o(i.OSTmrCreate), (304 bytes).
    Removing os_tmr.o(i.OSTmrDel), (196 bytes).
    Removing os_tmr.o(i.OSTmrRemainGet), (200 bytes).
    Removing os_tmr.o(i.OSTmrStart), (180 bytes).
    Removing os_tmr.o(i.OSTmrStateGet), (152 bytes).
    Removing os_tmr.o(i.OSTmrStop), (256 bytes).
    Removing os_tmr.o(i.OS_TmrClr), (48 bytes).
    Removing os_tmr.o(i.OS_TmrDbgListAdd), (40 bytes).
    Removing os_tmr.o(i.OS_TmrDbgListRemove), (48 bytes).
    Removing lib_ascii.o(i.ASCII_Cmp), (38 bytes).
    Removing lib_ascii.o(i.ASCII_IsAlpha), (48 bytes).
    Removing lib_ascii.o(i.ASCII_IsAlphaNum), (76 bytes).
    Removing lib_ascii.o(i.ASCII_IsBlank), (20 bytes).
    Removing lib_ascii.o(i.ASCII_IsCtrl), (26 bytes).
    Removing lib_ascii.o(i.ASCII_IsDig), (20 bytes).
    Removing lib_ascii.o(i.ASCII_IsDigHex), (36 bytes).
    Removing lib_ascii.o(i.ASCII_IsDigOct), (20 bytes).
    Removing lib_ascii.o(i.ASCII_IsGraph), (20 bytes).
    Removing lib_ascii.o(i.ASCII_IsLower), (20 bytes).
    Removing lib_ascii.o(i.ASCII_IsPrint), (20 bytes).
    Removing lib_ascii.o(i.ASCII_IsPunct), (134 bytes).
    Removing lib_ascii.o(i.ASCII_IsSpace), (36 bytes).
    Removing lib_ascii.o(i.ASCII_IsUpper), (20 bytes).
    Removing lib_ascii.o(i.ASCII_ToLower), (32 bytes).
    Removing lib_ascii.o(i.ASCII_ToUpper), (32 bytes).
    Removing dadd.o(.text), (334 bytes).
    Removing dmul.o(.text), (228 bytes).
    Removing ddiv.o(.text), (222 bytes).
    Removing dfixul.o(.text), (48 bytes).
    Removing cdrcmple.o(.text), (48 bytes).
    Removing depilogue.o(.text), (186 bytes).

165 unused section(s) (total 26442 bytes) removed from the image.
