:020000040800F2
:1000000088060020010B0008090B00080B0B0008F4
:100010000D0B00080F0B0008110B0008000000007A
:10002000000000000000000000000000130B0008AA
:10003000150B000800000000170B0008190B000842
:100040001B0B00081B0B00081B0B00081B0B0008F8
:100050001B0B00081B0B00081B0B00081B0B0008E8
:100060001B0B00081B0B00081B0B00081B0B0008D8
:100070001B0B00081B0B00081B0B00081B0B0008C8
:100080001B0B00081B0B00081B0B00081B0B0008B8
:100090001B0B00081B0B00081B0B00081B0B0008A8
:1000A0001B0B00081B0B00081B0B00081B0B000898
:1000B0001B0B00081B0B00081B0B00081B0B000888
:1000C0001B0B00081B0B00081B0B00081B0B000878
:1000D0001B0B00081B0B00081B0B00081B0B000868
:1000E0001B0B00081B0B00081B0B00081B0B000858
:1000F0001B0B00081B0B00081B0B00081B0B000848
:100100001B0B00081B0B00081B0B00081B0B000837
:100110001B0B00081B0B00081B0B00081B0B000827
:100120001B0B00081B0B00081B0B00081B0B000817
:1001300000F002F800F03AF80AA090E8000C8244BF
:100140008344AAF10107DA4501D100F02FF8AFF29C
:10015000090EBAE80F0013F0010F18BFFB1A43F0A5
:1001600001031847980A0000B80A0000103A24BF9B
:1001700078C878C1FAD8520724BF30C830C144BF0C
:1001800004680C607047000000230024002500264E
:10019000103A28BF78C1FBD8520728BF30C148BFEA
:1001A0000B6070471FB51FBD10B510BD00F07AFC85
:1001B0001146FFF7F7FF00F0FDFC00F098FC03B4D8
:1001C000FFF7F2FF03BC00F0C3FC00000CB50020F9
:1001D000019000906B48006840F4803069490860E5
:1001E00000BF6848006800F4003000900198401C8F
:1001F0000190009818B90198B0F5A06FF1D161484D
:10020000006810F4003F02D00120009001E00020BF
:1002100000900098012842D15B48006840F010002F
:10022000594908600846006820F003000860084645
:10023000006840F002000860524840685149486038
:100240000846406848600846406840F4806048605E
:100250000846406820F47C1048600846406840F436
:10026000E81048600846006840F08070086000BFF1
:100270004448006810F0007FFAD04248406820F0FF
:100280000300404948600846406840F0020048606A
:1002900000BF3C48406800F00C000828F9D10CBDB4
:1002A00010B5FFF793FF10BD10B53648006840F059
:1002B0000100344908600846406834490840314923
:1002C000486008460068324908402E4908600846E0
:1002D000006820F4802008600846406820F4FE0092
:1002E00048604FF41F008860FFF7DAFF4FF00060AE
:1002F0002849086010BD10B5002100200022214BC4
:100300005B6803F00C0121B1042906D0082928D12B
:1003100007E0214B214C236027E01F4B1F4C23603B
:1003200023E0184B5B6803F47010164B5B6803F412
:100330008032022303EB904022B9194B4343174C00
:1003400023600DE00F4B5B6813F4003F04D0144BA7
:100350004343124C236003E00F4B43430F4C236095
:1003600003E00D4B0D4C236000BF00BF054B5B68E5
:10037000C3F303130B4CE15C084B1B68CB40074CE9
:10038000236010BD00100240002002400000FFF872
:10039000FFFFF6FE08ED00E000127A0000000020EA
:1003A00000093D000400002010B50446CA488442FC
:1003B00008D10121042000F027FB0021042000F0D7
:1003C00023FB46E0C548844208D10121082000F003
:1003D0001BFB0021082000F017FB3AE0C0488442D4
:1003E00008D10121102000F00FFB0021102000F0A7
:1003F0000BFB2EE0BB48844208D10121202000F0F5
:1004000003FB0021202000F0FFFA22E0B6488442DE
:1004100008D10121402000F0F7FA0021402000F02F
:10042000F3FA16E0B148844208D10121802000F09F
:10043000EBFA0021802000F0E7FA0AE0AC488442A1
:1004400007D10121801500F0DFFA0021A01500F08E
:10045000DBFA10BD10B50121084600F0D5FA0021E5
:10046000012000F0D1FA10BD2DE9F041024600252F
:100470000026002000230024002791F803C00CF080
:100480000F0591F803C01CF0100F03D091F802C0C3
:100490004CEA050591F800C0BCF1000F31D014689A
:1004A00000202BE04FF0010C0CFA00F3B1F800C073
:1004B0000CEA03069E4220D183004FF00F0C0CFA89
:1004C00003F7BC4305FA03FC4CEA040491F803C0AB
:1004D000BCF1280F06D14FF0010C0CFA00FCC2F859
:1004E00014C00AE091F803C0BCF1480F05D14FF0E9
:1004F000010C0CFA00FCC2F810C0401C0828D1D333
:100500001460B1F800C0BCF1FF0F34DD5468002066
:100510002EE000F1080C4FF0010808FA0CF3B1F8D6
:1005200000C00CEA03069E4221D183004FF00F0C5D
:100530000CFA03F7BC4305FA03FC4CEA040491F8F7
:1005400003C0BCF1280F05D100F1080C08FA0CF823
:10055000C2F8148091F803C0BCF1480F07D100F134
:10056000080C4FF0010808FA0CF8C2F81080401C83
:100570000828CED35460BDE8F0814FF6FF710180AA
:10058000022181700421C1707047024600209368E7
:100590000B4201D0012000E000207047014688682E
:1005A00080B2704702460020D3680B4201D0012080
:1005B00000E0002070470146C86880B270470161C2
:1005C0007047416170470AB1016100E041617047C5
:1005D000C16070474FF480320A4382618161826159
:1005E00082698269704702460020424B18684FF6C4
:1005F0008073184040EA021008433E4B1860704771
:100600003D49C8617047F0B50A4600230024002127
:10061000002500F00046B6F1004F02D1354EF169D9
:1006200001E0344E7168C0F3034583B200F4401614
:10063000B6F5401F08D121F070612E4E766826F085
:1006400070662C4F7E6012E000F48016B6F5801FB5
:1006500006D1032606FA05F4A14341F0706106E0D5
:10066000460D360103FA06F6B14341F0706122B13E
:10067000460D360103FA06F6314300F00046B6F1A6
:10068000004F02D11B4EF16101E01A4E7160F0BDC6
:1006900030B500228B071C0F0F2303FA04F2154B11
:1006A00008338C1053F824309343124C08348D10C7
:1006B00044F8253023468C1053F824308C07240F3F
:1006C00000FA04F423430B4C08348D1044F8253011
:1006D00030BD0A490860704700080140000C014025
:1006E000001001400014014000180140001C0140AE
:1006F000002001400000014000002042DC002042B8
:10070000DD48006840F00100DB49086008464068A9
:10071000DA490840D849486008460068D849084086
:10072000D54908600846006820F480200860084623
:10073000406820F4FE0048604FF41F008860704756
:10074000CD49096821F48031CB4A1160114609680E
:1007500021F480211160B0F5803F03D0B0F5802FE7
:100760000ED106E0C449096841F48031C24A1160E3
:1007700007E0C149096841F4A021BF4A116000E0C7
:1007800000BF00BF704710B50146002200230020C3
:100790004A11012A02D1B84C236806E0022A02D18C
:1007A000B54C236A01E0B44C636A01F01F020124D6
:1007B00094401C4201D0012000E0002010BD38B55B
:1007C000002000900024002500BF3120FFF7DBFF50
:1007D00005460098401C00900098B0F5A06F01D02D
:1007E000002DF2D03120FFF7CEFF08B1012400E048
:1007F0000024204638BD014600209F4A106820F0A2
:10080000F80040EAC100106070479E4908607047D8
:1008100002460020984B586820F47C1042EA0103FD
:100820001843954B586070479649086670470146D3
:100830000020914A506820F0030008435060704740
:100840008D48406800F00C007047014600208A4A3D
:10085000506820F0F00008435060704701460020C7
:10086000854A506820F4E0600843506070470146B4
:100870000020814A506820F4605040EAC100506076
:10088000704729B17C4A527A02437B4B5A7204E08A
:10089000794A527A8243784B5A7270477A49086093
:1008A000704701460020744A506820F440400843D5
:1008B000506070470021754A11706F4A82F820100D
:1008C000012802D0042808D103E001216F4A1170E9
:1008D00004E005216D4A117000E000BF00BF7047C1
:1008E0006B49086070476449096A0143624A1162B2
:1008F0007047674944390860704730B500210022CD
:10090000002400235C4D6D6805F00C0121B1042921
:1009100005D0082923D105E05E4D056022E05D4D3C
:1009200005601FE0544D6D6805F47012524D6D68FE
:1009300005F48034022505EB92421CB9564D55430F
:1009400005600BE04C4D6D6815F4003F03D0524D2F
:100950005543056002E04F4D5543056002E04D4DA3
:10096000056000BF00BF444D6D6805F0F001090946
:100970004A4D6B5C0568DD4045603F4D6D6805F490
:10098000E061090A454D6B5C4568DD4085603A4D84
:100990006D6805F46051C90A404D6B5C4568DD40E7
:1009A000C560354D6D6805F44041890B3C4D6B5C6D
:1009B000C568B5FBF3F5056130BD29B12E4A526912
:1009C00002432D4B5A6104E02B4A526982432A4B61
:1009D0005A61704729B1284A92690243264B9A61AD
:1009E00004E0254A92698243234B9A61704729B1FA
:1009F000214AD2690243204BDA6104E01E4AD269DF
:100A000082431D4BDA61704729B11B4AD268024309
:100A1000194BDA6004E0184AD2688243164BDA6058
:100A2000704729B1144A12690243134B1A6104E05A
:100A3000114A12698243104B1A61704714494039B8
:100A4000086070470F49C86470470B49C871704708
:100A50000948406A40F08070074948627047014683
:100A60000020054A92680A4201D0012000E00020DF
:100A70007047014988727047001002400000FFF87B
:100A8000FFFFF6FE00004242D80042422010024022
:100A90008004424200127A0000093D001400002048
:100AA00024000020754600F04BF8AE46050069466C
:100AB000534620F00700854618B020B500F02EF808
:100AC000BDE820404FF000064FF000074FF000084F
:100AD0004FF0000B21F00701AC46ACE8C009ACE8D0
:100AE000C009ACE8C009ACE8C0098D46704710B534
:100AF0000446AFF300802046BDE81040FFF75FBB1F
:100B00000948804709480047FEE7FEE7FEE7FEE7A1
:100B1000FEE7FEE7FEE7FEE7FEE7FEE704480549DD
:100B2000054A064B70470000A90200083101000881
:100B3000880000208806002088020020880200200B
:100B40000048704728000020704770477047000039
:100B500001491820ABBEFEE726000200704701469F
:100B600008E042F6E06201E0531E9AB2002AFBDC84
:100B70004B1E99B20029F4DC704710B5FFF794FBC7
:100B800000F002F810BD000008B501211020FFF7A9
:100B900021FF0720ADF8000010208DF8030003208E
:100BA0008DF8020069460248FFF75EFC08BD0000B0
:100BB00000100140FFF7E1FF1DE001210E48FFF7A3
:100BC00000FD02210C48FFF7FCFC04210A48FFF756
:100BD000F8FCC820FFF7C3FF01210748FFF7EFFC2F
:100BE00002210548FFF7EBFC04210348FFF7E7FC6F
:100BF000C820FFF7B4FFE0E7001001401C0C00081C
:100C000000000020280000006C010008440C0008CF
:100C100028000020600600008801000800A24A04A5
:100C2000000000000000000001020304060708099C
:100C30000000000001020304010203040607080982
:040C4000020406089C
:0400000508000131BD
:00000001FF
