:020000040800F2
:10000000F89F002049010008FF1400082F13000882
:100010003D140008CD100008FD5800080000000045
:1000200000000000000000000000000079580008F7
:100030002D130008000000001F0F0008752800089D
:100040006301000863010008630100086301000800
:1000500063010008630100086301000863010008F0
:1000600063010008630100086301000863010008E0
:1000700063010008630100086301000863010008D0
:1000800063010008630100086301000863010008C0
:1000900063010008630100086301000863010008B0
:1000A00063010008630100086301000863010008A0
:1000B0006301000863010008630100086301000890
:1000C0006301000863010008630100086301000880
:1000D0006301000863010008630100086301000870
:1000E0006301000863010008630100086301000860
:1000F0006301000863010008630100086301000850
:10010000630100086301000863010008630100083F
:10011000630100086301000863010008630100082F
:10012000630100086301000863010008630100081F
:10013000DFF810D000F0A4FE004800472159000865
:10014000AFF30080F89F002006488047064800472C
:10015000FEE7FEE7FEE7FEE7FEE7FEE7FEE7FEE777
:10016000FEE7FEE749020008310100080CB5002057
:10017000019000906B48006840F480306949086045
:1001800000BF6848006800F4003000900198401CEF
:100190000190009818B90198B0F5A06FF1D16148AD
:1001A000006810F4003F02D00120009001E0002020
:1001B00000900098012842D15B48006840F0100090
:1001C000594908600846006820F0030008600846A6
:1001D000006840F002000860524840685149486099
:1001E0000846406848600846406840F480604860BF
:1001F0000846406820F47C1048600846406840F497
:10020000E81048600846006840F08070086000BF51
:100210004448006810F0007FFAD04248406820F05F
:100220000300404948600846406840F002004860CA
:1002300000BF3C48406800F00C000828F9D10CBD14
:1002400010B5FFF793FF10BD10B53648006840F0B9
:100250000100344908600846406834490840314983
:10026000486008460068324908402E490860084640
:10027000006820F4802008600846406820F4FE00F2
:1002800048604FF41F008860FFF7DAFF4FF000600E
:100290002849086010BD10B5002100200022214B24
:1002A0005B6803F00C0121B1042906D0082928D18C
:1002B00007E0214B214C236027E01F4B1F4C23609C
:1002C00023E0184B5B6803F47010164B5B6803F473
:1002D0008032022303EB904022B9194B4343174C61
:1002E00023600DE00F4B5B6813F4003F04D0144B08
:1002F0004343124C236003E00F4B43430F4C2360F6
:1003000003E00D4B0D4C236000BF00BF054B5B6845
:10031000C3F303130B4CE15C084B1B68CB40074C49
:10032000236010BD00100240002002400000FFF8D2
:10033000FFFFF6FE08ED00E000127A002400002026
:1003400000093D002800002010B50446CA48844238
:1003500008D10121042000F027FB0021042000F037
:1003600023FB46E0C548844208D10121082000F063
:100370001BFB0021082000F017FB3AE0C048844234
:1003800008D10121102000F00FFB0021102000F007
:100390000BFB2EE0BB48844208D10121202000F055
:1003A00003FB0021202000F0FFFA22E0B64884423F
:1003B00008D10121402000F0F7FA0021402000F090
:1003C000F3FA16E0B148844208D10121802000F000
:1003D000EBFA0021802000F0E7FA0AE0AC48844202
:1003E00007D10121801500F0DFFA0021A01500F0EF
:1003F000DBFA10BD10B50121084600F0D5FA002146
:10040000012000F0D1FA10BD2DE9F041024600258F
:100410000026002000230024002791F803C00CF0E0
:100420000F0591F803C01CF0100F03D091F802C023
:100430004CEA050591F800C0BCF1000F31D01468FA
:1004400000202BE04FF0010C0CFA00F3B1F800C0D3
:100450000CEA03069E4220D183004FF00F0C0CFAE9
:1004600003F7BC4305FA03FC4CEA040491F803C00B
:10047000BCF1280F06D14FF0010C0CFA00FCC2F8B9
:1004800014C00AE091F803C0BCF1480F05D14FF049
:10049000010C0CFA00FCC2F810C0401C0828D1D393
:1004A0001460B1F800C0BCF1FF0F34DD54680020C7
:1004B0002EE000F1080C4FF0010808FA0CF3B1F837
:1004C00000C00CEA03069E4221D183004FF00F0CBE
:1004D0000CFA03F7BC4305FA03FC4CEA040491F858
:1004E00003C0BCF1280F05D100F1080C08FA0CF884
:1004F000C2F8148091F803C0BCF1480F07D100F195
:10050000080C4FF0010808FA0CF8C2F81080401CE3
:100510000828CED35460BDE8F0814FF6FF7101800A
:10052000022181700421C170704702460020936847
:100530000B4201D0012000E000207047014688688E
:1005400080B2704702460020D3680B4201D00120E0
:1005500000E0002070470146C86880B27047016122
:100560007047416170470AB1016100E04161704725
:10057000C16070474FF480320A43826181618261B9
:1005800082698269704702460020424B18684FF624
:100590008073184040EA021008433E4B18607047D1
:1005A0003D49C8617047F0B50A4600230024002188
:1005B000002500F00046B6F1004F02D1354EF1693A
:1005C00001E0344E7168C0F3034583B200F4401675
:1005D000B6F5401F08D121F070612E4E766826F0E6
:1005E00070662C4F7E6012E000F48016B6F5801F16
:1005F00006D1032606FA05F4A14341F0706106E036
:10060000460D360103FA06F6B14341F0706122B19E
:10061000460D360103FA06F6314300F00046B6F106
:10062000004F02D11B4EF16101E01A4E7160F0BD26
:1006300030B500228B071C0F0F2303FA04F2154B71
:1006400008338C1053F824309343124C08348D1027
:1006500044F8253023468C1053F824308C07240F9F
:1006600000FA04F423430B4C08348D1044F8253071
:1006700030BD0A490860704700080140000C014085
:10068000001001400014014000180140001C01400E
:10069000002001400000014000002042DC00204218
:1006A000DD48006840F00100DB490860084640680A
:1006B000DA490840D849486008460068D8490840E7
:1006C000D54908600846006820F480200860084684
:1006D000406820F4FE0048604FF41F0088607047B7
:1006E000CD49096821F48031CB4A1160114609686F
:1006F00021F480211160B0F5803F03D0B0F5802F48
:100700000ED106E0C449096841F48031C24A116043
:1007100007E0C149096841F4A021BF4A116000E027
:1007200000BF00BF704710B5014600220023002023
:100730004A11012A02D1B84C236806E0022A02D1EC
:10074000B54C236A01E0B44C636A01F01F02012436
:1007500094401C4201D0012000E0002010BD38B5BB
:10076000002000900024002500BF3120FFF7DBFFB0
:1007700005460098401C00900098B0F5A06F01D08D
:10078000002DF2D03120FFF7CEFF08B1012400E0A8
:100790000024204638BD014600209F4A106820F002
:1007A000F80040EAC100106070479E490860704739
:1007B00002460020984B586820F47C1042EA01035E
:1007C0001843954B58607047964908667047014634
:1007D0000020914A506820F00300084350607047A1
:1007E0008D48406800F00C007047014600208A4A9E
:1007F000506820F0F0000843506070470146002028
:10080000854A506820F4E060084350607047014614
:100810000020814A506820F4605040EAC1005060D6
:10082000704729B17C4A527A02437B4B5A7204E0EA
:10083000794A527A8243784B5A7270477A490860F3
:10084000704701460020744A506820F44040084335
:10085000506070470021754A11706F4A82F820106D
:10086000012802D0042808D103E001216F4A117049
:1008700004E005216D4A117000E000BF00BF704721
:100880006B49086070476449096A0143624A116212
:100890007047674944390860704730B5002100222D
:1008A000002400235C4D6D6805F00C0121B1042982
:1008B00005D0082923D105E05E4D056022E05D4D9D
:1008C00005601FE0544D6D6805F47012524D6D685F
:1008D00005F48034022505EB92421CB9564D554370
:1008E00005600BE04C4D6D6815F4003F03D0524D90
:1008F0005543056002E04F4D5543056002E04D4D04
:10090000056000BF00BF444D6D6805F0F0010909A6
:100910004A4D6B5C0568DD4045603F4D6D6805F4F0
:10092000E061090A454D6B5C4568DD4085603A4DE4
:100930006D6805F46051C90A404D6B5C4568DD4047
:10094000C560354D6D6805F44041890B3C4D6B5CCD
:10095000C568B5FBF3F5056130BD29B12E4A526972
:1009600002432D4B5A6104E02B4A526982432A4BC1
:100970005A61704729B1284A92690243264B9A610D
:1009800004E0254A92698243234B9A61704729B15A
:10099000214AD2690243204BDA6104E01E4AD2693F
:1009A00082431D4BDA61704729B11B4AD26802436A
:1009B000194BDA6004E0184AD2688243164BDA60B9
:1009C000704729B1144A12690243134B1A6104E0BB
:1009D000114A12698243104B1A6170471449403919
:1009E000086070470F49C86470470B49C871704769
:1009F0000948406A40F080700749486270470146E4
:100A00000020054A92680A4201D0012000E000203F
:100A10007047014988727047001002400000FFF8DB
:100A2000FFFFF6FE00004242D80042422010024082
:100A30008004424200127A0000093D003800002084
:100A40004800002010B50446FB48844209D101212A
:100A50008803FFF7A9FF00214FF48040FFF7A4FFB0
:100A600032E0F648844209D101214804FFF7A9FF8A
:100A700000214FF40030FFF7A4FF25E0F048844246
:100A800009D101218804FFF79CFF00214FF4802049
:100A9000FFF797FF18E0EB48844209D10121C80411
:100AA000FFF78FFF00214FF40020FFF78AFF0BE0D4
:100AB000E548844208D101210805FFF782FF0021A3
:100AC0004FF48010FFF77DFF10BD2DE9F04786B091
:100AD00005460E460024A24600BFA1460027B08965
:100AE00000B100BF2F462C8A4CF6FF700440F088FE
:100AF00004432C82AC894EF6F3100440B08831894F
:100B00000843718908430443AC81AC8A4FF6FF4027
:100B10000440B0890443AC8201A8FFF7BEFEC6487A
:100B2000874202D1DDF810A001E0DDF80CA0A88911
:100B300010F4004F08D00AEBCA0000EB0A1031682D
:100B40004900B0FBF1F807E00AEBCA0000EB0A101D
:100B500031688900B0FBF1F86420B8FBF0F00401C3
:100B60002009642101FB1089A88910F4004F08D0E6
:100B7000322000EBC900B0FBF1F000F007000443A5
:100B800008E0322000EB09106421B0FBF1F000F026
:100B90000F0004432C8106B0BDE8F0874FF41651D6
:100BA000016000218180C18001810C2141810021EF
:100BB0008181704710B502460020108A4FF2FF0372
:100BC00018400B884C8823438C882343CC882343CC
:100BD0001843108210BD0021018041808180C180B6
:100BE000704721B1828942F40052828104E08289F7
:100BF0004DF6FF731A4082817047F0B5034600241A
:100C0000002600250020A1F510676A3F00D100BF33
:100C10001846C1F3421401F01F06012707FA06F532
:100C2000012C01D10C3004E0022C01D1103000E085
:100C300014301AB107682F43076002E00768AF431A
:100C40000760F0BD1AB1838A0B43838202E0838A76
:100C50008B4383827047028A4FF6F0731A400282F8
:100C6000028A0A430282704782894FF2FF731A4058
:100C7000828182890A438281704721B1828942F050
:100C80000202828104E082894FF6FD731A4082815C
:100C90007047028A4FF6DF731A400282028A0A43C3
:100CA0000282704721B1028A42F48042028204E04B
:100CB000028A4BF6FF731A4002827047C1F30802A2
:100CC0008280704701468888C0F308007047818998
:100CD00041F0010181817047028BD2B20283028B05
:100CE00042EA012202837047028B02F47F420283B0
:100CF000028B0A430283704721B1828A42F02002AC
:100D0000828204E0828A4FF6DF731A408282704743
:100D100021B1828A42F01002828204E0828A4FF678
:100D2000EF731A408282704721B1828A42F0080232
:100D3000828204E0828A4FF6F7731A4082827047FB
:100D400021B1828942F40042828103E08289C2F3A8
:100D50000E028281704721B1828A42F4006282824F
:100D600004E0828A4FF2FF731A4082827047828ABF
:100D70004FF6FB731A408282828A0A43828270474E
:100D800021B1828A42F00202828204E0828A4FF616
:100D9000FD731A408282704702460020B1F5007F41
:100DA00000D100BF13880B4201D0012000E00020D9
:100DB000704701F40072B2F5007F00D100BFCA4352
:100DC0000280704770B502460024002300250020F1
:100DD000A1F510666A3E00D100BFC1F3421501F0D3
:100DE0001F03012606FA03F3012D02D19689334031
:100DF00006E0022D02D1168A334001E0968A334084
:100E00000C12012606FA04F41688344013B10CB112
:100E1000012000E0002070BD10B500220023A1F5E4
:100E200010646A3C00D100BF0A1201249440A3B2AE
:100E3000DC43048010BD0000003801400044004045
:100E400000480040004C00400050004072B670471F
:100E500062B67047EFF3108072B6704780F3108867
:100E6000704730BF704720BF7047B0FA80F07047BE
:100E700090FAA0F0B0FA80F0704790FAA0F07047B6
:100E8000064C074D06E0E06840F0010394E80700D7
:100E900098471034AC42F6D3FFF74EF9905B000848
:100EA000B05B000870B58C1810F8015B15F00703F3
:100EB00001D110F8013B2A1106D110F8012B03E0F3
:100EC00010F8016B01F8016B5B1EF9D12B0705D4FB
:100ED0000023521E0DD401F8013BFAE710F8013B44
:100EE000CB1A921C03E013F8015B01F8015B521E60
:100EF000F9D5A142D8D3002070BD000018484FF0AA
:100F0000FF010170002080F309881648016881F311
:100F1000088815484FF08051016062B6FEE772B64E
:100F2000EFF3098028B1203880E8F00F0F490968F5
:100F3000086000B50E4880475DF804EB0D480E4987
:100F40000A78027009480D490A680260106890E842
:100F5000F00F203080F309884EF0040E62B670471F
:100F600022ED00E03C01002004ED00E0340100200F
:100F700029260008C2000020C300002038010020FC
:100F800008B517E00C48007800F02CFA6A460021FA
:100F9000C82001F09BFB0848007800F00BFA0648D7
:100FA0000078401C0449087008460078062801DDD6
:100FB00000200870E6E700000000002008B508E007
:100FC000072000F01DFA6A4600214FF4FA6001F094
:100FD0007DFBF5E770B58AB0064600F06FF800F0CB
:100FE00077F800F063F8044621480068B4FBF0F598
:100FF000284601F05FFC00F02DFA09A800F0AAFDD8
:1010000000F0D4F809A8032100220592CDE90621B9
:10101000089005204FF400713322164BCDE90132C0
:10102000CDE9031003200023134A14A100901748B0
:1010300000F01AFE09A8032100220592CDE906213D
:10104000089005204FF400713322114BCDE9013295
:10105000CDE90310032000230E4A0FA1009012488F
:1010600000F002FE09A9002000F054FF0AB070BD94
:10107000E05900080C040020810F00084170702026
:101080005461736B204C6564310000000C0C00202F
:10109000D40C0020BD0F0008417070205461736BA8
:1010A000204C656433000000D414002000B585B0E6
:1010B0006846FFF7F2FB019805B000BD10B500F0DF
:1010C0005DF900F085F904F0D9FB10BD00BFFEE723
:1010D00010B500F0FBF800F003F800F0F3F810BDD5
:1010E00070B5002600201849088018490880184962
:1010F00008601849086018490860184908601849CC
:101100000860002400BFFFF7A5FE064600BF0025CB
:101110000BE000201049086000F074F800F08CF833
:101120000D4800680444681C85B2002DF1D00C48BD
:1011300004600020084908600849086000BF304684
:10114000FFF78CFE00BF70BD500000205200002051
:10115000540000205800002060000020640000209F
:101160005C00002001460846044A1268904203D9F8
:10117000024A1268801A00E0002070475C000020DC
:1011800070B5002500BFFFF765FE054600BF0648A5
:10119000046800BF2846FFF761FE00BF2046FFF746
:1011A000E1FF0646304670BD6000002070B50025A6
:1011B000FFF7E6FF044600BFFFF74CFE054600BF01
:1011C00000200449086000BF2846FFF747FE00BF23
:1011D000204670BD6000002070B5002500BFFFF7FD
:1011E00039FE054600BF0648046800BF2846FFF7E1
:1011F00035FE00BF2046FFF7B5FF0646304670BDFE
:101200006400002010B509480088401C0749088088
:101210000748008818B900F083F8064908600448B8
:101220000088401C0249088010BD000050000020CA
:10123000520000205400002010B50F480088401EC6
:101240000D49088008460088A0B900F069F80B49EC
:101250000860084600680A490968441A0948006895
:10126000A04201D20748046007480068A04201D2AA
:101270000548046010BD0000520000205800002006
:1012800054000020600000206400002010B50024FD
:1012900000BF00BFFFF7DEFD044600BFFFF7B2FF4F
:1012A00000BF1021064800F0CBF800BFFFF7C4FFD5
:1012B00000BF2046FFF7D2FD00BF00BF10BD0000F9
:1012C0009C15002010B5FFF7E1FF10BD10B5002000
:1012D0000249086000F00AF810BD00004C00002030
:1012E00001490860704700004C00002010B50A4812
:1012F000006840F080700849086000200749486095
:101300000846006840F001000860FFF7CFFE044681
:101310002046FFF7E5FF10BDFCED00E0001000E007
:101320000148406870470000001000E0704700BFAF
:10133000FEE7000008B501214020FFF71BFB042059
:10134000ADF8000048208DF8030069460148FFF71A
:101350005BF808BD0018014008B501214020FFF7E7
:1013600009FB0820ADF8000048208DF8030069460D
:101370000148FFF749F808BD0018014010B5FFF714
:10138000D9FFFFF7E9FF10BD08B501211020FFF7D5
:10139000F1FAFF20ADF8000010208DF803000320C3
:1013A0008DF8020069460248FFF72EF808BD0000DC
:1013B0000010014010B50446034830F8240081B203
:1013C0000248FFF7CCF810BD0400002000100140D7
:1013D00010B5FFF7D9FFFF210148FFF7C0F810BD96
:1013E0000010014010B50446034830F8240081B2D3
:1013F0000248FFF7B6F810BD0400002000100140BD
:1014000010B504460B4830F8240081B20A48FFF7B3
:1014100099F838B1074830F8240081B20648FFF740
:10142000A0F806E0034830F8240081B20248FFF734
:1014300096F810BD040000200010014000BFFEE738
:1014400030B505460C4622460021284600F026F815
:1014500030BD00000D480E49016001464160002189
:101460008160C160016141618161C16101620163AB
:10147000C162416207498163C1634FF4D84101648D
:1014800041640146044A116070470000AC15002019
:1014900048454150F4150020680000202DE9F04136
:1014A00003460C4617460FB9BDE8F08103B9FBE7C8
:1014B0000025002202E02D022543521C042AFAD303
:1014C000384603F0030C1946BCF1000F08D0624601
:1014D00003E001F8014B401E521C08B1042AF8D366
:1014E0000E4601E020C6001F0428FBD2314602E070
:1014F00001F8014B401E0028FAD100BFD4E7704725
:101500007047000010B50348006810B1014800683A
:10151000804710BD7800002070B5044600F0C2F886
:1015200000204849087048490870484908704849EF
:1015300008604849086048490870484908704849A7
:1015400008704849086048490860484908604849A7
:101550000870484800680A21B0FBF1F0464908606D
:101560004648006858B14648056845B14348066892
:1015700003E0761E002028602D1D002EF9D10020EA
:101580004049086040490860404908604049086097
:101590004049086040490860404908604049087077
:1015A00002F01AF902F018FA204601F075FA2088C4
:1015B00000B170BD204601F08FFE208800B1F8E731
:1015C000204601F095FE208800B1F2E7204601F0A8
:1015D00079FF208800B1ECE7204602F02DF9208841
:1015E00000B1E6E7204602F07DFB208800B1E0E78D
:1015F000204602F0E7FE208800B1DAE7204601F03D
:10160000D7FD208800B1D4E7204601F0E1FB208817
:1016100000B1CEE7204603F03DFF208800B1C8E7C7
:10162000204602F013FE208800B1C2E7204603F0F6
:101630008DFF208800B1BCE701F054F9FFF760FF8F
:1016400000BFB6E78C00002094000020DC000020E2
:101650003401002038010020C2000020C300002017
:10166000C4000020D0000020D4000020D8000020BA
:10167000E4000020E0590008E0000020B059000814
:10168000AC5900086C00002070000020740000209D
:10169000780000207C0000208000002084000020D2
:1016A000120100200A4A1168002002E0002204C151
:1016B000401C084A12689042F8D3054A1268054B4C
:1016C0001B6802EB8302121F034B1A607047000075
:1016D000AC590008B05900083C01002010B50024A6
:1016E0002E480078012800D010BD00BFFFF7B2FBE4
:1016F000044600BF2A48007828B900BF2046FFF7FB
:10170000ADFB00BFF0E726480078401E2449087072
:1017100008460078002805DD00BF2046FFF79EFB45
:1017200000BFE1E71F480078002805DD00BF204624
:10173000FFF794FB00BFD7E702F03AF81A490870A8
:101740000846007800EB4000184951F8200018497D
:1017500008600846006817490968884205D100BF3B
:101760002046FFF77BFB00BFBEE711480068D0F8BA
:101770009000401C0E490968C1F890000E480068AE
:10178000401C0D4908604FF080500C49086000BFB4
:101790002046FFF763FB00BF00BFA5E794000020D1
:1017A0008C000020DC000020C300002020980020D6
:1017B00038010020340100200801002004ED00E081
:1017C00010B5002420480078002800DD10BD1F4817
:1017D0000078002800DDF9E700BFFFF73BFB044677
:1017E00000BF01F0E5FF1A4908700846007800EBD9
:1017F0004000184951F82000174908600846006861
:1018000016490968884205D100BF2046FFF726FB2C
:1018100000BFDBE710480068D0F89000401C0E497C
:101820000968C1F890000E480068401C0C49086027
:101830004FF080500B49086000BF2046FFF70EFBB9
:1018400000BF00BFC2E700008C000020DC000020C9
:10185000C30000202098002038010020340100201F
:101860000801002004ED00E070B5044600251A4888
:101870000078002803DD46F66250208070BD1748CE
:101880000078012803D045F689602080F6E71448E7
:101890000078FA2803DB45F209202080EEE700BF3C
:1018A00000BFFFF7D7FA054600BFFFF7ABFC00BF4C
:1018B0000B480078401C0A49087002F071F900BF1B
:1018C000FFF7BAFC00BF2846FFF7C8FA00BF00BF09
:1018D0000020208000BFD1E78C0000209400002071
:1018E000DC00002070B5044600252348007800285D
:1018F00003DD46F66550208070BD20480078012841
:1019000003D045F689602080F6E71D48007818B9B5
:1019100046F664502080EFE700BF00BFFFF79AFA59
:10192000054600BFFFF76EFC00BF15480078401E5B
:10193000134908700846007800280CDD00BFFFF747
:101940007BFC00BF2846FFF789FA00BF00BF46F6C0
:1019500063502080D0E702F031F900BFFFF76CFC44
:1019600000BF2846FFF77AFA00BF00BFFFF728FF45
:101970000020208000BFBFE78C00002094000020E2
:10198000DC00002010B5044612480078E8B901F0E8
:101990000FFF1149087008460078104908700E487A
:1019A000007800EB40000E4951F820000D49086016
:1019B000084600680C490860012006490870FFF7D6
:1019C0009DFA43F69920208002E045F68A60208047
:1019D00010BD000094000020C3000020C2000020C1
:1019E0002098002038010020340100202DE9F0412A
:1019F00007464FF0000800BF00BFFFF72BFA8046F4
:101A000000BFFFF7FFFB00BF0020474908604749C0
:101A100008804749088047490860474908604749A6
:101A2000086047490860474908604749088100BF86
:101A3000FFF702FC00BF4046FFF710FA00BF00BFEF
:101A400000BF00BFFFF706FA804600BFFFF7DAFBD2
:101A500000BF3E48046800BFFFF7EEFB00BF4046F2
:101A6000FFF7FCF900BF00BF26E000BF00BFFFF793
:101A7000F1F9804600BFFFF7C5FB00BF00207834B6
:101A8000E063206420602063A061A082E082606245
:101A9000A062FFF745FC2062783C04F16406002058
:101AA000B081D4F8C04000BFFFF7C6FB00BF40467E
:101AB000FFF7D4F900BF00BF002CD6D100BF00BF94
:101AC000FFF7C8F9804600BFFFF79CFB00BF204826
:101AD000056800BFFFF7B0FB00BF4046FFF7BEF947
:101AE00000BF00BF16E000BF00BFFFF7B3F980469C
:101AF00000BFFFF787FB00BF05F120060020B08183
:101B0000AD6900BFFFF798FB00BF4046FFF7A6F99D
:101B100000BF00BF002DE6D103F084FB03F012FEEE
:101B200000203880BDE8F081A8000020A20000203D
:101B3000F2000020040100201801002024010020F0
:101B400090000020D4000020149800200C010020F8
:101B5000C8000020F8B5044600266946364800F063
:101B600033FDBDF8000018B1BDF800002080F8BDBD
:101B70006A460021022000F0A9FDBDF8000018B15E
:101B8000BDF800002080F2E700BF00BFFFF762F958
:101B9000064600BFFFF736FB00BF0020274908605C
:101BA00000BFFFF749FB00BF3046FFF757F900BF02
:101BB00000BF00252248006822490968884205D9EB
:101BC0001F4800681F490968B0FBF1F525B91C489A
:101BD00000680A21B0FBF1F56A460021284600F0B2
:101BE00075FD6946144800F0A5FABDF8000018B16B
:101BF000BDF800002080BAE700BF00BFFFF72AF958
:101C0000064600BFFFF7FEFA00BF00200E4908603D
:101C10000A4800680D49086001200D49087000BF9E
:101C2000FFF70AFB00BF3046FFF718F900BF00BFFF
:101C30000020208000BF9AE7309B0020F4000020A5
:101C4000E0590008C859000804010020F8000020ED
:101C50000001002010B50348006810B10148006879
:101C6000804710BD7C0000202DE9FF4F87B004465F
:101C70009046DDE91BA5DDE91496179F002003902F
:101C800095480078002805DD47F24A1028800BB0FF
:101C9000BDE8F08F1CB947F2AD102880F7E7B8F126
:101CA000000F03D147F24F102880F0E71EB946F627
:101CB0002F602880EBE789480068874203D246F608
:101CC00030602880E3E71698B84203D346F63160C7
:101CD0002880DCE7B9F1200F03D346F27320288077
:101CE000D5E7B9F1000F06D17D48844203D046F212
:101CF00073202880CBE7B9F11F0F06D179488442C1
:101D000003D046F273202880C1E7204602F06AFB28
:101D1000002028800AF0010090B10AF0020078B19A
:101D200005960020069008E00021059801600598BE
:101D3000001D05900698401C06900698B842F3D303
:101D4000169806EB80000490CDE9007A32464046B2
:101D5000049B0A9900F0D8FB0590C4F828800A98E3
:101D6000E0620898206284F8379005982060049813
:101D7000A06019986065199818B95B480068A0655B
:101D800001E01998A0651A9860606662A763A4F8DC
:101D90003CA04FF0000B08E0002104F17C0040F86B
:101DA0002B100BF1010000F0FF0BBBF1000FF3D083
:101DB00004F16400189901F0FBFA204600F09EF847
:101DC00000BF00BF00BFFFF745F8039000BFFFF75B
:101DD00019FA00BF45480078401C4449087008467D
:101DE0000078012801D101F0DBFE00BFFFF724FAE3
:101DF00000BF0398FFF732F800BF00BF00BF94F8A0
:101E0000370001F0F5FC204601F02EFE204602F0DE
:101E10009FFA37480088401C3549088035480078CB
:101E2000012837D000BF00BF00BFFFF713F80390B1
:101E300000BFFFF7E7F900BF2C480078401E2B4990
:101E4000087008460078D0B901F0B8FE2A4800882A
:101E500000280BDD00BFFFF7EFF900BF0398FEF786
:101E6000FDFF00BF00BF01F06DFE11E000BFFFF7F6
:101E7000E3F900BF0398FEF7F1FF00BF08E000BFE1
:101E8000FFF7DAF900BF0398FEF7E8FF00BF00BFD5
:101E900000BFFCE600BF00BF00BFFEF7DBFF039002
:101EA00000BFFFF7AFF900BF10480078401E0F4990
:101EB00008700846007808B901F080FE00BFFFF7FF
:101EC000BBF900BF0398FEF7C9FF00BF00BF00BF0A
:101ED000FFF776FC00BFDAE68C000020DC59000832
:101EE0004C97002084960020E0000020DC000020B9
:101EF0001001002094000020A000002010B504462E
:101F00000348006818B1204601490968884710BD98
:101F10006C00002070B504460D4600267848007815
:101F2000002803DD47F24E10288070BD75488442BA
:101F300003D147F24C102880F7E77348844203D15D
:101F400047F24D102880F0E79CB900BF00BFFEF7B4
:101F500081FF064600BFFFF755F900BF6B480468D4
:101F600000BFFFF769F900BF3046FEF777FF00BFFB
:101F700000BF00BF00BF00BFFEF76CFF064600BFFA
:101F8000FFF740F900BF62480078401C60490870C4
:101F900008460078012801D101F002FE00BFFFF7DA
:101FA0004BF900BF3046FEF759FF00BF00BF00BF2E
:101FB00094F8360008282DD2DFE800F004090E104E
:101FC000080A0F11204601F08FFD5EE05DE000BFC2
:101FD000204603F00BF958E000BF00BF00BF2046C9
:101FE00003F004F994F83400082810D2DFE800F078
:101FF00004070508090A0B0600BF00BF08E000BF80
:1020000000BF00BF00BF204601F023FB00E000BF7F
:1020100000BF3AE000BF00BF00BFFEF71BFF06464F
:1020200000BFFFF7EFF800BF39480078401E38497D
:10203000087008460078D0B901F0C0FD3548008826
:1020400000280BDD00BFFFF7F7F800BF3046FEF7B2
:1020500005FF00BF00BF01F075FD11E000BFFFF7F5
:10206000EBF800BF3046FEF7F9FE00BF08E000BF06
:10207000FFF7E2F800BF3046FEF7F0FE00BF00BFFA
:1020800000BF46F62D6028804FE700BF04F16400D2
:1020900001F06CF9204600F041F8204602F070F99A
:1020A0001D480088401E1C490880204602F09AF90D
:1020B000FF2084F8360000BF00BF00BFFEF7CAFE55
:1020C000064600BFFFF79EF800BF11480078401E8B
:1020D0000F4908700846007808B901F06FFD00BF8D
:1020E000FFF7AAF800BF3046FEF7B8FE00BF00BFFA
:1020F00000BF00202880FFF763FB00BF15E700004A
:102100008C000020849600204C9700203401002091
:10211000DC000020A00000201001002010B50446C3
:102120000348006818B1204601490968884710BD76
:10213000700000207FB504460D46002600BF00BF9A
:10214000FEF788FE064600BFFFF75CF800BF1CB133
:102150001748006884420CD100BFFFF76DF800BF3C
:102160003046FEF77BFE00BF00BF47F257102880C5
:102170007FBD00BFFFF760F800BF3046FEF76EFE80
:1021800000BF00BF0B48007800280BDD0020009046
:102190000190034602462146CDE90205064800F0BB
:1021A0004FFEE5E72946204602F0C8FA00BFDFE708
:1021B000340100208C0000205452455310B50446D1
:1021C0000348006818B1204601490968884710BDD6
:1021D000740000202DE9F04780460E4614461D4647
:1021E0004FF000098C480078002805DD46F2AE105B
:1021F00028800020BDE8F0871EB1B6F5004F02D15F
:1022000000E000BF04E045F6256028800020F1E7EB
:1022100000BF0CB10020206000BF00BFFEF71AFE17
:10222000814600BFFEF7EEFF00BF7C480068406CAF
:10223000B8B37A480068406C401E78490968486421
:1022400076480068476C1CB174480068006C2060D8
:10225000FFF766F871490968096C401A6F49096807
:10226000C1F8A4006D480068D0F8A8006B4909685F
:10227000D1F8A410884207D268480068D0F8A400BA
:1022800066490968C1F8A80000BFFEF7D5FF00BF86
:102290004846FEF7E3FD00BF00BF00202880384617
:1022A000A8E7FFE706F4004068B100BFFEF7C4FFEF
:1022B00000BF4846FEF7D2FD00BF00BF46F2B01097
:1022C0002880002096E75648007800280DDD00BFE2
:1022D000FEF7B2FF00BF4846FEF7C0FD00BF00BFDB
:1022E00046F663502880002084E700BF4C48007801
:1022F000401C4B49087008460078012801D101F0C4
:102300004FFC00BFFEF798FF00BF4846FEF7A6FD52
:1023100000BF00BF00BF434607220021084601F06E
:10232000DDF800BF00BF00BFFEF794FD814600BF8F
:10233000FEF768FF00BF3A480078401E3849087031
:102340000846007808B901F039FC00BFFEF774FFB9
:1023500000BF4846FEF782FD00BF00BF00BFFFF789
:102360002FFA00BF00BFFEF775FD814600BFFEF7E4
:1023700049FF00BF2948006890F8350020B10128C6
:1023800026D0032834D12CE0FCB124480068006C2E
:102390002060FEF7C5FF21490968096C401A1F49F2
:1023A0000968C1F8A4001D480068D0F8A8001B49BE
:1023B0000968D1F8A410884207D218480068D0F8FC
:1023C000A40016490968C1F8A8000020288013E07D
:1023D0001CB112480068006C206046F2A9102880E9
:1023E0000AE00CB10020206047F2D920288003E0E9
:1023F00046F62E60288000BF00BF08480068476C82
:1024000000BFFEF719FF00BF4846FEF727FD00BFDB
:1024100000BF3846EEE600008C00002034010020AA
:10242000DC0000202DE9F04705460E4617461C4605
:102430004FF0000A32480078002804DD47F25910B6
:102440002080BDE8F0871EB946F2D5202080F8E74D
:102450001FB946F2D5202080F3E700BF00BFFEF78A
:10246000F9FC824600BFFEF7CDFE00BF0DB925483E
:102470000568286878B900BFFEF7DEFE00BF504649
:10248000FEF7ECFC00BF00BF00203060386047F270
:1024900052102080D5E795F83C0000F0010078B993
:1024A00000BFFEF7C9FE00BF5046FEF7D7FC00BFD5
:1024B00000BF00203060386047F254102080C0E731
:1024C00000BFFEF7B9FE00BF5046FEF7C7FC00BFD5
:1024D00000BF4FF00008D5F8249003E009F104098B
:1024E00008F10108D9F800000028F7D0C6F80080EC
:1024F000A86BA0EB080038600020208000BFA0E798
:102500008C00002034010020F0B50446DDE90556BA
:1025100002EB85004FF0807C071F3846C7F800C0EB
:10252000071F38463C60DFF89CC0071F3846C7F8D5
:1025300000C04FF0123C071F3846C7F800C04FF0EC
:10254000033C071F3846C7F800C04FF0023C071F86
:102550003846C7F800C0071F38463B60071F38469B
:1025600039604FF0113C071F3846C7F800C04FF0E4
:10257000103C071F3846C7F800C04FF0093C071F42
:102580003846C7F800C04FF0083C071F3846C7F868
:1025900000C04FF0073C071F3846C7F800C04FF097
:1025A000063C071F3846C7F800C04FF0053C071F20
:1025B0003846C7F800C04FF0043C071F3846C7F83C
:1025C00000C0F0BDB94800087FB505460C4612486A
:1025D000854203D147F25B1020807FBD0F488542C2
:1025E00003D147F25C102080F7E70D4800780028FF
:1025F0000BDD002000900190034602462946CDE9FC
:102600000204084800F01CFCE7E72146284602F0D7
:1026100033FC00BFE1E70000849600204C970020C7
:102620008C0000205453555370B52448006810B1F5
:10263000224800688047FEF773FE04462048006881
:1026400020490968884215D01D480068D0F89800D4
:10265000201A1B490968C1F8940019480068D0F88D
:102660009C0017490968D1F8941008441449096876
:10267000C1F89C0013480068C0F89840FEF796FD2A
:1026800005460F480068D0F8B400A84203D20C48B1
:102690000068C0F8B4500A480068D0F8B8000A4989
:1026A0000968884205D20848006805490968C1F8E8
:1026B000B80000200449086070BD000080000020C0
:1026C0003401002038010020D80000202DE9F0411D
:1026D00005460E46144600274D480078002804DDC4
:1026E00047F275202080BDE8F0814A480078002834
:1026F00003DD46F663502080F5E736B1022E05D0A3
:10270000042E0AD0082E09D101E000BF00BF1DB978
:1027100047F27E202080E6E704E003E045F62560EE
:102720002080E0E700BF00BF00BF00BFFEF792FBC4
:10273000074600BFFEF766FD00BF36480078401C24
:102740003449087008460078012801D101F028FAC0
:1027500000BFFEF771FD00BF3846FEF77FFB00BFEC
:1027600000BF00BF01202C49096881F836002346CC
:10277000324629462848006802F05AFC2088F0B109
:1027800000BF00BF00BFFEF765FB074600BFFEF7B6
:1027900039FD00BF1F480078401E1E4908700846DA
:1027A000007808B901F00AFA00BFFEF745FD00BF46
:1027B0003846FEF753FB00BF00BF00BF93E7164843
:1027C000006801F091F900BF00BF00BFFEF742FBB7
:1027D000074600BFFEF716FD00BF0E480078401EFA
:1027E0000C4908700846007808B901F0E7F900BF05
:1027F000FEF722FD00BF3846FEF730FB00BF00BFEA
:1028000000BFFEF7DDFF0020208000BF6BE7000067
:102810008C000020DC0000203401002010B586B0C0
:1028200000F01EF8FEF77CFD044605A8002100918B
:10283000CDE9011403900748007800EB4000064AF8
:1028400002EB800100231A46044800F0F9FA06B0B2
:1028500010BD0000C2000020209800205449434BC6
:1028600010B50348006810B101480068804710BDEA
:102870008400002010B5002400BF00BFFEF7EAFA74
:10288000044600BFFEF7BEFC00BF09480078401CAC
:102890000749087000BFFEF7CFFC00BF2046FEF7D7
:1028A000DDFA00BF00BFFFF7B9FFFEF717FF10BD4D
:1028B0008C00002001464A1E4FF0E0235A61084A6E
:1028C000106820F07F4000BF10601A46126942F085
:1028D00005021A611A46126942F002021A61704733
:1028E00020ED00E0254A2649264A274A2749284A5A
:1028F0002848294A294A2A4A2A4A2B482B482C4840
:102900002C4A2D482D4A2E482E4A2F482F48304811
:102910003048314A314A324A3248334A334A3448DD
:10292000344835483548364836483748374A384AB3
:10293000384A394A39483A483A483B4A3B4A3C4A7D
:102940003C483D483D483E493E483F4A3F4A404A50
:10295000404A414A414A424A4248434A434A44481B
:102960004448454A454A4648464A474A47484848EF
:10297000484800BF00BF00BF70470000245A00084D
:102980008C5B0008255A0008265A0008285A0008BF
:102990002C5A0008305A00082D5A0008585A0008CE
:1029A000595A00085A5A00085C5A00085E5A000832
:1029B000605A0008625A0008645A0008845A0008E5
:1029C000865A0008885A00088A5A00088C5A00085B
:1029D0008E5A0008905A0008BC5A0008BD5A0008D8
:1029E000BE5A0008C05A0008C25A0008C35A00085C
:1029F000C45A0008C65A0008C85A0008CA5A000833
:102A0000CC5A0008CE5A0008D05A0008005B0008D3
:102A1000015B0008025B0008035B0008045B000820
:102A2000065B0008085B0008305B0008315B0008AB
:102A3000325B0008335B0008345B0008365B00083B
:102A4000385B00083C5B00083D5B00083E5B00080B
:102A50003F5B0008405B0008415B0008425B0008E8
:102A6000435B0008445B0008465B0008475B0008C6
:102A7000485B00084A5B00084C5B00084D5B00089F
:102A8000505B0008845B0008855B0008865B0008DB
:102A9000885B00088A5B00080021034A1160034A32
:102AA0001180018070470000AC000020B0000020C1
:102AB0002DE9F04F85B00446894692469B46DDF8E5
:102AC00038800020009000BF00BFFEF7C3F90090DF
:102AD00000BFFEF797FB00BFBAF1000F0AD0BAF1B2
:102AE000010F0DD0BAF5004F05D06FF400405044EF
:102AF00060B906E000BF206A40EA0900206216E0E3
:102B000000BF206A20EA0900206210E000BFFEF743
:102B100093FB00BF0098FEF7A1F900BF00BF45F688
:102B20002560A8F80000002005B0BDE8F08F00BFC8
:102B3000C4F824B004F1080001900198008968B934
:102B400000BFFEF779FB00BF0098FEF787F900BFD2
:102B500000BF0020A8F80000206AE5E700BF714828
:102B60000078401C6F49087008460078012801D1A0
:102B700001F016F800BFFEF75FFB00BF0098FEF7FC
:102B80006DF900BF00BF00BF01980768BD6889E00C
:102B90007868029095F8880000F00F000390039881
:102BA000012821D002282ED0042802D0082836D1AE
:102BB0000EE0206AD5F8801000EA0106D5F8800002
:102BC000B04204D15A463146284600F0AFF863E0DF
:102BD000206AD5F8801000EA010626B15A4631462F
:102BE000284600F0A3F857E0D5F88000216A20EAD3
:102BF0000106D5F88000B04204D15A463146284635
:102C000000F094F848E0D5F88000216A20EA010637
:102C100026B15A463146284600F088F83CE000BF0D
:102C200000BF00BFFEF716F9009000BFFEF7EAFAFA
:102C300000BF3C480078401E3A49087008460078BA
:102C4000D0B900F0BBFF3848008800280BDD00BF7A
:102C5000FEF7F2FA00BF0098FEF700F900BF00BFD0
:102C600000F070FF11E000BFFEF7E6FA00BF009829
:102C7000FEF7F4F800BF08E000BFFEF7DDFA00BF82
:102C80000098FEF7EBF800BF00BF00BF43F6FF203F
:102C9000A8F80000002047E700BF029F0FB1BD6801
:102CA00000E00025002D7FF473AF00BF00BF00BF20
:102CB000FEF7D0F8009000BFFEF7A4FA00BF194855
:102CC0000078401E174908700846007808B900F0DF
:102CD00075FF00BFFEF7B0FA00BF0098FEF7BEF820
:102CE00000BF00BF00BF0AF4004008B9FEF768FD4E
:102CF00000BF00BFFEF7AEF8009000BFFEF782FAFB
:102D000000BF206A049000BFFEF796FA00BF00984B
:102D1000FEF7A4F800BF00BF0020A8F80000049848
:102D200002E70000DC000020A000002070B504468F
:102D30000E46154634342665002060702070E5602C
:102D4000A078343C082816D2DFE800F00405080912
:102D50000706101100BF00BF00BF0DE000BF2046F6
:102D600001F0DEFC002084F8360005E000BF0420FE
:102D700084F8360000E000BF00BF204600F069FC88
:102D800070BD0000002400BF1DE000BF00BFFEF7C3
:102D900061F8044600BFFEF735FA00BF0A48006834
:102DA000401C0949086009480068401C0749086040
:102DB00000BFFEF741FA00BF2046FEF74FF800BF04
:102DC00000BFFEF79FFBE0E788000020F400002032
:102DD00010B58AB0044600200E4908600B2000217F
:102DE0000591CDE90704069108460B4909680B4A8D
:102DF00012680B4B1B68CDE90132CDE903101F208F
:102E00000023084A08A100900C48FEF72DFF0AB0E5
:102E100010BD00008800002088590008845900086F
:102E200080590008852D000875432F4F532D4949BF
:102E3000492049646C65205461736B0084960020BE
:102E40002DE9F84F04460D4616461F46DDE90BAB4B
:102E5000DDF82890DDF834800020009000BF00BF2E
:102E6000FDF7F8FF009000BFFEF7CCF900BF2C483B
:102E700000882C49098888423EDA29480088401C8D
:102E800027490880284800880988884203DA2448AE
:102E900000882549088025480068046023480068A8
:102EA000856022480068C6602048006807821F4885
:102EB0000068C0F814901D480068A0F818A01B48CE
:102EC0000068C0F81CB019480068406817490860DD
:102ED000012017490881174808604860002000F069
:102EE00087FC1548007818B113480078134908701A
:102EF0000020A8F8000008E011480088401C104994
:102F0000088044F25360A8F8000000BFFEF794F96F
:102F100000BF0098FDF7A2FF00BF00BFBDE8F88F1B
:102F2000A000002094590008A20000209800002072
:102F3000209800204C970020C2000020C4000020F0
:102F4000A40000203EB5594800680068584A811A1C
:102F5000904279D00FDC5749084400283ED05649AA
:102F60000844A8B155490844002860D05449084491
:102F700000286AD13FE053480844002850D0524905
:102F80000844002862D0514908440028F1D110E0DB
:102F900002A8464D00902D68EB69444D2D682A8BA0
:102FA000424D2D686969414D2D68A868FFF780FD85
:102FB0007AE002A93D480068C0693C4DCDE90001B6
:102FC0002D682B8B394D2D682A8A384D2D68E9687C
:102FD000364D2D68A86800F03BFC65E0334B1B685C
:102FE000DA69324B1B68198B304B1B68986802AB4F
:102FF00000F084FE58E002A92C480068C0692B4DFF
:10300000CDE900012D682B8B284D2D682A8A274D8C
:103010002D68E968254D2D68A86801F04BFA43E05A
:1030200022490968886802A901F088FB3CE01F4B2F
:103030001B68DA691D4B1B68198B1C4B1B68986851
:1030400002AB01F045FC2FE007E02CE017490968CE
:10305000886802A901F010FF26E01D49097801EBFC
:1030600041011C4A02EB810000F0C6FD0F480068D8
:1030700002AB0021C269184801F02AFC1748006819
:10308000401E164908600846006858B91448006890
:103090000860FEF745F9044602AB224600211148BC
:1030A00001F016FC00E000BF00BF3EBD9C00002008
:1030B0005449434BADBAB2BE0DF90BFAF2F8F7FF23
:1030C0000006F6FF00F7FDF700FFEFFF03FE0FFE1F
:1030D000C400002020980020689A002030010020C1
:1030E0002C010020309B0020002700BF56E0002666
:1030F00052E000BF00BFFDF7ADFE074600BFFEF780
:1031000081F800BF2648008898B900202549088129
:103110000860486000F07EFB00BFFEF78DF800BF3E
:103120003846FDF79BFE00BF00BFFEF749FB0126B6
:1031300032E000BFFEF780F800BF3846FDF78EFE94
:1031400000BF00BFFEF7ECF80546FFF7FBFEFEF7F9
:10315000E7F8441B14480068A04201D212480460FA
:1031600000BF00BFFDF776FE074600BFFEF74AF836
:1031700000BF0E48006840680C4908600848008895
:10318000401E0749088000BFFEF756F800BF3846CA
:10319000FDF764FE00BF00BF002EAAD0A7E7000025
:1031A000A000002020980020A80000209C00002003
:1031B000F0B589B0054600203149088031480068E3
:1031C00020B944F25260288009B0F0BD2E48008832
:1031D000022803DA44F254602880F5E700202B49E6
:1031E0000860284804682646203600270CE0284856
:1031F00020600020A060E060208260612083666023
:1032000020342036781C87B21F4800888742EEDBC6
:10321000203C1C48066866601E4806601E48066022
:1032200000201E4908801E4908801E48006818B901
:1032300044F255602880C7E71B4800681B490968AD
:10324000884203D244F256602880BDE70320002163
:103250000591CDE90705069113480068144A1268E4
:10326000104B1B68CDE90301CDE9013200910B46FB
:10327000104A11A11748FEF7F7FC00BFA4E70000B1
:10328000A40000209059000894590008A8000020CC
:103290004E4F4E45980000209C000020A0000020CA
:1032A000A20000209C590008A4590008DC5900081D
:1032B000A0590008E930000875432F4F532D4949A4
:1032C0004920495352205175657565205461736BCF
:1032D000000000004C9700200021034A1160034ABF
:1032E0001180018070470000B4000020B800002069
:1032F00070B501461A4D2D681DB945F21E750D8039
:1033000070BD184D2D881DB945F21D750D80F7E76C
:10331000134D28682A681032124D2D886D1EACB2EC
:10332000002308E00260002545600581C56010307B
:1033300010325D1CABB2A342F4DB00250560456092
:103340000581C560064D2D68074E3560054D2D88F9
:10335000B5800025F58035810D8000BFD0E70000E5
:10336000C0590008B85900081498002010B501464B
:1033700048894B89002B17DD0A680C4B1B681360CA
:103380000A4C4B6823602346DB884C891B1B074C87
:10339000E38023469B884C892344044CA38000236C
:1033A0004B818B810B604B6010BD00001498002096
:1033B00001810022428182810260426070470000E8
:1033C0002DE9F0410D46DDE90674B0F80AC0B0F809
:1033D0000880C44505DB46F2935CA4F800C0BDE854
:1033E000F081DFF8DCC0BCF804C0BCF1000F04D1F0
:1033F00045F21D7CA4F800C0F1E7DFF8C4C0DCF89A
:103400000010DFF8BC80D1F800C0C8F800C0C44686
:10341000BCF804C0ACF1010CA8F804C0C446BCF868
:1034200006C00CF1010CA8F806C0C446BCF808C0E0
:10343000B8F80680C44507DADFF884C0BCF806C0D7
:10344000DFF87C80A8F808C0B0F80AC0BCF1000F13
:103450000AD1016041604FF0010CA0F80AC04FF0A2
:10346000000CC1F800C017E003F0100CBCF1000F15
:1034700007D10668316001604FF0000CC1F800C050
:1034800004E0D0F804C0C1F800C04160B0F80AC040
:103490000CF1010CA0F80AC0B0F80CC0B0F80A801A
:1034A000C44503DAB0F80AC0A0F80CC04D600A8128
:1034B000CF604FF0000CA4F800C000BF8FE7000001
:1034C000149800200021034A1160034A11800180F2
:1034D00070470000BC000020C00000202DE9F04132
:1034E00005460C4616461F461548006880F83460AD
:1034F00000201349096881F83500394610480068F2
:1035000000F00AFF6CB104F10808EC6001222946C2
:103510000B48006800F016F82946404600F066F8AF
:1035200006E0002006490968C8870549096808635C
:1035300003480168204600F019F8BDE8F08100005A
:103540003401002010B5C287016300230AE0002483
:103550004C600C600C614C610C83CC618860203144
:103560005C1CA3B29342F2DB10BD000030B548B141
:103570004568C1F8C45000F10804226893681D6AC8
:10358000C56113E091F83450022D02D0072D08D107
:1035900003E007A5C1F8C45007E007A5C1F8C4506F
:1035A00003E008A5C1F8C45000BF00BF30BD000053
:1035B0005461736B205100005461736B2053656D2F
:1035C000000000002000000030B507A5C1F8C4507D
:1035D00000F1080422681AB193681D6AC56101E010
:1035E00001A5C56130BD000020000000F0B58E6867
:1035F00096F8375007893FB90127078100274F60A8
:103600000F600160416023E007897F1C0781026829
:1036100006E0946894F83770AF4200DD02E052682B
:10362000002AF6D100BF32B900274F6043680B6013
:10363000596041600CE017682FB9116000270F60D6
:103640004A60016004E013680B604A6059601160D1
:10365000F0BD2DE9F0410446256BE68F0AE0D5F870
:103660000C8008F108072946384600F00AF8203592
:10367000701E86B2002EF2DC0020E0872063BDE8D9
:10368000F08110B50489012C03D10024046044604A
:1036900011E00C6824B94A680024146002600AE052
:1036A0004C6824B90B6800245C60436003E00B683D
:1036B0004A685A6013600489641E048100244C60C7
:1036C0000C6010BD2DE9F84306460C461746984697
:1036D000089D94F83600082850D2DFE800F0040571
:1036E000080906072B2C00BF00BF00BF47E000BF42
:1036F00094F83400032807D143463A462146304621
:10370000009500F03FF803E0E765A4F860802564C9
:1037100036B12046FFF79DFF21463046FFF754FFA4
:10372000204600F0FDFF00203434A070607004F8E3
:10373000340924E000BF94F83400032807D143463D
:103740003A4621463046009500F01CF803E0E76554
:10375000A4F860802564204601F048FD36B120467B
:10376000FFF777FF21463046FFF72EFF0420343461
:10377000A0700020607004F8340900E000BF00BFB2
:10378000BDE8F883F0B50446059E086BCD8F0AE0CE
:10379000C768A74204D1046142610383C66104E0A3
:1037A00020306F1EBDB2002DF2DC00BFF0BD000066
:1037B00070B50025074C03E005F12000C5B2241DBB
:1037C00020680028F8D02068FDF74FFB2844C5B2D8
:1037D000284670BD40010020002004E00021034A7B
:1037E00042F82010401C0028F8D07047400100200B
:1037F00030B5420900F01F030121C3F11F04A140AD
:10380000034C54F822400C43014D45F8224030BD92
:103810004001002030B5420900F01F030121C3F12F
:103820001F04A140034C54F822408C43014D45F83D
:10383000224030BD400100200021034A1160034AAC
:103840001180018070470000C8000020CC000020DB
:103850002DE9F04F85B007468A4693461C46002066
:10386000029000BF00BF00BFFDF7F4FA029000BF56
:10387000FDF7C8FC00BF56480078401C544908704A
:1038800008460078012801D100F08AF900BFFDF751
:10389000D3FC00BF0298FDF7E1FA00BF00BF00BFF4
:1038A00007F10806308900284CD104F0100010B947
:1038B0004FF0000801E04FF01008DDE90E0143462B
:1038C0005A46CDE90001514607F12000FFF778FD87
:1038D00000BF00BF00BFFDF7BDFA029000BFFDF7BB
:1038E00091FC00BF3A480078401E394908700846EC
:1038F0000078D0B900F062F93648008800280BDD66
:1039000000BFFDF799FC00BF0298FDF7A7FA00BFC2
:1039100000BF00F017F911E000BFFDF78DFC00BFFC
:103920000298FDF79BFA00BF08E000BFFDF784FC9A
:1039300000BF0298FDF792FA00BF00BF00BF05B0BC
:10394000BDE8F08F04F4007008B1358900E001256E
:10395000D6F8009011E0D9F808000390D9F80400D7
:1039600004900E985B465246009038460399FFF744
:10397000A9FEDDF81090681E85B2002DEBD100BFC6
:1039800000BF00BFFDF766FA029000BFFDF73AFCEA
:1039900000BF0F480078401E0D49087008460078A7
:1039A00008B900F00BF900BFFDF746FC00BF029814
:1039B000FDF754FA00BF00BF00BF04F4004008B98F
:1039C000FDF7FEFE00210F98018000BFB7E7000061
:1039D000DC000020A000002000210AE001EB4102F1
:1039E000054B03EB820000220281026042604A1C08
:1039F000D1B22029F2D370472098002010B5044698
:103A000094F83700FFF7F4FE94F837000549097879
:103A1000884203D1204600F027F802E0204600F05B
:103A200003F810BDC200002010B590F8373003EB4A
:103A300043030C4C04EB83010B893BB901230B813D
:103A40000023C36003610860486009E00B895B1CC8
:103A50000B810B68C360002303610A681061086072
:103A600010BD00002098002010B590F8373003EB0F
:103A700043030B4C04EB83010B893BB901230B81FE
:103A80000023C36003610860486008E00B895B1C89
:103A90000B810023C3604A680261D060486010BD9A
:103AA0002098002010B501460C8924B1012C03D0C8
:103AB000022C0CD101E000BF14E008684A680261E2
:103AC0000024C4601461D0600A6048600AE008689D
:103AD0004A68C36800241C61C4600261D0600B6046
:103AE000486000BF00BF10BD2DE9F041054695F8C4
:103AF000370000EB4000124901EB80042F69EE68AB
:103B000087B946B9002020812060606095F83700B1
:103B1000FFF780FE0EE02089401E208100203061EA
:103B2000266007E02089401E2081FE600EB9676094
:103B300000E0376100202861E860BDE8F081000006
:103B40002098002010B5002400BFFDF783F904463B
:103B500000BF00200D4908700D480E490860084656
:103B60000068D0F89000401C0968C1F890000A482D
:103B70000068401C084908604FF080500749086001
:103B800000BF2046FDF76AF900BF10BDC30000204A
:103B90004C970020380100200801002004ED00E0CF
:103BA00010B504480078012803D1FDF7B9FB02499C
:103BB000086010BDDC000020D000002010B50A48CD
:103BC000007880B9FDF7ACFB08490968441A084839
:103BD0000068A04201D20648046006480068A0427E
:103BE00001D20448046010BDDC000020D000002099
:103BF000D4000020D800002070B5054600263548C6
:103C00000078012800D070BD00BF00BFFDF722F989
:103C1000064600BFFDF7F6FA00BF2C684CB900BF9E
:103C2000FDF70AFB00BF3046FDF718F900BF00BFE3
:103C3000E9E72948844209D100BFFDF7FDFA00BF3A
:103C40003046FDF70BF900BF00BFDCE7A06D10B1F7
:103C5000A06D401EA065A06D48B100BFFDF7ECFA55
:103C600000BF3046FDF7FAF800BF00BFCBE7288958
:103C7000022809DA00BFFDF7DFFA00BF3046FDF782
:103C8000EDF800BF00BFBEE714480078002809DD4A
:103C900000BFFDF7D1FA00BF3046FDF7DFF800BFE7
:103CA00000BFB0E72846FFF7FDFE2C68606D18B92D
:103CB0000B480068A06501E0606DA06500BFFDF7DE
:103CC000BBFA00BF3046FDF7C9F800BF00BF00BF18
:103CD00099E70000E400002084960020DC0000202A
:103CE000E00000200021034A1160034A1180018096
:103CF00070470000E8000020EC0000202DE9FF5F85
:103D00000446884691461D460020019000BF00BF32
:103D1000FDF7A0F8019000BFFDF774FA00BF04F1B1
:103D200008073889002857D10420012804D0022828
:103D300016D004283AD127E0206AFF280FD100BF0F
:103D4000FDF77AFA00BF0198FDF788F800BF00BFC1
:103D500046F6C5502880002004B0BDE8F09F26E05C
:103D60004FF6FF71206A88420DD100BFFDF764FA5B
:103D700000BF0198FDF772F800BF00BF46F6C550BE
:103D800028800020E8E712E0206A401C68B900BFE4
:103D9000FDF752FA00BF0198FDF760F800BF00BFC1
:103DA00046F6C55028800020D6E700E000BF00BFDF
:103DB000206A401C2062D4F820A0C4F8249000BFE0
:103DC000FDF73AFA00BF0198FDF748F800BF00BFC1
:103DD000002028805046BFE700BF2D480078401CD7
:103DE0002B49087008460078012801D1FFF7D8FE5A
:103DF00000BFFDF721FA00BF0198FDF72FF800BFC3
:103E000000BF00BF08F4007008B13E8900E0012641
:103E1000D7F800B011E0DBF808000290DBF80400EE
:103E2000039000231A46CDF8009020460299FFF730
:103E300049FCDDF80CB0701E86B2002EEBD1D4F830
:103E400020A000BF00BF00BFFDF704F8019000BF35
:103E5000FDF7D8F900BF0E480078401E0C490870E5
:103E60000846007808B9FFF7A9FE00BFFDF7E4F99E
:103E700000BF0198FCF7F2FF00BF00BF00BF08F4CD
:103E8000004008B9FDF79CFC00202880504663E7FD
:103E9000DC00002086B00020009000BF06E0D94979
:103EA0000968480001AA0021FEF710FCD6480078F6
:103EB0000128F4D101A8FDF799FD0027D348006837
:103EC000D0490968884205D9D0480068CD490968B9
:103ED000B0FBF1F727B9CD4800680A21B0FBF1F734
:103EE0008EE1FDF71DFA8246FDF776F9C8490860B4
:103EF00000BF00BFFCF7AEFF009000BFFDF782F9E6
:103F000000BFC4480068C44908600020C149086077
:103F100000BFFDF791F900BF0098FCF79FFF00BFBD
:103F200000BFBE480068BC490968884248D9BB4800
:103F30000068BB49884205D242F21070039001200C
:103F4000029023E0B5480068B649884205D24FF494
:103F50007A7003900A20029018E0B0480068B249D5
:103F6000884203D26420039002900FE0AB480068BF
:103F7000AE49884205D20A2003904FF47A7002902D
:103F800004E00120039042F210700290A3480168FF
:103F90000298B1FBF0F9A049039809684843B0FBC7
:103FA000F9F042F21071081AA1490880A14800886E
:103FB0000988884208DA9E4800889E49088003E004
:103FC00042F210709A490880FDF744FE002500BFB8
:103FD00000BFFCF73FFF009000BFFDF713F900BFE3
:103FE0009548046800BFFDF727F900BF0098FCF76B
:103FF00035FF00BF00BF72E000BF00BF00BFFCF78D
:1040000029FF009000BFFDF7FDF800BF8B48007846
:10401000401C8A49087008460078012801D1FFF742
:10402000BFFD00BFFDF708F900BF0098FCF716FFC1
:1040300000BF00BF00BF54F89C0F6060002044F830
:104040009C0900BF00BF00BFFCF704FF009000BF49
:10405000FDF7D8F800BF79480078401E774908700E
:1040600008460078D0B9FFF7A9FD754800880028F8
:104070000BDD00BFFDF7E0F800BF0098FCF7EEFE97
:1040800000BF00BFFFF75EFD11E000BFFDF7D4F8F1
:1040900000BF0098FCF7E2FE00BF08E000BFFDF79C
:1040A000CBF800BF0098FCF7D9FE00BF00BF00BFEF
:1040B000D4F8A000054400BF00BFFCF7CBFE009081
:1040C00000BFFDF79FF800BFD4F8C04000BFFDF768
:1040D000B3F800BF0098FCF7C1FE00BF00BF002C82
:1040E0008AD145B34E48854205D242F21070059000
:1040F0004FF0010B1BE04B48854205D24FF47A701C
:1041000005904FF00A0B12E04748854203D2642025
:10411000059083460BE04548854204D20A2005906D
:104120004FF47A7B03E00120059042F2107BB5FB4F
:10413000FBF0049003E0002005900120049000BFF4
:1041400000BFFCF787FE009000BFFDF75BF800BFE3
:104150003948046800BFFDF76FF800BF0098FCF70E
:104160007DFE00BF00BF2FE0D4F8A00005994843B2
:104170000499B0FBF1F086B242F21070864200D989
:104180000646A4F88C60B4F88E00B04201DAA4F8B8
:104190008E6001AB04F1AC02111D2046FEF742F91E
:1041A00000BF00BFFCF756FE009000BFFDF72AF8E5
:1041B00000BFD4F8C04000BFFDF73EF800BF009834
:1041C000FCF74CFE00BF00BF002CCDD11D4800788D
:1041D000012805D100201B49087001A8FDF706FC45
:1041E000FDF79EF8A0EB0A0817480068404502D288
:1041F0001548C0F8008001AA00213846FEF766FA8B
:104200006FE60000C859000800010020E0590008CE
:1042100090000020F4000020FC000020F8000020A6
:10422000801A060000093D00005A62020084D71778
:10423000F0000020F20000200C010020DC00002033
:10424000A0000020EE0000200401002010B58AB07C
:10425000044600201F4908601F4908601F49086084
:104260001F4908701F4908701F48006820B946F6AA
:104270002B6020800AB010BD1C4800681C490968EA
:10428000884203D246F62C602080F3E71948007874
:104290001F2803D346F62A602080EBE70320002185
:1042A0000591CDE907040691084610490968124AAC
:1042B00012680D4B1B68CDE90132CDE903100D48A2
:1042C000007800230D4A0EA100901248FDF7CCFCA7
:1042D00000BFCFE7F4000020FC000020F800002021
:1042E00000010020EE000020CC590008D45900083D
:1042F000DC590008C4590008D0590008953E000850
:1043000075432F4F532D49494920537461742054EC
:1043100061736B00A099002038B504460D4685B145
:104320006B4602222946204600F082FEBDF80000BE
:1043300018B9032084F8360006E0022084F836001D
:1043400002E0022084F836002046FFF7CDFB38BD9E
:104350000021C0F8BC100949096819B90021C0F84A
:10436000C01007E005490968C0F8C0100349096892
:10437000C1F8BC0001490860704700000C01002032
:10438000D0F8BC20D0F8C0104AB90D4B196011B15B
:104390000023C1F8BC300023C0F8C0300FE029B9B9
:1043A0000023C2F8C030C0F8BC3008E0C2F8C0102A
:1043B000C1F8BC200023C0F8C030C0F8BC30704742
:1043C0000C0100200021044A1160044A1180044AB3
:1043D00011600180704700000C01002010010020D6
:1043E0000801002070B5044600202060A0606060D5
:1043F000E06020616061A061E0612BA0206200208C
:104400006062A062E0622063E0872064E065A4F857
:104410006000002104F16400FEF7CAFF002044F8A8
:10442000740F6060E060A0822061743C002506E0AB
:10443000002104F17C0040F82510681CC5B2002D55
:10444000F6D000203434206120676067606084F813
:104450005600E067A06720814FF0004060610020B7
:10446000A061E06120626062A4F85800A4F85A00DC
:10447000E0652066FCF754FF064666660020A066ED
:10448000C4F88000C4F8840020706070A070202000
:10449000E0700020C4F88800C4F88C0004A0C4F8C0
:1044A0009000343C70BD00003F5461736B0000000D
:1044B000200000002DE9FC4704460F46904699462F
:1044C000DDE90A654FF0000A00BF00BF00BFFCF73E
:1044D000C1FC824600BFFCF795FE00BF8D48007806
:1044E000401C8C49087008460078012801D1FFF76C
:1044F00057FB00BFFCF7A0FE00BF5046FCF7AEFC28
:1045000000BF00BF00BF0CB98348046800202880AA
:1045100094F8360008287CD2DFE800F0040548490A
:1045200006074A4B00BF00BF00BF4B464246394614
:1045300004F16400CDE90065FEF742FF00BF00BF53
:1045400000BFFCF787FC824600BFFCF75BFE00BFA4
:1045500070480078401E6F49087008460078D0B94E
:10456000FFF72CFB6D48008800280BDD00BFFCF72F
:1045700063FE00BF5046FCF771FC00BF00BFFFF7B1
:10458000E1FA11E000BFFCF757FE00BF5046FCF710
:1045900065FC00BF08E000BFFCF74EFE00BF5046C0
:1045A000FCF75CFC00BF00BF00BFAFE000BF00BF76
:1045B00000BF94F8340002282CD143463A462146E5
:1045C00000200096FFF77EF800BF00BF00BFFCF799
:1045D00041FC824600BFFCF715FE00BF4D48007845
:1045E000401E4C4908700846007808B9FFF7E6FA03
:1045F00000BFFCF721FE00BF5046FCF72FFC00BFB8
:1046000000BF00BF09F40040002843D1FDF7D8F8EF
:1046100040E040E04B464246394604F16400CDE9B3
:104620000065FEF7CDFE00BF00BF00BFFCF712FC27
:10463000824600BFFCF7E6FD00BF36480078401E0A
:104640003449087008460078D0B9FFF7B7FA334804
:10465000008800280BDD00BFFCF7EEFD00BF5046D0
:10466000FCF7FCFB00BF00BFFFF76CFA11E000BFD6
:10467000FCF7E2FD00BF5046FCF7F0FB00BF08E08E
:1046800000BFFCF7D9FD00BF5046FCF7E7FB00BFB9
:1046900000BF00BF3AE000BF00BF00BFFCF7DAFB7D
:1046A000824600BFFCF7AEFD00BF1A480078401EEE
:1046B0001849087008460078D0B9FFF77FFA174804
:1046C000008800280BDD00BFFCF7B6FD00BF504698
:1046D000FCF7C4FB00BF00BFFFF734FA11E000BFD6
:1046E000FCF7AAFD00BF5046FCF7B8FB00BF08E08E
:1046F00000BFFCF7A1FD00BF5046FCF7AFFB00BFB9
:1047000000BF00BF46F62D60288000BF00BFBDE897
:10471000FC870000DC00002034010020A000002005
:1047200010B50446204600F061FD94F8360000F014
:10473000040010B92046FFF761F910BD70B50446BA
:104740000D46002600BF00BFFCF784FB064600BFF5
:10475000FCF758FD00BF0020288094F83600082898
:104760007ED2DFE800F00405060714566A8000BF19
:1047700000BF00BF00BFFCF75FFD00BF3046FCF785
:104780006DFB00BF00BF47F2531028808CE000BFD4
:1047900048480078401C47490870084600780128BE
:1047A00001D1FFF7FDF900BFFCF746FD00BF304621
:1047B000FCF754FB00BF00BF00BF14F88A0F401E77
:1047C000207014F88A0928B9002084F836002046A1
:1047D000FFF7A6FF00BF00BF00BFFCF73BFB06468C
:1047E00000BFFCF70FFD00BF32480078401E314982
:1047F00008700846007808B9FFF7E0F900BFFCF739
:104800001BFD00BF3046FCF729FB00BF00BF00BF07
:104810004AE014F88A0F401E207014F88A0910B973
:10482000012084F8360000BFFCF706FD00BF3046CB
:10483000FCF714FB00BF00BF36E014F88A0F401EDF
:10484000207014F88A0910B9022084F8360000BFDD
:10485000FCF7F2FC00BF3046FCF700FB00BF00E0B5
:1048600015E000BF20E014F88A0F401E207014F8F5
:104870008A0910B9032084F8360000BFFCF7DCFC7D
:1048800000BF3046FCF7EAFA00BF00BF0CE000BFF3
:10489000FCF7D2FC00BF3046FCF7E0FA00BF00BFD7
:1048A00046F62D60288070BD00BFFCF789FF00BF71
:1048B000F9E70000DC00002008B504480068FDF7B7
:1048C0007DFC69460020FDF725FB08BD3401002072
:1048D0002DE9F8430446884617461D464FF0000967
:1048E00000BF00BF00BFFCF7B5FA814600BFFCF770
:1048F00089FC00BFFB480078401CFA490870084654
:104900000078012801D1FFF74BF900BFFCF794FCB8
:1049100000BF4846FCF7A2FA00BF00BF00BF0CB9B9
:10492000F148046827640020288094F8360008289D
:104930007AD2DFE800F00405FEFD0607FCFB00BFAD
:1049400000BF00BF0420012804D0022843D004285F
:104950006BD184E0606CFF283CD100BF00BF00BF7A
:10496000FCF778FA814600BFFCF74CFC00BFDD483D
:104970000078401EDB49087008460078D0B9FFF780
:104980001DF9DA48008800280BDD00BFFCF754FC55
:1049900000BF4846FCF762FA00BF00BFFFF7D2F83D
:1049A00011E000BFFCF748FC00BF4846FCF756FA90
:1049B00000BF08E000BFFCF73FFC00BF4846FCF723
:1049C0004DFA00BF00BF00BF46F6C550288000204A
:1049D000BDE8F88385E04FF6FF71606C88423DD1F9
:1049E00000BF00BF00BFFCF735FA814600BFFCF7EF
:1049F00009FC00BFBB480078401EBA490870084651
:104A00000078E0B9FFF7DAF8B848008800280DDD33
:104A100000BFFCF711FC00BF4846FCF71FFA00BFBF
:104A200000BFFFF78FF813E0E2E159E000BFFCF7A9
:104A300003FC00BF4846FCF711FA00BF08E000BFC6
:104A4000FCF7FAFB00BF4846FCF708FA00BF00BFBE
:104A500000BF46F6C55028800020B9E741E0606CF1
:104A6000401CD8BB00BF00BF00BFFCF7F3F9814674
:104A700000BFFCF7C7FB00BF9A480078401E994969
:104A8000087008460078D0B9FFF798F89748008872
:104A900000280BDD00BFFCF7CFFB00BF4846FCF74A
:104AA000DDF900BF00BFFFF74DF811E000BFFCF7D4
:104AB000C3FB00BF4846FCF7D1F900BF08E000BFC8
:104AC000FCF7BAFB00BF4846FCF7C8F900BF00BFBF
:104AD00000BF46F6C5502880002079E7FFE700E0D8
:104AE00000BF00BF606C401C6064666C00BF00BF0C
:104AF00000BFFCF7AFF9814600BFFCF783FB00BFA6
:104B000078480078401E7749087008460078F8B960
:104B1000FFF754F875480088002810DD00BFFCF747
:104B20008BFB00BF4846FCF799F903E01EE01CE050
:104B30001AE018E000BF00BFFFF704F811E000BF63
:104B4000FCF77AFB00BF4846FCF788F900BF08E095
:104B500000BFFCF771FB00BF4846FCF77FF900BFC0
:104B600000BF00BF80E100BF00BF00BF94F8340069
:104B700007282CD100231A46214618460097FEF735
:104B8000A1FD666C00BF00BF00BFFCF763F9814662
:104B900000BFFCF737FB00BF52480078401E514968
:104BA00008700846007808B9FFF708F800BFFCF75E
:104BB00043FB00BF4846FCF751F900BF00BF00BFF0
:104BC00008F40040002801D1FCF7FAFD0FE10420B1
:104BD000012804D0022842D0042872D189E0606CF8
:104BE000FF283BD100BF00BF00BFFCF733F981466F
:104BF00000BFFCF707FB00BF3A480078401E394968
:104C0000087008460078D0B9FEF7D8FF374800880A
:104C100000280BDD00BFFCF70FFB00BF4846FCF788
:104C20001DF900BF00BFFEF78DFF11E000BFFCF7CC
:104C300003FB00BF4846FCF711F900BF08E000BFC6
:104C4000FCF7FAFA00BF4846FCF708F900BF00BFBE
:104C500000BF46F6C55028800020B9E68BE04FF62D
:104C6000FF71606C884243D100BF00BF00BFFCF7FA
:104C7000F1F8814600BFFCF7C5FA00BF194800787B
:104C8000401E1849087008460078D8B9FEF796FF0C
:104C90001648008800280BDD00BFFCF7CDFA00BFE6
:104CA0004846FCF7DBF800BF00BFFEF74BFF12E001
:104CB00000BFFCF7C1FA00BF4846FCF7CFF800BFC1
:104CC00009E057E000BFFCF7B7FA00BF4846FCF721
:104CD000C5F800BF00BF00BF46F6C55028800020C1
:104CE00076E60000DC00002034010020A000002057
:104CF00041E0606C401CD8BB00BF00BF00BFFCF7A8
:104D0000A9F8814600BFFCF77DFA00BF584800783B
:104D1000401E5749087008460078D0B9FEF74EFF8C
:104D20005448008800280BDD00BFFCF785FA00BF5F
:104D30004846FCF793F800BF00BFFEF703FF11E001
:104D400000BFFCF779FA00BF4846FCF787F800BFC0
:104D500008E000BFFCF770FA00BF4846FCF77EF899
:104D600000BF00BF00BF46F6C550288000202FE6D8
:104D7000FFE700E000BF00BF606C401C6064666C31
:104D800000BF00BF00BFFCF765F8814600BFFCF71D
:104D900039FA00BF36480078401E35490870084689
:104DA0000078D0B9FEF70AFF3248008800280BDDF2
:104DB00000BFFCF741FA00BF4846FCF74FF800BFC0
:104DC00000BFFEF7BFFE11E000BFFCF735FA00BFE1
:104DD0004846FCF743F800BF08E000BFFCF72CFA98
:104DE00000BF4846FCF73AF800BF00BF00BF3BE0F9
:104DF00000BF00BF00BFFCF72DF8814600BFFCF7E5
:104E000001FA00BF1A480078401E19490870084688
:104E10000078D0B9FEF7D2FE1648008800280BDDD6
:104E200000BFFCF709FA00BF4846FCF717F800BFBF
:104E300000BFFEF787FE11E000BFFCF7FDF900BFE1
:104E40004846FCF70BF800BF08E000BFFCF7F4F998
:104E500000BF4846FCF702F800BF00BF00BF46F69F
:104E60002D602880002600BF00BF3046B0E500005E
:104E7000DC000020A000002070B504460D4600268E
:104E800000BF00BFFBF7E6FF064600BFFCF7BAF91C
:104E900000BF0CB95A48046859480068844210D1D0
:104EA0005848007800280CDD00BFFCF7C5F900BFAA
:104EB0003046FBF7D3FF00BF00BF46F663502880A3
:104EC00070BD0020288094F83600082873D2DFE8EF
:104ED00000F0044252627374757600BF494800784E
:104EE000401C4849087008460078012801D1FEF7A7
:104EF00057FE00BFFCF7A0F900BF3046FBF7AEFF3E
:104F000000BF00BF00BF042084F83600012084F8F1
:104F10008A002046FEF7E8FD00BF00BF00BFFBF798
:104F200099FF064600BFFCF76DF900BF35480078D1
:104F3000401E344908700846007808B9FEF73EFE66
:104F400000BFFCF779F900BF3046FBF787FF00BFD1
:104F500000BF00BF4FE0052084F83600012084F830
:104F60008A0000BFFCF768F900BF3046FBF776FF08
:104F700000BF00BF3FE0062084F83600012084F81F
:104F80008A0000BFFCF758F900BF3046FBF766FF08
:104F900000BF00BF2FE0072084F83600012084F80E
:104FA0008A0000BFFCF748F900BF3046FBF756FF08
:104FB00000BF00BF1FE011E000BF00BF00BF94F8BA
:104FC0008A00401C84F88A0000BFFCF735F900BF56
:104FD0003046FBF743FF00BF00BF0CE000BFFCF70B
:104FE0002BF900BF3046FBF739FF00BF00BF46F684
:104FF0002D60288064E700BFFCF7E2FB00BF5FE79D
:1050000034010020DC000020002108E0064A02EB09
:10501000C100002202608280C2804A1C91B2034A11
:1050200012889142F2DB704774930020F85900080F
:105030002DE9F04F0C4616461D46042E1ED1DFF812
:10504000A091D9F80090A4EB0909A9F1010313F587
:10505000803F0DD94FF00009C0F84C90C0F8509037
:10506000C0F81C9047F27E29A5F80090BDE8F08FAB
:10507000C46403F10109C0F850903FE084B3082EE6
:1050800025D1D0F8489009EB0407DFF85491D9F8FE
:105090000090A7EB0909A9F10103A34201D2C7645B
:1050A00006E0DFF83C91D9F80090A144C0F84C909C
:1050B000DFF82CA1D0F84C90DAF800A0A9EB0A098F
:1050C000C0F85090D0F84C90C0F8489016E0DFF847
:1050D0001091D9F80090A144C0F84C9004650DE0FF
:1050E000FFE74FF00009C0F84C90C0F85090C0F8AE
:1050F0001C9047F27E29A5F80090B7E7DFF8E4A0FE
:10510000BAF800A0D0F84C90B9FBFAFB0AFB1B9947
:105110001FFA89F8DFF8D09009EBC802B2F80490C2
:10512000B9F1000F0BD14FF00009C0F81490C0F88E
:10513000189010604FF00109A2F804903EE0116849
:1051400034E0DFF89CA0D1F84C90DAF800A0A9EB8D
:105150000A09C1F85090D0F85090D1F850A0D1452C
:105160000ED9D1F81490B9F1000F01D049691DE0B2
:105170004FF00009C0F8149081614861002115E0EA
:10518000D1F81890B9F1000F07D14FF00009C0F81D
:10519000189041618861106007E0D1F818C0C0F82C
:1051A00018C04161CCF81400886100210029C8D1E1
:1051B000B2F8049009F10109A2F80490B2F806903F
:1051C000B2F804A0D14503DAB2F80490A2F8069030
:1051D000C2614FF00009A5F8009000BF46E700004B
:1051E00014010020F85900087493002010B5C2691A
:1051F000BAB1002404651468844205D14169116084
:1052000039B100248C6104E0816943694B6103B1C9
:105210009961002444618461C461C4649488641EFB
:10522000948010BD002006E0054A02EBC001002278
:10523000CA80421C90B2034A12889042F4DB704745
:1052400074930020F85900082DE9F05F4FF0000B2F
:1052500000BF00BF00BFFBF7FDFD834600BFFBF7AB
:10526000D1FF00BF7A480078401C79490870084691
:105270000078012801D1FEF793FC00BFFBF7DCFFAB
:1052800000BF5846FBF7EAFD00BF00BF00BFFCF7B8
:1052900047F805466F480068401C6E49086008469C
:1052A00000686D490988B0FBF1F201FB12001FFA9A
:1052B00080FA6A4800EBCA08D8F80040002782E06C
:1052C000002C7FD0D4F8149094F83600082875D2BA
:1052D000DFE800F00408051B063D075000BF00BFD3
:1052E00000BF6CE05B49E06C0968401A20655949D1
:1052F000E06C0968884206D1002084F83600204618
:10530000FFF70EFA00E0012759E05249E06C096806
:10531000401A20654F49E06C0968884215D1002089
:10532000E065A4F86000FBF7FBFF20642046FEF771
:1053300090F92046FFF7F4F900203434A0700320E0
:105340006070002004F8340900E0012737E041498B
:10535000E06C0968401A20653E49E06C09688842A3
:1053600006D1042084F836002046FFF73FFF00E016
:10537000012724E03749E06C0968401A2065354967
:10538000E06C0968884217D10020E065A4F860004D
:10539000FBF7C6FF20642046FEF75BF92046FFF7C7
:1053A00025FF04203434A07003206070002004F82E
:1053B000340902E006E001E0012700E000BF00BF81
:1053C0004C4600E00127002F3FF47AAFFBF7A8FF1F
:1053D000461B23480068B04201D22148066000BF46
:1053E00000BF00BFFBF736FD834600BFFBF70AFF97
:1053F00000BF17480078401E15490870084600781D
:10540000D0B9FEF7DBFB1748008800280BDD00BF92
:10541000FBF712FF00BF5846FBF720FD00BF00BF9F
:10542000FEF790FB11E000BFFBF706FF00BF5846F8
:10543000FBF714FD00BF08E000BFFBF7FDFE00BF57
:105440005846FBF70BFD00BF00BF00BFBDE8F09F53
:10545000DC00002014010020F8590008749300209B
:1054600018010020A00000201CB500BF0EE001AB19
:105470006A4600210846FCF7ADFEBDF8040028B9D5
:1054800003480078012801D1FFF7DEFEEFE70000B6
:105490009400002010B58AB0044600201D49086021
:1054A0001D490860FFF7B0FD1C48006820B947F2AD
:1054B000122020800AB010BD1948006819490968F7
:1054C000884203D247F213202080F3E71648007881
:1054D0001F2803D347F211202080EBE70B20002187
:1054E00005910A46CDE9070406910D4800680F4969
:1054F00009680A4B1B68CDE90131CDE903020A486E
:10550000007800230A4A0BA100900F48FCF7ACFB7F
:1055100000BFCFE71401002018010020E85900085F
:10552000F0590008DC590008E4590008EC5900085B
:105530006954000875432F4F532D49494920546938
:10554000636B205461736B00689A002070B58AB059
:1055500004460020314908603148006840B13148B4
:1055600000682F490968B0FBF1F02F49086006E098
:105570002C4800680A21B0FBF1F02B4908602A484A
:1055800000682A4908600020294908602949086004
:10559000002508E0284800EBC5060020B080F08018
:1055A0003060681C85B2254800888542F2DB2448BB
:1055B000006820B947F2473020800AB070BD21480A
:1055C000006821490968884203D247F248302080A8
:1055D000F3E71E4800781F2803D347F246302080A7
:1055E000EBE70B2000210591CDE907040691084661
:1055F00014490968164A1268114B1B68CDE901323B
:10560000CDE90310114800780023124A12A100903E
:105610001748FCF729FB00BFCFE700001C01002062
:10562000045A0008E05900082C0100203001002035
:105630002801002024010020FC950020185A0008B1
:10564000085A0008105A0008DC590008005A0008DF
:105650000C5A00086957000875432F4F532D4949CC
:10566000492054696D6572205461736B000000001D
:10567000309B0020F0B50C46022680F82A60012CF1
:1056800005D12D4F466A3F683E4486610CE0066AAC
:105690002EB9294F466A3F683E44866104E0264F92
:1056A000066A3F683E448661244F3F888669B6FBA0
:1056B000F7FC07FB1C66B5B2214E06EBC502166867
:1056C00036B90026066146611060012696802CE0FE
:1056D000194F86693F68F61BC661116820E0164FB6
:1056E0008E693F68F61BCE61C669CF69BE4209D993
:1056F0000E690EB1096913E0002606614161086177
:1057000000210DE04E692EB9002646610161486115
:10571000106004E04B694361016118614861002138
:105720000029DCD19688761C9680D6889788BE4260
:1057300001DA9688D680F0BD28010020185A0008AA
:10574000FC950020002006E0054A02EBC001002283
:10575000CA80421C90B2034A12889042F4DB704720
:10576000FC950020185A00081CB500BF53E001AB9F
:105770006A4600210846FCF72DFD01A8FCF774F8E5
:10578000FBF7CEFD064624480068401C224908600D
:105790000846006821490988B0FBF1F201FB1200BC
:1057A0001FFA80FA1E4800EBCA08D8F800404FF0F4
:1057B000000B21E0F4B1D4F810901749A0690968F2
:1057C000884214D1204600F02FF8208D022804D101
:1057D00001212046FFF74EFF02E0032084F82A0053
:1057E000A56815B12046E168A8474C4604E04FF093
:1057F000010B01E04FF0010BBBF1000FDAD0FBF71A
:105800008FFD871B01A8FCF76DF806480068B842B9
:1058100001D204480760AAE728010020185A0008AE
:10582000FC95002024010020F0B5114E36888569D2
:10583000B5FBF6F706FB1755ACB20E4D05EBC402EF
:105840001568854205D10169116039B100254D61A6
:1058500004E0416903690B6103B15961012580F8D6
:105860002A5000250561456195886D1E9580F0BD23
:10587000185A0008FC9500207047000000B585B05C
:1058800001218803FBF776F801210420FBF772F869
:105890004FF40070ADF8100018208DF813000320AD
:1058A0008DF8120004A91348FAF7AEFD4FF480609A
:1058B000ADF8100004208DF8130004A90D48FAF784
:1058C000A3FD4FF4E13000900020ADF80400ADF8E6
:1058D0000600ADF80800ADF80C000C20ADF80A0089
:1058E00069460548FBF7F1F801210348FBF779F910
:1058F00005B000BD000801400038014000BFFEE7D0
:1059000002E008C8121F08C1002AFAD17047704788
:10591000002001E001C1121F002AFBD170470000E6
:1059200000B58BB00AA8FBF7F7FD0AA803210022F7
:105930000592CDE906210890052080210C22094B13
:10594000CDE90132CDE9031002200023064A07A168
:1059500000900A48FCF788F90AA8FCF713F8002021
:105960000BB000BD44010020D50F0008417070202D
:105970005461736B205374617274000044030020FF
:10598000F48100200C0000008000000000020000F4
:10599000F48300200A00000040010000348500204C
:1059A0000C0000008000000000020000348700208E
:1059B00080000000000200006400000040060000BB
:1059C000348900200B0000000A000000748F0020C2
:1059D0000C000000800000000002000040000000F9
:1059E000E80300000A000000749100200C00000091
:1059F000800000000002000011000000880000008C
:105A00000B0000000A000000FC9300200C000000C6
:105A1000800000000002000011000000880000006B
:105A200090140000010101007856341201010000B9
:105A30000000000000000000000000000000000066
:105A40000000000000000000000000000000000056
:105A50000000000000000000010101002800040017
:105A60002000010000000000000000000000000015
:105A70000000000000000000000000000000000026
:105A80000000000001002000010010000C001000C8
:105A90000000000000000000000000000000000006
:105AA00000000000000000000000000000000000F6
:105AB00000000000000000000000000001010100E3
:105AC0002C00010120000C00200020000400040034
:105AD00000000000000000000000000000000000C6
:105AE00000000000000000000000000000000000B6
:105AF00000000000000000000000000000000000A6
:105B00000101010130000100000000000000000060
:105B10000000000000000000000000000000000085
:105B20000000000000000000000000000000000075
:105B30000101010128000C008001000004010101A5
:105B40000101010101000101C8000800010100007C
:105B50000000000000000000000000000000000045
:105B60000000000000000000000000000000000035
:105B70000000000000000000000000000000000025
:105B8000000000000101340008005D762A060000D4
:105B9000B05B00080000002044010000A40E0008D3
:105BA000DC5B000844010020B49E0000105900088E
:105BB0004132013202320432083210322032404285
:105BC000802BA24A1B516809010203040607080939
:0C5BD0000C69102C0204063B01F50000DB
:0400000508000131BD
:00000001FF
