Component: ARM Compiler 5.06 update 7 (build 960) Tool: armlink [4d3601]

==============================================================================

Section Cross References

    startup_stm32f10x_hd.o(RESET) refers to startup_stm32f10x_hd.o(STACK) for __initial_sp
    startup_stm32f10x_hd.o(RESET) refers to startup_stm32f10x_hd.o(.text) for Reset_Handler
    startup_stm32f10x_hd.o(RESET) refers to stm32f10x_it.o(i.NMI_Handler) for NMI_Handler
    startup_stm32f10x_hd.o(RESET) refers to stm32f10x_it.o(i.HardFault_Handler) for HardFault_Handler
    startup_stm32f10x_hd.o(RESET) refers to stm32f10x_it.o(i.MemManage_Handler) for MemManage_Handler
    startup_stm32f10x_hd.o(RESET) refers to stm32f10x_it.o(i.BusFault_Handler) for BusFault_Handler
    startup_stm32f10x_hd.o(RESET) refers to stm32f10x_it.o(i.UsageFault_Handler) for UsageFault_Handler
    startup_stm32f10x_hd.o(RESET) refers to stm32f10x_it.o(i.SVC_Handler) for SVC_Handler
    startup_stm32f10x_hd.o(RESET) refers to stm32f10x_it.o(i.DebugMon_Handler) for DebugMon_Handler
    startup_stm32f10x_hd.o(RESET) refers to os_cpu_a.o(CODE) for OS_CPU_PendSVHandler
    startup_stm32f10x_hd.o(RESET) refers to os_cpu_c.o(i.OS_CPU_SysTickHandler) for OS_CPU_SysTickHandler
    startup_stm32f10x_hd.o(.text) refers to system_stm32f10x.o(.text) for SystemInit
    startup_stm32f10x_hd.o(.text) refers to entry.o(.ARM.Collect$$$$00000000) for __main
    main.o(i.AppTaskKey) refers to tftlcd.o(i.LCD_ShowFontHZ) for LCD_ShowFontHZ
    main.o(i.AppTaskKey) refers to tftlcd.o(i.LCD_ShowString) for LCD_ShowString
    main.o(i.AppTaskKey) refers to bsp_key.o(i.Key_Scan) for Key_Scan
    main.o(i.AppTaskKey) refers to os_sem.o(i.OSSemPost) for OSSemPost
    main.o(i.AppTaskKey) refers to os_time.o(i.OSTimeDlyHMSM) for OSTimeDlyHMSM
==============================================================================

Removing Unused input sections from the image.

    Removing startup_stm32f10x_hd.o(HEAP), (512 bytes).
    Removing os_app_hooks.o(i.App_OS_ClrAllHooks), (100 bytes).
    Removing os_app_hooks.o(i.App_OS_IdleTaskHook), (2 bytes).
    Removing os_app_hooks.o(i.App_OS_InitHook), (2 bytes).
    Removing os_app_hooks.o(i.App_OS_SetAllHooks), (140 bytes).
    Removing os_app_hooks.o(i.App_OS_StatTaskHook), (2 bytes).
    Removing os_app_hooks.o(i.App_OS_TaskCreateHook), (2 bytes).
    Removing os_app_hooks.o(i.App_OS_TaskDelHook), (2 bytes).
    Removing os_app_hooks.o(i.App_OS_TaskReturnHook), (2 bytes).
    Removing os_app_hooks.o(i.App_OS_TaskSwHook), (2 bytes).
    Removing os_app_hooks.o(i.App_OS_TimeTickHook), (2 bytes).
    Removing stm32f10x_it.o(i.PendSV_Handler), (2 bytes).
    Removing stm32f10x_it.o(i.SysTick_Handler), (2 bytes).
    Removing bsp.o(.data), (4 bytes).
    Removing bsp_usart1.o(i.fgetc), (32 bytes).
    Removing bsp_key.o(i.Key_ReadStatus), (34 bytes).
    Removing tftlcd.o(i.LCD_Color_Fill), (90 bytes).
    Removing tftlcd.o(i.LCD_DrawLine), (176 bytes).
==============================================================================

Image Symbol Table

    Local Symbols

    Symbol Name                              Value     Ov Type        Size  Object(Section)

    ../clib/../cmprslib/zerorunl2.c          0x00000000   Number         0  __dczerorl2.o ABSOLUTE
    ../clib/microlib/division.c              0x00000000   Number         0  uldiv.o ABSOLUTE
    ../clib/microlib/division.c              0x00000000   Number         0  uidiv.o ABSOLUTE
    ../clib/microlib/init/entry.s            0x00000000   Number         0  entry11b.o ABSOLUTE
    ../clib/microlib/init/entry.s            0x00000000   Number         0  entry10b.o ABSOLUTE
    ../clib/microlib/init/entry.s            0x00000000   Number         0  entry11a.o ABSOLUTE
    ../clib/microlib/init/entry.s            0x00000000   Number         0  entry5.o ABSOLUTE
    ../clib/microlib/init/entry.s            0x00000000   Number         0  entry.o ABSOLUTE
    ../clib/microlib/init/entry.s            0x00000000   Number         0  entry10a.o ABSOLUTE
    ../clib/microlib/init/entry.s            0x00000000   Number         0  entry2.o ABSOLUTE
    ../clib/microlib/init/entry.s            0x00000000   Number         0  entry9b.o ABSOLUTE
    ../clib/microlib/init/entry.s            0x00000000   Number         0  entry9a.o ABSOLUTE
    ../clib/microlib/init/entry.s            0x00000000   Number         0  entry8b.o ABSOLUTE
    ../clib/microlib/init/entry.s            0x00000000   Number         0  entry8a.o ABSOLUTE
    ../clib/microlib/init/entry.s            0x00000000   Number         0  entry7b.o ABSOLUTE
    ../clib/microlib/init/entry.s            0x00000000   Number         0  entry12a.o ABSOLUTE
    ../clib/microlib/init/entry.s            0x00000000   Number         0  entry12b.o ABSOLUTE
    ../clib/microlib/init/entry.s            0x00000000   Number         0  entry7a.o ABSOLUTE
    ../clib/microlib/longlong.c              0x00000000   Number         0  llushr.o ABSOLUTE
    ../clib/microlib/longlong.c              0x00000000   Number         0  llshl.o ABSOLUTE
    ../clib/microlib/longlong.c              0x00000000   Number         0  llsshr.o ABSOLUTE
    ../clib/microlib/printf/printf.c         0x00000000   Number         0  printf6.o ABSOLUTE
    ../clib/microlib/printf/printf.c         0x00000000   Number         0  printf3.o ABSOLUTE
    ../clib/microlib/printf/printf.c         0x00000000   Number         0  printf4.o ABSOLUTE
    ../clib/microlib/printf/printf.c         0x00000000   Number         0  printf1.o ABSOLUTE
    ../clib/microlib/printf/printf.c         0x00000000   Number         0  printf0.o ABSOLUTE
    ../clib/microlib/printf/printf.c         0x00000000   Number         0  printfb.o ABSOLUTE
    ../clib/microlib/printf/printf.c         0x00000000   Number         0  printf5.o ABSOLUTE
    ../clib/microlib/printf/printf.c         0x00000000   Number         0  printfa.o ABSOLUTE
    ../clib/microlib/printf/printf.c         0x00000000   Number         0  printf2.o ABSOLUTE
    ../clib/microlib/printf/printf.c         0x00000000   Number         0  printf8.o ABSOLUTE
    ../clib/microlib/printf/printf.c         0x00000000   Number         0  printf7.o ABSOLUTE
    ../clib/microlib/printf/stubs.s          0x00000000   Number         0  stubs.o ABSOLUTE
    ../clib/microlib/stdio/streams.c         0x00000000   Number         0  stdout.o ABSOLUTE
    ../clib/microlib/stubs.s                 0x00000000   Number         0  iusefp.o ABSOLUTE
    ../fplib/microlib/fpadd.c                0x00000000   Number         0  dadd.o ABSOLUTE
    ../fplib/microlib/fpdiv.c                0x00000000   Number         0  ddiv.o ABSOLUTE
    ../fplib/microlib/fpepilogue.c           0x00000000   Number         0  depilogue.o ABSOLUTE
    ../fplib/microlib/fpfix.c                0x00000000   Number         0  dfixui.o ABSOLUTE
    ../fplib/microlib/fpfix.c                0x00000000   Number         0  dfixul.o ABSOLUTE
    ../fplib/microlib/fpflt.c                0x00000000   Number         0  dfltui.o ABSOLUTE
    ../fplib/microlib/fpmul.c                0x00000000   Number         0  dmul.o ABSOLUTE
    ..\..\FW_LIB\startup_stm32f10x_hd.s      0x00000000   Number         0  startup_stm32f10x_hd.o ABSOLUTE
    ..\..\User\uC-CPU\ARM-Cortex-M3\RealView\cpu_a.asm 0x00000000   Number         0  cpu_a.o ABSOLUTE
    ..\..\User\uC-CPU\cpu_core.c             0x00000000   Number         0  cpu_core.o ABSOLUTE
    ..\..\User\uC-LIB\Ports\ARM-Cortex-M3\RealView\lib_mem_a.asm 0x00000000   Number         0  lib_mem_a.o ABSOLUTE
    ..\..\User\uC-LIB\lib_ascii.c            0x00000000   Number         0  lib_ascii.o ABSOLUTE
    ..\..\User\uC-LIB\lib_mem.c              0x00000000   Number         0  lib_mem.o ABSOLUTE
    ..\..\User\uC-LIB\lib_str.c              0x00000000   Number         0  lib_str.o ABSOLUTE
    ..\..\User\uCOS-III\Ports\ARM-Cortex-M3\Generic\RealView\os_cpu_a.s 0x00000000   Number         0  os_cpu_a.o ABSOLUTE
    ..\..\User\uCOS-III\Ports\ARM-Cortex-M3\Generic\RealView\os_cpu_c.c 0x00000000   Number         0  os_cpu_c.o ABSOLUTE
    ..\..\User\uCOS-III\Source\os_cfg_app.c  0x00000000   Number         0  os_cfg_app.o ABSOLUTE
    ..\..\User\uCOS-III\Source\os_core.c     0x00000000   Number         0  os_core.o ABSOLUTE
    ..\..\User\uCOS-III\Source\os_dbg.c      0x00000000   Number         0  os_dbg.o ABSOLUTE
    ..\..\User\uCOS-III\Source\os_flag.c     0x00000000   Number         0  os_flag.o ABSOLUTE
    ..\..\User\uCOS-III\Source\os_int.c      0x00000000   Number         0  os_int.o ABSOLUTE
    ..\..\User\uCOS-III\Source\os_mem.c      0x00000000   Number         0  os_mem.o ABSOLUTE
    ..\..\User\uCOS-III\Source\os_msg.c      0x00000000   Number         0  os_msg.o ABSOLUTE
    ..\..\User\uCOS-III\Source\os_mutex.c    0x00000000   Number         0  os_mutex.o ABSOLUTE
    ..\..\User\uCOS-III\Source\os_prio.c     0x00000000   Number         0  os_prio.o ABSOLUTE
    ..\..\User\uCOS-III\Source\os_q.c        0x00000000   Number         0  os_q.o ABSOLUTE
    ..\..\User\uCOS-III\Source\os_sem.c      0x00000000   Number         0  os_sem.o ABSOLUTE
    ..\..\User\uCOS-III\Source\os_stat.c     0x00000000   Number         0  os_stat.o ABSOLUTE
    ..\..\User\uCOS-III\Source\os_task.c     0x00000000   Number         0  os_task.o ABSOLUTE
    ..\..\User\uCOS-III\Source\os_tick.c     0x00000000   Number         0  os_tick.o ABSOLUTE
    ..\..\User\uCOS-III\Source\os_time.c     0x00000000   Number         0  os_time.o ABSOLUTE
    ..\..\User\uCOS-III\Source\os_tmr.c      0x00000000   Number         0  os_tmr.o ABSOLUTE
    ..\..\User\uCOS-III\Source\os_var.c      0x00000000   Number         0  os_var.o ABSOLUTE
    ..\USER\APP\main.c                       0x00000000   Number         0  main.o ABSOLUTE
    ..\USER\APP\os_app_hooks.c               0x00000000   Number         0  os_app_hooks.o ABSOLUTE
    ..\USER\APP\stm32f10x_it.c               0x00000000   Number         0  stm32f10x_it.o ABSOLUTE
    ..\USER\BSP\Key\bsp_key.c                0x00000000   Number         0  bsp_key.o ABSOLUTE
    ..\USER\BSP\bsp.c                        0x00000000   Number         0  bsp.o ABSOLUTE
    ..\USER\BSP\led\bsp_led.c                0x00000000   Number         0  bsp_led.o ABSOLUTE
    ..\USER\BSP\tftlcd\tftlcd.c              0x00000000   Number         0  tftlcd.o ABSOLUTE
    ..\USER\BSP\usart\bsp_usart1.c           0x00000000   Number         0  bsp_usart1.o ABSOLUTE
    Libraries\CMSIS\CM3\DeviceSupport\ST\STM32F10x\system_stm32f10x.c 0x00000000   Number         0  system_stm32f10x.o ABSOLUTE
    Libraries\STM32F10x_StdPeriph_Driver\src\stm32f10x_fsmc.c 0x00000000   Number         0  stm32f10x_fsmc.o ABSOLUTE
    Libraries\STM32F10x_StdPeriph_Driver\src\stm32f10x_gpio.c 0x00000000   Number         0  stm32f10x_gpio.o ABSOLUTE
    Libraries\STM32F10x_StdPeriph_Driver\src\stm32f10x_rcc.c 0x00000000   Number         0  stm32f10x_rcc.o ABSOLUTE
    Libraries\STM32F10x_StdPeriph_Driver\src\stm32f10x_usart.c 0x00000000   Number         0  stm32f10x_usart.o ABSOLUTE
    cdrcmple.s                               0x00000000   Number         0  cdrcmple.o ABSOLUTE
    dc.s                                     0x00000000   Number         0  dc.o ABSOLUTE
    handlers.s                               0x00000000   Number         0  handlers.o ABSOLUTE
    init.s                                   0x00000000   Number         0  init.o ABSOLUTE
    RESET                                    0x08000000   Section      304  startup_stm32f10x_hd.o(RESET)
    .ARM.Collect$$$$00000000                 0x08000130   Section        0  entry.o(.ARM.Collect$$$$00000000)
    .ARM.Collect$$$$00000001                 0x08000130   Section        4  entry2.o(.ARM.Collect$$$$00000001)
    .ARM.Collect$$$$00000004                 0x08000134   Section        4  entry5.o(.ARM.Collect$$$$00000004)
    .ARM.Collect$$$$00000008                 0x08000138   Section        0  entry7b.o(.ARM.Collect$$$$00000008)
    .ARM.Collect$$$$0000000A                 0x08000138   Section        0  entry8b.o(.ARM.Collect$$$$0000000A)
    .ARM.Collect$$$$0000000B                 0x08000138   Section        8  entry9a.o(.ARM.Collect$$$$0000000B)
    .ARM.Collect$$$$0000000E                 0x08000140   Section        4  entry12b.o(.ARM.Collect$$$$0000000E)
    .ARM.Collect$$$$0000000F                 0x08000144   Section        0  entry10a.o(.ARM.Collect$$$$0000000F)
    .ARM.Collect$$$$00000011                 0x08000144   Section        0  entry11a.o(.ARM.Collect$$$$00000011)
    .ARM.Collect$$$$00002712                 0x08000144   Section        4  entry2.o(.ARM.Collect$$$$00002712)
    __lit__00000000                          0x08000144   Data           4  entry2.o(.ARM.Collect$$$$00002712)
    .text                                    0x08000148   Section       36  startup_stm32f10x_hd.o(.text)
    .text                                    0x0800016c   Section        0  system_stm32f10x.o(.text)
    SetSysClockTo72                          0x0800016d   Thumb Code   212  system_stm32f10x.o(.text)
    SetSysClock                              0x08000241   Thumb Code     8  system_stm32f10x.o(.text)
    .text                                    0x08000348   Section        0  stm32f10x_gpio.o(.text)
    .text                                    0x080006a0   Section        0  stm32f10x_rcc.o(.text)
    .text                                    0x08000a44   Section        0  stm32f10x_fsmc.o(.text)
    .text                                    0x0800105c   Section        0  stm32f10x_usart.o(.text)
    .text                                    0x08001464   Section       52  cpu_a.o(.text)
    .text                                    0x08001498   Section        0  uidiv.o(.text)
    .text                                    0x080014c4   Section       36  init.o(.text)
    .text                                    0x080014e8   Section        0  __dczerorl2.o(.text)
    CODE                                     0x08001540   Section      132  os_cpu_a.o(CODE)
    i.AppTaskKey                             0x080015c4   Section        0  main.o(i.AppTaskKey)
    AppTaskKey                               0x080015c5   Thumb Code    96  main.o(i.AppTaskKey)
    i.AppTaskLcd                             0x08001648   Section        0  main.o(i.AppTaskLcd)
    AppTaskLcd                               0x08001649   Thumb Code   164  main.o(i.AppTaskLcd)
    i.AppTaskLed1                            0x08001704   Section        0  main.o(i.AppTaskLed1)
    AppTaskLed1                              0x08001705   Thumb Code   286  main.o(i.AppTaskLed1)
    i.AppTaskStart                           0x080018a0   Section        0  main.o(i.AppTaskStart)
    AppTaskStart                             0x080018a1   Thumb Code   228  main.o(i.AppTaskStart)
    i.BSP_CPU_ClkFreq                        0x080019fc   Section        0  bsp.o(i.BSP_CPU_ClkFreq)
    i.BSP_Init                               0x08001a0c   Section        0  bsp.o(i.BSP_Init)
    i.BusFault_Handler                       0x08001a20   Section        0  stm32f10x_it.o(i.BusFault_Handler)
    i.CPU_Init                               0x08001a24   Section        0  cpu_core.o(i.CPU_Init)
    i.CPU_IntDisMeasInit                     0x08001a34   Section        0  cpu_core.o(i.CPU_IntDisMeasInit)
    CPU_IntDisMeasInit                       0x08001a35   Thumb Code   104  cpu_core.o(i.CPU_IntDisMeasInit)
    i.CPU_IntDisMeasMaxCalc                  0x08001ab8   Section        0  cpu_core.o(i.CPU_IntDisMeasMaxCalc)
    CPU_IntDisMeasMaxCalc                    0x08001ab9   Thumb Code    24  cpu_core.o(i.CPU_IntDisMeasMaxCalc)
    i.CPU_IntDisMeasMaxCurGet                0x08001ad4   Section        0  cpu_core.o(i.CPU_IntDisMeasMaxCurGet)
    i.CPU_IntDisMeasMaxCurReset              0x08001b00   Section        0  cpu_core.o(i.CPU_IntDisMeasMaxCurReset)
    i.CPU_IntDisMeasMaxGet                   0x08001b2c   Section        0  cpu_core.o(i.CPU_IntDisMeasMaxGet)
    i.CPU_IntDisMeasStart                    0x08001b58   Section        0  cpu_core.o(i.CPU_IntDisMeasStart)
    i.CPU_IntDisMeasStop                     0x08001b8c   Section        0  cpu_core.o(i.CPU_IntDisMeasStop)
    i.CPU_NameClr                            0x08001be0   Section        0  cpu_core.o(i.CPU_NameClr)
    i.CPU_NameInit                           0x08001c18   Section        0  cpu_core.o(i.CPU_NameInit)
    CPU_NameInit                             0x08001c19   Thumb Code     8  cpu_core.o(i.CPU_NameInit)
    i.CPU_TS_Init                            0x08001c20   Section        0  cpu_core.o(i.CPU_TS_Init)
    CPU_TS_Init                              0x08001c21   Thumb Code    14  cpu_core.o(i.CPU_TS_Init)
    i.CPU_TS_TmrFreqSet                      0x08001c34   Section        0  cpu_core.o(i.CPU_TS_TmrFreqSet)
    i.CPU_TS_TmrInit                         0x08001c40   Section        0  bsp.o(i.CPU_TS_TmrInit)
    i.CPU_TS_TmrRd                           0x08001c74   Section        0  bsp.o(i.CPU_TS_TmrRd)
    i.DebugMon_Handler                       0x08001c80   Section        0  stm32f10x_it.o(i.DebugMon_Handler)
    i.HardFault_Handler                      0x08001c82   Section        0  stm32f10x_it.o(i.HardFault_Handler)
    i.Key1_Config                            0x08001c88   Section        0  bsp_key.o(i.Key1_Config)
    Key1_Config                              0x08001c89   Thumb Code    32  bsp_key.o(i.Key1_Config)
    i.Key2_Config                            0x08001cac   Section        0  bsp_key.o(i.Key2_Config)
    Key2_Config                              0x08001cad   Thumb Code    32  bsp_key.o(i.Key2_Config)
    i.Key_Initial                            0x08001cd0   Section        0  bsp_key.o(i.Key_Initial)
    i.Key_Scan                               0x08001cdc   Section        0  bsp_key.o(i.Key_Scan)
    i.LCD_Clear                              0x08001d34   Section        0  tftlcd.o(i.LCD_Clear)
    i.LCD_Display_Dir                        0x08001d7c   Section        0  tftlcd.o(i.LCD_Display_Dir)
    i.LCD_DrawFRONT_COLOR                    0x08001dd4   Section        0  tftlcd.o(i.LCD_DrawFRONT_COLOR)
    i.LCD_Fill                               0x08001df0   Section        0  tftlcd.o(i.LCD_Fill)
    i.LCD_Set_Window                         0x08001e4c   Section        0  tftlcd.o(i.LCD_Set_Window)
    i.LCD_ShowChar                           0x08001ef4   Section        0  tftlcd.o(i.LCD_ShowChar)
    i.LCD_ShowFontHZ                         0x0800201c   Section        0  tftlcd.o(i.LCD_ShowFontHZ)
    i.LCD_ShowString                         0x08002104   Section        0  tftlcd.o(i.LCD_ShowString)
    i.LCD_WriteCmd                           0x0800216c   Section        0  tftlcd.o(i.LCD_WriteCmd)
    i.LCD_WriteCmdData                       0x08002178   Section        0  tftlcd.o(i.LCD_WriteCmdData)
    i.LCD_WriteData                          0x0800218c   Section        0  tftlcd.o(i.LCD_WriteData)
    i.LCD_WriteData_Color                    0x08002198   Section        0  tftlcd.o(i.LCD_WriteData_Color)
    i.LED_GPIO_Config                        0x080021a8   Section        0  bsp_led.o(i.LED_GPIO_Config)
    LED_GPIO_Config                          0x080021a9   Thumb Code    82  bsp_led.o(i.LED_GPIO_Config)
    i.LED_Init                               0x08002200   Section        0  bsp_led.o(i.LED_Init)
    i.MemManage_Handler                      0x08002224   Section        0  stm32f10x_it.o(i.MemManage_Handler)
    i.Mem_Clr                                0x08002228   Section        0  lib_mem.o(i.Mem_Clr)
    i.Mem_Init                               0x0800223c   Section        0  lib_mem.o(i.Mem_Init)
    i.Mem_Set                                0x08002284   Section        0  lib_mem.o(i.Mem_Set)
    i.NMI_Handler                            0x080022e6   Section        0  stm32f10x_it.o(i.NMI_Handler)
    i.OSCfg_Init                             0x080022e8   Section        0  os_cfg_app.o(i.OSCfg_Init)
    i.OSIdleTaskHook                         0x080022ec   Section        0  os_cpu_c.o(i.OSIdleTaskHook)
    i.OSInit                                 0x08002300   Section        0  os_core.o(i.OSInit)
    i.OSInitHook                             0x0800248c   Section        0  os_cpu_c.o(i.OSInitHook)
    i.OSIntExit                              0x080024c4   Section        0  os_core.o(i.OSIntExit)
    i.OSSched                                0x080025a8   Section        0  os_core.o(i.OSSched)
    i.OSSchedLock                            0x08002650   Section        0  os_core.o(i.OSSchedLock)
    i.OSSchedUnlock                          0x080026cc   Section        0  os_core.o(i.OSSchedUnlock)
    i.OSSemCreate                            0x0800276c   Section        0  os_sem.o(i.OSSemCreate)
    i.OSSemPend                              0x08002850   Section        0  os_sem.o(i.OSSemPend)
    i.OSSemPost                              0x08002a6c   Section        0  os_sem.o(i.OSSemPost)
    i.OSStart                                0x08002b04   Section        0  os_core.o(i.OSStart)
    i.OSStatReset                            0x08002b6c   Section        0  os_stat.o(i.OSStatReset)
    i.OSStatTaskCPUUsageInit                 0x08002cd4   Section        0  os_stat.o(i.OSStatTaskCPUUsageInit)
    i.OSStatTaskHook                         0x08002dd4   Section        0  os_cpu_c.o(i.OSStatTaskHook)
    i.OSTaskCreate                           0x08002de8   Section        0  os_task.o(i.OSTaskCreate)
    i.OSTaskCreateHook                       0x0800307c   Section        0  os_cpu_c.o(i.OSTaskCreateHook)
    i.OSTaskDel                              0x08003094   Section        0  os_task.o(i.OSTaskDel)
    i.OSTaskDelHook                          0x0800329c   Section        0  os_cpu_c.o(i.OSTaskDelHook)
    i.OSTaskResume                           0x080032b4   Section        0  os_task.o(i.OSTaskResume)
    i.OSTaskReturnHook                       0x0800333c   Section        0  os_cpu_c.o(i.OSTaskReturnHook)
    i.OSTaskSemPend                          0x08003354   Section        0  os_task.o(i.OSTaskSemPend)
    i.OSTaskStkChk                           0x080035a4   Section        0  os_task.o(i.OSTaskStkChk)
    i.OSTaskStkInit                          0x08003688   Section        0  os_cpu_c.o(i.OSTaskStkInit)
    i.OSTaskSuspend                          0x08003748   Section        0  os_task.o(i.OSTaskSuspend)
    i.OSTaskSwHook                           0x080037a8   Section        0  os_cpu_c.o(i.OSTaskSwHook)
    i.OSTimeDly                              0x0800384c   Section        0  os_time.o(i.OSTimeDly)
    i.OSTimeDlyHMSM                          0x0800399c   Section        0  os_time.o(i.OSTimeDlyHMSM)
    i.OSTimeTick                             0x08003bc8   Section        0  os_time.o(i.OSTimeTick)
    i.OSTimeTickHook                         0x08003c0c   Section        0  os_cpu_c.o(i.OSTimeTickHook)
    i.OS_CPU_SysTickHandler                  0x08003c20   Section        0  os_cpu_c.o(i.OS_CPU_SysTickHandler)
    i.OS_CPU_SysTickInit                     0x08003c60   Section        0  os_cpu_c.o(i.OS_CPU_SysTickInit)
    i.OS_Dbg_Init                            0x08003c90   Section        0  os_dbg.o(i.OS_Dbg_Init)
    i.OS_FlagInit                            0x08003e44   Section        0  os_flag.o(i.OS_FlagInit)
    i.OS_FlagPost                            0x08003e5c   Section        0  os_flag.o(i.OS_FlagPost)
    i.OS_FlagTaskRdy                         0x080040d8   Section        0  os_flag.o(i.OS_FlagTaskRdy)
    i.OS_IdleTask                            0x08004130   Section        0  os_core.o(i.OS_IdleTask)
    i.OS_IdleTaskInit                        0x0800417c   Section        0  os_core.o(i.OS_IdleTaskInit)
    i.OS_IntQPost                            0x080041ec   Section        0  os_int.o(i.OS_IntQPost)
    i.OS_IntQRePost                          0x080042f0   Section        0  os_int.o(i.OS_IntQRePost)
    i.OS_IntQTask                            0x08004494   Section        0  os_int.o(i.OS_IntQTask)
    i.OS_IntQTaskInit                        0x0800455c   Section        0  os_int.o(i.OS_IntQTaskInit)
    i.OS_MemInit                             0x08004684   Section        0  os_mem.o(i.OS_MemInit)
    i.OS_MsgPoolInit                         0x0800469c   Section        0  os_msg.o(i.OS_MsgPoolInit)
    i.OS_MsgQFreeAll                         0x08004718   Section        0  os_msg.o(i.OS_MsgQFreeAll)
    i.OS_MsgQInit                            0x0800475c   Section        0  os_msg.o(i.OS_MsgQInit)
    i.OS_MsgQPut                             0x0800476c   Section        0  os_msg.o(i.OS_MsgQPut)
    i.OS_MutexInit                           0x08004870   Section        0  os_mutex.o(i.OS_MutexInit)
    i.OS_Pend                                0x08004888   Section        0  os_core.o(i.OS_Pend)
    i.OS_PendDataInit                        0x080048f0   Section        0  os_core.o(i.OS_PendDataInit)
    i.OS_PendDbgNameAdd                      0x08004918   Section        0  os_core.o(i.OS_PendDbgNameAdd)
    i.OS_PendDbgNameRemove                   0x08004974   Section        0  os_core.o(i.OS_PendDbgNameRemove)
    i.OS_PendListInit                        0x08004998   Section        0  os_core.o(i.OS_PendListInit)
    i.OS_PendListInsertPrio                  0x080049a2   Section        0  os_core.o(i.OS_PendListInsertPrio)
    i.OS_PendListRemove                      0x08004a08   Section        0  os_core.o(i.OS_PendListRemove)
    i.OS_PendListRemove1                     0x08004a38   Section        0  os_core.o(i.OS_PendListRemove1)
    i.OS_Post                                0x08004a7a   Section        0  os_core.o(i.OS_Post)
    i.OS_Post1                               0x08004b3a   Section        0  os_core.o(i.OS_Post1)
    i.OS_PrioGetHighest                      0x08004b64   Section        0  os_prio.o(i.OS_PrioGetHighest)
    i.OS_PrioInit                            0x08004b8c   Section        0  os_prio.o(i.OS_PrioInit)
    i.OS_PrioInsert                          0x08004ba4   Section        0  os_prio.o(i.OS_PrioInsert)
    i.OS_PrioRemove                          0x08004bc8   Section        0  os_prio.o(i.OS_PrioRemove)
    i.OS_QInit                               0x08004bec   Section        0  os_q.o(i.OS_QInit)
    i.OS_QPost                               0x08004c04   Section        0  os_q.o(i.OS_QPost)
    i.OS_RdyListInit                         0x08004d8c   Section        0  os_core.o(i.OS_RdyListInit)
    i.OS_RdyListInsert                       0x08004db0   Section        0  os_core.o(i.OS_RdyListInsert)
    i.OS_RdyListInsertHead                   0x08004ddc   Section        0  os_core.o(i.OS_RdyListInsertHead)
    i.OS_RdyListInsertTail                   0x08004e1c   Section        0  os_core.o(i.OS_RdyListInsertTail)
    i.OS_RdyListMoveHeadToTail               0x08004e58   Section        0  os_core.o(i.OS_RdyListMoveHeadToTail)
    i.OS_RdyListRemove                       0x08004e9c   Section        0  os_core.o(i.OS_RdyListRemove)
    i.OS_Sched0                              0x08004ef8   Section        0  os_core.o(i.OS_Sched0)
    i.OS_SchedLockTimeMeasStart              0x08004f54   Section        0  os_core.o(i.OS_SchedLockTimeMeasStart)
    i.OS_SchedLockTimeMeasStop               0x08004f70   Section        0  os_core.o(i.OS_SchedLockTimeMeasStop)
    i.OS_SchedRoundRobin                     0x08004fac   Section        0  os_core.o(i.OS_SchedRoundRobin)
    i.OS_SemDbgListAdd                       0x08005098   Section        0  os_sem.o(i.OS_SemDbgListAdd)
    i.OS_SemInit                             0x080050c8   Section        0  os_sem.o(i.OS_SemInit)
    i.OS_SemPost                             0x080050e0   Section        0  os_sem.o(i.OS_SemPost)
    i.OS_StatTask                            0x08005278   Section        0  os_stat.o(i.OS_StatTask)
    i.OS_StatTaskInit                        0x08005630   Section        0  os_stat.o(i.OS_StatTaskInit)
    i.OS_TaskBlock                           0x080056fc   Section        0  os_core.o(i.OS_TaskBlock)
    i.OS_TaskDbgListAdd                      0x08005734   Section        0  os_task.o(i.OS_TaskDbgListAdd)
    i.OS_TaskDbgListRemove                   0x08005764   Section        0  os_task.o(i.OS_TaskDbgListRemove)
    i.OS_TaskInit                            0x080057a8   Section        0  os_task.o(i.OS_TaskInit)
    i.OS_TaskInitTCB                         0x080057c8   Section        0  os_task.o(i.OS_TaskInitTCB)
    i.OS_TaskQPost                           0x08005898   Section        0  os_task.o(i.OS_TaskQPost)
    i.OS_TaskRdy                             0x08005b04   Section        0  os_core.o(i.OS_TaskRdy)
    i.OS_TaskResume                          0x08005b20   Section        0  os_task.o(i.OS_TaskResume)
    i.OS_TaskReturn                          0x08005c9c   Section        0  os_task.o(i.OS_TaskReturn)
    i.OS_TaskSemPost                         0x08005cb4   Section        0  os_task.o(i.OS_TaskSemPost)
    i.OS_TaskSuspend                         0x0800625c   Section        0  os_task.o(i.OS_TaskSuspend)
    i.OS_TickListInit                        0x080063ec   Section        0  os_tick.o(i.OS_TickListInit)
    i.OS_TickListInsert                      0x08006414   Section        0  os_tick.o(i.OS_TickListInsert)
    i.OS_TickListRemove                      0x080065d0   Section        0  os_tick.o(i.OS_TickListRemove)
    i.OS_TickListResetPeak                   0x08006608   Section        0  os_tick.o(i.OS_TickListResetPeak)
    i.OS_TickListUpdate                      0x0800662c   Section        0  os_tick.o(i.OS_TickListUpdate)
    i.OS_TickTask                            0x0800684c   Section        0  os_tick.o(i.OS_TickTask)
    i.OS_TickTaskInit                        0x08006878   Section        0  os_tick.o(i.OS_TickTaskInit)
    i.OS_TmrInit                             0x08006930   Section        0  os_tmr.o(i.OS_TmrInit)
    i.OS_TmrLink                             0x08006a58   Section        0  os_tmr.o(i.OS_TmrLink)
    i.OS_TmrResetPeak                        0x08006b28   Section        0  os_tmr.o(i.OS_TmrResetPeak)
    i.OS_TmrTask                             0x08006b4c   Section        0  os_tmr.o(i.OS_TmrTask)
    i.OS_TmrUnlink                           0x08006c0c   Section        0  os_tmr.o(i.OS_TmrUnlink)
    i.SVC_Handler                            0x08006c5c   Section        0  stm32f10x_it.o(i.SVC_Handler)
    i.TFTLCD_FSMC_Init                       0x08006c5e   Section        0  tftlcd.o(i.TFTLCD_FSMC_Init)
    i.TFTLCD_GPIO_Init                       0x08006cdc   Section        0  tftlcd.o(i.TFTLCD_GPIO_Init)
    i.TFTLCD_Init                            0x08006d74   Section        0  tftlcd.o(i.TFTLCD_Init)
    i.USARTx_Config                          0x08006f68   Section        0  bsp_usart1.o(i.USARTx_Config)
    i.UsageFault_Handler                     0x08006fe8   Section        0  stm32f10x_it.o(i.UsageFault_Handler)
    i.__0printf$1                            0x08006fec   Section        0  printf1.o(i.__0printf$1)
    i.__scatterload_copy                     0x0800700c   Section       14  handlers.o(i.__scatterload_copy)
    i.__scatterload_null                     0x0800701a   Section        2  handlers.o(i.__scatterload_null)
    i.__scatterload_zeroinit                 0x0800701c   Section       14  handlers.o(i.__scatterload_zeroinit)
    i._printf_core                           0x0800702c   Section        0  printf1.o(i._printf_core)
    _printf_core                             0x0800702d   Thumb Code   336  printf1.o(i._printf_core)
    i.delay_ms                               0x08007180   Section        0  tftlcd.o(i.delay_ms)
    i.fputc                                  0x0800719c   Section        0  bsp_usart1.o(i.fputc)
    i.main                                   0x080071c0   Section        0  main.o(i.main)
    .constdata                               0x08007224   Section    20600  tftlcd.o(.constdata)
    .constdata                               0x0800c29c   Section      164  os_cfg_app.o(.constdata)
    .constdata                               0x0800c340   Section      364  os_dbg.o(.constdata)
    .data                                    0x20000000   Section        5  main.o(.data)
    .data                                    0x20000006   Section       12  tftlcd.o(.data)
    .data                                    0x20000014   Section       20  system_stm32f10x.o(.data)
    .data                                    0x20000028   Section       20  stm32f10x_rcc.o(.data)
    APBAHBPrescTable                         0x20000028   Data          16  stm32f10x_rcc.o(.data)
    ADCPrescTable                            0x20000038   Data           4  stm32f10x_rcc.o(.data)
    .data                                    0x2000003c   Section       28  cpu_core.o(.data)
    .data                                    0x20000058   Section        4  lib_mem.o(.data)
    .data                                    0x2000005c   Section      208  os_var.o(.data)
    .data                                    0x2000012c   Section        4  os_cpu_c.o(.data)
    .data                                    0x20000130   Section        4  os_prio.o(.data)
    .data                                    0x20000134   Section        4  stdout.o(.data)
    .bss                                     0x20000138   Section    14192  main.o(.bss)
    AppTaskStartStk                          0x20000188   Data        1024  main.o(.bss)
    AppTaskStartTCB                          0x20000588   Data         200  main.o(.bss)
    AppTaskLed1Stk                           0x20000650   Data        4096  main.o(.bss)
    AppTaskLed1TCB                           0x20001650   Data         200  main.o(.bss)
    AppTaskKeyStk                            0x20001718   Data        4096  main.o(.bss)
    AppTaskKeyTCB                            0x20002718   Data         200  main.o(.bss)
    AppTaskLcdStk                            0x200027e0   Data        4096  main.o(.bss)
    AppTaskLcdTCB                            0x200037e0   Data         200  main.o(.bss)
    .bss                                     0x200038a8   Section       16  cpu_core.o(.bss)
    .bss                                     0x200038b8   Section    27720  lib_mem.o(.bss)
    .bss                                     0x2000a500   Section     5264  os_cfg_app.o(.bss)
    .bss                                     0x2000b990   Section     1396  os_var.o(.bss)
    STACK                                    0x2000bf08   Section     1024  startup_stm32f10x_hd.o(STACK)

    Global Symbols

    Symbol Name                              Value     Ov Type        Size  Object(Section)

    BuildAttributes$$THM_ISAv4$P$D$K$B$S$PE$A:L22UL41UL21$X:L11$S22US41US21$IEEE1$IW$USESV6$~STKCKD$USESV7$~SHL$OSPACE$ROPI$EBA8$MICROLIB$REQ8$PRES8$EABIv2 0x00000000   Number         0  anon$$obj.o ABSOLUTE
    __ARM_use_no_argv                        0x00000000   Number         0  main.o ABSOLUTE
    _printf_a                                0x00000000   Number         0  stubs.o ABSOLUTE
    _printf_c                                0x00000000   Number         0  stubs.o ABSOLUTE
    _printf_charcount                        0x00000000   Number         0  stubs.o ABSOLUTE
    _printf_d                                0x00000000   Number         0  stubs.o ABSOLUTE
    _printf_e                                0x00000000   Number         0  stubs.o ABSOLUTE
    _printf_f                                0x00000000   Number         0  stubs.o ABSOLUTE
    _printf_flags                            0x00000000   Number         0  stubs.o ABSOLUTE
    _printf_fp_dec                           0x00000000   Number         0  stubs.o ABSOLUTE
    _printf_fp_hex                           0x00000000   Number         0  stubs.o ABSOLUTE
    _printf_g                                0x00000000   Number         0  stubs.o ABSOLUTE
    _printf_i                                0x00000000   Number         0  stubs.o ABSOLUTE
    _printf_int_dec                          0x00000000   Number         0  stubs.o ABSOLUTE
    _printf_l                                0x00000000   Number         0  stubs.o ABSOLUTE
    _printf_lc                               0x00000000   Number         0  stubs.o ABSOLUTE
    _printf_ll                               0x00000000   Number         0  stubs.o ABSOLUTE
    _printf_lld                              0x00000000   Number         0  stubs.o ABSOLUTE
    _printf_lli                              0x00000000   Number         0  stubs.o ABSOLUTE
    _printf_llo                              0x00000000   Number         0  stubs.o ABSOLUTE
    _printf_llu                              0x00000000   Number         0  stubs.o ABSOLUTE
    _printf_llx                              0x00000000   Number         0  stubs.o ABSOLUTE
    _printf_longlong_dec                     0x00000000   Number         0  stubs.o ABSOLUTE
    _printf_longlong_hex                     0x00000000   Number         0  stubs.o ABSOLUTE
    _printf_longlong_oct                     0x00000000   Number         0  stubs.o ABSOLUTE
    _printf_ls                               0x00000000   Number         0  stubs.o ABSOLUTE
    _printf_mbtowc                           0x00000000   Number         0  stubs.o ABSOLUTE
    _printf_n                                0x00000000   Number         0  stubs.o ABSOLUTE
    _printf_o                                0x00000000   Number         0  stubs.o ABSOLUTE
    _printf_p                                0x00000000   Number         0  stubs.o ABSOLUTE
    _printf_percent                          0x00000000   Number         0  stubs.o ABSOLUTE
    _printf_pre_padding                      0x00000000   Number         0  stubs.o ABSOLUTE
    _printf_return_value                     0x00000000   Number         0  stubs.o ABSOLUTE
    _printf_s                                0x00000000   Number         0  stubs.o ABSOLUTE
    _printf_sizespec                         0x00000000   Number         0  stubs.o ABSOLUTE
    _printf_str                              0x00000000   Number         0  stubs.o ABSOLUTE
    _printf_truncate_signed                  0x00000000   Number         0  stubs.o ABSOLUTE
    _printf_truncate_unsigned                0x00000000   Number         0  stubs.o ABSOLUTE
    _printf_u                                0x00000000   Number         0  stubs.o ABSOLUTE
    _printf_wc                               0x00000000   Number         0  stubs.o ABSOLUTE
    _printf_wctomb                           0x00000000   Number         0  stubs.o ABSOLUTE
    _printf_widthprec                        0x00000000   Number         0  stubs.o ABSOLUTE
    _printf_x                                0x00000000   Number         0  stubs.o ABSOLUTE
    __arm_fini_                               - Undefined Weak Reference
    __cpp_initialize__aeabi_                  - Undefined Weak Reference
    __cxa_finalize                            - Undefined Weak Reference
    _clock_init                               - Undefined Weak Reference
    _microlib_exit                            - Undefined Weak Reference
    __Vectors_Size                           0x00000130   Number         0  startup_stm32f10x_hd.o ABSOLUTE
    __Vectors                                0x08000000   Data           4  startup_stm32f10x_hd.o(RESET)
    __Vectors_End                            0x08000130   Data           0  startup_stm32f10x_hd.o(RESET)
    __main                                   0x08000131   Thumb Code     0  entry.o(.ARM.Collect$$$$00000000)
    _main_stk                                0x08000131   Thumb Code     0  entry2.o(.ARM.Collect$$$$00000001)
    _main_scatterload                        0x08000135   Thumb Code     0  entry5.o(.ARM.Collect$$$$00000004)
    __main_after_scatterload                 0x08000139   Thumb Code     0  entry5.o(.ARM.Collect$$$$00000004)
    _main_clock                              0x08000139   Thumb Code     0  entry7b.o(.ARM.Collect$$$$00000008)
    _main_cpp_init                           0x08000139   Thumb Code     0  entry8b.o(.ARM.Collect$$$$0000000A)
    _main_init                               0x08000139   Thumb Code     0  entry9a.o(.ARM.Collect$$$$0000000B)
    __rt_lib_shutdown_fini                   0x08000141   Thumb Code     0  entry12b.o(.ARM.Collect$$$$0000000E)
    __rt_final_cpp                           0x08000145   Thumb Code     0  entry10a.o(.ARM.Collect$$$$0000000F)
    __rt_final_exit                          0x08000145   Thumb Code     0  entry11a.o(.ARM.Collect$$$$00000011)
    Reset_Handler                            0x08000149   Thumb Code     8  startup_stm32f10x_hd.o(.text)
    ADC1_2_IRQHandler                        0x08000163   Thumb Code     0  startup_stm32f10x_hd.o(.text)
    ADC3_IRQHandler                          0x08000163   Thumb Code     0  startup_stm32f10x_hd.o(.text)
    CAN1_RX1_IRQHandler                      0x08000163   Thumb Code     0  startup_stm32f10x_hd.o(.text)
    CAN1_SCE_IRQHandler                      0x08000163   Thumb Code     0  startup_stm32f10x_hd.o(.text)
    DMA1_Channel1_IRQHandler                 0x08000163   Thumb Code     0  startup_stm32f10x_hd.o(.text)
    DMA1_Channel2_IRQHandler                 0x08000163   Thumb Code     0  startup_stm32f10x_hd.o(.text)
    DMA1_Channel3_IRQHandler                 0x08000163   Thumb Code     0  startup_stm32f10x_hd.o(.text)
    DMA1_Channel4_IRQHandler                 0x08000163   Thumb Code     0  startup_stm32f10x_hd.o(.text)
    DMA1_Channel5_IRQHandler                 0x08000163   Thumb Code     0  startup_stm32f10x_hd.o(.text)
    DMA1_Channel6_IRQHandler                 0x08000163   Thumb Code     0  startup_stm32f10x_hd.o(.text)
    DMA1_Channel7_IRQHandler                 0x08000163   Thumb Code     0  startup_stm32f10x_hd.o(.text)
    DMA2_Channel1_IRQHandler                 0x08000163   Thumb Code     0  startup_stm32f10x_hd.o(.text)
    DMA2_Channel2_IRQHandler                 0x08000163   Thumb Code     0  startup_stm32f10x_hd.o(.text)
    DMA2_Channel3_IRQHandler                 0x08000163   Thumb Code     0  startup_stm32f10x_hd.o(.text)
    DMA2_Channel4_5_IRQHandler               0x08000163   Thumb Code     0  startup_stm32f10x_hd.o(.text)
    EXTI0_IRQHandler                         0x08000163   Thumb Code     0  startup_stm32f10x_hd.o(.text)
    EXTI15_10_IRQHandler                     0x08000163   Thumb Code     0  startup_stm32f10x_hd.o(.text)
    EXTI1_IRQHandler                         0x08000163   Thumb Code     0  startup_stm32f10x_hd.o(.text)
    EXTI2_IRQHandler                         0x08000163   Thumb Code     0  startup_stm32f10x_hd.o(.text)
    EXTI3_IRQHandler                         0x08000163   Thumb Code     0  startup_stm32f10x_hd.o(.text)
    EXTI4_IRQHandler                         0x08000163   Thumb Code     0  startup_stm32f10x_hd.o(.text)
    EXTI9_5_IRQHandler                       0x08000163   Thumb Code     0  startup_stm32f10x_hd.o(.text)
    FLASH_IRQHandler                         0x08000163   Thumb Code     0  startup_stm32f10x_hd.o(.text)
    FSMC_IRQHandler                          0x08000163   Thumb Code     0  startup_stm32f10x_hd.o(.text)
    I2C1_ER_IRQHandler                       0x08000163   Thumb Code     0  startup_stm32f10x_hd.o(.text)
    I2C1_EV_IRQHandler                       0x08000163   Thumb Code     0  startup_stm32f10x_hd.o(.text)
    I2C2_ER_IRQHandler                       0x08000163   Thumb Code     0  startup_stm32f10x_hd.o(.text)
    I2C2_EV_IRQHandler                       0x08000163   Thumb Code     0  startup_stm32f10x_hd.o(.text)
    PVD_IRQHandler                           0x08000163   Thumb Code     0  startup_stm32f10x_hd.o(.text)
    RCC_IRQHandler                           0x08000163   Thumb Code     0  startup_stm32f10x_hd.o(.text)
    RTCAlarm_IRQHandler                      0x08000163   Thumb Code     0  startup_stm32f10x_hd.o(.text)
    RTC_IRQHandler                           0x08000163   Thumb Code     0  startup_stm32f10x_hd.o(.text)
    SDIO_IRQHandler                          0x08000163   Thumb Code     0  startup_stm32f10x_hd.o(.text)
    SPI1_IRQHandler                          0x08000163   Thumb Code     0  startup_stm32f10x_hd.o(.text)
    SPI2_IRQHandler                          0x08000163   Thumb Code     0  startup_stm32f10x_hd.o(.text)
    SPI3_IRQHandler                          0x08000163   Thumb Code     0  startup_stm32f10x_hd.o(.text)
    TAMPER_IRQHandler                        0x08000163   Thumb Code     0  startup_stm32f10x_hd.o(.text)
    TIM1_BRK_IRQHandler                      0x08000163   Thumb Code     0  startup_stm32f10x_hd.o(.text)
    TIM1_CC_IRQHandler                       0x08000163   Thumb Code     0  startup_stm32f10x_hd.o(.text)
    TIM1_TRG_COM_IRQHandler                  0x08000163   Thumb Code     0  startup_stm32f10x_hd.o(.text)
    TIM1_UP_IRQHandler                       0x08000163   Thumb Code     0  startup_stm32f10x_hd.o(.text)
    TIM2_IRQHandler                          0x08000163   Thumb Code     0  startup_stm32f10x_hd.o(.text)
    TIM3_IRQHandler                          0x08000163   Thumb Code     0  startup_stm32f10x_hd.o(.text)
    TIM4_IRQHandler                          0x08000163   Thumb Code     0  startup_stm32f10x_hd.o(.text)
    TIM5_IRQHandler                          0x08000163   Thumb Code     0  startup_stm32f10x_hd.o(.text)
    TIM6_IRQHandler                          0x08000163   Thumb Code     0  startup_stm32f10x_hd.o(.text)
    TIM7_IRQHandler                          0x08000163   Thumb Code     0  startup_stm32f10x_hd.o(.text)
    TIM8_BRK_IRQHandler                      0x08000163   Thumb Code     0  startup_stm32f10x_hd.o(.text)
    TIM8_CC_IRQHandler                       0x08000163   Thumb Code     0  startup_stm32f10x_hd.o(.text)
    TIM8_TRG_COM_IRQHandler                  0x08000163   Thumb Code     0  startup_stm32f10x_hd.o(.text)
    TIM8_UP_IRQHandler                       0x08000163   Thumb Code     0  startup_stm32f10x_hd.o(.text)
    UART4_IRQHandler                         0x08000163   Thumb Code     0  startup_stm32f10x_hd.o(.text)
    UART5_IRQHandler                         0x08000163   Thumb Code     0  startup_stm32f10x_hd.o(.text)
    USART1_IRQHandler                        0x08000163   Thumb Code     0  startup_stm32f10x_hd.o(.text)
    USART2_IRQHandler                        0x08000163   Thumb Code     0  startup_stm32f10x_hd.o(.text)
    USART3_IRQHandler                        0x08000163   Thumb Code     0  startup_stm32f10x_hd.o(.text)
    USBWakeUp_IRQHandler                     0x08000163   Thumb Code     0  startup_stm32f10x_hd.o(.text)
    USB_HP_CAN1_TX_IRQHandler                0x08000163   Thumb Code     0  startup_stm32f10x_hd.o(.text)
    USB_LP_CAN1_RX0_IRQHandler               0x08000163   Thumb Code     0  startup_stm32f10x_hd.o(.text)
    WWDG_IRQHandler                          0x08000163   Thumb Code     0  startup_stm32f10x_hd.o(.text)
    SystemInit                               0x08000249   Thumb Code    78  system_stm32f10x.o(.text)
    SystemCoreClockUpdate                    0x08000297   Thumb Code   142  system_stm32f10x.o(.text)
    GPIO_DeInit                              0x08000349   Thumb Code   172  stm32f10x_gpio.o(.text)
    GPIO_AFIODeInit                          0x080003f5   Thumb Code    20  stm32f10x_gpio.o(.text)
    GPIO_Init                                0x08000409   Thumb Code   274  stm32f10x_gpio.o(.text)
    GPIO_StructInit                          0x0800051b   Thumb Code    16  stm32f10x_gpio.o(.text)
    GPIO_ReadInputDataBit                    0x0800052b   Thumb Code    18  stm32f10x_gpio.o(.text)
    GPIO_ReadInputData                       0x0800053d   Thumb Code     8  stm32f10x_gpio.o(.text)
    GPIO_ReadOutputDataBit                   0x08000545   Thumb Code    18  stm32f10x_gpio.o(.text)
    GPIO_ReadOutputData                      0x08000557   Thumb Code     8  stm32f10x_gpio.o(.text)
    GPIO_SetBits                             0x0800055f   Thumb Code     4  stm32f10x_gpio.o(.text)
    GPIO_ResetBits                           0x08000563   Thumb Code     4  stm32f10x_gpio.o(.text)
    GPIO_WriteBit                            0x08000567   Thumb Code    10  stm32f10x_gpio.o(.text)
    GPIO_Write                               0x08000571   Thumb Code     4  stm32f10x_gpio.o(.text)
    GPIO_PinLockConfig                       0x08000575   Thumb Code    18  stm32f10x_gpio.o(.text)
    GPIO_EventOutputConfig                   0x08000587   Thumb Code    26  stm32f10x_gpio.o(.text)
    GPIO_EventOutputCmd                      0x080005a1   Thumb Code     6  stm32f10x_gpio.o(.text)
    GPIO_PinRemapConfig                      0x080005a7   Thumb Code   138  stm32f10x_gpio.o(.text)
    GPIO_EXTILineConfig                      0x08000631   Thumb Code    66  stm32f10x_gpio.o(.text)
    GPIO_ETH_MediaInterfaceConfig            0x08000673   Thumb Code     6  stm32f10x_gpio.o(.text)
    RCC_DeInit                               0x080006a1   Thumb Code    64  stm32f10x_rcc.o(.text)
    RCC_HSEConfig                            0x080006e1   Thumb Code    70  stm32f10x_rcc.o(.text)
    RCC_GetFlagStatus                        0x08000727   Thumb Code    56  stm32f10x_rcc.o(.text)
    RCC_WaitForHSEStartUp                    0x0800075f   Thumb Code    56  stm32f10x_rcc.o(.text)
    RCC_AdjustHSICalibrationValue            0x08000797   Thumb Code    20  stm32f10x_rcc.o(.text)
    RCC_HSICmd                               0x080007ab   Thumb Code     6  stm32f10x_rcc.o(.text)
    RCC_PLLConfig                            0x080007b1   Thumb Code    24  stm32f10x_rcc.o(.text)
    RCC_PLLCmd                               0x080007c9   Thumb Code     6  stm32f10x_rcc.o(.text)
    RCC_SYSCLKConfig                         0x080007cf   Thumb Code    18  stm32f10x_rcc.o(.text)
    RCC_GetSYSCLKSource                      0x080007e1   Thumb Code    10  stm32f10x_rcc.o(.text)
    RCC_HCLKConfig                           0x080007eb   Thumb Code    18  stm32f10x_rcc.o(.text)
    RCC_PCLK1Config                          0x080007fd   Thumb Code    18  stm32f10x_rcc.o(.text)
    RCC_PCLK2Config                          0x0800080f   Thumb Code    20  stm32f10x_rcc.o(.text)
    RCC_ITConfig                             0x08000823   Thumb Code    26  stm32f10x_rcc.o(.text)
    RCC_USBCLKConfig                         0x0800083d   Thumb Code     6  stm32f10x_rcc.o(.text)
    RCC_ADCCLKConfig                         0x08000843   Thumb Code    18  stm32f10x_rcc.o(.text)
    RCC_LSEConfig                            0x08000855   Thumb Code    44  stm32f10x_rcc.o(.text)
    RCC_LSICmd                               0x08000881   Thumb Code     6  stm32f10x_rcc.o(.text)
    RCC_RTCCLKConfig                         0x08000887   Thumb Code    12  stm32f10x_rcc.o(.text)
    RCC_RTCCLKCmd                            0x08000893   Thumb Code     8  stm32f10x_rcc.o(.text)
    RCC_GetClocksFreq                        0x0800089b   Thumb Code   192  stm32f10x_rcc.o(.text)
    RCC_AHBPeriphClockCmd                    0x0800095b   Thumb Code    26  stm32f10x_rcc.o(.text)
    RCC_APB2PeriphClockCmd                   0x08000975   Thumb Code    26  stm32f10x_rcc.o(.text)
    RCC_APB1PeriphClockCmd                   0x0800098f   Thumb Code    26  stm32f10x_rcc.o(.text)
    RCC_APB2PeriphResetCmd                   0x080009a9   Thumb Code    26  stm32f10x_rcc.o(.text)
    RCC_APB1PeriphResetCmd                   0x080009c3   Thumb Code    26  stm32f10x_rcc.o(.text)
    RCC_BackupResetCmd                       0x080009dd   Thumb Code     8  stm32f10x_rcc.o(.text)
    RCC_ClockSecuritySystemCmd               0x080009e5   Thumb Code     6  stm32f10x_rcc.o(.text)
    RCC_MCOConfig                            0x080009eb   Thumb Code     6  stm32f10x_rcc.o(.text)
    RCC_ClearFlag                            0x080009f1   Thumb Code    14  stm32f10x_rcc.o(.text)
    RCC_GetITStatus                          0x080009ff   Thumb Code    20  stm32f10x_rcc.o(.text)
    RCC_ClearITPendingBit                    0x08000a13   Thumb Code     6  stm32f10x_rcc.o(.text)
    FSMC_NORSRAMDeInit                       0x08000a45   Thumb Code    56  stm32f10x_fsmc.o(.text)
    FSMC_NANDDeInit                          0x08000a7d   Thumb Code    62  stm32f10x_fsmc.o(.text)
    FSMC_PCCARDDeInit                        0x08000abb   Thumb Code    40  stm32f10x_fsmc.o(.text)
    FSMC_NORSRAMInit                         0x08000ae3   Thumb Code   224  stm32f10x_fsmc.o(.text)
    FSMC_NANDInit                            0x08000bc3   Thumb Code   130  stm32f10x_fsmc.o(.text)
    FSMC_PCCARDInit                          0x08000c45   Thumb Code   124  stm32f10x_fsmc.o(.text)
    FSMC_NORSRAMStructInit                   0x08000cc1   Thumb Code   114  stm32f10x_fsmc.o(.text)
    FSMC_NANDStructInit                      0x08000d33   Thumb Code    54  stm32f10x_fsmc.o(.text)
    FSMC_PCCARDStructInit                    0x08000d69   Thumb Code    60  stm32f10x_fsmc.o(.text)
    FSMC_NORSRAMCmd                          0x08000da5   Thumb Code    46  stm32f10x_fsmc.o(.text)
    FSMC_NANDCmd                             0x08000dd3   Thumb Code    86  stm32f10x_fsmc.o(.text)
    FSMC_PCCARDCmd                           0x08000e29   Thumb Code    40  stm32f10x_fsmc.o(.text)
    FSMC_NANDECCCmd                          0x08000e51   Thumb Code   118  stm32f10x_fsmc.o(.text)
    FSMC_GetECC                              0x08000ec7   Thumb Code    22  stm32f10x_fsmc.o(.text)
    FSMC_ITConfig                            0x08000edd   Thumb Code   128  stm32f10x_fsmc.o(.text)
    FSMC_GetFlagStatus                       0x08000f5d   Thumb Code    48  stm32f10x_fsmc.o(.text)
    FSMC_ClearFlag                           0x08000f8d   Thumb Code    62  stm32f10x_fsmc.o(.text)
    FSMC_GetITStatus                         0x08000fcb   Thumb Code    60  stm32f10x_fsmc.o(.text)
    FSMC_ClearITPendingBit                   0x08001007   Thumb Code    64  stm32f10x_fsmc.o(.text)
    USART_DeInit                             0x0800105d   Thumb Code   134  stm32f10x_usart.o(.text)
    USART_Init                               0x080010e3   Thumb Code   210  stm32f10x_usart.o(.text)
    USART_StructInit                         0x080011b5   Thumb Code    24  stm32f10x_usart.o(.text)
    USART_ClockInit                          0x080011cd   Thumb Code    34  stm32f10x_usart.o(.text)
    USART_ClockStructInit                    0x080011ef   Thumb Code    12  stm32f10x_usart.o(.text)
    USART_Cmd                                0x080011fb   Thumb Code    24  stm32f10x_usart.o(.text)
    USART_ITConfig                           0x08001213   Thumb Code    74  stm32f10x_usart.o(.text)
    USART_DMACmd                             0x0800125d   Thumb Code    18  stm32f10x_usart.o(.text)
    USART_SetAddress                         0x0800126f   Thumb Code    18  stm32f10x_usart.o(.text)
    USART_WakeUpConfig                       0x08001281   Thumb Code    18  stm32f10x_usart.o(.text)
    USART_ReceiverWakeUpCmd                  0x08001293   Thumb Code    24  stm32f10x_usart.o(.text)
    USART_LINBreakDetectLengthConfig         0x080012ab   Thumb Code    18  stm32f10x_usart.o(.text)
    USART_LINCmd                             0x080012bd   Thumb Code    24  stm32f10x_usart.o(.text)
    USART_SendData                           0x080012d5   Thumb Code     8  stm32f10x_usart.o(.text)
    USART_ReceiveData                        0x080012dd   Thumb Code    10  stm32f10x_usart.o(.text)
    USART_SendBreak                          0x080012e7   Thumb Code    10  stm32f10x_usart.o(.text)
    USART_SetGuardTime                       0x080012f1   Thumb Code    16  stm32f10x_usart.o(.text)
    USART_SetPrescaler                       0x08001301   Thumb Code    16  stm32f10x_usart.o(.text)
    USART_SmartCardCmd                       0x08001311   Thumb Code    24  stm32f10x_usart.o(.text)
    USART_SmartCardNACKCmd                   0x08001329   Thumb Code    24  stm32f10x_usart.o(.text)
    USART_HalfDuplexCmd                      0x08001341   Thumb Code    24  stm32f10x_usart.o(.text)
    USART_OverSampling8Cmd                   0x08001359   Thumb Code    22  stm32f10x_usart.o(.text)
    USART_OneBitMethodCmd                    0x0800136f   Thumb Code    24  stm32f10x_usart.o(.text)
    USART_IrDAConfig                         0x08001387   Thumb Code    18  stm32f10x_usart.o(.text)
    USART_IrDACmd                            0x08001399   Thumb Code    24  stm32f10x_usart.o(.text)
    USART_GetFlagStatus                      0x080013b1   Thumb Code    26  stm32f10x_usart.o(.text)
    USART_ClearFlag                          0x080013cb   Thumb Code    18  stm32f10x_usart.o(.text)
    USART_GetITStatus                        0x080013dd   Thumb Code    84  stm32f10x_usart.o(.text)
    USART_ClearITPendingBit                  0x08001431   Thumb Code    52  stm32f10x_usart.o(.text)
    CPU_IntDis                               0x08001465   Thumb Code     0  cpu_a.o(.text)
    CPU_IntEn                                0x08001469   Thumb Code     0  cpu_a.o(.text)
    CPU_SR_Save                              0x0800146d   Thumb Code     0  cpu_a.o(.text)
    CPU_SR_Restore                           0x08001475   Thumb Code     0  cpu_a.o(.text)
    CPU_WaitForInt                           0x0800147b   Thumb Code     0  cpu_a.o(.text)
    CPU_WaitForExcept                        0x0800147f   Thumb Code     0  cpu_a.o(.text)
    CPU_CntLeadZeros                         0x08001483   Thumb Code     0  cpu_a.o(.text)
    CPU_CntTrailZeros                        0x08001489   Thumb Code     0  cpu_a.o(.text)
    CPU_RevBits                              0x08001493   Thumb Code     0  cpu_a.o(.text)
    __aeabi_uidiv                            0x08001499   Thumb Code     0  uidiv.o(.text)
    __aeabi_uidivmod                         0x08001499   Thumb Code    44  uidiv.o(.text)
    __scatterload                            0x080014c5   Thumb Code    28  init.o(.text)
    __scatterload_rt2                        0x080014c5   Thumb Code     0  init.o(.text)
    __decompress                             0x080014e9   Thumb Code     0  __dczerorl2.o(.text)
    __decompress1                            0x080014e9   Thumb Code    86  __dczerorl2.o(.text)
    OSStartHighRdy                           0x08001541   Thumb Code     0  os_cpu_a.o(CODE)
    OS_CPU_PendSVHandler                     0x08001563   Thumb Code     0  os_cpu_a.o(CODE)
    BSP_CPU_ClkFreq                          0x080019fd   Thumb Code    16  bsp.o(i.BSP_CPU_ClkFreq)
    BSP_Init                                 0x08001a0d   Thumb Code    20  bsp.o(i.BSP_Init)
    BusFault_Handler                         0x08001a21   Thumb Code     4  stm32f10x_it.o(i.BusFault_Handler)
    CPU_Init                                 0x08001a25   Thumb Code    16  cpu_core.o(i.CPU_Init)
    CPU_IntDisMeasMaxCurGet                  0x08001ad5   Thumb Code    40  cpu_core.o(i.CPU_IntDisMeasMaxCurGet)
    CPU_IntDisMeasMaxCurReset                0x08001b01   Thumb Code    40  cpu_core.o(i.CPU_IntDisMeasMaxCurReset)
    CPU_IntDisMeasMaxGet                     0x08001b2d   Thumb Code    40  cpu_core.o(i.CPU_IntDisMeasMaxGet)
    CPU_IntDisMeasStart                      0x08001b59   Thumb Code    38  cpu_core.o(i.CPU_IntDisMeasStart)
    CPU_IntDisMeasStop                       0x08001b8d   Thumb Code    62  cpu_core.o(i.CPU_IntDisMeasStop)
    CPU_NameClr                              0x08001be1   Thumb Code    50  cpu_core.o(i.CPU_NameClr)
    CPU_TS_TmrFreqSet                        0x08001c35   Thumb Code     6  cpu_core.o(i.CPU_TS_TmrFreqSet)
    CPU_TS_TmrInit                           0x08001c41   Thumb Code    44  bsp.o(i.CPU_TS_TmrInit)
    CPU_TS_TmrRd                             0x08001c75   Thumb Code     6  bsp.o(i.CPU_TS_TmrRd)
    DebugMon_Handler                         0x08001c81   Thumb Code     2  stm32f10x_it.o(i.DebugMon_Handler)
    HardFault_Handler                        0x08001c83   Thumb Code     4  stm32f10x_it.o(i.HardFault_Handler)
    Key_Initial                              0x08001cd1   Thumb Code    12  bsp_key.o(i.Key_Initial)
    Key_Scan                                 0x08001cdd   Thumb Code    88  bsp_key.o(i.Key_Scan)
    LCD_Clear                                0x08001d35   Thumb Code    68  tftlcd.o(i.LCD_Clear)
    LCD_Display_Dir                          0x08001d7d   Thumb Code    82  tftlcd.o(i.LCD_Display_Dir)
    LCD_DrawFRONT_COLOR                      0x08001dd5   Thumb Code    28  tftlcd.o(i.LCD_DrawFRONT_COLOR)
    LCD_Fill                                 0x08001df1   Thumb Code    92  tftlcd.o(i.LCD_Fill)
    LCD_Set_Window                           0x08001e4d   Thumb Code   166  tftlcd.o(i.LCD_Set_Window)
    LCD_ShowChar                             0x08001ef5   Thumb Code   272  tftlcd.o(i.LCD_ShowChar)
    LCD_ShowFontHZ                           0x0800201d   Thumb Code   220  tftlcd.o(i.LCD_ShowFontHZ)
    LCD_ShowString                           0x08002105   Thumb Code   102  tftlcd.o(i.LCD_ShowString)
    LCD_WriteCmd                             0x0800216d   Thumb Code     6  tftlcd.o(i.LCD_WriteCmd)
    LCD_WriteCmdData                         0x08002179   Thumb Code    20  tftlcd.o(i.LCD_WriteCmdData)
    LCD_WriteData                            0x0800218d   Thumb Code     6  tftlcd.o(i.LCD_WriteData)
    LCD_WriteData_Color                      0x08002199   Thumb Code    12  tftlcd.o(i.LCD_WriteData_Color)
    LED_Init                                 0x08002201   Thumb Code    32  bsp_led.o(i.LED_Init)
    MemManage_Handler                        0x08002225   Thumb Code     4  stm32f10x_it.o(i.MemManage_Handler)
    Mem_Clr                                  0x08002229   Thumb Code    18  lib_mem.o(i.Mem_Clr)
    Mem_Init                                 0x0800223d   Thumb Code    54  lib_mem.o(i.Mem_Init)
    Mem_Set                                  0x08002285   Thumb Code    98  lib_mem.o(i.Mem_Set)
    NMI_Handler                              0x080022e7   Thumb Code     2  stm32f10x_it.o(i.NMI_Handler)
    OSCfg_Init                               0x080022e9   Thumb Code     2  os_cfg_app.o(i.OSCfg_Init)
    OSIdleTaskHook                           0x080022ed   Thumb Code    16  os_cpu_c.o(i.OSIdleTaskHook)
    OSInit                                   0x08002301   Thumb Code   300  os_core.o(i.OSInit)
    OSInitHook                               0x0800248d   Thumb Code    42  os_cpu_c.o(i.OSInitHook)
    OSIntExit                                0x080024c5   Thumb Code   192  os_core.o(i.OSIntExit)
    OSSched                                  0x080025a9   Thumb Code   134  os_core.o(i.OSSched)
    OSSchedLock                              0x08002651   Thumb Code   112  os_core.o(i.OSSchedLock)
    OSSchedUnlock                            0x080026cd   Thumb Code   148  os_core.o(i.OSSchedUnlock)
    OSSemCreate                              0x0800276d   Thumb Code   210  os_sem.o(i.OSSemCreate)
    OSSemPend                                0x08002851   Thumb Code   524  os_sem.o(i.OSSemPend)
    OSSemPost                                0x08002a6d   Thumb Code   144  os_sem.o(i.OSSemPost)
    OSStart                                  0x08002b05   Thumb Code    78  os_core.o(i.OSStart)
    OSStatReset                              0x08002b6d   Thumb Code   316  os_stat.o(i.OSStatReset)
    OSStatTaskCPUUsageInit                   0x08002cd5   Thumb Code   228  os_stat.o(i.OSStatTaskCPUUsageInit)
    OSStatTaskHook                           0x08002dd5   Thumb Code    16  os_cpu_c.o(i.OSStatTaskHook)
    OSTaskCreate                             0x08002de9   Thumb Code   624  os_task.o(i.OSTaskCreate)
    OSTaskCreateHook                         0x0800307d   Thumb Code    20  os_cpu_c.o(i.OSTaskCreateHook)
    OSTaskDel                                0x08003095   Thumb Code   490  os_task.o(i.OSTaskDel)
    OSTaskDelHook                            0x0800329d   Thumb Code    20  os_cpu_c.o(i.OSTaskDelHook)
    OSTaskResume                             0x080032b5   Thumb Code   124  os_task.o(i.OSTaskResume)
    OSTaskReturnHook                         0x0800333d   Thumb Code    20  os_cpu_c.o(i.OSTaskReturnHook)
    OSTaskSemPend                            0x08003355   Thumb Code   578  os_task.o(i.OSTaskSemPend)
    OSTaskStkChk                             0x080035a5   Thumb Code   220  os_task.o(i.OSTaskStkChk)
    OSTaskStkInit                            0x08003689   Thumb Code   188  os_cpu_c.o(i.OSTaskStkInit)
    OSTaskSuspend                            0x08003749   Thumb Code    78  os_task.o(i.OSTaskSuspend)
    OSTaskSwHook                             0x080037a9   Thumb Code   146  os_cpu_c.o(i.OSTaskSwHook)
    OSTimeDly                                0x0800384d   Thumb Code   322  os_time.o(i.OSTimeDly)
    OSTimeDlyHMSM                            0x0800399d   Thumb Code   538  os_time.o(i.OSTimeDlyHMSM)
    OSTimeTick                               0x08003bc9   Thumb Code    54  os_time.o(i.OSTimeTick)
    OSTimeTickHook                           0x08003c0d   Thumb Code    16  os_cpu_c.o(i.OSTimeTickHook)
    OS_CPU_SysTickHandler                    0x08003c21   Thumb Code    60  os_cpu_c.o(i.OS_CPU_SysTickHandler)
    OS_CPU_SysTickInit                       0x08003c61   Thumb Code    44  os_cpu_c.o(i.OS_CPU_SysTickInit)
    OS_Dbg_Init                              0x08003c91   Thumb Code   150  os_dbg.o(i.OS_Dbg_Init)
    OS_FlagInit                              0x08003e45   Thumb Code    14  os_flag.o(i.OS_FlagInit)
    OS_FlagPost                              0x08003e5d   Thumb Code   626  os_flag.o(i.OS_FlagPost)
    OS_FlagTaskRdy                           0x080040d9   Thumb Code    86  os_flag.o(i.OS_FlagTaskRdy)
    OS_IdleTask                              0x08004131   Thumb Code    68  os_core.o(i.OS_IdleTask)
    OS_IdleTaskInit                          0x0800417d   Thumb Code    66  os_core.o(i.OS_IdleTaskInit)
    OS_IntQPost                              0x080041ed   Thumb Code   224  os_int.o(i.OS_IntQPost)
    OS_IntQRePost                            0x080042f1   Thumb Code   360  os_int.o(i.OS_IntQRePost)
    OS_IntQTask                              0x08004495   Thumb Code   182  os_int.o(i.OS_IntQTask)
    OS_IntQTaskInit                          0x0800455d   Thumb Code   206  os_int.o(i.OS_IntQTaskInit)
    OS_MemInit                               0x08004685   Thumb Code    14  os_mem.o(i.OS_MemInit)
    OS_MsgPoolInit                           0x0800469d   Thumb Code   110  os_msg.o(i.OS_MsgPoolInit)
    OS_MsgQFreeAll                           0x08004719   Thumb Code    62  os_msg.o(i.OS_MsgQFreeAll)
    OS_MsgQInit                              0x0800475d   Thumb Code    14  os_msg.o(i.OS_MsgQInit)
    OS_MsgQPut                               0x0800476d   Thumb Code   254  os_msg.o(i.OS_MsgQPut)
    OS_MutexInit                             0x08004871   Thumb Code    14  os_mutex.o(i.OS_MutexInit)
    OS_Pend                                  0x08004889   Thumb Code    98  os_core.o(i.OS_Pend)
    OS_PendDataInit                          0x080048f1   Thumb Code    38  os_core.o(i.OS_PendDataInit)
    OS_PendDbgNameAdd                        0x08004919   Thumb Code    66  os_core.o(i.OS_PendDbgNameAdd)
    OS_PendDbgNameRemove                     0x08004975   Thumb Code    30  os_core.o(i.OS_PendDbgNameRemove)
    OS_PendListInit                          0x08004999   Thumb Code    10  os_core.o(i.OS_PendListInit)
    OS_PendListInsertPrio                    0x080049a3   Thumb Code   102  os_core.o(i.OS_PendListInsertPrio)
    OS_PendListRemove                        0x08004a09   Thumb Code    48  os_core.o(i.OS_PendListRemove)
    OS_PendListRemove1                       0x08004a39   Thumb Code    66  os_core.o(i.OS_PendListRemove1)
    OS_Post                                  0x08004a7b   Thumb Code   192  os_core.o(i.OS_Post)
    OS_Post1                                 0x08004b3b   Thumb Code    42  os_core.o(i.OS_Post1)
    OS_PrioGetHighest                        0x08004b65   Thumb Code    36  os_prio.o(i.OS_PrioGetHighest)
    OS_PrioInit                              0x08004b8d   Thumb Code    20  os_prio.o(i.OS_PrioInit)
    OS_PrioInsert                            0x08004ba5   Thumb Code    32  os_prio.o(i.OS_PrioInsert)
    OS_PrioRemove                            0x08004bc9   Thumb Code    32  os_prio.o(i.OS_PrioRemove)
    OS_QInit                                 0x08004bed   Thumb Code    14  os_q.o(i.OS_QInit)
    OS_QPost                                 0x08004c05   Thumb Code   382  os_q.o(i.OS_QPost)
    OS_RdyListInit                           0x08004d8d   Thumb Code    32  os_core.o(i.OS_RdyListInit)
    OS_RdyListInsert                         0x08004db1   Thumb Code    40  os_core.o(i.OS_RdyListInsert)
    OS_RdyListInsertHead                     0x08004ddd   Thumb Code    58  os_core.o(i.OS_RdyListInsertHead)
    OS_RdyListInsertTail                     0x08004e1d   Thumb Code    56  os_core.o(i.OS_RdyListInsertTail)
    OS_RdyListMoveHeadToTail                 0x08004e59   Thumb Code    68  os_core.o(i.OS_RdyListMoveHeadToTail)
    OS_RdyListRemove                         0x08004e9d   Thumb Code    86  os_core.o(i.OS_RdyListRemove)
    OS_Sched0                                0x08004ef9   Thumb Code    72  os_core.o(i.OS_Sched0)
    OS_SchedLockTimeMeasStart                0x08004f55   Thumb Code    20  os_core.o(i.OS_SchedLockTimeMeasStart)
    OS_SchedLockTimeMeasStop                 0x08004f71   Thumb Code    44  os_core.o(i.OS_SchedLockTimeMeasStop)
    OS_SchedRoundRobin                       0x08004fad   Thumb Code   218  os_core.o(i.OS_SchedRoundRobin)
    OS_SemDbgListAdd                         0x08005099   Thumb Code    38  os_sem.o(i.OS_SemDbgListAdd)
    OS_SemInit                               0x080050c9   Thumb Code    14  os_sem.o(i.OS_SemInit)
    OS_SemPost                               0x080050e1   Thumb Code   404  os_sem.o(i.OS_SemPost)
    OS_StatTask                              0x08005279   Thumb Code   878  os_stat.o(i.OS_StatTask)
    OS_StatTaskInit                          0x08005631   Thumb Code   136  os_stat.o(i.OS_StatTaskInit)
    OS_TaskBlock                             0x080056fd   Thumb Code    56  os_core.o(i.OS_TaskBlock)
    OS_TaskDbgListAdd                        0x08005735   Thumb Code    42  os_task.o(i.OS_TaskDbgListAdd)
    OS_TaskDbgListRemove                     0x08005765   Thumb Code    64  os_task.o(i.OS_TaskDbgListRemove)
    OS_TaskInit                              0x080057a9   Thumb Code    18  os_task.o(i.OS_TaskInit)
    OS_TaskInitTCB                           0x080057c9   Thumb Code   194  os_task.o(i.OS_TaskInitTCB)
    OS_TaskQPost                             0x08005899   Thumb Code   606  os_task.o(i.OS_TaskQPost)
    OS_TaskRdy                               0x08005b05   Thumb Code    28  os_core.o(i.OS_TaskRdy)
    OS_TaskResume                            0x08005b21   Thumb Code   374  os_task.o(i.OS_TaskResume)
    OS_TaskReturn                            0x08005c9d   Thumb Code    20  os_task.o(i.OS_TaskReturn)
    OS_TaskSemPost                           0x08005cb5   Thumb Code  1438  os_task.o(i.OS_TaskSemPost)
    OS_TaskSuspend                           0x0800625d   Thumb Code   392  os_task.o(i.OS_TaskSuspend)
    OS_TickListInit                          0x080063ed   Thumb Code    32  os_tick.o(i.OS_TickListInit)
    OS_TickListInsert                        0x08006415   Thumb Code   430  os_tick.o(i.OS_TickListInsert)
    OS_TickListRemove                        0x080065d1   Thumb Code    56  os_tick.o(i.OS_TickListRemove)
    OS_TickListResetPeak                     0x08006609   Thumb Code    28  os_tick.o(i.OS_TickListResetPeak)
    OS_TickListUpdate                        0x0800662d   Thumb Code   520  os_tick.o(i.OS_TickListUpdate)
    OS_TickTask                              0x0800684d   Thumb Code    38  os_tick.o(i.OS_TickTask)
    OS_TickTaskInit                          0x08006879   Thumb Code   128  os_tick.o(i.OS_TickTaskInit)
    OS_TmrInit                               0x08006931   Thumb Code   206  os_tmr.o(i.OS_TmrInit)
    OS_TmrLink                               0x08006a59   Thumb Code   196  os_tmr.o(i.OS_TmrLink)
    OS_TmrResetPeak                          0x08006b29   Thumb Code    28  os_tmr.o(i.OS_TmrResetPeak)
    OS_TmrTask                               0x08006b4d   Thumb Code   176  os_tmr.o(i.OS_TmrTask)
    OS_TmrUnlink                             0x08006c0d   Thumb Code    72  os_tmr.o(i.OS_TmrUnlink)
    SVC_Handler                              0x08006c5d   Thumb Code     2  stm32f10x_it.o(i.SVC_Handler)
    TFTLCD_FSMC_Init                         0x08006c5f   Thumb Code   126  tftlcd.o(i.TFTLCD_FSMC_Init)
    TFTLCD_GPIO_Init                         0x08006cdd   Thumb Code   130  tftlcd.o(i.TFTLCD_GPIO_Init)
    TFTLCD_Init                              0x08006d75   Thumb Code   492  tftlcd.o(i.TFTLCD_Init)
    USARTx_Config                            0x08006f69   Thumb Code   120  bsp_usart1.o(i.USARTx_Config)
    UsageFault_Handler                       0x08006fe9   Thumb Code     4  stm32f10x_it.o(i.UsageFault_Handler)
    __0printf$1                              0x08006fed   Thumb Code    22  printf1.o(i.__0printf$1)
    __1printf$1                              0x08006fed   Thumb Code     0  printf1.o(i.__0printf$1)
    __2printf                                0x08006fed   Thumb Code     0  printf1.o(i.__0printf$1)
    __scatterload_copy                       0x0800700d   Thumb Code    14  handlers.o(i.__scatterload_copy)
    __scatterload_null                       0x0800701b   Thumb Code     2  handlers.o(i.__scatterload_null)
    __scatterload_zeroinit                   0x0800701d   Thumb Code    14  handlers.o(i.__scatterload_zeroinit)
    delay_ms                                 0x08007181   Thumb Code    28  tftlcd.o(i.delay_ms)
    fputc                                    0x0800719d   Thumb Code    32  bsp_usart1.o(i.fputc)
    main                                     0x080071c1   Thumb Code    70  main.o(i.main)
    ascii_1206                               0x08007224   Data        1140  tftlcd.o(.constdata)
    ascii_1608                               0x08007698   Data        1520  tftlcd.o(.constdata)
    ascii_2412                               0x08007c88   Data        3420  tftlcd.o(.constdata)
    ascii_3216                               0x080089e4   Data       12160  tftlcd.o(.constdata)
    CnChar32x29                              0x0800b964   Data        2360  tftlcd.o(.constdata)
    OSCfg_IdleTaskStkBasePtr                 0x0800c29c   Data           4  os_cfg_app.o(.constdata)
    OSCfg_IdleTaskStkLimit                   0x0800c2a0   Data           4  os_cfg_app.o(.constdata)
    OSCfg_IdleTaskStkSize                    0x0800c2a4   Data           4  os_cfg_app.o(.constdata)
    OSCfg_IdleTaskStkSizeRAM                 0x0800c2a8   Data           4  os_cfg_app.o(.constdata)
    OSCfg_IntQBasePtr                        0x0800c2ac   Data           4  os_cfg_app.o(.constdata)
    OSCfg_IntQSize                           0x0800c2b0   Data           2  os_cfg_app.o(.constdata)
    OSCfg_IntQSizeRAM                        0x0800c2b4   Data           4  os_cfg_app.o(.constdata)
    OSCfg_IntQTaskStkBasePtr                 0x0800c2b8   Data           4  os_cfg_app.o(.constdata)
    OSCfg_IntQTaskStkLimit                   0x0800c2bc   Data           4  os_cfg_app.o(.constdata)
    OSCfg_IntQTaskStkSize                    0x0800c2c0   Data           4  os_cfg_app.o(.constdata)
    OSCfg_IntQTaskStkSizeRAM                 0x0800c2c4   Data           4  os_cfg_app.o(.constdata)
    OSCfg_ISRStkBasePtr                      0x0800c2c8   Data           4  os_cfg_app.o(.constdata)
    OSCfg_ISRStkSize                         0x0800c2cc   Data           4  os_cfg_app.o(.constdata)
    OSCfg_ISRStkSizeRAM                      0x0800c2d0   Data           4  os_cfg_app.o(.constdata)
    OSCfg_MsgPoolSize                        0x0800c2d4   Data           2  os_cfg_app.o(.constdata)
    OSCfg_MsgPoolSizeRAM                     0x0800c2d8   Data           4  os_cfg_app.o(.constdata)
    OSCfg_MsgPoolBasePtr                     0x0800c2dc   Data           4  os_cfg_app.o(.constdata)
    OSCfg_StatTaskPrio                       0x0800c2e0   Data           1  os_cfg_app.o(.constdata)
    OSCfg_StatTaskRate_Hz                    0x0800c2e4   Data           4  os_cfg_app.o(.constdata)
    OSCfg_StatTaskStkBasePtr                 0x0800c2e8   Data           4  os_cfg_app.o(.constdata)
    OSCfg_StatTaskStkLimit                   0x0800c2ec   Data           4  os_cfg_app.o(.constdata)
    OSCfg_StatTaskStkSize                    0x0800c2f0   Data           4  os_cfg_app.o(.constdata)
    OSCfg_StatTaskStkSizeRAM                 0x0800c2f4   Data           4  os_cfg_app.o(.constdata)
    OSCfg_StkSizeMin                         0x0800c2f8   Data           4  os_cfg_app.o(.constdata)
    OSCfg_TickRate_Hz                        0x0800c2fc   Data           4  os_cfg_app.o(.constdata)
    OSCfg_TickTaskPrio                       0x0800c300   Data           1  os_cfg_app.o(.constdata)
    OSCfg_TickTaskStkBasePtr                 0x0800c304   Data           4  os_cfg_app.o(.constdata)
    OSCfg_TickTaskStkLimit                   0x0800c308   Data           4  os_cfg_app.o(.constdata)
    OSCfg_TickTaskStkSize                    0x0800c30c   Data           4  os_cfg_app.o(.constdata)
    OSCfg_TickTaskStkSizeRAM                 0x0800c310   Data           4  os_cfg_app.o(.constdata)
    OSCfg_TickWheelSize                      0x0800c314   Data           2  os_cfg_app.o(.constdata)
    OSCfg_TickWheelSizeRAM                   0x0800c318   Data           4  os_cfg_app.o(.constdata)
    OSCfg_TmrTaskPrio                        0x0800c31c   Data           1  os_cfg_app.o(.constdata)
    OSCfg_TmrTaskRate_Hz                     0x0800c320   Data           4  os_cfg_app.o(.constdata)
    OSCfg_TmrTaskStkBasePtr                  0x0800c324   Data           4  os_cfg_app.o(.constdata)
    OSCfg_TmrTaskStkLimit                    0x0800c328   Data           4  os_cfg_app.o(.constdata)
    OSCfg_TmrTaskStkSize                     0x0800c32c   Data           4  os_cfg_app.o(.constdata)
    OSCfg_TmrTaskStkSizeRAM                  0x0800c330   Data           4  os_cfg_app.o(.constdata)
    OSCfg_TmrWheelSize                       0x0800c334   Data           2  os_cfg_app.o(.constdata)
    OSCfg_TmrWheelSizeRAM                    0x0800c338   Data           4  os_cfg_app.o(.constdata)
    OSCfg_DataSizeRAM                        0x0800c33c   Data           4  os_cfg_app.o(.constdata)
    OSDbg_DbgEn                              0x0800c340   Data           1  os_dbg.o(.constdata)
    OSDbg_ArgChkEn                           0x0800c341   Data           1  os_dbg.o(.constdata)
    OSDbg_AppHooksEn                         0x0800c342   Data           1  os_dbg.o(.constdata)
    OSDbg_EndiannessTest                     0x0800c344   Data           4  os_dbg.o(.constdata)
    OSDbg_CalledFromISRChkEn                 0x0800c348   Data           1  os_dbg.o(.constdata)
    OSDbg_FlagEn                             0x0800c349   Data           1  os_dbg.o(.constdata)
    OSDbg_FlagGrp                            0x0800c34c   Data          40  os_dbg.o(.constdata)
    OSDbg_FlagDelEn                          0x0800c374   Data           1  os_dbg.o(.constdata)
    OSDbg_FlagModeClrEn                      0x0800c375   Data           1  os_dbg.o(.constdata)
    OSDbg_FlagPendAbortEn                    0x0800c376   Data           1  os_dbg.o(.constdata)
    OSDbg_FlagGrpSize                        0x0800c378   Data           2  os_dbg.o(.constdata)
    OSDbg_FlagWidth                          0x0800c37a   Data           2  os_dbg.o(.constdata)
    OSDbg_IntQ                               0x0800c37c   Data           2  os_dbg.o(.constdata)
    OSDbg_ISRPostDeferredEn                  0x0800c37e   Data           1  os_dbg.o(.constdata)
    OSDbg_Mem                                0x0800c380   Data          32  os_dbg.o(.constdata)
    OSDbg_MemEn                              0x0800c3a0   Data           1  os_dbg.o(.constdata)
    OSDbg_MemSize                            0x0800c3a2   Data           2  os_dbg.o(.constdata)
    OSDbg_MsgEn                              0x0800c3a4   Data           1  os_dbg.o(.constdata)
    OSDbg_MsgSize                            0x0800c3a6   Data           2  os_dbg.o(.constdata)
    OSDbg_MsgPoolSize                        0x0800c3a8   Data           2  os_dbg.o(.constdata)
    OSDbg_MsgQSize                           0x0800c3aa   Data           2  os_dbg.o(.constdata)
    OSDbg_Mutex                              0x0800c3ac   Data          44  os_dbg.o(.constdata)
    OSDbg_MutexEn                            0x0800c3d8   Data           1  os_dbg.o(.constdata)
    OSDbg_MutexDelEn                         0x0800c3d9   Data           1  os_dbg.o(.constdata)
    OSDbg_MutexPendAbortEn                   0x0800c3da   Data           1  os_dbg.o(.constdata)
    OSDbg_MutexSize                          0x0800c3dc   Data           2  os_dbg.o(.constdata)
    OSDbg_ObjTypeChkEn                       0x0800c3de   Data           1  os_dbg.o(.constdata)
    OSDbg_PendMultiEn                        0x0800c3df   Data           1  os_dbg.o(.constdata)
    OSDbg_PendDataSize                       0x0800c3e0   Data           2  os_dbg.o(.constdata)
    OSDbg_PendListSize                       0x0800c3e2   Data           2  os_dbg.o(.constdata)
    OSDbg_PendObjSize                        0x0800c3e4   Data           2  os_dbg.o(.constdata)
    OSDbg_PrioMax                            0x0800c3e6   Data           2  os_dbg.o(.constdata)
    OSDbg_PrioTblSize                        0x0800c3e8   Data           2  os_dbg.o(.constdata)
    OSDbg_PtrSize                            0x0800c3ea   Data           2  os_dbg.o(.constdata)
    OSDbg_Q                                  0x0800c3ec   Data          48  os_dbg.o(.constdata)
    OSDbg_QEn                                0x0800c41c   Data           1  os_dbg.o(.constdata)
    OSDbg_QDelEn                             0x0800c41d   Data           1  os_dbg.o(.constdata)
    OSDbg_QFlushEn                           0x0800c41e   Data           1  os_dbg.o(.constdata)
    OSDbg_QPendAbortEn                       0x0800c41f   Data           1  os_dbg.o(.constdata)
    OSDbg_QSize                              0x0800c420   Data           2  os_dbg.o(.constdata)
    OSDbg_SchedRoundRobinEn                  0x0800c422   Data           1  os_dbg.o(.constdata)
    OSDbg_Sem                                0x0800c424   Data          40  os_dbg.o(.constdata)
    OSDbg_SemEn                              0x0800c44c   Data           1  os_dbg.o(.constdata)
    OSDbg_SemDelEn                           0x0800c44d   Data           1  os_dbg.o(.constdata)
    OSDbg_SemPendAbortEn                     0x0800c44e   Data           1  os_dbg.o(.constdata)
    OSDbg_SemSetEn                           0x0800c44f   Data           1  os_dbg.o(.constdata)
    OSDbg_SemSize                            0x0800c450   Data           2  os_dbg.o(.constdata)
    OSDbg_RdyList                            0x0800c452   Data           2  os_dbg.o(.constdata)
    OSDbg_RdyListSize                        0x0800c454   Data           4  os_dbg.o(.constdata)
    OSDbg_StkWidth                           0x0800c458   Data           1  os_dbg.o(.constdata)
    OSDbg_StatTaskEn                         0x0800c459   Data           1  os_dbg.o(.constdata)
    OSDbg_StatTaskStkChkEn                   0x0800c45a   Data           1  os_dbg.o(.constdata)
    OSDbg_TaskChangePrioEn                   0x0800c45b   Data           1  os_dbg.o(.constdata)
    OSDbg_TaskDelEn                          0x0800c45c   Data           1  os_dbg.o(.constdata)
    OSDbg_TaskQEn                            0x0800c45d   Data           1  os_dbg.o(.constdata)
    OSDbg_TaskQPendAbortEn                   0x0800c45e   Data           1  os_dbg.o(.constdata)
    OSDbg_TaskProfileEn                      0x0800c45f   Data           1  os_dbg.o(.constdata)
    OSDbg_TaskRegTblSize                     0x0800c460   Data           2  os_dbg.o(.constdata)
    OSDbg_TaskSemPendAbortEn                 0x0800c462   Data           1  os_dbg.o(.constdata)
    OSDbg_TaskSuspendEn                      0x0800c463   Data           1  os_dbg.o(.constdata)
    OSDbg_TCBSize                            0x0800c464   Data           2  os_dbg.o(.constdata)
    OSDbg_TickSpokeSize                      0x0800c466   Data           2  os_dbg.o(.constdata)
    OSDbg_TimeDlyHMSMEn                      0x0800c468   Data           1  os_dbg.o(.constdata)
    OSDbg_TimeDlyResumeEn                    0x0800c469   Data           1  os_dbg.o(.constdata)
    OSDbg_TLS_TblSize                        0x0800c46a   Data           2  os_dbg.o(.constdata)
    OSDbg_Tmr                                0x0800c46c   Data          52  os_dbg.o(.constdata)
    OSDbg_TmrEn                              0x0800c4a0   Data           1  os_dbg.o(.constdata)
    OSDbg_TmrDelEn                           0x0800c4a1   Data           1  os_dbg.o(.constdata)
    OSDbg_TmrSize                            0x0800c4a2   Data           2  os_dbg.o(.constdata)
    OSDbg_TmrSpokeSize                       0x0800c4a4   Data           2  os_dbg.o(.constdata)
    OSDbg_VersionNbr                         0x0800c4a6   Data           2  os_dbg.o(.constdata)
    OSDbg_DataSize                           0x0800c4a8   Data           4  os_dbg.o(.constdata)
    Region$$Table$$Base                      0x0800c4ac   Number         0  anon$$obj.o(Region$$Table)
    Region$$Table$$Limit                     0x0800c4cc   Number         0  anon$$obj.o(Region$$Table)
    show_x                                   0x20000000   Data           2  main.o(.data)
    show_y                                   0x20000002   Data           2  main.o(.data)
    show_num                                 0x20000004   Data           1  main.o(.data)
    FRONT_COLOR                              0x20000006   Data           2  tftlcd.o(.data)
    BACK_COLOR                               0x20000008   Data           2  tftlcd.o(.data)
    tftlcd_data                              0x2000000a   Data           8  tftlcd.o(.data)
    SystemCoreClock                          0x20000014   Data           4  system_stm32f10x.o(.data)
    AHBPrescTable                            0x20000018   Data          16  system_stm32f10x.o(.data)
    CPU_TS_TmrFreq_Hz                        0x2000003c   Data           4  cpu_core.o(.data)
    CPU_IntDisMeasCtr                        0x20000040   Data           2  cpu_core.o(.data)
    CPU_IntDisNestCtr                        0x20000042   Data           2  cpu_core.o(.data)
    CPU_IntDisMeasStart_cnts                 0x20000044   Data           4  cpu_core.o(.data)
    CPU_IntDisMeasStop_cnts                  0x20000048   Data           4  cpu_core.o(.data)
    CPU_IntDisMeasOvrhd_cnts                 0x2000004c   Data           4  cpu_core.o(.data)
    CPU_IntDisMeasMaxCur_cnts                0x20000050   Data           4  cpu_core.o(.data)
    CPU_IntDisMeasMax_cnts                   0x20000054   Data           4  cpu_core.o(.data)
    Mem_PoolTbl                              0x20000058   Data           4  lib_mem.o(.data)
    OS_AppTaskCreateHookPtr                  0x2000005c   Data           4  os_var.o(.data)
    OS_AppTaskDelHookPtr                     0x20000060   Data           4  os_var.o(.data)
    OS_AppTaskReturnHookPtr                  0x20000064   Data           4  os_var.o(.data)
    OS_AppIdleTaskHookPtr                    0x20000068   Data           4  os_var.o(.data)
    OS_AppStatTaskHookPtr                    0x2000006c   Data           4  os_var.o(.data)
    OS_AppTaskSwHookPtr                      0x20000070   Data           4  os_var.o(.data)
    OS_AppTimeTickHookPtr                    0x20000074   Data           4  os_var.o(.data)
    OSIdleTaskCtr                            0x20000078   Data           4  os_var.o(.data)
    OSIntNestingCtr                          0x2000007c   Data           1  os_var.o(.data)
    OSIntDisTimeMax                          0x20000080   Data           4  os_var.o(.data)
    OSRunning                                0x20000084   Data           1  os_var.o(.data)
    OSIntQInPtr                              0x20000088   Data           4  os_var.o(.data)
    OSIntQOutPtr                             0x2000008c   Data           4  os_var.o(.data)
    OSIntQNbrEntries                         0x20000090   Data           2  os_var.o(.data)
    OSIntQNbrEntriesMax                      0x20000092   Data           2  os_var.o(.data)
    OSIntQOvfCtr                             0x20000094   Data           2  os_var.o(.data)
    OSIntQTaskTimeMax                        0x20000098   Data           4  os_var.o(.data)
    OSFlagDbgListPtr                         0x2000009c   Data           4  os_var.o(.data)
    OSFlagQty                                0x200000a0   Data           2  os_var.o(.data)
    OSMemDbgListPtr                          0x200000a4   Data           4  os_var.o(.data)
    OSMemQty                                 0x200000a8   Data           2  os_var.o(.data)
    OSMutexDbgListPtr                        0x200000ac   Data           4  os_var.o(.data)
    OSMutexQty                               0x200000b0   Data           2  os_var.o(.data)
    OSPrioCur                                0x200000b2   Data           1  os_var.o(.data)
    OSPrioHighRdy                            0x200000b3   Data           1  os_var.o(.data)
    OSPrioSaved                              0x200000b4   Data           1  os_var.o(.data)
    OSQDbgListPtr                            0x200000b8   Data           4  os_var.o(.data)
    OSQQty                                   0x200000bc   Data           2  os_var.o(.data)
    OSSchedLockTimeBegin                     0x200000c0   Data           4  os_var.o(.data)
    OSSchedLockTimeMax                       0x200000c4   Data           4  os_var.o(.data)
    OSSchedLockTimeMaxCur                    0x200000c8   Data           4  os_var.o(.data)
    OSSchedLockNestingCtr                    0x200000cc   Data           1  os_var.o(.data)
    OSSchedRoundRobinDfltTimeQuanta          0x200000d0   Data           4  os_var.o(.data)
    OSSchedRoundRobinEn                      0x200000d4   Data           1  os_var.o(.data)
    OSSemDbgListPtr                          0x200000d8   Data           4  os_var.o(.data)
    OSSemQty                                 0x200000dc   Data           2  os_var.o(.data)
    OSStatResetFlag                          0x200000de   Data           1  os_var.o(.data)
    OSStatTaskCPUUsage                       0x200000e0   Data           2  os_var.o(.data)
    OSStatTaskCPUUsageMax                    0x200000e2   Data           2  os_var.o(.data)
    OSStatTaskCtr                            0x200000e4   Data           4  os_var.o(.data)
    OSStatTaskCtrMax                         0x200000e8   Data           4  os_var.o(.data)
    OSStatTaskCtrRun                         0x200000ec   Data           4  os_var.o(.data)
    OSStatTaskRdy                            0x200000f0   Data           1  os_var.o(.data)
    OSStatTaskTimeMax                        0x200000f4   Data           4  os_var.o(.data)
    OSTaskCtxSwCtr                           0x200000f8   Data           4  os_var.o(.data)
    OSTaskDbgListPtr                         0x200000fc   Data           4  os_var.o(.data)
    OSTaskQty                                0x20000100   Data           2  os_var.o(.data)
    OSTaskRegNextAvailID                     0x20000102   Data           1  os_var.o(.data)
    OSTickCtr                                0x20000104   Data           4  os_var.o(.data)
    OSTickTaskTimeMax                        0x20000108   Data           4  os_var.o(.data)
    OSTmrDbgListPtr                          0x2000010c   Data           4  os_var.o(.data)
    OSTmrQty                                 0x20000110   Data           2  os_var.o(.data)
    OSTmrTaskTimeMax                         0x20000114   Data           4  os_var.o(.data)
    OSTmrTickCtr                             0x20000118   Data           4  os_var.o(.data)
    OSTmrUpdateCnt                           0x2000011c   Data           4  os_var.o(.data)
    OSTmrUpdateCtr                           0x20000120   Data           4  os_var.o(.data)
    OSTCBCurPtr                              0x20000124   Data           4  os_var.o(.data)
    OSTCBHighRdyPtr                          0x20000128   Data           4  os_var.o(.data)
    OS_CPU_ExceptStkBase                     0x2000012c   Data           4  os_cpu_c.o(.data)
    OSPrioTbl                                0x20000130   Data           4  os_prio.o(.data)
    __stdout                                 0x20000134   Data           4  stdout.o(.data)
    SemOfKey                                 0x20000138   Data          40  main.o(.bss)
    SemOfLcd                                 0x20000160   Data          40  main.o(.bss)
    CPU_Name                                 0x200038a8   Data          16  cpu_core.o(.bss)
    Mem_PoolHeap                             0x200038b8   Data          72  lib_mem.o(.bss)
    Mem_Heap                                 0x20003900   Data       27648  lib_mem.o(.bss)
    OSCfg_IdleTaskStk                        0x2000a500   Data         512  os_cfg_app.o(.bss)
    OSCfg_IntQ                               0x2000a700   Data         320  os_cfg_app.o(.bss)
    OSCfg_IntQTaskStk                        0x2000a840   Data         512  os_cfg_app.o(.bss)
    OSCfg_ISRStk                             0x2000aa40   Data         512  os_cfg_app.o(.bss)
    OSCfg_MsgPool                            0x2000ac40   Data        1600  os_cfg_app.o(.bss)
    OSCfg_StatTaskStk                        0x2000b280   Data         512  os_cfg_app.o(.bss)
    OSCfg_TickTaskStk                        0x2000b480   Data         512  os_cfg_app.o(.bss)
    OSCfg_TickWheel                          0x2000b680   Data         136  os_cfg_app.o(.bss)
    OSCfg_TmrTaskStk                         0x2000b708   Data         512  os_cfg_app.o(.bss)
    OSCfg_TmrWheel                           0x2000b908   Data         136  os_cfg_app.o(.bss)
    OSIdleTaskTCB                            0x2000b990   Data         200  os_var.o(.bss)
    OSIntQTaskTCB                            0x2000ba58   Data         200  os_var.o(.bss)
    OSMsgPool                                0x2000bb20   Data          12  os_var.o(.bss)
    OSRdyList                                0x2000bb2c   Data         384  os_var.o(.bss)
    OSStatTaskTCB                            0x2000bcac   Data         200  os_var.o(.bss)
    OSTickTaskTCB                            0x2000bd74   Data         200  os_var.o(.bss)
    OSTmrTaskTCB                             0x2000be3c   Data         200  os_var.o(.bss)
    __initial_sp                             0x2000c308   Data           0  startup_stm32f10x_hd.o(STACK)



==============================================================================

Memory Map of the image

  Image Entry point : 0x08000131

  Load Region LR_IROM1 (Base: 0x08000000, Size: 0x0000c604, Max: 0x00080000, ABSOLUTE, COMPRESSED[0x0000c4ec])

    Execution Region ER_IROM1 (Exec base: 0x08000000, Load base: 0x08000000, Size: 0x0000c4cc, Max: 0x00080000, ABSOLUTE)

    Exec Addr    Load Addr    Size         Type   Attr      Idx    E Section Name        Object

    0x08000000   0x08000000   0x00000130   Data   RO            3    RESET               startup_stm32f10x_hd.o
    0x08000130   0x08000130   0x00000000   Code   RO         2634  * .ARM.Collect$$$$00000000  mc_w.l(entry.o)
    0x08000130   0x08000130   0x00000004   Code   RO         2904    .ARM.Collect$$$$00000001  mc_w.l(entry2.o)
    0x08000134   0x08000134   0x00000004   Code   RO         2907    .ARM.Collect$$$$00000004  mc_w.l(entry5.o)
    0x08000138   0x08000138   0x00000000   Code   RO         2909    .ARM.Collect$$$$00000008  mc_w.l(entry7b.o)
    0x08000138   0x08000138   0x00000000   Code   RO         2911    .ARM.Collect$$$$0000000A  mc_w.l(entry8b.o)
    0x08000138   0x08000138   0x00000008   Code   RO         2912    .ARM.Collect$$$$0000000B  mc_w.l(entry9a.o)
    0x08000140   0x08000140   0x00000004   Code   RO         2919    .ARM.Collect$$$$0000000E  mc_w.l(entry12b.o)
    0x08000144   0x08000144   0x00000000   Code   RO         2914    .ARM.Collect$$$$0000000F  mc_w.l(entry10a.o)
    0x08000144   0x08000144   0x00000000   Code   RO         2916    .ARM.Collect$$$$00000011  mc_w.l(entry11a.o)
    0x08000144   0x08000144   0x00000004   Code   RO         2905    .ARM.Collect$$$$00002712  mc_w.l(entry2.o)
    0x08000148   0x08000148   0x00000024   Code   RO            4    .text               startup_stm32f10x_hd.o
    0x0800016c   0x0800016c   0x000001dc   Code   RO          681    .text               stm32f10x_hd.lib(system_stm32f10x.o)
    0x08000348   0x08000348   0x00000358   Code   RO          781    .text               stm32f10x_hd.lib(stm32f10x_gpio.o)
    0x080006a0   0x080006a0   0x000003a4   Code   RO          816    .text               stm32f10x_hd.lib(stm32f10x_rcc.o)
    0x08000a44   0x08000a44   0x00000618   Code   RO          830    .text               stm32f10x_hd.lib(stm32f10x_fsmc.o)
    0x0800105c   0x0800105c   0x00000408   Code   RO          842    .text               stm32f10x_hd.lib(stm32f10x_usart.o)
    0x08001464   0x08001464   0x00000034   Code   RO         1044    .text               UCOSIII.lib(cpu_a.o)
    0x08001498   0x08001498   0x0000002c   Code   RO         2921    .text               mc_w.l(uidiv.o)
    0x080014c4   0x080014c4   0x00000024   Code   RO         2938    .text               mc_w.l(init.o)
    0x080014e8   0x080014e8   0x00000056   Code   RO         2952    .text               mc_w.l(__dczerorl2.o)
    0x0800153e   0x0800153e   0x00000002   PAD
    0x08001540   0x08001540   0x00000084   Code   RO         2526    CODE                UCOSIII.lib(os_cpu_a.o)
    0x080015c4   0x080015c4   0x00000084   Code   RO           10    i.AppTaskKey        main.o
    0x08001648   0x08001648   0x000000bc   Code   RO           11    i.AppTaskLcd        main.o
    0x08001704   0x08001704   0x0000019c   Code   RO           12    i.AppTaskLed1       main.o
    0x080018a0   0x080018a0   0x0000015c   Code   RO           13    i.AppTaskStart      main.o
    0x080019fc   0x080019fc   0x00000010   Code   RO          352    i.BSP_CPU_ClkFreq   bsp.o
    0x08001a0c   0x08001a0c   0x00000014   Code   RO          353    i.BSP_Init          bsp.o
    0x08001a20   0x08001a20   0x00000004   Code   RO          289    i.BusFault_Handler  stm32f10x_it.o
    0x08001a24   0x08001a24   0x00000010   Code   RO          862    i.CPU_Init          UCOSIII.lib(cpu_core.o)
    0x08001a34   0x08001a34   0x00000084   Code   RO          863    i.CPU_IntDisMeasInit  UCOSIII.lib(cpu_core.o)
    0x08001ab8   0x08001ab8   0x0000001c   Code   RO          864    i.CPU_IntDisMeasMaxCalc  UCOSIII.lib(cpu_core.o)
    0x08001ad4   0x08001ad4   0x0000002c   Code   RO          865    i.CPU_IntDisMeasMaxCurGet  UCOSIII.lib(cpu_core.o)
    0x08001b00   0x08001b00   0x0000002c   Code   RO          866    i.CPU_IntDisMeasMaxCurReset  UCOSIII.lib(cpu_core.o)
    0x08001b2c   0x08001b2c   0x0000002c   Code   RO          867    i.CPU_IntDisMeasMaxGet  UCOSIII.lib(cpu_core.o)
    0x08001b58   0x08001b58   0x00000034   Code   RO          868    i.CPU_IntDisMeasStart  UCOSIII.lib(cpu_core.o)
    0x08001b8c   0x08001b8c   0x00000054   Code   RO          869    i.CPU_IntDisMeasStop  UCOSIII.lib(cpu_core.o)
    0x08001be0   0x08001be0   0x00000038   Code   RO          870    i.CPU_NameClr       UCOSIII.lib(cpu_core.o)
    0x08001c18   0x08001c18   0x00000008   Code   RO          872    i.CPU_NameInit      UCOSIII.lib(cpu_core.o)
    0x08001c20   0x08001c20   0x00000014   Code   RO          876    i.CPU_TS_Init       UCOSIII.lib(cpu_core.o)
    0x08001c34   0x08001c34   0x0000000c   Code   RO          878    i.CPU_TS_TmrFreqSet  UCOSIII.lib(cpu_core.o)
    0x08001c40   0x08001c40   0x00000034   Code   RO          354    i.CPU_TS_TmrInit    bsp.o
    0x08001c74   0x08001c74   0x0000000c   Code   RO          355    i.CPU_TS_TmrRd      bsp.o
    0x08001c80   0x08001c80   0x00000002   Code   RO          290    i.DebugMon_Handler  stm32f10x_it.o
    0x08001c82   0x08001c82   0x00000004   Code   RO          291    i.HardFault_Handler  stm32f10x_it.o
    0x08001c86   0x08001c86   0x00000002   PAD
    0x08001c88   0x08001c88   0x00000024   Code   RO          439    i.Key1_Config       bsp_key.o
    0x08001cac   0x08001cac   0x00000024   Code   RO          440    i.Key2_Config       bsp_key.o
    0x08001cd0   0x08001cd0   0x0000000c   Code   RO          441    i.Key_Initial       bsp_key.o
    0x08001cdc   0x08001cdc   0x00000058   Code   RO          443    i.Key_Scan          bsp_key.o
    0x08001d34   0x08001d34   0x00000048   Code   RO          473    i.LCD_Clear         tftlcd.o
    0x08001d7c   0x08001d7c   0x00000058   Code   RO          475    i.LCD_Display_Dir   tftlcd.o
    0x08001dd4   0x08001dd4   0x0000001c   Code   RO          476    i.LCD_DrawFRONT_COLOR  tftlcd.o
    0x08001df0   0x08001df0   0x0000005c   Code   RO          483    i.LCD_Fill          tftlcd.o
    0x08001e4c   0x08001e4c   0x000000a6   Code   RO          489    i.LCD_Set_Window    tftlcd.o
    0x08001ef2   0x08001ef2   0x00000002   PAD
    0x08001ef4   0x08001ef4   0x00000128   Code   RO          490    i.LCD_ShowChar      tftlcd.o
    0x0800201c   0x0800201c   0x000000e8   Code   RO          491    i.LCD_ShowFontHZ    tftlcd.o
    0x08002104   0x08002104   0x00000066   Code   RO          494    i.LCD_ShowString    tftlcd.o
    0x0800216a   0x0800216a   0x00000002   PAD
    0x0800216c   0x0800216c   0x0000000c   Code   RO          496    i.LCD_WriteCmd      tftlcd.o
    0x08002178   0x08002178   0x00000014   Code   RO          497    i.LCD_WriteCmdData  tftlcd.o
    0x0800218c   0x0800218c   0x0000000c   Code   RO          498    i.LCD_WriteData     tftlcd.o
    0x08002198   0x08002198   0x00000010   Code   RO          499    i.LCD_WriteData_Color  tftlcd.o
    0x080021a8   0x080021a8   0x00000058   Code   RO          422    i.LED_GPIO_Config   bsp_led.o
    0x08002200   0x08002200   0x00000024   Code   RO          423    i.LED_Init          bsp_led.o
    0x08002224   0x08002224   0x00000004   Code   RO          292    i.MemManage_Handler  stm32f10x_it.o
    0x08002228   0x08002228   0x00000012   Code   RO         1047    i.Mem_Clr           UCOSIII.lib(lib_mem.o)
    0x0800223a   0x0800223a   0x00000002   PAD
    0x0800223c   0x0800223c   0x00000048   Code   RO         1051    i.Mem_Init          UCOSIII.lib(lib_mem.o)
    0x08002284   0x08002284   0x00000062   Code   RO         1064    i.Mem_Set           UCOSIII.lib(lib_mem.o)
    0x080022e6   0x080022e6   0x00000002   Code   RO          293    i.NMI_Handler       stm32f10x_it.o
    0x080022e8   0x080022e8   0x00000002   Code   RO         1172    i.OSCfg_Init        UCOSIII.lib(os_cfg_app.o)
    0x080022ea   0x080022ea   0x00000002   PAD
    0x080022ec   0x080022ec   0x00000014   Code   RO         1784    i.OSIdleTaskHook    UCOSIII.lib(os_cpu_c.o)
    0x08002300   0x08002300   0x0000018c   Code   RO         1208    i.OSInit            UCOSIII.lib(os_core.o)
    0x0800248c   0x0800248c   0x00000038   Code   RO         1785    i.OSInitHook        UCOSIII.lib(os_cpu_c.o)
    0x080024c4   0x080024c4   0x000000e4   Code   RO         1210    i.OSIntExit         UCOSIII.lib(os_core.o)
    0x080025a8   0x080025a8   0x000000a8   Code   RO         1211    i.OSSched           UCOSIII.lib(os_core.o)
    0x08002650   0x08002650   0x0000007c   Code   RO         1212    i.OSSchedLock       UCOSIII.lib(os_core.o)
    0x080026cc   0x080026cc   0x000000a0   Code   RO         1215    i.OSSchedUnlock     UCOSIII.lib(os_core.o)
    0x0800276c   0x0800276c   0x000000e4   Code   RO         1458    i.OSSemCreate       UCOSIII.lib(os_sem.o)
    0x08002850   0x08002850   0x0000021c   Code   RO         1460    i.OSSemPend         UCOSIII.lib(os_sem.o)
    0x08002a6c   0x08002a6c   0x00000098   Code   RO         1462    i.OSSemPost         UCOSIII.lib(os_sem.o)
    0x08002b04   0x08002b04   0x00000068   Code   RO         1216    i.OSStart           UCOSIII.lib(os_core.o)
    0x08002b6c   0x08002b6c   0x00000168   Code   RO         1530    i.OSStatReset       UCOSIII.lib(os_stat.o)
    0x08002cd4   0x08002cd4   0x00000100   Code   RO         1531    i.OSStatTaskCPUUsageInit  UCOSIII.lib(os_stat.o)
    0x08002dd4   0x08002dd4   0x00000014   Code   RO         1786    i.OSStatTaskHook    UCOSIII.lib(os_cpu_c.o)
    0x08002de8   0x08002de8   0x00000294   Code   RO         1561    i.OSTaskCreate      UCOSIII.lib(os_task.o)
    0x0800307c   0x0800307c   0x00000018   Code   RO         1787    i.OSTaskCreateHook  UCOSIII.lib(os_cpu_c.o)
    0x08003094   0x08003094   0x00000208   Code   RO         1562    i.OSTaskDel         UCOSIII.lib(os_task.o)
    0x0800329c   0x0800329c   0x00000018   Code   RO         1788    i.OSTaskDelHook     UCOSIII.lib(os_cpu_c.o)
    0x080032b4   0x080032b4   0x00000088   Code   RO         1570    i.OSTaskResume      UCOSIII.lib(os_task.o)
    0x0800333c   0x0800333c   0x00000018   Code   RO         1789    i.OSTaskReturnHook  UCOSIII.lib(os_cpu_c.o)
    0x08003354   0x08003354   0x00000250   Code   RO         1571    i.OSTaskSemPend     UCOSIII.lib(os_task.o)
    0x080035a4   0x080035a4   0x000000e4   Code   RO         1575    i.OSTaskStkChk      UCOSIII.lib(os_task.o)
    0x08003688   0x08003688   0x000000c0   Code   RO         1790    i.OSTaskStkInit     UCOSIII.lib(os_cpu_c.o)
    0x08003748   0x08003748   0x00000060   Code   RO         1576    i.OSTaskSuspend     UCOSIII.lib(os_task.o)
    0x080037a8   0x080037a8   0x000000a4   Code   RO         1791    i.OSTaskSwHook      UCOSIII.lib(os_cpu_c.o)
    0x0800384c   0x0800384c   0x00000150   Code   RO         1728    i.OSTimeDly         UCOSIII.lib(os_time.o)
    0x0800399c   0x0800399c   0x0000022c   Code   RO         1729    i.OSTimeDlyHMSM     UCOSIII.lib(os_time.o)
    0x08003bc8   0x08003bc8   0x00000044   Code   RO         1733    i.OSTimeTick        UCOSIII.lib(os_time.o)
    0x08003c0c   0x08003c0c   0x00000014   Code   RO         1792    i.OSTimeTickHook    UCOSIII.lib(os_cpu_c.o)
    0x08003c20   0x08003c20   0x00000040   Code   RO         1793    i.OS_CPU_SysTickHandler  UCOSIII.lib(os_cpu_c.o)
    0x08003c60   0x08003c60   0x00000030   Code   RO         1794    i.OS_CPU_SysTickInit  UCOSIII.lib(os_cpu_c.o)
    0x08003c90   0x08003c90   0x000001b4   Code   RO         2018    i.OS_Dbg_Init       UCOSIII.lib(os_dbg.o)
    0x08003e44   0x08003e44   0x00000018   Code   RO         2043    i.OS_FlagInit       UCOSIII.lib(os_flag.o)
    0x08003e5c   0x08003e5c   0x0000027c   Code   RO         2044    i.OS_FlagPost       UCOSIII.lib(os_flag.o)
    0x080040d8   0x080040d8   0x00000056   Code   RO         2045    i.OS_FlagTaskRdy    UCOSIII.lib(os_flag.o)
    0x0800412e   0x0800412e   0x00000002   PAD
    0x08004130   0x08004130   0x0000004c   Code   RO         1218    i.OS_IdleTask       UCOSIII.lib(os_core.o)
    0x0800417c   0x0800417c   0x00000070   Code   RO         1219    i.OS_IdleTaskInit   UCOSIII.lib(os_core.o)
    0x080041ec   0x080041ec   0x00000104   Code   RO         2117    i.OS_IntQPost       UCOSIII.lib(os_int.o)
    0x080042f0   0x080042f0   0x000001a4   Code   RO         2118    i.OS_IntQRePost     UCOSIII.lib(os_int.o)
    0x08004494   0x08004494   0x000000c8   Code   RO         2119    i.OS_IntQTask       UCOSIII.lib(os_int.o)
    0x0800455c   0x0800455c   0x00000128   Code   RO         2120    i.OS_IntQTaskInit   UCOSIII.lib(os_int.o)
    0x08004684   0x08004684   0x00000018   Code   RO         2151    i.OS_MemInit        UCOSIII.lib(os_mem.o)
    0x0800469c   0x0800469c   0x0000007c   Code   RO         2183    i.OS_MsgPoolInit    UCOSIII.lib(os_msg.o)
    0x08004718   0x08004718   0x00000044   Code   RO         2184    i.OS_MsgQFreeAll    UCOSIII.lib(os_msg.o)
    0x0800475c   0x0800475c   0x0000000e   Code   RO         2186    i.OS_MsgQInit       UCOSIII.lib(os_msg.o)
    0x0800476a   0x0800476a   0x00000002   PAD
    0x0800476c   0x0800476c   0x00000104   Code   RO         2187    i.OS_MsgQPut        UCOSIII.lib(os_msg.o)
    0x08004870   0x08004870   0x00000018   Code   RO         2227    i.OS_MutexInit      UCOSIII.lib(os_mutex.o)
    0x08004888   0x08004888   0x00000068   Code   RO         1220    i.OS_Pend           UCOSIII.lib(os_core.o)
    0x080048f0   0x080048f0   0x00000026   Code   RO         1223    i.OS_PendDataInit   UCOSIII.lib(os_core.o)
    0x08004916   0x08004916   0x00000002   PAD
    0x08004918   0x08004918   0x0000005c   Code   RO         1224    i.OS_PendDbgNameAdd  UCOSIII.lib(os_core.o)
    0x08004974   0x08004974   0x00000024   Code   RO         1225    i.OS_PendDbgNameRemove  UCOSIII.lib(os_core.o)
    0x08004998   0x08004998   0x0000000a   Code   RO         1227    i.OS_PendListInit   UCOSIII.lib(os_core.o)
    0x080049a2   0x080049a2   0x00000066   Code   RO         1229    i.OS_PendListInsertPrio  UCOSIII.lib(os_core.o)
    0x08004a08   0x08004a08   0x00000030   Code   RO         1230    i.OS_PendListRemove  UCOSIII.lib(os_core.o)
    0x08004a38   0x08004a38   0x00000042   Code   RO         1231    i.OS_PendListRemove1  UCOSIII.lib(os_core.o)
    0x08004a7a   0x08004a7a   0x000000c0   Code   RO         1234    i.OS_Post           UCOSIII.lib(os_core.o)
    0x08004b3a   0x08004b3a   0x0000002a   Code   RO         1235    i.OS_Post1          UCOSIII.lib(os_core.o)
    0x08004b64   0x08004b64   0x00000028   Code   RO         2279    i.OS_PrioGetHighest  UCOSIII.lib(os_prio.o)
    0x08004b8c   0x08004b8c   0x00000018   Code   RO         2280    i.OS_PrioInit       UCOSIII.lib(os_prio.o)
    0x08004ba4   0x08004ba4   0x00000024   Code   RO         2281    i.OS_PrioInsert     UCOSIII.lib(os_prio.o)
    0x08004bc8   0x08004bc8   0x00000024   Code   RO         2282    i.OS_PrioRemove     UCOSIII.lib(os_prio.o)
    0x08004bec   0x08004bec   0x00000018   Code   RO         2325    i.OS_QInit          UCOSIII.lib(os_q.o)
    0x08004c04   0x08004c04   0x00000188   Code   RO         2326    i.OS_QPost          UCOSIII.lib(os_q.o)
    0x08004d8c   0x08004d8c   0x00000024   Code   RO         1236    i.OS_RdyListInit    UCOSIII.lib(os_core.o)
    0x08004db0   0x08004db0   0x0000002c   Code   RO         1237    i.OS_RdyListInsert  UCOSIII.lib(os_core.o)
    0x08004ddc   0x08004ddc   0x00000040   Code   RO         1238    i.OS_RdyListInsertHead  UCOSIII.lib(os_core.o)
    0x08004e1c   0x08004e1c   0x0000003c   Code   RO         1239    i.OS_RdyListInsertTail  UCOSIII.lib(os_core.o)
    0x08004e58   0x08004e58   0x00000044   Code   RO         1240    i.OS_RdyListMoveHeadToTail  UCOSIII.lib(os_core.o)
    0x08004e9c   0x08004e9c   0x0000005c   Code   RO         1241    i.OS_RdyListRemove  UCOSIII.lib(os_core.o)
    0x08004ef8   0x08004ef8   0x0000005c   Code   RO         1242    i.OS_Sched0         UCOSIII.lib(os_core.o)
    0x08004f54   0x08004f54   0x0000001c   Code   RO         1243    i.OS_SchedLockTimeMeasStart  UCOSIII.lib(os_core.o)
    0x08004f70   0x08004f70   0x0000003c   Code   RO         1244    i.OS_SchedLockTimeMeasStop  UCOSIII.lib(os_core.o)
    0x08004fac   0x08004fac   0x000000ec   Code   RO         1245    i.OS_SchedRoundRobin  UCOSIII.lib(os_core.o)
    0x08005098   0x08005098   0x00000030   Code   RO         1465    i.OS_SemDbgListAdd  UCOSIII.lib(os_sem.o)
    0x080050c8   0x080050c8   0x00000018   Code   RO         1467    i.OS_SemInit        UCOSIII.lib(os_sem.o)
    0x080050e0   0x080050e0   0x00000198   Code   RO         1468    i.OS_SemPost        UCOSIII.lib(os_sem.o)
    0x08005278   0x08005278   0x000003b8   Code   RO         1532    i.OS_StatTask       UCOSIII.lib(os_stat.o)
    0x08005630   0x08005630   0x000000cc   Code   RO         1533    i.OS_StatTaskInit   UCOSIII.lib(os_stat.o)
    0x080056fc   0x080056fc   0x00000038   Code   RO         1246    i.OS_TaskBlock      UCOSIII.lib(os_core.o)
    0x08005734   0x08005734   0x00000030   Code   RO         1578    i.OS_TaskDbgListAdd  UCOSIII.lib(os_task.o)
    0x08005764   0x08005764   0x00000044   Code   RO         1579    i.OS_TaskDbgListRemove  UCOSIII.lib(os_task.o)
    0x080057a8   0x080057a8   0x00000020   Code   RO         1580    i.OS_TaskInit       UCOSIII.lib(os_task.o)
    0x080057c8   0x080057c8   0x000000d0   Code   RO         1581    i.OS_TaskInitTCB    UCOSIII.lib(os_task.o)
    0x08005898   0x08005898   0x0000026c   Code   RO         1582    i.OS_TaskQPost      UCOSIII.lib(os_task.o)
    0x08005b04   0x08005b04   0x0000001c   Code   RO         1247    i.OS_TaskRdy        UCOSIII.lib(os_core.o)
    0x08005b20   0x08005b20   0x0000017c   Code   RO         1583    i.OS_TaskResume     UCOSIII.lib(os_task.o)
    0x08005c9c   0x08005c9c   0x00000018   Code   RO         1584    i.OS_TaskReturn     UCOSIII.lib(os_task.o)
    0x08005cb4   0x08005cb4   0x000005a8   Code   RO         1585    i.OS_TaskSemPost    UCOSIII.lib(os_task.o)
    0x0800625c   0x0800625c   0x00000190   Code   RO         1586    i.OS_TaskSuspend    UCOSIII.lib(os_task.o)
    0x080063ec   0x080063ec   0x00000028   Code   RO         2388    i.OS_TickListInit   UCOSIII.lib(os_tick.o)
    0x08006414   0x08006414   0x000001bc   Code   RO         2389    i.OS_TickListInsert  UCOSIII.lib(os_tick.o)
    0x080065d0   0x080065d0   0x00000038   Code   RO         2390    i.OS_TickListRemove  UCOSIII.lib(os_tick.o)
    0x08006608   0x08006608   0x00000024   Code   RO         2391    i.OS_TickListResetPeak  UCOSIII.lib(os_tick.o)
    0x0800662c   0x0800662c   0x00000220   Code   RO         2392    i.OS_TickListUpdate  UCOSIII.lib(os_tick.o)
    0x0800684c   0x0800684c   0x0000002c   Code   RO         2393    i.OS_TickTask       UCOSIII.lib(os_tick.o)
    0x08006878   0x08006878   0x000000b8   Code   RO         2394    i.OS_TickTaskInit   UCOSIII.lib(os_tick.o)
    0x08006930   0x08006930   0x00000128   Code   RO         2445    i.OS_TmrInit        UCOSIII.lib(os_tmr.o)
    0x08006a58   0x08006a58   0x000000d0   Code   RO         2446    i.OS_TmrLink        UCOSIII.lib(os_tmr.o)
    0x08006b28   0x08006b28   0x00000024   Code   RO         2447    i.OS_TmrResetPeak   UCOSIII.lib(os_tmr.o)
    0x08006b4c   0x08006b4c   0x000000c0   Code   RO         2448    i.OS_TmrTask        UCOSIII.lib(os_tmr.o)
    0x08006c0c   0x08006c0c   0x00000050   Code   RO         2449    i.OS_TmrUnlink      UCOSIII.lib(os_tmr.o)
    0x08006c5c   0x08006c5c   0x00000002   Code   RO          295    i.SVC_Handler       stm32f10x_it.o
    0x08006c5e   0x08006c5e   0x0000007e   Code   RO          501    i.TFTLCD_FSMC_Init  tftlcd.o
    0x08006cdc   0x08006cdc   0x00000098   Code   RO          502    i.TFTLCD_GPIO_Init  tftlcd.o
    0x08006d74   0x08006d74   0x000001f4   Code   RO          503    i.TFTLCD_Init       tftlcd.o
    0x08006f68   0x08006f68   0x00000080   Code   RO          394    i.USARTx_Config     bsp_usart1.o
    0x08006fe8   0x08006fe8   0x00000004   Code   RO          297    i.UsageFault_Handler  stm32f10x_it.o
    0x08006fec   0x08006fec   0x00000020   Code   RO         2682    i.__0printf$1       mc_w.l(printf1.o)
    0x0800700c   0x0800700c   0x0000000e   Code   RO         2946    i.__scatterload_copy  mc_w.l(handlers.o)
    0x0800701a   0x0800701a   0x00000002   Code   RO         2947    i.__scatterload_null  mc_w.l(handlers.o)
    0x0800701c   0x0800701c   0x0000000e   Code   RO         2948    i.__scatterload_zeroinit  mc_w.l(handlers.o)
    0x0800702a   0x0800702a   0x00000002   PAD
    0x0800702c   0x0800702c   0x00000154   Code   RO         2689    i._printf_core      mc_w.l(printf1.o)
    0x08007180   0x08007180   0x0000001c   Code   RO          504    i.delay_ms          tftlcd.o
    0x0800719c   0x0800719c   0x00000024   Code   RO          396    i.fputc             bsp_usart1.o
    0x080071c0   0x080071c0   0x00000064   Code   RO           14    i.main              main.o
    0x08007224   0x08007224   0x00005078   Data   RO          505    .constdata          tftlcd.o
    0x0800c29c   0x0800c29c   0x000000a4   Data   RO         1174    .constdata          UCOSIII.lib(os_cfg_app.o)
    0x0800c340   0x0800c340   0x0000016c   Data   RO         2019    .constdata          UCOSIII.lib(os_dbg.o)
    0x0800c4ac   0x0800c4ac   0x00000020   Data   RO         2944    Region$$Table       anon$$obj.o


    Execution Region RW_IRAM1 (Exec base: 0x20000000, Load base: 0x0800c4cc, Size: 0x0000c308, Max: 0x00010000, ABSOLUTE, COMPRESSED[0x00000020])

    Exec Addr    Load Addr    Size         Type   Attr      Idx    E Section Name        Object

    0x20000000   COMPRESSED   0x00000005   Data   RW           16    .data               main.o
    0x20000005   COMPRESSED   0x00000001   PAD
    0x20000006   COMPRESSED   0x0000000c   Data   RW          506    .data               tftlcd.o
    0x20000012   COMPRESSED   0x00000002   PAD
    0x20000014   COMPRESSED   0x00000014   Data   RW          682    .data               stm32f10x_hd.lib(system_stm32f10x.o)
    0x20000028   COMPRESSED   0x00000014   Data   RW          817    .data               stm32f10x_hd.lib(stm32f10x_rcc.o)
    0x2000003c   COMPRESSED   0x0000001c   Data   RW          882    .data               UCOSIII.lib(cpu_core.o)
    0x20000058   COMPRESSED   0x00000004   Data   RW         1066    .data               UCOSIII.lib(lib_mem.o)
    0x2000005c   COMPRESSED   0x000000d0   Data   RW         1771    .data               UCOSIII.lib(os_var.o)
    0x2000012c   COMPRESSED   0x00000004   Data   RW         1795    .data               UCOSIII.lib(os_cpu_c.o)
    0x20000130   COMPRESSED   0x00000004   Data   RW         2283    .data               UCOSIII.lib(os_prio.o)
    0x20000134   COMPRESSED   0x00000004   Data   RW         2920    .data               mc_w.l(stdout.o)
    0x20000138        -       0x00003770   Zero   RW           15    .bss                main.o
    0x200038a8        -       0x00000010   Zero   RW          880    .bss                UCOSIII.lib(cpu_core.o)
    0x200038b8        -       0x00006c48   Zero   RW         1065    .bss                UCOSIII.lib(lib_mem.o)
    0x2000a500        -       0x00001490   Zero   RW         1173    .bss                UCOSIII.lib(os_cfg_app.o)
    0x2000b990        -       0x00000574   Zero   RW         1770    .bss                UCOSIII.lib(os_var.o)
    0x2000bf04   COMPRESSED   0x00000004   PAD
    0x2000bf08        -       0x00000400   Zero   RW            1    STACK               startup_stm32f10x_hd.o


==============================================================================

Image component sizes


      Code (inc. data)   RO Data    RW Data    ZI Data      Debug   Object Name

       100         14          0          0          0       2001   bsp.o
       172          8          0          0          0       2625   bsp_key.o
       124         10          0          0          0       1003   bsp_led.o
       164         12          0          0          0       2476   bsp_usart1.o
      1180        336          0          5      14192     272293   main.o
        36          8        304          0       1024        860   startup_stm32f10x_hd.o
        22          0          0          0          0       3239   stm32f10x_it.o
      1942         92      20600         12          0      13393   tftlcd.o

    ----------------------------------------------------------------------
      3746        480      20936         20      15216     297890   Object Totals
         0          0         32          0          0          0   (incl. Generated)
         6          0          0          3          0          0   (incl. Padding)

    ----------------------------------------------------------------------

      Code (inc. data)   RO Data    RW Data    ZI Data      Debug   Library Member Name

        52          0          0          0          0        368   cpu_a.o
       540         98          0         28         16      28417   cpu_core.o
       188         18          0          4      27720      23347   lib_mem.o
         2          0        164          0       5264      21914   os_cfg_app.o
      2962        402          0          0          0      39853   os_core.o
       132         32          0          0          0        412   os_cpu_a.o
       656         68          0          4          0       8625   os_cpu_c.o
       436        286        364          0          0       4901   os_dbg.o
       746         28          0          0          0       3225   os_flag.o
      1176        204          0          0          0       3654   os_int.o
        24         10          0          0          0        937   os_mem.o
       466         26          0          0          0       3385   os_msg.o
        24         10          0          0          0        939   os_mutex.o
       136         16          0          4          0       3018   os_prio.o
       416         20          0          0          0       2302   os_q.o
      1400         66          0          0          0       5971   os_sem.o
      1772        214          0          0          0       4215   os_stat.o
      5460        260          0          0          0      14344   os_task.o
      1348        124          0          0          0       5721   os_tick.o
       960         46          0          0          0       3245   os_time.o
       812        134          0          0          0       4332   os_tmr.o
         0          0          0        208       1396      19553   os_var.o
        86          0          0          0          0          0   __dczerorl2.o
         0          0          0          0          0          0   entry.o
         0          0          0          0          0          0   entry10a.o
         0          0          0          0          0          0   entry11a.o
         4          0          0          0          0          0   entry12b.o
         8          4          0          0          0          0   entry2.o
         4          0          0          0          0          0   entry5.o
         0          0          0          0          0          0   entry7b.o
         0          0          0          0          0          0   entry8b.o
         8          4          0          0          0          0   entry9a.o
        30          0          0          0          0          0   handlers.o
        36          8          0          0          0         68   init.o
       372         14          0          0          0        184   printf1.o
         0          0          0          4          0          0   stdout.o
        44          0          0          0          0         80   uidiv.o
      1560         54          0          0          0       5419   stm32f10x_fsmc.o
       856         40          0          0          0     208913   stm32f10x_gpio.o
       932         44          0         20          0       8904   stm32f10x_rcc.o
      1032         22          0          0          0       8448   stm32f10x_usart.o
       476         36          0         20          0      36147   system_stm32f10x.o

    ----------------------------------------------------------------------
     25170       2288        528        292      34400     470841   Library Totals
        14          0          0          0          4          0   (incl. Padding)

    ----------------------------------------------------------------------

      Code (inc. data)   RO Data    RW Data    ZI Data      Debug   Library Name

     19708       2062        528        248      34396     202678   UCOSIII.lib
       592         30          0          4          0        332   mc_w.l
      4856        196          0         40          0     267831   stm32f10x_hd.lib

    ----------------------------------------------------------------------
     25170       2288        528        292      34400     470841   Library Totals

    ----------------------------------------------------------------------

==============================================================================


      Code (inc. data)   RO Data    RW Data    ZI Data      Debug   

     28916       2768      21464        312      49616     760227   Grand Totals
     28916       2768      21464         32      49616     760227   ELF Image Totals (compressed)
     28916       2768      21464         32          0          0   ROM Totals

==============================================================================

    Total RO  Size (Code + RO Data)                50380 (  49.20kB)
    Total RW  Size (RW Data + ZI Data)             49928 (  48.76kB)
    Total ROM Size (Code + RO Data + RW Data)      50412 (  49.23kB)

==============================================================================

