Component: ARM Compiler 5.06 update 7 (build 960) Tool: armlink [4d3601]

==============================================================================

Section Cross References

    startup_stm32f10x_hd.o(RESET) refers to startup_stm32f10x_hd.o(STACK) for __initial_sp
    startup_stm32f10x_hd.o(RESET) refers to startup_stm32f10x_hd.o(.text) for Reset_Handler
    startup_stm32f10x_hd.o(RESET) refers to stm32f10x_it.o(i.NMI_Handler) for NMI_Handler
    startup_stm32f10x_hd.o(RESET) refers to stm32f10x_it.o(i.HardFault_Handler) for HardFault_Handler
    startup_stm32f10x_hd.o(RESET) refers to stm32f10x_it.o(i.MemManage_Handler) for MemManage_Handler
    startup_stm32f10x_hd.o(RESET) refers to stm32f10x_it.o(i.BusFault_Handler) for BusFault_Handler
    startup_stm32f10x_hd.o(RESET) refers to stm32f10x_it.o(i.UsageFault_Handler) for UsageFault_Handler
    startup_stm32f10x_hd.o(RESET) refers to stm32f10x_it.o(i.SVC_Handler) for SVC_Handler
    startup_stm32f10x_hd.o(RESET) refers to stm32f10x_it.o(i.DebugMon_Handler) for DebugMon_Handler
    startup_stm32f10x_hd.o(RESET) refers to os_cpu_a.o(CODE) for OS_CPU_PendSVHandler
    startup_stm32f10x_hd.o(RESET) refers to os_cpu_c.o(i.OS_CPU_SysTickHandler) for OS_CPU_SysTickHandler
    startup_stm32f10x_hd.o(.text) refers to system_stm32f10x.o(.text) for SystemInit
    startup_stm32f10x_hd.o(.text) refers to entry.o(.ARM.Collect$$$$00000000) for __main
    main.o(i.AppTaskLed1) refers to rand.o(.text) for srand
    main.o(i.AppTaskLed1) refers to bsp_key.o(i.Key_Scan) for Key_Scan
    main.o(i.AppTaskLed1) refers to dflti.o(.text) for __aeabi_i2d
    main.o(i.AppTaskLed1) refers to sqrt.o(i.sqrt) for sqrt
    main.o(i.AppTaskLed1) refers to cdcmple.o(.text) for __aeabi_cdcmple
==============================================================================

Removing Unused input sections from the image.

    Removing startup_stm32f10x_hd.o(HEAP), (512 bytes).
    Removing main.o(i.delay_us), (30 bytes).
    Removing os_app_hooks.o(i.App_OS_ClrAllHooks), (100 bytes).
    Removing os_app_hooks.o(i.App_OS_IdleTaskHook), (2 bytes).
    Removing os_app_hooks.o(i.App_OS_InitHook), (2 bytes).
    Removing os_app_hooks.o(i.App_OS_SetAllHooks), (140 bytes).
    Removing os_app_hooks.o(i.App_OS_StatTaskHook), (2 bytes).
    Removing os_app_hooks.o(i.App_OS_TaskCreateHook), (2 bytes).
    Removing os_app_hooks.o(i.App_OS_TaskDelHook), (2 bytes).
    Removing os_app_hooks.o(i.App_OS_TaskReturnHook), (2 bytes).
    Removing os_app_hooks.o(i.App_OS_TaskSwHook), (2 bytes).
    Removing os_app_hooks.o(i.App_OS_TimeTickHook), (2 bytes).
    Removing stm32f10x_it.o(i.PendSV_Handler), (2 bytes).
    Removing stm32f10x_it.o(i.SysTick_Handler), (2 bytes).
    Removing bsp.o(.constdata), (44800 bytes).
    Removing bsp.o(.data), (4 bytes).
    Removing bsp_usart1.o(i.fgetc), (32 bytes).
    Removing bsp_usart1.o(i.fputc), (36 bytes).
==============================================================================

Image Symbol Table

    Local Symbols

    Symbol Name                              Value     Ov Type        Size  Object(Section)

    ../clib/../cmprslib/zerorunl2.c          0x00000000   Number         0  __dczerorl2.o ABSOLUTE
    ../clib/microlib/errno.c                 0x00000000   Number         0  errno.o ABSOLUTE
    ../clib/microlib/init/entry.s            0x00000000   Number         0  entry.o ABSOLUTE
    ../clib/microlib/init/entry.s            0x00000000   Number         0  entry11b.o ABSOLUTE
    ../clib/microlib/init/entry.s            0x00000000   Number         0  entry10b.o ABSOLUTE
    ../clib/microlib/init/entry.s            0x00000000   Number         0  entry12b.o ABSOLUTE
    ../clib/microlib/init/entry.s            0x00000000   Number         0  entry10a.o ABSOLUTE
    ../clib/microlib/init/entry.s            0x00000000   Number         0  entry9b.o ABSOLUTE
    ../clib/microlib/init/entry.s            0x00000000   Number         0  entry2.o ABSOLUTE
    ../clib/microlib/init/entry.s            0x00000000   Number         0  entry5.o ABSOLUTE
    ../clib/microlib/init/entry.s            0x00000000   Number         0  entry7a.o ABSOLUTE
    ../clib/microlib/init/entry.s            0x00000000   Number         0  entry8a.o ABSOLUTE
    ../clib/microlib/init/entry.s            0x00000000   Number         0  entry11a.o ABSOLUTE
    ../clib/microlib/init/entry.s            0x00000000   Number         0  entry8b.o ABSOLUTE
    ../clib/microlib/init/entry.s            0x00000000   Number         0  entry9a.o ABSOLUTE
    ../clib/microlib/init/entry.s            0x00000000   Number         0  entry7b.o ABSOLUTE
    ../clib/microlib/init/entry.s            0x00000000   Number         0  entry12a.o ABSOLUTE
    ../clib/microlib/longlong.c              0x00000000   Number         0  llshl.o ABSOLUTE
    ../clib/microlib/longlong.c              0x00000000   Number         0  llushr.o ABSOLUTE
    ../clib/microlib/stdlib/rand.c           0x00000000   Number         0  rand.o ABSOLUTE
    ../clib/microlib/string/memcpy.c         0x00000000   Number         0  memcpya.o ABSOLUTE
    ../clib/microlib/string/memcpy.c         0x00000000   Number         0  memcpyb.o ABSOLUTE
    ../clib/microlib/stubs.s                 0x00000000   Number         0  iusefp.o ABSOLUTE
    ../fplib/microlib/fpepilogue.c           0x00000000   Number         0  depilogue.o ABSOLUTE
    ../fplib/microlib/fpfix.c                0x00000000   Number         0  dfixui.o ABSOLUTE
    ../fplib/microlib/fpflt.c                0x00000000   Number         0  dflti.o ABSOLUTE
    ../fplib/microlib/fpflt.c                0x00000000   Number         0  dfltui.o ABSOLUTE
    ../fplib/microlib/fpmul.c                0x00000000   Number         0  dmul.o ABSOLUTE
    ../fplib/microlib/fpsqrt.c               0x00000000   Number         0  dsqrt.o ABSOLUTE
    ../mathlib/sqrt.c                        0x00000000   Number         0  sqrt_x.o ABSOLUTE
    ../mathlib/sqrt.c                        0x00000000   Number         0  sqrt.o ABSOLUTE
    ..\..\FW_LIB\startup_stm32f10x_hd.s      0x00000000   Number         0  startup_stm32f10x_hd.o ABSOLUTE
    ..\..\User\uC-CPU\ARM-Cortex-M3\RealView\cpu_a.asm 0x00000000   Number         0  cpu_a.o ABSOLUTE
    ..\..\User\uC-CPU\cpu_core.c             0x00000000   Number         0  cpu_core.o ABSOLUTE
    ..\..\User\uC-LIB\Ports\ARM-Cortex-M3\RealView\lib_mem_a.asm 0x00000000   Number         0  lib_mem_a.o ABSOLUTE
    ..\..\User\uC-LIB\lib_ascii.c            0x00000000   Number         0  lib_ascii.o ABSOLUTE
    ..\..\User\uC-LIB\lib_mem.c              0x00000000   Number         0  lib_mem.o ABSOLUTE
    ..\..\User\uC-LIB\lib_str.c              0x00000000   Number         0  lib_str.o ABSOLUTE
    ..\..\User\uCOS-III\Ports\ARM-Cortex-M3\Generic\RealView\os_cpu_a.s 0x00000000   Number         0  os_cpu_a.o ABSOLUTE
    ..\..\User\uCOS-III\Ports\ARM-Cortex-M3\Generic\RealView\os_cpu_c.c 0x00000000   Number         0  os_cpu_c.o ABSOLUTE
    ..\..\User\uCOS-III\Source\os_cfg_app.c  0x00000000   Number         0  os_cfg_app.o ABSOLUTE
    ..\..\User\uCOS-III\Source\os_core.c     0x00000000   Number         0  os_core.o ABSOLUTE
    ..\..\User\uCOS-III\Source\os_dbg.c      0x00000000   Number         0  os_dbg.o ABSOLUTE
    ..\..\User\uCOS-III\Source\os_flag.c     0x00000000   Number         0  os_flag.o ABSOLUTE
    ..\..\User\uCOS-III\Source\os_int.c      0x00000000   Number         0  os_int.o ABSOLUTE
    ..\..\User\uCOS-III\Source\os_mem.c      0x00000000   Number         0  os_mem.o ABSOLUTE
    ..\..\User\uCOS-III\Source\os_msg.c      0x00000000   Number         0  os_msg.o ABSOLUTE
    ..\..\User\uCOS-III\Source\os_mutex.c    0x00000000   Number         0  os_mutex.o ABSOLUTE
    ..\..\User\uCOS-III\Source\os_prio.c     0x00000000   Number         0  os_prio.o ABSOLUTE
    ..\..\User\uCOS-III\Source\os_q.c        0x00000000   Number         0  os_q.o ABSOLUTE
    ..\..\User\uCOS-III\Source\os_sem.c      0x00000000   Number         0  os_sem.o ABSOLUTE
    ..\..\User\uCOS-III\Source\os_stat.c     0x00000000   Number         0  os_stat.o ABSOLUTE
    ..\..\User\uCOS-III\Source\os_task.c     0x00000000   Number         0  os_task.o ABSOLUTE
    ..\..\User\uCOS-III\Source\os_tick.c     0x00000000   Number         0  os_tick.o ABSOLUTE
    ..\..\User\uCOS-III\Source\os_time.c     0x00000000   Number         0  os_time.o ABSOLUTE
    ..\..\User\uCOS-III\Source\os_tmr.c      0x00000000   Number         0  os_tmr.o ABSOLUTE
    ..\..\User\uCOS-III\Source\os_var.c      0x00000000   Number         0  os_var.o ABSOLUTE
    ..\USER\APP\main.c                       0x00000000   Number         0  main.o ABSOLUTE
    ..\USER\APP\os_app_hooks.c               0x00000000   Number         0  os_app_hooks.o ABSOLUTE
    ..\USER\APP\stm32f10x_it.c               0x00000000   Number         0  stm32f10x_it.o ABSOLUTE
    ..\USER\BSP\Key\bsp_key.c                0x00000000   Number         0  bsp_key.o ABSOLUTE
    ..\USER\BSP\beep\bsp_beep.c              0x00000000   Number         0  bsp_beep.o ABSOLUTE
    ..\USER\BSP\bsp.c                        0x00000000   Number         0  bsp.o ABSOLUTE
    ..\USER\BSP\led\bsp_led.c                0x00000000   Number         0  bsp_led.o ABSOLUTE
    ..\USER\BSP\tftlcd\tftlcd.c              0x00000000   Number         0  tftlcd.o ABSOLUTE
    ..\USER\BSP\usart\bsp_usart1.c           0x00000000   Number         0  bsp_usart1.o ABSOLUTE
    Libraries\CMSIS\CM3\DeviceSupport\ST\STM32F10x\system_stm32f10x.c 0x00000000   Number         0  system_stm32f10x.o ABSOLUTE
    Libraries\STM32F10x_StdPeriph_Driver\src\stm32f10x_fsmc.c 0x00000000   Number         0  stm32f10x_fsmc.o ABSOLUTE
    Libraries\STM32F10x_StdPeriph_Driver\src\stm32f10x_gpio.c 0x00000000   Number         0  stm32f10x_gpio.o ABSOLUTE
    Libraries\STM32F10x_StdPeriph_Driver\src\stm32f10x_rcc.c 0x00000000   Number         0  stm32f10x_rcc.o ABSOLUTE
    Libraries\STM32F10x_StdPeriph_Driver\src\stm32f10x_usart.c 0x00000000   Number         0  stm32f10x_usart.o ABSOLUTE
    cdcmple.s                                0x00000000   Number         0  cdcmple.o ABSOLUTE
    dc.s                                     0x00000000   Number         0  dc.o ABSOLUTE
    handlers.s                               0x00000000   Number         0  handlers.o ABSOLUTE
    init.s                                   0x00000000   Number         0  init.o ABSOLUTE
    RESET                                    0x08000000   Section      304  startup_stm32f10x_hd.o(RESET)
    .ARM.Collect$$$$00000000                 0x08000130   Section        0  entry.o(.ARM.Collect$$$$00000000)
    .ARM.Collect$$$$00000001                 0x08000130   Section        4  entry2.o(.ARM.Collect$$$$00000001)
    .ARM.Collect$$$$00000004                 0x08000134   Section        4  entry5.o(.ARM.Collect$$$$00000004)
    .ARM.Collect$$$$00000008                 0x08000138   Section        0  entry7b.o(.ARM.Collect$$$$00000008)
    .ARM.Collect$$$$0000000A                 0x08000138   Section        0  entry8b.o(.ARM.Collect$$$$0000000A)
    .ARM.Collect$$$$0000000B                 0x08000138   Section        8  entry9a.o(.ARM.Collect$$$$0000000B)
    .ARM.Collect$$$$0000000E                 0x08000140   Section        4  entry12b.o(.ARM.Collect$$$$0000000E)
    .ARM.Collect$$$$0000000F                 0x08000144   Section        0  entry10a.o(.ARM.Collect$$$$0000000F)
    .ARM.Collect$$$$00000011                 0x08000144   Section        0  entry11a.o(.ARM.Collect$$$$00000011)
    .ARM.Collect$$$$00002712                 0x08000144   Section        4  entry2.o(.ARM.Collect$$$$00002712)
    __lit__00000000                          0x08000144   Data           4  entry2.o(.ARM.Collect$$$$00002712)
    .text                                    0x08000148   Section       36  startup_stm32f10x_hd.o(.text)
    .text                                    0x0800016c   Section        0  system_stm32f10x.o(.text)
    SetSysClockTo72                          0x0800016d   Thumb Code   212  system_stm32f10x.o(.text)
    SetSysClock                              0x08000241   Thumb Code     8  system_stm32f10x.o(.text)
    .text                                    0x08000348   Section        0  stm32f10x_gpio.o(.text)
    .text                                    0x080006a0   Section        0  stm32f10x_rcc.o(.text)
    .text                                    0x08000a44   Section        0  stm32f10x_fsmc.o(.text)
    .text                                    0x0800105c   Section        0  stm32f10x_usart.o(.text)
    .text                                    0x08001464   Section       52  cpu_a.o(.text)
    .text                                    0x08001498   Section        0  rand.o(.text)
    .text                                    0x080014bc   Section        0  memcpya.o(.text)
    .text                                    0x080014e0   Section        0  dflti.o(.text)
    .text                                    0x08001504   Section       48  cdcmple.o(.text)
    .text                                    0x08001534   Section        0  llushr.o(.text)
    .text                                    0x08001554   Section        0  iusefp.o(.text)
    .text                                    0x08001554   Section        0  depilogue.o(.text)
    .text                                    0x0800160e   Section        0  dsqrt.o(.text)
    .text                                    0x080016b0   Section       36  init.o(.text)
    .text                                    0x080016d4   Section        0  llshl.o(.text)
    .text                                    0x080016f2   Section        0  __dczerorl2.o(.text)
    CODE                                     0x08001748   Section      132  os_cpu_a.o(CODE)
    i.AppTaskLed1                            0x080017cc   Section        0  main.o(i.AppTaskLed1)
    AppTaskLed1                              0x080017cd   Thumb Code   742  main.o(i.AppTaskLed1)
    i.AppTaskLed2                            0x08001b10   Section        0  main.o(i.AppTaskLed2)
    AppTaskLed2                              0x08001b11   Thumb Code   336  main.o(i.AppTaskLed2)
    i.AppTaskLed3                            0x08001c9c   Section        0  main.o(i.AppTaskLed3)
    AppTaskLed3                              0x08001c9d   Thumb Code   222  main.o(i.AppTaskLed3)
    i.AppTaskStart                           0x08001d9c   Section        0  main.o(i.AppTaskStart)
    AppTaskStart                             0x08001d9d   Thumb Code   214  main.o(i.AppTaskStart)
    i.BEEP_Init                              0x08001ecc   Section        0  bsp_beep.o(i.BEEP_Init)
    i.BSP_CPU_ClkFreq                        0x08001f04   Section        0  bsp.o(i.BSP_CPU_ClkFreq)
    i.BSP_Init                               0x08001f14   Section        0  bsp.o(i.BSP_Init)
    i.BusFault_Handler                       0x08001f38   Section        0  stm32f10x_it.o(i.BusFault_Handler)
    i.CPU_Init                               0x08001f3c   Section        0  cpu_core.o(i.CPU_Init)
    i.CPU_IntDisMeasInit                     0x08001f4c   Section        0  cpu_core.o(i.CPU_IntDisMeasInit)
    CPU_IntDisMeasInit                       0x08001f4d   Thumb Code   104  cpu_core.o(i.CPU_IntDisMeasInit)
    i.CPU_IntDisMeasMaxCalc                  0x08001fd0   Section        0  cpu_core.o(i.CPU_IntDisMeasMaxCalc)
    CPU_IntDisMeasMaxCalc                    0x08001fd1   Thumb Code    24  cpu_core.o(i.CPU_IntDisMeasMaxCalc)
    i.CPU_IntDisMeasMaxCurGet                0x08001fec   Section        0  cpu_core.o(i.CPU_IntDisMeasMaxCurGet)
    i.CPU_IntDisMeasMaxCurReset              0x08002018   Section        0  cpu_core.o(i.CPU_IntDisMeasMaxCurReset)
    i.CPU_IntDisMeasMaxGet                   0x08002044   Section        0  cpu_core.o(i.CPU_IntDisMeasMaxGet)
    i.CPU_IntDisMeasStart                    0x08002070   Section        0  cpu_core.o(i.CPU_IntDisMeasStart)
    i.CPU_IntDisMeasStop                     0x080020a4   Section        0  cpu_core.o(i.CPU_IntDisMeasStop)
    i.CPU_NameClr                            0x080020f8   Section        0  cpu_core.o(i.CPU_NameClr)
    i.CPU_NameInit                           0x08002130   Section        0  cpu_core.o(i.CPU_NameInit)
    CPU_NameInit                             0x08002131   Thumb Code     8  cpu_core.o(i.CPU_NameInit)
    i.CPU_TS_Init                            0x08002138   Section        0  cpu_core.o(i.CPU_TS_Init)
    CPU_TS_Init                              0x08002139   Thumb Code    14  cpu_core.o(i.CPU_TS_Init)
    i.CPU_TS_TmrFreqSet                      0x0800214c   Section        0  cpu_core.o(i.CPU_TS_TmrFreqSet)
    i.CPU_TS_TmrInit                         0x08002158   Section        0  bsp.o(i.CPU_TS_TmrInit)
    i.CPU_TS_TmrRd                           0x0800218c   Section        0  bsp.o(i.CPU_TS_TmrRd)
    i.DebugMon_Handler                       0x08002198   Section        0  stm32f10x_it.o(i.DebugMon_Handler)
    i.HardFault_Handler                      0x0800219a   Section        0  stm32f10x_it.o(i.HardFault_Handler)
    i.Key1_Config                            0x080021a0   Section        0  bsp_key.o(i.Key1_Config)
    Key1_Config                              0x080021a1   Thumb Code    32  bsp_key.o(i.Key1_Config)
    i.Key2_Config                            0x080021c4   Section        0  bsp_key.o(i.Key2_Config)
    Key2_Config                              0x080021c5   Thumb Code    32  bsp_key.o(i.Key2_Config)
    i.Key3_Config                            0x080021e8   Section        0  bsp_key.o(i.Key3_Config)
    Key3_Config                              0x080021e9   Thumb Code    32  bsp_key.o(i.Key3_Config)
    i.Key_Initial                            0x0800220c   Section        0  bsp_key.o(i.Key_Initial)
    i.Key_Scan                               0x08002220   Section        0  bsp_key.o(i.Key_Scan)
    i.Key_up_Config                          0x08002278   Section        0  bsp_key.o(i.Key_up_Config)
    Key_up_Config                            0x08002279   Thumb Code    32  bsp_key.o(i.Key_up_Config)
    i.LCD_Clear                              0x0800229c   Section        0  tftlcd.o(i.LCD_Clear)
    i.LCD_Display_Dir                        0x080022e4   Section        0  tftlcd.o(i.LCD_Display_Dir)
    i.LCD_DrawFRONT_COLOR                    0x0800233c   Section        0  tftlcd.o(i.LCD_DrawFRONT_COLOR)
    i.LCD_DrawLine                           0x08002358   Section        0  tftlcd.o(i.LCD_DrawLine)
    i.LCD_DrawPoint                          0x08002408   Section        0  tftlcd.o(i.LCD_DrawPoint)
    i.LCD_DrawRectangle                      0x08002428   Section        0  tftlcd.o(i.LCD_DrawRectangle)
    i.LCD_Draw_Circle                        0x08002464   Section        0  tftlcd.o(i.LCD_Draw_Circle)
    i.LCD_DrowSign                           0x080024fc   Section        0  tftlcd.o(i.LCD_DrowSign)
    i.LCD_Fill                               0x08002580   Section        0  tftlcd.o(i.LCD_Fill)
    i.LCD_Pow                                0x080025dc   Section        0  tftlcd.o(i.LCD_Pow)
    i.LCD_Set_Window                         0x080025f2   Section        0  tftlcd.o(i.LCD_Set_Window)
    i.LCD_ShowChar                           0x08002698   Section        0  tftlcd.o(i.LCD_ShowChar)
    i.LCD_ShowFontHZ                         0x080027c0   Section        0  tftlcd.o(i.LCD_ShowFontHZ)
    i.LCD_ShowString                         0x080028a8   Section        0  tftlcd.o(i.LCD_ShowString)
    i.LCD_ShowxNum                           0x0800290e   Section        0  tftlcd.o(i.LCD_ShowxNum)
    i.LCD_UI                                 0x080029cc   Section        0  main.o(i.LCD_UI)
    i.LCD_WriteCmd                           0x08002b00   Section        0  tftlcd.o(i.LCD_WriteCmd)
    i.LCD_WriteCmdData                       0x08002b0c   Section        0  tftlcd.o(i.LCD_WriteCmdData)
    i.LCD_WriteData                          0x08002b20   Section        0  tftlcd.o(i.LCD_WriteData)
    i.LCD_WriteData_Color                    0x08002b2c   Section        0  tftlcd.o(i.LCD_WriteData_Color)
    i.LCD_balloon                            0x08002b3c   Section        0  tftlcd.o(i.LCD_balloon)
    i.LED_GPIO_Config                        0x08002b68   Section        0  bsp_led.o(i.LED_GPIO_Config)
    LED_GPIO_Config                          0x08002b69   Thumb Code   116  bsp_led.o(i.LED_GPIO_Config)
    i.LED_Init                               0x08002be0   Section        0  bsp_led.o(i.LED_Init)
    i.LED_guan                               0x08002c04   Section        0  bsp_led.o(i.LED_guan)
    i.MemManage_Handler                      0x08002c88   Section        0  stm32f10x_it.o(i.MemManage_Handler)
    i.Mem_Clr                                0x08002c8c   Section        0  lib_mem.o(i.Mem_Clr)
    i.Mem_Init                               0x08002ca0   Section        0  lib_mem.o(i.Mem_Init)
    i.Mem_Set                                0x08002ce8   Section        0  lib_mem.o(i.Mem_Set)
    i.NMI_Handler                            0x08002d4a   Section        0  stm32f10x_it.o(i.NMI_Handler)
    i.OSCfg_Init                             0x08002d4c   Section        0  os_cfg_app.o(i.OSCfg_Init)
    i.OSIdleTaskHook                         0x08002d50   Section        0  os_cpu_c.o(i.OSIdleTaskHook)
    i.OSInit                                 0x08002d64   Section        0  os_core.o(i.OSInit)
    i.OSInitHook                             0x08002ef0   Section        0  os_cpu_c.o(i.OSInitHook)
    i.OSIntExit                              0x08002f28   Section        0  os_core.o(i.OSIntExit)
    i.OSSched                                0x0800300c   Section        0  os_core.o(i.OSSched)
    i.OSSchedLock                            0x080030b4   Section        0  os_core.o(i.OSSchedLock)
    i.OSSchedRoundRobinCfg                   0x08003130   Section        0  os_core.o(i.OSSchedRoundRobinCfg)
    i.OSSchedUnlock                          0x0800319c   Section        0  os_core.o(i.OSSchedUnlock)
    i.OSStart                                0x0800323c   Section        0  os_core.o(i.OSStart)
    i.OSStatReset                            0x080032a4   Section        0  os_stat.o(i.OSStatReset)
    i.OSStatTaskCPUUsageInit                 0x0800340c   Section        0  os_stat.o(i.OSStatTaskCPUUsageInit)
    i.OSStatTaskHook                         0x0800350c   Section        0  os_cpu_c.o(i.OSStatTaskHook)
    i.OSTaskCreate                           0x08003520   Section        0  os_task.o(i.OSTaskCreate)
    i.OSTaskCreateHook                       0x080037b4   Section        0  os_cpu_c.o(i.OSTaskCreateHook)
    i.OSTaskDel                              0x080037cc   Section        0  os_task.o(i.OSTaskDel)
    i.OSTaskDelHook                          0x080039d4   Section        0  os_cpu_c.o(i.OSTaskDelHook)
    i.OSTaskResume                           0x080039ec   Section        0  os_task.o(i.OSTaskResume)
    i.OSTaskReturnHook                       0x08003a74   Section        0  os_cpu_c.o(i.OSTaskReturnHook)
    i.OSTaskSemPend                          0x08003a8c   Section        0  os_task.o(i.OSTaskSemPend)
    i.OSTaskStkChk                           0x08003cdc   Section        0  os_task.o(i.OSTaskStkChk)
    i.OSTaskStkInit                          0x08003dc0   Section        0  os_cpu_c.o(i.OSTaskStkInit)
    i.OSTaskSuspend                          0x08003e80   Section        0  os_task.o(i.OSTaskSuspend)
    i.OSTaskSwHook                           0x08003ee0   Section        0  os_cpu_c.o(i.OSTaskSwHook)
    i.OSTimeDly                              0x08003f84   Section        0  os_time.o(i.OSTimeDly)
    i.OSTimeDlyHMSM                          0x080040d4   Section        0  os_time.o(i.OSTimeDlyHMSM)
    i.OSTimeTick                             0x08004300   Section        0  os_time.o(i.OSTimeTick)
    i.OSTimeTickHook                         0x08004344   Section        0  os_cpu_c.o(i.OSTimeTickHook)
    i.OS_CPU_SysTickHandler                  0x08004358   Section        0  os_cpu_c.o(i.OS_CPU_SysTickHandler)
    i.OS_CPU_SysTickInit                     0x08004398   Section        0  os_cpu_c.o(i.OS_CPU_SysTickInit)
    i.OS_Dbg_Init                            0x080043c8   Section        0  os_dbg.o(i.OS_Dbg_Init)
    i.OS_FlagInit                            0x0800457c   Section        0  os_flag.o(i.OS_FlagInit)
    i.OS_FlagPost                            0x08004594   Section        0  os_flag.o(i.OS_FlagPost)
    i.OS_FlagTaskRdy                         0x08004810   Section        0  os_flag.o(i.OS_FlagTaskRdy)
    i.OS_IdleTask                            0x08004868   Section        0  os_core.o(i.OS_IdleTask)
    i.OS_IdleTaskInit                        0x080048b4   Section        0  os_core.o(i.OS_IdleTaskInit)
    i.OS_IntQPost                            0x08004924   Section        0  os_int.o(i.OS_IntQPost)
    i.OS_IntQRePost                          0x08004a28   Section        0  os_int.o(i.OS_IntQRePost)
    i.OS_IntQTask                            0x08004bcc   Section        0  os_int.o(i.OS_IntQTask)
    i.OS_IntQTaskInit                        0x08004c94   Section        0  os_int.o(i.OS_IntQTaskInit)
    i.OS_MemInit                             0x08004dbc   Section        0  os_mem.o(i.OS_MemInit)
    i.OS_MsgPoolInit                         0x08004dd4   Section        0  os_msg.o(i.OS_MsgPoolInit)
    i.OS_MsgQFreeAll                         0x08004e50   Section        0  os_msg.o(i.OS_MsgQFreeAll)
    i.OS_MsgQInit                            0x08004e94   Section        0  os_msg.o(i.OS_MsgQInit)
    i.OS_MsgQPut                             0x08004ea4   Section        0  os_msg.o(i.OS_MsgQPut)
    i.OS_MutexInit                           0x08004fa8   Section        0  os_mutex.o(i.OS_MutexInit)
    i.OS_Pend                                0x08004fc0   Section        0  os_core.o(i.OS_Pend)
    i.OS_PendDataInit                        0x08005028   Section        0  os_core.o(i.OS_PendDataInit)
    i.OS_PendDbgNameAdd                      0x08005050   Section        0  os_core.o(i.OS_PendDbgNameAdd)
    i.OS_PendDbgNameRemove                   0x080050ac   Section        0  os_core.o(i.OS_PendDbgNameRemove)
    i.OS_PendListInsertPrio                  0x080050d0   Section        0  os_core.o(i.OS_PendListInsertPrio)
    i.OS_PendListRemove                      0x08005136   Section        0  os_core.o(i.OS_PendListRemove)
    i.OS_PendListRemove1                     0x08005166   Section        0  os_core.o(i.OS_PendListRemove1)
    i.OS_Post                                0x080051a8   Section        0  os_core.o(i.OS_Post)
    i.OS_Post1                               0x08005268   Section        0  os_core.o(i.OS_Post1)
    i.OS_PrioGetHighest                      0x08005294   Section        0  os_prio.o(i.OS_PrioGetHighest)
    i.OS_PrioInit                            0x080052bc   Section        0  os_prio.o(i.OS_PrioInit)
    i.OS_PrioInsert                          0x080052d4   Section        0  os_prio.o(i.OS_PrioInsert)
    i.OS_PrioRemove                          0x080052f8   Section        0  os_prio.o(i.OS_PrioRemove)
    i.OS_QInit                               0x0800531c   Section        0  os_q.o(i.OS_QInit)
    i.OS_QPost                               0x08005334   Section        0  os_q.o(i.OS_QPost)
    i.OS_RdyListInit                         0x080054bc   Section        0  os_core.o(i.OS_RdyListInit)
    i.OS_RdyListInsert                       0x080054e0   Section        0  os_core.o(i.OS_RdyListInsert)
    i.OS_RdyListInsertHead                   0x0800550c   Section        0  os_core.o(i.OS_RdyListInsertHead)
    i.OS_RdyListInsertTail                   0x0800554c   Section        0  os_core.o(i.OS_RdyListInsertTail)
    i.OS_RdyListMoveHeadToTail               0x08005588   Section        0  os_core.o(i.OS_RdyListMoveHeadToTail)
    i.OS_RdyListRemove                       0x080055cc   Section        0  os_core.o(i.OS_RdyListRemove)
    i.OS_Sched0                              0x08005628   Section        0  os_core.o(i.OS_Sched0)
    i.OS_SchedLockTimeMeasStart              0x08005684   Section        0  os_core.o(i.OS_SchedLockTimeMeasStart)
    i.OS_SchedLockTimeMeasStop               0x080056a0   Section        0  os_core.o(i.OS_SchedLockTimeMeasStop)
    i.OS_SchedRoundRobin                     0x080056dc   Section        0  os_core.o(i.OS_SchedRoundRobin)
    i.OS_SemInit                             0x080057c8   Section        0  os_sem.o(i.OS_SemInit)
    i.OS_SemPost                             0x080057e0   Section        0  os_sem.o(i.OS_SemPost)
    i.OS_StatTask                            0x08005978   Section        0  os_stat.o(i.OS_StatTask)
    i.OS_StatTaskInit                        0x08005d30   Section        0  os_stat.o(i.OS_StatTaskInit)
    i.OS_TaskBlock                           0x08005dfc   Section        0  os_core.o(i.OS_TaskBlock)
    i.OS_TaskDbgListAdd                      0x08005e34   Section        0  os_task.o(i.OS_TaskDbgListAdd)
    i.OS_TaskDbgListRemove                   0x08005e64   Section        0  os_task.o(i.OS_TaskDbgListRemove)
    i.OS_TaskInit                            0x08005ea8   Section        0  os_task.o(i.OS_TaskInit)
    i.OS_TaskInitTCB                         0x08005ec8   Section        0  os_task.o(i.OS_TaskInitTCB)
    i.OS_TaskQPost                           0x08005f98   Section        0  os_task.o(i.OS_TaskQPost)
    i.OS_TaskRdy                             0x08006204   Section        0  os_core.o(i.OS_TaskRdy)
    i.OS_TaskResume                          0x08006220   Section        0  os_task.o(i.OS_TaskResume)
    i.OS_TaskReturn                          0x0800639c   Section        0  os_task.o(i.OS_TaskReturn)
    i.OS_TaskSemPost                         0x080063b4   Section        0  os_task.o(i.OS_TaskSemPost)
    i.OS_TaskSuspend                         0x0800695c   Section        0  os_task.o(i.OS_TaskSuspend)
    i.OS_TickListInit                        0x08006aec   Section        0  os_tick.o(i.OS_TickListInit)
    i.OS_TickListInsert                      0x08006b14   Section        0  os_tick.o(i.OS_TickListInsert)
    i.OS_TickListRemove                      0x08006cd0   Section        0  os_tick.o(i.OS_TickListRemove)
    i.OS_TickListResetPeak                   0x08006d08   Section        0  os_tick.o(i.OS_TickListResetPeak)
    i.OS_TickListUpdate                      0x08006d2c   Section        0  os_tick.o(i.OS_TickListUpdate)
    i.OS_TickTask                            0x08006f4c   Section        0  os_tick.o(i.OS_TickTask)
    i.OS_TickTaskInit                        0x08006f78   Section        0  os_tick.o(i.OS_TickTaskInit)
    i.OS_TmrInit                             0x08007030   Section        0  os_tmr.o(i.OS_TmrInit)
    i.OS_TmrLink                             0x08007158   Section        0  os_tmr.o(i.OS_TmrLink)
    i.OS_TmrResetPeak                        0x08007228   Section        0  os_tmr.o(i.OS_TmrResetPeak)
    i.OS_TmrTask                             0x0800724c   Section        0  os_tmr.o(i.OS_TmrTask)
    i.OS_TmrUnlink                           0x0800730c   Section        0  os_tmr.o(i.OS_TmrUnlink)
    i.PlayMusic_birthday                     0x0800735c   Section        0  bsp_beep.o(i.PlayMusic_birthday)
    i.SVC_Handler                            0x080073cc   Section        0  stm32f10x_it.o(i.SVC_Handler)
    i.TFTLCD_FSMC_Init                       0x080073ce   Section        0  tftlcd.o(i.TFTLCD_FSMC_Init)
    i.TFTLCD_GPIO_Init                       0x0800744c   Section        0  tftlcd.o(i.TFTLCD_GPIO_Init)
    i.TFTLCD_Init                            0x080074e4   Section        0  tftlcd.o(i.TFTLCD_Init)
    i.USARTx_Config                          0x080076d8   Section        0  bsp_usart1.o(i.USARTx_Config)
    i.UsageFault_Handler                     0x08007758   Section        0  stm32f10x_it.o(i.UsageFault_Handler)
    i.__scatterload_copy                     0x0800775c   Section       14  handlers.o(i.__scatterload_copy)
    i.__scatterload_null                     0x0800776a   Section        2  handlers.o(i.__scatterload_null)
    i.__scatterload_zeroinit                 0x0800776c   Section       14  handlers.o(i.__scatterload_zeroinit)
    i.__set_errno                            0x0800777c   Section        0  errno.o(i.__set_errno)
    i.delay_ms                               0x08007788   Section        0  tftlcd.o(i.delay_ms)
    i.main                                   0x080077a4   Section        0  main.o(i.main)
    i.sqrt                                   0x08007804   Section        0  sqrt.o(i.sqrt)
    .constdata                               0x08007850   Section    20600  tftlcd.o(.constdata)
    .constdata                               0x0800c8c8   Section      118  bsp_beep.o(.constdata)
    .constdata                               0x0800c940   Section      164  os_cfg_app.o(.constdata)
    .constdata                               0x0800c9e4   Section      364  os_dbg.o(.constdata)
    .data                                    0x20000000   Section      186  main.o(.data)
    a                                        0x20000003   Data           1  main.o(.data)
    num_seed                                 0x2000000a   Data           2  main.o(.data)
    now_x                                    0x2000000c   Data           2  main.o(.data)
    now_y                                    0x2000000e   Data           2  main.o(.data)
    next_x                                   0x20000010   Data           2  main.o(.data)
    next_y                                   0x20000012   Data           2  main.o(.data)
    clear_x                                  0x20000014   Data           2  main.o(.data)
    clear_y                                  0x20000016   Data           2  main.o(.data)
    gun_x                                    0x20000018   Data           2  main.o(.data)
    gun_y                                    0x2000001a   Data           2  main.o(.data)
    gun_flag                                 0x2000001c   Data           2  main.o(.data)
    more_flag                                0x2000001e   Data           2  main.o(.data)
    clear_x1                                 0x20000020   Data           2  main.o(.data)
    clear_y1                                 0x20000022   Data           2  main.o(.data)
    count                                    0x20000024   Data           1  main.o(.data)
    mode                                     0x2000002c   Data           1  main.o(.data)
    boom_x                                   0x200000b6   Data           2  main.o(.data)
    boom_y                                   0x200000b8   Data           2  main.o(.data)
    .data                                    0x200000ba   Section       12  tftlcd.o(.data)
    .data                                    0x200000c8   Section       20  system_stm32f10x.o(.data)
    .data                                    0x200000dc   Section       20  stm32f10x_rcc.o(.data)
    APBAHBPrescTable                         0x200000dc   Data          16  stm32f10x_rcc.o(.data)
    ADCPrescTable                            0x200000ec   Data           4  stm32f10x_rcc.o(.data)
    .data                                    0x200000f0   Section       28  cpu_core.o(.data)
    .data                                    0x2000010c   Section        4  lib_mem.o(.data)
    .data                                    0x20000110   Section      208  os_var.o(.data)
    .data                                    0x200001e0   Section        4  os_cpu_c.o(.data)
    .data                                    0x200001e4   Section        4  os_prio.o(.data)
    .data                                    0x200001e8   Section        4  rand.o(.data)
    _rand_state                              0x200001e8   Data           4  rand.o(.data)
    .data                                    0x200001ec   Section        4  errno.o(.data)
    _errno                                   0x200001ec   Data           4  errno.o(.data)
    .bss                                     0x200001f0   Section     7456  main.o(.bss)
    AppTaskStartStk                          0x200001f0   Data         512  main.o(.bss)
    AppTaskStartTCB                          0x200003f0   Data         200  main.o(.bss)
    AppTaskLed1Stk                           0x200004b8   Data        2048  main.o(.bss)
    AppTaskLed1TCB                           0x20000cb8   Data         200  main.o(.bss)
    AppTaskLed2Stk                           0x20000d80   Data        2048  main.o(.bss)
    AppTaskLed2TCB                           0x20001580   Data         200  main.o(.bss)
    AppTaskLed3Stk                           0x20001648   Data        2048  main.o(.bss)
    AppTaskLed3TCB                           0x20001e48   Data         200  main.o(.bss)
    .bss                                     0x20001f10   Section       16  cpu_core.o(.bss)
    .bss                                     0x20001f20   Section    27720  lib_mem.o(.bss)
    .bss                                     0x20008b68   Section     5264  os_cfg_app.o(.bss)
    .bss                                     0x20009ff8   Section     1396  os_var.o(.bss)
    STACK                                    0x2000a570   Section     1024  startup_stm32f10x_hd.o(STACK)

    Global Symbols

    Symbol Name                              Value     Ov Type        Size  Object(Section)

    BuildAttributes$$THM_ISAv4$P$D$K$B$S$PE$A:L22UL41UL21$X:L11$S22US41US21$IEEE1$IW$USESV6$~STKCKD$USESV7$~SHL$OTIME$ROPI$IEEEJ$EBA8$MICROLIB$REQ8$PRES8$EABIv2 0x00000000   Number         0  anon$$obj.o ABSOLUTE
    __ARM_use_no_argv                        0x00000000   Number         0  main.o ABSOLUTE
    __arm_fini_                               - Undefined Weak Reference
    __cpp_initialize__aeabi_                  - Undefined Weak Reference
    __cxa_finalize                            - Undefined Weak Reference
    _clock_init                               - Undefined Weak Reference
    _microlib_exit                            - Undefined Weak Reference
    __Vectors_Size                           0x00000130   Number         0  startup_stm32f10x_hd.o ABSOLUTE
    __Vectors                                0x08000000   Data           4  startup_stm32f10x_hd.o(RESET)
    __Vectors_End                            0x08000130   Data           0  startup_stm32f10x_hd.o(RESET)
    __main                                   0x08000131   Thumb Code     0  entry.o(.ARM.Collect$$$$00000000)
    _main_stk                                0x08000131   Thumb Code     0  entry2.o(.ARM.Collect$$$$00000001)
    _main_scatterload                        0x08000135   Thumb Code     0  entry5.o(.ARM.Collect$$$$00000004)
    __main_after_scatterload                 0x08000139   Thumb Code     0  entry5.o(.ARM.Collect$$$$00000004)
    _main_clock                              0x08000139   Thumb Code     0  entry7b.o(.ARM.Collect$$$$00000008)
    _main_cpp_init                           0x08000139   Thumb Code     0  entry8b.o(.ARM.Collect$$$$0000000A)
    _main_init                               0x08000139   Thumb Code     0  entry9a.o(.ARM.Collect$$$$0000000B)
    __rt_lib_shutdown_fini                   0x08000141   Thumb Code     0  entry12b.o(.ARM.Collect$$$$0000000E)
    __rt_final_cpp                           0x08000145   Thumb Code     0  entry10a.o(.ARM.Collect$$$$0000000F)
    __rt_final_exit                          0x08000145   Thumb Code     0  entry11a.o(.ARM.Collect$$$$00000011)
    Reset_Handler                            0x08000149   Thumb Code     8  startup_stm32f10x_hd.o(.text)
    ADC1_2_IRQHandler                        0x08000163   Thumb Code     0  startup_stm32f10x_hd.o(.text)
    ADC3_IRQHandler                          0x08000163   Thumb Code     0  startup_stm32f10x_hd.o(.text)
    CAN1_RX1_IRQHandler                      0x08000163   Thumb Code     0  startup_stm32f10x_hd.o(.text)
    CAN1_SCE_IRQHandler                      0x08000163   Thumb Code     0  startup_stm32f10x_hd.o(.text)
    DMA1_Channel1_IRQHandler                 0x08000163   Thumb Code     0  startup_stm32f10x_hd.o(.text)
    DMA1_Channel2_IRQHandler                 0x08000163   Thumb Code     0  startup_stm32f10x_hd.o(.text)
    DMA1_Channel3_IRQHandler                 0x08000163   Thumb Code     0  startup_stm32f10x_hd.o(.text)
    DMA1_Channel4_IRQHandler                 0x08000163   Thumb Code     0  startup_stm32f10x_hd.o(.text)
    DMA1_Channel5_IRQHandler                 0x08000163   Thumb Code     0  startup_stm32f10x_hd.o(.text)
    DMA1_Channel6_IRQHandler                 0x08000163   Thumb Code     0  startup_stm32f10x_hd.o(.text)
    DMA1_Channel7_IRQHandler                 0x08000163   Thumb Code     0  startup_stm32f10x_hd.o(.text)
    DMA2_Channel1_IRQHandler                 0x08000163   Thumb Code     0  startup_stm32f10x_hd.o(.text)
    DMA2_Channel2_IRQHandler                 0x08000163   Thumb Code     0  startup_stm32f10x_hd.o(.text)
    DMA2_Channel3_IRQHandler                 0x08000163   Thumb Code     0  startup_stm32f10x_hd.o(.text)
    DMA2_Channel4_5_IRQHandler               0x08000163   Thumb Code     0  startup_stm32f10x_hd.o(.text)
    EXTI0_IRQHandler                         0x08000163   Thumb Code     0  startup_stm32f10x_hd.o(.text)
    EXTI15_10_IRQHandler                     0x08000163   Thumb Code     0  startup_stm32f10x_hd.o(.text)
    EXTI1_IRQHandler                         0x08000163   Thumb Code     0  startup_stm32f10x_hd.o(.text)
    EXTI2_IRQHandler                         0x08000163   Thumb Code     0  startup_stm32f10x_hd.o(.text)
    EXTI3_IRQHandler                         0x08000163   Thumb Code     0  startup_stm32f10x_hd.o(.text)
    EXTI4_IRQHandler                         0x08000163   Thumb Code     0  startup_stm32f10x_hd.o(.text)
    EXTI9_5_IRQHandler                       0x08000163   Thumb Code     0  startup_stm32f10x_hd.o(.text)
    FLASH_IRQHandler                         0x08000163   Thumb Code     0  startup_stm32f10x_hd.o(.text)
    FSMC_IRQHandler                          0x08000163   Thumb Code     0  startup_stm32f10x_hd.o(.text)
    I2C1_ER_IRQHandler                       0x08000163   Thumb Code     0  startup_stm32f10x_hd.o(.text)
    I2C1_EV_IRQHandler                       0x08000163   Thumb Code     0  startup_stm32f10x_hd.o(.text)
    I2C2_ER_IRQHandler                       0x08000163   Thumb Code     0  startup_stm32f10x_hd.o(.text)
    I2C2_EV_IRQHandler                       0x08000163   Thumb Code     0  startup_stm32f10x_hd.o(.text)
    PVD_IRQHandler                           0x08000163   Thumb Code     0  startup_stm32f10x_hd.o(.text)
    RCC_IRQHandler                           0x08000163   Thumb Code     0  startup_stm32f10x_hd.o(.text)
    RTCAlarm_IRQHandler                      0x08000163   Thumb Code     0  startup_stm32f10x_hd.o(.text)
    RTC_IRQHandler                           0x08000163   Thumb Code     0  startup_stm32f10x_hd.o(.text)
    SDIO_IRQHandler                          0x08000163   Thumb Code     0  startup_stm32f10x_hd.o(.text)
    SPI1_IRQHandler                          0x08000163   Thumb Code     0  startup_stm32f10x_hd.o(.text)
    SPI2_IRQHandler                          0x08000163   Thumb Code     0  startup_stm32f10x_hd.o(.text)
    SPI3_IRQHandler                          0x08000163   Thumb Code     0  startup_stm32f10x_hd.o(.text)
    TAMPER_IRQHandler                        0x08000163   Thumb Code     0  startup_stm32f10x_hd.o(.text)
    TIM1_BRK_IRQHandler                      0x08000163   Thumb Code     0  startup_stm32f10x_hd.o(.text)
    TIM1_CC_IRQHandler                       0x08000163   Thumb Code     0  startup_stm32f10x_hd.o(.text)
    TIM1_TRG_COM_IRQHandler                  0x08000163   Thumb Code     0  startup_stm32f10x_hd.o(.text)
    TIM1_UP_IRQHandler                       0x08000163   Thumb Code     0  startup_stm32f10x_hd.o(.text)
    TIM2_IRQHandler                          0x08000163   Thumb Code     0  startup_stm32f10x_hd.o(.text)
    TIM3_IRQHandler                          0x08000163   Thumb Code     0  startup_stm32f10x_hd.o(.text)
    TIM4_IRQHandler                          0x08000163   Thumb Code     0  startup_stm32f10x_hd.o(.text)
    TIM5_IRQHandler                          0x08000163   Thumb Code     0  startup_stm32f10x_hd.o(.text)
    TIM6_IRQHandler                          0x08000163   Thumb Code     0  startup_stm32f10x_hd.o(.text)
    TIM7_IRQHandler                          0x08000163   Thumb Code     0  startup_stm32f10x_hd.o(.text)
    TIM8_BRK_IRQHandler                      0x08000163   Thumb Code     0  startup_stm32f10x_hd.o(.text)
    TIM8_CC_IRQHandler                       0x08000163   Thumb Code     0  startup_stm32f10x_hd.o(.text)
    TIM8_TRG_COM_IRQHandler                  0x08000163   Thumb Code     0  startup_stm32f10x_hd.o(.text)
    TIM8_UP_IRQHandler                       0x08000163   Thumb Code     0  startup_stm32f10x_hd.o(.text)
    UART4_IRQHandler                         0x08000163   Thumb Code     0  startup_stm32f10x_hd.o(.text)
    UART5_IRQHandler                         0x08000163   Thumb Code     0  startup_stm32f10x_hd.o(.text)
    USART1_IRQHandler                        0x08000163   Thumb Code     0  startup_stm32f10x_hd.o(.text)
    USART2_IRQHandler                        0x08000163   Thumb Code     0  startup_stm32f10x_hd.o(.text)
    USART3_IRQHandler                        0x08000163   Thumb Code     0  startup_stm32f10x_hd.o(.text)
    USBWakeUp_IRQHandler                     0x08000163   Thumb Code     0  startup_stm32f10x_hd.o(.text)
    USB_HP_CAN1_TX_IRQHandler                0x08000163   Thumb Code     0  startup_stm32f10x_hd.o(.text)
    USB_LP_CAN1_RX0_IRQHandler               0x08000163   Thumb Code     0  startup_stm32f10x_hd.o(.text)
    WWDG_IRQHandler                          0x08000163   Thumb Code     0  startup_stm32f10x_hd.o(.text)
    SystemInit                               0x08000249   Thumb Code    78  system_stm32f10x.o(.text)
    SystemCoreClockUpdate                    0x08000297   Thumb Code   142  system_stm32f10x.o(.text)
    GPIO_DeInit                              0x08000349   Thumb Code   172  stm32f10x_gpio.o(.text)
    GPIO_AFIODeInit                          0x080003f5   Thumb Code    20  stm32f10x_gpio.o(.text)
    GPIO_Init                                0x08000409   Thumb Code   274  stm32f10x_gpio.o(.text)
    GPIO_StructInit                          0x0800051b   Thumb Code    16  stm32f10x_gpio.o(.text)
    GPIO_ReadInputDataBit                    0x0800052b   Thumb Code    18  stm32f10x_gpio.o(.text)
    GPIO_ReadInputData                       0x0800053d   Thumb Code     8  stm32f10x_gpio.o(.text)
    GPIO_ReadOutputDataBit                   0x08000545   Thumb Code    18  stm32f10x_gpio.o(.text)
    GPIO_ReadOutputData                      0x08000557   Thumb Code     8  stm32f10x_gpio.o(.text)
    GPIO_SetBits                             0x0800055f   Thumb Code     4  stm32f10x_gpio.o(.text)
    GPIO_ResetBits                           0x08000563   Thumb Code     4  stm32f10x_gpio.o(.text)
    GPIO_WriteBit                            0x08000567   Thumb Code    10  stm32f10x_gpio.o(.text)
    GPIO_Write                               0x08000571   Thumb Code     4  stm32f10x_gpio.o(.text)
    GPIO_PinLockConfig                       0x08000575   Thumb Code    18  stm32f10x_gpio.o(.text)
    GPIO_EventOutputConfig                   0x08000587   Thumb Code    26  stm32f10x_gpio.o(.text)
    GPIO_EventOutputCmd                      0x080005a1   Thumb Code     6  stm32f10x_gpio.o(.text)
    GPIO_PinRemapConfig                      0x080005a7   Thumb Code   138  stm32f10x_gpio.o(.text)
    GPIO_EXTILineConfig                      0x08000631   Thumb Code    66  stm32f10x_gpio.o(.text)
    GPIO_ETH_MediaInterfaceConfig            0x08000673   Thumb Code     6  stm32f10x_gpio.o(.text)
    RCC_DeInit                               0x080006a1   Thumb Code    64  stm32f10x_rcc.o(.text)
    RCC_HSEConfig                            0x080006e1   Thumb Code    70  stm32f10x_rcc.o(.text)
    RCC_GetFlagStatus                        0x08000727   Thumb Code    56  stm32f10x_rcc.o(.text)
    RCC_WaitForHSEStartUp                    0x0800075f   Thumb Code    56  stm32f10x_rcc.o(.text)
    RCC_AdjustHSICalibrationValue            0x08000797   Thumb Code    20  stm32f10x_rcc.o(.text)
    RCC_HSICmd                               0x080007ab   Thumb Code     6  stm32f10x_rcc.o(.text)
    RCC_PLLConfig                            0x080007b1   Thumb Code    24  stm32f10x_rcc.o(.text)
    RCC_PLLCmd                               0x080007c9   Thumb Code     6  stm32f10x_rcc.o(.text)
    RCC_SYSCLKConfig                         0x080007cf   Thumb Code    18  stm32f10x_rcc.o(.text)
    RCC_GetSYSCLKSource                      0x080007e1   Thumb Code    10  stm32f10x_rcc.o(.text)
    RCC_HCLKConfig                           0x080007eb   Thumb Code    18  stm32f10x_rcc.o(.text)
    RCC_PCLK1Config                          0x080007fd   Thumb Code    18  stm32f10x_rcc.o(.text)
    RCC_PCLK2Config                          0x0800080f   Thumb Code    20  stm32f10x_rcc.o(.text)
    RCC_ITConfig                             0x08000823   Thumb Code    26  stm32f10x_rcc.o(.text)
    RCC_USBCLKConfig                         0x0800083d   Thumb Code     6  stm32f10x_rcc.o(.text)
    RCC_ADCCLKConfig                         0x08000843   Thumb Code    18  stm32f10x_rcc.o(.text)
    RCC_LSEConfig                            0x08000855   Thumb Code    44  stm32f10x_rcc.o(.text)
    RCC_LSICmd                               0x08000881   Thumb Code     6  stm32f10x_rcc.o(.text)
    RCC_RTCCLKConfig                         0x08000887   Thumb Code    12  stm32f10x_rcc.o(.text)
    RCC_RTCCLKCmd                            0x08000893   Thumb Code     8  stm32f10x_rcc.o(.text)
    RCC_GetClocksFreq                        0x0800089b   Thumb Code   192  stm32f10x_rcc.o(.text)
    RCC_AHBPeriphClockCmd                    0x0800095b   Thumb Code    26  stm32f10x_rcc.o(.text)
    RCC_APB2PeriphClockCmd                   0x08000975   Thumb Code    26  stm32f10x_rcc.o(.text)
    RCC_APB1PeriphClockCmd                   0x0800098f   Thumb Code    26  stm32f10x_rcc.o(.text)
    RCC_APB2PeriphResetCmd                   0x080009a9   Thumb Code    26  stm32f10x_rcc.o(.text)
    RCC_APB1PeriphResetCmd                   0x080009c3   Thumb Code    26  stm32f10x_rcc.o(.text)
    RCC_BackupResetCmd                       0x080009dd   Thumb Code     8  stm32f10x_rcc.o(.text)
    RCC_ClockSecuritySystemCmd               0x080009e5   Thumb Code     6  stm32f10x_rcc.o(.text)
    RCC_MCOConfig                            0x080009eb   Thumb Code     6  stm32f10x_rcc.o(.text)
    RCC_ClearFlag                            0x080009f1   Thumb Code    14  stm32f10x_rcc.o(.text)
    RCC_GetITStatus                          0x080009ff   Thumb Code    20  stm32f10x_rcc.o(.text)
    RCC_ClearITPendingBit                    0x08000a13   Thumb Code     6  stm32f10x_rcc.o(.text)
    FSMC_NORSRAMDeInit                       0x08000a45   Thumb Code    56  stm32f10x_fsmc.o(.text)
    FSMC_NANDDeInit                          0x08000a7d   Thumb Code    62  stm32f10x_fsmc.o(.text)
    FSMC_PCCARDDeInit                        0x08000abb   Thumb Code    40  stm32f10x_fsmc.o(.text)
    FSMC_NORSRAMInit                         0x08000ae3   Thumb Code   224  stm32f10x_fsmc.o(.text)
    FSMC_NANDInit                            0x08000bc3   Thumb Code   130  stm32f10x_fsmc.o(.text)
    FSMC_PCCARDInit                          0x08000c45   Thumb Code   124  stm32f10x_fsmc.o(.text)
    FSMC_NORSRAMStructInit                   0x08000cc1   Thumb Code   114  stm32f10x_fsmc.o(.text)
    FSMC_NANDStructInit                      0x08000d33   Thumb Code    54  stm32f10x_fsmc.o(.text)
    FSMC_PCCARDStructInit                    0x08000d69   Thumb Code    60  stm32f10x_fsmc.o(.text)
    FSMC_NORSRAMCmd                          0x08000da5   Thumb Code    46  stm32f10x_fsmc.o(.text)
    FSMC_NANDCmd                             0x08000dd3   Thumb Code    86  stm32f10x_fsmc.o(.text)
    FSMC_PCCARDCmd                           0x08000e29   Thumb Code    40  stm32f10x_fsmc.o(.text)
    FSMC_NANDECCCmd                          0x08000e51   Thumb Code   118  stm32f10x_fsmc.o(.text)
    FSMC_GetECC                              0x08000ec7   Thumb Code    22  stm32f10x_fsmc.o(.text)
    FSMC_ITConfig                            0x08000edd   Thumb Code   128  stm32f10x_fsmc.o(.text)
    FSMC_GetFlagStatus                       0x08000f5d   Thumb Code    48  stm32f10x_fsmc.o(.text)
    FSMC_ClearFlag                           0x08000f8d   Thumb Code    62  stm32f10x_fsmc.o(.text)
    FSMC_GetITStatus                         0x08000fcb   Thumb Code    60  stm32f10x_fsmc.o(.text)
    FSMC_ClearITPendingBit                   0x08001007   Thumb Code    64  stm32f10x_fsmc.o(.text)
    USART_DeInit                             0x0800105d   Thumb Code   134  stm32f10x_usart.o(.text)
    USART_Init                               0x080010e3   Thumb Code   210  stm32f10x_usart.o(.text)
    USART_StructInit                         0x080011b5   Thumb Code    24  stm32f10x_usart.o(.text)
    USART_ClockInit                          0x080011cd   Thumb Code    34  stm32f10x_usart.o(.text)
    USART_ClockStructInit                    0x080011ef   Thumb Code    12  stm32f10x_usart.o(.text)
    USART_Cmd                                0x080011fb   Thumb Code    24  stm32f10x_usart.o(.text)
    USART_ITConfig                           0x08001213   Thumb Code    74  stm32f10x_usart.o(.text)
    USART_DMACmd                             0x0800125d   Thumb Code    18  stm32f10x_usart.o(.text)
    USART_SetAddress                         0x0800126f   Thumb Code    18  stm32f10x_usart.o(.text)
    USART_WakeUpConfig                       0x08001281   Thumb Code    18  stm32f10x_usart.o(.text)
    USART_ReceiverWakeUpCmd                  0x08001293   Thumb Code    24  stm32f10x_usart.o(.text)
    USART_LINBreakDetectLengthConfig         0x080012ab   Thumb Code    18  stm32f10x_usart.o(.text)
    USART_LINCmd                             0x080012bd   Thumb Code    24  stm32f10x_usart.o(.text)
    USART_SendData                           0x080012d5   Thumb Code     8  stm32f10x_usart.o(.text)
    USART_ReceiveData                        0x080012dd   Thumb Code    10  stm32f10x_usart.o(.text)
    USART_SendBreak                          0x080012e7   Thumb Code    10  stm32f10x_usart.o(.text)
    USART_SetGuardTime                       0x080012f1   Thumb Code    16  stm32f10x_usart.o(.text)
    USART_SetPrescaler                       0x08001301   Thumb Code    16  stm32f10x_usart.o(.text)
    USART_SmartCardCmd                       0x08001311   Thumb Code    24  stm32f10x_usart.o(.text)
    USART_SmartCardNACKCmd                   0x08001329   Thumb Code    24  stm32f10x_usart.o(.text)
    USART_HalfDuplexCmd                      0x08001341   Thumb Code    24  stm32f10x_usart.o(.text)
    USART_OverSampling8Cmd                   0x08001359   Thumb Code    22  stm32f10x_usart.o(.text)
    USART_OneBitMethodCmd                    0x0800136f   Thumb Code    24  stm32f10x_usart.o(.text)
    USART_IrDAConfig                         0x08001387   Thumb Code    18  stm32f10x_usart.o(.text)
    USART_IrDACmd                            0x08001399   Thumb Code    24  stm32f10x_usart.o(.text)
    USART_GetFlagStatus                      0x080013b1   Thumb Code    26  stm32f10x_usart.o(.text)
    USART_ClearFlag                          0x080013cb   Thumb Code    18  stm32f10x_usart.o(.text)
    USART_GetITStatus                        0x080013dd   Thumb Code    84  stm32f10x_usart.o(.text)
    USART_ClearITPendingBit                  0x08001431   Thumb Code    52  stm32f10x_usart.o(.text)
    CPU_IntDis                               0x08001465   Thumb Code     0  cpu_a.o(.text)
    CPU_IntEn                                0x08001469   Thumb Code     0  cpu_a.o(.text)
    CPU_SR_Save                              0x0800146d   Thumb Code     0  cpu_a.o(.text)
    CPU_SR_Restore                           0x08001475   Thumb Code     0  cpu_a.o(.text)
    CPU_WaitForInt                           0x0800147b   Thumb Code     0  cpu_a.o(.text)
    CPU_WaitForExcept                        0x0800147f   Thumb Code     0  cpu_a.o(.text)
    CPU_CntLeadZeros                         0x08001483   Thumb Code     0  cpu_a.o(.text)
    CPU_CntTrailZeros                        0x08001489   Thumb Code     0  cpu_a.o(.text)
    CPU_RevBits                              0x08001493   Thumb Code     0  cpu_a.o(.text)
    rand                                     0x08001499   Thumb Code    20  rand.o(.text)
    srand                                    0x080014ad   Thumb Code     6  rand.o(.text)
    __aeabi_memcpy                           0x080014bd   Thumb Code    36  memcpya.o(.text)
    __aeabi_memcpy4                          0x080014bd   Thumb Code     0  memcpya.o(.text)
    __aeabi_memcpy8                          0x080014bd   Thumb Code     0  memcpya.o(.text)
    __aeabi_i2d                              0x080014e1   Thumb Code    34  dflti.o(.text)
    __aeabi_cdcmpeq                          0x08001505   Thumb Code     0  cdcmple.o(.text)
    __aeabi_cdcmple                          0x08001505   Thumb Code    48  cdcmple.o(.text)
    __aeabi_llsr                             0x08001535   Thumb Code    32  llushr.o(.text)
    _ll_ushift_r                             0x08001535   Thumb Code     0  llushr.o(.text)
    __I$use$fp                               0x08001555   Thumb Code     0  iusefp.o(.text)
    _double_round                            0x08001555   Thumb Code    30  depilogue.o(.text)
    _double_epilogue                         0x08001573   Thumb Code   156  depilogue.o(.text)
    _dsqrt                                   0x0800160f   Thumb Code   162  dsqrt.o(.text)
    __scatterload                            0x080016b1   Thumb Code    28  init.o(.text)
    __scatterload_rt2                        0x080016b1   Thumb Code     0  init.o(.text)
    __aeabi_llsl                             0x080016d5   Thumb Code    30  llshl.o(.text)
    _ll_shift_l                              0x080016d5   Thumb Code     0  llshl.o(.text)
    __decompress                             0x080016f3   Thumb Code     0  __dczerorl2.o(.text)
    __decompress1                            0x080016f3   Thumb Code    86  __dczerorl2.o(.text)
    OSStartHighRdy                           0x08001749   Thumb Code     0  os_cpu_a.o(CODE)
    OS_CPU_PendSVHandler                     0x0800176b   Thumb Code     0  os_cpu_a.o(CODE)
    BEEP_Init                                0x08001ecd   Thumb Code    50  bsp_beep.o(i.BEEP_Init)
    BSP_CPU_ClkFreq                          0x08001f05   Thumb Code    16  bsp.o(i.BSP_CPU_ClkFreq)
    BSP_Init                                 0x08001f15   Thumb Code    30  bsp.o(i.BSP_Init)
    BusFault_Handler                         0x08001f39   Thumb Code     4  stm32f10x_it.o(i.BusFault_Handler)
    CPU_Init                                 0x08001f3d   Thumb Code    16  cpu_core.o(i.CPU_Init)
    CPU_IntDisMeasMaxCurGet                  0x08001fed   Thumb Code    40  cpu_core.o(i.CPU_IntDisMeasMaxCurGet)
    CPU_IntDisMeasMaxCurReset                0x08002019   Thumb Code    40  cpu_core.o(i.CPU_IntDisMeasMaxCurReset)
    CPU_IntDisMeasMaxGet                     0x08002045   Thumb Code    40  cpu_core.o(i.CPU_IntDisMeasMaxGet)
    CPU_IntDisMeasStart                      0x08002071   Thumb Code    38  cpu_core.o(i.CPU_IntDisMeasStart)
    CPU_IntDisMeasStop                       0x080020a5   Thumb Code    62  cpu_core.o(i.CPU_IntDisMeasStop)
    CPU_NameClr                              0x080020f9   Thumb Code    50  cpu_core.o(i.CPU_NameClr)
    CPU_TS_TmrFreqSet                        0x0800214d   Thumb Code     6  cpu_core.o(i.CPU_TS_TmrFreqSet)
    CPU_TS_TmrInit                           0x08002159   Thumb Code    44  bsp.o(i.CPU_TS_TmrInit)
    CPU_TS_TmrRd                             0x0800218d   Thumb Code     6  bsp.o(i.CPU_TS_TmrRd)
    DebugMon_Handler                         0x08002199   Thumb Code     2  stm32f10x_it.o(i.DebugMon_Handler)
    HardFault_Handler                        0x0800219b   Thumb Code     4  stm32f10x_it.o(i.HardFault_Handler)
    Key_Initial                              0x0800220d   Thumb Code    20  bsp_key.o(i.Key_Initial)
    Key_Scan                                 0x08002221   Thumb Code    88  bsp_key.o(i.Key_Scan)
    LCD_Clear                                0x0800229d   Thumb Code    68  tftlcd.o(i.LCD_Clear)
    LCD_Display_Dir                          0x080022e5   Thumb Code    82  tftlcd.o(i.LCD_Display_Dir)
    LCD_DrawFRONT_COLOR                      0x0800233d   Thumb Code    28  tftlcd.o(i.LCD_DrawFRONT_COLOR)
    LCD_DrawLine                             0x08002359   Thumb Code   176  tftlcd.o(i.LCD_DrawLine)
    LCD_DrawPoint                            0x08002409   Thumb Code    28  tftlcd.o(i.LCD_DrawPoint)
    LCD_DrawRectangle                        0x08002429   Thumb Code    60  tftlcd.o(i.LCD_DrawRectangle)
    LCD_Draw_Circle                          0x08002465   Thumb Code   152  tftlcd.o(i.LCD_Draw_Circle)
    LCD_DrowSign                             0x080024fd   Thumb Code   132  tftlcd.o(i.LCD_DrowSign)
    LCD_Fill                                 0x08002581   Thumb Code    92  tftlcd.o(i.LCD_Fill)
    LCD_Pow                                  0x080025dd   Thumb Code    22  tftlcd.o(i.LCD_Pow)
    LCD_Set_Window                           0x080025f3   Thumb Code   166  tftlcd.o(i.LCD_Set_Window)
    LCD_ShowChar                             0x08002699   Thumb Code   272  tftlcd.o(i.LCD_ShowChar)
    LCD_ShowFontHZ                           0x080027c1   Thumb Code   220  tftlcd.o(i.LCD_ShowFontHZ)
    LCD_ShowString                           0x080028a9   Thumb Code   102  tftlcd.o(i.LCD_ShowString)
    LCD_ShowxNum                             0x0800290f   Thumb Code   190  tftlcd.o(i.LCD_ShowxNum)
    LCD_UI                                   0x080029cd   Thumb Code   246  main.o(i.LCD_UI)
    LCD_WriteCmd                             0x08002b01   Thumb Code     6  tftlcd.o(i.LCD_WriteCmd)
    LCD_WriteCmdData                         0x08002b0d   Thumb Code    20  tftlcd.o(i.LCD_WriteCmdData)
    LCD_WriteData                            0x08002b21   Thumb Code     6  tftlcd.o(i.LCD_WriteData)
    LCD_WriteData_Color                      0x08002b2d   Thumb Code    12  tftlcd.o(i.LCD_WriteData_Color)
    LCD_balloon                              0x08002b3d   Thumb Code    38  tftlcd.o(i.LCD_balloon)
    LED_Init                                 0x08002be1   Thumb Code    32  bsp_led.o(i.LED_Init)
    LED_guan                                 0x08002c05   Thumb Code   126  bsp_led.o(i.LED_guan)
    MemManage_Handler                        0x08002c89   Thumb Code     4  stm32f10x_it.o(i.MemManage_Handler)
    Mem_Clr                                  0x08002c8d   Thumb Code    18  lib_mem.o(i.Mem_Clr)
    Mem_Init                                 0x08002ca1   Thumb Code    54  lib_mem.o(i.Mem_Init)
    Mem_Set                                  0x08002ce9   Thumb Code    98  lib_mem.o(i.Mem_Set)
    NMI_Handler                              0x08002d4b   Thumb Code     2  stm32f10x_it.o(i.NMI_Handler)
    OSCfg_Init                               0x08002d4d   Thumb Code     2  os_cfg_app.o(i.OSCfg_Init)
    OSIdleTaskHook                           0x08002d51   Thumb Code    16  os_cpu_c.o(i.OSIdleTaskHook)
    OSInit                                   0x08002d65   Thumb Code   300  os_core.o(i.OSInit)
    OSInitHook                               0x08002ef1   Thumb Code    42  os_cpu_c.o(i.OSInitHook)
    OSIntExit                                0x08002f29   Thumb Code   192  os_core.o(i.OSIntExit)
    OSSched                                  0x0800300d   Thumb Code   134  os_core.o(i.OSSched)
    OSSchedLock                              0x080030b5   Thumb Code   112  os_core.o(i.OSSchedLock)
    OSSchedRoundRobinCfg                     0x08003131   Thumb Code    96  os_core.o(i.OSSchedRoundRobinCfg)
    OSSchedUnlock                            0x0800319d   Thumb Code   148  os_core.o(i.OSSchedUnlock)
    OSStart                                  0x0800323d   Thumb Code    78  os_core.o(i.OSStart)
    OSStatReset                              0x080032a5   Thumb Code   316  os_stat.o(i.OSStatReset)
    OSStatTaskCPUUsageInit                   0x0800340d   Thumb Code   228  os_stat.o(i.OSStatTaskCPUUsageInit)
    OSStatTaskHook                           0x0800350d   Thumb Code    16  os_cpu_c.o(i.OSStatTaskHook)
    OSTaskCreate                             0x08003521   Thumb Code   624  os_task.o(i.OSTaskCreate)
    OSTaskCreateHook                         0x080037b5   Thumb Code    20  os_cpu_c.o(i.OSTaskCreateHook)
    OSTaskDel                                0x080037cd   Thumb Code   490  os_task.o(i.OSTaskDel)
    OSTaskDelHook                            0x080039d5   Thumb Code    20  os_cpu_c.o(i.OSTaskDelHook)
    OSTaskResume                             0x080039ed   Thumb Code   124  os_task.o(i.OSTaskResume)
    OSTaskReturnHook                         0x08003a75   Thumb Code    20  os_cpu_c.o(i.OSTaskReturnHook)
    OSTaskSemPend                            0x08003a8d   Thumb Code   578  os_task.o(i.OSTaskSemPend)
    OSTaskStkChk                             0x08003cdd   Thumb Code   220  os_task.o(i.OSTaskStkChk)
    OSTaskStkInit                            0x08003dc1   Thumb Code   188  os_cpu_c.o(i.OSTaskStkInit)
    OSTaskSuspend                            0x08003e81   Thumb Code    78  os_task.o(i.OSTaskSuspend)
    OSTaskSwHook                             0x08003ee1   Thumb Code   146  os_cpu_c.o(i.OSTaskSwHook)
    OSTimeDly                                0x08003f85   Thumb Code   322  os_time.o(i.OSTimeDly)
    OSTimeDlyHMSM                            0x080040d5   Thumb Code   538  os_time.o(i.OSTimeDlyHMSM)
    OSTimeTick                               0x08004301   Thumb Code    54  os_time.o(i.OSTimeTick)
    OSTimeTickHook                           0x08004345   Thumb Code    16  os_cpu_c.o(i.OSTimeTickHook)
    OS_CPU_SysTickHandler                    0x08004359   Thumb Code    60  os_cpu_c.o(i.OS_CPU_SysTickHandler)
    OS_CPU_SysTickInit                       0x08004399   Thumb Code    44  os_cpu_c.o(i.OS_CPU_SysTickInit)
    OS_Dbg_Init                              0x080043c9   Thumb Code   150  os_dbg.o(i.OS_Dbg_Init)
    OS_FlagInit                              0x0800457d   Thumb Code    14  os_flag.o(i.OS_FlagInit)
    OS_FlagPost                              0x08004595   Thumb Code   626  os_flag.o(i.OS_FlagPost)
    OS_FlagTaskRdy                           0x08004811   Thumb Code    86  os_flag.o(i.OS_FlagTaskRdy)
    OS_IdleTask                              0x08004869   Thumb Code    68  os_core.o(i.OS_IdleTask)
    OS_IdleTaskInit                          0x080048b5   Thumb Code    66  os_core.o(i.OS_IdleTaskInit)
    OS_IntQPost                              0x08004925   Thumb Code   224  os_int.o(i.OS_IntQPost)
    OS_IntQRePost                            0x08004a29   Thumb Code   360  os_int.o(i.OS_IntQRePost)
    OS_IntQTask                              0x08004bcd   Thumb Code   182  os_int.o(i.OS_IntQTask)
    OS_IntQTaskInit                          0x08004c95   Thumb Code   206  os_int.o(i.OS_IntQTaskInit)
    OS_MemInit                               0x08004dbd   Thumb Code    14  os_mem.o(i.OS_MemInit)
    OS_MsgPoolInit                           0x08004dd5   Thumb Code   110  os_msg.o(i.OS_MsgPoolInit)
    OS_MsgQFreeAll                           0x08004e51   Thumb Code    62  os_msg.o(i.OS_MsgQFreeAll)
    OS_MsgQInit                              0x08004e95   Thumb Code    14  os_msg.o(i.OS_MsgQInit)
    OS_MsgQPut                               0x08004ea5   Thumb Code   254  os_msg.o(i.OS_MsgQPut)
    OS_MutexInit                             0x08004fa9   Thumb Code    14  os_mutex.o(i.OS_MutexInit)
    OS_Pend                                  0x08004fc1   Thumb Code    98  os_core.o(i.OS_Pend)
    OS_PendDataInit                          0x08005029   Thumb Code    38  os_core.o(i.OS_PendDataInit)
    OS_PendDbgNameAdd                        0x08005051   Thumb Code    66  os_core.o(i.OS_PendDbgNameAdd)
    OS_PendDbgNameRemove                     0x080050ad   Thumb Code    30  os_core.o(i.OS_PendDbgNameRemove)
    OS_PendListInsertPrio                    0x080050d1   Thumb Code   102  os_core.o(i.OS_PendListInsertPrio)
    OS_PendListRemove                        0x08005137   Thumb Code    48  os_core.o(i.OS_PendListRemove)
    OS_PendListRemove1                       0x08005167   Thumb Code    66  os_core.o(i.OS_PendListRemove1)
    OS_Post                                  0x080051a9   Thumb Code   192  os_core.o(i.OS_Post)
    OS_Post1                                 0x08005269   Thumb Code    42  os_core.o(i.OS_Post1)
    OS_PrioGetHighest                        0x08005295   Thumb Code    36  os_prio.o(i.OS_PrioGetHighest)
    OS_PrioInit                              0x080052bd   Thumb Code    20  os_prio.o(i.OS_PrioInit)
    OS_PrioInsert                            0x080052d5   Thumb Code    32  os_prio.o(i.OS_PrioInsert)
    OS_PrioRemove                            0x080052f9   Thumb Code    32  os_prio.o(i.OS_PrioRemove)
    OS_QInit                                 0x0800531d   Thumb Code    14  os_q.o(i.OS_QInit)
    OS_QPost                                 0x08005335   Thumb Code   382  os_q.o(i.OS_QPost)
    OS_RdyListInit                           0x080054bd   Thumb Code    32  os_core.o(i.OS_RdyListInit)
    OS_RdyListInsert                         0x080054e1   Thumb Code    40  os_core.o(i.OS_RdyListInsert)
    OS_RdyListInsertHead                     0x0800550d   Thumb Code    58  os_core.o(i.OS_RdyListInsertHead)
    OS_RdyListInsertTail                     0x0800554d   Thumb Code    56  os_core.o(i.OS_RdyListInsertTail)
    OS_RdyListMoveHeadToTail                 0x08005589   Thumb Code    68  os_core.o(i.OS_RdyListMoveHeadToTail)
    OS_RdyListRemove                         0x080055cd   Thumb Code    86  os_core.o(i.OS_RdyListRemove)
    OS_Sched0                                0x08005629   Thumb Code    72  os_core.o(i.OS_Sched0)
    OS_SchedLockTimeMeasStart                0x08005685   Thumb Code    20  os_core.o(i.OS_SchedLockTimeMeasStart)
    OS_SchedLockTimeMeasStop                 0x080056a1   Thumb Code    44  os_core.o(i.OS_SchedLockTimeMeasStop)
    OS_SchedRoundRobin                       0x080056dd   Thumb Code   218  os_core.o(i.OS_SchedRoundRobin)
    OS_SemInit                               0x080057c9   Thumb Code    14  os_sem.o(i.OS_SemInit)
    OS_SemPost                               0x080057e1   Thumb Code   404  os_sem.o(i.OS_SemPost)
    OS_StatTask                              0x08005979   Thumb Code   878  os_stat.o(i.OS_StatTask)
    OS_StatTaskInit                          0x08005d31   Thumb Code   136  os_stat.o(i.OS_StatTaskInit)
    OS_TaskBlock                             0x08005dfd   Thumb Code    56  os_core.o(i.OS_TaskBlock)
    OS_TaskDbgListAdd                        0x08005e35   Thumb Code    42  os_task.o(i.OS_TaskDbgListAdd)
    OS_TaskDbgListRemove                     0x08005e65   Thumb Code    64  os_task.o(i.OS_TaskDbgListRemove)
    OS_TaskInit                              0x08005ea9   Thumb Code    18  os_task.o(i.OS_TaskInit)
    OS_TaskInitTCB                           0x08005ec9   Thumb Code   194  os_task.o(i.OS_TaskInitTCB)
    OS_TaskQPost                             0x08005f99   Thumb Code   606  os_task.o(i.OS_TaskQPost)
    OS_TaskRdy                               0x08006205   Thumb Code    28  os_core.o(i.OS_TaskRdy)
    OS_TaskResume                            0x08006221   Thumb Code   374  os_task.o(i.OS_TaskResume)
    OS_TaskReturn                            0x0800639d   Thumb Code    20  os_task.o(i.OS_TaskReturn)
    OS_TaskSemPost                           0x080063b5   Thumb Code  1438  os_task.o(i.OS_TaskSemPost)
    OS_TaskSuspend                           0x0800695d   Thumb Code   392  os_task.o(i.OS_TaskSuspend)
    OS_TickListInit                          0x08006aed   Thumb Code    32  os_tick.o(i.OS_TickListInit)
    OS_TickListInsert                        0x08006b15   Thumb Code   430  os_tick.o(i.OS_TickListInsert)
    OS_TickListRemove                        0x08006cd1   Thumb Code    56  os_tick.o(i.OS_TickListRemove)
    OS_TickListResetPeak                     0x08006d09   Thumb Code    28  os_tick.o(i.OS_TickListResetPeak)
    OS_TickListUpdate                        0x08006d2d   Thumb Code   520  os_tick.o(i.OS_TickListUpdate)
    OS_TickTask                              0x08006f4d   Thumb Code    38  os_tick.o(i.OS_TickTask)
    OS_TickTaskInit                          0x08006f79   Thumb Code   128  os_tick.o(i.OS_TickTaskInit)
    OS_TmrInit                               0x08007031   Thumb Code   206  os_tmr.o(i.OS_TmrInit)
    OS_TmrLink                               0x08007159   Thumb Code   196  os_tmr.o(i.OS_TmrLink)
    OS_TmrResetPeak                          0x08007229   Thumb Code    28  os_tmr.o(i.OS_TmrResetPeak)
    OS_TmrTask                               0x0800724d   Thumb Code   176  os_tmr.o(i.OS_TmrTask)
    OS_TmrUnlink                             0x0800730d   Thumb Code    72  os_tmr.o(i.OS_TmrUnlink)
    PlayMusic_birthday                       0x0800735d   Thumb Code   104  bsp_beep.o(i.PlayMusic_birthday)
    SVC_Handler                              0x080073cd   Thumb Code     2  stm32f10x_it.o(i.SVC_Handler)
    TFTLCD_FSMC_Init                         0x080073cf   Thumb Code   126  tftlcd.o(i.TFTLCD_FSMC_Init)
    TFTLCD_GPIO_Init                         0x0800744d   Thumb Code   130  tftlcd.o(i.TFTLCD_GPIO_Init)
    TFTLCD_Init                              0x080074e5   Thumb Code   492  tftlcd.o(i.TFTLCD_Init)
    USARTx_Config                            0x080076d9   Thumb Code   120  bsp_usart1.o(i.USARTx_Config)
    UsageFault_Handler                       0x08007759   Thumb Code     4  stm32f10x_it.o(i.UsageFault_Handler)
    __scatterload_copy                       0x0800775d   Thumb Code    14  handlers.o(i.__scatterload_copy)
    __scatterload_null                       0x0800776b   Thumb Code     2  handlers.o(i.__scatterload_null)
    __scatterload_zeroinit                   0x0800776d   Thumb Code    14  handlers.o(i.__scatterload_zeroinit)
    __set_errno                              0x0800777d   Thumb Code     6  errno.o(i.__set_errno)
    delay_ms                                 0x08007789   Thumb Code    28  tftlcd.o(i.delay_ms)
    main                                     0x080077a5   Thumb Code    68  main.o(i.main)
    sqrt                                     0x08007805   Thumb Code    76  sqrt.o(i.sqrt)
    ascii_1206                               0x08007850   Data        1140  tftlcd.o(.constdata)
    ascii_1608                               0x08007cc4   Data        1520  tftlcd.o(.constdata)
    ascii_2412                               0x080082b4   Data        3420  tftlcd.o(.constdata)
    ascii_3216                               0x08009010   Data       12160  tftlcd.o(.constdata)
    CnChar32x29                              0x0800bf90   Data        2360  tftlcd.o(.constdata)
    OSCfg_IdleTaskStkBasePtr                 0x0800c940   Data           4  os_cfg_app.o(.constdata)
    OSCfg_IdleTaskStkLimit                   0x0800c944   Data           4  os_cfg_app.o(.constdata)
    OSCfg_IdleTaskStkSize                    0x0800c948   Data           4  os_cfg_app.o(.constdata)
    OSCfg_IdleTaskStkSizeRAM                 0x0800c94c   Data           4  os_cfg_app.o(.constdata)
    OSCfg_IntQBasePtr                        0x0800c950   Data           4  os_cfg_app.o(.constdata)
    OSCfg_IntQSize                           0x0800c954   Data           2  os_cfg_app.o(.constdata)
    OSCfg_IntQSizeRAM                        0x0800c958   Data           4  os_cfg_app.o(.constdata)
    OSCfg_IntQTaskStkBasePtr                 0x0800c95c   Data           4  os_cfg_app.o(.constdata)
    OSCfg_IntQTaskStkLimit                   0x0800c960   Data           4  os_cfg_app.o(.constdata)
    OSCfg_IntQTaskStkSize                    0x0800c964   Data           4  os_cfg_app.o(.constdata)
    OSCfg_IntQTaskStkSizeRAM                 0x0800c968   Data           4  os_cfg_app.o(.constdata)
    OSCfg_ISRStkBasePtr                      0x0800c96c   Data           4  os_cfg_app.o(.constdata)
    OSCfg_ISRStkSize                         0x0800c970   Data           4  os_cfg_app.o(.constdata)
    OSCfg_ISRStkSizeRAM                      0x0800c974   Data           4  os_cfg_app.o(.constdata)
    OSCfg_MsgPoolSize                        0x0800c978   Data           2  os_cfg_app.o(.constdata)
    OSCfg_MsgPoolSizeRAM                     0x0800c97c   Data           4  os_cfg_app.o(.constdata)
    OSCfg_MsgPoolBasePtr                     0x0800c980   Data           4  os_cfg_app.o(.constdata)
    OSCfg_StatTaskPrio                       0x0800c984   Data           1  os_cfg_app.o(.constdata)
    OSCfg_StatTaskRate_Hz                    0x0800c988   Data           4  os_cfg_app.o(.constdata)
    OSCfg_StatTaskStkBasePtr                 0x0800c98c   Data           4  os_cfg_app.o(.constdata)
    OSCfg_StatTaskStkLimit                   0x0800c990   Data           4  os_cfg_app.o(.constdata)
    OSCfg_StatTaskStkSize                    0x0800c994   Data           4  os_cfg_app.o(.constdata)
    OSCfg_StatTaskStkSizeRAM                 0x0800c998   Data           4  os_cfg_app.o(.constdata)
    OSCfg_StkSizeMin                         0x0800c99c   Data           4  os_cfg_app.o(.constdata)
    OSCfg_TickRate_Hz                        0x0800c9a0   Data           4  os_cfg_app.o(.constdata)
    OSCfg_TickTaskPrio                       0x0800c9a4   Data           1  os_cfg_app.o(.constdata)
    OSCfg_TickTaskStkBasePtr                 0x0800c9a8   Data           4  os_cfg_app.o(.constdata)
    OSCfg_TickTaskStkLimit                   0x0800c9ac   Data           4  os_cfg_app.o(.constdata)
    OSCfg_TickTaskStkSize                    0x0800c9b0   Data           4  os_cfg_app.o(.constdata)
    OSCfg_TickTaskStkSizeRAM                 0x0800c9b4   Data           4  os_cfg_app.o(.constdata)
    OSCfg_TickWheelSize                      0x0800c9b8   Data           2  os_cfg_app.o(.constdata)
    OSCfg_TickWheelSizeRAM                   0x0800c9bc   Data           4  os_cfg_app.o(.constdata)
    OSCfg_TmrTaskPrio                        0x0800c9c0   Data           1  os_cfg_app.o(.constdata)
    OSCfg_TmrTaskRate_Hz                     0x0800c9c4   Data           4  os_cfg_app.o(.constdata)
    OSCfg_TmrTaskStkBasePtr                  0x0800c9c8   Data           4  os_cfg_app.o(.constdata)
    OSCfg_TmrTaskStkLimit                    0x0800c9cc   Data           4  os_cfg_app.o(.constdata)
    OSCfg_TmrTaskStkSize                     0x0800c9d0   Data           4  os_cfg_app.o(.constdata)
    OSCfg_TmrTaskStkSizeRAM                  0x0800c9d4   Data           4  os_cfg_app.o(.constdata)
    OSCfg_TmrWheelSize                       0x0800c9d8   Data           2  os_cfg_app.o(.constdata)
    OSCfg_TmrWheelSizeRAM                    0x0800c9dc   Data           4  os_cfg_app.o(.constdata)
    OSCfg_DataSizeRAM                        0x0800c9e0   Data           4  os_cfg_app.o(.constdata)
    OSDbg_DbgEn                              0x0800c9e4   Data           1  os_dbg.o(.constdata)
    OSDbg_ArgChkEn                           0x0800c9e5   Data           1  os_dbg.o(.constdata)
    OSDbg_AppHooksEn                         0x0800c9e6   Data           1  os_dbg.o(.constdata)
    OSDbg_EndiannessTest                     0x0800c9e8   Data           4  os_dbg.o(.constdata)
    OSDbg_CalledFromISRChkEn                 0x0800c9ec   Data           1  os_dbg.o(.constdata)
    OSDbg_FlagEn                             0x0800c9ed   Data           1  os_dbg.o(.constdata)
    OSDbg_FlagGrp                            0x0800c9f0   Data          40  os_dbg.o(.constdata)
    OSDbg_FlagDelEn                          0x0800ca18   Data           1  os_dbg.o(.constdata)
    OSDbg_FlagModeClrEn                      0x0800ca19   Data           1  os_dbg.o(.constdata)
    OSDbg_FlagPendAbortEn                    0x0800ca1a   Data           1  os_dbg.o(.constdata)
    OSDbg_FlagGrpSize                        0x0800ca1c   Data           2  os_dbg.o(.constdata)
    OSDbg_FlagWidth                          0x0800ca1e   Data           2  os_dbg.o(.constdata)
    OSDbg_IntQ                               0x0800ca20   Data           2  os_dbg.o(.constdata)
    OSDbg_ISRPostDeferredEn                  0x0800ca22   Data           1  os_dbg.o(.constdata)
    OSDbg_Mem                                0x0800ca24   Data          32  os_dbg.o(.constdata)
    OSDbg_MemEn                              0x0800ca44   Data           1  os_dbg.o(.constdata)
    OSDbg_MemSize                            0x0800ca46   Data           2  os_dbg.o(.constdata)
    OSDbg_MsgEn                              0x0800ca48   Data           1  os_dbg.o(.constdata)
    OSDbg_MsgSize                            0x0800ca4a   Data           2  os_dbg.o(.constdata)
    OSDbg_MsgPoolSize                        0x0800ca4c   Data           2  os_dbg.o(.constdata)
    OSDbg_MsgQSize                           0x0800ca4e   Data           2  os_dbg.o(.constdata)
    OSDbg_Mutex                              0x0800ca50   Data          44  os_dbg.o(.constdata)
    OSDbg_MutexEn                            0x0800ca7c   Data           1  os_dbg.o(.constdata)
    OSDbg_MutexDelEn                         0x0800ca7d   Data           1  os_dbg.o(.constdata)
    OSDbg_MutexPendAbortEn                   0x0800ca7e   Data           1  os_dbg.o(.constdata)
    OSDbg_MutexSize                          0x0800ca80   Data           2  os_dbg.o(.constdata)
    OSDbg_ObjTypeChkEn                       0x0800ca82   Data           1  os_dbg.o(.constdata)
    OSDbg_PendMultiEn                        0x0800ca83   Data           1  os_dbg.o(.constdata)
    OSDbg_PendDataSize                       0x0800ca84   Data           2  os_dbg.o(.constdata)
    OSDbg_PendListSize                       0x0800ca86   Data           2  os_dbg.o(.constdata)
    OSDbg_PendObjSize                        0x0800ca88   Data           2  os_dbg.o(.constdata)
    OSDbg_PrioMax                            0x0800ca8a   Data           2  os_dbg.o(.constdata)
    OSDbg_PrioTblSize                        0x0800ca8c   Data           2  os_dbg.o(.constdata)
    OSDbg_PtrSize                            0x0800ca8e   Data           2  os_dbg.o(.constdata)
    OSDbg_Q                                  0x0800ca90   Data          48  os_dbg.o(.constdata)
    OSDbg_QEn                                0x0800cac0   Data           1  os_dbg.o(.constdata)
    OSDbg_QDelEn                             0x0800cac1   Data           1  os_dbg.o(.constdata)
    OSDbg_QFlushEn                           0x0800cac2   Data           1  os_dbg.o(.constdata)
    OSDbg_QPendAbortEn                       0x0800cac3   Data           1  os_dbg.o(.constdata)
    OSDbg_QSize                              0x0800cac4   Data           2  os_dbg.o(.constdata)
    OSDbg_SchedRoundRobinEn                  0x0800cac6   Data           1  os_dbg.o(.constdata)
    OSDbg_Sem                                0x0800cac8   Data          40  os_dbg.o(.constdata)
    OSDbg_SemEn                              0x0800caf0   Data           1  os_dbg.o(.constdata)
    OSDbg_SemDelEn                           0x0800caf1   Data           1  os_dbg.o(.constdata)
    OSDbg_SemPendAbortEn                     0x0800caf2   Data           1  os_dbg.o(.constdata)
    OSDbg_SemSetEn                           0x0800caf3   Data           1  os_dbg.o(.constdata)
    OSDbg_SemSize                            0x0800caf4   Data           2  os_dbg.o(.constdata)
    OSDbg_RdyList                            0x0800caf6   Data           2  os_dbg.o(.constdata)
    OSDbg_RdyListSize                        0x0800caf8   Data           4  os_dbg.o(.constdata)
    OSDbg_StkWidth                           0x0800cafc   Data           1  os_dbg.o(.constdata)
    OSDbg_StatTaskEn                         0x0800cafd   Data           1  os_dbg.o(.constdata)
    OSDbg_StatTaskStkChkEn                   0x0800cafe   Data           1  os_dbg.o(.constdata)
    OSDbg_TaskChangePrioEn                   0x0800caff   Data           1  os_dbg.o(.constdata)
    OSDbg_TaskDelEn                          0x0800cb00   Data           1  os_dbg.o(.constdata)
    OSDbg_TaskQEn                            0x0800cb01   Data           1  os_dbg.o(.constdata)
    OSDbg_TaskQPendAbortEn                   0x0800cb02   Data           1  os_dbg.o(.constdata)
    OSDbg_TaskProfileEn                      0x0800cb03   Data           1  os_dbg.o(.constdata)
    OSDbg_TaskRegTblSize                     0x0800cb04   Data           2  os_dbg.o(.constdata)
    OSDbg_TaskSemPendAbortEn                 0x0800cb06   Data           1  os_dbg.o(.constdata)
    OSDbg_TaskSuspendEn                      0x0800cb07   Data           1  os_dbg.o(.constdata)
    OSDbg_TCBSize                            0x0800cb08   Data           2  os_dbg.o(.constdata)
    OSDbg_TickSpokeSize                      0x0800cb0a   Data           2  os_dbg.o(.constdata)
    OSDbg_TimeDlyHMSMEn                      0x0800cb0c   Data           1  os_dbg.o(.constdata)
    OSDbg_TimeDlyResumeEn                    0x0800cb0d   Data           1  os_dbg.o(.constdata)
    OSDbg_TLS_TblSize                        0x0800cb0e   Data           2  os_dbg.o(.constdata)
    OSDbg_Tmr                                0x0800cb10   Data          52  os_dbg.o(.constdata)
    OSDbg_TmrEn                              0x0800cb44   Data           1  os_dbg.o(.constdata)
    OSDbg_TmrDelEn                           0x0800cb45   Data           1  os_dbg.o(.constdata)
    OSDbg_TmrSize                            0x0800cb46   Data           2  os_dbg.o(.constdata)
    OSDbg_TmrSpokeSize                       0x0800cb48   Data           2  os_dbg.o(.constdata)
    OSDbg_VersionNbr                         0x0800cb4a   Data           2  os_dbg.o(.constdata)
    OSDbg_DataSize                           0x0800cb4c   Data           4  os_dbg.o(.constdata)
    Region$$Table$$Base                      0x0800cb50   Number         0  anon$$obj.o(Region$$Table)
    Region$$Table$$Limit                     0x0800cb70   Number         0  anon$$obj.o(Region$$Table)
    second                                   0x20000000   Data           1  main.o(.data)
    m_second                                 0x20000001   Data           1  main.o(.data)
    flag                                     0x20000002   Data           1  main.o(.data)
    key                                      0x20000004   Data           4  main.o(.data)
    led_num                                  0x20000008   Data           1  main.o(.data)
    UI_i                                     0x20000028   Data           4  main.o(.data)
    start_flag                               0x2000002d   Data           1  main.o(.data)
    more_time                                0x2000002e   Data           1  main.o(.data)
    beep_flag                                0x2000002f   Data           1  main.o(.data)
    beep_time                                0x20000030   Data           4  main.o(.data)
    frq                                      0x20000034   Data           2  main.o(.data)
    tone                                     0x20000036   Data          16  main.o(.data)
    music                                    0x20000046   Data          50  main.o(.data)
    time                                     0x20000078   Data          50  main.o(.data)
    yanshi                                   0x200000ac   Data           4  main.o(.data)
    i                                        0x200000b0   Data           2  main.o(.data)
    e                                        0x200000b2   Data           2  main.o(.data)
    boom_i                                   0x200000b4   Data           1  main.o(.data)
    FRONT_COLOR                              0x200000ba   Data           2  tftlcd.o(.data)
    BACK_COLOR                               0x200000bc   Data           2  tftlcd.o(.data)
    tftlcd_data                              0x200000be   Data           8  tftlcd.o(.data)
    SystemCoreClock                          0x200000c8   Data           4  system_stm32f10x.o(.data)
    AHBPrescTable                            0x200000cc   Data          16  system_stm32f10x.o(.data)
    CPU_TS_TmrFreq_Hz                        0x200000f0   Data           4  cpu_core.o(.data)
    CPU_IntDisMeasCtr                        0x200000f4   Data           2  cpu_core.o(.data)
    CPU_IntDisNestCtr                        0x200000f6   Data           2  cpu_core.o(.data)
    CPU_IntDisMeasStart_cnts                 0x200000f8   Data           4  cpu_core.o(.data)
    CPU_IntDisMeasStop_cnts                  0x200000fc   Data           4  cpu_core.o(.data)
    CPU_IntDisMeasOvrhd_cnts                 0x20000100   Data           4  cpu_core.o(.data)
    CPU_IntDisMeasMaxCur_cnts                0x20000104   Data           4  cpu_core.o(.data)
    CPU_IntDisMeasMax_cnts                   0x20000108   Data           4  cpu_core.o(.data)
    Mem_PoolTbl                              0x2000010c   Data           4  lib_mem.o(.data)
    OS_AppTaskCreateHookPtr                  0x20000110   Data           4  os_var.o(.data)
    OS_AppTaskDelHookPtr                     0x20000114   Data           4  os_var.o(.data)
    OS_AppTaskReturnHookPtr                  0x20000118   Data           4  os_var.o(.data)
    OS_AppIdleTaskHookPtr                    0x2000011c   Data           4  os_var.o(.data)
    OS_AppStatTaskHookPtr                    0x20000120   Data           4  os_var.o(.data)
    OS_AppTaskSwHookPtr                      0x20000124   Data           4  os_var.o(.data)
    OS_AppTimeTickHookPtr                    0x20000128   Data           4  os_var.o(.data)
    OSIdleTaskCtr                            0x2000012c   Data           4  os_var.o(.data)
    OSIntNestingCtr                          0x20000130   Data           1  os_var.o(.data)
    OSIntDisTimeMax                          0x20000134   Data           4  os_var.o(.data)
    OSRunning                                0x20000138   Data           1  os_var.o(.data)
    OSIntQInPtr                              0x2000013c   Data           4  os_var.o(.data)
    OSIntQOutPtr                             0x20000140   Data           4  os_var.o(.data)
    OSIntQNbrEntries                         0x20000144   Data           2  os_var.o(.data)
    OSIntQNbrEntriesMax                      0x20000146   Data           2  os_var.o(.data)
    OSIntQOvfCtr                             0x20000148   Data           2  os_var.o(.data)
    OSIntQTaskTimeMax                        0x2000014c   Data           4  os_var.o(.data)
    OSFlagDbgListPtr                         0x20000150   Data           4  os_var.o(.data)
    OSFlagQty                                0x20000154   Data           2  os_var.o(.data)
    OSMemDbgListPtr                          0x20000158   Data           4  os_var.o(.data)
    OSMemQty                                 0x2000015c   Data           2  os_var.o(.data)
    OSMutexDbgListPtr                        0x20000160   Data           4  os_var.o(.data)
    OSMutexQty                               0x20000164   Data           2  os_var.o(.data)
    OSPrioCur                                0x20000166   Data           1  os_var.o(.data)
    OSPrioHighRdy                            0x20000167   Data           1  os_var.o(.data)
    OSPrioSaved                              0x20000168   Data           1  os_var.o(.data)
    OSQDbgListPtr                            0x2000016c   Data           4  os_var.o(.data)
    OSQQty                                   0x20000170   Data           2  os_var.o(.data)
    OSSchedLockTimeBegin                     0x20000174   Data           4  os_var.o(.data)
    OSSchedLockTimeMax                       0x20000178   Data           4  os_var.o(.data)
    OSSchedLockTimeMaxCur                    0x2000017c   Data           4  os_var.o(.data)
    OSSchedLockNestingCtr                    0x20000180   Data           1  os_var.o(.data)
    OSSchedRoundRobinDfltTimeQuanta          0x20000184   Data           4  os_var.o(.data)
    OSSchedRoundRobinEn                      0x20000188   Data           1  os_var.o(.data)
    OSSemDbgListPtr                          0x2000018c   Data           4  os_var.o(.data)
    OSSemQty                                 0x20000190   Data           2  os_var.o(.data)
    OSStatResetFlag                          0x20000192   Data           1  os_var.o(.data)
    OSStatTaskCPUUsage                       0x20000194   Data           2  os_var.o(.data)
    OSStatTaskCPUUsageMax                    0x20000196   Data           2  os_var.o(.data)
    OSStatTaskCtr                            0x20000198   Data           4  os_var.o(.data)
    OSStatTaskCtrMax                         0x2000019c   Data           4  os_var.o(.data)
    OSStatTaskCtrRun                         0x200001a0   Data           4  os_var.o(.data)
    OSStatTaskRdy                            0x200001a4   Data           1  os_var.o(.data)
    OSStatTaskTimeMax                        0x200001a8   Data           4  os_var.o(.data)
    OSTaskCtxSwCtr                           0x200001ac   Data           4  os_var.o(.data)
    OSTaskDbgListPtr                         0x200001b0   Data           4  os_var.o(.data)
    OSTaskQty                                0x200001b4   Data           2  os_var.o(.data)
    OSTaskRegNextAvailID                     0x200001b6   Data           1  os_var.o(.data)
    OSTickCtr                                0x200001b8   Data           4  os_var.o(.data)
    OSTickTaskTimeMax                        0x200001bc   Data           4  os_var.o(.data)
    OSTmrDbgListPtr                          0x200001c0   Data           4  os_var.o(.data)
    OSTmrQty                                 0x200001c4   Data           2  os_var.o(.data)
    OSTmrTaskTimeMax                         0x200001c8   Data           4  os_var.o(.data)
    OSTmrTickCtr                             0x200001cc   Data           4  os_var.o(.data)
    OSTmrUpdateCnt                           0x200001d0   Data           4  os_var.o(.data)
    OSTmrUpdateCtr                           0x200001d4   Data           4  os_var.o(.data)
    OSTCBCurPtr                              0x200001d8   Data           4  os_var.o(.data)
    OSTCBHighRdyPtr                          0x200001dc   Data           4  os_var.o(.data)
    OS_CPU_ExceptStkBase                     0x200001e0   Data           4  os_cpu_c.o(.data)
    OSPrioTbl                                0x200001e4   Data           4  os_prio.o(.data)
    CPU_Name                                 0x20001f10   Data          16  cpu_core.o(.bss)
    Mem_PoolHeap                             0x20001f20   Data          72  lib_mem.o(.bss)
    Mem_Heap                                 0x20001f68   Data       27648  lib_mem.o(.bss)
    OSCfg_IdleTaskStk                        0x20008b68   Data         512  os_cfg_app.o(.bss)
    OSCfg_IntQ                               0x20008d68   Data         320  os_cfg_app.o(.bss)
    OSCfg_IntQTaskStk                        0x20008ea8   Data         512  os_cfg_app.o(.bss)
    OSCfg_ISRStk                             0x200090a8   Data         512  os_cfg_app.o(.bss)
    OSCfg_MsgPool                            0x200092a8   Data        1600  os_cfg_app.o(.bss)
    OSCfg_StatTaskStk                        0x200098e8   Data         512  os_cfg_app.o(.bss)
    OSCfg_TickTaskStk                        0x20009ae8   Data         512  os_cfg_app.o(.bss)
    OSCfg_TickWheel                          0x20009ce8   Data         136  os_cfg_app.o(.bss)
    OSCfg_TmrTaskStk                         0x20009d70   Data         512  os_cfg_app.o(.bss)
    OSCfg_TmrWheel                           0x20009f70   Data         136  os_cfg_app.o(.bss)
    OSIdleTaskTCB                            0x20009ff8   Data         200  os_var.o(.bss)
    OSIntQTaskTCB                            0x2000a0c0   Data         200  os_var.o(.bss)
    OSMsgPool                                0x2000a188   Data          12  os_var.o(.bss)
    OSRdyList                                0x2000a194   Data         384  os_var.o(.bss)
    OSStatTaskTCB                            0x2000a314   Data         200  os_var.o(.bss)
    OSTickTaskTCB                            0x2000a3dc   Data         200  os_var.o(.bss)
    OSTmrTaskTCB                             0x2000a4a4   Data         200  os_var.o(.bss)
    __initial_sp                             0x2000a970   Data           0  startup_stm32f10x_hd.o(STACK)



==============================================================================

Memory Map of the image

  Image Entry point : 0x08000131

  Load Region LR_IROM1 (Base: 0x08000000, Size: 0x0000cd60, Max: 0x00080000, ABSOLUTE, COMPRESSED[0x0000cbd8])

    Execution Region ER_IROM1 (Exec base: 0x08000000, Load base: 0x08000000, Size: 0x0000cb70, Max: 0x00080000, ABSOLUTE)

    Exec Addr    Load Addr    Size         Type   Attr      Idx    E Section Name        Object

    0x08000000   0x08000000   0x00000130   Data   RO            3    RESET               startup_stm32f10x_hd.o
    0x08000130   0x08000130   0x00000000   Code   RO         2695  * .ARM.Collect$$$$00000000  mc_w.l(entry.o)
    0x08000130   0x08000130   0x00000004   Code   RO         2715    .ARM.Collect$$$$00000001  mc_w.l(entry2.o)
    0x08000134   0x08000134   0x00000004   Code   RO         2718    .ARM.Collect$$$$00000004  mc_w.l(entry5.o)
    0x08000138   0x08000138   0x00000000   Code   RO         2720    .ARM.Collect$$$$00000008  mc_w.l(entry7b.o)
    0x08000138   0x08000138   0x00000000   Code   RO         2722    .ARM.Collect$$$$0000000A  mc_w.l(entry8b.o)
    0x08000138   0x08000138   0x00000008   Code   RO         2723    .ARM.Collect$$$$0000000B  mc_w.l(entry9a.o)
    0x08000140   0x08000140   0x00000004   Code   RO         2730    .ARM.Collect$$$$0000000E  mc_w.l(entry12b.o)
    0x08000144   0x08000144   0x00000000   Code   RO         2725    .ARM.Collect$$$$0000000F  mc_w.l(entry10a.o)
    0x08000144   0x08000144   0x00000000   Code   RO         2727    .ARM.Collect$$$$00000011  mc_w.l(entry11a.o)
    0x08000144   0x08000144   0x00000004   Code   RO         2716    .ARM.Collect$$$$00002712  mc_w.l(entry2.o)
    0x08000148   0x08000148   0x00000024   Code   RO            4    .text               startup_stm32f10x_hd.o
    0x0800016c   0x0800016c   0x000001dc   Code   RO          734    .text               stm32f10x_hd.lib(system_stm32f10x.o)
    0x08000348   0x08000348   0x00000358   Code   RO          834    .text               stm32f10x_hd.lib(stm32f10x_gpio.o)
    0x080006a0   0x080006a0   0x000003a4   Code   RO          869    .text               stm32f10x_hd.lib(stm32f10x_rcc.o)
    0x08000a44   0x08000a44   0x00000618   Code   RO          883    .text               stm32f10x_hd.lib(stm32f10x_fsmc.o)
    0x0800105c   0x0800105c   0x00000408   Code   RO          895    .text               stm32f10x_hd.lib(stm32f10x_usart.o)
    0x08001464   0x08001464   0x00000034   Code   RO         1097    .text               UCOSIII.lib(cpu_a.o)
    0x08001498   0x08001498   0x00000024   Code   RO         2698    .text               mc_w.l(rand.o)
    0x080014bc   0x080014bc   0x00000024   Code   RO         2701    .text               mc_w.l(memcpya.o)
    0x080014e0   0x080014e0   0x00000022   Code   RO         2707    .text               mf_w.l(dflti.o)
    0x08001502   0x08001502   0x00000002   PAD
    0x08001504   0x08001504   0x00000030   Code   RO         2713    .text               mf_w.l(cdcmple.o)
    0x08001534   0x08001534   0x00000020   Code   RO         2731    .text               mc_w.l(llushr.o)
    0x08001554   0x08001554   0x00000000   Code   RO         2740    .text               mc_w.l(iusefp.o)
    0x08001554   0x08001554   0x000000ba   Code   RO         2741    .text               mf_w.l(depilogue.o)
    0x0800160e   0x0800160e   0x000000a2   Code   RO         2743    .text               mf_w.l(dsqrt.o)
    0x080016b0   0x080016b0   0x00000024   Code   RO         2745    .text               mc_w.l(init.o)
    0x080016d4   0x080016d4   0x0000001e   Code   RO         2747    .text               mc_w.l(llshl.o)
    0x080016f2   0x080016f2   0x00000056   Code   RO         2757    .text               mc_w.l(__dczerorl2.o)
    0x08001748   0x08001748   0x00000084   Code   RO         2579    CODE                UCOSIII.lib(os_cpu_a.o)
    0x080017cc   0x080017cc   0x00000344   Code   RO           10    i.AppTaskLed1       main.o
    0x08001b10   0x08001b10   0x0000018c   Code   RO           11    i.AppTaskLed2       main.o
    0x08001c9c   0x08001c9c   0x00000100   Code   RO           12    i.AppTaskLed3       main.o
    0x08001d9c   0x08001d9c   0x00000130   Code   RO           13    i.AppTaskStart      main.o
    0x08001ecc   0x08001ecc   0x00000038   Code   RO          714    i.BEEP_Init         bsp_beep.o
    0x08001f04   0x08001f04   0x00000010   Code   RO          367    i.BSP_CPU_ClkFreq   bsp.o
    0x08001f14   0x08001f14   0x00000024   Code   RO          368    i.BSP_Init          bsp.o
    0x08001f38   0x08001f38   0x00000004   Code   RO          304    i.BusFault_Handler  stm32f10x_it.o
    0x08001f3c   0x08001f3c   0x00000010   Code   RO          915    i.CPU_Init          UCOSIII.lib(cpu_core.o)
    0x08001f4c   0x08001f4c   0x00000084   Code   RO          916    i.CPU_IntDisMeasInit  UCOSIII.lib(cpu_core.o)
    0x08001fd0   0x08001fd0   0x0000001c   Code   RO          917    i.CPU_IntDisMeasMaxCalc  UCOSIII.lib(cpu_core.o)
    0x08001fec   0x08001fec   0x0000002c   Code   RO          918    i.CPU_IntDisMeasMaxCurGet  UCOSIII.lib(cpu_core.o)
    0x08002018   0x08002018   0x0000002c   Code   RO          919    i.CPU_IntDisMeasMaxCurReset  UCOSIII.lib(cpu_core.o)
    0x08002044   0x08002044   0x0000002c   Code   RO          920    i.CPU_IntDisMeasMaxGet  UCOSIII.lib(cpu_core.o)
    0x08002070   0x08002070   0x00000034   Code   RO          921    i.CPU_IntDisMeasStart  UCOSIII.lib(cpu_core.o)
    0x080020a4   0x080020a4   0x00000054   Code   RO          922    i.CPU_IntDisMeasStop  UCOSIII.lib(cpu_core.o)
    0x080020f8   0x080020f8   0x00000038   Code   RO          923    i.CPU_NameClr       UCOSIII.lib(cpu_core.o)
    0x08002130   0x08002130   0x00000008   Code   RO          925    i.CPU_NameInit      UCOSIII.lib(cpu_core.o)
    0x08002138   0x08002138   0x00000014   Code   RO          929    i.CPU_TS_Init       UCOSIII.lib(cpu_core.o)
    0x0800214c   0x0800214c   0x0000000c   Code   RO          931    i.CPU_TS_TmrFreqSet  UCOSIII.lib(cpu_core.o)
    0x08002158   0x08002158   0x00000034   Code   RO          369    i.CPU_TS_TmrInit    bsp.o
    0x0800218c   0x0800218c   0x0000000c   Code   RO          370    i.CPU_TS_TmrRd      bsp.o
    0x08002198   0x08002198   0x00000002   Code   RO          305    i.DebugMon_Handler  stm32f10x_it.o
    0x0800219a   0x0800219a   0x00000004   Code   RO          306    i.HardFault_Handler  stm32f10x_it.o
    0x0800219e   0x0800219e   0x00000002   PAD
    0x080021a0   0x080021a0   0x00000024   Code   RO          462    i.Key1_Config       bsp_key.o
    0x080021c4   0x080021c4   0x00000024   Code   RO          463    i.Key2_Config       bsp_key.o
    0x080021e8   0x080021e8   0x00000024   Code   RO          464    i.Key3_Config       bsp_key.o
    0x0800220c   0x0800220c   0x00000014   Code   RO          465    i.Key_Initial       bsp_key.o
    0x08002220   0x08002220   0x00000058   Code   RO          467    i.Key_Scan          bsp_key.o
    0x08002278   0x08002278   0x00000024   Code   RO          468    i.Key_up_Config     bsp_key.o
    0x0800229c   0x0800229c   0x00000048   Code   RO          506    i.LCD_Clear         tftlcd.o
    0x080022e4   0x080022e4   0x00000058   Code   RO          508    i.LCD_Display_Dir   tftlcd.o
    0x0800233c   0x0800233c   0x0000001c   Code   RO          509    i.LCD_DrawFRONT_COLOR  tftlcd.o
    0x08002358   0x08002358   0x000000b0   Code   RO          510    i.LCD_DrawLine      tftlcd.o
    0x08002408   0x08002408   0x00000020   Code   RO          512    i.LCD_DrawPoint     tftlcd.o
    0x08002428   0x08002428   0x0000003c   Code   RO          513    i.LCD_DrawRectangle  tftlcd.o
    0x08002464   0x08002464   0x00000098   Code   RO          514    i.LCD_Draw_Circle   tftlcd.o
    0x080024fc   0x080024fc   0x00000084   Code   RO          515    i.LCD_DrowSign      tftlcd.o
    0x08002580   0x08002580   0x0000005c   Code   RO          516    i.LCD_Fill          tftlcd.o
    0x080025dc   0x080025dc   0x00000016   Code   RO          517    i.LCD_Pow           tftlcd.o
    0x080025f2   0x080025f2   0x000000a6   Code   RO          522    i.LCD_Set_Window    tftlcd.o
    0x08002698   0x08002698   0x00000128   Code   RO          523    i.LCD_ShowChar      tftlcd.o
    0x080027c0   0x080027c0   0x000000e8   Code   RO          524    i.LCD_ShowFontHZ    tftlcd.o
    0x080028a8   0x080028a8   0x00000066   Code   RO          527    i.LCD_ShowString    tftlcd.o
    0x0800290e   0x0800290e   0x000000be   Code   RO          528    i.LCD_ShowxNum      tftlcd.o
    0x080029cc   0x080029cc   0x00000134   Code   RO           14    i.LCD_UI            main.o
    0x08002b00   0x08002b00   0x0000000c   Code   RO          529    i.LCD_WriteCmd      tftlcd.o
    0x08002b0c   0x08002b0c   0x00000014   Code   RO          530    i.LCD_WriteCmdData  tftlcd.o
    0x08002b20   0x08002b20   0x0000000c   Code   RO          531    i.LCD_WriteData     tftlcd.o
    0x08002b2c   0x08002b2c   0x00000010   Code   RO          532    i.LCD_WriteData_Color  tftlcd.o
    0x08002b3c   0x08002b3c   0x0000002c   Code   RO          533    i.LCD_balloon       tftlcd.o
    0x08002b68   0x08002b68   0x00000078   Code   RO          439    i.LED_GPIO_Config   bsp_led.o
    0x08002be0   0x08002be0   0x00000024   Code   RO          440    i.LED_Init          bsp_led.o
    0x08002c04   0x08002c04   0x00000084   Code   RO          441    i.LED_guan          bsp_led.o
    0x08002c88   0x08002c88   0x00000004   Code   RO          307    i.MemManage_Handler  stm32f10x_it.o
    0x08002c8c   0x08002c8c   0x00000012   Code   RO         1100    i.Mem_Clr           UCOSIII.lib(lib_mem.o)
    0x08002c9e   0x08002c9e   0x00000002   PAD
    0x08002ca0   0x08002ca0   0x00000048   Code   RO         1104    i.Mem_Init          UCOSIII.lib(lib_mem.o)
    0x08002ce8   0x08002ce8   0x00000062   Code   RO         1117    i.Mem_Set           UCOSIII.lib(lib_mem.o)
    0x08002d4a   0x08002d4a   0x00000002   Code   RO          308    i.NMI_Handler       stm32f10x_it.o
    0x08002d4c   0x08002d4c   0x00000002   Code   RO         1225    i.OSCfg_Init        UCOSIII.lib(os_cfg_app.o)
    0x08002d4e   0x08002d4e   0x00000002   PAD
    0x08002d50   0x08002d50   0x00000014   Code   RO         1765    i.OSIdleTaskHook    UCOSIII.lib(os_cpu_c.o)
    0x08002d64   0x08002d64   0x0000018c   Code   RO         1261    i.OSInit            UCOSIII.lib(os_core.o)
    0x08002ef0   0x08002ef0   0x00000038   Code   RO         1766    i.OSInitHook        UCOSIII.lib(os_cpu_c.o)
    0x08002f28   0x08002f28   0x000000e4   Code   RO         1263    i.OSIntExit         UCOSIII.lib(os_core.o)
    0x0800300c   0x0800300c   0x000000a8   Code   RO         1264    i.OSSched           UCOSIII.lib(os_core.o)
    0x080030b4   0x080030b4   0x0000007c   Code   RO         1265    i.OSSchedLock       UCOSIII.lib(os_core.o)
    0x08003130   0x08003130   0x0000006c   Code   RO         1266    i.OSSchedRoundRobinCfg  UCOSIII.lib(os_core.o)
    0x0800319c   0x0800319c   0x000000a0   Code   RO         1268    i.OSSchedUnlock     UCOSIII.lib(os_core.o)
    0x0800323c   0x0800323c   0x00000068   Code   RO         1269    i.OSStart           UCOSIII.lib(os_core.o)
    0x080032a4   0x080032a4   0x00000168   Code   RO         1511    i.OSStatReset       UCOSIII.lib(os_stat.o)
    0x0800340c   0x0800340c   0x00000100   Code   RO         1512    i.OSStatTaskCPUUsageInit  UCOSIII.lib(os_stat.o)
    0x0800350c   0x0800350c   0x00000014   Code   RO         1767    i.OSStatTaskHook    UCOSIII.lib(os_cpu_c.o)
    0x08003520   0x08003520   0x00000294   Code   RO         1542    i.OSTaskCreate      UCOSIII.lib(os_task.o)
    0x080037b4   0x080037b4   0x00000018   Code   RO         1768    i.OSTaskCreateHook  UCOSIII.lib(os_cpu_c.o)
    0x080037cc   0x080037cc   0x00000208   Code   RO         1543    i.OSTaskDel         UCOSIII.lib(os_task.o)
    0x080039d4   0x080039d4   0x00000018   Code   RO         1769    i.OSTaskDelHook     UCOSIII.lib(os_cpu_c.o)
    0x080039ec   0x080039ec   0x00000088   Code   RO         1551    i.OSTaskResume      UCOSIII.lib(os_task.o)
    0x08003a74   0x08003a74   0x00000018   Code   RO         1770    i.OSTaskReturnHook  UCOSIII.lib(os_cpu_c.o)
    0x08003a8c   0x08003a8c   0x00000250   Code   RO         1552    i.OSTaskSemPend     UCOSIII.lib(os_task.o)
    0x08003cdc   0x08003cdc   0x000000e4   Code   RO         1556    i.OSTaskStkChk      UCOSIII.lib(os_task.o)
    0x08003dc0   0x08003dc0   0x000000c0   Code   RO         1771    i.OSTaskStkInit     UCOSIII.lib(os_cpu_c.o)
    0x08003e80   0x08003e80   0x00000060   Code   RO         1557    i.OSTaskSuspend     UCOSIII.lib(os_task.o)
    0x08003ee0   0x08003ee0   0x000000a4   Code   RO         1772    i.OSTaskSwHook      UCOSIII.lib(os_cpu_c.o)
    0x08003f84   0x08003f84   0x00000150   Code   RO         1709    i.OSTimeDly         UCOSIII.lib(os_time.o)
    0x080040d4   0x080040d4   0x0000022c   Code   RO         1710    i.OSTimeDlyHMSM     UCOSIII.lib(os_time.o)
    0x08004300   0x08004300   0x00000044   Code   RO         1714    i.OSTimeTick        UCOSIII.lib(os_time.o)
    0x08004344   0x08004344   0x00000014   Code   RO         1773    i.OSTimeTickHook    UCOSIII.lib(os_cpu_c.o)
    0x08004358   0x08004358   0x00000040   Code   RO         1774    i.OS_CPU_SysTickHandler  UCOSIII.lib(os_cpu_c.o)
    0x08004398   0x08004398   0x00000030   Code   RO         1775    i.OS_CPU_SysTickInit  UCOSIII.lib(os_cpu_c.o)
    0x080043c8   0x080043c8   0x000001b4   Code   RO         1999    i.OS_Dbg_Init       UCOSIII.lib(os_dbg.o)
    0x0800457c   0x0800457c   0x00000018   Code   RO         2024    i.OS_FlagInit       UCOSIII.lib(os_flag.o)
    0x08004594   0x08004594   0x0000027c   Code   RO         2025    i.OS_FlagPost       UCOSIII.lib(os_flag.o)
    0x08004810   0x08004810   0x00000056   Code   RO         2026    i.OS_FlagTaskRdy    UCOSIII.lib(os_flag.o)
    0x08004866   0x08004866   0x00000002   PAD
    0x08004868   0x08004868   0x0000004c   Code   RO         1271    i.OS_IdleTask       UCOSIII.lib(os_core.o)
    0x080048b4   0x080048b4   0x00000070   Code   RO         1272    i.OS_IdleTaskInit   UCOSIII.lib(os_core.o)
    0x08004924   0x08004924   0x00000104   Code   RO         2098    i.OS_IntQPost       UCOSIII.lib(os_int.o)
    0x08004a28   0x08004a28   0x000001a4   Code   RO         2099    i.OS_IntQRePost     UCOSIII.lib(os_int.o)
    0x08004bcc   0x08004bcc   0x000000c8   Code   RO         2100    i.OS_IntQTask       UCOSIII.lib(os_int.o)
    0x08004c94   0x08004c94   0x00000128   Code   RO         2101    i.OS_IntQTaskInit   UCOSIII.lib(os_int.o)
    0x08004dbc   0x08004dbc   0x00000018   Code   RO         2132    i.OS_MemInit        UCOSIII.lib(os_mem.o)
    0x08004dd4   0x08004dd4   0x0000007c   Code   RO         2164    i.OS_MsgPoolInit    UCOSIII.lib(os_msg.o)
    0x08004e50   0x08004e50   0x00000044   Code   RO         2165    i.OS_MsgQFreeAll    UCOSIII.lib(os_msg.o)
    0x08004e94   0x08004e94   0x0000000e   Code   RO         2167    i.OS_MsgQInit       UCOSIII.lib(os_msg.o)
    0x08004ea2   0x08004ea2   0x00000002   PAD
    0x08004ea4   0x08004ea4   0x00000104   Code   RO         2168    i.OS_MsgQPut        UCOSIII.lib(os_msg.o)
    0x08004fa8   0x08004fa8   0x00000018   Code   RO         2208    i.OS_MutexInit      UCOSIII.lib(os_mutex.o)
    0x08004fc0   0x08004fc0   0x00000068   Code   RO         1273    i.OS_Pend           UCOSIII.lib(os_core.o)
    0x08005028   0x08005028   0x00000026   Code   RO         1276    i.OS_PendDataInit   UCOSIII.lib(os_core.o)
    0x0800504e   0x0800504e   0x00000002   PAD
    0x08005050   0x08005050   0x0000005c   Code   RO         1277    i.OS_PendDbgNameAdd  UCOSIII.lib(os_core.o)
    0x080050ac   0x080050ac   0x00000024   Code   RO         1278    i.OS_PendDbgNameRemove  UCOSIII.lib(os_core.o)
    0x080050d0   0x080050d0   0x00000066   Code   RO         1282    i.OS_PendListInsertPrio  UCOSIII.lib(os_core.o)
    0x08005136   0x08005136   0x00000030   Code   RO         1283    i.OS_PendListRemove  UCOSIII.lib(os_core.o)
    0x08005166   0x08005166   0x00000042   Code   RO         1284    i.OS_PendListRemove1  UCOSIII.lib(os_core.o)
    0x080051a8   0x080051a8   0x000000c0   Code   RO         1287    i.OS_Post           UCOSIII.lib(os_core.o)
    0x08005268   0x08005268   0x0000002a   Code   RO         1288    i.OS_Post1          UCOSIII.lib(os_core.o)
    0x08005292   0x08005292   0x00000002   PAD
    0x08005294   0x08005294   0x00000028   Code   RO         2260    i.OS_PrioGetHighest  UCOSIII.lib(os_prio.o)
    0x080052bc   0x080052bc   0x00000018   Code   RO         2261    i.OS_PrioInit       UCOSIII.lib(os_prio.o)
    0x080052d4   0x080052d4   0x00000024   Code   RO         2262    i.OS_PrioInsert     UCOSIII.lib(os_prio.o)
    0x080052f8   0x080052f8   0x00000024   Code   RO         2263    i.OS_PrioRemove     UCOSIII.lib(os_prio.o)
    0x0800531c   0x0800531c   0x00000018   Code   RO         2306    i.OS_QInit          UCOSIII.lib(os_q.o)
    0x08005334   0x08005334   0x00000188   Code   RO         2307    i.OS_QPost          UCOSIII.lib(os_q.o)
    0x080054bc   0x080054bc   0x00000024   Code   RO         1289    i.OS_RdyListInit    UCOSIII.lib(os_core.o)
    0x080054e0   0x080054e0   0x0000002c   Code   RO         1290    i.OS_RdyListInsert  UCOSIII.lib(os_core.o)
    0x0800550c   0x0800550c   0x00000040   Code   RO         1291    i.OS_RdyListInsertHead  UCOSIII.lib(os_core.o)
    0x0800554c   0x0800554c   0x0000003c   Code   RO         1292    i.OS_RdyListInsertTail  UCOSIII.lib(os_core.o)
    0x08005588   0x08005588   0x00000044   Code   RO         1293    i.OS_RdyListMoveHeadToTail  UCOSIII.lib(os_core.o)
    0x080055cc   0x080055cc   0x0000005c   Code   RO         1294    i.OS_RdyListRemove  UCOSIII.lib(os_core.o)
    0x08005628   0x08005628   0x0000005c   Code   RO         1295    i.OS_Sched0         UCOSIII.lib(os_core.o)
    0x08005684   0x08005684   0x0000001c   Code   RO         1296    i.OS_SchedLockTimeMeasStart  UCOSIII.lib(os_core.o)
    0x080056a0   0x080056a0   0x0000003c   Code   RO         1297    i.OS_SchedLockTimeMeasStop  UCOSIII.lib(os_core.o)
    0x080056dc   0x080056dc   0x000000ec   Code   RO         1298    i.OS_SchedRoundRobin  UCOSIII.lib(os_core.o)
    0x080057c8   0x080057c8   0x00000018   Code   RO         2378    i.OS_SemInit        UCOSIII.lib(os_sem.o)
    0x080057e0   0x080057e0   0x00000198   Code   RO         2379    i.OS_SemPost        UCOSIII.lib(os_sem.o)
    0x08005978   0x08005978   0x000003b8   Code   RO         1513    i.OS_StatTask       UCOSIII.lib(os_stat.o)
    0x08005d30   0x08005d30   0x000000cc   Code   RO         1514    i.OS_StatTaskInit   UCOSIII.lib(os_stat.o)
    0x08005dfc   0x08005dfc   0x00000038   Code   RO         1299    i.OS_TaskBlock      UCOSIII.lib(os_core.o)
    0x08005e34   0x08005e34   0x00000030   Code   RO         1559    i.OS_TaskDbgListAdd  UCOSIII.lib(os_task.o)
    0x08005e64   0x08005e64   0x00000044   Code   RO         1560    i.OS_TaskDbgListRemove  UCOSIII.lib(os_task.o)
    0x08005ea8   0x08005ea8   0x00000020   Code   RO         1561    i.OS_TaskInit       UCOSIII.lib(os_task.o)
    0x08005ec8   0x08005ec8   0x000000d0   Code   RO         1562    i.OS_TaskInitTCB    UCOSIII.lib(os_task.o)
    0x08005f98   0x08005f98   0x0000026c   Code   RO         1563    i.OS_TaskQPost      UCOSIII.lib(os_task.o)
    0x08006204   0x08006204   0x0000001c   Code   RO         1300    i.OS_TaskRdy        UCOSIII.lib(os_core.o)
    0x08006220   0x08006220   0x0000017c   Code   RO         1564    i.OS_TaskResume     UCOSIII.lib(os_task.o)
    0x0800639c   0x0800639c   0x00000018   Code   RO         1565    i.OS_TaskReturn     UCOSIII.lib(os_task.o)
    0x080063b4   0x080063b4   0x000005a8   Code   RO         1566    i.OS_TaskSemPost    UCOSIII.lib(os_task.o)
    0x0800695c   0x0800695c   0x00000190   Code   RO         1567    i.OS_TaskSuspend    UCOSIII.lib(os_task.o)
    0x08006aec   0x08006aec   0x00000028   Code   RO         2441    i.OS_TickListInit   UCOSIII.lib(os_tick.o)
    0x08006b14   0x08006b14   0x000001bc   Code   RO         2442    i.OS_TickListInsert  UCOSIII.lib(os_tick.o)
    0x08006cd0   0x08006cd0   0x00000038   Code   RO         2443    i.OS_TickListRemove  UCOSIII.lib(os_tick.o)
    0x08006d08   0x08006d08   0x00000024   Code   RO         2444    i.OS_TickListResetPeak  UCOSIII.lib(os_tick.o)
    0x08006d2c   0x08006d2c   0x00000220   Code   RO         2445    i.OS_TickListUpdate  UCOSIII.lib(os_tick.o)
    0x08006f4c   0x08006f4c   0x0000002c   Code   RO         2446    i.OS_TickTask       UCOSIII.lib(os_tick.o)
    0x08006f78   0x08006f78   0x000000b8   Code   RO         2447    i.OS_TickTaskInit   UCOSIII.lib(os_tick.o)
    0x08007030   0x08007030   0x00000128   Code   RO         2498    i.OS_TmrInit        UCOSIII.lib(os_tmr.o)
    0x08007158   0x08007158   0x000000d0   Code   RO         2499    i.OS_TmrLink        UCOSIII.lib(os_tmr.o)
    0x08007228   0x08007228   0x00000024   Code   RO         2500    i.OS_TmrResetPeak   UCOSIII.lib(os_tmr.o)
    0x0800724c   0x0800724c   0x000000c0   Code   RO         2501    i.OS_TmrTask        UCOSIII.lib(os_tmr.o)
    0x0800730c   0x0800730c   0x00000050   Code   RO         2502    i.OS_TmrUnlink      UCOSIII.lib(os_tmr.o)
    0x0800735c   0x0800735c   0x00000070   Code   RO          715    i.PlayMusic_birthday  bsp_beep.o
    0x080073cc   0x080073cc   0x00000002   Code   RO          310    i.SVC_Handler       stm32f10x_it.o
    0x080073ce   0x080073ce   0x0000007e   Code   RO          534    i.TFTLCD_FSMC_Init  tftlcd.o
    0x0800744c   0x0800744c   0x00000098   Code   RO          535    i.TFTLCD_GPIO_Init  tftlcd.o
    0x080074e4   0x080074e4   0x000001f4   Code   RO          536    i.TFTLCD_Init       tftlcd.o
    0x080076d8   0x080076d8   0x00000080   Code   RO          411    i.USARTx_Config     bsp_usart1.o
    0x08007758   0x08007758   0x00000004   Code   RO          312    i.UsageFault_Handler  stm32f10x_it.o
    0x0800775c   0x0800775c   0x0000000e   Code   RO         2751    i.__scatterload_copy  mc_w.l(handlers.o)
    0x0800776a   0x0800776a   0x00000002   Code   RO         2752    i.__scatterload_null  mc_w.l(handlers.o)
    0x0800776c   0x0800776c   0x0000000e   Code   RO         2753    i.__scatterload_zeroinit  mc_w.l(handlers.o)
    0x0800777a   0x0800777a   0x00000002   PAD
    0x0800777c   0x0800777c   0x0000000c   Code   RO         2735    i.__set_errno       mc_w.l(errno.o)
    0x08007788   0x08007788   0x0000001c   Code   RO          537    i.delay_ms          tftlcd.o
    0x080077a4   0x080077a4   0x00000060   Code   RO           16    i.main              main.o
    0x08007804   0x08007804   0x0000004c   Code   RO         2688    i.sqrt              m_ws.l(sqrt.o)
    0x08007850   0x08007850   0x00005078   Data   RO          538    .constdata          tftlcd.o
    0x0800c8c8   0x0800c8c8   0x00000076   Data   RO          716    .constdata          bsp_beep.o
    0x0800c93e   0x0800c93e   0x00000002   PAD
    0x0800c940   0x0800c940   0x000000a4   Data   RO         1227    .constdata          UCOSIII.lib(os_cfg_app.o)
    0x0800c9e4   0x0800c9e4   0x0000016c   Data   RO         2000    .constdata          UCOSIII.lib(os_dbg.o)
    0x0800cb50   0x0800cb50   0x00000020   Data   RO         2749    Region$$Table       anon$$obj.o


    Execution Region RW_IRAM1 (Exec base: 0x20000000, Load base: 0x0800cb70, Size: 0x0000a970, Max: 0x00010000, ABSOLUTE, COMPRESSED[0x00000068])

    Exec Addr    Load Addr    Size         Type   Attr      Idx    E Section Name        Object

    0x20000000   COMPRESSED   0x000000ba   Data   RW           18    .data               main.o
    0x200000ba   COMPRESSED   0x0000000c   Data   RW          539    .data               tftlcd.o
    0x200000c6   COMPRESSED   0x00000002   PAD
    0x200000c8   COMPRESSED   0x00000014   Data   RW          735    .data               stm32f10x_hd.lib(system_stm32f10x.o)
    0x200000dc   COMPRESSED   0x00000014   Data   RW          870    .data               stm32f10x_hd.lib(stm32f10x_rcc.o)
    0x200000f0   COMPRESSED   0x0000001c   Data   RW          935    .data               UCOSIII.lib(cpu_core.o)
    0x2000010c   COMPRESSED   0x00000004   Data   RW         1119    .data               UCOSIII.lib(lib_mem.o)
    0x20000110   COMPRESSED   0x000000d0   Data   RW         1752    .data               UCOSIII.lib(os_var.o)
    0x200001e0   COMPRESSED   0x00000004   Data   RW         1776    .data               UCOSIII.lib(os_cpu_c.o)
    0x200001e4   COMPRESSED   0x00000004   Data   RW         2264    .data               UCOSIII.lib(os_prio.o)
    0x200001e8   COMPRESSED   0x00000004   Data   RW         2699    .data               mc_w.l(rand.o)
    0x200001ec   COMPRESSED   0x00000004   Data   RW         2736    .data               mc_w.l(errno.o)
    0x200001f0        -       0x00001d20   Zero   RW           17    .bss                main.o
    0x20001f10        -       0x00000010   Zero   RW          933    .bss                UCOSIII.lib(cpu_core.o)
    0x20001f20        -       0x00006c48   Zero   RW         1118    .bss                UCOSIII.lib(lib_mem.o)
    0x20008b68        -       0x00001490   Zero   RW         1226    .bss                UCOSIII.lib(os_cfg_app.o)
    0x20009ff8        -       0x00000574   Zero   RW         1751    .bss                UCOSIII.lib(os_var.o)
    0x2000a56c   COMPRESSED   0x00000004   PAD
    0x2000a570        -       0x00000400   Zero   RW            1    STACK               startup_stm32f10x_hd.o


==============================================================================

Image component sizes


      Code (inc. data)   RO Data    RW Data    ZI Data      Debug   Object Name

       116         20          0          0          0       1961   bsp.o
       168         14        118          0          0       1225   bsp_beep.o
       252         16          0          0          0       3521   bsp_key.o
       288         24          0          0          0       1602   bsp_led.o
       128          8          0          0          0        632   bsp_usart1.o
      2196        368          0        186       7456     273706   main.o
        36          8        304          0       1024        852   startup_stm32f10x_hd.o
        22          0          0          0          0       3155   stm32f10x_it.o
      2750        102      20600         12          0      19044   tftlcd.o

    ----------------------------------------------------------------------
      5958        560      21056        200       8480     305698   Object Totals
         0          0         32          0          0          0   (incl. Generated)
         2          0          2          2          0          0   (incl. Padding)

    ----------------------------------------------------------------------

      Code (inc. data)   RO Data    RW Data    ZI Data      Debug   Library Member Name

        52          0          0          0          0        368   cpu_a.o
       540         98          0         28         16      28417   cpu_core.o
       188         18          0          4      27720      23347   lib_mem.o
         2          0        164          0       5264      21914   os_cfg_app.o
      3060        414          0          0          0      40066   os_core.o
       132         32          0          0          0        412   os_cpu_a.o
       656         68          0          4          0       8625   os_cpu_c.o
       436        286        364          0          0       4901   os_dbg.o
       746         28          0          0          0       3225   os_flag.o
      1176        204          0          0          0       3654   os_int.o
        24         10          0          0          0        937   os_mem.o
       466         26          0          0          0       3385   os_msg.o
        24         10          0          0          0        939   os_mutex.o
       136         16          0          4          0       3018   os_prio.o
       416         20          0          0          0       2302   os_q.o
       432         14          0          0          0       2326   os_sem.o
      1772        214          0          0          0       4215   os_stat.o
      5460        260          0          0          0      14344   os_task.o
      1348        124          0          0          0       5721   os_tick.o
       960         46          0          0          0       3245   os_time.o
       812        134          0          0          0       4332   os_tmr.o
         0          0          0        208       1396      19553   os_var.o
        76          0          0          0          0         84   sqrt.o
        86          0          0          0          0          0   __dczerorl2.o
         0          0          0          0          0          0   entry.o
         0          0          0          0          0          0   entry10a.o
         0          0          0          0          0          0   entry11a.o
         4          0          0          0          0          0   entry12b.o
         8          4          0          0          0          0   entry2.o
         4          0          0          0          0          0   entry5.o
         0          0          0          0          0          0   entry7b.o
         0          0          0          0          0          0   entry8b.o
         8          4          0          0          0          0   entry9a.o
        12          6          0          4          0         68   errno.o
        30          0          0          0          0          0   handlers.o
        36          8          0          0          0         68   init.o
         0          0          0          0          0          0   iusefp.o
        30          0          0          0          0         68   llshl.o
        32          0          0          0          0         68   llushr.o
        36          0          0          0          0         68   memcpya.o
        36         10          0          4          0        136   rand.o
        48          0          0          0          0         68   cdcmple.o
       186          0          0          0          0        176   depilogue.o
        34          0          0          0          0         76   dflti.o
       162          0          0          0          0        100   dsqrt.o
      1560         54          0          0          0       5419   stm32f10x_fsmc.o
       856         40          0          0          0     208913   stm32f10x_gpio.o
       932         44          0         20          0       8904   stm32f10x_rcc.o
      1032         22          0          0          0       8448   stm32f10x_usart.o
       476         36          0         20          0      36147   system_stm32f10x.o

    ----------------------------------------------------------------------
     24538       2250        528        296      34400     468057   Library Totals
        16          0          0          0          4          0   (incl. Padding)

    ----------------------------------------------------------------------

      Code (inc. data)   RO Data    RW Data    ZI Data      Debug   Library Name

     18838       2022        528        248      34396     199246   UCOSIII.lib
        76          0          0          0          0         84   m_ws.l
       322         32          0          8          0        476   mc_w.l
       430          0          0          0          0        420   mf_w.l
      4856        196          0         40          0     267831   stm32f10x_hd.lib

    ----------------------------------------------------------------------
     24538       2250        528        296      34400     468057   Library Totals

    ----------------------------------------------------------------------

==============================================================================


      Code (inc. data)   RO Data    RW Data    ZI Data      Debug   

     30496       2810      21584        496      42880     764419   Grand Totals
     30496       2810      21584        104      42880     764419   ELF Image Totals (compressed)
     30496       2810      21584        104          0          0   ROM Totals

==============================================================================

    Total RO  Size (Code + RO Data)                52080 (  50.86kB)
    Total RW  Size (RW Data + ZI Data)             43376 (  42.36kB)
    Total ROM Size (Code + RO Data + RW Data)      52184 (  50.96kB)

==============================================================================

