Component: ARM Compiler 5.06 update 7 (build 960) Tool: armlink [4d3601]

==============================================================================

Section Cross References

    startup_stm32f10x_hd.o(RESET) refers to startup_stm32f10x_hd.o(STACK) for __initial_sp
    startup_stm32f10x_hd.o(RESET) refers to startup_stm32f10x_hd.o(.text) for Reset_Handler
    startup_stm32f10x_hd.o(RESET) refers to stm32f10x_it.o(i.NMI_Handler) for NMI_Handler
    startup_stm32f10x_hd.o(RESET) refers to stm32f10x_it.o(i.HardFault_Handler) for HardFault_Handler
    startup_stm32f10x_hd.o(RESET) refers to stm32f10x_it.o(i.MemManage_Handler) for MemManage_Handler
    startup_stm32f10x_hd.o(RESET) refers to stm32f10x_it.o(i.BusFault_Handler) for BusFault_Handler
    startup_stm32f10x_hd.o(RESET) refers to stm32f10x_it.o(i.UsageFault_Handler) for UsageFault_Handler
    startup_stm32f10x_hd.o(RESET) refers to stm32f10x_it.o(i.SVC_Handler) for SVC_Handler
    startup_stm32f10x_hd.o(RESET) refers to stm32f10x_it.o(i.DebugMon_Handler) for DebugMon_Handler
    startup_stm32f10x_hd.o(RESET) refers to os_cpu_a.o(CODE) for OS_CPU_PendSVHandler
    startup_stm32f10x_hd.o(RESET) refers to os_cpu_c.o(i.OS_CPU_SysTickHandler) for OS_CPU_SysTickHandler
    startup_stm32f10x_hd.o(.text) refers to system_stm32f10x.o(.text) for SystemInit
    startup_stm32f10x_hd.o(.text) refers to entry.o(.ARM.Collect$$$$00000000) for __main
    main.o(i.AppTaskLed1) refers to tftlcd.o(i.LCD_ShowString) for LCD_ShowString
    main.o(i.AppTaskLed1) refers to tftlcd.o(i.LCD_ShowxNum) for LCD_ShowxNum
    main.o(i.AppTaskLed1) refers to os_time.o(i.OSTimeDly) for OSTimeDly
    main.o(i.AppTaskLed1) refers to tftlcd.o(.data) for tftlcd_data
    main.o(i.AppTaskLed2) refers to main.o(i.LCD_UI) for LCD_UI
==============================================================================

Removing Unused input sections from the image.

    Removing startup_stm32f10x_hd.o(HEAP), (512 bytes).
    Removing os_app_hooks.o(i.App_OS_ClrAllHooks), (100 bytes).
    Removing os_app_hooks.o(i.App_OS_IdleTaskHook), (2 bytes).
    Removing os_app_hooks.o(i.App_OS_InitHook), (2 bytes).
    Removing os_app_hooks.o(i.App_OS_SetAllHooks), (140 bytes).
    Removing os_app_hooks.o(i.App_OS_StatTaskHook), (2 bytes).
    Removing os_app_hooks.o(i.App_OS_TaskCreateHook), (2 bytes).
    Removing os_app_hooks.o(i.App_OS_TaskDelHook), (2 bytes).
    Removing os_app_hooks.o(i.App_OS_TaskReturnHook), (2 bytes).
    Removing os_app_hooks.o(i.App_OS_TaskSwHook), (2 bytes).
    Removing os_app_hooks.o(i.App_OS_TimeTickHook), (2 bytes).
    Removing stm32f10x_it.o(i.PendSV_Handler), (2 bytes).
    Removing stm32f10x_it.o(i.SysTick_Handler), (2 bytes).
    Removing bsp.o(.constdata), (44800 bytes).
    Removing bsp.o(.data), (4 bytes).
    Removing bsp_usart1.o(i.fgetc), (32 bytes).
    Removing bsp_usart1.o(i.fputc), (36 bytes).
    Removing bsp_led.o(i.LED_guan), (132 bytes).
==============================================================================

Image Symbol Table

    Local Symbols

    Symbol Name                              Value     Ov Type        Size  Object(Section)

    ../clib/../cmprslib/zerorunl2.c          0x00000000   Number         0  __dczerorl2.o ABSOLUTE
    ../clib/microlib/init/entry.s            0x00000000   Number         0  entry10a.o ABSOLUTE
    ../clib/microlib/init/entry.s            0x00000000   Number         0  entry10b.o ABSOLUTE
    ../clib/microlib/init/entry.s            0x00000000   Number         0  entry11a.o ABSOLUTE
    ../clib/microlib/init/entry.s            0x00000000   Number         0  entry12a.o ABSOLUTE
    ../clib/microlib/init/entry.s            0x00000000   Number         0  entry12b.o ABSOLUTE
    ../clib/microlib/init/entry.s            0x00000000   Number         0  entry2.o ABSOLUTE
    ../clib/microlib/init/entry.s            0x00000000   Number         0  entry5.o ABSOLUTE
    ../clib/microlib/init/entry.s            0x00000000   Number         0  entry11b.o ABSOLUTE
    ../clib/microlib/init/entry.s            0x00000000   Number         0  entry.o ABSOLUTE
    ../clib/microlib/init/entry.s            0x00000000   Number         0  entry7a.o ABSOLUTE
    ../clib/microlib/init/entry.s            0x00000000   Number         0  entry8a.o ABSOLUTE
    ../clib/microlib/init/entry.s            0x00000000   Number         0  entry7b.o ABSOLUTE
    ../clib/microlib/init/entry.s            0x00000000   Number         0  entry8b.o ABSOLUTE
    ../clib/microlib/init/entry.s            0x00000000   Number         0  entry9a.o ABSOLUTE
    ../clib/microlib/init/entry.s            0x00000000   Number         0  entry9b.o ABSOLUTE
    ../clib/microlib/longlong.c              0x00000000   Number         0  llushr.o ABSOLUTE
    ../clib/microlib/longlong.c              0x00000000   Number         0  llshl.o ABSOLUTE
    ../clib/microlib/stubs.s                 0x00000000   Number         0  iusefp.o ABSOLUTE
    ../fplib/microlib/fpepilogue.c           0x00000000   Number         0  depilogue.o ABSOLUTE
    ../fplib/microlib/fpfix.c                0x00000000   Number         0  dfixui.o ABSOLUTE
    ../fplib/microlib/fpflt.c                0x00000000   Number         0  dfltui.o ABSOLUTE
    ../fplib/microlib/fpmul.c                0x00000000   Number         0  dmul.o ABSOLUTE
    ..\..\FW_LIB\startup_stm32f10x_hd.s      0x00000000   Number         0  startup_stm32f10x_hd.o ABSOLUTE
    ..\..\User\uC-CPU\ARM-Cortex-M3\RealView\cpu_a.asm 0x00000000   Number         0  cpu_a.o ABSOLUTE
    ..\..\User\uC-CPU\cpu_core.c             0x00000000   Number         0  cpu_core.o ABSOLUTE
    ..\..\User\uC-LIB\Ports\ARM-Cortex-M3\RealView\lib_mem_a.asm 0x00000000   Number         0  lib_mem_a.o ABSOLUTE
    ..\..\User\uC-LIB\lib_ascii.c            0x00000000   Number         0  lib_ascii.o ABSOLUTE
    ..\..\User\uC-LIB\lib_mem.c              0x00000000   Number         0  lib_mem.o ABSOLUTE
    ..\..\User\uC-LIB\lib_str.c              0x00000000   Number         0  lib_str.o ABSOLUTE
    ..\..\User\uCOS-III\Ports\ARM-Cortex-M3\Generic\RealView\os_cpu_a.s 0x00000000   Number         0  os_cpu_a.o ABSOLUTE
    ..\..\User\uCOS-III\Ports\ARM-Cortex-M3\Generic\RealView\os_cpu_c.c 0x00000000   Number         0  os_cpu_c.o ABSOLUTE
    ..\..\User\uCOS-III\Source\os_cfg_app.c  0x00000000   Number         0  os_cfg_app.o ABSOLUTE
    ..\..\User\uCOS-III\Source\os_core.c     0x00000000   Number         0  os_core.o ABSOLUTE
    ..\..\User\uCOS-III\Source\os_dbg.c      0x00000000   Number         0  os_dbg.o ABSOLUTE
    ..\..\User\uCOS-III\Source\os_flag.c     0x00000000   Number         0  os_flag.o ABSOLUTE
    ..\..\User\uCOS-III\Source\os_int.c      0x00000000   Number         0  os_int.o ABSOLUTE
    ..\..\User\uCOS-III\Source\os_mem.c      0x00000000   Number         0  os_mem.o ABSOLUTE
    ..\..\User\uCOS-III\Source\os_msg.c      0x00000000   Number         0  os_msg.o ABSOLUTE
    ..\..\User\uCOS-III\Source\os_mutex.c    0x00000000   Number         0  os_mutex.o ABSOLUTE
    ..\..\User\uCOS-III\Source\os_prio.c     0x00000000   Number         0  os_prio.o ABSOLUTE
    ..\..\User\uCOS-III\Source\os_q.c        0x00000000   Number         0  os_q.o ABSOLUTE
    ..\..\User\uCOS-III\Source\os_sem.c      0x00000000   Number         0  os_sem.o ABSOLUTE
    ..\..\User\uCOS-III\Source\os_stat.c     0x00000000   Number         0  os_stat.o ABSOLUTE
    ..\..\User\uCOS-III\Source\os_task.c     0x00000000   Number         0  os_task.o ABSOLUTE
    ..\..\User\uCOS-III\Source\os_tick.c     0x00000000   Number         0  os_tick.o ABSOLUTE
    ..\..\User\uCOS-III\Source\os_time.c     0x00000000   Number         0  os_time.o ABSOLUTE
    ..\..\User\uCOS-III\Source\os_tmr.c      0x00000000   Number         0  os_tmr.o ABSOLUTE
    ..\..\User\uCOS-III\Source\os_var.c      0x00000000   Number         0  os_var.o ABSOLUTE
    ..\USER\APP\main.c                       0x00000000   Number         0  main.o ABSOLUTE
    ..\USER\APP\os_app_hooks.c               0x00000000   Number         0  os_app_hooks.o ABSOLUTE
    ..\USER\APP\stm32f10x_it.c               0x00000000   Number         0  stm32f10x_it.o ABSOLUTE
    ..\USER\BSP\Key\bsp_key.c                0x00000000   Number         0  bsp_key.o ABSOLUTE
    ..\USER\BSP\beep\bsp_beep.c              0x00000000   Number         0  bsp_beep.o ABSOLUTE
    ..\USER\BSP\bsp.c                        0x00000000   Number         0  bsp.o ABSOLUTE
    ..\USER\BSP\led\bsp_led.c                0x00000000   Number         0  bsp_led.o ABSOLUTE
    ..\USER\BSP\tftlcd\tftlcd.c              0x00000000   Number         0  tftlcd.o ABSOLUTE
    ..\USER\BSP\usart\bsp_usart1.c           0x00000000   Number         0  bsp_usart1.o ABSOLUTE
    Libraries\CMSIS\CM3\DeviceSupport\ST\STM32F10x\system_stm32f10x.c 0x00000000   Number         0  system_stm32f10x.o ABSOLUTE
    Libraries\STM32F10x_StdPeriph_Driver\src\stm32f10x_fsmc.c 0x00000000   Number         0  stm32f10x_fsmc.o ABSOLUTE
    Libraries\STM32F10x_StdPeriph_Driver\src\stm32f10x_gpio.c 0x00000000   Number         0  stm32f10x_gpio.o ABSOLUTE
    Libraries\STM32F10x_StdPeriph_Driver\src\stm32f10x_rcc.c 0x00000000   Number         0  stm32f10x_rcc.o ABSOLUTE
    Libraries\STM32F10x_StdPeriph_Driver\src\stm32f10x_usart.c 0x00000000   Number         0  stm32f10x_usart.o ABSOLUTE
    dc.s                                     0x00000000   Number         0  dc.o ABSOLUTE
    handlers.s                               0x00000000   Number         0  handlers.o ABSOLUTE
    init.s                                   0x00000000   Number         0  init.o ABSOLUTE
    RESET                                    0x08000000   Section      304  startup_stm32f10x_hd.o(RESET)
    .ARM.Collect$$$$00000000                 0x08000130   Section        0  entry.o(.ARM.Collect$$$$00000000)
    .ARM.Collect$$$$00000001                 0x08000130   Section        4  entry2.o(.ARM.Collect$$$$00000001)
    .ARM.Collect$$$$00000004                 0x08000134   Section        4  entry5.o(.ARM.Collect$$$$00000004)
    .ARM.Collect$$$$00000008                 0x08000138   Section        0  entry7b.o(.ARM.Collect$$$$00000008)
    .ARM.Collect$$$$0000000A                 0x08000138   Section        0  entry8b.o(.ARM.Collect$$$$0000000A)
    .ARM.Collect$$$$0000000B                 0x08000138   Section        8  entry9a.o(.ARM.Collect$$$$0000000B)
    .ARM.Collect$$$$0000000E                 0x08000140   Section        4  entry12b.o(.ARM.Collect$$$$0000000E)
    .ARM.Collect$$$$0000000F                 0x08000144   Section        0  entry10a.o(.ARM.Collect$$$$0000000F)
    .ARM.Collect$$$$00000011                 0x08000144   Section        0  entry11a.o(.ARM.Collect$$$$00000011)
    .ARM.Collect$$$$00002712                 0x08000144   Section        4  entry2.o(.ARM.Collect$$$$00002712)
    __lit__00000000                          0x08000144   Data           4  entry2.o(.ARM.Collect$$$$00002712)
    .text                                    0x08000148   Section       36  startup_stm32f10x_hd.o(.text)
    .text                                    0x0800016c   Section        0  system_stm32f10x.o(.text)
    SetSysClockTo72                          0x0800016d   Thumb Code   212  system_stm32f10x.o(.text)
    SetSysClock                              0x08000241   Thumb Code     8  system_stm32f10x.o(.text)
    .text                                    0x08000348   Section        0  stm32f10x_gpio.o(.text)
    .text                                    0x080006a0   Section        0  stm32f10x_rcc.o(.text)
    .text                                    0x08000a44   Section        0  stm32f10x_fsmc.o(.text)
    .text                                    0x0800105c   Section        0  stm32f10x_usart.o(.text)
    .text                                    0x08001464   Section       52  cpu_a.o(.text)
    .text                                    0x08001498   Section       36  init.o(.text)
    .text                                    0x080014bc   Section        0  __dczerorl2.o(.text)
    CODE                                     0x08001514   Section      132  os_cpu_a.o(CODE)
    i.AppTaskLed1                            0x08001598   Section        0  main.o(i.AppTaskLed1)
    AppTaskLed1                              0x08001599   Thumb Code   442  main.o(i.AppTaskLed1)
    i.AppTaskLed2                            0x08001774   Section        0  main.o(i.AppTaskLed2)
    AppTaskLed2                              0x08001775   Thumb Code   188  main.o(i.AppTaskLed2)
    i.AppTaskStart                           0x08001840   Section        0  main.o(i.AppTaskStart)
    AppTaskStart                             0x08001841   Thumb Code   166  main.o(i.AppTaskStart)
    i.BEEP_Init                              0x08001924   Section        0  bsp_beep.o(i.BEEP_Init)
    i.BSP_CPU_ClkFreq                        0x0800195c   Section        0  bsp.o(i.BSP_CPU_ClkFreq)
    i.BSP_Init                               0x0800196c   Section        0  bsp.o(i.BSP_Init)
    i.BusFault_Handler                       0x08001990   Section        0  stm32f10x_it.o(i.BusFault_Handler)
    i.CPU_Init                               0x08001994   Section        0  cpu_core.o(i.CPU_Init)
    i.CPU_IntDisMeasInit                     0x080019a4   Section        0  cpu_core.o(i.CPU_IntDisMeasInit)
    CPU_IntDisMeasInit                       0x080019a5   Thumb Code   104  cpu_core.o(i.CPU_IntDisMeasInit)
    i.CPU_IntDisMeasMaxCalc                  0x08001a28   Section        0  cpu_core.o(i.CPU_IntDisMeasMaxCalc)
    CPU_IntDisMeasMaxCalc                    0x08001a29   Thumb Code    24  cpu_core.o(i.CPU_IntDisMeasMaxCalc)
    i.CPU_IntDisMeasMaxCurGet                0x08001a44   Section        0  cpu_core.o(i.CPU_IntDisMeasMaxCurGet)
    i.CPU_IntDisMeasMaxCurReset              0x08001a70   Section        0  cpu_core.o(i.CPU_IntDisMeasMaxCurReset)
    i.CPU_IntDisMeasMaxGet                   0x08001a9c   Section        0  cpu_core.o(i.CPU_IntDisMeasMaxGet)
    i.CPU_IntDisMeasStart                    0x08001ac8   Section        0  cpu_core.o(i.CPU_IntDisMeasStart)
    i.CPU_IntDisMeasStop                     0x08001afc   Section        0  cpu_core.o(i.CPU_IntDisMeasStop)
    i.CPU_NameClr                            0x08001b50   Section        0  cpu_core.o(i.CPU_NameClr)
    i.CPU_NameInit                           0x08001b88   Section        0  cpu_core.o(i.CPU_NameInit)
    CPU_NameInit                             0x08001b89   Thumb Code     8  cpu_core.o(i.CPU_NameInit)
    i.CPU_TS_Init                            0x08001b90   Section        0  cpu_core.o(i.CPU_TS_Init)
    CPU_TS_Init                              0x08001b91   Thumb Code    14  cpu_core.o(i.CPU_TS_Init)
    i.CPU_TS_TmrFreqSet                      0x08001ba4   Section        0  cpu_core.o(i.CPU_TS_TmrFreqSet)
    i.CPU_TS_TmrInit                         0x08001bb0   Section        0  bsp.o(i.CPU_TS_TmrInit)
    i.CPU_TS_TmrRd                           0x08001be4   Section        0  bsp.o(i.CPU_TS_TmrRd)
    i.DebugMon_Handler                       0x08001bf0   Section        0  stm32f10x_it.o(i.DebugMon_Handler)
    i.HardFault_Handler                      0x08001bf2   Section        0  stm32f10x_it.o(i.HardFault_Handler)
    i.Key1_Config                            0x08001bf8   Section        0  bsp_key.o(i.Key1_Config)
    Key1_Config                              0x08001bf9   Thumb Code    32  bsp_key.o(i.Key1_Config)
    i.Key2_Config                            0x08001c1c   Section        0  bsp_key.o(i.Key2_Config)
    Key2_Config                              0x08001c1d   Thumb Code    32  bsp_key.o(i.Key2_Config)
    i.Key3_Config                            0x08001c40   Section        0  bsp_key.o(i.Key3_Config)
    Key3_Config                              0x08001c41   Thumb Code    32  bsp_key.o(i.Key3_Config)
    i.Key_Initial                            0x08001c64   Section        0  bsp_key.o(i.Key_Initial)
    i.Key_up_Config                          0x08001c78   Section        0  bsp_key.o(i.Key_up_Config)
    Key_up_Config                            0x08001c79   Thumb Code    32  bsp_key.o(i.Key_up_Config)
    i.LCD_Clear                              0x08001c9c   Section        0  tftlcd.o(i.LCD_Clear)
    i.LCD_Display_Dir                        0x08001ce4   Section        0  tftlcd.o(i.LCD_Display_Dir)
    i.LCD_DrawFRONT_COLOR                    0x08001d3c   Section        0  tftlcd.o(i.LCD_DrawFRONT_COLOR)
    i.LCD_DrawPoint                          0x08001d58   Section        0  tftlcd.o(i.LCD_DrawPoint)
    i.LCD_Draw_Circle                        0x08001d78   Section        0  tftlcd.o(i.LCD_Draw_Circle)
    i.LCD_Fill                               0x08001e10   Section        0  tftlcd.o(i.LCD_Fill)
    i.LCD_Pow                                0x08001e6c   Section        0  tftlcd.o(i.LCD_Pow)
    i.LCD_Set_Window                         0x08001e82   Section        0  tftlcd.o(i.LCD_Set_Window)
    i.LCD_ShowChar                           0x08001f28   Section        0  tftlcd.o(i.LCD_ShowChar)
    i.LCD_ShowFontHZ                         0x08002050   Section        0  tftlcd.o(i.LCD_ShowFontHZ)
    i.LCD_ShowString                         0x08002138   Section        0  tftlcd.o(i.LCD_ShowString)
    i.LCD_ShowxNum                           0x0800219e   Section        0  tftlcd.o(i.LCD_ShowxNum)
    i.LCD_UI                                 0x0800225c   Section        0  main.o(i.LCD_UI)
    i.LCD_WriteCmd                           0x080022f0   Section        0  tftlcd.o(i.LCD_WriteCmd)
    i.LCD_WriteCmdData                       0x080022fc   Section        0  tftlcd.o(i.LCD_WriteCmdData)
    i.LCD_WriteData                          0x08002310   Section        0  tftlcd.o(i.LCD_WriteData)
    i.LCD_WriteData_Color                    0x0800231c   Section        0  tftlcd.o(i.LCD_WriteData_Color)
    i.LED_GPIO_Config                        0x0800232c   Section        0  bsp_led.o(i.LED_GPIO_Config)
    LED_GPIO_Config                          0x0800232d   Thumb Code   116  bsp_led.o(i.LED_GPIO_Config)
    i.LED_Init                               0x080023a4   Section        0  bsp_led.o(i.LED_Init)
    i.MemManage_Handler                      0x080023c8   Section        0  stm32f10x_it.o(i.MemManage_Handler)
    i.Mem_Clr                                0x080023cc   Section        0  lib_mem.o(i.Mem_Clr)
    i.Mem_Init                               0x080023e0   Section        0  lib_mem.o(i.Mem_Init)
    i.Mem_Set                                0x08002428   Section        0  lib_mem.o(i.Mem_Set)
    i.NMI_Handler                            0x0800248a   Section        0  stm32f10x_it.o(i.NMI_Handler)
    i.OSCfg_Init                             0x0800248c   Section        0  os_cfg_app.o(i.OSCfg_Init)
    i.OSIdleTaskHook                         0x08002490   Section        0  os_cpu_c.o(i.OSIdleTaskHook)
    i.OSInit                                 0x080024a4   Section        0  os_core.o(i.OSInit)
    i.OSInitHook                             0x08002630   Section        0  os_cpu_c.o(i.OSInitHook)
    i.OSIntExit                              0x08002668   Section        0  os_core.o(i.OSIntExit)
    i.OSSched                                0x0800274c   Section        0  os_core.o(i.OSSched)
    i.OSSchedLock                            0x080027f4   Section        0  os_core.o(i.OSSchedLock)
    i.OSSchedRoundRobinCfg                   0x08002870   Section        0  os_core.o(i.OSSchedRoundRobinCfg)
    i.OSSchedUnlock                          0x080028dc   Section        0  os_core.o(i.OSSchedUnlock)
    i.OSStart                                0x0800297c   Section        0  os_core.o(i.OSStart)
    i.OSStatReset                            0x080029e4   Section        0  os_stat.o(i.OSStatReset)
    i.OSStatTaskCPUUsageInit                 0x08002b4c   Section        0  os_stat.o(i.OSStatTaskCPUUsageInit)
    i.OSStatTaskHook                         0x08002c4c   Section        0  os_cpu_c.o(i.OSStatTaskHook)
    i.OSTaskCreate                           0x08002c60   Section        0  os_task.o(i.OSTaskCreate)
    i.OSTaskCreateHook                       0x08002ef4   Section        0  os_cpu_c.o(i.OSTaskCreateHook)
    i.OSTaskDel                              0x08002f0c   Section        0  os_task.o(i.OSTaskDel)
    i.OSTaskDelHook                          0x08003114   Section        0  os_cpu_c.o(i.OSTaskDelHook)
    i.OSTaskResume                           0x0800312c   Section        0  os_task.o(i.OSTaskResume)
    i.OSTaskReturnHook                       0x080031b4   Section        0  os_cpu_c.o(i.OSTaskReturnHook)
    i.OSTaskSemPend                          0x080031cc   Section        0  os_task.o(i.OSTaskSemPend)
    i.OSTaskStkChk                           0x0800341c   Section        0  os_task.o(i.OSTaskStkChk)
    i.OSTaskStkInit                          0x08003500   Section        0  os_cpu_c.o(i.OSTaskStkInit)
    i.OSTaskSuspend                          0x080035c0   Section        0  os_task.o(i.OSTaskSuspend)
    i.OSTaskSwHook                           0x08003620   Section        0  os_cpu_c.o(i.OSTaskSwHook)
    i.OSTimeDly                              0x080036c4   Section        0  os_time.o(i.OSTimeDly)
    i.OSTimeTick                             0x08003814   Section        0  os_time.o(i.OSTimeTick)
    i.OSTimeTickHook                         0x08003858   Section        0  os_cpu_c.o(i.OSTimeTickHook)
    i.OS_CPU_SysTickHandler                  0x0800386c   Section        0  os_cpu_c.o(i.OS_CPU_SysTickHandler)
    i.OS_CPU_SysTickInit                     0x080038ac   Section        0  os_cpu_c.o(i.OS_CPU_SysTickInit)
    i.OS_Dbg_Init                            0x080038dc   Section        0  os_dbg.o(i.OS_Dbg_Init)
    i.OS_FlagInit                            0x08003a90   Section        0  os_flag.o(i.OS_FlagInit)
    i.OS_FlagPost                            0x08003aa8   Section        0  os_flag.o(i.OS_FlagPost)
    i.OS_FlagTaskRdy                         0x08003d24   Section        0  os_flag.o(i.OS_FlagTaskRdy)
    i.OS_IdleTask                            0x08003d7c   Section        0  os_core.o(i.OS_IdleTask)
    i.OS_IdleTaskInit                        0x08003dc8   Section        0  os_core.o(i.OS_IdleTaskInit)
    i.OS_IntQPost                            0x08003e38   Section        0  os_int.o(i.OS_IntQPost)
    i.OS_IntQRePost                          0x08003f3c   Section        0  os_int.o(i.OS_IntQRePost)
    i.OS_IntQTask                            0x080040e0   Section        0  os_int.o(i.OS_IntQTask)
    i.OS_IntQTaskInit                        0x080041a8   Section        0  os_int.o(i.OS_IntQTaskInit)
    i.OS_MemInit                             0x080042d0   Section        0  os_mem.o(i.OS_MemInit)
    i.OS_MsgPoolInit                         0x080042e8   Section        0  os_msg.o(i.OS_MsgPoolInit)
    i.OS_MsgQFreeAll                         0x08004364   Section        0  os_msg.o(i.OS_MsgQFreeAll)
    i.OS_MsgQInit                            0x080043a8   Section        0  os_msg.o(i.OS_MsgQInit)
    i.OS_MsgQPut                             0x080043b8   Section        0  os_msg.o(i.OS_MsgQPut)
    i.OS_MutexInit                           0x080044bc   Section        0  os_mutex.o(i.OS_MutexInit)
    i.OS_Pend                                0x080044d4   Section        0  os_core.o(i.OS_Pend)
    i.OS_PendDataInit                        0x0800453c   Section        0  os_core.o(i.OS_PendDataInit)
    i.OS_PendDbgNameAdd                      0x08004564   Section        0  os_core.o(i.OS_PendDbgNameAdd)
    i.OS_PendDbgNameRemove                   0x080045c0   Section        0  os_core.o(i.OS_PendDbgNameRemove)
    i.OS_PendListInsertPrio                  0x080045e4   Section        0  os_core.o(i.OS_PendListInsertPrio)
    i.OS_PendListRemove                      0x0800464a   Section        0  os_core.o(i.OS_PendListRemove)
    i.OS_PendListRemove1                     0x0800467a   Section        0  os_core.o(i.OS_PendListRemove1)
    i.OS_Post                                0x080046bc   Section        0  os_core.o(i.OS_Post)
    i.OS_Post1                               0x0800477c   Section        0  os_core.o(i.OS_Post1)
    i.OS_PrioGetHighest                      0x080047a8   Section        0  os_prio.o(i.OS_PrioGetHighest)
    i.OS_PrioInit                            0x080047d0   Section        0  os_prio.o(i.OS_PrioInit)
    i.OS_PrioInsert                          0x080047e8   Section        0  os_prio.o(i.OS_PrioInsert)
    i.OS_PrioRemove                          0x0800480c   Section        0  os_prio.o(i.OS_PrioRemove)
    i.OS_QInit                               0x08004830   Section        0  os_q.o(i.OS_QInit)
    i.OS_QPost                               0x08004848   Section        0  os_q.o(i.OS_QPost)
    i.OS_RdyListInit                         0x080049d0   Section        0  os_core.o(i.OS_RdyListInit)
    i.OS_RdyListInsert                       0x080049f4   Section        0  os_core.o(i.OS_RdyListInsert)
    i.OS_RdyListInsertHead                   0x08004a20   Section        0  os_core.o(i.OS_RdyListInsertHead)
    i.OS_RdyListInsertTail                   0x08004a60   Section        0  os_core.o(i.OS_RdyListInsertTail)
    i.OS_RdyListMoveHeadToTail               0x08004a9c   Section        0  os_core.o(i.OS_RdyListMoveHeadToTail)
    i.OS_RdyListRemove                       0x08004ae0   Section        0  os_core.o(i.OS_RdyListRemove)
    i.OS_Sched0                              0x08004b3c   Section        0  os_core.o(i.OS_Sched0)
    i.OS_SchedLockTimeMeasStart              0x08004b98   Section        0  os_core.o(i.OS_SchedLockTimeMeasStart)
    i.OS_SchedLockTimeMeasStop               0x08004bb4   Section        0  os_core.o(i.OS_SchedLockTimeMeasStop)
    i.OS_SchedRoundRobin                     0x08004bf0   Section        0  os_core.o(i.OS_SchedRoundRobin)
    i.OS_SemInit                             0x08004cdc   Section        0  os_sem.o(i.OS_SemInit)
    i.OS_SemPost                             0x08004cf4   Section        0  os_sem.o(i.OS_SemPost)
    i.OS_StatTask                            0x08004e8c   Section        0  os_stat.o(i.OS_StatTask)
    i.OS_StatTaskInit                        0x08005244   Section        0  os_stat.o(i.OS_StatTaskInit)
    i.OS_TaskBlock                           0x08005310   Section        0  os_core.o(i.OS_TaskBlock)
    i.OS_TaskDbgListAdd                      0x08005348   Section        0  os_task.o(i.OS_TaskDbgListAdd)
    i.OS_TaskDbgListRemove                   0x08005378   Section        0  os_task.o(i.OS_TaskDbgListRemove)
    i.OS_TaskInit                            0x080053bc   Section        0  os_task.o(i.OS_TaskInit)
    i.OS_TaskInitTCB                         0x080053dc   Section        0  os_task.o(i.OS_TaskInitTCB)
    i.OS_TaskQPost                           0x080054ac   Section        0  os_task.o(i.OS_TaskQPost)
    i.OS_TaskRdy                             0x08005718   Section        0  os_core.o(i.OS_TaskRdy)
    i.OS_TaskResume                          0x08005734   Section        0  os_task.o(i.OS_TaskResume)
    i.OS_TaskReturn                          0x080058b0   Section        0  os_task.o(i.OS_TaskReturn)
    i.OS_TaskSemPost                         0x080058c8   Section        0  os_task.o(i.OS_TaskSemPost)
    i.OS_TaskSuspend                         0x08005e70   Section        0  os_task.o(i.OS_TaskSuspend)
    i.OS_TickListInit                        0x08006000   Section        0  os_tick.o(i.OS_TickListInit)
    i.OS_TickListInsert                      0x08006028   Section        0  os_tick.o(i.OS_TickListInsert)
    i.OS_TickListRemove                      0x080061e4   Section        0  os_tick.o(i.OS_TickListRemove)
    i.OS_TickListResetPeak                   0x0800621c   Section        0  os_tick.o(i.OS_TickListResetPeak)
    i.OS_TickListUpdate                      0x08006240   Section        0  os_tick.o(i.OS_TickListUpdate)
    i.OS_TickTask                            0x08006460   Section        0  os_tick.o(i.OS_TickTask)
    i.OS_TickTaskInit                        0x0800648c   Section        0  os_tick.o(i.OS_TickTaskInit)
    i.OS_TmrInit                             0x08006544   Section        0  os_tmr.o(i.OS_TmrInit)
    i.OS_TmrLink                             0x0800666c   Section        0  os_tmr.o(i.OS_TmrLink)
    i.OS_TmrResetPeak                        0x0800673c   Section        0  os_tmr.o(i.OS_TmrResetPeak)
    i.OS_TmrTask                             0x08006760   Section        0  os_tmr.o(i.OS_TmrTask)
    i.OS_TmrUnlink                           0x08006820   Section        0  os_tmr.o(i.OS_TmrUnlink)
    i.SVC_Handler                            0x08006870   Section        0  stm32f10x_it.o(i.SVC_Handler)
    i.TFTLCD_FSMC_Init                       0x08006872   Section        0  tftlcd.o(i.TFTLCD_FSMC_Init)
    i.TFTLCD_GPIO_Init                       0x080068f0   Section        0  tftlcd.o(i.TFTLCD_GPIO_Init)
    i.TFTLCD_Init                            0x08006988   Section        0  tftlcd.o(i.TFTLCD_Init)
    i.USARTx_Config                          0x08006b7c   Section        0  bsp_usart1.o(i.USARTx_Config)
    i.UsageFault_Handler                     0x08006bfc   Section        0  stm32f10x_it.o(i.UsageFault_Handler)
    i.__scatterload_copy                     0x08006c00   Section       14  handlers.o(i.__scatterload_copy)
    i.__scatterload_null                     0x08006c0e   Section        2  handlers.o(i.__scatterload_null)
    i.__scatterload_zeroinit                 0x08006c10   Section       14  handlers.o(i.__scatterload_zeroinit)
    i.delay_ms                               0x08006c1e   Section        0  tftlcd.o(i.delay_ms)
    i.main                                   0x08006c3c   Section        0  main.o(i.main)
    .constdata                               0x08006c9c   Section    20482  tftlcd.o(.constdata)
    .constdata                               0x0800bca0   Section      164  os_cfg_app.o(.constdata)
    .constdata                               0x0800bd44   Section      364  os_dbg.o(.constdata)
    .data                                    0x20000000   Section       12  tftlcd.o(.data)
    .data                                    0x2000000c   Section       20  system_stm32f10x.o(.data)
    .data                                    0x20000020   Section       20  stm32f10x_rcc.o(.data)
    APBAHBPrescTable                         0x20000020   Data          16  stm32f10x_rcc.o(.data)
    ADCPrescTable                            0x20000030   Data           4  stm32f10x_rcc.o(.data)
    .data                                    0x20000034   Section       28  cpu_core.o(.data)
    .data                                    0x20000050   Section        4  lib_mem.o(.data)
    .data                                    0x20000054   Section      208  os_var.o(.data)
    .data                                    0x20000124   Section        4  os_cpu_c.o(.data)
    .data                                    0x20000128   Section        4  os_prio.o(.data)
    .bss                                     0x2000012c   Section     5208  main.o(.bss)
    AppTaskStartStk                          0x2000012c   Data         512  main.o(.bss)
    AppTaskStartTCB                          0x2000032c   Data         200  main.o(.bss)
    AppTaskLed1Stk                           0x200003f4   Data        2048  main.o(.bss)
    AppTaskLed1TCB                           0x20000bf4   Data         200  main.o(.bss)
    AppTaskLed2Stk                           0x20000cbc   Data        2048  main.o(.bss)
    AppTaskLed2TCB                           0x200014bc   Data         200  main.o(.bss)
    .bss                                     0x20001584   Section       16  cpu_core.o(.bss)
    .bss                                     0x20001594   Section    27720  lib_mem.o(.bss)
    .bss                                     0x200081dc   Section     5264  os_cfg_app.o(.bss)
    .bss                                     0x2000966c   Section     1396  os_var.o(.bss)
    STACK                                    0x20009be0   Section     1024  startup_stm32f10x_hd.o(STACK)

    Global Symbols

    Symbol Name                              Value     Ov Type        Size  Object(Section)

    BuildAttributes$$THM_ISAv4$P$D$K$B$S$PE$A:L22UL41UL21$X:L11$S22US41US21$IEEE1$IW$USESV6$~STKCKD$USESV7$~SHL$OSPACE$ROPI$EBA8$MICROLIB$REQ8$PRES8$EABIv2 0x00000000   Number         0  anon$$obj.o ABSOLUTE
    __ARM_use_no_argv                        0x00000000   Number         0  main.o ABSOLUTE
    __arm_fini_                               - Undefined Weak Reference
    __cpp_initialize__aeabi_                  - Undefined Weak Reference
    __cxa_finalize                            - Undefined Weak Reference
    _clock_init                               - Undefined Weak Reference
    _microlib_exit                            - Undefined Weak Reference
    __Vectors_Size                           0x00000130   Number         0  startup_stm32f10x_hd.o ABSOLUTE
    __Vectors                                0x08000000   Data           4  startup_stm32f10x_hd.o(RESET)
    __Vectors_End                            0x08000130   Data           0  startup_stm32f10x_hd.o(RESET)
    __main                                   0x08000131   Thumb Code     0  entry.o(.ARM.Collect$$$$00000000)
    _main_stk                                0x08000131   Thumb Code     0  entry2.o(.ARM.Collect$$$$00000001)
    _main_scatterload                        0x08000135   Thumb Code     0  entry5.o(.ARM.Collect$$$$00000004)
    __main_after_scatterload                 0x08000139   Thumb Code     0  entry5.o(.ARM.Collect$$$$00000004)
    _main_clock                              0x08000139   Thumb Code     0  entry7b.o(.ARM.Collect$$$$00000008)
    _main_cpp_init                           0x08000139   Thumb Code     0  entry8b.o(.ARM.Collect$$$$0000000A)
    _main_init                               0x08000139   Thumb Code     0  entry9a.o(.ARM.Collect$$$$0000000B)
    __rt_lib_shutdown_fini                   0x08000141   Thumb Code     0  entry12b.o(.ARM.Collect$$$$0000000E)
    __rt_final_cpp                           0x08000145   Thumb Code     0  entry10a.o(.ARM.Collect$$$$0000000F)
    __rt_final_exit                          0x08000145   Thumb Code     0  entry11a.o(.ARM.Collect$$$$00000011)
    Reset_Handler                            0x08000149   Thumb Code     8  startup_stm32f10x_hd.o(.text)
    ADC1_2_IRQHandler                        0x08000163   Thumb Code     0  startup_stm32f10x_hd.o(.text)
    ADC3_IRQHandler                          0x08000163   Thumb Code     0  startup_stm32f10x_hd.o(.text)
    CAN1_RX1_IRQHandler                      0x08000163   Thumb Code     0  startup_stm32f10x_hd.o(.text)
    CAN1_SCE_IRQHandler                      0x08000163   Thumb Code     0  startup_stm32f10x_hd.o(.text)
    DMA1_Channel1_IRQHandler                 0x08000163   Thumb Code     0  startup_stm32f10x_hd.o(.text)
    DMA1_Channel2_IRQHandler                 0x08000163   Thumb Code     0  startup_stm32f10x_hd.o(.text)
    DMA1_Channel3_IRQHandler                 0x08000163   Thumb Code     0  startup_stm32f10x_hd.o(.text)
    DMA1_Channel4_IRQHandler                 0x08000163   Thumb Code     0  startup_stm32f10x_hd.o(.text)
    DMA1_Channel5_IRQHandler                 0x08000163   Thumb Code     0  startup_stm32f10x_hd.o(.text)
    DMA1_Channel6_IRQHandler                 0x08000163   Thumb Code     0  startup_stm32f10x_hd.o(.text)
    DMA1_Channel7_IRQHandler                 0x08000163   Thumb Code     0  startup_stm32f10x_hd.o(.text)
    DMA2_Channel1_IRQHandler                 0x08000163   Thumb Code     0  startup_stm32f10x_hd.o(.text)
    DMA2_Channel2_IRQHandler                 0x08000163   Thumb Code     0  startup_stm32f10x_hd.o(.text)
    DMA2_Channel3_IRQHandler                 0x08000163   Thumb Code     0  startup_stm32f10x_hd.o(.text)
    DMA2_Channel4_5_IRQHandler               0x08000163   Thumb Code     0  startup_stm32f10x_hd.o(.text)
    EXTI0_IRQHandler                         0x08000163   Thumb Code     0  startup_stm32f10x_hd.o(.text)
    EXTI15_10_IRQHandler                     0x08000163   Thumb Code     0  startup_stm32f10x_hd.o(.text)
    EXTI1_IRQHandler                         0x08000163   Thumb Code     0  startup_stm32f10x_hd.o(.text)
    EXTI2_IRQHandler                         0x08000163   Thumb Code     0  startup_stm32f10x_hd.o(.text)
    EXTI3_IRQHandler                         0x08000163   Thumb Code     0  startup_stm32f10x_hd.o(.text)
    EXTI4_IRQHandler                         0x08000163   Thumb Code     0  startup_stm32f10x_hd.o(.text)
    EXTI9_5_IRQHandler                       0x08000163   Thumb Code     0  startup_stm32f10x_hd.o(.text)
    FLASH_IRQHandler                         0x08000163   Thumb Code     0  startup_stm32f10x_hd.o(.text)
    FSMC_IRQHandler                          0x08000163   Thumb Code     0  startup_stm32f10x_hd.o(.text)
    I2C1_ER_IRQHandler                       0x08000163   Thumb Code     0  startup_stm32f10x_hd.o(.text)
    I2C1_EV_IRQHandler                       0x08000163   Thumb Code     0  startup_stm32f10x_hd.o(.text)
    I2C2_ER_IRQHandler                       0x08000163   Thumb Code     0  startup_stm32f10x_hd.o(.text)
    I2C2_EV_IRQHandler                       0x08000163   Thumb Code     0  startup_stm32f10x_hd.o(.text)
    PVD_IRQHandler                           0x08000163   Thumb Code     0  startup_stm32f10x_hd.o(.text)
    RCC_IRQHandler                           0x08000163   Thumb Code     0  startup_stm32f10x_hd.o(.text)
    RTCAlarm_IRQHandler                      0x08000163   Thumb Code     0  startup_stm32f10x_hd.o(.text)
    RTC_IRQHandler                           0x08000163   Thumb Code     0  startup_stm32f10x_hd.o(.text)
    SDIO_IRQHandler                          0x08000163   Thumb Code     0  startup_stm32f10x_hd.o(.text)
    SPI1_IRQHandler                          0x08000163   Thumb Code     0  startup_stm32f10x_hd.o(.text)
    SPI2_IRQHandler                          0x08000163   Thumb Code     0  startup_stm32f10x_hd.o(.text)
    SPI3_IRQHandler                          0x08000163   Thumb Code     0  startup_stm32f10x_hd.o(.text)
    TAMPER_IRQHandler                        0x08000163   Thumb Code     0  startup_stm32f10x_hd.o(.text)
    TIM1_BRK_IRQHandler                      0x08000163   Thumb Code     0  startup_stm32f10x_hd.o(.text)
    TIM1_CC_IRQHandler                       0x08000163   Thumb Code     0  startup_stm32f10x_hd.o(.text)
    TIM1_TRG_COM_IRQHandler                  0x08000163   Thumb Code     0  startup_stm32f10x_hd.o(.text)
    TIM1_UP_IRQHandler                       0x08000163   Thumb Code     0  startup_stm32f10x_hd.o(.text)
    TIM2_IRQHandler                          0x08000163   Thumb Code     0  startup_stm32f10x_hd.o(.text)
    TIM3_IRQHandler                          0x08000163   Thumb Code     0  startup_stm32f10x_hd.o(.text)
    TIM4_IRQHandler                          0x08000163   Thumb Code     0  startup_stm32f10x_hd.o(.text)
    TIM5_IRQHandler                          0x08000163   Thumb Code     0  startup_stm32f10x_hd.o(.text)
    TIM6_IRQHandler                          0x08000163   Thumb Code     0  startup_stm32f10x_hd.o(.text)
    TIM7_IRQHandler                          0x08000163   Thumb Code     0  startup_stm32f10x_hd.o(.text)
    TIM8_BRK_IRQHandler                      0x08000163   Thumb Code     0  startup_stm32f10x_hd.o(.text)
    TIM8_CC_IRQHandler                       0x08000163   Thumb Code     0  startup_stm32f10x_hd.o(.text)
    TIM8_TRG_COM_IRQHandler                  0x08000163   Thumb Code     0  startup_stm32f10x_hd.o(.text)
    TIM8_UP_IRQHandler                       0x08000163   Thumb Code     0  startup_stm32f10x_hd.o(.text)
    UART4_IRQHandler                         0x08000163   Thumb Code     0  startup_stm32f10x_hd.o(.text)
    UART5_IRQHandler                         0x08000163   Thumb Code     0  startup_stm32f10x_hd.o(.text)
    USART1_IRQHandler                        0x08000163   Thumb Code     0  startup_stm32f10x_hd.o(.text)
    USART2_IRQHandler                        0x08000163   Thumb Code     0  startup_stm32f10x_hd.o(.text)
    USART3_IRQHandler                        0x08000163   Thumb Code     0  startup_stm32f10x_hd.o(.text)
    USBWakeUp_IRQHandler                     0x08000163   Thumb Code     0  startup_stm32f10x_hd.o(.text)
    USB_HP_CAN1_TX_IRQHandler                0x08000163   Thumb Code     0  startup_stm32f10x_hd.o(.text)
    USB_LP_CAN1_RX0_IRQHandler               0x08000163   Thumb Code     0  startup_stm32f10x_hd.o(.text)
    WWDG_IRQHandler                          0x08000163   Thumb Code     0  startup_stm32f10x_hd.o(.text)
    SystemInit                               0x08000249   Thumb Code    78  system_stm32f10x.o(.text)
    SystemCoreClockUpdate                    0x08000297   Thumb Code   142  system_stm32f10x.o(.text)
    GPIO_DeInit                              0x08000349   Thumb Code   172  stm32f10x_gpio.o(.text)
    GPIO_AFIODeInit                          0x080003f5   Thumb Code    20  stm32f10x_gpio.o(.text)
    GPIO_Init                                0x08000409   Thumb Code   274  stm32f10x_gpio.o(.text)
    GPIO_StructInit                          0x0800051b   Thumb Code    16  stm32f10x_gpio.o(.text)
    GPIO_ReadInputDataBit                    0x0800052b   Thumb Code    18  stm32f10x_gpio.o(.text)
    GPIO_ReadInputData                       0x0800053d   Thumb Code     8  stm32f10x_gpio.o(.text)
    GPIO_ReadOutputDataBit                   0x08000545   Thumb Code    18  stm32f10x_gpio.o(.text)
    GPIO_ReadOutputData                      0x08000557   Thumb Code     8  stm32f10x_gpio.o(.text)
    GPIO_SetBits                             0x0800055f   Thumb Code     4  stm32f10x_gpio.o(.text)
    GPIO_ResetBits                           0x08000563   Thumb Code     4  stm32f10x_gpio.o(.text)
    GPIO_WriteBit                            0x08000567   Thumb Code    10  stm32f10x_gpio.o(.text)
    GPIO_Write                               0x08000571   Thumb Code     4  stm32f10x_gpio.o(.text)
    GPIO_PinLockConfig                       0x08000575   Thumb Code    18  stm32f10x_gpio.o(.text)
    GPIO_EventOutputConfig                   0x08000587   Thumb Code    26  stm32f10x_gpio.o(.text)
    GPIO_EventOutputCmd                      0x080005a1   Thumb Code     6  stm32f10x_gpio.o(.text)
    GPIO_PinRemapConfig                      0x080005a7   Thumb Code   138  stm32f10x_gpio.o(.text)
    GPIO_EXTILineConfig                      0x08000631   Thumb Code    66  stm32f10x_gpio.o(.text)
    GPIO_ETH_MediaInterfaceConfig            0x08000673   Thumb Code     6  stm32f10x_gpio.o(.text)
    RCC_DeInit                               0x080006a1   Thumb Code    64  stm32f10x_rcc.o(.text)
    RCC_HSEConfig                            0x080006e1   Thumb Code    70  stm32f10x_rcc.o(.text)
    RCC_GetFlagStatus                        0x08000727   Thumb Code    56  stm32f10x_rcc.o(.text)
    RCC_WaitForHSEStartUp                    0x0800075f   Thumb Code    56  stm32f10x_rcc.o(.text)
    RCC_AdjustHSICalibrationValue            0x08000797   Thumb Code    20  stm32f10x_rcc.o(.text)
    RCC_HSICmd                               0x080007ab   Thumb Code     6  stm32f10x_rcc.o(.text)
    RCC_PLLConfig                            0x080007b1   Thumb Code    24  stm32f10x_rcc.o(.text)
    RCC_PLLCmd                               0x080007c9   Thumb Code     6  stm32f10x_rcc.o(.text)
    RCC_SYSCLKConfig                         0x080007cf   Thumb Code    18  stm32f10x_rcc.o(.text)
    RCC_GetSYSCLKSource                      0x080007e1   Thumb Code    10  stm32f10x_rcc.o(.text)
    RCC_HCLKConfig                           0x080007eb   Thumb Code    18  stm32f10x_rcc.o(.text)
    RCC_PCLK1Config                          0x080007fd   Thumb Code    18  stm32f10x_rcc.o(.text)
    RCC_PCLK2Config                          0x0800080f   Thumb Code    20  stm32f10x_rcc.o(.text)
    RCC_ITConfig                             0x08000823   Thumb Code    26  stm32f10x_rcc.o(.text)
    RCC_USBCLKConfig                         0x0800083d   Thumb Code     6  stm32f10x_rcc.o(.text)
    RCC_ADCCLKConfig                         0x08000843   Thumb Code    18  stm32f10x_rcc.o(.text)
    RCC_LSEConfig                            0x08000855   Thumb Code    44  stm32f10x_rcc.o(.text)
    RCC_LSICmd                               0x08000881   Thumb Code     6  stm32f10x_rcc.o(.text)
    RCC_RTCCLKConfig                         0x08000887   Thumb Code    12  stm32f10x_rcc.o(.text)
    RCC_RTCCLKCmd                            0x08000893   Thumb Code     8  stm32f10x_rcc.o(.text)
    RCC_GetClocksFreq                        0x0800089b   Thumb Code   192  stm32f10x_rcc.o(.text)
    RCC_AHBPeriphClockCmd                    0x0800095b   Thumb Code    26  stm32f10x_rcc.o(.text)
    RCC_APB2PeriphClockCmd                   0x08000975   Thumb Code    26  stm32f10x_rcc.o(.text)
    RCC_APB1PeriphClockCmd                   0x0800098f   Thumb Code    26  stm32f10x_rcc.o(.text)
    RCC_APB2PeriphResetCmd                   0x080009a9   Thumb Code    26  stm32f10x_rcc.o(.text)
    RCC_APB1PeriphResetCmd                   0x080009c3   Thumb Code    26  stm32f10x_rcc.o(.text)
    RCC_BackupResetCmd                       0x080009dd   Thumb Code     8  stm32f10x_rcc.o(.text)
    RCC_ClockSecuritySystemCmd               0x080009e5   Thumb Code     6  stm32f10x_rcc.o(.text)
    RCC_MCOConfig                            0x080009eb   Thumb Code     6  stm32f10x_rcc.o(.text)
    RCC_ClearFlag                            0x080009f1   Thumb Code    14  stm32f10x_rcc.o(.text)
    RCC_GetITStatus                          0x080009ff   Thumb Code    20  stm32f10x_rcc.o(.text)
    RCC_ClearITPendingBit                    0x08000a13   Thumb Code     6  stm32f10x_rcc.o(.text)
    FSMC_NORSRAMDeInit                       0x08000a45   Thumb Code    56  stm32f10x_fsmc.o(.text)
    FSMC_NANDDeInit                          0x08000a7d   Thumb Code    62  stm32f10x_fsmc.o(.text)
    FSMC_PCCARDDeInit                        0x08000abb   Thumb Code    40  stm32f10x_fsmc.o(.text)
    FSMC_NORSRAMInit                         0x08000ae3   Thumb Code   224  stm32f10x_fsmc.o(.text)
    FSMC_NANDInit                            0x08000bc3   Thumb Code   130  stm32f10x_fsmc.o(.text)
    FSMC_PCCARDInit                          0x08000c45   Thumb Code   124  stm32f10x_fsmc.o(.text)
    FSMC_NORSRAMStructInit                   0x08000cc1   Thumb Code   114  stm32f10x_fsmc.o(.text)
    FSMC_NANDStructInit                      0x08000d33   Thumb Code    54  stm32f10x_fsmc.o(.text)
    FSMC_PCCARDStructInit                    0x08000d69   Thumb Code    60  stm32f10x_fsmc.o(.text)
    FSMC_NORSRAMCmd                          0x08000da5   Thumb Code    46  stm32f10x_fsmc.o(.text)
    FSMC_NANDCmd                             0x08000dd3   Thumb Code    86  stm32f10x_fsmc.o(.text)
    FSMC_PCCARDCmd                           0x08000e29   Thumb Code    40  stm32f10x_fsmc.o(.text)
    FSMC_NANDECCCmd                          0x08000e51   Thumb Code   118  stm32f10x_fsmc.o(.text)
    FSMC_GetECC                              0x08000ec7   Thumb Code    22  stm32f10x_fsmc.o(.text)
    FSMC_ITConfig                            0x08000edd   Thumb Code   128  stm32f10x_fsmc.o(.text)
    FSMC_GetFlagStatus                       0x08000f5d   Thumb Code    48  stm32f10x_fsmc.o(.text)
    FSMC_ClearFlag                           0x08000f8d   Thumb Code    62  stm32f10x_fsmc.o(.text)
    FSMC_GetITStatus                         0x08000fcb   Thumb Code    60  stm32f10x_fsmc.o(.text)
    FSMC_ClearITPendingBit                   0x08001007   Thumb Code    64  stm32f10x_fsmc.o(.text)
    USART_DeInit                             0x0800105d   Thumb Code   134  stm32f10x_usart.o(.text)
    USART_Init                               0x080010e3   Thumb Code   210  stm32f10x_usart.o(.text)
    USART_StructInit                         0x080011b5   Thumb Code    24  stm32f10x_usart.o(.text)
    USART_ClockInit                          0x080011cd   Thumb Code    34  stm32f10x_usart.o(.text)
    USART_ClockStructInit                    0x080011ef   Thumb Code    12  stm32f10x_usart.o(.text)
    USART_Cmd                                0x080011fb   Thumb Code    24  stm32f10x_usart.o(.text)
    USART_ITConfig                           0x08001213   Thumb Code    74  stm32f10x_usart.o(.text)
    USART_DMACmd                             0x0800125d   Thumb Code    18  stm32f10x_usart.o(.text)
    USART_SetAddress                         0x0800126f   Thumb Code    18  stm32f10x_usart.o(.text)
    USART_WakeUpConfig                       0x08001281   Thumb Code    18  stm32f10x_usart.o(.text)
    USART_ReceiverWakeUpCmd                  0x08001293   Thumb Code    24  stm32f10x_usart.o(.text)
    USART_LINBreakDetectLengthConfig         0x080012ab   Thumb Code    18  stm32f10x_usart.o(.text)
    USART_LINCmd                             0x080012bd   Thumb Code    24  stm32f10x_usart.o(.text)
    USART_SendData                           0x080012d5   Thumb Code     8  stm32f10x_usart.o(.text)
    USART_ReceiveData                        0x080012dd   Thumb Code    10  stm32f10x_usart.o(.text)
    USART_SendBreak                          0x080012e7   Thumb Code    10  stm32f10x_usart.o(.text)
    USART_SetGuardTime                       0x080012f1   Thumb Code    16  stm32f10x_usart.o(.text)
    USART_SetPrescaler                       0x08001301   Thumb Code    16  stm32f10x_usart.o(.text)
    USART_SmartCardCmd                       0x08001311   Thumb Code    24  stm32f10x_usart.o(.text)
    USART_SmartCardNACKCmd                   0x08001329   Thumb Code    24  stm32f10x_usart.o(.text)
    USART_HalfDuplexCmd                      0x08001341   Thumb Code    24  stm32f10x_usart.o(.text)
    USART_OverSampling8Cmd                   0x08001359   Thumb Code    22  stm32f10x_usart.o(.text)
    USART_OneBitMethodCmd                    0x0800136f   Thumb Code    24  stm32f10x_usart.o(.text)
    USART_IrDAConfig                         0x08001387   Thumb Code    18  stm32f10x_usart.o(.text)
    USART_IrDACmd                            0x08001399   Thumb Code    24  stm32f10x_usart.o(.text)
    USART_GetFlagStatus                      0x080013b1   Thumb Code    26  stm32f10x_usart.o(.text)
    USART_ClearFlag                          0x080013cb   Thumb Code    18  stm32f10x_usart.o(.text)
    USART_GetITStatus                        0x080013dd   Thumb Code    84  stm32f10x_usart.o(.text)
    USART_ClearITPendingBit                  0x08001431   Thumb Code    52  stm32f10x_usart.o(.text)
    CPU_IntDis                               0x08001465   Thumb Code     0  cpu_a.o(.text)
    CPU_IntEn                                0x08001469   Thumb Code     0  cpu_a.o(.text)
    CPU_SR_Save                              0x0800146d   Thumb Code     0  cpu_a.o(.text)
    CPU_SR_Restore                           0x08001475   Thumb Code     0  cpu_a.o(.text)
    CPU_WaitForInt                           0x0800147b   Thumb Code     0  cpu_a.o(.text)
    CPU_WaitForExcept                        0x0800147f   Thumb Code     0  cpu_a.o(.text)
    CPU_CntLeadZeros                         0x08001483   Thumb Code     0  cpu_a.o(.text)
    CPU_CntTrailZeros                        0x08001489   Thumb Code     0  cpu_a.o(.text)
    CPU_RevBits                              0x08001493   Thumb Code     0  cpu_a.o(.text)
    __scatterload                            0x08001499   Thumb Code    28  init.o(.text)
    __scatterload_rt2                        0x08001499   Thumb Code     0  init.o(.text)
    __decompress                             0x080014bd   Thumb Code     0  __dczerorl2.o(.text)
    __decompress1                            0x080014bd   Thumb Code    86  __dczerorl2.o(.text)
    OSStartHighRdy                           0x08001515   Thumb Code     0  os_cpu_a.o(CODE)
    OS_CPU_PendSVHandler                     0x08001537   Thumb Code     0  os_cpu_a.o(CODE)
    BEEP_Init                                0x08001925   Thumb Code    50  bsp_beep.o(i.BEEP_Init)
    BSP_CPU_ClkFreq                          0x0800195d   Thumb Code    16  bsp.o(i.BSP_CPU_ClkFreq)
    BSP_Init                                 0x0800196d   Thumb Code    30  bsp.o(i.BSP_Init)
    BusFault_Handler                         0x08001991   Thumb Code     4  stm32f10x_it.o(i.BusFault_Handler)
    CPU_Init                                 0x08001995   Thumb Code    16  cpu_core.o(i.CPU_Init)
    CPU_IntDisMeasMaxCurGet                  0x08001a45   Thumb Code    40  cpu_core.o(i.CPU_IntDisMeasMaxCurGet)
    CPU_IntDisMeasMaxCurReset                0x08001a71   Thumb Code    40  cpu_core.o(i.CPU_IntDisMeasMaxCurReset)
    CPU_IntDisMeasMaxGet                     0x08001a9d   Thumb Code    40  cpu_core.o(i.CPU_IntDisMeasMaxGet)
    CPU_IntDisMeasStart                      0x08001ac9   Thumb Code    38  cpu_core.o(i.CPU_IntDisMeasStart)
    CPU_IntDisMeasStop                       0x08001afd   Thumb Code    62  cpu_core.o(i.CPU_IntDisMeasStop)
    CPU_NameClr                              0x08001b51   Thumb Code    50  cpu_core.o(i.CPU_NameClr)
    CPU_TS_TmrFreqSet                        0x08001ba5   Thumb Code     6  cpu_core.o(i.CPU_TS_TmrFreqSet)
    CPU_TS_TmrInit                           0x08001bb1   Thumb Code    44  bsp.o(i.CPU_TS_TmrInit)
    CPU_TS_TmrRd                             0x08001be5   Thumb Code     6  bsp.o(i.CPU_TS_TmrRd)
    DebugMon_Handler                         0x08001bf1   Thumb Code     2  stm32f10x_it.o(i.DebugMon_Handler)
    HardFault_Handler                        0x08001bf3   Thumb Code     4  stm32f10x_it.o(i.HardFault_Handler)
    Key_Initial                              0x08001c65   Thumb Code    20  bsp_key.o(i.Key_Initial)
    LCD_Clear                                0x08001c9d   Thumb Code    68  tftlcd.o(i.LCD_Clear)
    LCD_Display_Dir                          0x08001ce5   Thumb Code    82  tftlcd.o(i.LCD_Display_Dir)
    LCD_DrawFRONT_COLOR                      0x08001d3d   Thumb Code    28  tftlcd.o(i.LCD_DrawFRONT_COLOR)
    LCD_DrawPoint                            0x08001d59   Thumb Code    28  tftlcd.o(i.LCD_DrawPoint)
    LCD_Draw_Circle                          0x08001d79   Thumb Code   152  tftlcd.o(i.LCD_Draw_Circle)
    LCD_Fill                                 0x08001e11   Thumb Code    92  tftlcd.o(i.LCD_Fill)
    LCD_Pow                                  0x08001e6d   Thumb Code    22  tftlcd.o(i.LCD_Pow)
    LCD_Set_Window                           0x08001e83   Thumb Code   166  tftlcd.o(i.LCD_Set_Window)
    LCD_ShowChar                             0x08001f29   Thumb Code   272  tftlcd.o(i.LCD_ShowChar)
    LCD_ShowFontHZ                           0x08002051   Thumb Code   220  tftlcd.o(i.LCD_ShowFontHZ)
    LCD_ShowString                           0x08002139   Thumb Code   102  tftlcd.o(i.LCD_ShowString)
    LCD_ShowxNum                             0x0800219f   Thumb Code   190  tftlcd.o(i.LCD_ShowxNum)
    LCD_UI                                   0x0800225d   Thumb Code    98  main.o(i.LCD_UI)
    LCD_WriteCmd                             0x080022f1   Thumb Code     6  tftlcd.o(i.LCD_WriteCmd)
    LCD_WriteCmdData                         0x080022fd   Thumb Code    20  tftlcd.o(i.LCD_WriteCmdData)
    LCD_WriteData                            0x08002311   Thumb Code     6  tftlcd.o(i.LCD_WriteData)
    LCD_WriteData_Color                      0x0800231d   Thumb Code    12  tftlcd.o(i.LCD_WriteData_Color)
    LED_Init                                 0x080023a5   Thumb Code    32  bsp_led.o(i.LED_Init)
    MemManage_Handler                        0x080023c9   Thumb Code     4  stm32f10x_it.o(i.MemManage_Handler)
    Mem_Clr                                  0x080023cd   Thumb Code    18  lib_mem.o(i.Mem_Clr)
    Mem_Init                                 0x080023e1   Thumb Code    54  lib_mem.o(i.Mem_Init)
    Mem_Set                                  0x08002429   Thumb Code    98  lib_mem.o(i.Mem_Set)
    NMI_Handler                              0x0800248b   Thumb Code     2  stm32f10x_it.o(i.NMI_Handler)
    OSCfg_Init                               0x0800248d   Thumb Code     2  os_cfg_app.o(i.OSCfg_Init)
    OSIdleTaskHook                           0x08002491   Thumb Code    16  os_cpu_c.o(i.OSIdleTaskHook)
    OSInit                                   0x080024a5   Thumb Code   300  os_core.o(i.OSInit)
    OSInitHook                               0x08002631   Thumb Code    42  os_cpu_c.o(i.OSInitHook)
    OSIntExit                                0x08002669   Thumb Code   192  os_core.o(i.OSIntExit)
    OSSched                                  0x0800274d   Thumb Code   134  os_core.o(i.OSSched)
    OSSchedLock                              0x080027f5   Thumb Code   112  os_core.o(i.OSSchedLock)
    OSSchedRoundRobinCfg                     0x08002871   Thumb Code    96  os_core.o(i.OSSchedRoundRobinCfg)
    OSSchedUnlock                            0x080028dd   Thumb Code   148  os_core.o(i.OSSchedUnlock)
    OSStart                                  0x0800297d   Thumb Code    78  os_core.o(i.OSStart)
    OSStatReset                              0x080029e5   Thumb Code   316  os_stat.o(i.OSStatReset)
    OSStatTaskCPUUsageInit                   0x08002b4d   Thumb Code   228  os_stat.o(i.OSStatTaskCPUUsageInit)
    OSStatTaskHook                           0x08002c4d   Thumb Code    16  os_cpu_c.o(i.OSStatTaskHook)
    OSTaskCreate                             0x08002c61   Thumb Code   624  os_task.o(i.OSTaskCreate)
    OSTaskCreateHook                         0x08002ef5   Thumb Code    20  os_cpu_c.o(i.OSTaskCreateHook)
    OSTaskDel                                0x08002f0d   Thumb Code   490  os_task.o(i.OSTaskDel)
    OSTaskDelHook                            0x08003115   Thumb Code    20  os_cpu_c.o(i.OSTaskDelHook)
    OSTaskResume                             0x0800312d   Thumb Code   124  os_task.o(i.OSTaskResume)
    OSTaskReturnHook                         0x080031b5   Thumb Code    20  os_cpu_c.o(i.OSTaskReturnHook)
    OSTaskSemPend                            0x080031cd   Thumb Code   578  os_task.o(i.OSTaskSemPend)
    OSTaskStkChk                             0x0800341d   Thumb Code   220  os_task.o(i.OSTaskStkChk)
    OSTaskStkInit                            0x08003501   Thumb Code   188  os_cpu_c.o(i.OSTaskStkInit)
    OSTaskSuspend                            0x080035c1   Thumb Code    78  os_task.o(i.OSTaskSuspend)
    OSTaskSwHook                             0x08003621   Thumb Code   146  os_cpu_c.o(i.OSTaskSwHook)
    OSTimeDly                                0x080036c5   Thumb Code   322  os_time.o(i.OSTimeDly)
    OSTimeTick                               0x08003815   Thumb Code    54  os_time.o(i.OSTimeTick)
    OSTimeTickHook                           0x08003859   Thumb Code    16  os_cpu_c.o(i.OSTimeTickHook)
    OS_CPU_SysTickHandler                    0x0800386d   Thumb Code    60  os_cpu_c.o(i.OS_CPU_SysTickHandler)
    OS_CPU_SysTickInit                       0x080038ad   Thumb Code    44  os_cpu_c.o(i.OS_CPU_SysTickInit)
    OS_Dbg_Init                              0x080038dd   Thumb Code   150  os_dbg.o(i.OS_Dbg_Init)
    OS_FlagInit                              0x08003a91   Thumb Code    14  os_flag.o(i.OS_FlagInit)
    OS_FlagPost                              0x08003aa9   Thumb Code   626  os_flag.o(i.OS_FlagPost)
    OS_FlagTaskRdy                           0x08003d25   Thumb Code    86  os_flag.o(i.OS_FlagTaskRdy)
    OS_IdleTask                              0x08003d7d   Thumb Code    68  os_core.o(i.OS_IdleTask)
    OS_IdleTaskInit                          0x08003dc9   Thumb Code    66  os_core.o(i.OS_IdleTaskInit)
    OS_IntQPost                              0x08003e39   Thumb Code   224  os_int.o(i.OS_IntQPost)
    OS_IntQRePost                            0x08003f3d   Thumb Code   360  os_int.o(i.OS_IntQRePost)
    OS_IntQTask                              0x080040e1   Thumb Code   182  os_int.o(i.OS_IntQTask)
    OS_IntQTaskInit                          0x080041a9   Thumb Code   206  os_int.o(i.OS_IntQTaskInit)
    OS_MemInit                               0x080042d1   Thumb Code    14  os_mem.o(i.OS_MemInit)
    OS_MsgPoolInit                           0x080042e9   Thumb Code   110  os_msg.o(i.OS_MsgPoolInit)
    OS_MsgQFreeAll                           0x08004365   Thumb Code    62  os_msg.o(i.OS_MsgQFreeAll)
    OS_MsgQInit                              0x080043a9   Thumb Code    14  os_msg.o(i.OS_MsgQInit)
    OS_MsgQPut                               0x080043b9   Thumb Code   254  os_msg.o(i.OS_MsgQPut)
    OS_MutexInit                             0x080044bd   Thumb Code    14  os_mutex.o(i.OS_MutexInit)
    OS_Pend                                  0x080044d5   Thumb Code    98  os_core.o(i.OS_Pend)
    OS_PendDataInit                          0x0800453d   Thumb Code    38  os_core.o(i.OS_PendDataInit)
    OS_PendDbgNameAdd                        0x08004565   Thumb Code    66  os_core.o(i.OS_PendDbgNameAdd)
    OS_PendDbgNameRemove                     0x080045c1   Thumb Code    30  os_core.o(i.OS_PendDbgNameRemove)
    OS_PendListInsertPrio                    0x080045e5   Thumb Code   102  os_core.o(i.OS_PendListInsertPrio)
    OS_PendListRemove                        0x0800464b   Thumb Code    48  os_core.o(i.OS_PendListRemove)
    OS_PendListRemove1                       0x0800467b   Thumb Code    66  os_core.o(i.OS_PendListRemove1)
    OS_Post                                  0x080046bd   Thumb Code   192  os_core.o(i.OS_Post)
    OS_Post1                                 0x0800477d   Thumb Code    42  os_core.o(i.OS_Post1)
    OS_PrioGetHighest                        0x080047a9   Thumb Code    36  os_prio.o(i.OS_PrioGetHighest)
    OS_PrioInit                              0x080047d1   Thumb Code    20  os_prio.o(i.OS_PrioInit)
    OS_PrioInsert                            0x080047e9   Thumb Code    32  os_prio.o(i.OS_PrioInsert)
    OS_PrioRemove                            0x0800480d   Thumb Code    32  os_prio.o(i.OS_PrioRemove)
    OS_QInit                                 0x08004831   Thumb Code    14  os_q.o(i.OS_QInit)
    OS_QPost                                 0x08004849   Thumb Code   382  os_q.o(i.OS_QPost)
    OS_RdyListInit                           0x080049d1   Thumb Code    32  os_core.o(i.OS_RdyListInit)
    OS_RdyListInsert                         0x080049f5   Thumb Code    40  os_core.o(i.OS_RdyListInsert)
    OS_RdyListInsertHead                     0x08004a21   Thumb Code    58  os_core.o(i.OS_RdyListInsertHead)
    OS_RdyListInsertTail                     0x08004a61   Thumb Code    56  os_core.o(i.OS_RdyListInsertTail)
    OS_RdyListMoveHeadToTail                 0x08004a9d   Thumb Code    68  os_core.o(i.OS_RdyListMoveHeadToTail)
    OS_RdyListRemove                         0x08004ae1   Thumb Code    86  os_core.o(i.OS_RdyListRemove)
    OS_Sched0                                0x08004b3d   Thumb Code    72  os_core.o(i.OS_Sched0)
    OS_SchedLockTimeMeasStart                0x08004b99   Thumb Code    20  os_core.o(i.OS_SchedLockTimeMeasStart)
    OS_SchedLockTimeMeasStop                 0x08004bb5   Thumb Code    44  os_core.o(i.OS_SchedLockTimeMeasStop)
    OS_SchedRoundRobin                       0x08004bf1   Thumb Code   218  os_core.o(i.OS_SchedRoundRobin)
    OS_SemInit                               0x08004cdd   Thumb Code    14  os_sem.o(i.OS_SemInit)
    OS_SemPost                               0x08004cf5   Thumb Code   404  os_sem.o(i.OS_SemPost)
    OS_StatTask                              0x08004e8d   Thumb Code   878  os_stat.o(i.OS_StatTask)
    OS_StatTaskInit                          0x08005245   Thumb Code   136  os_stat.o(i.OS_StatTaskInit)
    OS_TaskBlock                             0x08005311   Thumb Code    56  os_core.o(i.OS_TaskBlock)
    OS_TaskDbgListAdd                        0x08005349   Thumb Code    42  os_task.o(i.OS_TaskDbgListAdd)
    OS_TaskDbgListRemove                     0x08005379   Thumb Code    64  os_task.o(i.OS_TaskDbgListRemove)
    OS_TaskInit                              0x080053bd   Thumb Code    18  os_task.o(i.OS_TaskInit)
    OS_TaskInitTCB                           0x080053dd   Thumb Code   194  os_task.o(i.OS_TaskInitTCB)
    OS_TaskQPost                             0x080054ad   Thumb Code   606  os_task.o(i.OS_TaskQPost)
    OS_TaskRdy                               0x08005719   Thumb Code    28  os_core.o(i.OS_TaskRdy)
    OS_TaskResume                            0x08005735   Thumb Code   374  os_task.o(i.OS_TaskResume)
    OS_TaskReturn                            0x080058b1   Thumb Code    20  os_task.o(i.OS_TaskReturn)
    OS_TaskSemPost                           0x080058c9   Thumb Code  1438  os_task.o(i.OS_TaskSemPost)
    OS_TaskSuspend                           0x08005e71   Thumb Code   392  os_task.o(i.OS_TaskSuspend)
    OS_TickListInit                          0x08006001   Thumb Code    32  os_tick.o(i.OS_TickListInit)
    OS_TickListInsert                        0x08006029   Thumb Code   430  os_tick.o(i.OS_TickListInsert)
    OS_TickListRemove                        0x080061e5   Thumb Code    56  os_tick.o(i.OS_TickListRemove)
    OS_TickListResetPeak                     0x0800621d   Thumb Code    28  os_tick.o(i.OS_TickListResetPeak)
    OS_TickListUpdate                        0x08006241   Thumb Code   520  os_tick.o(i.OS_TickListUpdate)
    OS_TickTask                              0x08006461   Thumb Code    38  os_tick.o(i.OS_TickTask)
    OS_TickTaskInit                          0x0800648d   Thumb Code   128  os_tick.o(i.OS_TickTaskInit)
    OS_TmrInit                               0x08006545   Thumb Code   206  os_tmr.o(i.OS_TmrInit)
    OS_TmrLink                               0x0800666d   Thumb Code   196  os_tmr.o(i.OS_TmrLink)
    OS_TmrResetPeak                          0x0800673d   Thumb Code    28  os_tmr.o(i.OS_TmrResetPeak)
    OS_TmrTask                               0x08006761   Thumb Code   176  os_tmr.o(i.OS_TmrTask)
    OS_TmrUnlink                             0x08006821   Thumb Code    72  os_tmr.o(i.OS_TmrUnlink)
    SVC_Handler                              0x08006871   Thumb Code     2  stm32f10x_it.o(i.SVC_Handler)
    TFTLCD_FSMC_Init                         0x08006873   Thumb Code   126  tftlcd.o(i.TFTLCD_FSMC_Init)
    TFTLCD_GPIO_Init                         0x080068f1   Thumb Code   130  tftlcd.o(i.TFTLCD_GPIO_Init)
    TFTLCD_Init                              0x08006989   Thumb Code   492  tftlcd.o(i.TFTLCD_Init)
    USARTx_Config                            0x08006b7d   Thumb Code   120  bsp_usart1.o(i.USARTx_Config)
    UsageFault_Handler                       0x08006bfd   Thumb Code     4  stm32f10x_it.o(i.UsageFault_Handler)
    __scatterload_copy                       0x08006c01   Thumb Code    14  handlers.o(i.__scatterload_copy)
    __scatterload_null                       0x08006c0f   Thumb Code     2  handlers.o(i.__scatterload_null)
    __scatterload_zeroinit                   0x08006c11   Thumb Code    14  handlers.o(i.__scatterload_zeroinit)
    delay_ms                                 0x08006c1f   Thumb Code    28  tftlcd.o(i.delay_ms)
    main                                     0x08006c3d   Thumb Code    68  main.o(i.main)
    ascii_1206                               0x08006c9c   Data        1140  tftlcd.o(.constdata)
    ascii_1608                               0x08007110   Data        1520  tftlcd.o(.constdata)
    ascii_2412                               0x08007700   Data        3420  tftlcd.o(.constdata)
    ascii_3216                               0x0800845c   Data       12160  tftlcd.o(.constdata)
    CnChar32x29                              0x0800b3dc   Data        2242  tftlcd.o(.constdata)
    OSCfg_IdleTaskStkBasePtr                 0x0800bca0   Data           4  os_cfg_app.o(.constdata)
    OSCfg_IdleTaskStkLimit                   0x0800bca4   Data           4  os_cfg_app.o(.constdata)
    OSCfg_IdleTaskStkSize                    0x0800bca8   Data           4  os_cfg_app.o(.constdata)
    OSCfg_IdleTaskStkSizeRAM                 0x0800bcac   Data           4  os_cfg_app.o(.constdata)
    OSCfg_IntQBasePtr                        0x0800bcb0   Data           4  os_cfg_app.o(.constdata)
    OSCfg_IntQSize                           0x0800bcb4   Data           2  os_cfg_app.o(.constdata)
    OSCfg_IntQSizeRAM                        0x0800bcb8   Data           4  os_cfg_app.o(.constdata)
    OSCfg_IntQTaskStkBasePtr                 0x0800bcbc   Data           4  os_cfg_app.o(.constdata)
    OSCfg_IntQTaskStkLimit                   0x0800bcc0   Data           4  os_cfg_app.o(.constdata)
    OSCfg_IntQTaskStkSize                    0x0800bcc4   Data           4  os_cfg_app.o(.constdata)
    OSCfg_IntQTaskStkSizeRAM                 0x0800bcc8   Data           4  os_cfg_app.o(.constdata)
    OSCfg_ISRStkBasePtr                      0x0800bccc   Data           4  os_cfg_app.o(.constdata)
    OSCfg_ISRStkSize                         0x0800bcd0   Data           4  os_cfg_app.o(.constdata)
    OSCfg_ISRStkSizeRAM                      0x0800bcd4   Data           4  os_cfg_app.o(.constdata)
    OSCfg_MsgPoolSize                        0x0800bcd8   Data           2  os_cfg_app.o(.constdata)
    OSCfg_MsgPoolSizeRAM                     0x0800bcdc   Data           4  os_cfg_app.o(.constdata)
    OSCfg_MsgPoolBasePtr                     0x0800bce0   Data           4  os_cfg_app.o(.constdata)
    OSCfg_StatTaskPrio                       0x0800bce4   Data           1  os_cfg_app.o(.constdata)
    OSCfg_StatTaskRate_Hz                    0x0800bce8   Data           4  os_cfg_app.o(.constdata)
    OSCfg_StatTaskStkBasePtr                 0x0800bcec   Data           4  os_cfg_app.o(.constdata)
    OSCfg_StatTaskStkLimit                   0x0800bcf0   Data           4  os_cfg_app.o(.constdata)
    OSCfg_StatTaskStkSize                    0x0800bcf4   Data           4  os_cfg_app.o(.constdata)
    OSCfg_StatTaskStkSizeRAM                 0x0800bcf8   Data           4  os_cfg_app.o(.constdata)
    OSCfg_StkSizeMin                         0x0800bcfc   Data           4  os_cfg_app.o(.constdata)
    OSCfg_TickRate_Hz                        0x0800bd00   Data           4  os_cfg_app.o(.constdata)
    OSCfg_TickTaskPrio                       0x0800bd04   Data           1  os_cfg_app.o(.constdata)
    OSCfg_TickTaskStkBasePtr                 0x0800bd08   Data           4  os_cfg_app.o(.constdata)
    OSCfg_TickTaskStkLimit                   0x0800bd0c   Data           4  os_cfg_app.o(.constdata)
    OSCfg_TickTaskStkSize                    0x0800bd10   Data           4  os_cfg_app.o(.constdata)
    OSCfg_TickTaskStkSizeRAM                 0x0800bd14   Data           4  os_cfg_app.o(.constdata)
    OSCfg_TickWheelSize                      0x0800bd18   Data           2  os_cfg_app.o(.constdata)
    OSCfg_TickWheelSizeRAM                   0x0800bd1c   Data           4  os_cfg_app.o(.constdata)
    OSCfg_TmrTaskPrio                        0x0800bd20   Data           1  os_cfg_app.o(.constdata)
    OSCfg_TmrTaskRate_Hz                     0x0800bd24   Data           4  os_cfg_app.o(.constdata)
    OSCfg_TmrTaskStkBasePtr                  0x0800bd28   Data           4  os_cfg_app.o(.constdata)
    OSCfg_TmrTaskStkLimit                    0x0800bd2c   Data           4  os_cfg_app.o(.constdata)
    OSCfg_TmrTaskStkSize                     0x0800bd30   Data           4  os_cfg_app.o(.constdata)
    OSCfg_TmrTaskStkSizeRAM                  0x0800bd34   Data           4  os_cfg_app.o(.constdata)
    OSCfg_TmrWheelSize                       0x0800bd38   Data           2  os_cfg_app.o(.constdata)
    OSCfg_TmrWheelSizeRAM                    0x0800bd3c   Data           4  os_cfg_app.o(.constdata)
    OSCfg_DataSizeRAM                        0x0800bd40   Data           4  os_cfg_app.o(.constdata)
    OSDbg_DbgEn                              0x0800bd44   Data           1  os_dbg.o(.constdata)
    OSDbg_ArgChkEn                           0x0800bd45   Data           1  os_dbg.o(.constdata)
    OSDbg_AppHooksEn                         0x0800bd46   Data           1  os_dbg.o(.constdata)
    OSDbg_EndiannessTest                     0x0800bd48   Data           4  os_dbg.o(.constdata)
    OSDbg_CalledFromISRChkEn                 0x0800bd4c   Data           1  os_dbg.o(.constdata)
    OSDbg_FlagEn                             0x0800bd4d   Data           1  os_dbg.o(.constdata)
    OSDbg_FlagGrp                            0x0800bd50   Data          40  os_dbg.o(.constdata)
    OSDbg_FlagDelEn                          0x0800bd78   Data           1  os_dbg.o(.constdata)
    OSDbg_FlagModeClrEn                      0x0800bd79   Data           1  os_dbg.o(.constdata)
    OSDbg_FlagPendAbortEn                    0x0800bd7a   Data           1  os_dbg.o(.constdata)
    OSDbg_FlagGrpSize                        0x0800bd7c   Data           2  os_dbg.o(.constdata)
    OSDbg_FlagWidth                          0x0800bd7e   Data           2  os_dbg.o(.constdata)
    OSDbg_IntQ                               0x0800bd80   Data           2  os_dbg.o(.constdata)
    OSDbg_ISRPostDeferredEn                  0x0800bd82   Data           1  os_dbg.o(.constdata)
    OSDbg_Mem                                0x0800bd84   Data          32  os_dbg.o(.constdata)
    OSDbg_MemEn                              0x0800bda4   Data           1  os_dbg.o(.constdata)
    OSDbg_MemSize                            0x0800bda6   Data           2  os_dbg.o(.constdata)
    OSDbg_MsgEn                              0x0800bda8   Data           1  os_dbg.o(.constdata)
    OSDbg_MsgSize                            0x0800bdaa   Data           2  os_dbg.o(.constdata)
    OSDbg_MsgPoolSize                        0x0800bdac   Data           2  os_dbg.o(.constdata)
    OSDbg_MsgQSize                           0x0800bdae   Data           2  os_dbg.o(.constdata)
    OSDbg_Mutex                              0x0800bdb0   Data          44  os_dbg.o(.constdata)
    OSDbg_MutexEn                            0x0800bddc   Data           1  os_dbg.o(.constdata)
    OSDbg_MutexDelEn                         0x0800bddd   Data           1  os_dbg.o(.constdata)
    OSDbg_MutexPendAbortEn                   0x0800bdde   Data           1  os_dbg.o(.constdata)
    OSDbg_MutexSize                          0x0800bde0   Data           2  os_dbg.o(.constdata)
    OSDbg_ObjTypeChkEn                       0x0800bde2   Data           1  os_dbg.o(.constdata)
    OSDbg_PendMultiEn                        0x0800bde3   Data           1  os_dbg.o(.constdata)
    OSDbg_PendDataSize                       0x0800bde4   Data           2  os_dbg.o(.constdata)
    OSDbg_PendListSize                       0x0800bde6   Data           2  os_dbg.o(.constdata)
    OSDbg_PendObjSize                        0x0800bde8   Data           2  os_dbg.o(.constdata)
    OSDbg_PrioMax                            0x0800bdea   Data           2  os_dbg.o(.constdata)
    OSDbg_PrioTblSize                        0x0800bdec   Data           2  os_dbg.o(.constdata)
    OSDbg_PtrSize                            0x0800bdee   Data           2  os_dbg.o(.constdata)
    OSDbg_Q                                  0x0800bdf0   Data          48  os_dbg.o(.constdata)
    OSDbg_QEn                                0x0800be20   Data           1  os_dbg.o(.constdata)
    OSDbg_QDelEn                             0x0800be21   Data           1  os_dbg.o(.constdata)
    OSDbg_QFlushEn                           0x0800be22   Data           1  os_dbg.o(.constdata)
    OSDbg_QPendAbortEn                       0x0800be23   Data           1  os_dbg.o(.constdata)
    OSDbg_QSize                              0x0800be24   Data           2  os_dbg.o(.constdata)
    OSDbg_SchedRoundRobinEn                  0x0800be26   Data           1  os_dbg.o(.constdata)
    OSDbg_Sem                                0x0800be28   Data          40  os_dbg.o(.constdata)
    OSDbg_SemEn                              0x0800be50   Data           1  os_dbg.o(.constdata)
    OSDbg_SemDelEn                           0x0800be51   Data           1  os_dbg.o(.constdata)
    OSDbg_SemPendAbortEn                     0x0800be52   Data           1  os_dbg.o(.constdata)
    OSDbg_SemSetEn                           0x0800be53   Data           1  os_dbg.o(.constdata)
    OSDbg_SemSize                            0x0800be54   Data           2  os_dbg.o(.constdata)
    OSDbg_RdyList                            0x0800be56   Data           2  os_dbg.o(.constdata)
    OSDbg_RdyListSize                        0x0800be58   Data           4  os_dbg.o(.constdata)
    OSDbg_StkWidth                           0x0800be5c   Data           1  os_dbg.o(.constdata)
    OSDbg_StatTaskEn                         0x0800be5d   Data           1  os_dbg.o(.constdata)
    OSDbg_StatTaskStkChkEn                   0x0800be5e   Data           1  os_dbg.o(.constdata)
    OSDbg_TaskChangePrioEn                   0x0800be5f   Data           1  os_dbg.o(.constdata)
    OSDbg_TaskDelEn                          0x0800be60   Data           1  os_dbg.o(.constdata)
    OSDbg_TaskQEn                            0x0800be61   Data           1  os_dbg.o(.constdata)
    OSDbg_TaskQPendAbortEn                   0x0800be62   Data           1  os_dbg.o(.constdata)
    OSDbg_TaskProfileEn                      0x0800be63   Data           1  os_dbg.o(.constdata)
    OSDbg_TaskRegTblSize                     0x0800be64   Data           2  os_dbg.o(.constdata)
    OSDbg_TaskSemPendAbortEn                 0x0800be66   Data           1  os_dbg.o(.constdata)
    OSDbg_TaskSuspendEn                      0x0800be67   Data           1  os_dbg.o(.constdata)
    OSDbg_TCBSize                            0x0800be68   Data           2  os_dbg.o(.constdata)
    OSDbg_TickSpokeSize                      0x0800be6a   Data           2  os_dbg.o(.constdata)
    OSDbg_TimeDlyHMSMEn                      0x0800be6c   Data           1  os_dbg.o(.constdata)
    OSDbg_TimeDlyResumeEn                    0x0800be6d   Data           1  os_dbg.o(.constdata)
    OSDbg_TLS_TblSize                        0x0800be6e   Data           2  os_dbg.o(.constdata)
    OSDbg_Tmr                                0x0800be70   Data          52  os_dbg.o(.constdata)
    OSDbg_TmrEn                              0x0800bea4   Data           1  os_dbg.o(.constdata)
    OSDbg_TmrDelEn                           0x0800bea5   Data           1  os_dbg.o(.constdata)
    OSDbg_TmrSize                            0x0800bea6   Data           2  os_dbg.o(.constdata)
    OSDbg_TmrSpokeSize                       0x0800bea8   Data           2  os_dbg.o(.constdata)
    OSDbg_VersionNbr                         0x0800beaa   Data           2  os_dbg.o(.constdata)
    OSDbg_DataSize                           0x0800beac   Data           4  os_dbg.o(.constdata)
    Region$$Table$$Base                      0x0800beb0   Number         0  anon$$obj.o(Region$$Table)
    Region$$Table$$Limit                     0x0800bed0   Number         0  anon$$obj.o(Region$$Table)
    FRONT_COLOR                              0x20000000   Data           2  tftlcd.o(.data)
    BACK_COLOR                               0x20000002   Data           2  tftlcd.o(.data)
    tftlcd_data                              0x20000004   Data           8  tftlcd.o(.data)
    SystemCoreClock                          0x2000000c   Data           4  system_stm32f10x.o(.data)
    AHBPrescTable                            0x20000010   Data          16  system_stm32f10x.o(.data)
    CPU_TS_TmrFreq_Hz                        0x20000034   Data           4  cpu_core.o(.data)
    CPU_IntDisMeasCtr                        0x20000038   Data           2  cpu_core.o(.data)
    CPU_IntDisNestCtr                        0x2000003a   Data           2  cpu_core.o(.data)
    CPU_IntDisMeasStart_cnts                 0x2000003c   Data           4  cpu_core.o(.data)
    CPU_IntDisMeasStop_cnts                  0x20000040   Data           4  cpu_core.o(.data)
    CPU_IntDisMeasOvrhd_cnts                 0x20000044   Data           4  cpu_core.o(.data)
    CPU_IntDisMeasMaxCur_cnts                0x20000048   Data           4  cpu_core.o(.data)
    CPU_IntDisMeasMax_cnts                   0x2000004c   Data           4  cpu_core.o(.data)
    Mem_PoolTbl                              0x20000050   Data           4  lib_mem.o(.data)
    OS_AppTaskCreateHookPtr                  0x20000054   Data           4  os_var.o(.data)
    OS_AppTaskDelHookPtr                     0x20000058   Data           4  os_var.o(.data)
    OS_AppTaskReturnHookPtr                  0x2000005c   Data           4  os_var.o(.data)
    OS_AppIdleTaskHookPtr                    0x20000060   Data           4  os_var.o(.data)
    OS_AppStatTaskHookPtr                    0x20000064   Data           4  os_var.o(.data)
    OS_AppTaskSwHookPtr                      0x20000068   Data           4  os_var.o(.data)
    OS_AppTimeTickHookPtr                    0x2000006c   Data           4  os_var.o(.data)
    OSIdleTaskCtr                            0x20000070   Data           4  os_var.o(.data)
    OSIntNestingCtr                          0x20000074   Data           1  os_var.o(.data)
    OSIntDisTimeMax                          0x20000078   Data           4  os_var.o(.data)
    OSRunning                                0x2000007c   Data           1  os_var.o(.data)
    OSIntQInPtr                              0x20000080   Data           4  os_var.o(.data)
    OSIntQOutPtr                             0x20000084   Data           4  os_var.o(.data)
    OSIntQNbrEntries                         0x20000088   Data           2  os_var.o(.data)
    OSIntQNbrEntriesMax                      0x2000008a   Data           2  os_var.o(.data)
    OSIntQOvfCtr                             0x2000008c   Data           2  os_var.o(.data)
    OSIntQTaskTimeMax                        0x20000090   Data           4  os_var.o(.data)
    OSFlagDbgListPtr                         0x20000094   Data           4  os_var.o(.data)
    OSFlagQty                                0x20000098   Data           2  os_var.o(.data)
    OSMemDbgListPtr                          0x2000009c   Data           4  os_var.o(.data)
    OSMemQty                                 0x200000a0   Data           2  os_var.o(.data)
    OSMutexDbgListPtr                        0x200000a4   Data           4  os_var.o(.data)
    OSMutexQty                               0x200000a8   Data           2  os_var.o(.data)
    OSPrioCur                                0x200000aa   Data           1  os_var.o(.data)
    OSPrioHighRdy                            0x200000ab   Data           1  os_var.o(.data)
    OSPrioSaved                              0x200000ac   Data           1  os_var.o(.data)
    OSQDbgListPtr                            0x200000b0   Data           4  os_var.o(.data)
    OSQQty                                   0x200000b4   Data           2  os_var.o(.data)
    OSSchedLockTimeBegin                     0x200000b8   Data           4  os_var.o(.data)
    OSSchedLockTimeMax                       0x200000bc   Data           4  os_var.o(.data)
    OSSchedLockTimeMaxCur                    0x200000c0   Data           4  os_var.o(.data)
    OSSchedLockNestingCtr                    0x200000c4   Data           1  os_var.o(.data)
    OSSchedRoundRobinDfltTimeQuanta          0x200000c8   Data           4  os_var.o(.data)
    OSSchedRoundRobinEn                      0x200000cc   Data           1  os_var.o(.data)
    OSSemDbgListPtr                          0x200000d0   Data           4  os_var.o(.data)
    OSSemQty                                 0x200000d4   Data           2  os_var.o(.data)
    OSStatResetFlag                          0x200000d6   Data           1  os_var.o(.data)
    OSStatTaskCPUUsage                       0x200000d8   Data           2  os_var.o(.data)
    OSStatTaskCPUUsageMax                    0x200000da   Data           2  os_var.o(.data)
    OSStatTaskCtr                            0x200000dc   Data           4  os_var.o(.data)
    OSStatTaskCtrMax                         0x200000e0   Data           4  os_var.o(.data)
    OSStatTaskCtrRun                         0x200000e4   Data           4  os_var.o(.data)
    OSStatTaskRdy                            0x200000e8   Data           1  os_var.o(.data)
    OSStatTaskTimeMax                        0x200000ec   Data           4  os_var.o(.data)
    OSTaskCtxSwCtr                           0x200000f0   Data           4  os_var.o(.data)
    OSTaskDbgListPtr                         0x200000f4   Data           4  os_var.o(.data)
    OSTaskQty                                0x200000f8   Data           2  os_var.o(.data)
    OSTaskRegNextAvailID                     0x200000fa   Data           1  os_var.o(.data)
    OSTickCtr                                0x200000fc   Data           4  os_var.o(.data)
    OSTickTaskTimeMax                        0x20000100   Data           4  os_var.o(.data)
    OSTmrDbgListPtr                          0x20000104   Data           4  os_var.o(.data)
    OSTmrQty                                 0x20000108   Data           2  os_var.o(.data)
    OSTmrTaskTimeMax                         0x2000010c   Data           4  os_var.o(.data)
    OSTmrTickCtr                             0x20000110   Data           4  os_var.o(.data)
    OSTmrUpdateCnt                           0x20000114   Data           4  os_var.o(.data)
    OSTmrUpdateCtr                           0x20000118   Data           4  os_var.o(.data)
    OSTCBCurPtr                              0x2000011c   Data           4  os_var.o(.data)
    OSTCBHighRdyPtr                          0x20000120   Data           4  os_var.o(.data)
    OS_CPU_ExceptStkBase                     0x20000124   Data           4  os_cpu_c.o(.data)
    OSPrioTbl                                0x20000128   Data           4  os_prio.o(.data)
    CPU_Name                                 0x20001584   Data          16  cpu_core.o(.bss)
    Mem_PoolHeap                             0x20001594   Data          72  lib_mem.o(.bss)
    Mem_Heap                                 0x200015dc   Data       27648  lib_mem.o(.bss)
    OSCfg_IdleTaskStk                        0x200081dc   Data         512  os_cfg_app.o(.bss)
    OSCfg_IntQ                               0x200083dc   Data         320  os_cfg_app.o(.bss)
    OSCfg_IntQTaskStk                        0x2000851c   Data         512  os_cfg_app.o(.bss)
    OSCfg_ISRStk                             0x2000871c   Data         512  os_cfg_app.o(.bss)
    OSCfg_MsgPool                            0x2000891c   Data        1600  os_cfg_app.o(.bss)
    OSCfg_StatTaskStk                        0x20008f5c   Data         512  os_cfg_app.o(.bss)
    OSCfg_TickTaskStk                        0x2000915c   Data         512  os_cfg_app.o(.bss)
    OSCfg_TickWheel                          0x2000935c   Data         136  os_cfg_app.o(.bss)
    OSCfg_TmrTaskStk                         0x200093e4   Data         512  os_cfg_app.o(.bss)
    OSCfg_TmrWheel                           0x200095e4   Data         136  os_cfg_app.o(.bss)
    OSIdleTaskTCB                            0x2000966c   Data         200  os_var.o(.bss)
    OSIntQTaskTCB                            0x20009734   Data         200  os_var.o(.bss)
    OSMsgPool                                0x200097fc   Data          12  os_var.o(.bss)
    OSRdyList                                0x20009808   Data         384  os_var.o(.bss)
    OSStatTaskTCB                            0x20009988   Data         200  os_var.o(.bss)
    OSTickTaskTCB                            0x20009a50   Data         200  os_var.o(.bss)
    OSTmrTaskTCB                             0x20009b18   Data         200  os_var.o(.bss)
    __initial_sp                             0x20009fe0   Data           0  startup_stm32f10x_hd.o(STACK)



==============================================================================

Memory Map of the image

  Image Entry point : 0x08000131

  Load Region LR_IROM1 (Base: 0x08000000, Size: 0x0000bffc, Max: 0x00080000, ABSOLUTE, COMPRESSED[0x0000beec])

    Execution Region ER_IROM1 (Exec base: 0x08000000, Load base: 0x08000000, Size: 0x0000bed0, Max: 0x00080000, ABSOLUTE)

    Exec Addr    Load Addr    Size         Type   Attr      Idx    E Section Name        Object

    0x08000000   0x08000000   0x00000130   Data   RO            3    RESET               startup_stm32f10x_hd.o
    0x08000130   0x08000130   0x00000000   Code   RO         2672  * .ARM.Collect$$$$00000000  mc_w.l(entry.o)
    0x08000130   0x08000130   0x00000004   Code   RO         2681    .ARM.Collect$$$$00000001  mc_w.l(entry2.o)
    0x08000134   0x08000134   0x00000004   Code   RO         2684    .ARM.Collect$$$$00000004  mc_w.l(entry5.o)
    0x08000138   0x08000138   0x00000000   Code   RO         2686    .ARM.Collect$$$$00000008  mc_w.l(entry7b.o)
    0x08000138   0x08000138   0x00000000   Code   RO         2688    .ARM.Collect$$$$0000000A  mc_w.l(entry8b.o)
    0x08000138   0x08000138   0x00000008   Code   RO         2689    .ARM.Collect$$$$0000000B  mc_w.l(entry9a.o)
    0x08000140   0x08000140   0x00000004   Code   RO         2696    .ARM.Collect$$$$0000000E  mc_w.l(entry12b.o)
    0x08000144   0x08000144   0x00000000   Code   RO         2691    .ARM.Collect$$$$0000000F  mc_w.l(entry10a.o)
    0x08000144   0x08000144   0x00000000   Code   RO         2693    .ARM.Collect$$$$00000011  mc_w.l(entry11a.o)
    0x08000144   0x08000144   0x00000004   Code   RO         2682    .ARM.Collect$$$$00002712  mc_w.l(entry2.o)
    0x08000148   0x08000148   0x00000024   Code   RO            4    .text               startup_stm32f10x_hd.o
    0x0800016c   0x0800016c   0x000001dc   Code   RO          719    .text               stm32f10x_hd.lib(system_stm32f10x.o)
    0x08000348   0x08000348   0x00000358   Code   RO          819    .text               stm32f10x_hd.lib(stm32f10x_gpio.o)
    0x080006a0   0x080006a0   0x000003a4   Code   RO          854    .text               stm32f10x_hd.lib(stm32f10x_rcc.o)
    0x08000a44   0x08000a44   0x00000618   Code   RO          868    .text               stm32f10x_hd.lib(stm32f10x_fsmc.o)
    0x0800105c   0x0800105c   0x00000408   Code   RO          880    .text               stm32f10x_hd.lib(stm32f10x_usart.o)
    0x08001464   0x08001464   0x00000034   Code   RO         1082    .text               UCOSIII.lib(cpu_a.o)
    0x08001498   0x08001498   0x00000024   Code   RO         2702    .text               mc_w.l(init.o)
    0x080014bc   0x080014bc   0x00000056   Code   RO         2714    .text               mc_w.l(__dczerorl2.o)
    0x08001512   0x08001512   0x00000002   PAD
    0x08001514   0x08001514   0x00000084   Code   RO         2564    CODE                UCOSIII.lib(os_cpu_a.o)
    0x08001598   0x08001598   0x000001dc   Code   RO           10    i.AppTaskLed1       main.o
    0x08001774   0x08001774   0x000000cc   Code   RO           11    i.AppTaskLed2       main.o
    0x08001840   0x08001840   0x000000e4   Code   RO           12    i.AppTaskStart      main.o
    0x08001924   0x08001924   0x00000038   Code   RO          707    i.BEEP_Init         bsp_beep.o
    0x0800195c   0x0800195c   0x00000010   Code   RO          351    i.BSP_CPU_ClkFreq   bsp.o
    0x0800196c   0x0800196c   0x00000024   Code   RO          352    i.BSP_Init          bsp.o
    0x08001990   0x08001990   0x00000004   Code   RO          288    i.BusFault_Handler  stm32f10x_it.o
    0x08001994   0x08001994   0x00000010   Code   RO          900    i.CPU_Init          UCOSIII.lib(cpu_core.o)
    0x080019a4   0x080019a4   0x00000084   Code   RO          901    i.CPU_IntDisMeasInit  UCOSIII.lib(cpu_core.o)
    0x08001a28   0x08001a28   0x0000001c   Code   RO          902    i.CPU_IntDisMeasMaxCalc  UCOSIII.lib(cpu_core.o)
    0x08001a44   0x08001a44   0x0000002c   Code   RO          903    i.CPU_IntDisMeasMaxCurGet  UCOSIII.lib(cpu_core.o)
    0x08001a70   0x08001a70   0x0000002c   Code   RO          904    i.CPU_IntDisMeasMaxCurReset  UCOSIII.lib(cpu_core.o)
    0x08001a9c   0x08001a9c   0x0000002c   Code   RO          905    i.CPU_IntDisMeasMaxGet  UCOSIII.lib(cpu_core.o)
    0x08001ac8   0x08001ac8   0x00000034   Code   RO          906    i.CPU_IntDisMeasStart  UCOSIII.lib(cpu_core.o)
    0x08001afc   0x08001afc   0x00000054   Code   RO          907    i.CPU_IntDisMeasStop  UCOSIII.lib(cpu_core.o)
    0x08001b50   0x08001b50   0x00000038   Code   RO          908    i.CPU_NameClr       UCOSIII.lib(cpu_core.o)
    0x08001b88   0x08001b88   0x00000008   Code   RO          910    i.CPU_NameInit      UCOSIII.lib(cpu_core.o)
    0x08001b90   0x08001b90   0x00000014   Code   RO          914    i.CPU_TS_Init       UCOSIII.lib(cpu_core.o)
    0x08001ba4   0x08001ba4   0x0000000c   Code   RO          916    i.CPU_TS_TmrFreqSet  UCOSIII.lib(cpu_core.o)
    0x08001bb0   0x08001bb0   0x00000034   Code   RO          353    i.CPU_TS_TmrInit    bsp.o
    0x08001be4   0x08001be4   0x0000000c   Code   RO          354    i.CPU_TS_TmrRd      bsp.o
    0x08001bf0   0x08001bf0   0x00000002   Code   RO          289    i.DebugMon_Handler  stm32f10x_it.o
    0x08001bf2   0x08001bf2   0x00000004   Code   RO          290    i.HardFault_Handler  stm32f10x_it.o
    0x08001bf6   0x08001bf6   0x00000002   PAD
    0x08001bf8   0x08001bf8   0x00000024   Code   RO          449    i.Key1_Config       bsp_key.o
    0x08001c1c   0x08001c1c   0x00000024   Code   RO          450    i.Key2_Config       bsp_key.o
    0x08001c40   0x08001c40   0x00000024   Code   RO          451    i.Key3_Config       bsp_key.o
    0x08001c64   0x08001c64   0x00000014   Code   RO          452    i.Key_Initial       bsp_key.o
    0x08001c78   0x08001c78   0x00000024   Code   RO          455    i.Key_up_Config     bsp_key.o
    0x08001c9c   0x08001c9c   0x00000048   Code   RO          493    i.LCD_Clear         tftlcd.o
    0x08001ce4   0x08001ce4   0x00000058   Code   RO          495    i.LCD_Display_Dir   tftlcd.o
    0x08001d3c   0x08001d3c   0x0000001c   Code   RO          496    i.LCD_DrawFRONT_COLOR  tftlcd.o
    0x08001d58   0x08001d58   0x00000020   Code   RO          499    i.LCD_DrawPoint     tftlcd.o
    0x08001d78   0x08001d78   0x00000098   Code   RO          501    i.LCD_Draw_Circle   tftlcd.o
    0x08001e10   0x08001e10   0x0000005c   Code   RO          504    i.LCD_Fill          tftlcd.o
    0x08001e6c   0x08001e6c   0x00000016   Code   RO          505    i.LCD_Pow           tftlcd.o
    0x08001e82   0x08001e82   0x000000a6   Code   RO          510    i.LCD_Set_Window    tftlcd.o
    0x08001f28   0x08001f28   0x00000128   Code   RO          511    i.LCD_ShowChar      tftlcd.o
    0x08002050   0x08002050   0x000000e8   Code   RO          512    i.LCD_ShowFontHZ    tftlcd.o
    0x08002138   0x08002138   0x00000066   Code   RO          515    i.LCD_ShowString    tftlcd.o
    0x0800219e   0x0800219e   0x000000be   Code   RO          516    i.LCD_ShowxNum      tftlcd.o
    0x0800225c   0x0800225c   0x00000094   Code   RO           13    i.LCD_UI            main.o
    0x080022f0   0x080022f0   0x0000000c   Code   RO          517    i.LCD_WriteCmd      tftlcd.o
    0x080022fc   0x080022fc   0x00000014   Code   RO          518    i.LCD_WriteCmdData  tftlcd.o
    0x08002310   0x08002310   0x0000000c   Code   RO          519    i.LCD_WriteData     tftlcd.o
    0x0800231c   0x0800231c   0x00000010   Code   RO          520    i.LCD_WriteData_Color  tftlcd.o
    0x0800232c   0x0800232c   0x00000078   Code   RO          426    i.LED_GPIO_Config   bsp_led.o
    0x080023a4   0x080023a4   0x00000024   Code   RO          427    i.LED_Init          bsp_led.o
    0x080023c8   0x080023c8   0x00000004   Code   RO          291    i.MemManage_Handler  stm32f10x_it.o
    0x080023cc   0x080023cc   0x00000012   Code   RO         1085    i.Mem_Clr           UCOSIII.lib(lib_mem.o)
    0x080023de   0x080023de   0x00000002   PAD
    0x080023e0   0x080023e0   0x00000048   Code   RO         1089    i.Mem_Init          UCOSIII.lib(lib_mem.o)
    0x08002428   0x08002428   0x00000062   Code   RO         1102    i.Mem_Set           UCOSIII.lib(lib_mem.o)
    0x0800248a   0x0800248a   0x00000002   Code   RO          292    i.NMI_Handler       stm32f10x_it.o
    0x0800248c   0x0800248c   0x00000002   Code   RO         1210    i.OSCfg_Init        UCOSIII.lib(os_cfg_app.o)
    0x0800248e   0x0800248e   0x00000002   PAD
    0x08002490   0x08002490   0x00000014   Code   RO         1750    i.OSIdleTaskHook    UCOSIII.lib(os_cpu_c.o)
    0x080024a4   0x080024a4   0x0000018c   Code   RO         1246    i.OSInit            UCOSIII.lib(os_core.o)
    0x08002630   0x08002630   0x00000038   Code   RO         1751    i.OSInitHook        UCOSIII.lib(os_cpu_c.o)
    0x08002668   0x08002668   0x000000e4   Code   RO         1248    i.OSIntExit         UCOSIII.lib(os_core.o)
    0x0800274c   0x0800274c   0x000000a8   Code   RO         1249    i.OSSched           UCOSIII.lib(os_core.o)
    0x080027f4   0x080027f4   0x0000007c   Code   RO         1250    i.OSSchedLock       UCOSIII.lib(os_core.o)
    0x08002870   0x08002870   0x0000006c   Code   RO         1251    i.OSSchedRoundRobinCfg  UCOSIII.lib(os_core.o)
    0x080028dc   0x080028dc   0x000000a0   Code   RO         1253    i.OSSchedUnlock     UCOSIII.lib(os_core.o)
    0x0800297c   0x0800297c   0x00000068   Code   RO         1254    i.OSStart           UCOSIII.lib(os_core.o)
    0x080029e4   0x080029e4   0x00000168   Code   RO         1496    i.OSStatReset       UCOSIII.lib(os_stat.o)
    0x08002b4c   0x08002b4c   0x00000100   Code   RO         1497    i.OSStatTaskCPUUsageInit  UCOSIII.lib(os_stat.o)
    0x08002c4c   0x08002c4c   0x00000014   Code   RO         1752    i.OSStatTaskHook    UCOSIII.lib(os_cpu_c.o)
    0x08002c60   0x08002c60   0x00000294   Code   RO         1527    i.OSTaskCreate      UCOSIII.lib(os_task.o)
    0x08002ef4   0x08002ef4   0x00000018   Code   RO         1753    i.OSTaskCreateHook  UCOSIII.lib(os_cpu_c.o)
    0x08002f0c   0x08002f0c   0x00000208   Code   RO         1528    i.OSTaskDel         UCOSIII.lib(os_task.o)
    0x08003114   0x08003114   0x00000018   Code   RO         1754    i.OSTaskDelHook     UCOSIII.lib(os_cpu_c.o)
    0x0800312c   0x0800312c   0x00000088   Code   RO         1536    i.OSTaskResume      UCOSIII.lib(os_task.o)
    0x080031b4   0x080031b4   0x00000018   Code   RO         1755    i.OSTaskReturnHook  UCOSIII.lib(os_cpu_c.o)
    0x080031cc   0x080031cc   0x00000250   Code   RO         1537    i.OSTaskSemPend     UCOSIII.lib(os_task.o)
    0x0800341c   0x0800341c   0x000000e4   Code   RO         1541    i.OSTaskStkChk      UCOSIII.lib(os_task.o)
    0x08003500   0x08003500   0x000000c0   Code   RO         1756    i.OSTaskStkInit     UCOSIII.lib(os_cpu_c.o)
    0x080035c0   0x080035c0   0x00000060   Code   RO         1542    i.OSTaskSuspend     UCOSIII.lib(os_task.o)
    0x08003620   0x08003620   0x000000a4   Code   RO         1757    i.OSTaskSwHook      UCOSIII.lib(os_cpu_c.o)
    0x080036c4   0x080036c4   0x00000150   Code   RO         1694    i.OSTimeDly         UCOSIII.lib(os_time.o)
    0x08003814   0x08003814   0x00000044   Code   RO         1699    i.OSTimeTick        UCOSIII.lib(os_time.o)
    0x08003858   0x08003858   0x00000014   Code   RO         1758    i.OSTimeTickHook    UCOSIII.lib(os_cpu_c.o)
    0x0800386c   0x0800386c   0x00000040   Code   RO         1759    i.OS_CPU_SysTickHandler  UCOSIII.lib(os_cpu_c.o)
    0x080038ac   0x080038ac   0x00000030   Code   RO         1760    i.OS_CPU_SysTickInit  UCOSIII.lib(os_cpu_c.o)
    0x080038dc   0x080038dc   0x000001b4   Code   RO         1984    i.OS_Dbg_Init       UCOSIII.lib(os_dbg.o)
    0x08003a90   0x08003a90   0x00000018   Code   RO         2009    i.OS_FlagInit       UCOSIII.lib(os_flag.o)
    0x08003aa8   0x08003aa8   0x0000027c   Code   RO         2010    i.OS_FlagPost       UCOSIII.lib(os_flag.o)
    0x08003d24   0x08003d24   0x00000056   Code   RO         2011    i.OS_FlagTaskRdy    UCOSIII.lib(os_flag.o)
    0x08003d7a   0x08003d7a   0x00000002   PAD
    0x08003d7c   0x08003d7c   0x0000004c   Code   RO         1256    i.OS_IdleTask       UCOSIII.lib(os_core.o)
    0x08003dc8   0x08003dc8   0x00000070   Code   RO         1257    i.OS_IdleTaskInit   UCOSIII.lib(os_core.o)
    0x08003e38   0x08003e38   0x00000104   Code   RO         2083    i.OS_IntQPost       UCOSIII.lib(os_int.o)
    0x08003f3c   0x08003f3c   0x000001a4   Code   RO         2084    i.OS_IntQRePost     UCOSIII.lib(os_int.o)
    0x080040e0   0x080040e0   0x000000c8   Code   RO         2085    i.OS_IntQTask       UCOSIII.lib(os_int.o)
    0x080041a8   0x080041a8   0x00000128   Code   RO         2086    i.OS_IntQTaskInit   UCOSIII.lib(os_int.o)
    0x080042d0   0x080042d0   0x00000018   Code   RO         2117    i.OS_MemInit        UCOSIII.lib(os_mem.o)
    0x080042e8   0x080042e8   0x0000007c   Code   RO         2149    i.OS_MsgPoolInit    UCOSIII.lib(os_msg.o)
    0x08004364   0x08004364   0x00000044   Code   RO         2150    i.OS_MsgQFreeAll    UCOSIII.lib(os_msg.o)
    0x080043a8   0x080043a8   0x0000000e   Code   RO         2152    i.OS_MsgQInit       UCOSIII.lib(os_msg.o)
    0x080043b6   0x080043b6   0x00000002   PAD
    0x080043b8   0x080043b8   0x00000104   Code   RO         2153    i.OS_MsgQPut        UCOSIII.lib(os_msg.o)
    0x080044bc   0x080044bc   0x00000018   Code   RO         2193    i.OS_MutexInit      UCOSIII.lib(os_mutex.o)
    0x080044d4   0x080044d4   0x00000068   Code   RO         1258    i.OS_Pend           UCOSIII.lib(os_core.o)
    0x0800453c   0x0800453c   0x00000026   Code   RO         1261    i.OS_PendDataInit   UCOSIII.lib(os_core.o)
    0x08004562   0x08004562   0x00000002   PAD
    0x08004564   0x08004564   0x0000005c   Code   RO         1262    i.OS_PendDbgNameAdd  UCOSIII.lib(os_core.o)
    0x080045c0   0x080045c0   0x00000024   Code   RO         1263    i.OS_PendDbgNameRemove  UCOSIII.lib(os_core.o)
    0x080045e4   0x080045e4   0x00000066   Code   RO         1267    i.OS_PendListInsertPrio  UCOSIII.lib(os_core.o)
    0x0800464a   0x0800464a   0x00000030   Code   RO         1268    i.OS_PendListRemove  UCOSIII.lib(os_core.o)
    0x0800467a   0x0800467a   0x00000042   Code   RO         1269    i.OS_PendListRemove1  UCOSIII.lib(os_core.o)
    0x080046bc   0x080046bc   0x000000c0   Code   RO         1272    i.OS_Post           UCOSIII.lib(os_core.o)
    0x0800477c   0x0800477c   0x0000002a   Code   RO         1273    i.OS_Post1          UCOSIII.lib(os_core.o)
    0x080047a6   0x080047a6   0x00000002   PAD
    0x080047a8   0x080047a8   0x00000028   Code   RO         2245    i.OS_PrioGetHighest  UCOSIII.lib(os_prio.o)
    0x080047d0   0x080047d0   0x00000018   Code   RO         2246    i.OS_PrioInit       UCOSIII.lib(os_prio.o)
    0x080047e8   0x080047e8   0x00000024   Code   RO         2247    i.OS_PrioInsert     UCOSIII.lib(os_prio.o)
    0x0800480c   0x0800480c   0x00000024   Code   RO         2248    i.OS_PrioRemove     UCOSIII.lib(os_prio.o)
    0x08004830   0x08004830   0x00000018   Code   RO         2291    i.OS_QInit          UCOSIII.lib(os_q.o)
    0x08004848   0x08004848   0x00000188   Code   RO         2292    i.OS_QPost          UCOSIII.lib(os_q.o)
    0x080049d0   0x080049d0   0x00000024   Code   RO         1274    i.OS_RdyListInit    UCOSIII.lib(os_core.o)
    0x080049f4   0x080049f4   0x0000002c   Code   RO         1275    i.OS_RdyListInsert  UCOSIII.lib(os_core.o)
    0x08004a20   0x08004a20   0x00000040   Code   RO         1276    i.OS_RdyListInsertHead  UCOSIII.lib(os_core.o)
    0x08004a60   0x08004a60   0x0000003c   Code   RO         1277    i.OS_RdyListInsertTail  UCOSIII.lib(os_core.o)
    0x08004a9c   0x08004a9c   0x00000044   Code   RO         1278    i.OS_RdyListMoveHeadToTail  UCOSIII.lib(os_core.o)
    0x08004ae0   0x08004ae0   0x0000005c   Code   RO         1279    i.OS_RdyListRemove  UCOSIII.lib(os_core.o)
    0x08004b3c   0x08004b3c   0x0000005c   Code   RO         1280    i.OS_Sched0         UCOSIII.lib(os_core.o)
    0x08004b98   0x08004b98   0x0000001c   Code   RO         1281    i.OS_SchedLockTimeMeasStart  UCOSIII.lib(os_core.o)
    0x08004bb4   0x08004bb4   0x0000003c   Code   RO         1282    i.OS_SchedLockTimeMeasStop  UCOSIII.lib(os_core.o)
    0x08004bf0   0x08004bf0   0x000000ec   Code   RO         1283    i.OS_SchedRoundRobin  UCOSIII.lib(os_core.o)
    0x08004cdc   0x08004cdc   0x00000018   Code   RO         2363    i.OS_SemInit        UCOSIII.lib(os_sem.o)
    0x08004cf4   0x08004cf4   0x00000198   Code   RO         2364    i.OS_SemPost        UCOSIII.lib(os_sem.o)
    0x08004e8c   0x08004e8c   0x000003b8   Code   RO         1498    i.OS_StatTask       UCOSIII.lib(os_stat.o)
    0x08005244   0x08005244   0x000000cc   Code   RO         1499    i.OS_StatTaskInit   UCOSIII.lib(os_stat.o)
    0x08005310   0x08005310   0x00000038   Code   RO         1284    i.OS_TaskBlock      UCOSIII.lib(os_core.o)
    0x08005348   0x08005348   0x00000030   Code   RO         1544    i.OS_TaskDbgListAdd  UCOSIII.lib(os_task.o)
    0x08005378   0x08005378   0x00000044   Code   RO         1545    i.OS_TaskDbgListRemove  UCOSIII.lib(os_task.o)
    0x080053bc   0x080053bc   0x00000020   Code   RO         1546    i.OS_TaskInit       UCOSIII.lib(os_task.o)
    0x080053dc   0x080053dc   0x000000d0   Code   RO         1547    i.OS_TaskInitTCB    UCOSIII.lib(os_task.o)
    0x080054ac   0x080054ac   0x0000026c   Code   RO         1548    i.OS_TaskQPost      UCOSIII.lib(os_task.o)
    0x08005718   0x08005718   0x0000001c   Code   RO         1285    i.OS_TaskRdy        UCOSIII.lib(os_core.o)
    0x08005734   0x08005734   0x0000017c   Code   RO         1549    i.OS_TaskResume     UCOSIII.lib(os_task.o)
    0x080058b0   0x080058b0   0x00000018   Code   RO         1550    i.OS_TaskReturn     UCOSIII.lib(os_task.o)
    0x080058c8   0x080058c8   0x000005a8   Code   RO         1551    i.OS_TaskSemPost    UCOSIII.lib(os_task.o)
    0x08005e70   0x08005e70   0x00000190   Code   RO         1552    i.OS_TaskSuspend    UCOSIII.lib(os_task.o)
    0x08006000   0x08006000   0x00000028   Code   RO         2426    i.OS_TickListInit   UCOSIII.lib(os_tick.o)
    0x08006028   0x08006028   0x000001bc   Code   RO         2427    i.OS_TickListInsert  UCOSIII.lib(os_tick.o)
    0x080061e4   0x080061e4   0x00000038   Code   RO         2428    i.OS_TickListRemove  UCOSIII.lib(os_tick.o)
    0x0800621c   0x0800621c   0x00000024   Code   RO         2429    i.OS_TickListResetPeak  UCOSIII.lib(os_tick.o)
    0x08006240   0x08006240   0x00000220   Code   RO         2430    i.OS_TickListUpdate  UCOSIII.lib(os_tick.o)
    0x08006460   0x08006460   0x0000002c   Code   RO         2431    i.OS_TickTask       UCOSIII.lib(os_tick.o)
    0x0800648c   0x0800648c   0x000000b8   Code   RO         2432    i.OS_TickTaskInit   UCOSIII.lib(os_tick.o)
    0x08006544   0x08006544   0x00000128   Code   RO         2483    i.OS_TmrInit        UCOSIII.lib(os_tmr.o)
    0x0800666c   0x0800666c   0x000000d0   Code   RO         2484    i.OS_TmrLink        UCOSIII.lib(os_tmr.o)
    0x0800673c   0x0800673c   0x00000024   Code   RO         2485    i.OS_TmrResetPeak   UCOSIII.lib(os_tmr.o)
    0x08006760   0x08006760   0x000000c0   Code   RO         2486    i.OS_TmrTask        UCOSIII.lib(os_tmr.o)
    0x08006820   0x08006820   0x00000050   Code   RO         2487    i.OS_TmrUnlink      UCOSIII.lib(os_tmr.o)
    0x08006870   0x08006870   0x00000002   Code   RO          294    i.SVC_Handler       stm32f10x_it.o
    0x08006872   0x08006872   0x0000007e   Code   RO          522    i.TFTLCD_FSMC_Init  tftlcd.o
    0x080068f0   0x080068f0   0x00000098   Code   RO          523    i.TFTLCD_GPIO_Init  tftlcd.o
    0x08006988   0x08006988   0x000001f4   Code   RO          524    i.TFTLCD_Init       tftlcd.o
    0x08006b7c   0x08006b7c   0x00000080   Code   RO          398    i.USARTx_Config     bsp_usart1.o
    0x08006bfc   0x08006bfc   0x00000004   Code   RO          296    i.UsageFault_Handler  stm32f10x_it.o
    0x08006c00   0x08006c00   0x0000000e   Code   RO         2708    i.__scatterload_copy  mc_w.l(handlers.o)
    0x08006c0e   0x08006c0e   0x00000002   Code   RO         2709    i.__scatterload_null  mc_w.l(handlers.o)
    0x08006c10   0x08006c10   0x0000000e   Code   RO         2710    i.__scatterload_zeroinit  mc_w.l(handlers.o)
    0x08006c1e   0x08006c1e   0x0000001c   Code   RO          525    i.delay_ms          tftlcd.o
    0x08006c3a   0x08006c3a   0x00000002   PAD
    0x08006c3c   0x08006c3c   0x00000060   Code   RO           14    i.main              main.o
    0x08006c9c   0x08006c9c   0x00005002   Data   RO          526    .constdata          tftlcd.o
    0x0800bc9e   0x0800bc9e   0x00000002   PAD
    0x0800bca0   0x0800bca0   0x000000a4   Data   RO         1212    .constdata          UCOSIII.lib(os_cfg_app.o)
    0x0800bd44   0x0800bd44   0x0000016c   Data   RO         1985    .constdata          UCOSIII.lib(os_dbg.o)
    0x0800beb0   0x0800beb0   0x00000020   Data   RO         2706    Region$$Table       anon$$obj.o


    Execution Region RW_IRAM1 (Exec base: 0x20000000, Load base: 0x0800bed0, Size: 0x00009fe0, Max: 0x00010000, ABSOLUTE, COMPRESSED[0x0000001c])

    Exec Addr    Load Addr    Size         Type   Attr      Idx    E Section Name        Object

    0x20000000   COMPRESSED   0x0000000c   Data   RW          527    .data               tftlcd.o
    0x2000000c   COMPRESSED   0x00000014   Data   RW          720    .data               stm32f10x_hd.lib(system_stm32f10x.o)
    0x20000020   COMPRESSED   0x00000014   Data   RW          855    .data               stm32f10x_hd.lib(stm32f10x_rcc.o)
    0x20000034   COMPRESSED   0x0000001c   Data   RW          920    .data               UCOSIII.lib(cpu_core.o)
    0x20000050   COMPRESSED   0x00000004   Data   RW         1104    .data               UCOSIII.lib(lib_mem.o)
    0x20000054   COMPRESSED   0x000000d0   Data   RW         1737    .data               UCOSIII.lib(os_var.o)
    0x20000124   COMPRESSED   0x00000004   Data   RW         1761    .data               UCOSIII.lib(os_cpu_c.o)
    0x20000128   COMPRESSED   0x00000004   Data   RW         2249    .data               UCOSIII.lib(os_prio.o)
    0x2000012c        -       0x00001458   Zero   RW           15    .bss                main.o
    0x20001584        -       0x00000010   Zero   RW          918    .bss                UCOSIII.lib(cpu_core.o)
    0x20001594        -       0x00006c48   Zero   RW         1103    .bss                UCOSIII.lib(lib_mem.o)
    0x200081dc        -       0x00001490   Zero   RW         1211    .bss                UCOSIII.lib(os_cfg_app.o)
    0x2000966c        -       0x00000574   Zero   RW         1736    .bss                UCOSIII.lib(os_var.o)
    0x20009be0        -       0x00000400   Zero   RW            1    STACK               startup_stm32f10x_hd.o


==============================================================================

Image component sizes


      Code (inc. data)   RO Data    RW Data    ZI Data      Debug   Object Name

       116         20          0          0          0       1921   bsp.o
        56          6          0          0          0        504   bsp_beep.o
       164         16          0          0          0       2330   bsp_key.o
       156          8          0          0          0        979   bsp_led.o
       128          8          0          0          0        624   bsp_usart1.o
      1152        190          0          0       5208     271511   main.o
        36          8        304          0       1024        844   startup_stm32f10x_hd.o
        22          0          0          0          0       3091   stm32f10x_it.o
      2338         96      20482         12          0      15732   tftlcd.o

    ----------------------------------------------------------------------
      4172        352      20820         12       6232     297536   Object Totals
         0          0         32          0          0          0   (incl. Generated)
         4          0          2          0          0          0   (incl. Padding)

    ----------------------------------------------------------------------

      Code (inc. data)   RO Data    RW Data    ZI Data      Debug   Library Member Name

        52          0          0          0          0        368   cpu_a.o
       540         98          0         28         16      28417   cpu_core.o
       188         18          0          4      27720      23347   lib_mem.o
         2          0        164          0       5264      21914   os_cfg_app.o
      3060        414          0          0          0      40066   os_core.o
       132         32          0          0          0        412   os_cpu_a.o
       656         68          0          4          0       8625   os_cpu_c.o
       436        286        364          0          0       4901   os_dbg.o
       746         28          0          0          0       3225   os_flag.o
      1176        204          0          0          0       3654   os_int.o
        24         10          0          0          0        937   os_mem.o
       466         26          0          0          0       3385   os_msg.o
        24         10          0          0          0        939   os_mutex.o
       136         16          0          4          0       3018   os_prio.o
       416         20          0          0          0       2302   os_q.o
       432         14          0          0          0       2326   os_sem.o
      1772        214          0          0          0       4215   os_stat.o
      5460        260          0          0          0      14344   os_task.o
      1348        124          0          0          0       5721   os_tick.o
       404         28          0          0          0       1849   os_time.o
       812        134          0          0          0       4332   os_tmr.o
         0          0          0        208       1396      19553   os_var.o
        86          0          0          0          0          0   __dczerorl2.o
         0          0          0          0          0          0   entry.o
         0          0          0          0          0          0   entry10a.o
         0          0          0          0          0          0   entry11a.o
         4          0          0          0          0          0   entry12b.o
         8          4          0          0          0          0   entry2.o
         4          0          0          0          0          0   entry5.o
         0          0          0          0          0          0   entry7b.o
         0          0          0          0          0          0   entry8b.o
         8          4          0          0          0          0   entry9a.o
        30          0          0          0          0          0   handlers.o
        36          8          0          0          0         68   init.o
      1560         54          0          0          0       5419   stm32f10x_fsmc.o
       856         40          0          0          0     208913   stm32f10x_gpio.o
       932         44          0         20          0       8904   stm32f10x_rcc.o
      1032         22          0          0          0       8448   stm32f10x_usart.o
       476         36          0         20          0      36147   system_stm32f10x.o

    ----------------------------------------------------------------------
     23328       2216        528        288      34396     465749   Library Totals
        14          0          0          0          0          0   (incl. Padding)

    ----------------------------------------------------------------------

      Code (inc. data)   RO Data    RW Data    ZI Data      Debug   Library Name

     18282       2004        528        248      34396     197850   UCOSIII.lib
       176         16          0          0          0         68   mc_w.l
      4856        196          0         40          0     267831   stm32f10x_hd.lib

    ----------------------------------------------------------------------
     23328       2216        528        288      34396     465749   Library Totals

    ----------------------------------------------------------------------

==============================================================================


      Code (inc. data)   RO Data    RW Data    ZI Data      Debug   

     27500       2568      21348        300      40628     754885   Grand Totals
     27500       2568      21348         28      40628     754885   ELF Image Totals (compressed)
     27500       2568      21348         28          0          0   ROM Totals

==============================================================================

    Total RO  Size (Code + RO Data)                48848 (  47.70kB)
    Total RW  Size (RW Data + ZI Data)             40928 (  39.97kB)
    Total ROM Size (Code + RO Data + RW Data)      48876 (  47.73kB)

==============================================================================

