Component: ARM Compiler 5.06 update 7 (build 960) Tool: armlink [4d3601]

==============================================================================

Section Cross References

    startup_stm32f10x_hd.o(RESET) refers to startup_stm32f10x_hd.o(STACK) for __initial_sp
    startup_stm32f10x_hd.o(RESET) refers to startup_stm32f10x_hd.o(.text) for Reset_Handler
    startup_stm32f10x_hd.o(RESET) refers to stm32f10x_it.o(i.NMI_Handler) for NMI_Handler
    startup_stm32f10x_hd.o(RESET) refers to stm32f10x_it.o(i.HardFault_Handler) for HardFault_Handler
    startup_stm32f10x_hd.o(RESET) refers to stm32f10x_it.o(i.MemManage_Handler) for MemManage_Handler
    startup_stm32f10x_hd.o(RESET) refers to stm32f10x_it.o(i.BusFault_Handler) for BusFault_Handler
    startup_stm32f10x_hd.o(RESET) refers to stm32f10x_it.o(i.UsageFault_Handler) for UsageFault_Handler
    startup_stm32f10x_hd.o(RESET) refers to stm32f10x_it.o(i.SVC_Handler) for SVC_Handler
    startup_stm32f10x_hd.o(RESET) refers to stm32f10x_it.o(i.DebugMon_Handler) for DebugMon_Handler
    startup_stm32f10x_hd.o(RESET) refers to os_cpu_a.o(CODE) for OS_CPU_PendSVHandler
    startup_stm32f10x_hd.o(RESET) refers to os_cpu_c.o(i.OS_CPU_SysTickHandler) for OS_CPU_SysTickHandler
    startup_stm32f10x_hd.o(.text) refers to system_stm32f10x.o(.text) for SystemInit
    startup_stm32f10x_hd.o(.text) refers to entry.o(.ARM.Collect$$$$00000000) for __main
    main.o(i.AppTaskKey1) refers to bsp_key.o(i.Key_Scan) for Key_Scan
    main.o(i.AppTaskKey1) refers to os_mutex.o(i.OSMutexPend) for OSMutexPend
    main.o(i.AppTaskKey1) refers to cpu_a.o(.text) for CPU_SR_Save
    main.o(i.AppTaskKey1) refers to cpu_core.o(i.CPU_IntDisMeasStart) for CPU_IntDisMeasStart
    main.o(i.AppTaskKey1) refers to os_core.o(i.OS_SchedLockTimeMeasStart) for OS_SchedLockTimeMeasStart
==============================================================================

Removing Unused input sections from the image.

    Removing startup_stm32f10x_hd.o(HEAP), (512 bytes).
    Removing main.o(.data), (1 bytes).
    Removing os_app_hooks.o(i.App_OS_ClrAllHooks), (100 bytes).
    Removing os_app_hooks.o(i.App_OS_IdleTaskHook), (2 bytes).
    Removing os_app_hooks.o(i.App_OS_InitHook), (2 bytes).
    Removing os_app_hooks.o(i.App_OS_SetAllHooks), (140 bytes).
    Removing os_app_hooks.o(i.App_OS_StatTaskHook), (2 bytes).
    Removing os_app_hooks.o(i.App_OS_TaskCreateHook), (2 bytes).
    Removing os_app_hooks.o(i.App_OS_TaskDelHook), (2 bytes).
    Removing os_app_hooks.o(i.App_OS_TaskReturnHook), (2 bytes).
    Removing os_app_hooks.o(i.App_OS_TaskSwHook), (2 bytes).
    Removing os_app_hooks.o(i.App_OS_TimeTickHook), (2 bytes).
    Removing stm32f10x_it.o(i.PendSV_Handler), (2 bytes).
    Removing stm32f10x_it.o(i.SysTick_Handler), (2 bytes).
    Removing bsp.o(.data), (4 bytes).
    Removing bsp_usart1.o(i.fgetc), (32 bytes).
    Removing bsp_key.o(i.Key_ReadStatus), (34 bytes).
    Removing tftlcd.o(i.LCD_DrawFRONT_COLOR), (28 bytes).
==============================================================================

Image Symbol Table

    Local Symbols

    Symbol Name                              Value     Ov Type        Size  Object(Section)

    ../clib/../cmprslib/zerorunl2.c          0x00000000   Number         0  __dczerorl2.o ABSOLUTE
    ../clib/microlib/division.c              0x00000000   Number         0  uidiv.o ABSOLUTE
    ../clib/microlib/division.c              0x00000000   Number         0  uldiv.o ABSOLUTE
    ../clib/microlib/init/entry.s            0x00000000   Number         0  entry7a.o ABSOLUTE
    ../clib/microlib/init/entry.s            0x00000000   Number         0  entry.o ABSOLUTE
    ../clib/microlib/init/entry.s            0x00000000   Number         0  entry9a.o ABSOLUTE
    ../clib/microlib/init/entry.s            0x00000000   Number         0  entry9b.o ABSOLUTE
    ../clib/microlib/init/entry.s            0x00000000   Number         0  entry10a.o ABSOLUTE
    ../clib/microlib/init/entry.s            0x00000000   Number         0  entry8b.o ABSOLUTE
    ../clib/microlib/init/entry.s            0x00000000   Number         0  entry12b.o ABSOLUTE
    ../clib/microlib/init/entry.s            0x00000000   Number         0  entry7b.o ABSOLUTE
    ../clib/microlib/init/entry.s            0x00000000   Number         0  entry2.o ABSOLUTE
    ../clib/microlib/init/entry.s            0x00000000   Number         0  entry10b.o ABSOLUTE
    ../clib/microlib/init/entry.s            0x00000000   Number         0  entry11a.o ABSOLUTE
    ../clib/microlib/init/entry.s            0x00000000   Number         0  entry5.o ABSOLUTE
    ../clib/microlib/init/entry.s            0x00000000   Number         0  entry8a.o ABSOLUTE
    ../clib/microlib/init/entry.s            0x00000000   Number         0  entry11b.o ABSOLUTE
    ../clib/microlib/init/entry.s            0x00000000   Number         0  entry12a.o ABSOLUTE
    ../clib/microlib/longlong.c              0x00000000   Number         0  llshl.o ABSOLUTE
    ../clib/microlib/longlong.c              0x00000000   Number         0  llushr.o ABSOLUTE
    ../clib/microlib/longlong.c              0x00000000   Number         0  llsshr.o ABSOLUTE
    ../clib/microlib/printf/printf.c         0x00000000   Number         0  printf4.o ABSOLUTE
    ../clib/microlib/printf/printf.c         0x00000000   Number         0  printf7.o ABSOLUTE
    ../clib/microlib/printf/printf.c         0x00000000   Number         0  printf3.o ABSOLUTE
    ../clib/microlib/printf/printf.c         0x00000000   Number         0  printf6.o ABSOLUTE
    ../clib/microlib/printf/printf.c         0x00000000   Number         0  printfa.o ABSOLUTE
    ../clib/microlib/printf/printf.c         0x00000000   Number         0  printf5.o ABSOLUTE
    ../clib/microlib/printf/printf.c         0x00000000   Number         0  printfb.o ABSOLUTE
    ../clib/microlib/printf/printf.c         0x00000000   Number         0  printf2.o ABSOLUTE
    ../clib/microlib/printf/printf.c         0x00000000   Number         0  printf1.o ABSOLUTE
    ../clib/microlib/printf/printf.c         0x00000000   Number         0  printf0.o ABSOLUTE
    ../clib/microlib/printf/printf.c         0x00000000   Number         0  printf8.o ABSOLUTE
    ../clib/microlib/printf/stubs.s          0x00000000   Number         0  stubs.o ABSOLUTE
    ../clib/microlib/stdio/streams.c         0x00000000   Number         0  stdout.o ABSOLUTE
    ../clib/microlib/stubs.s                 0x00000000   Number         0  iusefp.o ABSOLUTE
    ../fplib/microlib/fpadd.c                0x00000000   Number         0  dadd.o ABSOLUTE
    ../fplib/microlib/fpdiv.c                0x00000000   Number         0  ddiv.o ABSOLUTE
    ../fplib/microlib/fpepilogue.c           0x00000000   Number         0  depilogue.o ABSOLUTE
    ../fplib/microlib/fpfix.c                0x00000000   Number         0  dfixul.o ABSOLUTE
    ../fplib/microlib/fpmul.c                0x00000000   Number         0  dmul.o ABSOLUTE
    ..\..\User\uC-CPU\ARM-Cortex-M3\RealView\cpu_a.asm 0x00000000   Number         0  cpu_a.o ABSOLUTE
    ..\..\User\uC-CPU\cpu_core.c             0x00000000   Number         0  cpu_core.o ABSOLUTE
    ..\..\User\uC-LIB\Ports\ARM-Cortex-M3\RealView\lib_mem_a.asm 0x00000000   Number         0  lib_mem_a.o ABSOLUTE
    ..\..\User\uC-LIB\lib_ascii.c            0x00000000   Number         0  lib_ascii.o ABSOLUTE
    ..\..\User\uC-LIB\lib_mem.c              0x00000000   Number         0  lib_mem.o ABSOLUTE
    ..\..\User\uC-LIB\lib_str.c              0x00000000   Number         0  lib_str.o ABSOLUTE
    ..\..\User\uCOS-III\Ports\ARM-Cortex-M3\Generic\RealView\os_cpu_a.s 0x00000000   Number         0  os_cpu_a.o ABSOLUTE
    ..\..\User\uCOS-III\Ports\ARM-Cortex-M3\Generic\RealView\os_cpu_c.c 0x00000000   Number         0  os_cpu_c.o ABSOLUTE
    ..\..\User\uCOS-III\Source\os_cfg_app.c  0x00000000   Number         0  os_cfg_app.o ABSOLUTE
    ..\..\User\uCOS-III\Source\os_core.c     0x00000000   Number         0  os_core.o ABSOLUTE
    ..\..\User\uCOS-III\Source\os_dbg.c      0x00000000   Number         0  os_dbg.o ABSOLUTE
    ..\..\User\uCOS-III\Source\os_flag.c     0x00000000   Number         0  os_flag.o ABSOLUTE
    ..\..\User\uCOS-III\Source\os_int.c      0x00000000   Number         0  os_int.o ABSOLUTE
    ..\..\User\uCOS-III\Source\os_mem.c      0x00000000   Number         0  os_mem.o ABSOLUTE
    ..\..\User\uCOS-III\Source\os_msg.c      0x00000000   Number         0  os_msg.o ABSOLUTE
    ..\..\User\uCOS-III\Source\os_mutex.c    0x00000000   Number         0  os_mutex.o ABSOLUTE
    ..\..\User\uCOS-III\Source\os_prio.c     0x00000000   Number         0  os_prio.o ABSOLUTE
    ..\..\User\uCOS-III\Source\os_q.c        0x00000000   Number         0  os_q.o ABSOLUTE
    ..\..\User\uCOS-III\Source\os_sem.c      0x00000000   Number         0  os_sem.o ABSOLUTE
    ..\..\User\uCOS-III\Source\os_stat.c     0x00000000   Number         0  os_stat.o ABSOLUTE
    ..\..\User\uCOS-III\Source\os_task.c     0x00000000   Number         0  os_task.o ABSOLUTE
    ..\..\User\uCOS-III\Source\os_tick.c     0x00000000   Number         0  os_tick.o ABSOLUTE
    ..\..\User\uCOS-III\Source\os_time.c     0x00000000   Number         0  os_time.o ABSOLUTE
    ..\..\User\uCOS-III\Source\os_tmr.c      0x00000000   Number         0  os_tmr.o ABSOLUTE
    ..\..\User\uCOS-III\Source\os_var.c      0x00000000   Number         0  os_var.o ABSOLUTE
    ..\FW_LIB\startup_stm32f10x_hd.s         0x00000000   Number         0  startup_stm32f10x_hd.o ABSOLUTE
    ..\USER\APP\main.c                       0x00000000   Number         0  main.o ABSOLUTE
    ..\USER\APP\os_app_hooks.c               0x00000000   Number         0  os_app_hooks.o ABSOLUTE
    ..\USER\APP\stm32f10x_it.c               0x00000000   Number         0  stm32f10x_it.o ABSOLUTE
    ..\USER\BSP\Key\bsp_key.c                0x00000000   Number         0  bsp_key.o ABSOLUTE
    ..\USER\BSP\bsp.c                        0x00000000   Number         0  bsp.o ABSOLUTE
    ..\USER\BSP\led\bsp_led.c                0x00000000   Number         0  bsp_led.o ABSOLUTE
    ..\USER\BSP\tftlcd\tftlcd.c              0x00000000   Number         0  tftlcd.o ABSOLUTE
    ..\USER\BSP\usart\bsp_usart1.c           0x00000000   Number         0  bsp_usart1.o ABSOLUTE
    Libraries\CMSIS\CM3\DeviceSupport\ST\STM32F10x\system_stm32f10x.c 0x00000000   Number         0  system_stm32f10x.o ABSOLUTE
    Libraries\STM32F10x_StdPeriph_Driver\src\stm32f10x_fsmc.c 0x00000000   Number         0  stm32f10x_fsmc.o ABSOLUTE
    Libraries\STM32F10x_StdPeriph_Driver\src\stm32f10x_gpio.c 0x00000000   Number         0  stm32f10x_gpio.o ABSOLUTE
    Libraries\STM32F10x_StdPeriph_Driver\src\stm32f10x_rcc.c 0x00000000   Number         0  stm32f10x_rcc.o ABSOLUTE
    Libraries\STM32F10x_StdPeriph_Driver\src\stm32f10x_usart.c 0x00000000   Number         0  stm32f10x_usart.o ABSOLUTE
    cdrcmple.s                               0x00000000   Number         0  cdrcmple.o ABSOLUTE
    dc.s                                     0x00000000   Number         0  dc.o ABSOLUTE
    handlers.s                               0x00000000   Number         0  handlers.o ABSOLUTE
    init.s                                   0x00000000   Number         0  init.o ABSOLUTE
    RESET                                    0x08000000   Section      304  startup_stm32f10x_hd.o(RESET)
    .ARM.Collect$$$$00000000                 0x08000130   Section        0  entry.o(.ARM.Collect$$$$00000000)
    .ARM.Collect$$$$00000001                 0x08000130   Section        4  entry2.o(.ARM.Collect$$$$00000001)
    .ARM.Collect$$$$00000004                 0x08000134   Section        4  entry5.o(.ARM.Collect$$$$00000004)
    .ARM.Collect$$$$00000008                 0x08000138   Section        0  entry7b.o(.ARM.Collect$$$$00000008)
    .ARM.Collect$$$$0000000A                 0x08000138   Section        0  entry8b.o(.ARM.Collect$$$$0000000A)
    .ARM.Collect$$$$0000000B                 0x08000138   Section        8  entry9a.o(.ARM.Collect$$$$0000000B)
    .ARM.Collect$$$$0000000E                 0x08000140   Section        4  entry12b.o(.ARM.Collect$$$$0000000E)
    .ARM.Collect$$$$0000000F                 0x08000144   Section        0  entry10a.o(.ARM.Collect$$$$0000000F)
    .ARM.Collect$$$$00000011                 0x08000144   Section        0  entry11a.o(.ARM.Collect$$$$00000011)
    .ARM.Collect$$$$00002712                 0x08000144   Section        4  entry2.o(.ARM.Collect$$$$00002712)
    __lit__00000000                          0x08000144   Data           4  entry2.o(.ARM.Collect$$$$00002712)
    .text                                    0x08000148   Section       36  startup_stm32f10x_hd.o(.text)
    .text                                    0x0800016c   Section        0  system_stm32f10x.o(.text)
    SetSysClockTo72                          0x0800016d   Thumb Code   212  system_stm32f10x.o(.text)
    SetSysClock                              0x08000241   Thumb Code     8  system_stm32f10x.o(.text)
    .text                                    0x08000348   Section        0  stm32f10x_gpio.o(.text)
    .text                                    0x080006a0   Section        0  stm32f10x_rcc.o(.text)
    .text                                    0x08000a44   Section        0  stm32f10x_fsmc.o(.text)
    .text                                    0x0800105c   Section        0  stm32f10x_usart.o(.text)
    .text                                    0x08001464   Section       52  cpu_a.o(.text)
    .text                                    0x08001498   Section        0  uldiv.o(.text)
    .text                                    0x080014fc   Section       36  init.o(.text)
    .text                                    0x08001520   Section        0  llshl.o(.text)
    .text                                    0x0800153e   Section        0  llushr.o(.text)
    .text                                    0x0800155e   Section        0  __dczerorl2.o(.text)
    CODE                                     0x080015b4   Section      132  os_cpu_a.o(CODE)
    i.AppTaskKey1                            0x08001638   Section        0  main.o(i.AppTaskKey1)
    AppTaskKey1                              0x08001639   Thumb Code   510  main.o(i.AppTaskKey1)
    i.AppTaskKey2                            0x0800184c   Section        0  main.o(i.AppTaskKey2)
    AppTaskKey2                              0x0800184d   Thumb Code    80  main.o(i.AppTaskKey2)
    i.AppTaskKey3                            0x080018a4   Section        0  main.o(i.AppTaskKey3)
    AppTaskKey3                              0x080018a5   Thumb Code   514  main.o(i.AppTaskKey3)
    i.AppTaskStart                           0x08001abc   Section        0  main.o(i.AppTaskStart)
    AppTaskStart                             0x08001abd   Thumb Code   258  main.o(i.AppTaskStart)
    i.BSP_CPU_ClkFreq                        0x08001c34   Section        0  bsp.o(i.BSP_CPU_ClkFreq)
    i.BSP_Init                               0x08001c44   Section        0  bsp.o(i.BSP_Init)
    i.BusFault_Handler                       0x08001c64   Section        0  stm32f10x_it.o(i.BusFault_Handler)
    i.CPU_Init                               0x08001c68   Section        0  cpu_core.o(i.CPU_Init)
    i.CPU_IntDisMeasInit                     0x08001c78   Section        0  cpu_core.o(i.CPU_IntDisMeasInit)
    CPU_IntDisMeasInit                       0x08001c79   Thumb Code   104  cpu_core.o(i.CPU_IntDisMeasInit)
    i.CPU_IntDisMeasMaxCalc                  0x08001cfc   Section        0  cpu_core.o(i.CPU_IntDisMeasMaxCalc)
    CPU_IntDisMeasMaxCalc                    0x08001cfd   Thumb Code    24  cpu_core.o(i.CPU_IntDisMeasMaxCalc)
    i.CPU_IntDisMeasMaxCurGet                0x08001d18   Section        0  cpu_core.o(i.CPU_IntDisMeasMaxCurGet)
    i.CPU_IntDisMeasMaxCurReset              0x08001d44   Section        0  cpu_core.o(i.CPU_IntDisMeasMaxCurReset)
    i.CPU_IntDisMeasMaxGet                   0x08001d70   Section        0  cpu_core.o(i.CPU_IntDisMeasMaxGet)
    i.CPU_IntDisMeasStart                    0x08001d9c   Section        0  cpu_core.o(i.CPU_IntDisMeasStart)
    i.CPU_IntDisMeasStop                     0x08001dd0   Section        0  cpu_core.o(i.CPU_IntDisMeasStop)
    i.CPU_NameClr                            0x08001e24   Section        0  cpu_core.o(i.CPU_NameClr)
    i.CPU_NameInit                           0x08001e5c   Section        0  cpu_core.o(i.CPU_NameInit)
    CPU_NameInit                             0x08001e5d   Thumb Code     8  cpu_core.o(i.CPU_NameInit)
    i.CPU_TS_Init                            0x08001e64   Section        0  cpu_core.o(i.CPU_TS_Init)
    CPU_TS_Init                              0x08001e65   Thumb Code    14  cpu_core.o(i.CPU_TS_Init)
    i.CPU_TS_TmrFreqSet                      0x08001e78   Section        0  cpu_core.o(i.CPU_TS_TmrFreqSet)
    i.CPU_TS_TmrInit                         0x08001e84   Section        0  bsp.o(i.CPU_TS_TmrInit)
    i.CPU_TS_TmrRd                           0x08001eb8   Section        0  bsp.o(i.CPU_TS_TmrRd)
    i.DebugMon_Handler                       0x08001ec4   Section        0  stm32f10x_it.o(i.DebugMon_Handler)
    i.HardFault_Handler                      0x08001ec6   Section        0  stm32f10x_it.o(i.HardFault_Handler)
    i.Key1_Config                            0x08001ecc   Section        0  bsp_key.o(i.Key1_Config)
    Key1_Config                              0x08001ecd   Thumb Code    32  bsp_key.o(i.Key1_Config)
    i.Key2_Config                            0x08001ef0   Section        0  bsp_key.o(i.Key2_Config)
    Key2_Config                              0x08001ef1   Thumb Code    32  bsp_key.o(i.Key2_Config)
    i.Key3_Config                            0x08001f14   Section        0  bsp_key.o(i.Key3_Config)
    Key3_Config                              0x08001f15   Thumb Code    32  bsp_key.o(i.Key3_Config)
    i.Key_Initial                            0x08001f38   Section        0  bsp_key.o(i.Key_Initial)
    i.Key_Scan                               0x08001f48   Section        0  bsp_key.o(i.Key_Scan)
    i.LCD_Clear                              0x08001fa0   Section        0  tftlcd.o(i.LCD_Clear)
    i.LCD_Display_Dir                        0x08001fe8   Section        0  tftlcd.o(i.LCD_Display_Dir)
    i.LCD_DrawLine                           0x08002034   Section        0  tftlcd.o(i.LCD_DrawLine)
    i.LCD_DrawPoint                          0x080020e4   Section        0  tftlcd.o(i.LCD_DrawPoint)
    i.LCD_DrawRectangle                      0x08002104   Section        0  tftlcd.o(i.LCD_DrawRectangle)
    i.LCD_Fill                               0x08002140   Section        0  tftlcd.o(i.LCD_Fill)
    i.LCD_Set_Window                         0x0800219c   Section        0  tftlcd.o(i.LCD_Set_Window)
    i.LCD_ShowPicture                        0x08002242   Section        0  tftlcd.o(i.LCD_ShowPicture)
    i.LCD_WriteCmd                           0x080022a0   Section        0  tftlcd.o(i.LCD_WriteCmd)
    i.LCD_WriteData                          0x080022ac   Section        0  tftlcd.o(i.LCD_WriteData)
    i.LCD_WriteData_Color                    0x080022b8   Section        0  tftlcd.o(i.LCD_WriteData_Color)
    i.LED_GPIO_Config                        0x080022c4   Section        0  bsp_led.o(i.LED_GPIO_Config)
    LED_GPIO_Config                          0x080022c5   Thumb Code    82  bsp_led.o(i.LED_GPIO_Config)
    i.LED_Init                               0x0800231c   Section        0  bsp_led.o(i.LED_Init)
    i.MemManage_Handler                      0x08002340   Section        0  stm32f10x_it.o(i.MemManage_Handler)
    i.Mem_Clr                                0x08002344   Section        0  lib_mem.o(i.Mem_Clr)
    i.Mem_Init                               0x08002358   Section        0  lib_mem.o(i.Mem_Init)
    i.Mem_Set                                0x080023a0   Section        0  lib_mem.o(i.Mem_Set)
    i.NMI_Handler                            0x08002402   Section        0  stm32f10x_it.o(i.NMI_Handler)
    i.OSCfg_Init                             0x08002404   Section        0  os_cfg_app.o(i.OSCfg_Init)
    i.OSIdleTaskHook                         0x08002408   Section        0  os_cpu_c.o(i.OSIdleTaskHook)
    i.OSInit                                 0x0800241c   Section        0  os_core.o(i.OSInit)
    i.OSInitHook                             0x080025a8   Section        0  os_cpu_c.o(i.OSInitHook)
    i.OSIntExit                              0x080025e0   Section        0  os_core.o(i.OSIntExit)
    i.OSMutexCreate                          0x080026c4   Section        0  os_mutex.o(i.OSMutexCreate)
    i.OSMutexPend                            0x080027ac   Section        0  os_mutex.o(i.OSMutexPend)
    i.OSMutexPost                            0x08002ad4   Section        0  os_mutex.o(i.OSMutexPost)
    i.OSSched                                0x08002d74   Section        0  os_core.o(i.OSSched)
    i.OSSchedLock                            0x08002e1c   Section        0  os_core.o(i.OSSchedLock)
    i.OSSchedUnlock                          0x08002e98   Section        0  os_core.o(i.OSSchedUnlock)
    i.OSStart                                0x08002f38   Section        0  os_core.o(i.OSStart)
    i.OSStatReset                            0x08002fa0   Section        0  os_stat.o(i.OSStatReset)
    i.OSStatTaskCPUUsageInit                 0x08003108   Section        0  os_stat.o(i.OSStatTaskCPUUsageInit)
    i.OSStatTaskHook                         0x08003208   Section        0  os_cpu_c.o(i.OSStatTaskHook)
    i.OSTaskCreate                           0x0800321c   Section        0  os_task.o(i.OSTaskCreate)
    i.OSTaskCreateHook                       0x080034b0   Section        0  os_cpu_c.o(i.OSTaskCreateHook)
    i.OSTaskDel                              0x080034c8   Section        0  os_task.o(i.OSTaskDel)
    i.OSTaskDelHook                          0x080036d0   Section        0  os_cpu_c.o(i.OSTaskDelHook)
    i.OSTaskResume                           0x080036e8   Section        0  os_task.o(i.OSTaskResume)
    i.OSTaskReturnHook                       0x08003770   Section        0  os_cpu_c.o(i.OSTaskReturnHook)
    i.OSTaskSemPend                          0x08003788   Section        0  os_task.o(i.OSTaskSemPend)
    i.OSTaskStkChk                           0x080039d8   Section        0  os_task.o(i.OSTaskStkChk)
    i.OSTaskStkInit                          0x08003abc   Section        0  os_cpu_c.o(i.OSTaskStkInit)
    i.OSTaskSuspend                          0x08003b7c   Section        0  os_task.o(i.OSTaskSuspend)
    i.OSTaskSwHook                           0x08003bdc   Section        0  os_cpu_c.o(i.OSTaskSwHook)
    i.OSTimeDly                              0x08003c80   Section        0  os_time.o(i.OSTimeDly)
    i.OSTimeDlyHMSM                          0x08003dd0   Section        0  os_time.o(i.OSTimeDlyHMSM)
    i.OSTimeTick                             0x08003ffc   Section        0  os_time.o(i.OSTimeTick)
    i.OSTimeTickHook                         0x08004040   Section        0  os_cpu_c.o(i.OSTimeTickHook)
    i.OS_CPU_SysTickHandler                  0x08004054   Section        0  os_cpu_c.o(i.OS_CPU_SysTickHandler)
    i.OS_CPU_SysTickInit                     0x08004094   Section        0  os_cpu_c.o(i.OS_CPU_SysTickInit)
    i.OS_Dbg_Init                            0x080040c4   Section        0  os_dbg.o(i.OS_Dbg_Init)
    i.OS_FlagInit                            0x08004278   Section        0  os_flag.o(i.OS_FlagInit)
    i.OS_FlagPost                            0x08004290   Section        0  os_flag.o(i.OS_FlagPost)
    i.OS_FlagTaskRdy                         0x0800450c   Section        0  os_flag.o(i.OS_FlagTaskRdy)
    i.OS_IdleTask                            0x08004564   Section        0  os_core.o(i.OS_IdleTask)
    i.OS_IdleTaskInit                        0x080045b0   Section        0  os_core.o(i.OS_IdleTaskInit)
    i.OS_IntQPost                            0x08004620   Section        0  os_int.o(i.OS_IntQPost)
    i.OS_IntQRePost                          0x08004724   Section        0  os_int.o(i.OS_IntQRePost)
    i.OS_IntQTask                            0x080048c8   Section        0  os_int.o(i.OS_IntQTask)
    i.OS_IntQTaskInit                        0x08004990   Section        0  os_int.o(i.OS_IntQTaskInit)
    i.OS_MemInit                             0x08004ab8   Section        0  os_mem.o(i.OS_MemInit)
    i.OS_MsgPoolInit                         0x08004ad0   Section        0  os_msg.o(i.OS_MsgPoolInit)
    i.OS_MsgQFreeAll                         0x08004b4c   Section        0  os_msg.o(i.OS_MsgQFreeAll)
    i.OS_MsgQInit                            0x08004b90   Section        0  os_msg.o(i.OS_MsgQInit)
    i.OS_MsgQPut                             0x08004ba0   Section        0  os_msg.o(i.OS_MsgQPut)
    i.OS_MutexDbgListAdd                     0x08004ca4   Section        0  os_mutex.o(i.OS_MutexDbgListAdd)
    i.OS_MutexInit                           0x08004cd4   Section        0  os_mutex.o(i.OS_MutexInit)
    i.OS_Pend                                0x08004cec   Section        0  os_core.o(i.OS_Pend)
    i.OS_PendDataInit                        0x08004d54   Section        0  os_core.o(i.OS_PendDataInit)
    i.OS_PendDbgNameAdd                      0x08004d7c   Section        0  os_core.o(i.OS_PendDbgNameAdd)
    i.OS_PendDbgNameRemove                   0x08004dd8   Section        0  os_core.o(i.OS_PendDbgNameRemove)
    i.OS_PendListChangePrio                  0x08004dfc   Section        0  os_core.o(i.OS_PendListChangePrio)
    i.OS_PendListInit                        0x08004e42   Section        0  os_core.o(i.OS_PendListInit)
    i.OS_PendListInsertPrio                  0x08004e4c   Section        0  os_core.o(i.OS_PendListInsertPrio)
    i.OS_PendListRemove                      0x08004eb2   Section        0  os_core.o(i.OS_PendListRemove)
    i.OS_PendListRemove1                     0x08004ee2   Section        0  os_core.o(i.OS_PendListRemove1)
    i.OS_Post                                0x08004f24   Section        0  os_core.o(i.OS_Post)
    i.OS_Post1                               0x08004fe4   Section        0  os_core.o(i.OS_Post1)
    i.OS_PrioGetHighest                      0x08005010   Section        0  os_prio.o(i.OS_PrioGetHighest)
    i.OS_PrioInit                            0x08005038   Section        0  os_prio.o(i.OS_PrioInit)
    i.OS_PrioInsert                          0x08005050   Section        0  os_prio.o(i.OS_PrioInsert)
    i.OS_PrioRemove                          0x08005074   Section        0  os_prio.o(i.OS_PrioRemove)
    i.OS_QInit                               0x08005098   Section        0  os_q.o(i.OS_QInit)
    i.OS_QPost                               0x080050b0   Section        0  os_q.o(i.OS_QPost)
    i.OS_RdyListInit                         0x08005238   Section        0  os_core.o(i.OS_RdyListInit)
    i.OS_RdyListInsert                       0x0800525c   Section        0  os_core.o(i.OS_RdyListInsert)
    i.OS_RdyListInsertHead                   0x08005288   Section        0  os_core.o(i.OS_RdyListInsertHead)
    i.OS_RdyListInsertTail                   0x080052c8   Section        0  os_core.o(i.OS_RdyListInsertTail)
    i.OS_RdyListMoveHeadToTail               0x08005304   Section        0  os_core.o(i.OS_RdyListMoveHeadToTail)
    i.OS_RdyListRemove                       0x08005348   Section        0  os_core.o(i.OS_RdyListRemove)
    i.OS_Sched0                              0x080053a4   Section        0  os_core.o(i.OS_Sched0)
    i.OS_SchedLockTimeMeasStart              0x08005400   Section        0  os_core.o(i.OS_SchedLockTimeMeasStart)
    i.OS_SchedLockTimeMeasStop               0x0800541c   Section        0  os_core.o(i.OS_SchedLockTimeMeasStop)
    i.OS_SchedRoundRobin                     0x08005458   Section        0  os_core.o(i.OS_SchedRoundRobin)
    i.OS_SemInit                             0x08005544   Section        0  os_sem.o(i.OS_SemInit)
    i.OS_SemPost                             0x0800555c   Section        0  os_sem.o(i.OS_SemPost)
    i.OS_StatTask                            0x080056f4   Section        0  os_stat.o(i.OS_StatTask)
    i.OS_StatTaskInit                        0x08005aac   Section        0  os_stat.o(i.OS_StatTaskInit)
    i.OS_TaskBlock                           0x08005b78   Section        0  os_core.o(i.OS_TaskBlock)
    i.OS_TaskDbgListAdd                      0x08005bb0   Section        0  os_task.o(i.OS_TaskDbgListAdd)
    i.OS_TaskDbgListRemove                   0x08005be0   Section        0  os_task.o(i.OS_TaskDbgListRemove)
    i.OS_TaskInit                            0x08005c24   Section        0  os_task.o(i.OS_TaskInit)
    i.OS_TaskInitTCB                         0x08005c44   Section        0  os_task.o(i.OS_TaskInitTCB)
    i.OS_TaskQPost                           0x08005d14   Section        0  os_task.o(i.OS_TaskQPost)
    i.OS_TaskRdy                             0x08005f80   Section        0  os_core.o(i.OS_TaskRdy)
    i.OS_TaskResume                          0x08005f9c   Section        0  os_task.o(i.OS_TaskResume)
    i.OS_TaskReturn                          0x08006118   Section        0  os_task.o(i.OS_TaskReturn)
    i.OS_TaskSemPost                         0x08006130   Section        0  os_task.o(i.OS_TaskSemPost)
    i.OS_TaskSuspend                         0x080066d8   Section        0  os_task.o(i.OS_TaskSuspend)
    i.OS_TickListInit                        0x08006868   Section        0  os_tick.o(i.OS_TickListInit)
    i.OS_TickListInsert                      0x08006890   Section        0  os_tick.o(i.OS_TickListInsert)
    i.OS_TickListRemove                      0x08006a4c   Section        0  os_tick.o(i.OS_TickListRemove)
    i.OS_TickListResetPeak                   0x08006a84   Section        0  os_tick.o(i.OS_TickListResetPeak)
    i.OS_TickListUpdate                      0x08006aa8   Section        0  os_tick.o(i.OS_TickListUpdate)
    i.OS_TickTask                            0x08006cc8   Section        0  os_tick.o(i.OS_TickTask)
    i.OS_TickTaskInit                        0x08006cf4   Section        0  os_tick.o(i.OS_TickTaskInit)
    i.OS_TmrInit                             0x08006dac   Section        0  os_tmr.o(i.OS_TmrInit)
    i.OS_TmrLink                             0x08006ed4   Section        0  os_tmr.o(i.OS_TmrLink)
    i.OS_TmrResetPeak                        0x08006fa4   Section        0  os_tmr.o(i.OS_TmrResetPeak)
    i.OS_TmrTask                             0x08006fc8   Section        0  os_tmr.o(i.OS_TmrTask)
    i.OS_TmrUnlink                           0x08007088   Section        0  os_tmr.o(i.OS_TmrUnlink)
    i.SVC_Handler                            0x080070d8   Section        0  stm32f10x_it.o(i.SVC_Handler)
    i.TFTLCD_FSMC_Init                       0x080070da   Section        0  tftlcd.o(i.TFTLCD_FSMC_Init)
    i.TFTLCD_GPIO_Init                       0x08007158   Section        0  tftlcd.o(i.TFTLCD_GPIO_Init)
    i.TFTLCD_Init                            0x080071c8   Section        0  tftlcd.o(i.TFTLCD_Init)
    i.USARTx_Config                          0x08007484   Section        0  bsp_usart1.o(i.USARTx_Config)
    i.UsageFault_Handler                     0x08007504   Section        0  stm32f10x_it.o(i.UsageFault_Handler)
    i.__0printf$5                            0x08007508   Section        0  printf5.o(i.__0printf$5)
    i.__scatterload_copy                     0x08007528   Section       14  handlers.o(i.__scatterload_copy)
    i.__scatterload_null                     0x08007536   Section        2  handlers.o(i.__scatterload_null)
    i.__scatterload_zeroinit                 0x08007538   Section       14  handlers.o(i.__scatterload_zeroinit)
    i._printf_core                           0x08007548   Section        0  printf5.o(i._printf_core)
    _printf_core                             0x08007549   Thumb Code   660  printf5.o(i._printf_core)
    i.delay_ms                               0x08007808   Section        0  tftlcd.o(i.delay_ms)
    i.fputc                                  0x08007824   Section        0  bsp_usart1.o(i.fputc)
    i.main                                   0x08007848   Section        0  main.o(i.main)
    .constdata                               0x080078a8   Section    94824  main.o(.constdata)
    .constdata                               0x0801eb10   Section      164  os_cfg_app.o(.constdata)
    .constdata                               0x0801ebb4   Section      364  os_dbg.o(.constdata)
    .data                                    0x20000000   Section       12  tftlcd.o(.data)
    .data                                    0x2000000c   Section       20  system_stm32f10x.o(.data)
    .data                                    0x20000020   Section       20  stm32f10x_rcc.o(.data)
    APBAHBPrescTable                         0x20000020   Data          16  stm32f10x_rcc.o(.data)
    ADCPrescTable                            0x20000030   Data           4  stm32f10x_rcc.o(.data)
    .data                                    0x20000034   Section       28  cpu_core.o(.data)
    .data                                    0x20000050   Section        4  lib_mem.o(.data)
    .data                                    0x20000054   Section      208  os_var.o(.data)
    .data                                    0x20000124   Section        4  os_cpu_c.o(.data)
    .data                                    0x20000128   Section        4  os_prio.o(.data)
    .data                                    0x2000012c   Section        4  stdout.o(.data)
    .bss                                     0x20000130   Section     7500  main.o(.bss)
    AppTaskStartStk                          0x2000015c   Data         512  main.o(.bss)
    AppTaskStartTCB                          0x2000035c   Data         200  main.o(.bss)
    AppTaskKey1Stk                           0x20000424   Data        2048  main.o(.bss)
    AppTaskKey1TCB                           0x20000c24   Data         200  main.o(.bss)
    AppTaskKey2Stk                           0x20000cec   Data        2048  main.o(.bss)
    AppTaskKey2TCB                           0x200014ec   Data         200  main.o(.bss)
    AppTaskKey3Stk                           0x200015b4   Data        2048  main.o(.bss)
    AppTaskKey3TCB                           0x20001db4   Data         200  main.o(.bss)
    .bss                                     0x20001e7c   Section       16  cpu_core.o(.bss)
    .bss                                     0x20001e8c   Section    27720  lib_mem.o(.bss)
    .bss                                     0x20008ad4   Section     5264  os_cfg_app.o(.bss)
    .bss                                     0x20009f64   Section     1396  os_var.o(.bss)
    STACK                                    0x2000a4d8   Section     1024  startup_stm32f10x_hd.o(STACK)

    Global Symbols

    Symbol Name                              Value     Ov Type        Size  Object(Section)

    BuildAttributes$$THM_ISAv4$P$D$K$B$S$PE$A:L22UL41UL21$X:L11$S22US41US21$IEEE1$IW$USESV6$~STKCKD$USESV7$~SHL$OSPACE$ROPI$EBA8$MICROLIB$REQ8$PRES8$EABIv2 0x00000000   Number         0  anon$$obj.o ABSOLUTE
    __ARM_use_no_argv                        0x00000000   Number         0  main.o ABSOLUTE
    _printf_a                                0x00000000   Number         0  stubs.o ABSOLUTE
    _printf_c                                0x00000000   Number         0  stubs.o ABSOLUTE
    _printf_charcount                        0x00000000   Number         0  stubs.o ABSOLUTE
    _printf_d                                0x00000000   Number         0  stubs.o ABSOLUTE
    _printf_e                                0x00000000   Number         0  stubs.o ABSOLUTE
    _printf_f                                0x00000000   Number         0  stubs.o ABSOLUTE
    _printf_flags                            0x00000000   Number         0  stubs.o ABSOLUTE
    _printf_fp_dec                           0x00000000   Number         0  stubs.o ABSOLUTE
    _printf_fp_hex                           0x00000000   Number         0  stubs.o ABSOLUTE
    _printf_g                                0x00000000   Number         0  stubs.o ABSOLUTE
    _printf_i                                0x00000000   Number         0  stubs.o ABSOLUTE
    _printf_int_dec                          0x00000000   Number         0  stubs.o ABSOLUTE
    _printf_l                                0x00000000   Number         0  stubs.o ABSOLUTE
    _printf_lc                               0x00000000   Number         0  stubs.o ABSOLUTE
    _printf_ll                               0x00000000   Number         0  stubs.o ABSOLUTE
    _printf_lld                              0x00000000   Number         0  stubs.o ABSOLUTE
    _printf_lli                              0x00000000   Number         0  stubs.o ABSOLUTE
    _printf_llo                              0x00000000   Number         0  stubs.o ABSOLUTE
    _printf_llu                              0x00000000   Number         0  stubs.o ABSOLUTE
    _printf_llx                              0x00000000   Number         0  stubs.o ABSOLUTE
    _printf_longlong_dec                     0x00000000   Number         0  stubs.o ABSOLUTE
    _printf_longlong_hex                     0x00000000   Number         0  stubs.o ABSOLUTE
    _printf_longlong_oct                     0x00000000   Number         0  stubs.o ABSOLUTE
    _printf_ls                               0x00000000   Number         0  stubs.o ABSOLUTE
    _printf_mbtowc                           0x00000000   Number         0  stubs.o ABSOLUTE
    _printf_n                                0x00000000   Number         0  stubs.o ABSOLUTE
    _printf_o                                0x00000000   Number         0  stubs.o ABSOLUTE
    _printf_p                                0x00000000   Number         0  stubs.o ABSOLUTE
    _printf_percent                          0x00000000   Number         0  stubs.o ABSOLUTE
    _printf_pre_padding                      0x00000000   Number         0  stubs.o ABSOLUTE
    _printf_return_value                     0x00000000   Number         0  stubs.o ABSOLUTE
    _printf_s                                0x00000000   Number         0  stubs.o ABSOLUTE
    _printf_sizespec                         0x00000000   Number         0  stubs.o ABSOLUTE
    _printf_str                              0x00000000   Number         0  stubs.o ABSOLUTE
    _printf_truncate_signed                  0x00000000   Number         0  stubs.o ABSOLUTE
    _printf_truncate_unsigned                0x00000000   Number         0  stubs.o ABSOLUTE
    _printf_u                                0x00000000   Number         0  stubs.o ABSOLUTE
    _printf_wc                               0x00000000   Number         0  stubs.o ABSOLUTE
    _printf_wctomb                           0x00000000   Number         0  stubs.o ABSOLUTE
    _printf_widthprec                        0x00000000   Number         0  stubs.o ABSOLUTE
    _printf_x                                0x00000000   Number         0  stubs.o ABSOLUTE
    __arm_fini_                               - Undefined Weak Reference
    __cpp_initialize__aeabi_                  - Undefined Weak Reference
    __cxa_finalize                            - Undefined Weak Reference
    _clock_init                               - Undefined Weak Reference
    _microlib_exit                            - Undefined Weak Reference
    __Vectors_Size                           0x00000130   Number         0  startup_stm32f10x_hd.o ABSOLUTE
    __Vectors                                0x08000000   Data           4  startup_stm32f10x_hd.o(RESET)
    __Vectors_End                            0x08000130   Data           0  startup_stm32f10x_hd.o(RESET)
    __main                                   0x08000131   Thumb Code     0  entry.o(.ARM.Collect$$$$00000000)
    _main_stk                                0x08000131   Thumb Code     0  entry2.o(.ARM.Collect$$$$00000001)
    _main_scatterload                        0x08000135   Thumb Code     0  entry5.o(.ARM.Collect$$$$00000004)
    __main_after_scatterload                 0x08000139   Thumb Code     0  entry5.o(.ARM.Collect$$$$00000004)
    _main_clock                              0x08000139   Thumb Code     0  entry7b.o(.ARM.Collect$$$$00000008)
    _main_cpp_init                           0x08000139   Thumb Code     0  entry8b.o(.ARM.Collect$$$$0000000A)
    _main_init                               0x08000139   Thumb Code     0  entry9a.o(.ARM.Collect$$$$0000000B)
    __rt_lib_shutdown_fini                   0x08000141   Thumb Code     0  entry12b.o(.ARM.Collect$$$$0000000E)
    __rt_final_cpp                           0x08000145   Thumb Code     0  entry10a.o(.ARM.Collect$$$$0000000F)
    __rt_final_exit                          0x08000145   Thumb Code     0  entry11a.o(.ARM.Collect$$$$00000011)
    Reset_Handler                            0x08000149   Thumb Code     8  startup_stm32f10x_hd.o(.text)
    ADC1_2_IRQHandler                        0x08000163   Thumb Code     0  startup_stm32f10x_hd.o(.text)
    ADC3_IRQHandler                          0x08000163   Thumb Code     0  startup_stm32f10x_hd.o(.text)
    CAN1_RX1_IRQHandler                      0x08000163   Thumb Code     0  startup_stm32f10x_hd.o(.text)
    CAN1_SCE_IRQHandler                      0x08000163   Thumb Code     0  startup_stm32f10x_hd.o(.text)
    DMA1_Channel1_IRQHandler                 0x08000163   Thumb Code     0  startup_stm32f10x_hd.o(.text)
    DMA1_Channel2_IRQHandler                 0x08000163   Thumb Code     0  startup_stm32f10x_hd.o(.text)
    DMA1_Channel3_IRQHandler                 0x08000163   Thumb Code     0  startup_stm32f10x_hd.o(.text)
    DMA1_Channel4_IRQHandler                 0x08000163   Thumb Code     0  startup_stm32f10x_hd.o(.text)
    DMA1_Channel5_IRQHandler                 0x08000163   Thumb Code     0  startup_stm32f10x_hd.o(.text)
    DMA1_Channel6_IRQHandler                 0x08000163   Thumb Code     0  startup_stm32f10x_hd.o(.text)
    DMA1_Channel7_IRQHandler                 0x08000163   Thumb Code     0  startup_stm32f10x_hd.o(.text)
    DMA2_Channel1_IRQHandler                 0x08000163   Thumb Code     0  startup_stm32f10x_hd.o(.text)
    DMA2_Channel2_IRQHandler                 0x08000163   Thumb Code     0  startup_stm32f10x_hd.o(.text)
    DMA2_Channel3_IRQHandler                 0x08000163   Thumb Code     0  startup_stm32f10x_hd.o(.text)
    DMA2_Channel4_5_IRQHandler               0x08000163   Thumb Code     0  startup_stm32f10x_hd.o(.text)
    EXTI0_IRQHandler                         0x08000163   Thumb Code     0  startup_stm32f10x_hd.o(.text)
    EXTI15_10_IRQHandler                     0x08000163   Thumb Code     0  startup_stm32f10x_hd.o(.text)
    EXTI1_IRQHandler                         0x08000163   Thumb Code     0  startup_stm32f10x_hd.o(.text)
    EXTI2_IRQHandler                         0x08000163   Thumb Code     0  startup_stm32f10x_hd.o(.text)
    EXTI3_IRQHandler                         0x08000163   Thumb Code     0  startup_stm32f10x_hd.o(.text)
    EXTI4_IRQHandler                         0x08000163   Thumb Code     0  startup_stm32f10x_hd.o(.text)
    EXTI9_5_IRQHandler                       0x08000163   Thumb Code     0  startup_stm32f10x_hd.o(.text)
    FLASH_IRQHandler                         0x08000163   Thumb Code     0  startup_stm32f10x_hd.o(.text)
    FSMC_IRQHandler                          0x08000163   Thumb Code     0  startup_stm32f10x_hd.o(.text)
    I2C1_ER_IRQHandler                       0x08000163   Thumb Code     0  startup_stm32f10x_hd.o(.text)
    I2C1_EV_IRQHandler                       0x08000163   Thumb Code     0  startup_stm32f10x_hd.o(.text)
    I2C2_ER_IRQHandler                       0x08000163   Thumb Code     0  startup_stm32f10x_hd.o(.text)
    I2C2_EV_IRQHandler                       0x08000163   Thumb Code     0  startup_stm32f10x_hd.o(.text)
    PVD_IRQHandler                           0x08000163   Thumb Code     0  startup_stm32f10x_hd.o(.text)
    RCC_IRQHandler                           0x08000163   Thumb Code     0  startup_stm32f10x_hd.o(.text)
    RTCAlarm_IRQHandler                      0x08000163   Thumb Code     0  startup_stm32f10x_hd.o(.text)
    RTC_IRQHandler                           0x08000163   Thumb Code     0  startup_stm32f10x_hd.o(.text)
    SDIO_IRQHandler                          0x08000163   Thumb Code     0  startup_stm32f10x_hd.o(.text)
    SPI1_IRQHandler                          0x08000163   Thumb Code     0  startup_stm32f10x_hd.o(.text)
    SPI2_IRQHandler                          0x08000163   Thumb Code     0  startup_stm32f10x_hd.o(.text)
    SPI3_IRQHandler                          0x08000163   Thumb Code     0  startup_stm32f10x_hd.o(.text)
    TAMPER_IRQHandler                        0x08000163   Thumb Code     0  startup_stm32f10x_hd.o(.text)
    TIM1_BRK_IRQHandler                      0x08000163   Thumb Code     0  startup_stm32f10x_hd.o(.text)
    TIM1_CC_IRQHandler                       0x08000163   Thumb Code     0  startup_stm32f10x_hd.o(.text)
    TIM1_TRG_COM_IRQHandler                  0x08000163   Thumb Code     0  startup_stm32f10x_hd.o(.text)
    TIM1_UP_IRQHandler                       0x08000163   Thumb Code     0  startup_stm32f10x_hd.o(.text)
    TIM2_IRQHandler                          0x08000163   Thumb Code     0  startup_stm32f10x_hd.o(.text)
    TIM3_IRQHandler                          0x08000163   Thumb Code     0  startup_stm32f10x_hd.o(.text)
    TIM4_IRQHandler                          0x08000163   Thumb Code     0  startup_stm32f10x_hd.o(.text)
    TIM5_IRQHandler                          0x08000163   Thumb Code     0  startup_stm32f10x_hd.o(.text)
    TIM6_IRQHandler                          0x08000163   Thumb Code     0  startup_stm32f10x_hd.o(.text)
    TIM7_IRQHandler                          0x08000163   Thumb Code     0  startup_stm32f10x_hd.o(.text)
    TIM8_BRK_IRQHandler                      0x08000163   Thumb Code     0  startup_stm32f10x_hd.o(.text)
    TIM8_CC_IRQHandler                       0x08000163   Thumb Code     0  startup_stm32f10x_hd.o(.text)
    TIM8_TRG_COM_IRQHandler                  0x08000163   Thumb Code     0  startup_stm32f10x_hd.o(.text)
    TIM8_UP_IRQHandler                       0x08000163   Thumb Code     0  startup_stm32f10x_hd.o(.text)
    UART4_IRQHandler                         0x08000163   Thumb Code     0  startup_stm32f10x_hd.o(.text)
    UART5_IRQHandler                         0x08000163   Thumb Code     0  startup_stm32f10x_hd.o(.text)
    USART1_IRQHandler                        0x08000163   Thumb Code     0  startup_stm32f10x_hd.o(.text)
    USART2_IRQHandler                        0x08000163   Thumb Code     0  startup_stm32f10x_hd.o(.text)
    USART3_IRQHandler                        0x08000163   Thumb Code     0  startup_stm32f10x_hd.o(.text)
    USBWakeUp_IRQHandler                     0x08000163   Thumb Code     0  startup_stm32f10x_hd.o(.text)
    USB_HP_CAN1_TX_IRQHandler                0x08000163   Thumb Code     0  startup_stm32f10x_hd.o(.text)
    USB_LP_CAN1_RX0_IRQHandler               0x08000163   Thumb Code     0  startup_stm32f10x_hd.o(.text)
    WWDG_IRQHandler                          0x08000163   Thumb Code     0  startup_stm32f10x_hd.o(.text)
    SystemInit                               0x08000249   Thumb Code    78  system_stm32f10x.o(.text)
    SystemCoreClockUpdate                    0x08000297   Thumb Code   142  system_stm32f10x.o(.text)
    GPIO_DeInit                              0x08000349   Thumb Code   172  stm32f10x_gpio.o(.text)
    GPIO_AFIODeInit                          0x080003f5   Thumb Code    20  stm32f10x_gpio.o(.text)
    GPIO_Init                                0x08000409   Thumb Code   274  stm32f10x_gpio.o(.text)
    GPIO_StructInit                          0x0800051b   Thumb Code    16  stm32f10x_gpio.o(.text)
    GPIO_ReadInputDataBit                    0x0800052b   Thumb Code    18  stm32f10x_gpio.o(.text)
    GPIO_ReadInputData                       0x0800053d   Thumb Code     8  stm32f10x_gpio.o(.text)
    GPIO_ReadOutputDataBit                   0x08000545   Thumb Code    18  stm32f10x_gpio.o(.text)
    GPIO_ReadOutputData                      0x08000557   Thumb Code     8  stm32f10x_gpio.o(.text)
    GPIO_SetBits                             0x0800055f   Thumb Code     4  stm32f10x_gpio.o(.text)
    GPIO_ResetBits                           0x08000563   Thumb Code     4  stm32f10x_gpio.o(.text)
    GPIO_WriteBit                            0x08000567   Thumb Code    10  stm32f10x_gpio.o(.text)
    GPIO_Write                               0x08000571   Thumb Code     4  stm32f10x_gpio.o(.text)
    GPIO_PinLockConfig                       0x08000575   Thumb Code    18  stm32f10x_gpio.o(.text)
    GPIO_EventOutputConfig                   0x08000587   Thumb Code    26  stm32f10x_gpio.o(.text)
    GPIO_EventOutputCmd                      0x080005a1   Thumb Code     6  stm32f10x_gpio.o(.text)
    GPIO_PinRemapConfig                      0x080005a7   Thumb Code   138  stm32f10x_gpio.o(.text)
    GPIO_EXTILineConfig                      0x08000631   Thumb Code    66  stm32f10x_gpio.o(.text)
    GPIO_ETH_MediaInterfaceConfig            0x08000673   Thumb Code     6  stm32f10x_gpio.o(.text)
    RCC_DeInit                               0x080006a1   Thumb Code    64  stm32f10x_rcc.o(.text)
    RCC_HSEConfig                            0x080006e1   Thumb Code    70  stm32f10x_rcc.o(.text)
    RCC_GetFlagStatus                        0x08000727   Thumb Code    56  stm32f10x_rcc.o(.text)
    RCC_WaitForHSEStartUp                    0x0800075f   Thumb Code    56  stm32f10x_rcc.o(.text)
    RCC_AdjustHSICalibrationValue            0x08000797   Thumb Code    20  stm32f10x_rcc.o(.text)
    RCC_HSICmd                               0x080007ab   Thumb Code     6  stm32f10x_rcc.o(.text)
    RCC_PLLConfig                            0x080007b1   Thumb Code    24  stm32f10x_rcc.o(.text)
    RCC_PLLCmd                               0x080007c9   Thumb Code     6  stm32f10x_rcc.o(.text)
    RCC_SYSCLKConfig                         0x080007cf   Thumb Code    18  stm32f10x_rcc.o(.text)
    RCC_GetSYSCLKSource                      0x080007e1   Thumb Code    10  stm32f10x_rcc.o(.text)
    RCC_HCLKConfig                           0x080007eb   Thumb Code    18  stm32f10x_rcc.o(.text)
    RCC_PCLK1Config                          0x080007fd   Thumb Code    18  stm32f10x_rcc.o(.text)
    RCC_PCLK2Config                          0x0800080f   Thumb Code    20  stm32f10x_rcc.o(.text)
    RCC_ITConfig                             0x08000823   Thumb Code    26  stm32f10x_rcc.o(.text)
    RCC_USBCLKConfig                         0x0800083d   Thumb Code     6  stm32f10x_rcc.o(.text)
    RCC_ADCCLKConfig                         0x08000843   Thumb Code    18  stm32f10x_rcc.o(.text)
    RCC_LSEConfig                            0x08000855   Thumb Code    44  stm32f10x_rcc.o(.text)
    RCC_LSICmd                               0x08000881   Thumb Code     6  stm32f10x_rcc.o(.text)
    RCC_RTCCLKConfig                         0x08000887   Thumb Code    12  stm32f10x_rcc.o(.text)
    RCC_RTCCLKCmd                            0x08000893   Thumb Code     8  stm32f10x_rcc.o(.text)
    RCC_GetClocksFreq                        0x0800089b   Thumb Code   192  stm32f10x_rcc.o(.text)
    RCC_AHBPeriphClockCmd                    0x0800095b   Thumb Code    26  stm32f10x_rcc.o(.text)
    RCC_APB2PeriphClockCmd                   0x08000975   Thumb Code    26  stm32f10x_rcc.o(.text)
    RCC_APB1PeriphClockCmd                   0x0800098f   Thumb Code    26  stm32f10x_rcc.o(.text)
    RCC_APB2PeriphResetCmd                   0x080009a9   Thumb Code    26  stm32f10x_rcc.o(.text)
    RCC_APB1PeriphResetCmd                   0x080009c3   Thumb Code    26  stm32f10x_rcc.o(.text)
    RCC_BackupResetCmd                       0x080009dd   Thumb Code     8  stm32f10x_rcc.o(.text)
    RCC_ClockSecuritySystemCmd               0x080009e5   Thumb Code     6  stm32f10x_rcc.o(.text)
    RCC_MCOConfig                            0x080009eb   Thumb Code     6  stm32f10x_rcc.o(.text)
    RCC_ClearFlag                            0x080009f1   Thumb Code    14  stm32f10x_rcc.o(.text)
    RCC_GetITStatus                          0x080009ff   Thumb Code    20  stm32f10x_rcc.o(.text)
    RCC_ClearITPendingBit                    0x08000a13   Thumb Code     6  stm32f10x_rcc.o(.text)
    FSMC_NORSRAMDeInit                       0x08000a45   Thumb Code    56  stm32f10x_fsmc.o(.text)
    FSMC_NANDDeInit                          0x08000a7d   Thumb Code    62  stm32f10x_fsmc.o(.text)
    FSMC_PCCARDDeInit                        0x08000abb   Thumb Code    40  stm32f10x_fsmc.o(.text)
    FSMC_NORSRAMInit                         0x08000ae3   Thumb Code   224  stm32f10x_fsmc.o(.text)
    FSMC_NANDInit                            0x08000bc3   Thumb Code   130  stm32f10x_fsmc.o(.text)
    FSMC_PCCARDInit                          0x08000c45   Thumb Code   124  stm32f10x_fsmc.o(.text)
    FSMC_NORSRAMStructInit                   0x08000cc1   Thumb Code   114  stm32f10x_fsmc.o(.text)
    FSMC_NANDStructInit                      0x08000d33   Thumb Code    54  stm32f10x_fsmc.o(.text)
    FSMC_PCCARDStructInit                    0x08000d69   Thumb Code    60  stm32f10x_fsmc.o(.text)
    FSMC_NORSRAMCmd                          0x08000da5   Thumb Code    46  stm32f10x_fsmc.o(.text)
    FSMC_NANDCmd                             0x08000dd3   Thumb Code    86  stm32f10x_fsmc.o(.text)
    FSMC_PCCARDCmd                           0x08000e29   Thumb Code    40  stm32f10x_fsmc.o(.text)
    FSMC_NANDECCCmd                          0x08000e51   Thumb Code   118  stm32f10x_fsmc.o(.text)
    FSMC_GetECC                              0x08000ec7   Thumb Code    22  stm32f10x_fsmc.o(.text)
    FSMC_ITConfig                            0x08000edd   Thumb Code   128  stm32f10x_fsmc.o(.text)
    FSMC_GetFlagStatus                       0x08000f5d   Thumb Code    48  stm32f10x_fsmc.o(.text)
    FSMC_ClearFlag                           0x08000f8d   Thumb Code    62  stm32f10x_fsmc.o(.text)
    FSMC_GetITStatus                         0x08000fcb   Thumb Code    60  stm32f10x_fsmc.o(.text)
    FSMC_ClearITPendingBit                   0x08001007   Thumb Code    64  stm32f10x_fsmc.o(.text)
    USART_DeInit                             0x0800105d   Thumb Code   134  stm32f10x_usart.o(.text)
    USART_Init                               0x080010e3   Thumb Code   210  stm32f10x_usart.o(.text)
    USART_StructInit                         0x080011b5   Thumb Code    24  stm32f10x_usart.o(.text)
    USART_ClockInit                          0x080011cd   Thumb Code    34  stm32f10x_usart.o(.text)
    USART_ClockStructInit                    0x080011ef   Thumb Code    12  stm32f10x_usart.o(.text)
    USART_Cmd                                0x080011fb   Thumb Code    24  stm32f10x_usart.o(.text)
    USART_ITConfig                           0x08001213   Thumb Code    74  stm32f10x_usart.o(.text)
    USART_DMACmd                             0x0800125d   Thumb Code    18  stm32f10x_usart.o(.text)
    USART_SetAddress                         0x0800126f   Thumb Code    18  stm32f10x_usart.o(.text)
    USART_WakeUpConfig                       0x08001281   Thumb Code    18  stm32f10x_usart.o(.text)
    USART_ReceiverWakeUpCmd                  0x08001293   Thumb Code    24  stm32f10x_usart.o(.text)
    USART_LINBreakDetectLengthConfig         0x080012ab   Thumb Code    18  stm32f10x_usart.o(.text)
    USART_LINCmd                             0x080012bd   Thumb Code    24  stm32f10x_usart.o(.text)
    USART_SendData                           0x080012d5   Thumb Code     8  stm32f10x_usart.o(.text)
    USART_ReceiveData                        0x080012dd   Thumb Code    10  stm32f10x_usart.o(.text)
    USART_SendBreak                          0x080012e7   Thumb Code    10  stm32f10x_usart.o(.text)
    USART_SetGuardTime                       0x080012f1   Thumb Code    16  stm32f10x_usart.o(.text)
    USART_SetPrescaler                       0x08001301   Thumb Code    16  stm32f10x_usart.o(.text)
    USART_SmartCardCmd                       0x08001311   Thumb Code    24  stm32f10x_usart.o(.text)
    USART_SmartCardNACKCmd                   0x08001329   Thumb Code    24  stm32f10x_usart.o(.text)
    USART_HalfDuplexCmd                      0x08001341   Thumb Code    24  stm32f10x_usart.o(.text)
    USART_OverSampling8Cmd                   0x08001359   Thumb Code    22  stm32f10x_usart.o(.text)
    USART_OneBitMethodCmd                    0x0800136f   Thumb Code    24  stm32f10x_usart.o(.text)
    USART_IrDAConfig                         0x08001387   Thumb Code    18  stm32f10x_usart.o(.text)
    USART_IrDACmd                            0x08001399   Thumb Code    24  stm32f10x_usart.o(.text)
    USART_GetFlagStatus                      0x080013b1   Thumb Code    26  stm32f10x_usart.o(.text)
    USART_ClearFlag                          0x080013cb   Thumb Code    18  stm32f10x_usart.o(.text)
    USART_GetITStatus                        0x080013dd   Thumb Code    84  stm32f10x_usart.o(.text)
    USART_ClearITPendingBit                  0x08001431   Thumb Code    52  stm32f10x_usart.o(.text)
    CPU_IntDis                               0x08001465   Thumb Code     0  cpu_a.o(.text)
    CPU_IntEn                                0x08001469   Thumb Code     0  cpu_a.o(.text)
    CPU_SR_Save                              0x0800146d   Thumb Code     0  cpu_a.o(.text)
    CPU_SR_Restore                           0x08001475   Thumb Code     0  cpu_a.o(.text)
    CPU_WaitForInt                           0x0800147b   Thumb Code     0  cpu_a.o(.text)
    CPU_WaitForExcept                        0x0800147f   Thumb Code     0  cpu_a.o(.text)
    CPU_CntLeadZeros                         0x08001483   Thumb Code     0  cpu_a.o(.text)
    CPU_CntTrailZeros                        0x08001489   Thumb Code     0  cpu_a.o(.text)
    CPU_RevBits                              0x08001493   Thumb Code     0  cpu_a.o(.text)
    __aeabi_uldivmod                         0x08001499   Thumb Code    98  uldiv.o(.text)
    __scatterload                            0x080014fd   Thumb Code    28  init.o(.text)
    __scatterload_rt2                        0x080014fd   Thumb Code     0  init.o(.text)
    __aeabi_llsl                             0x08001521   Thumb Code    30  llshl.o(.text)
    _ll_shift_l                              0x08001521   Thumb Code     0  llshl.o(.text)
    __aeabi_llsr                             0x0800153f   Thumb Code    32  llushr.o(.text)
    _ll_ushift_r                             0x0800153f   Thumb Code     0  llushr.o(.text)
    __decompress                             0x0800155f   Thumb Code     0  __dczerorl2.o(.text)
    __decompress1                            0x0800155f   Thumb Code    86  __dczerorl2.o(.text)
    OSStartHighRdy                           0x080015b5   Thumb Code     0  os_cpu_a.o(CODE)
    OS_CPU_PendSVHandler                     0x080015d7   Thumb Code     0  os_cpu_a.o(CODE)
    BSP_CPU_ClkFreq                          0x08001c35   Thumb Code    16  bsp.o(i.BSP_CPU_ClkFreq)
    BSP_Init                                 0x08001c45   Thumb Code    28  bsp.o(i.BSP_Init)
    BusFault_Handler                         0x08001c65   Thumb Code     4  stm32f10x_it.o(i.BusFault_Handler)
    CPU_Init                                 0x08001c69   Thumb Code    16  cpu_core.o(i.CPU_Init)
    CPU_IntDisMeasMaxCurGet                  0x08001d19   Thumb Code    40  cpu_core.o(i.CPU_IntDisMeasMaxCurGet)
    CPU_IntDisMeasMaxCurReset                0x08001d45   Thumb Code    40  cpu_core.o(i.CPU_IntDisMeasMaxCurReset)
    CPU_IntDisMeasMaxGet                     0x08001d71   Thumb Code    40  cpu_core.o(i.CPU_IntDisMeasMaxGet)
    CPU_IntDisMeasStart                      0x08001d9d   Thumb Code    38  cpu_core.o(i.CPU_IntDisMeasStart)
    CPU_IntDisMeasStop                       0x08001dd1   Thumb Code    62  cpu_core.o(i.CPU_IntDisMeasStop)
    CPU_NameClr                              0x08001e25   Thumb Code    50  cpu_core.o(i.CPU_NameClr)
    CPU_TS_TmrFreqSet                        0x08001e79   Thumb Code     6  cpu_core.o(i.CPU_TS_TmrFreqSet)
    CPU_TS_TmrInit                           0x08001e85   Thumb Code    44  bsp.o(i.CPU_TS_TmrInit)
    CPU_TS_TmrRd                             0x08001eb9   Thumb Code     6  bsp.o(i.CPU_TS_TmrRd)
    DebugMon_Handler                         0x08001ec5   Thumb Code     2  stm32f10x_it.o(i.DebugMon_Handler)
    HardFault_Handler                        0x08001ec7   Thumb Code     4  stm32f10x_it.o(i.HardFault_Handler)
    Key_Initial                              0x08001f39   Thumb Code    16  bsp_key.o(i.Key_Initial)
    Key_Scan                                 0x08001f49   Thumb Code    88  bsp_key.o(i.Key_Scan)
    LCD_Clear                                0x08001fa1   Thumb Code    68  tftlcd.o(i.LCD_Clear)
    LCD_Display_Dir                          0x08001fe9   Thumb Code    70  tftlcd.o(i.LCD_Display_Dir)
    LCD_DrawLine                             0x08002035   Thumb Code   176  tftlcd.o(i.LCD_DrawLine)
    LCD_DrawPoint                            0x080020e5   Thumb Code    28  tftlcd.o(i.LCD_DrawPoint)
    LCD_DrawRectangle                        0x08002105   Thumb Code    60  tftlcd.o(i.LCD_DrawRectangle)
    LCD_Fill                                 0x08002141   Thumb Code    92  tftlcd.o(i.LCD_Fill)
    LCD_Set_Window                           0x0800219d   Thumb Code   166  tftlcd.o(i.LCD_Set_Window)
    LCD_ShowPicture                          0x08002243   Thumb Code    92  tftlcd.o(i.LCD_ShowPicture)
    LCD_WriteCmd                             0x080022a1   Thumb Code     6  tftlcd.o(i.LCD_WriteCmd)
    LCD_WriteData                            0x080022ad   Thumb Code     6  tftlcd.o(i.LCD_WriteData)
    LCD_WriteData_Color                      0x080022b9   Thumb Code     6  tftlcd.o(i.LCD_WriteData_Color)
    LED_Init                                 0x0800231d   Thumb Code    32  bsp_led.o(i.LED_Init)
    MemManage_Handler                        0x08002341   Thumb Code     4  stm32f10x_it.o(i.MemManage_Handler)
    Mem_Clr                                  0x08002345   Thumb Code    18  lib_mem.o(i.Mem_Clr)
    Mem_Init                                 0x08002359   Thumb Code    54  lib_mem.o(i.Mem_Init)
    Mem_Set                                  0x080023a1   Thumb Code    98  lib_mem.o(i.Mem_Set)
    NMI_Handler                              0x08002403   Thumb Code     2  stm32f10x_it.o(i.NMI_Handler)
    OSCfg_Init                               0x08002405   Thumb Code     2  os_cfg_app.o(i.OSCfg_Init)
    OSIdleTaskHook                           0x08002409   Thumb Code    16  os_cpu_c.o(i.OSIdleTaskHook)
    OSInit                                   0x0800241d   Thumb Code   300  os_core.o(i.OSInit)
    OSInitHook                               0x080025a9   Thumb Code    42  os_cpu_c.o(i.OSInitHook)
    OSIntExit                                0x080025e1   Thumb Code   192  os_core.o(i.OSIntExit)
    OSMutexCreate                            0x080026c5   Thumb Code   216  os_mutex.o(i.OSMutexCreate)
    OSMutexPend                              0x080027ad   Thumb Code   788  os_mutex.o(i.OSMutexPend)
    OSMutexPost                              0x08002ad5   Thumb Code   646  os_mutex.o(i.OSMutexPost)
    OSSched                                  0x08002d75   Thumb Code   134  os_core.o(i.OSSched)
    OSSchedLock                              0x08002e1d   Thumb Code   112  os_core.o(i.OSSchedLock)
    OSSchedUnlock                            0x08002e99   Thumb Code   148  os_core.o(i.OSSchedUnlock)
    OSStart                                  0x08002f39   Thumb Code    78  os_core.o(i.OSStart)
    OSStatReset                              0x08002fa1   Thumb Code   316  os_stat.o(i.OSStatReset)
    OSStatTaskCPUUsageInit                   0x08003109   Thumb Code   228  os_stat.o(i.OSStatTaskCPUUsageInit)
    OSStatTaskHook                           0x08003209   Thumb Code    16  os_cpu_c.o(i.OSStatTaskHook)
    OSTaskCreate                             0x0800321d   Thumb Code   624  os_task.o(i.OSTaskCreate)
    OSTaskCreateHook                         0x080034b1   Thumb Code    20  os_cpu_c.o(i.OSTaskCreateHook)
    OSTaskDel                                0x080034c9   Thumb Code   490  os_task.o(i.OSTaskDel)
    OSTaskDelHook                            0x080036d1   Thumb Code    20  os_cpu_c.o(i.OSTaskDelHook)
    OSTaskResume                             0x080036e9   Thumb Code   124  os_task.o(i.OSTaskResume)
    OSTaskReturnHook                         0x08003771   Thumb Code    20  os_cpu_c.o(i.OSTaskReturnHook)
    OSTaskSemPend                            0x08003789   Thumb Code   578  os_task.o(i.OSTaskSemPend)
    OSTaskStkChk                             0x080039d9   Thumb Code   220  os_task.o(i.OSTaskStkChk)
    OSTaskStkInit                            0x08003abd   Thumb Code   188  os_cpu_c.o(i.OSTaskStkInit)
    OSTaskSuspend                            0x08003b7d   Thumb Code    78  os_task.o(i.OSTaskSuspend)
    OSTaskSwHook                             0x08003bdd   Thumb Code   146  os_cpu_c.o(i.OSTaskSwHook)
    OSTimeDly                                0x08003c81   Thumb Code   322  os_time.o(i.OSTimeDly)
    OSTimeDlyHMSM                            0x08003dd1   Thumb Code   538  os_time.o(i.OSTimeDlyHMSM)
    OSTimeTick                               0x08003ffd   Thumb Code    54  os_time.o(i.OSTimeTick)
    OSTimeTickHook                           0x08004041   Thumb Code    16  os_cpu_c.o(i.OSTimeTickHook)
    OS_CPU_SysTickHandler                    0x08004055   Thumb Code    60  os_cpu_c.o(i.OS_CPU_SysTickHandler)
    OS_CPU_SysTickInit                       0x08004095   Thumb Code    44  os_cpu_c.o(i.OS_CPU_SysTickInit)
    OS_Dbg_Init                              0x080040c5   Thumb Code   150  os_dbg.o(i.OS_Dbg_Init)
    OS_FlagInit                              0x08004279   Thumb Code    14  os_flag.o(i.OS_FlagInit)
    OS_FlagPost                              0x08004291   Thumb Code   626  os_flag.o(i.OS_FlagPost)
    OS_FlagTaskRdy                           0x0800450d   Thumb Code    86  os_flag.o(i.OS_FlagTaskRdy)
    OS_IdleTask                              0x08004565   Thumb Code    68  os_core.o(i.OS_IdleTask)
    OS_IdleTaskInit                          0x080045b1   Thumb Code    66  os_core.o(i.OS_IdleTaskInit)
    OS_IntQPost                              0x08004621   Thumb Code   224  os_int.o(i.OS_IntQPost)
    OS_IntQRePost                            0x08004725   Thumb Code   360  os_int.o(i.OS_IntQRePost)
    OS_IntQTask                              0x080048c9   Thumb Code   182  os_int.o(i.OS_IntQTask)
    OS_IntQTaskInit                          0x08004991   Thumb Code   206  os_int.o(i.OS_IntQTaskInit)
    OS_MemInit                               0x08004ab9   Thumb Code    14  os_mem.o(i.OS_MemInit)
    OS_MsgPoolInit                           0x08004ad1   Thumb Code   110  os_msg.o(i.OS_MsgPoolInit)
    OS_MsgQFreeAll                           0x08004b4d   Thumb Code    62  os_msg.o(i.OS_MsgQFreeAll)
    OS_MsgQInit                              0x08004b91   Thumb Code    14  os_msg.o(i.OS_MsgQInit)
    OS_MsgQPut                               0x08004ba1   Thumb Code   254  os_msg.o(i.OS_MsgQPut)
    OS_MutexDbgListAdd                       0x08004ca5   Thumb Code    38  os_mutex.o(i.OS_MutexDbgListAdd)
    OS_MutexInit                             0x08004cd5   Thumb Code    14  os_mutex.o(i.OS_MutexInit)
    OS_Pend                                  0x08004ced   Thumb Code    98  os_core.o(i.OS_Pend)
    OS_PendDataInit                          0x08004d55   Thumb Code    38  os_core.o(i.OS_PendDataInit)
    OS_PendDbgNameAdd                        0x08004d7d   Thumb Code    66  os_core.o(i.OS_PendDbgNameAdd)
    OS_PendDbgNameRemove                     0x08004dd9   Thumb Code    30  os_core.o(i.OS_PendDbgNameRemove)
    OS_PendListChangePrio                    0x08004dfd   Thumb Code    70  os_core.o(i.OS_PendListChangePrio)
    OS_PendListInit                          0x08004e43   Thumb Code    10  os_core.o(i.OS_PendListInit)
    OS_PendListInsertPrio                    0x08004e4d   Thumb Code   102  os_core.o(i.OS_PendListInsertPrio)
    OS_PendListRemove                        0x08004eb3   Thumb Code    48  os_core.o(i.OS_PendListRemove)
    OS_PendListRemove1                       0x08004ee3   Thumb Code    66  os_core.o(i.OS_PendListRemove1)
    OS_Post                                  0x08004f25   Thumb Code   192  os_core.o(i.OS_Post)
    OS_Post1                                 0x08004fe5   Thumb Code    42  os_core.o(i.OS_Post1)
    OS_PrioGetHighest                        0x08005011   Thumb Code    36  os_prio.o(i.OS_PrioGetHighest)
    OS_PrioInit                              0x08005039   Thumb Code    20  os_prio.o(i.OS_PrioInit)
    OS_PrioInsert                            0x08005051   Thumb Code    32  os_prio.o(i.OS_PrioInsert)
    OS_PrioRemove                            0x08005075   Thumb Code    32  os_prio.o(i.OS_PrioRemove)
    OS_QInit                                 0x08005099   Thumb Code    14  os_q.o(i.OS_QInit)
    OS_QPost                                 0x080050b1   Thumb Code   382  os_q.o(i.OS_QPost)
    OS_RdyListInit                           0x08005239   Thumb Code    32  os_core.o(i.OS_RdyListInit)
    OS_RdyListInsert                         0x0800525d   Thumb Code    40  os_core.o(i.OS_RdyListInsert)
    OS_RdyListInsertHead                     0x08005289   Thumb Code    58  os_core.o(i.OS_RdyListInsertHead)
    OS_RdyListInsertTail                     0x080052c9   Thumb Code    56  os_core.o(i.OS_RdyListInsertTail)
    OS_RdyListMoveHeadToTail                 0x08005305   Thumb Code    68  os_core.o(i.OS_RdyListMoveHeadToTail)
    OS_RdyListRemove                         0x08005349   Thumb Code    86  os_core.o(i.OS_RdyListRemove)
    OS_Sched0                                0x080053a5   Thumb Code    72  os_core.o(i.OS_Sched0)
    OS_SchedLockTimeMeasStart                0x08005401   Thumb Code    20  os_core.o(i.OS_SchedLockTimeMeasStart)
    OS_SchedLockTimeMeasStop                 0x0800541d   Thumb Code    44  os_core.o(i.OS_SchedLockTimeMeasStop)
    OS_SchedRoundRobin                       0x08005459   Thumb Code   218  os_core.o(i.OS_SchedRoundRobin)
    OS_SemInit                               0x08005545   Thumb Code    14  os_sem.o(i.OS_SemInit)
    OS_SemPost                               0x0800555d   Thumb Code   404  os_sem.o(i.OS_SemPost)
    OS_StatTask                              0x080056f5   Thumb Code   878  os_stat.o(i.OS_StatTask)
    OS_StatTaskInit                          0x08005aad   Thumb Code   136  os_stat.o(i.OS_StatTaskInit)
    OS_TaskBlock                             0x08005b79   Thumb Code    56  os_core.o(i.OS_TaskBlock)
    OS_TaskDbgListAdd                        0x08005bb1   Thumb Code    42  os_task.o(i.OS_TaskDbgListAdd)
    OS_TaskDbgListRemove                     0x08005be1   Thumb Code    64  os_task.o(i.OS_TaskDbgListRemove)
    OS_TaskInit                              0x08005c25   Thumb Code    18  os_task.o(i.OS_TaskInit)
    OS_TaskInitTCB                           0x08005c45   Thumb Code   194  os_task.o(i.OS_TaskInitTCB)
    OS_TaskQPost                             0x08005d15   Thumb Code   606  os_task.o(i.OS_TaskQPost)
    OS_TaskRdy                               0x08005f81   Thumb Code    28  os_core.o(i.OS_TaskRdy)
    OS_TaskResume                            0x08005f9d   Thumb Code   374  os_task.o(i.OS_TaskResume)
    OS_TaskReturn                            0x08006119   Thumb Code    20  os_task.o(i.OS_TaskReturn)
    OS_TaskSemPost                           0x08006131   Thumb Code  1438  os_task.o(i.OS_TaskSemPost)
    OS_TaskSuspend                           0x080066d9   Thumb Code   392  os_task.o(i.OS_TaskSuspend)
    OS_TickListInit                          0x08006869   Thumb Code    32  os_tick.o(i.OS_TickListInit)
    OS_TickListInsert                        0x08006891   Thumb Code   430  os_tick.o(i.OS_TickListInsert)
    OS_TickListRemove                        0x08006a4d   Thumb Code    56  os_tick.o(i.OS_TickListRemove)
    OS_TickListResetPeak                     0x08006a85   Thumb Code    28  os_tick.o(i.OS_TickListResetPeak)
    OS_TickListUpdate                        0x08006aa9   Thumb Code   520  os_tick.o(i.OS_TickListUpdate)
    OS_TickTask                              0x08006cc9   Thumb Code    38  os_tick.o(i.OS_TickTask)
    OS_TickTaskInit                          0x08006cf5   Thumb Code   128  os_tick.o(i.OS_TickTaskInit)
    OS_TmrInit                               0x08006dad   Thumb Code   206  os_tmr.o(i.OS_TmrInit)
    OS_TmrLink                               0x08006ed5   Thumb Code   196  os_tmr.o(i.OS_TmrLink)
    OS_TmrResetPeak                          0x08006fa5   Thumb Code    28  os_tmr.o(i.OS_TmrResetPeak)
    OS_TmrTask                               0x08006fc9   Thumb Code   176  os_tmr.o(i.OS_TmrTask)
    OS_TmrUnlink                             0x08007089   Thumb Code    72  os_tmr.o(i.OS_TmrUnlink)
    SVC_Handler                              0x080070d9   Thumb Code     2  stm32f10x_it.o(i.SVC_Handler)
    TFTLCD_FSMC_Init                         0x080070db   Thumb Code   126  tftlcd.o(i.TFTLCD_FSMC_Init)
    TFTLCD_GPIO_Init                         0x08007159   Thumb Code    98  tftlcd.o(i.TFTLCD_GPIO_Init)
    TFTLCD_Init                              0x080071c9   Thumb Code   674  tftlcd.o(i.TFTLCD_Init)
    USARTx_Config                            0x08007485   Thumb Code   120  bsp_usart1.o(i.USARTx_Config)
    UsageFault_Handler                       0x08007505   Thumb Code     4  stm32f10x_it.o(i.UsageFault_Handler)
    __0printf$5                              0x08007509   Thumb Code    22  printf5.o(i.__0printf$5)
    __1printf$5                              0x08007509   Thumb Code     0  printf5.o(i.__0printf$5)
    __2printf                                0x08007509   Thumb Code     0  printf5.o(i.__0printf$5)
    __scatterload_copy                       0x08007529   Thumb Code    14  handlers.o(i.__scatterload_copy)
    __scatterload_null                       0x08007537   Thumb Code     2  handlers.o(i.__scatterload_null)
    __scatterload_zeroinit                   0x08007539   Thumb Code    14  handlers.o(i.__scatterload_zeroinit)
    delay_ms                                 0x08007809   Thumb Code    28  tftlcd.o(i.delay_ms)
    fputc                                    0x08007825   Thumb Code    32  bsp_usart1.o(i.fputc)
    main                                     0x08007849   Thumb Code    68  main.o(i.main)
    gImage_1                                 0x080078a8   Data       18960  main.o(.constdata)
    gImage_2                                 0x0800c2b8   Data       18960  main.o(.constdata)
    gImage_huang                             0x08010cc8   Data       18968  main.o(.constdata)
    gImage_hong                              0x080156e0   Data       18968  main.o(.constdata)
    gImage_lv                                0x0801a0f8   Data       18968  main.o(.constdata)
    OSCfg_IdleTaskStkBasePtr                 0x0801eb10   Data           4  os_cfg_app.o(.constdata)
    OSCfg_IdleTaskStkLimit                   0x0801eb14   Data           4  os_cfg_app.o(.constdata)
    OSCfg_IdleTaskStkSize                    0x0801eb18   Data           4  os_cfg_app.o(.constdata)
    OSCfg_IdleTaskStkSizeRAM                 0x0801eb1c   Data           4  os_cfg_app.o(.constdata)
    OSCfg_IntQBasePtr                        0x0801eb20   Data           4  os_cfg_app.o(.constdata)
    OSCfg_IntQSize                           0x0801eb24   Data           2  os_cfg_app.o(.constdata)
    OSCfg_IntQSizeRAM                        0x0801eb28   Data           4  os_cfg_app.o(.constdata)
    OSCfg_IntQTaskStkBasePtr                 0x0801eb2c   Data           4  os_cfg_app.o(.constdata)
    OSCfg_IntQTaskStkLimit                   0x0801eb30   Data           4  os_cfg_app.o(.constdata)
    OSCfg_IntQTaskStkSize                    0x0801eb34   Data           4  os_cfg_app.o(.constdata)
    OSCfg_IntQTaskStkSizeRAM                 0x0801eb38   Data           4  os_cfg_app.o(.constdata)
    OSCfg_ISRStkBasePtr                      0x0801eb3c   Data           4  os_cfg_app.o(.constdata)
    OSCfg_ISRStkSize                         0x0801eb40   Data           4  os_cfg_app.o(.constdata)
    OSCfg_ISRStkSizeRAM                      0x0801eb44   Data           4  os_cfg_app.o(.constdata)
    OSCfg_MsgPoolSize                        0x0801eb48   Data           2  os_cfg_app.o(.constdata)
    OSCfg_MsgPoolSizeRAM                     0x0801eb4c   Data           4  os_cfg_app.o(.constdata)
    OSCfg_MsgPoolBasePtr                     0x0801eb50   Data           4  os_cfg_app.o(.constdata)
    OSCfg_StatTaskPrio                       0x0801eb54   Data           1  os_cfg_app.o(.constdata)
    OSCfg_StatTaskRate_Hz                    0x0801eb58   Data           4  os_cfg_app.o(.constdata)
    OSCfg_StatTaskStkBasePtr                 0x0801eb5c   Data           4  os_cfg_app.o(.constdata)
    OSCfg_StatTaskStkLimit                   0x0801eb60   Data           4  os_cfg_app.o(.constdata)
    OSCfg_StatTaskStkSize                    0x0801eb64   Data           4  os_cfg_app.o(.constdata)
    OSCfg_StatTaskStkSizeRAM                 0x0801eb68   Data           4  os_cfg_app.o(.constdata)
    OSCfg_StkSizeMin                         0x0801eb6c   Data           4  os_cfg_app.o(.constdata)
    OSCfg_TickRate_Hz                        0x0801eb70   Data           4  os_cfg_app.o(.constdata)
    OSCfg_TickTaskPrio                       0x0801eb74   Data           1  os_cfg_app.o(.constdata)
    OSCfg_TickTaskStkBasePtr                 0x0801eb78   Data           4  os_cfg_app.o(.constdata)
    OSCfg_TickTaskStkLimit                   0x0801eb7c   Data           4  os_cfg_app.o(.constdata)
    OSCfg_TickTaskStkSize                    0x0801eb80   Data           4  os_cfg_app.o(.constdata)
    OSCfg_TickTaskStkSizeRAM                 0x0801eb84   Data           4  os_cfg_app.o(.constdata)
    OSCfg_TickWheelSize                      0x0801eb88   Data           2  os_cfg_app.o(.constdata)
    OSCfg_TickWheelSizeRAM                   0x0801eb8c   Data           4  os_cfg_app.o(.constdata)
    OSCfg_TmrTaskPrio                        0x0801eb90   Data           1  os_cfg_app.o(.constdata)
    OSCfg_TmrTaskRate_Hz                     0x0801eb94   Data           4  os_cfg_app.o(.constdata)
    OSCfg_TmrTaskStkBasePtr                  0x0801eb98   Data           4  os_cfg_app.o(.constdata)
    OSCfg_TmrTaskStkLimit                    0x0801eb9c   Data           4  os_cfg_app.o(.constdata)
    OSCfg_TmrTaskStkSize                     0x0801eba0   Data           4  os_cfg_app.o(.constdata)
    OSCfg_TmrTaskStkSizeRAM                  0x0801eba4   Data           4  os_cfg_app.o(.constdata)
    OSCfg_TmrWheelSize                       0x0801eba8   Data           2  os_cfg_app.o(.constdata)
    OSCfg_TmrWheelSizeRAM                    0x0801ebac   Data           4  os_cfg_app.o(.constdata)
    OSCfg_DataSizeRAM                        0x0801ebb0   Data           4  os_cfg_app.o(.constdata)
    OSDbg_DbgEn                              0x0801ebb4   Data           1  os_dbg.o(.constdata)
    OSDbg_ArgChkEn                           0x0801ebb5   Data           1  os_dbg.o(.constdata)
    OSDbg_AppHooksEn                         0x0801ebb6   Data           1  os_dbg.o(.constdata)
    OSDbg_EndiannessTest                     0x0801ebb8   Data           4  os_dbg.o(.constdata)
    OSDbg_CalledFromISRChkEn                 0x0801ebbc   Data           1  os_dbg.o(.constdata)
    OSDbg_FlagEn                             0x0801ebbd   Data           1  os_dbg.o(.constdata)
    OSDbg_FlagGrp                            0x0801ebc0   Data          40  os_dbg.o(.constdata)
    OSDbg_FlagDelEn                          0x0801ebe8   Data           1  os_dbg.o(.constdata)
    OSDbg_FlagModeClrEn                      0x0801ebe9   Data           1  os_dbg.o(.constdata)
    OSDbg_FlagPendAbortEn                    0x0801ebea   Data           1  os_dbg.o(.constdata)
    OSDbg_FlagGrpSize                        0x0801ebec   Data           2  os_dbg.o(.constdata)
    OSDbg_FlagWidth                          0x0801ebee   Data           2  os_dbg.o(.constdata)
    OSDbg_IntQ                               0x0801ebf0   Data           2  os_dbg.o(.constdata)
    OSDbg_ISRPostDeferredEn                  0x0801ebf2   Data           1  os_dbg.o(.constdata)
    OSDbg_Mem                                0x0801ebf4   Data          32  os_dbg.o(.constdata)
    OSDbg_MemEn                              0x0801ec14   Data           1  os_dbg.o(.constdata)
    OSDbg_MemSize                            0x0801ec16   Data           2  os_dbg.o(.constdata)
    OSDbg_MsgEn                              0x0801ec18   Data           1  os_dbg.o(.constdata)
    OSDbg_MsgSize                            0x0801ec1a   Data           2  os_dbg.o(.constdata)
    OSDbg_MsgPoolSize                        0x0801ec1c   Data           2  os_dbg.o(.constdata)
    OSDbg_MsgQSize                           0x0801ec1e   Data           2  os_dbg.o(.constdata)
    OSDbg_Mutex                              0x0801ec20   Data          44  os_dbg.o(.constdata)
    OSDbg_MutexEn                            0x0801ec4c   Data           1  os_dbg.o(.constdata)
    OSDbg_MutexDelEn                         0x0801ec4d   Data           1  os_dbg.o(.constdata)
    OSDbg_MutexPendAbortEn                   0x0801ec4e   Data           1  os_dbg.o(.constdata)
    OSDbg_MutexSize                          0x0801ec50   Data           2  os_dbg.o(.constdata)
    OSDbg_ObjTypeChkEn                       0x0801ec52   Data           1  os_dbg.o(.constdata)
    OSDbg_PendMultiEn                        0x0801ec53   Data           1  os_dbg.o(.constdata)
    OSDbg_PendDataSize                       0x0801ec54   Data           2  os_dbg.o(.constdata)
    OSDbg_PendListSize                       0x0801ec56   Data           2  os_dbg.o(.constdata)
    OSDbg_PendObjSize                        0x0801ec58   Data           2  os_dbg.o(.constdata)
    OSDbg_PrioMax                            0x0801ec5a   Data           2  os_dbg.o(.constdata)
    OSDbg_PrioTblSize                        0x0801ec5c   Data           2  os_dbg.o(.constdata)
    OSDbg_PtrSize                            0x0801ec5e   Data           2  os_dbg.o(.constdata)
    OSDbg_Q                                  0x0801ec60   Data          48  os_dbg.o(.constdata)
    OSDbg_QEn                                0x0801ec90   Data           1  os_dbg.o(.constdata)
    OSDbg_QDelEn                             0x0801ec91   Data           1  os_dbg.o(.constdata)
    OSDbg_QFlushEn                           0x0801ec92   Data           1  os_dbg.o(.constdata)
    OSDbg_QPendAbortEn                       0x0801ec93   Data           1  os_dbg.o(.constdata)
    OSDbg_QSize                              0x0801ec94   Data           2  os_dbg.o(.constdata)
    OSDbg_SchedRoundRobinEn                  0x0801ec96   Data           1  os_dbg.o(.constdata)
    OSDbg_Sem                                0x0801ec98   Data          40  os_dbg.o(.constdata)
    OSDbg_SemEn                              0x0801ecc0   Data           1  os_dbg.o(.constdata)
    OSDbg_SemDelEn                           0x0801ecc1   Data           1  os_dbg.o(.constdata)
    OSDbg_SemPendAbortEn                     0x0801ecc2   Data           1  os_dbg.o(.constdata)
    OSDbg_SemSetEn                           0x0801ecc3   Data           1  os_dbg.o(.constdata)
    OSDbg_SemSize                            0x0801ecc4   Data           2  os_dbg.o(.constdata)
    OSDbg_RdyList                            0x0801ecc6   Data           2  os_dbg.o(.constdata)
    OSDbg_RdyListSize                        0x0801ecc8   Data           4  os_dbg.o(.constdata)
    OSDbg_StkWidth                           0x0801eccc   Data           1  os_dbg.o(.constdata)
    OSDbg_StatTaskEn                         0x0801eccd   Data           1  os_dbg.o(.constdata)
    OSDbg_StatTaskStkChkEn                   0x0801ecce   Data           1  os_dbg.o(.constdata)
    OSDbg_TaskChangePrioEn                   0x0801eccf   Data           1  os_dbg.o(.constdata)
    OSDbg_TaskDelEn                          0x0801ecd0   Data           1  os_dbg.o(.constdata)
    OSDbg_TaskQEn                            0x0801ecd1   Data           1  os_dbg.o(.constdata)
    OSDbg_TaskQPendAbortEn                   0x0801ecd2   Data           1  os_dbg.o(.constdata)
    OSDbg_TaskProfileEn                      0x0801ecd3   Data           1  os_dbg.o(.constdata)
    OSDbg_TaskRegTblSize                     0x0801ecd4   Data           2  os_dbg.o(.constdata)
    OSDbg_TaskSemPendAbortEn                 0x0801ecd6   Data           1  os_dbg.o(.constdata)
    OSDbg_TaskSuspendEn                      0x0801ecd7   Data           1  os_dbg.o(.constdata)
    OSDbg_TCBSize                            0x0801ecd8   Data           2  os_dbg.o(.constdata)
    OSDbg_TickSpokeSize                      0x0801ecda   Data           2  os_dbg.o(.constdata)
    OSDbg_TimeDlyHMSMEn                      0x0801ecdc   Data           1  os_dbg.o(.constdata)
    OSDbg_TimeDlyResumeEn                    0x0801ecdd   Data           1  os_dbg.o(.constdata)
    OSDbg_TLS_TblSize                        0x0801ecde   Data           2  os_dbg.o(.constdata)
    OSDbg_Tmr                                0x0801ece0   Data          52  os_dbg.o(.constdata)
    OSDbg_TmrEn                              0x0801ed14   Data           1  os_dbg.o(.constdata)
    OSDbg_TmrDelEn                           0x0801ed15   Data           1  os_dbg.o(.constdata)
    OSDbg_TmrSize                            0x0801ed16   Data           2  os_dbg.o(.constdata)
    OSDbg_TmrSpokeSize                       0x0801ed18   Data           2  os_dbg.o(.constdata)
    OSDbg_VersionNbr                         0x0801ed1a   Data           2  os_dbg.o(.constdata)
    OSDbg_DataSize                           0x0801ed1c   Data           4  os_dbg.o(.constdata)
    Region$$Table$$Base                      0x0801ed20   Number         0  anon$$obj.o(Region$$Table)
    Region$$Table$$Limit                     0x0801ed40   Number         0  anon$$obj.o(Region$$Table)
    FRONT_COLOR                              0x20000000   Data           2  tftlcd.o(.data)
    BACK_COLOR                               0x20000002   Data           2  tftlcd.o(.data)
    tftlcd_data                              0x20000004   Data           8  tftlcd.o(.data)
    SystemCoreClock                          0x2000000c   Data           4  system_stm32f10x.o(.data)
    AHBPrescTable                            0x20000010   Data          16  system_stm32f10x.o(.data)
    CPU_TS_TmrFreq_Hz                        0x20000034   Data           4  cpu_core.o(.data)
    CPU_IntDisMeasCtr                        0x20000038   Data           2  cpu_core.o(.data)
    CPU_IntDisNestCtr                        0x2000003a   Data           2  cpu_core.o(.data)
    CPU_IntDisMeasStart_cnts                 0x2000003c   Data           4  cpu_core.o(.data)
    CPU_IntDisMeasStop_cnts                  0x20000040   Data           4  cpu_core.o(.data)
    CPU_IntDisMeasOvrhd_cnts                 0x20000044   Data           4  cpu_core.o(.data)
    CPU_IntDisMeasMaxCur_cnts                0x20000048   Data           4  cpu_core.o(.data)
    CPU_IntDisMeasMax_cnts                   0x2000004c   Data           4  cpu_core.o(.data)
    Mem_PoolTbl                              0x20000050   Data           4  lib_mem.o(.data)
    OS_AppTaskCreateHookPtr                  0x20000054   Data           4  os_var.o(.data)
    OS_AppTaskDelHookPtr                     0x20000058   Data           4  os_var.o(.data)
    OS_AppTaskReturnHookPtr                  0x2000005c   Data           4  os_var.o(.data)
    OS_AppIdleTaskHookPtr                    0x20000060   Data           4  os_var.o(.data)
    OS_AppStatTaskHookPtr                    0x20000064   Data           4  os_var.o(.data)
    OS_AppTaskSwHookPtr                      0x20000068   Data           4  os_var.o(.data)
    OS_AppTimeTickHookPtr                    0x2000006c   Data           4  os_var.o(.data)
    OSIdleTaskCtr                            0x20000070   Data           4  os_var.o(.data)
    OSIntNestingCtr                          0x20000074   Data           1  os_var.o(.data)
    OSIntDisTimeMax                          0x20000078   Data           4  os_var.o(.data)
    OSRunning                                0x2000007c   Data           1  os_var.o(.data)
    OSIntQInPtr                              0x20000080   Data           4  os_var.o(.data)
    OSIntQOutPtr                             0x20000084   Data           4  os_var.o(.data)
    OSIntQNbrEntries                         0x20000088   Data           2  os_var.o(.data)
    OSIntQNbrEntriesMax                      0x2000008a   Data           2  os_var.o(.data)
    OSIntQOvfCtr                             0x2000008c   Data           2  os_var.o(.data)
    OSIntQTaskTimeMax                        0x20000090   Data           4  os_var.o(.data)
    OSFlagDbgListPtr                         0x20000094   Data           4  os_var.o(.data)
    OSFlagQty                                0x20000098   Data           2  os_var.o(.data)
    OSMemDbgListPtr                          0x2000009c   Data           4  os_var.o(.data)
    OSMemQty                                 0x200000a0   Data           2  os_var.o(.data)
    OSMutexDbgListPtr                        0x200000a4   Data           4  os_var.o(.data)
    OSMutexQty                               0x200000a8   Data           2  os_var.o(.data)
    OSPrioCur                                0x200000aa   Data           1  os_var.o(.data)
    OSPrioHighRdy                            0x200000ab   Data           1  os_var.o(.data)
    OSPrioSaved                              0x200000ac   Data           1  os_var.o(.data)
    OSQDbgListPtr                            0x200000b0   Data           4  os_var.o(.data)
    OSQQty                                   0x200000b4   Data           2  os_var.o(.data)
    OSSchedLockTimeBegin                     0x200000b8   Data           4  os_var.o(.data)
    OSSchedLockTimeMax                       0x200000bc   Data           4  os_var.o(.data)
    OSSchedLockTimeMaxCur                    0x200000c0   Data           4  os_var.o(.data)
    OSSchedLockNestingCtr                    0x200000c4   Data           1  os_var.o(.data)
    OSSchedRoundRobinDfltTimeQuanta          0x200000c8   Data           4  os_var.o(.data)
    OSSchedRoundRobinEn                      0x200000cc   Data           1  os_var.o(.data)
    OSSemDbgListPtr                          0x200000d0   Data           4  os_var.o(.data)
    OSSemQty                                 0x200000d4   Data           2  os_var.o(.data)
    OSStatResetFlag                          0x200000d6   Data           1  os_var.o(.data)
    OSStatTaskCPUUsage                       0x200000d8   Data           2  os_var.o(.data)
    OSStatTaskCPUUsageMax                    0x200000da   Data           2  os_var.o(.data)
    OSStatTaskCtr                            0x200000dc   Data           4  os_var.o(.data)
    OSStatTaskCtrMax                         0x200000e0   Data           4  os_var.o(.data)
    OSStatTaskCtrRun                         0x200000e4   Data           4  os_var.o(.data)
    OSStatTaskRdy                            0x200000e8   Data           1  os_var.o(.data)
    OSStatTaskTimeMax                        0x200000ec   Data           4  os_var.o(.data)
    OSTaskCtxSwCtr                           0x200000f0   Data           4  os_var.o(.data)
    OSTaskDbgListPtr                         0x200000f4   Data           4  os_var.o(.data)
    OSTaskQty                                0x200000f8   Data           2  os_var.o(.data)
    OSTaskRegNextAvailID                     0x200000fa   Data           1  os_var.o(.data)
    OSTickCtr                                0x200000fc   Data           4  os_var.o(.data)
    OSTickTaskTimeMax                        0x20000100   Data           4  os_var.o(.data)
    OSTmrDbgListPtr                          0x20000104   Data           4  os_var.o(.data)
    OSTmrQty                                 0x20000108   Data           2  os_var.o(.data)
    OSTmrTaskTimeMax                         0x2000010c   Data           4  os_var.o(.data)
    OSTmrTickCtr                             0x20000110   Data           4  os_var.o(.data)
    OSTmrUpdateCnt                           0x20000114   Data           4  os_var.o(.data)
    OSTmrUpdateCtr                           0x20000118   Data           4  os_var.o(.data)
    OSTCBCurPtr                              0x2000011c   Data           4  os_var.o(.data)
    OSTCBHighRdyPtr                          0x20000120   Data           4  os_var.o(.data)
    OS_CPU_ExceptStkBase                     0x20000124   Data           4  os_cpu_c.o(.data)
    OSPrioTbl                                0x20000128   Data           4  os_prio.o(.data)
    __stdout                                 0x2000012c   Data           4  stdout.o(.data)
    TestMutex                                0x20000130   Data          44  main.o(.bss)
    CPU_Name                                 0x20001e7c   Data          16  cpu_core.o(.bss)
    Mem_PoolHeap                             0x20001e8c   Data          72  lib_mem.o(.bss)
    Mem_Heap                                 0x20001ed4   Data       27648  lib_mem.o(.bss)
    OSCfg_IdleTaskStk                        0x20008ad4   Data         512  os_cfg_app.o(.bss)
    OSCfg_IntQ                               0x20008cd4   Data         320  os_cfg_app.o(.bss)
    OSCfg_IntQTaskStk                        0x20008e14   Data         512  os_cfg_app.o(.bss)
    OSCfg_ISRStk                             0x20009014   Data         512  os_cfg_app.o(.bss)
    OSCfg_MsgPool                            0x20009214   Data        1600  os_cfg_app.o(.bss)
    OSCfg_StatTaskStk                        0x20009854   Data         512  os_cfg_app.o(.bss)
    OSCfg_TickTaskStk                        0x20009a54   Data         512  os_cfg_app.o(.bss)
    OSCfg_TickWheel                          0x20009c54   Data         136  os_cfg_app.o(.bss)
    OSCfg_TmrTaskStk                         0x20009cdc   Data         512  os_cfg_app.o(.bss)
    OSCfg_TmrWheel                           0x20009edc   Data         136  os_cfg_app.o(.bss)
    OSIdleTaskTCB                            0x20009f64   Data         200  os_var.o(.bss)
    OSIntQTaskTCB                            0x2000a02c   Data         200  os_var.o(.bss)
    OSMsgPool                                0x2000a0f4   Data          12  os_var.o(.bss)
    OSRdyList                                0x2000a100   Data         384  os_var.o(.bss)
    OSStatTaskTCB                            0x2000a280   Data         200  os_var.o(.bss)
    OSTickTaskTCB                            0x2000a348   Data         200  os_var.o(.bss)
    OSTmrTaskTCB                             0x2000a410   Data         200  os_var.o(.bss)
    __initial_sp                             0x2000a8d8   Data           0  startup_stm32f10x_hd.o(STACK)



==============================================================================

Memory Map of the image

  Image Entry point : 0x08000131

  Load Region LR_IROM1 (Base: 0x08000000, Size: 0x0001ee70, Max: 0x00080000, ABSOLUTE, COMPRESSED[0x0001ed5c])

    Execution Region ER_IROM1 (Exec base: 0x08000000, Load base: 0x08000000, Size: 0x0001ed40, Max: 0x00080000, ABSOLUTE)

    Exec Addr    Load Addr    Size         Type   Attr      Idx    E Section Name        Object

    0x08000000   0x08000000   0x00000130   Data   RO            3    RESET               startup_stm32f10x_hd.o
    0x08000130   0x08000130   0x00000000   Code   RO         2617  * .ARM.Collect$$$$00000000  mc_w.l(entry.o)
    0x08000130   0x08000130   0x00000004   Code   RO         2881    .ARM.Collect$$$$00000001  mc_w.l(entry2.o)
    0x08000134   0x08000134   0x00000004   Code   RO         2884    .ARM.Collect$$$$00000004  mc_w.l(entry5.o)
    0x08000138   0x08000138   0x00000000   Code   RO         2886    .ARM.Collect$$$$00000008  mc_w.l(entry7b.o)
    0x08000138   0x08000138   0x00000000   Code   RO         2888    .ARM.Collect$$$$0000000A  mc_w.l(entry8b.o)
    0x08000138   0x08000138   0x00000008   Code   RO         2889    .ARM.Collect$$$$0000000B  mc_w.l(entry9a.o)
    0x08000140   0x08000140   0x00000004   Code   RO         2896    .ARM.Collect$$$$0000000E  mc_w.l(entry12b.o)
    0x08000144   0x08000144   0x00000000   Code   RO         2891    .ARM.Collect$$$$0000000F  mc_w.l(entry10a.o)
    0x08000144   0x08000144   0x00000000   Code   RO         2893    .ARM.Collect$$$$00000011  mc_w.l(entry11a.o)
    0x08000144   0x08000144   0x00000004   Code   RO         2882    .ARM.Collect$$$$00002712  mc_w.l(entry2.o)
    0x08000148   0x08000148   0x00000024   Code   RO            4    .text               startup_stm32f10x_hd.o
    0x0800016c   0x0800016c   0x000001dc   Code   RO          664    .text               stm32f10x_hd.lib(system_stm32f10x.o)
    0x08000348   0x08000348   0x00000358   Code   RO          764    .text               stm32f10x_hd.lib(stm32f10x_gpio.o)
    0x080006a0   0x080006a0   0x000003a4   Code   RO          799    .text               stm32f10x_hd.lib(stm32f10x_rcc.o)
    0x08000a44   0x08000a44   0x00000618   Code   RO          813    .text               stm32f10x_hd.lib(stm32f10x_fsmc.o)
    0x0800105c   0x0800105c   0x00000408   Code   RO          825    .text               stm32f10x_hd.lib(stm32f10x_usart.o)
    0x08001464   0x08001464   0x00000034   Code   RO         1027    .text               UCOSIII.lib(cpu_a.o)
    0x08001498   0x08001498   0x00000062   Code   RO         2900    .text               mc_w.l(uldiv.o)
    0x080014fa   0x080014fa   0x00000002   PAD
    0x080014fc   0x080014fc   0x00000024   Code   RO         2913    .text               mc_w.l(init.o)
    0x08001520   0x08001520   0x0000001e   Code   RO         2915    .text               mc_w.l(llshl.o)
    0x0800153e   0x0800153e   0x00000020   Code   RO         2917    .text               mc_w.l(llushr.o)
    0x0800155e   0x0800155e   0x00000056   Code   RO         2931    .text               mc_w.l(__dczerorl2.o)
    0x080015b4   0x080015b4   0x00000084   Code   RO         2509    CODE                UCOSIII.lib(os_cpu_a.o)
    0x08001638   0x08001638   0x00000214   Code   RO           10    i.AppTaskKey1       main.o
    0x0800184c   0x0800184c   0x00000058   Code   RO           11    i.AppTaskKey2       main.o
    0x080018a4   0x080018a4   0x00000218   Code   RO           12    i.AppTaskKey3       main.o
    0x08001abc   0x08001abc   0x00000178   Code   RO           13    i.AppTaskStart      main.o
    0x08001c34   0x08001c34   0x00000010   Code   RO          354    i.BSP_CPU_ClkFreq   bsp.o
    0x08001c44   0x08001c44   0x00000020   Code   RO          355    i.BSP_Init          bsp.o
    0x08001c64   0x08001c64   0x00000004   Code   RO          291    i.BusFault_Handler  stm32f10x_it.o
    0x08001c68   0x08001c68   0x00000010   Code   RO          845    i.CPU_Init          UCOSIII.lib(cpu_core.o)
    0x08001c78   0x08001c78   0x00000084   Code   RO          846    i.CPU_IntDisMeasInit  UCOSIII.lib(cpu_core.o)
    0x08001cfc   0x08001cfc   0x0000001c   Code   RO          847    i.CPU_IntDisMeasMaxCalc  UCOSIII.lib(cpu_core.o)
    0x08001d18   0x08001d18   0x0000002c   Code   RO          848    i.CPU_IntDisMeasMaxCurGet  UCOSIII.lib(cpu_core.o)
    0x08001d44   0x08001d44   0x0000002c   Code   RO          849    i.CPU_IntDisMeasMaxCurReset  UCOSIII.lib(cpu_core.o)
    0x08001d70   0x08001d70   0x0000002c   Code   RO          850    i.CPU_IntDisMeasMaxGet  UCOSIII.lib(cpu_core.o)
    0x08001d9c   0x08001d9c   0x00000034   Code   RO          851    i.CPU_IntDisMeasStart  UCOSIII.lib(cpu_core.o)
    0x08001dd0   0x08001dd0   0x00000054   Code   RO          852    i.CPU_IntDisMeasStop  UCOSIII.lib(cpu_core.o)
    0x08001e24   0x08001e24   0x00000038   Code   RO          853    i.CPU_NameClr       UCOSIII.lib(cpu_core.o)
    0x08001e5c   0x08001e5c   0x00000008   Code   RO          855    i.CPU_NameInit      UCOSIII.lib(cpu_core.o)
    0x08001e64   0x08001e64   0x00000014   Code   RO          859    i.CPU_TS_Init       UCOSIII.lib(cpu_core.o)
    0x08001e78   0x08001e78   0x0000000c   Code   RO          861    i.CPU_TS_TmrFreqSet  UCOSIII.lib(cpu_core.o)
    0x08001e84   0x08001e84   0x00000034   Code   RO          356    i.CPU_TS_TmrInit    bsp.o
    0x08001eb8   0x08001eb8   0x0000000c   Code   RO          357    i.CPU_TS_TmrRd      bsp.o
    0x08001ec4   0x08001ec4   0x00000002   Code   RO          292    i.DebugMon_Handler  stm32f10x_it.o
    0x08001ec6   0x08001ec6   0x00000004   Code   RO          293    i.HardFault_Handler  stm32f10x_it.o
    0x08001eca   0x08001eca   0x00000002   PAD
    0x08001ecc   0x08001ecc   0x00000024   Code   RO          435    i.Key1_Config       bsp_key.o
    0x08001ef0   0x08001ef0   0x00000024   Code   RO          436    i.Key2_Config       bsp_key.o
    0x08001f14   0x08001f14   0x00000024   Code   RO          437    i.Key3_Config       bsp_key.o
    0x08001f38   0x08001f38   0x00000010   Code   RO          438    i.Key_Initial       bsp_key.o
    0x08001f48   0x08001f48   0x00000058   Code   RO          440    i.Key_Scan          bsp_key.o
    0x08001fa0   0x08001fa0   0x00000048   Code   RO          474    i.LCD_Clear         tftlcd.o
    0x08001fe8   0x08001fe8   0x0000004c   Code   RO          475    i.LCD_Display_Dir   tftlcd.o
    0x08002034   0x08002034   0x000000b0   Code   RO          477    i.LCD_DrawLine      tftlcd.o
    0x080020e4   0x080020e4   0x00000020   Code   RO          479    i.LCD_DrawPoint     tftlcd.o
    0x08002104   0x08002104   0x0000003c   Code   RO          480    i.LCD_DrawRectangle  tftlcd.o
    0x08002140   0x08002140   0x0000005c   Code   RO          483    i.LCD_Fill          tftlcd.o
    0x0800219c   0x0800219c   0x000000a6   Code   RO          488    i.LCD_Set_Window    tftlcd.o
    0x08002242   0x08002242   0x0000005c   Code   RO          492    i.LCD_ShowPicture   tftlcd.o
    0x0800229e   0x0800229e   0x00000002   PAD
    0x080022a0   0x080022a0   0x0000000c   Code   RO          495    i.LCD_WriteCmd      tftlcd.o
    0x080022ac   0x080022ac   0x0000000c   Code   RO          497    i.LCD_WriteData     tftlcd.o
    0x080022b8   0x080022b8   0x0000000c   Code   RO          498    i.LCD_WriteData_Color  tftlcd.o
    0x080022c4   0x080022c4   0x00000058   Code   RO          418    i.LED_GPIO_Config   bsp_led.o
    0x0800231c   0x0800231c   0x00000024   Code   RO          419    i.LED_Init          bsp_led.o
    0x08002340   0x08002340   0x00000004   Code   RO          294    i.MemManage_Handler  stm32f10x_it.o
    0x08002344   0x08002344   0x00000012   Code   RO         1030    i.Mem_Clr           UCOSIII.lib(lib_mem.o)
    0x08002356   0x08002356   0x00000002   PAD
    0x08002358   0x08002358   0x00000048   Code   RO         1034    i.Mem_Init          UCOSIII.lib(lib_mem.o)
    0x080023a0   0x080023a0   0x00000062   Code   RO         1047    i.Mem_Set           UCOSIII.lib(lib_mem.o)
    0x08002402   0x08002402   0x00000002   Code   RO          295    i.NMI_Handler       stm32f10x_it.o
    0x08002404   0x08002404   0x00000002   Code   RO         1155    i.OSCfg_Init        UCOSIII.lib(os_cfg_app.o)
    0x08002406   0x08002406   0x00000002   PAD
    0x08002408   0x08002408   0x00000014   Code   RO         1755    i.OSIdleTaskHook    UCOSIII.lib(os_cpu_c.o)
    0x0800241c   0x0800241c   0x0000018c   Code   RO         1191    i.OSInit            UCOSIII.lib(os_core.o)
    0x080025a8   0x080025a8   0x00000038   Code   RO         1756    i.OSInitHook        UCOSIII.lib(os_cpu_c.o)
    0x080025e0   0x080025e0   0x000000e4   Code   RO         1193    i.OSIntExit         UCOSIII.lib(os_core.o)
    0x080026c4   0x080026c4   0x000000e8   Code   RO         1441    i.OSMutexCreate     UCOSIII.lib(os_mutex.o)
    0x080027ac   0x080027ac   0x00000328   Code   RO         1443    i.OSMutexPend       UCOSIII.lib(os_mutex.o)
    0x08002ad4   0x08002ad4   0x000002a0   Code   RO         1445    i.OSMutexPost       UCOSIII.lib(os_mutex.o)
    0x08002d74   0x08002d74   0x000000a8   Code   RO         1194    i.OSSched           UCOSIII.lib(os_core.o)
    0x08002e1c   0x08002e1c   0x0000007c   Code   RO         1195    i.OSSchedLock       UCOSIII.lib(os_core.o)
    0x08002e98   0x08002e98   0x000000a0   Code   RO         1198    i.OSSchedUnlock     UCOSIII.lib(os_core.o)
    0x08002f38   0x08002f38   0x00000068   Code   RO         1199    i.OSStart           UCOSIII.lib(os_core.o)
    0x08002fa0   0x08002fa0   0x00000168   Code   RO         1501    i.OSStatReset       UCOSIII.lib(os_stat.o)
    0x08003108   0x08003108   0x00000100   Code   RO         1502    i.OSStatTaskCPUUsageInit  UCOSIII.lib(os_stat.o)
    0x08003208   0x08003208   0x00000014   Code   RO         1757    i.OSStatTaskHook    UCOSIII.lib(os_cpu_c.o)
    0x0800321c   0x0800321c   0x00000294   Code   RO         1532    i.OSTaskCreate      UCOSIII.lib(os_task.o)
    0x080034b0   0x080034b0   0x00000018   Code   RO         1758    i.OSTaskCreateHook  UCOSIII.lib(os_cpu_c.o)
    0x080034c8   0x080034c8   0x00000208   Code   RO         1533    i.OSTaskDel         UCOSIII.lib(os_task.o)
    0x080036d0   0x080036d0   0x00000018   Code   RO         1759    i.OSTaskDelHook     UCOSIII.lib(os_cpu_c.o)
    0x080036e8   0x080036e8   0x00000088   Code   RO         1541    i.OSTaskResume      UCOSIII.lib(os_task.o)
    0x08003770   0x08003770   0x00000018   Code   RO         1760    i.OSTaskReturnHook  UCOSIII.lib(os_cpu_c.o)
    0x08003788   0x08003788   0x00000250   Code   RO         1542    i.OSTaskSemPend     UCOSIII.lib(os_task.o)
    0x080039d8   0x080039d8   0x000000e4   Code   RO         1546    i.OSTaskStkChk      UCOSIII.lib(os_task.o)
    0x08003abc   0x08003abc   0x000000c0   Code   RO         1761    i.OSTaskStkInit     UCOSIII.lib(os_cpu_c.o)
    0x08003b7c   0x08003b7c   0x00000060   Code   RO         1547    i.OSTaskSuspend     UCOSIII.lib(os_task.o)
    0x08003bdc   0x08003bdc   0x000000a4   Code   RO         1762    i.OSTaskSwHook      UCOSIII.lib(os_cpu_c.o)
    0x08003c80   0x08003c80   0x00000150   Code   RO         1699    i.OSTimeDly         UCOSIII.lib(os_time.o)
    0x08003dd0   0x08003dd0   0x0000022c   Code   RO         1700    i.OSTimeDlyHMSM     UCOSIII.lib(os_time.o)
    0x08003ffc   0x08003ffc   0x00000044   Code   RO         1704    i.OSTimeTick        UCOSIII.lib(os_time.o)
    0x08004040   0x08004040   0x00000014   Code   RO         1763    i.OSTimeTickHook    UCOSIII.lib(os_cpu_c.o)
    0x08004054   0x08004054   0x00000040   Code   RO         1764    i.OS_CPU_SysTickHandler  UCOSIII.lib(os_cpu_c.o)
    0x08004094   0x08004094   0x00000030   Code   RO         1765    i.OS_CPU_SysTickInit  UCOSIII.lib(os_cpu_c.o)
    0x080040c4   0x080040c4   0x000001b4   Code   RO         1989    i.OS_Dbg_Init       UCOSIII.lib(os_dbg.o)
    0x08004278   0x08004278   0x00000018   Code   RO         2014    i.OS_FlagInit       UCOSIII.lib(os_flag.o)
    0x08004290   0x08004290   0x0000027c   Code   RO         2015    i.OS_FlagPost       UCOSIII.lib(os_flag.o)
    0x0800450c   0x0800450c   0x00000056   Code   RO         2016    i.OS_FlagTaskRdy    UCOSIII.lib(os_flag.o)
    0x08004562   0x08004562   0x00000002   PAD
    0x08004564   0x08004564   0x0000004c   Code   RO         1201    i.OS_IdleTask       UCOSIII.lib(os_core.o)
    0x080045b0   0x080045b0   0x00000070   Code   RO         1202    i.OS_IdleTaskInit   UCOSIII.lib(os_core.o)
    0x08004620   0x08004620   0x00000104   Code   RO         2088    i.OS_IntQPost       UCOSIII.lib(os_int.o)
    0x08004724   0x08004724   0x000001a4   Code   RO         2089    i.OS_IntQRePost     UCOSIII.lib(os_int.o)
    0x080048c8   0x080048c8   0x000000c8   Code   RO         2090    i.OS_IntQTask       UCOSIII.lib(os_int.o)
    0x08004990   0x08004990   0x00000128   Code   RO         2091    i.OS_IntQTaskInit   UCOSIII.lib(os_int.o)
    0x08004ab8   0x08004ab8   0x00000018   Code   RO         2122    i.OS_MemInit        UCOSIII.lib(os_mem.o)
    0x08004ad0   0x08004ad0   0x0000007c   Code   RO         2154    i.OS_MsgPoolInit    UCOSIII.lib(os_msg.o)
    0x08004b4c   0x08004b4c   0x00000044   Code   RO         2155    i.OS_MsgQFreeAll    UCOSIII.lib(os_msg.o)
    0x08004b90   0x08004b90   0x0000000e   Code   RO         2157    i.OS_MsgQInit       UCOSIII.lib(os_msg.o)
    0x08004b9e   0x08004b9e   0x00000002   PAD
    0x08004ba0   0x08004ba0   0x00000104   Code   RO         2158    i.OS_MsgQPut        UCOSIII.lib(os_msg.o)
    0x08004ca4   0x08004ca4   0x00000030   Code   RO         1447    i.OS_MutexDbgListAdd  UCOSIII.lib(os_mutex.o)
    0x08004cd4   0x08004cd4   0x00000018   Code   RO         1449    i.OS_MutexInit      UCOSIII.lib(os_mutex.o)
    0x08004cec   0x08004cec   0x00000068   Code   RO         1203    i.OS_Pend           UCOSIII.lib(os_core.o)
    0x08004d54   0x08004d54   0x00000026   Code   RO         1206    i.OS_PendDataInit   UCOSIII.lib(os_core.o)
    0x08004d7a   0x08004d7a   0x00000002   PAD
    0x08004d7c   0x08004d7c   0x0000005c   Code   RO         1207    i.OS_PendDbgNameAdd  UCOSIII.lib(os_core.o)
    0x08004dd8   0x08004dd8   0x00000024   Code   RO         1208    i.OS_PendDbgNameRemove  UCOSIII.lib(os_core.o)
    0x08004dfc   0x08004dfc   0x00000046   Code   RO         1209    i.OS_PendListChangePrio  UCOSIII.lib(os_core.o)
    0x08004e42   0x08004e42   0x0000000a   Code   RO         1210    i.OS_PendListInit   UCOSIII.lib(os_core.o)
    0x08004e4c   0x08004e4c   0x00000066   Code   RO         1212    i.OS_PendListInsertPrio  UCOSIII.lib(os_core.o)
    0x08004eb2   0x08004eb2   0x00000030   Code   RO         1213    i.OS_PendListRemove  UCOSIII.lib(os_core.o)
    0x08004ee2   0x08004ee2   0x00000042   Code   RO         1214    i.OS_PendListRemove1  UCOSIII.lib(os_core.o)
    0x08004f24   0x08004f24   0x000000c0   Code   RO         1217    i.OS_Post           UCOSIII.lib(os_core.o)
    0x08004fe4   0x08004fe4   0x0000002a   Code   RO         1218    i.OS_Post1          UCOSIII.lib(os_core.o)
    0x0800500e   0x0800500e   0x00000002   PAD
    0x08005010   0x08005010   0x00000028   Code   RO         2190    i.OS_PrioGetHighest  UCOSIII.lib(os_prio.o)
    0x08005038   0x08005038   0x00000018   Code   RO         2191    i.OS_PrioInit       UCOSIII.lib(os_prio.o)
    0x08005050   0x08005050   0x00000024   Code   RO         2192    i.OS_PrioInsert     UCOSIII.lib(os_prio.o)
    0x08005074   0x08005074   0x00000024   Code   RO         2193    i.OS_PrioRemove     UCOSIII.lib(os_prio.o)
    0x08005098   0x08005098   0x00000018   Code   RO         2236    i.OS_QInit          UCOSIII.lib(os_q.o)
    0x080050b0   0x080050b0   0x00000188   Code   RO         2237    i.OS_QPost          UCOSIII.lib(os_q.o)
    0x08005238   0x08005238   0x00000024   Code   RO         1219    i.OS_RdyListInit    UCOSIII.lib(os_core.o)
    0x0800525c   0x0800525c   0x0000002c   Code   RO         1220    i.OS_RdyListInsert  UCOSIII.lib(os_core.o)
    0x08005288   0x08005288   0x00000040   Code   RO         1221    i.OS_RdyListInsertHead  UCOSIII.lib(os_core.o)
    0x080052c8   0x080052c8   0x0000003c   Code   RO         1222    i.OS_RdyListInsertTail  UCOSIII.lib(os_core.o)
    0x08005304   0x08005304   0x00000044   Code   RO         1223    i.OS_RdyListMoveHeadToTail  UCOSIII.lib(os_core.o)
    0x08005348   0x08005348   0x0000005c   Code   RO         1224    i.OS_RdyListRemove  UCOSIII.lib(os_core.o)
    0x080053a4   0x080053a4   0x0000005c   Code   RO         1225    i.OS_Sched0         UCOSIII.lib(os_core.o)
    0x08005400   0x08005400   0x0000001c   Code   RO         1226    i.OS_SchedLockTimeMeasStart  UCOSIII.lib(os_core.o)
    0x0800541c   0x0800541c   0x0000003c   Code   RO         1227    i.OS_SchedLockTimeMeasStop  UCOSIII.lib(os_core.o)
    0x08005458   0x08005458   0x000000ec   Code   RO         1228    i.OS_SchedRoundRobin  UCOSIII.lib(os_core.o)
    0x08005544   0x08005544   0x00000018   Code   RO         2308    i.OS_SemInit        UCOSIII.lib(os_sem.o)
    0x0800555c   0x0800555c   0x00000198   Code   RO         2309    i.OS_SemPost        UCOSIII.lib(os_sem.o)
    0x080056f4   0x080056f4   0x000003b8   Code   RO         1503    i.OS_StatTask       UCOSIII.lib(os_stat.o)
    0x08005aac   0x08005aac   0x000000cc   Code   RO         1504    i.OS_StatTaskInit   UCOSIII.lib(os_stat.o)
    0x08005b78   0x08005b78   0x00000038   Code   RO         1229    i.OS_TaskBlock      UCOSIII.lib(os_core.o)
    0x08005bb0   0x08005bb0   0x00000030   Code   RO         1549    i.OS_TaskDbgListAdd  UCOSIII.lib(os_task.o)
    0x08005be0   0x08005be0   0x00000044   Code   RO         1550    i.OS_TaskDbgListRemove  UCOSIII.lib(os_task.o)
    0x08005c24   0x08005c24   0x00000020   Code   RO         1551    i.OS_TaskInit       UCOSIII.lib(os_task.o)
    0x08005c44   0x08005c44   0x000000d0   Code   RO         1552    i.OS_TaskInitTCB    UCOSIII.lib(os_task.o)
    0x08005d14   0x08005d14   0x0000026c   Code   RO         1553    i.OS_TaskQPost      UCOSIII.lib(os_task.o)
    0x08005f80   0x08005f80   0x0000001c   Code   RO         1230    i.OS_TaskRdy        UCOSIII.lib(os_core.o)
    0x08005f9c   0x08005f9c   0x0000017c   Code   RO         1554    i.OS_TaskResume     UCOSIII.lib(os_task.o)
    0x08006118   0x08006118   0x00000018   Code   RO         1555    i.OS_TaskReturn     UCOSIII.lib(os_task.o)
    0x08006130   0x08006130   0x000005a8   Code   RO         1556    i.OS_TaskSemPost    UCOSIII.lib(os_task.o)
    0x080066d8   0x080066d8   0x00000190   Code   RO         1557    i.OS_TaskSuspend    UCOSIII.lib(os_task.o)
    0x08006868   0x08006868   0x00000028   Code   RO         2371    i.OS_TickListInit   UCOSIII.lib(os_tick.o)
    0x08006890   0x08006890   0x000001bc   Code   RO         2372    i.OS_TickListInsert  UCOSIII.lib(os_tick.o)
    0x08006a4c   0x08006a4c   0x00000038   Code   RO         2373    i.OS_TickListRemove  UCOSIII.lib(os_tick.o)
    0x08006a84   0x08006a84   0x00000024   Code   RO         2374    i.OS_TickListResetPeak  UCOSIII.lib(os_tick.o)
    0x08006aa8   0x08006aa8   0x00000220   Code   RO         2375    i.OS_TickListUpdate  UCOSIII.lib(os_tick.o)
    0x08006cc8   0x08006cc8   0x0000002c   Code   RO         2376    i.OS_TickTask       UCOSIII.lib(os_tick.o)
    0x08006cf4   0x08006cf4   0x000000b8   Code   RO         2377    i.OS_TickTaskInit   UCOSIII.lib(os_tick.o)
    0x08006dac   0x08006dac   0x00000128   Code   RO         2428    i.OS_TmrInit        UCOSIII.lib(os_tmr.o)
    0x08006ed4   0x08006ed4   0x000000d0   Code   RO         2429    i.OS_TmrLink        UCOSIII.lib(os_tmr.o)
    0x08006fa4   0x08006fa4   0x00000024   Code   RO         2430    i.OS_TmrResetPeak   UCOSIII.lib(os_tmr.o)
    0x08006fc8   0x08006fc8   0x000000c0   Code   RO         2431    i.OS_TmrTask        UCOSIII.lib(os_tmr.o)
    0x08007088   0x08007088   0x00000050   Code   RO         2432    i.OS_TmrUnlink      UCOSIII.lib(os_tmr.o)
    0x080070d8   0x080070d8   0x00000002   Code   RO          297    i.SVC_Handler       stm32f10x_it.o
    0x080070da   0x080070da   0x0000007e   Code   RO          499    i.TFTLCD_FSMC_Init  tftlcd.o
    0x08007158   0x08007158   0x00000070   Code   RO          500    i.TFTLCD_GPIO_Init  tftlcd.o
    0x080071c8   0x080071c8   0x000002bc   Code   RO          501    i.TFTLCD_Init       tftlcd.o
    0x08007484   0x08007484   0x00000080   Code   RO          390    i.USARTx_Config     bsp_usart1.o
    0x08007504   0x08007504   0x00000004   Code   RO          299    i.UsageFault_Handler  stm32f10x_it.o
    0x08007508   0x08007508   0x00000020   Code   RO         2753    i.__0printf$5       mc_w.l(printf5.o)
    0x08007528   0x08007528   0x0000000e   Code   RO         2925    i.__scatterload_copy  mc_w.l(handlers.o)
    0x08007536   0x08007536   0x00000002   Code   RO         2926    i.__scatterload_null  mc_w.l(handlers.o)
    0x08007538   0x08007538   0x0000000e   Code   RO         2927    i.__scatterload_zeroinit  mc_w.l(handlers.o)
    0x08007546   0x08007546   0x00000002   PAD
    0x08007548   0x08007548   0x000002c0   Code   RO         2760    i._printf_core      mc_w.l(printf5.o)
    0x08007808   0x08007808   0x0000001c   Code   RO          502    i.delay_ms          tftlcd.o
    0x08007824   0x08007824   0x00000024   Code   RO          392    i.fputc             bsp_usart1.o
    0x08007848   0x08007848   0x00000060   Code   RO           14    i.main              main.o
    0x080078a8   0x080078a8   0x00017268   Data   RO           16    .constdata          main.o
    0x0801eb10   0x0801eb10   0x000000a4   Data   RO         1157    .constdata          UCOSIII.lib(os_cfg_app.o)
    0x0801ebb4   0x0801ebb4   0x0000016c   Data   RO         1990    .constdata          UCOSIII.lib(os_dbg.o)
    0x0801ed20   0x0801ed20   0x00000020   Data   RO         2923    Region$$Table       anon$$obj.o


    Execution Region RW_IRAM1 (Exec base: 0x20000000, Load base: 0x0801ed40, Size: 0x0000a8d8, Max: 0x00010000, ABSOLUTE, COMPRESSED[0x0000001c])

    Exec Addr    Load Addr    Size         Type   Attr      Idx    E Section Name        Object

    0x20000000   COMPRESSED   0x0000000c   Data   RW          504    .data               tftlcd.o
    0x2000000c   COMPRESSED   0x00000014   Data   RW          665    .data               stm32f10x_hd.lib(system_stm32f10x.o)
    0x20000020   COMPRESSED   0x00000014   Data   RW          800    .data               stm32f10x_hd.lib(stm32f10x_rcc.o)
    0x20000034   COMPRESSED   0x0000001c   Data   RW          865    .data               UCOSIII.lib(cpu_core.o)
    0x20000050   COMPRESSED   0x00000004   Data   RW         1049    .data               UCOSIII.lib(lib_mem.o)
    0x20000054   COMPRESSED   0x000000d0   Data   RW         1742    .data               UCOSIII.lib(os_var.o)
    0x20000124   COMPRESSED   0x00000004   Data   RW         1766    .data               UCOSIII.lib(os_cpu_c.o)
    0x20000128   COMPRESSED   0x00000004   Data   RW         2194    .data               UCOSIII.lib(os_prio.o)
    0x2000012c   COMPRESSED   0x00000004   Data   RW         2897    .data               mc_w.l(stdout.o)
    0x20000130        -       0x00001d4c   Zero   RW           15    .bss                main.o
    0x20001e7c        -       0x00000010   Zero   RW          863    .bss                UCOSIII.lib(cpu_core.o)
    0x20001e8c        -       0x00006c48   Zero   RW         1048    .bss                UCOSIII.lib(lib_mem.o)
    0x20008ad4        -       0x00001490   Zero   RW         1156    .bss                UCOSIII.lib(os_cfg_app.o)
    0x20009f64        -       0x00000574   Zero   RW         1741    .bss                UCOSIII.lib(os_var.o)
    0x2000a4d8        -       0x00000400   Zero   RW            1    STACK               startup_stm32f10x_hd.o


==============================================================================

Image component sizes


      Code (inc. data)   RO Data    RW Data    ZI Data      Debug   Object Name

       112         18          0          0          0       1897   bsp.o
       212         12          0          0          0       2921   bsp_key.o
       124         10          0          0          0        939   bsp_led.o
       164         12          0          0          0       2412   bsp_usart1.o
      1628        198      94824          0       7500     273013   main.o
        36          8        304          0       1024        828   startup_stm32f10x_hd.o
        22          0          0          0          0       3015   stm32f10x_it.o
      1768         72          0         12          0      11725   tftlcd.o

    ----------------------------------------------------------------------
      4070        330      95160         12       8524     296750   Object Totals
         0          0         32          0          0          0   (incl. Generated)
         4          0          0          0          0          0   (incl. Padding)

    ----------------------------------------------------------------------

      Code (inc. data)   RO Data    RW Data    ZI Data      Debug   Library Member Name

        52          0          0          0          0        368   cpu_a.o
       540         98          0         28         16      28417   cpu_core.o
       188         18          0          4      27720      23347   lib_mem.o
         2          0        164          0       5264      21914   os_cfg_app.o
      3032        402          0          0          0      40625   os_core.o
       132         32          0          0          0        412   os_cpu_a.o
       656         68          0          4          0       8625   os_cpu_c.o
       436        286        364          0          0       4901   os_dbg.o
       746         28          0          0          0       3225   os_flag.o
      1176        204          0          0          0       3654   os_int.o
        24         10          0          0          0        937   os_mem.o
       466         26          0          0          0       3385   os_msg.o
      1784         90          0          0          0       4968   os_mutex.o
       136         16          0          4          0       3018   os_prio.o
       416         20          0          0          0       2302   os_q.o
       432         14          0          0          0       2326   os_sem.o
      1772        214          0          0          0       4215   os_stat.o
      5460        260          0          0          0      14344   os_task.o
      1348        124          0          0          0       5721   os_tick.o
       960         46          0          0          0       3245   os_time.o
       812        134          0          0          0       4332   os_tmr.o
         0          0          0        208       1396      19553   os_var.o
        86          0          0          0          0          0   __dczerorl2.o
         0          0          0          0          0          0   entry.o
         0          0          0          0          0          0   entry10a.o
         0          0          0          0          0          0   entry11a.o
         4          0          0          0          0          0   entry12b.o
         8          4          0          0          0          0   entry2.o
         4          0          0          0          0          0   entry5.o
         0          0          0          0          0          0   entry7b.o
         0          0          0          0          0          0   entry8b.o
         8          4          0          0          0          0   entry9a.o
        30          0          0          0          0          0   handlers.o
        36          8          0          0          0         68   init.o
        30          0          0          0          0         68   llshl.o
        32          0          0          0          0         68   llushr.o
       736         54          0          0          0        184   printf5.o
         0          0          0          4          0          0   stdout.o
        98          0          0          0          0         92   uldiv.o
      1560         54          0          0          0       5419   stm32f10x_fsmc.o
       856         40          0          0          0     208913   stm32f10x_gpio.o
       932         44          0         20          0       8904   stm32f10x_rcc.o
      1032         22          0          0          0       8448   stm32f10x_usart.o
       476         36          0         20          0      36147   system_stm32f10x.o

    ----------------------------------------------------------------------
     26514       2356        528        292      34396     472145   Library Totals
        16          0          0          0          0          0   (incl. Padding)

    ----------------------------------------------------------------------

      Code (inc. data)   RO Data    RW Data    ZI Data      Debug   Library Name

     20570       2090        528        248      34396     203834   UCOSIII.lib
      1072         70          0          4          0        480   mc_w.l
      4856        196          0         40          0     267831   stm32f10x_hd.lib

    ----------------------------------------------------------------------
     26514       2356        528        292      34396     472145   Library Totals

    ----------------------------------------------------------------------

==============================================================================


      Code (inc. data)   RO Data    RW Data    ZI Data      Debug   

     30584       2686      95688        304      42920     760235   Grand Totals
     30584       2686      95688         28      42920     760235   ELF Image Totals (compressed)
     30584       2686      95688         28          0          0   ROM Totals

==============================================================================

    Total RO  Size (Code + RO Data)               126272 ( 123.31kB)
    Total RW  Size (RW Data + ZI Data)             43224 (  42.21kB)
    Total ROM Size (Code + RO Data + RW Data)     126300 ( 123.34kB)

==============================================================================

