Component: ARM Compiler 5.06 update 7 (build 960) Tool: armlink [4d3601]

==============================================================================

Section Cross References

    startup_stm32f10x_hd.o(RESET) refers to startup_stm32f10x_hd.o(STACK) for __initial_sp
    startup_stm32f10x_hd.o(RESET) refers to startup_stm32f10x_hd.o(.text) for Reset_Handler
    startup_stm32f10x_hd.o(RESET) refers to stm32f10x_it.o(i.NMI_Handler) for NMI_Handler
    startup_stm32f10x_hd.o(RESET) refers to stm32f10x_it.o(i.HardFault_Handler) for HardFault_Handler
    startup_stm32f10x_hd.o(RESET) refers to stm32f10x_it.o(i.MemManage_Handler) for MemManage_Handler
    startup_stm32f10x_hd.o(RESET) refers to stm32f10x_it.o(i.BusFault_Handler) for BusFault_Handler
    startup_stm32f10x_hd.o(RESET) refers to stm32f10x_it.o(i.UsageFault_Handler) for UsageFault_Handler
    startup_stm32f10x_hd.o(RESET) refers to stm32f10x_it.o(i.SVC_Handler) for SVC_Handler
    startup_stm32f10x_hd.o(RESET) refers to stm32f10x_it.o(i.DebugMon_Handler) for DebugMon_Handler
    startup_stm32f10x_hd.o(RESET) refers to os_cpu_a.o(CODE) for OS_CPU_PendSVHandler
    startup_stm32f10x_hd.o(RESET) refers to os_cpu_c.o(i.OS_CPU_SysTickHandler) for OS_CPU_SysTickHandler
    startup_stm32f10x_hd.o(.text) refers to system_stm32f10x.o(.text) for SystemInit
    startup_stm32f10x_hd.o(.text) refers to entry.o(.ARM.Collect$$$$00000000) for __main
    main.o(i.AppTaskLed1) refers to stm32f10x_gpio.o(.text) for GPIO_ReadOutputDataBit
    main.o(i.AppTaskLed1) refers to os_task.o(i.OSTaskRegGet) for OSTaskRegGet
    main.o(i.AppTaskLed1) refers to os_task.o(i.OSTaskRegSet) for OSTaskRegSet
    main.o(i.AppTaskLed1) refers to printfb.o(i.__0printf$bare) for __2printf
    main.o(i.AppTaskLed1) refers to os_task.o(i.OSTaskResume) for OSTaskResume
==============================================================================

Removing Unused input sections from the image.

    Removing startup_stm32f10x_hd.o(HEAP), (512 bytes).
    Removing os_app_hooks.o(i.App_OS_ClrAllHooks), (100 bytes).
    Removing os_app_hooks.o(i.App_OS_IdleTaskHook), (2 bytes).
    Removing os_app_hooks.o(i.App_OS_InitHook), (2 bytes).
    Removing os_app_hooks.o(i.App_OS_SetAllHooks), (140 bytes).
    Removing os_app_hooks.o(i.App_OS_StatTaskHook), (2 bytes).
    Removing os_app_hooks.o(i.App_OS_TaskCreateHook), (2 bytes).
    Removing os_app_hooks.o(i.App_OS_TaskDelHook), (2 bytes).
    Removing os_app_hooks.o(i.App_OS_TaskReturnHook), (2 bytes).
    Removing os_app_hooks.o(i.App_OS_TaskSwHook), (2 bytes).
    Removing os_app_hooks.o(i.App_OS_TimeTickHook), (2 bytes).
    Removing stm32f10x_it.o(i.PendSV_Handler), (2 bytes).
    Removing stm32f10x_it.o(i.SysTick_Handler), (2 bytes).
    Removing bsp.o(.constdata), (44800 bytes).
    Removing bsp.o(.data), (4 bytes).
    Removing bsp_usart1.o(i.fgetc), (32 bytes).
    Removing bsp_key.o(i.Key1_Config), (36 bytes).
    Removing bsp_key.o(i.Key2_Config), (36 bytes).
==============================================================================

Image Symbol Table

    Local Symbols

    Symbol Name                              Value     Ov Type        Size  Object(Section)

    ../clib/microlib/division.c              0x00000000   Number         0  uldiv.o ABSOLUTE
    ../clib/microlib/division.c              0x00000000   Number         0  uidiv.o ABSOLUTE
    ../clib/microlib/init/entry.s            0x00000000   Number         0  entry7b.o ABSOLUTE
    ../clib/microlib/init/entry.s            0x00000000   Number         0  entry.o ABSOLUTE
    ../clib/microlib/init/entry.s            0x00000000   Number         0  entry2.o ABSOLUTE
    ../clib/microlib/init/entry.s            0x00000000   Number         0  entry10b.o ABSOLUTE
    ../clib/microlib/init/entry.s            0x00000000   Number         0  entry11b.o ABSOLUTE
    ../clib/microlib/init/entry.s            0x00000000   Number         0  entry9b.o ABSOLUTE
    ../clib/microlib/init/entry.s            0x00000000   Number         0  entry12a.o ABSOLUTE
    ../clib/microlib/init/entry.s            0x00000000   Number         0  entry11a.o ABSOLUTE
    ../clib/microlib/init/entry.s            0x00000000   Number         0  entry12b.o ABSOLUTE
    ../clib/microlib/init/entry.s            0x00000000   Number         0  entry5.o ABSOLUTE
    ../clib/microlib/init/entry.s            0x00000000   Number         0  entry7a.o ABSOLUTE
    ../clib/microlib/init/entry.s            0x00000000   Number         0  entry8a.o ABSOLUTE
    ../clib/microlib/init/entry.s            0x00000000   Number         0  entry8b.o ABSOLUTE
    ../clib/microlib/init/entry.s            0x00000000   Number         0  entry9a.o ABSOLUTE
    ../clib/microlib/init/entry.s            0x00000000   Number         0  entry10a.o ABSOLUTE
    ../clib/microlib/longlong.c              0x00000000   Number         0  llushr.o ABSOLUTE
    ../clib/microlib/longlong.c              0x00000000   Number         0  llshl.o ABSOLUTE
    ../clib/microlib/longlong.c              0x00000000   Number         0  llsshr.o ABSOLUTE
    ../clib/microlib/printf/printf.c         0x00000000   Number         0  printf1.o ABSOLUTE
    ../clib/microlib/printf/printf.c         0x00000000   Number         0  printf0.o ABSOLUTE
    ../clib/microlib/printf/printf.c         0x00000000   Number         0  printfb.o ABSOLUTE
    ../clib/microlib/printf/printf.c         0x00000000   Number         0  printf8.o ABSOLUTE
    ../clib/microlib/printf/printf.c         0x00000000   Number         0  printfa.o ABSOLUTE
    ../clib/microlib/printf/printf.c         0x00000000   Number         0  printf7.o ABSOLUTE
    ../clib/microlib/printf/printf.c         0x00000000   Number         0  printf6.o ABSOLUTE
    ../clib/microlib/printf/printf.c         0x00000000   Number         0  printf5.o ABSOLUTE
    ../clib/microlib/printf/printf.c         0x00000000   Number         0  printf4.o ABSOLUTE
    ../clib/microlib/printf/printf.c         0x00000000   Number         0  printf3.o ABSOLUTE
    ../clib/microlib/printf/printf.c         0x00000000   Number         0  printf2.o ABSOLUTE
    ../clib/microlib/stdio/streams.c         0x00000000   Number         0  stdout.o ABSOLUTE
    ../clib/microlib/stubs.s                 0x00000000   Number         0  iusefp.o ABSOLUTE
    ../fplib/microlib/fpadd.c                0x00000000   Number         0  dadd.o ABSOLUTE
    ../fplib/microlib/fpdiv.c                0x00000000   Number         0  ddiv.o ABSOLUTE
    ../fplib/microlib/fpepilogue.c           0x00000000   Number         0  depilogue.o ABSOLUTE
    ../fplib/microlib/fpfix.c                0x00000000   Number         0  dfixul.o ABSOLUTE
    ../fplib/microlib/fpfix.c                0x00000000   Number         0  dfixui.o ABSOLUTE
    ../fplib/microlib/fpflt.c                0x00000000   Number         0  dfltui.o ABSOLUTE
    ../fplib/microlib/fpmul.c                0x00000000   Number         0  dmul.o ABSOLUTE
    ..\..\User\uC-CPU\ARM-Cortex-M3\RealView\cpu_a.asm 0x00000000   Number         0  cpu_a.o ABSOLUTE
    ..\..\User\uC-CPU\cpu_core.c             0x00000000   Number         0  cpu_core.o ABSOLUTE
    ..\..\User\uC-LIB\Ports\ARM-Cortex-M3\RealView\lib_mem_a.asm 0x00000000   Number         0  lib_mem_a.o ABSOLUTE
    ..\..\User\uC-LIB\lib_ascii.c            0x00000000   Number         0  lib_ascii.o ABSOLUTE
    ..\..\User\uC-LIB\lib_mem.c              0x00000000   Number         0  lib_mem.o ABSOLUTE
    ..\..\User\uC-LIB\lib_str.c              0x00000000   Number         0  lib_str.o ABSOLUTE
    ..\..\User\uCOS-III\Ports\ARM-Cortex-M3\Generic\RealView\os_cpu_a.s 0x00000000   Number         0  os_cpu_a.o ABSOLUTE
    ..\..\User\uCOS-III\Ports\ARM-Cortex-M3\Generic\RealView\os_cpu_c.c 0x00000000   Number         0  os_cpu_c.o ABSOLUTE
    ..\..\User\uCOS-III\Source\os_cfg_app.c  0x00000000   Number         0  os_cfg_app.o ABSOLUTE
    ..\..\User\uCOS-III\Source\os_core.c     0x00000000   Number         0  os_core.o ABSOLUTE
    ..\..\User\uCOS-III\Source\os_dbg.c      0x00000000   Number         0  os_dbg.o ABSOLUTE
    ..\..\User\uCOS-III\Source\os_flag.c     0x00000000   Number         0  os_flag.o ABSOLUTE
    ..\..\User\uCOS-III\Source\os_int.c      0x00000000   Number         0  os_int.o ABSOLUTE
    ..\..\User\uCOS-III\Source\os_mem.c      0x00000000   Number         0  os_mem.o ABSOLUTE
    ..\..\User\uCOS-III\Source\os_msg.c      0x00000000   Number         0  os_msg.o ABSOLUTE
    ..\..\User\uCOS-III\Source\os_mutex.c    0x00000000   Number         0  os_mutex.o ABSOLUTE
    ..\..\User\uCOS-III\Source\os_prio.c     0x00000000   Number         0  os_prio.o ABSOLUTE
    ..\..\User\uCOS-III\Source\os_q.c        0x00000000   Number         0  os_q.o ABSOLUTE
    ..\..\User\uCOS-III\Source\os_sem.c      0x00000000   Number         0  os_sem.o ABSOLUTE
    ..\..\User\uCOS-III\Source\os_stat.c     0x00000000   Number         0  os_stat.o ABSOLUTE
    ..\..\User\uCOS-III\Source\os_task.c     0x00000000   Number         0  os_task.o ABSOLUTE
    ..\..\User\uCOS-III\Source\os_tick.c     0x00000000   Number         0  os_tick.o ABSOLUTE
    ..\..\User\uCOS-III\Source\os_time.c     0x00000000   Number         0  os_time.o ABSOLUTE
    ..\..\User\uCOS-III\Source\os_tmr.c      0x00000000   Number         0  os_tmr.o ABSOLUTE
    ..\..\User\uCOS-III\Source\os_var.c      0x00000000   Number         0  os_var.o ABSOLUTE
    ..\FW_LIB\startup_stm32f10x_hd.s         0x00000000   Number         0  startup_stm32f10x_hd.o ABSOLUTE
    ..\USER\APP\main.c                       0x00000000   Number         0  main.o ABSOLUTE
    ..\USER\APP\os_app_hooks.c               0x00000000   Number         0  os_app_hooks.o ABSOLUTE
    ..\USER\APP\stm32f10x_it.c               0x00000000   Number         0  stm32f10x_it.o ABSOLUTE
    ..\USER\BSP\Key\bsp_key.c                0x00000000   Number         0  bsp_key.o ABSOLUTE
    ..\USER\BSP\bsp.c                        0x00000000   Number         0  bsp.o ABSOLUTE
    ..\USER\BSP\led\bsp_led.c                0x00000000   Number         0  bsp_led.o ABSOLUTE
    ..\USER\BSP\tftlcd\tftlcd.c              0x00000000   Number         0  tftlcd.o ABSOLUTE
    ..\USER\BSP\usart\bsp_usart1.c           0x00000000   Number         0  bsp_usart1.o ABSOLUTE
    Libraries\CMSIS\CM3\DeviceSupport\ST\STM32F10x\system_stm32f10x.c 0x00000000   Number         0  system_stm32f10x.o ABSOLUTE
    Libraries\STM32F10x_StdPeriph_Driver\src\stm32f10x_fsmc.c 0x00000000   Number         0  stm32f10x_fsmc.o ABSOLUTE
    Libraries\STM32F10x_StdPeriph_Driver\src\stm32f10x_gpio.c 0x00000000   Number         0  stm32f10x_gpio.o ABSOLUTE
    Libraries\STM32F10x_StdPeriph_Driver\src\stm32f10x_rcc.c 0x00000000   Number         0  stm32f10x_rcc.o ABSOLUTE
    Libraries\STM32F10x_StdPeriph_Driver\src\stm32f10x_usart.c 0x00000000   Number         0  stm32f10x_usart.o ABSOLUTE
    cdrcmple.s                               0x00000000   Number         0  cdrcmple.o ABSOLUTE
    dc.s                                     0x00000000   Number         0  dc.o ABSOLUTE
    handlers.s                               0x00000000   Number         0  handlers.o ABSOLUTE
    init.s                                   0x00000000   Number         0  init.o ABSOLUTE
    RESET                                    0x08000000   Section      304  startup_stm32f10x_hd.o(RESET)
    .ARM.Collect$$$$00000000                 0x08000130   Section        0  entry.o(.ARM.Collect$$$$00000000)
    .ARM.Collect$$$$00000001                 0x08000130   Section        4  entry2.o(.ARM.Collect$$$$00000001)
    .ARM.Collect$$$$00000004                 0x08000134   Section        4  entry5.o(.ARM.Collect$$$$00000004)
    .ARM.Collect$$$$00000008                 0x08000138   Section        0  entry7b.o(.ARM.Collect$$$$00000008)
    .ARM.Collect$$$$0000000A                 0x08000138   Section        0  entry8b.o(.ARM.Collect$$$$0000000A)
    .ARM.Collect$$$$0000000B                 0x08000138   Section        8  entry9a.o(.ARM.Collect$$$$0000000B)
    .ARM.Collect$$$$0000000E                 0x08000140   Section        4  entry12b.o(.ARM.Collect$$$$0000000E)
    .ARM.Collect$$$$0000000F                 0x08000144   Section        0  entry10a.o(.ARM.Collect$$$$0000000F)
    .ARM.Collect$$$$00000011                 0x08000144   Section        0  entry11a.o(.ARM.Collect$$$$00000011)
    .ARM.Collect$$$$00002712                 0x08000144   Section        4  entry2.o(.ARM.Collect$$$$00002712)
    __lit__00000000                          0x08000144   Data           4  entry2.o(.ARM.Collect$$$$00002712)
    .text                                    0x08000148   Section       36  startup_stm32f10x_hd.o(.text)
    .text                                    0x0800016c   Section        0  system_stm32f10x.o(.text)
    SetSysClockTo72                          0x0800016d   Thumb Code   212  system_stm32f10x.o(.text)
    SetSysClock                              0x08000241   Thumb Code     8  system_stm32f10x.o(.text)
    .text                                    0x08000348   Section        0  stm32f10x_gpio.o(.text)
    .text                                    0x080006a0   Section        0  stm32f10x_rcc.o(.text)
    .text                                    0x08000a44   Section        0  stm32f10x_usart.o(.text)
    .text                                    0x08000e4c   Section       52  cpu_a.o(.text)
    .text                                    0x08000e80   Section       36  init.o(.text)
    CODE                                     0x08000ea4   Section      132  os_cpu_a.o(CODE)
    i.AppTaskLed1                            0x08000f28   Section        0  main.o(i.AppTaskLed1)
    AppTaskLed1                              0x08000f29   Thumb Code   120  main.o(i.AppTaskLed1)
    i.AppTaskLed2                            0x08000fcc   Section        0  main.o(i.AppTaskLed2)
    AppTaskLed2                              0x08000fcd   Thumb Code   106  main.o(i.AppTaskLed2)
    i.AppTaskLed3                            0x08001054   Section        0  main.o(i.AppTaskLed3)
    AppTaskLed3                              0x08001055   Thumb Code   106  main.o(i.AppTaskLed3)
    i.AppTaskStart                           0x080010dc   Section        0  main.o(i.AppTaskStart)
    AppTaskStart                             0x080010dd   Thumb Code   214  main.o(i.AppTaskStart)
    i.BSP_CPU_ClkFreq                        0x0800120c   Section        0  bsp.o(i.BSP_CPU_ClkFreq)
    i.BSP_Init                               0x0800121c   Section        0  bsp.o(i.BSP_Init)
    i.BusFault_Handler                       0x08001228   Section        0  stm32f10x_it.o(i.BusFault_Handler)
    i.CPU_Init                               0x0800122c   Section        0  cpu_core.o(i.CPU_Init)
    i.CPU_IntDisMeasInit                     0x0800123c   Section        0  cpu_core.o(i.CPU_IntDisMeasInit)
    CPU_IntDisMeasInit                       0x0800123d   Thumb Code   104  cpu_core.o(i.CPU_IntDisMeasInit)
    i.CPU_IntDisMeasMaxCalc                  0x080012c0   Section        0  cpu_core.o(i.CPU_IntDisMeasMaxCalc)
    CPU_IntDisMeasMaxCalc                    0x080012c1   Thumb Code    24  cpu_core.o(i.CPU_IntDisMeasMaxCalc)
    i.CPU_IntDisMeasMaxCurGet                0x080012dc   Section        0  cpu_core.o(i.CPU_IntDisMeasMaxCurGet)
    i.CPU_IntDisMeasMaxCurReset              0x08001308   Section        0  cpu_core.o(i.CPU_IntDisMeasMaxCurReset)
    i.CPU_IntDisMeasMaxGet                   0x08001334   Section        0  cpu_core.o(i.CPU_IntDisMeasMaxGet)
    i.CPU_IntDisMeasStart                    0x08001360   Section        0  cpu_core.o(i.CPU_IntDisMeasStart)
    i.CPU_IntDisMeasStop                     0x08001394   Section        0  cpu_core.o(i.CPU_IntDisMeasStop)
    i.CPU_NameClr                            0x080013e8   Section        0  cpu_core.o(i.CPU_NameClr)
    i.CPU_NameInit                           0x08001420   Section        0  cpu_core.o(i.CPU_NameInit)
    CPU_NameInit                             0x08001421   Thumb Code     8  cpu_core.o(i.CPU_NameInit)
    i.CPU_TS_Init                            0x08001428   Section        0  cpu_core.o(i.CPU_TS_Init)
    CPU_TS_Init                              0x08001429   Thumb Code    14  cpu_core.o(i.CPU_TS_Init)
    i.CPU_TS_TmrFreqSet                      0x0800143c   Section        0  cpu_core.o(i.CPU_TS_TmrFreqSet)
    i.CPU_TS_TmrInit                         0x08001448   Section        0  bsp.o(i.CPU_TS_TmrInit)
    i.CPU_TS_TmrRd                           0x0800147c   Section        0  bsp.o(i.CPU_TS_TmrRd)
    i.DebugMon_Handler                       0x08001488   Section        0  stm32f10x_it.o(i.DebugMon_Handler)
    i.HardFault_Handler                      0x0800148a   Section        0  stm32f10x_it.o(i.HardFault_Handler)
    i.LED_GPIO_Config                        0x08001490   Section        0  bsp_led.o(i.LED_GPIO_Config)
    LED_GPIO_Config                          0x08001491   Thumb Code    82  bsp_led.o(i.LED_GPIO_Config)
    i.LED_Init                               0x080014e8   Section        0  bsp_led.o(i.LED_Init)
    i.MemManage_Handler                      0x0800150c   Section        0  stm32f10x_it.o(i.MemManage_Handler)
    i.Mem_Clr                                0x08001510   Section        0  lib_mem.o(i.Mem_Clr)
    i.Mem_Init                               0x08001524   Section        0  lib_mem.o(i.Mem_Init)
    i.Mem_Set                                0x0800156c   Section        0  lib_mem.o(i.Mem_Set)
    i.NMI_Handler                            0x080015ce   Section        0  stm32f10x_it.o(i.NMI_Handler)
    i.OSCfg_Init                             0x080015d0   Section        0  os_cfg_app.o(i.OSCfg_Init)
    i.OSIdleTaskHook                         0x080015d4   Section        0  os_cpu_c.o(i.OSIdleTaskHook)
    i.OSInit                                 0x080015e8   Section        0  os_core.o(i.OSInit)
    i.OSInitHook                             0x08001774   Section        0  os_cpu_c.o(i.OSInitHook)
    i.OSIntExit                              0x080017ac   Section        0  os_core.o(i.OSIntExit)
    i.OSSched                                0x08001890   Section        0  os_core.o(i.OSSched)
    i.OSSchedLock                            0x08001938   Section        0  os_core.o(i.OSSchedLock)
    i.OSSchedRoundRobinCfg                   0x080019b4   Section        0  os_core.o(i.OSSchedRoundRobinCfg)
    i.OSSchedUnlock                          0x08001a20   Section        0  os_core.o(i.OSSchedUnlock)
    i.OSStart                                0x08001ac0   Section        0  os_core.o(i.OSStart)
    i.OSStatReset                            0x08001b28   Section        0  os_stat.o(i.OSStatReset)
    i.OSStatTaskCPUUsageInit                 0x08001c90   Section        0  os_stat.o(i.OSStatTaskCPUUsageInit)
    i.OSStatTaskHook                         0x08001d90   Section        0  os_cpu_c.o(i.OSStatTaskHook)
    i.OSTaskCreate                           0x08001da4   Section        0  os_task.o(i.OSTaskCreate)
    i.OSTaskCreateHook                       0x08002038   Section        0  os_cpu_c.o(i.OSTaskCreateHook)
    i.OSTaskDel                              0x08002050   Section        0  os_task.o(i.OSTaskDel)
    i.OSTaskDelHook                          0x08002258   Section        0  os_cpu_c.o(i.OSTaskDelHook)
    i.OSTaskRegGet                           0x08002270   Section        0  os_task.o(i.OSTaskRegGet)
    i.OSTaskRegSet                           0x080022cc   Section        0  os_task.o(i.OSTaskRegSet)
    i.OSTaskResume                           0x08002328   Section        0  os_task.o(i.OSTaskResume)
    i.OSTaskReturnHook                       0x080023b0   Section        0  os_cpu_c.o(i.OSTaskReturnHook)
    i.OSTaskSemPend                          0x080023c8   Section        0  os_task.o(i.OSTaskSemPend)
    i.OSTaskStkChk                           0x08002618   Section        0  os_task.o(i.OSTaskStkChk)
    i.OSTaskStkInit                          0x080026fc   Section        0  os_cpu_c.o(i.OSTaskStkInit)
    i.OSTaskSuspend                          0x080027bc   Section        0  os_task.o(i.OSTaskSuspend)
    i.OSTaskSwHook                           0x0800281c   Section        0  os_cpu_c.o(i.OSTaskSwHook)
    i.OSTimeDly                              0x080028c0   Section        0  os_time.o(i.OSTimeDly)
    i.OSTimeTick                             0x08002a10   Section        0  os_time.o(i.OSTimeTick)
    i.OSTimeTickHook                         0x08002a54   Section        0  os_cpu_c.o(i.OSTimeTickHook)
    i.OS_CPU_SysTickHandler                  0x08002a68   Section        0  os_cpu_c.o(i.OS_CPU_SysTickHandler)
    i.OS_CPU_SysTickInit                     0x08002aa8   Section        0  os_cpu_c.o(i.OS_CPU_SysTickInit)
    i.OS_Dbg_Init                            0x08002ad8   Section        0  os_dbg.o(i.OS_Dbg_Init)
    i.OS_FlagInit                            0x08002c8c   Section        0  os_flag.o(i.OS_FlagInit)
    i.OS_FlagPost                            0x08002ca4   Section        0  os_flag.o(i.OS_FlagPost)
    i.OS_FlagTaskRdy                         0x08002f20   Section        0  os_flag.o(i.OS_FlagTaskRdy)
    i.OS_IdleTask                            0x08002f78   Section        0  os_core.o(i.OS_IdleTask)
    i.OS_IdleTaskInit                        0x08002fc4   Section        0  os_core.o(i.OS_IdleTaskInit)
    i.OS_IntQPost                            0x08003034   Section        0  os_int.o(i.OS_IntQPost)
    i.OS_IntQRePost                          0x08003138   Section        0  os_int.o(i.OS_IntQRePost)
    i.OS_IntQTask                            0x080032dc   Section        0  os_int.o(i.OS_IntQTask)
    i.OS_IntQTaskInit                        0x080033a4   Section        0  os_int.o(i.OS_IntQTaskInit)
    i.OS_MemInit                             0x080034cc   Section        0  os_mem.o(i.OS_MemInit)
    i.OS_MsgPoolInit                         0x080034e4   Section        0  os_msg.o(i.OS_MsgPoolInit)
    i.OS_MsgQFreeAll                         0x08003560   Section        0  os_msg.o(i.OS_MsgQFreeAll)
    i.OS_MsgQInit                            0x080035a4   Section        0  os_msg.o(i.OS_MsgQInit)
    i.OS_MsgQPut                             0x080035b4   Section        0  os_msg.o(i.OS_MsgQPut)
    i.OS_MutexInit                           0x080036b8   Section        0  os_mutex.o(i.OS_MutexInit)
    i.OS_Pend                                0x080036d0   Section        0  os_core.o(i.OS_Pend)
    i.OS_PendDataInit                        0x08003738   Section        0  os_core.o(i.OS_PendDataInit)
    i.OS_PendDbgNameAdd                      0x08003760   Section        0  os_core.o(i.OS_PendDbgNameAdd)
    i.OS_PendDbgNameRemove                   0x080037bc   Section        0  os_core.o(i.OS_PendDbgNameRemove)
    i.OS_PendListInsertPrio                  0x080037e0   Section        0  os_core.o(i.OS_PendListInsertPrio)
    i.OS_PendListRemove                      0x08003846   Section        0  os_core.o(i.OS_PendListRemove)
    i.OS_PendListRemove1                     0x08003876   Section        0  os_core.o(i.OS_PendListRemove1)
    i.OS_Post                                0x080038b8   Section        0  os_core.o(i.OS_Post)
    i.OS_Post1                               0x08003978   Section        0  os_core.o(i.OS_Post1)
    i.OS_PrioGetHighest                      0x080039a4   Section        0  os_prio.o(i.OS_PrioGetHighest)
    i.OS_PrioInit                            0x080039cc   Section        0  os_prio.o(i.OS_PrioInit)
    i.OS_PrioInsert                          0x080039e4   Section        0  os_prio.o(i.OS_PrioInsert)
    i.OS_PrioRemove                          0x08003a08   Section        0  os_prio.o(i.OS_PrioRemove)
    i.OS_QInit                               0x08003a2c   Section        0  os_q.o(i.OS_QInit)
    i.OS_QPost                               0x08003a44   Section        0  os_q.o(i.OS_QPost)
    i.OS_RdyListInit                         0x08003bcc   Section        0  os_core.o(i.OS_RdyListInit)
    i.OS_RdyListInsert                       0x08003bf0   Section        0  os_core.o(i.OS_RdyListInsert)
    i.OS_RdyListInsertHead                   0x08003c1c   Section        0  os_core.o(i.OS_RdyListInsertHead)
    i.OS_RdyListInsertTail                   0x08003c5c   Section        0  os_core.o(i.OS_RdyListInsertTail)
    i.OS_RdyListMoveHeadToTail               0x08003c98   Section        0  os_core.o(i.OS_RdyListMoveHeadToTail)
    i.OS_RdyListRemove                       0x08003cdc   Section        0  os_core.o(i.OS_RdyListRemove)
    i.OS_Sched0                              0x08003d38   Section        0  os_core.o(i.OS_Sched0)
    i.OS_SchedLockTimeMeasStart              0x08003d94   Section        0  os_core.o(i.OS_SchedLockTimeMeasStart)
    i.OS_SchedLockTimeMeasStop               0x08003db0   Section        0  os_core.o(i.OS_SchedLockTimeMeasStop)
    i.OS_SchedRoundRobin                     0x08003dec   Section        0  os_core.o(i.OS_SchedRoundRobin)
    i.OS_SemInit                             0x08003ed8   Section        0  os_sem.o(i.OS_SemInit)
    i.OS_SemPost                             0x08003ef0   Section        0  os_sem.o(i.OS_SemPost)
    i.OS_StatTask                            0x08004088   Section        0  os_stat.o(i.OS_StatTask)
    i.OS_StatTaskInit                        0x08004440   Section        0  os_stat.o(i.OS_StatTaskInit)
    i.OS_TaskBlock                           0x0800450c   Section        0  os_core.o(i.OS_TaskBlock)
    i.OS_TaskDbgListAdd                      0x08004544   Section        0  os_task.o(i.OS_TaskDbgListAdd)
    i.OS_TaskDbgListRemove                   0x08004574   Section        0  os_task.o(i.OS_TaskDbgListRemove)
    i.OS_TaskInit                            0x080045b8   Section        0  os_task.o(i.OS_TaskInit)
    i.OS_TaskInitTCB                         0x080045d8   Section        0  os_task.o(i.OS_TaskInitTCB)
    i.OS_TaskQPost                           0x080046a8   Section        0  os_task.o(i.OS_TaskQPost)
    i.OS_TaskRdy                             0x08004914   Section        0  os_core.o(i.OS_TaskRdy)
    i.OS_TaskResume                          0x08004930   Section        0  os_task.o(i.OS_TaskResume)
    i.OS_TaskReturn                          0x08004aac   Section        0  os_task.o(i.OS_TaskReturn)
    i.OS_TaskSemPost                         0x08004ac4   Section        0  os_task.o(i.OS_TaskSemPost)
    i.OS_TaskSuspend                         0x0800506c   Section        0  os_task.o(i.OS_TaskSuspend)
    i.OS_TickListInit                        0x080051fc   Section        0  os_tick.o(i.OS_TickListInit)
    i.OS_TickListInsert                      0x08005224   Section        0  os_tick.o(i.OS_TickListInsert)
    i.OS_TickListRemove                      0x080053e0   Section        0  os_tick.o(i.OS_TickListRemove)
    i.OS_TickListResetPeak                   0x08005418   Section        0  os_tick.o(i.OS_TickListResetPeak)
    i.OS_TickListUpdate                      0x0800543c   Section        0  os_tick.o(i.OS_TickListUpdate)
    i.OS_TickTask                            0x0800565c   Section        0  os_tick.o(i.OS_TickTask)
    i.OS_TickTaskInit                        0x08005688   Section        0  os_tick.o(i.OS_TickTaskInit)
    i.OS_TmrInit                             0x08005740   Section        0  os_tmr.o(i.OS_TmrInit)
    i.OS_TmrLink                             0x08005868   Section        0  os_tmr.o(i.OS_TmrLink)
    i.OS_TmrResetPeak                        0x08005938   Section        0  os_tmr.o(i.OS_TmrResetPeak)
    i.OS_TmrTask                             0x0800595c   Section        0  os_tmr.o(i.OS_TmrTask)
    i.OS_TmrUnlink                           0x08005a1c   Section        0  os_tmr.o(i.OS_TmrUnlink)
    i.SVC_Handler                            0x08005a6c   Section        0  stm32f10x_it.o(i.SVC_Handler)
    i.USARTx_Config                          0x08005a70   Section        0  bsp_usart1.o(i.USARTx_Config)
    i.UsageFault_Handler                     0x08005af0   Section        0  stm32f10x_it.o(i.UsageFault_Handler)
    i.__0printf$bare                         0x08005af4   Section        0  printfb.o(i.__0printf$bare)
    i.__scatterload_copy                     0x08005b04   Section       14  handlers.o(i.__scatterload_copy)
    i.__scatterload_null                     0x08005b12   Section        2  handlers.o(i.__scatterload_null)
    i.__scatterload_zeroinit                 0x08005b14   Section       14  handlers.o(i.__scatterload_zeroinit)
    i._printf_core                           0x08005b22   Section        0  printfb.o(i._printf_core)
    _printf_core                             0x08005b23   Thumb Code    34  printfb.o(i._printf_core)
    i.fputc                                  0x08005b44   Section        0  bsp_usart1.o(i.fputc)
    i.main                                   0x08005b68   Section        0  main.o(i.main)
    .constdata                               0x08005bc8   Section      164  os_cfg_app.o(.constdata)
    .constdata                               0x08005c6c   Section      364  os_dbg.o(.constdata)
    .data                                    0x20000000   Section       20  system_stm32f10x.o(.data)
    .data                                    0x20000014   Section       20  stm32f10x_rcc.o(.data)
    APBAHBPrescTable                         0x20000014   Data          16  stm32f10x_rcc.o(.data)
    ADCPrescTable                            0x20000024   Data           4  stm32f10x_rcc.o(.data)
    .data                                    0x20000028   Section       28  cpu_core.o(.data)
    .data                                    0x20000044   Section        4  lib_mem.o(.data)
    .data                                    0x20000048   Section      208  os_var.o(.data)
    .data                                    0x20000118   Section        4  os_cpu_c.o(.data)
    .data                                    0x2000011c   Section        4  os_prio.o(.data)
    .data                                    0x20000120   Section        4  stdout.o(.data)
    .bss                                     0x20000124   Section     7456  main.o(.bss)
    AppTaskStartStk                          0x20000124   Data         512  main.o(.bss)
    AppTaskStartTCB                          0x20000324   Data         200  main.o(.bss)
    AppTaskLed1Stk                           0x200003ec   Data        2048  main.o(.bss)
    AppTaskLed1TCB                           0x20000bec   Data         200  main.o(.bss)
    AppTaskLed2Stk                           0x20000cb4   Data        2048  main.o(.bss)
    AppTaskLed2TCB                           0x200014b4   Data         200  main.o(.bss)
    AppTaskLed3Stk                           0x2000157c   Data        2048  main.o(.bss)
    AppTaskLed3TCB                           0x20001d7c   Data         200  main.o(.bss)
    .bss                                     0x20001e44   Section       16  cpu_core.o(.bss)
    .bss                                     0x20001e54   Section    27720  lib_mem.o(.bss)
    .bss                                     0x20008a9c   Section     5264  os_cfg_app.o(.bss)
    .bss                                     0x20009f2c   Section     1396  os_var.o(.bss)
    STACK                                    0x2000a4a0   Section     1024  startup_stm32f10x_hd.o(STACK)

    Global Symbols

    Symbol Name                              Value     Ov Type        Size  Object(Section)

    BuildAttributes$$THM_ISAv4$P$D$K$B$S$PE$A:L22UL41UL21$X:L11$S22US41US21$IEEE1$IW$USESV6$~STKCKD$USESV7$~SHL$OSPACE$ROPI$EBA8$MICROLIB$REQ8$PRES8$EABIv2 0x00000000   Number         0  anon$$obj.o ABSOLUTE
    __ARM_use_no_argv                        0x00000000   Number         0  main.o ABSOLUTE
    __arm_fini_                               - Undefined Weak Reference
    __cpp_initialize__aeabi_                  - Undefined Weak Reference
    __cxa_finalize                            - Undefined Weak Reference
    __decompress                              - Undefined Weak Reference
    _clock_init                               - Undefined Weak Reference
    _microlib_exit                            - Undefined Weak Reference
    __Vectors_Size                           0x00000130   Number         0  startup_stm32f10x_hd.o ABSOLUTE
    __Vectors                                0x08000000   Data           4  startup_stm32f10x_hd.o(RESET)
    __Vectors_End                            0x08000130   Data           0  startup_stm32f10x_hd.o(RESET)
    __main                                   0x08000131   Thumb Code     0  entry.o(.ARM.Collect$$$$00000000)
    _main_stk                                0x08000131   Thumb Code     0  entry2.o(.ARM.Collect$$$$00000001)
    _main_scatterload                        0x08000135   Thumb Code     0  entry5.o(.ARM.Collect$$$$00000004)
    __main_after_scatterload                 0x08000139   Thumb Code     0  entry5.o(.ARM.Collect$$$$00000004)
    _main_clock                              0x08000139   Thumb Code     0  entry7b.o(.ARM.Collect$$$$00000008)
    _main_cpp_init                           0x08000139   Thumb Code     0  entry8b.o(.ARM.Collect$$$$0000000A)
    _main_init                               0x08000139   Thumb Code     0  entry9a.o(.ARM.Collect$$$$0000000B)
    __rt_lib_shutdown_fini                   0x08000141   Thumb Code     0  entry12b.o(.ARM.Collect$$$$0000000E)
    __rt_final_cpp                           0x08000145   Thumb Code     0  entry10a.o(.ARM.Collect$$$$0000000F)
    __rt_final_exit                          0x08000145   Thumb Code     0  entry11a.o(.ARM.Collect$$$$00000011)
    Reset_Handler                            0x08000149   Thumb Code     8  startup_stm32f10x_hd.o(.text)
    ADC1_2_IRQHandler                        0x08000163   Thumb Code     0  startup_stm32f10x_hd.o(.text)
    ADC3_IRQHandler                          0x08000163   Thumb Code     0  startup_stm32f10x_hd.o(.text)
    CAN1_RX1_IRQHandler                      0x08000163   Thumb Code     0  startup_stm32f10x_hd.o(.text)
    CAN1_SCE_IRQHandler                      0x08000163   Thumb Code     0  startup_stm32f10x_hd.o(.text)
    DMA1_Channel1_IRQHandler                 0x08000163   Thumb Code     0  startup_stm32f10x_hd.o(.text)
    DMA1_Channel2_IRQHandler                 0x08000163   Thumb Code     0  startup_stm32f10x_hd.o(.text)
    DMA1_Channel3_IRQHandler                 0x08000163   Thumb Code     0  startup_stm32f10x_hd.o(.text)
    DMA1_Channel4_IRQHandler                 0x08000163   Thumb Code     0  startup_stm32f10x_hd.o(.text)
    DMA1_Channel5_IRQHandler                 0x08000163   Thumb Code     0  startup_stm32f10x_hd.o(.text)
    DMA1_Channel6_IRQHandler                 0x08000163   Thumb Code     0  startup_stm32f10x_hd.o(.text)
    DMA1_Channel7_IRQHandler                 0x08000163   Thumb Code     0  startup_stm32f10x_hd.o(.text)
    DMA2_Channel1_IRQHandler                 0x08000163   Thumb Code     0  startup_stm32f10x_hd.o(.text)
    DMA2_Channel2_IRQHandler                 0x08000163   Thumb Code     0  startup_stm32f10x_hd.o(.text)
    DMA2_Channel3_IRQHandler                 0x08000163   Thumb Code     0  startup_stm32f10x_hd.o(.text)
    DMA2_Channel4_5_IRQHandler               0x08000163   Thumb Code     0  startup_stm32f10x_hd.o(.text)
    EXTI0_IRQHandler                         0x08000163   Thumb Code     0  startup_stm32f10x_hd.o(.text)
    EXTI15_10_IRQHandler                     0x08000163   Thumb Code     0  startup_stm32f10x_hd.o(.text)
    EXTI1_IRQHandler                         0x08000163   Thumb Code     0  startup_stm32f10x_hd.o(.text)
    EXTI2_IRQHandler                         0x08000163   Thumb Code     0  startup_stm32f10x_hd.o(.text)
    EXTI3_IRQHandler                         0x08000163   Thumb Code     0  startup_stm32f10x_hd.o(.text)
    EXTI4_IRQHandler                         0x08000163   Thumb Code     0  startup_stm32f10x_hd.o(.text)
    EXTI9_5_IRQHandler                       0x08000163   Thumb Code     0  startup_stm32f10x_hd.o(.text)
    FLASH_IRQHandler                         0x08000163   Thumb Code     0  startup_stm32f10x_hd.o(.text)
    FSMC_IRQHandler                          0x08000163   Thumb Code     0  startup_stm32f10x_hd.o(.text)
    I2C1_ER_IRQHandler                       0x08000163   Thumb Code     0  startup_stm32f10x_hd.o(.text)
    I2C1_EV_IRQHandler                       0x08000163   Thumb Code     0  startup_stm32f10x_hd.o(.text)
    I2C2_ER_IRQHandler                       0x08000163   Thumb Code     0  startup_stm32f10x_hd.o(.text)
    I2C2_EV_IRQHandler                       0x08000163   Thumb Code     0  startup_stm32f10x_hd.o(.text)
    PVD_IRQHandler                           0x08000163   Thumb Code     0  startup_stm32f10x_hd.o(.text)
    RCC_IRQHandler                           0x08000163   Thumb Code     0  startup_stm32f10x_hd.o(.text)
    RTCAlarm_IRQHandler                      0x08000163   Thumb Code     0  startup_stm32f10x_hd.o(.text)
    RTC_IRQHandler                           0x08000163   Thumb Code     0  startup_stm32f10x_hd.o(.text)
    SDIO_IRQHandler                          0x08000163   Thumb Code     0  startup_stm32f10x_hd.o(.text)
    SPI1_IRQHandler                          0x08000163   Thumb Code     0  startup_stm32f10x_hd.o(.text)
    SPI2_IRQHandler                          0x08000163   Thumb Code     0  startup_stm32f10x_hd.o(.text)
    SPI3_IRQHandler                          0x08000163   Thumb Code     0  startup_stm32f10x_hd.o(.text)
    TAMPER_IRQHandler                        0x08000163   Thumb Code     0  startup_stm32f10x_hd.o(.text)
    TIM1_BRK_IRQHandler                      0x08000163   Thumb Code     0  startup_stm32f10x_hd.o(.text)
    TIM1_CC_IRQHandler                       0x08000163   Thumb Code     0  startup_stm32f10x_hd.o(.text)
    TIM1_TRG_COM_IRQHandler                  0x08000163   Thumb Code     0  startup_stm32f10x_hd.o(.text)
    TIM1_UP_IRQHandler                       0x08000163   Thumb Code     0  startup_stm32f10x_hd.o(.text)
    TIM2_IRQHandler                          0x08000163   Thumb Code     0  startup_stm32f10x_hd.o(.text)
    TIM3_IRQHandler                          0x08000163   Thumb Code     0  startup_stm32f10x_hd.o(.text)
    TIM4_IRQHandler                          0x08000163   Thumb Code     0  startup_stm32f10x_hd.o(.text)
    TIM5_IRQHandler                          0x08000163   Thumb Code     0  startup_stm32f10x_hd.o(.text)
    TIM6_IRQHandler                          0x08000163   Thumb Code     0  startup_stm32f10x_hd.o(.text)
    TIM7_IRQHandler                          0x08000163   Thumb Code     0  startup_stm32f10x_hd.o(.text)
    TIM8_BRK_IRQHandler                      0x08000163   Thumb Code     0  startup_stm32f10x_hd.o(.text)
    TIM8_CC_IRQHandler                       0x08000163   Thumb Code     0  startup_stm32f10x_hd.o(.text)
    TIM8_TRG_COM_IRQHandler                  0x08000163   Thumb Code     0  startup_stm32f10x_hd.o(.text)
    TIM8_UP_IRQHandler                       0x08000163   Thumb Code     0  startup_stm32f10x_hd.o(.text)
    UART4_IRQHandler                         0x08000163   Thumb Code     0  startup_stm32f10x_hd.o(.text)
    UART5_IRQHandler                         0x08000163   Thumb Code     0  startup_stm32f10x_hd.o(.text)
    USART1_IRQHandler                        0x08000163   Thumb Code     0  startup_stm32f10x_hd.o(.text)
    USART2_IRQHandler                        0x08000163   Thumb Code     0  startup_stm32f10x_hd.o(.text)
    USART3_IRQHandler                        0x08000163   Thumb Code     0  startup_stm32f10x_hd.o(.text)
    USBWakeUp_IRQHandler                     0x08000163   Thumb Code     0  startup_stm32f10x_hd.o(.text)
    USB_HP_CAN1_TX_IRQHandler                0x08000163   Thumb Code     0  startup_stm32f10x_hd.o(.text)
    USB_LP_CAN1_RX0_IRQHandler               0x08000163   Thumb Code     0  startup_stm32f10x_hd.o(.text)
    WWDG_IRQHandler                          0x08000163   Thumb Code     0  startup_stm32f10x_hd.o(.text)
    SystemInit                               0x08000249   Thumb Code    78  system_stm32f10x.o(.text)
    SystemCoreClockUpdate                    0x08000297   Thumb Code   142  system_stm32f10x.o(.text)
    GPIO_DeInit                              0x08000349   Thumb Code   172  stm32f10x_gpio.o(.text)
    GPIO_AFIODeInit                          0x080003f5   Thumb Code    20  stm32f10x_gpio.o(.text)
    GPIO_Init                                0x08000409   Thumb Code   274  stm32f10x_gpio.o(.text)
    GPIO_StructInit                          0x0800051b   Thumb Code    16  stm32f10x_gpio.o(.text)
    GPIO_ReadInputDataBit                    0x0800052b   Thumb Code    18  stm32f10x_gpio.o(.text)
    GPIO_ReadInputData                       0x0800053d   Thumb Code     8  stm32f10x_gpio.o(.text)
    GPIO_ReadOutputDataBit                   0x08000545   Thumb Code    18  stm32f10x_gpio.o(.text)
    GPIO_ReadOutputData                      0x08000557   Thumb Code     8  stm32f10x_gpio.o(.text)
    GPIO_SetBits                             0x0800055f   Thumb Code     4  stm32f10x_gpio.o(.text)
    GPIO_ResetBits                           0x08000563   Thumb Code     4  stm32f10x_gpio.o(.text)
    GPIO_WriteBit                            0x08000567   Thumb Code    10  stm32f10x_gpio.o(.text)
    GPIO_Write                               0x08000571   Thumb Code     4  stm32f10x_gpio.o(.text)
    GPIO_PinLockConfig                       0x08000575   Thumb Code    18  stm32f10x_gpio.o(.text)
    GPIO_EventOutputConfig                   0x08000587   Thumb Code    26  stm32f10x_gpio.o(.text)
    GPIO_EventOutputCmd                      0x080005a1   Thumb Code     6  stm32f10x_gpio.o(.text)
    GPIO_PinRemapConfig                      0x080005a7   Thumb Code   138  stm32f10x_gpio.o(.text)
    GPIO_EXTILineConfig                      0x08000631   Thumb Code    66  stm32f10x_gpio.o(.text)
    GPIO_ETH_MediaInterfaceConfig            0x08000673   Thumb Code     6  stm32f10x_gpio.o(.text)
    RCC_DeInit                               0x080006a1   Thumb Code    64  stm32f10x_rcc.o(.text)
    RCC_HSEConfig                            0x080006e1   Thumb Code    70  stm32f10x_rcc.o(.text)
    RCC_GetFlagStatus                        0x08000727   Thumb Code    56  stm32f10x_rcc.o(.text)
    RCC_WaitForHSEStartUp                    0x0800075f   Thumb Code    56  stm32f10x_rcc.o(.text)
    RCC_AdjustHSICalibrationValue            0x08000797   Thumb Code    20  stm32f10x_rcc.o(.text)
    RCC_HSICmd                               0x080007ab   Thumb Code     6  stm32f10x_rcc.o(.text)
    RCC_PLLConfig                            0x080007b1   Thumb Code    24  stm32f10x_rcc.o(.text)
    RCC_PLLCmd                               0x080007c9   Thumb Code     6  stm32f10x_rcc.o(.text)
    RCC_SYSCLKConfig                         0x080007cf   Thumb Code    18  stm32f10x_rcc.o(.text)
    RCC_GetSYSCLKSource                      0x080007e1   Thumb Code    10  stm32f10x_rcc.o(.text)
    RCC_HCLKConfig                           0x080007eb   Thumb Code    18  stm32f10x_rcc.o(.text)
    RCC_PCLK1Config                          0x080007fd   Thumb Code    18  stm32f10x_rcc.o(.text)
    RCC_PCLK2Config                          0x0800080f   Thumb Code    20  stm32f10x_rcc.o(.text)
    RCC_ITConfig                             0x08000823   Thumb Code    26  stm32f10x_rcc.o(.text)
    RCC_USBCLKConfig                         0x0800083d   Thumb Code     6  stm32f10x_rcc.o(.text)
    RCC_ADCCLKConfig                         0x08000843   Thumb Code    18  stm32f10x_rcc.o(.text)
    RCC_LSEConfig                            0x08000855   Thumb Code    44  stm32f10x_rcc.o(.text)
    RCC_LSICmd                               0x08000881   Thumb Code     6  stm32f10x_rcc.o(.text)
    RCC_RTCCLKConfig                         0x08000887   Thumb Code    12  stm32f10x_rcc.o(.text)
    RCC_RTCCLKCmd                            0x08000893   Thumb Code     8  stm32f10x_rcc.o(.text)
    RCC_GetClocksFreq                        0x0800089b   Thumb Code   192  stm32f10x_rcc.o(.text)
    RCC_AHBPeriphClockCmd                    0x0800095b   Thumb Code    26  stm32f10x_rcc.o(.text)
    RCC_APB2PeriphClockCmd                   0x08000975   Thumb Code    26  stm32f10x_rcc.o(.text)
    RCC_APB1PeriphClockCmd                   0x0800098f   Thumb Code    26  stm32f10x_rcc.o(.text)
    RCC_APB2PeriphResetCmd                   0x080009a9   Thumb Code    26  stm32f10x_rcc.o(.text)
    RCC_APB1PeriphResetCmd                   0x080009c3   Thumb Code    26  stm32f10x_rcc.o(.text)
    RCC_BackupResetCmd                       0x080009dd   Thumb Code     8  stm32f10x_rcc.o(.text)
    RCC_ClockSecuritySystemCmd               0x080009e5   Thumb Code     6  stm32f10x_rcc.o(.text)
    RCC_MCOConfig                            0x080009eb   Thumb Code     6  stm32f10x_rcc.o(.text)
    RCC_ClearFlag                            0x080009f1   Thumb Code    14  stm32f10x_rcc.o(.text)
    RCC_GetITStatus                          0x080009ff   Thumb Code    20  stm32f10x_rcc.o(.text)
    RCC_ClearITPendingBit                    0x08000a13   Thumb Code     6  stm32f10x_rcc.o(.text)
    USART_DeInit                             0x08000a45   Thumb Code   134  stm32f10x_usart.o(.text)
    USART_Init                               0x08000acb   Thumb Code   210  stm32f10x_usart.o(.text)
    USART_StructInit                         0x08000b9d   Thumb Code    24  stm32f10x_usart.o(.text)
    USART_ClockInit                          0x08000bb5   Thumb Code    34  stm32f10x_usart.o(.text)
    USART_ClockStructInit                    0x08000bd7   Thumb Code    12  stm32f10x_usart.o(.text)
    USART_Cmd                                0x08000be3   Thumb Code    24  stm32f10x_usart.o(.text)
    USART_ITConfig                           0x08000bfb   Thumb Code    74  stm32f10x_usart.o(.text)
    USART_DMACmd                             0x08000c45   Thumb Code    18  stm32f10x_usart.o(.text)
    USART_SetAddress                         0x08000c57   Thumb Code    18  stm32f10x_usart.o(.text)
    USART_WakeUpConfig                       0x08000c69   Thumb Code    18  stm32f10x_usart.o(.text)
    USART_ReceiverWakeUpCmd                  0x08000c7b   Thumb Code    24  stm32f10x_usart.o(.text)
    USART_LINBreakDetectLengthConfig         0x08000c93   Thumb Code    18  stm32f10x_usart.o(.text)
    USART_LINCmd                             0x08000ca5   Thumb Code    24  stm32f10x_usart.o(.text)
    USART_SendData                           0x08000cbd   Thumb Code     8  stm32f10x_usart.o(.text)
    USART_ReceiveData                        0x08000cc5   Thumb Code    10  stm32f10x_usart.o(.text)
    USART_SendBreak                          0x08000ccf   Thumb Code    10  stm32f10x_usart.o(.text)
    USART_SetGuardTime                       0x08000cd9   Thumb Code    16  stm32f10x_usart.o(.text)
    USART_SetPrescaler                       0x08000ce9   Thumb Code    16  stm32f10x_usart.o(.text)
    USART_SmartCardCmd                       0x08000cf9   Thumb Code    24  stm32f10x_usart.o(.text)
    USART_SmartCardNACKCmd                   0x08000d11   Thumb Code    24  stm32f10x_usart.o(.text)
    USART_HalfDuplexCmd                      0x08000d29   Thumb Code    24  stm32f10x_usart.o(.text)
    USART_OverSampling8Cmd                   0x08000d41   Thumb Code    22  stm32f10x_usart.o(.text)
    USART_OneBitMethodCmd                    0x08000d57   Thumb Code    24  stm32f10x_usart.o(.text)
    USART_IrDAConfig                         0x08000d6f   Thumb Code    18  stm32f10x_usart.o(.text)
    USART_IrDACmd                            0x08000d81   Thumb Code    24  stm32f10x_usart.o(.text)
    USART_GetFlagStatus                      0x08000d99   Thumb Code    26  stm32f10x_usart.o(.text)
    USART_ClearFlag                          0x08000db3   Thumb Code    18  stm32f10x_usart.o(.text)
    USART_GetITStatus                        0x08000dc5   Thumb Code    84  stm32f10x_usart.o(.text)
    USART_ClearITPendingBit                  0x08000e19   Thumb Code    52  stm32f10x_usart.o(.text)
    CPU_IntDis                               0x08000e4d   Thumb Code     0  cpu_a.o(.text)
    CPU_IntEn                                0x08000e51   Thumb Code     0  cpu_a.o(.text)
    CPU_SR_Save                              0x08000e55   Thumb Code     0  cpu_a.o(.text)
    CPU_SR_Restore                           0x08000e5d   Thumb Code     0  cpu_a.o(.text)
    CPU_WaitForInt                           0x08000e63   Thumb Code     0  cpu_a.o(.text)
    CPU_WaitForExcept                        0x08000e67   Thumb Code     0  cpu_a.o(.text)
    CPU_CntLeadZeros                         0x08000e6b   Thumb Code     0  cpu_a.o(.text)
    CPU_CntTrailZeros                        0x08000e71   Thumb Code     0  cpu_a.o(.text)
    CPU_RevBits                              0x08000e7b   Thumb Code     0  cpu_a.o(.text)
    __scatterload                            0x08000e81   Thumb Code    28  init.o(.text)
    __scatterload_rt2                        0x08000e81   Thumb Code     0  init.o(.text)
    OSStartHighRdy                           0x08000ea5   Thumb Code     0  os_cpu_a.o(CODE)
    OS_CPU_PendSVHandler                     0x08000ec7   Thumb Code     0  os_cpu_a.o(CODE)
    BSP_CPU_ClkFreq                          0x0800120d   Thumb Code    16  bsp.o(i.BSP_CPU_ClkFreq)
    BSP_Init                                 0x0800121d   Thumb Code    12  bsp.o(i.BSP_Init)
    BusFault_Handler                         0x08001229   Thumb Code     4  stm32f10x_it.o(i.BusFault_Handler)
    CPU_Init                                 0x0800122d   Thumb Code    16  cpu_core.o(i.CPU_Init)
    CPU_IntDisMeasMaxCurGet                  0x080012dd   Thumb Code    40  cpu_core.o(i.CPU_IntDisMeasMaxCurGet)
    CPU_IntDisMeasMaxCurReset                0x08001309   Thumb Code    40  cpu_core.o(i.CPU_IntDisMeasMaxCurReset)
    CPU_IntDisMeasMaxGet                     0x08001335   Thumb Code    40  cpu_core.o(i.CPU_IntDisMeasMaxGet)
    CPU_IntDisMeasStart                      0x08001361   Thumb Code    38  cpu_core.o(i.CPU_IntDisMeasStart)
    CPU_IntDisMeasStop                       0x08001395   Thumb Code    62  cpu_core.o(i.CPU_IntDisMeasStop)
    CPU_NameClr                              0x080013e9   Thumb Code    50  cpu_core.o(i.CPU_NameClr)
    CPU_TS_TmrFreqSet                        0x0800143d   Thumb Code     6  cpu_core.o(i.CPU_TS_TmrFreqSet)
    CPU_TS_TmrInit                           0x08001449   Thumb Code    44  bsp.o(i.CPU_TS_TmrInit)
    CPU_TS_TmrRd                             0x0800147d   Thumb Code     6  bsp.o(i.CPU_TS_TmrRd)
    DebugMon_Handler                         0x08001489   Thumb Code     2  stm32f10x_it.o(i.DebugMon_Handler)
    HardFault_Handler                        0x0800148b   Thumb Code     4  stm32f10x_it.o(i.HardFault_Handler)
    LED_Init                                 0x080014e9   Thumb Code    32  bsp_led.o(i.LED_Init)
    MemManage_Handler                        0x0800150d   Thumb Code     4  stm32f10x_it.o(i.MemManage_Handler)
    Mem_Clr                                  0x08001511   Thumb Code    18  lib_mem.o(i.Mem_Clr)
    Mem_Init                                 0x08001525   Thumb Code    54  lib_mem.o(i.Mem_Init)
    Mem_Set                                  0x0800156d   Thumb Code    98  lib_mem.o(i.Mem_Set)
    NMI_Handler                              0x080015cf   Thumb Code     2  stm32f10x_it.o(i.NMI_Handler)
    OSCfg_Init                               0x080015d1   Thumb Code     2  os_cfg_app.o(i.OSCfg_Init)
    OSIdleTaskHook                           0x080015d5   Thumb Code    16  os_cpu_c.o(i.OSIdleTaskHook)
    OSInit                                   0x080015e9   Thumb Code   300  os_core.o(i.OSInit)
    OSInitHook                               0x08001775   Thumb Code    42  os_cpu_c.o(i.OSInitHook)
    OSIntExit                                0x080017ad   Thumb Code   192  os_core.o(i.OSIntExit)
    OSSched                                  0x08001891   Thumb Code   134  os_core.o(i.OSSched)
    OSSchedLock                              0x08001939   Thumb Code   112  os_core.o(i.OSSchedLock)
    OSSchedRoundRobinCfg                     0x080019b5   Thumb Code    96  os_core.o(i.OSSchedRoundRobinCfg)
    OSSchedUnlock                            0x08001a21   Thumb Code   148  os_core.o(i.OSSchedUnlock)
    OSStart                                  0x08001ac1   Thumb Code    78  os_core.o(i.OSStart)
    OSStatReset                              0x08001b29   Thumb Code   316  os_stat.o(i.OSStatReset)
    OSStatTaskCPUUsageInit                   0x08001c91   Thumb Code   228  os_stat.o(i.OSStatTaskCPUUsageInit)
    OSStatTaskHook                           0x08001d91   Thumb Code    16  os_cpu_c.o(i.OSStatTaskHook)
    OSTaskCreate                             0x08001da5   Thumb Code   624  os_task.o(i.OSTaskCreate)
    OSTaskCreateHook                         0x08002039   Thumb Code    20  os_cpu_c.o(i.OSTaskCreateHook)
    OSTaskDel                                0x08002051   Thumb Code   490  os_task.o(i.OSTaskDel)
    OSTaskDelHook                            0x08002259   Thumb Code    20  os_cpu_c.o(i.OSTaskDelHook)
    OSTaskRegGet                             0x08002271   Thumb Code    86  os_task.o(i.OSTaskRegGet)
    OSTaskRegSet                             0x080022cd   Thumb Code    86  os_task.o(i.OSTaskRegSet)
    OSTaskResume                             0x08002329   Thumb Code   124  os_task.o(i.OSTaskResume)
    OSTaskReturnHook                         0x080023b1   Thumb Code    20  os_cpu_c.o(i.OSTaskReturnHook)
    OSTaskSemPend                            0x080023c9   Thumb Code   578  os_task.o(i.OSTaskSemPend)
    OSTaskStkChk                             0x08002619   Thumb Code   220  os_task.o(i.OSTaskStkChk)
    OSTaskStkInit                            0x080026fd   Thumb Code   188  os_cpu_c.o(i.OSTaskStkInit)
    OSTaskSuspend                            0x080027bd   Thumb Code    78  os_task.o(i.OSTaskSuspend)
    OSTaskSwHook                             0x0800281d   Thumb Code   146  os_cpu_c.o(i.OSTaskSwHook)
    OSTimeDly                                0x080028c1   Thumb Code   322  os_time.o(i.OSTimeDly)
    OSTimeTick                               0x08002a11   Thumb Code    54  os_time.o(i.OSTimeTick)
    OSTimeTickHook                           0x08002a55   Thumb Code    16  os_cpu_c.o(i.OSTimeTickHook)
    OS_CPU_SysTickHandler                    0x08002a69   Thumb Code    60  os_cpu_c.o(i.OS_CPU_SysTickHandler)
    OS_CPU_SysTickInit                       0x08002aa9   Thumb Code    44  os_cpu_c.o(i.OS_CPU_SysTickInit)
    OS_Dbg_Init                              0x08002ad9   Thumb Code   150  os_dbg.o(i.OS_Dbg_Init)
    OS_FlagInit                              0x08002c8d   Thumb Code    14  os_flag.o(i.OS_FlagInit)
    OS_FlagPost                              0x08002ca5   Thumb Code   626  os_flag.o(i.OS_FlagPost)
    OS_FlagTaskRdy                           0x08002f21   Thumb Code    86  os_flag.o(i.OS_FlagTaskRdy)
    OS_IdleTask                              0x08002f79   Thumb Code    68  os_core.o(i.OS_IdleTask)
    OS_IdleTaskInit                          0x08002fc5   Thumb Code    66  os_core.o(i.OS_IdleTaskInit)
    OS_IntQPost                              0x08003035   Thumb Code   224  os_int.o(i.OS_IntQPost)
    OS_IntQRePost                            0x08003139   Thumb Code   360  os_int.o(i.OS_IntQRePost)
    OS_IntQTask                              0x080032dd   Thumb Code   182  os_int.o(i.OS_IntQTask)
    OS_IntQTaskInit                          0x080033a5   Thumb Code   206  os_int.o(i.OS_IntQTaskInit)
    OS_MemInit                               0x080034cd   Thumb Code    14  os_mem.o(i.OS_MemInit)
    OS_MsgPoolInit                           0x080034e5   Thumb Code   110  os_msg.o(i.OS_MsgPoolInit)
    OS_MsgQFreeAll                           0x08003561   Thumb Code    62  os_msg.o(i.OS_MsgQFreeAll)
    OS_MsgQInit                              0x080035a5   Thumb Code    14  os_msg.o(i.OS_MsgQInit)
    OS_MsgQPut                               0x080035b5   Thumb Code   254  os_msg.o(i.OS_MsgQPut)
    OS_MutexInit                             0x080036b9   Thumb Code    14  os_mutex.o(i.OS_MutexInit)
    OS_Pend                                  0x080036d1   Thumb Code    98  os_core.o(i.OS_Pend)
    OS_PendDataInit                          0x08003739   Thumb Code    38  os_core.o(i.OS_PendDataInit)
    OS_PendDbgNameAdd                        0x08003761   Thumb Code    66  os_core.o(i.OS_PendDbgNameAdd)
    OS_PendDbgNameRemove                     0x080037bd   Thumb Code    30  os_core.o(i.OS_PendDbgNameRemove)
    OS_PendListInsertPrio                    0x080037e1   Thumb Code   102  os_core.o(i.OS_PendListInsertPrio)
    OS_PendListRemove                        0x08003847   Thumb Code    48  os_core.o(i.OS_PendListRemove)
    OS_PendListRemove1                       0x08003877   Thumb Code    66  os_core.o(i.OS_PendListRemove1)
    OS_Post                                  0x080038b9   Thumb Code   192  os_core.o(i.OS_Post)
    OS_Post1                                 0x08003979   Thumb Code    42  os_core.o(i.OS_Post1)
    OS_PrioGetHighest                        0x080039a5   Thumb Code    36  os_prio.o(i.OS_PrioGetHighest)
    OS_PrioInit                              0x080039cd   Thumb Code    20  os_prio.o(i.OS_PrioInit)
    OS_PrioInsert                            0x080039e5   Thumb Code    32  os_prio.o(i.OS_PrioInsert)
    OS_PrioRemove                            0x08003a09   Thumb Code    32  os_prio.o(i.OS_PrioRemove)
    OS_QInit                                 0x08003a2d   Thumb Code    14  os_q.o(i.OS_QInit)
    OS_QPost                                 0x08003a45   Thumb Code   382  os_q.o(i.OS_QPost)
    OS_RdyListInit                           0x08003bcd   Thumb Code    32  os_core.o(i.OS_RdyListInit)
    OS_RdyListInsert                         0x08003bf1   Thumb Code    40  os_core.o(i.OS_RdyListInsert)
    OS_RdyListInsertHead                     0x08003c1d   Thumb Code    58  os_core.o(i.OS_RdyListInsertHead)
    OS_RdyListInsertTail                     0x08003c5d   Thumb Code    56  os_core.o(i.OS_RdyListInsertTail)
    OS_RdyListMoveHeadToTail                 0x08003c99   Thumb Code    68  os_core.o(i.OS_RdyListMoveHeadToTail)
    OS_RdyListRemove                         0x08003cdd   Thumb Code    86  os_core.o(i.OS_RdyListRemove)
    OS_Sched0                                0x08003d39   Thumb Code    72  os_core.o(i.OS_Sched0)
    OS_SchedLockTimeMeasStart                0x08003d95   Thumb Code    20  os_core.o(i.OS_SchedLockTimeMeasStart)
    OS_SchedLockTimeMeasStop                 0x08003db1   Thumb Code    44  os_core.o(i.OS_SchedLockTimeMeasStop)
    OS_SchedRoundRobin                       0x08003ded   Thumb Code   218  os_core.o(i.OS_SchedRoundRobin)
    OS_SemInit                               0x08003ed9   Thumb Code    14  os_sem.o(i.OS_SemInit)
    OS_SemPost                               0x08003ef1   Thumb Code   404  os_sem.o(i.OS_SemPost)
    OS_StatTask                              0x08004089   Thumb Code   878  os_stat.o(i.OS_StatTask)
    OS_StatTaskInit                          0x08004441   Thumb Code   136  os_stat.o(i.OS_StatTaskInit)
    OS_TaskBlock                             0x0800450d   Thumb Code    56  os_core.o(i.OS_TaskBlock)
    OS_TaskDbgListAdd                        0x08004545   Thumb Code    42  os_task.o(i.OS_TaskDbgListAdd)
    OS_TaskDbgListRemove                     0x08004575   Thumb Code    64  os_task.o(i.OS_TaskDbgListRemove)
    OS_TaskInit                              0x080045b9   Thumb Code    18  os_task.o(i.OS_TaskInit)
    OS_TaskInitTCB                           0x080045d9   Thumb Code   194  os_task.o(i.OS_TaskInitTCB)
    OS_TaskQPost                             0x080046a9   Thumb Code   606  os_task.o(i.OS_TaskQPost)
    OS_TaskRdy                               0x08004915   Thumb Code    28  os_core.o(i.OS_TaskRdy)
    OS_TaskResume                            0x08004931   Thumb Code   374  os_task.o(i.OS_TaskResume)
    OS_TaskReturn                            0x08004aad   Thumb Code    20  os_task.o(i.OS_TaskReturn)
    OS_TaskSemPost                           0x08004ac5   Thumb Code  1438  os_task.o(i.OS_TaskSemPost)
    OS_TaskSuspend                           0x0800506d   Thumb Code   392  os_task.o(i.OS_TaskSuspend)
    OS_TickListInit                          0x080051fd   Thumb Code    32  os_tick.o(i.OS_TickListInit)
    OS_TickListInsert                        0x08005225   Thumb Code   430  os_tick.o(i.OS_TickListInsert)
    OS_TickListRemove                        0x080053e1   Thumb Code    56  os_tick.o(i.OS_TickListRemove)
    OS_TickListResetPeak                     0x08005419   Thumb Code    28  os_tick.o(i.OS_TickListResetPeak)
    OS_TickListUpdate                        0x0800543d   Thumb Code   520  os_tick.o(i.OS_TickListUpdate)
    OS_TickTask                              0x0800565d   Thumb Code    38  os_tick.o(i.OS_TickTask)
    OS_TickTaskInit                          0x08005689   Thumb Code   128  os_tick.o(i.OS_TickTaskInit)
    OS_TmrInit                               0x08005741   Thumb Code   206  os_tmr.o(i.OS_TmrInit)
    OS_TmrLink                               0x08005869   Thumb Code   196  os_tmr.o(i.OS_TmrLink)
    OS_TmrResetPeak                          0x08005939   Thumb Code    28  os_tmr.o(i.OS_TmrResetPeak)
    OS_TmrTask                               0x0800595d   Thumb Code   176  os_tmr.o(i.OS_TmrTask)
    OS_TmrUnlink                             0x08005a1d   Thumb Code    72  os_tmr.o(i.OS_TmrUnlink)
    SVC_Handler                              0x08005a6d   Thumb Code     2  stm32f10x_it.o(i.SVC_Handler)
    USARTx_Config                            0x08005a71   Thumb Code   120  bsp_usart1.o(i.USARTx_Config)
    UsageFault_Handler                       0x08005af1   Thumb Code     4  stm32f10x_it.o(i.UsageFault_Handler)
    __0printf$bare                           0x08005af5   Thumb Code     8  printfb.o(i.__0printf$bare)
    __1printf$bare                           0x08005af5   Thumb Code     0  printfb.o(i.__0printf$bare)
    __2printf                                0x08005af5   Thumb Code     0  printfb.o(i.__0printf$bare)
    __scatterload_copy                       0x08005b05   Thumb Code    14  handlers.o(i.__scatterload_copy)
    __scatterload_null                       0x08005b13   Thumb Code     2  handlers.o(i.__scatterload_null)
    __scatterload_zeroinit                   0x08005b15   Thumb Code    14  handlers.o(i.__scatterload_zeroinit)
    fputc                                    0x08005b45   Thumb Code    32  bsp_usart1.o(i.fputc)
    main                                     0x08005b69   Thumb Code    68  main.o(i.main)
    OSCfg_IdleTaskStkBasePtr                 0x08005bc8   Data           4  os_cfg_app.o(.constdata)
    OSCfg_IdleTaskStkLimit                   0x08005bcc   Data           4  os_cfg_app.o(.constdata)
    OSCfg_IdleTaskStkSize                    0x08005bd0   Data           4  os_cfg_app.o(.constdata)
    OSCfg_IdleTaskStkSizeRAM                 0x08005bd4   Data           4  os_cfg_app.o(.constdata)
    OSCfg_IntQBasePtr                        0x08005bd8   Data           4  os_cfg_app.o(.constdata)
    OSCfg_IntQSize                           0x08005bdc   Data           2  os_cfg_app.o(.constdata)
    OSCfg_IntQSizeRAM                        0x08005be0   Data           4  os_cfg_app.o(.constdata)
    OSCfg_IntQTaskStkBasePtr                 0x08005be4   Data           4  os_cfg_app.o(.constdata)
    OSCfg_IntQTaskStkLimit                   0x08005be8   Data           4  os_cfg_app.o(.constdata)
    OSCfg_IntQTaskStkSize                    0x08005bec   Data           4  os_cfg_app.o(.constdata)
    OSCfg_IntQTaskStkSizeRAM                 0x08005bf0   Data           4  os_cfg_app.o(.constdata)
    OSCfg_ISRStkBasePtr                      0x08005bf4   Data           4  os_cfg_app.o(.constdata)
    OSCfg_ISRStkSize                         0x08005bf8   Data           4  os_cfg_app.o(.constdata)
    OSCfg_ISRStkSizeRAM                      0x08005bfc   Data           4  os_cfg_app.o(.constdata)
    OSCfg_MsgPoolSize                        0x08005c00   Data           2  os_cfg_app.o(.constdata)
    OSCfg_MsgPoolSizeRAM                     0x08005c04   Data           4  os_cfg_app.o(.constdata)
    OSCfg_MsgPoolBasePtr                     0x08005c08   Data           4  os_cfg_app.o(.constdata)
    OSCfg_StatTaskPrio                       0x08005c0c   Data           1  os_cfg_app.o(.constdata)
    OSCfg_StatTaskRate_Hz                    0x08005c10   Data           4  os_cfg_app.o(.constdata)
    OSCfg_StatTaskStkBasePtr                 0x08005c14   Data           4  os_cfg_app.o(.constdata)
    OSCfg_StatTaskStkLimit                   0x08005c18   Data           4  os_cfg_app.o(.constdata)
    OSCfg_StatTaskStkSize                    0x08005c1c   Data           4  os_cfg_app.o(.constdata)
    OSCfg_StatTaskStkSizeRAM                 0x08005c20   Data           4  os_cfg_app.o(.constdata)
    OSCfg_StkSizeMin                         0x08005c24   Data           4  os_cfg_app.o(.constdata)
    OSCfg_TickRate_Hz                        0x08005c28   Data           4  os_cfg_app.o(.constdata)
    OSCfg_TickTaskPrio                       0x08005c2c   Data           1  os_cfg_app.o(.constdata)
    OSCfg_TickTaskStkBasePtr                 0x08005c30   Data           4  os_cfg_app.o(.constdata)
    OSCfg_TickTaskStkLimit                   0x08005c34   Data           4  os_cfg_app.o(.constdata)
    OSCfg_TickTaskStkSize                    0x08005c38   Data           4  os_cfg_app.o(.constdata)
    OSCfg_TickTaskStkSizeRAM                 0x08005c3c   Data           4  os_cfg_app.o(.constdata)
    OSCfg_TickWheelSize                      0x08005c40   Data           2  os_cfg_app.o(.constdata)
    OSCfg_TickWheelSizeRAM                   0x08005c44   Data           4  os_cfg_app.o(.constdata)
    OSCfg_TmrTaskPrio                        0x08005c48   Data           1  os_cfg_app.o(.constdata)
    OSCfg_TmrTaskRate_Hz                     0x08005c4c   Data           4  os_cfg_app.o(.constdata)
    OSCfg_TmrTaskStkBasePtr                  0x08005c50   Data           4  os_cfg_app.o(.constdata)
    OSCfg_TmrTaskStkLimit                    0x08005c54   Data           4  os_cfg_app.o(.constdata)
    OSCfg_TmrTaskStkSize                     0x08005c58   Data           4  os_cfg_app.o(.constdata)
    OSCfg_TmrTaskStkSizeRAM                  0x08005c5c   Data           4  os_cfg_app.o(.constdata)
    OSCfg_TmrWheelSize                       0x08005c60   Data           2  os_cfg_app.o(.constdata)
    OSCfg_TmrWheelSizeRAM                    0x08005c64   Data           4  os_cfg_app.o(.constdata)
    OSCfg_DataSizeRAM                        0x08005c68   Data           4  os_cfg_app.o(.constdata)
    OSDbg_DbgEn                              0x08005c6c   Data           1  os_dbg.o(.constdata)
    OSDbg_ArgChkEn                           0x08005c6d   Data           1  os_dbg.o(.constdata)
    OSDbg_AppHooksEn                         0x08005c6e   Data           1  os_dbg.o(.constdata)
    OSDbg_EndiannessTest                     0x08005c70   Data           4  os_dbg.o(.constdata)
    OSDbg_CalledFromISRChkEn                 0x08005c74   Data           1  os_dbg.o(.constdata)
    OSDbg_FlagEn                             0x08005c75   Data           1  os_dbg.o(.constdata)
    OSDbg_FlagGrp                            0x08005c78   Data          40  os_dbg.o(.constdata)
    OSDbg_FlagDelEn                          0x08005ca0   Data           1  os_dbg.o(.constdata)
    OSDbg_FlagModeClrEn                      0x08005ca1   Data           1  os_dbg.o(.constdata)
    OSDbg_FlagPendAbortEn                    0x08005ca2   Data           1  os_dbg.o(.constdata)
    OSDbg_FlagGrpSize                        0x08005ca4   Data           2  os_dbg.o(.constdata)
    OSDbg_FlagWidth                          0x08005ca6   Data           2  os_dbg.o(.constdata)
    OSDbg_IntQ                               0x08005ca8   Data           2  os_dbg.o(.constdata)
    OSDbg_ISRPostDeferredEn                  0x08005caa   Data           1  os_dbg.o(.constdata)
    OSDbg_Mem                                0x08005cac   Data          32  os_dbg.o(.constdata)
    OSDbg_MemEn                              0x08005ccc   Data           1  os_dbg.o(.constdata)
    OSDbg_MemSize                            0x08005cce   Data           2  os_dbg.o(.constdata)
    OSDbg_MsgEn                              0x08005cd0   Data           1  os_dbg.o(.constdata)
    OSDbg_MsgSize                            0x08005cd2   Data           2  os_dbg.o(.constdata)
    OSDbg_MsgPoolSize                        0x08005cd4   Data           2  os_dbg.o(.constdata)
    OSDbg_MsgQSize                           0x08005cd6   Data           2  os_dbg.o(.constdata)
    OSDbg_Mutex                              0x08005cd8   Data          44  os_dbg.o(.constdata)
    OSDbg_MutexEn                            0x08005d04   Data           1  os_dbg.o(.constdata)
    OSDbg_MutexDelEn                         0x08005d05   Data           1  os_dbg.o(.constdata)
    OSDbg_MutexPendAbortEn                   0x08005d06   Data           1  os_dbg.o(.constdata)
    OSDbg_MutexSize                          0x08005d08   Data           2  os_dbg.o(.constdata)
    OSDbg_ObjTypeChkEn                       0x08005d0a   Data           1  os_dbg.o(.constdata)
    OSDbg_PendMultiEn                        0x08005d0b   Data           1  os_dbg.o(.constdata)
    OSDbg_PendDataSize                       0x08005d0c   Data           2  os_dbg.o(.constdata)
    OSDbg_PendListSize                       0x08005d0e   Data           2  os_dbg.o(.constdata)
    OSDbg_PendObjSize                        0x08005d10   Data           2  os_dbg.o(.constdata)
    OSDbg_PrioMax                            0x08005d12   Data           2  os_dbg.o(.constdata)
    OSDbg_PrioTblSize                        0x08005d14   Data           2  os_dbg.o(.constdata)
    OSDbg_PtrSize                            0x08005d16   Data           2  os_dbg.o(.constdata)
    OSDbg_Q                                  0x08005d18   Data          48  os_dbg.o(.constdata)
    OSDbg_QEn                                0x08005d48   Data           1  os_dbg.o(.constdata)
    OSDbg_QDelEn                             0x08005d49   Data           1  os_dbg.o(.constdata)
    OSDbg_QFlushEn                           0x08005d4a   Data           1  os_dbg.o(.constdata)
    OSDbg_QPendAbortEn                       0x08005d4b   Data           1  os_dbg.o(.constdata)
    OSDbg_QSize                              0x08005d4c   Data           2  os_dbg.o(.constdata)
    OSDbg_SchedRoundRobinEn                  0x08005d4e   Data           1  os_dbg.o(.constdata)
    OSDbg_Sem                                0x08005d50   Data          40  os_dbg.o(.constdata)
    OSDbg_SemEn                              0x08005d78   Data           1  os_dbg.o(.constdata)
    OSDbg_SemDelEn                           0x08005d79   Data           1  os_dbg.o(.constdata)
    OSDbg_SemPendAbortEn                     0x08005d7a   Data           1  os_dbg.o(.constdata)
    OSDbg_SemSetEn                           0x08005d7b   Data           1  os_dbg.o(.constdata)
    OSDbg_SemSize                            0x08005d7c   Data           2  os_dbg.o(.constdata)
    OSDbg_RdyList                            0x08005d7e   Data           2  os_dbg.o(.constdata)
    OSDbg_RdyListSize                        0x08005d80   Data           4  os_dbg.o(.constdata)
    OSDbg_StkWidth                           0x08005d84   Data           1  os_dbg.o(.constdata)
    OSDbg_StatTaskEn                         0x08005d85   Data           1  os_dbg.o(.constdata)
    OSDbg_StatTaskStkChkEn                   0x08005d86   Data           1  os_dbg.o(.constdata)
    OSDbg_TaskChangePrioEn                   0x08005d87   Data           1  os_dbg.o(.constdata)
    OSDbg_TaskDelEn                          0x08005d88   Data           1  os_dbg.o(.constdata)
    OSDbg_TaskQEn                            0x08005d89   Data           1  os_dbg.o(.constdata)
    OSDbg_TaskQPendAbortEn                   0x08005d8a   Data           1  os_dbg.o(.constdata)
    OSDbg_TaskProfileEn                      0x08005d8b   Data           1  os_dbg.o(.constdata)
    OSDbg_TaskRegTblSize                     0x08005d8c   Data           2  os_dbg.o(.constdata)
    OSDbg_TaskSemPendAbortEn                 0x08005d8e   Data           1  os_dbg.o(.constdata)
    OSDbg_TaskSuspendEn                      0x08005d8f   Data           1  os_dbg.o(.constdata)
    OSDbg_TCBSize                            0x08005d90   Data           2  os_dbg.o(.constdata)
    OSDbg_TickSpokeSize                      0x08005d92   Data           2  os_dbg.o(.constdata)
    OSDbg_TimeDlyHMSMEn                      0x08005d94   Data           1  os_dbg.o(.constdata)
    OSDbg_TimeDlyResumeEn                    0x08005d95   Data           1  os_dbg.o(.constdata)
    OSDbg_TLS_TblSize                        0x08005d96   Data           2  os_dbg.o(.constdata)
    OSDbg_Tmr                                0x08005d98   Data          52  os_dbg.o(.constdata)
    OSDbg_TmrEn                              0x08005dcc   Data           1  os_dbg.o(.constdata)
    OSDbg_TmrDelEn                           0x08005dcd   Data           1  os_dbg.o(.constdata)
    OSDbg_TmrSize                            0x08005dce   Data           2  os_dbg.o(.constdata)
    OSDbg_TmrSpokeSize                       0x08005dd0   Data           2  os_dbg.o(.constdata)
    OSDbg_VersionNbr                         0x08005dd2   Data           2  os_dbg.o(.constdata)
    OSDbg_DataSize                           0x08005dd4   Data           4  os_dbg.o(.constdata)
    Region$$Table$$Base                      0x08005dd8   Number         0  anon$$obj.o(Region$$Table)
    Region$$Table$$Limit                     0x08005df8   Number         0  anon$$obj.o(Region$$Table)
    SystemCoreClock                          0x20000000   Data           4  system_stm32f10x.o(.data)
    AHBPrescTable                            0x20000004   Data          16  system_stm32f10x.o(.data)
    CPU_TS_TmrFreq_Hz                        0x20000028   Data           4  cpu_core.o(.data)
    CPU_IntDisMeasCtr                        0x2000002c   Data           2  cpu_core.o(.data)
    CPU_IntDisNestCtr                        0x2000002e   Data           2  cpu_core.o(.data)
    CPU_IntDisMeasStart_cnts                 0x20000030   Data           4  cpu_core.o(.data)
    CPU_IntDisMeasStop_cnts                  0x20000034   Data           4  cpu_core.o(.data)
    CPU_IntDisMeasOvrhd_cnts                 0x20000038   Data           4  cpu_core.o(.data)
    CPU_IntDisMeasMaxCur_cnts                0x2000003c   Data           4  cpu_core.o(.data)
    CPU_IntDisMeasMax_cnts                   0x20000040   Data           4  cpu_core.o(.data)
    Mem_PoolTbl                              0x20000044   Data           4  lib_mem.o(.data)
    OS_AppTaskCreateHookPtr                  0x20000048   Data           4  os_var.o(.data)
    OS_AppTaskDelHookPtr                     0x2000004c   Data           4  os_var.o(.data)
    OS_AppTaskReturnHookPtr                  0x20000050   Data           4  os_var.o(.data)
    OS_AppIdleTaskHookPtr                    0x20000054   Data           4  os_var.o(.data)
    OS_AppStatTaskHookPtr                    0x20000058   Data           4  os_var.o(.data)
    OS_AppTaskSwHookPtr                      0x2000005c   Data           4  os_var.o(.data)
    OS_AppTimeTickHookPtr                    0x20000060   Data           4  os_var.o(.data)
    OSIdleTaskCtr                            0x20000064   Data           4  os_var.o(.data)
    OSIntNestingCtr                          0x20000068   Data           1  os_var.o(.data)
    OSIntDisTimeMax                          0x2000006c   Data           4  os_var.o(.data)
    OSRunning                                0x20000070   Data           1  os_var.o(.data)
    OSIntQInPtr                              0x20000074   Data           4  os_var.o(.data)
    OSIntQOutPtr                             0x20000078   Data           4  os_var.o(.data)
    OSIntQNbrEntries                         0x2000007c   Data           2  os_var.o(.data)
    OSIntQNbrEntriesMax                      0x2000007e   Data           2  os_var.o(.data)
    OSIntQOvfCtr                             0x20000080   Data           2  os_var.o(.data)
    OSIntQTaskTimeMax                        0x20000084   Data           4  os_var.o(.data)
    OSFlagDbgListPtr                         0x20000088   Data           4  os_var.o(.data)
    OSFlagQty                                0x2000008c   Data           2  os_var.o(.data)
    OSMemDbgListPtr                          0x20000090   Data           4  os_var.o(.data)
    OSMemQty                                 0x20000094   Data           2  os_var.o(.data)
    OSMutexDbgListPtr                        0x20000098   Data           4  os_var.o(.data)
    OSMutexQty                               0x2000009c   Data           2  os_var.o(.data)
    OSPrioCur                                0x2000009e   Data           1  os_var.o(.data)
    OSPrioHighRdy                            0x2000009f   Data           1  os_var.o(.data)
    OSPrioSaved                              0x200000a0   Data           1  os_var.o(.data)
    OSQDbgListPtr                            0x200000a4   Data           4  os_var.o(.data)
    OSQQty                                   0x200000a8   Data           2  os_var.o(.data)
    OSSchedLockTimeBegin                     0x200000ac   Data           4  os_var.o(.data)
    OSSchedLockTimeMax                       0x200000b0   Data           4  os_var.o(.data)
    OSSchedLockTimeMaxCur                    0x200000b4   Data           4  os_var.o(.data)
    OSSchedLockNestingCtr                    0x200000b8   Data           1  os_var.o(.data)
    OSSchedRoundRobinDfltTimeQuanta          0x200000bc   Data           4  os_var.o(.data)
    OSSchedRoundRobinEn                      0x200000c0   Data           1  os_var.o(.data)
    OSSemDbgListPtr                          0x200000c4   Data           4  os_var.o(.data)
    OSSemQty                                 0x200000c8   Data           2  os_var.o(.data)
    OSStatResetFlag                          0x200000ca   Data           1  os_var.o(.data)
    OSStatTaskCPUUsage                       0x200000cc   Data           2  os_var.o(.data)
    OSStatTaskCPUUsageMax                    0x200000ce   Data           2  os_var.o(.data)
    OSStatTaskCtr                            0x200000d0   Data           4  os_var.o(.data)
    OSStatTaskCtrMax                         0x200000d4   Data           4  os_var.o(.data)
    OSStatTaskCtrRun                         0x200000d8   Data           4  os_var.o(.data)
    OSStatTaskRdy                            0x200000dc   Data           1  os_var.o(.data)
    OSStatTaskTimeMax                        0x200000e0   Data           4  os_var.o(.data)
    OSTaskCtxSwCtr                           0x200000e4   Data           4  os_var.o(.data)
    OSTaskDbgListPtr                         0x200000e8   Data           4  os_var.o(.data)
    OSTaskQty                                0x200000ec   Data           2  os_var.o(.data)
    OSTaskRegNextAvailID                     0x200000ee   Data           1  os_var.o(.data)
    OSTickCtr                                0x200000f0   Data           4  os_var.o(.data)
    OSTickTaskTimeMax                        0x200000f4   Data           4  os_var.o(.data)
    OSTmrDbgListPtr                          0x200000f8   Data           4  os_var.o(.data)
    OSTmrQty                                 0x200000fc   Data           2  os_var.o(.data)
    OSTmrTaskTimeMax                         0x20000100   Data           4  os_var.o(.data)
    OSTmrTickCtr                             0x20000104   Data           4  os_var.o(.data)
    OSTmrUpdateCnt                           0x20000108   Data           4  os_var.o(.data)
    OSTmrUpdateCtr                           0x2000010c   Data           4  os_var.o(.data)
    OSTCBCurPtr                              0x20000110   Data           4  os_var.o(.data)
    OSTCBHighRdyPtr                          0x20000114   Data           4  os_var.o(.data)
    OS_CPU_ExceptStkBase                     0x20000118   Data           4  os_cpu_c.o(.data)
    OSPrioTbl                                0x2000011c   Data           4  os_prio.o(.data)
    __stdout                                 0x20000120   Data           4  stdout.o(.data)
    CPU_Name                                 0x20001e44   Data          16  cpu_core.o(.bss)
    Mem_PoolHeap                             0x20001e54   Data          72  lib_mem.o(.bss)
    Mem_Heap                                 0x20001e9c   Data       27648  lib_mem.o(.bss)
    OSCfg_IdleTaskStk                        0x20008a9c   Data         512  os_cfg_app.o(.bss)
    OSCfg_IntQ                               0x20008c9c   Data         320  os_cfg_app.o(.bss)
    OSCfg_IntQTaskStk                        0x20008ddc   Data         512  os_cfg_app.o(.bss)
    OSCfg_ISRStk                             0x20008fdc   Data         512  os_cfg_app.o(.bss)
    OSCfg_MsgPool                            0x200091dc   Data        1600  os_cfg_app.o(.bss)
    OSCfg_StatTaskStk                        0x2000981c   Data         512  os_cfg_app.o(.bss)
    OSCfg_TickTaskStk                        0x20009a1c   Data         512  os_cfg_app.o(.bss)
    OSCfg_TickWheel                          0x20009c1c   Data         136  os_cfg_app.o(.bss)
    OSCfg_TmrTaskStk                         0x20009ca4   Data         512  os_cfg_app.o(.bss)
    OSCfg_TmrWheel                           0x20009ea4   Data         136  os_cfg_app.o(.bss)
    OSIdleTaskTCB                            0x20009f2c   Data         200  os_var.o(.bss)
    OSIntQTaskTCB                            0x20009ff4   Data         200  os_var.o(.bss)
    OSMsgPool                                0x2000a0bc   Data          12  os_var.o(.bss)
    OSRdyList                                0x2000a0c8   Data         384  os_var.o(.bss)
    OSStatTaskTCB                            0x2000a248   Data         200  os_var.o(.bss)
    OSTickTaskTCB                            0x2000a310   Data         200  os_var.o(.bss)
    OSTmrTaskTCB                             0x2000a3d8   Data         200  os_var.o(.bss)
    __initial_sp                             0x2000a8a0   Data           0  startup_stm32f10x_hd.o(STACK)



==============================================================================

Memory Map of the image

  Image Entry point : 0x08000131

  Load Region LR_IROM1 (Base: 0x08000000, Size: 0x00005f1c, Max: 0x00080000, ABSOLUTE)

    Execution Region ER_IROM1 (Exec base: 0x08000000, Load base: 0x08000000, Size: 0x00005df8, Max: 0x00080000, ABSOLUTE)

    Exec Addr    Load Addr    Size         Type   Attr      Idx    E Section Name        Object

    0x08000000   0x08000000   0x00000130   Data   RO            3    RESET               startup_stm32f10x_hd.o
    0x08000130   0x08000130   0x00000000   Code   RO         2628  * .ARM.Collect$$$$00000000  mc_w.l(entry.o)
    0x08000130   0x08000130   0x00000004   Code   RO         2897    .ARM.Collect$$$$00000001  mc_w.l(entry2.o)
    0x08000134   0x08000134   0x00000004   Code   RO         2900    .ARM.Collect$$$$00000004  mc_w.l(entry5.o)
    0x08000138   0x08000138   0x00000000   Code   RO         2902    .ARM.Collect$$$$00000008  mc_w.l(entry7b.o)
    0x08000138   0x08000138   0x00000000   Code   RO         2904    .ARM.Collect$$$$0000000A  mc_w.l(entry8b.o)
    0x08000138   0x08000138   0x00000008   Code   RO         2905    .ARM.Collect$$$$0000000B  mc_w.l(entry9a.o)
    0x08000140   0x08000140   0x00000004   Code   RO         2912    .ARM.Collect$$$$0000000E  mc_w.l(entry12b.o)
    0x08000144   0x08000144   0x00000000   Code   RO         2907    .ARM.Collect$$$$0000000F  mc_w.l(entry10a.o)
    0x08000144   0x08000144   0x00000000   Code   RO         2909    .ARM.Collect$$$$00000011  mc_w.l(entry11a.o)
    0x08000144   0x08000144   0x00000004   Code   RO         2898    .ARM.Collect$$$$00002712  mc_w.l(entry2.o)
    0x08000148   0x08000148   0x00000024   Code   RO            4    .text               startup_stm32f10x_hd.o
    0x0800016c   0x0800016c   0x000001dc   Code   RO          675    .text               stm32f10x_hd.lib(system_stm32f10x.o)
    0x08000348   0x08000348   0x00000358   Code   RO          775    .text               stm32f10x_hd.lib(stm32f10x_gpio.o)
    0x080006a0   0x080006a0   0x000003a4   Code   RO          810    .text               stm32f10x_hd.lib(stm32f10x_rcc.o)
    0x08000a44   0x08000a44   0x00000408   Code   RO          836    .text               stm32f10x_hd.lib(stm32f10x_usart.o)
    0x08000e4c   0x08000e4c   0x00000034   Code   RO         1038    .text               UCOSIII.lib(cpu_a.o)
    0x08000e80   0x08000e80   0x00000024   Code   RO         2931    .text               mc_w.l(init.o)
    0x08000ea4   0x08000ea4   0x00000084   Code   RO         2520    CODE                UCOSIII.lib(os_cpu_a.o)
    0x08000f28   0x08000f28   0x000000a4   Code   RO           10    i.AppTaskLed1       main.o
    0x08000fcc   0x08000fcc   0x00000088   Code   RO           11    i.AppTaskLed2       main.o
    0x08001054   0x08001054   0x00000088   Code   RO           12    i.AppTaskLed3       main.o
    0x080010dc   0x080010dc   0x00000130   Code   RO           13    i.AppTaskStart      main.o
    0x0800120c   0x0800120c   0x00000010   Code   RO          350    i.BSP_CPU_ClkFreq   bsp.o
    0x0800121c   0x0800121c   0x0000000c   Code   RO          351    i.BSP_Init          bsp.o
    0x08001228   0x08001228   0x00000004   Code   RO          287    i.BusFault_Handler  stm32f10x_it.o
    0x0800122c   0x0800122c   0x00000010   Code   RO          856    i.CPU_Init          UCOSIII.lib(cpu_core.o)
    0x0800123c   0x0800123c   0x00000084   Code   RO          857    i.CPU_IntDisMeasInit  UCOSIII.lib(cpu_core.o)
    0x080012c0   0x080012c0   0x0000001c   Code   RO          858    i.CPU_IntDisMeasMaxCalc  UCOSIII.lib(cpu_core.o)
    0x080012dc   0x080012dc   0x0000002c   Code   RO          859    i.CPU_IntDisMeasMaxCurGet  UCOSIII.lib(cpu_core.o)
    0x08001308   0x08001308   0x0000002c   Code   RO          860    i.CPU_IntDisMeasMaxCurReset  UCOSIII.lib(cpu_core.o)
    0x08001334   0x08001334   0x0000002c   Code   RO          861    i.CPU_IntDisMeasMaxGet  UCOSIII.lib(cpu_core.o)
    0x08001360   0x08001360   0x00000034   Code   RO          862    i.CPU_IntDisMeasStart  UCOSIII.lib(cpu_core.o)
    0x08001394   0x08001394   0x00000054   Code   RO          863    i.CPU_IntDisMeasStop  UCOSIII.lib(cpu_core.o)
    0x080013e8   0x080013e8   0x00000038   Code   RO          864    i.CPU_NameClr       UCOSIII.lib(cpu_core.o)
    0x08001420   0x08001420   0x00000008   Code   RO          866    i.CPU_NameInit      UCOSIII.lib(cpu_core.o)
    0x08001428   0x08001428   0x00000014   Code   RO          870    i.CPU_TS_Init       UCOSIII.lib(cpu_core.o)
    0x0800143c   0x0800143c   0x0000000c   Code   RO          872    i.CPU_TS_TmrFreqSet  UCOSIII.lib(cpu_core.o)
    0x08001448   0x08001448   0x00000034   Code   RO          352    i.CPU_TS_TmrInit    bsp.o
    0x0800147c   0x0800147c   0x0000000c   Code   RO          353    i.CPU_TS_TmrRd      bsp.o
    0x08001488   0x08001488   0x00000002   Code   RO          288    i.DebugMon_Handler  stm32f10x_it.o
    0x0800148a   0x0800148a   0x00000004   Code   RO          289    i.HardFault_Handler  stm32f10x_it.o
    0x0800148e   0x0800148e   0x00000002   PAD
    0x08001490   0x08001490   0x00000058   Code   RO          422    i.LED_GPIO_Config   bsp_led.o
    0x080014e8   0x080014e8   0x00000024   Code   RO          423    i.LED_Init          bsp_led.o
    0x0800150c   0x0800150c   0x00000004   Code   RO          290    i.MemManage_Handler  stm32f10x_it.o
    0x08001510   0x08001510   0x00000012   Code   RO         1041    i.Mem_Clr           UCOSIII.lib(lib_mem.o)
    0x08001522   0x08001522   0x00000002   PAD
    0x08001524   0x08001524   0x00000048   Code   RO         1045    i.Mem_Init          UCOSIII.lib(lib_mem.o)
    0x0800156c   0x0800156c   0x00000062   Code   RO         1058    i.Mem_Set           UCOSIII.lib(lib_mem.o)
    0x080015ce   0x080015ce   0x00000002   Code   RO          291    i.NMI_Handler       stm32f10x_it.o
    0x080015d0   0x080015d0   0x00000002   Code   RO         1166    i.OSCfg_Init        UCOSIII.lib(os_cfg_app.o)
    0x080015d2   0x080015d2   0x00000002   PAD
    0x080015d4   0x080015d4   0x00000014   Code   RO         1706    i.OSIdleTaskHook    UCOSIII.lib(os_cpu_c.o)
    0x080015e8   0x080015e8   0x0000018c   Code   RO         1202    i.OSInit            UCOSIII.lib(os_core.o)
    0x08001774   0x08001774   0x00000038   Code   RO         1707    i.OSInitHook        UCOSIII.lib(os_cpu_c.o)
    0x080017ac   0x080017ac   0x000000e4   Code   RO         1204    i.OSIntExit         UCOSIII.lib(os_core.o)
    0x08001890   0x08001890   0x000000a8   Code   RO         1205    i.OSSched           UCOSIII.lib(os_core.o)
    0x08001938   0x08001938   0x0000007c   Code   RO         1206    i.OSSchedLock       UCOSIII.lib(os_core.o)
    0x080019b4   0x080019b4   0x0000006c   Code   RO         1207    i.OSSchedRoundRobinCfg  UCOSIII.lib(os_core.o)
    0x08001a20   0x08001a20   0x000000a0   Code   RO         1209    i.OSSchedUnlock     UCOSIII.lib(os_core.o)
    0x08001ac0   0x08001ac0   0x00000068   Code   RO         1210    i.OSStart           UCOSIII.lib(os_core.o)
    0x08001b28   0x08001b28   0x00000168   Code   RO         1452    i.OSStatReset       UCOSIII.lib(os_stat.o)
    0x08001c90   0x08001c90   0x00000100   Code   RO         1453    i.OSStatTaskCPUUsageInit  UCOSIII.lib(os_stat.o)
    0x08001d90   0x08001d90   0x00000014   Code   RO         1708    i.OSStatTaskHook    UCOSIII.lib(os_cpu_c.o)
    0x08001da4   0x08001da4   0x00000294   Code   RO         1483    i.OSTaskCreate      UCOSIII.lib(os_task.o)
    0x08002038   0x08002038   0x00000018   Code   RO         1709    i.OSTaskCreateHook  UCOSIII.lib(os_cpu_c.o)
    0x08002050   0x08002050   0x00000208   Code   RO         1484    i.OSTaskDel         UCOSIII.lib(os_task.o)
    0x08002258   0x08002258   0x00000018   Code   RO         1710    i.OSTaskDelHook     UCOSIII.lib(os_cpu_c.o)
    0x08002270   0x08002270   0x0000005c   Code   RO         1489    i.OSTaskRegGet      UCOSIII.lib(os_task.o)
    0x080022cc   0x080022cc   0x0000005c   Code   RO         1491    i.OSTaskRegSet      UCOSIII.lib(os_task.o)
    0x08002328   0x08002328   0x00000088   Code   RO         1492    i.OSTaskResume      UCOSIII.lib(os_task.o)
    0x080023b0   0x080023b0   0x00000018   Code   RO         1711    i.OSTaskReturnHook  UCOSIII.lib(os_cpu_c.o)
    0x080023c8   0x080023c8   0x00000250   Code   RO         1493    i.OSTaskSemPend     UCOSIII.lib(os_task.o)
    0x08002618   0x08002618   0x000000e4   Code   RO         1497    i.OSTaskStkChk      UCOSIII.lib(os_task.o)
    0x080026fc   0x080026fc   0x000000c0   Code   RO         1712    i.OSTaskStkInit     UCOSIII.lib(os_cpu_c.o)
    0x080027bc   0x080027bc   0x00000060   Code   RO         1498    i.OSTaskSuspend     UCOSIII.lib(os_task.o)
    0x0800281c   0x0800281c   0x000000a4   Code   RO         1713    i.OSTaskSwHook      UCOSIII.lib(os_cpu_c.o)
    0x080028c0   0x080028c0   0x00000150   Code   RO         1650    i.OSTimeDly         UCOSIII.lib(os_time.o)
    0x08002a10   0x08002a10   0x00000044   Code   RO         1655    i.OSTimeTick        UCOSIII.lib(os_time.o)
    0x08002a54   0x08002a54   0x00000014   Code   RO         1714    i.OSTimeTickHook    UCOSIII.lib(os_cpu_c.o)
    0x08002a68   0x08002a68   0x00000040   Code   RO         1715    i.OS_CPU_SysTickHandler  UCOSIII.lib(os_cpu_c.o)
    0x08002aa8   0x08002aa8   0x00000030   Code   RO         1716    i.OS_CPU_SysTickInit  UCOSIII.lib(os_cpu_c.o)
    0x08002ad8   0x08002ad8   0x000001b4   Code   RO         1940    i.OS_Dbg_Init       UCOSIII.lib(os_dbg.o)
    0x08002c8c   0x08002c8c   0x00000018   Code   RO         1965    i.OS_FlagInit       UCOSIII.lib(os_flag.o)
    0x08002ca4   0x08002ca4   0x0000027c   Code   RO         1966    i.OS_FlagPost       UCOSIII.lib(os_flag.o)
    0x08002f20   0x08002f20   0x00000056   Code   RO         1967    i.OS_FlagTaskRdy    UCOSIII.lib(os_flag.o)
    0x08002f76   0x08002f76   0x00000002   PAD
    0x08002f78   0x08002f78   0x0000004c   Code   RO         1212    i.OS_IdleTask       UCOSIII.lib(os_core.o)
    0x08002fc4   0x08002fc4   0x00000070   Code   RO         1213    i.OS_IdleTaskInit   UCOSIII.lib(os_core.o)
    0x08003034   0x08003034   0x00000104   Code   RO         2039    i.OS_IntQPost       UCOSIII.lib(os_int.o)
    0x08003138   0x08003138   0x000001a4   Code   RO         2040    i.OS_IntQRePost     UCOSIII.lib(os_int.o)
    0x080032dc   0x080032dc   0x000000c8   Code   RO         2041    i.OS_IntQTask       UCOSIII.lib(os_int.o)
    0x080033a4   0x080033a4   0x00000128   Code   RO         2042    i.OS_IntQTaskInit   UCOSIII.lib(os_int.o)
    0x080034cc   0x080034cc   0x00000018   Code   RO         2073    i.OS_MemInit        UCOSIII.lib(os_mem.o)
    0x080034e4   0x080034e4   0x0000007c   Code   RO         2105    i.OS_MsgPoolInit    UCOSIII.lib(os_msg.o)
    0x08003560   0x08003560   0x00000044   Code   RO         2106    i.OS_MsgQFreeAll    UCOSIII.lib(os_msg.o)
    0x080035a4   0x080035a4   0x0000000e   Code   RO         2108    i.OS_MsgQInit       UCOSIII.lib(os_msg.o)
    0x080035b2   0x080035b2   0x00000002   PAD
    0x080035b4   0x080035b4   0x00000104   Code   RO         2109    i.OS_MsgQPut        UCOSIII.lib(os_msg.o)
    0x080036b8   0x080036b8   0x00000018   Code   RO         2149    i.OS_MutexInit      UCOSIII.lib(os_mutex.o)
    0x080036d0   0x080036d0   0x00000068   Code   RO         1214    i.OS_Pend           UCOSIII.lib(os_core.o)
    0x08003738   0x08003738   0x00000026   Code   RO         1217    i.OS_PendDataInit   UCOSIII.lib(os_core.o)
    0x0800375e   0x0800375e   0x00000002   PAD
    0x08003760   0x08003760   0x0000005c   Code   RO         1218    i.OS_PendDbgNameAdd  UCOSIII.lib(os_core.o)
    0x080037bc   0x080037bc   0x00000024   Code   RO         1219    i.OS_PendDbgNameRemove  UCOSIII.lib(os_core.o)
    0x080037e0   0x080037e0   0x00000066   Code   RO         1223    i.OS_PendListInsertPrio  UCOSIII.lib(os_core.o)
    0x08003846   0x08003846   0x00000030   Code   RO         1224    i.OS_PendListRemove  UCOSIII.lib(os_core.o)
    0x08003876   0x08003876   0x00000042   Code   RO         1225    i.OS_PendListRemove1  UCOSIII.lib(os_core.o)
    0x080038b8   0x080038b8   0x000000c0   Code   RO         1228    i.OS_Post           UCOSIII.lib(os_core.o)
    0x08003978   0x08003978   0x0000002a   Code   RO         1229    i.OS_Post1          UCOSIII.lib(os_core.o)
    0x080039a2   0x080039a2   0x00000002   PAD
    0x080039a4   0x080039a4   0x00000028   Code   RO         2201    i.OS_PrioGetHighest  UCOSIII.lib(os_prio.o)
    0x080039cc   0x080039cc   0x00000018   Code   RO         2202    i.OS_PrioInit       UCOSIII.lib(os_prio.o)
    0x080039e4   0x080039e4   0x00000024   Code   RO         2203    i.OS_PrioInsert     UCOSIII.lib(os_prio.o)
    0x08003a08   0x08003a08   0x00000024   Code   RO         2204    i.OS_PrioRemove     UCOSIII.lib(os_prio.o)
    0x08003a2c   0x08003a2c   0x00000018   Code   RO         2247    i.OS_QInit          UCOSIII.lib(os_q.o)
    0x08003a44   0x08003a44   0x00000188   Code   RO         2248    i.OS_QPost          UCOSIII.lib(os_q.o)
    0x08003bcc   0x08003bcc   0x00000024   Code   RO         1230    i.OS_RdyListInit    UCOSIII.lib(os_core.o)
    0x08003bf0   0x08003bf0   0x0000002c   Code   RO         1231    i.OS_RdyListInsert  UCOSIII.lib(os_core.o)
    0x08003c1c   0x08003c1c   0x00000040   Code   RO         1232    i.OS_RdyListInsertHead  UCOSIII.lib(os_core.o)
    0x08003c5c   0x08003c5c   0x0000003c   Code   RO         1233    i.OS_RdyListInsertTail  UCOSIII.lib(os_core.o)
    0x08003c98   0x08003c98   0x00000044   Code   RO         1234    i.OS_RdyListMoveHeadToTail  UCOSIII.lib(os_core.o)
    0x08003cdc   0x08003cdc   0x0000005c   Code   RO         1235    i.OS_RdyListRemove  UCOSIII.lib(os_core.o)
    0x08003d38   0x08003d38   0x0000005c   Code   RO         1236    i.OS_Sched0         UCOSIII.lib(os_core.o)
    0x08003d94   0x08003d94   0x0000001c   Code   RO         1237    i.OS_SchedLockTimeMeasStart  UCOSIII.lib(os_core.o)
    0x08003db0   0x08003db0   0x0000003c   Code   RO         1238    i.OS_SchedLockTimeMeasStop  UCOSIII.lib(os_core.o)
    0x08003dec   0x08003dec   0x000000ec   Code   RO         1239    i.OS_SchedRoundRobin  UCOSIII.lib(os_core.o)
    0x08003ed8   0x08003ed8   0x00000018   Code   RO         2319    i.OS_SemInit        UCOSIII.lib(os_sem.o)
    0x08003ef0   0x08003ef0   0x00000198   Code   RO         2320    i.OS_SemPost        UCOSIII.lib(os_sem.o)
    0x08004088   0x08004088   0x000003b8   Code   RO         1454    i.OS_StatTask       UCOSIII.lib(os_stat.o)
    0x08004440   0x08004440   0x000000cc   Code   RO         1455    i.OS_StatTaskInit   UCOSIII.lib(os_stat.o)
    0x0800450c   0x0800450c   0x00000038   Code   RO         1240    i.OS_TaskBlock      UCOSIII.lib(os_core.o)
    0x08004544   0x08004544   0x00000030   Code   RO         1500    i.OS_TaskDbgListAdd  UCOSIII.lib(os_task.o)
    0x08004574   0x08004574   0x00000044   Code   RO         1501    i.OS_TaskDbgListRemove  UCOSIII.lib(os_task.o)
    0x080045b8   0x080045b8   0x00000020   Code   RO         1502    i.OS_TaskInit       UCOSIII.lib(os_task.o)
    0x080045d8   0x080045d8   0x000000d0   Code   RO         1503    i.OS_TaskInitTCB    UCOSIII.lib(os_task.o)
    0x080046a8   0x080046a8   0x0000026c   Code   RO         1504    i.OS_TaskQPost      UCOSIII.lib(os_task.o)
    0x08004914   0x08004914   0x0000001c   Code   RO         1241    i.OS_TaskRdy        UCOSIII.lib(os_core.o)
    0x08004930   0x08004930   0x0000017c   Code   RO         1505    i.OS_TaskResume     UCOSIII.lib(os_task.o)
    0x08004aac   0x08004aac   0x00000018   Code   RO         1506    i.OS_TaskReturn     UCOSIII.lib(os_task.o)
    0x08004ac4   0x08004ac4   0x000005a8   Code   RO         1507    i.OS_TaskSemPost    UCOSIII.lib(os_task.o)
    0x0800506c   0x0800506c   0x00000190   Code   RO         1508    i.OS_TaskSuspend    UCOSIII.lib(os_task.o)
    0x080051fc   0x080051fc   0x00000028   Code   RO         2382    i.OS_TickListInit   UCOSIII.lib(os_tick.o)
    0x08005224   0x08005224   0x000001bc   Code   RO         2383    i.OS_TickListInsert  UCOSIII.lib(os_tick.o)
    0x080053e0   0x080053e0   0x00000038   Code   RO         2384    i.OS_TickListRemove  UCOSIII.lib(os_tick.o)
    0x08005418   0x08005418   0x00000024   Code   RO         2385    i.OS_TickListResetPeak  UCOSIII.lib(os_tick.o)
    0x0800543c   0x0800543c   0x00000220   Code   RO         2386    i.OS_TickListUpdate  UCOSIII.lib(os_tick.o)
    0x0800565c   0x0800565c   0x0000002c   Code   RO         2387    i.OS_TickTask       UCOSIII.lib(os_tick.o)
    0x08005688   0x08005688   0x000000b8   Code   RO         2388    i.OS_TickTaskInit   UCOSIII.lib(os_tick.o)
    0x08005740   0x08005740   0x00000128   Code   RO         2439    i.OS_TmrInit        UCOSIII.lib(os_tmr.o)
    0x08005868   0x08005868   0x000000d0   Code   RO         2440    i.OS_TmrLink        UCOSIII.lib(os_tmr.o)
    0x08005938   0x08005938   0x00000024   Code   RO         2441    i.OS_TmrResetPeak   UCOSIII.lib(os_tmr.o)
    0x0800595c   0x0800595c   0x000000c0   Code   RO         2442    i.OS_TmrTask        UCOSIII.lib(os_tmr.o)
    0x08005a1c   0x08005a1c   0x00000050   Code   RO         2443    i.OS_TmrUnlink      UCOSIII.lib(os_tmr.o)
    0x08005a6c   0x08005a6c   0x00000002   Code   RO          293    i.SVC_Handler       stm32f10x_it.o
    0x08005a6e   0x08005a6e   0x00000002   PAD
    0x08005a70   0x08005a70   0x00000080   Code   RO          394    i.USARTx_Config     bsp_usart1.o
    0x08005af0   0x08005af0   0x00000004   Code   RO          295    i.UsageFault_Handler  stm32f10x_it.o
    0x08005af4   0x08005af4   0x00000010   Code   RO         2632    i.__0printf$bare    mc_w.l(printfb.o)
    0x08005b04   0x08005b04   0x0000000e   Code   RO         2939    i.__scatterload_copy  mc_w.l(handlers.o)
    0x08005b12   0x08005b12   0x00000002   Code   RO         2940    i.__scatterload_null  mc_w.l(handlers.o)
    0x08005b14   0x08005b14   0x0000000e   Code   RO         2941    i.__scatterload_zeroinit  mc_w.l(handlers.o)
    0x08005b22   0x08005b22   0x00000022   Code   RO         2639    i._printf_core      mc_w.l(printfb.o)
    0x08005b44   0x08005b44   0x00000024   Code   RO          396    i.fputc             bsp_usart1.o
    0x08005b68   0x08005b68   0x00000060   Code   RO           14    i.main              main.o
    0x08005bc8   0x08005bc8   0x000000a4   Data   RO         1168    .constdata          UCOSIII.lib(os_cfg_app.o)
    0x08005c6c   0x08005c6c   0x0000016c   Data   RO         1941    .constdata          UCOSIII.lib(os_dbg.o)
    0x08005dd8   0x08005dd8   0x00000020   Data   RO         2937    Region$$Table       anon$$obj.o


    Execution Region RW_IRAM1 (Exec base: 0x20000000, Load base: 0x08005df8, Size: 0x0000a8a0, Max: 0x00010000, ABSOLUTE)

    Exec Addr    Load Addr    Size         Type   Attr      Idx    E Section Name        Object

    0x20000000   0x08005df8   0x00000014   Data   RW          676    .data               stm32f10x_hd.lib(system_stm32f10x.o)
    0x20000014   0x08005e0c   0x00000014   Data   RW          811    .data               stm32f10x_hd.lib(stm32f10x_rcc.o)
    0x20000028   0x08005e20   0x0000001c   Data   RW          876    .data               UCOSIII.lib(cpu_core.o)
    0x20000044   0x08005e3c   0x00000004   Data   RW         1060    .data               UCOSIII.lib(lib_mem.o)
    0x20000048   0x08005e40   0x000000d0   Data   RW         1693    .data               UCOSIII.lib(os_var.o)
    0x20000118   0x08005f10   0x00000004   Data   RW         1717    .data               UCOSIII.lib(os_cpu_c.o)
    0x2000011c   0x08005f14   0x00000004   Data   RW         2205    .data               UCOSIII.lib(os_prio.o)
    0x20000120   0x08005f18   0x00000004   Data   RW         2913    .data               mc_w.l(stdout.o)
    0x20000124        -       0x00001d20   Zero   RW           15    .bss                main.o
    0x20001e44        -       0x00000010   Zero   RW          874    .bss                UCOSIII.lib(cpu_core.o)
    0x20001e54        -       0x00006c48   Zero   RW         1059    .bss                UCOSIII.lib(lib_mem.o)
    0x20008a9c        -       0x00001490   Zero   RW         1167    .bss                UCOSIII.lib(os_cfg_app.o)
    0x20009f2c        -       0x00000574   Zero   RW         1692    .bss                UCOSIII.lib(os_var.o)
    0x2000a4a0        -       0x00000400   Zero   RW            1    STACK               startup_stm32f10x_hd.o


==============================================================================

Image component sizes


      Code (inc. data)   RO Data    RW Data    ZI Data      Debug   Object Name

        92         14          0          0          0       2009   bsp.o
       124         10          0          0          0       1015   bsp_led.o
       164         12          0          0          0       2488   bsp_usart1.o
       836        222          0          0       7456      60806   main.o
        36          8        304          0       1024        852   startup_stm32f10x_hd.o
        22          0          0          0          0       3279   stm32f10x_it.o

    ----------------------------------------------------------------------
      1278        266        336          0       8480      70449   Object Totals
         0          0         32          0          0          0   (incl. Generated)
         4          0          0          0          0          0   (incl. Padding)

    ----------------------------------------------------------------------

      Code (inc. data)   RO Data    RW Data    ZI Data      Debug   Library Member Name

        52          0          0          0          0        368   cpu_a.o
       540         98          0         28         16      28417   cpu_core.o
       188         18          0          4      27720      23347   lib_mem.o
         2          0        164          0       5264      21914   os_cfg_app.o
      3060        414          0          0          0      40066   os_core.o
       132         32          0          0          0        412   os_cpu_a.o
       656         68          0          4          0       8625   os_cpu_c.o
       436        286        364          0          0       4901   os_dbg.o
       746         28          0          0          0       3225   os_flag.o
      1176        204          0          0          0       3654   os_int.o
        24         10          0          0          0        937   os_mem.o
       466         26          0          0          0       3385   os_msg.o
        24         10          0          0          0        939   os_mutex.o
       136         16          0          4          0       3018   os_prio.o
       416         20          0          0          0       2302   os_q.o
       432         14          0          0          0       2326   os_sem.o
      1772        214          0          0          0       4215   os_stat.o
      5644        272          0          0          0      15986   os_task.o
      1348        124          0          0          0       5721   os_tick.o
       404         28          0          0          0       1849   os_time.o
       812        134          0          0          0       4332   os_tmr.o
         0          0          0        208       1396      19553   os_var.o
         0          0          0          0          0          0   entry.o
         0          0          0          0          0          0   entry10a.o
         0          0          0          0          0          0   entry11a.o
         4          0          0          0          0          0   entry12b.o
         8          4          0          0          0          0   entry2.o
         4          0          0          0          0          0   entry5.o
         0          0          0          0          0          0   entry7b.o
         0          0          0          0          0          0   entry8b.o
         8          4          0          0          0          0   entry9a.o
        30          0          0          0          0          0   handlers.o
        36          8          0          0          0         68   init.o
        50          8          0          0          0        152   printfb.o
         0          0          0          4          0          0   stdout.o
       856         40          0          0          0     208913   stm32f10x_gpio.o
       932         44          0         20          0       8904   stm32f10x_rcc.o
      1032         22          0          0          0       8448   stm32f10x_usart.o
       476         36          0         20          0      28147   system_stm32f10x.o

    ----------------------------------------------------------------------
     21914       2182        528        292      34396     454124   Library Totals
        12          0          0          0          0          0   (incl. Padding)

    ----------------------------------------------------------------------

      Code (inc. data)   RO Data    RW Data    ZI Data      Debug   Library Name

     18466       2016        528        248      34396     199492   UCOSIII.lib
       140         24          0          4          0        220   mc_w.l
      3296        142          0         40          0     254412   stm32f10x_hd.lib

    ----------------------------------------------------------------------
     21914       2182        528        292      34396     454124   Library Totals

    ----------------------------------------------------------------------

==============================================================================


      Code (inc. data)   RO Data    RW Data    ZI Data      Debug   

     23192       2448        864        292      42876     517341   Grand Totals
     23192       2448        864        292      42876     517341   ELF Image Totals
     23192       2448        864        292          0          0   ROM Totals

==============================================================================

    Total RO  Size (Code + RO Data)                24056 (  23.49kB)
    Total RW  Size (RW Data + ZI Data)             43168 (  42.16kB)
    Total ROM Size (Code + RO Data + RW Data)      24348 (  23.78kB)

==============================================================================

