:020000040800F2
:10000000C8A8002049010008F7150008F7130008E8
:100010003515000895110008215C0008000000005B
:100020000000000000000000000000009D5B0008D0
:10003000F5130008000000001F0F0008992B0008AE
:100040006301000863010008630100086301000800
:1000500063010008630100086301000863010008F0
:1000600063010008630100086301000863010008E0
:1000700063010008630100086301000863010008D0
:1000800063010008630100086301000863010008C0
:1000900063010008630100086301000863010008B0
:1000A00063010008630100086301000863010008A0
:1000B0006301000863010008630100086301000890
:1000C0006301000863010008630100086301000880
:1000D0006301000863010008630100086301000870
:1000E0006301000863010008630100086301000860
:1000F0006301000863010008630100086301000850
:10010000630100086301000863010008630100083F
:10011000630100086301000863010008630100082F
:10012000630100086301000863010008630100081F
:10013000DFF810D000F0A4FE00480047455C00083E
:10014000AFF30080C8A80020064880470648004753
:10015000FEE7FEE7FEE7FEE7FEE7FEE7FEE7FEE777
:10016000FEE7FEE749020008310100080CB5002057
:10017000019000906B48006840F480306949086045
:1001800000BF6848006800F4003000900198401CEF
:100190000190009818B90198B0F5A06FF1D16148AD
:1001A000006810F4003F02D00120009001E0002020
:1001B00000900098012842D15B48006840F0100090
:1001C000594908600846006820F0030008600846A6
:1001D000006840F002000860524840685149486099
:1001E0000846406848600846406840F480604860BF
:1001F0000846406820F47C1048600846406840F497
:10020000E81048600846006840F08070086000BF51
:100210004448006810F0007FFAD04248406820F05F
:100220000300404948600846406840F002004860CA
:1002300000BF3C48406800F00C000828F9D10CBD14
:1002400010B5FFF793FF10BD10B53648006840F0B9
:100250000100344908600846406834490840314983
:10026000486008460068324908402E490860084640
:10027000006820F4802008600846406820F4FE00F2
:1002800048604FF41F008860FFF7DAFF4FF000600E
:100290002849086010BD10B5002100200022214B24
:1002A0005B6803F00C0121B1042906D0082928D18C
:1002B00007E0214B214C236027E01F4B1F4C23609C
:1002C00023E0184B5B6803F47010164B5B6803F473
:1002D0008032022303EB904022B9194B4343174C61
:1002E00023600DE00F4B5B6813F4003F04D0144B08
:1002F0004343124C236003E00F4B43430F4C2360F6
:1003000003E00D4B0D4C236000BF00BF054B5B6845
:10031000C3F303130B4CE15C084B1B68CB40074C49
:10032000236010BD00100240002002400000FFF8D2
:10033000FFFFF6FE08ED00E000127A002C0000201E
:1003400000093D003000002010B50446CA48844230
:1003500008D10121042000F027FB0021042000F037
:1003600023FB46E0C548844208D10121082000F063
:100370001BFB0021082000F017FB3AE0C048844234
:1003800008D10121102000F00FFB0021102000F007
:100390000BFB2EE0BB48844208D10121202000F055
:1003A00003FB0021202000F0FFFA22E0B64884423F
:1003B00008D10121402000F0F7FA0021402000F090
:1003C000F3FA16E0B148844208D10121802000F000
:1003D000EBFA0021802000F0E7FA0AE0AC48844202
:1003E00007D10121801500F0DFFA0021A01500F0EF
:1003F000DBFA10BD10B50121084600F0D5FA002146
:10040000012000F0D1FA10BD2DE9F041024600258F
:100410000026002000230024002791F803C00CF0E0
:100420000F0591F803C01CF0100F03D091F802C023
:100430004CEA050591F800C0BCF1000F31D01468FA
:1004400000202BE04FF0010C0CFA00F3B1F800C0D3
:100450000CEA03069E4220D183004FF00F0C0CFAE9
:1004600003F7BC4305FA03FC4CEA040491F803C00B
:10047000BCF1280F06D14FF0010C0CFA00FCC2F8B9
:1004800014C00AE091F803C0BCF1480F05D14FF049
:10049000010C0CFA00FCC2F810C0401C0828D1D393
:1004A0001460B1F800C0BCF1FF0F34DD54680020C7
:1004B0002EE000F1080C4FF0010808FA0CF3B1F837
:1004C00000C00CEA03069E4221D183004FF00F0CBE
:1004D0000CFA03F7BC4305FA03FC4CEA040491F858
:1004E00003C0BCF1280F05D100F1080C08FA0CF884
:1004F000C2F8148091F803C0BCF1480F07D100F195
:10050000080C4FF0010808FA0CF8C2F81080401CE3
:100510000828CED35460BDE8F0814FF6FF7101800A
:10052000022181700421C170704702460020936847
:100530000B4201D0012000E000207047014688688E
:1005400080B2704702460020D3680B4201D00120E0
:1005500000E0002070470146C86880B27047016122
:100560007047416170470AB1016100E04161704725
:10057000C16070474FF480320A43826181618261B9
:1005800082698269704702460020424B18684FF624
:100590008073184040EA021008433E4B18607047D1
:1005A0003D49C8617047F0B50A4600230024002188
:1005B000002500F00046B6F1004F02D1354EF1693A
:1005C00001E0344E7168C0F3034583B200F4401675
:1005D000B6F5401F08D121F070612E4E766826F0E6
:1005E00070662C4F7E6012E000F48016B6F5801F16
:1005F00006D1032606FA05F4A14341F0706106E036
:10060000460D360103FA06F6B14341F0706122B19E
:10061000460D360103FA06F6314300F00046B6F106
:10062000004F02D11B4EF16101E01A4E7160F0BD26
:1006300030B500228B071C0F0F2303FA04F2154B71
:1006400008338C1053F824309343124C08348D1027
:1006500044F8253023468C1053F824308C07240F9F
:1006600000FA04F423430B4C08348D1044F8253071
:1006700030BD0A490860704700080140000C014085
:10068000001001400014014000180140001C01400E
:10069000002001400000014000002042DC00204218
:1006A000DD48006840F00100DB490860084640680A
:1006B000DA490840D849486008460068D8490840E7
:1006C000D54908600846006820F480200860084684
:1006D000406820F4FE0048604FF41F0088607047B7
:1006E000CD49096821F48031CB4A1160114609686F
:1006F00021F480211160B0F5803F03D0B0F5802F48
:100700000ED106E0C449096841F48031C24A116043
:1007100007E0C149096841F4A021BF4A116000E027
:1007200000BF00BF704710B5014600220023002023
:100730004A11012A02D1B84C236806E0022A02D1EC
:10074000B54C236A01E0B44C636A01F01F02012436
:1007500094401C4201D0012000E0002010BD38B5BB
:10076000002000900024002500BF3120FFF7DBFFB0
:1007700005460098401C00900098B0F5A06F01D08D
:10078000002DF2D03120FFF7CEFF08B1012400E0A8
:100790000024204638BD014600209F4A106820F002
:1007A000F80040EAC100106070479E490860704739
:1007B00002460020984B586820F47C1042EA01035E
:1007C0001843954B58607047964908667047014634
:1007D0000020914A506820F00300084350607047A1
:1007E0008D48406800F00C007047014600208A4A9E
:1007F000506820F0F0000843506070470146002028
:10080000854A506820F4E060084350607047014614
:100810000020814A506820F4605040EAC1005060D6
:10082000704729B17C4A527A02437B4B5A7204E0EA
:10083000794A527A8243784B5A7270477A490860F3
:10084000704701460020744A506820F44040084335
:10085000506070470021754A11706F4A82F820106D
:10086000012802D0042808D103E001216F4A117049
:1008700004E005216D4A117000E000BF00BF704721
:100880006B49086070476449096A0143624A116212
:100890007047674944390860704730B5002100222D
:1008A000002400235C4D6D6805F00C0121B1042982
:1008B00005D0082923D105E05E4D056022E05D4D9D
:1008C00005601FE0544D6D6805F47012524D6D685F
:1008D00005F48034022505EB92421CB9564D554370
:1008E00005600BE04C4D6D6815F4003F03D0524D90
:1008F0005543056002E04F4D5543056002E04D4D04
:10090000056000BF00BF444D6D6805F0F0010909A6
:100910004A4D6B5C0568DD4045603F4D6D6805F4F0
:10092000E061090A454D6B5C4568DD4085603A4DE4
:100930006D6805F46051C90A404D6B5C4568DD4047
:10094000C560354D6D6805F44041890B3C4D6B5CCD
:10095000C568B5FBF3F5056130BD29B12E4A526972
:1009600002432D4B5A6104E02B4A526982432A4BC1
:100970005A61704729B1284A92690243264B9A610D
:1009800004E0254A92698243234B9A61704729B15A
:10099000214AD2690243204BDA6104E01E4AD2693F
:1009A00082431D4BDA61704729B11B4AD26802436A
:1009B000194BDA6004E0184AD2688243164BDA60B9
:1009C000704729B1144A12690243134B1A6104E0BB
:1009D000114A12698243104B1A6170471449403919
:1009E000086070470F49C86470470B49C871704769
:1009F0000948406A40F080700749486270470146E4
:100A00000020054A92680A4201D0012000E000203F
:100A10007047014988727047001002400000FFF8DB
:100A2000FFFFF6FE00004242D80042422010024082
:100A30008004424200127A0000093D00400000207C
:100A40005000002010B50446FB48844209D1012122
:100A50008803FFF7A9FF00214FF48040FFF7A4FFB0
:100A600032E0F648844209D101214804FFF7A9FF8A
:100A700000214FF40030FFF7A4FF25E0F048844246
:100A800009D101218804FFF79CFF00214FF4802049
:100A9000FFF797FF18E0EB48844209D10121C80411
:100AA000FFF78FFF00214FF40020FFF78AFF0BE0D4
:100AB000E548844208D101210805FFF782FF0021A3
:100AC0004FF48010FFF77DFF10BD2DE9F04786B091
:100AD00005460E460024A24600BFA1460027B08965
:100AE00000B100BF2F462C8A4CF6FF700440F088FE
:100AF00004432C82AC894EF6F3100440B08831894F
:100B00000843718908430443AC81AC8A4FF6FF4027
:100B10000440B0890443AC8201A8FFF7BEFEC6487A
:100B2000874202D1DDF810A001E0DDF80CA0A88911
:100B300010F4004F08D00AEBCA0000EB0A1031682D
:100B40004900B0FBF1F807E00AEBCA0000EB0A101D
:100B500031688900B0FBF1F86420B8FBF0F00401C3
:100B60002009642101FB1089A88910F4004F08D0E6
:100B7000322000EBC900B0FBF1F000F007000443A5
:100B800008E0322000EB09106421B0FBF1F000F026
:100B90000F0004432C8106B0BDE8F0874FF41651D6
:100BA000016000218180C18001810C2141810021EF
:100BB0008181704710B502460020108A4FF2FF0372
:100BC00018400B884C8823438C882343CC882343CC
:100BD0001843108210BD0021018041808180C180B6
:100BE000704721B1828942F40052828104E08289F7
:100BF0004DF6FF731A4082817047F0B5034600241A
:100C0000002600250020A1F510676A3F00D100BF33
:100C10001846C1F3421401F01F06012707FA06F532
:100C2000012C01D10C3004E0022C01D1103000E085
:100C300014301AB107682F43076002E00768AF431A
:100C40000760F0BD1AB1838A0B43838202E0838A76
:100C50008B4383827047028A4FF6F0731A400282F8
:100C6000028A0A430282704782894FF2FF731A4058
:100C7000828182890A438281704721B1828942F050
:100C80000202828104E082894FF6FD731A4082815C
:100C90007047028A4FF6DF731A400282028A0A43C3
:100CA0000282704721B1028A42F48042028204E04B
:100CB000028A4BF6FF731A4002827047C1F30802A2
:100CC0008280704701468888C0F308007047818998
:100CD00041F0010181817047028BD2B20283028B05
:100CE00042EA012202837047028B02F47F420283B0
:100CF000028B0A430283704721B1828A42F02002AC
:100D0000828204E0828A4FF6DF731A408282704743
:100D100021B1828A42F01002828204E0828A4FF678
:100D2000EF731A408282704721B1828A42F0080232
:100D3000828204E0828A4FF6F7731A4082827047FB
:100D400021B1828942F40042828103E08289C2F3A8
:100D50000E028281704721B1828A42F4006282824F
:100D600004E0828A4FF2FF731A4082827047828ABF
:100D70004FF6FB731A408282828A0A43828270474E
:100D800021B1828A42F00202828204E0828A4FF616
:100D9000FD731A408282704702460020B1F5007F41
:100DA00000D100BF13880B4201D0012000E00020D9
:100DB000704701F40072B2F5007F00D100BFCA4352
:100DC0000280704770B502460024002300250020F1
:100DD000A1F510666A3E00D100BFC1F3421501F0D3
:100DE0001F03012606FA03F3012D02D19689334031
:100DF00006E0022D02D1168A334001E0968A334084
:100E00000C12012606FA04F41688344013B10CB112
:100E1000012000E0002070BD10B500220023A1F5E4
:100E200010646A3C00D100BF0A1201249440A3B2AE
:100E3000DC43048010BD0000003801400044004045
:100E400000480040004C00400050004072B670471F
:100E500062B67047EFF3108072B6704780F3108867
:100E6000704730BF704720BF7047B0FA80F07047BE
:100E700090FAA0F0B0FA80F0704790FAA0F07047B6
:100E8000064C074D06E0E06840F0010394E80700D7
:100E900098471034AC42F6D3FFF74EF9B45E000821
:100EA000D45E000870B58C1810F8015B15F00703CC
:100EB00001D110F8013B2A1106D110F8012B03E0F3
:100EC00010F8016B01F8016B5B1EF9D12B0705D4FB
:100ED0000023521E0DD401F8013BFAE710F8013B44
:100EE000CB1A921C03E013F8015B01F8015B521E60
:100EF000F9D5A142D8D3002070BD000018484FF0AA
:100F0000FF010170002080F309881648016881F311
:100F1000088815484FF08051016062B6FEE772B64E
:100F2000EFF3098028B1203880E8F00F0F490968F5
:100F3000086000B50E4880475DF804EB0D480E4987
:100F40000A78027009480D490A680260106890E842
:100F5000F00F203080F309884EF0040E62B670471F
:100F600022ED00E04401002004ED00E03C010020FF
:100F700021270008CA000020CB00002040010020EB
:100F800008B518E00C48007800F0A8FA6A4600217D
:100F90000A48006801F016FC0748007800F086FA5D
:100FA00005480078401C0449087008460078062867
:100FB00001DD00200870E5E70000002004000020AB
:100FC00008B531E01948002204210368184800F0F0
:100FD0002BFA60B117480068322805DD1548006813
:100FE00032381449086002E03220124908600F4884
:100FF0000022082103680E4800F016FA78B10D4867
:10100000006840F6B831884205DC0A480068323092
:101010000849086003E040F6B830064908606A46AF
:101020000021142001F0CEFBCCE7000008000020D6
:10103000001801400400002008B508E0072000F077
:101040005BFA6A4600214FF4FA6001F0BBFBF5E75A
:1010500070B58AB0064600F095F800F09DF800F0F3
:1010600089F804462D480068B4FBF0F5284601F0E5
:10107000B3FD00F06BFA09A800F0E8FD00F0FAF803
:1010800009A8032100220592CDE906210890052038
:101090004FF400713322224BCDE90132CDE9031028
:1010A000032000231F4A20A10090234800F058FE8F
:1010B00009A8032100220592CDE906210890052008
:1010C0004FF4007133221D4BCDE90132CDE90310FD
:1010D000032000231A4A1BA100901E4800F040FE86
:1010E00009A8032100220592CDE9062108900520D8
:1010F0004FF400713322184BCDE90132CDE90310D2
:1011000003200023154A16A10090194800F028FE7C
:1011100009A9002000F07AFF0AB070BD045D000844
:1011200014040020810F0008417070205461736B1B
:10113000204C656431000000140C0020DC0C002001
:10114000C10F0008417070205461736B204C6564BE
:1011500032000000DC140020A41500203910000823
:10116000417070205461736B204C65643300000043
:10117000A41D002000B585B06846FFF78EFB0198DE
:1011800005B000BD10B500F04BF900F09DF904F07A
:1011900007FD10BD00BFFEE710B500F0FBF800F042
:1011A00003F800F0F3F810BD70B5002600201849D0
:1011B00008801849088018490860184908601849CB
:1011C00008601849086018490860002400BFFFF74C
:1011D00041FE064600BF00250BE0002010490860D4
:1011E00000F074F800F08CF80D4800680444681CA6
:1011F00085B2002DF1D00C48046000200849086039
:101200000849086000BF3046FFF728FE00BF70BDE8
:10121000580000205A0000205C00002060000020E0
:10122000680000206C000020640000200146084691
:10123000044A1268904203D9024A1268801A00E0F8
:10124000002070476400002070B5002500BFFFF744
:1012500001FE054600BF0648046800BF2846FFF7A8
:10126000FDFD00BF2046FFF7E1FF0646304670BD9A
:101270006800002070B50025FFF7E6FF044600BFB8
:10128000FFF7E8FD054600BF00200449086000BFE5
:101290002846FFF7E3FD00BF204670BD6800002030
:1012A00070B5002500BFFFF7D5FD054600BF064815
:1012B000046800BF2846FFF7D1FD00BF2046FFF7B6
:1012C000B5FF0646304670BD6C00002010B50948D9
:1012D0000088401C074908800748008818B900F0BA
:1012E00083F80649086004480088401C02490880C9
:1012F00010BD0000580000205A0000205C000020B3
:1013000010B50F480088401E0D4908800846008827
:10131000A0B900F069F80B490860084600680A495E
:101320000968441A09480068A04201D207480460CD
:1013300007480068A04201D20548046010BD0000C3
:101340005A000020600000205C000020680000209F
:101350006C00002010B5002400BF00BFFFF77AFD2D
:10136000044600BFFFF7B2FF00BF1021064800F09F
:10137000E3F800BFFFF7C4FF00BF2046FFF76EFD94
:1013800000BF00BF10BD00006C1E002010B5FFF7AD
:10139000E1FF10BD10B500200249086000F00AF816
:1013A00010BD000054000020014908607047000093
:1013B0005400002010B50A48006840F080700849C9
:1013C00008600020074948600846006840F00100B6
:1013D0000860FFF7CFFE04462046FFF7E5FF10BD8B
:1013E000FCED00E0001000E001484068704700009C
:1013F000001000E0704700BFFEE7000008B50121C3
:101400004020FFF7B7FA1C20ADF8000048208DF807
:10141000030069460148FEF7F7FF08BD00180140C8
:1014200010B5FFF7EBFF10BD2DE9FE4307468846D8
:1014300014461D464FF0000941463846FFF775F83F
:101440000646A64211D102A8002114230A46CDE97E
:101450000010084601F05EFA41463846FFF765F88D
:101460000646A64201D101202870A64205D0287860
:10147000012802D18146002028704846BDE8FE833D
:1014800008B501211020FFF775FAFF20ADF8000024
:1014900010208DF8030003208DF8020069460248F1
:1014A000FEF7B2FF08BD00000010014010B5044671
:1014B000034830F8240081B20248FFF750F810BD0D
:1014C0000C0000200010014010B5FFF7D9FFFF21EC
:1014D0000148FFF744F810BD0010014010B5044664
:1014E000034830F8240081B20248FFF73AF810BDF3
:1014F0000C0000200010014010B504460B4830F8E5
:10150000240081B20A48FFF71DF838B1074830F8C7
:10151000240081B20648FFF724F806E0034830F8BB
:10152000240081B20248FFF71AF810BD0C00002019
:101530000010014000BFFEE730B505460C462246CC
:101540000021284600F026F830BD00000D480E4965
:1015500001600146416000218160C160016141611B
:101560008161C16101620163C162416207498163B6
:10157000C1634FF4D841016441640146044A1160DB
:10158000704700007C1E002048454150C41E0020CA
:10159000700000202DE9F04103460C4617460FB9B4
:1015A000BDE8F08103B9FBE70025002202E02D022F
:1015B0002543521C042AFAD3384603F0030C19467B
:1015C000BCF1000F08D0624603E001F8014B401E59
:1015D000521C08B1042AF8D30E4601E020C6001FB1
:1015E0000428FBD2314602E001F8014B401E0028DE
:1015F000FAD100BFD4E770477047000010B5034828
:10160000006810B101480068804710BD80000020CC
:1016100070B5044600F0C2F80020484908704849F7
:1016200008704849087048490860484908604849B6
:101630000870484908704849087048490860484996
:1016400008604849086048490870484800680A210D
:10165000B0FBF1F0464908604648006858B146487A
:10166000056845B14348066803E0761E00202860FF
:101670002D1D002EF9D10020404908604049086026
:101680004049086040490860404908604049086096
:10169000404908604049087002F030FA02F02EFB21
:1016A000204601F08BFB208800B170BD204601F080
:1016B000A5FF208800B1F8E7204601F0ABFF2088A5
:1016C00000B1F2E7204602F08FF8208800B1ECE785
:1016D000204602F043FA208800B1E6E7204602F0F7
:1016E00093FC208800B1E0E7204602F0FDFF20884F
:1016F00000B1DAE7204601F0EDFE208800B1D4E722
:10170000204601F0F7FC208800B1CEE7204604F027
:1017100053F8208800B1C8E7204602F029FF20884E
:1017200000B1C2E7204604F0A3F8208800B1BCE76E
:1017300001F06AFAFFF760FF00BFB6E794000020EF
:101740009C000020E40000203C010020400100201B
:10175000CA000020CB000020CC000020D8000020D0
:10176000DC000020E0000020EC000020045D000808
:10177000E8000020D45C0008D05C00087400002061
:10178000780000207C0000208000002084000020E1
:10179000880000208C0000201A0100200A4A1168ED
:1017A000002002E0002204C1401C084A1268904256
:1017B000F8D3054A1268054B1B6802EB8302121F1F
:1017C000034B1A6070470000D05C0008D45C00082E
:1017D0004401002010B500242E480078012800D0D4
:1017E00010BD00BFFFF736FB044600BF2A48007853
:1017F00028B900BF2046FFF731FB00BFF0E72648BD
:101800000078401E2449087008460078002805DD4D
:1018100000BF2046FFF722FB00BFE1E71F4800782A
:10182000002805DD00BF2046FFF718FB00BFD7E703
:1018300002F050F91A4908700846007800EB4000A1
:10184000184951F8200018490860084600681749EF
:101850000968884205D100BF2046FFF7FFFA00BFA4
:10186000BEE711480068D0F89000401C0E49096896
:10187000C1F890000E480068401C0D4908604FF008
:1018800080500C49086000BF2046FFF7E7FA00BF10
:1018900000BFA5E79C00002094000020E400002089
:1018A000CB000020F0A00020400100203C010020DF
:1018B0001001002004ED00E010B50024204800785D
:1018C000002800DD10BD1F480078002800DDF9E782
:1018D00000BFFFF7BFFA044600BF02F0FBF81A4949
:1018E00008700846007800EB4000184951F82000C5
:1018F000174908600846006816490968884205D1FA
:1019000000BF2046FFF7AAFA00BFDBE710480068D7
:10191000D0F89000401C0E490968C1F890000E48AC
:101920000068401C0C4908604FF080500B4908606B
:1019300000BF2046FFF792FA00BF00BFC2E70000D9
:1019400094000020E4000020CB000020F0A0002044
:10195000400100203C0100201001002004ED00E0C7
:1019600070B5044600251A480078002803DD46F6C5
:101970006250208070BD17480078012803D045F6DA
:1019800089602080F6E714480078FA2803DB45F2E6
:1019900009202080EEE700BF00BFFFF75BFA054695
:1019A00000BFFFF793FC00BF0B480078401C0A49BA
:1019B000087002F087FA00BFFFF7A2FC00BF2846BC
:1019C000FFF74CFA00BF00BF0020208000BFD1E726
:1019D000940000209C000020E400002070B5044624
:1019E000002523480078002803DD46F66550208056
:1019F00070BD20480078012803D045F6896020801A
:101A0000F6E71D48007818B946F664502080EFE7E5
:101A100000BF00BFFFF71EFA054600BFFFF756FCE8
:101A200000BF15480078401E13490870084600782A
:101A300000280CDD00BFFFF763FC00BF2846FFF75E
:101A40000DFA00BF00BF46F663502080D0E702F0D9
:101A500047FA00BFFFF754FC00BF2846FFF7FEF926
:101A600000BF00BFFFF728FF0020208000BFBFE7B6
:101A7000940000209C000020E400002010B50446E3
:101A800012480078E8B902F025F8114908700846B4
:101A90000078104908700E48007800EB40000E49AD
:101AA00051F820000D490860084600680C4908609C
:101AB000012006490870FFF721FA43F6992020809B
:101AC00002E045F68A60208010BD00009C000020E6
:101AD000CB000020CA000020F0A000204001002020
:101AE0003C0100202DE9F04107464FF0000800BFFF
:101AF00000BFFFF7AFF9804600BFFFF7E7FB00BF6D
:101B000000204749086047490880474908804749FD
:101B100008604749086047490860474908604749E5
:101B200008604749088100BFFFF7EAFB00BF404655
:101B3000FFF794F900BF00BF00BF00BFFFF78AF9AD
:101B4000804600BFFFF7C2FB00BF3E48046800BFED
:101B5000FFF7D6FB00BF4046FFF780F900BF00BF8C
:101B600026E000BF00BFFFF775F9804600BFFFF712
:101B7000ADFB00BF00207834E06320642060206368
:101B8000A061A082E0826062A062FFF72DFC20626B
:101B9000783C04F164060020B081D4F8C04000BF56
:101BA000FFF7AEFB00BF4046FFF758F900BF00BF8C
:101BB000002CD6D100BF00BFFFF74CF9804600BF14
:101BC000FFF784FB00BF2048056800BFFFF798FBC4
:101BD00000BF4046FFF742F900BF00BF16E000BF5C
:101BE00000BFFFF737F9804600BFFFF76FFB00BF6C
:101BF00005F120060020B081AD6900BFFFF780FB32
:101C000000BF4046FFF72AF900BF00BF002DE6D114
:101C100003F09AFC03F028FF00203880BDE8F08133
:101C2000B0000020AA000020FA0000200C010020D3
:101C3000200100202C01002098000020DC00002062
:101C4000E4A0002014010020D0000020F8B50446D4
:101C500000266946364800F033FDBDF8000018B193
:101C6000BDF800002080F8BD6A460021022000F087
:101C7000A9FDBDF8000018B1BDF800002080F2E712
:101C800000BF00BFFFF7E6F8064600BFFFF71EFBE8
:101C900000BF00202749086000BFFFF731FB00BFED
:101CA0003046FFF7DBF800BF00BF00252248006880
:101CB00022490968884205D91F4800681F490968F8
:101CC000B0FBF1F525B91C4800680A21B0FBF1F51D
:101CD0006A460021284600F075FD6946144800F068
:101CE000A5FABDF8000018B1BDF800002080BAE7E1
:101CF00000BF00BFFFF7AEF8064600BFFFF7E6FAE9
:101D000000BF00200E4908600A4800680D490860BD
:101D100001200D49087000BFFFF7F2FA00BF3046FE
:101D2000FFF79CF800BF00BF0020208000BF9AE7AB
:101D300000A40020FC000020045D0008EC5C00080A
:101D40000C010020000100200801002010B503480C
:101D5000006810B101480068804710BD8400002071
:101D60002DE9FF4F87B004469046DDE91BA5DDE96C
:101D70001496179F0020039095480078002805DDF1
:101D800047F24A1028800BB0BDE8F08F1CB947F22B
:101D9000AD102880F7E7B8F1000F03D147F24F10DC
:101DA0002880F0E71EB946F62F602880EBE78948C7
:101DB0000068874203D246F630602880E3E7169831
:101DC000B84203D346F631602880DCE7B9F1200F32
:101DD00003D346F273202880D5E7B9F1000F06D16E
:101DE0007D48844203D046F273202880CBE7B9F1C6
:101DF0001F0F06D17948844203D046F27320288011
:101E0000C1E7204602F080FC002028800AF0010093
:101E100090B10AF0020078B105960020069008E023
:101E20000021059801600598001D05900698401C4A
:101E300006900698B842F3D3169806EB80000490FB
:101E4000CDE9007A32464046049B0A9900F0D8FB5F
:101E50000590C4F828800A98E0620898206284F807
:101E60003790059820600498A060199860651998CB
:101E700018B95B480068A06501E01998A0651A9838
:101E800060606662A763A4F83CA04FF0000B08E016
:101E9000002104F17C0040F82B100BF1010000F050
:101EA000FF0BBBF1000FF3D004F16400189901F0AF
:101EB00011FC204600F09EF800BF00BF00BFFEF7F7
:101EC000C9FF039000BFFFF701FA00BF4548007843
:101ED000401C4449087008460078012801D101F0EF
:101EE000F1FF00BFFFF70CFA00BF0398FEF7B6FF43
:101EF00000BF00BF00BF94F8370001F00BFE204682
:101F000001F044FF204602F0B5FB37480088401C32
:101F10003549088035480078012837D000BF00BF18
:101F200000BFFEF797FF039000BFFFF7CFF900BF98
:101F30002C480078401E2B49087008460078D0B91C
:101F400001F0CEFF2A48008800280BDD00BFFFF714
:101F5000D7F900BF0398FEF781FF00BF00BF01F073
:101F600083FF11E000BFFFF7CBF900BF0398FEF736
:101F700075FF00BF08E000BFFFF7C2F900BF03987C
:101F8000FEF76CFF00BF00BF00BFFCE600BF00BF54
:101F900000BFFEF75FFF039000BFFFF797F900BF98
:101FA00010480078401E0F4908700846007808B9AC
:101FB00001F096FF00BFFFF7A3F900BF0398FEF7FB
:101FC0004DFF00BF00BF00BFFFF776FC00BFDAE6A1
:101FD00094000020005D00081CA00020549F0020F9
:101FE000E8000020E4000020180100209C000020F0
:101FF000A800002010B504460348006818B1204628
:1020000001490968884710BD7400002070B5044676
:102010000D46002678480078002803DD47F24E1070
:10202000288070BD7548844203D147F24C10288047
:10203000F7E77348844203D147F24D102880F0E758
:102040009CB900BF00BFFEF705FF064600BFFFF7C3
:102050003DF900BF6B48046800BFFFF751F900BFAE
:102060003046FEF7FBFE00BF00BF00BF00BF00BF51
:10207000FEF7F0FE064600BFFFF728F900BF6248F2
:102080000078401C6049087008460078012801D19A
:1020900001F018FF00BFFFF733F900BF3046FEF72D
:1020A000DDFE00BF00BF00BF94F8360008282DD227
:1020B000DFE800F004090E10080A0F11204601F0B5
:1020C000A5FE5EE05DE000BF204603F021FA58E087
:1020D00000BF00BF00BF204603F01AFA94F8340096
:1020E000082810D2DFE800F004070508090A0B06EB
:1020F00000BF00BF08E000BF00BF00BF00BF204618
:1021000001F039FC00E000BF00BF3AE000BF00BFB3
:1021100000BFFEF79FFE064600BFFFF7D7F800BFDF
:1021200039480078401E3849087008460078D0B910
:1021300001F0D6FE3548008800280BDD00BFFFF710
:10214000DFF800BF3046FEF789FE00BF00BF01F098
:102150008BFE11E000BFFFF7D3F800BF3046FEF75B
:102160007DFE00BF08E000BFFFF7CAF800BF3046A1
:10217000FEF774FE00BF00BF00BF46F62D6028804A
:102180004FE700BF04F1640001F082FA204600F03E
:1021900041F8204602F086FA1D480088401E1C497E
:1021A0000880204602F0B0FAFF2084F8360000BF15
:1021B00000BF00BFFEF74EFE064600BFFFF786F8E1
:1021C00000BF11480078401E0F490870084600788B
:1021D00008B901F085FE00BFFFF792F800BF304656
:1021E000FEF73CFE00BF00BF00BF00202880FFF7C5
:1021F00063FB00BF15E7000094000020549F0020FF
:102200001CA000203C010020E4000020A8000020C9
:102210001801002010B504460348006818B1204694
:1022200001490968884710BD780000207FB5044641
:102230000D46002600BF00BFFEF70CFE064600BF9D
:10224000FFF744F800BF1CB11748006884420CD166
:1022500000BFFFF755F800BF3046FEF7FFFD00BF97
:1022600000BF47F2571028807FBD00BFFFF748F836
:1022700000BF3046FEF7F2FD00BF00BF0B480078FC
:1022800000280BDD00200090019003460246214605
:10229000CDE90205064800F065FFE5E7294620463E
:1022A00002F0DEFB00BFDFE73C01002094000020CD
:1022B0005452455310B504460348006818B12046EF
:1022C00001490968884710BD7C0000202DE9F047CE
:1022D00080460E4614461D464FF000098C48007893
:1022E000002805DD46F2AE1028800020BDE8F0870A
:1022F0001EB1B6F5004F02D100E000BF04E045F684
:10230000256028800020F1E700BF0CB1002020608C
:1023100000BF00BFFEF79EFD814600BFFEF7D6FF5F
:1023200000BF7C480068406CB8B37A480068406CD5
:10233000401E78490968486476480068476C1CB1BB
:1023400074480068006C2060FFF74EF87149096816
:10235000096C401A6F490968C1F8A4006D4800680B
:10236000D0F8A8006B490968D1F8A410884207D2B8
:1023700068480068D0F8A40066490968C1F8A80058
:1023800000BFFEF7BDFF00BF4846FEF767FD00BF78
:1023900000BF002028803846A8E7FFE706F4004089
:1023A00068B100BFFEF7ACFF00BF4846FEF756FD20
:1023B00000BF00BF46F2B0102880002096E75648C4
:1023C000007800280DDD00BFFEF79AFF00BF4846E9
:1023D000FEF744FD00BF00BF46F663502880002092
:1023E00084E700BF4C480078401C4B490870084601
:1023F0000078012801D101F065FD00BFFEF780FFE4
:1024000000BF4846FEF72AFD00BF00BF00BF43469D
:1024100007220021084601F0F3F900BF00BF00BF0A
:10242000FEF718FD814600BFFEF750FF00BF3A4897
:102430000078401E384908700846007808B901F055
:102440004FFD00BFFEF75CFF00BF4846FEF706FDEC
:1024500000BF00BF00BFFFF72FFA00BF00BFFEF7AD
:10246000F9FC814600BFFEF731FF00BF2948006834
:1024700090F8350020B1012826D0032834D12CE073
:10248000FCB124480068006C2060FEF7ADFF2149D4
:102490000968096C401A1F490968C1F8A4001D4861
:1024A0000068D0F8A8001B490968D1F8A410884238
:1024B00007D218480068D0F8A40016490968C1F886
:1024C000A8000020288013E01CB112480068006CAE
:1024D000206046F2A91028800AE00CB1002020609C
:1024E00047F2D920288003E046F62E60288000BFFE
:1024F00000BF08480068476C00BFFEF701FF00BF3F
:102500004846FEF7ABFC00BF00BF3846EEE60000D1
:10251000940000203C010020E40000202DE9F04759
:1025200005460E4617461C464FF0000A3248007812
:10253000002804DD47F259102080BDE8F0871EB95D
:1025400046F2D5202080F8E71FB946F2D52020803A
:10255000F3E700BF00BFFEF77DFC824600BFFEF739
:10256000B5FE00BF0DB925480568286878B900BFD9
:10257000FEF7C6FE00BF5046FEF770FC00BF00BF6E
:1025800000203060386047F252102080D5E795F87F
:102590003C0000F0010078B900BFFEF7B1FE00BFBB
:1025A0005046FEF75BFC00BF00BF00203060386083
:1025B00047F254102080C0E700BFFEF7A1FE00BF25
:1025C0005046FEF74BFC00BF00BF4FF00008D5F8A7
:1025D000249003E009F1040908F10108D9F800008A
:1025E0000028F7D0C6F80080A86BA0EB0800386080
:1025F0000020208000BFA0E7940000203C010020C4
:10260000F0B50446DDE9055602EB85004FF0807C0D
:10261000071F3846C7F800C0071F38463C60DFF880
:102620009CC0071F3846C7F800C04FF0123C071F78
:102630003846C7F800C04FF0033C071F3846C7F8BC
:1026400000C04FF0023C071F3846C7F800C0071F04
:1026500038463B60071F384639604FF0113C071F72
:102660003846C7F800C04FF0103C071F3846C7F87F
:1026700000C04FF0093C071F3846C7F800C04FF0B4
:10268000083C071F3846C7F800C04FF0073C071F3B
:102690003846C7F800C04FF0063C071F3846C7F859
:1026A00000C04FF0053C071F3846C7F800C04FF088
:1026B000043C071F3846C7F800C0F0BDDD4B0008DA
:1026C0007FB505460C461248854203D147F25B10A0
:1026D00020807FBD0F48854203D147F25C102080E7
:1026E000F7E70D48007800280BDD002000900190EE
:1026F000034602462946CDE90204084800F032FDAF
:10270000E7E72146284602F049FD00BFE1E7000067
:10271000549F00201CA000209400002054535553C7
:1027200070B52448006810B1224800688047FEF761
:102730005BFE04462048006820490968884215D09D
:102740001D480068D0F89800201A1B490968C1F894
:10275000940019480068D0F89C0017490968D1F81E
:102760009410084414490968C1F89C001348006893
:10277000C0F89840FEF77EFD05460F480068D0F887
:10278000B400A84203D20C480068C0F8B4500A480C
:102790000068D0F8B8000A490968884205D208489C
:1027A000006805490968C1F8B800002004490860BC
:1027B00070BD0000880000203C0100204001002086
:1027C000E00000202DE9F04105460E4614460027A2
:1027D0004D480078002804DD47F275202080BDE8D0
:1027E000F0814A480078002803DD46F663502080D7
:1027F000F5E736B1022E05D0042E0AD0082E09D1F5
:1028000001E000BF00BF1DB947F27E202080E6E74F
:1028100004E003E045F625602080E0E700BF00BF4C
:1028200000BF00BFFEF716FB074600BFFEF74EFDD8
:1028300000BF36480078401C3449087008460078CC
:10284000012801D101F03EFB00BFFEF759FD00BF9A
:102850003846FEF703FB00BF00BF00BF01202C4934
:10286000096881F836002346324629462848006820
:1028700002F070FD2088F0B100BF00BF00BFFEF77E
:10288000E9FA074600BFFEF721FD00BF1F480078A8
:10289000401E1E4908700846007808B901F020FB68
:1028A00000BFFEF72DFD00BF3846FEF7D7FA00BF88
:1028B00000BF00BF93E71648006801F0A7FA00BF09
:1028C00000BF00BFFEF7C6FA074600BFFEF7FEFCDA
:1028D00000BF0E480078401E0C490870084600787A
:1028E00008B901F0FDFA00BFFEF70AFD00BF384647
:1028F000FEF7B4FA00BF00BF00BFFEF7DDFF002007
:10290000208000BF6BE7000094000020E40000205E
:102910003C0100202DE9FF5F05460E46174698460C
:10292000DDE90EA40020009081480078002804DD35
:1029300047F275202080BDE8FF9F7E480078002880
:1029400003DD46F663502080F5E70AF00E0BBBF17D
:10295000000F09D0BBF1020F07D0BBF1040F10D05C
:10296000BBF1080F0ED101E000BF00BFB8F1000FAE
:1029700006D12FB926B91DB947F27E202080DAE7AB
:1029800004E003E045F625602080D4E700BF2AF08C
:102990001E0008B1012000E00020039003980128E8
:1029A00003D145F625602080C5E7CAF300100290E8
:1029B0000298C0B9B8F57A7F03D347F27B20208014
:1029C000B9E73B2F03DD47F27A202080B3E73B2EA7
:1029D00003DD47F279202080ADE7632D12DD47F259
:1029E00078202080A7E742F20F70864203DD47F28D
:1029F000792020809FE7B5F57A7F03DB47F27820C6
:102A0000208098E74C48D0F800904FF4FA70B0FB63
:102A1000F9F0404400FB09F04FF47A71B0FBF1F19A
:102A20004FF461606843C6EB061200EB8200384445
:102A300000FB091001900198002873D000BF00BF6F
:102A400000BFFEF707FA009000BFFEF73FFC00BF93
:102A500038480078401C374908700846007801283B
:102A600001D101F02FFA00BFFEF74AFC00BF009829
:102A7000FEF7F4F900BF00BF00BF01202F4909682D
:102A800081F8360023465A462C480199006802F026
:102A900061FC2088F0B100BF00BF00BFFEF7DAF98B
:102AA000009000BFFEF712FC00BF22480078401ED5
:102AB000204908700846007808B901F011FA00BFF3
:102AC000FEF71EFC00BF0098FEF7C8F900BF00BF6C
:102AD00000BF30E71948006801F098F900BF00BF57
:102AE00000BFFEF7B7F9009000BFFEF7EFFB00BF95
:102AF00010480078401E0F4908700846007808B951
:102B000001F0EEF900BFFEF7FBFB00BF0098FEF7F7
:102B1000A5F900BF00BF00BFFEF7CEFE0020208059
:102B200003E0FFE747F27E20208000BF03E70000BC
:102B300094000020E4000020045D00083C01002017
:102B400010B586B000F01EF8FEF74EFC044605A84E
:102B500000210091CDE9011403900748007800EBB3
:102B60004000064A02EB800100231A46044800F0A8
:102B7000F9FA06B010BD0000CA000020F0A0002045
:102B80005449434B10B50348006810B10148006830
:102B9000804710BD8C00002010B5002400BF00BF8E
:102BA000FEF758F9044600BFFEF790FB00BF094846
:102BB0000078401C0749087000BFFEF7A1FB00BF6A
:102BC0002046FEF74BF900BF00BFFFF7B9FFFEF745
:102BD00001FE10BD9400002001464A1E4FF0E02384
:102BE0005A61084A106820F07F4000BF10601A4602
:102BF000126942F005021A611A46126942F0020295
:102C00001A61704720ED00E0254A2649264A274AE6
:102C10002749284A2848294A294A2A4A2A4A2B4821
:102C20002B482C482C4A2D482D4A2E482E4A2F48F6
:102C30002F4830483048314A314A324A3248334AC4
:102C4000334A34483448354835483648364837489A
:102C5000374A384A384A394A39483A483A483B4A62
:102C60003B4A3C4A3C483D483D483E493E483F4A35
:102C70003F4A404A404A414A414A424A4248434AFE
:102C8000434A44484448454A454A4648464A474AD2
:102C900047484848484800BF00BF00BF7047000091
:102CA000485D0008B05E0008495D00084A5D000804
:102CB0004C5D0008505D0008545D0008515D00083F
:102CC0007C5D00087D5D00087E5D0008805D000879
:102CD000825D0008845D0008865D0008885D00084C
:102CE000A85D0008AA5D0008AC5D0008AE5D0008A4
:102CF000B05D0008B25D0008B45D0008E05D00084A
:102D0000E15D0008E25D0008E45D0008E65D0008A2
:102D1000E75D0008E85D0008EA5D0008EC5D00087A
:102D2000EE5D0008F05D0008F25D0008F45D00084B
:102D3000245E0008255E0008265E0008275E000865
:102D4000285E00082A5E00082C5E0008545E000819
:102D5000555E0008565E0008575E0008585E000881
:102D60005A5E00085C5E0008605E0008615E000854
:102D7000625E0008635E0008645E0008655E00082D
:102D8000665E0008675E0008685E00086A5E00080C
:102D90006B5E00086C5E00086E5E0008705E0008E6
:102DA000715E0008745E0008A85E0008A95E000855
:102DB000AA5E0008AC5E0008AE5E00080021034A6F
:102DC0001160034A1180018070470000B4000020A8
:102DD000B80000202DE9F04F85B0044689469246A0
:102DE0009B46DDF838800020009000BF00BFFEF752
:102DF00031F8009000BFFEF769FA00BFBAF1000F8A
:102E00000AD0BAF1010F0DD0BAF5004F05D06FF41A
:102E10000040504460B906E000BF206A40EA090063
:102E2000206216E000BF206A20EA0900206210E05C
:102E300000BFFEF765FA00BF0098FEF70FF800BF6D
:102E400000BF45F62560A8F80000002005B0BDE8E9
:102E5000F08F00BFC4F824B004F10800019001987D
:102E6000008968B900BFFEF74BFA00BF0098FDF774
:102E7000F5FF00BF00BF0020A8F80000206AE5E7CA
:102E800000BF71480078401C6F4908700846007800
:102E9000012801D101F016F800BFFEF731FA00BF9A
:102EA0000098FDF7DBFF00BF00BF00BF0198076877
:102EB000BD6889E07868029095F8880000F00F00FE
:102EC00003900398012821D002282ED0042802D094
:102ED000082836D10EE0206AD5F8801000EA0106F5
:102EE000D5F88000B04204D15A463146284600F059
:102EF000AFF863E0206AD5F8801000EA010626B139
:102F00005A463146284600F0A3F857E0D5F880002D
:102F1000216A20EA0106D5F88000B04204D15A4661
:102F20003146284600F094F848E0D5F88000216A40
:102F300020EA010626B15A463146284600F088F8B4
:102F40003CE000BF00BF00BFFDF784FF009000BF62
:102F5000FEF7BCF900BF3C480078401E3A490870B3
:102F600008460078D0B900F0BBFF38480088002838
:102F70000BDD00BFFEF7C4F900BF0098FDF76EFF40
:102F800000BF00BF00F070FF11E000BFFEF7B8F90E
:102F900000BF0098FDF762FF00BF08E000BFFEF72A
:102FA000AFF900BF0098FDF759FF00BF00BF00BF99
:102FB00043F6FF20A8F80000002047E700BF029F6B
:102FC0000FB1BD6800E00025002D7FF473AF00BF96
:102FD00000BF00BFFDF73EFF009000BFFEF776F98F
:102FE00000BF19480078401E17490870084600784D
:102FF00008B900F075FF00BFFEF782F900BF009826
:10300000FDF72CFF00BF00BF00BF0AF4004008B965
:10301000FEF752FC00BF00BFFDF71CFF009000BF91
:10302000FEF754F900BF206A049000BFFEF768F96C
:1030300000BF0098FDF712FF00BF00BF0020A8F8F6
:103040000000049802E70000E4000020A80000202F
:1030500070B504460E46154634342665002060706F
:103060002070E560A078343C082816D2DFE800F034
:10307000040508090706101100BF00BF00BF0DE0DE
:1030800000BF204601F0DEFC002084F8360005E099
:1030900000BF042084F8360000E000BF00BF2046D7
:1030A00000F069FC70BD0000002400BF1DE000BFFF
:1030B00000BFFDF7CFFE044600BFFEF707F900BFD3
:1030C0000A480068401C0949086009480068401C1B
:1030D0000749086000BFFEF713F900BF2046FDF75F
:1030E000BDFE00BF00BFFEF789FAE0E790000020B8
:1030F000FC00002010B58AB0044600200E4908608C
:103100000B2000210591CDE90704069108460B49E3
:1031100009680B4A12680B4B1B68CDE90132CDE9F7
:1031200003101F200023084A08A100900C48FEF756
:1031300017FE0AB010BD000090000020AC5C000833
:10314000A85C0008A45C0008A930000875432F4F54
:10315000532D4949492049646C65205461736B00C3
:10316000549F00202DE9F84F04460D4616461F4691
:10317000DDE90BABDDF82890DDF83480002000900D
:1031800000BF00BFFDF766FE009000BFFEF79EF88F
:1031900000BF2C4800882C49098888423EDA29481B
:1031A0000088401C274908802848008809888842F0
:1031B00003DA24480088254908802548006804600F
:1031C00023480068856022480068C660204800687F
:1031D00007821F480068C0F814901D480068A0F8D6
:1031E00018A01B480068C0F81CB019480068406867
:1031F000174908600120174908811748086048608E
:10320000002000F087FC1548007818B113480078BA
:10321000134908700020A8F8000008E01148008851
:10322000401C1049088044F25360A8F8000000BF19
:10323000FEF766F800BF0098FDF710FE00BF00BF64
:10324000BDE8F88FA8000020B85C0008AA000020A4
:10325000A0000020F0A000201CA00020CA00002038
:10326000CC000020AC0000203EB559480068006842
:10327000584A811A904279D00FDC574908440028F7
:103280003ED056490844A8B155490844002860D0AA
:103290005449084400286AD13FE0534808440028B4
:1032A00050D052490844002862D0514908440028AF
:1032B000F1D110E002A8464D00902D68EB69444D15
:1032C0002D682A8B424D2D686969414D2D68A8688B
:1032D000FFF780FD7AE002A93D480068C0693C4DD7
:1032E000CDE900012D682B8B394D2D682A8A384D88
:1032F0002D68E968364D2D68A86800F03BFC65E054
:10330000334B1B68DA69324B1B68198B304B1B68D7
:10331000986802AB00F084FE58E002A92C480068CF
:10332000C0692B4DCDE900012D682B8B284D2D68F0
:103330002A8A274D2D68E968254D2D68A86801F077
:103340004BFA43E022490968886802A901F088FB2A
:103350003CE01F4B1B68DA691D4B1B68198B1C4B2B
:103360001B68986802AB01F045FC2FE007E02CE0F9
:1033700017490968886802A901F010FF26E01D4975
:10338000097801EB41011C4A02EB810000F0C6FD07
:103390000F48006802AB0021C269184801F02AFCFE
:1033A00017480068401E164908600846006858B96A
:1033B000144800680860FEF717F8044602AB22467E
:1033C0000021114801F016FC00E000BF00BF3EBD27
:1033D000A40000205449434BADBAB2BE0DF90BFA1C
:1033E000F2F8F7FF0006F6FF00F7FDF700FFEFFF2A
:1033F00003FE0FFECC000020F0A0002038A3002028
:10340000380100203401002000A40020002700BF64
:1034100056E0002652E000BF00BFFDF71BFD074647
:1034200000BFFDF753FF00BF2648008898B9002071
:10343000254908810860486000F07EFB00BFFDF769
:103440005FFF00BF3846FDF709FD00BF00BFFEF774
:1034500033FA012632E000BFFDF752FF00BF3846C5
:10346000FDF7FCFC00BF00BFFDF7BEFF0546FFF700
:10347000FBFEFDF7B9FF441B14480068A04201D2CF
:103480001248046000BF00BFFDF7E4FC074600BF20
:10349000FDF71CFF00BF0E48006840680C4908603B
:1034A00008480088401E0749088000BFFDF728FF34
:1034B00000BF3846FDF7D2FC00BF00BF002EAAD0E7
:1034C000A7E70000A8000020F0A00020B000002026
:1034D000A4000020F0B589B00546002031490880DD
:1034E0003148006820B944F25260288009B0F0BD2C
:1034F0002E480088022803DA44F254602880F5E759
:1035000000202B49086028480468264620360027FA
:103510000CE0284820600020A060E060208260610C
:103520002083666020342036781C87B21F480088CC
:103530008742EEDB203C1C48066866601E48066039
:103540001E48066000201E4908801E4908801E484B
:10355000006818B944F255602880C7E71B48006826
:103560001B490968884203D244F256602880BDE7AF
:10357000032000210591CDE9070506911348006855
:10358000144A1268104B1B68CDE90301CDE90132E2
:1035900000910B46104A11A11748FEF7E1FB00BF4E
:1035A000A4E70000AC000020B45C0008B85C000890
:1035B000B00000204E4F4E45A0000020A400002087
:1035C000A8000020AA000020C05C0008C85C000819
:1035D000005D0008C45C00080D34000875432F4FDF
:1035E000532D49494920495352205175657565202D
:1035F0005461736B000000001CA000200021034AEE
:103600001160034A1180018070470000BC00002057
:10361000C000002070B501461A4D2D681DB945F255
:103620001E750D8070BD184D2D881DB945F21D7594
:103630000D80F7E7134D28682A681032124D2D8847
:103640006D1EACB2002308E00260002545600581D4
:10365000C560103010325D1CABB2A342F4DB002514
:10366000056045600581C560064D2D68074E3560D3
:10367000054D2D88B5800025F58035810D8000BF72
:10368000D0E70000E45C0008DC5C0008E4A0002057
:1036900010B5014648894B89002B17DD0A680C4B91
:1036A0001B6813600A4C4B6823602346DB884C89F7
:1036B0001B1B074CE38023469B884C892344044C06
:1036C000A38000234B818B810B604B6010BD0000F9
:1036D000E4A00020018100224281828102604260D8
:1036E000704700002DE9F0410D46DDE90674B0F8A1
:1036F0000AC0B0F80880C44505DB46F2935CA4F824
:1037000000C0BDE8F081DFF8DCC0BCF804C0BCF14B
:10371000000F04D145F21D7CA4F800C0F1E7DFF8EA
:10372000C4C0DCF80010DFF8BC80D1F800C0C8F8D5
:1037300000C0C446BCF804C0ACF1010CA8F804C039
:10374000C446BCF806C00CF1010CA8F806C0C4467B
:10375000BCF808C0B8F80680C44507DADFF884C0B2
:10376000BCF806C0DFF87C80A8F808C0B0F80AC032
:10377000BCF1000F0AD1016041604FF0010CA0F8CC
:103780000AC04FF0000CC1F800C017E003F0100CA5
:10379000BCF1000F07D10668316001604FF0000CEA
:1037A000C1F800C004E0D0F804C0C1F800C0416016
:1037B000B0F80AC00CF1010CA0F80AC0B0F80CC0B7
:1037C000B0F80A80C44503DAB0F80AC0A0F80CC00B
:1037D0004D600A81CF604FF0000CA4F800C000BF1C
:1037E0008FE70000E4A000200021034A1160034A93
:1037F0001180018070470000C4000020C800002034
:103800002DE9F04105460C4616461F46154800684E
:1038100080F8346000201349096881F83500394682
:103820001048006800F00AFF6CB104F10808EC6071
:10383000012229460B48006800F016F82946404648
:1038400000F066F806E0002006490968C8870549C7
:103850000968086303480168204600F019F8BDE8CC
:10386000F08100003C01002010B5C28701630023F5
:103870000AE000244C600C600C614C610C83CC614C
:10388000886020315C1CA3B29342F2DB10BD0000C3
:1038900030B548B14568C1F8C45000F10804226849
:1038A00093681D6AC56113E091F83450022D02D06F
:1038B000072D08D103E007A5C1F8C45007E007A50C
:1038C000C1F8C45003E008A5C1F8C45000BF00BF50
:1038D00030BD00005461736B205100005461736B64
:1038E0002053656D000000002000000030B507A5E2
:1038F000C1F8C45000F1080422681AB193681D6A27
:10390000C56101E001A5C56130BD000020000000D7
:10391000F0B58E6896F8375007893FB901270781BF
:1039200000274F600F600160416023E007897F1C22
:103930000781026806E0946894F83770AF4200DDB2
:1039400002E05268002AF6D100BF32B900274F606A
:1039500043680B60596041600CE017682FB9116033
:1039600000270F604A60016004E013680B604A6042
:1039700059601160F0BD2DE9F0410446256BE68FDA
:103980000AE0D5F80C8008F108072946384600F00F
:103990000AF82035701E86B2002EF2DC0020E08787
:1039A0002063BDE8F08110B50489012C03D1002407
:1039B0000460446011E00C6824B94A680024146073
:1039C00002600AE04C6824B90B6800245C60436024
:1039D00003E00B684A685A6013600489641E04811E
:1039E00000244C600C6010BD2DE9F84306460C46DF
:1039F00017469846089D94F83600082850D2DFE80C
:103A000000F00405080906072B2C00BF00BF00BF0B
:103A100047E000BF94F83400032807D143463A46F4
:103A200021463046009500F03FF803E0E765A4F832
:103A30006080256436B12046FFF79DFF2146304661
:103A4000FFF754FF204600F0FDFF00203434A07043
:103A5000607004F8340924E000BF94F834000328AF
:103A600007D143463A4621463046009500F01CF8FF
:103A700003E0E765A4F860802564204601F048FD76
:103A800036B12046FFF777FF21463046FFF72EFF7D
:103A900004203434A0700020607004F8340900E081
:103AA00000BF00BFBDE8F883F0B50446059E086B73
:103AB000CD8F0AE0C768A74204D104614261038345
:103AC000C66104E020306F1EBDB2002DF2DC00BFE5
:103AD000F0BD000070B50025074C03E005F12000A3
:103AE000C5B2241D20680028F8D02068FDF7BDF974
:103AF0002844C5B2284670BD48010020002004E0DB
:103B00000021034A42F82010401C0028F8D07047DA
:103B10004801002030B5420900F01F030121C3F124
:103B20001F04A140034C54F822400C43014D45F8BA
:103B3000224030BD4801002030B5420900F01F038B
:103B40000121C3F11F04A140034C54F822408C43CF
:103B5000014D45F8224030BD480100200021034AB4
:103B60001160034A1180018070470000D0000020DE
:103B7000D40000202DE9F04F85B007468A469346D1
:103B80001C460020029000BF00BF00BFFDF762F995
:103B9000029000BFFDF79AFB00BF56480078401C1A
:103BA0005449087008460078012801D100F08AF9CC
:103BB00000BFFDF7A5FB00BF0298FDF74FF900BF5E
:103BC00000BF00BF07F10806308900284CD104F07F
:103BD000100010B94FF0000801E04FF01008DDE9C7
:103BE0000E0143465A46CDE90001514607F1200037
:103BF000FFF778FD00BF00BF00BFFDF72BF9029073
:103C000000BFFDF763FB00BF3A480078401E39490A
:103C1000087008460078D0B900F062F9364800888C
:103C200000280BDD00BFFDF76BFB00BF0298FDF71E
:103C300015F900BF00BF00F017F911E000BFFDF754
:103C40005FFB00BF0298FDF709F900BF08E000BF65
:103C5000FDF756FB00BF0298FDF700F900BF00BF5B
:103C600000BF05B0BDE8F08F04F4007008B13589DD
:103C700000E00125D6F8009011E0D9F80800039083
:103C8000D9F8040004900E985B46524600903846DE
:103C90000399FFF7A9FEDDF81090681E85B2002D8C
:103CA000EBD100BF00BF00BFFDF7D4F8029000BF0A
:103CB000FDF70CFB00BF0F480078401E0D4908704F
:103CC0000846007808B900F00BF900BFFDF718FBB3
:103CD00000BF0298FDF7C2F800BF00BF00BF04F4A8
:103CE000004008B9FDF7E8FD00210F98018000BFF2
:103CF000B7E70000E4000020A800002000210AE04F
:103D000001EB4102054B03EB8200002202810260BD
:103D100042604A1CD1B22029F2D37047F0A00020A3
:103D200010B5044694F83700FFF7F4FE94F8370016
:103D300005490978884203D1204600F027F802E0BF
:103D4000204600F003F810BDCA00002010B590F81E
:103D5000373003EB43030C4C04EB83010B893BB975
:103D600001230B810023C36003610860486009E000
:103D70000B895B1C0B810B68C360002303610A681D
:103D80001061086010BD0000F0A0002010B590F890
:103D9000373003EB43030B4C04EB83010B893BB936
:103DA00001230B810023C36003610860486008E0C1
:103DB0000B895B1C0B810023C3604A680261D060E1
:103DC000486010BDF0A0002010B501460C8924B158
:103DD000012C03D0022C0CD101E000BF14E00868D4
:103DE0004A6802610024C4601461D0600A604860BF
:103DF0000AE008684A68C36800241C61C460026164
:103E0000D0600B60486000BF00BF10BD2DE9F041DD
:103E1000054695F8370000EB4000124901EB80049D
:103E20002F69EE6887B946B9002020812060606064
:103E300095F83700FFF780FE0EE02089401E2081B4
:103E400000203061266007E02089401E2081FE604E
:103E50000EB9676000E0376100202861E860BDE8C6
:103E6000F0810000F0A0002010B5002400BFFCF796
:103E7000F1FF044600BF00200D4908700D480E49AF
:103E8000086008460068D0F89000401C0968C1F836
:103E900090000A480068401C084908604FF08050B4
:103EA0000749086000BF2046FCF7D8FF00BF10BDDF
:103EB000CB0000201CA000204001002010010020A9
:103EC00004ED00E010B504480078012803D1FDF7A7
:103ED0008BFA0249086010BDE4000020D8000020E1
:103EE00010B50A48007880B9FDF77EFA08490968DC
:103EF000441A08480068A04201D2064804600648F7
:103F00000068A04201D20448046010BDE400002013
:103F1000D8000020DC000020E000002070B505463D
:103F2000002635480078012800D070BD00BF00BFD2
:103F3000FCF790FF064600BFFDF7C8F900BF2C68EC
:103F40004CB900BFFDF7DCF900BF3046FCF786FF37
:103F500000BF00BFE9E72948844209D100BFFDF74F
:103F6000CFF900BF3046FCF779FF00BF00BFDCE7A8
:103F7000A06D10B1A06D401EA065A06D48B100BF3E
:103F8000FDF7BEF900BF3046FCF768FF00BF00BF79
:103F9000CBE72889022809DA00BFFDF7B1F900BF95
:103FA0003046FCF75BFF00BF00BFBEE71448007857
:103FB000002809DD00BFFDF7A3F900BF3046FCF77C
:103FC0004DFF00BF00BFB0E72846FFF7FDFE2C689D
:103FD000606D18B90B480068A06501E0606DA065D0
:103FE00000BFFDF78DF900BF3046FCF737FF00BF7B
:103FF00000BF00BF99E70000EC000020549F0020A4
:10400000E4000020E80000200021034A1160034A78
:104010001180018070470000F0000020F4000020B3
:104020002DE9FF5F0446884691461D460020019019
:1040300000BF00BFFCF70EFF019000BFFDF746F97F
:1040400000BF04F108073889002857D1042001284F
:1040500004D0022816D004283AD127E0206AFF288D
:104060000FD100BFFDF74CF900BF0198FCF7F6FE39
:1040700000BF00BF46F6C5502880002004B0BDE850
:10408000F09F26E04FF6FF71206A88420DD100BFF5
:10409000FDF736F900BF0198FCF7E0FE00BF00BF56
:1040A00046F6C55028800020E8E712E0206A401C50
:1040B00068B900BFFDF724F900BF0198FCF7CEFEF8
:1040C00000BF00BF46F6C55028800020D6E700E0BC
:1040D00000BF00BF206A401C2062D4F820A0C4F8B2
:1040E000249000BFFDF70CF900BF0198FCF7B6FE65
:1040F00000BF00BF002028805046BFE700BF2D480A
:104100000078401C2B49087008460078012801D12E
:10411000FFF7D8FE00BFFDF7F3F800BF0198FCF7EA
:104120009DFE00BF00BF00BF08F4007008B13E89CB
:1041300000E00126D7F800B011E0DBF8080002909B
:10414000DBF80400039000231A46CDF800902046C7
:104150000299FFF749FCDDF80CB0701E86B2002E04
:10416000EBD1D4F820A000BF00BF00BFFCF772FE67
:10417000019000BFFDF7AAF800BF0E480078401E6E
:104180000C4908700846007808B9FFF7A9FE00BF7F
:10419000FDF7B6F800BF0198FCF760FE00BF00BF56
:1041A00000BF08F4004008B9FDF786FB0020288016
:1041B000504663E7E400002086B00020009000BF76
:1041C00006E0D9490968480001AA0021FEF7FAFA79
:1041D000D64800780128F4D101A8FDF783FC002718
:1041E000D3480068D0490968884205D9D04800689A
:1041F000CD490968B0FBF1F727B9CD4800680A211D
:10420000B0FBF1F78EE1FDF7EFF88246FDF748F8D5
:10421000C849086000BF00BFFCF71CFE009000BF4B
:10422000FDF754F800BFC4480068C4490860002086
:10423000C149086000BFFDF763F800BF0098FCF7B4
:104240000DFE00BF00BFBE480068BC490968884237
:1042500048D9BB480068BB49884205D242F2107079
:1042600003900120029023E0B5480068B6498842D7
:1042700005D24FF47A7003900A20029018E0B048FB
:104280000068B249884203D26420039002900FE094
:10429000AB480068AE49884205D20A2003904FF42B
:1042A0007A70029004E00120039042F210700290B4
:1042B000A34801680298B1FBF0F9A0490398096886
:1042C0004843B0FBF9F042F21071081AA149088086
:1042D000A14800880988884208DA9E4800889E49DB
:1042E000088003E042F210709A490880FDF72EFD25
:1042F000002500BF00BFFCF7ADFD009000BFFCF73C
:10430000E5FF00BF9548046800BFFCF7F9FF00BF58
:104310000098FCF7A3FD00BF00BF72E000BF00BF24
:1043200000BFFCF797FD009000BFFCF7CFFF00BF78
:104330008B480078401C8A4908700846007801289C
:1043400001D1FFF7BFFD00BFFCF7DAFF00BF009807
:10435000FCF784FD00BF00BF00BF54F89C0F6060F5
:10436000002044F89C0900BF00BF00BFFCF772FDAD
:10437000009000BFFCF7AAFF00BF79480078401EFC
:104380007749087008460078D0B9FFF7A9FD75484D
:10439000008800280BDD00BFFCF7B2FF00BF0098CB
:1043A000FCF75CFD00BF00BFFFF75EFD11E000BF42
:1043B000FCF7A6FF00BF0098FCF750FD00BF08E027
:1043C00000BFFCF79DFF00BF0098FCF747FD00BF52
:1043D00000BF00BFD4F8A000054400BF00BFFCF739
:1043E00039FD009000BFFCF771FF00BFD4F8C0405A
:1043F00000BFFCF785FF00BF0098FCF72FFD00BF52
:1044000000BF002C8AD145B34E48854205D242F206
:10441000107005904FF0010B1BE04B48854205D210
:104420004FF47A7005904FF00A0B12E0474885422E
:1044300003D26420059083460BE04548854204D2B0
:104440000A2005904FF47A7B03E00120059042F2A8
:10445000107BB5FBFBF0049003E0002005900120E9
:10446000049000BF00BFFCF7F5FC009000BFFCF714
:104470002DFF00BF3948046800BFFCF741FF00BFB3
:104480000098FCF7EBFC00BF00BF2FE0D4F8A000C1
:10449000059948430499B0FBF1F086B242F21070DE
:1044A000864200D90646A4F88C60B4F88E00B0426B
:1044B00001DAA4F88E6001AB04F1AC02111D2046B4
:1044C000FEF72CF800BF00BFFCF7C4FC009000BF53
:1044D000FCF7FCFE00BFD4F8C04000BFFCF710FFA3
:1044E00000BF0098FCF7BAFC00BF00BF002CCDD184
:1044F0001D480078012805D100201B49087001A83B
:10450000FDF7F0FAFCF770FFA0EB0A081748006807
:10451000404502D21548C0F8008001AA0021384663
:10452000FEF750F96FE60000EC5C0008080100207F
:10453000045D000898000020FC0000200401002019
:1045400000010020801A060000093D00005A6202A6
:104550000084D717F8000020FA0000201401002082
:10456000E4000020A8000020F60000200C0100203C
:1045700010B58AB0044600201F4908601F49086032
:104580001F4908601F4908701F4908701F480068CC
:1045900020B946F62B6020800AB010BD1C48006888
:1045A0001C490968884203D246F62C602080F3E754
:1045B000194800781F2803D346F62A602080EBE7CD
:1045C000032000210591CDE9070406910846104912
:1045D0000968124A12680D4B1B68CDE90132CDE91A
:1045E00003100D48007800230D4A0EA100901248D8
:1045F000FDF7B6FB00BFCFE7FC0000200401002060
:104600000001002008010020F6000020F05C0008F6
:10461000F85C0008005D0008E85C0008F45C000835
:10462000B941000875432F4F532D49494920537410
:104630006174205461736B0070A2002038B5044689
:104640000D4685B16B4602222946204600F082FEC7
:10465000BDF8000018B9032084F8360006E00220F7
:1046600084F8360002E0022084F836002046FFF786
:10467000CDFB38BD0021C0F8BC100949096819B943
:104680000021C0F8C01007E005490968C0F8C01053
:1046900003490968C1F8BC0001490860704700007F
:1046A00014010020D0F8BC20D0F8C0104AB90D4B3E
:1046B000196011B10023C1F8BC300023C0F8C0302C
:1046C0000FE029B90023C2F8C030C0F8BC3008E0C0
:1046D000C2F8C010C1F8BC200023C0F8C030C0F838
:1046E000BC307047140100200021044A1160044AC4
:1046F0001180044A116001807047000014010020FD
:10470000180100201001002070B504460020206030
:10471000A0606060E06020616061A061E0612BA04A
:10472000206200206062A062E0622063E087206473
:10473000E065A4F86000002104F16400FEF7CAFF00
:10474000002044F8740F6060E060A0822061743C37
:10475000002506E0002104F17C0040F82510681CCB
:10476000C5B2002DF6D00020343420612067606788
:10477000606084F85600E067A06720814FF0004039
:1047800060610020A061E06120626062A4F85800CE
:10479000A4F85A00E0652066FCF726FE0646666629
:1047A0000020A066C4F88000C4F884002070607007
:1047B000A0702020E0700020C4F88800C4F88C00AD
:1047C00004A0C4F89000343C70BD00003F546173F5
:1047D0006B000000200000002DE9FC4704460F4656
:1047E00090469946DDE90A654FF0000A00BF00BF18
:1047F00000BFFCF72FFB824600BFFCF767FD00BF40
:104800008D480078401C8C490870084600780128C3
:1048100001D1FFF757FB00BFFCF772FD00BF504608
:10482000FCF71CFB00BF00BF00BF0CB98348046845
:104830000020288094F8360008287CD2DFE800F0B9
:104840000405484906074A4B00BF00BF00BF4B465E
:104850004246394604F16400CDE90065FEF742FFA7
:1048600000BF00BF00BFFCF7F5FA824600BFFCF7AF
:104870002DFD00BF70480078401E6F490870084643
:104880000078D0B9FFF72CFB6D48008800280BDDBD
:1048900000BFFCF735FD00BF5046FCF7DFFA00BF54
:1048A00000BFFFF7E1FA11E000BFFCF729FD00BFF0
:1048B0005046FCF7D3FA00BF08E000BFFCF720FD2C
:1048C00000BF5046FCF7CAFA00BF00BF00BFAFE010
:1048D00000BF00BF00BF94F8340002282CD143462B
:1048E0003A46214600200096FFF77EF800BF00BF41
:1048F00000BFFCF7AFFA824600BFFCF7E7FC00BF41
:104900004D480078401E4C4908700846007808B9A8
:10491000FFF7E6FA00BFFCF7F3FC00BF5046FCF7D8
:104920009DFA00BF00BF00BF09F40040002843D13A
:10493000FCF7C2FF40E040E04B464246394604F1F6
:104940006400CDE90065FEF7CDFE00BF00BF00BFEB
:10495000FCF780FA824600BFFCF7B8FC00BF36487F
:104960000078401E3449087008460078D0B9FFF737
:10497000B7FA3348008800280BDD00BFFCF7C0FC05
:1049800000BF5046FCF76AFA00BF00BFFFF76CFAA1
:1049900011E000BFFCF7B4FC00BF5046FCF75EFA24
:1049A00000BF08E000BFFCF7ABFC00BF5046FCF7BF
:1049B00055FA00BF00BF00BF3AE000BF00BF00BF14
:1049C000FCF748FA824600BFFCF780FC00BF1A489B
:1049D0000078401E1849087008460078D0B9FFF7E3
:1049E0007FFA1748008800280BDD00BFFCF788FC21
:1049F00000BF5046FCF732FA00BF00BFFFF734FAA1
:104A000011E000BFFCF77CFC00BF5046FCF726FA23
:104A100000BF08E000BFFCF773FC00BF5046FCF786
:104A20001DFA00BF00BF00BF46F62D60288000BF02
:104A300000BFBDE8FC870000E40000203C0100202E
:104A4000A800002010B50446204600F061FD94F84F
:104A5000360000F0040010B92046FFF761F910BDE0
:104A600070B504460D46002600BF00BFFCF7F2F902
:104A7000064600BFFCF72AFC00BF0020288094F8FF
:104A8000360008287ED2DFE800F004050607145639
:104A90006A8000BF00BF00BF00BFFCF731FC00BF51
:104AA0003046FCF7DBF900BF00BF47F25310288007
:104AB0008CE000BF48480078401C47490870084611
:104AC0000078012801D1FFF7FDF900BFFCF718FCC1
:104AD00000BF3046FCF7C2F900BF00BF00BF14F8AA
:104AE0008A0F401E207014F88A0928B9002084F823
:104AF00036002046FFF7A6FF00BF00BF00BFFCF74F
:104B0000A9F9064600BFFCF7E1FB00BF3248007878
:104B1000401E314908700846007808B9FFF7E0F9EF
:104B200000BFFCF7EDFB00BF3046FCF797F900BF74
:104B300000BF00BF4AE014F88A0F401E207014F82E
:104B40008A0910B9012084F8360000BFFCF7D8FBB1
:104B500000BF3046FCF782F900BF00BF36E014F812
:104B60008A0F401E207014F88A0910B9022084F8B8
:104B7000360000BFFCF7C4FB00BF3046FCF76EF9FF
:104B800000BF00E015E000BF20E014F88A0F401ECF
:104B9000207014F88A0910B9032084F8360000BF89
:104BA000FCF7AEFB00BF3046FCF758F900BF00BF72
:104BB0000CE000BFFCF7A4FB00BF3046FCF74EF949
:104BC00000BF00BF46F62D60288070BD00BFFCF717
:104BD00073FE00BFF9E70000E400002008B50448B8
:104BE0000068FDF767FB69460020FDF70FFA08BD76
:104BF0003C0100202DE9F8430446884617461D462F
:104C00004FF0000900BF00BF00BFFCF723F9814649
:104C100000BFFCF75BFB00BFFB480078401CFA4973
:104C2000087008460078012801D1FFF74BF900BF52
:104C3000FCF766FB00BF4846FCF710F900BF00BF59
:104C400000BF0CB9F148046827640020288094F85C
:104C5000360008287AD2DFE800F00405FEFD0607DA
:104C6000FCFB00BF00BF00BF0420012804D00228C5
:104C700043D004286BD184E0606CFF283CD100BF96
:104C800000BF00BFFCF7E6F8814600BFFCF71EFB43
:104C900000BFDD480078401EDB49087008460078F8
:104CA000D0B9FFF71DF9DA48008800280BDD00BFF6
:104CB000FCF726FB00BF4846FCF7D0F800BF00BF5A
:104CC000FFF7D2F811E000BFFCF71AFB00BF48461F
:104CD000FCF7C4F800BF08E000BFFCF711FB00BF01
:104CE0004846FCF7BBF800BF00BF00BF46F6C55002
:104CF00028800020BDE8F88385E04FF6FF71606CE6
:104D000088423DD100BF00BF00BFFCF7A3F8814639
:104D100000BFFCF7DBFA00BFBB480078401EBA4971
:104D2000087008460078E0B9FFF7DAF8B84800885C
:104D300000280DDD00BFFCF7E3FA00BF4846FCF792
:104D40008DF800BF00BFFFF78FF813E0E2E159E0F4
:104D500000BFFCF7D5FA00BF4846FCF77FF800BF5C
:104D600008E000BFFCF7CCFA00BF4846FCF776F835
:104D700000BF00BF00BF46F6C55028800020B9E73D
:104D800041E0606C401CD8BB00BF00BF00BFFCF717
:104D900061F8814600BFFCF799FA00BF9A48007895
:104DA000401E9949087008460078D0B9FFF798F876
:104DB0009748008800280BDD00BFFCF7A1FA00BF70
:104DC0004846FCF74BF800BF00BFFFF74DF811E075
:104DD00000BFFCF795FA00BF4846FCF73FF800BF5C
:104DE00008E000BFFCF78CFA00BF4846FCF736F835
:104DF00000BF00BF00BF46F6C5502880002079E7FD
:104E0000FFE700E000BF00BF606C401C6064666CA0
:104E100000BF00BF00BFFCF71DF8814600BFFCF7D4
:104E200055FA00BF78480078401E77490870084658
:104E30000078F8B9FFF754F875480088002810DDAD
:104E400000BFFCF75DFA00BF4846FCF707F803E037
:104E50001EE01CE01AE018E000BF00BFFFF704F8F6
:104E600011E000BFFCF74CFA00BF4846FBF7F6FF25
:104E700000BF08E000BFFCF743FA00BF4846FBF75D
:104E8000EDFF00BF00BF00BF80E100BF00BF00BF5B
:104E900094F8340007282CD100231A4621461846DE
:104EA0000097FEF7A1FD666C00BF00BF00BFFBF7D7
:104EB000D1FF814600BFFCF709FA00BF52480078D5
:104EC000401E514908700846007808B9FFF708F8F5
:104ED00000BFFCF715FA00BF4846FBF7BFFF00BF55
:104EE00000BF00BF08F40040002801D1FCF7E4FC3B
:104EF0000FE10420012804D0022842D0042872D1F6
:104F000089E0606CFF283BD100BF00BF00BFFBF70A
:104F1000A1FF814600BFFCF7D9F900BF3A480078ED
:104F2000401E3949087008460078D0B9FEF7D8FF0E
:104F30003748008800280BDD00BFFCF7E1F900BF0F
:104F40004846FBF78BFF00BF00BFFEF78DFF11E067
:104F500000BFFCF7D5F900BF4846FBF77FFF00BF55
:104F600008E000BFFCF7CCF900BF4846FBF776FF2E
:104F700000BF00BF00BF46F6C55028800020B9E63C
:104F80008BE04FF6FF71606C884243D100BF00BFD9
:104F900000BFFBF75FFF814600BFFCF797F900BF3A
:104FA00019480078401E1849087008460078D8B99A
:104FB000FEF796FF1648008800280BDD00BFFCF7BF
:104FC0009FF900BF4846FBF749FF00BF00BFFEF74F
:104FD0004BFF12E000BFFCF793F900BF4846FBF718
:104FE0003DFF00BF09E057E000BFFCF789F900BFB3
:104FF0004846FBF733FF00BF00BF00BF46F6C55071
:105000002880002076E60000E40000203C0100201B
:10501000A800002041E0606C401CD8BB00BF00BF6E
:1050200000BFFBF717FF814600BFFCF74FF900BF39
:1050300058480078401E5749087008460078D0B993
:10504000FEF74EFF5448008800280BDD00BFFCF738
:1050500057F900BF4846FBF701FF00BF00BFFEF74E
:1050600003FF11E000BFFCF74BF900BF4846FBF718
:10507000F5FE00BF08E000BFFCF742F900BF48465C
:10508000FBF7ECFE00BF00BF00BF46F6C55028800E
:1050900000202FE6FFE700E000BF00BF606C401C6F
:1050A0006064666C00BF00BF00BFFBF7D3FE8146A3
:1050B00000BFFCF70BF900BF36480078401E3549A9
:1050C000087008460078D0B9FEF70AFF3248008819
:1050D00000280BDD00BFFCF713F900BF4846FBF7C3
:1050E000BDFE00BF00BFFEF7BFFE11E000BFFCF732
:1050F00007F900BF4846FBF7B1FE00BF08E000BF5C
:10510000FCF7FEF800BF4846FBF7A8FE00BF00BF53
:1051100000BF3BE000BF00BF00BFFBF79BFE814626
:1051200000BFFCF7D3F800BF1A480078401E1949A9
:10513000087008460078D0B9FEF7D2FE16480088FD
:1051400000280BDD00BFFCF7DBF800BF4846FBF78B
:1051500085FE00BF00BFFEF787FE11E000BFFCF731
:10516000CFF800BF4846FBF779FE00BF08E000BF5C
:10517000FCF7C6F800BF4846FBF770FE00BF00BF53
:1051800000BF46F62D602880002600BF00BF3046D5
:10519000B0E50000E4000020A800002070B504463F
:1051A0000D46002600BF00BFFBF754FE064600BFB9
:1051B000FCF78CF800BF0CB95A48046859480068DD
:1051C000844210D15848007800280CDD00BFFCF75D
:1051D00097F800BF3046FBF741FE00BF00BF46F620
:1051E0006350288070BD0020288094F8360008287D
:1051F00073D2DFE800F0044252627374757600BF28
:1052000049480078401C4849087008460078012841
:1052100001D1FEF757FE00BFFCF772F800BF304621
:10522000FBF71CFE00BF00BF00BF042084F836005F
:10523000012084F88A002046FEF7E8FD00BF00BF89
:1052400000BFFBF707FE064600BFFCF73FF800BFB4
:1052500035480078401E344908700846007808B97F
:10526000FEF73EFE00BFFCF74BF800BF3046FBF7F1
:10527000F5FD00BF00BF00BF4FE0052084F83600F9
:10528000012084F88A0000BFFCF73AF800BF3046DE
:10529000FBF7E4FD00BF00BF3FE0062084F83600C6
:1052A000012084F88A0000BFFCF72AF800BF3046CE
:1052B000FBF7D4FD00BF00BF2FE0072084F83600C5
:1052C000012084F88A0000BFFCF71AF800BF3046BE
:1052D000FBF7C4FD00BF00BF1FE011E000BF00BF2F
:1052E00000BF94F88A00401C84F88A0000BFFCF7D5
:1052F00007F800BF3046FBF7B1FD00BF00BF0CE070
:1053000000BFFBF7FDFF00BF3046FBF7A7FD00BF66
:1053100000BF46F62D60288064E700BFFCF7CCFA9A
:1053200000BF5FE73C010020E4000020002108E00E
:10533000064A02EBC100002202608280C2804A1C41
:1053400091B2034A12889142F2DB7047449C0020DC
:105350001C5D00082DE9F04F0C4616461D46042E34
:105360001ED1DFF8A091D9F80090A4EB0909A9F1AA
:10537000010313F5803F0DD94FF00009C0F84C90A0
:10538000C0F85090C0F81C9047F27E29A5F8009014
:10539000BDE8F08FC46403F10109C0F850903FE00C
:1053A00084B3082E25D1D0F8489009EB0407DFF824
:1053B0005491D9F80090A7EB0909A9F10103A34280
:1053C00001D2C76406E0DFF83C91D9F80090A1440F
:1053D000C0F84C90DFF82CA1D0F84C90DAF800A07F
:1053E000A9EB0A09C0F85090D0F84C90C0F848904A
:1053F00016E0DFF81091D9F80090A144C0F84C9065
:1054000004650DE0FFE74FF00009C0F84C90C0F8CC
:105410005090C0F81C9047F27E29A5F80090B7E79D
:10542000DFF8E4A0BAF800A0D0F84C90B9FBFAFB82
:105430000AFB1B991FFA89F8DFF8D09009EBC80224
:10544000B2F80490B9F1000F0BD14FF00009C0F889
:105450001490C0F8189010604FF00109A2F8049061
:105460003EE0116834E0DFF89CA0D1F84C90DAF807
:1054700000A0A9EB0A09C1F85090D0F85090D1F8DB
:1054800050A0D1450ED9D1F81490B9F1000F01D038
:1054900049691DE04FF00009C0F81490816148612E
:1054A000002115E0D1F81890B9F1000F07D14FF0A5
:1054B0000009C0F8189041618861106007E0D1F8D8
:1054C00018C0C0F818C04161CCF8140088610021F0
:1054D0000029C8D1B2F8049009F10109A2F804909A
:1054E000B2F80690B2F804A0D14503DAB2F80490FD
:1054F000A2F80690C2614FF00009A5F8009000BF25
:1055000046E700001C0100201C5D0008449C0020B0
:1055100010B5C269BAB1002404651468844205D18B
:105520004169116039B100248C6104E081694369EB
:105530004B6103B19961002444618461C461C46416
:105540009488641E948010BD002006E0054A02EB9A
:10555000C0010022CA80421C90B2034A12889042C5
:10556000F4DB7047449C00201C5D00082DE9F05FCF
:105570004FF0000B00BF00BF00BFFBF76BFC834682
:1055800000BFFBF7A3FE00BF7A480078401C7949B2
:10559000087008460078012801D1FEF793FC00BF8F
:1055A000FBF7AEFE00BF5846FBF758FC00BF00BF3C
:1055B00000BFFBF719FF05466F480068401C6E49A5
:1055C0000860084600686D490988B0FBF1F201FBEC
:1055D00012001FFA80FA6A4800EBCA08D8F80040A7
:1055E000002782E0002C7FD0D4F8149094F8360085
:1055F000082875D2DFE800F00408051B063D0750B7
:1056000000BF00BF00BF6CE05B49E06C0968401A56
:1056100020655949E06C0968884206D1002084F869
:1056200036002046FFF70EFA00E0012759E0524904
:10563000E06C0968401A20654F49E06C09688842AF
:1056400015D10020E065A4F86000FBF7CDFE2064D2
:105650002046FEF790F92046FFF7F4F90020343495
:10566000A07003206070002004F8340900E00127D6
:1056700037E04149E06C0968401A20653E49E06C1A
:105680000968884206D1042084F836002046FFF7D6
:105690003FFF00E0012724E03749E06C0968401A29
:1056A00020653549E06C0968884217D10020E06523
:1056B000A4F86000FBF798FE20642046FEF75BF933
:1056C0002046FFF725FF04203434A07003206070CB
:1056D000002004F8340902E006E001E0012700E0C0
:1056E00000BF00BF4C4600E00127002F3FF47AAF17
:1056F000FBF77AFE461B23480068B04201D22148DE
:10570000066000BF00BF00BFFBF7A4FB834600BFDD
:10571000FBF7DCFD00BF17480078401E15490870F4
:1057200008460078D0B9FEF7DBFB17480088002850
:105730000BDD00BFFBF7E4FD00BF5846FBF78EFB17
:1057400000BF00BFFEF790FB11E000BFFBF7D8FDE4
:1057500000BF5846FBF782FB00BF08E000BFFBF725
:10576000CFFD00BF5846FBF779FB00BF00BF00BF6D
:10577000BDE8F09FE40000201C0100201C5D000833
:10578000449C002020010020A80000201CB500BF80
:105790000EE001AB6A4600210846FCF797FDBDF814
:1057A000040028B903480078012801D1FFF7DEFE84
:1057B000EFE700009C00002010B58AB004460020EE
:1057C0001D4908601D490860FFF7B0FD1C480068CE
:1057D00020B947F2122020800AB010BD1948006895
:1057E00019490968884203D247F213202080F3E761
:1057F000164800781F2803D347F211202080EBE7DA
:105800000B20002105910A46CDE9070406910D48B9
:1058100000680F4909680A4B1B68CDE90131CDE9E1
:1058200003020A48007800230A4A0BA100900F489F
:10583000FCF796FA00BFCFE71C01002020010020F2
:105840000C5D0008145D0008005D0008085D00089C
:10585000105D00088D57000875432F4F532D49499F
:1058600049205469636B205461736B0038A3002096
:1058700070B58AB00446002031490860314800689C
:1058800040B1314800682F490968B0FBF1F02F4959
:10589000086006E02C4800680A21B0FBF1F02B49B3
:1058A00008602A4800682A490860002029490860E1
:1058B00029490860002508E0284800EBC5060020BB
:1058C000B080F0803060681C85B225480088854231
:1058D000F2DB2448006820B947F2473020800AB044
:1058E00070BD2148006821490968884203D247F207
:1058F00048302080F3E71E4800781F2803D347F282
:1059000046302080EBE70B2000210591CDE907040C
:105910000691084614490968164A1268114B1B681B
:10592000CDE90132CDE90310114800780023124A75
:1059300012A100901748FCF713FA00BFCFE7000050
:1059400024010020285D0008045D000834010020C7
:1059500038010020300100202C010020CC9E0020C6
:105960003C5D00082C5D0008345D0008005D000807
:10597000245D0008305D00088D5A000875432F4FE4
:10598000532D4949492054696D6572205461736BE8
:105990000000000000A40020F0B50C46022680F8AC
:1059A0002A60012C05D12D4F466A3F683E4486612E
:1059B0000CE0066A2EB9294F466A3F683E4486616C
:1059C00004E0264F066A3F683E448661244F3F88C4
:1059D0008669B6FBF7FC07FB1C66B5B2214E06EBE9
:1059E000C502166836B900260661466110600126B8
:1059F00096802CE0194F86693F68F61BC6611168D6
:105A000020E0164F8E693F68F61BCE61C669CF69EC
:105A1000BE4209D90E690EB1096913E0002606617C
:105A20004161086100210DE04E692EB900264661F2
:105A300001614861106004E04B69436101611861D4
:105A4000486100210029DCD19688761C9680D68892
:105A50009788BE4201DA9688D680F0BD30010020DA
:105A60003C5D0008CC9E0020002006E0054A02EBC9
:105A7000C0010022CA80421C90B2034A12889042A0
:105A8000F4DB7047CC9E00203C5D00081CB500BFD5
:105A900053E001AB6A4600210846FCF717FC01A859
:105AA000FBF75EFFFBF7A0FC064624480068401C9D
:105AB000224908600846006821490988B0FBF1F2D4
:105AC00001FB12001FFA80FA1E4800EBCA08D8F842
:105AD00000404FF0000B21E0F4B1D4F810901749CA
:105AE000A0690968884214D1204600F02FF8208D63
:105AF000022804D101212046FFF74EFF02E00320D7
:105B000084F82A00A56815B12046E168A8474C46EC
:105B100004E04FF0010B01E04FF0010BBBF1000F6F
:105B2000DAD0FBF761FC871B01A8FBF757FF06489B
:105B30000068B84201D204480760AAE7300100209B
:105B40003C5D0008CC9E00202C010020F0B5114ED9
:105B500036888569B5FBF6F706FB1755ACB20E4DD6
:105B600005EBC4021568854205D10169116039B1A0
:105B700000254D6104E0416903690B6103B159617E
:105B8000012580F82A5000250561456195886D1E24
:105B90009580F0BD3C5D0008CC9E00207047000061
:105BA00000B585B001218803FAF7E4FE0121042045
:105BB000FAF7E0FE4FF40070ADF8100018208DF8F1
:105BC000130003208DF8120004A91348FAF71CFCF7
:105BD0004FF48060ADF8100004208DF8130004A984
:105BE0000D48FAF711FC4FF4E13000900020ADF8B9
:105BF0000400ADF80600ADF80800ADF80C000C206C
:105C0000ADF80A0069460548FAF75FFF012103482D
:105C1000FAF7E7FF05B000BD000801400038014079
:105C200000BFFEE702E008C8121F08C1002AFAD12F
:105C300070477047002001E001C1121F002AFBD10C
:105C40007047000000B58BB00AA8FBF7E1FC0AA87A
:105C5000032100220592CDE906210890052080212C
:105C60000C22094BCDE90132CDE9031002200023BB
:105C7000064A07A100900A48FCF772F80AA8FBF749
:105C8000FDFE00200BB000BD4C01002051100008AB
:105C9000417070205461736B205374617274000002
:105CA0004C030020C48A00200C000000800000008B
:105CB00000020000C48C00200A0000004001000027
:105CC000048E00200C000000800000000002000094
:105CD000049000208000000000020000640000002A
:105CE00040060000049200200B0000000A000000A3
:105CF000449800200C00000080000000000200001A
:105D000040000000E80300000A000000449A002060
:105D10000C000000800000000002000011000000E4
:105D2000880000000B0000000A000000CC9C00204E
:105D30000C000000800000000002000011000000C4
:105D40008800000090140000010101007856341210
:105D50000101000000000000000000000000000041
:105D60000000000000000000000000000000000033
:105D70000000000000000000000000000101010020
:105D800028000400200001000000000000000000C6
:105D90000000000000000000000000000000000003
:105DA00000000000000000000100200001001000C1
:105DB0000C001000000000000000000000000000C7
:105DC00000000000000000000000000000000000D3
:105DD00000000000000000000000000000000000C3
:105DE000010101002C00010120000C002000200016
:105DF000040004000000000000000000000000009B
:105E00000000000000000000000000000000000092
:105E10000000000000000000000000000000000082
:105E2000000000000101010130000100000000003D
:105E30000000000000000000000000000000000062
:105E40000000000000000000000000000000000052
:105E5000000000000101010128000C008001000089
:105E6000040101010101010101000101C800080054
:105E70000101000000000000000000000000000020
:105E80000000000000000000000000000000000012
:105E90000000000000000000000000000000000002
:105EA00000000000000000000101340008005D76E1
:105EB0002A060000D45E0008000000204C0100000B
:105EC000A40E0008045F00084C0100207CA700001D
:105ED000345C00084132C822011A20041132023217
:105EE00004320832103220324042802BA24A1B5129
:105EF000680901020304060708090C69102C020452
:045F0000063B01F566
:0400000508000131BD
:00000001FF
