:020000040800F2
:10000000B0A8002049010008571C00080716000886
:10001000951B0008A5130008DD6200080000000021
:10002000000000000000000000000000D15F000898
:1000300005160008000000002F110008CD2F000851
:100040006301000863010008630100086301000800
:1000500063010008630100086301000863010008F0
:1000600063010008630100086301000863010008E0
:1000700063010008630100086301000863010008D0
:1000800063010008630100086301000863010008C0
:1000900063010008630100086301000863010008B0
:1000A00063010008630100086301000863010008A0
:1000B0006301000863010008630100086301000890
:1000C0006301000863010008630100086301000880
:1000D0006301000863010008630100086301000870
:1000E0006301000863010008630100086301000860
:1000F0006301000863010008630100086301000850
:10010000630100086301000863010008630100083F
:10011000630100086301000863010008630100082F
:10012000630100086301000863010008630100081F
:10013000DFF810D000F0ACFF004800471D63000856
:10014000AFF30080B0A8002006488047064800476B
:10015000FEE7FEE7FEE7FEE7FEE7FEE7FEE7FEE777
:10016000FEE7FEE749020008310100080CB5002057
:10017000019000906B48006840F480306949086045
:1001800000BF6848006800F4003000900198401CEF
:100190000190009818B90198B0F5A06FF1D16148AD
:1001A000006810F4003F02D00120009001E0002020
:1001B00000900098012842D15B48006840F0100090
:1001C000594908600846006820F0030008600846A6
:1001D000006840F002000860524840685149486099
:1001E0000846406848600846406840F480604860BF
:1001F0000846406820F47C1048600846406840F497
:10020000E81048600846006840F08070086000BF51
:100210004448006810F0007FFAD04248406820F05F
:100220000300404948600846406840F002004860CA
:1002300000BF3C48406800F00C000828F9D10CBD14
:1002400010B5FFF793FF10BD10B53648006840F0B9
:100250000100344908600846406834490840314983
:10026000486008460068324908402E490860084640
:10027000006820F4802008600846406820F4FE00F2
:1002800048604FF41F008860FFF7DAFF4FF000600E
:100290002849086010BD10B5002100200022214B24
:1002A0005B6803F00C0121B1042906D0082928D18C
:1002B00007E0214B214C236027E01F4B1F4C23609C
:1002C00023E0184B5B6803F47010164B5B6803F473
:1002D0008032022303EB904022B9194B4343174C61
:1002E00023600DE00F4B5B6813F4003F04D0144B08
:1002F0004343124C236003E00F4B43430F4C2360F6
:1003000003E00D4B0D4C236000BF00BF054B5B6845
:10031000C3F303130B4CE15C084B1B68CB40074C49
:10032000236010BD00100240002002400000FFF8D2
:10033000FFFFF6FE08ED00E000127A00100000203A
:1003400000093D001400002010B50446CA4884424C
:1003500008D10121042000F027FB0021042000F037
:1003600023FB46E0C548844208D10121082000F063
:100370001BFB0021082000F017FB3AE0C048844234
:1003800008D10121102000F00FFB0021102000F007
:100390000BFB2EE0BB48844208D10121202000F055
:1003A00003FB0021202000F0FFFA22E0B64884423F
:1003B00008D10121402000F0F7FA0021402000F090
:1003C000F3FA16E0B148844208D10121802000F000
:1003D000EBFA0021802000F0E7FA0AE0AC48844202
:1003E00007D10121801500F0DFFA0021A01500F0EF
:1003F000DBFA10BD10B50121084600F0D5FA002146
:10040000012000F0D1FA10BD2DE9F041024600258F
:100410000026002000230024002791F803C00CF0E0
:100420000F0591F803C01CF0100F03D091F802C023
:100430004CEA050591F800C0BCF1000F31D01468FA
:1004400000202BE04FF0010C0CFA00F3B1F800C0D3
:100450000CEA03069E4220D183004FF00F0C0CFAE9
:1004600003F7BC4305FA03FC4CEA040491F803C00B
:10047000BCF1280F06D14FF0010C0CFA00FCC2F8B9
:1004800014C00AE091F803C0BCF1480F05D14FF049
:10049000010C0CFA00FCC2F810C0401C0828D1D393
:1004A0001460B1F800C0BCF1FF0F34DD54680020C7
:1004B0002EE000F1080C4FF0010808FA0CF3B1F837
:1004C00000C00CEA03069E4221D183004FF00F0CBE
:1004D0000CFA03F7BC4305FA03FC4CEA040491F858
:1004E00003C0BCF1280F05D100F1080C08FA0CF884
:1004F000C2F8148091F803C0BCF1480F07D100F195
:10050000080C4FF0010808FA0CF8C2F81080401CE3
:100510000828CED35460BDE8F0814FF6FF7101800A
:10052000022181700421C170704702460020936847
:100530000B4201D0012000E000207047014688688E
:1005400080B2704702460020D3680B4201D00120E0
:1005500000E0002070470146C86880B27047016122
:100560007047416170470AB1016100E04161704725
:10057000C16070474FF480320A43826181618261B9
:1005800082698269704702460020424B18684FF624
:100590008073184040EA021008433E4B18607047D1
:1005A0003D49C8617047F0B50A4600230024002188
:1005B000002500F00046B6F1004F02D1354EF1693A
:1005C00001E0344E7168C0F3034583B200F4401675
:1005D000B6F5401F08D121F070612E4E766826F0E6
:1005E00070662C4F7E6012E000F48016B6F5801F16
:1005F00006D1032606FA05F4A14341F0706106E036
:10060000460D360103FA06F6B14341F0706122B19E
:10061000460D360103FA06F6314300F00046B6F106
:10062000004F02D11B4EF16101E01A4E7160F0BD26
:1006300030B500228B071C0F0F2303FA04F2154B71
:1006400008338C1053F824309343124C08348D1027
:1006500044F8253023468C1053F824308C07240F9F
:1006600000FA04F423430B4C08348D1044F8253071
:1006700030BD0A490860704700080140000C014085
:10068000001001400014014000180140001C01400E
:10069000002001400000014000002042DC00204218
:1006A000DD48006840F00100DB490860084640680A
:1006B000DA490840D849486008460068D8490840E7
:1006C000D54908600846006820F480200860084684
:1006D000406820F4FE0048604FF41F0088607047B7
:1006E000CD49096821F48031CB4A1160114609686F
:1006F00021F480211160B0F5803F03D0B0F5802F48
:100700000ED106E0C449096841F48031C24A116043
:1007100007E0C149096841F4A021BF4A116000E027
:1007200000BF00BF704710B5014600220023002023
:100730004A11012A02D1B84C236806E0022A02D1EC
:10074000B54C236A01E0B44C636A01F01F02012436
:1007500094401C4201D0012000E0002010BD38B5BB
:10076000002000900024002500BF3120FFF7DBFFB0
:1007700005460098401C00900098B0F5A06F01D08D
:10078000002DF2D03120FFF7CEFF08B1012400E0A8
:100790000024204638BD014600209F4A106820F002
:1007A000F80040EAC100106070479E490860704739
:1007B00002460020984B586820F47C1042EA01035E
:1007C0001843954B58607047964908667047014634
:1007D0000020914A506820F00300084350607047A1
:1007E0008D48406800F00C007047014600208A4A9E
:1007F000506820F0F0000843506070470146002028
:10080000854A506820F4E060084350607047014614
:100810000020814A506820F4605040EAC1005060D6
:10082000704729B17C4A527A02437B4B5A7204E0EA
:10083000794A527A8243784B5A7270477A490860F3
:10084000704701460020744A506820F44040084335
:10085000506070470021754A11706F4A82F820106D
:10086000012802D0042808D103E001216F4A117049
:1008700004E005216D4A117000E000BF00BF704721
:100880006B49086070476449096A0143624A116212
:100890007047674944390860704730B5002100222D
:1008A000002400235C4D6D6805F00C0121B1042982
:1008B00005D0082923D105E05E4D056022E05D4D9D
:1008C00005601FE0544D6D6805F47012524D6D685F
:1008D00005F48034022505EB92421CB9564D554370
:1008E00005600BE04C4D6D6815F4003F03D0524D90
:1008F0005543056002E04F4D5543056002E04D4D04
:10090000056000BF00BF444D6D6805F0F0010909A6
:100910004A4D6B5C0568DD4045603F4D6D6805F4F0
:10092000E061090A454D6B5C4568DD4085603A4DE4
:100930006D6805F46051C90A404D6B5C4568DD4047
:10094000C560354D6D6805F44041890B3C4D6B5CCD
:10095000C568B5FBF3F5056130BD29B12E4A526972
:1009600002432D4B5A6104E02B4A526982432A4BC1
:100970005A61704729B1284A92690243264B9A610D
:1009800004E0254A92698243234B9A61704729B15A
:10099000214AD2690243204BDA6104E01E4AD2693F
:1009A00082431D4BDA61704729B11B4AD26802436A
:1009B000194BDA6004E0184AD2688243164BDA60B9
:1009C000704729B1144A12690243134B1A6104E0BB
:1009D000114A12698243104B1A6170471449403919
:1009E000086070470F49C86470470B49C871704769
:1009F0000948406A40F080700749486270470146E4
:100A00000020054A92680A4201D0012000E000203F
:100A10007047014988727047001002400000FFF8DB
:100A2000FFFFF6FE00004242D80042422010024082
:100A30008004424200127A0000093D002400002098
:100A40003400002030B943F2DB014FF0204242F87D
:100A5000201005E043F2D2014FF0204242F820106E
:100A60006FF07042411C4FF0204343F821201146A3
:100A70001A4602EB8002C2F80411704710280AD10E
:100A800018214FF020421166402151664FF0FC3191
:100A90009166D16610E01821F84A11604FF04001CC
:100AA0004FF02042C2F884104FF0FC31F44A11603C
:100AB0004FF02042C2F88C1070471820F1490860AE
:100AC0004FF000004FF02041C1F8A4004FF0FC307F
:100AD000ED49086001F10401086001F104010860BA
:100AE0007047D0E901121143C268114302691143F2
:100AF0004269114382691143C2691143026A114379
:100B0000426A1143826A1143C26A1143026B114364
:100B10004FF02043026843F822108168082908D169
:100B20001A46016852F8211041F04001026843F86A
:100B30002210416B0968426B526841EA0211426B14
:100B4000926841EA0221426B928941EA0241426B7A
:100B5000128A41EA0251426B127D41EA0261426B04
:100B6000926911430268521C4FF0204343F822104F
:100B7000C16AB1F5804F1AD1816B0968826B5268E6
:100B800041EA0211826B926841EA0221826B128A69
:100B900041EA0251826B127D41EA0261826B9269E5
:100BA0001143026803EB8202C2F8041108E06FF0FF
:100BB00070414FF02043026803EB8202C2F8041137
:100BC000704730B5002100220023446844F0080437
:100BD00085682C43C5682C4305692C43456944EA64
:100BE0004524856944EA4531C4692468C5696D684E
:100BF00044EA0524C5692D8944EA0544C5692D7B6D
:100C000044EA0562046A2468056A6D6844EA0524BA
:100C1000056A2D8944EA0544056A2D7B44EA05638B
:100C20000468102C05D14FF020442166A266E366CB
:100C300007E0924C21604FF02044C4F88820934C88
:100C4000236030BD016841F01001426841EA422151
:100C5000826841EA42318B4A1160C1680968C26802
:100C6000526841EA0221C268128941EA0241C2681F
:100C7000127B41EA0261844A1160016909680269D4
:100C8000526841EA02210269128941EA024102697D
:100C9000127B41EA02617E4A11604169096842693A
:100CA000526841EA02214269128941EA02414269DD
:100CB000127B41EA02614FF02042C2F8B010704747
:100CC000002101600221416000218160C160016159
:100CD00041618161C16101624FF48051416249000B
:100CE00081620021C16201630F21426B1160426B7E
:100CF0005160FF21426B91600F21426BD160426BCA
:100D00001161426B51610021426B91610F21826B35
:100D10001160826B5160FF21826B91600F21826BA9
:100D2000D160826B1161826B51610021826B916194
:100D3000704710210160002141608160C160016144
:100D400041618161FC21C2691160C2695160C2695F
:100D50009160C269D160026A1160026A5160026AE0
:100D60009160026AD160704700210160416081603A
:100D7000FC21C2681160C2685160C2689160C2689B
:100D8000D160026911600269516002699160026973
:100D9000D160426911604269516042699160426963
:100DA000D160704751B14FF0204252F8202042F0FC
:100DB00001024FF0204343F8202009E04FF0204289
:100DC00052F82020334B1A404FF0204343F82020A4
:100DD000704799B1102808D14FF02042126E42F0AE
:100DE00004024FF020431A661DE0244A126842F0C4
:100DF00004024FF02043C3F8802014E0102809D1EA
:100E00004FF02042126E234BDB1E1A404FF020435E
:100E10001A6608E0194A12681F4B02EA03024FF0F3
:100E20002043C3F88020704740B11649096841F05B
:100E300004014FF02042C2F8A01008E011490968EF
:100E4000154A01EA02014FF02042C2F8A010704793
:100E500099B1102808D14FF02042126E42F04002A2
:100E60004FF020431A662DE0044A126842F0400217
:100E70004FF02043C3F8802024E00FE0800000A062
:100E8000880000A0A00000A0A80000A08C0000A086
:100E9000AC0000A0FEFF0F00FBFF0F00102808D1E0
:100EA0004FF02042126E684B1A404FF020431A66F2
:100EB00008E0664A1268644B02EA03024FF02043DE
:100EC000C3F88020704701460020102903D14FF05D
:100ED0002042506F01E05E4A1068704710B5F2B1D1
:100EE000102807D14FF020435B6E0B434FF0204496
:100EF000636632E0B0F5807F08D1564B1B6843EA49
:100F000001034FF02044C4F8843026E0524B1B68A4
:100F100043EA01034FF02044C4F8A4301DE0102838
:100F200007D14FF020435B6E8B434FF02044636644
:100F300013E0B0F5807F08D1464B1B6823EA01031C
:100F40004FF02044C4F8843007E0434B1B6823EA89
:100F500001034FF02044C4F8A43010BD10B5024680
:100F600000200023102A03D14FF02044636E07E0D5
:100F7000B2F5807F02D1374C236801E0364C2368FC
:100F80000B4201D0012000E0002010BD102807D145
:100F90004FF02042526E8A434FF020435A6613E0CE
:100FA000B0F5807F08D12B4A126822EA01024FF087
:100FB0002043C3F8842007E0274A126822EA01028E
:100FC0004FF02043C3F8A420704770B502460020BC
:100FD000002300240025102A03D14FF02046736E11
:100FE00007E0B2F5807F02D11A4E336801E01A4E55
:100FF000336803EA010403EAD10514B10DB10120FD
:1010000000E0002070BD102808D14FF02042526E41
:1010100022EAD1024FF020435A6613E0B0F5807FF8
:1010200008D10C4A126822EAD1024FF02043C3F8DB
:10103000842007E0084A126822EAD1024FF02043D8
:10104000C3F8A42070470000BFFF0F00800000A07D
:10105000940000A0840000A0A40000A072B6704715
:1010600062B67047EFF3108072B6704780F3108855
:10107000704730BF704720BF7047B0FA80F07047AC
:1010800090FAA0F0B0FA80F0704790FAA0F07047A4
:10109000064C074D06E0E06840F0010394E80700C5
:1010A00098471034AC42F6D3FFF746F81897020879
:1010B0003897020870B58C1810F8015B15F007031B
:1010C00001D110F8013B2A1106D110F8012B03E0E1
:1010D00010F8016B01F8016B5B1EF9D12B0705D4E9
:1010E0000023521E0DD401F8013BFAE710F8013B32
:1010F000CB1A921C03E013F8015B01F8015B521E4E
:10110000F9D5A142D8D3002070BD000018484FF097
:10111000FF010170002080F309881648016881F3FF
:10112000088815484FF08051016062B6FEE772B63C
:10113000EFF3098028B1203880E8F00F0F490968E3
:10114000086000B50E4880475DF804EB0D480E4975
:101150000A78027009480D490A680260106890E830
:10116000F00F203080F309884EF0040E62B670470D
:1011700022ED00E02801002004ED00E02001002025
:10118000812D0008AE000020AF00002024010020C7
:1011900008B513E001210A48FFF7D4F920B1012175
:1011A0000748FFF7DEF903E001210548FFF7D7F90B
:1011B0006A4600214FF4FA7001F034FEEAE70000BD
:1011C0000010014008B513E002210A48FFF7BAF900
:1011D00020B102210748FFF7C4F903E002210548C6
:1011E000FFF7BDF96A4600214FF47A7001F01AFE4C
:1011F000EAE70000001001400EB51AE00DA25021F0
:101200000A2000F053FB802010210323CDE90010B9
:101210000B4802780521084600F001FC02AA0021D3
:101220004FF4967001F0FEFD05480078401C04491B
:101230000870E3E7BDF0D7D0BFC6BCBC000000001B
:101240000000002070B58AB0064600F095F800F066
:10125000ABF800F089F804462D480068B4FBF0F5BF
:10126000284601F0D3FE00F0A1FC09A801F01EF809
:1012700000F008F909A8032100220592CDE9062112
:10128000089005204FF400713322224BCDE9013242
:10129000CDE90310032000231F4A20A1009023481A
:1012A00001F08EF809A8032100220592CDE906215C
:1012B000089005204FF4007133221D4BCDE9013217
:1012C000CDE90310032000231A4A1BA100901E48F9
:1012D00001F076F809A8032100220592CDE9062144
:1012E000089005204FF400713322184BCDE90132EC
:1012F000CDE9031003200023154A16A100901948D8
:1013000001F05EF809A9002001F0B0F90AB070BD43
:1013100068950208F80300209111000841707020C0
:101320005461736B204C656431000000F80B0020A1
:10133000C00C0020C5110008417070205461736B0F
:10134000204C656432000000C01400208815002085
:10135000F9110008417070205461736B204C656472
:1013600033000000881D002000B585B06846FFF7F7
:1013700094FA019805B000BD38B5002400F0F8FBE0
:1013800004F0B2FE0020054908800548C8231A462B
:10139000DC210090322000F0FDFA38BD0200002070
:1013A0007C12010800BFFEE710B500F0FBF800F06A
:1013B00003F800F0F3F810BD70B5002600201849BE
:1013C00008801849088018490860184908601849B9
:1013D00008601849086018490860002400BFFFF73A
:1013E00041FE064600BF00250BE0002010490860C2
:1013F00000F074F800F08CF80D4800680444681C94
:1014000085B2002DF1D00C48046000200849086026
:101410000849086000BF3046FFF728FE00BF70BDD6
:101420003C0000203E00002040000020440000203E
:101430004C000020500000204800002001460846D3
:10144000044A1268904203D9024A1268801A00E0E6
:10145000002070474800002070B5002500BFFFF74E
:1014600001FE054600BF0648046800BF2846FFF796
:10147000FDFD00BF2046FFF7E1FF0646304670BD88
:101480004C00002070B50025FFF7E6FF044600BFC2
:10149000FFF7E8FD054600BF00200449086000BFD3
:1014A0002846FFF7E3FD00BF204670BD4C0000203A
:1014B00070B5002500BFFFF7D5FD054600BF064803
:1014C000046800BF2846FFF7D1FD00BF2046FFF7A4
:1014D000B5FF0646304670BD5000002010B50948E3
:1014E0000088401C074908800748008818B900F0A8
:1014F00083F80649086004480088401C02490880B7
:1015000010BD00003C0000203E00002040000020F4
:1015100010B50F480088401E0D4908800846008815
:10152000A0B900F069F80B490860084600680A494C
:101530000968441A09480068A04201D207480460BB
:1015400007480068A04201D20548046010BD0000B1
:101550003E00002044000020400000204C000020FD
:101560005000002010B5002400BF00BFFFF77AFD37
:10157000044600BFFFF7B2FF00BF1021064800F08D
:101580000BFB00BFFFF7C4FF00BF2046FFF76EFD57
:1015900000BF00BF10BD0000501E002010B5FFF7B7
:1015A000E1FF10BD10B500200249086000F00AF804
:1015B00010BD00003800002001490860704700009D
:1015C0003800002010B50A48006840F080700849D3
:1015D00008600020074948600846006840F00100A4
:1015E0000860FFF7C1FE04462046FFF7E5FF10BD87
:1015F000FCED00E0001000E001484068704700008A
:10160000001000E0704700BFFEE7000070B506461E
:101610000F484088401E83B20D480088401E82B2A9
:101620000021084600F05BF800240CE0002504E0EF
:10163000304600F069FA681C85B205484088A84227
:10164000F6DC601C84B202480088A042EEDC70BD6B
:101650000600002010B50446134884715CB90821C7
:10166000362000F041FA4FF4F0700F4948804FF4F3
:10167000A070088016E02821362000F035FAB62048
:1016800000F02CFA002000F039FA022000F036FABF
:101690003B2000F033FA4FF4A070034948804FF428
:1016A000F070088010BD00000600002070B50446F0
:1016B0000D4616462B4622462946204600F00FF8D6
:1016C000304600F021FA70BD10B50246012000E05E
:1016D00050430B1EA1F10104E1B2F9D110BD70B568
:1016E00004460D462A2000F0F9F92646E11704EBDE
:1016F0001161C1F30F2000F001FAE11704EB116151
:101700000912A4EB012188B200F0F8F91646D117AE
:1017100002EB1161C1F30F2000F0F0F91646D1176A
:1017200002EB11610912A2EB012188B200F0E6F987
:101730002B2000F0D3F92E46E91705EB1161C1F318
:101740000F2000F0DBF9E91705EB11610912A5EB99
:10175000012188B200F0D2F91E46D91703EB1161BE
:10176000C1F30F2000F0CAF91E46D91703EB11612F
:101770000912A3EB012188B200F0C0F92C2000F07F
:10178000ADF970BD2DE9F84F80460E4617461C4650
:10179000B3462046E31704EB5373DB1021464FEAB0
:1017A000E47C04EB5C7C4FEAEC0CA4EBCC0CBCF1CD
:1017B000000F02D04FF0010C01E04FF0000C634429
:1017C000224604EBD27C4FEA6C0C03FB0CF3DBB239
:1017D0000093A7F12000C7B2002556E00C2C07D1DA
:1017E00007EB47002B4901EB800010F8059013E050
:1017F000102C05D1284800EB071010F805900BE0DD
:10180000182C07D107EBC700244901EB800010F822
:10181000059001E0BDE8F88F4FF0000A2FE009F0D5
:10182000800030B11E48028831464046FFF73EFF37
:1018300007E00A9828B91B48028831464046FFF75E
:1018400035FF4FEA49604FEA1069701C86B21648AE
:101850004088B04200DCDDE7A6EB0B00A0420AD1D5
:101860005E4608F101001FFA80F80F4800884045E5
:1018700000DCCFE706E00AF1010000F0FF0ABAF150
:10188000080FCCDB00BF681CC5B200988542A5DB01
:1018900000BFBFE7044B0208784F020868550208F2
:1018A0000200002004000020060000202DE9F84F6F
:1018B00004460F461546A346009760E0002657E011
:1018C00006EB8600C0EB86102F4911F8100029782E
:1018D00088424BD106EB8600C0EB86102A4901EB0B
:1018E000400040786978884240D14FF000083AE0E3
:1018F00006EB8600C0EB8610234901EB4000801CFC
:1019000010F808A04FF0000926E00AF080008028B7
:1019100006D11E48028839462046FFF7C7FE05E07B
:101920001B48028839462046FFF7C0FE4FF6FF707D
:1019300000EA4A0A601C84B2A4EB0B00202807D1FD
:101940005C46781C87B20098381A1D2800D1009F89
:1019500009F1010000F0FF09B9F1080FD5DB08F12A
:10196000010000F0FF08B8F1740FC1DB701CC6B2B3
:10197000142EA5DBAD1C04F1200084B2A346287808
:1019800000289BD1BDE8F88F449202080200002095
:10199000040000202DE9F84F06460F4614461D4668
:1019A0004FF0000AD346002000907819401E83B201
:1019B0003019401E82B239463046FFF790FE04FBD4
:1019C00005F040000090D04625E04FF000091CE0F3
:1019D0000BF101010A9810F801A04FF6FF7000EA20
:1019E0000A2A0A9810F80B0040EA0A0A07EB0802D4
:1019F00091B206EB090290B25246FFF757FE0BF187
:101A0000020B09F101001FFA80F9A145E0DB08F1A2
:101A100001001FFA80F8A845D7DBBDE8F88F2DE953
:101A2000FF4F82B0064692461F46DDE90F48002070
:101A3000019000254DE0781B401EC1B20A20FFF73F
:101A400043FEBAFBF0F00A21B0FBF1F201FB1209F0
:101A5000019850BB781EA84227DDB9F1000F22D1B2
:101A600008F0800078B108F00100A34604EBDB71B8
:101A7000491001FB0561009088B22346302203998A
:101A8000FFF780FE0EE008F00100A34604EBDB71D7
:101A9000491001FB0561009088B22346202203997A
:101AA000FFF770FE13E00120019008F00100A3464B
:101AB00004EBDB71491001FB0561009088B209F16C
:101AC0003001CAB223460399FFF75CFE00BF681CD1
:101AD000C5B2BD42AFDB06B0BDE8F08F014908805A
:101AE00070470000FE07006C00B503460A46184622
:101AF000FFF7F4FF104600F001F800BD014908802F
:101B0000704700000008006C0112024A1180C1B247
:101B1000118070470008006C08B501211020FEF705
:101B200029FF0120ADF8000010208DF803000320EC
:101B30008DF8020069460D48FEF766FC0121102071
:101B4000FEF718FF0220ADF8000069460748FEF7CF
:101B50005BFC01211020FEF70DFF0420ADF8000012
:101B600069460248FEF750FC08BD00000010014025
:101B700010B5FFF7D1FF01210548FEF7F0FC022167
:101B80000348FEF7ECFC04210148FEF7E8FC10BD19
:101B90000010014000BFFEE730B505460C46224666
:101BA0000021284600F026F830BD00000D480E49FF
:101BB00001600146416000218160C16001614161B5
:101BC0008161C16101620163C16241620749816350
:101BD000C1634FF4D841016441640146044A116075
:101BE00070470000601E002048454150A81E00209C
:101BF000540000202DE9F04103460C4617460FB96A
:101C0000BDE8F08103B9FBE70025002202E02D02C8
:101C10002543521C042AFAD3384603F0030C194614
:101C2000BCF1000F08D0624603E001F8014B401EF2
:101C3000521C08B1042AF8D30E4601E020C6001F4A
:101C40000428FBD2314602E001F8014B401E002877
:101C5000FAD100BFD4E770477047000010B50348C1
:101C6000006810B101480068804710BD6400002082
:101C700070B5044600F0C2F8002048490870484991
:101C80000870484908704849086048490860484950
:101C90000870484908704849087048490860484930
:101CA00008604849086048490870484800680A21A7
:101CB000B0FBF1F0464908604648006858B1464814
:101CC000056845B14348066803E0761E0020286099
:101CD0002D1D002EF9D100204049086040490860C0
:101CE0004049086040490860404908604049086030
:101CF000404908604049087002F01AF902F018FAE9
:101D0000204601F075FA208800B170BD204601F030
:101D10008FFE208800B1F8E7204601F095FE20886C
:101D200000B1F2E7204601F079FF208800B1ECE72E
:101D3000204602F02DF9208800B1E6E7204602F0A7
:101D40007DFB208800B1E0E7204602F0E7FE208816
:101D500000B1DAE7204601F0D7FD208800B1D4E7D2
:101D6000204601F0E1FB208800B1CEE7204603F0D9
:101D70003DFF208800B1C8E7204602F013FE20880E
:101D800000B1C2E7204603F08DFF208800B1BCE718
:101D900001F054F9FFF760FF00BFB6E778000020BC
:101DA00080000020C8000020200100202401002025
:101DB000AE000020AF000020B0000020BC000020DA
:101DC000C0000020C4000020D00000206895020858
:101DD000CC000020389502083495020858000020F5
:101DE0005C000020600000206400002068000020EB
:101DF0006C00002070000020FE0000200A4A1168DC
:101E0000002002E0002204C1401C084A12689042EF
:101E1000F8D3054A1268054B1B6802EB8302121FB8
:101E2000034B1A6070470000349502083895020889
:101E30002801002010B500242E480078012800D089
:101E400010BD00BFFFF70EF9044600BF2A48007816
:101E500028B900BF2046FFF709F900BFF0E7264880
:101E60000078401E2449087008460078002805DDE7
:101E700000BF2046FFF7FAF800BFE1E71F480078EF
:101E8000002805DD00BF2046FFF7F0F800BFD7E7C8
:101E900002F03AF81A4908700846007800EB400052
:101EA000184951F820001849086008460068174989
:101EB0000968884205D100BF2046FFF7D7F800BF68
:101EC000BEE711480068D0F89000401C0E49096830
:101ED000C1F890000E480068401C0D4908604FF0A2
:101EE00080500C49086000BF2046FFF7BFF800BFD4
:101EF00000BFA5E78000002078000020C800002077
:101F0000AF000020D4A000202401002020010020E8
:101F1000F400002004ED00E010B500242048007813
:101F2000002800DD10BD1F480078002800DDF9E71B
:101F300000BFFFF797F8044600BF01F0E5FF1A491C
:101F400008700846007800EB4000184951F820005E
:101F5000174908600846006816490968884205D193
:101F600000BF2046FFF782F800BFDBE7104800689B
:101F7000D0F89000401C0E490968C1F890000E4846
:101F80000068401C0C4908604FF080500B49086005
:101F900000BF2046FFF76AF800BF00BFC2E700009D
:101FA00078000020C8000020AF000020D4A000204E
:101FB0002401002020010020F400002004ED00E0B6
:101FC00070B5044600251A480078002803DD46F65F
:101FD0006250208070BD17480078012803D045F674
:101FE00089602080F6E714480078FA2803DB45F280
:101FF00009202080EEE700BF00BFFFF733F8054659
:1020000000BFFFF76BFA00BF0B480078401C0A497D
:10201000087002F071F900BFFFF77AFA00BF284696
:10202000FFF724F800BF00BF0020208000BFD1E7E9
:102030007800002080000020C800002070B5044611
:10204000002523480078002803DD46F665502080EF
:1020500070BD20480078012803D045F689602080B3
:10206000F6E71D48007818B946F664502080EFE77F
:1020700000BF00BFFEF7F6FF054600BFFFF72EFAD0
:1020800000BF15480078401E1349087008460078C4
:1020900000280CDD00BFFFF73BFA00BF2846FEF723
:1020A000E5FF00BF00BF46F663502080D0E702F096
:1020B00031F900BFFFF72CFA00BF2846FEF7D6FF24
:1020C00000BF00BFFFF728FF0020208000BFBFE750
:1020D0007800002080000020C800002010B50446D1
:1020E00012480078E8B901F00FFF1149087008465E
:1020F0000078104908700E48007800EB40000E4947
:1021000051F820000D490860084600680C49086035
:10211000012006490870FEF7F9FF43F69920208058
:1021200002E045F68A60208010BD0000800000209B
:10213000AF000020AE000020D4A000202401002029
:10214000200100202DE9F04107464FF0000800BFB4
:1021500000BFFEF787FF804600BFFFF7BFF900BF53
:102160000020474908604749088047490880474997
:10217000086047490860474908604749086047497F
:1021800008604749088100BFFFF7C2F900BF404619
:10219000FEF76CFF00BF00BF00BF00BFFEF762FF8D
:1021A000804600BFFFF79AF900BF3E48046800BFB1
:1021B000FFF7AEF900BF4046FEF758FF00BF00BF73
:1021C00026E000BF00BFFEF74DFF804600BFFFF7CF
:1021D00085F900BF00207834E0632064206020632C
:1021E000A061A082E0826062A062FFF705FA20622F
:1021F000783C04F164060020B081D4F8C04000BFF0
:10220000FFF786F900BF4046FEF730FF00BF00BF72
:10221000002CD6D100BF00BFFEF724FF804600BFD0
:10222000FFF75CF900BF2048056800BFFFF770F9B1
:1022300000BF4046FEF71AFF00BF00BF16E000BF18
:1022400000BFFEF70FFF804600BFFFF747F900BF52
:1022500005F120060020B081AD6900BFFFF758F9F5
:1022600000BF4046FEF702FF00BF00BF002DE6D1D1
:1022700003F084FB03F012FE00203880BDE8F081FB
:10228000940000208E000020DE000020F0000020DE
:1022900004010020100100207C000020C00000206C
:1022A000C8A00020F8000020B4000020F8B50446C3
:1022B00000266946364800F033FDBDF8000018B12D
:1022C000BDF800002080F8BD6A460021022000F021
:1022D000A9FDBDF8000018B1BDF800002080F2E7AC
:1022E00000BF00BFFEF7BEFE064600BFFFF7F6F8D0
:1022F00000BF00202749086000BFFFF709F900BFB1
:102300003046FEF7B3FE00BF00BF0025224800683C
:1023100022490968884205D91F4800681F49096891
:10232000B0FBF1F525B91C4800680A21B0FBF1F5B6
:102330006A460021284600F075FD6946144800F001
:10234000A5FABDF8000018B1BDF800002080BAE77A
:1023500000BF00BFFEF786FE064600BFFFF7BEF8CF
:1023600000BF00200E4908600A4800680D49086057
:1023700001200D49087000BFFFF7CAF800BF3046C2
:10238000FEF774FE00BF00BF0020208000BF9AE768
:10239000E4A30020E00000206895020850950208A0
:1023A000F0000020E4000020EC00002010B50348FD
:1023B000006810B101480068804710BD6800002027
:1023C0002DE9FF4F87B004469046DDE91BA5DDE906
:1023D0001496179F0020039095480078002805DD8B
:1023E00047F24A1028800BB0BDE8F08F1CB947F2C5
:1023F000AD102880F7E7B8F1000F03D147F24F1076
:102400002880F0E71EB946F62F602880EBE7894860
:102410000068874203D246F630602880E3E71698CA
:10242000B84203D346F631602880DCE7B9F1200FCB
:1024300003D346F273202880D5E7B9F1000F06D107
:102440007D48844203D046F273202880CBE7B9F15F
:102450001F0F06D17948844203D046F273202880AA
:10246000C1E7204602F06AFB002028800AF0010044
:1024700090B10AF0020078B105960020069008E0BD
:102480000021059801600598001D05900698401CE4
:1024900006900698B842F3D3169806EB8000049095
:1024A000CDE9007A32464046049B0A9900F0D8FBF9
:1024B0000590C4F828800A98E0620898206284F8A1
:1024C0003790059820600498A06019986065199865
:1024D00018B95B480068A06501E01998A0651A98D2
:1024E00060606662A763A4F83CA04FF0000B08E0B0
:1024F000002104F17C0040F82B100BF1010000F0EA
:10250000FF0BBBF1000FF3D004F16400189901F048
:10251000FBFA204600F09EF800BF00BF00BFFEF7A8
:10252000A1FD039000BFFEF7D9FF00BF454800782A
:10253000401C4449087008460078012801D101F088
:10254000DBFE00BFFEF7E4FF00BF0398FEF78EFD41
:1025500000BF00BF00BF94F8370001F0F5FC204633
:1025600001F02EFE204602F09FFA37480088401CFA
:102570003549088035480078012837D000BF00BFB2
:1025800000BFFEF76FFD039000BFFEF7A7FF00BF7F
:102590002C480078401E2B49087008460078D0B9B6
:1025A00001F0B8FE2A48008800280BDD00BFFEF7C6
:1025B000AFFF00BF0398FEF759FD00BF00BF01F059
:1025C0006DFE11E000BFFEF7A3FF00BF0398FEF70A
:1025D0004DFD00BF08E000BFFEF79AFF00BF039863
:1025E000FEF744FD00BF00BF00BFFCE600BF00BF18
:1025F00000BFFEF737FD039000BFFEF76FFF00BF7F
:1026000010480078401E0F4908700846007808B945
:1026100001F080FE00BFFEF77BFF00BF0398FEF7CE
:1026200025FD00BF00BF00BFFFF776FC00BFDAE664
:10263000780000206495020800A00020389F002048
:10264000CC000020C8000020FC00002080000020FA
:102650008C00002010B504460348006818B12046DD
:1026600001490968884710BD5800002070B504462C
:102670000D46002678480078002803DD47F24E100A
:10268000288070BD7548844203D147F24C102880E1
:10269000F7E77348844203D147F24D102880F0E7F2
:1026A0009CB900BF00BFFEF7DDFC064600BFFEF789
:1026B00015FF00BF6B48046800BFFEF729FF00BF8D
:1026C0003046FEF7D3FC00BF00BF00BF00BF00BF15
:1026D000FEF7C8FC064600BFFEF700FF00BF6248D9
:1026E0000078401C6049087008460078012801D134
:1026F00001F002FE00BFFEF70BFF00BF3046FEF701
:10270000B5FC00BF00BF00BF94F8360008282DD2EA
:10271000DFE800F004090E10080A0F11204601F04E
:102720008FFD5EE05DE000BF204603F00BF958E04E
:1027300000BF00BF00BF204603F004F994F8340046
:10274000082810D2DFE800F004070508090A0B0684
:1027500000BF00BF08E000BF00BF00BF00BF2046B1
:1027600001F023FB00E000BF00BF3AE000BF00BF64
:1027700000BFFEF777FC064600BFFEF7AFFE00BFC6
:1027800039480078401E3849087008460078D0B9AA
:1027900001F0C0FD3548008800280BDD00BFFEF7C2
:1027A000B7FE00BF3046FEF761FC00BF00BF01F07E
:1027B00075FD11E000BFFEF7ABFE00BF3046FEF72F
:1027C00055FC00BF08E000BFFEF7A2FE00BF304688
:1027D000FEF74CFC00BF00BF00BF46F62D6028800E
:1027E0004FE700BF04F1640001F06CF9204600F0EF
:1027F00041F8204602F070F91D480088401E1C492F
:102800000880204602F09AF9FF2084F8360000BFC5
:1028100000BF00BFFEF726FC064600BFFEF75EFEC7
:1028200000BF11480078401E0F4908700846007824
:1028300008B901F06FFD00BFFEF76AFE00BF304629
:10284000FEF714FC00BF00BF00BF00202880FFF788
:1028500063FB00BF15E7000078000020389F0020D0
:1028600000A0002020010020C80000208C000020D3
:10287000FC00002010B504460348006818B120464B
:1028800001490968884710BD5C0000207FB50446F7
:102890000D46002600BF00BFFEF7E4FB064600BF62
:1028A000FEF71CFE00BF1CB11748006884420CD123
:1028B00000BFFEF72DFE00BF3046FEF7D7FB00BF7E
:1028C00000BF47F2571028807FBD00BFFEF720FEF3
:1028D00000BF3046FEF7CAFB00BF00BF0B480078C0
:1028E00000280BDD0020009001900346024621469F
:1028F000CDE90205064800F04FFEE5E729462046EF
:1029000002F0C8FA00BFDFE72001002078000020B5
:102910005452455310B504460348006818B1204688
:1029200001490968884710BD600000202DE9F04783
:1029300080460E4614461D464FF000098C4800782C
:10294000002805DD46F2AE1028800020BDE8F087A3
:102950001EB1B6F5004F02D100E000BF04E045F61D
:10296000256028800020F1E700BF0CB10020206026
:1029700000BF00BFFEF776FB814600BFFEF7AEFD4D
:1029800000BF7C480068406CB8B37A480068406C6F
:10299000401E78490968486476480068476C1CB155
:1029A00074480068006C2060FEF726FE71490968D3
:1029B000096C401A6F490968C1F8A4006D480068A5
:1029C000D0F8A8006B490968D1F8A410884207D252
:1029D00068480068D0F8A40066490968C1F8A800F2
:1029E00000BFFEF795FD00BF4846FEF73FFB00BF66
:1029F00000BF002028803846A8E7FFE706F4004023
:102A000068B100BFFEF784FD00BF4846FEF72EFB0D
:102A100000BF00BF46F2B0102880002096E756485D
:102A2000007800280DDD00BFFEF772FD00BF4846AC
:102A3000FEF71CFB00BF00BF46F663502880002055
:102A400084E700BF4C480078401C4B49087008469A
:102A50000078012801D101F04FFC00BFFEF758FDBE
:102A600000BF4846FEF702FB00BF00BF00BF434661
:102A700007220021084601F0DDF800BF00BF00BFBB
:102A8000FEF7F0FA814600BFFEF728FD00BF3A4886
:102A90000078401E384908700846007808B901F0EF
:102AA00039FC00BFFEF734FD00BF4846FEF7DEFAF2
:102AB00000BF00BF00BFFFF72FFA00BF00BFFEF747
:102AC000D1FA814600BFFEF709FD00BF2948006822
:102AD00090F8350020B1012826D0032834D12CE00D
:102AE000FCB124480068006C2060FEF785FD214998
:102AF0000968096C401A1F490968C1F8A4001D48FB
:102B00000068D0F8A8001B490968D1F8A4108842D1
:102B100007D218480068D0F8A40016490968C1F81F
:102B2000A8000020288013E01CB112480068006C47
:102B3000206046F2A91028800AE00CB10020206035
:102B400047F2D920288003E046F62E60288000BF97
:102B500000BF08480068476C00BFFEF7D9FC00BF03
:102B60004846FEF783FA00BF00BF3846EEE6000095
:102B70007800002020010020C80000202DE9F04747
:102B800005460E4617461C464FF0000A32480078AC
:102B9000002804DD47F259102080BDE8F0871EB9F7
:102BA00046F2D5202080F8E71FB946F2D5202080D4
:102BB000F3E700BF00BFFEF755FA824600BFFEF7FD
:102BC0008DFC00BF0DB925480568286878B900BF9D
:102BD000FEF79EFC00BF5046FEF748FA00BF00BF5C
:102BE00000203060386047F252102080D5E795F819
:102BF0003C0000F0010078B900BFFEF789FC00BF7F
:102C00005046FEF733FA00BF00BF00203060386046
:102C100047F254102080C0E700BFFEF779FC00BFE8
:102C20005046FEF723FA00BF00BF4FF00008D5F86A
:102C3000249003E009F1040908F10108D9F8000023
:102C40000028F7D0C6F80080A86BA0EB0800386019
:102C50000020208000BFA0E7780000202001002095
:102C6000F0B50446DDE9055602EB85004FF0807CA7
:102C7000071F3846C7F800C0071F38463C60DFF81A
:102C80009CC0071F3846C7F800C04FF0123C071F12
:102C90003846C7F800C04FF0033C071F3846C7F856
:102CA00000C04FF0023C071F3846C7F800C0071F9E
:102CB00038463B60071F384639604FF0113C071F0C
:102CC0003846C7F800C04FF0103C071F3846C7F819
:102CD00000C04FF0093C071F3846C7F800C04FF04E
:102CE000083C071F3846C7F800C04FF0073C071FD5
:102CF0003846C7F800C04FF0063C071F3846C7F8F3
:102D000000C04FF0053C071F3846C7F800C04FF021
:102D1000043C071F3846C7F800C0F0BD115000083A
:102D20007FB505460C461248854203D147F25B1039
:102D300020807FBD0F48854203D147F25C10208080
:102D4000F7E70D48007800280BDD00200090019087
:102D5000034602462946CDE90204084800F01CFC5F
:102D6000E7E72146284602F033FC00BFE1E7000018
:102D7000389F002000A000207800002054535553B5
:102D800070B52448006810B1224800688047FEF7FB
:102D900033FC04462048006820490968884215D061
:102DA0001D480068D0F89800201A1B490968C1F82E
:102DB000940019480068D0F89C0017490968D1F8B8
:102DC0009410084414490968C1F89C00134800682D
:102DD000C0F89840FEF756FB05460F480068D0F84B
:102DE000B400A84203D20C480068C0F8B4500A48A6
:102DF0000068D0F8B8000A490968884205D2084836
:102E0000006805490968C1F8B80000200449086055
:102E100070BD00006C000020200100202401002073
:102E2000C40000202DE9F04105460E461446002757
:102E30004D480078002804DD47F275202080BDE869
:102E4000F0814A480078002803DD46F66350208070
:102E5000F5E736B1022E05D0042E0AD0082E09D18E
:102E600001E000BF00BF1DB947F27E202080E6E7E9
:102E700004E003E045F625602080E0E700BF00BFE6
:102E800000BF00BFFEF7EEF8074600BFFEF726FBC7
:102E900000BF36480078401C344908700846007866
:102EA000012801D101F028FA00BFFEF731FB00BF75
:102EB0003846FEF7DBF800BF00BF00BF01202C49F9
:102EC000096881F8360023463246294628480068BA
:102ED00002F05AFC2088F0B100BF00BF00BFFEF72F
:102EE000C1F8074600BFFEF7F9FA00BF1F48007897
:102EF000401E1E4908700846007808B901F00AFA19
:102F000000BFFEF705FB00BF3846FEF7AFF800BF75
:102F100000BF00BF93E71648006801F091F900BFB9
:102F200000BF00BFFEF79EF8074600BFFEF7D6FAC7
:102F300000BF0E480078401E0C4908700846007813
:102F400008B901F0E7F900BFFEF7E2FA00BF384622
:102F5000FEF78CF800BF00BF00BFFEF7DDFF0020CA
:102F6000208000BF6BE7000078000020C800002030
:102F70002001002010B586B000F01EF8FEF73CFBE3
:102F8000044605A800210091CDE9011403900748EB
:102F9000007800EB4000064A02EB800100231A464D
:102FA000044800F0F9FA06B010BD0000AE000020A1
:102FB000D4A000205449434B10B50348006810B119
:102FC00001480068804710BD7000002010B5002443
:102FD00000BF00BFFEF746F8044600BFFEF77EFACA
:102FE00000BF09480078401C0749087000BFFEF781
:102FF0008FFA00BF2046FEF739F800BF00BFFFF789
:10300000B9FFFEF717FF10BD7800002001464A1EE9
:103010004FF0E0235A61084A106820F07F4000BF5B
:1030200010601A46126942F005021A611A461269C6
:1030300042F002021A61704720ED00E0254A26495D
:10304000264A274A2749284A2848294A294A2A4AF3
:103050002A4A2B482B482C482C4A2D482D4A2E48CA
:103060002E4A2F482F4830483048314A314A324A98
:103070003248334A334A344834483548354836486C
:1030800036483748374A384A384A394A39483A4838
:103090003A483B4A3B4A3C4A3C483D483D483E4909
:1030A0003E483F4A3F4A404A404A414A414A424AD2
:1030B0004248434A434A44484448454A454A4648A8
:1030C000464A474A47484848484800BF00BF00BFF3
:1030D00070470000AC95020814970208AD950208ED
:1030E000AE950208B0950208B4950208B89502089A
:1030F000B5950208E0950208E1950208E2950208FC
:10310000E4950208E6950208E8950208EA950208A7
:10311000EC9502080C9602080E960208109602081A
:1031200012960208149602081696020818960208CB
:1031300044960208459602084696020848960208F8
:103140004A9602084B9602084C9602084E960208D0
:1031500050960208529602085496020856960208A3
:103160005896020888960208899602088A960208EC
:103170008B9602088C9602088E960208909602089A
:10318000B8960208B9960208BA960208BB960208D9
:10319000BC960208BE960208C0960208C4960208B1
:1031A000C5960208C6960208C7960208C896020885
:1031B000C9960208CA960208CB960208CC96020865
:1031C000CE960208CF960208D0960208D296020840
:1031D000D4960208D5960208D89602080C970208E1
:1031E0000D9702080E97020810970208129702081E
:1031F0000021034A1160034A1180018070470000DA
:10320000980000209C0000202DE9F04F85B0044676
:10321000894692469B46DDF838800020009000BF2A
:1032200000BFFDF71FFF009000BFFEF757F900BF7A
:10323000BAF1000F0AD0BAF1010F0DD0BAF5004F64
:1032400005D06FF40040504460B906E000BF206A2A
:1032500040EA0900206216E000BF206A20EA090067
:10326000206210E000BFFEF753F900BF0098FDF7A1
:10327000FDFE00BF00BF45F62560A8F80000002055
:1032800005B0BDE8F08F00BFC4F824B004F1080019
:1032900001900198008968B900BFFEF739F900BFB5
:1032A0000098FDF7E3FE00BF00BF0020A8F8000073
:1032B000206AE5E700BF71480078401C6F4908703C
:1032C00008460078012801D101F016F800BFFEF78A
:1032D0001FF900BF0098FDF7C9FE00BF00BF00BF87
:1032E00001980768BD6889E07868029095F88800C1
:1032F00000F00F0003900398012821D002282ED05F
:10330000042802D0082836D10EE0206AD5F88010B3
:1033100000EA0106D5F88000B04204D15A46314691
:10332000284600F0AFF863E0206AD5F8801000EA84
:10333000010626B15A463146284600F0A3F857E068
:10334000D5F88000216A20EA0106D5F88000B04255
:1033500004D15A463146284600F094F848E0D5F8A2
:103360008000216A20EA010626B15A4631462846E5
:1033700000F088F83CE000BF00BF00BFFDF772FE20
:10338000009000BFFEF7AAF800BF3C480078401E3E
:103390003A49087008460078D0B900F0BBFF3848B9
:1033A000008800280BDD00BFFEF7B2F800BF0098D0
:1033B000FDF75CFE00BF00BF00F070FF11E000BF32
:1033C000FEF7A6F800BF0098FDF750FE00BF08E02A
:1033D00000BFFEF79DF800BF0098FDF747FE00BF55
:1033E00000BF00BF43F6FF20A8F80000002047E719
:1033F00000BF029F0FB1BD6800E00025002D7FF4E3
:1034000073AF00BF00BF00BFFDF72CFE009000BFF0
:10341000FEF764F800BF19480078401E174908708D
:103420000846007808B900F075FF00BFFEF770F895
:1034300000BF0098FDF71AFE00BF00BF00BF0AF4EE
:10344000004008B9FEF768FD00BF00BFFDF70AFEA7
:10345000009000BFFEF742F800BF206A049000BF52
:10346000FEF756F800BF0098FDF700FE00BF00BF52
:103470000020A8F80000049802E70000C80000201F
:103480008C00002070B504460E461546343426657F
:10349000002060702070E560A078343C082816D2C7
:1034A000DFE800F0040508090706101100BF00BF9F
:1034B00000BF0DE000BF204601F0DEFC002084F8D4
:1034C000360005E000BF042084F8360000E000BFAD
:1034D00000BF204600F069FC70BD0000002400BF62
:1034E0001DE000BF00BFFDF7BDFD044600BFFDF7B6
:1034F000F5FF00BF0A480068401C094908600948F8
:103500000068401C0749086000BFFEF701F800BFD3
:103510002046FDF7ABFD00BF00BFFEF79FFBE0E7D5
:1035200074000020E000002010B58AB0044600209E
:103530000E4908600B2000210591CDE90704069192
:1035400008460B4909680B4A12680B4B1B68CDE90A
:103550000132CDE903101F200023084A08A1009082
:103560000C48FEF72DFF0AB010BD000074000020CB
:10357000109502080C95020808950208DD34000831
:1035800075432F4F532D4949492049646C65205498
:1035900061736B00389F00202DE9F84F04460D46FB
:1035A00016461F46DDE90BABDDF82890DDF83480C8
:1035B0000020009000BF00BFFDF754FD009000BF49
:1035C000FDF78CFF00BF2C4800882C4909888842F1
:1035D0003EDA29480088401C27490880284800888E
:1035E0000988884203DA244800882549088025484C
:1035F0000068046023480068856022480068C6604F
:103600002048006807821F480068C0F814901D48D1
:103610000068A0F818A01B480068C0F81CB0194842
:103620000068406817490860012017490881174859
:1036300008604860002000F087FC1548007818B149
:1036400013480078134908700020A8F8000008E02B
:1036500011480088401C1049088044F25360A8F8C3
:10366000000000BFFDF754FF00BF0098FDF7FEFC0F
:1036700000BF00BFBDE8F88F8C0000201C95020839
:103680008E00002084000020D4A0002000A0002094
:10369000AE000020B0000020900000203EB5594848
:1036A00000680068584A811A904279D00FDC574967
:1036B000084400283ED056490844A8B1554908445A
:1036C000002860D05449084400286AD13FE053489C
:1036D0000844002850D052490844002862D051497B
:1036E00008440028F1D110E002A8464D00902D6852
:1036F000EB69444D2D682A8B424D2D686969414D17
:103700002D68A868FFF780FD7AE002A93D480068AF
:10371000C0693C4DCDE900012D682B8B394D2D68DA
:103720002A8A384D2D68E968364D2D68A86800F062
:103730003BFC65E0334B1B68DA69324B1B68198B25
:10374000304B1B68986802AB00F084FE58E002A979
:103750002C480068C0692B4DCDE900012D682B8BEA
:10376000284D2D682A8A274D2D68E968254D2D683A
:10377000A86801F04BFA43E022490968886802A969
:1037800001F088FB3CE01F4B1B68DA691D4B1B688E
:10379000198B1C4B1B68986802AB01F045FC2FE0AD
:1037A00007E02CE017490968886802A901F010FFBA
:1037B00026E01D49097801EB41011C4A02EB81001A
:1037C00000F0C6FD0F48006802AB0021C26918482E
:1037D00001F02AFC17480068401E16490860084698
:1037E000006858B9144800680860FDF705FF0446F2
:1037F00002AB22460021114801F016FC00E000BF98
:1038000000BF3EBD880000205449434BADBAB2BE54
:103810000DF90BFAF2F8F7FF0006F6FF00F7FDF7D7
:1038200000FFEFFF03FE0FFEB0000020D4A0002039
:103830001CA300201C01002018010020E4A300208C
:10384000002700BF56E0002652E000BF00BFFDF792
:1038500009FC074600BFFDF741FE00BF264800886F
:1038600098B90020254908810860486000F07EFB77
:1038700000BFFDF74DFE00BF3846FDF7F7FB00BF68
:1038800000BFFEF749FB012632E000BFFDF740FE16
:1038900000BF3846FDF7EAFB00BF00BFFDF7ACFEF6
:1038A0000546FFF7FBFEFDF7A7FE441B1448006822
:1038B000A04201D21248046000BF00BFFDF7D2FB56
:1038C000074600BFFDF70AFE00BF0E4800684068CB
:1038D0000C49086008480088401E0749088000BF5E
:1038E000FDF716FE00BF3846FDF7C0FB00BF00BF66
:1038F000002EAAD0A7E700008C000020D4A0002052
:103900009400002088000020F0B589B00546002012
:10391000314908803148006820B944F2526028805B
:1039200009B0F0BD2E480088022803DA44F2546042
:103930002880F5E700202B490860284804682646BF
:10394000203600270CE0284820600020A060E060BE
:10395000208260612083666020342036781C87B224
:103960001F4800888742EEDB203C1C4806686660E2
:103970001E4806601E48066000201E4908801E4939
:1039800008801E48006818B944F255602880C7E7CF
:103990001B4800681B490968884203D244F25660FC
:1039A0002880BDE7032000210591CDE90705069198
:1039B00013480068144A1268104B1B68CDE90301D4
:1039C000CDE9013200910B46104A11A11748FEF7CC
:1039D000F7FC00BFA4E70000900000201895020843
:1039E0001C950208940000204E4F4E458400002094
:1039F000880000208C0000208E0000202495020802
:103A00002C950208649502082895020841380008A0
:103A100075432F4F532D4949492049535220517521
:103A2000657565205461736B0000000000A00020E4
:103A30000021034A1160034A118001807047000091
:103A4000A0000020A400002070B501461A4D2D688A
:103A50001DB945F21E750D8070BD184D2D881DB91C
:103A600045F21D750D80F7E7134D28682A6810325E
:103A7000124D2D886D1EACB2002308E002600025B7
:103A800045600581C560103010325D1CABB2A342A9
:103A9000F4DB0025056045600581C560064D2D6895
:103AA000074E3560054D2D88B5800025F5803581A0
:103AB0000D8000BFD0E7000048950208409502083D
:103AC000C8A0002010B5014648894B89002B17DD9E
:103AD0000A680C4B1B6813600A4C4B682360234632
:103AE000DB884C891B1B074CE38023469B884C8951
:103AF0002344044CA38000234B818B810B604B60DB
:103B000010BD0000C8A000200181002242818281F6
:103B100002604260704700002DE9F0410D46DDE98A
:103B20000674B0F80AC0B0F80880C44505DB46F258
:103B3000935CA4F800C0BDE8F081DFF8DCC0BCF8FD
:103B400004C0BCF1000F04D145F21D7CA4F800C0F4
:103B5000F1E7DFF8C4C0DCF80010DFF8BC80D1F872
:103B600000C0C8F800C0C446BCF804C0ACF1010CE9
:103B7000A8F804C0C446BCF806C00CF1010CA8F8B3
:103B800006C0C446BCF808C0B8F80680C44507DAC9
:103B9000DFF884C0BCF806C0DFF87C80A8F808C055
:103BA000B0F80AC0BCF1000F0AD1016041604FF0CB
:103BB000010CA0F80AC04FF0000CC1F800C017E0DB
:103BC00003F0100CBCF1000F07D1066831600160F2
:103BD0004FF0000CC1F800C004E0D0F804C0C1F8F8
:103BE00000C04160B0F80AC00CF1010CA0F80AC096
:103BF000B0F80CC0B0F80A80C44503DAB0F80AC0C7
:103C0000A0F80CC04D600A81CF604FF0000CA4F802
:103C100000C000BF8FE70000C8A000200021034AB9
:103C20001160034A1180018070470000A800002045
:103C3000AC0000202DE9F04105460C4616461F4613
:103C40001548006880F8346000201349096881F83D
:103C5000350039461048006800F00AFF6CB104F1E5
:103C60000808EC60012229460B48006800F016F8AD
:103C70002946404600F066F806E00020064909683B
:103C8000C88705490968086303480168204600F0B1
:103C900019F8BDE8F08100002001002010B5C287AE
:103CA000016300230AE000244C600C600C614C614D
:103CB0000C83CC61886020315C1CA3B29342F2DBA0
:103CC00010BD000030B548B14568C1F8C45000F1DE
:103CD0000804226893681D6AC56113E091F83450A6
:103CE000022D02D0072D08D103E007A5C1F8C4506A
:103CF00007E007A5C1F8C45003E008A5C1F8C45007
:103D000000BF00BF30BD00005461736B2051000044
:103D10005461736B2053656D0000000020000000AB
:103D200030B507A5C1F8C45000F1080422681AB1E3
:103D300093681D6AC56101E001A5C56130BD000041
:103D400020000000F0B58E6896F8375007893FB91B
:103D50000127078100274F600F600160416023E069
:103D600007897F1C0781026806E0946894F8377021
:103D7000AF4200DD02E05268002AF6D100BF32B93E
:103D800000274F6043680B60596041600CE0176882
:103D90002FB9116000270F604A60016004E01368CA
:103DA0000B604A6059601160F0BD2DE9F041044696
:103DB000256BE68F0AE0D5F80C8008F10807294644
:103DC000384600F00AF82035701E86B2002EF2DC6C
:103DD0000020E0872063BDE8F08110B50489012C44
:103DE00003D100240460446011E00C6824B94A68DF
:103DF0000024146002600AE04C6824B90B680024B7
:103E00005C60436003E00B684A685A601360048991
:103E1000641E048100244C600C6010BD2DE9F84341
:103E200006460C4617469846089D94F83600082822
:103E300050D2DFE800F00405080906072B2C00BF6C
:103E400000BF00BF47E000BF94F83400032807D14B
:103E500043463A4621463046009500F03FF803E0DD
:103E6000E765A4F86080256436B12046FFF79DFF22
:103E700021463046FFF754FF204600F0FDFF0020AA
:103E80003434A070607004F8340924E000BF94F862
:103E90003400032807D143463A4621463046009570
:103EA00000F01CF803E0E765A4F860802564204674
:103EB00001F048FD36B12046FFF777FF2146304636
:103EC000FFF72EFF04203434A0700020607004F847
:103ED000340900E000BF00BFBDE8F883F0B5044638
:103EE000059E086BCD8F0AE0C768A74204D1046124
:103EF00042610383C66104E020306F1EBDB2002D15
:103F0000F2DC00BFF0BD000070B50025074C03E0F7
:103F100005F12000C5B2241D20680028F8D02068D3
:103F2000FDF7ABF82844C5B2284670BD2C0100202F
:103F3000002004E00021034A42F82010401C002821
:103F4000F8D070472C01002030B5420900F01F0363
:103F50000121C3F11F04A140034C54F822400C433B
:103F6000014D45F8224030BD2C01002030B54209FA
:103F700000F01F030121C3F11F04A140034C54F8BA
:103F800022408C43014D45F8224030BD2C010020D9
:103F90000021034A1160034A11800180704700002C
:103FA000B4000020B80000202DE9F04F85B007468E
:103FB0008A4693461C460020029000BF00BF00BF07
:103FC000FDF750F8029000BFFDF788FA00BF564891
:103FD0000078401C5449087008460078012801D137
:103FE00000F08AF900BFFDF793FA00BF0298FDF7D1
:103FF0003DF800BF00BF00BF07F108063089002868
:104000004CD104F0100010B94FF0000801E04FF05F
:104010001008DDE90E0143465A46CDE9000151463C
:1040200007F12000FFF778FD00BF00BF00BFFDF7DC
:1040300019F8029000BFFDF751FA00BF3A48007826
:10404000401E3949087008460078D0B900F062F97E
:104050003648008800280BDD00BFFDF759FA00BF85
:104060000298FDF703F800BF00BF00F017F911E058
:1040700000BFFDF74DFA00BF0298FCF7F7FF00BF45
:1040800008E000BFFDF744FA00BF0298FCF7EEFF1E
:1040900000BF00BF00BF05B0BDE8F08F04F40070A2
:1040A00008B1358900E00125D6F8009011E0D9F873
:1040B00008000390D9F8040004900E985B4652461D
:1040C000009038460399FFF7A9FEDDF81090681EAE
:1040D00085B2002DEBD100BF00BF00BFFCF7C2FFCF
:1040E000029000BFFDF7FAF900BF0F480078401EAC
:1040F0000D4908700846007808B900F00BF900BFB8
:10410000FDF706FA00BF0298FCF7B0FF00BF00BF42
:1041100000BF04F4004008B9FDF7FEFE00210F982F
:10412000018000BFB7E70000C80000208C0000201D
:1041300000210AE001EB4102054B03EB8200002263
:104140000281026042604A1CD1B22029F2D370473A
:10415000D4A0002010B5044694F83700FFF7F4FE11
:1041600094F8370005490978884203D1204600F0C9
:1041700027F802E0204600F003F810BDAE00002052
:1041800010B590F8373003EB43030C4C04EB83017C
:104190000B893BB901230B810023C36003610860D5
:1041A000486009E00B895B1C0B810B68C36000232E
:1041B00003610A681061086010BD0000D4A00020EF
:1041C00010B590F8373003EB43030B4C04EB83013D
:1041D0000B893BB901230B810023C3600361086095
:1041E000486008E00B895B1C0B810023C3604A68B0
:1041F0000261D060486010BDD4A0002010B5014617
:104200000C8924B1012C03D0022C0CD101E000BF99
:1042100014E008684A6802610024C4601461D06038
:104220000A6048600AE008684A68C36800241C61A4
:10423000C4600261D0600B60486000BF00BF10BD69
:104240002DE9F041054695F8370000EB4000124992
:1042500001EB80042F69EE6887B946B90020208100
:104260002060606095F83700FFF780FE0EE020893F
:10427000401E208100203061266007E02089401E1A
:104280002081FE600EB9676000E037610020286180
:10429000E860BDE8F0810000D4A0002010B5002443
:1042A00000BFFCF7DFFE044600BF00200D49087088
:1042B0000D480E49086008460068D0F89000401C80
:1042C0000968C1F890000A480068401C0849086065
:1042D0004FF080500749086000BF2046FCF7C6FE3B
:1042E00000BF10BDAF00002000A00020240100206E
:1042F000F400002004ED00E010B504480078012827
:1043000003D1FDF779F90249086010BDC80000200B
:10431000BC00002010B50A48007880B9FDF76CF9A0
:1043200008490968441A08480068A04201D20648B2
:10433000046006480068A04201D20448046010BD31
:10434000C8000020BC000020C0000020C4000020E5
:1043500070B50546002635480078012800D070BDAC
:1043600000BF00BFFCF77EFE064600BFFDF7B6F8B3
:1043700000BF2C684CB900BFFDF7CAF800BF30463B
:10438000FCF774FE00BF00BFE9E72948844209D169
:1043900000BFFDF7BDF800BF3046FCF767FE00BF69
:1043A00000BFDCE7A06D10B1A06D401EA065A06D40
:1043B00048B100BFFDF7ACF800BF3046FCF756FE31
:1043C00000BF00BFCBE72889022809DA00BFFDF74C
:1043D0009FF800BF3046FCF749FE00BF00BFBEE7B4
:1043E00014480078002809DD00BFFDF791F800BFF0
:1043F0003046FCF73BFE00BF00BFB0E72846FFF7A2
:10440000FDFE2C68606D18B90B480068A06501E0DE
:10441000606DA06500BFFDF77BF800BF3046FCF77C
:1044200025FE00BF00BF00BF99E70000D0000020BC
:10443000389F0020C8000020CC0000200021034A43
:104440001160034A1180018070470000D4000020F1
:10445000D80000202DE9FF5F0446884691461D469E
:104460000020019000BF00BFFCF7FCFD019000BFE1
:10447000FDF734F800BF04F108073889002857D148
:104480000420012804D0022816D004283AD127E0BD
:10449000206AFF280FD100BFFDF73AF800BF01984E
:1044A000FCF7E4FD00BF00BF46F6C55028800020A1
:1044B00004B0BDE8F09F26E04FF6FF71206A884205
:1044C0000DD100BFFDF724F800BF0198FCF7CEFD29
:1044D00000BF00BF46F6C55028800020E8E712E084
:1044E000206A401C68B900BFFDF712F800BF0198B0
:1044F000FCF7BCFD00BF00BF46F6C5502880002079
:10450000D6E700E000BF00BF206A401C2062D4F85C
:1045100020A0C4F8249000BFFCF7FAFF00BF019868
:10452000FCF7A4FD00BF00BF002028805046BFE775
:1045300000BF2D480078401C2B49087008460078C1
:10454000012801D1FFF7D8FE00BFFCF7E1FF00BF53
:104550000198FCF78BFD00BF00BF00BF08F400709E
:1045600008B13E8900E00126D7F800B011E0DBF881
:1045700008000290DBF80400039000231A46CDF8EF
:10458000009020460299FFF749FCDDF80CB0701E40
:1045900086B2002EEBD1D4F820A000BF00BF00BF30
:1045A000FCF760FD019000BFFCF798FF00BF0E48CC
:1045B0000078401E0C4908700846007808B9FFF7DB
:1045C000A9FE00BFFCF7A4FF00BF0198FCF74EFD59
:1045D00000BF00BF00BF08F4004008B9FDF79CFC15
:1045E00000202880504663E7C800002086B00020E5
:1045F000009000BF06E0D9490968480001AA0021DF
:10460000FEF710FCD64800780128F4D101A8FDF788
:1046100099FD0027D3480068D0490968884205D928
:10462000D0480068CD490968B0FBF1F727B9CD48FB
:1046300000680A21B0FBF1F78EE1FCF7DDFF82464E
:10464000FCF736FFC849086000BF00BFFCF70AFD51
:10465000009000BFFCF742FF00BFC4480068C44997
:1046600008600020C149086000BFFCF751FF00BF8F
:104670000098FCF7FBFC00BF00BFBE480068BC49C7
:104680000968884248D9BB480068BB49884205D2BE
:1046900042F2107003900120029023E0B5480068B8
:1046A000B649884205D24FF47A7003900A200290EE
:1046B00018E0B0480068B249884203D264200390F1
:1046C00002900FE0AB480068AE49884205D20A204C
:1046D00003904FF47A70029004E00120039042F2BC
:1046E00010700290A34801680298B1FBF0F9A0494C
:1046F000039809684843B0FBF9F042F21071081AB8
:10470000A1490880A14800880988884208DA9E48A3
:1047100000889E49088003E042F210709A490880A0
:10472000FDF744FE002500BF00BFFCF79BFC009096
:1047300000BFFCF7D3FE00BF9548046800BFFCF73C
:10474000E7FE00BF0098FCF791FC00BF00BF72E0DD
:1047500000BF00BF00BFFCF785FC009000BFFCF766
:10476000BDFE00BF8B480078401C8A49087008468F
:104770000078012801D1FFF7BFFD00BFFCF7C8FE9C
:1047800000BF0098FCF772FC00BF00BF00BF54F8E8
:104790009C0F6060002044F89C0900BF00BF00BF70
:1047A000FCF760FC009000BFFCF798FE00BF794862
:1047B0000078401E7749087008460078D0B9FFF7A6
:1047C000A9FD7548008800280BDD00BFFCF7A0FE9E
:1047D00000BF0098FCF74AFC00BF00BFFFF75EFD7A
:1047E00011E000BFFCF794FE00BF0098FCF73EFC10
:1047F00000BF08E000BFFCF78BFE00BF0098FCF78D
:1048000035FC00BF00BF00BFD4F8A000054400BFC6
:1048100000BFFCF727FC009000BFFCF75FFE00BF65
:10482000D4F8C04000BFFCF773FE00BF0098FCF74F
:104830001DFC00BF00BF002C8AD145B34E48854205
:1048400005D242F2107005904FF0010B1BE04B486F
:10485000854205D24FF47A7005904FF00A0B12E0B2
:104860004748854203D26420059083460BE04548C3
:10487000854204D20A2005904FF47A7B03E00120A0
:10488000059042F2107BB5FBFBF0049003E00020A2
:1048900005900120049000BF00BFFCF7E3FB0090EF
:1048A00000BFFCF71BFE00BF3948046800BFFCF7DF
:1048B0002FFE00BF0098FCF7D9FB00BF00BF2FE020
:1048C000D4F8A000059948430499B0FBF1F086B2F2
:1048D00042F21070864200D90646A4F88C60B4F803
:1048E0008E00B04201DAA4F88E6001AB04F1AC0294
:1048F000111D2046FEF742F900BF00BFFCF7B2FBD6
:10490000009000BFFCF7EAFD00BFD4F8C04000BF34
:10491000FCF7FEFD00BF0098FCF7A8FB00BF00BF3E
:10492000002CCDD11D480078012805D100201B495D
:10493000087001A8FDF706FCFCF75EFEA0EB0A0874
:1049400017480068404502D21548C0F8008001AA07
:1049500000213846FEF766FA6FE60000509502081F
:10496000EC000020689502087C000020E000002098
:10497000E8000020E4000020801A060000093D0045
:10498000005A62020084D717DC000020DE000020FD
:10499000F8000020C80000208C000020DA00002071
:1049A000F000002010B58AB0044600201F490860BE
:1049B0001F4908601F4908601F4908701F49087097
:1049C0001F48006820B946F62B6020800AB010BD51
:1049D0001C4800681C490968884203D246F62C60CE
:1049E0002080F3E7194800781F2803D346F62A6091
:1049F0002080EBE7032000210591CDE90704069113
:104A0000084610490968124A12680D4B1B68CDE927
:104A10000132CDE903100D48007800230D4A0EA1A4
:104A200000901248FDF7CCFC00BFCFE7E00000206B
:104A3000E8000020E4000020EC000020DA00002064
:104A4000549502085C950208649502084C9502088A
:104A500058950208ED45000875432F4F532D4949DD
:104A6000492053746174205461736B0054A2002078
:104A700038B504460D4685B16B46022229462046CC
:104A800000F082FEBDF8000018B9032084F836005B
:104A900006E0022084F8360002E0022084F83600A6
:104AA0002046FFF7CDFB38BD0021C0F8BC100949F6
:104AB000096819B90021C0F8C01007E00549096864
:104AC000C0F8C01003490968C1F8BC00014908607A
:104AD00070470000F8000020D0F8BC20D0F8C010CB
:104AE0004AB90D4B196011B10023C1F8BC30002345
:104AF000C0F8C0300FE029B90023C2F8C030C0F8B8
:104B0000BC3008E0C2F8C010C1F8BC200023C0F8D7
:104B1000C030C0F8BC307047F80000200021044AC3
:104B20001160044A1180044A11600180704700003E
:104B3000F8000020FC000020F400002070B50446BE
:104B400000202060A0606060E06020616061A06182
:104B5000E0612BA0206200206062A062E06220631E
:104B6000E0872064E065A4F86000002104F164009F
:104B7000FEF7CAFF002044F8740F6060E060A08276
:104B80002061743C002506E0002104F17C0040F81F
:104B90002510681CC5B2002DF6D0002034342061E9
:104BA00020676067606084F85600E067A067208136
:104BB0004FF0004060610020A061E061206260620F
:104BC000A4F85800A4F85A00E0652066FCF714FD2C
:104BD000064666660020A066C4F88000C4F884001B
:104BE00020706070A0702020E0700020C4F8880061
:104BF000C4F88C0004A0C4F89000343C70BD0000E0
:104C00003F5461736B000000200000002DE9FC4759
:104C100004460F4690469946DDE90A654FF0000AC2
:104C200000BF00BF00BFFCF71DFA824600BFFCF7C3
:104C300055FC00BF8D480078401C8C490870084620
:104C40000078012801D1FFF757FB00BFFCF760FC9B
:104C500000BF5046FCF70AFA00BF00BF00BF0CB906
:104C6000834804680020288094F8360008287CD205
:104C7000DFE800F00405484906074A4B00BF00BFC3
:104C800000BF4B464246394604F16400CDE9006559
:104C9000FEF742FF00BF00BF00BFFCF7E3F982460A
:104CA00000BFFCF71BFC00BF70480078401E6F4936
:104CB000087008460078D0B9FFF72CFB6D480088D3
:104CC00000280BDD00BFFCF723FC00BF5046FCF7BB
:104CD000CDF900BF00BFFFF7E1FA11E000BFFCF71C
:104CE00017FC00BF5046FCF7C1F900BF08E000BF49
:104CF000FCF70EFC00BF5046FCF7B8F900BF00BF40
:104D000000BFAFE000BF00BF00BF94F8340002282E
:104D10002CD143463A46214600200096FFF77EF804
:104D200000BF00BF00BFFCF79DF9824600BFFCF743
:104D3000D5FB00BF4D480078401E4C49087008461E
:104D4000007808B9FFF7E6FA00BFFCF7E1FB00BF07
:104D50005046FCF78BF900BF00BF00BF09F40040CC
:104D6000002843D1FDF7D8F840E040E04B464246EA
:104D7000394604F16400CDE90065FEF7CDFE00BFC1
:104D800000BF00BFFCF76EF9824600BFFCF7A6FB30
:104D900000BF36480078401E344908700846007845
:104DA000D0B9FFF7B7FA3348008800280BDD00BF01
:104DB000FCF7AEFB00BF5046FCF758F900BF00BF40
:104DC000FFF76CFA11E000BFFCF7A2FB00BF5046F2
:104DD000FCF74CF900BF08E000BFFCF799FB00BFEF
:104DE0005046FCF743F900BF00BF00BF3AE000BFE8
:104DF00000BF00BFFCF736F9824600BFFCF76EFB30
:104E000000BF1A480078401E18490870084600780C
:104E1000D0B9FFF77FFA1748008800280BDD00BFE4
:104E2000FCF776FB00BF5046FCF720F900BF00BF3F
:104E3000FFF734FA11E000BFFCF76AFB00BF5046F1
:104E4000FCF714F900BF08E000BFFCF761FB00BFEE
:104E50005046FCF70BF900BF00BF00BF46F62D60BF
:104E6000288000BF00BFBDE8FC870000C80000200C
:104E7000200100208C00002010B50446204600F0E0
:104E800061FD94F8360000F0040010B92046FFF7E9
:104E900061F910BD70B504460D46002600BF00BF85
:104EA000FCF7E0F8064600BFFCF718FB00BF002047
:104EB000288094F8360008287ED2DFE800F0040548
:104EC000060714566A8000BF00BF00BF00BFFCF792
:104ED0001FFB00BF3046FCF7C9F800BF00BF47F218
:104EE000531028808CE000BF48480078401C474998
:104EF000087008460078012801D1FFF7FDF900BFCE
:104F0000FCF706FB00BF3046FCF7B0F800BF00BF5F
:104F100000BF14F88A0F401E207014F88A0928B9BF
:104F2000002084F836002046FFF7A6FF00BF00BF30
:104F300000BFFCF797F8064600BFFCF7CFFA00BFAA
:104F400032480078401E314908700846007808B998
:104F5000FFF7E0F900BFFCF7DBFA00BF3046FCF7D3
:104F600085F800BF00BF00BF4AE014F88A0F401E5A
:104F7000207014F88A0910B9012084F8360000BFA7
:104F8000FCF7C6FA00BF3046FCF770F800BF00BF60
:104F900036E014F88A0F401E207014F88A0910B900
:104FA000022084F8360000BFFCF7B2FA00BF30469A
:104FB000FCF75CF800BF00E015E000BF20E014F84B
:104FC0008A0F401E207014F88A0910B9032084F853
:104FD000360000BFFCF79CFA00BF3046FCF746F8ED
:104FE00000BF00BF0CE000BFFCF792FA00BF3046E4
:104FF000FCF73CF800BF00BF46F62D60288070BD6E
:1050000000BFFCF789FF00BFF9E70000C8000020DF
:1050100008B504480068FDF77DFC69460020FDF7EF
:1050200025FB08BD200100202DE9F84304468846F1
:1050300017461D464FF0000900BF00BF00BFFCF738
:1050400011F8814600BFFCF749FA00BFFB48007821
:10505000401CFA49087008460078012801D1FFF782
:105060004BF900BFFCF754FA00BF4846FBF7FEFFC0
:1050700000BF00BF00BF0CB9F148046827640020DE
:10508000288094F8360008287AD2DFE800F004057A
:10509000FEFD0607FCFB00BF00BF00BF0420012887
:1050A00004D0022843D004286BD184E0606CFF2830
:1050B0003CD100BF00BF00BFFBF7D4FF814600BF5B
:1050C000FCF70CFA00BFDD480078401EDB49087091
:1050D00008460078D0B9FFF71DF9DA4800880028A3
:1050E0000BDD00BFFCF714FA00BF4846FBF7BEFF1C
:1050F00000BF00BFFFF7D2F811E000BFFCF708FACD
:1051000000BF4846FBF7B2FF00BF08E000BFFCF756
:10511000FFF900BF4846FBF7A9FF00BF00BF00BF73
:1051200046F6C55028800020BDE8F88385E04FF69C
:10513000FF71606C88423DD100BF00BF00BFFBF72C
:1051400091FF814600BFFCF7C9F900BFBB4800785A
:10515000401EBA49087008460078E0B9FFF7DAF84F
:10516000B848008800280DDD00BFFCF7D1F900BF6A
:105170004846FBF77BFF00BF00BFFFF78FF813E047
:10518000E2E159E000BFFCF7C3F900BF4846FBF776
:105190006DFF00BF08E000BFFCF7BAF900BF48464A
:1051A000FBF764FF00BF00BF00BF46F6C550288074
:1051B0000020B9E741E0606C401CD8BB00BF00BFD5
:1051C00000BFFBF74FFF814600BFFCF787F900BF28
:1051D0009A480078401E9949087008460078D0B96E
:1051E000FFF798F89748008800280BDD00BFFCF710
:1051F0008FF900BF4846FBF739FF00BF00BFFFF73C
:105200004DF811E000BFFCF783F900BF4846FBF7FB
:105210002DFF00BF08E000BFFCF77AF900BF484649
:10522000FBF724FF00BF00BF00BF46F6C550288033
:10523000002079E7FFE700E000BF00BF606C401C82
:105240006064666C00BF00BF00BFFBF70BFF8146C8
:1052500000BFFCF743F900BF78480078401E77494B
:10526000087008460078F8B9FFF754F875480088C8
:10527000002810DD00BFFCF74BF900BF4846FBF7E4
:10528000F5FE03E01EE01CE01AE018E000BF00BFDE
:10529000FFF704F811E000BFFCF73AF900BF4846F9
:1052A000FBF7E4FE00BF08E000BFFCF731F900BFE8
:1052B0004846FBF7DBFE00BF00BF00BF80E100BF38
:1052C00000BF00BF94F8340007282CD100231A46F1
:1052D000214618460097FEF7A1FD666C00BF00BF8F
:1052E00000BFFBF7BFFE814600BFFCF7F7F800BF29
:1052F00052480078401E514908700846007808B9A5
:10530000FFF708F800BFFCF703F900BF4846FBF7BA
:10531000ADFE00BF00BF00BF08F40040002801D16F
:10532000FCF7FAFD0FE10420012804D0022842D046
:10533000042872D189E0606CFF283BD100BF00BF18
:1053400000BFFBF78FFE814600BFFCF7C7F800BF28
:105350003A480078401E3949087008460078D0B9AC
:10536000FEF7D8FF3748008800280BDD00BFFCF7A8
:10537000CFF800BF4846FBF779FE00BF00BFFEF73D
:105380008DFF11E000BFFCF7C3F800BF4846FBF7F4
:105390006DFE00BF08E000BFFCF7BAF800BF48464A
:1053A000FBF764FE00BF00BF00BF46F6C550288073
:1053B0000020B9E68BE04FF6FF71606C884243D164
:1053C00000BF00BF00BFFBF74DFE814600BFFCF7EA
:1053D00085F800BF19480078401E18490870084633
:1053E0000078D8B9FEF796FF1648008800280BDD34
:1053F00000BFFCF78DF800BF4846FBF737FE00BF43
:1054000000BFFEF74BFF12E000BFFCF781F800BFC2
:105410004846FBF72BFE00BF09E057E000BFFCF752
:1054200077F800BF4846FBF721FE00BF00BF00BF72
:1054300046F6C5502880002076E60000C80000200F
:10544000200100208C00002041E0606C401CD8BB93
:1054500000BF00BF00BFFBF705FE814600BFFCF7A1
:105460003DF800BF58480078401E5749087008466C
:105470000078D0B9FEF74EFF5448008800280BDDB5
:1054800000BFFCF745F800BF4846FBF7EFFD00BF43
:1054900000BFFEF703FF11E000BFFCF739F800BFC3
:1054A0004846FBF7E3FD00BF08E000BFFCF730F81B
:1054B00000BF4846FBF7DAFD00BF00BF00BF46F65D
:1054C000C550288000202FE6FFE700E000BF00BFA6
:1054D000606C401C6064666C00BF00BF00BFFBF7DF
:1054E000C1FD814600BFFBF7F9FF00BF36480078D9
:1054F000401E3549087008460078D0B9FEF70AFF0B
:105500003248008800280BDD00BFFCF701F800BF1F
:105510004846FBF7ABFD00BF00BFFEF7BFFE11E042
:1055200000BFFBF7F5FF00BF4846FBF79FFD00BF3C
:1055300008E000BFFBF7ECFF00BF4846FBF796FD15
:1055400000BF00BF00BF3BE000BF00BF00BFFBF7D4
:1055500089FD814600BFFBF7C1FF00BF1A480078F4
:10556000401E1949087008460078D0B9FEF7D2FEEF
:105570001648008800280BDD00BFFBF7C9FF00BFFD
:105580004846FBF773FD00BF00BFFEF787FE11E042
:1055900000BFFBF7BDFF00BF4846FBF767FD00BF3C
:1055A00008E000BFFBF7B4FF00BF4846FBF75EFD15
:1055B00000BF00BF00BF46F62D602880002600BF58
:1055C00000BF3046B0E50000C80000208C0000207D
:1055D00070B504460D46002600BF00BFFBF742FD34
:1055E000064600BFFBF77AFF00BF0CB95A480468B3
:1055F00059480068844210D15848007800280CDDD2
:1056000000BFFBF785FF00BF3046FBF72FFD00BF53
:1056100000BF46F66350288070BD0020288094F8B3
:105620003600082873D2DFE800F004425262737437
:10563000757600BF49480078401C48490870084604
:105640000078012801D1FEF757FE00BFFBF760FF8D
:1056500000BF3046FBF70AFD00BF00BF00BF0420BB
:1056600084F83600012084F88A002046FEF7E8FD21
:1056700000BF00BF00BFFBF7F5FC064600BFFBF70D
:105680002DFF00BF35480078401E34490870084699
:10569000007808B9FEF73EFE00BFFBF739FF00BFF8
:1056A0003046FBF7E3FC00BF00BF00BF4FE0052022
:1056B00084F83600012084F88A0000BFFBF728FF39
:1056C00000BF3046FBF7D2FC00BF00BF3FE0062022
:1056D00084F83600012084F88A0000BFFBF718FF29
:1056E00000BF3046FBF7C2FC00BF00BF2FE0072021
:1056F00084F83600012084F88A0000BFFBF708FF19
:1057000000BF3046FBF7B2FC00BF00BF1FE011E056
:1057100000BF00BF00BF94F88A00401C84F88A00D4
:1057200000BFFBF7F5FE00BF3046FBF79FFC00BF54
:1057300000BF0CE000BFFBF7EBFE00BF3046FBF7FD
:1057400095FC00BF00BF46F62D60288064E700BFCF
:10575000FCF7E2FB00BF5FE720010020C80000204B
:10576000002108E0064A02EBC100002202608280AC
:10577000C2804A1C91B2034A12889142F2DB704700
:10578000289C0020809502082DE9F04F0C46164613
:105790001D46042E1ED1DFF8A091D9F80090A4EB8D
:1057A0000909A9F1010313F5803F0DD94FF0000954
:1057B000C0F84C90C0F85090C0F81C9047F27E2979
:1057C000A5F80090BDE8F08FC46403F10109C0F8AA
:1057D00050903FE084B3082E25D1D0F8489009EBD3
:1057E0000407DFF85491D9F80090A7EB0909A9F153
:1057F0000103A34201D2C76406E0DFF83C91D9F867
:105800000090A144C0F84C90DFF82CA1D0F84C9047
:10581000DAF800A0A9EB0A09C0F85090D0F84C9033
:10582000C0F8489016E0DFF81091D9F80090A14434
:10583000C0F84C9004650DE0FFE74FF00009C0F898
:105840004C90C0F85090C0F81C9047F27E29A5F803
:105850000090B7E7DFF8E4A0BAF800A0D0F84C90C9
:10586000B9FBFAFB0AFB1B991FFA89F8DFF8D09005
:1058700009EBC802B2F80490B9F1000F0BD14FF058
:105880000009C0F81490C0F8189010604FF001099A
:10589000A2F804903EE0116834E0DFF89CA0D1F853
:1058A0004C90DAF800A0A9EB0A09C1F85090D0F8A2
:1058B0005090D1F850A0D1450ED9D1F81490B9F13B
:1058C000000F01D049691DE04FF00009C0F81490A5
:1058D00081614861002115E0D1F81890B9F1000FFD
:1058E00007D14FF00009C0F818904161886110603D
:1058F00007E0D1F818C0C0F818C04161CCF8140016
:10590000886100210029C8D1B2F8049009F1010989
:10591000A2F80490B2F80690B2F804A0D14503DAD8
:10592000B2F80490A2F80690C2614FF00009A5F801
:10593000009000BF46E700000001002080950208AB
:10594000289C002010B5C269BAB10024046514680F
:10595000844205D14169116039B100248C6104E0B1
:10596000816943694B6103B1996100244461846199
:10597000C461C4649488641E948010BD002006E055
:10598000054A02EBC0010022CA80421C90B2034AC1
:1059900012889042F4DB7047289C00208095020812
:1059A0002DE9F05F4FF0000B00BF00BF00BFFBF719
:1059B00059FB834600BFFBF791FD00BF7A48007892
:1059C000401C7949087008460078012801D1FEF78B
:1059D00093FC00BFFBF79CFD00BF5846FBF746FB5E
:1059E00000BF00BF00BFFBF707FE05466F48006819
:1059F000401C6E490860084600686D490988B0FB84
:105A0000F1F201FB12001FFA80FA6A4800EBCA08A3
:105A1000D8F80040002782E0002C7FD0D4F8149002
:105A200094F83600082875D2DFE800F00408051B5A
:105A3000063D075000BF00BF00BF6CE05B49E06C53
:105A40000968401A20655949E06C0968884206D106
:105A5000002084F836002046FFF70EFA00E0012708
:105A600059E05249E06C0968401A20654F49E06CE2
:105A70000968884215D10020E065A4F86000FBF7B2
:105A8000BBFD20642046FEF790F92046FFF7F4F9AD
:105A900000203434A07003206070002004F8340922
:105AA00000E0012737E04149E06C0968401A2065B1
:105AB0003E49E06C0968884206D1042084F836002B
:105AC0002046FFF73FFF00E0012724E03749E06C64
:105AD0000968401A20653549E06C0968884217D189
:105AE0000020E065A4F86000FBF786FD20642046F6
:105AF000FEF75BF92046FFF725FF04203434A07041
:105B000003206070002004F8340902E006E001E0A0
:105B1000012700E000BF00BF4C4600E00127002F36
:105B20003FF47AAFFBF768FD461B23480068B0429C
:105B300001D22148066000BF00BF00BFFBF792FA08
:105B4000834600BFFBF7CAFC00BF17480078401E21
:105B50001549087008460078D0B9FEF7DBFB1748F6
:105B6000008800280BDD00BFFBF7D2FC00BF5846C1
:105B7000FBF77CFA00BF00BFFEF790FB11E000BF0F
:105B8000FBF7C6FC00BF5846FBF770FA00BF08E001
:105B900000BFFBF7BDFC00BF5846FBF767FA00BF2C
:105BA00000BF00BFBDE8F09FC8000020000100203A
:105BB00080950208289C0020040100208C00002011
:105BC0001CB500BF0EE001AB6A4600210846FCF799
:105BD000ADFEBDF8040028B903480078012801D1C2
:105BE000FFF7DEFEEFE700008000002010B58AB06E
:105BF000044600201D4908601D490860FFF7B0FDFC
:105C00001C48006820B947F2122020800AB010BD5D
:105C10001948006819490968884203D247F21320DD
:105C20002080F3E7164800781F2803D347F211209D
:105C30002080EBE70B20002105910A46CDE90704FF
:105C400006910D4800680F4909680A4B1B68CDE9A9
:105C50000131CDE903020A48007800230A4A0BA16A
:105C600000900F48FCF7ACFB00BFCFE7000100201D
:105C700004010020709502087895020864950208D6
:105C80006C95020874950208C15B000875432F4F9C
:105C9000532D494949205469636B205461736B004B
:105CA0001CA3002070B58AB004460020314908606A
:105CB0003148006840B1314800682F490968B0FB9D
:105CC000F1F02F49086006E02C4800680A21B0FB7B
:105CD000F1F02B4908602A4800682A490860002032
:105CE0002949086029490860002508E0284800EB98
:105CF000C5060020B080F0803060681C85B2254861
:105D000000888542F2DB2448006820B947F247301A
:105D100020800AB070BD2148006821490968884286
:105D200003D247F248302080F3E71E4800781F284E
:105D300003D347F246302080EBE70B20002105918A
:105D4000CDE907040691084614490968164A126805
:105D5000114B1B68CDE90132CDE9031011480078E1
:105D60000023124A12A100901748FCF729FB00BF3C
:105D7000CFE70000080100208C9502086895020812
:105D8000180100201C010020140100201001002037
:105D9000B09E0020A09502089095020898950208F0
:105DA000649502088895020894950208C15E00086F
:105DB00075432F4F532D4949492054696D65722011
:105DC0005461736B00000000E4A30020F0B50C46A2
:105DD000022680F82A60012C05D12D4F466A3F68C3
:105DE0003E4486610CE0066A2EB9294F466A3F6838
:105DF0003E44866104E0264F066A3F683E44866161
:105E0000244F3F888669B6FBF7FC07FB1C66B5B2DA
:105E1000214E06EBC502166836B9002606614661BA
:105E20001060012696802CE0194F86693F68F61BAA
:105E3000C661116820E0164F8E693F68F61BCE617F
:105E4000C669CF69BE4209D90E690EB1096913E06E
:105E5000002606614161086100210DE04E692EB9FE
:105E60000026466101614861106004E04B694361AE
:105E700001611861486100210029DCD19688761CF7
:105E80009680D6889788BE4201DA9688D680F0BD83
:105E900014010020A0950208B09E0020002006E01A
:105EA000054A02EBC0010022CA80421C90B2034A9C
:105EB00012889042F4DB7047B09E0020A095020843
:105EC0001CB500BF53E001AB6A4600210846FCF751
:105ED0002DFD01A8FCF774F8FBF78EFB064624485D
:105EE0000068401C2249086008460068214909886A
:105EF000B0FBF1F201FB12001FFA80FA1E4800EB22
:105F0000CA08D8F800404FF0000B21E0F4B1D4F8F3
:105F100010901749A0690968884214D1204600F002
:105F20002FF8208D022804D101212046FFF74EFFD3
:105F300002E0032084F82A00A56815B12046E16834
:105F4000A8474C4604E04FF0010B01E04FF0010B75
:105F5000BBF1000FDAD0FBF74FFB871B01A8FCF762
:105F60006DF806480068B84201D204480760AAE705
:105F700014010020A0950208B09E0020100100200E
:105F8000F0B5114E36888569B5FBF6F706FB175557
:105F9000ACB20E4D05EBC4021568854205D101690E
:105FA000116039B100254D6104E0416903690B615D
:105FB00003B15961012580F82A500025056145612A
:105FC00095886D1E9580F0BDA0950208B09E0020BA
:105FD000704700B59DB001210802FAF7BEFC012010
:105FE0000790002008900F20099000200A900B9045
:105FF0000C900D901520009001900520029000203B
:10600000039004900590069006200E9000200F90BB
:106010001090102011900020129014901390159061
:1060200016904FF480501790002018904FF4804045
:10603000199000201A9007A81B90CDF870D00EA8D8
:10604000FAF74FFD01210620FAF7ACFE1DB000BDA6
:1060500008B501214FF4B470FAF78CFC4CF23370A0
:10606000ADF8000018208DF8030003208DF8020021
:1060700069461848FAF7C8F94FF68070ADF8000085
:1060800018208DF8030003208DF80200694612489D
:10609000FAF7BAF941F20100ADF8000018208DF8C6
:1060A000030003208DF8020069460C48FAF7ACF9AA
:1060B0000120ADF8000010208DF8030003208DF8BA
:1060C000020069460648FAF79FF901200549086071
:1060D00008BD0000001401400018014000200140EC
:1060E000000C01408081214210B5FFF7B1FFFFF79E
:1060F00070FF322000F003F9DA20FBF7EFFC75485F
:10610000008875498880734800884FF6FF7101EA5E
:10611000002071498880DB20FBF7E0FC6E48808816
:106120006C49098808436C49888008468088694919
:106130000988084368498880E020FBF7CFFC0020ED
:10614000FBF7DCFC1320FBF7D9FC1820FBF7D6FC8F
:106150000420FBF7D3FC0F20FBF7D0FC0620FBF755
:10616000CDFC3A20FBF7CAFC5620FBF7C7FC4D20BC
:10617000FBF7C4FC0320FBF7C1FC0A20FBF7BEFCC5
:106180000620FBF7BBFC3020FBF7B8FC3E20FBF7FA
:10619000B5FC0F20FBF7B2FCE120FBF79FFC0020D1
:1061A000FBF7ACFC1320FBF7A9FC1820FBF7A6FCBF
:1061B0000120FBF7A3FC1120FBF7A0FC0620FBF756
:1061C0009DFC3820FBF79AFC3420FBF797FC4D2010
:1061D000FBF794FC0620FBF791FC0D20FBF78EFCEF
:1061E0000B20FBF78BFC3120FBF788FC3720FBF7FB
:1061F00085FC0F20FBF782FCC020FBF76FFC18200A
:10620000FBF77CFC1720FBF779FCC120FBF766FC51
:106210004120FBF773FCC520FBF760FC0020FBF777
:106220006DFC1A20FBF76AFC8020FBF767FC362028
:10623000FBF754FC0820FBF761FC3A20FBF74EFC0F
:106240005520FBF75BFCB020FBF748FC0020FBF778
:1062500055FCB120FBF742FCA020FBF74FFCB4201B
:10626000FBF73CFC0220FBF749FCB620FBF736FCB1
:106270000020FBF743FC2220FBF740FC3B20FBF710
:106280003DFCE920FBF72AFC0020FBF737FCF72058
:10629000FBF724FCA920FBF731FC5120FBF72EFC77
:1062A0002C20FBF72BFC8220FBF728FC1120FBF7AE
:1062B00015FC782000F023F82920FBF70FFC2C2098
:1062C000FBF70CFC0020FBF7C5F94FF6FF70FBF75E
:1062D0009DF910BD0008006C0600002000BFFEE71D
:1062E00002E008C8121F08C1002AFAD1704770479F
:1062F000002001E001C1121F002AFBD170470146B6
:1063000008E042F6E06201E0531E9AB2002AFBDC8C
:106310004B1E99B20029F4DC7047000000B58BB029
:106320000AA8FBF7A5FC0AA8032100220592CDE9E3
:1063300006210890052080210C22094BCDE901326D
:10634000CDE9031002200023064A07A100900A4865
:10635000FCF736F80AA8FBF7C1FE00200BB000BD21
:106360003001002045120008417070205461736BA9
:106370002053746172740000300300208A4A8A4AF4
:106380008A4A8A4A8A4A8A4A8A4A8A4A8A4A8A4A6D
:106390008A4A8A4A8A4A8A4AAA52AA52AA52AA52BD
:1063A000AA52AA52AB52AB52AB52AB52AB52CB52E7
:1063B000CB52CB52CB52CB52CB52CB52CB52CB52F5
:1063C000EB5ACB52CB52EB5AEB5AEB5AEC5AEB5AF4
:1063D000EC5A0C5B0C5B0C5BEC5A0C5B0C5B0C5BC7
:1063E0000C5B0C5B0C5B2C632C630C5B2C630C5BFD
:1063F0002C630C632C5B2C630C5BEB5A4D634D637D
:106400004D634D6BEC5A2C630C5B6E6BAA522421CE
:10641000A218E3184529042104212421E318C318F4
:10642000A218C318C318A218A218C218A21082106A
:10643000A210A2108210610861084008410861089A
:10644000821061104008610841088210A210E32008
:10645000C318C318E320653108420842EB5AAB5217
:106460004D6B4D634D634D634D634D634D636D6B7C
:106470004D634D6B4D6B4D634D634D634D634D638C
:106480004D634D634D632D634D632D632D632D630C
:106490002C632C632C630C632C630C630C630C5B0C
:1064A0000C630C630C5B0C630C630C5BEC5AEC5AD6
:1064B000EC5AEC5AEC5AEC5AEC5AEC5AEB5AEB5AAE
:1064C000CB5AEB5ACB5AEB5ACB5ACB5ACB5ACB526C
:1064D000CB5AAB52AB52AB52AB52AB52AB52AA52AD
:1064E000AA528A52AA528A52AA528A528A528A526C
:1064F0008A528A528A528A528A528A4A8A4A8A52CC
:106500006A4A8A4A8A4A8A4A6A4A8A4A8A4A8A4A2B
:106510008A4A8A4A8A4A8A4A8A4A8A4A8A4A8A4ADB
:106520008A4AAA528A4AAA52AA52AA52AA52AA52DB
:10653000AA52AB52AA52AB52AB52CB52CB52CB5215
:10654000CB52CB52CB52CB52CB52CB52EB5ACB523B
:10655000CB52CB52EB5AEB5AEB5AEC5AEB5AEC5A61
:106560000C5B0C5B0C5B0C5B0C5B0C5B0C5B0C5BF3
:106570000C5B2C632C630C5B2C632C632C632D63F2
:106580000C630C632C632C634D63EC5A2C634D6BD2
:106590004D6BCB5A4D6B0C5B6C6B86316110A3104D
:1065A0000421252904210421E420E318C318A31899
:1065B000C318C318A318821081108210A218610892
:1065C0004108821061106108210840086108200814
:1065D0004108610882106108821041086108821038
:1065E000E3200421C318A210C3186529C739AA5291
:1065F0006A4A4D636E6B4D638E6B4D636D6B6D6B55
:106600006D6B6D6B6D6B6D6B4D6B4D6B4D6B4D6B4A
:106610004D634D634D634D634D6B4D634D632D6312
:106620002D632C632D632C632C632C632C632C63F0
:106630000C630C630C630C630C5B0C5B0C5B0C5B02
:106640000C5BEC5A0C5B0C5BEC5AEC5AEC5AEB5AB8
:10665000EB5AEB5ACB5ACB5AEB5ACB5ACB5ACB5AB2
:10666000CB52CB5ACB52CB52AB52AB52AB52AB52BA
:10667000AA52AA52AA528A528A52AA528A528A52BA
:106680008A528A528A528A528A4A8A4A8A528A523A
:106690008A4A6A4A6A4A8A4A6A4A8A4A8A4A8A4ABA
:1066A0008A4A8A4A8A4A8A4A8A4A8A4A8A4AAA5222
:1066B000AA528A4AAA52AA52AA52AA52AA52AA5222
:1066C000AB52AB52AA52CB52AB52CB52CB52CB5263
:1066D000CB52CB52CB52CB52CB52CB52EB5AEB5A82
:1066E000EB5AEB5AEB5AEB5AEB5AEC5AEC5A0C5B5E
:1066F0000C5B0C5B0C5B0C5B0C5B0C5B0C5B0C5B62
:106700000C5B2C632C632C632C632C630C632D6358
:106710004D630C5B0C5B4D632C632C630C634D630E
:10672000EB5A4D6B2C63EB5AE3206110C3182529FB
:10673000042124214529252904210421E320E320E3
:10674000C318A218A218A210610841086110C3184A
:10675000811081108110A21061088210A218A21865
:106760008210821081108110A21021084108410876
:106770006210E3206529242182108210E3188631FB
:106780008A528A520C636D6B4D638E6B8E6B6E6B8F
:106790008E6B6D6B6D6B6D6B6D6B6D6B4D6B4D6B58
:1067A0006D6B6D6B4D634D6B4D6B4D6B4D6B4D6BF1
:1067B0002D634D634D632D632C632C632C632C631D
:1067C0002C632C632C632C5B0C5B0C5B0C630C5BF1
:1067D0000C5B0C5B0C5B0C5B0C5B0C5BEC5AEB5AC4
:1067E000EC5AEC5AEB5AEB5AEB5AEB5ACB5ACB5ABF
:1067F000CB5ACB5ACB5ACB52AB52AB52AB52AB5219
:10680000AB52AA52AA52AA52AA528A52AA528A52E7
:106810008A528A528A528A528A528A528A528A5298
:10682000894A8A4A6A4A6A4A8A4A8A528A4A8A4A01
:106830008A4A8A4A8A4A8A4A8A4A8A4A8A4AAA5290
:106840008A4AAA52AA52AA52AA52AA52AA52AA5290
:10685000AA52AB52AB52AB52AB52CB52CB52CB52F1
:10686000CB52CB52CB52EB5ACB52EB5AEB5AEB5AA0
:10687000EB5AEB5AEB5AEC5AEC5A0C5B0C5B0C5B88
:106880000C5B0C5B0C5B0C5B0C5B0C5B0C5B0C5BD0
:106890002C632C632C632C632C632D632C634D635E
:1068A0004D632D632C632C634D6B2D63EB5AEC5AB7
:1068B0004D6BEC5A69528110A218E320042124295F
:1068C000452945292421E318C318E320C318821061
:1068D000C318C318E320A218A2188210A210A21095
:1068E000C2188210A218C318E318A2188210A218A6
:1068F000821061106108821081108210611061089D
:106900006108A210A21825294529042182106110CE
:1069100024292842694A0C634D6B8E6B8E6B8E6BFB
:106920008E6B6E6B6E6B6E6B6E6B6D6B6D6B6D6B82
:106930006D6B6D6B6D6B4D6B6D6B4D6B4D6B4D6B17
:106940004D6B4D6B4D634D634D634D634D632C63D8
:106950002C632C632C632C630C630C630C5B0C5B4F
:106960000C5B0C5B0C5B0C5B0C5B0C5BEC5AEC5A31
:10697000EB5AEB5AEB5AEB5AEB5AEB5ACB5ACB5A2F
:10698000CB5ACB5ACB5ACB5ACB52AB52AB52AB525F
:10699000AB52AB52AA52AA52AA52AA528A528A5255
:1069A0008A528A528A528A528A528A528A4A8A520F
:1069B0008A4A8A528A4A8A4A6A4A8A528A4A8A4A47
:1069C0008A4A8A4A8A4A8A4A8A4A8A4A8A4A8A4A27
:1069D0008A4AAA52AA52AA52AA52AA52AA52AA52FF
:1069E000AB52AA52CB52CB52CB52CB52CB52CB5200
:1069F000CB52EB5AEB5AEB5ACB52CB52EB5AEB5AE7
:106A0000EB5AEB5AEB5AEB5AEC5AEC5A0C5B0C5B18
:106A10000C5B0C5B0C5B0C5B0C5B2C632C632C63C6
:106A20002C632C632D632C634D634D634D632D6389
:106A30006D6B2C634D632C634D6B4D6BAA520C63D5
:106A40000C63284A8110C218E320042125296529F6
:106A50004529E320242104210421C318C318C318A5
:106A6000A21061108110E3200421C318821081104C
:106A7000C3180421E320A218C318A21882106110C1
:106A800061104110811061108210A2108210400824
:106A9000811061088210C318242924212529E420AB
:106AA000821004212842694A0C5B2C638E6B8E6B2A
:106AB0008E6B8E6B8E6B8E6B6E6B8E6B8E6B6E6B4E
:106AC0006D6B6D6B6D6B6D6B4D6B4D6B4D6B4D6B86
:106AD0006D6B4D6B4D6B4D634D634D634D632D631E
:106AE0002D632C632C632C630C632C632C5B0C5B7D
:106AF0000C5B0C5B0C5B0C63EC5A0C63EC5AEC5AB1
:106B0000EC5AEC5AEB5AEB5AEC5AEB5ACB5AEB5A7A
:106B1000CB5ACB5ACB5ACB5ACB5ACB52CB52AB5285
:106B2000AB52AB52AA52AA52AB528A528A52AA52C2
:106B30008A528A528A528A528A528A528A528A5275
:106B40008A4A8A4A8A526A4A6A4A8A528A4A8A4AD5
:106B50008A4A8A4A8A4A8A4A8A4AAA52AA52AA521D
:106B6000AA528A528A52AA52AA52AA52AA52AB5284
:106B7000AB52AA52CB52CB52CB52CB52CB52CB526E
:106B8000CB52EB5AEB5ACB52EB5AEB5AEB5AEB5A2D
:106B9000EB5AEC5AEB5A0C5B0C5BEC5A0C5B0C5B43
:106BA0000C5B0C5B0C5B2C632C632C632C632C63E5
:106BB0002C632D632D632D632D634D634D634D63F6
:106BC0002C636D6B6D6B2D632C632C630C638A528D
:106BD000C6398110A21804212421242986310421D8
:106BE000042145290421E320C318C3180321E3200D
:106BF000C318E320E320E320E320042124294531C6
:106C0000653103210321E320A218A218A2188210E3
:106C1000821082108210611081106110A210610830
:106C2000200841086108C218C31845294529E320F6
:106C3000E318A218E318A63989520C630C636E6B33
:106C40008E738E6B8E6B8E6B8E6B8E6B6D6B6E6BB5
:106C50008E6B6E6B6E6B6D6B6E6B6E6B6D6B6D6B4F
:106C60006D6B6D6B4D6B4D6B4D634D634D634D6344
:106C70004D634D632D632C632C632C632C632C6359
:106C80002C630C5B0C5B0C5B0C5B0C630C630C5B94
:106C90000C5BEC5AEC5AEC5AEB5AEB5AEB5AEB5AA7
:106CA000EB5ACB5ACB5ACB52CB52CB5ACB5ACB52B4
:106CB000CB52AB52AB52AA52AB52AA528A528A5210
:106CC000AA52AA528A528A528A528A528A528A52A4
:106CD0008A528A528A526A4A6A4A8A528A4A8A4A34
:106CE0008A4A8A4A8A4A8A4AAA52AA528A4AAA528C
:106CF000AA52AA52AA52AA52AA52AA52AA52AB52B3
:106D0000AB52AB52CB52CB52CB52CB52CB52CB52DB
:106D1000CB52CB52EB5AEB5AEB5AEB5AEC5AEB5A9A
:106D2000EC5AEC5AEC5A0C5B0C5B0C5B0C5B0C5B8E
:106D30000C5B2C632C632C632C632C632C632D6302
:106D40002D634D634D634D634D634D634D636D6BBB
:106D50004D634D638E6B6D6B0C63AB522C63A63928
:106D60008110C318452925292421452924212421BE
:106D70004529242924290421042124298210611071
:106D8000C318C318A2108210E318442944292429E7
:106D900024292429E320C318A218C318C21882107A
:106DA0008210821082108210A210A2108210A218EB
:106DB00061106108A210C218E31824292429242193
:106DC000E318E318C318C21865298A522C632D638F
:106DD0004D6BAE73AE73AE736E6B6E6B8E6B8E6BF4
:106DE0008E6B8E6B8E6B8E6B8E6B6E6B8E6B6E6B1B
:106DF0006E6B6D6B6D6B6D6B6D6B4D634D634D634A
:106E00004D634D634D634D632D632C632C632C6385
:106E10002C632C632C632C5B0C630C630C630C5B8A
:106E20000C63EC5AEC5AEC5AEC5AEB5AEC5AEB5A0B
:106E3000EB5AEB5AEB5ACB5ACB52CB5ACB5ACB5AD2
:106E4000CB5ACB52AB52AB52AB52AB52AA52AA5214
:106E5000AA52AA528A528A528A528A528A528A5212
:106E60008A528A528A4A8A4A8A4A8A528A4A8A4A6A
:106E70008A4A8A4A8A4A8A4AAA52AA52AA52AA52D2
:106E8000AA52AA52AA52AA52AA52AA52AB52AB5220
:106E9000CB52CB52CB52CB52CB52CB52CB52CB520A
:106EA000EB5AEB5AEB5AEB5AEB5AEB5AEB5AEC5AB9
:106EB000EC5A0C5BEC5A0C5B0C5B0C5B0C5B0C5BDC
:106EC0000C5B2C632C632C632C632D632D634D634F
:106ED0004D634D634D634D634D634D636D6B6D6BE2
:106EE0004D6B4D6B2C636D6BCA5A2C6385316110F1
:106EF000A2180421042124294529E31845294529FC
:106F00002429452904210321E3204108A210C318A4
:106F1000042104294529863165312429442944293D
:106F20000321C3200321E320E320611061108210BC
:106F300061104108410861106110A21861108210AF
:106F4000A21061086108A210C318E318E420E31836
:106F5000E320A210C318A318A2104529CB5A2D6311
:106F60004D6B4D6B6D6B8E6BAE73AE738E6B8E6BAC
:106F70008E6B8E6B8E6B8E6B8E6B8E6B8E6B8E7341
:106F80008E6B6D6B8E6B6D6B6D6B6D6B4D6B6D6B1F
:106F90004D634D6B4D634D634D634D634D632C638A
:106FA0002C632C632C632C630C630C630C630C63E9
:106FB0000C630C5B0C5BEC5AEC5AEC5AEB5AEB5A38
:106FC000EB5AEB5AEB5ACB5ACB5ACB5ACB5ACB5A39
:106FD000CB52CB52CB52AB52AB52AA52AB52AA526B
:106FE000AA52AA52AA528A528A528A528A528A5261
:106FF000AA528A528A528A528A4A8A528A4A8A4AA9
:107000008A4A8A4A8A4AAA528A4AAA52AA52AA5240
:10701000AA52AA52AA52AA52AA52AB52AB52AB528D
:10702000CB52CB52CB52CB52CB52CB52CB5AEB5A48
:10703000EB5AEB5AEB5AEB5AEB5AEC5AEC5AEC5A25
:10704000EC5AEC5A0C5B0C5B0C5B0C5B0C5B2C6322
:107050002C632C632C632C632C632D634D634D6375
:107060004D634D634D634D636D6B6D6B6D6B6D6B00
:107070004D6B6D6B4D6BCB5A0C5BA6398110A31811
:10708000E320042145290421E4206531863165315E
:10709000042104210421C218821004216529A63983
:1070A000853165318539242924294431E320C218EA
:1070B000E320A218611061108210E32081104108C2
:1070C00061108110611061106108821081106110DF
:1070D0006110A21861106110A218E320252945292A
:1070E000E420C31882108210C318A21024296D6BEB
:1070F0000C630C5B6D6B6E6BAE738E6B8E6B8E6BFD
:107100008E6B8E6B8E6B8E6B8E6B8E6B8E6B8E6BB7
:107110008E6B8E6B8E6B8E6B8E6B6D6B6D6B6D6B0A
:107120006D6B4D6B4D634D634D634D634D632D63CF
:107130004D632C632C632C632C630C630C630C6316
:107140000C5B0C630C5B0C5B0C63EC5AEC5AEB5A5B
:10715000EB5AEC5AEB5ACB5AEB5ACB5ACB5ACB5A86
:10716000CB5ACB52CB52CB52AB52AA52AB52AA52B1
:10717000AA52AA52AA528A528A528A528A528A52CF
:107180008A528A528A528A528A4A8A528A4A8A4A37
:107190008A4A8A4AAA528A4AAA52AA52AA52AA5287
:1071A000AA52AA52AA52AA52AB52AB52AB52AB52FB
:1071B000CB52CB52CB52CB52CB52CB5AEB5ACB5AAF
:1071C000EB5AEB5AEB5AEB5AEC5AEB5A0C5B0C5B52
:1071D0000C5B0C5B0C5B0C5B0C5B0C5B2C632C6327
:1071E0002C632C632D632C632C634D634D634D63C3
:1071F0004D636D6B6D6B6D6B6D6B6D6B6D6B8E6BD6
:107200006D6B6E6B0C63CB5A07426110C318E318A9
:1072100024214529242904216531A6390421452941
:1072200025292429E32004216531A6316531653102
:10723000A639653124292429E320C320E320C2187C
:10724000A218A2108210C21882108210E320C31864
:10725000A21081106110400882108110811061100D
:1072600061108110821041088210A2180421663139
:107270002429E318C318A2188210C218C2180321C7
:107280000C634D6B2D63EB5A4D6B8E73AF73AF7305
:10729000AF73AF73AE73AE738E6BAE738E6BAE7334
:1072A0008E6B8E6B8E6B8E6B8E6B6E6B6E6B6D6B77
:1072B0006D6B6D6B6D6B4D634D634D634D634D63D6
:1072C0004D634D632D632C632C632C632C632C6303
:1072D0002C5B0C5B0C630C5B0C5B0C5BEC5AEC5A90
:1072E000EC5AEB5AEB5AEB5AEB5ACB5AEB5ACB5AB5
:1072F000CB5ACB5ACB5ACB52CB52AB52AA52AA52F0
:10730000AA52AA52AA52AA52AA52AA528A528A52DD
:107310008A528A528A528A528A52AA528A4A8A4A7D
:107320008A4AAA52AA52AA52AA52AA52AA52AA52A5
:10733000AA52AA52AA52AA52AA52AB52AB52CB524A
:10734000CB52CB52CB52CB52CB52EB52EB5AEB5AE5
:10735000EB5AEB5AEB5AEC5AEB5A0C5B0C5B0C5B9E
:107360000C5B0C5B0C5B0C5B0C5B2C632C632C636D
:107370002C632C634D634D634D634D634D634D63CF
:107380004D636D6B6D6B6D6B6D6B6E6B6D6B8E6B43
:107390006D6B0C63CB52694A8110A218C31804218B
:1073A0004529E32024298631653104218631653160
:1073B000452924292429452945296631A6398639B4
:1073C000653124292429242944294429E320E32060
:1073D000A218C318C3188210A2188110811082103D
:1073E0006110A218821861108210A2108210811000
:1073F000821061108210611061086110A218C32010
:10740000653165310421A318C318A210C218A2184F
:107410008631CB5A0C63AF734D6B4D6BCF73AE732C
:10742000AE73AE73AF73AE73AE73AE73AE73AE7353
:10743000AE738E6BAE738E6B8E6B8E6B8E6B6E6B54
:107440006E6B6E6B6D6B6D6B6D6B4D6B4D634D63EA
:107450004D634D634D632D632D632C632C630C636F
:107460002C632C630C5B0C630C630C630C5B0C5B7C
:10747000EC5AEC5AEC5AEB5AEB5AEB5AEB5ACB5A01
:10748000CB5ACB5ACB5ACB5ACB5AAB52AB52AB524C
:10749000AB52AB52AB52AB52AA52AA52AA52AA5208
:1074A000AA528A528A528A528A528A528A4A8A4AEC
:1074B0008A4AAA52AA528A4AAA52AA52AA52AA523C
:1074C000AA52AA52AB52AB52AB52AB52CB52CB5296
:1074D000CB52CB52CB52CB52EB5AEB5AEB5AEB5A24
:1074E000EB5AEC5AEC5AEC5AEC5A0C5B0C5B0C5B0A
:1074F0000C5B0C5B0C5B2C632C632C632C632C638C
:107500002C632D634D634D634D634D634D634D633C
:107510006D6B6D6B6D6B6D6B6E6B8E6B6E6B8E735F
:107520000C630C63CA5AA218A218C3182429242178
:10753000C3186531653145294529653145298631AD
:107540004529242965316531C639A63924292429DC
:107550006531653145314429E320C318C218A218AA
:10756000C318A218A218C318A218A218821061107A
:10757000821082106110A218821082108210821074
:10758000A21882106110811061088210C218C318FD
:10759000C318E3206531E32061108210A218A218FD
:1075A0008210E7392C632C638E6B0C632D63CF73D1
:1075B000CF73AE73AE73AE73AE73AF73CF73AF737F
:1075C000AF73AE73AE73AE738E6B8E738E6B8E6B4A
:1075D0006E6B8E6B6D6B6D6B6D6B6D6B6D6B4D63F1
:1075E0004D634D6B4D634D632D632D632D632C6394
:1075F0002C632C632C630C630C630C630C630C5BBB
:10760000EC5A0C5BEC5AEC5AEB5AEC5AEB5AEB5A2C
:10761000CB5ACB5ACB5ACB5ACB5ACB52AB52AB529A
:10762000AB52AB52AB52AA52AA52AA52AA528A5297
:107630008A52AA528A528A528A528A528A4A8A4A5A
:10764000AA528A4A8A4AAA52AA52AA52AA52AA52AA
:10765000AA52AA52AA52AB52AB52AB52CB52CB5205
:10766000CB52CB52CB52EB5AEB5ACB5AEB5AEB5A8A
:10767000EC5AEB5AEC5AEC5AEC5A0C5B0C5B0C5B78
:107680000C5B0C5B0C5B2C632C632C632C632C63FA
:107690004D634D634D634D634D636D6B6D6B6D6BF2
:1076A0006D6B6D6B6D6B6E6B8E6B6E6B8E6B6D6BD6
:1076B0000C63AA5224298210A2180421E420E318A2
:1076C0002421452904214529452965318531863103
:1076D00044298531A639C641A63965318639A6398E
:1076E000653185312429E320C32004210421E320CE
:1076F000C318A218A218611082108210A21882105A
:10770000811081108110A210A218A2188110A21855
:10771000A218E3208210A21861104108A218E320E9
:107720002529242904214529E318821041088110C4
:107730008210E3208A526D6BAE738E734D6B8E7325
:10774000F07BCF73CF73CF73CF73CF73CF73CF7300
:10775000CF73AF73AF73AE73AE73AE738E6B8E6B4E
:107760008E6B8E6B8E6B8E6B6E6B6E6B6D6B6D6BD3
:107770006D634D6B4D6B4D634D634D634D634D6359
:107780002D632C630C630C630C630C630C630C6340
:107790000C5B0C5B0C5BEC5AEC5AEB5AEC5AEB5A58
:1077A000CB5AEB5ACB5ACB5ACB5ACB5ACB5AAB52B9
:1077B000AB52AB52AB52AB52AA52AA52AA52AA52E5
:1077C0008A52AA52AA528A528A528A528A4A8A4AA9
:1077D000AA528A4AAA528A4AAA52AA52AA52AA5219
:1077E000AA52AA52AB52AB52AB52CB52CB52CB5253
:1077F000CB52CB52CB52CB52EB5AEB5AEB5AEB5A01
:10780000EC5AEB5A0C5B0C5B0C5B0C5B0C5B0C5B83
:107810000C5B0C5B2C632C632C634D632C634D63FE
:107820004D634D634D636D6B4D636D6B6D6B6D6B38
:107830006E6B6D6B6E6B8E6B8E6B8E6B8E6B8E6BE1
:10784000AA52A63182108210E320C3180421042119
:10785000242904214529042165316531653104213C
:107860006531A639A63965316531A63924294531F6
:107870004429E320C31824294531E320C318A21862
:10788000C318C318C318E320A21882108210A218CC
:10789000C218A218A218A218A218C218E320A2188F
:1078A000C218C218C218A218611041086110A218AB
:1078B0000421452924290421E320C218A2186110BB
:1078C0008210A21804218A522D63EF7BAF730C5BE8
:1078D000CF7BEF7BEF7BEF7BCF73CF73CF73CF7318
:1078E000CF73CF73CF73CF73AF73AE73AE73AE730B
:1078F000AE738E6B8E6B8E6B8E6B6E6B6E6B6D6BF9
:107900006E6B4D6B4D6B4D6B4D634D634D634D63B6
:107910004D632D632C632C632C630C630C630C632D
:107920000C630C5B0C5BEC5AEC5AEC5AEB5AEB5ABE
:10793000EB5ACB5ACB5ACB5ACB5ACB5ACB5ACB5AFF
:10794000AB52AB52AB52AB52AB52AA52AA52AA5252
:10795000AA52AA528A528A528A528A528A4AAA52EF
:10796000AA528A4AAA52AA52AA52AA52AA52AA525F
:10797000AB52AB52CB52AB52CB52CB52CB52CB527F
:10798000CB52CB52CB52EB5AEB5AEB5AEC5AEC5A45
:10799000EB5AEC5A0C5B0C5B0C630C630C5B0C5BE2
:1079A0002C632C632C632D634D632D634D634D63FA
:1079B0004D634D636D6B4D636D6B6D6B6D6B6D6B7F
:1079C0008E6B6E6B8E6B8E6B8E6B8E6B8E6B2C6379
:1079D0002842A2108218A218C318E32004214529C6
:1079E00024294529242965318631653145296531A8
:1079F000C739C639A63965318631452965314529EA
:107A00006531442945290429E320E320C218821066
:107A100082108110810882108210821082108210E0
:107A2000A218A218C318C318E320E3204429E320B6
:107A3000E3200321032144292429A21882104108AC
:107A40006110821004210421E320C318A2188210BF
:107A50008110A210821804216D6B4D6BAF733184BD
:107A60000C63EF7BCF73CF73EF7BEF7BEF7BEF7B11
:107A7000EF7BEF7BCF73CF73CF73AF73AF73AF7306
:107A8000AF73AE738E6B8E6B8E6B8E6B8E6B8E6BDD
:107A90008E6B6D6B6D6B6D6B4D6B4D634D6B4D6395
:107AA0004D634D634D632D632C632C630C630C633A
:107AB0000C630C630C63EC5A0C5BEC5AEC5AEB5AFB
:107AC000EB5AEB5ACB5AEB5AEB5ACB5ACB5ACB5216
:107AD000CB5ACB52CB52AB52AB52AB52AA52AA5258
:107AE000AA52AA528A528A528A52AA528A4AAA523E
:107AF0008A4AAA52AA52AA52AA52AA52AA52AA52CE
:107B0000AB52AB52AB52CB52CB52CB52CB52CB52ED
:107B1000CB52EB5AEB52EB5AEB5AEB5AEC5AEC5A6B
:107B20000C5B0C5B0C5B0C5B0C630C630C632C63DD
:107B30002C632C632C632C634D634D634D634D6349
:107B40004D636D6B6D6B6D6B6D6B6D6B6D6B8E6B7C
:107B50008E6B8E6B8E6B8E6BAE6BAF736D6B895253
:107B6000E320A218A318C318E320242903214529E0
:107B70000421242945294529663145296531C74114
:107B8000A639A639863186316531653145312429DA
:107B90002429442903290421C31882108210A21821
:107BA000C318E320E320E320C318C318E320C32055
:107BB000032103210429243103216531453165392D
:107BC0004531453144318539E641A639A218821044
:107BD000A210C318C318C3182421C318C3188210D5
:107BE00081108110C218A218A6398E6B2D631084E3
:107BF000CF738E6B107CF07BF07BF07BEF7BEF7BA9
:107C0000EF7BEF7BEF7BCF73CF73CF73CF73CF73EC
:107C1000AF73AE73AE73AE73AE738E6B8E6B8E6BD3
:107C20008E6B6E6B8E6B6D6B6D6B4D6B6D6B4D6B91
:107C30004D6B4D6B4D6B4D632D632C632C630C634F
:107C40000C630C630C630C630C630C5BEC5AEC5A16
:107C5000EC5AEB5AEB5AEB5ACB5ACB5ACB5ACB5A7B
:107C6000CB5ACB5AAB52CB52AB52AB52AB52AA52BD
:107C7000AA52AA528A52AA528A52AA52AA528A4A8C
:107C80008A4AAA52AA52AA52AA52AA52AA52AA523C
:107C9000AB52AB52AB52CB52CB52CB52CB52CB525C
:107CA000CB52EB5AEB5AEB5AEB5AEB5AEC5A0C5BB1
:107CB0000C5B0C5B0C5B0C5B0C630C630C632C634C
:107CC0002C632C632D634D634D634D634D634D6396
:107CD0004D636D6B6D6B6D6B6D6B8E6B8E6B6E6BC9
:107CE0008E6B8E6B8E6B8E6BAE73CF73AA52A63972
:107CF0008210A218C318E320E320E32024292429BA
:107D0000E32065318631452945296531A639A639F3
:107D1000A639863186396531653124292429863191
:107D20002429C320E3208210C3200429242904210C
:107D3000E32004214429242924294529242924290C
:107D400024296531A63985398539A539074AA639E7
:107D5000C741084AE741074A895AE7416531E320AC
:107D6000E318E42004210421C318E320C318A21857
:107D7000811082108210A218C318EC628E730C63FB
:107D800051844D633184107C107C107C107C107CFD
:107D9000F07BEF7BF07BF07BF07BCF73CF73CF7307
:107DA000CF73CF73AF73AE73AF73AE738E6B8E6BD7
:107DB0008E6B8E6B8E6B6E6B6E6B6E6B6D6B6D6B9D
:107DC0004D6B4D6B4D6B4D6B4D632D632D632C6374
:107DD0002C630C630C630C630C630C5B0C5BEC5A44
:107DE000EC5AEC5AEB5AEB5AEB5ACB5ACB5ACB5AC9
:107DF000CB5ACB5ACB5ACB52AB52AB52AA52AA5205
:107E0000AA52AA528A528A528A52AA52AA528A4A1A
:107E1000AA52AA52AA52AA52AA52AA52AB52AB5280
:107E2000CB52CB52CB52CB52CB52CB52CB52CB526A
:107E3000CB52EB5ACB5AEB5AEC5AEB5AEC5A0C5B3E
:107E40000C5B0C5B0C5B0C5B0C630C630C632C63BA
:107E50002C632C632D634D634D6B4D634D636D6BD4
:107E60006D6B6D6B6D6B6E6B6E6B8E6B8E6B8E6BED
:107E70008E6B8E6BAE73AE73CF730C63CB5A811067
:107E8000A218C318C3180421E32024290321E320E6
:107E9000653124294429452966318631A639863140
:107EA0006631A63965316631242965318631242948
:107EB0002429E320042945310429E320E32024294F
:107EC000242924290429443165312431853985390F
:107ED00044318539C641C641E6414852685A285264
:107EE000685ACA62685A2C73AA62C641A6394429E4
:107EF00004210421242924290421C318A218A2182A
:107F0000A210811082108210821044296D6B8E7332
:107F10002C63EF7BCF7331843084107C107C107C19
:107F2000107C107C107CF07BF07BF07BF07BF07B96
:107F3000CF73CF73CF73CF73AF73AF73AF73AE73B2
:107F40008E6B8E6B8E6B8E6B8E6B6E6B6E6B6D6BCA
:107F50006D6B6D6B4D6B4D6B4D6B4D632D632D6379
:107F60002C632C630C630C630C630C630C63EC5A82
:107F7000EC5AEC5AEC5AEB5AEB5AEB5ACB5ACB5A16
:107F8000CB5ACB5ACB5ACB5ACB52AB52AB52AB5249
:107F9000AA52AA52AA52AA528A52AA528A4A8A4A71
:107FA000AA52AA52AA52AA52AA52AA52AB52CB52CF
:107FB000CB52CB52CB52CB52CB52CB52CB52CB52D9
:107FC000EB5AEB5AEB5AEB5AEC5AEC5A0C5B0C5B43
:107FD0000C5B0C5B0C5B0C5B0C632C632C632C63E9
:107FE0002D634D634D634D634D6B4D6B4D636D6BF9
:107FF0006D6B6D6B8E6B6E6B6E6B8E6B8E6B8E6B3B
:10800000AE73AE738E6BAE73AF73EB5A652982108D
:10801000A218C318E320E320E320E320E32024296F
:1080200004210321042124292429E74165318639CB
:10803000653165318531032165316531E3200429DE
:10804000E3200321C318A210E31824292429653151
:1080500086398531C6418539E7412852695A695ABE
:108060002752C6410752685A6852685A0B73685AB9
:108070002B7B8C83EA6A2B732852074AC6418639C8
:10808000653124290421E320C318C318C318A2189A
:10809000A21881108210A2188210A21869522C63B3
:1080A00010842C638E6B518431843084308431840D
:1080B000107C107C107C107C107CF07BF07BF07BC3
:1080C000F07BEF73CF73CF73CF73CF73AF73AF7397
:1080D000AE73AE738E6BAE6B8E6B8E6B8E6B8E6B68
:1080E0006E6B6D6B6D6B6D6B4D6B4D634D6B4D635F
:1080F0002C632C632C632C630C630C630C5B0C5B98
:10810000EC5AEC5AEC5AEB5AEC5AEB5AEB5ACB5A63
:10811000CB5ACB5ACB5ACB52CB52AB52AA52AA52C1
:10812000AA52AA52AA52AA52AA52AA52AA528A4A97
:10813000AA52AA52AA52AA52AB52AA52AB52AB525C
:10814000CB52CB52CB52CB52CB52CB52CB52EB5A1F
:10815000EB5AEB5AEB5AEC5A0C5BEC5A0C5B0C5B8F
:108160000C5B0C5B0C5B0C5B2C632C632D632D6335
:108170002D634D634D634D634D634D6B6D6B6D6B47
:108180006E6B6E6B8E6B6E6B6E6B8E6BAE738E6B7F
:10819000AE73AE738E6BCF730C6369526110A2180D
:1081A000C218C318C318E320E320E32003210421ED
:1081B000E320032104214529A6396531653186393B
:1081C000653145316531A6394531E320242924291B
:1081D000C318C318E32045294529A639284A48521F
:1081E00048526852895A89628962A9620B738D83E9
:1081F0004F9C4B7B0A730B730B7B89628C8B2B7BA5
:10820000AC8BCD8B2B7B274AE741C641A64165311C
:108210002429E320E320E320C318A218A218821027
:10822000A21081108210A218C218A2180429EB5AB9
:108230002C638E73CB5A10843184107C308431844B
:10824000318431843084107C107C107C107CF07B75
:10825000F07BF07BF07BEF7BCF73CF73CF73CF736B
:10826000CF73AF73AF738F738E6B8E6B8E6B8E6BA2
:108270006E6B6E6B6D6B6D6B4D6B6D634D634D6BAC
:108280004D632D632C632C630C632C5B0C5B0C63C4
:108290000C5BEC5A0C5BEC5AEC5AEB5ACB5ACB5AAF
:1082A000CB5ACB5ACB5ACB5AAB52AB52AB52AB5246
:1082B000AA52AB52AA52AA52AA52AB52AA52AA52DC
:1082C000AA52AA52AA52AA52AB52AB52CB52CB528A
:1082D000CB52CB52CB52CB52EB52EB5AEB5AEB5A1E
:1082E000EB5AEB5AEC5AEC5AEC5A0C5B0C5B0C5BFD
:1082F0000C5B2C630C5B2C632C632C632C634D6335
:108300004D634D634D634D634D636D6B6D6B6E6B74
:108310006E6B8E6B8E6B6E6B8E738E6BAE73AE737D
:10832000AE73AE73CF73AE73EB5A0321A218C218AB
:10833000A218C318E320E320C318E3200421E3209C
:10834000C3180421042945318539653165318639E1
:10835000452945318639453145314429C3208218A4
:10836000E3204529A639E749CA62EB6AAE8BCE8B7A
:108370004F9C0E94EE93EE93AD8B8D8B8C8B8C8BF0
:108380002E9C90AC0E9C4FA44FA490AC2B7BAC8B3E
:108390004FA40E944C7B0B73485A074A85396531BC
:1083A0002429E3208210A218C318A21861106110BA
:1083B0006108811081108210A218E320A2182842BF
:1083C0008E738E732D638E73518C518431843084FF
:1083D000107C31843084308431843084107C107C73
:1083E000107C107CF07BF07BF07BCF73CF73CF736E
:1083F000CF73CF73AF73AF73AF738E6BAE738E6B80
:108400008E6B6E6B6E6B6E6B6D6B4D6B6D6B4D6BC8
:108410004D634D634D632D632C630C630C630C63E0
:108420000C630C630C5B0C5BEC5AEC5AEB5AEB5A8A
:10843000EB5AEB5ACB5ACB5ACB5ACB52CB52AB520C
:10844000AB52AA52AB52AA52AA52AB52AA52AA5249
:10845000AA52AA52AA52AA52AB52AB52CB52CB52F8
:10846000CB52CB52CB52CB52CB52CB5AEB5AEB5ACC
:10847000EB5AEB5AEC5A0C5B0C5B0C5B0C5B0C5B29
:108480000C5B2C630C5B2C632C632D632D634D63A1
:108490004D634D634D636D6B6D6B6D6B6E6B8E6B72
:1084A0006E6B8E6B8E6B8E6BAE73AE73AE73AF7383
:1084B000CF73CF73EF7B4D6B2842A2108210C3188D
:1084C000C218C318C318C318E320C318E320A218A6
:1084D000E320C318E320863945316531A6392429C4
:1084E000863986394431863924298218C3184531A2
:1084F000C641074A4852EB6A0E9491A4D1B433BDE9
:1085000073C594CDD5D574CD94CD33C5D1B4B1B4A4
:10851000B1B4D1BC32C5F2BC94CD12BD2FA46FACA6
:108520000EA4CD93AD8BCA6A895A074AC6418539D4
:108530002429E3200421E3208210611081106110BE
:108540006108611061108210A2108210C320032103
:10855000EB5AAF738E73CA52308451845184518464
:1085600051845184107C318431843184107C107C9E
:10857000107C107C107CF07BF07BF07BF07BCF7369
:10858000CF73CF73CF73AF73AF73AF73AE73AE737D
:108590008E6B8E6B8E6B8E6B6E6B6E6B6D6B4D6BB5
:1085A0004D6B4D6B4D634D632C632C630C632C63DF
:1085B0000C630C630C630C63EC5AEC5AEB5AEC5AE8
:1085C000EB5AEB5AEB5AEB5ACB5ACB5ACB5ACB520B
:1085D000AB52AB52AB52AA52AA52AB52AA52AA52B7
:1085E000AA52AA52AA52AB52AB52CB52CB52CB5246
:1085F000CB52CB52CB52CB52CB52EB5AEB5AEB5A1B
:10860000EB5AEB5AEB5A0C5B0C5B0C5B0C5B0C5B98
:108610002C632C632C632D632D632D634D634D639D
:108620006D6B4D636D6B6D6B6D6B6D6B8E6B8E6B70
:108630008E6B8E6B6E6BAE73AE73AE73CF73CF7388
:10864000CF73CF73EF7BAA52E32082108210A2185F
:10865000C318C318C318E320A218C318C218A2185D
:10866000E320C31824296531453165314529653931
:10867000863945316539C320C2204431E749285243
:10868000AA62CA6A6C7B70A412BDB5CD37DE57DE14
:1086900078E637DE57E637E637DE37DE37E694CD65
:1086A00053CD13C533C512C5B5D533C5B1B46FAC01
:1086B000AD93EA7A2B7B0A73685AE74985396531AD
:1086C000653965310421C318A21882106110611048
:1086D00061106110610861088210C318A218E320BC
:1086E000C6396D6BCF7B8E730C63EF7B1084518426
:1086F0005184518451843184318451843184318452
:1087000011843084107C107C107CF07BF07BF07B3B
:10871000CF73CF73CF73CF73CF73CF73AF73AF7389
:10872000AE738E6B8E6B8E6B8E6B6E6B6D6B6D6BBB
:108730006D6B4D6B4D6B4D634D632D632C632C63E3
:108740002C630C630C630C630C63EC5AEC5AEC5A0C
:10875000EC5AEB5AEB5ACB5ACB5ACB5ACB5ACB5A90
:10876000AB52AB52AB52AB52AA52AB52AA52AA5224
:10877000AA52AA52AA52AA52CB52CB52CB52CB5295
:10878000CB52CB52CB52CB52EB5AEB5AEB5AEB5A61
:10879000EB5AEB5AEC5A0C5B0C5B0C5B0C5B0C5B06
:1087A0000C5B2C632C634D632D634D634D634D63F4
:1087B0004D636D6B6D6B6D6B6E6B6E6B8E6B8E6BDD
:1087C0008E6B8E738E6BAF73AF73CF73CF73CF73AC
:1087D000CF73F07B4D6BA63982108210E320A21874
:1087E000A218C318C320A218C318C3188210C31834
:1087F000C318E32086314529452986316531653125
:1088000065316531E3202429C649A96A2B7B8C8B0D
:10881000AD9390A412B594C516D678E678E6B9EE75
:10882000B9EEB9EE98EE99EE98EE78EE57E636DEB0
:10883000D5D5B5D5B5D5B5D5B5D594D533C590B4C1
:1088400070AC0E9C4EA44B7BC96A8962074AA6395C
:1088500086394429C318C318A218A218A218821076
:10886000611061086108610861088218A218E3209C
:1088700024298952F07BEF7BEB5AEF7B1084318403
:1088800051845184728C728C31845184518451840E
:10889000318431843084107C107C107C107CF07B1F
:1088A000F07BF07BEF73CF73CF73CF73AF73AF7386
:1088B000AF73AE738E6B8E6B8E6B8E6B6E6B6D6BE0
:1088C0006E6B6D6B4D6B4D6B4D6B4D6B2D632D63F7
:1088D0002C630C630C630C630C630C5BEC5AEC5A5A
:1088E000EB5AEC5AEB5ACB5ACB5ACB5ACB5ACB5207
:1088F000CB52AB52AB52AB52AA52AB52AA52AA5273
:10890000AA52AA52AB52CB52AB52CB52CB52CB5201
:10891000CB52CB52CB52EB5AEB5AEB5AEB5AEB5AA7
:10892000EB5A0C5B0C5B0C5B0C5B0C5B2C632C63E1
:108930002C632D634D634D634D634D634D636D6BD0
:108940006D6B6D6B6E6B6E6B6E6B8E6B8E6B8E6B01
:108950008E6BAE738E6BAF73CF73CF73CF73CF73DA
:10896000EF7BCF73EB5AA2188210C318A218A2187B
:10897000A218C318A218A218C318A218A218C318C4
:10898000C3182429452924296531653165316531AC
:108990004531E3208539A96AEE9B6FB4F2C453CD0B
:1089A00074CDD5CD36DE78E698E6B9EEFAEEFAF675
:1089B000FAF6FAF6D9EED9EED9EEB9F698EE57E610
:1089C00037E6F6DDD5D5B5D594CDB5D553CD94CD17
:1089D000F2BCB0BC90B4ED9BE9728862074AE741F3
:1089E00065394431E320A2186110611041088210FA
:1089F000821081108110610861086110A218C318EB
:108A00000421C739CB5A3184CF7BEF7BCF7B107CDD
:108A1000518C718C5184728C728C3184518451844C
:108A200051845184318430843084107C107C107CDB
:108A3000107CF07BF07BF07BEF73CF73CF73CF7341
:108A4000AF73AF73AF73AE73AE738E6B8E6B8E6B93
:108A50006D6B6D6B6D6B4D6B4D6B4D632D632D634E
:108A60002C630C632C630C630C630C630C5BEC5A7F
:108A7000EC5AEC5AEB5AEB5ACB5ACB5ACB5ACB5A4C
:108A8000CB52CB5ACB5AAB52AA52AB52AA52AA5291
:108A9000AA52AB52AA52AB52AB52CB52CB52CB5290
:108AA000CB52CB5ACB5AEB5AEB5AEB5AEB5AEB5A06
:108AB000EC5A0C5BEC5A0C5B0C5B0C5B2C632C6370
:108AC0002C632D632D634D634D634D634D636D6B5F
:108AD0006D6B6D6B6E6B6E6B8E6B8E6B8E6B8E6B50
:108AE000AE73AE73AE73CF73CF73CF73CF73EF73B9
:108AF000CF7B8E73A63961108210C318A218A218FA
:108B0000A218C318C318A2188210A218A218A2187B
:108B1000A2186531242985316531453145316531EA
:108B2000C320C6416C8B12C5D5DDF6E516E6D5DD52
:108B300037E698EEB9EEB9EEDAEEFAF6FAF61BF78A
:108B40001AF7FAF6FAF6FAF6FAEEFAF6B9EE98EE3F
:108B500058EE17E616DED5D5D5D594CDB5D595D535
:108B600012C553CD4FACD2BCED93C972A96A07525E
:108B70008539442944294529A2186210410820005A
:108B80006108821061088210821041086110821011
:108B9000C3182429294A6D6B928C4D6B5184308403
:108BA000F07B728C7184928C728C5184718C718C7C
:108BB0005184518451843184118431843084107CF7
:108BC000107C107C107CF07BEF7BEF7BEF7BCF7316
:108BD000CF73AF73AF73AE73AE738E738E736E6BF2
:108BE0008E6B6E6B6E6B6D6B4D6B4D6B4D634D6332
:108BF0002D632D632C630C630C630C630C630C5BA3
:108C0000EC5AEC5AEB5AEB5AEB5ACB5ACB5ACB5A9A
:108C1000CB5ACB5ACB52CB52AB52CB52AA52AA52BE
:108C2000AA52AB52AB52AB52CB52CB52CB52CB5AD5
:108C3000CB52CB52CB5AEB5AEB5AEB5AEB5AEC5A7B
:108C40000C5B0C5B0C5B0C5B0C5B0C5B2C632C639C
:108C50002D632D634D634D634D634D636D6B6D6B84
:108C60006D6B6D6B6E6B8E6B8E6B8E6B8E6BAE7376
:108C7000AF73AF73AE73CF73CF73CF73EF7B107CD3
:108C80006D6BAE73C318A218C218A218A218821076
:108C9000C320A218A218A2188210A2188210C2180B
:108CA0000429242944296531453186394531E318A1
:108CB00085416C8B74D537EE37E657E698EE99EE22
:108CC000B9EEDAEEDAF6FAF61AF71BF71BF73BFF06
:108CD0001BF71BF71BF71BF7FBF6DAF6D9F698EE36
:108CE00078EE57E616DEF6DDD5D5B4D594D5B5D5F4
:108CF00053C574CDB0BCD1BCB0B4AD8BCA6A685A90
:108D0000C641A63944312429042182108210621000
:108D10004108410882104110410882106110611021
:108D2000A2180421A639AA52CF731084AF73F07B26
:108D30009294F07B518C728C518451845184728C4A
:108D4000728C718C518431843184318431841084EB
:108D5000107C107C107C107CF07BF07BF07BCF7360
:108D6000CF73CF73CF73CF73AE73AE73AE738E6B9F
:108D70008E6B8E6B6E6B6D6B6D6B4D6B4D6B4D6B50
:108D80002D632D632D630C630C630C630C630C6308
:108D90000C5BEC5AEC5AEC5AEB5AEB5AEB5ACB5AA6
:108DA000CB5ACB5ACB5ACB52AB52AB52AA52AA5245
:108DB000AA52AB52CB52CB52CB52CB52CB5ACB5AFC
:108DC000EB52CB52EB5AEB5AEB5AEB5AEB5AEC5AAA
:108DD0000C5B0C5B0C5B0C5B2C632C630C5B2C63E3
:108DE0002D634D634D634D634D636D6B6D6B6D6BAB
:108DF0008E6B8E6B8E6B8E6B8E6BAE73AF73AF7331
:108E0000CF73CF73AE73CF73EF7BEF7BF07BAE731B
:108E10001184084281108210C318C3188210A2184E
:108E2000A218A218C2188110A2188210A218032139
:108E30000321E3204531242965396531E328653173
:108E4000CA7A12CD37E678EE78EE78EEB9F6D9F632
:108E5000FAF6FAF6FAF61BF71BF71BF73BFF3BFF98
:108E60003BFF1BF71BF71BF71BF7FAF6DAF6B9F611
:108E700098EE57E617E6F6DDD5D5D5DDD5D574CD18
:108E800053CD74D511C54FA40FA42F9C2B7BCA6A58
:108E90004852C641853924292429A318611082101B
:108EA00041086108210861106110410861108210B9
:108EB0008110C3180421A6398E6B518CCF73318475
:108EC000CF73928CEF7BB294928C718C51845184CD
:108ED0005184728C718C51845184518451843184B9
:108EE00011843084107C107C107C107CF07BF07B33
:108EF000CF73CF73CF73CF73CF73AF73AF73AE73C3
:108F0000AE6B8E6B8E736E6B6D6B6D6B4D6B4D6B55
:108F10004D632D632D632C632C630C630C630C6316
:108F20000C63EC5AEC5AEC5AEB5AEB5ACB5AEB5A0C
:108F3000CB5ACB5ACB5ACB52CB52CB5AAA52AA526B
:108F4000AA52AB52CB52CB52CB52CB5ACB5ACB5A62
:108F5000EB52CB52EB5AEB5AEB5AEC5AEC5A0C5BF5
:108F60000C5B0C5B0C5B0C5B2C632C632C632D6328
:108F70004D634D634D634D636D6B6D6B6D6B8E6BB0
:108F80008E6B8E6B8E6B8E6BAE73AE73AE73AE7379
:108F9000CF73CF73AE73F07BEF7BF07B107C8E735F
:108FA0001084A2188210C218C318C2188210C318E5
:108FB0008210A218A218A218A218C218E320E32057
:108FC000E320442945294531453104290429075224
:108FD0008FB416E657EE78EE98EEB9F6FAF6FAF692
:108FE0001AF71BF71BF73BFF3BFF3BFF3CFF3CFF28
:108FF0003BFF3BFF3BFF3BFF1BF7FAF6FAF6B9F6E8
:1090000098EE78EE37E617E6F6DDF5DDD5DDB5D579
:10901000D5DD53CD12C54FACAD93EE932B7BA96A32
:10902000485AC64186392429A318C318A2106108DA
:109030006210410841084108410861104008611070
:1090400082108210C218AA5A28423084AF73518409
:10905000518C518C728C5184B394728C928C928C02
:10906000928C51843184728C718C518451845184DE
:10907000318431843184107C107C107C107CF07B36
:10908000F07BF07BEF7BCF73CF73CF73AF73AE7397
:10909000AE738E6B8E6B8E6B6E6B6D6B6D6B6D6B63
:1090A0004D6B4D634D632D632C630C630C630C633C
:1090B0000C630C5B0C5BEC5AEC5AEB5AEB5ACB5A38
:1090C000CB5ACB5ACB5ACB5ACB52CB5AAB52AA52D1
:1090D000AB52CB52CB52CB52CB52EB52CB52CB5AA0
:1090E000EB52EB5AEB5AEC5AEC5AEB5A0C5B0C5B1A
:1090F0000C5B0C5B0C5B2C630C5B2C632C634D6377
:109100004D634D636D6B4D636D6B6D6B6E6B8E6BF5
:109110008E6B8E6BAE73AE73AE73AF73AE73CF7375
:10912000CF73EF7BCF73EF7BF07B107C8E6B518422
:10913000CB5A6110A218C318C218A218A218C318DB
:10914000A218A218A2188210C3188210C218E32015
:10915000E320242924296539E320242965396C93E7
:10916000B4DD57EE78EE78EE99F6D9F6FAF61AF7FE
:109170001BF73BFF3BFF3BFF5CFF5CFF5CFF3CFFE3
:109180003BFF3BFF3BFF3BFF3BFF1AF7FAF6D9F6ED
:10919000B9F678EE57EE37E617E616E6F5DDB5D503
:1091A000F6DD94D5B0BCD1BCCD9B0A732B7BEA72A3
:1091B000685A074A86392429E320821082108210D7
:1091C0006108410841084108610881108110410887
:1091D00061108110A218652908428E73728C107C70
:1091E000928CCF7BD394718CB394928CB294B294C2
:1091F000928C928C928C3184728C718C718451849B
:1092000051845184318431843084107C107C107CF2
:10921000107CF07BF07BF07BEF73CF73CF73CF7359
:10922000AF73AE738E6B8E6B8E6B6E6B6E6B6D6B86
:109230004D6B4D6B4D634D632D632C632C630C6341
:109240000C630C630C630C5BEC5AEB5AEC5AEB5A54
:10925000EB5ACB5ACB5ACB5ACB5ACB5AAB52AB5216
:10926000CB52CB52CB52CB52CB52CB52CB52EB52F6
:10927000EB5AEB5AEB5AEC5AEB5A0C5B0C5B0C5B5F
:109280000C5B0C5B0C5B2C632C632C634D634D639C
:109290004D636D6B6D6B6D6B6D6B6E6B8E6B8E6BF3
:1092A0008E6BAE73AE73AE73AF73AF73CF73CF739A
:1092B000CF73EF7BEF7BCF73EF7BF07B8E6B5184B3
:1092C00004218210C218C318C218A218C318C218E9
:1092D000A218A218A218C3188210A218C218242912
:1092E0002429E3286531E32824294531A97212CDC8
:1092F00016E657EE98EEB9F6B9F6DAF61BF71BF755
:109300003BFF1BF73CFF5CFF3CFF5CFF5CFF5CFF2F
:109310003CFF5CFF5CFF3BFF3BFF1BF71AF7D9F6F6
:10932000B9EE78EE57EE57E637E637E616E6F6DDA5
:10933000F5DDB5DD32CD4FAC0EA46C83CA6A0B737C
:10934000AA62285286394429E320C3188210821069
:1093500062106210610882104108411041086110DA
:10936000410841086110E3200321AA5A92948E73A8
:10937000F49C107C718CF39C718CB294B394B39474
:10938000B394928C928C928C5184728C728C718C6E
:109390005184518451843184318411843084107C0F
:1093A000107C107CF07BEF7BEF7BEF7BCF73CF7378
:1093B000CF73AE73AE738E738E738E6B6E6B6D6B7D
:1093C0006D6B4D6B4D6B4D6B2D632D632C632C635F
:1093D0000C630C630C5B0C63EC5AEC5AEC5AEB5AC2
:1093E000EB5AEB5ACB5ACB5ACB5AEB5AAB52AB5245
:1093F000AB52CB52CB52CB52CB52CB52CB52EB5A7D
:10940000EB5AEB5AEC5AEC5AEC5A0C5B0C5B0C5BCB
:109410000C5B0C5B2C632C632D632D634D634D63E0
:109420004D636D6B6D6B6D6B6E6B8E6B8E6B8E6B40
:109430008E6BAE73AF73AF73AF73CF73CF73CF73E6
:10944000CF73F07BEF7B107C107CAF73107C4D6B87
:109450008218A218A218E320A218A218A218A21813
:10946000A218C320A218C320A218C2182429E320DE
:10947000042945314531E3284431C6514EACF5E568
:1094800037EE78EE98EEB9F6D9F6DAF61BF73BFF31
:109490003BFF3BFF3CFF5CFF3CFF5CFF5CFF5CFF76
:1094A0005CFF5CFF5CFF5CFF3BFF1BF71AF7D9F624
:1094B000B9F698EE78EE58EE57E637E617E616E678
:1094C000F5DDF5DD94D5D1BCD1BCAD934C7B896283
:1094D0008A5A4952E74186394529E420C318821047
:1094E000A210821082106110210820084108410852
:1094F000611061106110A218A2188531AE73318419
:10950000928CD394CF7BF39C728CB394D394B3940A
:10951000B3949294B294928C728C728C728C728C82
:10952000728C5184518451845184318431843184CA
:109530003084107C107C107CF07BEF7BEF7BCF7352
:10954000CF73CF73AF73AE738E738E6B8E6B8E6B68
:109550006E6B6D6B6D6B4D6B4D6B4D632C632C6344
:109560000C632C630C630C630C63EC5AEC5AEC5ADE
:10957000EB5AEB5AEB5AEB5ACB5ACB5AAB52CB5273
:10958000CB52CB52CB52CB52CB52CB52EB5AEB5AA3
:10959000EB5AEB5AEC5AEC5A0C5B0C5B0C5B0C5B19
:1095A0000C5B0C5B2C632C632D634D634D634D632F
:1095B0006D6B6D6B6D6B6E6B6E6B8E738E6B8E6B7E
:1095C000AE73AE73CF73CF73CF73CF73CF73CF73CD
:1095D000EF7BF07B107C107C3084AF73318486315C
:1095E0008210C318A218E320A210A218C318A21850
:1095F000C318A218C320C320A2180321E320042902
:10960000032924310329453164316C9353D536E65F
:1096100057EE78F699F6D9F6DAF6FAF61BF73BFF2D
:109620003BFF3BFF5CFF5CFF5CFF5CFF5CFF5CFFA4
:109630005CFF5CFF5CFF5CFF3BFF1BF71AF7D9F692
:10964000B9F699EE78EE78EE78EE57EE37E636E634
:10965000F6DDD5DDD5DD53CDF2C4D1BC6C832B73E3
:109660006952695AE74165310421C318A310621099
:109670008210A218821061106110410861106110FF
:109680004108611081108110A218C3184429518C1F
:109690003184728C92943084B394B294D394D394E2
:1096A000B394B394B394B294B294718C928C928C20
:1096B000728C728C718C51845184518451843184A8
:1096C00031843084107C107C107CF07BF07BF07B4C
:1096D000CF73CF73CF73AF73AE73AE738E6B8E6B6E
:1096E0006E6B6D6B6D6B6D6B4D6B4D6B4D632D6369
:1096F0002D632C630C630C630C630C630C5BEC5AE2
:10970000EC5AEB5AEB5AEB5AEB5AEB5AAB52CB52A0
:10971000CB52CB52EB52CB52CB52EB5AEB5AEB5AC9
:10972000EB5AEC5AEB5A0C5B0C5B0C5B0C5B0C5B66
:109730000C5B2C632D632D634D634D634D634D6353
:109740006D6B6E6B8E6B8E6B8E6B8E6B8E6BAE736A
:10975000AE73AF73CF73CF73CF73CF73EF7BF07BE9
:10976000107C107C107C107C3184CF7BEF7B04213B
:109770008210A218E320C218C218C318C318A21876
:10978000C318A218A2188210E420E3200321E328C2
:109790002429242924294431896AB0BCD5DD36E640
:1097A00057EE98EED9F6DAF6FAF6FAF61BF73BFF23
:1097B0003BFF3BFF5CFF3CFF5CFF5CFF5CFF5CFF33
:1097C0005CFF5CFF5CFF5CFF3CFF1BF71AF7D9F600
:1097D000B9F6B9F678EE78EE78EE78EE57EE37E631
:1097E00036E6F5DDF5DDB4D553CDD1BCF2BC2B7B2F
:1097F000CA624952084A86312529A318C318042190
:10980000C318A210621061106108210841086108A4
:10981000410861106110A218C21824294429442962
:10982000518CD394D394107C9294928CF49CF39C9E
:10983000D394D394B394B394B394728C928C928C4B
:10984000728C928C728C728C718C71845184518464
:10985000318431841184107C107C107CF07BF07B8F
:10986000EF7BCF73CF73CF73AF73AE73AE738E7363
:109870008E736E6B6D6B6D6B4D6B4D6B4D6B2D63A6
:109880002D632D632C630C630C630C630C5BEC5A2F
:10989000EB5AEB5AEB5AEB5AEB5AEB5AAB52CB5210
:1098A000CB5ACB5ACB52CB52EB5AEB5AEB5AEB5A20
:1098B000EB5AEC5AEC5AEC5A0C5B0C5B0C5B2C63CD
:1098C0000C5B2C632D634D634D634D636D6B6D6B52
:1098D0006D6B6E6B8E6B8E6B8E6BAE73AE73AE7389
:1098E000AF73CF73CF73EF7BEF7BCF73F07BF07BE6
:1098F000F07B107C107C30843184F07B0B63E320A0
:10990000A218A2180321C318C318C320C318C32068
:10991000C320A218A218C320C3200321242904298C
:10992000042924294431C649EDA394D516E637EE1F
:1099300078EE99F6D9F6FAF6FAF61AF71BF73BFF26
:109940003BFF5CFF5CFF5CFF5CFF5CFF5CFF5CFF60
:109950007CFF7CFF7CFF3CFF3BFF3BFF1AF7FAF6E6
:10996000D9F6B9EE98EE98EE78EE78EE58EE57E626
:1099700036E616E6D5DDD5DDB5DDF2C470AC90ACCB
:109980004C7B48520742C73986316629E420821051
:1099900062106110611061086108610820004108CF
:1099A00040084108611081108210E3200421284AF8
:1099B00024293084359DD3941084D394928CF39CC5
:1099C000F394D394D394B394D394928CB394928C11
:1099D000928C928C928C728C728C518451843184D2
:1099E00031843184318431843084107C107CF07B6C
:1099F000F07BEF7BEF7BCF73CF73CF73AE738E7340
:109A00008E736E6B8E6B6E6B6D6B6D6B4D6B4D6B8A
:109A10004D632D632C632C630C630C5B0C63EC5A5D
:109A2000EC5AEB5AEC5AEC5AEB5AEB5AAB52CB527B
:109A3000CB5ACB5ACB5ACB5ACB5ACB5AEB5AEB5ABE
:109A4000EC5AEC5AEC5A0C5B0C5B0C5B0C630C6331
:109A50002C632C632C634D634D634D6B4D6B6D6BB1
:109A60006D6B6E6B8E6B8E6B8E738E73AF73CF73ED
:109A7000CF73CF73EF7BEF7BEF7BCF73F07B107CEB
:109A8000107C308431843184F07B10840842A21829
:109A9000C218A218C318A218C318C320E320E320D9
:109AA000A218A218E320C318032124290429042999
:109AB0002429E32865390A7BF1C4F6DD37E678EE20
:109AC00098F6B9F6F9F6FAF61BF71BF73BFF3BFFE2
:109AD0003BFF5CFF5CFF5CFF5CFF5CFF5CFF5CFFCF
:109AE0005CFF5CFF5CFF5CFF3BFF1BF7FAF6FAF6DE
:109AF000F9F6F9F698F698EE98EE78EE78EE58EEDC
:109B000037E616E6F5DDF5DD74D553CDB1B4AD938A
:109B10008C838962E7496531E320A21882106108CD
:109B2000610861086108610862104108410820006D
:109B300081104108410861106110A21804212429F4
:109B4000494A8639518C359D518C728CF39CD39443
:109B5000D394F49CF39CD394D394928CB394B39405
:109B6000928C928C728C728C728C728C728C718CC6
:109B70005184518431843084107C107C107C107CA2
:109B8000107CF07BEF7BEF7BCF73CF73AE73AF7343
:109B9000AE738E738E736E6B6E6B6D6B6D6B4D6B88
:109BA0004D6B2D632C630C630C630C630C630C5BBB
:109BB000EC5AEC5AEB5AEC5AEB5AEB5AAB52CB5AE2
:109BC000CB5ACB5ACB5ACB5AEB5AEB5AEB5AEB5AED
:109BD000EC5AEC5A0C5B0C5B0C5B0C5B0C632C635F
:109BE0002C632D634D634D634D634D6B6E6B6D6BDD
:109BF0008E6B8E6B8E6BAE73AE73AE73AF73CF73B3
:109C0000CF73EF7BEF7BF07BF07BEF7B107C107CE6
:109C1000107C318431845184F07B8E73A639A21874
:109C2000C218C318C320A218C318A218C318E3206F
:109C3000C218C218A218A21824290429E32804294A
:109C400003292429485A2EAC94DD16E657E698EEEF
:109C5000B9F6D9F6FAF6FAF61BF71BF71BF73BFF36
:109C60003BFF3BFF5CFF5CFF5CFF5CFF5CFF5CFF5E
:109C70005CFF5CFF5CFF5CFF3BFF3BFF1AF7FAF603
:109C8000FAF6F9F6B9F698EEB9F698EE58EE58EEFF
:109C900057E616E6F5DDD5DD94D573D532C52FA48C
:109CA0004C7BAA62E74985390429C318C318A31855
:109CB000A318A210A2106108611061084108610890
:109CC000610861086110611061108210C3180429D5
:109CD000E3208A520742CF7BD39C107C14A5149DAD
:109CE000149DB394F49CF39CD394928CB394B2944B
:109CF000B394B294B294928C928C728C928C728C3B
:109D0000718C51845184518431843184107C107C55
:109D1000107C107CF07BEF7BEF7BCF73CF73CF7326
:109D2000AF738E73AE738E736E6B6E6B6D6B6D6B8C
:109D30004D6B4D6B2D632C632C630C630C630C63B8
:109D40000C5BEC5AEC5AEC5AEB5AEC5ACB52CB5A0D
:109D5000CB5ACB5ACB5AEB5AEB5AEB5AEB5A0C5B19
:109D60000C5B0C5B0C5B0C5B0C5B0C5B2C632C636B
:109D70002C634D634D634D634D636E6B6E6B8E6BE9
:109D80008E6B8E6BAE73AE73AE73CF73CF73CF73B8
:109D9000CF73EF7BF07B107C107C107C107C1084E8
:109DA0001184318451847184F07BCB5A0421A21830
:109DB000C318C218E320A218C318A218E320A218DF
:109DC000C318E3208210A218042924290429042995
:109DD0000429C6416B9312C5F6DD57E678EE99F675
:109DE000B9F6FAF6FAF61AF71BF71BF71BF73BFF63
:109DF0003CFF3CFF5CFF5CFF5CFF5CFF5CFF5CFFCB
:109E00005CFF5CFF5CFF5CFF5CFF3BFF1BF71AF72E
:109E10001AF7FAF6F9F6D9EEB9EE78EE78EE78EEB2
:109E200058EE16E6F5DDD5DD94D573CD53CDB0B43F
:109E3000EE93EA6A895A853965310421C318821084
:109E40006210410861086210410841104108610830
:109E50006108611061106110A2188110A218C3205E
:109E6000C739C3184952C639CF7B718CB394F49C5F
:109E7000149D149DF39CD394928CF49CF39CF39CBE
:109E8000D394D394B394B294B294928C928C928CD7
:109E9000728C718C51845184518431843184107C52
:109EA000107C107C107C107CF07BEF7BEF7BCF7301
:109EB000AE73AE73AE738E738E736E6B6D6B6D6BB4
:109EC0004D6B4D6B4D6B2D632C630C630C630C63FE
:109ED0000C630C5BEC5AEC5AEB5AEC5ACB52CB525B
:109EE000CB5ACB5ACB5AEB5AEB5AEB5AEC5AEC5AA8
:109EF000EC5A0C5B0C5B0C5B2C632C632C632C63AB
:109F00002D634D634D634D636D6B6D6B8E6B8E7307
:109F10008E73AE6BAE73AE73AF73CF73CF73EF7BD5
:109F2000F07BF07B107C107C107C107C107C3184EA
:109F30003184518451845184CF7B0842A218C318C4
:109F4000A218A218C318A218A218A218C320A218F7
:109F5000C318821081100429042904290429E3204C
:109F60004531A96A0EAC73D516E657EE98EEB9F6F0
:109F7000D9F6FAF6FAF6FAF61BF71BF71BF73BFFD2
:109F80003BFF3CFF5CFF5CFF7CFF5CFF5CFF5CFF1A
:109F90005CFF7CFF5CFF5CFF3CFF3BFF1BF71BF79C
:109FA000FAF61AF7FAF6F9EEB9EE98EE78EE78EEE0
:109FB00058EE37E616E6F6DDB5DD94D573CD53CD14
:109FC000D1B46C8BCA6A074A4431C318621061105D
:109FD00062106108410841084108410841084108F0
:109FE00061106110811082108110A218C318032122
:109FF000E320C639A2182842284AEF7BCF7B35A53B
:10A00000159D928C728C718C518C728C718C5184D8
:10A0100051845184B294928C928C928C928C928CBA
:10A02000928C728C728C718C5184518451843184E5
:10A03000107C107C107C107CF07BEF7BEF7BAF738F
:10A04000AF73CF73AE738E738E738E6B6E6B6D6BDF
:10A050006D6B4D6B4D6B2D632D632D630C632C630A
:10A060000C630C630C5B0C63EC5AEC5ACB52CB5276
:10A07000CB5ACB5ACB5AEB5AEB5AEC5AEC5AEC5A15
:10A080000C5B0C5B0C5B0C5B2C632C632C632D63F7
:10A090004D634D634D636D6B6D6B8E6B8E6B8E730D
:10A0A0008E73AE73AE73CF73CF73CF73EF7BF07BD2
:10A0B000F07BF07B107C117C31843184107C318406
:10A0C00051845184318451844D6B6531A218C31879
:10A0D0008210C318A218C2188218C218C320C32045
:10A0E000A2188210C2180429E32804290321032995
:10A0F000C6416B83B1BCF5DD16E657EE98EEB9F6B6
:10A10000D9F6FAF6FAF61BF71BF73BFF1BF71BF71E
:10A110003BFF3CFF5CFF5CFF7CFF7CFF5CFF5CFF68
:10A120007CFF5CFF7CFF5CFF5CFF3BFF3BFF1BF7A2
:10A130001AF71AF7FAF6F9EED9EE98EE98EE78EEED
:10A1400058EE57EE16E6F6DDB5DD94D573CD32CD7B
:10A15000B1B42E9C89622852A639E320A210621065
:10A160006108610861106108410820086108410820
:10A1700061086110A218821082108210A218E320D8
:10A180006531A6390842C318084269520C632C6B2A
:10A19000928CF49CF49CD394F49CF39CF39CD39405
:10A1A000B394B3945184928C928C518431843184D1
:10A1B000728C728C728C728C728C5184518451842A
:10A1C000318430843084107C107CEF7BEF7BCF7344
:10A1D000CF73CF73AF73AE738E738E738E6B6E6BE4
:10A1E0006D6B6D6B4D6B4D6B2D632D632C632C6311
:10A1F0000C630C630C630C63EC5AEC5ACB5ACB5ACD
:10A20000CB5AEB5AEB5AEB5AEC5AEB5AEC5AEC5A43
:10A210000C5B0C5B0C5B2C5B2C632C632D634D6324
:10A220004D634D636D6B6D6B6E6B8E6B8E6B8E6B5A
:10A23000AE73AE73CF73CF73CF73EF7BEF7BF07BD7
:10A24000107C107C107C308431843184107C5184EB
:10A2500030843184728C928C284AC318C318A21897
:10A26000A218C318A218A218A218C218C218C2189D
:10A27000A218A218E320E32004290429C3202429DA
:10A28000A96A0E9C94D516E637E677EE98EED9EEDD
:10A29000F9F6FAF61AF71BF71BF73BFF1BF73BFF24
:10A2A0003BFF3CFF3CFF3CFF7CFF7CFF5CFF5CFF17
:10A2B0007CFF7CFF5CFF5CFF5CFF3BFF3BFF1BF711
:10A2C0001AF71AF7FAF6F9EED9EEB9EEB8EE78EE1B
:10A2D00058EE57E616E6F6DDD5DDB4D574D553CD88
:10A2E000D1BC6FAC4B83485285392429E320A2109E
:10A2F0008210611041084108410841084108610885
:10A300006110821082108210A218A218A218C3181D
:10A310002429E741C73907420321A6394C6B8E73C4
:10A32000B394D39CD394149DD394F39CD394149D51
:10A33000F49CF49CD394D394D394D394B394928CFC
:10A3400051843184107C3184728C728C718C518474
:10A35000518431843184107C107CF07BCF73F07B8E
:10A36000CF73CF73AF73AF738E738E738E736E6B49
:10A370006E6B6E6B6D6B4D6B4D6B4D632D632C6314
:10A380002C630C630C630C5BEC5AEC5ACB5ACB5A23
:10A39000CB5ACB5AEB5AEB5AEB5AEC5A0C5B0C5B90
:10A3A0000C5B0C5B0C5B2C632D632D634D634D6369
:10A3B0004D634D636D6B6D6B6E6B8E6B8E6BAE73A1
:10A3C000AE73AF73CF73CF73CF73EF7BF07B107C23
:10A3D000107C107C31843184318451843184318407
:10A3E000718C5184728C30848639A218C318C218BB
:10A3F000C218E320A218C218C218E320E320C21832
:10A400008218C3180321C320E3282429C320C6418E
:10A410004B8390B4B5DD16E637E698EEB8EED9F684
:10A42000FAF6FAF6FAF61BF73BFF3BFF3BFF3BFF62
:10A430003BFF3CFF5CFF3CFF7CFF7CFF5CFF5CFF65
:10A440007CFF7CFF5CFF5CFF5CFF3BFF3BFF3BFF57
:10A450001AF71AF7FAF6FAF6D9EEB9EEB8EE78EE80
:10A4600058EE57E616E6F6DDD5DDB4D594D553CDD6
:10A4700053CDB0BC4FA48962A6390421A21861084B
:10A480006108410861084108410821084108410864
:10A490004108621082108210A218A2188210C218FD
:10A4A000032165316952C73908422429A6396D6BE9
:10A4B0000B6314A555AD149D149DF49C149DF39C41
:10A4C000F49CF49CF49CB394D394D394D394B39419
:10A4D000B394B394928C718C518431843184718C97
:10A4E00051843184107C3184107CF07B107CF07BB3
:10A4F000CF73CF73CF73CF73AF73AE738E738E730F
:10A500008E6B6E6B6D6B4D6B4D6B4D6B2D632D6359
:10A510002C632C630C5B0C630C5B0C63CB5ACB5A27
:10A52000CB5AEB5AEB5AEC5AEB5A0C5B0C5B0C5BBC
:10A530000C5B0C5B2C632C632C632D634D634D63B0
:10A540004D634D636D638E6B8E738E6B8E6BAE73CE
:10A55000AF73CF73CF73CF73F07BF07B107C107C25
:10A56000107C30843184318451845184318451840D
:10A57000728C728C928CAE730429A2188210A2186D
:10A58000A218C218C218C218E320C218C218A21812
:10A59000A218C320C320E320042904290429A962A6
:10A5A000EE9B13C5B5D5F6DD37E678EEB8EED9F6F5
:10A5B000F9F6FAF61AF71BF73BFF3BFF3BFF3BFFB1
:10A5C0001BF73BFF3CFF5CFF5CFF5CFF7CFF7CFFFD
:10A5D0007CFF7CFF5CFF7CFF5CFF5CFF3BFF1BF7AD
:10A5E000FAF6FAF6FAF6DAEED9EEB9EEB8EE98EE39
:10A5F00057EE37E616DEF6DDD5DDD5DD94D594D5FC
:10A6000053CDF1BC4FACAD8B48522429A218821017
:10A61000610841080000200020004108410841086D
:10A6200041086108611082108210C2188210E32074
:10A63000C320E320453189526531284AE741E7418B
:10A64000EF7B4D6BB29435A5149D34A5F49CF49C1E
:10A65000149DF39CF49CD394F49CD394D394D394FE
:10A66000B394B394928C928C3184928C5184107CEC
:10A67000318451843184F07B107CF07BF07BEF7B64
:10A68000F07BF07BCF7BCF73CF73AE738E738E7303
:10A690008E6B6E6B6D6B6D6B4D6B4D6B4D634D6368
:10A6A0002C630C630C630C630C630C63CB5ACB5AA6
:10A6B000EB5AEB5AEB5AEB5AEC5A0C5B0C5B0C5B0B
:10A6C0000C630C632C632D634D634D634D634D63CD
:10A6D0004D6B6D6B6D6B8E6B8E6B8E6B8E6BAE730D
:10A6E000CF73CF73CF73F07BEF7BF07B107C107C4C
:10A6F00030843184518451845184718C51845184CB
:10A70000728C928CB28C8A5AE320C318A218A218B9
:10A71000A218C318E320A218C320E320A218A2188D
:10A72000C218E320C320C3202429E32065390A7B13
:10A730000E9C13C5B5D5F6DD37DE78EE99EED9F669
:10A74000D9F6FAF6FAF61AF71BF73CFF3BFF3BFF88
:10A750003BFF3BFF3CFF5CFF5CFF7CFF7CFF7CFF23
:10A760005CFF5CFF5CFF5CFF5CFF3CFF3BF71BF7A3
:10A77000FAF6FAF6DAEEB9EEB9EE98EEB9EE98EE30
:10A7800057E617E6F6DDF6DDD5DDD5DDB4D594D593
:10A7900053CD11C5D0BC4EA4C96AC641C2186108C8
:10A7A0004108410861086110410841082000410842
:10A7B0004108610862108210C318E320C318A21870
:10A7C000A21824290429A6390842AA52A63108420F
:10A7D000AA5A6E73CF7BD39C359DF49C149D149D17
:10A7E000D394F39CD394B394D394D394D394F39409
:10A7F000F394D394928C928CB294F07B107C107C66
:10A80000AF73CF7B107C5184318431843084107CD1
:10A81000107CF07BF07BCF73CF73CF73AE73AE73CE
:10A820008E738E736E6B6D6B6D6B4D6B4D6B2D639D
:10A830002C632D632C632C630C630C63CB5ACB5AB3
:10A84000EB5AEB5AEC5AEB5AEC5A0C5B0C5B0C5B78
:10A850000C632C632C632C634D634D634D636D6BF4
:10A860006D6B6E6B8E6B8E6B8E6BAE73AE73AF73E8
:10A87000CF73CF73EF7BF07BEF7B107C107C308449
:10A880003184518451845184718C718C5184728CC7
:10A89000728C928CD394A639C2188110C21882107F
:10A8A000E320A218C218C218E3208218C218A21806
:10A8B000E320A218C218C32003292429A641896ACB
:10A8C000CD93F2BCD5D5F6DD57E698EEB9EEB9EEEC
:10A8D000D9F6FAF6FAF61AF73BF73BFF3CFF3BFFD7
:10A8E0001BF73BFF3BFF5CFF5CFF7CFF7CFF7CFFBB
:10A8F0005CFF5CFF5CFF5CFF5CFF3CFF3BFFFBF62B
:10A90000FAF6DAEEB9EE58DE38DEB5D5D5D598EEE2
:10A9100078EE16DED5DDB5D5B5D5B5D5B4D594D59B
:10A9200073CD12C5D0BC4FAC6C83E749242982108B
:10A930004108410820004108410841082008210839
:10A940006108621082106210A218C318E320A218D6
:10A95000E320E32045310329284AC739494AC7394A
:10A9600069522D6B2C6B2C6BB29476AD55A5159D51
:10A97000149D149D149DD394F49CF49CD39CB39487
:10A98000728C51843184107CF07B31845184718CC1
:10A99000728C318451847184518431843084107C70
:10A9A000107CF07BF07BEF7BEF73CF73AF73AE73F4
:10A9B0008E738E736E6B6E6B6E6B6D6B2D634D63F2
:10A9C0004D632D632C630C630C630C63EB5ACB5A01
:10A9D000EB5AEB5AEB5AEC5A0C5B0C5B0C5B0C5BC6
:10A9E0002C632C632C632D634D634D634D636D6B42
:10A9F0006D6B8E6B8E6B8E6B8E6BAE73AF73CF7316
:10AA0000CF73EF7BF07BF07B107C107C3084318443
:10AA1000518451845184718C728C5184928C928CAB
:10AA2000518451841084E320E3206110C318A218DC
:10AA3000C318C318C218C320A218E320A218C21852
:10AA4000E320A218C3200429E320E320443907525D
:10AA50000B7B8D8B8D932FAC12CD73CD16E677EEDD
:10AA6000B8EEDAF6D9F6FAF61BF71BF73CFF3BFF18
:10AA70003BFF3BFF3CFF3CFF5CFF5CFF7CFF7CFF40
:10AA80005CFF3BF73CFF3CFF5CFF5BF71BF799EE7D
:10AA900078E658E6B6D554C5F2BC91B4B1BC70B4F2
:10AAA00033CDD5DDB5D595D595D594D5B4D594D53B
:10AAB00053CD32C5D1BC6FACAC8B685A2429C318B6
:10AAC0006110410841082000210841086110410837
:10AAD000610861086110621082108210C31804219D
:10AAE0000421E32004294529242986310742C73956
:10AAF000494ACF7B4D6BEF7B2C638E73EF7BD39CEE
:10AB0000F49CF49CD39CB394B394518C30843084E3
:10AB1000518C9294B28C928CD394B394928C728C0C
:10AB2000728C728C5184318451845184318430848C
:10AB3000107C107C107CEF7BEF7BCF73CF73AF73F7
:10AB4000AF738E738E738E6B6E6B2D634D6B4D6B0F
:10AB50004D634D632C632C630C630C63CB5AEB5A2F
:10AB6000EB5AEC5AEC5AEC5A0C5B0C5B0C5B0C5B32
:10AB70002C632C632D634D634D634D636D6B6D6B67
:10AB80006E6B8E6B8E6B8E6B8E6BAF73CF73CF7362
:10AB9000EF7BF07BF07B107C107C3084318451841F
:10ABA000518451847184728C728C718C928C928CD1
:10ABB000928CD3946D6BE320A218A218C218E318EC
:10ABC000C318E320C218E320A218C318A218E32078
:10ABD000A218C218A220E320E320C3206539275A17
:10ABE0006962EA722B834B8B6B93CDA32EB490C416
:10ABF000F2CCD5DD37E6B9F61AF71AF73BFF3BFF83
:10AC00001BF71BF73BFF3BFF3BFF3BFF5CFF3BFFA3
:10AC10001BF7FBF699EEB9EE78EE17E653CDB1C40B
:10AC200091BCCD9B2FA40E9C0FA4EE9B6C8B0FA40C
:10AC30008D9B4B932FA433CD94D5B5D5B4D594D556
:10AC400053CD32C5F1BC8FB4CD93A9628539A2181A
:10AC50006210210800004108200821082000210876
:10AC600041086108821082108210A218E320C318E4
:10AC7000E3200421E3202429042145296531A63954
:10AC8000CB5AAA5A30846E73928C929434A5108455
:10AC9000108430849294718C928CD394F49CF394AD
:10ACA000F394928CD394D394D394B394728CB2943F
:10ACB000728C928C928C5184318451845184318471
:10ACC0003084107C107C107CF07BEF7BCF7BCF73CB
:10ACD000AF73AE738E738E6B4D6B6E6B6D6B4D6B16
:10ACE0004D6B2D632D632C632C632C63CB5ACB5A95
:10ACF000EB5AEB5AEC5AEC5A0C630C630C5B2C636A
:10AD00002C632C634D634D634D636D6B6D6B6D6B8D
:10AD10008E6B8E6B8E6B8E6BAF73CF73CF73CF7367
:10AD2000F07BF07B107C107C107C3184318451846A
:10AD300051845184728C728C928C728C928C928C15
:10AD4000B294149D284AC3186110A218C218C318DF
:10AD5000A218E320A218C318C320A218A218C21870
:10AD60008218C218A220E328E32803298539285A2B
:10AD700069628962A96AA972A96AAA6AEA7AEB7AFF
:10AD8000CD9BD1BC32CDD5DDB9F6FAF61BF71BF75A
:10AD90001BF71BF71BF71BF71BF71BF73BF71BF703
:10ADA00078E658E6F6DD74CD12C50FA44C8B6C8B9B
:10ADB000EA7A0B730B73AD938D8BCD93CE9B8D93F2
:10ADC0008D930A7B89722B8BB0BC95D594D594D585
:10ADD00094D552CDF1BCB0B40D9C2A738539E318DB
:10ADE00082102108200800002108200021082008E6
:10ADF00041088210821082108210C218A218C31853
:10AE0000A218032124292429442904212429453175
:10AE100004218E73AE738E731084B2949294149D39
:10AE2000F394D394928C9294F49C14A5D394D394D9
:10AE3000D394D394B294B294928C728C928C728C80
:10AE4000728C728C728C728C5184318451843184F6
:10AE500031843084107C107C107CEF7BCF7BCF73EF
:10AE6000CF73AE738E736E6B8E736E6B6E6B6D6B1A
:10AE70004D6B4D6B4D632C632C632C63CB5AEB5A9B
:10AE8000EC5AEC5AEC5AEC5A0C5B0C630C632C63D6
:10AE90002C634D634D634D636D6B6D6B6D6B6E6BB2
:10AEA0008E6B8E6B8E6BAE73AF73AF73CF73EF7BA6
:10AEB000F07B107C107C107C11843184518451848F
:10AEC0005184718C728C728C928C728C9294B3942B
:10AED000D394D39C4429A210A2188210C320C3206B
:10AEE000A218E320C218C218C2188218E320A218C0
:10AEF000C218A218A220E320E3280852EA72EA7AD4
:10AF0000CA72EA728962495A695A2852485AA97221
:10AF10008C8B4FAC90B474D516E6D9F6FAF61BF7C5
:10AF20001BFFFAF6FAF61BFFFAF61AF7DAF698E6BE
:10AF300017DE94D574CD33CD91B46C8B6C8B4C8370
:10AF4000EA72CA720B7B6C8B0EA4CE9BEE9B2FAC6D
:10AF50000EAC0EA44C8B4C8B4B934FB474D594CD4C
:10AF600074CD73CD12C5B0B42EA48C83E641C31842
:10AF7000A2104108200021082000410841082008B3
:10AF800021088210A210A218A2188210A218A218DA
:10AF9000C318C3184429032165316531C6392429F2
:10AFA000042989526D6B518CF07BAF73F39C149D17
:10AFB00076AD149DD394D394728C928CD394F39CDD
:10AFC000D394B394928CF49CD394B394728C928C5B
:10AFD000928C928C928C728C718C318451843184DD
:10AFE00030843184F07B107C107CF07BCF7BCF737E
:10AFF000CF73AE738E738E738E738E736E6B6D6B39
:10B000004D6B4D6B4D6B2D632D632D63EB5AEB5ADE
:10B01000EB5AEC5A0C5B0C630C630C632C632D63D2
:10B020002C634D634D634D636D6B6D6B6D6B8E6B00
:10B030008E6B8E6BAE73AF73CF73CF73EF73F07B8A
:10B04000F07B107C107C31843184318451845184B4
:10B05000728C728C728C928C928C928CB394D394EE
:10B06000F494F07BC220C318A218A218C318C320FE
:10B07000A218E320C218A218C2188110E320A21857
:10B08000A218A218A218A218A5410EA453C5B4D59F
:10B09000B5D553CDD1B46FAC8D8B4B8B6C8BEA7A1D
:10B0A000EA7A6B8B4FB46FBC54D578EED9F61AF7A9
:10B0B000FAF6FAF6FAF6FAF6FAF6FAF6D9EE16E62D
:10B0C000B4D553CD32CDB0BCCDA32B8B8C93AD93E7
:10B0D000CD9B50AC75CD17D617DE79E678E617DE36
:10B0E00016DED5D5F6DDB5D574CDD1BCB0BC53CD0B
:10B0F00073CD53CD32C5B1B44FACAD8B4852E320C4
:10B10000A210610821084108210841086108821045
:10B110006210A21882108210A218A2188210C218FF
:10B12000C3180421E3200429A6396531A639E74173
:10B1300044294529C639AA5A8E73518CAE73928C14
:10B14000F39435A535A575AD35A5149D35A5F39CAE
:10B15000D394F49CB394D394928C928C928CD39489
:10B16000B3949294928C928C728C728C5184518490
:10B170005184107C3084107C107CF07BF07BCF738A
:10B18000AF73AF73AF73AE738E738E736E6B6E6B84
:10B190006D6B6D6B4D6B4D6B2D632D63EB5AEC5AE4
:10B1A000EC5A0C5B0C5B0C630C632C632C632D63FF
:10B1B0004D634D634D636D6B6D6B6E6B6E6B8E6B24
:10B1C0008E6BAE73AE73AF73CF73CF73F07BF07BC8
:10B1D000F07B107C10843184518451845184728CB2
:10B1E000728C728C928C928CB294928CD394D394F5
:10B1F000349D8A5AE320E3206110C318C318E3206A
:10B20000A218C218C3208218C2188218E328A218F4
:10B21000C218A218A218E320285AB1BC73CDD5D504
:10B2200016DE16E6F6DDF6DD94DD32CD11C54FB43F
:10B230000EAC0DA44EAC8FB432CD16E698EED9F616
:10B24000FAF6FAF6DAF6FAF6FAF6FAF6DAF6D5DDFC
:10B2500053D532CDD0C44FB44EACB0BCB1B453CD45
:10B26000D5DD37E6BAF61BF7FAEEFAEEDAEEDAF6E5
:10B27000D9EE98EE57E637E6D5DDB5D574CD53CD8A
:10B2800073CD73CD33CDD1BC6FACCD936852042157
:10B290008210821020082000200820084108410860
:10B2A00020086110A2188210C318A2188210C218B8
:10B2B000C318C3182429C3204529C739E741284AA0
:10B2C000C7390421284AEB620742CA5AAE73308458
:10B2D000D39CB39435A5149D34A5F49CD394149DAC
:10B2E000F49CD39435A5728CD394D394D394B39413
:10B2F000B394928CB394928C928C928C718C518476
:10B30000318451843084107C3084107CF07BCF7B7E
:10B31000CF73CF7BCF73AF73AE738E738E738E6B21
:10B320006E6B6D6B4D6B4D6B4D634D63EB5AEB5A12
:10B33000EC5AEC5A0C630C5B0C632C632C634D636E
:10B340004D634D634D636D6B6E6B6E6B8E6B8E6B71
:10B350008E6BAF73AF73CF73CF73EF73F07BF07BF4
:10B36000107C107C3084318451845184718C728CB7
:10B37000728C728C728C928CB394B28CD394F49C39
:10B3800092940329C318A2188210C318C320C320A3
:10B39000C320C218A218E320A218C320C220A218FA
:10B3A000A2188110C320E320EA72D0BC73D5B5DDAA
:10B3B000D5DD15E616E616E636E615E6D5DD93D5B7
:10B3C00073D511CDF1CC11CD72D5B4DD37E678EE61
:10B3D00099F6D9F6D9F6FAF6F9F6D9F699EE16E60F
:10B3E00073D552D5F1CC31D552D593DDD5DD36E6C6
:10B3F00078EE98EEB9EE98EEB9EE99EEB9EE98EED9
:10B4000078EE58E637E616E6F6DDB5D594D574CD78
:10B4100094D573CD53CDF1BC90B40E9C48522429E1
:10B42000A210410841080000200020004108410806
:10B4300041084108C3188210C318C318E320A2189A
:10B44000C318A2184529E3206531284A0842EB5A5F
:10B450008A52A639042108426952E741074A6952D3
:10B460004D6B9294929414A535A555A5F39CD39455
:10B4700055A5149D5184F39C149DF49CF49CD39485
:10B48000D394D394B294928C928C728C718C718C74
:10B49000518451843184107C3184F07BF07B107CAA
:10B4A000F07BCF73CF7BCF73AF73AF738E736E6B45
:10B4B0008E6B6D6B6D6B4D6B4D6B4D6BEB5AEB5A31
:10B4C000EC5AEC5A0C630C5B2C630C632D634D63DC
:10B4D0004D636D6B6D6B6D6B6E6B8E6B8E6B8E6B70
:10B4E000AE73AF73AF73CF73CF73F07BF07B107C11
:10B4F000107C3084318451845184718C728C928C94
:10B50000928C928C5184B394D394B394D39435A5F4
:10B51000CB5AE320E420A2188210C3200421A318F0
:10B52000C218E320C218C218A218E328A218C21831
:10B53000A218A218C320E3202B83D0BC73CDB3D5AF
:10B54000D5DD35E657EE78EEB9EE98EE78EE16E6F4
:10B55000B4DD93D532D511CD31CD73D5B4DD37E619
:10B5600078EEB9F6D9F6F9F6F9F6B9EE57EEF5E553
:10B57000B4DD73D552D552D5B4DDD5DD37E698EEBE
:10B5800098EEB9F6B9EE99EE78EE78EE78EE57EEE1
:10B5900078EE37E657EE16E6D5DDD5DDB5D594D590
:10B5A00094D593D552CD11C5D0BC0EA4685A252987
:10B5B000C31841082000200021082000200841086D
:10B5C00061104108C318A2188210E320C318E320B9
:10B5D000A218A218032144294529A6398A52CB5A18
:10B5E000AF73CB5AE3208A5A8F7308426952E741FE
:10B5F000284AEB623084718CB294149D149DB294ED
:10B60000D394D39435A5F39C149D149DF49CF49C81
:10B61000F39CD394B294928C728C728C728C928CB8
:10B62000728C718C5184107C107C107C107C107C8E
:10B63000107CCF7BCF7BCF73CF73AF738E738E6B4A
:10B640006E6B8E6B6D6B6D6B4D6B4D6BEB5AEC5A7D
:10B650000C5B0C5B0C632C5B2C632C634D634D63A8
:10B660004D634D636D6B6E6B6E6B8E6B8E6BAE73DD
:10B67000AF73AF73CF73CF73EF7BF07B107C107C15
:10B68000107C318451845184518C728C728C928CD8
:10B69000928CB294928C928CB294D394F49C718CD0
:10B6A0008A52E320E320A2188218C320E320C318A3
:10B6B000C320E320A218E320A218C320C220A218AE
:10B6C0008218C218A220E3282B83B0BCB0BC11CDD5
:10B6D000D1C40EACEDAB8FBCF1C416E6FAF6DAF6C7
:10B6E00098EEF5E5B4DD53D552CD52D5B4DD16E66E
:10B6F00057EE99EEB9F6D9F6D9F698EE37E6D5DDDC
:10B7000093DD93D593DDD5DD36E657EE78EEB9EED1
:10B71000B9EED9F678EED5DD94D5D4DDD5DD36EEAB
:10B7200016E636E616E6D5DDD5DDB4DDB4D594D51E
:10B7300094D593D552CD32C5D0BC4FA428522529DB
:10B74000C3186110200000002108210821084108C9
:10B7500061086108A218C318A21881100421C31837
:10B76000E320A218A2188631242986316952494A59
:10B770002C638E73E8390429CE7B728C494A8E7310
:10B78000CB5AAA5A69528E73CF7B3184F39CF49CB6
:10B79000B394149D149DD394F49CF49CD394D394AB
:10B7A000D394B394D394D394B394B294928C718C75
:10B7B000728C728C3184F07B51843184107C1084C3
:10B7C000107CCF7BEF7BEF73CF73CF73AE738E7331
:10B7D0008E738E736E6B6D6B6D6B4D6BEC5AEC5A9A
:10B7E0000C5B0C630C632C632C632D634D634D6306
:10B7F0004D634D636E6B8E6B8E6B8E6B8E6BAF730A
:10B80000AF73AF73CF73EF73F07BF07B107C107C62
:10B810003084318451845184728C728C728C928CFD
:10B82000B294B394B394B294B394928CF39C6D732A
:10B83000E7410429C32082108210E320E320C320C3
:10B84000C320C320C220C320A218E320C220A21814
:10B850008218C220811803292B830DA4EA82A549EE
:10B86000E65985498549476ACA7A6B8BCDA332CDA3
:10B87000B8F698EE17E6D5DD93D552D593D5F5DD1C
:10B8800057EE78EEB9F6B9F6D9F6B9F657EED5DD3A
:10B89000B4DDD4DDF6E537E657E657EE57EE73D55F
:10B8A0004FBC8C9BC97A6772A551476A0A8BACA3BF
:10B8B000F1CC53D5B4DDB4DD94D573D574D594D51E
:10B8C00094D593D573CD32C5D0BC4FA448524529E9
:10B8D000C3206210200000002008410861084108D0
:10B8E00061106210A218C318A218A218C318C318B6
:10B8F000C218E320A218863185318531284A4D6B64
:10B9000010840C63AA5A0421863996B5928C2C6B4C
:10B910002C6B2C6B8A528A5A718C107C3084F49C6C
:10B92000B394149D34A5149DF49C149D149D149DF2
:10B93000D394F49CD394D394B394B394928C928C78
:10B9400051843084728C30845184518431841084C9
:10B950001084F07BF07BF07BCF7BCF7BAF73AE733B
:10B960008E738E738E6B6E6B6D6B6D6BEC5A0C5BA6
:10B970000C630C630C630C632D634D634D634D636B
:10B980006D6B6D6B6E6B6E6B8E6B8E6BAF73AF731F
:10B99000AF73CF73CF7BF07BF07BF07B107C118497
:10B9A000318451845184718C728C728C928C928C03
:10B9B000B294B394D394D394D394F394CF7BEF7B8A
:10B9C00065310421C218A218C318E3200321E32023
:10B9D000E320E320E320A218A218C318C318C2185A
:10B9E000A218A220A2182431A972C97AA6514439FA
:10B9F00081106210E841653161104110C320C972A5
:10BA0000EDAB16E658EE16E6D5DD73D573D5D4DD6D
:10BA100037EE98EED9F6FAF6D9F698EE57EEF6E547
:10BA2000B5DDD5DD17E617E616E615E64EBC8872DD
:10BA30004431242924290321E320A2180331E651AB
:10BA4000476A2A936FC4F1CC32CD32CD93D5B4D5A9
:10BA5000B4DDB4D593D552CDF1BC6FAC084A0429FE
:10BA6000C3188210410800002000610862104108DC
:10BA700082108210A218C318C318C318A218E3209A
:10BA8000C318C320E32086316531A63944292C63CD
:10BA90008E73D3944D6B08422429AA5A75AD318414
:10BAA000528C2D63518C0C630742718C9294518C93
:10BAB000F39CF49CF49CB394149D34A5149DF39CC6
:10BAC000149DF49CF49CF39CD394928C928C728C75
:10BAD000928C928C51843084518C51843184318485
:10BAE000307CF07BF07BF07BEF73CF73AF73AE7382
:10BAF000AE738E738E6B8E6B6E6B6D6BEC5AEC5AF5
:10BB00000C630C632C632C632D634D634D634D6399
:10BB10006D6B6D6B6E6B8E6B8E6BAF73AF73AF7344
:10BB2000CF73CF73EF7BF07B107C107C107C318463
:10BB300031845184718C718C728C928C928CB39400
:10BB4000B394B394D394D394F49CD39430848E73ED
:10BB5000A639E320A2188210C31804210321C218B9
:10BB6000C320E320E3208210C320E320E320C2208F
:10BB70008118A220C22085416862A6490329A31822
:10BB8000A649D2A49ADE24314010B073ED5A2008A1
:10BB90004439EDA3D5DDF6DD17E6B5D573D5B4DDB3
:10BBA00057E6B9EEFAF61AF7FAF6B9EE57EE15E6D9
:10BBB000F6E516E616E616E6D5E5CDA34762294A70
:10BBC0000429A218179DE8418118084A6A52A21850
:10BBD000E328E659EA82ACA32EB4F1C493D5D5DDAF
:10BBE000F5DDD4DDB4D553CDF1C44FAC2852E420FB
:10BBF000A31882104108000020008210A2106110DA
:10BC00008210A318A218C318E320A218C318E318BF
:10BC1000E320C318C3180421863186314429AA5A67
:10BC20008E7396B5AE732C63A639C639AE73308465
:10BC3000AE7335A50B63308C1084284A518C9294D6
:10BC400092943184D39CF49C928CB294D39C149D96
:10BC5000F49CD394B394B394B394B394B394B39443
:10BC6000928C928C718C5184518451845184318492
:10BC7000107C107C107CF07BF07BCF7BCF7BAF7394
:10BC8000AE738E738E738E6B6E6B6E6B0C5B0C5B18
:10BC90000C630C632C632C632D634D634D636D6BE0
:10BCA0006D6B6D6B8E6B8E6B8E6BAF73AF73CF7373
:10BCB000CF73CF73F07BF07B107C107C30843184A9
:10BCC00051845184728C728C928C928CB294B39405
:10BCD000D394D394D394F49C149D3184728CCA5A17
:10BCE000C7392429A218C218C21804290321E32045
:10BCF000C320C320E320A218E320C320C320A22036
:10BD0000A218A220C220285A896AE6514431E75974
:10BD1000EF9B79D658CEC220A228E41804218118BE
:10BD2000C741EF836FAC16E617E616E6B4DDD4DD47
:10BD300057E6B9EE1AF73BFF1AF7D9F678EE57EE49
:10BD400057E637E6F6E5D5DDB0C448624D7339C62F
:10BD5000C2208118E939C320C220A641DBDE309C15
:10BD6000896A8549C64989728CA311CDB5DD16E66D
:10BD7000F5DDD4DDD4DD53CDF1C44FAC2852A3188A
:10BD8000C32004214108210820008210C31882101A
:10BD9000A318C318C318C318C318C318A218E320E4
:10BDA000E320E320A218E320A639084265310842C7
:10BDB000F07BD39CD39C6D73AB5A484A0C63B2940E
:10BDC000AE73B294F49C8A52CF7BCF7B4952F07B06
:10BDD000728CF49CD39CD39CF49CF49CD39CD39401
:10BDE000149D149D149DF49CF39CD394B394B3942C
:10BDF000B294928C718C5184728C51845184107CD9
:10BE000030843084107C107CF07BEF7BCF7BCF7B49
:10BE1000AE73AE738E738E736E6B6E6BEC5A0C6377
:10BE20000C5B2C632D632C634D634D634D636D6B15
:10BE30006D6B6E6B8E6B8E6BAF73AF73CF73CF7397
:10BE4000CF73EF7BF07B107C107C318431843184A4
:10BE50005184718C728C928C928CB294B394B39402
:10BE6000D394D394F49C149D728CB394928C4852C6
:10BE70008631E320A2180421C3202429E320E320F3
:10BE8000E320C320E320A318E320E328C220C3203B
:10BE9000A218C220C220C9728C934B8BC659644928
:10BEA000EA8AF7D53CEF8539A220CB620C6B4018AB
:10BEB000AF7BDADE2C83B4DD98EE78EEF5DDF4DDD1
:10BEC00036E6B9EE1BF75BFF3BFFFAF6B9F698EEE4
:10BED00078EE78EE16E6D4DD0A8B4C9338CE3CDF54
:10BEE000E3288120F59C4431C228294A3DE72FB43C
:10BEF0008882EA824B8BEDABD1C493D515E615E66B
:10BF000015E6D5DDD4DD73D5F1C40EA42752A218F1
:10BF1000E32044296108410821086210A318C318CE
:10BF2000C318C318C318E320C318C318E320C318E9
:10BF3000C318E320E320A2186531284A242986315A
:10BF40002C63518C9294107C2C63E7390C6BB29467
:10BF5000929414A5D39CF49CCA5A8E7B8E73EB6288
:10BF60007294918CD39CF49C149D55A5F49C35A59A
:10BF7000D394149D149DF49CF49CF39CD394D3947B
:10BF8000B294718C928C728C728C728C107C318415
:10BF900051843184107C107C107CF07BF07BCF735B
:10BFA000CF73AF73AE738E736E6B8E730C5B0C635B
:10BFB0002C632C632D634D634D634D636D6B6D6B13
:10BFC0006E6B8E6B8E6BAE73AF73AF73CF73CF73BD
:10BFD000EF7BF07B107C107C308431843184518481
:10BFE0005184728C928C928C928CB394B394D3942F
:10BFF000D394F49CF49CD394D394518CD394C639A9
:10C000004529E320A218C320E3200429E3202429A2
:10C01000E328C320A218A218E320E320E320C320D2
:10C02000A218C320E2200A7BEDA3CDA3887AC661C3
:10C03000276A0A9375C5D7BDE32861186118E749D7
:10C0400058D674CDC98AE98A3BFFD9EE36E615E6A3
:10C0500056E6B9EE3BF77CFF5BFFFAF6B9F6B9F6A8
:10C06000B9F698EE57EE2EB4ADAB6CB3F6CD3CE717
:10C0700072946118E228C1208118B2A490BC0A937E
:10C08000E98A4B9BB0CC73DD16DE37E616E636E662
:10C0900015E6F5DDD4DD73D5D1BC2FACE749C31867
:10C0A000A21861108110610820086210C318A21044
:10C0B000C318C318C318C318C218C318A218042180
:10C0C0000421E318C318C3186531E741A63945298F
:10C0D000EB62AF73F39CD39C4D6B86394D6B308C08
:10C0E000728C728C55A5F7B5149DAA5A6D73EB62CC
:10C0F000AE7B0F7C35A5928CF49C149D55A5F49CC9
:10C1000034A5D394149D149DF49CF49CD394928CE8
:10C11000928CB394728C928C728C51845184318441
:10C1200031843184107C107C107CF07BF07BCF73E9
:10C13000CF73AF73AF738E738E738E730C5B0C5BA8
:10C140002C632C632C632D634D6B6D6B6D6B6D6B72
:10C150006E6B8E6B8E6BAE73AF73AF73CF73EF7B03
:10C16000F07BF07B107C107C3084318451845184CE
:10C17000728C728C928C928C9394B394D394D3944B
:10C18000F49CF49C149DB294F49C5184718CC7412E
:10C1900045290421A218C318C3202429E320E32041
:10C1A000E328C218A218C21803290429E328C320CF
:10C1B000C220A22023292B832EAC6FB4EDAB887A4A
:10C1C000A982CA8A6CA30EAC2FACCE9350AC13C517
:10C1D00090BC90BCF3C470AC57EEFAF657EE36E65E
:10C1E00037E6B9EE3BFF7CFF5CFFFAF6D9F6D9F6ED
:10C1F000F9F6B9EE77F6ACA3CDB3ADAB8CA3D1C451
:10C2000053C54C836A62EB728D93F1CCEDB34B9BBB
:10C210006BA390C473D5D5DD37E637E636E636E650
:10C2200016E6F5DDB4DD73D5D0BCCD9BC6416531D6
:10C23000411061182008410841086110C318C31853
:10C24000A318C318C318C318E320E320E320C218BF
:10C250002429C318C320A2182429484A0842442983
:10C260002C6BEB62518C14A58E7308420C636E6BC1
:10C27000D394F39C929435A5B7B535A5CB5AEB6210
:10C280000C634D6B518C55ADB394F49C149D349D4F
:10C29000F49C149DF49C149DF39CD394B294D39479
:10C2A000D394928C728C728C728C928C728C51841E
:10C2B000518431843184107C107C107CF07BF07BC5
:10C2C000CF73CF7BAF73AF738E738E730C630C63BE
:10C2D0002C632C634D634D6B4D6B6D6B6D6B6E6B97
:10C2E0008E6B8E6BAE73AF73AF73CF73CF73EF7B09
:10C2F000F07B107C107C107C3184518451845184FB
:10C30000728C728C928CB294B394B394D394D39471
:10C31000F49C149D928C35A5D394518C10840842C2
:10C320006531A218C318A2180321E320C218E32024
:10C33000C320A218A218C21803292429E328C22066
:10C34000C220A22044314B8B8FB4B0BCB0BC2EB401
:10C350008BA3ACABACABEEB3D2CCB1C495D574D59A
:10C3600053D573D517E637E677EED9F677EE36E68E
:10C3700036E6D9F65BFF9DFF5CFF1AF7F9F6F9F692
:10C38000F9EEFAF677EE15E694DDF2CC12CD33CD68
:10C3900074DD33D5B5DDF6E533D54FBC70C490C43C
:10C3A000F1CCB4DD16E636E637E637E657E636E694
:10C3B00036E6F5E5B4DD53CDB0BCAD93E641A5411D
:10C3C0002429A5414431410862104108C318A3182B
:10C3D000C318C318E320C318A218C218C318C21880
:10C3E000E320E320C318C320C32085316A52CB5A0F
:10C3F000E7394D6BAE7B149D518C4D6B08426E73CB
:10C40000F49C14A555A5149DB6AD18B697ADCB5A9E
:10C41000AA5A4D6B1084728C35A5B394B394B3941F
:10C42000D49CD394B294928CD39CD394D394928C76
:10C43000928C928CB394B394928C928C728C728CFA
:10C440005184518431843084107C107CF07BF07BEB
:10C45000CF7BCF73AF73AF73AE738E730C630C630C
:10C460002C634D634D636D636D636D6B6D6B6E6BB4
:10C470008E6B8E6BAE73AF73AF73CF73CF73F07B76
:10C48000F07B107C107C3184318451845184728C17
:10C49000928C928CB294B294B394D394F394F49C0F
:10C4A000149DD394F49C35A5D394728C8E73E7417C
:10C4B000A631C320A218C318E320E320E320032100
:10C4C000C320C220C218A21804290329E328C320CC
:10C4D000A218A22044398C93B0BC11CD11CD12CD3D
:10C4E000D1C4F1CCD1CCB1CC32D574D554D554D53E
:10C4F00053D5B4DD37E678EEB9F6B9F697EE36E601
:10C5000057E6B9EE3BFF9DFF5CFFFAF6F9F6F9F648
:10C510001AF71BF7D9F6D9EE16DE33D5D1CC33D5C1
:10C5200074D574D5D5DDD5DD53D553D553D5B4DD0C
:10C53000F5E536E637E657E657EE57EE36EE37EED8
:10C5400036E6F6E594DD53CD90B44B83A641233116
:10C550004B7BA5416539610882104108A210A210E9
:10C56000C318C318E320E320A218C318C318E318A4
:10C57000C318E320A318C320C3202429E7396E6B16
:10C5800004291084EB62B294F39C2D6B494A6D73BD
:10C59000518CD39CB7B555AD149D76ADB7B596B556
:10C5A0008A52CF7BCB5A9194149DF49CB39414A5DA
:10C5B00035A5149DD394D39CD39CD394B394D39496
:10C5C000F39CD394B394B394928C928C728C728CAF
:10C5D000728C5184518431843084107C107CF07BC7
:10C5E000F07BCF7BCF7BCF73AF73AE730C632C63C9
:10C5F0002C632D634D634D634D6B6E6B6E6B8E6B59
:10C600008E6BAE73AE73AF73CF73CF73EF7BF07B74
:10C61000107C107C31843184518451845184728C1B
:10C62000728C928C928CB394D394D394D394F49CC4
:10C63000F49CB39435A5149D149DB394CB5A24292E
:10C640008531E320A218A218E320E3200429E32087
:10C65000E320C218A218A21824290429E320E32801
:10C66000A218A2202439CD9BF1C452CD73D594D504
:10C6700094DDB4DDD4DDD4DDD5DDF5E5D5DDD6DD65
:10C6800017EE57E678EE78EEB9F6B9F677EE56E69D
:10C6900057E6B9F65BFF7CFF5CFF1AF71AF7FAF66C
:10C6A0001AF71BF71AF7D9F678EE37E637E6F6DD14
:10C6B00016E616E637E637EE57EE36E657EE56EE56
:10C6C00036EE57EE57EE57EE78EE57EE57EE37EE62
:10C6D00016E6F5E5B4D532C54FACEA7285412B7B41
:10C6E0000A73C64985396108C318A2108210A210C6
:10C6F000C318C318C318C318C318E320C320C3202A
:10C70000E320E320E320C318C218032185312C6BFA
:10C71000A631CF7BAA52729492946E6BAA5ACB5ACE
:10C72000CF7BB7B596B596AD76AD35A576AD35A5CB
:10C73000B394284A2C6B8E7355AD149D35A514A562
:10C74000349D75AD149D149D149D149D149DF39CF2
:10C75000D394D394D394B394B294928C928C928CBD
:10C76000728C5184518431841184107C107CF07B54
:10C77000F07BF07BEF7BCF73AF73AE730C632C63F6
:10C780002D634D634D634D636E6B6E6B6E6B8E6B85
:10C790008E6BAF73AF73AF73CF73EF7BF07BF07BB8
:10C7A000107C30843184518451845184728C728C19
:10C7B000928C928CB394B394D394D394F49C149DA0
:10C7C000D394F49C35A5149DF49C728CCA5AC7412D
:10C7D0008531E320A218C320E3200329C320E320EE
:10C7E000E320C220A218C21824292429E320E32030
:10C7F000C220A2202431EEA3F1C473D5B4DDF5DD4F
:10C80000F5E516E657EE57EE57E657EE58EE57EEBB
:10C8100078EE98EE98EEB9F6B9F6B9F677EE56E6F8
:10C8200037E6B9F63BFF7CFF5BFF1AF7F9F6F9F63E
:10C830001AF73BF73BFF1AFFD9F6B9EE98EE98EEE0
:10C8400099EEB9F6D9F6D9F6B9F698F698EE78EEEB
:10C8500057EE57EE57EE78EE78EE78EE57EE37EE6D
:10C8600016E6F5E5B4DD12C52FA4485A88620A7BA6
:10C8700006526862C6492008C318C31861108210A6
:10C88000C318C318C318C318C318C318E32004215E
:10C89000A218A218A2180421E320E320A6398A5284
:10C8A000EB5A4D6BAE7310843184CF7B284A484AD3
:10C8B0008E7355A555ADB7B5F7BD55AD96AD76A5FB
:10C8C00096AD4D6BCB628E73518476ADD39C55ADD6
:10C8D000149D35A535A5149D149D149D149D149D7E
:10C8E000F49CD394B394D394B394B294928C928CDA
:10C8F000728C728C5184518431843184107C107C10
:10C90000F07BF07BCF7BCF7BAF73AF732C632C635B
:10C910004D634D634D634D6B6D6B6E6B8E6B8E6BAC
:10C92000AE73AF73AF73CF73CF73EF7B107C107C9C
:10C93000107C3184318451845184718C728C728C5E
:10C94000928CB294B394D394D394F49CF49CF49CBE
:10C95000D39415A535A535A5B394D3948952A73999
:10C960008531C318A218E3200321E320C320C3208C
:10C97000C318C218E320C21824290429E320E3289D
:10C98000C22082184439CD9B12C594D5D5E5F6E571
:10C9900016E657EE78EE78EE98EE98EE78EE98EE92
:10C9A00098EE99F6B9F6D9F6B9F698EE77EE37E63D
:10C9B00057E6B9EE3BFF7CFF3BF71AF7D9F6D9F6FD
:10C9C0001AF73AF73BFF3BFF1AF7FAF6D9F6D9F612
:10C9D000DAF6FAFEFAF6FAF6FAF6F9F6B9F698F693
:10C9E00098F698F678EE98EE78EE57EE57EE16E653
:10C9F00016E6F5E594D5F1C40EA40752EA728862F2
:10CA0000E972686220086110A218C318C318A21046
:10CA1000A318C318C318C318C318C218C218C32058
:10CA20000421C318E320A218E32004214529EF7B49
:10CA3000284A494AB39C8E73D39C1084CB5A6952BE
:10CA4000EC62D39C18BE76ADD7B5D7B596AD76ADB2
:10CA500076AD76AD284A6952149DB39435A5F49C01
:10CA600055A555A5149D35A5149D149D149DF49CA4
:10CA7000F49CF49CD394B394D394B394928C928CFE
:10CA8000928C728C718C518451843184107C107C16
:10CA9000107CF07BF07BCF7BCF7BCF732C632C6340
:10CAA0004D634D636D634D6B6E6B6E6B8E6B8E6BFA
:10CAB0008E6BAF73AF73CF73F07BF07B107C107C09
:10CAC000107C3184318451845184728C728C928CAC
:10CAD000928CB394B394D394F39CF49C149DF39CE4
:10CAE000149D35A535A535A5B29414A5484A8A529A
:10CAF0008531C218A318C218E320E320E320E32005
:10CB0000C220C320E320A218242904290429E328F1
:10CB1000C22082182431CDA3F2C4B4DDF6E516E6B6
:10CB200057EE78EE78EE98F6B9F6B9F6B9F6B9F6AA
:10CB3000B9F6D9F6D9F6D9F6B9F698EE57E636E64B
:10CB400057E698EE3BFF5CFF3BF7FAF6F9F6B9F6CD
:10CB5000F9F63AF73AFF3BFF3BFF1AF7FAF6FAF617
:10CB6000FAF61AFF1BFF1AF7FAF6FAF6D9F6B9F633
:10CB7000B9F699F698F698F678F678F657EE37EE15
:10CB8000F6E5B5DD53D5B0BCAD93285AEA72EA7A22
:10CB90006B8B0652000082108210E318C3188210BB
:10CBA000A210C3188210A218C318E320C318C31818
:10CBB0000429E320E320E320E320E3202429EB5AA7
:10CBC000CB5AA639EF7B55AD0C63B3946D6BC64160
:10CBD000AE7BEF7BB7B5D49CF8BD96ADB7B576AD5F
:10CBE00035A555A5149DA639518C35A5F49CB39453
:10CBF00035A555A5149DF39C35A535A5149D149D0B
:10CC0000149DF49CF49CB394D394B394B294928CFA
:10CC1000928C728C728C5184518431843184108452
:10CC2000107C107CF07BEF7BCF7BCF732C632C636D
:10CC30004D634D634D636E6B6E6B8E6B8E6BAE731F
:10CC4000AE73AF73CF73CF73EF7BF07B107C107C30
:10CC50003084318451845184728C728C928C928C89
:10CC6000B394B394D394D494F49C149DF49CF49C06
:10CC700035A555A555A5149DD394F49C284A494A39
:10CC8000C739A218A218C218E3200321C220E32842
:10CC9000C220C220C218A21803292431E328042983
:10CCA000C32082180331CDA3F1C494D5F6E557EE25
:10CCB00078EE78F698F6B9F6B9F6B9F6D9F6D9F667
:10CCC000D9F6F9F6FAFED9F6B9F698EE36E616DE9A
:10CCD00037E698EE1BFF5CFF3BFF1AF7D9F6B9F673
:10CCE000D9F61AF71AF71AF73BFF3BFF3BFF1AFF7B
:10CCF0001AF71AFF1BFF1BFFFAF6FAFED9F6B9F670
:10CD0000D9F6B9F698F678F698F678EE57EE16E674
:10CD1000F6E5B4DD32CD4FA40B7B475A0A7B8B93EB
:10CD2000AC93A2200000A218A218C318C318C318FD
:10CD30008210C318C318A210C318C318E320E3203D
:10CD4000C3182429C320C318C318A2180429CB5A16
:10CD5000284A284AAB5A149DB7B50C63B2944531A2
:10CD6000AE7B718CB7B576AD76ADF8BDD7B5B7B53E
:10CD700096ADF49CF8BDCB52CB6275A555ADD49C55
:10CD8000F49C55A5149D149D35A534A534A534A552
:10CD9000149DF49CF49CD394D394D394B394B29400
:10CDA000928C928C728C718C518431843184318458
:10CDB000107C107C107CF07BCF73CF732D634D63A0
:10CDC0004D636D6B6E6B6E6B6E6B8E6B8E6BAF733C
:10CDD000AF73CF73CF73CF73F07BF07B107C107C7D
:10CDE000318451845184718C728C928C928C939486
:10CDF000B394B394D394F49CF49C149D149DF49C2C
:10CE000035A555A535A555A5D39434A5E741494A7F
:10CE1000084AC320A218C218E320C320E320C3207D
:10CE2000C320C320A218C2180329243103290329CF
:10CE3000A2208218C2208C93D1BC73D5F6E557EEA0
:10CE400078EE98F698F6B9F6D9F6D9F6DAF6DAF673
:10CE5000D9F6FAF6D9F6D9F6B9F677EE16E6F6DD92
:10CE600037E6B9F63BFF5CFF1AFFD9F6B9F698EE44
:10CE7000D9F6F9F6FAFE1AFF3BFF3BFF5BFF1BF703
:10CE80003BFF1BFF3BFF1BFF1BFF1AFFFAFEDAFEF7
:10CE9000D9F699F699F699F678F658EE57EE16E621
:10CEA000D5DD74D5F1BC0E9C685A0A830DA4CCA3C1
:10CEB00047620000000082108210C318C318E318F4
:10CEC000A218C318A318C318C318C318E320E3207B
:10CED000E320E3204529C320C318A218E3208639A4
:10CEE000EB5A0742494ACF7B96AD928C2C63C741DF
:10CEF000AA5AEF83B7B596B5B6B5F7BDD7B5D7B5CE
:10CF0000F8BDF49C76AD159D853914A535A514A5FD
:10CF100075A5149DF49C55A535A555A535A535A534
:10CF2000149D149D149DF49CD394D394D394B394E2
:10CF3000928C928C728C728C718C5184518431845D
:10CF4000307C1084107CF07BF07BEF7B2D634D6395
:10CF50004D634D636D6B6E6B8E6B8E6B8E6BAF73B3
:10CF6000AF73CF73CF73F07BF07BF07B107C1084BA
:10CF7000318451845184728C728C928C928C9294F4
:10CF8000B394B394D394F49C149D149DF49C149D79
:10CF900055A555A555A535A5F49C34A5484ACB5AA9
:10CFA000C741C320C218C218C320C320C320C32056
:10CFB000E320A218C320A218E32004292431032966
:10CFC000C320821881184B8BB0BC53D5F6E557EEC1
:10CFD00078F678EE99F6B9F6B9F6D9F6DAFEFAFEF1
:10CFE000FAFEFAFED9F6B9F678EE56E6F5DDF5DD8D
:10CFF00037E699EE1BF73CFFFAF6D9F699F698EE6C
:10D0000098EED9F6D9F61AFF3BFF3BFF3BFF3BFFFB
:10D010003BFF1BFF3BFF3BFF3BFF1BFFFBFED9FE24
:10D02000DAFEB9F699F699F678EE58EE37EE16E68E
:10D03000B5DD33CD90B4AC9307520DA44EACA872BD
:10D04000000000002000A210C318C318A210C318CB
:10D050000421A318C318E320A318032124290429B9
:10D06000C320C32004212429C3208210C32065319A
:10D07000AA5208420C631084AF7B96B56D6BC7391A
:10D08000AE7B494AF7BD96AD96AD18BEF7BDF8BD6B
:10D0900096AD96AD55A5B7B58952CF7B96AD929416
:10D0A00096AD149D34A5F49C35A555A555A535A57B
:10D0B00034A5149D149DF49CD394F394D394B39409
:10D0C0009294928C728C728C5184518451843184EC
:10D0D000107C1084107C107CF07BEF7B2D634D6303
:10D0E0004D6B6D6B6D6B6E6B8E6B8E6B8E6BAF73F2
:10D0F000AF73CF73CF73EF7BF07B107C107C118408
:10D10000318451845184728C728C928C928C928C6A
:10D11000B394D394D394F49C149D149DD39435A5C7
:10D1200055A535A576AD34A534A5149D494A0C63A3
:10D130006A52A218C320C218C220C320C2200429E8
:10D14000A218A218C320A2180429E3200429042944
:10D15000C320A22040100A7B70B433D5D5DD37EE52
:10D1600078F678EE99F699F6B9F6B9F6DAFEFAFE9F
:10D17000FAFEDAF6D9F699F678EE16DED5DDD5DDCB
:10D1800017E698EE1BFF3BFFFAF6B9F698F677EE36
:10D1900057EE78EED9F6FAFE1AFF3BFF3BFF3BFF56
:10D1A0003BFF3BFF3BFF3BFF3BFF1BFFFBFEFBFE51
:10D1B000FAFEB9FEB9F699F678F658EE17E6F6E5F6
:10D1C00094D5F2BC2FA44B83C6490652A22000007E
:10D1D0004108200820088210E318C318C318A210C1
:10D1E000E3202529C318E3200429C318E3202429B8
:10D1F00004212429C318242945292429A2180429F3
:10D20000694AEB6208426D73518C728CF07BE74186
:10D210008A526952F39C96AD96AD18BE18BE18BEE0
:10D2200076ADD7B576AD35A5928C284AB7B555A55C
:10D2300035A555A555A596AD55A555A555A535A515
:10D2400035A5149D149D149DD394F39CD394D3942D
:10D25000B394B28C928C728C728C518451843184D0
:10D2600031841084107C107CF07BF07B2D634D6347
:10D270006D636D636E6B6E6B8E6B8E6BAF73AF7326
:10D28000CF73CF73CF73F07B107C107C307C3184F4
:10D2900051845184728C728C928C928CB394B3941E
:10D2A000D394B394F49CF49C149D149D149D55A5A3
:10D2B00035A534A576AD55A5F39C55A5284A8E73A2
:10D2C000294AA218C320E320C320C3200429E32055
:10D2D000C320C218C320C218E32804290429032943
:10D2E000A220C320400868624FB412CDB5DD17EE0E
:10D2F00058EE78F699F6B9F6B9F6B9F6DAFEDAFE2E
:10D30000FAFED9F6D9F6B9F678EEB4DD73CDD5DDEF
:10D31000F6E5B9F6FAF63BFFFAF699F678EE37EE4F
:10D3200016E636E6B8EEFAF6FAFE1AFF1BFF3BFFEA
:10D330003BFF3BFF3BFF3CFF3BFF1BFFFBFEFBFEBE
:10D34000DAFED9F6B9F698F678F637EE16E6B5DDD8
:10D3500053CDB1B4ED9BEA72032100000000000040
:10D360006108410821088210C318C318A21882104E
:10D37000C318C3184529E32004212429E3202429C4
:10D380000321E3200421821824292429E320E32017
:10D39000A6398A528A528E739294929435A5284A5D
:10D3A000284ACB62518C9294B6B5F8BD18BEB7B579
:10D3B000D7B576AD76AD75AD18BE453135A556AD50
:10D3C000F49C35A555A596AD76AD55A555A555A5A5
:10D3D00035A534A5149DF49CF49CF49CD394D3946B
:10D3E000B3949394928C928C728C728C51845184ED
:10D3F00031843084107C107CF07BF07B4D6B4D636E
:10D400004D6B6E6B8E6B8E6B8E6BAE73AF73AF733B
:10D41000CF73CF73F07BF07B107C107C3084518411
:10D42000518451845184728C928C928CB394D39495
:10D43000D394F49CD394F49C149DF49CF39C55A534
:10D4400055A576AD35A5F49C14A576ADC7416E6B98
:10D450004952C220A218E320E320E320E328E32876
:10D46000C218C320C218A220E328E32004290329FC
:10D47000C320C3204110C6410FACD1C474DDF6E512
:10D4800037EE78F698F6B9F6B9F6D9FED9FEFAFE77
:10D49000FAFEFAFED9F6B9F677EE52CD73CDD5D5B0
:10D4A000F6E598F63BFF3CFFDAF698EE57EE16E607
:10D4B000F4DDB4DD57EEFAF61AFFFAFE1BFF3BFF70
:10D4C0003BFF3BFF3CFF3CFF3CFF1BFFFBFEFBFE2B
:10D4D000DAFEDAFE99F678F658F637EEF6E5B5DDBF
:10D4E00012C590ACAD938962C218000021084108B2
:10D4F000621041084108A210A210C318A2108210A5
:10D50000A2100421A3182429242945290421042137
:10D510004529E3200421E3200321032104210429D8
:10D5200065310742284A0B63CF7BF8BDF07BCB5AAD
:10D530006952AA5AB294CF7B35A576ADD7B5F7BD5F
:10D5400018BE96AD75ADD7B5F8BD69522F8496ADAE
:10D55000149D55AD76AD76AD76AD76AD55A555A598
:10D5600035A535A534A5F39C149DF49CF39CD39468
:10D57000D394B3949394928C728C728C718C5184EA
:10D5800051843184107C107CF07BF07B2D634D6BDB
:10D590006E6B6E6B6E6B8E6B8E6BAF73AF73CF7388
:10D5A000CF73EF7BF07BF07B107C3084318451842F
:10D5B0005184718C728C728C728C728C928CB3943C
:10D5C000D394F49C149D149D35A5149DF49CF49C57
:10D5D00035A555A555A5149DD394F49C484A694A90
:10D5E0008952E320A2180321E320C320E320C320B3
:10D5F000C320C220C320E320C320E3200429E3206A
:10D60000C320C2204110E328AD9390BC53D5D6E58A
:10D6100037EE58F699F6B9F6B9F6B9F6FAFEFAFE0B
:10D62000FAFEFAFEFAF6D9F6F6E5F2C473CDB5DDE8
:10D6300016E699F61BF75CFFDAF678F657EE16E673
:10D64000F5E573D5B4DDB9F61AF7FAFE1AFF1BFF3C
:10D650003BFF1BFF3BFF3BFF5BFF3BFF1BFFFAFE5C
:10D66000DAFEB9FE98F678EE37EE17E6D5DD74D51A
:10D67000F2BC4FA4AC8B695A20082008410841082D
:10D680006210410841088210C318A318A210A2100A
:10D690008210E318E420C3180429452986310421A7
:10D6A00045292429E3200421C32004210321C22089
:10D6B0004429E74169526952108434A514A50842EF
:10D6C000EB628A52EF83149DD39CD7B576AD96ADAD
:10D6D000F8BDB6B5B7B596ADD7B5107C4C6B55ADAA
:10D6E00014A555AD55A596AD96AD76AD76AD55A5BF
:10D6F00055A555A5149D149D149DF49CF49CF39C74
:10D70000D394D394B394928C928C728C728C5184F7
:10D71000518431843084107C107CF07B4D6B4D6BD8
:10D720006E6B6E6B6E6B8E6B8E6BAF73AF73CF73F6
:10D73000CF73F07BF07B107C107C3184318451847A
:10D740005184728C728C928C928CB394B394D394D7
:10D75000F39CF39CF39CF49C149D149DF49C35A5C0
:10D7600035A5F49C35A555A555A596ADCA5A2D638A
:10D770006952A63982100321C320C320E320E32885
:10D78000C320A220C320A218E320E32803290429F0
:10D79000C320C320611820084C832FAC13CDB5DD06
:10D7A00017EE58EE78F698F6B9F6DAFEFAFEFAFEBB
:10D7B000FAFE1AFFFAF6D9F694D573D5B4D5D6DDAC
:10D7C00037E699F63BFF5CFFB9F678EE57EE37E6A1
:10D7D00016E6B4DD53D536E6FAF6FAFEFAFE1AFF7F
:10D7E0001BFF1BFF3BFF3BFF1BFF1BFF1BFFFAFE4B
:10D7F000D9FEB9F698F678EE37EEF6E5B5DD33CD1D
:10D80000B1B42FA46C83074A0000410841084108C5
:10D810008210410841088210C318A2188210C31850
:10D820006210C31804210421C3180421242965317E
:10D83000653145292429C318042924290321A21864
:10D8400004218639284A484ACF7B1084728CEC62C6
:10D850008952F07BEB6214A5B39455ADB7B5B7B55B
:10D8600055A575ADD7B5D7B5F7BD76AD6952149D41
:10D8700035A576AD96AD96AD76AD96AD76AD75AD7A
:10D8800055A555A5149D149D149D149DF49CF49CC0
:10D89000D394D394B394B294928C728C728C51843E
:10D8A000518451843184107C107C107C4D6B6D63ED
:10D8B0006E6B8E6B8E6B8E6BAF73AF73CF73CF73DC
:10D8C000EF7BF07BF07B107C107C318431845184C1
:10D8D0005184728C928C928C928CB394D394D39406
:10D8E000F49CF49C149D35A535A535A5149D55A52E
:10D8F00055A596AD76AD55A5149DB6AD4D6B284298
:10D900002D6B853182180321E320E328E3280329C6
:10D91000C320C220E3288218032103290329C3203E
:10D92000E320C22082182000485ACD9BB1BC74D598
:10D93000F6E558F678F678F6B9F6D9FEFAFEFAFE6C
:10D94000FAFEFAFEFAFEFAFE94D574D594D5D6DD29
:10D9500037EEB9F65CFF5CFFDAF678EE17E657EEC5
:10D9600036E636EEB4E593D5F9F6D9F6DAFEFAFEE8
:10D970001AFF1BFF1BFF1BFFFBFE1BFFFAFED9FE5E
:10D98000D9F699F678F658EE17EEF6E594D512C565
:10D9900070ACED930A73453100004108410841081D
:10D9A0008210410841088210C31882108210C318E7
:10D9B000A2108210E320E320E420042104210421AA
:10D9C000452925294529042104290421242924291C
:10D9D000E320C739284A6952AE73CF7B3184CF7BAD
:10D9E000C6396D6B6D6BB294D39C75AD18BEF8BD26
:10D9F000D7B5B7B575AD96ADB6B518BEA73955A5AF
:10DA000035A596AD96AD96AD96AD76AD76AD76ADC7
:10DA100075AD35A535A5149D34A5149D149DF49CB4
:10DA2000F394D394B394B394928C928C728C718C43
:10DA30005184518431843184107C107C4D6B6D6B2A
:10DA40006E6B6E6B8E6B8E6BAF73AF73CF73CF736A
:10DA5000EF7BF07B107C107C3084318431845184E6
:10DA6000728C928C928C928C9394B394D394F39CFA
:10DA7000F49C149D149D15A535A535A5F49C55A5BC
:10DA800076AD76AD96AD96AD149D76ADEF83494AF1
:10DA9000EB5A2429C3180321E320E320E320E328E1
:10DAA000C3200329A218A218032103292429E32053
:10DAB000C220A2208218200824316C8B70B413CDB0
:10DAC000B5DD53DD74DD78F699F6B9F6FAFEFAFEA7
:10DAD000FAFEFAFEFAFED9F694D594D573CD94D514
:10DAE00058EE78F6DAFE1AFFD9F677EEF5DD77F61E
:10DAF00097EE57EEF5E553D5B9EED9F6D9F6FAFE1D
:10DB0000FAFE1AFF1BFF1BFF1BFFFAFEFAFEB9FE0F
:10DB1000B9F699F678EE37EEF6E5B5DD53CDF1C4FA
:10DB20004FA48C8BCA6A6210000061104108410842
:10DB30008210610841088210C318C3188210E320C4
:10DB4000A3186108E318E420A21804212429C318AB
:10DB50000421252945292429A21804210421E32090
:10DB6000E3206531A6390842EF7BF07B35A592941E
:10DB7000AA5ACA5AEF7B35A5B29414A555AD18BE62
:10DB800018BED7B5D7B5B6B5B6B5B7B5284AB6B588
:10DB9000B39496B576ADB7B5B6B596AD96AD76AD50
:10DBA00055A555A555A5149D15A5149D149D149D09
:10DBB000F39CD394D394B394B294928C928C728C41
:10DBC000718C518451843184107C107C6D636E6B38
:10DBD0006E6B8E6B8E6B8E6BAE73AF73CF73CF73BA
:10DBE000F07BF07B107C308430843184518451840C
:10DBF000718C728C728C93949394D394D394F39C81
:10DC0000F49C149D149D35A555A575ADB39496ADA2
:10DC100076AD96AD96AD96AD149DD7B571940C6367
:10DC20008A524531A218C320E320E3200429E320CF
:10DC300004290329C218C218E32003290329E32079
:10DC4000C320A2208218411000080B730EA4B1BC9F
:10DC500074D5B5DDD6E578EE98F6B9F6DAF6FAF6CB
:10DC6000FAFE1AFFFAFED9F694D532CD8B9B6B8B58
:10DC7000F5E517EE16EE77EE16EEB4DD0EA4E651DE
:10DC80004FACF5E593DD32D5FAF6FAFEF9F6FAFE79
:10DC9000FAFEFAFE1AFFFAFEFAFEFAFEDAF6B9FE0C
:10DCA00099F698F658EE37EEF6E5B5DD33CDB0B41B
:10DCB0000FA44B83685A0000200041082108410846
:10DCC0008210610882106210A2100421A218C318E9
:10DCD000E3186110A210E3202429A2182429242982
:10DCE0000421452924292429E32082102429C32042
:10DCF000C320042965310842CA5A718C518C929410
:10DD00006A52EB628D73B6B5B39496B5B394D7B53A
:10DD1000D7B5D7B596AD96AD75ADD7B50842D7B5E1
:10DD200035A5149D96ADB7B5B7B596AD96AD76ADA4
:10DD300075AD75AD35A535A535A534A5149DF49CF7
:10DD4000F49CF49CD394B394B294928C928C728C85
:10DD5000718C5184518431843084107C6D6B6E6B76
:10DD60006E6B8E6B8E6BAE73AF73CF73CF73F07BB6
:10DD7000F07BF07B107C107C318451845184518C79
:10DD8000728C728C928C928CB394D394D394F49CB6
:10DD9000F49C149D159D35A555A535A5149D75AD0F
:10DDA00076AD96AD96ADB7B534A5D7B514A5CB5A1B
:10DDB0008A526531C218C320A218C320032904293E
:10DDC000C320E320A218C320C3202431042903293F
:10DDD000A220C2208118611000002852AD9370ACBF
:10DDE00033CDB5DDF6E537EE78EE98F6D9F6FAF6EE
:10DDF000FAF6F9F6D9F6B9F6D5DD2EB48FBC4B9309
:10DE00006B9373D593DD32D511CDEA8AEA8206622F
:10DE1000887AD0C4D0CCF5DD1AFFFAFEFAFEFAFEFD
:10DE2000FAFEFAFEFAFEFAFEFAFED9FEB9F6B9F6E5
:10DE300099F658EE57EE37E6D5DD94D512C590B475
:10DE4000CD9B2A7B65390000410841084108410803
:10DE50008210621061088210C318E418E420C3180D
:10DE6000E320A2186108A318042104218210E420F1
:10DE70000421E420442924292429C320C320032188
:10DE8000E320A21886318639EB6210841084B394A3
:10DE90000C634C6B8E7B96B576AD55ADB29414A5E4
:10DEA00039C6B7B5D7B596ADB7B555AD0C6335A581
:10DEB00035A576AD96ADB6B596ADB6B596AD76ADA3
:10DEC00055A555A575AD35A535A535A5149D149D4C
:10DED000F49CF49CD394D394B394928C928C728CD3
:10DEE000728C718C51843184308430846D6B6E6B94
:10DEF0008E6B8E6BAE73AF73AF73CF73CF73EF7BDD
:10DF0000F07B107C107C3084318451845184728C7D
:10DF1000928C928C928CB394D394D394F39CF49C73
:10DF2000149D149D14A535A555A5149D55A535A57D
:10DF300096AD96AD76ADB7B555A5B6AD96B5284AB2
:10DF40002C6385318118E320C318C31804292431B8
:10DF5000E320C320E320C320E32024292431E3204D
:10DF6000C220E328611061102008E3204C830EA436
:10DF7000D2C474D5D6DD17EE57EE58EE98F6D9F622
:10DF8000D9F6D9F6B9F698F637E612CD0EAC4EB4FE
:10DF90000EACEDA3D1BC12CDD0BC2EB432CD74DD0D
:10DFA00094DDB0C474D5DAF61AFF1AFFFAF6FAFE59
:10DFB000FAFEFAFEFAFEFAFED9F6B9F6B9F699F6C5
:10DFC00098F658EE37EEF6E5B5DD74D5D1C44FAC12
:10DFD0008C8B0A73811800002108610841086110C8
:10DFE000821061084108A318E3208210E420A318DE
:10DFF000E320C31882106110C31804210421C31840
:10E00000C318E320E320442924290421C318032151
:10E01000E320C32004210842E7414D6B8E73B39483
:10E020008A52EB62CF7BF39C96AD59CE75ADCF7B18
:10E03000D7BD39C639C675AD96ADF49CEC6255AD09
:10E04000B7B576AD149DB7B596AD76AD55A575ADA2
:10E0500096AD76AD75AD35A555A535A5149D149D28
:10E06000F49CF49CF49CD394D394B394928C928CAF
:10E07000728C728C51845184318430846D6B6D6BE1
:10E080008E6B8E6B8E6BAF73CF73CF73EF73F07B32
:10E09000F07B107C107C3184518451847184728CAB
:10E0A000928C928C9394B394D394D394F49CF49CD8
:10E0B000149D149D35A555A535A555A555A535A582
:10E0C00096AD75ADB6B5B7B575AD96ADB7B5CB5A1E
:10E0D0002C63E320A218C318C318C31824310429E1
:10E0E000E328E320C320E328E32803296539E32854
:10E0F000E328C220A220611041080000CA6AAD9343
:10E1000090B413CD94D516E637EE58EE98F699F6FE
:10E11000B9F6B9F699F698EE36E6D5DD94D511C57F
:10E12000B0BC90B46FB490B4B0BC94D5F6DDB5DD9E
:10E1300053D537E6D9F63AFF1AFF1AF7FAF6FAFE80
:10E14000FAFED9F6DAFED9F6D9F6B9F699F698F6C6
:10E1500078EE37EEF6E5D5DD94D533CDB1BC0EA41F
:10E160004B836862000000002008410841088210CB
:10E17000610862104108A218E320A218C318A21077
:10E18000E320E420A3186108A210E3200421E42086
:10E19000E320E420E320C318032104210421E32029
:10E1A0002429C318C318A6398A52E7412C6BF49C62
:10E1B0006D738A52CF7B34A555A538C639C676AD66
:10E1C000EF7B38C696AD18BE34A5F8BD0C63D39C62
:10E1D000F8BDD7B576AD76AD75AD76ADB7B576ADE4
:10E1E00055A576AD55A555A555A535A515A5149DDF
:10E1F000149DF49CF49CD394B394B394928C928C1D
:10E20000728C728C51845184318431846D6B8E6B2D
:10E210008E6B8E6BAE73AF73CF73CF73F07BF07B6F
:10E22000107C107C3084318451845184728C728CC7
:10E23000928C928CB394B394D394D394F49CF49C26
:10E24000149D14A535A555A535A555A576AD149DE8
:10E2500076AD96ADB6B5D7B555A5D7B596AD2C6309
:10E26000CB5AE320A218A218C318C32004290429FA
:10E27000C320E328E328C320E320E3206539C3203B
:10E28000E328A220E328411081180000A6396C83FE
:10E290002FA4D2BC54D5D5DD16E657EE78EE98F60D
:10E2A00098F698F698EE98EE77EE37E6F6E594D580
:10E2B00073D573D573D573D573CD36E657E657EE60
:10E2C00078EEF9F61AFF1AFF1AF7FAF6FAF6F9F6E7
:10E2D000D9F6D9F6D9F6B9F6B9F699F698F678EEF0
:10E2E00058EE37E6F6E5B5DD74D512C570B4CD9BB2
:10E2F0002B83653900000000410841086108A21025
:10E30000410861088210A2100421C318E318A21862
:10E31000E320C318C318A210A210A21004210421E4
:10E32000E42004212429E320E320042104290429F2
:10E33000E3200421C2180321284A284A8E7330841E
:10E340008E7369520C6355ADF8BD18BE38C6D7B58B
:10E35000F49C1084F8BD18BE728C59C6695275AD14
:10E36000F8BDD7B5D7B596ADB7B596AD75AD35A5F2
:10E37000149D96AD55A575AD55A535A535A5149D2E
:10E38000149DF49CF49CD394D394B394B294928C43
:10E39000928C728C728C5184318431846D6B6E6B73
:10E3A0008E738E73AE73CF73CF73CF73F07BF07BAE
:10E3B000107C30843084318451845184728C728C0E
:10E3C000928C928CB394B394D394F49CF49C149D4B
:10E3D000149D15A535A555A556A535A576AD34A52D
:10E3E00075AD96ADB7B5D7B534A5B6B576AD518C8C
:10E3F000284A2429C218E320C320A218C3202429B4
:10E40000E328E328E328C220E328C3208539E3205A
:10E41000E3200329A220C2204110201041100B73D9
:10E42000ED9B90B433CDB5DD16E637EE78EE78EEA1
:10E4300078EE77EE77EE78EE78EE57EE36E6F5DDAD
:10E44000F5E516E616E6F6E5F5DD78EEB9F6B9F689
:10E45000B9F6D9F6F9F6FAF6FAF6F9F6F9F6D9F6C2
:10E46000B9F6B9F6B9F6B9F698F678EE78EE58EE50
:10E4700057EE17E6D6DD94D553CDF1C42FAC8C8B77
:10E48000EA72821800000000410841086108A210E9
:10E4900021084108C31882100421C3180421C3189D
:10E4A000A318A218E320A210821082108210042167
:10E4B00004210421042124292429042104212429BC
:10E4C00024290429C218A218494A85312C6BCF7B14
:10E4D000AE73CB5A6D73728C18BED7B518BEF8BD2B
:10E4E000B7B5F49C34A575AD35A559C60742F7BD3F
:10E4F000D7B5B7B576AD76AD55A5B6AD96ADB7B5D2
:10E5000096B555A575AD75AD55A555A535A535A5DA
:10E51000149D149DF49CD394D394B394B394928C8F
:10E52000928C728C728C718C518431846E6B8E6B78
:10E530008E6B8E6BAF73CF73CF73EF7BF07B107CE2
:10E54000107C107C3184318451845184728C928C83
:10E55000928C9394B394D394D394F49CF49CF49CB1
:10E56000149D35A535A535A575A535A535A576AD7B
:10E5700035A596AD96ADB6B5D39C96B535A5B294F6
:10E580004531E320C3188110A218A218E3204531B9
:10E59000E320A21803210329C320E32065390429BD
:10E5A000E320E328A2200429611841100000695AE1
:10E5B0008D8B4FACF1C474D5D5DD16E657EE77EEF2
:10E5C00057EE57E657E637EE57EE57EE57E637E683
:10E5D00016E698EE78EE57EE36E678EEB9F6B9F62E
:10E5E000B9F6B9F6D9F6F9F6F9F6D9F6D9F6B9F6D3
:10E5F00099F6B9F699F698F698F678EE58EE57EE41
:10E6000016E616E6B5DD94D532CDB1BC0EA46B830B
:10E61000485A400800002008410841088210821032
:10E6200041086110E32041080421E3200421042172
:10E630006110C318A210C318A21082108210C31850
:10E6400004210421E320E320242945290429042965
:10E65000C32024292429C320E32086398A52B39475
:10E66000284AEB5A6D73929479C67ACE18BE59C671
:10E6700038C6B6B5149D308418BEF7BDEB6218BE1F
:10E68000B6B576AD96ADF7BDD7B5B6B5B6B597B557
:10E6900096AD76AD55A576AD75AD55A535A535A527
:10E6A00014A5149DF49CF49CF39CD394B394B3945C
:10E6B000928C928C728C5184518451846E6B8E6BCF
:10E6C0008E6BAE73AF73CF73CF73F07BF07B107C28
:10E6D000107C3184318431845184728C728C928CA0
:10E6E000928C9394B394D394D394F49C149D149DDE
:10E6F000149D35A555A555A555A555A576AD76AD61
:10E70000149D96AD96AD76AD96AD34A5D7BDD39C90
:10E7100065312429C318A2188218811003214531BC
:10E72000E320C320A218E320E320E32804292431B6
:10E73000E3200329E320E320E32881182008E328CD
:10E740004B83EEA3B0BC32CD94D5F5E516E637E6A3
:10E7500037E616DEF6DD16E616E637E657E698E605
:10E7600098EE1AF777EE16E636E6D9EEFAF6FAF6EE
:10E77000F9F6D9F6B9F6D9F6D9EEB8EE98EE78EE04
:10E7800078EE78EE78EE98F698F678EE37EE16E6B4
:10E79000F6E5D5DDB4DD53CDF1C470B4CD9BEA729E
:10E7A00085392008200020084108410882106210A5
:10E7B0004108A210A2184108C318E3200421042133
:10E7C000C318A3188210C318A21082108210C31895
:10E7D000C318E320E3200421E32024294531242920
:10E7E00045290421452904212429C739A639B29491
:10E7F000494AEB5ACB62108439C6F8BDF8BD39C618
:10E80000B7B5B7B596B5308418BE928C4D6B18BEAF
:10E8100055A5D7B5D7B5F7BDD7B5D7B5B7B576AD8B
:10E8200096AD96AD76AD76AD75AD55A555A535A52C
:10E8300035A5149D149DF49CF49CD394D394B39467
:10E84000928C928C728C728C518451846E6B8E6B14
:10E850008E6BAF73AF73CF73EF73F07BF07B107C75
:10E86000107C3184318451845184718C728C928CEF
:10E87000928CB394B394D394D49CF49C149D149D23
:10E88000149D35A535A555A576AD55A576AD96ADA6
:10E8900096AD55A596ADF7BDF49C76AD76AD14A5B5
:10E8A0000842E320A218A21861106110E32024316D
:10E8B000C3200429A218E320C3200429C320443123
:10E8C000C3200329E320C320E328A2186118000015
:10E8D000C96AAD9370AC11C574D5D5DDF5E516E602
:10E8E00015DEB5D5B5D594D5D5DD36E6B5EDB2ECAA
:10E8F00010E414F5D6F598F6DAF659FED7FD18F6B9
:10E9000038F6D9F6D9F698EE78EE57E637E616E6F9
:10E9100037E658EE78EE78EE78EE57EE37E616E604
:10E92000F5DDB5DD94D532CDB1BC0EA46C8B475A64
:10E93000443120082008200841086108611041087E
:10E940004108042161086110C318E320C320252970
:10E950000421C318A2188210C318821061108210FB
:10E96000C318E3200421E32024290321E3204531B7
:10E97000242904212429453104294529C7416D73DF
:10E980006E738952C739318C96ADB6AD18C6F8BDD5
:10E9900038BED7B53184B7B5F49CF07BF39CD7B5BE
:10E9A000D7B5F7BDF8BDD7B5D7B5B7B5B6B5B7B517
:10E9B00096AD76AD76AD76AD55A555A555A535A5E3
:10E9C00034A5149D149DF49CF49CD394D394B394D7
:10E9D000928C928C928C728C718C51848E6B8E6B1B
:10E9E000AE73AF73CF73CF73CF73F07BF07B107CBC
:10E9F000107C3184518451845184728C928C928C1D
:10EA0000928C938CB394D394D394F49CF49C149DE3
:10EA1000F49C15A555A556AD76AD55A576AD96AD2C
:10EA2000B7B5149DD7B596AD55A5B6B576AD14A5B9
:10EA30008631A218A218811081108110032924297F
:10EA4000C3200329E320E3200329C3200329042949
:10EA50000329E32003298218A21804296118411010
:10EA6000E3286C8B2FA4D1BC52CD93D5D5DDF5DD39
:10EA7000D4D573D512C512C5B1CC6ED3ABD28BD25F
:10EA8000ABDAABE2EDEA52F452F4D0EB6EE32DDBFD
:10EA90004DDBF0E354ED57EE57E6F6DD94D594D513
:10EAA000D5DD37E678EE78EE57EE57EE36E6F6E54A
:10EAB000D5DD94DD53CDF1C46FB4CD93C96A065250
:10EAC00023316110200021086108410862106108AB
:10EAD000C318E3184108E418C3180421E3200421F3
:10EAE00066318210C3188210A218A318A218A218A7
:10EAF0008210C318E320E320C31804290429242921
:10EB00002429453104210421E3204529E3208531CE
:10EB1000AA5AEB62484A308C59C659C6F8BD96AD20
:10EB2000B7B596ADF4A4F49C728C494A18BE96AD64
:10EB3000F8BDB7B5D7B5D7B5D7B5D7B5D7B5B6B58D
:10EB400096AD96AD96AD96AD55A576AD55A555A5A8
:10EB500035A534A5149DF49CF49CF39CD394B394F4
:10EB6000B394928C928C728C718C51848E6B8E6B60
:10EB7000AF73AF73CF73CF73EF7BF07BF07B107C01
:10EB8000107C318431845184718C728C928C928C83
:10EB9000B394B394D394D394F49CF49C149D15A58E
:10EBA00035A535A535A555A576AD56AD96AD96AD31
:10EBB00076AD96AD76AD75AD96ADB7B5D7B5929449
:10EBC00008428110A21881108110611004292429A3
:10EBD000C320E32003210429E320E3202429E320A8
:10EBE0002429E3280329C22081188218C220611039
:10EBF0000000A96ACD936FB411C573D5B4DDB4DD3F
:10EC000093D532C52EAC2CA329AA09A209AAC8A95A
:10EC1000C8B988B9A8C9ACDA6BDA46A94AB28BB2CE
:10EC20002AAA09AA09B2CBBAEFC390CC4C93EDA3A0
:10EC300093D5F6E537E657EE57EE37E616E6F6DDFE
:10EC4000D5DD74D512C5B0BC2EAC4B830652E6514F
:10EC50004431A218000041084108410882104108CF
:10EC60002421821041080421C318C318C3180421A9
:10EC70006631C318E420A218A218A218A218A2187C
:10EC8000A2188210E320E320E320E320E320E32026
:10EC90002429042924290429E320C320AA5A242949
:10ECA000CB5A2842E739518C96AD18BED7B539C634
:10ECB000B7B596AD14A596B5D39CEB62F8BD96ADED
:10ECC000B7B5B6B5D7B5B7B596AD96AD76ADB6B561
:10ECD00096AD96AD96AD76AD76AD76AD55A555A50E
:10ECE00035A534A5149D149DF49CF49CD394B39441
:10ECF000B394B294928C928C728C718C8E6B8E6B5E
:10ED0000AF73CF73CF73EF7BF07BF07B107C107C05
:10ED10001184318451845184728C728C928CB28CA7
:10ED2000B394D394D394F39CF49C149D149D159D9B
:10ED300035A555A535A575AD75AD76AD75AD96AD59
:10ED400096ADB6AD149DB7B576AD96AD59C68E737A
:10ED500086318110821881106110821804292431B3
:10ED6000C320E320A2182429E32804290429042924
:10ED70002431E328E320C32082188118C2206118BF
:10ED80006110A2206C8B0EA4D1BC52CD93D5B4DD02
:10ED900073D552CD2FB4034182388228E3306862A4
:10EDA000EB72AE93CEABCBB20CA334C558CE38D6F3
:10EDB0002C7B896A6549A340A348C458C7714FB4E6
:10EDC000B4D516E637E657E657E636E616E6D5DD5D
:10EDD00094D533CDB1BC2FAC8C9388620652C54913
:10EDE000843903290000621021086108610882103B
:10EDF00045294108A210E320C318C318C3180421F1
:10EE000045290421E320C318A318C318A218A21887
:10EE1000A218C318A218E320E320E320E320E32094
:10EE200004210321E320E3202429E320863124293F
:10EE3000484A0D636531284A59C6B7B57ACEF8BD40
:10EE400096ADB6B534A596B53084318CB7B539C614
:10EE5000F8BD18BE18BED7B5D7B5F7BDD7B5B7B58D
:10EE600096AD76AD55A555A555A576AD55A555A537
:10EE700035A535A5149D149DF49CF39CD394D3948F
:10EE8000B394B294928C928C728C728C8E6B8E6BCB
:10EE9000AF73AF73CF73EF7BF07BF07B107C107C94
:10EEA0003184318451845184728C728C928C92940E
:10EEB000B394D394D394F49CF49C149D34A535A5B9
:10EEC00035A555A555A555A576AD76AD55A555A540
:10EED00076AD76AD55A5B7B576ADB7B535A5CF7BD3
:10EEE00045296110811061104008E320E3202429A6
:10EEF000C320E320A218E32804290429243104298B
:10EF0000E320E328C320C320821882186110A218CE
:10EF1000611000082752AD936FAC11C573D593D51E
:10EF200093D593D5D5DDB1CC6A9A088AE889A779BB
:10EF30008671086ACA724C7BA96ACE9B0FACEFAB94
:10EF40008799C9A92ABA09B28BCAECD295E516DE0F
:10EF5000F6DD16E636E637E637E616E6D5DD94D575
:10EF600053CDF1C46FB4CD9BE9720652265AE651D7
:10EF70008541643900086110410861084108E320B7
:10EF8000E4204108E420E320C318C318C318C318C1
:10EF900004214529A2180421A318C318A218C318D4
:10EFA000A218A218E320A218E320E320E320E32024
:10EFB000E3200321E320E3206110A2182429042187
:10EFC00045290C63E74107420C63B29435A5D7BDD0
:10EFD000F39C55AD96ADD39CCB5A18BEB7B5F7BDD3
:10EFE00018BEF8BDD7B5F8BDF8BDF7BDD7B5D7B5D4
:10EFF000B7B5B7B576AD96AD76AD35A535A555A502
:10F0000035A535A534A5149D149DF49CD394D394B3
:10F01000B394B394928C928C728C728C8E6BAF730F
:10F02000AF73AF73CF73CF7BF07BF07B107C3084FA
:10F03000318451845184718C728C928C928CB394F3
:10F04000B394B394D394F49C149D149DF49C35A56F
:10F0500035A555A576AD76AD55A576AD55A5149DCE
:10F0600055A555A576AD35A535A534A5107C6D6B98
:10F0700085318110A21062106110E320C2200429A2
:10F08000C320E320A218E320E320E3202429443115
:10F09000A2202431C220C320A2208118611061184F
:10F0A0008218201041100B7BEE9BB0B432C593D573
:10F0B00094D594D594D5B4DDEFCBCCBA0DDB0DE36C
:10F0C0000DDB8CD209B2C9A9E9B94ACA8CDAADE222
:10F0D000B0F36FEB2EF34EEB8FDB54DD57E637E6E4
:10F0E00016E637E636E616E616E6D5DDB4D573D570
:10F0F00011C58FB40DA44B8306526762475A06525E
:10F10000C549A5492008611020086110410845291A
:10F11000821061100421E320C318E3188210E32059
:10F12000E320242982102429E320E320C318A21815
:10F13000E320C318C318C318C318E3202429E3200D
:10F14000E320C218E320E320C3188110E320A6398E
:10F15000E3206A5A2842284A55ADAE73EF7B76AD5C
:10F160006E6BF49C55A5CF7BCF7B18BE96AD39C690
:10F1700018BEF8BDF8BDD7B5F8BDF7BDD7B5D7B542
:10F18000B7B596ADB6B596AD76AD76AD75AD35A5E0
:10F1900035A535A534A5149D149DF49CD394D39422
:10F1A000B394B394B294928C728C728C8E73AF734E
:10F1B000AF73CF73CF73EF7B107C107C107C3084E7
:10F1C000318451845184728C728C928C928C939481
:10F1D000D394D394F49CD394F49CF49CF49CF49C2A
:10F1E000D394F39C149D149D149D149D149DF49C24
:10F1F000928C35A555A5929435A5F49C76ADEB621D
:10F2000003216110611061106110E320A21804292C
:10F21000E320A218C318C320C318E328042924310B
:10F2200024290429A220E320A21881188118411062
:10F2300061188218000064396C8B2EACF1BC73CD60
:10F2400093D5B4D5B4D5B4D5F1C4AFC3CDCA0DEB05
:10F250006FF3D0FBAFEB31F48FFB73F432F4F1F3C7
:10F26000AFF34EEB4EE36ED333D516DE17E637E63B
:10F2700037E636E616E6F5DDD5DD93D573CD11C557
:10F280008FB40DA46C8B4762476268626762265236
:10F290000652C54981182008200061084108042150
:10F2A000610882104529C318C318C3188210C318F7
:10F2B000C3182429E420C3180421C318E320C31869
:10F2C000A218C320C320C320E320E320E3200421AD
:10F2D0002429C31882100421A218A2186110E74142
:10F2E000042124298A52032955A539C631848E73F5
:10F2F000AF7318C6D49C4952D8BDB7B576ADF8BD2A
:10F30000F8BDF8BDF7BDF8BDD7B5F8BDD7B5B6B5F2
:10F31000B7B5B7B596AD96AD96AD76AD76AD75ADE4
:10F3200035A5149D34A5149D149DF49CF39CD39491
:10F33000D394B394928C928C928C728C8E738F73C4
:10F34000AF73CF73EF73EF7BF07B107C107C318455
:10F35000318451845184728C928C928C928CB394AF
:10F36000D394F394F49CF49CF49CF49C149D149D0D
:10F3700055A555A555A575AD75AD75AD149DB7B51C
:10F3800096AD35A535A5B394CF7B76ADB394284A19
:10F39000E3208110611061108218C218C220E3209E
:10F3A000E320C218E320C3200421A2200429443111
:10F3B000E328E32004298218A2208218611861182A
:10F3C0004110411061100000896ACD9B90B432C594
:10F3D00073D5B4D5B4D594D553CD4FAC8EC3ACD280
:10F3E0000DEB8FF3F1EB11ECD0F373F411FC4EF352
:10F3F000EDE20DD38DC312CDD5DD16E637E657E627
:10F4000057E637E616DEF5DDB4D553CD11C5B0BCF1
:10F410000DA48C936862065A686A886A886A686272
:10F42000475AE651C2200000200820008210A3188D
:10F430006210E42024290421A318E3208210A218DA
:10F44000E320E3206531A2180421E320C31803213F
:10F45000C318A218C318C320E320E320E320C31875
:10F46000C3180421C318E320042181108210611005
:10F47000E3200421C739A218508CF7BDB7B5928C90
:10F480002D6B14A58A52518C18BE18BE96AD18BEAD
:10F49000D7B5D7B5B7B5B6B576AD76ADB7B5B7B55F
:10F4A000B7B596AD96AD76AD55A555A535A5149DC8
:10F4B00034A555A535A5149D149DF49CF39CD394B7
:10F4C000B394B394928C928C728C728CAE6BAF733B
:10F4D000CF73CF73EF7BF07B107C107C107C31847A
:10F4E00031845184518C728C728C928CB294B3940E
:10F4F000D394D394D394F39C149D149D35A555A512
:10F5000055A575AD76AD76AD96AD76AD96AD55A5F6
:10F5100055A5D7B555AD718C3184EF7B0842A6391E
:10F520006110811061108110A218A220A220C320B6
:10F53000A218A218C318A218A218C218E3204431B6
:10F54000A2182429E3286118A2188218A2186110B1
:10F55000401061102010411082188C8B2EA4D1BC59
:10F5600073CDB4D5D4DDB4D573CD12C54FAC8EB345
:10F57000CCCA0DDB6EEBB0EB8FEB6FEB2EE30CCB5D
:10F580006DBB4FB432C5B4D516DE37E637E637E685
:10F5900036E636E615E6D4DD93D511C5B0BC2EAC03
:10F5A0008C93686AE65168628872C972C872A86AE8
:10F5B0006762265A6439000020082008A2188210C9
:10F5C000C3180421C318E3208210E31882108210AC
:10F5D000E420C31824290421E420E420A218E32015
:10F5E000E320A218C320C320E320A218E320E320D5
:10F5F000C318C318E320A2182429E320A2188210FC
:10F600006110032169526110CA5A3084F8BDB29466
:10F61000B2946E73494AD7BDD7BD39C676ADB7B57A
:10F62000D7B5F8BDF8BDF7BD18BEF8BDF7BDD7B565
:10F63000D7B5D7B5B7B596AD96AD76AD76AD75AD58
:10F6400055A555A535A515A5149D149DF49CF39CB1
:10F65000D394B394B394928C928C728C8E6BAF7360
:10F66000CF73CF73F07BF07BF07B107C1084318400
:10F6700051845184728C728C928C928CB394D394FA
:10F68000B394D394F49C149D149D34A535A535A54D
:10F6900055A575AD76AD76AD55A596AD96AD96AD45
:10F6A000B7B555A575AD1084D39CD39CEB5A695260
:10F6B00061106110811081108218C2208218C3204D
:10F6C000C2186110C318C31882108110C2184531C6
:10F6D000C22082180329C32061188118611861189B
:10F6E00061104110401041100000A641CD938FAC35
:10F6F00032C594D5D5DDD5DDB4D573CD31C5AFB424
:10F700006FAC0EB40EB40EB40EB42EB44EB48FB4AF
:10F71000F1C473CDD4DDF5DD16E636E616E616E661
:10F7200036E616E6F5DDB4DD52CDD0BC4EAC8B939B
:10F73000886AE651686AC972E97AE97AE97AC97A27
:10F74000A8724762C549400820082108821082102B
:10F75000C3180421E3208210A3186210821041080C
:10F76000E320C318C3186531C31804210421A2186B
:10F77000E3208218C320E3200321C218C318E3202A
:10F78000E320C318A218A218E320C3188210821025
:10F79000A218611086318531AA522C632D6B34A5D5
:10F7A000B394C739308455AD55A5F8BD39C6D7B522
:10F7B00039C618BE18BE18BEF8BDF8BDF8BDF7BDF5
:10F7C000D7B5D7B5B7B596AD96AD76AD76AD76ADC6
:10F7D00055A555A535A515A5149D149DF49CF39C20
:10F7E000D394D394B394928C928C728CAE73AF7387
:10F7F000CF73CF73F07BF07BF07B107C318431844E
:10F8000051845184728C928C928CB294B394928C69
:10F81000D394F49CF49CF49C149D149D34A535A5BC
:10F8200035A535A535A555A576AD76AD76AD96ADA4
:10F8300096AD96AD14A5728C149DAE7B4D6B653163
:10F84000611081106110A218A218A2188218A218C3
:10F85000C21881108210E32061106110C22024318F
:10F8600082186110C320C2208218611061188118AB
:10F87000611040084010000061100000A9620EA451
:10F88000D1BC53CDB4D5F6DDF6DDD5DDB4D573CD21
:10F8900032C5F1C4D0BCB0BCB0BCF1BC11C552CDB6
:10F8A00094D5F6DD57E637E637E657E636E636E630
:10F8B00016E616DED4DD73D5F0BC2EAC8C938872C0
:10F8C000C551686AC972E97A298309832983098342
:10F8D000E872686AE6514431000041086110611025
:10F8E0000321C318A218A218821041086110410810
:10F8F000E320C318A21804210421E4202429C318FA
:10F90000C318A218C220C320E320C318A318E32001
:10F91000C318C318A218A2186110C318E320410825
:10F92000611082108218A2186531AF736D6B494A5D
:10F930006952518CD7B5728CD7BDB7B5F8BD17BE1B
:10F9400039C618BE18BE18BEF8BDF8BDF7BDF7BD64
:10F95000D7B5D7B5B7B597B596AD96AD76AD75AD0C
:10F9600055A555A535A535A5149D149DF49CF49C6D
:10F97000D394D394B394B294928C728CAF73AF73CC
:10F98000CF73CF73F07BF07B107C30843184318473
:10F990005184718C728C728C928C928C928CD394D8
:10F9A000D394F39CF49C149D149D35A535A555A5C1
:10F9B00055A575AD76AD96AD96AD96AD96AD96ADB9
:10F9C00096AD35A555A5D39C9294CB5ACF7BA21862
:10F9D00082108110A21882188110A218A218821811
:10F9E000A2186110A21882108210410882182431D6
:10F9F000811061104010E320A22081182010811096
:10FA000061106110611000082008200800084C8374
:10FA10004FACF2BC94D5F5DD36E637E617E616E6D0
:10FA2000F5DDD5DDD5DDD5DDB5D5D5DDF5DD36E6C4
:10FA300037E678EE98EE98EE78EE57EE36E616E674
:10FA4000F5E5F5DD93D511C52EAC6B8B476AA5495D
:10FA50004762E97A29834A8B4A8B6A8B4A8B2A83CD
:10FA6000097BA8726762E651821820004108811064
:10FA7000A2188218A2184108611061106110410893
:10FA8000A2188210E320A3184529C31804212429B1
:10FA9000C218E320A218E320E320C218A218E32032
:10FAA000C318E320A218A21882106110A2186110D6
:10FAB00061106110E3208218A2182D6B4D6B284A4B
:10FAC000242996B596ADD7B5D394D7BDD7B5F7BD94
:10FAD00039C618BE18BE18BEF8BDF8BDF8BDF8BDD1
:10FAE000D7B5D7B5B7B5B7B596AD96AD76AD76AD5A
:10FAF00055A555A555A535A5149D149DF49CF49CBC
:10FB0000D394D394B394928C928C928CAF73AF7342
:10FB1000CF73EF7BF07BF07B107C30843184518499
:10FB200051845184728C928C928C928CB394D39425
:10FB3000D394F49CF49C149D149D359D35A555A536
:10FB400055A555A576AD96AD96AD96ADB7B5B7B5FD
:10FB500076AD55A555A5B294AF7B10848A52A218F4
:10FB6000C2188110A218A21861108218C218611060
:10FB700082188210821061104108410861102431FE
:10FB80008218200820108118C32081186118601085
:10FB9000400820082008200800080000000061102C
:10FBA000AD9390B453CDD5DD16E657EE58EE78EE12
:10FBB00078EE98EE78EE98EE78EE98EE98EEB9EE54
:10FBC000D9F6B9EED9F6B9F678EE57EE36E616E67E
:10FBD000D5DD93D5F1C42EAC4B8B065AA4494762B0
:10FBE000E97A2A838B938B938B938B938B936B8B79
:10FBF0002A8BE97AA86A8441443100086110821096
:10FC00006110821020084108611041084108410834
:10FC1000A2188210A218C31824290421C318242969
:10FC2000E320E320E320C320C218C218A218E32077
:10FC3000A218E320E320A218821081108210611024
:10FC400082106110E3200421A218A639EC628631EB
:10FC50006E6B2942108439C618BE929496AD39C68F
:10FC600039C618BE18BE18BE18BEF8BDF8BDF7BD1F
:10FC7000D7B5D7B5B7B5B7B5B6B596AD96AD76AD80
:10FC800075AD55A555A535A534A5149D149DF49CB9
:10FC9000D394D394B394B294928C928CAF73CF7369
:10FCA000CF73F07BF07B107C107C107C318451840E
:10FCB0005184728C728C728C728CB394B394D39482
:10FCC000D394F49CF49C149D149D35A535A555A59D
:10FCD00055A576AD76AD76AD96AD76AD76AD35A55E
:10FCE00034A596B596ADF39C8952518C6531A21816
:10FCF000A218A2188110A2186110A218A2188210CE
:10FD0000A21882108210821061108110C21803297B
:10FD10008118200840084008A220A22061188118FC
:10FD20006118400861100008000800000000000091
:10FD3000E3282EA4F2BC94D515E657E698EE98F683
:10FD400098EEB9EED9F6D9EED9EED9EEF9F6FAF683
:10FD50001AF7FAF6B9F698EE77EE36E616E6D4DD3F
:10FD600073D5F1C42EAC2A83C55184494762E97A20
:10FD70004A8B8B93CC9BEC9BCC9BCB9BAB93AB9359
:10FD80008A932A8B676A6762A541C220411061107D
:10FD90006110410841084108200840084108410815
:10FDA0006110A2186210C318E4204529E320032142
:10FDB0000421C2180421C318C218C320A218E320CA
:10FDC000A218C3184529E3206110A2188110611000
:10FDD000A2186110A2182429E7410421C739C739A4
:10FDE000B294EF7BEF7B718C96ADD7B5518C9ACEE8
:10FDF000F8BD38C618BE18BEF8BDF8BDF8BDF8BDD0
:10FE0000F7BDD7B5D7B5B7B5B6B596AD76AD76ADC6
:10FE100075AD55A555A535A535A5149D149DF49C26
:10FE2000F39CD394B3949394928C928CAF73CF73CE
:10FE3000CF73EF7BF07B107C107C31843184518454
:10FE40005184728C928C728C92949394B394D394C8
:10FE5000D394F49C149D149D149D35A535A535A50A
:10FE600035A555A555A575AD76AD96AD96AD76ADD6
:10FE700035A5D49C518C8E73AB5A28426531C2187B
:10FE8000A218A2188110A21882186110A21881105D
:10FE9000821082108210A218611020088118C220DE
:10FEA0006110200840082008821881188218611803
:10FEB00081188110200820080008000000000000C0
:10FEC000000044316FAC32CDD5DD16E678EE98EE09
:10FED00099F6B9F6D9F6D9F6FAF6FAF6D9F6FAF6A7
:10FEE000D9F6D9F698EE57EE37EEF5E5B4D553CD01
:10FEF000D0BC0DACE97A6441A549265AC97A4A8B2F
:10FF0000CC9BEC9B0CA42DA40CA4ECA3ECA3CB9B4E
:10FF1000CC9B6A932983E97A6439C2206110200856
:10FF20004108200841082008000020084108410835
:10FF30006110821082108210E32045290421E32001
:10FF40000421C218C320C320A218C3188218C318E2
:10FF5000A218032104218631821081106110A21899
:10FF600061104108A21844290421CB5A4529494A65
:10FF7000718C6D6BB294B39435A5B7B5F07B59C64F
:10FF800018BE39C638C618BE18BE18BEF8BDF8BDB2
:10FF9000F7BDD7B5D7B5B7B596AD96AD96AD76AD3D
:10FFA00076AD55A555A555A534A5149D149DF49C75
:10FFB000D394D394B394B394928C928CAF73CF7345
:10FFC000CF73F07BF07B107C107C118431845184E2
:10FFD0005184728C928C728CB2949394B394D39417
:10FFE000F39CF49CF49C149D149D149D34A535A59C
:10FFF00055A555A555A555A576AD76AD35A555A5FF
:020000040801F1
:1000000014A514A5518C8E6BD39CEB622429821805
:10001000C218811082188218821881108218A218C2
:100020008210811082104108200840088118611058
:1000300061102008200840084008A21861108118AB
:100040006118611041104108210800000000000003
:100050000000000044316FB432CDB5DD16E657EE36
:1000600078EEB9F6D9F6D9F6F9F6D9F6B9F6B9F6C1
:1000700098EE78EE37EE16EED5DD93D511C58FB438
:10008000CC9B47620331A449065AA8722A83AC9BD1
:10009000ECA30DAC2DAC2DAC2DAC0CA40CA4ECA39E
:1000A000AB9B8B93E97AE6510329C2206110611062
:1000B00000002008410820080000200861104108C5
:1000C00061108210A2186110A21824294529042168
:1000D0000421C218A218E320C218E320A218A21813
:1000E000C318E320C739452925216110821061100A
:1000F00082106110C318E320C739CB5A45290C631D
:10010000AE73308414A535A5D39C96B596B5718C85
:1001100059C639C618BE18BE18BE18BEF8BDF7BD00
:10012000D7B5D7B5D7B5B7B5B6B596AD96AD96AD8B
:1001300076AD55A555A555A535A5149D149D149DC1
:10014000F39CF394B394B394928C928CAF73CF736B
:10015000EF7BEF7BF07B107C3084318451845184C1
:100160005184728C728C928C928CB394D394D3946D
:10017000F39CF49C149D149D34A535A555A555A557
:1001800075A576AD76AD96AD96AD55A5149D76ADBB
:1001900035A5149D318430840B63E741A639811065
:1001A000A218A2188218811081108110811082106B
:1001B0008210821061102008200820088118200871
:1001C0004108400800086110400881108118611042
:1001D0006110611061082008210800000000000083
:1001E00000000000000081182FA432CD94D5F6E560
:1001F00057E678EEB9EED9F6B9F698EE58EE57E62E
:1002000037EEF6E5D5E573D532CDB0C40EAC0A8332
:10021000434103318541E659886A2A83AB93ECA3B5
:100220002DAC4DAC6EB46EB44EB42DB40DACECA38D
:10023000ECA3E98226620652233182188110A220A3
:1002400020082008200820080000400861106110E4
:1002500061106110821082108210E3204529242948
:10026000E32004218218C320A218C318C318A218BF
:10027000E320A218484AC73908424108811061109A
:1002800041084108E32004216952E8414D638A5244
:100290002D63CF7376ADF49C96B5928C96B5F49C95
:1002A00034A559C638C618BE18BEF8BDF8BDF8BD8D
:1002B000F7BDD7B5D7B5B7B5B7B596AD96AD96ADD1
:1002C00076AD55A555A555A535A5349D149DF49C31
:1002D000F39CD394D394B394928C928CAF73CF73DA
:1002E000CF73F07B107C107C308431845184518436
:1002F0005184728C728C928C9394B394D394D394D3
:10030000F49CF49C149D149D34A534A535A555A5E5
:1003100075A576AD96AD55A555A555A596AD96ADE9
:1003200014A5F07BB2948E73AA52C741E320A218A1
:10033000A2188218A218811061108110A2188210D0
:10034000821082102008200820080008A218000847
:10035000200861104108611041106110A21861105D
:10036000611020082108410820080000000000005A
:10037000000000002000000000000A7BB1BC53D543
:10038000D5DD37E657E657EE37E6D5E5B5DDB4DD22
:1003900073D532CDB1C42FB4CCA30A83A549E228CA
:1003A0004339A549E659886A09838B930DA44DAC5E
:1003B0004EAC8EB48FB48EB46EB44DB42DB44DB477
:1003C0000CA4C97A886A265A24316110A118854183
:1003D0006539000000002008410800004008611055
:1003E0008110611082106110A21882180421242942
:1003F0000421E320A318C318C320A218C318C318EC
:10040000E320C32028428A52A63161106110821075
:1004100061106110E320A218494AC739EF7B6A5284
:1004200010843184EF7BB394B7B5929418C6F8BDAD
:10043000F39C39C639C618BE18BE18BE18BEF8BD22
:10044000F7BDD7B5D7B5B7B5B7B596AD96AD96AD3F
:1004500076AD75AD55A555A535A5149D149DF49C97
:10046000F49CF39CD394B394B394928CCF73CF73D6
:10047000EF7BF07BF07B107C107C318451845184C5
:10048000728C728C728C928CB394B394D394D394F8
:10049000F39CF49C149D149D35A535A555A555A533
:1004A00035A535A535A576AD96AD35A596ADB7B5CF
:1004B000D39C518CEF7BAE7B6D6B4429A218C21884
:1004C000A2186118C32081106110A2188210821036
:1004D000A21841080000400840080000C2180008A7
:1004E00020088110A218611061106110400881106D
:1004F0004108410821084108410800002108000086
:1005000000000000000000000000000024318C9377
:1005100090BC32D573D553D553D5F2C490BC4FB4EB
:10052000EEAB8C9B2A8B476A4441A1200331644186
:100530008549065A876A0983AC930DAC4EAC6EB4FC
:100540008FBCAFBCAFBC8FBC6FBC6EBC6EB4EFC415
:100550000983097B4A834439A5494110A5412A7B77
:100560000652075220080000400841082008611088
:1005700061108210821061108210A21804212529B6
:1005800004210421E3208210C318C320C318E320F0
:10059000C318C3180842EB5A494A41108210410857
:1005A000821040086110A218A6392D6B4D6B8A523B
:1005B000518C728C35A592940C5B14A576ADB7B5B1
:1005C00055AD39C618BE18BEF8BD18BED7B5F8BDB2
:1005D000F8BDF7BDD7B5B7B5B7B5B7B596AD96AD5C
:1005E00076AD75AD55A555A535A515A5149D149DDC
:1005F000F49CF39CD394B394B294B294CF73CF731E
:10060000EF7BF07B107C107C3084318451845184EA
:10061000728C728C728C928CB394B394D394D39466
:10062000F49C149D149D149DF49CF49C149D149DA5
:1006300055A576AD96AD96AD76AD76AD55A596AD94
:10064000B394D39C4D6BEB5A284AA218A218A21857
:1006500082188118A22081108110A2188210C2185D
:10066000611020084108410820082008811820084E
:10067000A218C218A21881108110611061104008E0
:1006800041084108410841084108000041080000B4
:100690000000000000000000000000000000410811
:1006A0000331275AC97A0A83EA82A972686A065A0C
:1006B000C5494339C228A120C22823316441A54934
:1006C000065A676AE97A8B930DA46EB48FBCAFBCEF
:1006D000D0C4F0C4D0C4D0C4AFC4AEBCCFC4CCA3CB
:1006E00029830DA4676A475AC9722010A5412EA418
:1006F000E97A886A06522008000020086110410843
:1007000082104108C21882106110A218A218242970
:100710000421E320A218C320C320E320C320C31870
:10072000C320A21807426E6B694AA21061106110C3
:100730008210611082106110E7416E6B694A8E73FE
:100740004D6B96AD39C6929439C6B6B5718C9294FC
:10075000B39496B5D7B5F8BD38C6D7B5F7BD18BEB2
:10076000F7BDF7BDD7B5D7B5B7B5B6AD96AD96ADB4
:1007700076AD76AD55A555A535A535A5149D149D29
:10078000F49CD394D394D394B394B294CF73CF7393
:10079000F07B107C107C107C308451845184718CEF
:1007A000718C728C728C928CB394D394D394F39C8E
:1007B000D394F49CF49C149D35A535A555A555A559
:1007C00075AD76AD96AD96AD34A555A596AD96AD05
:1007D0003184718CCB5ACB5AA63982188210A21858
:1007E00082188118A2186110C320A218A2188210C2
:1007F0004008410861104108000061108118C218CA
:10080000A218C218E320611061106110400841086D
:10081000410861082108410820002000210800004B
:100820000000000000000000000000000000611057
:10083000C220811081188118A118A118A118A1182F
:100840008120C220C228E33023394439A549065A01
:10085000676AE97A8B93ECA36EB4AFBCF0C4F0C4C2
:1008600011C5F0C4F0C4F0C4F0C410CDAFBC2DB4B9
:10087000C87A4DAC2983E97AE97AA86A4010E6493A
:100880004B830DA46B8B475A40080000410882102F
:10089000811061108210C21861108210A218A21873
:1008A0002429C318E320C318C318C318C320E320A6
:1008B0008218C32085313084C7394108E3204108BC
:1008C0006110A21861104108EF7B6A4A0B636E6BDE
:1008D000B29459C69294D7B559C659C639C655A5CA
:1008E000D49C35A539C6D7B5B6B5B7B5D7B5D7B544
:1008F000F8BDF7BDD7B5D7B5B7B596AD96AD96AD42
:1009000076AD76AD55A555A535A535A5149D149D97
:10091000F49CF39CD394D394B394B394CF73EF73B8
:10092000F07B107C107C107C318451845184718C5C
:10093000728C728C728CB294B394B394B394D3943B
:10094000F49C149D149D14A5149D35A555A555A57D
:1009500055A555A555A576AD76AD76ADD7B514A5FB
:1009600031840C63EB5A8A52C220A2188218A21852
:10097000811003216110E320E320C3208210611065
:1009800081108210611041084108A218C320A218EA
:10099000C320E320A21841108210410841084108F9
:1009A00041086108410841080000210821080000B1
:1009B00000000000000000000000000000004110E6
:1009C0000329A220C220C228C228C228C228C228C5
:1009D000C228E228033124396441A549065A6762D6
:1009E000C87A4A8BCB9B2DAC8FBCD0C4F0C411CD40
:1009F00032CD11CD11CD11C531CD31CD4EB4ECA3D9
:100A00006A8B4DAC6B93ECA32A832A83E651C228F0
:100A1000E328A5412A7BCD93A96A611041086110A2
:100A20008210611082108210A21882108110A21808
:100A300004210421A218C318C3188210C320C318AC
:100A4000A218A21886316E6BC639610824294108A4
:100A50006110C3188210611031846952AA52AF73B9
:100A6000F8BD92945ACE59C6F8BD59C618BE35A5E0
:100A700039C635A596AD38C618BE38C6F8BD96AD90
:100A8000B7B5D7B5D7B5D7B5B7B596B596AD96AD19
:100A900076AD76AD55A555A535A535A5149D149D06
:100AA000F49CF49CD394D394B394B294CF73CF7347
:100AB000F07BF07B107C308431843184518451840C
:100AC000718C728C728CB394B394B394D394F39C62
:100AD000F49C149D149D149D35A514A5149D34A556
:100AE00035A576AD76AD96AD35A555AD96ADAE7363
:100AF000B39469528D6B6531C2188218A21881189F
:100B0000C218A218C3200321C21861106110A218D4
:100B1000A218811041108110C220C220E320242994
:100B2000E320C318821841104108610821084108D8
:100B300041086110410841082008410800000000F8
:100B4000000000000000000000000000000020087D
:100B50004431C220E320E228E228E228E228E22809
:100B6000E328033144396441A549E6512762A8725C
:100B700009838B93ECA34EB48FBCD0C411CD31CD7F
:100B800052D552CD52CD51CD52D5B0BC6EB4F0C479
:100B9000A872CB9B0DAC0CA4AB9B8B932A832A83AE
:100BA000A54161186110A5412A7B485A200882108E
:100BB0006110A2186110A2184108A218A218821090
:100BC000A2182429C318C318A218A218A218C32057
:100BD000A21861102429CB5AC2184108A21861102A
:100BE0004108821061102429F07B284A284239C626
:100BF000929459CE39C659C6F7BD39C659C676AD95
:100C0000B7B518BE76ADD7B5D7B5B7B5D7B5D7B5E3
:100C100096ADB6B5B7B5D7B5B7B596B596AD96ADF1
:100C200096AD76AD55A555A535A535A5149D149D54
:100C3000F49CF49CD394D394B394B394CF73EF7B8C
:100C4000F07B107C30843084318451845184718CE9
:100C5000728C728C728CB394B394D394D394D394D7
:100C6000D394D394D394F49CF49C149D55A555A58A
:100C700075AD76AD96AD76AD55A596AD55A5F07B27
:100C8000AE7B6D6B284AA220A218A220A218611880
:100C9000A218E320E320E3206110C2180321A21868
:100CA000A320C3200321C320C220C320C320E320EC
:100CB000C218A218C3202008410841082008410892
:100CC0002008621020084108200041082000000090
:100CD0000000000000000000000000000000000014
:100CE00064390329E32803312331233123310331CC
:100CF000233144396441A549E551065A686AE97AC5
:100D00004A8BAB9B0CA42DB46FBCAFC411CD31CDBD
:100D100031CD31CDF1CC33D554DD30CC0FB48FACE7
:100D200033BDB1AC509C2A83E551CA6AEF8BEF8B7F
:100D3000F2AC5094CF83E741A2188439C6496110C0
:100D4000A218C318C318E320611082108210A218E1
:100D5000A218C318E320C218A218A218A218C32010
:100D6000C318A21861106E73611081106110200801
:100D70008110811041086531EB62E7413084929423
:100D800018C659C659C659C618BE59C659C6D7B588
:100D9000B6B5F8BD96AD18BEF7BDD7B5D7B518BE78
:100DA000F7BDD7B5B6B576ADB7B596AD96AD96AD40
:100DB00076AD75AD55A555A515A535A5149DF49C25
:100DC000F39CF39CD394B394B394B394AE73CF7366
:100DD000CF73EF7BEF7BF07BF07B107C107C31845A
:100DE000318431843184728C928C928C928CB39445
:100DF000F49C149D149D34A535A535A535A555A5A0
:100E000076AD76AD55A535A535A5D7B5CF7BEF7BAE
:100E100007420C630329A218A220A218821882108C
:100E2000E3200429C318C3200429E320C32003219D
:100E30000429E328A218A220A220C320A218E3209C
:100E4000E320E320A210610841084108210861085D
:100E500041086108410841082108210820000000DC
:100E60000000000000000000000000000000000082
:100E7000854144310329033124310329E2286541A6
:100E80002331033143398441C549065267622A83BD
:100E9000AB9BECA3ECA32DB46EBCF1CC53D594DD8D
:100EA00034D5B2D4B2DCF4E4F3D49AE61CE73DE7DF
:100EB000FFFF5DE79EF73DE7DBDE34ADD3A4308C6A
:100EC000AF7B8E7B10847AD6B7B5308CA6390329D8
:100ED00061108218A218C320A218A2186110611014
:100EE000A2188210C318A218A218A218A218A21839
:100EF000C318A218E320E32061104108410820082C
:100F00006110A2184108242965312C6B14A5149D89
:100F100039C659CE7ACE59C618BE59C6B7B559C6C4
:100F2000B7B5F8BD75AD18BEF8BD18BED7B5D7B505
:100F3000F8BDD7B5D7B5B7B555A559C6F8BDD7B51E
:100F400039C6B7B5B7B5F8BD38C6149DB6B576ADD8
:100F500039C655A5F7BD55A5149DB294CF7BEF7B3F
:100F6000F07B107C107C3184318451845184728CEC
:100F7000728C928C728C928CB394D394D394F49C94
:100F8000D394D394F49CF49C149D35A555A555A5F4
:100F900076AD76AD76AD55A535A5D39CAF7BAA5A77
:100FA0006952C739C220A218A220A2188218E320D1
:100FB000E320042103210429C320C320A220C3204D
:100FC000C218A2188218A2208118C318C318E320DF
:100FD000A218A21882186210410861102000611046
:100FE0004108611041084108410841080000000023
:100FF00041080000000000000000000000000000A8
:10100000854185412331A22043398C9311D552DD8E
:1010100073DD12C590B44EAC4EAC2EAC4FBC8FBC41
:10102000F0C4B0C44EB4F1D453DD53DD33DDD3D4BA
:1010300051CC30CCEFCB95D5FFFF7ACE9EF71CDF9D
:101040007DF779D63CEFBEF7FBDEDFFF7DEFDBDE21
:101050005DE7FCDED7BD8E7B108CF8C5B7BD8D7B00
:10106000695AE320A2188210E320C318A218811045
:101070008210C318A218A2188210A218A2188210F7
:101080008210C320A218E3208110410840084108C3
:10109000410882104108E741C218718C728C59CE08
:1010A0007ACE79CE79CE7ACE18BE7ACE96AD59C6A2
:1010B000D7B5F8BDF49C39C6F8BD18BEF8BD96ADDD
:1010C000F8BDF8BDD7B5B7B5B6B555A596AD96ADD3
:1010D00096AD96AD76AD76AD55A535A535A5149DE5
:1010E000149D149D149DD394D394B394CF7BF07B23
:1010F000F07B107C307C3184318451845184728C3B
:10110000728C728C928C928CD394D394D394F49CE2
:10111000F49C149D149D14A535A535A535A555A59C
:10112000F49CD394D394B394B3943084AA52695268
:10113000AA5A4531A220A2208218A218C218E32080
:101140004429E320E3200329C320E320C320A2187D
:10115000E420A218811881108110A2186210A3182F
:10116000C31882108210A2182000610820086108AC
:1011700041086108410821082008210820000000DA
:101180002108000000000000000000000000000036
:101190006539A649A96A70ACB4E5B4DDF6E517EE89
:1011A00058EE78F678F657EED5EDB5E5B5E595E568
:1011B000B5E595E595E554DD13D574DD34D5B1CCB1
:1011C000CEC30FC459DE7DEF1CE779D616D652CDBB
:1011D00093D594D5B4D5F2BC99DEBEF7BAD69EF7B6
:1011E000DBDEFCDE5DE79EEF39C6108C96B539CEAE
:1011F00034ADCF7BC6410429E320C220C31882103E
:101200008218C3208210A218A2188110A218C31835
:101210006110A218C320A218C21882100000200872
:1012200081108210611024294429F07B718C18C62A
:101230009ACE59C659C69ACE18BE18BE39C639C6F6
:10124000D7B5F8BDF49C59C6F8BD18BE18BED7B5C1
:10125000B7B5F7BDF7BDD7B5B7B596AD35A596AD62
:1012600076AD76AD55A555A555A535A5349D149DEE
:10127000F49CF49CD394D394B394B3940010C8001A
:10128000C800011B2C2B6D336D2B6D2B8E336D2BFA
:101290006D2B6D336D336D336D2B6D2B6D2B6D2B76
:1012A0006D2B6D2B6D2B6D2B6D2B6D2B6D2B6D2B7E
:1012B0006D2B4D2B4D2B6D2B6D2B6D2B6D2B6D2BAE
:1012C0006D2B6D2B8D338E33AF3BEF43A92A19CF96
:1012D000DBF7FBFFFCFFFBFFFBFFFBFFFBFFFBFF65
:1012E000FBFFFBFFFBFFFBFFFBFFFBFFFBFFFBFF2E
:1012F000FBFFFBFFFBFFFBFFFBFFFBFFFBFFFBFF1E
:10130000FBFFFBFFFBFFFCFF7AFF70C430D491CCE6
:101310009BFFFCFFFBFFFBFFFBFFFBFFFBFFFBFF5C
:10132000FBFFFBFFFBFFFBFFFBFFFBFFFBFFFBFFED
:10133000FBFFFBFFFBFFFBFFFBFFFBFFFBFFFBFFDD
:10134000FBFFFBFFFBFFFBFFFBFFFBFFFBFFFBFFCD
:10135000FBFFFBFFFBFFFBFFFBFFFBFFFBFFFBFFBD
:10136000FBFFFBFFFBFFFBFFFCFFFCFFF7CEEF8C5F
:10137000FBFFFCFFFCFFFCFFFBFFFBFFFBFFFBFF9A
:10138000FBFFFBFFFBFFFBFFFBFFFBFFFBFFFBFF8D
:10139000FCF7B7CEF9EE90B410C4CFCBCFBBC97277
:1013A0001AEFDCF7DBFFFBFFFBFFFBFFFBFFFBFFA5
:1013B000FBFFFBFFFBFFFBFFFBFFFBFFFBFFFBFF5D
:1013C000FBFFFBFFFBFFFCF7939D682ACA326A2AEA
:1013D00069226922481A281A281A081A081A081AAB
:1013E000081A081A081AE819E819E719E719E81994
:1013F000E719C711C719C711C711C711C719A6190E
:10140000A619A619A619A619A619A619A619A611EC
:10141000A611A6110C234D2B6D336D336D2B6D2B47
:101420006D2B6D336D336D2B6D2B6D2B6D2B6D2BEC
:101430006D2B6D2B6D2B6D2B6D2B6D2B6D2B6D2BEC
:101440006D2B6D2B6D2B6D2B6D2B4D2B6D2B6D2BFC
:101450008D338D338D33AE33CF3B6C3B2E64FDF734
:10146000FCFFFBFFFCFFFBFFFBFFFBFFFBFFFBFFAA
:10147000FBFFFBFFFBFFFBFFFBFFFBFFFBFFFBFF9C
:10148000FBFFFBFFFBFFFBFFFBFFFBFFFBFFFBFF8C
:10149000FBFFFBFFFBFFFBFF15DE30C410D4D2D4F3
:1014A0009BFFFCFFFBFFFBFFFBFFFBFFFBFFFBFFCB
:1014B000FBFFFBFFFBFFFBFFFBFFFBFFFBFFFBFF5C
:1014C000FBFFFBFFFBFFFBFFFBFFFBFFFBFFFBFF4C
:1014D000FBFFFBFFFBFFFBFFFBFFFBFFFBFFFBFF3C
:1014E000FBFFFBFFFBFFFBFFFBFFFBFFFBFFFBFF2C
:1014F000FBFFFBFFFBFFFBFFFCFFFCFFBBEF0C74E4
:1015000059E7FCFFFCFFFCFFFBFFFBFFFBFFFBFFC2
:10151000FBFFFBFFFBFFFBFFFBFFFBFFFBFFFBFFFB
:10152000FCF718D739E7D4CD0FBCEFCB10CC4C9BD0
:101530006F9CFCFFFCF7FBFFFBFFFBFFFBFFFBFFD0
:10154000FBFFFBFFFBFFFBFFFBFFFBFFFBFFFBFFCB
:10155000FBFFFBFFFBFFFCFFDCEF8C5BCA32AA2A20
:10156000AA22891A491A2922281A081A081A081AB6
:10157000081A081A081AE819E719E719E719E71904
:10158000E719E719E719E719C711C711C719C619EC
:10159000C619C619C619C719C719C619C619C61951
:1015A000C619C619EC224D2B6D334D2B6D2B6D2BAF
:1015B0006D2B6D336D336D2B6D2B6D2B6D2B6D2B5B
:1015C0006D2B6D2B6D2B6D2B6D336D336D336D2B43
:1015D0006D2B6D2B6D2B6D2B6D336D2B6D2B8E331A
:1015E0008E338D33AE33CE33EF43C92A5ACFFCF757
:1015F000FCFFFBFFFBFFFBFFFBFFFBFFFBFFFBFF1A
:10160000FBFFFBFFFBFFFBFFFBFFFBFFFBFFFBFF0A
:10161000FBFFFBFFFBFFFBFFFBFFFBFFFBFFFBFFFA
:10162000FBFFFBFFDBFF9AFF90BC30CCF0D313DD58
:10163000BBFFFCFFFBFFFBFFFBFFFBFFFBFFFBFF19
:10164000FBFFFBFFFBFFFBFFFBFFFBFFFBFFFBFFCA
:10165000FBFFFBFFFBFFFBFFFBFFFBFFFBFFFBFFBA
:10166000FBFFFBFFFBFFFBFFFBFFFBFFFBFFFBFFAA
:10167000FBFFFBFFFBFFFBFFFBFFFBFFFBFFFBFF9A
:10168000FBFFFBFFFBFFFBFFFBFFFCFFFCF7F3B5E2
:10169000B3ADFCFFFCFFFBFFFBFFFBFFFBFFFBFF12
:1016A000FBFFFBFFFBFFFBFFFBFFFBFFFBFFFBFF6A
:1016B000FCF7F8D6D7D69AF770B40FCCEFD3CFBBE0
:1016C000EA729BF7FCFFFBFFFBFFFBFFFBFFFBFF4F
:1016D000FBFFFBFFFBFFFBFFFBFFFBFFFBFFFBFF3A
:1016E000FBFFFBFFFBFFFBFFFCFF5AD76832EA2A38
:1016F000CA22A922491A492228222822081A081A8D
:10170000081A081A081A081AE819E819E819E7194E
:10171000E719E819E719E719E719E719E719C719E8
:10172000C611A611A611C711C711C719C719C6112D
:10173000A611A611CB220C2B4D2B4D2B4D2B6D2B17
:101740006D2B6D2B6D336D2B6D2B6D2B6D2B6D2BD1
:101750006D2B6D2B6D2B6D2B6D2B6D2B6D2B6D2BC9
:101760006D2B6D2B6D2B6D2B6D336D2B6D2B8E3388
:101770008E33AE33CE3BEF434C334F6CFCF7FBFF65
:10178000FBFFFBFFFBFFFBFFFBFFFBFFFBFFFBFF89
:10179000FBFFFBFFFBFFFBFFFBFFFBFFFBFFFBFF79
:1017A000FBFFFBFFFBFFFBFFFBFFFBFFFBFFFBFF69
:1017B000FBFFFBFFFBFF97EE4FC410CCEFD395E58B
:1017C000BCFFFCFFFBFFFBFFFBFFFBFFFBFFFBFF87
:1017D000FBFFFBFFFBFFFBFFFBFFFBFFFBFFFBFF39
:1017E000FBFFFBFFFBFFFBFFFBFFFBFFFBFFFBFF29
:1017F000FBFFFBFFFBFFFBFFFBFFFBFFFBFFFBFF19
:10180000FBFFFBFFFBFFFBFFFBFFFBFFFBFFFBFF08
:10181000FBFFFBFFFBFFFBFFFBFFFBFFFCFFDBF71F
:10182000AF8CFCFFFCFFFCFFFBFFFBFFFBFFFBFFA4
:10183000FBFFFBFFFBFFFBFFFBFFFBFFFBFFFBFFD8
:10184000FCFF7AE796C6FBF7F5D50FC4EFCBF0C3E4
:10185000EA8236CEFBF7FBFFFBFFFBFFFBFFFBFF44
:10186000FBFFFBFFFBFFFBFFFBFFFBFFFBFFFBFFA8
:10187000FBFFFBFFFBFFFBFFFBFFFCF76B5BEA3AA9
:10188000CA3289226922492249222822281A281A82
:10189000081A081A081A081A081AE819E819E8199B
:1018A000E819E719E719E719E719E719E719E71937
:1018B000C719C611C611C711C711C711C711C61163
:1018C000C611C611CB220C2B2D2B4D2B4D2B6D2B66
:1018D0006D2B6D2B6D336D2B6D2B6D2B6D2B6D2B40
:1018E0006D2B6D2B6D2B4D2B6D2B6D2B6D2B6D2B58
:1018F0006D2B6D2B6D2B6D2B6D2B6D338D2B8E33D7
:101900008E33AE33AE3BCF43EA325AD7FCF7FBFF00
:10191000FBFFFBFFFBFFFBFFFBFFFBFFFBFFFBFFF7
:10192000FBFFFBFFFBFFFBFFFBFFFBFFFBFFFBFFE7
:10193000FBFFFBFFFBFFFBFFFBFFFBFFFBFFFBFFD7
:10194000FBFFFBFFDBFF11BD0FC4F0D3F0D3F6EDBF
:10195000DBFFFCFFFBFFFBFFFBFFFBFFFBFFFBFFD6
:10196000FBFFFBFFFBFFFBFFFBFFFBFFFBFFFBFFA7
:10197000FBFFFBFFFBFFFBFFFBFFFBFFFBFFFBFF97
:10198000FBFFFBFFFBFFFBFFFBFFFBFFFBFFFBFF87
:10199000FBFFFBFFFBFFFBFFFBFFFBFFFBFFFBFF77
:1019A000FBFFFBFFFBFFFBFFFBFFFBFFFCFFFCFF65
:1019B0008F84BBF7FCFFFBFFFBFFFBFFFBFFFBFF85
:1019C000FBFFFBFFFBFFFBFFFBFFFBFFFBFFFCFF46
:1019D000FCFF9AE775BEFCF79BFF4FC4CECBF0CB64
:1019E000CEB34F9CFCFFFBFFFBFFFBFFFBFFFBFFAE
:1019F000FBFFFBFFFBFFFBFFFBFFFBFFFBFFFBFF17
:101A0000FBFFFBFFFBFFFBFFFBFFFCF776BE893212
:101A1000CA32AA2A8A2269224922281A281A281A8E
:101A2000281A081A081A081A0822081A081A081A7E
:101A3000E819E719E819E819E719E719E719E719A3
:101A4000E719C711C711E719E719C711C711C7115E
:101A5000C711C7118A22EC2A2D2B4D2B4D2B4D2B54
:101A60004D2B6D2B6D2B6D2B6D2B6D2B6D2B6D2BD6
:101A70006D2B6D2B6D2B4D2B4D2B4D2B4D2B4D2B46
:101A80004D2B4D2B4D2B4D2B6D2B6D2B6D338E33E5
:101A90008E33CE33EF3B4D3B4F6CDCEFFCFFFBFF57
:101AA000FBFFFBFFFBFFFBFFFBFFFBFFFBFFFBFF66
:101AB000FBFFFBFFFBFFFBFFFBFFFBFFFBFFFBFF56
:101AC000FBFFFBFFFBFFFBFFFBFFFBFFFBFFFBFF46
:101AD000DBFFDBFF9AF76FAC30CCF0D3EFCB77F6C0
:101AE000FBFFFBFFFBFFFBFFFBFFFBFFFBFFFBFF26
:101AF000FBFFFBFFFBFFFBFFFBFFFBFFFBFFFBFF16
:101B0000FBFFFBFFFBFFFBFFFBFFFBFFFBFFFBFF05
:101B1000FBFFFBFFFBFFFBFFFBFFFBFFFBFFFBFFF5
:101B2000FBFFFBFFFBFFFBFFFBFFFBFFFBFFFBFFE5
:101B3000FBFFFBFFFBFFFBFFFBFFFBFFFBFFFBFFD5
:101B400035BE56C6FCFFFCFFFBFFFBFFFBFFFBFFA8
:101B5000FBFFFBFFFBFFFBFFFBFFFBFFFBFFFCFFB4
:101B6000FCFFDBEF55BEFCEFDCFFD4DD0FC4CFCBB9
:101B7000CFC30A7B5AEFDBFFFBF7FBFFFBFFFBFF4B
:101B8000FBFFFCFFFBFFFBFFFBFFFBFFFBFFFBFF84
:101B9000FBFFFBFFFBFFFBFFFCFFDCF7FCF70E6C22
:101BA000C932AA2A8A226A2269224922281A281AB4
:101BB000281A281A281A081A081A081A081A081AB5
:101BC000E819E819E719E719E719E719E719E71913
:101BD000E719C711C711C711C711C711C711E711FD
:101BE000E711C7118A22CB222C2B4D2B6D2B4D2BAD
:101BF0004D2B6D2B6D2B6D2B6D2B4D2B4D2B4D2BA5
