Component: ARM Compiler 5.06 update 7 (build 960) Tool: armlink [4d3601]

==============================================================================

Section Cross References

    startup_stm32f10x_hd.o(RESET) refers to startup_stm32f10x_hd.o(STACK) for __initial_sp
    startup_stm32f10x_hd.o(RESET) refers to startup_stm32f10x_hd.o(.text) for Reset_Handler
    startup_stm32f10x_hd.o(RESET) refers to stm32f10x_it.o(i.NMI_Handler) for NMI_Handler
    startup_stm32f10x_hd.o(RESET) refers to stm32f10x_it.o(i.HardFault_Handler) for HardFault_Handler
    startup_stm32f10x_hd.o(RESET) refers to stm32f10x_it.o(i.MemManage_Handler) for MemManage_Handler
    startup_stm32f10x_hd.o(RESET) refers to stm32f10x_it.o(i.BusFault_Handler) for BusFault_Handler
    startup_stm32f10x_hd.o(RESET) refers to stm32f10x_it.o(i.UsageFault_Handler) for UsageFault_Handler
    startup_stm32f10x_hd.o(RESET) refers to stm32f10x_it.o(i.SVC_Handler) for SVC_Handler
    startup_stm32f10x_hd.o(RESET) refers to stm32f10x_it.o(i.DebugMon_Handler) for DebugMon_Handler
    startup_stm32f10x_hd.o(RESET) refers to os_cpu_a.o(CODE) for OS_CPU_PendSVHandler
    startup_stm32f10x_hd.o(RESET) refers to os_cpu_c.o(i.OS_CPU_SysTickHandler) for OS_CPU_SysTickHandler
    startup_stm32f10x_hd.o(.text) refers to system_stm32f10x.o(.text) for SystemInit
    startup_stm32f10x_hd.o(.text) refers to entry.o(.ARM.Collect$$$$00000000) for __main
    main.o(i.AppTaskLed1) refers to memcpya.o(.text) for __aeabi_memcpy4
    main.o(i.AppTaskLed1) refers to bsp_key.o(i.Key_Scan) for Key_Scan
    main.o(i.AppTaskLed1) refers to stm32f10x_gpio.o(.text) for GPIO_ReadOutputDataBit
    main.o(i.AppTaskLed1) refers to os_time.o(i.OSTimeDly) for OSTimeDly
    main.o(i.AppTaskLed1) refers to main.o(.constdata) for .constdata
==============================================================================

Removing Unused input sections from the image.

    Removing startup_stm32f10x_hd.o(HEAP), (512 bytes).
    Removing os_app_hooks.o(i.App_OS_ClrAllHooks), (100 bytes).
    Removing os_app_hooks.o(i.App_OS_IdleTaskHook), (2 bytes).
    Removing os_app_hooks.o(i.App_OS_InitHook), (2 bytes).
    Removing os_app_hooks.o(i.App_OS_SetAllHooks), (140 bytes).
    Removing os_app_hooks.o(i.App_OS_StatTaskHook), (2 bytes).
    Removing os_app_hooks.o(i.App_OS_TaskCreateHook), (2 bytes).
    Removing os_app_hooks.o(i.App_OS_TaskDelHook), (2 bytes).
    Removing os_app_hooks.o(i.App_OS_TaskReturnHook), (2 bytes).
    Removing os_app_hooks.o(i.App_OS_TaskSwHook), (2 bytes).
    Removing os_app_hooks.o(i.App_OS_TimeTickHook), (2 bytes).
    Removing stm32f10x_it.o(i.PendSV_Handler), (2 bytes).
    Removing stm32f10x_it.o(i.SysTick_Handler), (2 bytes).
    Removing bsp.o(.data), (4 bytes).
    Removing bsp_usart1.o(i.USARTx_Config), (128 bytes).
    Removing bsp_usart1.o(i.fgetc), (32 bytes).
    Removing bsp_usart1.o(i.fputc), (36 bytes).
    Removing bsp_key.o(i.Key_ReadStatus), (34 bytes).
==============================================================================

Image Symbol Table

    Local Symbols

    Symbol Name                              Value     Ov Type        Size  Object(Section)

    ../clib/microlib/init/entry.s            0x00000000   Number         0  entry.o ABSOLUTE
    ../clib/microlib/init/entry.s            0x00000000   Number         0  entry8b.o ABSOLUTE
    ../clib/microlib/init/entry.s            0x00000000   Number         0  entry9a.o ABSOLUTE
    ../clib/microlib/init/entry.s            0x00000000   Number         0  entry9b.o ABSOLUTE
    ../clib/microlib/init/entry.s            0x00000000   Number         0  entry10a.o ABSOLUTE
    ../clib/microlib/init/entry.s            0x00000000   Number         0  entry10b.o ABSOLUTE
    ../clib/microlib/init/entry.s            0x00000000   Number         0  entry11a.o ABSOLUTE
    ../clib/microlib/init/entry.s            0x00000000   Number         0  entry11b.o ABSOLUTE
    ../clib/microlib/init/entry.s            0x00000000   Number         0  entry8a.o ABSOLUTE
    ../clib/microlib/init/entry.s            0x00000000   Number         0  entry12a.o ABSOLUTE
    ../clib/microlib/init/entry.s            0x00000000   Number         0  entry7b.o ABSOLUTE
    ../clib/microlib/init/entry.s            0x00000000   Number         0  entry7a.o ABSOLUTE
    ../clib/microlib/init/entry.s            0x00000000   Number         0  entry12b.o ABSOLUTE
    ../clib/microlib/init/entry.s            0x00000000   Number         0  entry5.o ABSOLUTE
    ../clib/microlib/init/entry.s            0x00000000   Number         0  entry2.o ABSOLUTE
    ../clib/microlib/string/memcpy.c         0x00000000   Number         0  memcpya.o ABSOLUTE
    ../clib/microlib/string/memcpy.c         0x00000000   Number         0  memcpyb.o ABSOLUTE
    ..\..\User\uC-CPU\ARM-Cortex-M3\RealView\cpu_a.asm 0x00000000   Number         0  cpu_a.o ABSOLUTE
    ..\..\User\uC-CPU\cpu_core.c             0x00000000   Number         0  cpu_core.o ABSOLUTE
    ..\..\User\uC-LIB\Ports\ARM-Cortex-M3\RealView\lib_mem_a.asm 0x00000000   Number         0  lib_mem_a.o ABSOLUTE
    ..\..\User\uC-LIB\lib_ascii.c            0x00000000   Number         0  lib_ascii.o ABSOLUTE
    ..\..\User\uC-LIB\lib_mem.c              0x00000000   Number         0  lib_mem.o ABSOLUTE
    ..\..\User\uC-LIB\lib_str.c              0x00000000   Number         0  lib_str.o ABSOLUTE
    ..\..\User\uCOS-III\Ports\ARM-Cortex-M3\Generic\RealView\os_cpu_a.s 0x00000000   Number         0  os_cpu_a.o ABSOLUTE
    ..\..\User\uCOS-III\Ports\ARM-Cortex-M3\Generic\RealView\os_cpu_c.c 0x00000000   Number         0  os_cpu_c.o ABSOLUTE
    ..\..\User\uCOS-III\Source\os_cfg_app.c  0x00000000   Number         0  os_cfg_app.o ABSOLUTE
    ..\..\User\uCOS-III\Source\os_core.c     0x00000000   Number         0  os_core.o ABSOLUTE
    ..\..\User\uCOS-III\Source\os_dbg.c      0x00000000   Number         0  os_dbg.o ABSOLUTE
    ..\..\User\uCOS-III\Source\os_flag.c     0x00000000   Number         0  os_flag.o ABSOLUTE
    ..\..\User\uCOS-III\Source\os_int.c      0x00000000   Number         0  os_int.o ABSOLUTE
    ..\..\User\uCOS-III\Source\os_mem.c      0x00000000   Number         0  os_mem.o ABSOLUTE
    ..\..\User\uCOS-III\Source\os_msg.c      0x00000000   Number         0  os_msg.o ABSOLUTE
    ..\..\User\uCOS-III\Source\os_mutex.c    0x00000000   Number         0  os_mutex.o ABSOLUTE
    ..\..\User\uCOS-III\Source\os_prio.c     0x00000000   Number         0  os_prio.o ABSOLUTE
    ..\..\User\uCOS-III\Source\os_q.c        0x00000000   Number         0  os_q.o ABSOLUTE
    ..\..\User\uCOS-III\Source\os_sem.c      0x00000000   Number         0  os_sem.o ABSOLUTE
    ..\..\User\uCOS-III\Source\os_stat.c     0x00000000   Number         0  os_stat.o ABSOLUTE
    ..\..\User\uCOS-III\Source\os_task.c     0x00000000   Number         0  os_task.o ABSOLUTE
    ..\..\User\uCOS-III\Source\os_tick.c     0x00000000   Number         0  os_tick.o ABSOLUTE
    ..\..\User\uCOS-III\Source\os_time.c     0x00000000   Number         0  os_time.o ABSOLUTE
    ..\..\User\uCOS-III\Source\os_tmr.c      0x00000000   Number         0  os_tmr.o ABSOLUTE
    ..\..\User\uCOS-III\Source\os_var.c      0x00000000   Number         0  os_var.o ABSOLUTE
    ..\FW_LIB\startup_stm32f10x_hd.s         0x00000000   Number         0  startup_stm32f10x_hd.o ABSOLUTE
    ..\USER\APP\main.c                       0x00000000   Number         0  main.o ABSOLUTE
    ..\USER\APP\os_app_hooks.c               0x00000000   Number         0  os_app_hooks.o ABSOLUTE
    ..\USER\APP\stm32f10x_it.c               0x00000000   Number         0  stm32f10x_it.o ABSOLUTE
    ..\USER\BSP\Key\bsp_key.c                0x00000000   Number         0  bsp_key.o ABSOLUTE
    ..\USER\BSP\bsp.c                        0x00000000   Number         0  bsp.o ABSOLUTE
    ..\USER\BSP\led\bsp_led.c                0x00000000   Number         0  bsp_led.o ABSOLUTE
    ..\USER\BSP\usart\bsp_usart1.c           0x00000000   Number         0  bsp_usart1.o ABSOLUTE
    Libraries\CMSIS\CM3\DeviceSupport\ST\STM32F10x\system_stm32f10x.c 0x00000000   Number         0  system_stm32f10x.o ABSOLUTE
    Libraries\STM32F10x_StdPeriph_Driver\src\stm32f10x_gpio.c 0x00000000   Number         0  stm32f10x_gpio.o ABSOLUTE
    Libraries\STM32F10x_StdPeriph_Driver\src\stm32f10x_rcc.c 0x00000000   Number         0  stm32f10x_rcc.o ABSOLUTE
    Libraries\STM32F10x_StdPeriph_Driver\src\stm32f10x_usart.c 0x00000000   Number         0  stm32f10x_usart.o ABSOLUTE
    dc.s                                     0x00000000   Number         0  dc.o ABSOLUTE
    handlers.s                               0x00000000   Number         0  handlers.o ABSOLUTE
    init.s                                   0x00000000   Number         0  init.o ABSOLUTE
    RESET                                    0x08000000   Section      304  startup_stm32f10x_hd.o(RESET)
    .ARM.Collect$$$$00000000                 0x08000130   Section        0  entry.o(.ARM.Collect$$$$00000000)
    .ARM.Collect$$$$00000001                 0x08000130   Section        4  entry2.o(.ARM.Collect$$$$00000001)
    .ARM.Collect$$$$00000004                 0x08000134   Section        4  entry5.o(.ARM.Collect$$$$00000004)
    .ARM.Collect$$$$00000008                 0x08000138   Section        0  entry7b.o(.ARM.Collect$$$$00000008)
    .ARM.Collect$$$$0000000A                 0x08000138   Section        0  entry8b.o(.ARM.Collect$$$$0000000A)
    .ARM.Collect$$$$0000000B                 0x08000138   Section        8  entry9a.o(.ARM.Collect$$$$0000000B)
    .ARM.Collect$$$$0000000E                 0x08000140   Section        4  entry12b.o(.ARM.Collect$$$$0000000E)
    .ARM.Collect$$$$0000000F                 0x08000144   Section        0  entry10a.o(.ARM.Collect$$$$0000000F)
    .ARM.Collect$$$$00000011                 0x08000144   Section        0  entry11a.o(.ARM.Collect$$$$00000011)
    .ARM.Collect$$$$00002712                 0x08000144   Section        4  entry2.o(.ARM.Collect$$$$00002712)
    __lit__00000000                          0x08000144   Data           4  entry2.o(.ARM.Collect$$$$00002712)
    .text                                    0x08000148   Section       36  startup_stm32f10x_hd.o(.text)
    .text                                    0x0800016c   Section        0  system_stm32f10x.o(.text)
    SetSysClockTo72                          0x0800016d   Thumb Code   212  system_stm32f10x.o(.text)
    SetSysClock                              0x08000241   Thumb Code     8  system_stm32f10x.o(.text)
    .text                                    0x08000348   Section        0  stm32f10x_gpio.o(.text)
    .text                                    0x080006a0   Section        0  stm32f10x_rcc.o(.text)
    .text                                    0x08000a44   Section       52  cpu_a.o(.text)
    .text                                    0x08000a78   Section        0  memcpya.o(.text)
    .text                                    0x08000a9c   Section       36  init.o(.text)
    CODE                                     0x08000ac0   Section      132  os_cpu_a.o(CODE)
    i.AppTaskLed1                            0x08000b44   Section        0  main.o(i.AppTaskLed1)
    AppTaskLed1                              0x08000b45   Thumb Code    94  main.o(i.AppTaskLed1)
    i.AppTaskLed2                            0x08000bb0   Section        0  main.o(i.AppTaskLed2)
    AppTaskLed2                              0x08000bb1   Thumb Code    46  main.o(i.AppTaskLed2)
    i.AppTaskStart                           0x08000be4   Section        0  main.o(i.AppTaskStart)
    AppTaskStart                             0x08000be5   Thumb Code   156  main.o(i.AppTaskStart)
    i.BSP_CPU_ClkFreq                        0x08000cbc   Section        0  bsp.o(i.BSP_CPU_ClkFreq)
    i.BSP_Init                               0x08000ccc   Section        0  bsp.o(i.BSP_Init)
    i.BusFault_Handler                       0x08000cd8   Section        0  stm32f10x_it.o(i.BusFault_Handler)
    i.CPU_Init                               0x08000cdc   Section        0  cpu_core.o(i.CPU_Init)
    i.CPU_IntDisMeasInit                     0x08000cec   Section        0  cpu_core.o(i.CPU_IntDisMeasInit)
    CPU_IntDisMeasInit                       0x08000ced   Thumb Code   104  cpu_core.o(i.CPU_IntDisMeasInit)
    i.CPU_IntDisMeasMaxCalc                  0x08000d70   Section        0  cpu_core.o(i.CPU_IntDisMeasMaxCalc)
    CPU_IntDisMeasMaxCalc                    0x08000d71   Thumb Code    24  cpu_core.o(i.CPU_IntDisMeasMaxCalc)
    i.CPU_IntDisMeasMaxCurGet                0x08000d8c   Section        0  cpu_core.o(i.CPU_IntDisMeasMaxCurGet)
    i.CPU_IntDisMeasMaxCurReset              0x08000db8   Section        0  cpu_core.o(i.CPU_IntDisMeasMaxCurReset)
    i.CPU_IntDisMeasMaxGet                   0x08000de4   Section        0  cpu_core.o(i.CPU_IntDisMeasMaxGet)
    i.CPU_IntDisMeasStart                    0x08000e10   Section        0  cpu_core.o(i.CPU_IntDisMeasStart)
    i.CPU_IntDisMeasStop                     0x08000e44   Section        0  cpu_core.o(i.CPU_IntDisMeasStop)
    i.CPU_NameClr                            0x08000e98   Section        0  cpu_core.o(i.CPU_NameClr)
    i.CPU_NameInit                           0x08000ed0   Section        0  cpu_core.o(i.CPU_NameInit)
    CPU_NameInit                             0x08000ed1   Thumb Code     8  cpu_core.o(i.CPU_NameInit)
    i.CPU_TS_Init                            0x08000ed8   Section        0  cpu_core.o(i.CPU_TS_Init)
    CPU_TS_Init                              0x08000ed9   Thumb Code    14  cpu_core.o(i.CPU_TS_Init)
    i.CPU_TS_TmrFreqSet                      0x08000eec   Section        0  cpu_core.o(i.CPU_TS_TmrFreqSet)
    i.CPU_TS_TmrInit                         0x08000ef8   Section        0  bsp.o(i.CPU_TS_TmrInit)
    i.CPU_TS_TmrRd                           0x08000f2c   Section        0  bsp.o(i.CPU_TS_TmrRd)
    i.DebugMon_Handler                       0x08000f38   Section        0  stm32f10x_it.o(i.DebugMon_Handler)
    i.HardFault_Handler                      0x08000f3a   Section        0  stm32f10x_it.o(i.HardFault_Handler)
    i.Key1_Config                            0x08000f40   Section        0  bsp_key.o(i.Key1_Config)
    Key1_Config                              0x08000f41   Thumb Code    32  bsp_key.o(i.Key1_Config)
    i.Key2_Config                            0x08000f64   Section        0  bsp_key.o(i.Key2_Config)
    Key2_Config                              0x08000f65   Thumb Code    32  bsp_key.o(i.Key2_Config)
    i.Key3_Config                            0x08000f88   Section        0  bsp_key.o(i.Key3_Config)
    Key3_Config                              0x08000f89   Thumb Code    32  bsp_key.o(i.Key3_Config)
    i.Key_Initial                            0x08000fac   Section        0  bsp_key.o(i.Key_Initial)
    i.Key_Scan                               0x08000fbc   Section        0  bsp_key.o(i.Key_Scan)
    i.LED_GPIO_Config                        0x08001014   Section        0  bsp_led.o(i.LED_GPIO_Config)
    LED_GPIO_Config                          0x08001015   Thumb Code   192  bsp_led.o(i.LED_GPIO_Config)
    i.LED_Init                               0x080010d8   Section        0  bsp_led.o(i.LED_Init)
    i.MemManage_Handler                      0x080010fc   Section        0  stm32f10x_it.o(i.MemManage_Handler)
    i.Mem_Clr                                0x08001100   Section        0  lib_mem.o(i.Mem_Clr)
    i.Mem_Init                               0x08001114   Section        0  lib_mem.o(i.Mem_Init)
    i.Mem_Set                                0x0800115c   Section        0  lib_mem.o(i.Mem_Set)
    i.NMI_Handler                            0x080011be   Section        0  stm32f10x_it.o(i.NMI_Handler)
    i.OSCfg_Init                             0x080011c0   Section        0  os_cfg_app.o(i.OSCfg_Init)
    i.OSIdleTaskHook                         0x080011c4   Section        0  os_cpu_c.o(i.OSIdleTaskHook)
    i.OSInit                                 0x080011d8   Section        0  os_core.o(i.OSInit)
    i.OSInitHook                             0x08001364   Section        0  os_cpu_c.o(i.OSInitHook)
    i.OSIntExit                              0x0800139c   Section        0  os_core.o(i.OSIntExit)
    i.OSSched                                0x08001480   Section        0  os_core.o(i.OSSched)
    i.OSSchedLock                            0x08001528   Section        0  os_core.o(i.OSSchedLock)
    i.OSSchedUnlock                          0x080015a4   Section        0  os_core.o(i.OSSchedUnlock)
    i.OSStart                                0x08001644   Section        0  os_core.o(i.OSStart)
    i.OSStatReset                            0x080016ac   Section        0  os_stat.o(i.OSStatReset)
    i.OSStatTaskCPUUsageInit                 0x08001814   Section        0  os_stat.o(i.OSStatTaskCPUUsageInit)
    i.OSStatTaskHook                         0x08001914   Section        0  os_cpu_c.o(i.OSStatTaskHook)
    i.OSTaskCreate                           0x08001928   Section        0  os_task.o(i.OSTaskCreate)
    i.OSTaskCreateHook                       0x08001bbc   Section        0  os_cpu_c.o(i.OSTaskCreateHook)
    i.OSTaskDel                              0x08001bd4   Section        0  os_task.o(i.OSTaskDel)
    i.OSTaskDelHook                          0x08001ddc   Section        0  os_cpu_c.o(i.OSTaskDelHook)
    i.OSTaskResume                           0x08001df4   Section        0  os_task.o(i.OSTaskResume)
    i.OSTaskReturnHook                       0x08001e7c   Section        0  os_cpu_c.o(i.OSTaskReturnHook)
    i.OSTaskSemPend                          0x08001e94   Section        0  os_task.o(i.OSTaskSemPend)
    i.OSTaskStkChk                           0x080020e4   Section        0  os_task.o(i.OSTaskStkChk)
    i.OSTaskStkInit                          0x080021c8   Section        0  os_cpu_c.o(i.OSTaskStkInit)
    i.OSTaskSuspend                          0x08002288   Section        0  os_task.o(i.OSTaskSuspend)
    i.OSTaskSwHook                           0x080022e8   Section        0  os_cpu_c.o(i.OSTaskSwHook)
    i.OSTimeDly                              0x0800238c   Section        0  os_time.o(i.OSTimeDly)
    i.OSTimeDlyHMSM                          0x080024dc   Section        0  os_time.o(i.OSTimeDlyHMSM)
    i.OSTimeTick                             0x08002708   Section        0  os_time.o(i.OSTimeTick)
    i.OSTimeTickHook                         0x0800274c   Section        0  os_cpu_c.o(i.OSTimeTickHook)
    i.OS_CPU_SysTickHandler                  0x08002760   Section        0  os_cpu_c.o(i.OS_CPU_SysTickHandler)
    i.OS_CPU_SysTickInit                     0x080027a0   Section        0  os_cpu_c.o(i.OS_CPU_SysTickInit)
    i.OS_Dbg_Init                            0x080027d0   Section        0  os_dbg.o(i.OS_Dbg_Init)
    i.OS_FlagInit                            0x08002984   Section        0  os_flag.o(i.OS_FlagInit)
    i.OS_FlagPost                            0x0800299c   Section        0  os_flag.o(i.OS_FlagPost)
    i.OS_FlagTaskRdy                         0x08002c18   Section        0  os_flag.o(i.OS_FlagTaskRdy)
    i.OS_IdleTask                            0x08002c70   Section        0  os_core.o(i.OS_IdleTask)
    i.OS_IdleTaskInit                        0x08002cbc   Section        0  os_core.o(i.OS_IdleTaskInit)
    i.OS_IntQPost                            0x08002d2c   Section        0  os_int.o(i.OS_IntQPost)
    i.OS_IntQRePost                          0x08002e30   Section        0  os_int.o(i.OS_IntQRePost)
    i.OS_IntQTask                            0x08002fd4   Section        0  os_int.o(i.OS_IntQTask)
    i.OS_IntQTaskInit                        0x0800309c   Section        0  os_int.o(i.OS_IntQTaskInit)
    i.OS_MemInit                             0x080031c4   Section        0  os_mem.o(i.OS_MemInit)
    i.OS_MsgPoolInit                         0x080031dc   Section        0  os_msg.o(i.OS_MsgPoolInit)
    i.OS_MsgQFreeAll                         0x08003258   Section        0  os_msg.o(i.OS_MsgQFreeAll)
    i.OS_MsgQInit                            0x0800329c   Section        0  os_msg.o(i.OS_MsgQInit)
    i.OS_MsgQPut                             0x080032ac   Section        0  os_msg.o(i.OS_MsgQPut)
    i.OS_MutexInit                           0x080033b0   Section        0  os_mutex.o(i.OS_MutexInit)
    i.OS_Pend                                0x080033c8   Section        0  os_core.o(i.OS_Pend)
    i.OS_PendDataInit                        0x08003430   Section        0  os_core.o(i.OS_PendDataInit)
    i.OS_PendDbgNameAdd                      0x08003458   Section        0  os_core.o(i.OS_PendDbgNameAdd)
    i.OS_PendDbgNameRemove                   0x080034b4   Section        0  os_core.o(i.OS_PendDbgNameRemove)
    i.OS_PendListInsertPrio                  0x080034d8   Section        0  os_core.o(i.OS_PendListInsertPrio)
    i.OS_PendListRemove                      0x0800353e   Section        0  os_core.o(i.OS_PendListRemove)
    i.OS_PendListRemove1                     0x0800356e   Section        0  os_core.o(i.OS_PendListRemove1)
    i.OS_Post                                0x080035b0   Section        0  os_core.o(i.OS_Post)
    i.OS_Post1                               0x08003670   Section        0  os_core.o(i.OS_Post1)
    i.OS_PrioGetHighest                      0x0800369c   Section        0  os_prio.o(i.OS_PrioGetHighest)
    i.OS_PrioInit                            0x080036c4   Section        0  os_prio.o(i.OS_PrioInit)
    i.OS_PrioInsert                          0x080036dc   Section        0  os_prio.o(i.OS_PrioInsert)
    i.OS_PrioRemove                          0x08003700   Section        0  os_prio.o(i.OS_PrioRemove)
    i.OS_QInit                               0x08003724   Section        0  os_q.o(i.OS_QInit)
    i.OS_QPost                               0x0800373c   Section        0  os_q.o(i.OS_QPost)
    i.OS_RdyListInit                         0x080038c4   Section        0  os_core.o(i.OS_RdyListInit)
    i.OS_RdyListInsert                       0x080038e8   Section        0  os_core.o(i.OS_RdyListInsert)
    i.OS_RdyListInsertHead                   0x08003914   Section        0  os_core.o(i.OS_RdyListInsertHead)
    i.OS_RdyListInsertTail                   0x08003954   Section        0  os_core.o(i.OS_RdyListInsertTail)
    i.OS_RdyListMoveHeadToTail               0x08003990   Section        0  os_core.o(i.OS_RdyListMoveHeadToTail)
    i.OS_RdyListRemove                       0x080039d4   Section        0  os_core.o(i.OS_RdyListRemove)
    i.OS_Sched0                              0x08003a30   Section        0  os_core.o(i.OS_Sched0)
    i.OS_SchedLockTimeMeasStart              0x08003a8c   Section        0  os_core.o(i.OS_SchedLockTimeMeasStart)
    i.OS_SchedLockTimeMeasStop               0x08003aa8   Section        0  os_core.o(i.OS_SchedLockTimeMeasStop)
    i.OS_SchedRoundRobin                     0x08003ae4   Section        0  os_core.o(i.OS_SchedRoundRobin)
    i.OS_SemInit                             0x08003bd0   Section        0  os_sem.o(i.OS_SemInit)
    i.OS_SemPost                             0x08003be8   Section        0  os_sem.o(i.OS_SemPost)
    i.OS_StatTask                            0x08003d80   Section        0  os_stat.o(i.OS_StatTask)
    i.OS_StatTaskInit                        0x08004138   Section        0  os_stat.o(i.OS_StatTaskInit)
    i.OS_TaskBlock                           0x08004204   Section        0  os_core.o(i.OS_TaskBlock)
    i.OS_TaskDbgListAdd                      0x0800423c   Section        0  os_task.o(i.OS_TaskDbgListAdd)
    i.OS_TaskDbgListRemove                   0x0800426c   Section        0  os_task.o(i.OS_TaskDbgListRemove)
    i.OS_TaskInit                            0x080042b0   Section        0  os_task.o(i.OS_TaskInit)
    i.OS_TaskInitTCB                         0x080042d0   Section        0  os_task.o(i.OS_TaskInitTCB)
    i.OS_TaskQPost                           0x080043a0   Section        0  os_task.o(i.OS_TaskQPost)
    i.OS_TaskRdy                             0x0800460c   Section        0  os_core.o(i.OS_TaskRdy)
    i.OS_TaskResume                          0x08004628   Section        0  os_task.o(i.OS_TaskResume)
    i.OS_TaskReturn                          0x080047a4   Section        0  os_task.o(i.OS_TaskReturn)
    i.OS_TaskSemPost                         0x080047bc   Section        0  os_task.o(i.OS_TaskSemPost)
    i.OS_TaskSuspend                         0x08004d64   Section        0  os_task.o(i.OS_TaskSuspend)
    i.OS_TickListInit                        0x08004ef4   Section        0  os_tick.o(i.OS_TickListInit)
    i.OS_TickListInsert                      0x08004f1c   Section        0  os_tick.o(i.OS_TickListInsert)
    i.OS_TickListRemove                      0x080050d8   Section        0  os_tick.o(i.OS_TickListRemove)
    i.OS_TickListResetPeak                   0x08005110   Section        0  os_tick.o(i.OS_TickListResetPeak)
    i.OS_TickListUpdate                      0x08005134   Section        0  os_tick.o(i.OS_TickListUpdate)
    i.OS_TickTask                            0x08005354   Section        0  os_tick.o(i.OS_TickTask)
    i.OS_TickTaskInit                        0x08005380   Section        0  os_tick.o(i.OS_TickTaskInit)
    i.OS_TmrInit                             0x08005438   Section        0  os_tmr.o(i.OS_TmrInit)
    i.OS_TmrLink                             0x08005560   Section        0  os_tmr.o(i.OS_TmrLink)
    i.OS_TmrResetPeak                        0x08005630   Section        0  os_tmr.o(i.OS_TmrResetPeak)
    i.OS_TmrTask                             0x08005654   Section        0  os_tmr.o(i.OS_TmrTask)
    i.OS_TmrUnlink                           0x08005714   Section        0  os_tmr.o(i.OS_TmrUnlink)
    i.SVC_Handler                            0x08005764   Section        0  stm32f10x_it.o(i.SVC_Handler)
    i.UsageFault_Handler                     0x08005766   Section        0  stm32f10x_it.o(i.UsageFault_Handler)
    i.__scatterload_copy                     0x0800576a   Section       14  handlers.o(i.__scatterload_copy)
    i.__scatterload_null                     0x08005778   Section        2  handlers.o(i.__scatterload_null)
    i.__scatterload_zeroinit                 0x0800577a   Section       14  handlers.o(i.__scatterload_zeroinit)
    i.main                                   0x08005788   Section        0  main.o(i.main)
    .constdata                               0x080057e8   Section       24  main.o(.constdata)
    .constdata                               0x08005800   Section      164  os_cfg_app.o(.constdata)
    .constdata                               0x080058a4   Section      364  os_dbg.o(.constdata)
    .data                                    0x20000000   Section       20  system_stm32f10x.o(.data)
    .data                                    0x20000014   Section       20  stm32f10x_rcc.o(.data)
    APBAHBPrescTable                         0x20000014   Data          16  stm32f10x_rcc.o(.data)
    ADCPrescTable                            0x20000024   Data           4  stm32f10x_rcc.o(.data)
    .data                                    0x20000028   Section       28  cpu_core.o(.data)
    .data                                    0x20000044   Section        4  lib_mem.o(.data)
    .data                                    0x20000048   Section      208  os_var.o(.data)
    .data                                    0x20000118   Section        4  os_cpu_c.o(.data)
    .data                                    0x2000011c   Section        4  os_prio.o(.data)
    .bss                                     0x20000120   Section     5208  main.o(.bss)
    AppTaskStartStk                          0x20000120   Data         512  main.o(.bss)
    AppTaskStartTCB                          0x20000320   Data         200  main.o(.bss)
    AppTaskLed1Stk                           0x200003e8   Data        2048  main.o(.bss)
    AppTaskLed1TCB                           0x20000be8   Data         200  main.o(.bss)
    AppTaskLed2Stk                           0x20000cb0   Data        2048  main.o(.bss)
    AppTaskLed2TCB                           0x200014b0   Data         200  main.o(.bss)
    .bss                                     0x20001578   Section       16  cpu_core.o(.bss)
    .bss                                     0x20001588   Section    27720  lib_mem.o(.bss)
    .bss                                     0x200081d0   Section     5264  os_cfg_app.o(.bss)
    .bss                                     0x20009660   Section     1396  os_var.o(.bss)
    STACK                                    0x20009bd8   Section     1024  startup_stm32f10x_hd.o(STACK)

    Global Symbols

    Symbol Name                              Value     Ov Type        Size  Object(Section)

    BuildAttributes$$THM_ISAv4$P$D$K$B$S$PE$A:L22UL41UL21$X:L11$S22US41US21$IEEE1$IW$USESV6$~STKCKD$USESV7$~SHL$OSPACE$EBA8$MICROLIB$REQ8$PRES8$EABIv2 0x00000000   Number         0  anon$$obj.o ABSOLUTE
    __ARM_use_no_argv                        0x00000000   Number         0  main.o ABSOLUTE
    __arm_fini_                               - Undefined Weak Reference
    __cpp_initialize__aeabi_                  - Undefined Weak Reference
    __cxa_finalize                            - Undefined Weak Reference
    __decompress                              - Undefined Weak Reference
    _clock_init                               - Undefined Weak Reference
    _microlib_exit                            - Undefined Weak Reference
    __Vectors_Size                           0x00000130   Number         0  startup_stm32f10x_hd.o ABSOLUTE
    __Vectors                                0x08000000   Data           4  startup_stm32f10x_hd.o(RESET)
    __Vectors_End                            0x08000130   Data           0  startup_stm32f10x_hd.o(RESET)
    __main                                   0x08000131   Thumb Code     0  entry.o(.ARM.Collect$$$$00000000)
    _main_stk                                0x08000131   Thumb Code     0  entry2.o(.ARM.Collect$$$$00000001)
    _main_scatterload                        0x08000135   Thumb Code     0  entry5.o(.ARM.Collect$$$$00000004)
    __main_after_scatterload                 0x08000139   Thumb Code     0  entry5.o(.ARM.Collect$$$$00000004)
    _main_clock                              0x08000139   Thumb Code     0  entry7b.o(.ARM.Collect$$$$00000008)
    _main_cpp_init                           0x08000139   Thumb Code     0  entry8b.o(.ARM.Collect$$$$0000000A)
    _main_init                               0x08000139   Thumb Code     0  entry9a.o(.ARM.Collect$$$$0000000B)
    __rt_lib_shutdown_fini                   0x08000141   Thumb Code     0  entry12b.o(.ARM.Collect$$$$0000000E)
    __rt_final_cpp                           0x08000145   Thumb Code     0  entry10a.o(.ARM.Collect$$$$0000000F)
    __rt_final_exit                          0x08000145   Thumb Code     0  entry11a.o(.ARM.Collect$$$$00000011)
    Reset_Handler                            0x08000149   Thumb Code     8  startup_stm32f10x_hd.o(.text)
    ADC1_2_IRQHandler                        0x08000163   Thumb Code     0  startup_stm32f10x_hd.o(.text)
    ADC3_IRQHandler                          0x08000163   Thumb Code     0  startup_stm32f10x_hd.o(.text)
    CAN1_RX1_IRQHandler                      0x08000163   Thumb Code     0  startup_stm32f10x_hd.o(.text)
    CAN1_SCE_IRQHandler                      0x08000163   Thumb Code     0  startup_stm32f10x_hd.o(.text)
    DMA1_Channel1_IRQHandler                 0x08000163   Thumb Code     0  startup_stm32f10x_hd.o(.text)
    DMA1_Channel2_IRQHandler                 0x08000163   Thumb Code     0  startup_stm32f10x_hd.o(.text)
    DMA1_Channel3_IRQHandler                 0x08000163   Thumb Code     0  startup_stm32f10x_hd.o(.text)
    DMA1_Channel4_IRQHandler                 0x08000163   Thumb Code     0  startup_stm32f10x_hd.o(.text)
    DMA1_Channel5_IRQHandler                 0x08000163   Thumb Code     0  startup_stm32f10x_hd.o(.text)
    DMA1_Channel6_IRQHandler                 0x08000163   Thumb Code     0  startup_stm32f10x_hd.o(.text)
    DMA1_Channel7_IRQHandler                 0x08000163   Thumb Code     0  startup_stm32f10x_hd.o(.text)
    DMA2_Channel1_IRQHandler                 0x08000163   Thumb Code     0  startup_stm32f10x_hd.o(.text)
    DMA2_Channel2_IRQHandler                 0x08000163   Thumb Code     0  startup_stm32f10x_hd.o(.text)
    DMA2_Channel3_IRQHandler                 0x08000163   Thumb Code     0  startup_stm32f10x_hd.o(.text)
    DMA2_Channel4_5_IRQHandler               0x08000163   Thumb Code     0  startup_stm32f10x_hd.o(.text)
    EXTI0_IRQHandler                         0x08000163   Thumb Code     0  startup_stm32f10x_hd.o(.text)
    EXTI15_10_IRQHandler                     0x08000163   Thumb Code     0  startup_stm32f10x_hd.o(.text)
    EXTI1_IRQHandler                         0x08000163   Thumb Code     0  startup_stm32f10x_hd.o(.text)
    EXTI2_IRQHandler                         0x08000163   Thumb Code     0  startup_stm32f10x_hd.o(.text)
    EXTI3_IRQHandler                         0x08000163   Thumb Code     0  startup_stm32f10x_hd.o(.text)
    EXTI4_IRQHandler                         0x08000163   Thumb Code     0  startup_stm32f10x_hd.o(.text)
    EXTI9_5_IRQHandler                       0x08000163   Thumb Code     0  startup_stm32f10x_hd.o(.text)
    FLASH_IRQHandler                         0x08000163   Thumb Code     0  startup_stm32f10x_hd.o(.text)
    FSMC_IRQHandler                          0x08000163   Thumb Code     0  startup_stm32f10x_hd.o(.text)
    I2C1_ER_IRQHandler                       0x08000163   Thumb Code     0  startup_stm32f10x_hd.o(.text)
    I2C1_EV_IRQHandler                       0x08000163   Thumb Code     0  startup_stm32f10x_hd.o(.text)
    I2C2_ER_IRQHandler                       0x08000163   Thumb Code     0  startup_stm32f10x_hd.o(.text)
    I2C2_EV_IRQHandler                       0x08000163   Thumb Code     0  startup_stm32f10x_hd.o(.text)
    PVD_IRQHandler                           0x08000163   Thumb Code     0  startup_stm32f10x_hd.o(.text)
    RCC_IRQHandler                           0x08000163   Thumb Code     0  startup_stm32f10x_hd.o(.text)
    RTCAlarm_IRQHandler                      0x08000163   Thumb Code     0  startup_stm32f10x_hd.o(.text)
    RTC_IRQHandler                           0x08000163   Thumb Code     0  startup_stm32f10x_hd.o(.text)
    SDIO_IRQHandler                          0x08000163   Thumb Code     0  startup_stm32f10x_hd.o(.text)
    SPI1_IRQHandler                          0x08000163   Thumb Code     0  startup_stm32f10x_hd.o(.text)
    SPI2_IRQHandler                          0x08000163   Thumb Code     0  startup_stm32f10x_hd.o(.text)
    SPI3_IRQHandler                          0x08000163   Thumb Code     0  startup_stm32f10x_hd.o(.text)
    TAMPER_IRQHandler                        0x08000163   Thumb Code     0  startup_stm32f10x_hd.o(.text)
    TIM1_BRK_IRQHandler                      0x08000163   Thumb Code     0  startup_stm32f10x_hd.o(.text)
    TIM1_CC_IRQHandler                       0x08000163   Thumb Code     0  startup_stm32f10x_hd.o(.text)
    TIM1_TRG_COM_IRQHandler                  0x08000163   Thumb Code     0  startup_stm32f10x_hd.o(.text)
    TIM1_UP_IRQHandler                       0x08000163   Thumb Code     0  startup_stm32f10x_hd.o(.text)
    TIM2_IRQHandler                          0x08000163   Thumb Code     0  startup_stm32f10x_hd.o(.text)
    TIM3_IRQHandler                          0x08000163   Thumb Code     0  startup_stm32f10x_hd.o(.text)
    TIM4_IRQHandler                          0x08000163   Thumb Code     0  startup_stm32f10x_hd.o(.text)
    TIM5_IRQHandler                          0x08000163   Thumb Code     0  startup_stm32f10x_hd.o(.text)
    TIM6_IRQHandler                          0x08000163   Thumb Code     0  startup_stm32f10x_hd.o(.text)
    TIM7_IRQHandler                          0x08000163   Thumb Code     0  startup_stm32f10x_hd.o(.text)
    TIM8_BRK_IRQHandler                      0x08000163   Thumb Code     0  startup_stm32f10x_hd.o(.text)
    TIM8_CC_IRQHandler                       0x08000163   Thumb Code     0  startup_stm32f10x_hd.o(.text)
    TIM8_TRG_COM_IRQHandler                  0x08000163   Thumb Code     0  startup_stm32f10x_hd.o(.text)
    TIM8_UP_IRQHandler                       0x08000163   Thumb Code     0  startup_stm32f10x_hd.o(.text)
    UART4_IRQHandler                         0x08000163   Thumb Code     0  startup_stm32f10x_hd.o(.text)
    UART5_IRQHandler                         0x08000163   Thumb Code     0  startup_stm32f10x_hd.o(.text)
    USART1_IRQHandler                        0x08000163   Thumb Code     0  startup_stm32f10x_hd.o(.text)
    USART2_IRQHandler                        0x08000163   Thumb Code     0  startup_stm32f10x_hd.o(.text)
    USART3_IRQHandler                        0x08000163   Thumb Code     0  startup_stm32f10x_hd.o(.text)
    USBWakeUp_IRQHandler                     0x08000163   Thumb Code     0  startup_stm32f10x_hd.o(.text)
    USB_HP_CAN1_TX_IRQHandler                0x08000163   Thumb Code     0  startup_stm32f10x_hd.o(.text)
    USB_LP_CAN1_RX0_IRQHandler               0x08000163   Thumb Code     0  startup_stm32f10x_hd.o(.text)
    WWDG_IRQHandler                          0x08000163   Thumb Code     0  startup_stm32f10x_hd.o(.text)
    SystemInit                               0x08000249   Thumb Code    78  system_stm32f10x.o(.text)
    SystemCoreClockUpdate                    0x08000297   Thumb Code   142  system_stm32f10x.o(.text)
    GPIO_DeInit                              0x08000349   Thumb Code   172  stm32f10x_gpio.o(.text)
    GPIO_AFIODeInit                          0x080003f5   Thumb Code    20  stm32f10x_gpio.o(.text)
    GPIO_Init                                0x08000409   Thumb Code   274  stm32f10x_gpio.o(.text)
    GPIO_StructInit                          0x0800051b   Thumb Code    16  stm32f10x_gpio.o(.text)
    GPIO_ReadInputDataBit                    0x0800052b   Thumb Code    18  stm32f10x_gpio.o(.text)
    GPIO_ReadInputData                       0x0800053d   Thumb Code     8  stm32f10x_gpio.o(.text)
    GPIO_ReadOutputDataBit                   0x08000545   Thumb Code    18  stm32f10x_gpio.o(.text)
    GPIO_ReadOutputData                      0x08000557   Thumb Code     8  stm32f10x_gpio.o(.text)
    GPIO_SetBits                             0x0800055f   Thumb Code     4  stm32f10x_gpio.o(.text)
    GPIO_ResetBits                           0x08000563   Thumb Code     4  stm32f10x_gpio.o(.text)
    GPIO_WriteBit                            0x08000567   Thumb Code    10  stm32f10x_gpio.o(.text)
    GPIO_Write                               0x08000571   Thumb Code     4  stm32f10x_gpio.o(.text)
    GPIO_PinLockConfig                       0x08000575   Thumb Code    18  stm32f10x_gpio.o(.text)
    GPIO_EventOutputConfig                   0x08000587   Thumb Code    26  stm32f10x_gpio.o(.text)
    GPIO_EventOutputCmd                      0x080005a1   Thumb Code     6  stm32f10x_gpio.o(.text)
    GPIO_PinRemapConfig                      0x080005a7   Thumb Code   138  stm32f10x_gpio.o(.text)
    GPIO_EXTILineConfig                      0x08000631   Thumb Code    66  stm32f10x_gpio.o(.text)
    GPIO_ETH_MediaInterfaceConfig            0x08000673   Thumb Code     6  stm32f10x_gpio.o(.text)
    RCC_DeInit                               0x080006a1   Thumb Code    64  stm32f10x_rcc.o(.text)
    RCC_HSEConfig                            0x080006e1   Thumb Code    70  stm32f10x_rcc.o(.text)
    RCC_GetFlagStatus                        0x08000727   Thumb Code    56  stm32f10x_rcc.o(.text)
    RCC_WaitForHSEStartUp                    0x0800075f   Thumb Code    56  stm32f10x_rcc.o(.text)
    RCC_AdjustHSICalibrationValue            0x08000797   Thumb Code    20  stm32f10x_rcc.o(.text)
    RCC_HSICmd                               0x080007ab   Thumb Code     6  stm32f10x_rcc.o(.text)
    RCC_PLLConfig                            0x080007b1   Thumb Code    24  stm32f10x_rcc.o(.text)
    RCC_PLLCmd                               0x080007c9   Thumb Code     6  stm32f10x_rcc.o(.text)
    RCC_SYSCLKConfig                         0x080007cf   Thumb Code    18  stm32f10x_rcc.o(.text)
    RCC_GetSYSCLKSource                      0x080007e1   Thumb Code    10  stm32f10x_rcc.o(.text)
    RCC_HCLKConfig                           0x080007eb   Thumb Code    18  stm32f10x_rcc.o(.text)
    RCC_PCLK1Config                          0x080007fd   Thumb Code    18  stm32f10x_rcc.o(.text)
    RCC_PCLK2Config                          0x0800080f   Thumb Code    20  stm32f10x_rcc.o(.text)
    RCC_ITConfig                             0x08000823   Thumb Code    26  stm32f10x_rcc.o(.text)
    RCC_USBCLKConfig                         0x0800083d   Thumb Code     6  stm32f10x_rcc.o(.text)
    RCC_ADCCLKConfig                         0x08000843   Thumb Code    18  stm32f10x_rcc.o(.text)
    RCC_LSEConfig                            0x08000855   Thumb Code    44  stm32f10x_rcc.o(.text)
    RCC_LSICmd                               0x08000881   Thumb Code     6  stm32f10x_rcc.o(.text)
    RCC_RTCCLKConfig                         0x08000887   Thumb Code    12  stm32f10x_rcc.o(.text)
    RCC_RTCCLKCmd                            0x08000893   Thumb Code     8  stm32f10x_rcc.o(.text)
    RCC_GetClocksFreq                        0x0800089b   Thumb Code   192  stm32f10x_rcc.o(.text)
    RCC_AHBPeriphClockCmd                    0x0800095b   Thumb Code    26  stm32f10x_rcc.o(.text)
    RCC_APB2PeriphClockCmd                   0x08000975   Thumb Code    26  stm32f10x_rcc.o(.text)
    RCC_APB1PeriphClockCmd                   0x0800098f   Thumb Code    26  stm32f10x_rcc.o(.text)
    RCC_APB2PeriphResetCmd                   0x080009a9   Thumb Code    26  stm32f10x_rcc.o(.text)
    RCC_APB1PeriphResetCmd                   0x080009c3   Thumb Code    26  stm32f10x_rcc.o(.text)
    RCC_BackupResetCmd                       0x080009dd   Thumb Code     8  stm32f10x_rcc.o(.text)
    RCC_ClockSecuritySystemCmd               0x080009e5   Thumb Code     6  stm32f10x_rcc.o(.text)
    RCC_MCOConfig                            0x080009eb   Thumb Code     6  stm32f10x_rcc.o(.text)
    RCC_ClearFlag                            0x080009f1   Thumb Code    14  stm32f10x_rcc.o(.text)
    RCC_GetITStatus                          0x080009ff   Thumb Code    20  stm32f10x_rcc.o(.text)
    RCC_ClearITPendingBit                    0x08000a13   Thumb Code     6  stm32f10x_rcc.o(.text)
    CPU_IntDis                               0x08000a45   Thumb Code     0  cpu_a.o(.text)
    CPU_IntEn                                0x08000a49   Thumb Code     0  cpu_a.o(.text)
    CPU_SR_Save                              0x08000a4d   Thumb Code     0  cpu_a.o(.text)
    CPU_SR_Restore                           0x08000a55   Thumb Code     0  cpu_a.o(.text)
    CPU_WaitForInt                           0x08000a5b   Thumb Code     0  cpu_a.o(.text)
    CPU_WaitForExcept                        0x08000a5f   Thumb Code     0  cpu_a.o(.text)
    CPU_CntLeadZeros                         0x08000a63   Thumb Code     0  cpu_a.o(.text)
    CPU_CntTrailZeros                        0x08000a69   Thumb Code     0  cpu_a.o(.text)
    CPU_RevBits                              0x08000a73   Thumb Code     0  cpu_a.o(.text)
    __aeabi_memcpy                           0x08000a79   Thumb Code    36  memcpya.o(.text)
    __aeabi_memcpy4                          0x08000a79   Thumb Code     0  memcpya.o(.text)
    __aeabi_memcpy8                          0x08000a79   Thumb Code     0  memcpya.o(.text)
    __scatterload                            0x08000a9d   Thumb Code    28  init.o(.text)
    __scatterload_rt2                        0x08000a9d   Thumb Code     0  init.o(.text)
    OSStartHighRdy                           0x08000ac1   Thumb Code     0  os_cpu_a.o(CODE)
    OS_CPU_PendSVHandler                     0x08000ae3   Thumb Code     0  os_cpu_a.o(CODE)
    BSP_CPU_ClkFreq                          0x08000cbd   Thumb Code    16  bsp.o(i.BSP_CPU_ClkFreq)
    BSP_Init                                 0x08000ccd   Thumb Code    12  bsp.o(i.BSP_Init)
    BusFault_Handler                         0x08000cd9   Thumb Code     4  stm32f10x_it.o(i.BusFault_Handler)
    CPU_Init                                 0x08000cdd   Thumb Code    16  cpu_core.o(i.CPU_Init)
    CPU_IntDisMeasMaxCurGet                  0x08000d8d   Thumb Code    40  cpu_core.o(i.CPU_IntDisMeasMaxCurGet)
    CPU_IntDisMeasMaxCurReset                0x08000db9   Thumb Code    40  cpu_core.o(i.CPU_IntDisMeasMaxCurReset)
    CPU_IntDisMeasMaxGet                     0x08000de5   Thumb Code    40  cpu_core.o(i.CPU_IntDisMeasMaxGet)
    CPU_IntDisMeasStart                      0x08000e11   Thumb Code    38  cpu_core.o(i.CPU_IntDisMeasStart)
    CPU_IntDisMeasStop                       0x08000e45   Thumb Code    62  cpu_core.o(i.CPU_IntDisMeasStop)
    CPU_NameClr                              0x08000e99   Thumb Code    50  cpu_core.o(i.CPU_NameClr)
    CPU_TS_TmrFreqSet                        0x08000eed   Thumb Code     6  cpu_core.o(i.CPU_TS_TmrFreqSet)
    CPU_TS_TmrInit                           0x08000ef9   Thumb Code    44  bsp.o(i.CPU_TS_TmrInit)
    CPU_TS_TmrRd                             0x08000f2d   Thumb Code     6  bsp.o(i.CPU_TS_TmrRd)
    DebugMon_Handler                         0x08000f39   Thumb Code     2  stm32f10x_it.o(i.DebugMon_Handler)
    HardFault_Handler                        0x08000f3b   Thumb Code     4  stm32f10x_it.o(i.HardFault_Handler)
    Key_Initial                              0x08000fad   Thumb Code    16  bsp_key.o(i.Key_Initial)
    Key_Scan                                 0x08000fbd   Thumb Code    88  bsp_key.o(i.Key_Scan)
    LED_Init                                 0x080010d9   Thumb Code    32  bsp_led.o(i.LED_Init)
    MemManage_Handler                        0x080010fd   Thumb Code     4  stm32f10x_it.o(i.MemManage_Handler)
    Mem_Clr                                  0x08001101   Thumb Code    18  lib_mem.o(i.Mem_Clr)
    Mem_Init                                 0x08001115   Thumb Code    54  lib_mem.o(i.Mem_Init)
    Mem_Set                                  0x0800115d   Thumb Code    98  lib_mem.o(i.Mem_Set)
    NMI_Handler                              0x080011bf   Thumb Code     2  stm32f10x_it.o(i.NMI_Handler)
    OSCfg_Init                               0x080011c1   Thumb Code     2  os_cfg_app.o(i.OSCfg_Init)
    OSIdleTaskHook                           0x080011c5   Thumb Code    16  os_cpu_c.o(i.OSIdleTaskHook)
    OSInit                                   0x080011d9   Thumb Code   300  os_core.o(i.OSInit)
    OSInitHook                               0x08001365   Thumb Code    42  os_cpu_c.o(i.OSInitHook)
    OSIntExit                                0x0800139d   Thumb Code   192  os_core.o(i.OSIntExit)
    OSSched                                  0x08001481   Thumb Code   134  os_core.o(i.OSSched)
    OSSchedLock                              0x08001529   Thumb Code   112  os_core.o(i.OSSchedLock)
    OSSchedUnlock                            0x080015a5   Thumb Code   148  os_core.o(i.OSSchedUnlock)
    OSStart                                  0x08001645   Thumb Code    78  os_core.o(i.OSStart)
    OSStatReset                              0x080016ad   Thumb Code   316  os_stat.o(i.OSStatReset)
    OSStatTaskCPUUsageInit                   0x08001815   Thumb Code   228  os_stat.o(i.OSStatTaskCPUUsageInit)
    OSStatTaskHook                           0x08001915   Thumb Code    16  os_cpu_c.o(i.OSStatTaskHook)
    OSTaskCreate                             0x08001929   Thumb Code   624  os_task.o(i.OSTaskCreate)
    OSTaskCreateHook                         0x08001bbd   Thumb Code    20  os_cpu_c.o(i.OSTaskCreateHook)
    OSTaskDel                                0x08001bd5   Thumb Code   490  os_task.o(i.OSTaskDel)
    OSTaskDelHook                            0x08001ddd   Thumb Code    20  os_cpu_c.o(i.OSTaskDelHook)
    OSTaskResume                             0x08001df5   Thumb Code   124  os_task.o(i.OSTaskResume)
    OSTaskReturnHook                         0x08001e7d   Thumb Code    20  os_cpu_c.o(i.OSTaskReturnHook)
    OSTaskSemPend                            0x08001e95   Thumb Code   578  os_task.o(i.OSTaskSemPend)
    OSTaskStkChk                             0x080020e5   Thumb Code   220  os_task.o(i.OSTaskStkChk)
    OSTaskStkInit                            0x080021c9   Thumb Code   188  os_cpu_c.o(i.OSTaskStkInit)
    OSTaskSuspend                            0x08002289   Thumb Code    78  os_task.o(i.OSTaskSuspend)
    OSTaskSwHook                             0x080022e9   Thumb Code   146  os_cpu_c.o(i.OSTaskSwHook)
    OSTimeDly                                0x0800238d   Thumb Code   322  os_time.o(i.OSTimeDly)
    OSTimeDlyHMSM                            0x080024dd   Thumb Code   538  os_time.o(i.OSTimeDlyHMSM)
    OSTimeTick                               0x08002709   Thumb Code    54  os_time.o(i.OSTimeTick)
    OSTimeTickHook                           0x0800274d   Thumb Code    16  os_cpu_c.o(i.OSTimeTickHook)
    OS_CPU_SysTickHandler                    0x08002761   Thumb Code    60  os_cpu_c.o(i.OS_CPU_SysTickHandler)
    OS_CPU_SysTickInit                       0x080027a1   Thumb Code    44  os_cpu_c.o(i.OS_CPU_SysTickInit)
    OS_Dbg_Init                              0x080027d1   Thumb Code   150  os_dbg.o(i.OS_Dbg_Init)
    OS_FlagInit                              0x08002985   Thumb Code    14  os_flag.o(i.OS_FlagInit)
    OS_FlagPost                              0x0800299d   Thumb Code   626  os_flag.o(i.OS_FlagPost)
    OS_FlagTaskRdy                           0x08002c19   Thumb Code    86  os_flag.o(i.OS_FlagTaskRdy)
    OS_IdleTask                              0x08002c71   Thumb Code    68  os_core.o(i.OS_IdleTask)
    OS_IdleTaskInit                          0x08002cbd   Thumb Code    66  os_core.o(i.OS_IdleTaskInit)
    OS_IntQPost                              0x08002d2d   Thumb Code   224  os_int.o(i.OS_IntQPost)
    OS_IntQRePost                            0x08002e31   Thumb Code   360  os_int.o(i.OS_IntQRePost)
    OS_IntQTask                              0x08002fd5   Thumb Code   182  os_int.o(i.OS_IntQTask)
    OS_IntQTaskInit                          0x0800309d   Thumb Code   206  os_int.o(i.OS_IntQTaskInit)
    OS_MemInit                               0x080031c5   Thumb Code    14  os_mem.o(i.OS_MemInit)
    OS_MsgPoolInit                           0x080031dd   Thumb Code   110  os_msg.o(i.OS_MsgPoolInit)
    OS_MsgQFreeAll                           0x08003259   Thumb Code    62  os_msg.o(i.OS_MsgQFreeAll)
    OS_MsgQInit                              0x0800329d   Thumb Code    14  os_msg.o(i.OS_MsgQInit)
    OS_MsgQPut                               0x080032ad   Thumb Code   254  os_msg.o(i.OS_MsgQPut)
    OS_MutexInit                             0x080033b1   Thumb Code    14  os_mutex.o(i.OS_MutexInit)
    OS_Pend                                  0x080033c9   Thumb Code    98  os_core.o(i.OS_Pend)
    OS_PendDataInit                          0x08003431   Thumb Code    38  os_core.o(i.OS_PendDataInit)
    OS_PendDbgNameAdd                        0x08003459   Thumb Code    66  os_core.o(i.OS_PendDbgNameAdd)
    OS_PendDbgNameRemove                     0x080034b5   Thumb Code    30  os_core.o(i.OS_PendDbgNameRemove)
    OS_PendListInsertPrio                    0x080034d9   Thumb Code   102  os_core.o(i.OS_PendListInsertPrio)
    OS_PendListRemove                        0x0800353f   Thumb Code    48  os_core.o(i.OS_PendListRemove)
    OS_PendListRemove1                       0x0800356f   Thumb Code    66  os_core.o(i.OS_PendListRemove1)
    OS_Post                                  0x080035b1   Thumb Code   192  os_core.o(i.OS_Post)
    OS_Post1                                 0x08003671   Thumb Code    42  os_core.o(i.OS_Post1)
    OS_PrioGetHighest                        0x0800369d   Thumb Code    36  os_prio.o(i.OS_PrioGetHighest)
    OS_PrioInit                              0x080036c5   Thumb Code    20  os_prio.o(i.OS_PrioInit)
    OS_PrioInsert                            0x080036dd   Thumb Code    32  os_prio.o(i.OS_PrioInsert)
    OS_PrioRemove                            0x08003701   Thumb Code    32  os_prio.o(i.OS_PrioRemove)
    OS_QInit                                 0x08003725   Thumb Code    14  os_q.o(i.OS_QInit)
    OS_QPost                                 0x0800373d   Thumb Code   382  os_q.o(i.OS_QPost)
    OS_RdyListInit                           0x080038c5   Thumb Code    32  os_core.o(i.OS_RdyListInit)
    OS_RdyListInsert                         0x080038e9   Thumb Code    40  os_core.o(i.OS_RdyListInsert)
    OS_RdyListInsertHead                     0x08003915   Thumb Code    58  os_core.o(i.OS_RdyListInsertHead)
    OS_RdyListInsertTail                     0x08003955   Thumb Code    56  os_core.o(i.OS_RdyListInsertTail)
    OS_RdyListMoveHeadToTail                 0x08003991   Thumb Code    68  os_core.o(i.OS_RdyListMoveHeadToTail)
    OS_RdyListRemove                         0x080039d5   Thumb Code    86  os_core.o(i.OS_RdyListRemove)
    OS_Sched0                                0x08003a31   Thumb Code    72  os_core.o(i.OS_Sched0)
    OS_SchedLockTimeMeasStart                0x08003a8d   Thumb Code    20  os_core.o(i.OS_SchedLockTimeMeasStart)
    OS_SchedLockTimeMeasStop                 0x08003aa9   Thumb Code    44  os_core.o(i.OS_SchedLockTimeMeasStop)
    OS_SchedRoundRobin                       0x08003ae5   Thumb Code   218  os_core.o(i.OS_SchedRoundRobin)
    OS_SemInit                               0x08003bd1   Thumb Code    14  os_sem.o(i.OS_SemInit)
    OS_SemPost                               0x08003be9   Thumb Code   404  os_sem.o(i.OS_SemPost)
    OS_StatTask                              0x08003d81   Thumb Code   878  os_stat.o(i.OS_StatTask)
    OS_StatTaskInit                          0x08004139   Thumb Code   136  os_stat.o(i.OS_StatTaskInit)
    OS_TaskBlock                             0x08004205   Thumb Code    56  os_core.o(i.OS_TaskBlock)
    OS_TaskDbgListAdd                        0x0800423d   Thumb Code    42  os_task.o(i.OS_TaskDbgListAdd)
    OS_TaskDbgListRemove                     0x0800426d   Thumb Code    64  os_task.o(i.OS_TaskDbgListRemove)
    OS_TaskInit                              0x080042b1   Thumb Code    18  os_task.o(i.OS_TaskInit)
    OS_TaskInitTCB                           0x080042d1   Thumb Code   194  os_task.o(i.OS_TaskInitTCB)
    OS_TaskQPost                             0x080043a1   Thumb Code   606  os_task.o(i.OS_TaskQPost)
    OS_TaskRdy                               0x0800460d   Thumb Code    28  os_core.o(i.OS_TaskRdy)
    OS_TaskResume                            0x08004629   Thumb Code   374  os_task.o(i.OS_TaskResume)
    OS_TaskReturn                            0x080047a5   Thumb Code    20  os_task.o(i.OS_TaskReturn)
    OS_TaskSemPost                           0x080047bd   Thumb Code  1438  os_task.o(i.OS_TaskSemPost)
    OS_TaskSuspend                           0x08004d65   Thumb Code   392  os_task.o(i.OS_TaskSuspend)
    OS_TickListInit                          0x08004ef5   Thumb Code    32  os_tick.o(i.OS_TickListInit)
    OS_TickListInsert                        0x08004f1d   Thumb Code   430  os_tick.o(i.OS_TickListInsert)
    OS_TickListRemove                        0x080050d9   Thumb Code    56  os_tick.o(i.OS_TickListRemove)
    OS_TickListResetPeak                     0x08005111   Thumb Code    28  os_tick.o(i.OS_TickListResetPeak)
    OS_TickListUpdate                        0x08005135   Thumb Code   520  os_tick.o(i.OS_TickListUpdate)
    OS_TickTask                              0x08005355   Thumb Code    38  os_tick.o(i.OS_TickTask)
    OS_TickTaskInit                          0x08005381   Thumb Code   128  os_tick.o(i.OS_TickTaskInit)
    OS_TmrInit                               0x08005439   Thumb Code   206  os_tmr.o(i.OS_TmrInit)
    OS_TmrLink                               0x08005561   Thumb Code   196  os_tmr.o(i.OS_TmrLink)
    OS_TmrResetPeak                          0x08005631   Thumb Code    28  os_tmr.o(i.OS_TmrResetPeak)
    OS_TmrTask                               0x08005655   Thumb Code   176  os_tmr.o(i.OS_TmrTask)
    OS_TmrUnlink                             0x08005715   Thumb Code    72  os_tmr.o(i.OS_TmrUnlink)
    SVC_Handler                              0x08005765   Thumb Code     2  stm32f10x_it.o(i.SVC_Handler)
    UsageFault_Handler                       0x08005767   Thumb Code     4  stm32f10x_it.o(i.UsageFault_Handler)
    __scatterload_copy                       0x0800576b   Thumb Code    14  handlers.o(i.__scatterload_copy)
    __scatterload_null                       0x08005779   Thumb Code     2  handlers.o(i.__scatterload_null)
    __scatterload_zeroinit                   0x0800577b   Thumb Code    14  handlers.o(i.__scatterload_zeroinit)
    main                                     0x08005789   Thumb Code    68  main.o(i.main)
    OSCfg_IdleTaskStkBasePtr                 0x08005800   Data           4  os_cfg_app.o(.constdata)
    OSCfg_IdleTaskStkLimit                   0x08005804   Data           4  os_cfg_app.o(.constdata)
    OSCfg_IdleTaskStkSize                    0x08005808   Data           4  os_cfg_app.o(.constdata)
    OSCfg_IdleTaskStkSizeRAM                 0x0800580c   Data           4  os_cfg_app.o(.constdata)
    OSCfg_IntQBasePtr                        0x08005810   Data           4  os_cfg_app.o(.constdata)
    OSCfg_IntQSize                           0x08005814   Data           2  os_cfg_app.o(.constdata)
    OSCfg_IntQSizeRAM                        0x08005818   Data           4  os_cfg_app.o(.constdata)
    OSCfg_IntQTaskStkBasePtr                 0x0800581c   Data           4  os_cfg_app.o(.constdata)
    OSCfg_IntQTaskStkLimit                   0x08005820   Data           4  os_cfg_app.o(.constdata)
    OSCfg_IntQTaskStkSize                    0x08005824   Data           4  os_cfg_app.o(.constdata)
    OSCfg_IntQTaskStkSizeRAM                 0x08005828   Data           4  os_cfg_app.o(.constdata)
    OSCfg_ISRStkBasePtr                      0x0800582c   Data           4  os_cfg_app.o(.constdata)
    OSCfg_ISRStkSize                         0x08005830   Data           4  os_cfg_app.o(.constdata)
    OSCfg_ISRStkSizeRAM                      0x08005834   Data           4  os_cfg_app.o(.constdata)
    OSCfg_MsgPoolSize                        0x08005838   Data           2  os_cfg_app.o(.constdata)
    OSCfg_MsgPoolSizeRAM                     0x0800583c   Data           4  os_cfg_app.o(.constdata)
    OSCfg_MsgPoolBasePtr                     0x08005840   Data           4  os_cfg_app.o(.constdata)
    OSCfg_StatTaskPrio                       0x08005844   Data           1  os_cfg_app.o(.constdata)
    OSCfg_StatTaskRate_Hz                    0x08005848   Data           4  os_cfg_app.o(.constdata)
    OSCfg_StatTaskStkBasePtr                 0x0800584c   Data           4  os_cfg_app.o(.constdata)
    OSCfg_StatTaskStkLimit                   0x08005850   Data           4  os_cfg_app.o(.constdata)
    OSCfg_StatTaskStkSize                    0x08005854   Data           4  os_cfg_app.o(.constdata)
    OSCfg_StatTaskStkSizeRAM                 0x08005858   Data           4  os_cfg_app.o(.constdata)
    OSCfg_StkSizeMin                         0x0800585c   Data           4  os_cfg_app.o(.constdata)
    OSCfg_TickRate_Hz                        0x08005860   Data           4  os_cfg_app.o(.constdata)
    OSCfg_TickTaskPrio                       0x08005864   Data           1  os_cfg_app.o(.constdata)
    OSCfg_TickTaskStkBasePtr                 0x08005868   Data           4  os_cfg_app.o(.constdata)
    OSCfg_TickTaskStkLimit                   0x0800586c   Data           4  os_cfg_app.o(.constdata)
    OSCfg_TickTaskStkSize                    0x08005870   Data           4  os_cfg_app.o(.constdata)
    OSCfg_TickTaskStkSizeRAM                 0x08005874   Data           4  os_cfg_app.o(.constdata)
    OSCfg_TickWheelSize                      0x08005878   Data           2  os_cfg_app.o(.constdata)
    OSCfg_TickWheelSizeRAM                   0x0800587c   Data           4  os_cfg_app.o(.constdata)
    OSCfg_TmrTaskPrio                        0x08005880   Data           1  os_cfg_app.o(.constdata)
    OSCfg_TmrTaskRate_Hz                     0x08005884   Data           4  os_cfg_app.o(.constdata)
    OSCfg_TmrTaskStkBasePtr                  0x08005888   Data           4  os_cfg_app.o(.constdata)
    OSCfg_TmrTaskStkLimit                    0x0800588c   Data           4  os_cfg_app.o(.constdata)
    OSCfg_TmrTaskStkSize                     0x08005890   Data           4  os_cfg_app.o(.constdata)
    OSCfg_TmrTaskStkSizeRAM                  0x08005894   Data           4  os_cfg_app.o(.constdata)
    OSCfg_TmrWheelSize                       0x08005898   Data           2  os_cfg_app.o(.constdata)
    OSCfg_TmrWheelSizeRAM                    0x0800589c   Data           4  os_cfg_app.o(.constdata)
    OSCfg_DataSizeRAM                        0x080058a0   Data           4  os_cfg_app.o(.constdata)
    OSDbg_DbgEn                              0x080058a4   Data           1  os_dbg.o(.constdata)
    OSDbg_ArgChkEn                           0x080058a5   Data           1  os_dbg.o(.constdata)
    OSDbg_AppHooksEn                         0x080058a6   Data           1  os_dbg.o(.constdata)
    OSDbg_EndiannessTest                     0x080058a8   Data           4  os_dbg.o(.constdata)
    OSDbg_CalledFromISRChkEn                 0x080058ac   Data           1  os_dbg.o(.constdata)
    OSDbg_FlagEn                             0x080058ad   Data           1  os_dbg.o(.constdata)
    OSDbg_FlagGrp                            0x080058b0   Data          40  os_dbg.o(.constdata)
    OSDbg_FlagDelEn                          0x080058d8   Data           1  os_dbg.o(.constdata)
    OSDbg_FlagModeClrEn                      0x080058d9   Data           1  os_dbg.o(.constdata)
    OSDbg_FlagPendAbortEn                    0x080058da   Data           1  os_dbg.o(.constdata)
    OSDbg_FlagGrpSize                        0x080058dc   Data           2  os_dbg.o(.constdata)
    OSDbg_FlagWidth                          0x080058de   Data           2  os_dbg.o(.constdata)
    OSDbg_IntQ                               0x080058e0   Data           2  os_dbg.o(.constdata)
    OSDbg_ISRPostDeferredEn                  0x080058e2   Data           1  os_dbg.o(.constdata)
    OSDbg_Mem                                0x080058e4   Data          32  os_dbg.o(.constdata)
    OSDbg_MemEn                              0x08005904   Data           1  os_dbg.o(.constdata)
    OSDbg_MemSize                            0x08005906   Data           2  os_dbg.o(.constdata)
    OSDbg_MsgEn                              0x08005908   Data           1  os_dbg.o(.constdata)
    OSDbg_MsgSize                            0x0800590a   Data           2  os_dbg.o(.constdata)
    OSDbg_MsgPoolSize                        0x0800590c   Data           2  os_dbg.o(.constdata)
    OSDbg_MsgQSize                           0x0800590e   Data           2  os_dbg.o(.constdata)
    OSDbg_Mutex                              0x08005910   Data          44  os_dbg.o(.constdata)
    OSDbg_MutexEn                            0x0800593c   Data           1  os_dbg.o(.constdata)
    OSDbg_MutexDelEn                         0x0800593d   Data           1  os_dbg.o(.constdata)
    OSDbg_MutexPendAbortEn                   0x0800593e   Data           1  os_dbg.o(.constdata)
    OSDbg_MutexSize                          0x08005940   Data           2  os_dbg.o(.constdata)
    OSDbg_ObjTypeChkEn                       0x08005942   Data           1  os_dbg.o(.constdata)
    OSDbg_PendMultiEn                        0x08005943   Data           1  os_dbg.o(.constdata)
    OSDbg_PendDataSize                       0x08005944   Data           2  os_dbg.o(.constdata)
    OSDbg_PendListSize                       0x08005946   Data           2  os_dbg.o(.constdata)
    OSDbg_PendObjSize                        0x08005948   Data           2  os_dbg.o(.constdata)
    OSDbg_PrioMax                            0x0800594a   Data           2  os_dbg.o(.constdata)
    OSDbg_PrioTblSize                        0x0800594c   Data           2  os_dbg.o(.constdata)
    OSDbg_PtrSize                            0x0800594e   Data           2  os_dbg.o(.constdata)
    OSDbg_Q                                  0x08005950   Data          48  os_dbg.o(.constdata)
    OSDbg_QEn                                0x08005980   Data           1  os_dbg.o(.constdata)
    OSDbg_QDelEn                             0x08005981   Data           1  os_dbg.o(.constdata)
    OSDbg_QFlushEn                           0x08005982   Data           1  os_dbg.o(.constdata)
    OSDbg_QPendAbortEn                       0x08005983   Data           1  os_dbg.o(.constdata)
    OSDbg_QSize                              0x08005984   Data           2  os_dbg.o(.constdata)
    OSDbg_SchedRoundRobinEn                  0x08005986   Data           1  os_dbg.o(.constdata)
    OSDbg_Sem                                0x08005988   Data          40  os_dbg.o(.constdata)
    OSDbg_SemEn                              0x080059b0   Data           1  os_dbg.o(.constdata)
    OSDbg_SemDelEn                           0x080059b1   Data           1  os_dbg.o(.constdata)
    OSDbg_SemPendAbortEn                     0x080059b2   Data           1  os_dbg.o(.constdata)
    OSDbg_SemSetEn                           0x080059b3   Data           1  os_dbg.o(.constdata)
    OSDbg_SemSize                            0x080059b4   Data           2  os_dbg.o(.constdata)
    OSDbg_RdyList                            0x080059b6   Data           2  os_dbg.o(.constdata)
    OSDbg_RdyListSize                        0x080059b8   Data           4  os_dbg.o(.constdata)
    OSDbg_StkWidth                           0x080059bc   Data           1  os_dbg.o(.constdata)
    OSDbg_StatTaskEn                         0x080059bd   Data           1  os_dbg.o(.constdata)
    OSDbg_StatTaskStkChkEn                   0x080059be   Data           1  os_dbg.o(.constdata)
    OSDbg_TaskChangePrioEn                   0x080059bf   Data           1  os_dbg.o(.constdata)
    OSDbg_TaskDelEn                          0x080059c0   Data           1  os_dbg.o(.constdata)
    OSDbg_TaskQEn                            0x080059c1   Data           1  os_dbg.o(.constdata)
    OSDbg_TaskQPendAbortEn                   0x080059c2   Data           1  os_dbg.o(.constdata)
    OSDbg_TaskProfileEn                      0x080059c3   Data           1  os_dbg.o(.constdata)
    OSDbg_TaskRegTblSize                     0x080059c4   Data           2  os_dbg.o(.constdata)
    OSDbg_TaskSemPendAbortEn                 0x080059c6   Data           1  os_dbg.o(.constdata)
    OSDbg_TaskSuspendEn                      0x080059c7   Data           1  os_dbg.o(.constdata)
    OSDbg_TCBSize                            0x080059c8   Data           2  os_dbg.o(.constdata)
    OSDbg_TickSpokeSize                      0x080059ca   Data           2  os_dbg.o(.constdata)
    OSDbg_TimeDlyHMSMEn                      0x080059cc   Data           1  os_dbg.o(.constdata)
    OSDbg_TimeDlyResumeEn                    0x080059cd   Data           1  os_dbg.o(.constdata)
    OSDbg_TLS_TblSize                        0x080059ce   Data           2  os_dbg.o(.constdata)
    OSDbg_Tmr                                0x080059d0   Data          52  os_dbg.o(.constdata)
    OSDbg_TmrEn                              0x08005a04   Data           1  os_dbg.o(.constdata)
    OSDbg_TmrDelEn                           0x08005a05   Data           1  os_dbg.o(.constdata)
    OSDbg_TmrSize                            0x08005a06   Data           2  os_dbg.o(.constdata)
    OSDbg_TmrSpokeSize                       0x08005a08   Data           2  os_dbg.o(.constdata)
    OSDbg_VersionNbr                         0x08005a0a   Data           2  os_dbg.o(.constdata)
    OSDbg_DataSize                           0x08005a0c   Data           4  os_dbg.o(.constdata)
    Region$$Table$$Base                      0x08005a10   Number         0  anon$$obj.o(Region$$Table)
    Region$$Table$$Limit                     0x08005a30   Number         0  anon$$obj.o(Region$$Table)
    SystemCoreClock                          0x20000000   Data           4  system_stm32f10x.o(.data)
    AHBPrescTable                            0x20000004   Data          16  system_stm32f10x.o(.data)
    CPU_TS_TmrFreq_Hz                        0x20000028   Data           4  cpu_core.o(.data)
    CPU_IntDisMeasCtr                        0x2000002c   Data           2  cpu_core.o(.data)
    CPU_IntDisNestCtr                        0x2000002e   Data           2  cpu_core.o(.data)
    CPU_IntDisMeasStart_cnts                 0x20000030   Data           4  cpu_core.o(.data)
    CPU_IntDisMeasStop_cnts                  0x20000034   Data           4  cpu_core.o(.data)
    CPU_IntDisMeasOvrhd_cnts                 0x20000038   Data           4  cpu_core.o(.data)
    CPU_IntDisMeasMaxCur_cnts                0x2000003c   Data           4  cpu_core.o(.data)
    CPU_IntDisMeasMax_cnts                   0x20000040   Data           4  cpu_core.o(.data)
    Mem_PoolTbl                              0x20000044   Data           4  lib_mem.o(.data)
    OS_AppTaskCreateHookPtr                  0x20000048   Data           4  os_var.o(.data)
    OS_AppTaskDelHookPtr                     0x2000004c   Data           4  os_var.o(.data)
    OS_AppTaskReturnHookPtr                  0x20000050   Data           4  os_var.o(.data)
    OS_AppIdleTaskHookPtr                    0x20000054   Data           4  os_var.o(.data)
    OS_AppStatTaskHookPtr                    0x20000058   Data           4  os_var.o(.data)
    OS_AppTaskSwHookPtr                      0x2000005c   Data           4  os_var.o(.data)
    OS_AppTimeTickHookPtr                    0x20000060   Data           4  os_var.o(.data)
    OSIdleTaskCtr                            0x20000064   Data           4  os_var.o(.data)
    OSIntNestingCtr                          0x20000068   Data           1  os_var.o(.data)
    OSIntDisTimeMax                          0x2000006c   Data           4  os_var.o(.data)
    OSRunning                                0x20000070   Data           1  os_var.o(.data)
    OSIntQInPtr                              0x20000074   Data           4  os_var.o(.data)
    OSIntQOutPtr                             0x20000078   Data           4  os_var.o(.data)
    OSIntQNbrEntries                         0x2000007c   Data           2  os_var.o(.data)
    OSIntQNbrEntriesMax                      0x2000007e   Data           2  os_var.o(.data)
    OSIntQOvfCtr                             0x20000080   Data           2  os_var.o(.data)
    OSIntQTaskTimeMax                        0x20000084   Data           4  os_var.o(.data)
    OSFlagDbgListPtr                         0x20000088   Data           4  os_var.o(.data)
    OSFlagQty                                0x2000008c   Data           2  os_var.o(.data)
    OSMemDbgListPtr                          0x20000090   Data           4  os_var.o(.data)
    OSMemQty                                 0x20000094   Data           2  os_var.o(.data)
    OSMutexDbgListPtr                        0x20000098   Data           4  os_var.o(.data)
    OSMutexQty                               0x2000009c   Data           2  os_var.o(.data)
    OSPrioCur                                0x2000009e   Data           1  os_var.o(.data)
    OSPrioHighRdy                            0x2000009f   Data           1  os_var.o(.data)
    OSPrioSaved                              0x200000a0   Data           1  os_var.o(.data)
    OSQDbgListPtr                            0x200000a4   Data           4  os_var.o(.data)
    OSQQty                                   0x200000a8   Data           2  os_var.o(.data)
    OSSchedLockTimeBegin                     0x200000ac   Data           4  os_var.o(.data)
    OSSchedLockTimeMax                       0x200000b0   Data           4  os_var.o(.data)
    OSSchedLockTimeMaxCur                    0x200000b4   Data           4  os_var.o(.data)
    OSSchedLockNestingCtr                    0x200000b8   Data           1  os_var.o(.data)
    OSSchedRoundRobinDfltTimeQuanta          0x200000bc   Data           4  os_var.o(.data)
    OSSchedRoundRobinEn                      0x200000c0   Data           1  os_var.o(.data)
    OSSemDbgListPtr                          0x200000c4   Data           4  os_var.o(.data)
    OSSemQty                                 0x200000c8   Data           2  os_var.o(.data)
    OSStatResetFlag                          0x200000ca   Data           1  os_var.o(.data)
    OSStatTaskCPUUsage                       0x200000cc   Data           2  os_var.o(.data)
    OSStatTaskCPUUsageMax                    0x200000ce   Data           2  os_var.o(.data)
    OSStatTaskCtr                            0x200000d0   Data           4  os_var.o(.data)
    OSStatTaskCtrMax                         0x200000d4   Data           4  os_var.o(.data)
    OSStatTaskCtrRun                         0x200000d8   Data           4  os_var.o(.data)
    OSStatTaskRdy                            0x200000dc   Data           1  os_var.o(.data)
    OSStatTaskTimeMax                        0x200000e0   Data           4  os_var.o(.data)
    OSTaskCtxSwCtr                           0x200000e4   Data           4  os_var.o(.data)
    OSTaskDbgListPtr                         0x200000e8   Data           4  os_var.o(.data)
    OSTaskQty                                0x200000ec   Data           2  os_var.o(.data)
    OSTaskRegNextAvailID                     0x200000ee   Data           1  os_var.o(.data)
    OSTickCtr                                0x200000f0   Data           4  os_var.o(.data)
    OSTickTaskTimeMax                        0x200000f4   Data           4  os_var.o(.data)
    OSTmrDbgListPtr                          0x200000f8   Data           4  os_var.o(.data)
    OSTmrQty                                 0x200000fc   Data           2  os_var.o(.data)
    OSTmrTaskTimeMax                         0x20000100   Data           4  os_var.o(.data)
    OSTmrTickCtr                             0x20000104   Data           4  os_var.o(.data)
    OSTmrUpdateCnt                           0x20000108   Data           4  os_var.o(.data)
    OSTmrUpdateCtr                           0x2000010c   Data           4  os_var.o(.data)
    OSTCBCurPtr                              0x20000110   Data           4  os_var.o(.data)
    OSTCBHighRdyPtr                          0x20000114   Data           4  os_var.o(.data)
    OS_CPU_ExceptStkBase                     0x20000118   Data           4  os_cpu_c.o(.data)
    OSPrioTbl                                0x2000011c   Data           4  os_prio.o(.data)
    CPU_Name                                 0x20001578   Data          16  cpu_core.o(.bss)
    Mem_PoolHeap                             0x20001588   Data          72  lib_mem.o(.bss)
    Mem_Heap                                 0x200015d0   Data       27648  lib_mem.o(.bss)
    OSCfg_IdleTaskStk                        0x200081d0   Data         512  os_cfg_app.o(.bss)
    OSCfg_IntQ                               0x200083d0   Data         320  os_cfg_app.o(.bss)
    OSCfg_IntQTaskStk                        0x20008510   Data         512  os_cfg_app.o(.bss)
    OSCfg_ISRStk                             0x20008710   Data         512  os_cfg_app.o(.bss)
    OSCfg_MsgPool                            0x20008910   Data        1600  os_cfg_app.o(.bss)
    OSCfg_StatTaskStk                        0x20008f50   Data         512  os_cfg_app.o(.bss)
    OSCfg_TickTaskStk                        0x20009150   Data         512  os_cfg_app.o(.bss)
    OSCfg_TickWheel                          0x20009350   Data         136  os_cfg_app.o(.bss)
    OSCfg_TmrTaskStk                         0x200093d8   Data         512  os_cfg_app.o(.bss)
    OSCfg_TmrWheel                           0x200095d8   Data         136  os_cfg_app.o(.bss)
    OSIdleTaskTCB                            0x20009660   Data         200  os_var.o(.bss)
    OSIntQTaskTCB                            0x20009728   Data         200  os_var.o(.bss)
    OSMsgPool                                0x200097f0   Data          12  os_var.o(.bss)
    OSRdyList                                0x200097fc   Data         384  os_var.o(.bss)
    OSStatTaskTCB                            0x2000997c   Data         200  os_var.o(.bss)
    OSTickTaskTCB                            0x20009a44   Data         200  os_var.o(.bss)
    OSTmrTaskTCB                             0x20009b0c   Data         200  os_var.o(.bss)
    __initial_sp                             0x20009fd8   Data           0  startup_stm32f10x_hd.o(STACK)



==============================================================================

Memory Map of the image

  Image Entry point : 0x08000131

  Load Region LR_IROM1 (Base: 0x08000000, Size: 0x00005b50, Max: 0x00080000, ABSOLUTE)

    Execution Region ER_IROM1 (Exec base: 0x08000000, Load base: 0x08000000, Size: 0x00005a30, Max: 0x00080000, ABSOLUTE)

    Exec Addr    Load Addr    Size         Type   Attr      Idx    E Section Name        Object

    0x08000000   0x08000000   0x00000130   Data   RO            3    RESET               startup_stm32f10x_hd.o
    0x08000130   0x08000130   0x00000000   Code   RO         2400  * .ARM.Collect$$$$00000000  mc_w.l(entry.o)
    0x08000130   0x08000130   0x00000004   Code   RO         2407    .ARM.Collect$$$$00000001  mc_w.l(entry2.o)
    0x08000134   0x08000134   0x00000004   Code   RO         2410    .ARM.Collect$$$$00000004  mc_w.l(entry5.o)
    0x08000138   0x08000138   0x00000000   Code   RO         2412    .ARM.Collect$$$$00000008  mc_w.l(entry7b.o)
    0x08000138   0x08000138   0x00000000   Code   RO         2414    .ARM.Collect$$$$0000000A  mc_w.l(entry8b.o)
    0x08000138   0x08000138   0x00000008   Code   RO         2415    .ARM.Collect$$$$0000000B  mc_w.l(entry9a.o)
    0x08000140   0x08000140   0x00000004   Code   RO         2422    .ARM.Collect$$$$0000000E  mc_w.l(entry12b.o)
    0x08000144   0x08000144   0x00000000   Code   RO         2417    .ARM.Collect$$$$0000000F  mc_w.l(entry10a.o)
    0x08000144   0x08000144   0x00000000   Code   RO         2419    .ARM.Collect$$$$00000011  mc_w.l(entry11a.o)
    0x08000144   0x08000144   0x00000004   Code   RO         2408    .ARM.Collect$$$$00002712  mc_w.l(entry2.o)
    0x08000148   0x08000148   0x00000024   Code   RO            4    .text               startup_stm32f10x_hd.o
    0x0800016c   0x0800016c   0x000001dc   Code   RO          459    .text               stm32f10x_hd.lib(system_stm32f10x.o)
    0x08000348   0x08000348   0x00000358   Code   RO          559    .text               stm32f10x_hd.lib(stm32f10x_gpio.o)
    0x080006a0   0x080006a0   0x000003a4   Code   RO          594    .text               stm32f10x_hd.lib(stm32f10x_rcc.o)
    0x08000a44   0x08000a44   0x00000034   Code   RO          810    .text               UCOSIII.lib(cpu_a.o)
    0x08000a78   0x08000a78   0x00000024   Code   RO         2403    .text               mc_w.l(memcpya.o)
    0x08000a9c   0x08000a9c   0x00000024   Code   RO         2423    .text               mc_w.l(init.o)
    0x08000ac0   0x08000ac0   0x00000084   Code   RO         2292    CODE                UCOSIII.lib(os_cpu_a.o)
    0x08000b44   0x08000b44   0x0000006c   Code   RO           10    i.AppTaskLed1       main.o
    0x08000bb0   0x08000bb0   0x00000034   Code   RO           11    i.AppTaskLed2       main.o
    0x08000be4   0x08000be4   0x000000d8   Code   RO           12    i.AppTaskStart      main.o
    0x08000cbc   0x08000cbc   0x00000010   Code   RO          339    i.BSP_CPU_ClkFreq   bsp.o
    0x08000ccc   0x08000ccc   0x0000000c   Code   RO          340    i.BSP_Init          bsp.o
    0x08000cd8   0x08000cd8   0x00000004   Code   RO          276    i.BusFault_Handler  stm32f10x_it.o
    0x08000cdc   0x08000cdc   0x00000010   Code   RO          628    i.CPU_Init          UCOSIII.lib(cpu_core.o)
    0x08000cec   0x08000cec   0x00000084   Code   RO          629    i.CPU_IntDisMeasInit  UCOSIII.lib(cpu_core.o)
    0x08000d70   0x08000d70   0x0000001c   Code   RO          630    i.CPU_IntDisMeasMaxCalc  UCOSIII.lib(cpu_core.o)
    0x08000d8c   0x08000d8c   0x0000002c   Code   RO          631    i.CPU_IntDisMeasMaxCurGet  UCOSIII.lib(cpu_core.o)
    0x08000db8   0x08000db8   0x0000002c   Code   RO          632    i.CPU_IntDisMeasMaxCurReset  UCOSIII.lib(cpu_core.o)
    0x08000de4   0x08000de4   0x0000002c   Code   RO          633    i.CPU_IntDisMeasMaxGet  UCOSIII.lib(cpu_core.o)
    0x08000e10   0x08000e10   0x00000034   Code   RO          634    i.CPU_IntDisMeasStart  UCOSIII.lib(cpu_core.o)
    0x08000e44   0x08000e44   0x00000054   Code   RO          635    i.CPU_IntDisMeasStop  UCOSIII.lib(cpu_core.o)
    0x08000e98   0x08000e98   0x00000038   Code   RO          636    i.CPU_NameClr       UCOSIII.lib(cpu_core.o)
    0x08000ed0   0x08000ed0   0x00000008   Code   RO          638    i.CPU_NameInit      UCOSIII.lib(cpu_core.o)
    0x08000ed8   0x08000ed8   0x00000014   Code   RO          642    i.CPU_TS_Init       UCOSIII.lib(cpu_core.o)
    0x08000eec   0x08000eec   0x0000000c   Code   RO          644    i.CPU_TS_TmrFreqSet  UCOSIII.lib(cpu_core.o)
    0x08000ef8   0x08000ef8   0x00000034   Code   RO          341    i.CPU_TS_TmrInit    bsp.o
    0x08000f2c   0x08000f2c   0x0000000c   Code   RO          342    i.CPU_TS_TmrRd      bsp.o
    0x08000f38   0x08000f38   0x00000002   Code   RO          277    i.DebugMon_Handler  stm32f10x_it.o
    0x08000f3a   0x08000f3a   0x00000004   Code   RO          278    i.HardFault_Handler  stm32f10x_it.o
    0x08000f3e   0x08000f3e   0x00000002   PAD
    0x08000f40   0x08000f40   0x00000024   Code   RO          420    i.Key1_Config       bsp_key.o
    0x08000f64   0x08000f64   0x00000024   Code   RO          421    i.Key2_Config       bsp_key.o
    0x08000f88   0x08000f88   0x00000024   Code   RO          422    i.Key3_Config       bsp_key.o
    0x08000fac   0x08000fac   0x00000010   Code   RO          423    i.Key_Initial       bsp_key.o
    0x08000fbc   0x08000fbc   0x00000058   Code   RO          425    i.Key_Scan          bsp_key.o
    0x08001014   0x08001014   0x000000c4   Code   RO          403    i.LED_GPIO_Config   bsp_led.o
    0x080010d8   0x080010d8   0x00000024   Code   RO          404    i.LED_Init          bsp_led.o
    0x080010fc   0x080010fc   0x00000004   Code   RO          279    i.MemManage_Handler  stm32f10x_it.o
    0x08001100   0x08001100   0x00000012   Code   RO          813    i.Mem_Clr           UCOSIII.lib(lib_mem.o)
    0x08001112   0x08001112   0x00000002   PAD
    0x08001114   0x08001114   0x00000048   Code   RO          817    i.Mem_Init          UCOSIII.lib(lib_mem.o)
    0x0800115c   0x0800115c   0x00000062   Code   RO          830    i.Mem_Set           UCOSIII.lib(lib_mem.o)
    0x080011be   0x080011be   0x00000002   Code   RO          280    i.NMI_Handler       stm32f10x_it.o
    0x080011c0   0x080011c0   0x00000002   Code   RO          938    i.OSCfg_Init        UCOSIII.lib(os_cfg_app.o)
    0x080011c2   0x080011c2   0x00000002   PAD
    0x080011c4   0x080011c4   0x00000014   Code   RO         1478    i.OSIdleTaskHook    UCOSIII.lib(os_cpu_c.o)
    0x080011d8   0x080011d8   0x0000018c   Code   RO          974    i.OSInit            UCOSIII.lib(os_core.o)
    0x08001364   0x08001364   0x00000038   Code   RO         1479    i.OSInitHook        UCOSIII.lib(os_cpu_c.o)
    0x0800139c   0x0800139c   0x000000e4   Code   RO          976    i.OSIntExit         UCOSIII.lib(os_core.o)
    0x08001480   0x08001480   0x000000a8   Code   RO          977    i.OSSched           UCOSIII.lib(os_core.o)
    0x08001528   0x08001528   0x0000007c   Code   RO          978    i.OSSchedLock       UCOSIII.lib(os_core.o)
    0x080015a4   0x080015a4   0x000000a0   Code   RO          981    i.OSSchedUnlock     UCOSIII.lib(os_core.o)
    0x08001644   0x08001644   0x00000068   Code   RO          982    i.OSStart           UCOSIII.lib(os_core.o)
    0x080016ac   0x080016ac   0x00000168   Code   RO         1224    i.OSStatReset       UCOSIII.lib(os_stat.o)
    0x08001814   0x08001814   0x00000100   Code   RO         1225    i.OSStatTaskCPUUsageInit  UCOSIII.lib(os_stat.o)
    0x08001914   0x08001914   0x00000014   Code   RO         1480    i.OSStatTaskHook    UCOSIII.lib(os_cpu_c.o)
    0x08001928   0x08001928   0x00000294   Code   RO         1255    i.OSTaskCreate      UCOSIII.lib(os_task.o)
    0x08001bbc   0x08001bbc   0x00000018   Code   RO         1481    i.OSTaskCreateHook  UCOSIII.lib(os_cpu_c.o)
    0x08001bd4   0x08001bd4   0x00000208   Code   RO         1256    i.OSTaskDel         UCOSIII.lib(os_task.o)
    0x08001ddc   0x08001ddc   0x00000018   Code   RO         1482    i.OSTaskDelHook     UCOSIII.lib(os_cpu_c.o)
    0x08001df4   0x08001df4   0x00000088   Code   RO         1264    i.OSTaskResume      UCOSIII.lib(os_task.o)
    0x08001e7c   0x08001e7c   0x00000018   Code   RO         1483    i.OSTaskReturnHook  UCOSIII.lib(os_cpu_c.o)
    0x08001e94   0x08001e94   0x00000250   Code   RO         1265    i.OSTaskSemPend     UCOSIII.lib(os_task.o)
    0x080020e4   0x080020e4   0x000000e4   Code   RO         1269    i.OSTaskStkChk      UCOSIII.lib(os_task.o)
    0x080021c8   0x080021c8   0x000000c0   Code   RO         1484    i.OSTaskStkInit     UCOSIII.lib(os_cpu_c.o)
    0x08002288   0x08002288   0x00000060   Code   RO         1270    i.OSTaskSuspend     UCOSIII.lib(os_task.o)
    0x080022e8   0x080022e8   0x000000a4   Code   RO         1485    i.OSTaskSwHook      UCOSIII.lib(os_cpu_c.o)
    0x0800238c   0x0800238c   0x00000150   Code   RO         1422    i.OSTimeDly         UCOSIII.lib(os_time.o)
    0x080024dc   0x080024dc   0x0000022c   Code   RO         1423    i.OSTimeDlyHMSM     UCOSIII.lib(os_time.o)
    0x08002708   0x08002708   0x00000044   Code   RO         1427    i.OSTimeTick        UCOSIII.lib(os_time.o)
    0x0800274c   0x0800274c   0x00000014   Code   RO         1486    i.OSTimeTickHook    UCOSIII.lib(os_cpu_c.o)
    0x08002760   0x08002760   0x00000040   Code   RO         1487    i.OS_CPU_SysTickHandler  UCOSIII.lib(os_cpu_c.o)
    0x080027a0   0x080027a0   0x00000030   Code   RO         1488    i.OS_CPU_SysTickInit  UCOSIII.lib(os_cpu_c.o)
    0x080027d0   0x080027d0   0x000001b4   Code   RO         1712    i.OS_Dbg_Init       UCOSIII.lib(os_dbg.o)
    0x08002984   0x08002984   0x00000018   Code   RO         1737    i.OS_FlagInit       UCOSIII.lib(os_flag.o)
    0x0800299c   0x0800299c   0x0000027c   Code   RO         1738    i.OS_FlagPost       UCOSIII.lib(os_flag.o)
    0x08002c18   0x08002c18   0x00000056   Code   RO         1739    i.OS_FlagTaskRdy    UCOSIII.lib(os_flag.o)
    0x08002c6e   0x08002c6e   0x00000002   PAD
    0x08002c70   0x08002c70   0x0000004c   Code   RO          984    i.OS_IdleTask       UCOSIII.lib(os_core.o)
    0x08002cbc   0x08002cbc   0x00000070   Code   RO          985    i.OS_IdleTaskInit   UCOSIII.lib(os_core.o)
    0x08002d2c   0x08002d2c   0x00000104   Code   RO         1811    i.OS_IntQPost       UCOSIII.lib(os_int.o)
    0x08002e30   0x08002e30   0x000001a4   Code   RO         1812    i.OS_IntQRePost     UCOSIII.lib(os_int.o)
    0x08002fd4   0x08002fd4   0x000000c8   Code   RO         1813    i.OS_IntQTask       UCOSIII.lib(os_int.o)
    0x0800309c   0x0800309c   0x00000128   Code   RO         1814    i.OS_IntQTaskInit   UCOSIII.lib(os_int.o)
    0x080031c4   0x080031c4   0x00000018   Code   RO         1845    i.OS_MemInit        UCOSIII.lib(os_mem.o)
    0x080031dc   0x080031dc   0x0000007c   Code   RO         1877    i.OS_MsgPoolInit    UCOSIII.lib(os_msg.o)
    0x08003258   0x08003258   0x00000044   Code   RO         1878    i.OS_MsgQFreeAll    UCOSIII.lib(os_msg.o)
    0x0800329c   0x0800329c   0x0000000e   Code   RO         1880    i.OS_MsgQInit       UCOSIII.lib(os_msg.o)
    0x080032aa   0x080032aa   0x00000002   PAD
    0x080032ac   0x080032ac   0x00000104   Code   RO         1881    i.OS_MsgQPut        UCOSIII.lib(os_msg.o)
    0x080033b0   0x080033b0   0x00000018   Code   RO         1921    i.OS_MutexInit      UCOSIII.lib(os_mutex.o)
    0x080033c8   0x080033c8   0x00000068   Code   RO          986    i.OS_Pend           UCOSIII.lib(os_core.o)
    0x08003430   0x08003430   0x00000026   Code   RO          989    i.OS_PendDataInit   UCOSIII.lib(os_core.o)
    0x08003456   0x08003456   0x00000002   PAD
    0x08003458   0x08003458   0x0000005c   Code   RO          990    i.OS_PendDbgNameAdd  UCOSIII.lib(os_core.o)
    0x080034b4   0x080034b4   0x00000024   Code   RO          991    i.OS_PendDbgNameRemove  UCOSIII.lib(os_core.o)
    0x080034d8   0x080034d8   0x00000066   Code   RO          995    i.OS_PendListInsertPrio  UCOSIII.lib(os_core.o)
    0x0800353e   0x0800353e   0x00000030   Code   RO          996    i.OS_PendListRemove  UCOSIII.lib(os_core.o)
    0x0800356e   0x0800356e   0x00000042   Code   RO          997    i.OS_PendListRemove1  UCOSIII.lib(os_core.o)
    0x080035b0   0x080035b0   0x000000c0   Code   RO         1000    i.OS_Post           UCOSIII.lib(os_core.o)
    0x08003670   0x08003670   0x0000002a   Code   RO         1001    i.OS_Post1          UCOSIII.lib(os_core.o)
    0x0800369a   0x0800369a   0x00000002   PAD
    0x0800369c   0x0800369c   0x00000028   Code   RO         1973    i.OS_PrioGetHighest  UCOSIII.lib(os_prio.o)
    0x080036c4   0x080036c4   0x00000018   Code   RO         1974    i.OS_PrioInit       UCOSIII.lib(os_prio.o)
    0x080036dc   0x080036dc   0x00000024   Code   RO         1975    i.OS_PrioInsert     UCOSIII.lib(os_prio.o)
    0x08003700   0x08003700   0x00000024   Code   RO         1976    i.OS_PrioRemove     UCOSIII.lib(os_prio.o)
    0x08003724   0x08003724   0x00000018   Code   RO         2019    i.OS_QInit          UCOSIII.lib(os_q.o)
    0x0800373c   0x0800373c   0x00000188   Code   RO         2020    i.OS_QPost          UCOSIII.lib(os_q.o)
    0x080038c4   0x080038c4   0x00000024   Code   RO         1002    i.OS_RdyListInit    UCOSIII.lib(os_core.o)
    0x080038e8   0x080038e8   0x0000002c   Code   RO         1003    i.OS_RdyListInsert  UCOSIII.lib(os_core.o)
    0x08003914   0x08003914   0x00000040   Code   RO         1004    i.OS_RdyListInsertHead  UCOSIII.lib(os_core.o)
    0x08003954   0x08003954   0x0000003c   Code   RO         1005    i.OS_RdyListInsertTail  UCOSIII.lib(os_core.o)
    0x08003990   0x08003990   0x00000044   Code   RO         1006    i.OS_RdyListMoveHeadToTail  UCOSIII.lib(os_core.o)
    0x080039d4   0x080039d4   0x0000005c   Code   RO         1007    i.OS_RdyListRemove  UCOSIII.lib(os_core.o)
    0x08003a30   0x08003a30   0x0000005c   Code   RO         1008    i.OS_Sched0         UCOSIII.lib(os_core.o)
    0x08003a8c   0x08003a8c   0x0000001c   Code   RO         1009    i.OS_SchedLockTimeMeasStart  UCOSIII.lib(os_core.o)
    0x08003aa8   0x08003aa8   0x0000003c   Code   RO         1010    i.OS_SchedLockTimeMeasStop  UCOSIII.lib(os_core.o)
    0x08003ae4   0x08003ae4   0x000000ec   Code   RO         1011    i.OS_SchedRoundRobin  UCOSIII.lib(os_core.o)
    0x08003bd0   0x08003bd0   0x00000018   Code   RO         2091    i.OS_SemInit        UCOSIII.lib(os_sem.o)
    0x08003be8   0x08003be8   0x00000198   Code   RO         2092    i.OS_SemPost        UCOSIII.lib(os_sem.o)
    0x08003d80   0x08003d80   0x000003b8   Code   RO         1226    i.OS_StatTask       UCOSIII.lib(os_stat.o)
    0x08004138   0x08004138   0x000000cc   Code   RO         1227    i.OS_StatTaskInit   UCOSIII.lib(os_stat.o)
    0x08004204   0x08004204   0x00000038   Code   RO         1012    i.OS_TaskBlock      UCOSIII.lib(os_core.o)
    0x0800423c   0x0800423c   0x00000030   Code   RO         1272    i.OS_TaskDbgListAdd  UCOSIII.lib(os_task.o)
    0x0800426c   0x0800426c   0x00000044   Code   RO         1273    i.OS_TaskDbgListRemove  UCOSIII.lib(os_task.o)
    0x080042b0   0x080042b0   0x00000020   Code   RO         1274    i.OS_TaskInit       UCOSIII.lib(os_task.o)
    0x080042d0   0x080042d0   0x000000d0   Code   RO         1275    i.OS_TaskInitTCB    UCOSIII.lib(os_task.o)
    0x080043a0   0x080043a0   0x0000026c   Code   RO         1276    i.OS_TaskQPost      UCOSIII.lib(os_task.o)
    0x0800460c   0x0800460c   0x0000001c   Code   RO         1013    i.OS_TaskRdy        UCOSIII.lib(os_core.o)
    0x08004628   0x08004628   0x0000017c   Code   RO         1277    i.OS_TaskResume     UCOSIII.lib(os_task.o)
    0x080047a4   0x080047a4   0x00000018   Code   RO         1278    i.OS_TaskReturn     UCOSIII.lib(os_task.o)
    0x080047bc   0x080047bc   0x000005a8   Code   RO         1279    i.OS_TaskSemPost    UCOSIII.lib(os_task.o)
    0x08004d64   0x08004d64   0x00000190   Code   RO         1280    i.OS_TaskSuspend    UCOSIII.lib(os_task.o)
    0x08004ef4   0x08004ef4   0x00000028   Code   RO         2154    i.OS_TickListInit   UCOSIII.lib(os_tick.o)
    0x08004f1c   0x08004f1c   0x000001bc   Code   RO         2155    i.OS_TickListInsert  UCOSIII.lib(os_tick.o)
    0x080050d8   0x080050d8   0x00000038   Code   RO         2156    i.OS_TickListRemove  UCOSIII.lib(os_tick.o)
    0x08005110   0x08005110   0x00000024   Code   RO         2157    i.OS_TickListResetPeak  UCOSIII.lib(os_tick.o)
    0x08005134   0x08005134   0x00000220   Code   RO         2158    i.OS_TickListUpdate  UCOSIII.lib(os_tick.o)
    0x08005354   0x08005354   0x0000002c   Code   RO         2159    i.OS_TickTask       UCOSIII.lib(os_tick.o)
    0x08005380   0x08005380   0x000000b8   Code   RO         2160    i.OS_TickTaskInit   UCOSIII.lib(os_tick.o)
    0x08005438   0x08005438   0x00000128   Code   RO         2211    i.OS_TmrInit        UCOSIII.lib(os_tmr.o)
    0x08005560   0x08005560   0x000000d0   Code   RO         2212    i.OS_TmrLink        UCOSIII.lib(os_tmr.o)
    0x08005630   0x08005630   0x00000024   Code   RO         2213    i.OS_TmrResetPeak   UCOSIII.lib(os_tmr.o)
    0x08005654   0x08005654   0x000000c0   Code   RO         2214    i.OS_TmrTask        UCOSIII.lib(os_tmr.o)
    0x08005714   0x08005714   0x00000050   Code   RO         2215    i.OS_TmrUnlink      UCOSIII.lib(os_tmr.o)
    0x08005764   0x08005764   0x00000002   Code   RO          282    i.SVC_Handler       stm32f10x_it.o
    0x08005766   0x08005766   0x00000004   Code   RO          284    i.UsageFault_Handler  stm32f10x_it.o
    0x0800576a   0x0800576a   0x0000000e   Code   RO         2427    i.__scatterload_copy  mc_w.l(handlers.o)
    0x08005778   0x08005778   0x00000002   Code   RO         2428    i.__scatterload_null  mc_w.l(handlers.o)
    0x0800577a   0x0800577a   0x0000000e   Code   RO         2429    i.__scatterload_zeroinit  mc_w.l(handlers.o)
    0x08005788   0x08005788   0x00000060   Code   RO           13    i.main              main.o
    0x080057e8   0x080057e8   0x00000018   Data   RO           15    .constdata          main.o
    0x08005800   0x08005800   0x000000a4   Data   RO          940    .constdata          UCOSIII.lib(os_cfg_app.o)
    0x080058a4   0x080058a4   0x0000016c   Data   RO         1713    .constdata          UCOSIII.lib(os_dbg.o)
    0x08005a10   0x08005a10   0x00000020   Data   RO         2425    Region$$Table       anon$$obj.o


    Execution Region RW_IRAM1 (Exec base: 0x20000000, Load base: 0x08005a30, Size: 0x00009fd8, Max: 0x00010000, ABSOLUTE)

    Exec Addr    Load Addr    Size         Type   Attr      Idx    E Section Name        Object

    0x20000000   0x08005a30   0x00000014   Data   RW          460    .data               stm32f10x_hd.lib(system_stm32f10x.o)
    0x20000014   0x08005a44   0x00000014   Data   RW          595    .data               stm32f10x_hd.lib(stm32f10x_rcc.o)
    0x20000028   0x08005a58   0x0000001c   Data   RW          648    .data               UCOSIII.lib(cpu_core.o)
    0x20000044   0x08005a74   0x00000004   Data   RW          832    .data               UCOSIII.lib(lib_mem.o)
    0x20000048   0x08005a78   0x000000d0   Data   RW         1465    .data               UCOSIII.lib(os_var.o)
    0x20000118   0x08005b48   0x00000004   Data   RW         1489    .data               UCOSIII.lib(os_cpu_c.o)
    0x2000011c   0x08005b4c   0x00000004   Data   RW         1977    .data               UCOSIII.lib(os_prio.o)
    0x20000120        -       0x00001458   Zero   RW           14    .bss                main.o
    0x20001578        -       0x00000010   Zero   RW          646    .bss                UCOSIII.lib(cpu_core.o)
    0x20001588        -       0x00006c48   Zero   RW          831    .bss                UCOSIII.lib(lib_mem.o)
    0x200081d0        -       0x00001490   Zero   RW          939    .bss                UCOSIII.lib(os_cfg_app.o)
    0x20009660        -       0x00000574   Zero   RW         1464    .bss                UCOSIII.lib(os_var.o)
    0x20009bd4   0x08005b50   0x00000004   PAD
    0x20009bd8        -       0x00000400   Zero   RW            1    STACK               startup_stm32f10x_hd.o


==============================================================================

Image component sizes


      Code (inc. data)   RO Data    RW Data    ZI Data      Debug   Object Name

        92         14          0          0          0       2233   bsp.o
       212         12          0          0          0       3493   bsp_key.o
       232          8          0          0          0       1191   bsp_led.o
       472        108         24          0       5208     258010   main.o
        36          8        304          0       1024        900   startup_stm32f10x_hd.o
        22          0          0          0          0       3663   stm32f10x_it.o

    ----------------------------------------------------------------------
      1068        150        360          0       6232     269490   Object Totals
         0          0         32          0          0          0   (incl. Generated)
         2          0          0          0          0          0   (incl. Padding)

    ----------------------------------------------------------------------

      Code (inc. data)   RO Data    RW Data    ZI Data      Debug   Library Member Name

        52          0          0          0          0        368   cpu_a.o
       540         98          0         28         16      28417   cpu_core.o
       188         18          0          4      27720      23347   lib_mem.o
         2          0        164          0       5264      21914   os_cfg_app.o
      2952        402          0          0          0      39307   os_core.o
       132         32          0          0          0        412   os_cpu_a.o
       656         68          0          4          0       8625   os_cpu_c.o
       436        286        364          0          0       4901   os_dbg.o
       746         28          0          0          0       3225   os_flag.o
      1176        204          0          0          0       3654   os_int.o
        24         10          0          0          0        937   os_mem.o
       466         26          0          0          0       3385   os_msg.o
        24         10          0          0          0        939   os_mutex.o
       136         16          0          4          0       3018   os_prio.o
       416         20          0          0          0       2302   os_q.o
       432         14          0          0          0       2326   os_sem.o
      1772        214          0          0          0       4215   os_stat.o
      5460        260          0          0          0      14344   os_task.o
      1348        124          0          0          0       5721   os_tick.o
       960         46          0          0          0       3245   os_time.o
       812        134          0          0          0       4332   os_tmr.o
         0          0          0        208       1396      19553   os_var.o
         0          0          0          0          0          0   entry.o
         0          0          0          0          0          0   entry10a.o
         0          0          0          0          0          0   entry11a.o
         4          0          0          0          0          0   entry12b.o
         8          4          0          0          0          0   entry2.o
         4          0          0          0          0          0   entry5.o
         0          0          0          0          0          0   entry7b.o
         0          0          0          0          0          0   entry8b.o
         8          4          0          0          0          0   entry9a.o
        30          0          0          0          0          0   handlers.o
        36          8          0          0          0         68   init.o
        36          0          0          0          0         68   memcpya.o
       856         40          0          0          0     208913   stm32f10x_gpio.o
       932         44          0         20          0       8904   stm32f10x_rcc.o
       476         36          0         20          0      22027   system_stm32f10x.o

    ----------------------------------------------------------------------
     21132       2146        528        288      34400     438467   Library Totals
        12          0          0          0          4          0   (incl. Padding)

    ----------------------------------------------------------------------

      Code (inc. data)   RO Data    RW Data    ZI Data      Debug   Library Name

     18730       2010        528        248      34396     198487   UCOSIII.lib
       126         16          0          0          0        136   mc_w.l
      2264        120          0         40          0     239844   stm32f10x_hd.lib

    ----------------------------------------------------------------------
     21132       2146        528        288      34400     438467   Library Totals

    ----------------------------------------------------------------------

==============================================================================


      Code (inc. data)   RO Data    RW Data    ZI Data      Debug   

     22200       2296        888        288      40632     700985   Grand Totals
     22200       2296        888        288      40632     700985   ELF Image Totals
     22200       2296        888        288          0          0   ROM Totals

==============================================================================

    Total RO  Size (Code + RO Data)                23088 (  22.55kB)
    Total RW  Size (RW Data + ZI Data)             40920 (  39.96kB)
    Total ROM Size (Code + RO Data + RW Data)      23376 (  22.83kB)

==============================================================================

