Component: ARM Compiler 5.06 update 7 (build 960) Tool: armlink [4d3601]

==============================================================================

Section Cross References

    startup_stm32f10x_hd.o(RESET) refers to startup_stm32f10x_hd.o(STACK) for __initial_sp
    startup_stm32f10x_hd.o(RESET) refers to startup_stm32f10x_hd.o(.text) for Reset_Handler
    startup_stm32f10x_hd.o(RESET) refers to stm32f10x_it.o(i.NMI_Handler) for NMI_Handler
    startup_stm32f10x_hd.o(RESET) refers to stm32f10x_it.o(i.HardFault_Handler) for HardFault_Handler
    startup_stm32f10x_hd.o(RESET) refers to stm32f10x_it.o(i.MemManage_Handler) for MemManage_Handler
    startup_stm32f10x_hd.o(RESET) refers to stm32f10x_it.o(i.BusFault_Handler) for BusFault_Handler
    startup_stm32f10x_hd.o(RESET) refers to stm32f10x_it.o(i.UsageFault_Handler) for UsageFault_Handler
    startup_stm32f10x_hd.o(RESET) refers to stm32f10x_it.o(i.SVC_Handler) for SVC_Handler
    startup_stm32f10x_hd.o(RESET) refers to stm32f10x_it.o(i.DebugMon_Handler) for DebugMon_Handler
    startup_stm32f10x_hd.o(RESET) refers to os_cpu_a.o(CODE) for OS_CPU_PendSVHandler
    startup_stm32f10x_hd.o(RESET) refers to os_cpu_c.o(i.OS_CPU_SysTickHandler) for OS_CPU_SysTickHandler
    startup_stm32f10x_hd.o(.text) refers to system_stm32f10x.o(.text) for SystemInit
    startup_stm32f10x_hd.o(.text) refers to entry.o(.ARM.Collect$$$$00000000) for __main
    main.o(i.AppTaskLed1) refers to stm32f10x_gpio.o(.text) for GPIO_ReadOutputDataBit
    main.o(i.AppTaskLed1) refers to os_time.o(i.OSTimeDly) for OSTimeDly
    main.o(i.AppTaskLed2) refers to stm32f10x_gpio.o(.text) for GPIO_ReadOutputDataBit
    main.o(i.AppTaskLed2) refers to os_time.o(i.OSTimeDly) for OSTimeDly
    main.o(i.AppTaskLed3) refers to stm32f10x_gpio.o(.text) for GPIO_ReadOutputDataBit
==============================================================================

Removing Unused input sections from the image.

    Removing startup_stm32f10x_hd.o(HEAP), (512 bytes).
    Removing os_app_hooks.o(i.App_OS_ClrAllHooks), (100 bytes).
    Removing os_app_hooks.o(i.App_OS_IdleTaskHook), (2 bytes).
    Removing os_app_hooks.o(i.App_OS_InitHook), (2 bytes).
    Removing os_app_hooks.o(i.App_OS_SetAllHooks), (140 bytes).
    Removing os_app_hooks.o(i.App_OS_StatTaskHook), (2 bytes).
    Removing os_app_hooks.o(i.App_OS_TaskCreateHook), (2 bytes).
    Removing os_app_hooks.o(i.App_OS_TaskDelHook), (2 bytes).
    Removing os_app_hooks.o(i.App_OS_TaskReturnHook), (2 bytes).
    Removing os_app_hooks.o(i.App_OS_TaskSwHook), (2 bytes).
    Removing os_app_hooks.o(i.App_OS_TimeTickHook), (2 bytes).
    Removing stm32f10x_it.o(i.PendSV_Handler), (2 bytes).
    Removing stm32f10x_it.o(i.SysTick_Handler), (2 bytes).
    Removing bsp.o(.data), (4 bytes).
    Removing bsp_usart1.o(i.fgetc), (32 bytes).
    Removing bsp_usart1.o(i.fputc), (36 bytes).
    Removing bsp_key.o(i.Key_ReadStatus), (34 bytes).
    Removing bsp_key.o(i.Key_Scan), (88 bytes).
==============================================================================

Image Symbol Table

    Local Symbols

    Symbol Name                              Value     Ov Type        Size  Object(Section)

    ../clib/microlib/init/entry.s            0x00000000   Number         0  entry9a.o ABSOLUTE
    ../clib/microlib/init/entry.s            0x00000000   Number         0  entry.o ABSOLUTE
    ../clib/microlib/init/entry.s            0x00000000   Number         0  entry5.o ABSOLUTE
    ../clib/microlib/init/entry.s            0x00000000   Number         0  entry12b.o ABSOLUTE
    ../clib/microlib/init/entry.s            0x00000000   Number         0  entry12a.o ABSOLUTE
    ../clib/microlib/init/entry.s            0x00000000   Number         0  entry11b.o ABSOLUTE
    ../clib/microlib/init/entry.s            0x00000000   Number         0  entry11a.o ABSOLUTE
    ../clib/microlib/init/entry.s            0x00000000   Number         0  entry10b.o ABSOLUTE
    ../clib/microlib/init/entry.s            0x00000000   Number         0  entry7b.o ABSOLUTE
    ../clib/microlib/init/entry.s            0x00000000   Number         0  entry7a.o ABSOLUTE
    ../clib/microlib/init/entry.s            0x00000000   Number         0  entry2.o ABSOLUTE
    ../clib/microlib/init/entry.s            0x00000000   Number         0  entry8b.o ABSOLUTE
    ../clib/microlib/init/entry.s            0x00000000   Number         0  entry8a.o ABSOLUTE
    ../clib/microlib/init/entry.s            0x00000000   Number         0  entry10a.o ABSOLUTE
    ../clib/microlib/init/entry.s            0x00000000   Number         0  entry9b.o ABSOLUTE
    ..\..\FW_LIB\startup_stm32f10x_hd.s      0x00000000   Number         0  startup_stm32f10x_hd.o ABSOLUTE
    ..\..\User\uC-CPU\ARM-Cortex-M3\RealView\cpu_a.asm 0x00000000   Number         0  cpu_a.o ABSOLUTE
    ..\..\User\uC-CPU\cpu_core.c             0x00000000   Number         0  cpu_core.o ABSOLUTE
    ..\..\User\uC-LIB\Ports\ARM-Cortex-M3\RealView\lib_mem_a.asm 0x00000000   Number         0  lib_mem_a.o ABSOLUTE
    ..\..\User\uC-LIB\lib_ascii.c            0x00000000   Number         0  lib_ascii.o ABSOLUTE
    ..\..\User\uC-LIB\lib_mem.c              0x00000000   Number         0  lib_mem.o ABSOLUTE
    ..\..\User\uC-LIB\lib_str.c              0x00000000   Number         0  lib_str.o ABSOLUTE
    ..\..\User\uCOS-III\Ports\ARM-Cortex-M3\Generic\RealView\os_cpu_a.s 0x00000000   Number         0  os_cpu_a.o ABSOLUTE
    ..\..\User\uCOS-III\Ports\ARM-Cortex-M3\Generic\RealView\os_cpu_c.c 0x00000000   Number         0  os_cpu_c.o ABSOLUTE
    ..\..\User\uCOS-III\Source\os_cfg_app.c  0x00000000   Number         0  os_cfg_app.o ABSOLUTE
    ..\..\User\uCOS-III\Source\os_core.c     0x00000000   Number         0  os_core.o ABSOLUTE
    ..\..\User\uCOS-III\Source\os_dbg.c      0x00000000   Number         0  os_dbg.o ABSOLUTE
    ..\..\User\uCOS-III\Source\os_flag.c     0x00000000   Number         0  os_flag.o ABSOLUTE
    ..\..\User\uCOS-III\Source\os_int.c      0x00000000   Number         0  os_int.o ABSOLUTE
    ..\..\User\uCOS-III\Source\os_mem.c      0x00000000   Number         0  os_mem.o ABSOLUTE
    ..\..\User\uCOS-III\Source\os_msg.c      0x00000000   Number         0  os_msg.o ABSOLUTE
    ..\..\User\uCOS-III\Source\os_mutex.c    0x00000000   Number         0  os_mutex.o ABSOLUTE
    ..\..\User\uCOS-III\Source\os_prio.c     0x00000000   Number         0  os_prio.o ABSOLUTE
    ..\..\User\uCOS-III\Source\os_q.c        0x00000000   Number         0  os_q.o ABSOLUTE
    ..\..\User\uCOS-III\Source\os_sem.c      0x00000000   Number         0  os_sem.o ABSOLUTE
    ..\..\User\uCOS-III\Source\os_stat.c     0x00000000   Number         0  os_stat.o ABSOLUTE
    ..\..\User\uCOS-III\Source\os_task.c     0x00000000   Number         0  os_task.o ABSOLUTE
    ..\..\User\uCOS-III\Source\os_tick.c     0x00000000   Number         0  os_tick.o ABSOLUTE
    ..\..\User\uCOS-III\Source\os_time.c     0x00000000   Number         0  os_time.o ABSOLUTE
    ..\..\User\uCOS-III\Source\os_tmr.c      0x00000000   Number         0  os_tmr.o ABSOLUTE
    ..\..\User\uCOS-III\Source\os_var.c      0x00000000   Number         0  os_var.o ABSOLUTE
    ..\USER\APP\main.c                       0x00000000   Number         0  main.o ABSOLUTE
    ..\USER\APP\os_app_hooks.c               0x00000000   Number         0  os_app_hooks.o ABSOLUTE
    ..\USER\APP\stm32f10x_it.c               0x00000000   Number         0  stm32f10x_it.o ABSOLUTE
    ..\USER\BSP\Key\bsp_key.c                0x00000000   Number         0  bsp_key.o ABSOLUTE
    ..\USER\BSP\bsp.c                        0x00000000   Number         0  bsp.o ABSOLUTE
    ..\USER\BSP\led\bsp_led.c                0x00000000   Number         0  bsp_led.o ABSOLUTE
    ..\USER\BSP\usart\bsp_usart1.c           0x00000000   Number         0  bsp_usart1.o ABSOLUTE
    Libraries\CMSIS\CM3\DeviceSupport\ST\STM32F10x\system_stm32f10x.c 0x00000000   Number         0  system_stm32f10x.o ABSOLUTE
    Libraries\STM32F10x_StdPeriph_Driver\src\stm32f10x_gpio.c 0x00000000   Number         0  stm32f10x_gpio.o ABSOLUTE
    Libraries\STM32F10x_StdPeriph_Driver\src\stm32f10x_rcc.c 0x00000000   Number         0  stm32f10x_rcc.o ABSOLUTE
    Libraries\STM32F10x_StdPeriph_Driver\src\stm32f10x_usart.c 0x00000000   Number         0  stm32f10x_usart.o ABSOLUTE
    dc.s                                     0x00000000   Number         0  dc.o ABSOLUTE
    handlers.s                               0x00000000   Number         0  handlers.o ABSOLUTE
    init.s                                   0x00000000   Number         0  init.o ABSOLUTE
    RESET                                    0x08000000   Section      304  startup_stm32f10x_hd.o(RESET)
    .ARM.Collect$$$$00000000                 0x08000130   Section        0  entry.o(.ARM.Collect$$$$00000000)
    .ARM.Collect$$$$00000001                 0x08000130   Section        4  entry2.o(.ARM.Collect$$$$00000001)
    .ARM.Collect$$$$00000004                 0x08000134   Section        4  entry5.o(.ARM.Collect$$$$00000004)
    .ARM.Collect$$$$00000008                 0x08000138   Section        0  entry7b.o(.ARM.Collect$$$$00000008)
    .ARM.Collect$$$$0000000A                 0x08000138   Section        0  entry8b.o(.ARM.Collect$$$$0000000A)
    .ARM.Collect$$$$0000000B                 0x08000138   Section        8  entry9a.o(.ARM.Collect$$$$0000000B)
    .ARM.Collect$$$$0000000E                 0x08000140   Section        4  entry12b.o(.ARM.Collect$$$$0000000E)
    .ARM.Collect$$$$0000000F                 0x08000144   Section        0  entry10a.o(.ARM.Collect$$$$0000000F)
    .ARM.Collect$$$$00000011                 0x08000144   Section        0  entry11a.o(.ARM.Collect$$$$00000011)
    .ARM.Collect$$$$00002712                 0x08000144   Section        4  entry2.o(.ARM.Collect$$$$00002712)
    __lit__00000000                          0x08000144   Data           4  entry2.o(.ARM.Collect$$$$00002712)
    .text                                    0x08000148   Section       36  startup_stm32f10x_hd.o(.text)
    .text                                    0x0800016c   Section        0  system_stm32f10x.o(.text)
    SetSysClockTo72                          0x0800016d   Thumb Code   212  system_stm32f10x.o(.text)
    SetSysClock                              0x08000241   Thumb Code     8  system_stm32f10x.o(.text)
    .text                                    0x08000348   Section        0  stm32f10x_gpio.o(.text)
    .text                                    0x080006a0   Section        0  stm32f10x_rcc.o(.text)
    .text                                    0x08000a44   Section        0  stm32f10x_usart.o(.text)
    .text                                    0x08000e4c   Section       52  cpu_a.o(.text)
    .text                                    0x08000e80   Section       36  init.o(.text)
    CODE                                     0x08000ea4   Section      132  os_cpu_a.o(CODE)
    i.AppTaskLed1                            0x08000f28   Section        0  main.o(i.AppTaskLed1)
    AppTaskLed1                              0x08000f29   Thumb Code    46  main.o(i.AppTaskLed1)
    i.AppTaskLed2                            0x08000f5c   Section        0  main.o(i.AppTaskLed2)
    AppTaskLed2                              0x08000f5d   Thumb Code    46  main.o(i.AppTaskLed2)
    i.AppTaskLed3                            0x08000f90   Section        0  main.o(i.AppTaskLed3)
    AppTaskLed3                              0x08000f91   Thumb Code    46  main.o(i.AppTaskLed3)
    i.AppTaskStart                           0x08000fc4   Section        0  main.o(i.AppTaskStart)
    AppTaskStart                             0x08000fc5   Thumb Code   204  main.o(i.AppTaskStart)
    i.BSP_CPU_ClkFreq                        0x080010e8   Section        0  bsp.o(i.BSP_CPU_ClkFreq)
    i.BSP_Init                               0x080010f8   Section        0  bsp.o(i.BSP_Init)
    i.BusFault_Handler                       0x08001108   Section        0  stm32f10x_it.o(i.BusFault_Handler)
    i.CPU_Init                               0x0800110c   Section        0  cpu_core.o(i.CPU_Init)
    i.CPU_IntDisMeasInit                     0x0800111c   Section        0  cpu_core.o(i.CPU_IntDisMeasInit)
    CPU_IntDisMeasInit                       0x0800111d   Thumb Code   104  cpu_core.o(i.CPU_IntDisMeasInit)
    i.CPU_IntDisMeasMaxCalc                  0x080011a0   Section        0  cpu_core.o(i.CPU_IntDisMeasMaxCalc)
    CPU_IntDisMeasMaxCalc                    0x080011a1   Thumb Code    24  cpu_core.o(i.CPU_IntDisMeasMaxCalc)
    i.CPU_IntDisMeasMaxCurGet                0x080011bc   Section        0  cpu_core.o(i.CPU_IntDisMeasMaxCurGet)
    i.CPU_IntDisMeasMaxCurReset              0x080011e8   Section        0  cpu_core.o(i.CPU_IntDisMeasMaxCurReset)
    i.CPU_IntDisMeasMaxGet                   0x08001214   Section        0  cpu_core.o(i.CPU_IntDisMeasMaxGet)
    i.CPU_IntDisMeasStart                    0x08001240   Section        0  cpu_core.o(i.CPU_IntDisMeasStart)
    i.CPU_IntDisMeasStop                     0x08001274   Section        0  cpu_core.o(i.CPU_IntDisMeasStop)
    i.CPU_NameClr                            0x080012c8   Section        0  cpu_core.o(i.CPU_NameClr)
    i.CPU_NameInit                           0x08001300   Section        0  cpu_core.o(i.CPU_NameInit)
    CPU_NameInit                             0x08001301   Thumb Code     8  cpu_core.o(i.CPU_NameInit)
    i.CPU_TS_Init                            0x08001308   Section        0  cpu_core.o(i.CPU_TS_Init)
    CPU_TS_Init                              0x08001309   Thumb Code    14  cpu_core.o(i.CPU_TS_Init)
    i.CPU_TS_TmrFreqSet                      0x0800131c   Section        0  cpu_core.o(i.CPU_TS_TmrFreqSet)
    i.CPU_TS_TmrInit                         0x08001328   Section        0  bsp.o(i.CPU_TS_TmrInit)
    i.CPU_TS_TmrRd                           0x0800135c   Section        0  bsp.o(i.CPU_TS_TmrRd)
    i.DebugMon_Handler                       0x08001368   Section        0  stm32f10x_it.o(i.DebugMon_Handler)
    i.HardFault_Handler                      0x0800136a   Section        0  stm32f10x_it.o(i.HardFault_Handler)
    i.Key1_Config                            0x08001370   Section        0  bsp_key.o(i.Key1_Config)
    Key1_Config                              0x08001371   Thumb Code    32  bsp_key.o(i.Key1_Config)
    i.Key2_Config                            0x08001394   Section        0  bsp_key.o(i.Key2_Config)
    Key2_Config                              0x08001395   Thumb Code    32  bsp_key.o(i.Key2_Config)
    i.Key_Initial                            0x080013b8   Section        0  bsp_key.o(i.Key_Initial)
    i.LED_GPIO_Config                        0x080013c4   Section        0  bsp_led.o(i.LED_GPIO_Config)
    LED_GPIO_Config                          0x080013c5   Thumb Code    82  bsp_led.o(i.LED_GPIO_Config)
    i.LED_Init                               0x0800141c   Section        0  bsp_led.o(i.LED_Init)
    i.MemManage_Handler                      0x08001440   Section        0  stm32f10x_it.o(i.MemManage_Handler)
    i.Mem_Clr                                0x08001444   Section        0  lib_mem.o(i.Mem_Clr)
    i.Mem_Init                               0x08001458   Section        0  lib_mem.o(i.Mem_Init)
    i.Mem_Set                                0x080014a0   Section        0  lib_mem.o(i.Mem_Set)
    i.NMI_Handler                            0x08001502   Section        0  stm32f10x_it.o(i.NMI_Handler)
    i.OSCfg_Init                             0x08001504   Section        0  os_cfg_app.o(i.OSCfg_Init)
    i.OSIdleTaskHook                         0x08001508   Section        0  os_cpu_c.o(i.OSIdleTaskHook)
    i.OSInit                                 0x0800151c   Section        0  os_core.o(i.OSInit)
    i.OSInitHook                             0x080016a8   Section        0  os_cpu_c.o(i.OSInitHook)
    i.OSIntExit                              0x080016e0   Section        0  os_core.o(i.OSIntExit)
    i.OSSched                                0x080017c4   Section        0  os_core.o(i.OSSched)
    i.OSSchedLock                            0x0800186c   Section        0  os_core.o(i.OSSchedLock)
    i.OSSchedUnlock                          0x080018e8   Section        0  os_core.o(i.OSSchedUnlock)
    i.OSStart                                0x08001988   Section        0  os_core.o(i.OSStart)
    i.OSStatReset                            0x080019f0   Section        0  os_stat.o(i.OSStatReset)
    i.OSStatTaskCPUUsageInit                 0x08001b58   Section        0  os_stat.o(i.OSStatTaskCPUUsageInit)
    i.OSStatTaskHook                         0x08001c58   Section        0  os_cpu_c.o(i.OSStatTaskHook)
    i.OSTaskCreate                           0x08001c6c   Section        0  os_task.o(i.OSTaskCreate)
    i.OSTaskCreateHook                       0x08001f00   Section        0  os_cpu_c.o(i.OSTaskCreateHook)
    i.OSTaskDel                              0x08001f18   Section        0  os_task.o(i.OSTaskDel)
    i.OSTaskDelHook                          0x08002120   Section        0  os_cpu_c.o(i.OSTaskDelHook)
    i.OSTaskResume                           0x08002138   Section        0  os_task.o(i.OSTaskResume)
    i.OSTaskReturnHook                       0x080021c0   Section        0  os_cpu_c.o(i.OSTaskReturnHook)
    i.OSTaskSemPend                          0x080021d8   Section        0  os_task.o(i.OSTaskSemPend)
    i.OSTaskStkChk                           0x08002428   Section        0  os_task.o(i.OSTaskStkChk)
    i.OSTaskStkInit                          0x0800250c   Section        0  os_cpu_c.o(i.OSTaskStkInit)
    i.OSTaskSuspend                          0x080025cc   Section        0  os_task.o(i.OSTaskSuspend)
    i.OSTaskSwHook                           0x0800262c   Section        0  os_cpu_c.o(i.OSTaskSwHook)
    i.OSTimeDly                              0x080026d0   Section        0  os_time.o(i.OSTimeDly)
    i.OSTimeTick                             0x08002820   Section        0  os_time.o(i.OSTimeTick)
    i.OSTimeTickHook                         0x08002864   Section        0  os_cpu_c.o(i.OSTimeTickHook)
    i.OS_CPU_SysTickHandler                  0x08002878   Section        0  os_cpu_c.o(i.OS_CPU_SysTickHandler)
    i.OS_CPU_SysTickInit                     0x080028b8   Section        0  os_cpu_c.o(i.OS_CPU_SysTickInit)
    i.OS_Dbg_Init                            0x080028e8   Section        0  os_dbg.o(i.OS_Dbg_Init)
    i.OS_FlagInit                            0x08002a9c   Section        0  os_flag.o(i.OS_FlagInit)
    i.OS_FlagPost                            0x08002ab4   Section        0  os_flag.o(i.OS_FlagPost)
    i.OS_FlagTaskRdy                         0x08002d30   Section        0  os_flag.o(i.OS_FlagTaskRdy)
    i.OS_IdleTask                            0x08002d88   Section        0  os_core.o(i.OS_IdleTask)
    i.OS_IdleTaskInit                        0x08002dd4   Section        0  os_core.o(i.OS_IdleTaskInit)
    i.OS_IntQPost                            0x08002e44   Section        0  os_int.o(i.OS_IntQPost)
    i.OS_IntQRePost                          0x08002f48   Section        0  os_int.o(i.OS_IntQRePost)
    i.OS_IntQTask                            0x080030ec   Section        0  os_int.o(i.OS_IntQTask)
    i.OS_IntQTaskInit                        0x080031b4   Section        0  os_int.o(i.OS_IntQTaskInit)
    i.OS_MemInit                             0x080032dc   Section        0  os_mem.o(i.OS_MemInit)
    i.OS_MsgPoolInit                         0x080032f4   Section        0  os_msg.o(i.OS_MsgPoolInit)
    i.OS_MsgQFreeAll                         0x08003370   Section        0  os_msg.o(i.OS_MsgQFreeAll)
    i.OS_MsgQInit                            0x080033b4   Section        0  os_msg.o(i.OS_MsgQInit)
    i.OS_MsgQPut                             0x080033c4   Section        0  os_msg.o(i.OS_MsgQPut)
    i.OS_MutexInit                           0x080034c8   Section        0  os_mutex.o(i.OS_MutexInit)
    i.OS_Pend                                0x080034e0   Section        0  os_core.o(i.OS_Pend)
    i.OS_PendDataInit                        0x08003548   Section        0  os_core.o(i.OS_PendDataInit)
    i.OS_PendDbgNameAdd                      0x08003570   Section        0  os_core.o(i.OS_PendDbgNameAdd)
    i.OS_PendDbgNameRemove                   0x080035cc   Section        0  os_core.o(i.OS_PendDbgNameRemove)
    i.OS_PendListInsertPrio                  0x080035f0   Section        0  os_core.o(i.OS_PendListInsertPrio)
    i.OS_PendListRemove                      0x08003656   Section        0  os_core.o(i.OS_PendListRemove)
    i.OS_PendListRemove1                     0x08003686   Section        0  os_core.o(i.OS_PendListRemove1)
    i.OS_Post                                0x080036c8   Section        0  os_core.o(i.OS_Post)
    i.OS_Post1                               0x08003788   Section        0  os_core.o(i.OS_Post1)
    i.OS_PrioGetHighest                      0x080037b4   Section        0  os_prio.o(i.OS_PrioGetHighest)
    i.OS_PrioInit                            0x080037dc   Section        0  os_prio.o(i.OS_PrioInit)
    i.OS_PrioInsert                          0x080037f4   Section        0  os_prio.o(i.OS_PrioInsert)
    i.OS_PrioRemove                          0x08003818   Section        0  os_prio.o(i.OS_PrioRemove)
    i.OS_QInit                               0x0800383c   Section        0  os_q.o(i.OS_QInit)
    i.OS_QPost                               0x08003854   Section        0  os_q.o(i.OS_QPost)
    i.OS_RdyListInit                         0x080039dc   Section        0  os_core.o(i.OS_RdyListInit)
    i.OS_RdyListInsert                       0x08003a00   Section        0  os_core.o(i.OS_RdyListInsert)
    i.OS_RdyListInsertHead                   0x08003a2c   Section        0  os_core.o(i.OS_RdyListInsertHead)
    i.OS_RdyListInsertTail                   0x08003a6c   Section        0  os_core.o(i.OS_RdyListInsertTail)
    i.OS_RdyListMoveHeadToTail               0x08003aa8   Section        0  os_core.o(i.OS_RdyListMoveHeadToTail)
    i.OS_RdyListRemove                       0x08003aec   Section        0  os_core.o(i.OS_RdyListRemove)
    i.OS_Sched0                              0x08003b48   Section        0  os_core.o(i.OS_Sched0)
    i.OS_SchedLockTimeMeasStart              0x08003ba4   Section        0  os_core.o(i.OS_SchedLockTimeMeasStart)
    i.OS_SchedLockTimeMeasStop               0x08003bc0   Section        0  os_core.o(i.OS_SchedLockTimeMeasStop)
    i.OS_SchedRoundRobin                     0x08003bfc   Section        0  os_core.o(i.OS_SchedRoundRobin)
    i.OS_SemInit                             0x08003ce8   Section        0  os_sem.o(i.OS_SemInit)
    i.OS_SemPost                             0x08003d00   Section        0  os_sem.o(i.OS_SemPost)
    i.OS_StatTask                            0x08003e98   Section        0  os_stat.o(i.OS_StatTask)
    i.OS_StatTaskInit                        0x08004250   Section        0  os_stat.o(i.OS_StatTaskInit)
    i.OS_TaskBlock                           0x0800431c   Section        0  os_core.o(i.OS_TaskBlock)
    i.OS_TaskDbgListAdd                      0x08004354   Section        0  os_task.o(i.OS_TaskDbgListAdd)
    i.OS_TaskDbgListRemove                   0x08004384   Section        0  os_task.o(i.OS_TaskDbgListRemove)
    i.OS_TaskInit                            0x080043c8   Section        0  os_task.o(i.OS_TaskInit)
    i.OS_TaskInitTCB                         0x080043e8   Section        0  os_task.o(i.OS_TaskInitTCB)
    i.OS_TaskQPost                           0x080044b8   Section        0  os_task.o(i.OS_TaskQPost)
    i.OS_TaskRdy                             0x08004724   Section        0  os_core.o(i.OS_TaskRdy)
    i.OS_TaskResume                          0x08004740   Section        0  os_task.o(i.OS_TaskResume)
    i.OS_TaskReturn                          0x080048bc   Section        0  os_task.o(i.OS_TaskReturn)
    i.OS_TaskSemPost                         0x080048d4   Section        0  os_task.o(i.OS_TaskSemPost)
    i.OS_TaskSuspend                         0x08004e7c   Section        0  os_task.o(i.OS_TaskSuspend)
    i.OS_TickListInit                        0x0800500c   Section        0  os_tick.o(i.OS_TickListInit)
    i.OS_TickListInsert                      0x08005034   Section        0  os_tick.o(i.OS_TickListInsert)
    i.OS_TickListRemove                      0x080051f0   Section        0  os_tick.o(i.OS_TickListRemove)
    i.OS_TickListResetPeak                   0x08005228   Section        0  os_tick.o(i.OS_TickListResetPeak)
    i.OS_TickListUpdate                      0x0800524c   Section        0  os_tick.o(i.OS_TickListUpdate)
    i.OS_TickTask                            0x0800546c   Section        0  os_tick.o(i.OS_TickTask)
    i.OS_TickTaskInit                        0x08005498   Section        0  os_tick.o(i.OS_TickTaskInit)
    i.OS_TmrInit                             0x08005550   Section        0  os_tmr.o(i.OS_TmrInit)
    i.OS_TmrLink                             0x08005678   Section        0  os_tmr.o(i.OS_TmrLink)
    i.OS_TmrResetPeak                        0x08005748   Section        0  os_tmr.o(i.OS_TmrResetPeak)
    i.OS_TmrTask                             0x0800576c   Section        0  os_tmr.o(i.OS_TmrTask)
    i.OS_TmrUnlink                           0x0800582c   Section        0  os_tmr.o(i.OS_TmrUnlink)
    i.SVC_Handler                            0x0800587c   Section        0  stm32f10x_it.o(i.SVC_Handler)
    i.USARTx_Config                          0x08005880   Section        0  bsp_usart1.o(i.USARTx_Config)
    i.UsageFault_Handler                     0x08005900   Section        0  stm32f10x_it.o(i.UsageFault_Handler)
    i.__scatterload_copy                     0x08005904   Section       14  handlers.o(i.__scatterload_copy)
    i.__scatterload_null                     0x08005912   Section        2  handlers.o(i.__scatterload_null)
    i.__scatterload_zeroinit                 0x08005914   Section       14  handlers.o(i.__scatterload_zeroinit)
    i.main                                   0x08005924   Section        0  main.o(i.main)
    .constdata                               0x08005984   Section      164  os_cfg_app.o(.constdata)
    .constdata                               0x08005a28   Section      364  os_dbg.o(.constdata)
    .data                                    0x20000000   Section       20  system_stm32f10x.o(.data)
    .data                                    0x20000014   Section       20  stm32f10x_rcc.o(.data)
    APBAHBPrescTable                         0x20000014   Data          16  stm32f10x_rcc.o(.data)
    ADCPrescTable                            0x20000024   Data           4  stm32f10x_rcc.o(.data)
    .data                                    0x20000028   Section       28  cpu_core.o(.data)
    .data                                    0x20000044   Section        4  lib_mem.o(.data)
    .data                                    0x20000048   Section      208  os_var.o(.data)
    .data                                    0x20000118   Section        4  os_cpu_c.o(.data)
    .data                                    0x2000011c   Section        4  os_prio.o(.data)
    .bss                                     0x20000120   Section     7456  main.o(.bss)
    AppTaskStartStk                          0x20000120   Data         512  main.o(.bss)
    AppTaskStartTCB                          0x20000320   Data         200  main.o(.bss)
    AppTaskLed1Stk                           0x200003e8   Data        2048  main.o(.bss)
    AppTaskLed1TCB                           0x20000be8   Data         200  main.o(.bss)
    AppTaskLed2Stk                           0x20000cb0   Data        2048  main.o(.bss)
    AppTaskLed2TCB                           0x200014b0   Data         200  main.o(.bss)
    AppTaskLed3Stk                           0x20001578   Data        2048  main.o(.bss)
    AppTaskLed3TCB                           0x20001d78   Data         200  main.o(.bss)
    .bss                                     0x20001e40   Section       16  cpu_core.o(.bss)
    .bss                                     0x20001e50   Section    27720  lib_mem.o(.bss)
    .bss                                     0x20008a98   Section     5264  os_cfg_app.o(.bss)
    .bss                                     0x20009f28   Section     1396  os_var.o(.bss)
    STACK                                    0x2000a4a0   Section     1024  startup_stm32f10x_hd.o(STACK)

    Global Symbols

    Symbol Name                              Value     Ov Type        Size  Object(Section)

    BuildAttributes$$THM_ISAv4$P$D$K$B$S$PE$A:L22UL41UL21$X:L11$S22US41US21$IEEE1$IW$USESV6$~STKCKD$USESV7$~SHL$OSPACE$EBA8$MICROLIB$REQ8$PRES8$EABIv2 0x00000000   Number         0  anon$$obj.o ABSOLUTE
    __ARM_use_no_argv                        0x00000000   Number         0  main.o ABSOLUTE
    __arm_fini_                               - Undefined Weak Reference
    __cpp_initialize__aeabi_                  - Undefined Weak Reference
    __cxa_finalize                            - Undefined Weak Reference
    __decompress                              - Undefined Weak Reference
    _clock_init                               - Undefined Weak Reference
    _microlib_exit                            - Undefined Weak Reference
    __Vectors_Size                           0x00000130   Number         0  startup_stm32f10x_hd.o ABSOLUTE
    __Vectors                                0x08000000   Data           4  startup_stm32f10x_hd.o(RESET)
    __Vectors_End                            0x08000130   Data           0  startup_stm32f10x_hd.o(RESET)
    __main                                   0x08000131   Thumb Code     0  entry.o(.ARM.Collect$$$$00000000)
    _main_stk                                0x08000131   Thumb Code     0  entry2.o(.ARM.Collect$$$$00000001)
    _main_scatterload                        0x08000135   Thumb Code     0  entry5.o(.ARM.Collect$$$$00000004)
    __main_after_scatterload                 0x08000139   Thumb Code     0  entry5.o(.ARM.Collect$$$$00000004)
    _main_clock                              0x08000139   Thumb Code     0  entry7b.o(.ARM.Collect$$$$00000008)
    _main_cpp_init                           0x08000139   Thumb Code     0  entry8b.o(.ARM.Collect$$$$0000000A)
    _main_init                               0x08000139   Thumb Code     0  entry9a.o(.ARM.Collect$$$$0000000B)
    __rt_lib_shutdown_fini                   0x08000141   Thumb Code     0  entry12b.o(.ARM.Collect$$$$0000000E)
    __rt_final_cpp                           0x08000145   Thumb Code     0  entry10a.o(.ARM.Collect$$$$0000000F)
    __rt_final_exit                          0x08000145   Thumb Code     0  entry11a.o(.ARM.Collect$$$$00000011)
    Reset_Handler                            0x08000149   Thumb Code     8  startup_stm32f10x_hd.o(.text)
    ADC1_2_IRQHandler                        0x08000163   Thumb Code     0  startup_stm32f10x_hd.o(.text)
    ADC3_IRQHandler                          0x08000163   Thumb Code     0  startup_stm32f10x_hd.o(.text)
    CAN1_RX1_IRQHandler                      0x08000163   Thumb Code     0  startup_stm32f10x_hd.o(.text)
    CAN1_SCE_IRQHandler                      0x08000163   Thumb Code     0  startup_stm32f10x_hd.o(.text)
    DMA1_Channel1_IRQHandler                 0x08000163   Thumb Code     0  startup_stm32f10x_hd.o(.text)
    DMA1_Channel2_IRQHandler                 0x08000163   Thumb Code     0  startup_stm32f10x_hd.o(.text)
    DMA1_Channel3_IRQHandler                 0x08000163   Thumb Code     0  startup_stm32f10x_hd.o(.text)
    DMA1_Channel4_IRQHandler                 0x08000163   Thumb Code     0  startup_stm32f10x_hd.o(.text)
    DMA1_Channel5_IRQHandler                 0x08000163   Thumb Code     0  startup_stm32f10x_hd.o(.text)
    DMA1_Channel6_IRQHandler                 0x08000163   Thumb Code     0  startup_stm32f10x_hd.o(.text)
    DMA1_Channel7_IRQHandler                 0x08000163   Thumb Code     0  startup_stm32f10x_hd.o(.text)
    DMA2_Channel1_IRQHandler                 0x08000163   Thumb Code     0  startup_stm32f10x_hd.o(.text)
    DMA2_Channel2_IRQHandler                 0x08000163   Thumb Code     0  startup_stm32f10x_hd.o(.text)
    DMA2_Channel3_IRQHandler                 0x08000163   Thumb Code     0  startup_stm32f10x_hd.o(.text)
    DMA2_Channel4_5_IRQHandler               0x08000163   Thumb Code     0  startup_stm32f10x_hd.o(.text)
    EXTI0_IRQHandler                         0x08000163   Thumb Code     0  startup_stm32f10x_hd.o(.text)
    EXTI15_10_IRQHandler                     0x08000163   Thumb Code     0  startup_stm32f10x_hd.o(.text)
    EXTI1_IRQHandler                         0x08000163   Thumb Code     0  startup_stm32f10x_hd.o(.text)
    EXTI2_IRQHandler                         0x08000163   Thumb Code     0  startup_stm32f10x_hd.o(.text)
    EXTI3_IRQHandler                         0x08000163   Thumb Code     0  startup_stm32f10x_hd.o(.text)
    EXTI4_IRQHandler                         0x08000163   Thumb Code     0  startup_stm32f10x_hd.o(.text)
    EXTI9_5_IRQHandler                       0x08000163   Thumb Code     0  startup_stm32f10x_hd.o(.text)
    FLASH_IRQHandler                         0x08000163   Thumb Code     0  startup_stm32f10x_hd.o(.text)
    FSMC_IRQHandler                          0x08000163   Thumb Code     0  startup_stm32f10x_hd.o(.text)
    I2C1_ER_IRQHandler                       0x08000163   Thumb Code     0  startup_stm32f10x_hd.o(.text)
    I2C1_EV_IRQHandler                       0x08000163   Thumb Code     0  startup_stm32f10x_hd.o(.text)
    I2C2_ER_IRQHandler                       0x08000163   Thumb Code     0  startup_stm32f10x_hd.o(.text)
    I2C2_EV_IRQHandler                       0x08000163   Thumb Code     0  startup_stm32f10x_hd.o(.text)
    PVD_IRQHandler                           0x08000163   Thumb Code     0  startup_stm32f10x_hd.o(.text)
    RCC_IRQHandler                           0x08000163   Thumb Code     0  startup_stm32f10x_hd.o(.text)
    RTCAlarm_IRQHandler                      0x08000163   Thumb Code     0  startup_stm32f10x_hd.o(.text)
    RTC_IRQHandler                           0x08000163   Thumb Code     0  startup_stm32f10x_hd.o(.text)
    SDIO_IRQHandler                          0x08000163   Thumb Code     0  startup_stm32f10x_hd.o(.text)
    SPI1_IRQHandler                          0x08000163   Thumb Code     0  startup_stm32f10x_hd.o(.text)
    SPI2_IRQHandler                          0x08000163   Thumb Code     0  startup_stm32f10x_hd.o(.text)
    SPI3_IRQHandler                          0x08000163   Thumb Code     0  startup_stm32f10x_hd.o(.text)
    TAMPER_IRQHandler                        0x08000163   Thumb Code     0  startup_stm32f10x_hd.o(.text)
    TIM1_BRK_IRQHandler                      0x08000163   Thumb Code     0  startup_stm32f10x_hd.o(.text)
    TIM1_CC_IRQHandler                       0x08000163   Thumb Code     0  startup_stm32f10x_hd.o(.text)
    TIM1_TRG_COM_IRQHandler                  0x08000163   Thumb Code     0  startup_stm32f10x_hd.o(.text)
    TIM1_UP_IRQHandler                       0x08000163   Thumb Code     0  startup_stm32f10x_hd.o(.text)
    TIM2_IRQHandler                          0x08000163   Thumb Code     0  startup_stm32f10x_hd.o(.text)
    TIM3_IRQHandler                          0x08000163   Thumb Code     0  startup_stm32f10x_hd.o(.text)
    TIM4_IRQHandler                          0x08000163   Thumb Code     0  startup_stm32f10x_hd.o(.text)
    TIM5_IRQHandler                          0x08000163   Thumb Code     0  startup_stm32f10x_hd.o(.text)
    TIM6_IRQHandler                          0x08000163   Thumb Code     0  startup_stm32f10x_hd.o(.text)
    TIM7_IRQHandler                          0x08000163   Thumb Code     0  startup_stm32f10x_hd.o(.text)
    TIM8_BRK_IRQHandler                      0x08000163   Thumb Code     0  startup_stm32f10x_hd.o(.text)
    TIM8_CC_IRQHandler                       0x08000163   Thumb Code     0  startup_stm32f10x_hd.o(.text)
    TIM8_TRG_COM_IRQHandler                  0x08000163   Thumb Code     0  startup_stm32f10x_hd.o(.text)
    TIM8_UP_IRQHandler                       0x08000163   Thumb Code     0  startup_stm32f10x_hd.o(.text)
    UART4_IRQHandler                         0x08000163   Thumb Code     0  startup_stm32f10x_hd.o(.text)
    UART5_IRQHandler                         0x08000163   Thumb Code     0  startup_stm32f10x_hd.o(.text)
    USART1_IRQHandler                        0x08000163   Thumb Code     0  startup_stm32f10x_hd.o(.text)
    USART2_IRQHandler                        0x08000163   Thumb Code     0  startup_stm32f10x_hd.o(.text)
    USART3_IRQHandler                        0x08000163   Thumb Code     0  startup_stm32f10x_hd.o(.text)
    USBWakeUp_IRQHandler                     0x08000163   Thumb Code     0  startup_stm32f10x_hd.o(.text)
    USB_HP_CAN1_TX_IRQHandler                0x08000163   Thumb Code     0  startup_stm32f10x_hd.o(.text)
    USB_LP_CAN1_RX0_IRQHandler               0x08000163   Thumb Code     0  startup_stm32f10x_hd.o(.text)
    WWDG_IRQHandler                          0x08000163   Thumb Code     0  startup_stm32f10x_hd.o(.text)
    SystemInit                               0x08000249   Thumb Code    78  system_stm32f10x.o(.text)
    SystemCoreClockUpdate                    0x08000297   Thumb Code   142  system_stm32f10x.o(.text)
    GPIO_DeInit                              0x08000349   Thumb Code   172  stm32f10x_gpio.o(.text)
    GPIO_AFIODeInit                          0x080003f5   Thumb Code    20  stm32f10x_gpio.o(.text)
    GPIO_Init                                0x08000409   Thumb Code   274  stm32f10x_gpio.o(.text)
    GPIO_StructInit                          0x0800051b   Thumb Code    16  stm32f10x_gpio.o(.text)
    GPIO_ReadInputDataBit                    0x0800052b   Thumb Code    18  stm32f10x_gpio.o(.text)
    GPIO_ReadInputData                       0x0800053d   Thumb Code     8  stm32f10x_gpio.o(.text)
    GPIO_ReadOutputDataBit                   0x08000545   Thumb Code    18  stm32f10x_gpio.o(.text)
    GPIO_ReadOutputData                      0x08000557   Thumb Code     8  stm32f10x_gpio.o(.text)
    GPIO_SetBits                             0x0800055f   Thumb Code     4  stm32f10x_gpio.o(.text)
    GPIO_ResetBits                           0x08000563   Thumb Code     4  stm32f10x_gpio.o(.text)
    GPIO_WriteBit                            0x08000567   Thumb Code    10  stm32f10x_gpio.o(.text)
    GPIO_Write                               0x08000571   Thumb Code     4  stm32f10x_gpio.o(.text)
    GPIO_PinLockConfig                       0x08000575   Thumb Code    18  stm32f10x_gpio.o(.text)
    GPIO_EventOutputConfig                   0x08000587   Thumb Code    26  stm32f10x_gpio.o(.text)
    GPIO_EventOutputCmd                      0x080005a1   Thumb Code     6  stm32f10x_gpio.o(.text)
    GPIO_PinRemapConfig                      0x080005a7   Thumb Code   138  stm32f10x_gpio.o(.text)
    GPIO_EXTILineConfig                      0x08000631   Thumb Code    66  stm32f10x_gpio.o(.text)
    GPIO_ETH_MediaInterfaceConfig            0x08000673   Thumb Code     6  stm32f10x_gpio.o(.text)
    RCC_DeInit                               0x080006a1   Thumb Code    64  stm32f10x_rcc.o(.text)
    RCC_HSEConfig                            0x080006e1   Thumb Code    70  stm32f10x_rcc.o(.text)
    RCC_GetFlagStatus                        0x08000727   Thumb Code    56  stm32f10x_rcc.o(.text)
    RCC_WaitForHSEStartUp                    0x0800075f   Thumb Code    56  stm32f10x_rcc.o(.text)
    RCC_AdjustHSICalibrationValue            0x08000797   Thumb Code    20  stm32f10x_rcc.o(.text)
    RCC_HSICmd                               0x080007ab   Thumb Code     6  stm32f10x_rcc.o(.text)
    RCC_PLLConfig                            0x080007b1   Thumb Code    24  stm32f10x_rcc.o(.text)
    RCC_PLLCmd                               0x080007c9   Thumb Code     6  stm32f10x_rcc.o(.text)
    RCC_SYSCLKConfig                         0x080007cf   Thumb Code    18  stm32f10x_rcc.o(.text)
    RCC_GetSYSCLKSource                      0x080007e1   Thumb Code    10  stm32f10x_rcc.o(.text)
    RCC_HCLKConfig                           0x080007eb   Thumb Code    18  stm32f10x_rcc.o(.text)
    RCC_PCLK1Config                          0x080007fd   Thumb Code    18  stm32f10x_rcc.o(.text)
    RCC_PCLK2Config                          0x0800080f   Thumb Code    20  stm32f10x_rcc.o(.text)
    RCC_ITConfig                             0x08000823   Thumb Code    26  stm32f10x_rcc.o(.text)
    RCC_USBCLKConfig                         0x0800083d   Thumb Code     6  stm32f10x_rcc.o(.text)
    RCC_ADCCLKConfig                         0x08000843   Thumb Code    18  stm32f10x_rcc.o(.text)
    RCC_LSEConfig                            0x08000855   Thumb Code    44  stm32f10x_rcc.o(.text)
    RCC_LSICmd                               0x08000881   Thumb Code     6  stm32f10x_rcc.o(.text)
    RCC_RTCCLKConfig                         0x08000887   Thumb Code    12  stm32f10x_rcc.o(.text)
    RCC_RTCCLKCmd                            0x08000893   Thumb Code     8  stm32f10x_rcc.o(.text)
    RCC_GetClocksFreq                        0x0800089b   Thumb Code   192  stm32f10x_rcc.o(.text)
    RCC_AHBPeriphClockCmd                    0x0800095b   Thumb Code    26  stm32f10x_rcc.o(.text)
    RCC_APB2PeriphClockCmd                   0x08000975   Thumb Code    26  stm32f10x_rcc.o(.text)
    RCC_APB1PeriphClockCmd                   0x0800098f   Thumb Code    26  stm32f10x_rcc.o(.text)
    RCC_APB2PeriphResetCmd                   0x080009a9   Thumb Code    26  stm32f10x_rcc.o(.text)
    RCC_APB1PeriphResetCmd                   0x080009c3   Thumb Code    26  stm32f10x_rcc.o(.text)
    RCC_BackupResetCmd                       0x080009dd   Thumb Code     8  stm32f10x_rcc.o(.text)
    RCC_ClockSecuritySystemCmd               0x080009e5   Thumb Code     6  stm32f10x_rcc.o(.text)
    RCC_MCOConfig                            0x080009eb   Thumb Code     6  stm32f10x_rcc.o(.text)
    RCC_ClearFlag                            0x080009f1   Thumb Code    14  stm32f10x_rcc.o(.text)
    RCC_GetITStatus                          0x080009ff   Thumb Code    20  stm32f10x_rcc.o(.text)
    RCC_ClearITPendingBit                    0x08000a13   Thumb Code     6  stm32f10x_rcc.o(.text)
    USART_DeInit                             0x08000a45   Thumb Code   134  stm32f10x_usart.o(.text)
    USART_Init                               0x08000acb   Thumb Code   210  stm32f10x_usart.o(.text)
    USART_StructInit                         0x08000b9d   Thumb Code    24  stm32f10x_usart.o(.text)
    USART_ClockInit                          0x08000bb5   Thumb Code    34  stm32f10x_usart.o(.text)
    USART_ClockStructInit                    0x08000bd7   Thumb Code    12  stm32f10x_usart.o(.text)
    USART_Cmd                                0x08000be3   Thumb Code    24  stm32f10x_usart.o(.text)
    USART_ITConfig                           0x08000bfb   Thumb Code    74  stm32f10x_usart.o(.text)
    USART_DMACmd                             0x08000c45   Thumb Code    18  stm32f10x_usart.o(.text)
    USART_SetAddress                         0x08000c57   Thumb Code    18  stm32f10x_usart.o(.text)
    USART_WakeUpConfig                       0x08000c69   Thumb Code    18  stm32f10x_usart.o(.text)
    USART_ReceiverWakeUpCmd                  0x08000c7b   Thumb Code    24  stm32f10x_usart.o(.text)
    USART_LINBreakDetectLengthConfig         0x08000c93   Thumb Code    18  stm32f10x_usart.o(.text)
    USART_LINCmd                             0x08000ca5   Thumb Code    24  stm32f10x_usart.o(.text)
    USART_SendData                           0x08000cbd   Thumb Code     8  stm32f10x_usart.o(.text)
    USART_ReceiveData                        0x08000cc5   Thumb Code    10  stm32f10x_usart.o(.text)
    USART_SendBreak                          0x08000ccf   Thumb Code    10  stm32f10x_usart.o(.text)
    USART_SetGuardTime                       0x08000cd9   Thumb Code    16  stm32f10x_usart.o(.text)
    USART_SetPrescaler                       0x08000ce9   Thumb Code    16  stm32f10x_usart.o(.text)
    USART_SmartCardCmd                       0x08000cf9   Thumb Code    24  stm32f10x_usart.o(.text)
    USART_SmartCardNACKCmd                   0x08000d11   Thumb Code    24  stm32f10x_usart.o(.text)
    USART_HalfDuplexCmd                      0x08000d29   Thumb Code    24  stm32f10x_usart.o(.text)
    USART_OverSampling8Cmd                   0x08000d41   Thumb Code    22  stm32f10x_usart.o(.text)
    USART_OneBitMethodCmd                    0x08000d57   Thumb Code    24  stm32f10x_usart.o(.text)
    USART_IrDAConfig                         0x08000d6f   Thumb Code    18  stm32f10x_usart.o(.text)
    USART_IrDACmd                            0x08000d81   Thumb Code    24  stm32f10x_usart.o(.text)
    USART_GetFlagStatus                      0x08000d99   Thumb Code    26  stm32f10x_usart.o(.text)
    USART_ClearFlag                          0x08000db3   Thumb Code    18  stm32f10x_usart.o(.text)
    USART_GetITStatus                        0x08000dc5   Thumb Code    84  stm32f10x_usart.o(.text)
    USART_ClearITPendingBit                  0x08000e19   Thumb Code    52  stm32f10x_usart.o(.text)
    CPU_IntDis                               0x08000e4d   Thumb Code     0  cpu_a.o(.text)
    CPU_IntEn                                0x08000e51   Thumb Code     0  cpu_a.o(.text)
    CPU_SR_Save                              0x08000e55   Thumb Code     0  cpu_a.o(.text)
    CPU_SR_Restore                           0x08000e5d   Thumb Code     0  cpu_a.o(.text)
    CPU_WaitForInt                           0x08000e63   Thumb Code     0  cpu_a.o(.text)
    CPU_WaitForExcept                        0x08000e67   Thumb Code     0  cpu_a.o(.text)
    CPU_CntLeadZeros                         0x08000e6b   Thumb Code     0  cpu_a.o(.text)
    CPU_CntTrailZeros                        0x08000e71   Thumb Code     0  cpu_a.o(.text)
    CPU_RevBits                              0x08000e7b   Thumb Code     0  cpu_a.o(.text)
    __scatterload                            0x08000e81   Thumb Code    28  init.o(.text)
    __scatterload_rt2                        0x08000e81   Thumb Code     0  init.o(.text)
    OSStartHighRdy                           0x08000ea5   Thumb Code     0  os_cpu_a.o(CODE)
    OS_CPU_PendSVHandler                     0x08000ec7   Thumb Code     0  os_cpu_a.o(CODE)
    BSP_CPU_ClkFreq                          0x080010e9   Thumb Code    16  bsp.o(i.BSP_CPU_ClkFreq)
    BSP_Init                                 0x080010f9   Thumb Code    16  bsp.o(i.BSP_Init)
    BusFault_Handler                         0x08001109   Thumb Code     4  stm32f10x_it.o(i.BusFault_Handler)
    CPU_Init                                 0x0800110d   Thumb Code    16  cpu_core.o(i.CPU_Init)
    CPU_IntDisMeasMaxCurGet                  0x080011bd   Thumb Code    40  cpu_core.o(i.CPU_IntDisMeasMaxCurGet)
    CPU_IntDisMeasMaxCurReset                0x080011e9   Thumb Code    40  cpu_core.o(i.CPU_IntDisMeasMaxCurReset)
    CPU_IntDisMeasMaxGet                     0x08001215   Thumb Code    40  cpu_core.o(i.CPU_IntDisMeasMaxGet)
    CPU_IntDisMeasStart                      0x08001241   Thumb Code    38  cpu_core.o(i.CPU_IntDisMeasStart)
    CPU_IntDisMeasStop                       0x08001275   Thumb Code    62  cpu_core.o(i.CPU_IntDisMeasStop)
    CPU_NameClr                              0x080012c9   Thumb Code    50  cpu_core.o(i.CPU_NameClr)
    CPU_TS_TmrFreqSet                        0x0800131d   Thumb Code     6  cpu_core.o(i.CPU_TS_TmrFreqSet)
    CPU_TS_TmrInit                           0x08001329   Thumb Code    44  bsp.o(i.CPU_TS_TmrInit)
    CPU_TS_TmrRd                             0x0800135d   Thumb Code     6  bsp.o(i.CPU_TS_TmrRd)
    DebugMon_Handler                         0x08001369   Thumb Code     2  stm32f10x_it.o(i.DebugMon_Handler)
    HardFault_Handler                        0x0800136b   Thumb Code     4  stm32f10x_it.o(i.HardFault_Handler)
    Key_Initial                              0x080013b9   Thumb Code    12  bsp_key.o(i.Key_Initial)
    LED_Init                                 0x0800141d   Thumb Code    32  bsp_led.o(i.LED_Init)
    MemManage_Handler                        0x08001441   Thumb Code     4  stm32f10x_it.o(i.MemManage_Handler)
    Mem_Clr                                  0x08001445   Thumb Code    18  lib_mem.o(i.Mem_Clr)
    Mem_Init                                 0x08001459   Thumb Code    54  lib_mem.o(i.Mem_Init)
    Mem_Set                                  0x080014a1   Thumb Code    98  lib_mem.o(i.Mem_Set)
    NMI_Handler                              0x08001503   Thumb Code     2  stm32f10x_it.o(i.NMI_Handler)
    OSCfg_Init                               0x08001505   Thumb Code     2  os_cfg_app.o(i.OSCfg_Init)
    OSIdleTaskHook                           0x08001509   Thumb Code    16  os_cpu_c.o(i.OSIdleTaskHook)
    OSInit                                   0x0800151d   Thumb Code   300  os_core.o(i.OSInit)
    OSInitHook                               0x080016a9   Thumb Code    42  os_cpu_c.o(i.OSInitHook)
    OSIntExit                                0x080016e1   Thumb Code   192  os_core.o(i.OSIntExit)
    OSSched                                  0x080017c5   Thumb Code   134  os_core.o(i.OSSched)
    OSSchedLock                              0x0800186d   Thumb Code   112  os_core.o(i.OSSchedLock)
    OSSchedUnlock                            0x080018e9   Thumb Code   148  os_core.o(i.OSSchedUnlock)
    OSStart                                  0x08001989   Thumb Code    78  os_core.o(i.OSStart)
    OSStatReset                              0x080019f1   Thumb Code   316  os_stat.o(i.OSStatReset)
    OSStatTaskCPUUsageInit                   0x08001b59   Thumb Code   228  os_stat.o(i.OSStatTaskCPUUsageInit)
    OSStatTaskHook                           0x08001c59   Thumb Code    16  os_cpu_c.o(i.OSStatTaskHook)
    OSTaskCreate                             0x08001c6d   Thumb Code   624  os_task.o(i.OSTaskCreate)
    OSTaskCreateHook                         0x08001f01   Thumb Code    20  os_cpu_c.o(i.OSTaskCreateHook)
    OSTaskDel                                0x08001f19   Thumb Code   490  os_task.o(i.OSTaskDel)
    OSTaskDelHook                            0x08002121   Thumb Code    20  os_cpu_c.o(i.OSTaskDelHook)
    OSTaskResume                             0x08002139   Thumb Code   124  os_task.o(i.OSTaskResume)
    OSTaskReturnHook                         0x080021c1   Thumb Code    20  os_cpu_c.o(i.OSTaskReturnHook)
    OSTaskSemPend                            0x080021d9   Thumb Code   578  os_task.o(i.OSTaskSemPend)
    OSTaskStkChk                             0x08002429   Thumb Code   220  os_task.o(i.OSTaskStkChk)
    OSTaskStkInit                            0x0800250d   Thumb Code   188  os_cpu_c.o(i.OSTaskStkInit)
    OSTaskSuspend                            0x080025cd   Thumb Code    78  os_task.o(i.OSTaskSuspend)
    OSTaskSwHook                             0x0800262d   Thumb Code   146  os_cpu_c.o(i.OSTaskSwHook)
    OSTimeDly                                0x080026d1   Thumb Code   322  os_time.o(i.OSTimeDly)
    OSTimeTick                               0x08002821   Thumb Code    54  os_time.o(i.OSTimeTick)
    OSTimeTickHook                           0x08002865   Thumb Code    16  os_cpu_c.o(i.OSTimeTickHook)
    OS_CPU_SysTickHandler                    0x08002879   Thumb Code    60  os_cpu_c.o(i.OS_CPU_SysTickHandler)
    OS_CPU_SysTickInit                       0x080028b9   Thumb Code    44  os_cpu_c.o(i.OS_CPU_SysTickInit)
    OS_Dbg_Init                              0x080028e9   Thumb Code   150  os_dbg.o(i.OS_Dbg_Init)
    OS_FlagInit                              0x08002a9d   Thumb Code    14  os_flag.o(i.OS_FlagInit)
    OS_FlagPost                              0x08002ab5   Thumb Code   626  os_flag.o(i.OS_FlagPost)
    OS_FlagTaskRdy                           0x08002d31   Thumb Code    86  os_flag.o(i.OS_FlagTaskRdy)
    OS_IdleTask                              0x08002d89   Thumb Code    68  os_core.o(i.OS_IdleTask)
    OS_IdleTaskInit                          0x08002dd5   Thumb Code    66  os_core.o(i.OS_IdleTaskInit)
    OS_IntQPost                              0x08002e45   Thumb Code   224  os_int.o(i.OS_IntQPost)
    OS_IntQRePost                            0x08002f49   Thumb Code   360  os_int.o(i.OS_IntQRePost)
    OS_IntQTask                              0x080030ed   Thumb Code   182  os_int.o(i.OS_IntQTask)
    OS_IntQTaskInit                          0x080031b5   Thumb Code   206  os_int.o(i.OS_IntQTaskInit)
    OS_MemInit                               0x080032dd   Thumb Code    14  os_mem.o(i.OS_MemInit)
    OS_MsgPoolInit                           0x080032f5   Thumb Code   110  os_msg.o(i.OS_MsgPoolInit)
    OS_MsgQFreeAll                           0x08003371   Thumb Code    62  os_msg.o(i.OS_MsgQFreeAll)
    OS_MsgQInit                              0x080033b5   Thumb Code    14  os_msg.o(i.OS_MsgQInit)
    OS_MsgQPut                               0x080033c5   Thumb Code   254  os_msg.o(i.OS_MsgQPut)
    OS_MutexInit                             0x080034c9   Thumb Code    14  os_mutex.o(i.OS_MutexInit)
    OS_Pend                                  0x080034e1   Thumb Code    98  os_core.o(i.OS_Pend)
    OS_PendDataInit                          0x08003549   Thumb Code    38  os_core.o(i.OS_PendDataInit)
    OS_PendDbgNameAdd                        0x08003571   Thumb Code    66  os_core.o(i.OS_PendDbgNameAdd)
    OS_PendDbgNameRemove                     0x080035cd   Thumb Code    30  os_core.o(i.OS_PendDbgNameRemove)
    OS_PendListInsertPrio                    0x080035f1   Thumb Code   102  os_core.o(i.OS_PendListInsertPrio)
    OS_PendListRemove                        0x08003657   Thumb Code    48  os_core.o(i.OS_PendListRemove)
    OS_PendListRemove1                       0x08003687   Thumb Code    66  os_core.o(i.OS_PendListRemove1)
    OS_Post                                  0x080036c9   Thumb Code   192  os_core.o(i.OS_Post)
    OS_Post1                                 0x08003789   Thumb Code    42  os_core.o(i.OS_Post1)
    OS_PrioGetHighest                        0x080037b5   Thumb Code    36  os_prio.o(i.OS_PrioGetHighest)
    OS_PrioInit                              0x080037dd   Thumb Code    20  os_prio.o(i.OS_PrioInit)
    OS_PrioInsert                            0x080037f5   Thumb Code    32  os_prio.o(i.OS_PrioInsert)
    OS_PrioRemove                            0x08003819   Thumb Code    32  os_prio.o(i.OS_PrioRemove)
    OS_QInit                                 0x0800383d   Thumb Code    14  os_q.o(i.OS_QInit)
    OS_QPost                                 0x08003855   Thumb Code   382  os_q.o(i.OS_QPost)
    OS_RdyListInit                           0x080039dd   Thumb Code    32  os_core.o(i.OS_RdyListInit)
    OS_RdyListInsert                         0x08003a01   Thumb Code    40  os_core.o(i.OS_RdyListInsert)
    OS_RdyListInsertHead                     0x08003a2d   Thumb Code    58  os_core.o(i.OS_RdyListInsertHead)
    OS_RdyListInsertTail                     0x08003a6d   Thumb Code    56  os_core.o(i.OS_RdyListInsertTail)
    OS_RdyListMoveHeadToTail                 0x08003aa9   Thumb Code    68  os_core.o(i.OS_RdyListMoveHeadToTail)
    OS_RdyListRemove                         0x08003aed   Thumb Code    86  os_core.o(i.OS_RdyListRemove)
    OS_Sched0                                0x08003b49   Thumb Code    72  os_core.o(i.OS_Sched0)
    OS_SchedLockTimeMeasStart                0x08003ba5   Thumb Code    20  os_core.o(i.OS_SchedLockTimeMeasStart)
    OS_SchedLockTimeMeasStop                 0x08003bc1   Thumb Code    44  os_core.o(i.OS_SchedLockTimeMeasStop)
    OS_SchedRoundRobin                       0x08003bfd   Thumb Code   218  os_core.o(i.OS_SchedRoundRobin)
    OS_SemInit                               0x08003ce9   Thumb Code    14  os_sem.o(i.OS_SemInit)
    OS_SemPost                               0x08003d01   Thumb Code   404  os_sem.o(i.OS_SemPost)
    OS_StatTask                              0x08003e99   Thumb Code   878  os_stat.o(i.OS_StatTask)
    OS_StatTaskInit                          0x08004251   Thumb Code   136  os_stat.o(i.OS_StatTaskInit)
    OS_TaskBlock                             0x0800431d   Thumb Code    56  os_core.o(i.OS_TaskBlock)
    OS_TaskDbgListAdd                        0x08004355   Thumb Code    42  os_task.o(i.OS_TaskDbgListAdd)
    OS_TaskDbgListRemove                     0x08004385   Thumb Code    64  os_task.o(i.OS_TaskDbgListRemove)
    OS_TaskInit                              0x080043c9   Thumb Code    18  os_task.o(i.OS_TaskInit)
    OS_TaskInitTCB                           0x080043e9   Thumb Code   194  os_task.o(i.OS_TaskInitTCB)
    OS_TaskQPost                             0x080044b9   Thumb Code   606  os_task.o(i.OS_TaskQPost)
    OS_TaskRdy                               0x08004725   Thumb Code    28  os_core.o(i.OS_TaskRdy)
    OS_TaskResume                            0x08004741   Thumb Code   374  os_task.o(i.OS_TaskResume)
    OS_TaskReturn                            0x080048bd   Thumb Code    20  os_task.o(i.OS_TaskReturn)
    OS_TaskSemPost                           0x080048d5   Thumb Code  1438  os_task.o(i.OS_TaskSemPost)
    OS_TaskSuspend                           0x08004e7d   Thumb Code   392  os_task.o(i.OS_TaskSuspend)
    OS_TickListInit                          0x0800500d   Thumb Code    32  os_tick.o(i.OS_TickListInit)
    OS_TickListInsert                        0x08005035   Thumb Code   430  os_tick.o(i.OS_TickListInsert)
    OS_TickListRemove                        0x080051f1   Thumb Code    56  os_tick.o(i.OS_TickListRemove)
    OS_TickListResetPeak                     0x08005229   Thumb Code    28  os_tick.o(i.OS_TickListResetPeak)
    OS_TickListUpdate                        0x0800524d   Thumb Code   520  os_tick.o(i.OS_TickListUpdate)
    OS_TickTask                              0x0800546d   Thumb Code    38  os_tick.o(i.OS_TickTask)
    OS_TickTaskInit                          0x08005499   Thumb Code   128  os_tick.o(i.OS_TickTaskInit)
    OS_TmrInit                               0x08005551   Thumb Code   206  os_tmr.o(i.OS_TmrInit)
    OS_TmrLink                               0x08005679   Thumb Code   196  os_tmr.o(i.OS_TmrLink)
    OS_TmrResetPeak                          0x08005749   Thumb Code    28  os_tmr.o(i.OS_TmrResetPeak)
    OS_TmrTask                               0x0800576d   Thumb Code   176  os_tmr.o(i.OS_TmrTask)
    OS_TmrUnlink                             0x0800582d   Thumb Code    72  os_tmr.o(i.OS_TmrUnlink)
    SVC_Handler                              0x0800587d   Thumb Code     2  stm32f10x_it.o(i.SVC_Handler)
    USARTx_Config                            0x08005881   Thumb Code   120  bsp_usart1.o(i.USARTx_Config)
    UsageFault_Handler                       0x08005901   Thumb Code     4  stm32f10x_it.o(i.UsageFault_Handler)
    __scatterload_copy                       0x08005905   Thumb Code    14  handlers.o(i.__scatterload_copy)
    __scatterload_null                       0x08005913   Thumb Code     2  handlers.o(i.__scatterload_null)
    __scatterload_zeroinit                   0x08005915   Thumb Code    14  handlers.o(i.__scatterload_zeroinit)
    main                                     0x08005925   Thumb Code    68  main.o(i.main)
    OSCfg_IdleTaskStkBasePtr                 0x08005984   Data           4  os_cfg_app.o(.constdata)
    OSCfg_IdleTaskStkLimit                   0x08005988   Data           4  os_cfg_app.o(.constdata)
    OSCfg_IdleTaskStkSize                    0x0800598c   Data           4  os_cfg_app.o(.constdata)
    OSCfg_IdleTaskStkSizeRAM                 0x08005990   Data           4  os_cfg_app.o(.constdata)
    OSCfg_IntQBasePtr                        0x08005994   Data           4  os_cfg_app.o(.constdata)
    OSCfg_IntQSize                           0x08005998   Data           2  os_cfg_app.o(.constdata)
    OSCfg_IntQSizeRAM                        0x0800599c   Data           4  os_cfg_app.o(.constdata)
    OSCfg_IntQTaskStkBasePtr                 0x080059a0   Data           4  os_cfg_app.o(.constdata)
    OSCfg_IntQTaskStkLimit                   0x080059a4   Data           4  os_cfg_app.o(.constdata)
    OSCfg_IntQTaskStkSize                    0x080059a8   Data           4  os_cfg_app.o(.constdata)
    OSCfg_IntQTaskStkSizeRAM                 0x080059ac   Data           4  os_cfg_app.o(.constdata)
    OSCfg_ISRStkBasePtr                      0x080059b0   Data           4  os_cfg_app.o(.constdata)
    OSCfg_ISRStkSize                         0x080059b4   Data           4  os_cfg_app.o(.constdata)
    OSCfg_ISRStkSizeRAM                      0x080059b8   Data           4  os_cfg_app.o(.constdata)
    OSCfg_MsgPoolSize                        0x080059bc   Data           2  os_cfg_app.o(.constdata)
    OSCfg_MsgPoolSizeRAM                     0x080059c0   Data           4  os_cfg_app.o(.constdata)
    OSCfg_MsgPoolBasePtr                     0x080059c4   Data           4  os_cfg_app.o(.constdata)
    OSCfg_StatTaskPrio                       0x080059c8   Data           1  os_cfg_app.o(.constdata)
    OSCfg_StatTaskRate_Hz                    0x080059cc   Data           4  os_cfg_app.o(.constdata)
    OSCfg_StatTaskStkBasePtr                 0x080059d0   Data           4  os_cfg_app.o(.constdata)
    OSCfg_StatTaskStkLimit                   0x080059d4   Data           4  os_cfg_app.o(.constdata)
    OSCfg_StatTaskStkSize                    0x080059d8   Data           4  os_cfg_app.o(.constdata)
    OSCfg_StatTaskStkSizeRAM                 0x080059dc   Data           4  os_cfg_app.o(.constdata)
    OSCfg_StkSizeMin                         0x080059e0   Data           4  os_cfg_app.o(.constdata)
    OSCfg_TickRate_Hz                        0x080059e4   Data           4  os_cfg_app.o(.constdata)
    OSCfg_TickTaskPrio                       0x080059e8   Data           1  os_cfg_app.o(.constdata)
    OSCfg_TickTaskStkBasePtr                 0x080059ec   Data           4  os_cfg_app.o(.constdata)
    OSCfg_TickTaskStkLimit                   0x080059f0   Data           4  os_cfg_app.o(.constdata)
    OSCfg_TickTaskStkSize                    0x080059f4   Data           4  os_cfg_app.o(.constdata)
    OSCfg_TickTaskStkSizeRAM                 0x080059f8   Data           4  os_cfg_app.o(.constdata)
    OSCfg_TickWheelSize                      0x080059fc   Data           2  os_cfg_app.o(.constdata)
    OSCfg_TickWheelSizeRAM                   0x08005a00   Data           4  os_cfg_app.o(.constdata)
    OSCfg_TmrTaskPrio                        0x08005a04   Data           1  os_cfg_app.o(.constdata)
    OSCfg_TmrTaskRate_Hz                     0x08005a08   Data           4  os_cfg_app.o(.constdata)
    OSCfg_TmrTaskStkBasePtr                  0x08005a0c   Data           4  os_cfg_app.o(.constdata)
    OSCfg_TmrTaskStkLimit                    0x08005a10   Data           4  os_cfg_app.o(.constdata)
    OSCfg_TmrTaskStkSize                     0x08005a14   Data           4  os_cfg_app.o(.constdata)
    OSCfg_TmrTaskStkSizeRAM                  0x08005a18   Data           4  os_cfg_app.o(.constdata)
    OSCfg_TmrWheelSize                       0x08005a1c   Data           2  os_cfg_app.o(.constdata)
    OSCfg_TmrWheelSizeRAM                    0x08005a20   Data           4  os_cfg_app.o(.constdata)
    OSCfg_DataSizeRAM                        0x08005a24   Data           4  os_cfg_app.o(.constdata)
    OSDbg_DbgEn                              0x08005a28   Data           1  os_dbg.o(.constdata)
    OSDbg_ArgChkEn                           0x08005a29   Data           1  os_dbg.o(.constdata)
    OSDbg_AppHooksEn                         0x08005a2a   Data           1  os_dbg.o(.constdata)
    OSDbg_EndiannessTest                     0x08005a2c   Data           4  os_dbg.o(.constdata)
    OSDbg_CalledFromISRChkEn                 0x08005a30   Data           1  os_dbg.o(.constdata)
    OSDbg_FlagEn                             0x08005a31   Data           1  os_dbg.o(.constdata)
    OSDbg_FlagGrp                            0x08005a34   Data          40  os_dbg.o(.constdata)
    OSDbg_FlagDelEn                          0x08005a5c   Data           1  os_dbg.o(.constdata)
    OSDbg_FlagModeClrEn                      0x08005a5d   Data           1  os_dbg.o(.constdata)
    OSDbg_FlagPendAbortEn                    0x08005a5e   Data           1  os_dbg.o(.constdata)
    OSDbg_FlagGrpSize                        0x08005a60   Data           2  os_dbg.o(.constdata)
    OSDbg_FlagWidth                          0x08005a62   Data           2  os_dbg.o(.constdata)
    OSDbg_IntQ                               0x08005a64   Data           2  os_dbg.o(.constdata)
    OSDbg_ISRPostDeferredEn                  0x08005a66   Data           1  os_dbg.o(.constdata)
    OSDbg_Mem                                0x08005a68   Data          32  os_dbg.o(.constdata)
    OSDbg_MemEn                              0x08005a88   Data           1  os_dbg.o(.constdata)
    OSDbg_MemSize                            0x08005a8a   Data           2  os_dbg.o(.constdata)
    OSDbg_MsgEn                              0x08005a8c   Data           1  os_dbg.o(.constdata)
    OSDbg_MsgSize                            0x08005a8e   Data           2  os_dbg.o(.constdata)
    OSDbg_MsgPoolSize                        0x08005a90   Data           2  os_dbg.o(.constdata)
    OSDbg_MsgQSize                           0x08005a92   Data           2  os_dbg.o(.constdata)
    OSDbg_Mutex                              0x08005a94   Data          44  os_dbg.o(.constdata)
    OSDbg_MutexEn                            0x08005ac0   Data           1  os_dbg.o(.constdata)
    OSDbg_MutexDelEn                         0x08005ac1   Data           1  os_dbg.o(.constdata)
    OSDbg_MutexPendAbortEn                   0x08005ac2   Data           1  os_dbg.o(.constdata)
    OSDbg_MutexSize                          0x08005ac4   Data           2  os_dbg.o(.constdata)
    OSDbg_ObjTypeChkEn                       0x08005ac6   Data           1  os_dbg.o(.constdata)
    OSDbg_PendMultiEn                        0x08005ac7   Data           1  os_dbg.o(.constdata)
    OSDbg_PendDataSize                       0x08005ac8   Data           2  os_dbg.o(.constdata)
    OSDbg_PendListSize                       0x08005aca   Data           2  os_dbg.o(.constdata)
    OSDbg_PendObjSize                        0x08005acc   Data           2  os_dbg.o(.constdata)
    OSDbg_PrioMax                            0x08005ace   Data           2  os_dbg.o(.constdata)
    OSDbg_PrioTblSize                        0x08005ad0   Data           2  os_dbg.o(.constdata)
    OSDbg_PtrSize                            0x08005ad2   Data           2  os_dbg.o(.constdata)
    OSDbg_Q                                  0x08005ad4   Data          48  os_dbg.o(.constdata)
    OSDbg_QEn                                0x08005b04   Data           1  os_dbg.o(.constdata)
    OSDbg_QDelEn                             0x08005b05   Data           1  os_dbg.o(.constdata)
    OSDbg_QFlushEn                           0x08005b06   Data           1  os_dbg.o(.constdata)
    OSDbg_QPendAbortEn                       0x08005b07   Data           1  os_dbg.o(.constdata)
    OSDbg_QSize                              0x08005b08   Data           2  os_dbg.o(.constdata)
    OSDbg_SchedRoundRobinEn                  0x08005b0a   Data           1  os_dbg.o(.constdata)
    OSDbg_Sem                                0x08005b0c   Data          40  os_dbg.o(.constdata)
    OSDbg_SemEn                              0x08005b34   Data           1  os_dbg.o(.constdata)
    OSDbg_SemDelEn                           0x08005b35   Data           1  os_dbg.o(.constdata)
    OSDbg_SemPendAbortEn                     0x08005b36   Data           1  os_dbg.o(.constdata)
    OSDbg_SemSetEn                           0x08005b37   Data           1  os_dbg.o(.constdata)
    OSDbg_SemSize                            0x08005b38   Data           2  os_dbg.o(.constdata)
    OSDbg_RdyList                            0x08005b3a   Data           2  os_dbg.o(.constdata)
    OSDbg_RdyListSize                        0x08005b3c   Data           4  os_dbg.o(.constdata)
    OSDbg_StkWidth                           0x08005b40   Data           1  os_dbg.o(.constdata)
    OSDbg_StatTaskEn                         0x08005b41   Data           1  os_dbg.o(.constdata)
    OSDbg_StatTaskStkChkEn                   0x08005b42   Data           1  os_dbg.o(.constdata)
    OSDbg_TaskChangePrioEn                   0x08005b43   Data           1  os_dbg.o(.constdata)
    OSDbg_TaskDelEn                          0x08005b44   Data           1  os_dbg.o(.constdata)
    OSDbg_TaskQEn                            0x08005b45   Data           1  os_dbg.o(.constdata)
    OSDbg_TaskQPendAbortEn                   0x08005b46   Data           1  os_dbg.o(.constdata)
    OSDbg_TaskProfileEn                      0x08005b47   Data           1  os_dbg.o(.constdata)
    OSDbg_TaskRegTblSize                     0x08005b48   Data           2  os_dbg.o(.constdata)
    OSDbg_TaskSemPendAbortEn                 0x08005b4a   Data           1  os_dbg.o(.constdata)
    OSDbg_TaskSuspendEn                      0x08005b4b   Data           1  os_dbg.o(.constdata)
    OSDbg_TCBSize                            0x08005b4c   Data           2  os_dbg.o(.constdata)
    OSDbg_TickSpokeSize                      0x08005b4e   Data           2  os_dbg.o(.constdata)
    OSDbg_TimeDlyHMSMEn                      0x08005b50   Data           1  os_dbg.o(.constdata)
    OSDbg_TimeDlyResumeEn                    0x08005b51   Data           1  os_dbg.o(.constdata)
    OSDbg_TLS_TblSize                        0x08005b52   Data           2  os_dbg.o(.constdata)
    OSDbg_Tmr                                0x08005b54   Data          52  os_dbg.o(.constdata)
    OSDbg_TmrEn                              0x08005b88   Data           1  os_dbg.o(.constdata)
    OSDbg_TmrDelEn                           0x08005b89   Data           1  os_dbg.o(.constdata)
    OSDbg_TmrSize                            0x08005b8a   Data           2  os_dbg.o(.constdata)
    OSDbg_TmrSpokeSize                       0x08005b8c   Data           2  os_dbg.o(.constdata)
    OSDbg_VersionNbr                         0x08005b8e   Data           2  os_dbg.o(.constdata)
    OSDbg_DataSize                           0x08005b90   Data           4  os_dbg.o(.constdata)
    Region$$Table$$Base                      0x08005b94   Number         0  anon$$obj.o(Region$$Table)
    Region$$Table$$Limit                     0x08005bb4   Number         0  anon$$obj.o(Region$$Table)
    SystemCoreClock                          0x20000000   Data           4  system_stm32f10x.o(.data)
    AHBPrescTable                            0x20000004   Data          16  system_stm32f10x.o(.data)
    CPU_TS_TmrFreq_Hz                        0x20000028   Data           4  cpu_core.o(.data)
    CPU_IntDisMeasCtr                        0x2000002c   Data           2  cpu_core.o(.data)
    CPU_IntDisNestCtr                        0x2000002e   Data           2  cpu_core.o(.data)
    CPU_IntDisMeasStart_cnts                 0x20000030   Data           4  cpu_core.o(.data)
    CPU_IntDisMeasStop_cnts                  0x20000034   Data           4  cpu_core.o(.data)
    CPU_IntDisMeasOvrhd_cnts                 0x20000038   Data           4  cpu_core.o(.data)
    CPU_IntDisMeasMaxCur_cnts                0x2000003c   Data           4  cpu_core.o(.data)
    CPU_IntDisMeasMax_cnts                   0x20000040   Data           4  cpu_core.o(.data)
    Mem_PoolTbl                              0x20000044   Data           4  lib_mem.o(.data)
    OS_AppTaskCreateHookPtr                  0x20000048   Data           4  os_var.o(.data)
    OS_AppTaskDelHookPtr                     0x2000004c   Data           4  os_var.o(.data)
    OS_AppTaskReturnHookPtr                  0x20000050   Data           4  os_var.o(.data)
    OS_AppIdleTaskHookPtr                    0x20000054   Data           4  os_var.o(.data)
    OS_AppStatTaskHookPtr                    0x20000058   Data           4  os_var.o(.data)
    OS_AppTaskSwHookPtr                      0x2000005c   Data           4  os_var.o(.data)
    OS_AppTimeTickHookPtr                    0x20000060   Data           4  os_var.o(.data)
    OSIdleTaskCtr                            0x20000064   Data           4  os_var.o(.data)
    OSIntNestingCtr                          0x20000068   Data           1  os_var.o(.data)
    OSIntDisTimeMax                          0x2000006c   Data           4  os_var.o(.data)
    OSRunning                                0x20000070   Data           1  os_var.o(.data)
    OSIntQInPtr                              0x20000074   Data           4  os_var.o(.data)
    OSIntQOutPtr                             0x20000078   Data           4  os_var.o(.data)
    OSIntQNbrEntries                         0x2000007c   Data           2  os_var.o(.data)
    OSIntQNbrEntriesMax                      0x2000007e   Data           2  os_var.o(.data)
    OSIntQOvfCtr                             0x20000080   Data           2  os_var.o(.data)
    OSIntQTaskTimeMax                        0x20000084   Data           4  os_var.o(.data)
    OSFlagDbgListPtr                         0x20000088   Data           4  os_var.o(.data)
    OSFlagQty                                0x2000008c   Data           2  os_var.o(.data)
    OSMemDbgListPtr                          0x20000090   Data           4  os_var.o(.data)
    OSMemQty                                 0x20000094   Data           2  os_var.o(.data)
    OSMutexDbgListPtr                        0x20000098   Data           4  os_var.o(.data)
    OSMutexQty                               0x2000009c   Data           2  os_var.o(.data)
    OSPrioCur                                0x2000009e   Data           1  os_var.o(.data)
    OSPrioHighRdy                            0x2000009f   Data           1  os_var.o(.data)
    OSPrioSaved                              0x200000a0   Data           1  os_var.o(.data)
    OSQDbgListPtr                            0x200000a4   Data           4  os_var.o(.data)
    OSQQty                                   0x200000a8   Data           2  os_var.o(.data)
    OSSchedLockTimeBegin                     0x200000ac   Data           4  os_var.o(.data)
    OSSchedLockTimeMax                       0x200000b0   Data           4  os_var.o(.data)
    OSSchedLockTimeMaxCur                    0x200000b4   Data           4  os_var.o(.data)
    OSSchedLockNestingCtr                    0x200000b8   Data           1  os_var.o(.data)
    OSSchedRoundRobinDfltTimeQuanta          0x200000bc   Data           4  os_var.o(.data)
    OSSchedRoundRobinEn                      0x200000c0   Data           1  os_var.o(.data)
    OSSemDbgListPtr                          0x200000c4   Data           4  os_var.o(.data)
    OSSemQty                                 0x200000c8   Data           2  os_var.o(.data)
    OSStatResetFlag                          0x200000ca   Data           1  os_var.o(.data)
    OSStatTaskCPUUsage                       0x200000cc   Data           2  os_var.o(.data)
    OSStatTaskCPUUsageMax                    0x200000ce   Data           2  os_var.o(.data)
    OSStatTaskCtr                            0x200000d0   Data           4  os_var.o(.data)
    OSStatTaskCtrMax                         0x200000d4   Data           4  os_var.o(.data)
    OSStatTaskCtrRun                         0x200000d8   Data           4  os_var.o(.data)
    OSStatTaskRdy                            0x200000dc   Data           1  os_var.o(.data)
    OSStatTaskTimeMax                        0x200000e0   Data           4  os_var.o(.data)
    OSTaskCtxSwCtr                           0x200000e4   Data           4  os_var.o(.data)
    OSTaskDbgListPtr                         0x200000e8   Data           4  os_var.o(.data)
    OSTaskQty                                0x200000ec   Data           2  os_var.o(.data)
    OSTaskRegNextAvailID                     0x200000ee   Data           1  os_var.o(.data)
    OSTickCtr                                0x200000f0   Data           4  os_var.o(.data)
    OSTickTaskTimeMax                        0x200000f4   Data           4  os_var.o(.data)
    OSTmrDbgListPtr                          0x200000f8   Data           4  os_var.o(.data)
    OSTmrQty                                 0x200000fc   Data           2  os_var.o(.data)
    OSTmrTaskTimeMax                         0x20000100   Data           4  os_var.o(.data)
    OSTmrTickCtr                             0x20000104   Data           4  os_var.o(.data)
    OSTmrUpdateCnt                           0x20000108   Data           4  os_var.o(.data)
    OSTmrUpdateCtr                           0x2000010c   Data           4  os_var.o(.data)
    OSTCBCurPtr                              0x20000110   Data           4  os_var.o(.data)
    OSTCBHighRdyPtr                          0x20000114   Data           4  os_var.o(.data)
    OS_CPU_ExceptStkBase                     0x20000118   Data           4  os_cpu_c.o(.data)
    OSPrioTbl                                0x2000011c   Data           4  os_prio.o(.data)
    CPU_Name                                 0x20001e40   Data          16  cpu_core.o(.bss)
    Mem_PoolHeap                             0x20001e50   Data          72  lib_mem.o(.bss)
    Mem_Heap                                 0x20001e98   Data       27648  lib_mem.o(.bss)
    OSCfg_IdleTaskStk                        0x20008a98   Data         512  os_cfg_app.o(.bss)
    OSCfg_IntQ                               0x20008c98   Data         320  os_cfg_app.o(.bss)
    OSCfg_IntQTaskStk                        0x20008dd8   Data         512  os_cfg_app.o(.bss)
    OSCfg_ISRStk                             0x20008fd8   Data         512  os_cfg_app.o(.bss)
    OSCfg_MsgPool                            0x200091d8   Data        1600  os_cfg_app.o(.bss)
    OSCfg_StatTaskStk                        0x20009818   Data         512  os_cfg_app.o(.bss)
    OSCfg_TickTaskStk                        0x20009a18   Data         512  os_cfg_app.o(.bss)
    OSCfg_TickWheel                          0x20009c18   Data         136  os_cfg_app.o(.bss)
    OSCfg_TmrTaskStk                         0x20009ca0   Data         512  os_cfg_app.o(.bss)
    OSCfg_TmrWheel                           0x20009ea0   Data         136  os_cfg_app.o(.bss)
    OSIdleTaskTCB                            0x20009f28   Data         200  os_var.o(.bss)
    OSIntQTaskTCB                            0x20009ff0   Data         200  os_var.o(.bss)
    OSMsgPool                                0x2000a0b8   Data          12  os_var.o(.bss)
    OSRdyList                                0x2000a0c4   Data         384  os_var.o(.bss)
    OSStatTaskTCB                            0x2000a244   Data         200  os_var.o(.bss)
    OSTickTaskTCB                            0x2000a30c   Data         200  os_var.o(.bss)
    OSTmrTaskTCB                             0x2000a3d4   Data         200  os_var.o(.bss)
    __initial_sp                             0x2000a8a0   Data           0  startup_stm32f10x_hd.o(STACK)



==============================================================================

Memory Map of the image

  Image Entry point : 0x08000131

  Load Region LR_IROM1 (Base: 0x08000000, Size: 0x00005cd4, Max: 0x00080000, ABSOLUTE)

    Execution Region ER_IROM1 (Exec base: 0x08000000, Load base: 0x08000000, Size: 0x00005bb4, Max: 0x00080000, ABSOLUTE)

    Exec Addr    Load Addr    Size         Type   Attr      Idx    E Section Name        Object

    0x08000000   0x08000000   0x00000130   Data   RO            3    RESET               startup_stm32f10x_hd.o
    0x08000130   0x08000130   0x00000000   Code   RO         2399  * .ARM.Collect$$$$00000000  mc_w.l(entry.o)
    0x08000130   0x08000130   0x00000004   Code   RO         2402    .ARM.Collect$$$$00000001  mc_w.l(entry2.o)
    0x08000134   0x08000134   0x00000004   Code   RO         2405    .ARM.Collect$$$$00000004  mc_w.l(entry5.o)
    0x08000138   0x08000138   0x00000000   Code   RO         2407    .ARM.Collect$$$$00000008  mc_w.l(entry7b.o)
    0x08000138   0x08000138   0x00000000   Code   RO         2409    .ARM.Collect$$$$0000000A  mc_w.l(entry8b.o)
    0x08000138   0x08000138   0x00000008   Code   RO         2410    .ARM.Collect$$$$0000000B  mc_w.l(entry9a.o)
    0x08000140   0x08000140   0x00000004   Code   RO         2417    .ARM.Collect$$$$0000000E  mc_w.l(entry12b.o)
    0x08000144   0x08000144   0x00000000   Code   RO         2412    .ARM.Collect$$$$0000000F  mc_w.l(entry10a.o)
    0x08000144   0x08000144   0x00000000   Code   RO         2414    .ARM.Collect$$$$00000011  mc_w.l(entry11a.o)
    0x08000144   0x08000144   0x00000004   Code   RO         2403    .ARM.Collect$$$$00002712  mc_w.l(entry2.o)
    0x08000148   0x08000148   0x00000024   Code   RO            4    .text               startup_stm32f10x_hd.o
    0x0800016c   0x0800016c   0x000001dc   Code   RO          458    .text               stm32f10x_hd.lib(system_stm32f10x.o)
    0x08000348   0x08000348   0x00000358   Code   RO          558    .text               stm32f10x_hd.lib(stm32f10x_gpio.o)
    0x080006a0   0x080006a0   0x000003a4   Code   RO          593    .text               stm32f10x_hd.lib(stm32f10x_rcc.o)
    0x08000a44   0x08000a44   0x00000408   Code   RO          607    .text               stm32f10x_hd.lib(stm32f10x_usart.o)
    0x08000e4c   0x08000e4c   0x00000034   Code   RO          809    .text               UCOSIII.lib(cpu_a.o)
    0x08000e80   0x08000e80   0x00000024   Code   RO         2418    .text               mc_w.l(init.o)
    0x08000ea4   0x08000ea4   0x00000084   Code   RO         2291    CODE                UCOSIII.lib(os_cpu_a.o)
    0x08000f28   0x08000f28   0x00000034   Code   RO           10    i.AppTaskLed1       main.o
    0x08000f5c   0x08000f5c   0x00000034   Code   RO           11    i.AppTaskLed2       main.o
    0x08000f90   0x08000f90   0x00000034   Code   RO           12    i.AppTaskLed3       main.o
    0x08000fc4   0x08000fc4   0x00000124   Code   RO           13    i.AppTaskStart      main.o
    0x080010e8   0x080010e8   0x00000010   Code   RO          343    i.BSP_CPU_ClkFreq   bsp.o
    0x080010f8   0x080010f8   0x00000010   Code   RO          344    i.BSP_Init          bsp.o
    0x08001108   0x08001108   0x00000004   Code   RO          280    i.BusFault_Handler  stm32f10x_it.o
    0x0800110c   0x0800110c   0x00000010   Code   RO          627    i.CPU_Init          UCOSIII.lib(cpu_core.o)
    0x0800111c   0x0800111c   0x00000084   Code   RO          628    i.CPU_IntDisMeasInit  UCOSIII.lib(cpu_core.o)
    0x080011a0   0x080011a0   0x0000001c   Code   RO          629    i.CPU_IntDisMeasMaxCalc  UCOSIII.lib(cpu_core.o)
    0x080011bc   0x080011bc   0x0000002c   Code   RO          630    i.CPU_IntDisMeasMaxCurGet  UCOSIII.lib(cpu_core.o)
    0x080011e8   0x080011e8   0x0000002c   Code   RO          631    i.CPU_IntDisMeasMaxCurReset  UCOSIII.lib(cpu_core.o)
    0x08001214   0x08001214   0x0000002c   Code   RO          632    i.CPU_IntDisMeasMaxGet  UCOSIII.lib(cpu_core.o)
    0x08001240   0x08001240   0x00000034   Code   RO          633    i.CPU_IntDisMeasStart  UCOSIII.lib(cpu_core.o)
    0x08001274   0x08001274   0x00000054   Code   RO          634    i.CPU_IntDisMeasStop  UCOSIII.lib(cpu_core.o)
    0x080012c8   0x080012c8   0x00000038   Code   RO          635    i.CPU_NameClr       UCOSIII.lib(cpu_core.o)
    0x08001300   0x08001300   0x00000008   Code   RO          637    i.CPU_NameInit      UCOSIII.lib(cpu_core.o)
    0x08001308   0x08001308   0x00000014   Code   RO          641    i.CPU_TS_Init       UCOSIII.lib(cpu_core.o)
    0x0800131c   0x0800131c   0x0000000c   Code   RO          643    i.CPU_TS_TmrFreqSet  UCOSIII.lib(cpu_core.o)
    0x08001328   0x08001328   0x00000034   Code   RO          345    i.CPU_TS_TmrInit    bsp.o
    0x0800135c   0x0800135c   0x0000000c   Code   RO          346    i.CPU_TS_TmrRd      bsp.o
    0x08001368   0x08001368   0x00000002   Code   RO          281    i.DebugMon_Handler  stm32f10x_it.o
    0x0800136a   0x0800136a   0x00000004   Code   RO          282    i.HardFault_Handler  stm32f10x_it.o
    0x0800136e   0x0800136e   0x00000002   PAD
    0x08001370   0x08001370   0x00000024   Code   RO          424    i.Key1_Config       bsp_key.o
    0x08001394   0x08001394   0x00000024   Code   RO          425    i.Key2_Config       bsp_key.o
    0x080013b8   0x080013b8   0x0000000c   Code   RO          426    i.Key_Initial       bsp_key.o
    0x080013c4   0x080013c4   0x00000058   Code   RO          407    i.LED_GPIO_Config   bsp_led.o
    0x0800141c   0x0800141c   0x00000024   Code   RO          408    i.LED_Init          bsp_led.o
    0x08001440   0x08001440   0x00000004   Code   RO          283    i.MemManage_Handler  stm32f10x_it.o
    0x08001444   0x08001444   0x00000012   Code   RO          812    i.Mem_Clr           UCOSIII.lib(lib_mem.o)
    0x08001456   0x08001456   0x00000002   PAD
    0x08001458   0x08001458   0x00000048   Code   RO          816    i.Mem_Init          UCOSIII.lib(lib_mem.o)
    0x080014a0   0x080014a0   0x00000062   Code   RO          829    i.Mem_Set           UCOSIII.lib(lib_mem.o)
    0x08001502   0x08001502   0x00000002   Code   RO          284    i.NMI_Handler       stm32f10x_it.o
    0x08001504   0x08001504   0x00000002   Code   RO          937    i.OSCfg_Init        UCOSIII.lib(os_cfg_app.o)
    0x08001506   0x08001506   0x00000002   PAD
    0x08001508   0x08001508   0x00000014   Code   RO         1477    i.OSIdleTaskHook    UCOSIII.lib(os_cpu_c.o)
    0x0800151c   0x0800151c   0x0000018c   Code   RO          973    i.OSInit            UCOSIII.lib(os_core.o)
    0x080016a8   0x080016a8   0x00000038   Code   RO         1478    i.OSInitHook        UCOSIII.lib(os_cpu_c.o)
    0x080016e0   0x080016e0   0x000000e4   Code   RO          975    i.OSIntExit         UCOSIII.lib(os_core.o)
    0x080017c4   0x080017c4   0x000000a8   Code   RO          976    i.OSSched           UCOSIII.lib(os_core.o)
    0x0800186c   0x0800186c   0x0000007c   Code   RO          977    i.OSSchedLock       UCOSIII.lib(os_core.o)
    0x080018e8   0x080018e8   0x000000a0   Code   RO          980    i.OSSchedUnlock     UCOSIII.lib(os_core.o)
    0x08001988   0x08001988   0x00000068   Code   RO          981    i.OSStart           UCOSIII.lib(os_core.o)
    0x080019f0   0x080019f0   0x00000168   Code   RO         1223    i.OSStatReset       UCOSIII.lib(os_stat.o)
    0x08001b58   0x08001b58   0x00000100   Code   RO         1224    i.OSStatTaskCPUUsageInit  UCOSIII.lib(os_stat.o)
    0x08001c58   0x08001c58   0x00000014   Code   RO         1479    i.OSStatTaskHook    UCOSIII.lib(os_cpu_c.o)
    0x08001c6c   0x08001c6c   0x00000294   Code   RO         1254    i.OSTaskCreate      UCOSIII.lib(os_task.o)
    0x08001f00   0x08001f00   0x00000018   Code   RO         1480    i.OSTaskCreateHook  UCOSIII.lib(os_cpu_c.o)
    0x08001f18   0x08001f18   0x00000208   Code   RO         1255    i.OSTaskDel         UCOSIII.lib(os_task.o)
    0x08002120   0x08002120   0x00000018   Code   RO         1481    i.OSTaskDelHook     UCOSIII.lib(os_cpu_c.o)
    0x08002138   0x08002138   0x00000088   Code   RO         1263    i.OSTaskResume      UCOSIII.lib(os_task.o)
    0x080021c0   0x080021c0   0x00000018   Code   RO         1482    i.OSTaskReturnHook  UCOSIII.lib(os_cpu_c.o)
    0x080021d8   0x080021d8   0x00000250   Code   RO         1264    i.OSTaskSemPend     UCOSIII.lib(os_task.o)
    0x08002428   0x08002428   0x000000e4   Code   RO         1268    i.OSTaskStkChk      UCOSIII.lib(os_task.o)
    0x0800250c   0x0800250c   0x000000c0   Code   RO         1483    i.OSTaskStkInit     UCOSIII.lib(os_cpu_c.o)
    0x080025cc   0x080025cc   0x00000060   Code   RO         1269    i.OSTaskSuspend     UCOSIII.lib(os_task.o)
    0x0800262c   0x0800262c   0x000000a4   Code   RO         1484    i.OSTaskSwHook      UCOSIII.lib(os_cpu_c.o)
    0x080026d0   0x080026d0   0x00000150   Code   RO         1421    i.OSTimeDly         UCOSIII.lib(os_time.o)
    0x08002820   0x08002820   0x00000044   Code   RO         1426    i.OSTimeTick        UCOSIII.lib(os_time.o)
    0x08002864   0x08002864   0x00000014   Code   RO         1485    i.OSTimeTickHook    UCOSIII.lib(os_cpu_c.o)
    0x08002878   0x08002878   0x00000040   Code   RO         1486    i.OS_CPU_SysTickHandler  UCOSIII.lib(os_cpu_c.o)
    0x080028b8   0x080028b8   0x00000030   Code   RO         1487    i.OS_CPU_SysTickInit  UCOSIII.lib(os_cpu_c.o)
    0x080028e8   0x080028e8   0x000001b4   Code   RO         1711    i.OS_Dbg_Init       UCOSIII.lib(os_dbg.o)
    0x08002a9c   0x08002a9c   0x00000018   Code   RO         1736    i.OS_FlagInit       UCOSIII.lib(os_flag.o)
    0x08002ab4   0x08002ab4   0x0000027c   Code   RO         1737    i.OS_FlagPost       UCOSIII.lib(os_flag.o)
    0x08002d30   0x08002d30   0x00000056   Code   RO         1738    i.OS_FlagTaskRdy    UCOSIII.lib(os_flag.o)
    0x08002d86   0x08002d86   0x00000002   PAD
    0x08002d88   0x08002d88   0x0000004c   Code   RO          983    i.OS_IdleTask       UCOSIII.lib(os_core.o)
    0x08002dd4   0x08002dd4   0x00000070   Code   RO          984    i.OS_IdleTaskInit   UCOSIII.lib(os_core.o)
    0x08002e44   0x08002e44   0x00000104   Code   RO         1810    i.OS_IntQPost       UCOSIII.lib(os_int.o)
    0x08002f48   0x08002f48   0x000001a4   Code   RO         1811    i.OS_IntQRePost     UCOSIII.lib(os_int.o)
    0x080030ec   0x080030ec   0x000000c8   Code   RO         1812    i.OS_IntQTask       UCOSIII.lib(os_int.o)
    0x080031b4   0x080031b4   0x00000128   Code   RO         1813    i.OS_IntQTaskInit   UCOSIII.lib(os_int.o)
    0x080032dc   0x080032dc   0x00000018   Code   RO         1844    i.OS_MemInit        UCOSIII.lib(os_mem.o)
    0x080032f4   0x080032f4   0x0000007c   Code   RO         1876    i.OS_MsgPoolInit    UCOSIII.lib(os_msg.o)
    0x08003370   0x08003370   0x00000044   Code   RO         1877    i.OS_MsgQFreeAll    UCOSIII.lib(os_msg.o)
    0x080033b4   0x080033b4   0x0000000e   Code   RO         1879    i.OS_MsgQInit       UCOSIII.lib(os_msg.o)
    0x080033c2   0x080033c2   0x00000002   PAD
    0x080033c4   0x080033c4   0x00000104   Code   RO         1880    i.OS_MsgQPut        UCOSIII.lib(os_msg.o)
    0x080034c8   0x080034c8   0x00000018   Code   RO         1920    i.OS_MutexInit      UCOSIII.lib(os_mutex.o)
    0x080034e0   0x080034e0   0x00000068   Code   RO          985    i.OS_Pend           UCOSIII.lib(os_core.o)
    0x08003548   0x08003548   0x00000026   Code   RO          988    i.OS_PendDataInit   UCOSIII.lib(os_core.o)
    0x0800356e   0x0800356e   0x00000002   PAD
    0x08003570   0x08003570   0x0000005c   Code   RO          989    i.OS_PendDbgNameAdd  UCOSIII.lib(os_core.o)
    0x080035cc   0x080035cc   0x00000024   Code   RO          990    i.OS_PendDbgNameRemove  UCOSIII.lib(os_core.o)
    0x080035f0   0x080035f0   0x00000066   Code   RO          994    i.OS_PendListInsertPrio  UCOSIII.lib(os_core.o)
    0x08003656   0x08003656   0x00000030   Code   RO          995    i.OS_PendListRemove  UCOSIII.lib(os_core.o)
    0x08003686   0x08003686   0x00000042   Code   RO          996    i.OS_PendListRemove1  UCOSIII.lib(os_core.o)
    0x080036c8   0x080036c8   0x000000c0   Code   RO          999    i.OS_Post           UCOSIII.lib(os_core.o)
    0x08003788   0x08003788   0x0000002a   Code   RO         1000    i.OS_Post1          UCOSIII.lib(os_core.o)
    0x080037b2   0x080037b2   0x00000002   PAD
    0x080037b4   0x080037b4   0x00000028   Code   RO         1972    i.OS_PrioGetHighest  UCOSIII.lib(os_prio.o)
    0x080037dc   0x080037dc   0x00000018   Code   RO         1973    i.OS_PrioInit       UCOSIII.lib(os_prio.o)
    0x080037f4   0x080037f4   0x00000024   Code   RO         1974    i.OS_PrioInsert     UCOSIII.lib(os_prio.o)
    0x08003818   0x08003818   0x00000024   Code   RO         1975    i.OS_PrioRemove     UCOSIII.lib(os_prio.o)
    0x0800383c   0x0800383c   0x00000018   Code   RO         2018    i.OS_QInit          UCOSIII.lib(os_q.o)
    0x08003854   0x08003854   0x00000188   Code   RO         2019    i.OS_QPost          UCOSIII.lib(os_q.o)
    0x080039dc   0x080039dc   0x00000024   Code   RO         1001    i.OS_RdyListInit    UCOSIII.lib(os_core.o)
    0x08003a00   0x08003a00   0x0000002c   Code   RO         1002    i.OS_RdyListInsert  UCOSIII.lib(os_core.o)
    0x08003a2c   0x08003a2c   0x00000040   Code   RO         1003    i.OS_RdyListInsertHead  UCOSIII.lib(os_core.o)
    0x08003a6c   0x08003a6c   0x0000003c   Code   RO         1004    i.OS_RdyListInsertTail  UCOSIII.lib(os_core.o)
    0x08003aa8   0x08003aa8   0x00000044   Code   RO         1005    i.OS_RdyListMoveHeadToTail  UCOSIII.lib(os_core.o)
    0x08003aec   0x08003aec   0x0000005c   Code   RO         1006    i.OS_RdyListRemove  UCOSIII.lib(os_core.o)
    0x08003b48   0x08003b48   0x0000005c   Code   RO         1007    i.OS_Sched0         UCOSIII.lib(os_core.o)
    0x08003ba4   0x08003ba4   0x0000001c   Code   RO         1008    i.OS_SchedLockTimeMeasStart  UCOSIII.lib(os_core.o)
    0x08003bc0   0x08003bc0   0x0000003c   Code   RO         1009    i.OS_SchedLockTimeMeasStop  UCOSIII.lib(os_core.o)
    0x08003bfc   0x08003bfc   0x000000ec   Code   RO         1010    i.OS_SchedRoundRobin  UCOSIII.lib(os_core.o)
    0x08003ce8   0x08003ce8   0x00000018   Code   RO         2090    i.OS_SemInit        UCOSIII.lib(os_sem.o)
    0x08003d00   0x08003d00   0x00000198   Code   RO         2091    i.OS_SemPost        UCOSIII.lib(os_sem.o)
    0x08003e98   0x08003e98   0x000003b8   Code   RO         1225    i.OS_StatTask       UCOSIII.lib(os_stat.o)
    0x08004250   0x08004250   0x000000cc   Code   RO         1226    i.OS_StatTaskInit   UCOSIII.lib(os_stat.o)
    0x0800431c   0x0800431c   0x00000038   Code   RO         1011    i.OS_TaskBlock      UCOSIII.lib(os_core.o)
    0x08004354   0x08004354   0x00000030   Code   RO         1271    i.OS_TaskDbgListAdd  UCOSIII.lib(os_task.o)
    0x08004384   0x08004384   0x00000044   Code   RO         1272    i.OS_TaskDbgListRemove  UCOSIII.lib(os_task.o)
    0x080043c8   0x080043c8   0x00000020   Code   RO         1273    i.OS_TaskInit       UCOSIII.lib(os_task.o)
    0x080043e8   0x080043e8   0x000000d0   Code   RO         1274    i.OS_TaskInitTCB    UCOSIII.lib(os_task.o)
    0x080044b8   0x080044b8   0x0000026c   Code   RO         1275    i.OS_TaskQPost      UCOSIII.lib(os_task.o)
    0x08004724   0x08004724   0x0000001c   Code   RO         1012    i.OS_TaskRdy        UCOSIII.lib(os_core.o)
    0x08004740   0x08004740   0x0000017c   Code   RO         1276    i.OS_TaskResume     UCOSIII.lib(os_task.o)
    0x080048bc   0x080048bc   0x00000018   Code   RO         1277    i.OS_TaskReturn     UCOSIII.lib(os_task.o)
    0x080048d4   0x080048d4   0x000005a8   Code   RO         1278    i.OS_TaskSemPost    UCOSIII.lib(os_task.o)
    0x08004e7c   0x08004e7c   0x00000190   Code   RO         1279    i.OS_TaskSuspend    UCOSIII.lib(os_task.o)
    0x0800500c   0x0800500c   0x00000028   Code   RO         2153    i.OS_TickListInit   UCOSIII.lib(os_tick.o)
    0x08005034   0x08005034   0x000001bc   Code   RO         2154    i.OS_TickListInsert  UCOSIII.lib(os_tick.o)
    0x080051f0   0x080051f0   0x00000038   Code   RO         2155    i.OS_TickListRemove  UCOSIII.lib(os_tick.o)
    0x08005228   0x08005228   0x00000024   Code   RO         2156    i.OS_TickListResetPeak  UCOSIII.lib(os_tick.o)
    0x0800524c   0x0800524c   0x00000220   Code   RO         2157    i.OS_TickListUpdate  UCOSIII.lib(os_tick.o)
    0x0800546c   0x0800546c   0x0000002c   Code   RO         2158    i.OS_TickTask       UCOSIII.lib(os_tick.o)
    0x08005498   0x08005498   0x000000b8   Code   RO         2159    i.OS_TickTaskInit   UCOSIII.lib(os_tick.o)
    0x08005550   0x08005550   0x00000128   Code   RO         2210    i.OS_TmrInit        UCOSIII.lib(os_tmr.o)
    0x08005678   0x08005678   0x000000d0   Code   RO         2211    i.OS_TmrLink        UCOSIII.lib(os_tmr.o)
    0x08005748   0x08005748   0x00000024   Code   RO         2212    i.OS_TmrResetPeak   UCOSIII.lib(os_tmr.o)
    0x0800576c   0x0800576c   0x000000c0   Code   RO         2213    i.OS_TmrTask        UCOSIII.lib(os_tmr.o)
    0x0800582c   0x0800582c   0x00000050   Code   RO         2214    i.OS_TmrUnlink      UCOSIII.lib(os_tmr.o)
    0x0800587c   0x0800587c   0x00000002   Code   RO          286    i.SVC_Handler       stm32f10x_it.o
    0x0800587e   0x0800587e   0x00000002   PAD
    0x08005880   0x08005880   0x00000080   Code   RO          379    i.USARTx_Config     bsp_usart1.o
    0x08005900   0x08005900   0x00000004   Code   RO          288    i.UsageFault_Handler  stm32f10x_it.o
    0x08005904   0x08005904   0x0000000e   Code   RO         2422    i.__scatterload_copy  mc_w.l(handlers.o)
    0x08005912   0x08005912   0x00000002   Code   RO         2423    i.__scatterload_null  mc_w.l(handlers.o)
    0x08005914   0x08005914   0x0000000e   Code   RO         2424    i.__scatterload_zeroinit  mc_w.l(handlers.o)
    0x08005922   0x08005922   0x00000002   PAD
    0x08005924   0x08005924   0x00000060   Code   RO           14    i.main              main.o
    0x08005984   0x08005984   0x000000a4   Data   RO          939    .constdata          UCOSIII.lib(os_cfg_app.o)
    0x08005a28   0x08005a28   0x0000016c   Data   RO         1712    .constdata          UCOSIII.lib(os_dbg.o)
    0x08005b94   0x08005b94   0x00000020   Data   RO         2420    Region$$Table       anon$$obj.o


    Execution Region RW_IRAM1 (Exec base: 0x20000000, Load base: 0x08005bb4, Size: 0x0000a8a0, Max: 0x00010000, ABSOLUTE)

    Exec Addr    Load Addr    Size         Type   Attr      Idx    E Section Name        Object

    0x20000000   0x08005bb4   0x00000014   Data   RW          459    .data               stm32f10x_hd.lib(system_stm32f10x.o)
    0x20000014   0x08005bc8   0x00000014   Data   RW          594    .data               stm32f10x_hd.lib(stm32f10x_rcc.o)
    0x20000028   0x08005bdc   0x0000001c   Data   RW          647    .data               UCOSIII.lib(cpu_core.o)
    0x20000044   0x08005bf8   0x00000004   Data   RW          831    .data               UCOSIII.lib(lib_mem.o)
    0x20000048   0x08005bfc   0x000000d0   Data   RW         1464    .data               UCOSIII.lib(os_var.o)
    0x20000118   0x08005ccc   0x00000004   Data   RW         1488    .data               UCOSIII.lib(os_cpu_c.o)
    0x2000011c   0x08005cd0   0x00000004   Data   RW         1976    .data               UCOSIII.lib(os_prio.o)
    0x20000120        -       0x00001d20   Zero   RW           15    .bss                main.o
    0x20001e40        -       0x00000010   Zero   RW          645    .bss                UCOSIII.lib(cpu_core.o)
    0x20001e50        -       0x00006c48   Zero   RW          830    .bss                UCOSIII.lib(lib_mem.o)
    0x20008a98        -       0x00001490   Zero   RW          938    .bss                UCOSIII.lib(os_cfg_app.o)
    0x20009f28        -       0x00000574   Zero   RW         1463    .bss                UCOSIII.lib(os_var.o)
    0x2000a49c   0x08005cd4   0x00000004   PAD
    0x2000a4a0        -       0x00000400   Zero   RW            1    STACK               startup_stm32f10x_hd.o


==============================================================================

Image component sizes


      Code (inc. data)   RO Data    RW Data    ZI Data      Debug   Object Name

        96         14          0          0          0       2301   bsp.o
        84          8          0          0          0       1678   bsp_key.o
       124         10          0          0          0       1155   bsp_led.o
       128          8          0          0          0        720   bsp_usart1.o
       544        134          0          0       7456      61678   main.o
        36          8        304          0       1024        912   startup_stm32f10x_hd.o
        22          0          0          0          0       3771   stm32f10x_it.o

    ----------------------------------------------------------------------
      1038        182        336          0       8480      72215   Object Totals
         0          0         32          0          0          0   (incl. Generated)
         4          0          0          0          0          0   (incl. Padding)

    ----------------------------------------------------------------------

      Code (inc. data)   RO Data    RW Data    ZI Data      Debug   Library Member Name

        52          0          0          0          0        368   cpu_a.o
       540         98          0         28         16      28417   cpu_core.o
       188         18          0          4      27720      23347   lib_mem.o
         2          0        164          0       5264      21914   os_cfg_app.o
      2952        402          0          0          0      39307   os_core.o
       132         32          0          0          0        412   os_cpu_a.o
       656         68          0          4          0       8625   os_cpu_c.o
       436        286        364          0          0       4901   os_dbg.o
       746         28          0          0          0       3225   os_flag.o
      1176        204          0          0          0       3654   os_int.o
        24         10          0          0          0        937   os_mem.o
       466         26          0          0          0       3385   os_msg.o
        24         10          0          0          0        939   os_mutex.o
       136         16          0          4          0       3018   os_prio.o
       416         20          0          0          0       2302   os_q.o
       432         14          0          0          0       2326   os_sem.o
      1772        214          0          0          0       4215   os_stat.o
      5460        260          0          0          0      14344   os_task.o
      1348        124          0          0          0       5721   os_tick.o
       404         28          0          0          0       1849   os_time.o
       812        134          0          0          0       4332   os_tmr.o
         0          0          0        208       1396      19553   os_var.o
         0          0          0          0          0          0   entry.o
         0          0          0          0          0          0   entry10a.o
         0          0          0          0          0          0   entry11a.o
         4          0          0          0          0          0   entry12b.o
         8          4          0          0          0          0   entry2.o
         4          0          0          0          0          0   entry5.o
         0          0          0          0          0          0   entry7b.o
         0          0          0          0          0          0   entry8b.o
         8          4          0          0          0          0   entry9a.o
        30          0          0          0          0          0   handlers.o
        36          8          0          0          0         68   init.o
       856         40          0          0          0     208913   stm32f10x_gpio.o
       932         44          0         20          0       8904   stm32f10x_rcc.o
      1032         22          0          0          0       8448   stm32f10x_usart.o
       476         36          0         20          0      28147   system_stm32f10x.o

    ----------------------------------------------------------------------
     21574       2150        528        288      34400     451571   Library Totals
        14          0          0          0          4          0   (incl. Padding)

    ----------------------------------------------------------------------

      Code (inc. data)   RO Data    RW Data    ZI Data      Debug   Library Name

     18174       1992        528        248      34396     197091   UCOSIII.lib
        90         16          0          0          0         68   mc_w.l
      3296        142          0         40          0     254412   stm32f10x_hd.lib

    ----------------------------------------------------------------------
     21574       2150        528        288      34400     451571   Library Totals

    ----------------------------------------------------------------------

==============================================================================


      Code (inc. data)   RO Data    RW Data    ZI Data      Debug   

     22612       2332        864        288      42880     516710   Grand Totals
     22612       2332        864        288      42880     516710   ELF Image Totals
     22612       2332        864        288          0          0   ROM Totals

==============================================================================

    Total RO  Size (Code + RO Data)                23476 (  22.93kB)
    Total RW  Size (RW Data + ZI Data)             43168 (  42.16kB)
    Total ROM Size (Code + RO Data + RW Data)      23764 (  23.21kB)

==============================================================================

