:020000040800F2
:10000000F8A4002045010008D31A0008911900083F
:10001000111A0008B91600088D66000800000000DB
:10002000000000000000000000000000396500082A
:10003000191900080000000037130008A534000853
:100040005F0100085F0100085F0100085F01000810
:100050005F0100085F0100085F0100085F01000800
:100060001D1900085F0100085F0100085F0100081A
:100070005F0100085F0100085F0100085F010008E0
:100080005F0100085F0100085F0100085F010008D0
:100090005F0100085F0100085F0100085F010008C0
:1000A0005F0100085F0100085F0100085F010008B0
:1000B0005F0100085F0100085F0100085F010008A0
:1000C0005F0100085F0100085F0100085F01000890
:1000D0005F0100083D6500085F0100085F0100083E
:1000E0005F0100085F0100085F0100085F01000870
:1000F0005F0100085F0100085F0100085F01000860
:100100005F0100085F0100085F0100085F0100084F
:100110005F0100085F0100085F0100085F0100083F
:100120005F0100085F0100085F0100085F0100082F
:10013000DFF80CD001F0DCF800480047AD6800089B
:10014000F8A400200648804706480047FEE7FEE77F
:10015000FEE7FEE7FEE7FEE7FEE7FEE7FEE7FEE777
:1001600045020008310100080CB500200190009004
:100170006B48006840F480306949086000BF6848F7
:10018000006800F4003000900198401C0190009835
:1001900018B90198B0F5A06FF1D16148006810F46A
:1001A000003F02D00120009001E000200090009864
:1001B000012842D15B48006840F0100059490860AE
:1001C0000846006820F0030008600846006840F018
:1001D000020008605248406851494860084640683B
:1001E00048600846406840F48060486008464068BF
:1001F00020F47C1048600846406840F4E8104860ED
:100200000846006840F08070086000BF44480068FD
:1002100010F0007FFAD04248406820F003004049C7
:1002200048600846406840F00200486000BF3C4813
:10023000406800F00C000828F9D10CBD10B5FFF79C
:1002400093FF10BD10B53648006840F001003449F6
:10025000086008464068344908403149486008460B
:100260000068324908402E4908600846006820F4BA
:10027000802008600846406820F4FE0048604FF483
:100280001F008860FFF7DAFF4FF000602849086020
:1002900010BD10B5002100200022214B5B6803F047
:1002A0000C0121B1042906D0082928D107E0214BEF
:1002B000214C236027E01F4B1F4C236023E0184B89
:1002C0005B6803F47010164B5B6803F48032022302
:1002D00003EB904022B9194B4343174C23600DE0C8
:1002E0000F4B5B6813F4003F04D0144B4343124C94
:1002F000236003E00F4B43430F4C236003E00D4B9F
:100300000D4C236000BF00BF054B5B68C3F30313B4
:100310000B4CE15C084B1B68CB40074C236010BDC5
:1003200000100240002002400000FFF8FFFFF6FE30
:1003300008ED00E000127A000000002000093D00F6
:100340000400002010B50446CA48844208D10121A7
:10035000042000F027FB0021042000F023FB46E0EE
:10036000C548844208D10121082000F01BFB002170
:10037000082000F017FB3AE0C048844208D1012170
:10038000102000F00FFB0021102000F00BFB2EE0EE
:10039000BB48844208D10121202000F003FB00214A
:1003A000202000F0FFFA22E0B648844208D1012163
:1003B000402000F0F7FA0021402000F0F3FA16E0A8
:1003C000B148844208D10121802000F0EBFA0021DD
:1003D000802000F0E7FA0AE0AC48844207D101210E
:1003E000801500F0DFFA0021A01500F0DBFA10BD47
:1003F00010B50121084600F0D5FA0021012000F0D7
:10040000D1FA10BD2DE9F04102460025002600205A
:1004100000230024002791F803C00CF00F0591F889
:1004200003C01CF0100F03D091F802C04CEA050580
:1004300091F800C0BCF1000F31D0146800202BE00F
:100440004FF0010C0CFA00F3B1F800C00CEA0306FF
:100450009E4220D183004FF00F0C0CFA03F7BC43EF
:1004600005FA03FC4CEA040491F803C0BCF1280F20
:1004700006D14FF0010C0CFA00FCC2F814C00AE0DF
:1004800091F803C0BCF1480F05D14FF0010C0CFAF4
:1004900000FCC2F810C0401C0828D1D31460B1F889
:1004A00000C0BCF1FF0F34DD546800202EE000F1E5
:1004B000080C4FF0010808FA0CF3B1F800C00CEA80
:1004C00003069E4221D183004FF00F0C0CFA03F774
:1004D000BC4305FA03FC4CEA040491F803C0BCF1E8
:1004E000280F05D100F1080C08FA0CF8C2F81480A6
:1004F00091F803C0BCF1480F07D100F1080C4FF090
:10050000010808FA0CF8C2F81080401C0828CED365
:100510005460BDE8F0814FF6FF71018002218170C7
:100520000421C17070470246002093680B4201D03D
:10053000012000E0002070470146886880B27047C3
:1005400002460020D3680B4201D0012000E00020C9
:1005500070470146C86880B27047016170474161C9
:1005600070470AB1016100E041617047C1607047A6
:100570004FF480320A4382618161826182698269BB
:10058000704702460020424B18684FF680731840AF
:1005900040EA021008433E4B186070473D49C8616D
:1005A0007047F0B50A46002300240021002500F022
:1005B0000046B6F1004F02D1354EF16901E0344EEC
:1005C0007168C0F3034583B200F44016B6F5401FCE
:1005D00008D121F070612E4E766826F070662C4F9F
:1005E0007E6012E000F48016B6F5801F06D1032667
:1005F00006FA05F4A14341F0706106E0460D3601AC
:1006000003FA06F6B14341F0706122B1460D36019E
:1006100003FA06F6314300F00046B6F1004F02D16E
:100620001B4EF16101E01A4E7160F0BD30B5002241
:100630008B071C0F0F2303FA04F2154B08338C10A1
:1006400053F824309343124C08348D1044F825306D
:1006500023468C1053F824308C07240F00FA04F43E
:1006600023430B4C08348D1044F8253030BD0A4923
:100670000860704700080140000C01400010014074
:100680000014014000180140001C014000200140FE
:100690000000014000002042DC002042DD480068EC
:1006A00040F00100DB49086008464068DA4908402C
:1006B000D849486008460068D8490840D5490860CC
:1006C0000846006820F4802008600846406820F44E
:1006D000FE0048604FF41F0088607047CD490968EC
:1006E00021F48031CB4A11601146096821F4802140
:1006F0001160B0F5803F03D0B0F5802F0ED106E039
:10070000C449096841F48031C24A116007E0C14917
:10071000096841F4A021BF4A116000E000BF00BF9A
:10072000704710B501460022002300204A11012A1B
:1007300002D1B84C236806E0022A02D1B54C236AE4
:1007400001E0B44C636A01F01F02012494401C4292
:1007500001D0012000E0002010BD38B5002000903D
:100760000024002500BF3120FFF7DBFF054600987D
:10077000401C00900098B0F5A06F01D0002DF2D081
:100780003120FFF7CEFF08B1012400E0002420460D
:1007900038BD014600209F4A106820F0F80040EA6A
:1007A000C100106070479E490860704702460020F3
:1007B000984B586820F47C1042EA01031843954B8B
:1007C0005860704796490866704701460020914A74
:1007D000506820F003000843506070478D4840681F
:1007E00000F00C007047014600208A4A506820F053
:1007F000F00008435060704701460020854A506869
:1008000020F4E06008435060704701460020814AB0
:10081000506820F4605040EAC1005060704729B130
:100820007C4A527A02437B4B5A7204E0794A527AEC
:100830008243784B5A7270477A4908607047014684
:100840000020744A506820F44040084350607047CC
:100850000021754A11706F4A82F82010012802D0D9
:10086000042808D103E001216F4A117004E005213A
:100870006D4A117000E000BF00BF70476B4908600F
:1008800070476449096A0143624A116270476749C7
:1008900044390860704730B500210022002400234D
:1008A0005C4D6D6805F00C0121B1042905D00829C3
:1008B00023D105E05E4D056022E05D4D05601FE03F
:1008C000544D6D6805F47012524D6D6805F4803416
:1008D000022505EB92421CB9564D554305600BE0CD
:1008E0004C4D6D6815F4003F03D0524D55430560E3
:1008F00002E04F4D5543056002E04D4D056000BFDD
:1009000000BF444D6D6805F0F00109094A4D6B5C6C
:100910000568DD4045603F4D6D6805F4E061090AFA
:10092000454D6B5C4568DD4085603A4D6D6805F46A
:100930006051C90A404D6B5C4568DD40C560354D6E
:100940006D6805F44041890B3C4D6B5CC568B5FB97
:10095000F3F5056130BD29B12E4A526902432D4B92
:100960005A6104E02B4A526982432A4B5A6170470C
:1009700029B1284A92690243264B9A6104E0254A2C
:1009800092698243234B9A61704729B1214AD26907
:100990000243204BDA6104E01E4AD26982431D4BB8
:1009A000DA61704729B11B4AD2680243194BDA60F9
:1009B00004E0184AD2688243164BDA60704729B1C6
:1009C000144A12690243134B1A6104E0114A126976
:1009D0008243104B1A6170471449403908607047D0
:1009E0000F49C86470470B49C87170470948406A8D
:1009F00040F0807007494862704701460020054A70
:100A000092680A4201D0012000E0002070470149AD
:100A100088727047001002400000FFF8FFFFF6FEEA
:100A200000004242D800424220100240800442426C
:100A300000127A0000093D0014000020240000206C
:100A400031490143314A1160704770B500210023DC
:100A50000F22C4780CB32D4C246804F4E064C4F570
:100A6000E064210AC1F10403CA40447804FA03F1A6
:100A70008478144021430901254C0678A155047857
:100A800004F01F050124AC4005786D114FF0E026FD
:100A900006EB8505C5F8004109E0047804F01F0560
:100AA0000124AC401B4D0678761145F8264070BDF8
:100AB000194A0A400243154B1B1F1A60704739B18F
:100AC000124A121D12680243104B1B1D1A6006E0E9
:100AD0000E4A121D126882430C4B1B1D1A60704790
:100AE000042808D14FF0E021096941F004014FF0DA
:100AF000E022116107E04FF0E021096921F00401D3
:100B00004FF0E022116170470000FA050CED00E0A3
:100B100000E400E080E100E080FFFF1F01684FF685
:100B2000FE72114001600021016041608160C1607E
:100B30008C49884208D18B490839496841F00F0136
:100B4000884A083A51608AE086491431884208D1BF
:100B500084490839496841F0F001824A083A5160F5
:100B60007DE080492831884208D17E4908394968AA
:100B700041F470617B4A083A516070E079493C3138
:100B8000884208D177490839496841F47041754A6B
:100B9000083A516063E073495031884208D1714985
:100BA0000839496841F470216E4A083A516056E0AC
:100BB0006C496431884208D16A490839496841F46E
:100BC0007001684A083A516049E0664978318842C4
:100BD00008D164490839496841F07061614A083AAE
:100BE00051603CE06049884206D1011F096841F02C
:100BF0000F01021F116032E05B491431884208D1B5
:100C00005949091F096841F0F001574A121F116044
:100C100025E055492831884208D15349091F096800
:100C200041F47061504A121F116018E04E493C3186
:100C3000884208D14C49091F096841F470414A4A69
:100C4000121F11600BE048495031884207D14649D4
:100C5000091F096841F47021434A121F116070474F
:100C600010B50022026847F6F0739A430C6A8B684D
:100C700023430C6923434C6923438C692343CC6988
:100C800023434C6A23438C6A23431A430260CB6894
:100C900043600B6883604B68C36010BD0021016036
:100CA00041608160C160016141618161C161016236
:100CB00041628162704721B1026842F00102026024
:100CC00004E002684FF6FE731A40026070471AB1E2
:100CD00003680B43036002E003688B4303607047C3
:100CE000416070470146486880B270470146002065
:100CF000002211F0805F03D01B4B083B1A6802E012
:100D0000184B083B1A680A4201D0012000E000207D
:100D1000704710F0805F03D01349091F086002E09C
:100D2000104908394860704701460020002211F040
:100D3000805F03D00C4B083B1A6802E0094B083B6C
:100D40001A680A4201D0012000E00020704710F02C
:100D5000805F03D00449091F086002E00149083997
:100D600048607047080002400804024000204449DF
:100D70000860091D0860091D0860091D08604148D8
:100D80003F4914310860704700213D498279002AAB
:100D90003AD00A46126803689A430B461A600A1D45
:100DA000126803689A430B1D1A60027911440A689D
:100DB00003681A430A60324A0832126803689A4389
:100DC0002F4B08331A601A1D126803689A432C4B84
:100DD0000C331A604279102A0ED11A1F1268036868
:100DE0001A43274B08331A601A1D126803681A4306
:100DF000234B0C331A600DE02149427911440A68F3
:100E000003681A430A6005E0027911440A6803681E
:100E10009A430A6070470021016001710C21417101
:100E20000021817170471649103109680143144A45
:100E300010321160704701460020114A14321268C6
:100E40000A4201D0012000E0002070470C49143113
:100E500008607047014600200022094B1B6803EA26
:100E60000102074B14331B680B4202D00AB1012068
:100E700000E000207047024914310860704700000C
:100E800000040140FFFF0F0010B50446FB488442F8
:100E900009D101218803FFF785FD00214FF480402F
:100EA000FFF780FD32E0F648844209D10121480471
:100EB000FFF785FD00214FF40030FFF780FD25E0AE
:100EC000F048844209D101218804FFF778FD002110
:100ED0004FF48020FFF773FD18E0EB48844209D1FE
:100EE0000121C804FFF76BFD00214FF40020FFF73C
:100EF00066FD0BE0E548844208D101210805FFF7B3
:100F00005EFD00214FF48010FFF759FD10BD2DE963
:100F1000F04786B005460E460024A24600BFA14613
:100F20000027B08900B100BF2F462C8A4CF6FF7015
:100F30000440F08804432C82AC894EF6F310044040
:100F4000B08831890843718908430443AC81AC8A75
:100F50004FF6FF400440B0890443AC8201A8FFF77C
:100F60009AFCC648874202D1DDF810A001E0DDF806
:100F70000CA0A88910F4004F08D00AEBCA0000EBBF
:100F80000A1031684900B0FBF1F807E00AEBCA002B
:100F900000EB0A1031688900B0FBF1F86420B8FB5F
:100FA000F0F004012009642101FB1089A88910F4E4
:100FB000004F08D0322000EBC900B0FBF1F000F088
:100FC0000700044308E0322000EB09106421B0FB65
:100FD000F1F000F00F0004432C8106B0BDE8F0876B
:100FE0004FF41651016000218180C18001810C21E4
:100FF000418100218181704710B502460020108A8E
:101000004FF2FF0318400B884C8823438C882343FE
:10101000CC8823431843108210BD002101804180F9
:101020008180C180704721B1828942F4005282815F
:1010300004E082894DF6FF731A4082817047F0B553
:1010400003460024002600250020A1F510676A3F12
:1010500000D100BF1846C1F3421401F01F0601275A
:1010600007FA06F5012C01D10C3004E0022C01D165
:10107000103000E014301AB107682F43076002E017
:101080000768AF430760F0BD1AB1838A0B438382C0
:1010900002E0838A8B4383827047028A4FF6F073A3
:1010A0001A400282028A0A430282704782894FF202
:1010B000FF731A40828182890A438281704721B17D
:1010C000828942F00202828104E082894FF6FD7338
:1010D0001A4082817047028A4FF6DF731A400282FB
:1010E000028A0A430282704721B1028A42F4804296
:1010F000028204E0028A4BF6FF731A4002827047B4
:10110000C1F308028280704701468888C0F3080056
:101110007047818941F0010181817047028BD2B211
:101120000283028B42EA012202837047028B02F49F
:101130007F420283028B0A430283704721B1828A75
:1011400042F02002828204E0828A4FF6DF731A4066
:101150008282704721B1828A42F01002828204E0CA
:10116000828A4FF6EF731A408282704721B1828AD9
:1011700042F00802828204E0828A4FF6F7731A4036
:101180008282704721B1828942F40042828103E069
:101190008289C2F30E028281704721B1828A42F4B1
:1011A0000062828204E0828A4FF2FF731A408282D8
:1011B0007047828A4FF6FB731A408282828A0A4302
:1011C0008282704721B1828A42F00202828204E068
:1011D000828A4FF6FD731A408282704702460020D1
:1011E000B1F5007F00D100BF13880B4201D0012070
:1011F00000E00020704701F40072B2F5007F00D1DA
:1012000000BFCA430280704770B502460024002325
:1012100000250020A1F510666A3E00D100BFC1F391
:10122000421501F01F03012606FA03F3012D02D136
:101230009689334006E0022D02D1168A334001E040
:10124000968A33400C12012606FA04F416883440BC
:1012500013B10CB1012000E0002070BD10B50022D8
:101260000023A1F510646A3C00D100BF0A120124DA
:101270009440A3B2DC43048010BD0000003801405C
:101280000044004000480040004C00400050004036
:1012900072B6704762B67047EFF3108072B670474F
:1012A00080F31088704730BF704720BF7047B0FA96
:1012B00080F0704790FAA0F0B0FA80F0704790FA92
:1012C000A0F0704730B50B460146002020220124D3
:1012D00009E021FA02F59D4205D303FA02F5491B04
:1012E00004FA02F52844151EA2F10102F1DC30BD1A
:1012F000064C074D06E0E06840F0010394E8070063
:1013000098471034AC42F6D3FEF716FF1C6B00086A
:101310003C6B000818484FF0FF010170002080F37B
:1013200009881648016881F3088815484FF08051F4
:10133000016062B6FEE772B6EFF3098028B120388B
:1013400080E8F00F0F490968086000B50E48804733
:101350005DF804EB0D480E490A78027009480D4902
:101360000A680260106890E8F00F203080F3098866
:101370004EF0040E62B6704722ED00E01801002026
:1013800004ED00E010010020593200089E0000200A
:101390009F0000201401002008B5002600F07AF913
:1013A000054667E06B4600221146104601F0F4FC4A
:1013B00000F008FA044600BF00BF00BFFFF76CFF53
:1013C000064600BF00F014FA00BF2B480078401C0E
:1013D0002949087008460078012801D103F040FA35
:1013E00000BF00F01FFA00BF3046FFF759FF00BFF3
:1013F00000BF00BF2148B5FBF0F0B4FBF0F7394661
:101400001FA005F045F900BF00BF00BFFFF744FF74
:10141000064600BF00F0ECF900BF17480078401EF8
:101420001549087008460078D0B903F027FA1A4821
:10143000008800280BDD00BF00F0F4F900BF304643
:10144000FFF72EFF00BF00BF03F0DCF911E000BF83
:1014500000F0E8F900BF3046FFF722FF00BF08E0C8
:1014600000BF00F0DFF900BF3046FFF719FF00BFF3
:1014700000BF00BF96E70000B800002040420F0008
:101480000D0AD7EEB4F3D6D0B6CFCAB1BCE4CAC702
:10149000256475730D0A00007C00002070B58AB0C9
:1014A000064600F0FFF800F009F900F0F3F80446F2
:1014B00029480068B4FBF0F5284602F013F800F064
:1014C000B3FA09A800F0C6FF00F066F909AA0021E6
:1014D000012000F051FE09A8042146231F4ACDE94E
:1014E00000101FA1224800F093FC09A8032100224C
:1014F0000592CDE90621089005204FF400713322B2
:101500001C4BCDE90132CDE90310032000231A4A18
:101510001AA100901D4801F027F809A80321002214
:101520000592CDE90621089005204FF40071332281
:10153000174BCDE90132CDE9031003200023154AF2
:1015400015A10090184801F00FF809A9002001F03A
:1015500061F90AB070BD00006C6900084401002008
:101560004D656D20466F7220546573740000000055
:101570002401002024050020AD15000841707020D2
:101580005461736B2055736172740000240D002048
:10159000EC0D002099130008417070205461736BAA
:1015A000204B657900000000EC1500200EB50025E9
:1015B00067E002A8002301AA19460090184601F02E
:1015C00039FA044600BF00BF00BFFFF765FE0546BD
:1015D00000BF00F00DF900BF2A480078401C2949DF
:1015E000087008460078012801D103F039F900BFDE
:1015F00000F018F900BF2846FFF752FE00BF00BFF9
:1016000000BF217820A005F043F800BF00BF00BF55
:10161000FFF742FE054600BF00F0EAF800BF194898
:101620000078401E1749087008460078D0B903F0CA
:1016300025F91648008800280BDD00BF00F0F2F8FD
:1016400000BF2846FFF72CFE00BF00BF03F0DAF80A
:1016500011E000BF00F0E6F800BF2846FFF720FECB
:1016600000BF08E000BF00F0DDF800BF2846FFF72C
:1016700017FE00BF00BF00BF02AA2146044800F0C9
:10168000ABFC96E7B8000020256300007C0000203A
:101690002401002000B585B06846FFF7FCF80198EA
:1016A00005B000BD10B500F04DF900F09FF904F051
:1016B00069FF04F0B5FF10BD00BFFEE710B500F0F4
:1016C000FBF800F003F800F0F3F810BD70B5002649
:1016D00000201849088018490880184908601849EE
:1016E0000860184908601849086018490860002413
:1016F00000BFFFF7D1FD064600BF00250BE000202C
:101700001049086000F074F800F08CF80D4800688B
:101710000444681C85B2002DF1D00C480460002000
:10172000084908600849086000BF3046FFF7B8FD67
:1017300000BF70BD2C0000202E00002030000020D3
:10174000340000203C000020400000203800002031
:1017500001460846044A1268904203D9024A1268B8
:10176000801A00E0002070473800002070B5002586
:1017700000BFFFF791FD054600BF0648046800BFA3
:101780002846FFF78DFD00BF2046FFF7E1FF064624
:10179000304670BD3C00002070B50025FFF7E6FF25
:1017A000044600BFFFF778FD054600BF002004494E
:1017B000086000BF2846FFF773FD00BF204670BDDC
:1017C0003C00002070B5002500BFFFF765FD054611
:1017D00000BF0648046800BF2846FFF761FD00BF50
:1017E0002046FFF7B5FF0646304670BD400000209A
:1017F00010B509480088401C074908800748008840
:1018000018B900F083F80649086004480088401CB5
:101810000249088010BD00002C0000202E0000208E
:101820003000002010B50F480088401E0D49088088
:1018300008460088A0B900F069F80B49086008461E
:1018400000680A490968441A09480068A04201D2A0
:101850000748046007480068A04201D205480460B8
:1018600010BD00002E0000203400002030000020B9
:101870003C0000204000002010B5002400BF00BF45
:10188000FFF70AFD044600BFFFF7B2FF00BF1021BB
:10189000064800F0BFF800BFFFF7C4FF00BF2046B6
:1018A000FFF7FEFC00BF00BF10BD00009C1A002027
:1018B00010B5FFF7E1FF10BD10B500200249086028
:1018C00000F00AF810BD000028000020014908605F
:1018D000704700002800002010B50A48006840F05A
:1018E0008070084908600020074948600846006881
:1018F00040F001000860FFF7CDFE04462046FFF7E8
:10190000E5FF10BDFCED00E0001000E0014840687C
:1019100070470000001000E07047000008B500F0BC
:10192000EFF90420FFF796FA38B16A46002104481F
:1019300001F05AFB0420FFF79EFA00F0F7F908BD0A
:10194000EC1500200EB501214120FFF711F800F041
:10195000D6F80420ADF8080048208DF80B0002A945
:101960000A48FEF74FFD02210420FEF75FFE042027
:10197000009000208DF804000C208DF80500012057
:101980008DF806006846FFF7FFF90EBD001801400C
:1019900000BFFEE708B501211020FEF7E9FF012096
:1019A000ADF8000010208DF8030003208DF8020030
:1019B00069460D48FEF726FD01211020FEF7D8FFED
:1019C0000220ADF8000069460748FEF71BFD012123
:1019D0001020FEF7CDFF0420ADF800006946024854
:1019E000FEF710FD08BD00000010014010B5FFF724
:1019F000D1FF01210548FEF7B0FD02210348FEF7A3
:101A0000ACFD04210148FEF7A8FD10BD0010014007
:101A100000BFFEE730B505460C46224600212846A9
:101A200000F026F830BD00000D480E490160014667
:101A3000416000218160C160016141618161C161DA
:101A400001620163C162416207498163C1634FF46E
:101A5000D841016441640146044A116070470000A6
:101A6000AC1A002048454150F41A002044000020E0
:101A70002DE9F04103460C4617460FB9BDE8F08149
:101A800003B9FBE70025002202E02D022543521C8A
:101A9000042AFAD3384603F0030C1946BCF1000FB0
:101AA00008D0624603E001F8014B401E521C08B109
:101AB000042AF8D30E4601E020C6001F0428FBD2FA
:101AC000314602E001F8014B401E0028FAD100BF68
:101AD000D4E7704708B54FF44070FEF7B1FF2520FA
:101AE0008DF8000007208DF8010000208DF802001D
:101AF00001208DF803006846FEF7A7FF08BD08B572
:101B00004FF4C060FEF79CFF08208DF80000002015
:101B10008DF801008DF8020001208DF80300684661
:101B2000FEF793FF08BD704710B50348006810B179
:101B300001480068804710BD5400002070B504467D
:101B400000F0C2F800204849087048490870484928
:101B50000870484908604849086048490870484981
:101B60000870484908704849086048490860484971
:101B7000086048490870484800680A21B0FBF1F045
:101B8000464908604648006858B14648056845B16E
:101B90004348066803E0761E002028602D1D002EB5
:101BA000F9D1002040490860404908604049086078
:101BB0004049086040490860404908604049086061
:101BC0004049087002F068FC02F066FD204601F012
:101BD0007BFD208800B170BD204602F0A9F9208865
:101BE00000B1F8E7204602F0AFF9208800B1F2E733
:101BF000204602F0C7FA208800B1ECE7204602F048
:101C00007BFC208800B1E6E7204602F0CBFE20886E
:101C100000B1E0E7204603F035FA208800B1DAE7AA
:101C2000204602F0DDF8208800B1D4E7204601F01C
:101C3000E7FE208800B1CEE7204604F08BFA20882A
:101C400000B1C8E7204603F061F9208800B1C2E77F
:101C5000204604F0DBFA208800B1BCE701F05AFC12
:101C6000FFF761FF00BFB6E76800002070000020AA
:101C7000B800002010010020140100209E00002068
:101C80009F000020A0000020AC000020B000002039
:101C9000B4000020C00000206C690008BC000020D7
:101CA0003C69000838690008480000204C0000200A
:101CB0005000002054000020580000205C0000204C
:101CC00060000020EE0000200A4A1168002002E0B7
:101CD000002204C1401C084A12689042F8D3054A09
:101CE0001268054B1B6802EB8302121F034B1A603C
:101CF00070470000386900083C690008180100209E
:101D000008480078012800D0704707480078FA2872
:101D100000DBF9E704480078401C0349087000BF65
:101D2000F2E70000700000206800002010B50024D9
:101D30002E480078012800D010BD00BFFFF7ACFA94
:101D4000044600BF2A48007828B900BF2046FFF7A4
:101D5000A7FA00BFF0E726480078401E2449087023
:101D600008460078002805DD00BF2046FFF798FAF6
:101D700000BFE1E71F480078002805DD00BF2046CE
:101D8000FFF78EFA00BFD7E702F072FB1A4908701E
:101D90000846007800EB4000184951F82000184927
:101DA00008600846006817490968884205D100BFE5
:101DB0002046FFF775FA00BFBEE711480068D0F86B
:101DC0009000401C0E490968C1F890000E48006858
:101DD000401C0D4908604FF080500C49086000BF5E
:101DE0002046FFF75DFA00BF00BFA5E770000020A6
:101DF00068000020B80000209F000020209D0020E7
:101E00001401002010010020E400002004ED00E097
:101E10002DE9FF4F83B0044615461F46DDE91096B5
:101E2000002000904C480078002805DD45F2B9609C
:101E3000308007B0BDE8F08F1DB945F2BB6030803F
:101E4000F7E7022F03DA45F2BC603080F1E7B9F121
:101E5000040F03D245F2C1603080EAE74FF0030A75
:101E6000BAF1000F0DD005EA0A0018B145F2BB60C7
:101E70003080DEE709EA0A0018B145F2C16030801F
:101E8000D7E7AB46A846781E80B2019000200290AA
:101E900007E0C844CBF80080C3460298401C80B2DB
:101EA0000290DDE901108842F3DB0020CBF800004E
:101EB00000BF00BF00BFFFF7EFF9009000BFFFF7C2
:101EC00097FC00BF25480078401C2449087008464C
:101ED0000078012801D102F0C3FC00BFFFF7A2FC8B
:101EE00000BF0098FFF7DCF900BF00BF00BF1C482F
:101EF00020600498A0606560E560A7826782A4F80E
:101F00001090204602F000F816480088401C154941
:101F1000088000BF00BF00BFFFF7BEF9009000BF00
:101F2000FFF766FC00BF0D480078401E0B490870A3
:101F30000846007808B902F0A1FC00BFFFF772FC68
:101F400000BF0098FFF7ACF900BF00BF00BF002042
:101F5000308000BF6DE7000068000020B80000205E
:101F60004D454D20940000202DE9F04104460D46DA
:101F700000272CB945F2BF6028800020BDE8F08121
:101F800000BF00BFFFF788F9074600BFFFF730FC2E
:101F900000BFA08A68B900BFFFF744FC00BF384605
:101FA000FFF77EF900BF00BF45F2C2602880002025
:101FB000E4E7E6683068E060A08A401EA08200BFC7
:101FC000FFF730FC00BF3846FFF76AF900BF00BFDB
:101FD000002028803046D1E72DE9F04104460E4626
:101FE0001546002724B945F2BF602880BDE8F0817E
:101FF0001EB945F2BE602880F8E700BF00BFFFF7BA
:102000004BF9074600BFFFF7F3FB00BFA08A618AC8
:1020100088420CDB00BFFFF705FC00BF3846FFF726
:102020003FF900BF00BF45F2BA602880DEE7E068F4
:102030003060E660A08A401CA08200BFFFF7F2FB80
:1020400000BF3846FFF72CF900BF00BF00202880F2
:1020500000BFCBE710B5002420480078002800DD41
:1020600010BD1F480078002800DDF9E700BFFFF72A
:1020700013F9044600BF02F0FBF91A49087008463C
:10208000007800EB4000184951F82000174908601B
:102090000846006816490968884205D100BF2046F5
:1020A000FFF7FEF800BFDBE710480068D0F89000AB
:1020B000401C0E490968C1F890000E480068401C99
:1020C0000C4908604FF080500B49086000BF204663
:1020D000FFF7E6F800BF00BFC2E70000680000207D
:1020E000B80000209F000020209D00201401002047
:1020F00010010020E400002004ED00E070B504466B
:1021000000251A480078002803DD46F6625020803A
:1021100070BD17480078012803D045F689602080FB
:10212000F6E714480078FA2803DB45F209202080FE
:10213000EEE700BF00BFFFF7AFF8054600BFFFF7AF
:1021400057FB00BF0B480078401C0A49087002F09A
:1021500087FB00BFFFF766FB00BF2846FFF7A0F82C
:1021600000BF00BF0020208000BFD1E76800002032
:1021700070000020B80000202DE9F04105460C4613
:102180001646002700BF00BFFFF786F8074600BFCE
:10219000FFF72EFB00BF012D03D000200E49087071
:1021A00002E001200C49087014B10C48046006E0FC
:1021B0000B4800680A21B0FBF1F00849086000BF35
:1021C000FFF730FB00BF3846FFF76AF800BF00BFDB
:1021D00000203080BDE8F081C0000020BC0000205D
:1021E0006C69000870B50446002523480078002873
:1021F00003DD46F66550208070BD20480078012838
:1022000003D045F689602080F6E71D48007818B9AC
:1022100046F664502080EFE700BF00BFFFF73CF8B0
:10222000054600BFFFF7E4FA00BF15480078401EDE
:10223000134908700846007800280CDD00BFFFF73E
:10224000F1FA00BF2846FFF72BF800BF00BF46F6A3
:1022500063502080D0E702F011FB00BFFFF7E2FAE5
:1022600000BF2846FFF71CF800BF00BFFFF7F2FED3
:102270000020208000BFBFE7680000207000002021
:10228000B800002010B5044612480078E8B902F002
:10229000EFF81149087008460078104908700E4898
:1022A000007800EB40000E4951F820000D4908600D
:1022B000084600680C490860012006490870FFF7CD
:1022C00029F843F69920208002E045F68A602080B4
:1022D00010BD0000700000209F0000209E00002024
:1022E000209D002014010020100100202DE9F04164
:1022F00007464FF0000800BF00BFFEF7CDFF804645
:1023000000BFFFF775FA00BF002047490860474942
:10231000088047490880474908604749086047499D
:10232000086047490860474908604749088100BF7D
:10233000FFF778FA00BF4046FEF7B2FF00BF00BFCC
:1023400000BF00BFFEF7A8FF804600BFFFF750FAAE
:1023500000BF3E48046800BFFFF764FA00BF404674
:10236000FEF79EFF00BF00BF26E000BF00BFFEF7E4
:1023700093FF804600BFFFF73BFA00BF0020783490
:10238000E063206420602063A061A082E08260623C
:10239000A062FFF7BBFA2062783C04F164060020DB
:1023A000B081D4F8C04000BFFFF73CFA00BF404600
:1023B000FEF776FF00BF00BF002CD6D100BF00BFE4
:1023C000FEF76AFF804600BFFFF712FA00BF204801
:1023D000056800BFFFF726FA00BF4046FEF760FF22
:1023E00000BF00BF16E000BF00BFFEF755FF8046EC
:1023F00000BFFFF7FDF900BF05F120060020B08106
:10240000AD6900BFFFF70EFA00BF4046FEF748FF78
:1024100000BF00BF002DE6D103F064FD03F0F2FF22
:1024200000203880BDE8F081840000207E0000207C
:10243000CE000020E0000020F40000200001002079
:102440006C000020B0000020149D0020E800002057
:10245000A4000020F8B5044600266946364800F07E
:10246000CBFEBDF8000018B1BDF800002080F8BD1B
:102470006A460021022000F041FFBDF8000018B1BB
:10248000BDF800002080F2E700BF00BFFEF704FFA8
:10249000064600BFFFF7ACF900BF002027490860DF
:1024A00000BFFFF7BFF900BF3046FEF7F9FE00BFDF
:1024B00000BF00252248006822490968884205D9E2
:1024C0001F4800681F490968B0FBF1F525B91C4891
:1024D00000680A21B0FBF1F56A460021284600F0A9
:1024E0000DFF6946144800F007FCBDF8000018B164
:1024F000BDF800002080BAE700BF00BFFEF7CCFEA9
:10250000064600BFFFF774F900BF00200E490860BF
:102510000A4800680D49086001200D49087000BF95
:10252000FFF780F900BF3046FEF7BAFE00BF00BFDC
:102530000020208000BF9AE730A00020D0000020BB
:102540006C69000854690008E0000020D4000020F5
:10255000DC00002010B50348006810B10148006895
:10256000804710BD580000202DE9FF4F87B004467A
:102570009046DDE91BA5DDE91496179F0020039026
:1025800095480078002805DD47F24A1028800BB0F6
:10259000BDE8F08F1CB947F2AD102880F7E7B8F11D
:1025A000000F03D147F24F102880F0E71EB946F61E
:1025B0002F602880EBE789480068874203D246F6FF
:1025C00030602880E3E71698B84203D346F63160BE
:1025D0002880DCE7B9F1200F03D346F2732028806E
:1025E000D5E7B9F1000F06D17D48844203D046F209
:1025F00073202880CBE7B9F11F0F06D179488442B8
:1026000003D046F273202880C1E7204602F04AFD3D
:10261000002028800AF0010090B10AF0020078B191
:1026200005960020069008E00021059801600598B5
:10263000001D05900698401C06900698B842F3D3FA
:10264000169806EB80000490CDE9007A32464046A9
:10265000049B0A9900F070FD0590C4F828800A9840
:10266000E0620898206284F837900598206004980A
:10267000A06019986065199818B95B480068A06552
:1026800001E01998A0651A9860606662A763A4F8D3
:102690003CA04FF0000B08E0002104F17C0040F862
:1026A0002B100BF1010000F0FF0BBBF1000FF3D07A
:1026B00004F16400189901F0DBFC204600F09EF85C
:1026C00000BF00BF00BFFEF7E7FD039000BFFFF7AC
:1026D0008FF800BF45480078401C44490870084600
:1026E0000078012801D102F0BBF800BFFFF79AF88B
:1026F00000BF0398FEF7D4FD00BF00BF00BF94F8F1
:10270000370001F0D5FE204602F00EF8204602F018
:102710007FFC37480088401C3549088035480078E0
:10272000012837D000BF00BF00BFFEF7B5FD039002
:1027300000BFFFF75DF800BF2C480078401E2B4912
:10274000087008460078D0B902F098F82A48008846
:1027500000280BDD00BFFFF765F800BF0398FEF708
:102760009FFD00BF00BF02F04DF811E000BFFFF772
:1027700059F800BF0398FEF793FD00BF08E000BFC3
:10278000FFF750F800BF0398FEF78AFD00BF00BFB7
:1027900000BFFCE600BF00BF00BFFEF77DFD039059
:1027A00000BFFFF725F800BF10480078401E0F4912
:1027B00008700846007808B902F060F800BFFFF71B
:1027C00031F800BF0398FEF76BFD00BF00BF00BFEC
:1027D000FFF740FC00BFDAE66800002068690008E7
:1027E0004C9C0020849B0020BC000020B8000020EE
:1027F000EC000020700000207C00002010B5044692
:102800000348006818B1204601490968884710BD8F
:102810004800002070B504460D4600267848007830
:10282000002803DD47F24E10288070BD75488442B1
:1028300003D147F24C102880F7E77348844203D154
:1028400047F24D102880F0E79CB900BF00BFFEF7AB
:1028500023FD064600BFFEF7CBFF00BF6B480468B0
:1028600000BFFEF7DFFF00BF3046FEF719FD00BFD7
:1028700000BF00BF00BF00BFFEF70EFD064600BF51
:10288000FEF7B6FF00BF62480078401C6049087040
:1028900008460078012801D101F0E2FF00BFFEF7F1
:1028A000C1FF00BF3046FEF7FBFC00BF00BF00BF0A
:1028B00094F8360008282DD2DFE800F004090E1045
:1028C000080A0F11204601F06FFF5EE05DE000BFD7
:1028D000204603F0EBFA58E000BF00BF00BF2046DF
:1028E00003F0E4FA94F83400082810D2DFE800F08E
:1028F00004070508090A0B0600BF00BF08E000BF77
:1029000000BF00BF00BF204601F003FD00E000BF94
:1029100000BF3AE000BF00BF00BFFEF7BDFC0646A7
:1029200000BFFEF765FF00BF39480078401E3849F8
:10293000087008460078D0B901F0A0FF354800883B
:1029400000280BDD00BFFEF76DFF00BF3046FEF72D
:10295000A7FC00BF00BF01F055FF11E000BFFEF76C
:1029600061FF00BF3046FEF79BFC00BF08E000BFE0
:10297000FEF758FF00BF3046FEF792FC00BF00BFD5
:1029800000BF46F62D6028804FE700BF04F16400C9
:1029900001F018FB204600F041F8204602F050FB01
:1029A0001D480088401E1C490880204602F07AFB22
:1029B000FF2084F8360000BF00BF00BFFEF76CFCAC
:1029C000064600BFFEF714FF00BF11480078401E06
:1029D0000F4908700846007808B901F04FFF00BFA2
:1029E000FEF720FF00BF3046FEF75AFC00BF00BFD5
:1029F00000BF00202880FFF72DFB00BF15E7000077
:102A000068000020849B00204C9C002010010020C6
:102A1000B80000207C000020EC00002010B5044627
:102A20000348006818B1204601490968884710BD6D
:102A30004C0000202DE9F05F80460F4616461C46EC
:102A40000A9D4FF0000B8A480078002805DD46F209
:102A5000AE1028800020BDE8F09F26B946F2D520B0
:102A600028800020F7E71FB1B7F5004F02D100E042
:102A700000BF04E045F6256028800020EBE700BF9A
:102A80000CB10020206000BF00BFFEF705FC8346AC
:102A900000BFFEF7ADFE00BF7648006800F1640994
:102AA0002B4622463146484601F0AEFA8246288837
:102AB00000BBA4B1FEF72AFF2168401A6D490968DE
:102AC00048676C480068806F6A490968496F8842A6
:102AD00005D268480068406F66490968886700BF8A
:102AE000FEF7A0FE00BF5846FEF7DAFB00BF00BFAE
:102AF0005046B0E707F4004068B146F2B0102880B5
:102B000000BFFEF78FFE00BF5846FEF7C9FB00BFAF
:102B100000BF00209FE75848007800280DDD00BF67
:102B2000FEF780FE00BF5846FEF7BAFB00BF00BFAD
:102B300046F66350288000208DE700BF4E4800789D
:102B4000401C4D49087008460078012801D101F069
:102B500087FE00BFFEF766FE00BF5846FEF7A0FBEB
:102B600000BF00BF00BF434602220021084601F01B
:102B700015FB00BF00BF00BFFEF78EFB834600BF02
:102B8000FEF736FE00BF3C480078401E3A49087008
:102B90000846007808B901F071FE00BFFEF742FE5A
:102BA00000BF5846FEF77CFB00BF00BF00BFFFF729
:102BB00051FA00BF00BFFEF76FFB834600BFFEF770
:102BC00017FE00BF2B48006890F8350020B101289F
:102BD0002AD0032832D132E026480068D0F85CA021
:102BE00024480068B0F860003080D4B12148006803
:102BF000006C2060FEF78AFE1E490968096C401AC5
:102C00001C49096848671B480068806F19490968B2
:102C1000496F884205D217480068406F1549096816
:102C200088670020288017E04FF0000A00203080DD
:102C300004B1206046F2A91028800DE000BF4FF0DB
:102C4000000A002030801CB10A480068006C206037
:102C500047F2D920288000BF00BF00BFFEF7E2FD89
:102C600000BF5846FEF71CFB00BF00BF5046F2E60F
:102C70006800002010010020B80000202DE9FF4767
:102C80000746884691461D460C9E4DB1102D08D032
:102C9000B5F5004F06D0A5F50040103820B902E088
:102CA00000BF00BF00BF04E045F625603080BDE8EE
:102CB000FF8700BFFEF72AFE04460D480078002873
:102CC0000BDD00204B4642463946CDE90246CDE9B0
:102CD0000005084800F0CCFEE9E72B464A4641468D
:102CE0003846CDE9004602F045FA00BFDFE70000B4
:102CF00068000020544D53477FB504460D4600261A
:102D000000BF00BFFEF7C8FA064600BFFEF770FD21
:102D100000BF1CB11748006884420CD100BFFEF709
:102D200081FD00BF3046FEF7BBFA00BF00BF47F28F
:102D3000571028807FBD00BFFEF774FD00BF3046EE
:102D4000FEF7AEFA00BF00BF0B48007800280BDD8D
:102D5000002000900190034602462146CDE902057D
:102D6000064800F085FEE5E72946204602F046FBCE
:102D700000BFDFE7100100206800002054524553D7
:102D800010B504460348006818B120460149096897
:102D9000884710BD500000202DE9F04780460E46C0
:102DA00014461D464FF000098C480078002805DDC8
:102DB00046F2AE1028800020BDE8F0871EB1B6F5BF
:102DC000004F02D100E000BF04E045F625602880F6
:102DD0000020F1E700BF0CB10020206000BF00BF61
:102DE000FEF75AFA814600BFFEF702FD00BF7C489D
:102DF0000068406CB8B37A480068406C401E78495F
:102E00000968486476480068476C1CB174480068DB
:102E1000006C2060FEF77AFD71490968096C401A60
:102E20006F490968C1F8A4006D480068D0F8A8008F
:102E30006B490968D1F8A410884207D26848006835
:102E4000D0F8A40066490968C1F8A80000BFFEF7E1
:102E5000E9FC00BF4846FEF723FA00BF00BF002090
:102E600028803846A8E7FFE706F4004068B100BFB5
:102E7000FEF7D8FC00BF4846FEF712FA00BF00BFBD
:102E800046F2B0102880002096E7564800780028C7
:102E90000DDD00BFFEF7C6FC00BF4846FEF700FA96
:102EA00000BF00BF46F663502880002084E700BFC3
:102EB0004C480078401C4B490870084600780128AF
:102EC00001D101F0CDFC00BFFEF7ACFC00BF4846CD
:102ED000FEF7E6F900BF00BF00BF4346072200210E
:102EE000084601F05BF900BF00BF00BFFEF7D4F950
:102EF000814600BFFEF77CFC00BF3A480078401EC8
:102F0000384908700846007808B901F0B7FC00BFDE
:102F1000FEF788FC00BF4846FEF7C2F900BF00BFBD
:102F200000BFFFF797F800BF00BFFEF7B5F9814675
:102F300000BFFEF75DFC00BF2948006890F835002F
:102F400020B1012826D0032834D12CE0FCB124483C
:102F50000068006C2060FEF7D9FC21490968096C03
:102F6000401A1F490968C1F8A4001D480068D0F83C
:102F7000A8001B490968D1F8A410884207D2184854
:102F80000068D0F8A40016490968C1F8A80000201C
:102F9000288013E01CB112480068006C206046F2E3
:102FA000A91028800AE00CB10020206047F2D92047
:102FB000288003E046F62E60288000BF00BF084846
:102FC0000068476C00BFFEF72DFC00BF4846FEF7C7
:102FD00067F900BF00BF3846EEE600006800002039
:102FE00010010020B80000202DE9FF4106460F46E1
:102FF00014461FB1B7F5004F02D100E000BF06E054
:1030000045F625602080002004B0BDE8F08100BFB7
:10301000FEF77CFC05460D48007800280CDD0020FA
:103020000090034602463146CDE90254019008481B
:1030300000F01EFD0020E7E723462A4639463046C9
:1030400002F0A6FA80464046DEE700006800002055
:10305000545349472DE9F04705460E4617461C468E
:103060004FF0000A32480078002804DD47F259107A
:103070002080BDE8F0871EB946F2D5202080F8E711
:103080001FB946F2D5202080F3E700BF00BFFEF74E
:1030900003F9824600BFFEF7ABFB00BF0DB9254820
:1030A0000568286878B900BFFEF7BCFB00BF504632
:1030B000FEF7F6F800BF00BF00203060386047F22E
:1030C00052102080D5E795F83C0000F0010078B957
:1030D00000BFFEF7A7FB00BF5046FEF7E1F800BFB8
:1030E00000BF00203060386047F254102080C0E7F5
:1030F00000BFFEF797FB00BF5046FEF7D1F800BFB8
:1031000000BF4FF00008D5F8249003E009F104094E
:1031100008F10108D9F800000028F7D0C6F80080AF
:10312000A86BA0EB080038600020208000BFA0E75B
:103130006800002010010020F0B50446DDE90556C6
:1031400002EB85004FF0807C071F3846C7F800C0AF
:10315000071F38463C60DFF89CC0071F3846C7F899
:1031600000C04FF0123C071F3846C7F800C04FF0B0
:10317000033C071F3846C7F800C04FF0023C071F4A
:103180003846C7F800C0071F38463B60071F38465F
:1031900039604FF0113C071F3846C7F800C04FF0A8
:1031A000103C071F3846C7F800C04FF0093C071F06
:1031B0003846C7F800C04FF0083C071F3846C7F82C
:1031C00000C04FF0073C071F3846C7F800C04FF05B
:1031D000063C071F3846C7F800C04FF0053C071FE4
:1031E0003846C7F800C04FF0043C071F3846C7F800
:1031F00000C0F0BD795500087FB505460C46124861
:10320000854203D147F25B1020807FBD0F48854285
:1032100003D147F25C102080F7E70D4800780028C2
:103220000BDD002000900190034602462946CDE9BF
:103230000204084800F01CFCE7E72146284602F09B
:103240007BFC00BFE1E70000849B00204C9C002039
:10325000680000205453555370B52448006810B1DD
:10326000224800688047FEF751FB0446204800686A
:1032700020490968884215D01D480068D0F8980098
:10328000201A1B490968C1F8940019480068D0F851
:103290009C0017490968D1F894100844144909683A
:1032A000C1F89C0013480068C0F89840FEF774FA13
:1032B00005460F480068D0F8B400A84203D20C4875
:1032C0000068C0F8B4500A480068D0F8B8000A494D
:1032D0000968884205D20848006805490968C1F8AC
:1032E000B80000200449086070BD00005C000020A8
:1032F0001001002014010020B40000202DE9F0414D
:1033000005460E46144600274D480078002804DD87
:1033100047F275202080BDE8F0814A4800780028F7
:1033200003DD46F663502080F5E736B1022E05D066
:10333000042E0AD0082E09D101E000BF00BF1DB93C
:1033400047F27E202080E6E704E003E045F62560B2
:103350002080E0E700BF00BF00BF00BFFDF79CFF7B
:10336000074600BFFEF744FA00BF36480078401C0D
:103370003449087008460078012801D101F070FA3C
:1033800000BFFEF74FFA00BF3846FDF789FF00BFC8
:1033900000BF00BF01202C49096881F83600234690
:1033A000324629462848006802F0A2FC2088F0B185
:1033B00000BF00BF00BFFDF76FFF074600BFFEF76D
:1033C00017FA00BF1F480078401E1E4908700846C3
:1033D000007808B901F052FA00BFFEF723FA00BFE7
:1033E0003846FDF75DFF00BF00BF00BF93E71648FA
:1033F000006801F0D9F900BF00BF00BFFDF74CFF26
:10340000074600BFFEF7F4F900BF0E480078401EE3
:103410000C4908700846007808B901F02FFA00BF7F
:10342000FEF700FA00BF3846FDF73AFF00BF00BFC5
:1034300000BFFEF70FFE0020208000BF6BE70000FA
:1034400068000020B80000201001002010B586B0F0
:1034500000F01EF8FEF75AFA044605A80021009174
:10346000CDE9011403900748007800EB4000064ABC
:1034700002EB800100231A46044800F0F9FA06B076
:1034800010BD00009E000020209D00205449434BA9
:1034900010B50348006810B101480068804710BDAE
:1034A0006000002010B5002400BF00BFFDF7F4FE4F
:1034B000044600BFFEF79CF900BF09480078401C95
:1034C0000749087000BFFEF7ADF900BF2046FDF7C1
:1034D000E7FE00BF00BFFFF7B9FFFEF727FC10BDF6
:1034E0006800002001464A1E4FF0E0235A61084A56
:1034F000106820F07F4000BF10601A46126942F049
:1035000005021A611A46126942F002021A617047F6
:1035100020ED00E0254A2649264A274A2749284A1D
:103520002848294A294A2A4A2A4A2B482B482C4803
:103530002C4A2D482D4A2E482E4A2F482F483048D5
:103540003048314A314A324A3248334A334A3448A1
:10355000344835483548364836483748374A384A77
:10356000384A394A39483A483A483B4A3B4A3C4A41
:103570003C483D483D483E493E483F4A3F4A404A14
:10358000404A414A414A424A4248434A434A4448DF
:103590004448454A454A4648464A474A47484848B3
:1035A000484800BF00BF00BF70470000B069000876
:1035B000186B0008B1690008B2690008B469000816
:1035C000B8690008BC690008B9690008E469000826
:1035D000E5690008E6690008E8690008EA6900088A
:1035E000EC690008EE690008F0690008106A00083C
:1035F000126A0008146A0008166A0008186A0008AF
:103600001A6A00081C6A0008486A0008496A00082B
:103610004A6A00084C6A00084E6A00084F6A0008AF
:10362000506A0008526A0008546A0008566A000886
:10363000586A00085A6A00085C6A00088C6A000828
:103640008D6A00088E6A00088F6A0008906A000878
:10365000926A0008946A0008BC6A0008BD6A000803
:10366000BE6A0008BF6A0008C06A0008C26A000893
:10367000C46A0008C86A0008C96A0008CA6A000863
:10368000CB6A0008CC6A0008CD6A0008CE6A000840
:10369000CF6A0008D06A0008D26A0008D36A00081E
:1036A000D46A0008D66A0008D86A0008D96A0008F7
:1036B000DC6A0008106B0008116B0008126B000830
:1036C000146B0008166B00080021034A1160034ABE
:1036D0001180018070470000880000208C000020CD
:1036E0002DE9F04F85B00446894692469B46DDF8A9
:1036F00038800020009000BF00BFFDF7CDFD009096
:1037000000BFFEF775F800BFBAF1000F0AD0BAF19A
:10371000010F0DD0BAF5004F05D06FF400405044B2
:1037200060B906E000BF206A40EA0900206216E0A6
:1037300000BF206A20EA0900206210E000BFFEF707
:1037400071F800BF0098FDF7ABFD00BF00BF45F664
:103750002560A8F80000002005B0BDE8F08F00BF8C
:10376000C4F824B004F1080001900198008968B9F8
:1037700000BFFEF757F800BF0098FDF791FD00BFAE
:1037800000BF0020A8F80000206AE5E700BF7148EC
:103790000078401C6F49087008460078012801D164
:1037A00001F05EF800BFFEF73DF800BF0098FDF79E
:1037B00077FD00BF00BF00BF01980768BD6889E0C2
:1037C0007868029095F8880000F00F000390039845
:1037D000012821D002282ED0042802D0082836D172
:1037E0000EE0206AD5F8801000EA0106D5F88000C6
:1037F000B04204D15A463146284600F0AFF863E0A3
:10380000206AD5F8801000EA010626B15A463146F2
:10381000284600F0A3F857E0D5F88000216A20EA96
:103820000106D5F88000B04204D15A4631462846F8
:1038300000F094F848E0D5F88000216A20EA0106FB
:1038400026B15A463146284600F088F83CE000BFD1
:1038500000BF00BFFDF720FD009000BFFDF7C8FFCF
:1038600000BF3C480078401E3A490870084600787E
:10387000D0B901F003F83848008800280BDD00BFFC
:10388000FDF7D0FF00BF0098FDF70AFD00BF00BFA5
:1038900000F0B8FF11E000BFFDF7C4FF00BF0098C3
:1038A000FDF7FEFC00BF08E000BFFDF7BBFF00BF57
:1038B0000098FDF7F5FC00BF00BF00BF43F6FF20F6
:1038C000A8F80000002047E700BF029F0FB1BD68C5
:1038D00000E00025002D7FF473AF00BF00BF00BFE4
:1038E000FDF7DAFC009000BFFDF782FF00BF19482A
:1038F0000078401E174908700846007808B900F0A3
:10390000BDFF00BFFDF78EFF00BF0098FDF7C8FCAC
:1039100000BF00BF00BF0AF4004008B9FEF79AFBE1
:1039200000BF00BFFDF7B8FC009000BFFDF760FFCF
:1039300000BF206A049000BFFDF774FF00BF00982D
:10394000FDF7AEFC00BF00BF0020A8F800000498FF
:1039500002E70000B80000207C00002070B504469B
:103960000E46154634342665002060702070E560F0
:10397000A078343C082816D2DFE800F004050809D6
:103980000706101100BF00BF00BF0DE000BF2046BA
:1039900001F026FD002084F8360005E000BF042079
:1039A00084F8360000E000BF00BF204600F0B1FC04
:1039B00070BD0000002400BF1DE000BF00BFFDF788
:1039C0006BFC044600BFFDF713FF00BF0A48006808
:1039D000401C0949086009480068401C0749086004
:1039E00000BFFDF71FFF00BF2046FDF759FC00BFD9
:1039F00000BFFEF799F8E0E764000020D000002047
:103A000010B58AB0044600200E4908600B20002142
:103A10000591CDE90704069108460B4909680B4A50
:103A200012680B4B1B68CDE90132CDE903101F2052
:103A30000023084A08A100900C48FEF795FD0AB043
:103A400010BD00006400002014690008106900081F
:103A50000C690008B539000875432F4F532D4949AB
:103A6000492049646C65205461736B00849B00207D
:103A70002DE9F84F04460D4616461F46DDE90BAB0F
:103A8000DDF82890DDF834800020009000BF00BFF2
:103A9000FDF702FC009000BFFDF7AAFE00BF2C4816
:103AA00000882C49098888423EDA29480088401C51
:103AB00027490880284800880988884203DA244872
:103AC000008825490880254800680460234800686C
:103AD000856022480068C6602048006807821F4849
:103AE0000068C0F814901D480068A0F818A01B4892
:103AF0000068C0F81CB019480068406817490860A1
:103B0000012017490881174808604860002000F02C
:103B1000CFFC1548007818B1134800781349087095
:103B20000020A8F8000008E011480088401C104957
:103B3000088044F25360A8F8000000BFFDF772FE51
:103B400000BF0098FDF7ACFB00BF00BFBDE8F88FD9
:103B50007C000020206900087E0000207400002006
:103B6000209D00204C9C00209E000020A0000020F2
:103B7000800000203EB5594800680068584A811A04
:103B8000904279D00FDC5749084400283ED056496E
:103B90000844A8B155490844002860D05449084455
:103BA00000286AD13FE053480844002850D05249C9
:103BB0000844002862D0514908440028F1D110E09F
:103BC00002A8464D00902D68EB69444D2D682A8B64
:103BD000424D2D686969414D2D68A868FFF780FD49
:103BE0007AE002A93D480068C0693C4DCDE900017A
:103BF0002D682B8B394D2D682A8A384D2D68E96840
:103C0000364D2D68A86800F083FC65E0334B1B68D7
:103C1000DA69324B1B68198B304B1B68986802AB12
:103C200000F0CCFE58E002A92C480068C0692B4D7A
:103C3000CDE900012D682B8B284D2D682A8A274D50
:103C40002D68E968254D2D68A86801F093FA43E0D6
:103C500022490968886802A901F0D0FB3CE01F4BAB
:103C60001B68DA691D4B1B68198B1C4B1B68986815
:103C700002AB01F08DFC2FE007E02CE0174909684A
:103C8000886802A901F058FF26E01D49097801EB78
:103C900041011C4A02EB810000F00EFE0F48006853
:103CA00002AB0021C269184801F072FC1748006895
:103CB000401E164908600846006858B91448006854
:103CC0000860FDF723FE044602AB2246002111489E
:103CD00001F05EFC00E000BF00BF3EBD78000020A8
:103CE0005449434BADBAB2BE0DF90BFAF2F8F7FFE7
:103CF0000006F6FF00F7FDF700FFEFFF03FE0FFEE3
:103D0000A0000020209D0020689F00200C010020C2
:103D10000801002030A00020002700BF56E0002648
:103D200052E000BF00BFFDF7B7FA074600BFFDF73E
:103D30005FFD00BF2648008898B90020254908810A
:103D40000860486000F0C6FB00BFFDF76BFD00BFD8
:103D50003846FDF7A5FA00BF00BFFEF77BF9012644
:103D600032E000BFFDF75EFD00BF3846FDF798FA70
:103D700000BF00BFFDF7CAFD0546FFF7FBFEFDF7DC
:103D8000C5FD441B14480068A04201D212480460DB
:103D900000BF00BFFDF780FA074600BFFDF728FD12
:103DA00000BF0E48006840680C4908600848008859
:103DB000401E0749088000BFFDF734FD00BF3846AC
:103DC000FDF76EFA00BF00BF002EAAD0A7E70000E3
:103DD0007C000020209D002084000020780000202E
:103DE000F0B589B0054600203149088031480068A7
:103DF00020B944F25260288009B0F0BD2E480088F6
:103E0000022803DA44F254602880F5E700202B49A9
:103E10000860284804682646203600270CE0284819
:103E200020600020A060E0602082606120836660E6
:103E300020342036781C87B21F4800888742EEDB8A
:103E4000203C1C48066866601E4806601E480660E6
:103E500000201E4908801E4908801E48006818B9C5
:103E600044F255602880C7E71B4800681B49096871
:103E7000884203D244F256602880BDE70320002127
:103E80000591CDE90705069113480068144A1268A8
:103E9000104B1B68CDE90301CDE9013200910B46BF
:103EA000104A11A11748FEF75FFB00BFA4E700000E
:103EB000800000201C6900082069000884000020A0
:103EC0004E4F4E4574000020780000207C000020FA
:103ED0007E00002028690008306900086869000831
:103EE0002C690008193D000875432F4F532D49498F
:103EF0004920495352205175657565205461736B93
:103F0000000000004C9C00200021816107490968E5
:103F100011B90021C16105E004490968C161034983
:103F2000096888610149086070470000900000201E
:103F30000021034A1160034A11800180704700008C
:103F4000900000209400002070B501461A4D2D68A5
:103F50001DB945F21E750D8070BD184D2D881DB917
:103F600045F21D750D80F7E7134D28682A68103259
:103F7000124D2D886D1EACB2002308E002600025B2
:103F800045600581C560103010325D1CABB2A342A4
:103F9000F4DB0025056045600581C560064D2D6890
:103FA000074E3560054D2D88B5800025F58035819B
:103FB0000D8000BFD0E700004C690008446900088C
:103FC000149D002010B5014648894B89002B17DD50
:103FD0000A680C4B1B6813600A4C4B68236023462D
:103FE000DB884C891B1B074CE38023469B884C894C
:103FF0002344044CA38000234B818B810B604B60D6
:1040000010BD0000149D0020F0B504460D466089E7
:1040100040B90020288002B1106046F2925018800A
:104020000020F0BD61684E68088928800AB1C86820
:10403000106008686060606818B9002020606081C6
:1040400002E06089401E60810848006808600748F7
:1040500001608088401C054FB8803846C088401EEB
:10406000F880002018803046DBE70000149D002017
:10407000018100224281828102604260704700001B
:104080002DE9F0410D46DDE90674B0F80AC0B0F83C
:104090000880C44505DB46F2935CA4F800C0BDE887
:1040A000F081DFF8DCC0BCF804C0BCF1000F04D123
:1040B00045F21D7CA4F800C0F1E7DFF8C4C0DCF8CD
:1040C0000010DFF8BC80D1F800C0C8F800C0C446BA
:1040D000BCF804C0ACF1010CA8F804C0C446BCF89C
:1040E00006C00CF1010CA8F806C0C446BCF808C014
:1040F000B8F80680C44507DADFF884C0BCF806C00B
:10410000DFF87C80A8F808C0B0F80AC0BCF1000F46
:104110000AD1016041604FF0010CA0F80AC04FF0D5
:10412000000CC1F800C017E003F0100CBCF1000F48
:1041300007D10668316001604FF0000CC1F800C083
:1041400004E0D0F804C0C1F800C04160B0F80AC073
:104150000CF1010CA0F80AC0B0F80CC0B0F80A804D
:10416000C44503DAB0F80AC0A0F80CC04D600A815B
:10417000CF604FF0000CA4F800C000BF8FE7000034
:10418000149D00200021034A1160034A1180018020
:1041900070470000980000209C0000202DE9F041AD
:1041A00005460C4616461F461548006880F83460E0
:1041B00000201349096881F8350039461048006825
:1041C00000F00AFF6CB104F10808EC6001222946F6
:1041D0000B48006800F016F82946404600F066F8E3
:1041E00006E0002006490968C88705490968086390
:1041F00003480168204600F019F8BDE8F08100008E
:104200001001002010B5C287016300230AE00024DA
:104210004C600C600C614C610C83CC618860203177
:104220005C1CA3B29342F2DB10BD000030B548B174
:104230004568C1F8C45000F10804226893681D6AFB
:10424000C56113E091F83450022D02D0072D08D13A
:1042500003E007A5C1F8C45007E007A5C1F8C450A2
:1042600003E008A5C1F8C45000BF00BF30BD000086
:104270005461736B205100005461736B2053656D62
:10428000000000002000000030B507A5C1F8C450B0
:1042900000F1080422681AB193681D6AC56101E043
:1042A00001A5C56130BD000020000000F0B58E689A
:1042B00096F8375007893FB90127078100274F60DB
:1042C0000F600160416023E007897F1C078102685D
:1042D00006E0946894F83770AF4200DD02E052685F
:1042E000002AF6D100BF32B900274F6043680B6047
:1042F000596041600CE017682FB9116000270F600A
:104300004A60016004E013680B604A605960116004
:10431000F0BD2DE9F0410446256BE68F0AE0D5F8A3
:104320000C8008F108072946384600F00AF82035C5
:10433000701E86B2002EF2DC0020E0872063BDE80C
:10434000F08110B50489012C03D10024046044607D
:1043500011E00C6824B94A680024146002600AE085
:104360004C6824B90B6800245C60436003E00B6870
:104370004A685A6013600489641E048100244C60FA
:104380000C6010BD2DE9F84306460C4617469846CA
:10439000089D94F83600082850D2DFE800F00405A4
:1043A000080906072B2C00BF00BF00BF47E000BF75
:1043B00094F83400032807D143463A462146304654
:1043C000009500F03FF803E0E765A4F860802564FD
:1043D00036B12046FFF79DFF21463046FFF754FFD8
:1043E000204600F0FDFF00203434A070607004F817
:1043F000340924E000BF94F83400032807D1434671
:104400003A4621463046009500F01CF803E0E76587
:10441000A4F860802564204601F048FD36B12046AE
:10442000FFF777FF21463046FFF72EFF0420343494
:10443000A0700020607004F8340900E000BF00BFE5
:10444000BDE8F883F0B50446059E086BCD8F0AE001
:10445000C768A74204D1046142610383C66104E0D6
:1044600020306F1EBDB2002DF2DC00BFF0BD000099
:1044700070B50025074C03E005F12000C5B2241DEE
:1044800020680028F8D02068FCF711FF2844C5B246
:10449000284670BD1C010020002004E00021034AD2
:1044A00042F82010401C0028F8D070471C01002062
:1044B00030B5420900F01F030121C3F11F04A140E0
:1044C000034C54F822400C43014D45F8224030BDC6
:1044D0001C01002030B5420900F01F030121C3F187
:1044E0001F04A140034C54F822408C43014D45F871
:1044F000224030BD1C0100200021034A1160034A04
:104500001180018070470000A4000020A800002056
:104510002DE9F04F85B007468A4693461C46002099
:10452000029000BF00BF00BFFCF7B6FE029000BFC4
:10453000FDF75EF900BF56480078401C54490870EA
:1045400008460078012801D100F08AF900BFFDF784
:1045500069F900BF0298FCF7A3FE00BF00BF00BFCF
:1045600007F10806308900284CD104F0100010B97A
:104570004FF0000801E04FF01008DDE90E0143465E
:104580005A46CDE90001514607F12000FFF778FDBA
:1045900000BF00BF00BFFCF77FFE029000BFFDF729
:1045A00027F900BF3A480078401E3949087008468C
:1045B0000078D0B900F062F93648008800280BDD99
:1045C00000BFFDF72FF900BF0298FCF769FE00BF9E
:1045D00000BF00F017F911E000BFFDF723F900BF9D
:1045E0000298FCF75DFE00BF08E000BFFDF71AF976
:1045F00000BF0298FCF754FE00BF00BF00BF05B02B
:10460000BDE8F08F04F4007008B1358900E00125A1
:10461000D6F8009011E0D9F808000390D9F804000A
:1046200004900E985B465246009038460399FFF777
:10463000A9FEDDF81090681E85B2002DEBD100BFF9
:1046400000BF00BFFCF728FE029000BFFDF7D0F8C6
:1046500000BF0F480078401E0D49087008460078DA
:1046600008B900F00BF900BFFDF7DCF800BF0298B5
:10467000FCF716FE00BF00BF00BF04F4004008B9FD
:10468000FDF7E8FC00210F98018000BFB7E70000AC
:10469000B80000207C00002000210AE001EB41026C
:1046A000054B03EB820000220281026042604A1C3B
:1046B000D1B22029F2D37047209D002010B50446C6
:1046C00094F83700FFF7F4FE94F8370005490978AD
:1046D000884203D1204600F027F802E0204600F08F
:1046E00003F810BD9E00002010B590F8373003EBA2
:1046F00043030C4C04EB83010B893BB901230B8171
:104700000023C36003610860486009E00B895B1CFB
:104710000B810B68C360002303610A6810610860A5
:1047200010BD0000209D002010B590F8373003EB3D
:1047300043030B4C04EB83010B893BB901230B8131
:104740000023C36003610860486008E00B895B1CBC
:104750000B810023C3604A680261D060486010BDCD
:10476000209D002010B501460C8924B1012C03D0F6
:10477000022C0CD101E000BF14E008684A68026115
:104780000024C4601461D0600A6048600AE00868D0
:104790004A68C36800241C61C4600261D0600B6079
:1047A000486000BF00BF10BD2DE9F041054695F8F7
:1047B000370000EB4000124901EB80042F69EE68DE
:1047C00087B946B9002020812060606095F83700E5
:1047D000FFF780FE0EE02089401E2081002030611E
:1047E000266007E02089401E2081FE600EB96760C8
:1047F00000E0376100202861E860BDE8F08100003A
:10480000209D002010B5002400BFFCF745FD0446A4
:1048100000BF00200D4908700D480E490860084689
:104820000068D0F89000401C0968C1F890000A4860
:104830000068401C084908604FF080500749086034
:1048400000BF2046FCF72CFD00BF10BD9F000020DC
:104850004C9C002014010020E400002004ED00E046
:1048600010B504480078012803D1FDF74FF802493C
:10487000086010BDB8000020AC00002010B50A4848
:10488000007880B9FDF742F808490968441A0848D9
:104890000068A04201D20648046006480068A042B1
:1048A00001D20448046010BDB8000020AC00002014
:1048B000B0000020B400002070B505460026354841
:1048C0000078012800D070BD00BF00BFFCF7E4FCF9
:1048D000064600BFFCF78CFF00BF2C684CB900BF38
:1048E000FCF7A0FF00BF3046FCF7DAFC00BF00BFBA
:1048F000E9E72948844209D100BFFCF793FF00BFD4
:104900003046FCF7CDFC00BF00BFDCE7A06D10B166
:10491000A06D401EA065A06D48B100BFFCF782FFEE
:1049200000BF3046FCF7BCFC00BF00BFCBE72889C6
:10493000022809DA00BFFCF775FF00BF3046FCF71C
:10494000AFFC00BF00BFBEE714480078002809DDB7
:1049500000BFFCF767FF00BF3046FCF7A1FC00BFBB
:1049600000BFB0E72846FFF7FDFE2C68606D18B960
:104970000B480068A06501E0606DA06500BFFCF712
:1049800051FF00BF3046FCF78BFC00BF00BF00BFEB
:1049900099E70000C0000020849B0020B8000020A0
:1049A000BC0000200021034A1160034A11800180ED
:1049B00070470000C4000020C80000202DE9FF5F00
:1049C0000446884691461D460020019000BF00BF66
:1049D000FCF762FC019000BFFCF70AFF00BF04F186
:1049E00008073889002857D10420012804D002285C
:1049F00016D004283AD127E0206AFF280FD100BF43
:104A0000FCF710FF00BF0198FCF74AFC00BF00BF95
:104A100046F6C5502880002004B0BDE8F09F26E08F
:104A20004FF6FF71206A88420DD100BFFCF7FAFEF5
:104A300000BF0198FCF734FC00BF00BF46F6C5502C
:104A400028800020E8E712E0206A401C68B900BF17
:104A5000FCF7E8FE00BF0198FCF722FC00BF00BF96
:104A600046F6C55028800020D6E700E000BF00BF12
:104A7000206A401C2062D4F820A0C4F8249000BF13
:104A8000FCF7D0FE00BF0198FCF70AFC00BF00BF96
:104A9000002028805046BFE700BF2D480078401C0A
:104AA0002B49087008460078012801D1FFF7D8FE8D
:104AB00000BFFCF7B7FE00BF0198FCF7F1FB00BF99
:104AC00000BF00BF08F4007008B13E8900E0012675
:104AD000D7F800B011E0DBF808000290DBF8040022
:104AE000039000231A46CDF8009020460299FFF764
:104AF00049FCDDF80CB0701E86B2002EEBD1D4F864
:104B000020A000BF00BF00BFFCF7C6FB019000BFA4
:104B1000FCF76EFE00BF0E480078401E0C4908707E
:104B20000846007808B9FFF7A9FE00BFFCF77AFE37
:104B300000BF0198FCF7B4FB00BF00BF00BF08F442
:104B4000004008B9FDF786FA00202880504663E748
:104B5000B800002086B00020009000BF06E0D949D0
:104B60000968480001AA0021FEF7C8FBD648007872
:104B70000128F4D101A8FDF7B9FB0027D34800684C
:104B8000D0490968884205D9D0480068CD490968EC
:104B9000B0FBF1F727B9CD4800680A21B0FBF1F767
:104BA0008EE1FCF7B3FE8246FCF70CFEC8490860B4
:104BB00000BF00BFFCF770FB009000BFFCF718FEC1
:104BC00000BFC4480068C44908600020C1490860AB
:104BD00000BFFCF727FE00BF0098FCF761FB00BF99
:104BE00000BFBE480068BC490968884248D9BB4834
:104BF0000068BB49884205D242F210700390012040
:104C0000029023E0B5480068B649884205D24FF4C7
:104C10007A7003900A20029018E0B0480068B24908
:104C2000884203D26420039002900FE0AB480068F2
:104C3000AE49884205D20A2003904FF47A70029060
:104C400004E00120039042F210700290A348016832
:104C50000298B1FBF0F9A049039809684843B0FBFA
:104C6000F9F042F21071081AA1490880A1480088A1
:104C70000988884208DA9E4800889E49088003E037
:104C800042F210709A490880FDF764FC002500BFCD
:104C900000BFFCF701FB009000BFFCF7A9FD00BFBF
:104CA0009548046800BFFCF7BDFD00BF0098FCF705
:104CB000F7FA00BF00BF72E000BF00BF00BFFCF703
:104CC000EBFA009000BFFCF793FD00BF8B48007823
:104CD000401C8A49087008460078012801D1FFF776
:104CE000BFFD00BFFCF79EFD00BF0098FCF7D8FA9F
:104CF00000BF00BF00BF54F89C0F6060002044F864
:104D00009C0900BF00BF00BFFCF7C6FA009000BFBF
:104D1000FCF76EFD00BF79480078401E77490870A7
:104D200008460078D0B9FFF7A9FD7548008800282B
:104D30000BDD00BFFCF776FD00BF0098FCF7B0FA72
:104D400000BF00BFFFF75EFD11E000BFFCF76AFD8A
:104D500000BF0098FCF7A4FA00BF08E000BFFCF712
:104D600061FD00BF0098FCF79BFA00BF00BF00BFC9
:104D7000D4F8A000054400BF00BFFCF78DFA0090F6
:104D800000BFFCF735FD00BFD4F8C04000BFFCF702
:104D900049FD00BF0098FCF783FA00BF00BF002C5C
:104DA0008AD145B34E48854205D242F21070059033
:104DB0004FF0010B1BE04B48854205D24FF47A704F
:104DC00005904FF00A0B12E04748854203D2642059
:104DD000059083460BE04548854204D20A200590A1
:104DE0004FF47A7B03E00120059042F2107BB5FB83
:104DF000FBF0049003E0002005900120049000BF28
:104E000000BFFCF749FA009000BFFCF7F1FC00BFBF
:104E10003948046800BFFCF705FD00BF0098FCF7A7
:104E20003FFA00BF00BF2FE0D4F8A0000599484327
:104E30000499B0FBF1F086B242F21070864200D9BC
:104E40000646A4F88C60B4F88E00B04201DAA4F8EB
:104E50008E6001AB04F1AC02111D2046FEF7FAF89A
:104E600000BF00BFFCF718FA009000BFFCF7C0FCC1
:104E700000BFD4F8C04000BFFCF7D4FC00BF0098CE
:104E8000FCF70EFA00BF00BF002CCDD11D48007802
:104E9000012805D100201B49087001A8FDF726FA5A
:104EA000FCF734FDA0EB0A0817480068404502D221
:104EB0001548C0F8008001AA00213846FEF71EFA06
:104EC0006FE6000054690008DC0000206C690008EF
:104ED0006C000020D0000020D8000020D40000206A
:104EE000801A060000093D00005A62020084D717AC
:104EF000CC000020CE000020E8000020B8000020F8
:104F00007C000020CA000020E000002010B58AB01C
:104F1000044600201F4908601F4908601F490860B7
:104F20001F4908701F4908701F48006820B946F6DD
:104F30002B6020800AB010BD1C4800681C4909681D
:104F4000884203D246F62C602080F3E719480078A7
:104F50001F2803D346F62A602080EBE703200021B8
:104F60000591CDE907040691084610490968124ADF
:104F700012680D4B1B68CDE90132CDE903100D48D5
:104F8000007800230D4A0EA100901248FDF7ECFABC
:104F900000BFCFE7D0000020D8000020D4000020C0
:104FA000DC000020CA000020586900086069000881
:104FB00068690008506900085C690008554B0008E2
:104FC00075432F4F532D4949492053746174205420
:104FD00061736B00A09E002038B504460D4685B174
:104FE0006B4602222946204600F082FEBDF80000F2
:104FF00018B9032084F8360006E0022084F8360051
:1050000002E0022084F836002046FFF7CDFB38BDD1
:105010000021C0F8BC100949096819B90021C0F87D
:10502000C01007E005490968C0F8C01003490968C5
:10503000C1F8BC000149086070470000E80000208A
:10504000D0F8BC20D0F8C0104AB90D4B196011B18E
:105050000023C1F8BC300023C0F8C0300FE029B9EC
:105060000023C2F8C030C0F8BC3008E0C2F8C0105D
:10507000C1F8BC200023C0F8C030C0F8BC30704775
:10508000E80000200021044A1160044A1180044A0B
:105090001160018070470000E8000020EC00002053
:1050A000E400002070B5044600202060A06060602D
:1050B000E06020616061A061E0612BA020620020BF
:1050C0006062A062E0622063E0872064E065A4F88B
:1050D0006000002104F16400FEF7CAFF002044F8DC
:1050E000740F6060E060A0822061743C002506E0DF
:1050F000002104F17C0040F82510681CC5B2002D89
:10510000F6D000203434206120676067606084F846
:105110005600E067A06720814FF0004060610020EA
:10512000A061E06120626062A4F85800A4F85A000F
:10513000E0652066FCF7EAFB064666660020A0668E
:10514000C4F88000C4F8840020706070A070202033
:10515000E0700020C4F88800C4F88C0004A0C4F8F3
:105160009000343C70BD00003F5461736B00000040
:10517000200000002DE9FC4704460F469046994662
:10518000DDE90A654FF0000A00BF00BF00BFFCF771
:1051900083F8824600BFFCF72BFB00BF8D480078E8
:1051A000401C8C49087008460078012801D1FFF79F
:1051B00057FB00BFFCF736FB00BF5046FCF770F80A
:1051C00000BF00BF00BF0CB98348046800202880DE
:1051D00094F8360008287CD2DFE800F0040548493E
:1051E00006074A4B00BF00BF00BF4B464246394648
:1051F00004F16400CDE90065FEF742FF00BF00BF87
:1052000000BFFCF749F8824600BFFCF7F1FA00BF87
:1052100070480078401E6F49087008460078D0B981
:10522000FFF72CFB6D48008800280BDD00BFFCF762
:10523000F9FA00BF5046FCF733F800BF00BFFFF794
:10524000E1FA11E000BFFCF7EDFA00BF5046FCF7B1
:1052500027F800BF08E000BFFCF7E4FA00BF5046A3
:10526000FCF71EF800BF00BF00BFAFE000BF00BFEB
:1052700000BF94F8340002282CD143463A46214618
:1052800000200096FFF77EF800BF00BF00BFFCF7CC
:1052900003F8824600BFFCF7ABFA00BF4D48007828
:1052A000401E4C4908700846007808B9FFF7E6FA36
:1052B00000BFFCF7B7FA00BF5046FBF7F1FF00BF95
:1052C00000BF00BF09F40040002843D1FCF7C2FE34
:1052D00040E040E04B464246394604F16400CDE9E7
:1052E0000065FEF7CDFE00BF00BF00BFFBF7D4FF97
:1052F000824600BFFCF77CFA00BF36480078401EAB
:105300003449087008460078D0B9FFF7B7FA334837
:10531000008800280BDD00BFFCF784FA00BF504670
:10532000FBF7BEFF00BF00BFFFF76CFA11E000BF44
:10533000FCF778FA00BF5046FBF7B2FF00BF08E069
:1053400000BFFCF76FFA00BF5046FBF7A9FF00BF94
:1053500000BF00BF3AE000BF00BF00BFFBF79CFFEB
:10536000824600BFFCF744FA00BF1A480078401E8E
:105370001849087008460078D0B9FFF77FFA174837
:10538000008800280BDD00BFFCF74CFA00BF504638
:10539000FBF786FF00BF00BFFFF734FA11E000BF44
:1053A000FCF740FA00BF5046FBF77AFF00BF08E069
:1053B00000BFFCF737FA00BF5046FBF771FF00BF94
:1053C00000BF00BF46F62D60288000BF00BFBDE8CB
:1053D000FC870000B8000020100100207C000020A5
:1053E00010B50446204600F061FD94F8360000F048
:1053F000040010B92046FFF761F910BD70B50446EE
:105400000D46002600BF00BFFBF746FF064600BF63
:10541000FCF7EEF900BF0020288094F83600082839
:105420007ED2DFE800F00405060714566A8000BF4C
:1054300000BF00BF00BFFCF7F5F900BF3046FBF727
:105440002FFF00BF00BF47F2531028808CE000BF41
:1054500048480078401C47490870084600780128F1
:1054600001D1FFF7FDF900BFFCF7DCF900BF3046C2
:10547000FBF716FF00BF00BF00BF14F88A0F401EE5
:10548000207014F88A0928B9002084F836002046D4
:10549000FFF7A6FF00BF00BF00BFFBF7FDFE0646FB
:1054A00000BFFCF7A5F900BF32480078401E314923
:1054B00008700846007808B9FFF7E0F900BFFCF76C
:1054C000B1F900BF3046FBF7EBFE00BF00BF00BFE5
:1054D0004AE014F88A0F401E207014F88A0910B9A7
:1054E000012084F8360000BFFCF79CF900BF30466D
:1054F000FBF7D6FE00BF00BF36E014F88A0F401E4F
:10550000207014F88A0910B9022084F8360000BF10
:10551000FCF788F900BF3046FBF7C2FE00BF00E091
:1055200015E000BF20E014F88A0F401E207014F828
:105530008A0910B9032084F8360000BFFCF772F91D
:1055400000BF3046FBF7ACFE00BF00BF0CE000BF61
:10555000FCF768F900BF3046FBF7A2FE00BF00BFB2
:1055600046F62D60288070BD00BFFCF773FD00BFBC
:10557000F9E70000B800002008B504480068FDF70E
:10558000FFFB69460020FDF745F908BD100100202A
:105590002DE9F8430446884617461D464FF000099A
:1055A00000BF00BF00BFFBF777FE814600BFFCF7DE
:1055B0001FF900BFFB480078401CFA4908700846F4
:1055C0000078012801D1FFF74BF900BFFCF72AF959
:1055D00000BF4846FBF764FE00BF00BF00BF0CB928
:1055E000F148046827640020288094F836000828D1
:1055F0007AD2DFE800F00405FEFD0607FCFB00BFE1
:1056000000BF00BF0420012804D0022843D0042892
:105610006BD184E0606CFF283CD100BF00BF00BFAD
:10562000FBF73AFE814600BFFCF7E2F800BFDD4819
:105630000078401EDB49087008460078D0B9FFF7B3
:105640001DF9DA48008800280BDD00BFFCF7EAF8F6
:1056500000BF4846FBF724FE00BF00BFFFF7D2F8AB
:1056600011E000BFFCF7DEF800BF4846FBF718FE6C
:1056700000BF08E000BFFCF7D5F800BF4846FBF7C5
:105680000FFE00BF00BF00BF46F6C55028800020B7
:10569000BDE8F88385E04FF6FF71606C88423DD12C
:1056A00000BF00BF00BFFBF7F7FD814600BFFCF75E
:1056B0009FF800BFBB480078401EBA4908700846F2
:1056C0000078E0B9FFF7DAF8B848008800280DDD67
:1056D00000BFFCF7A7F800BF4846FBF7E1FD00BF9D
:1056E00000BFFFF78FF813E0E2E159E000BFFCF7DD
:1056F00099F800BF4846FBF7D3FD00BF08E000BFA4
:10570000FCF790F800BF4846FBF7CAFD00BF00BF9A
:1057100000BF46F6C55028800020B9E741E0606C24
:10572000401CD8BB00BF00BF00BFFBF7B5FD8146E2
:1057300000BFFCF75DF800BF9A480078401E994909
:10574000087008460078D0B9FFF798F897480088A5
:1057500000280BDD00BFFCF765F800BF4846FBF7EB
:105760009FFD00BF00BFFFF74DF811E000BFFCF741
:1057700059F800BF4846FBF793FD00BF08E000BFA3
:10578000FCF750F800BF4846FBF78AFD00BF00BF9A
:1057900000BF46F6C5502880002079E7FFE700E00B
:1057A00000BF00BF606C401C6064666C00BF00BF3F
:1057B00000BFFBF771FD814600BFFCF719F800BF81
:1057C00078480078401E7749087008460078F8B994
:1057D000FFF754F875480088002810DD00BFFCF77B
:1057E00021F800BF4846FBF75BFD03E01EE01CE02C
:1057F0001AE018E000BF00BFFFF704F811E000BF97
:10580000FCF710F800BF4846FBF74AFD00BF08E070
:1058100000BFFCF707F800BF4846FBF741FD00BF9B
:1058200000BF00BF80E100BF00BF00BF94F834009C
:1058300007282CD100231A46214618460097FEF768
:10584000A1FD666C00BF00BF00BFFBF725FD8146D0
:1058500000BFFBF7CDFF00BF52480078401E514902
:1058600008700846007808B9FFF708F800BFFBF792
:10587000D9FF00BF4846FBF713FD00BF00BF00BFC4
:1058800008F40040002801D1FCF7E4FB0FE10420FC
:10589000012804D0022842D0042872D189E0606C2B
:1058A000FF283BD100BF00BF00BFFBF7F5FC8146DE
:1058B00000BFFBF79DFF00BF3A480078401E394902
:1058C000087008460078D0B9FEF7D8FF374800883E
:1058D00000280BDD00BFFBF7A5FF00BF4846FBF724
:1058E000DFFC00BF00BFFEF78DFF11E000BFFBF73C
:1058F00099FF00BF4846FBF7D3FC00BF08E000BF9C
:10590000FBF790FF00BF4846FBF7CAFC00BF00BF93
:1059100000BF46F6C55028800020B9E68BE04FF660
:10592000FF71606C884243D100BF00BF00BFFBF72E
:10593000B3FC814600BFFBF75BFF00BF194800784E
:10594000401E1849087008460078D8B9FEF796FF3F
:105950001648008800280BDD00BFFBF763FF00BF7F
:105960004846FBF79DFC00BF00BFFEF74BFF12E06F
:1059700000BFFBF757FF00BF4846FBF791FC00BF95
:1059800009E057E000BFFBF74DFF00BF4846FBF7BB
:1059900087FC00BF00BF00BF46F6C550288000202E
:1059A00076E60000B8000020100100207C000020F6
:1059B00041E0606C401CD8BB00BF00BF00BFFBF7DC
:1059C0006BFC814600BFFBF713FF00BF584800780F
:1059D000401E5749087008460078D0B9FEF74EFFC0
:1059E0005448008800280BDD00BFFBF71BFF00BFF9
:1059F0004846FBF755FC00BF00BFFEF703FF11E070
:105A000000BFFBF70FFF00BF4846FBF749FC00BF94
:105A100008E000BFFBF706FF00BF4846FBF740FC6D
:105A200000BF00BF00BF46F6C550288000202FE60B
:105A3000FFE700E000BF00BF606C401C6064666C64
:105A400000BF00BF00BFFBF727FC814600BFFBF78C
:105A5000CFFE00BF36480078401E35490870084622
:105A60000078D0B9FEF70AFF3248008800280BDD25
:105A700000BFFBF7D7FE00BF4846FBF711FC00BF95
:105A800000BFFEF7BFFE11E000BFFBF7CBFE00BF7B
:105A90004846FBF705FC00BF08E000BFFBF7C2FE6D
:105AA00000BF4846FBF7FCFB00BF00BF00BF3BE068
:105AB00000BF00BF00BFFBF7EFFB814600BFFBF755
:105AC00097FE00BF1A480078401E19490870084622
:105AD0000078D0B9FEF7D2FE1648008800280BDD0A
:105AE00000BFFBF79FFE00BF4846FBF7D9FB00BF96
:105AF00000BFFEF787FE11E000BFFBF793FE00BF7B
:105B00004846FBF7CDFB00BF08E000BFFBF78AFE6D
:105B100000BF4846FBF7C4FB00BF00BF00BF46F60E
:105B20002D602880002600BF00BF3046B0E5000091
:105B3000B80000207C00002070B504460D46002609
:105B400000BF00BFFBF7A8FB064600BFFBF750FEF7
:105B500000BF0CB95A48046859480068844210D103
:105B60005848007800280CDD00BFFBF75BFE00BF43
:105B70003046FBF795FB00BF00BF46F66350288018
:105B800070BD0020288094F83600082873D2DFE822
:105B900000F0044252627374757600BF4948007881
:105BA000401C4849087008460078012801D1FEF7DA
:105BB00057FE00BFFBF736FE00BF3046FBF770FB19
:105BC00000BF00BF00BF042084F83600012084F825
:105BD0008A002046FEF7E8FD00BF00BF00BFFBF7CC
:105BE0005BFB064600BFFBF703FE00BF35480078AD
:105BF000401E344908700846007808B9FEF73EFE9A
:105C000000BFFBF70FFE00BF3046FBF749FB00BFAC
:105C100000BF00BF4FE0052084F83600012084F863
:105C20008A0000BFFBF7FEFD00BF3046FBF738FBE4
:105C300000BF00BF3FE0062084F83600012084F852
:105C40008A0000BFFBF7EEFD00BF3046FBF728FBE4
:105C500000BF00BF2FE0072084F83600012084F841
:105C60008A0000BFFBF7DEFD00BF3046FBF718FBE4
:105C700000BF00BF1FE011E000BF00BF00BF94F8ED
:105C80008A00401C84F88A0000BFFBF7CBFD00BFF0
:105C90003046FBF705FB00BF00BF0CE000BFFBF781
:105CA000C1FD00BF3046FBF7FBFA00BF00BF46F660
:105CB0002D60288064E700BFFCF7CCF900BF5FE7E8
:105CC00010010020B8000020002108E0064A02EB85
:105CD000C100002202608280C2804A1C91B2034A45
:105CE00012889142F2DB70477498002084690008A2
:105CF0002DE9F04F0C4616461D46042E1ED1DFF846
:105D0000A091D9F80090A4EB0909A9F1010313F5BA
:105D1000803F0DD94FF00009C0F84C90C0F850906A
:105D2000C0F81C9047F27E29A5F80090BDE8F08FDE
:105D3000C46403F10109C0F850903FE084B3082E19
:105D400025D1D0F8489009EB0407DFF85491D9F831
:105D50000090A7EB0909A9F10103A34201D2C7648E
:105D600006E0DFF83C91D9F80090A144C0F84C90CF
:105D7000DFF82CA1D0F84C90DAF800A0A9EB0A09C2
:105D8000C0F85090D0F84C90C0F8489016E0DFF87A
:105D90001091D9F80090A144C0F84C9004650DE032
:105DA000FFE74FF00009C0F84C90C0F85090C0F8E1
:105DB0001C9047F27E29A5F80090B7E7DFF8E4A031
:105DC000BAF800A0D0F84C90B9FBFAFB0AFB1B997B
:105DD0001FFA89F8DFF8D09009EBC802B2F80490F6
:105DE000B9F1000F0BD14FF00009C0F81490C0F8C2
:105DF000189010604FF00109A2F804903EE011687D
:105E000034E0DFF89CA0D1F84C90DAF800A0A9EBC0
:105E10000A09C1F85090D0F85090D1F850A0D1455F
:105E20000ED9D1F81490B9F1000F01D049691DE0E5
:105E30004FF00009C0F8149081614861002115E01D
:105E4000D1F81890B9F1000F07D14FF00009C0F850
:105E5000189041618861106007E0D1F818C0C0F85F
:105E600018C04161CCF81400886100210029C8D114
:105E7000B2F8049009F10109A2F80490B2F8069072
:105E8000B2F804A0D14503DAB2F80490A2F8069063
:105E9000C2614FF00009A5F8009000BF46E700007E
:105EA000F0000020846900087498002010B5C269D1
:105EB000BAB1002404651468844205D141691160B7
:105EC00039B100248C6104E0816943694B6103B1FD
:105ED0009961002444618461C461C4649488641E2F
:105EE000948010BD002006E0054A02EBC0010022AC
:105EF000CA80421C90B2034A12889042F4DB704779
:105F000074980020846900082DE9F05F4FF0000BC1
:105F100000BF00BF00BFFBF7BFF9834600BFFBF720
:105F200067FC00BF7A480078401C79490870084631
:105F30000078012801D1FEF793FC00BFFBF772FC4B
:105F400000BF5846FBF7ACF900BF00BF00BFFBF72E
:105F5000DDFC05466F480068401C6E490860084635
:105F600000686D490988B0FBF1F201FB12001FFACD
:105F700080FA6A4800EBCA08D8F80040002782E09F
:105F8000002C7FD0D4F8149094F83600082875D2ED
:105F9000DFE800F00408051B063D075000BF00BF06
:105FA00000BF6CE05B49E06C0968401A2065594904
:105FB000E06C0968884206D1002084F8360020464B
:105FC000FFF70EFA00E0012759E05249E06C09683A
:105FD000401A20654F49E06C0968884215D10020BD
:105FE000E065A4F86000FBF791FC20642046FEF712
:105FF00090F92046FFF7F4F900203434A070032014
:106000006070002004F8340900E0012737E04149BE
:10601000E06C0968401A20653E49E06C09688842D6
:1060200006D1042084F836002046FFF73FFF00E049
:10603000012724E03749E06C0968401A206535499A
:10604000E06C0968884217D10020E065A4F8600080
:10605000FBF75CFC20642046FEF75BF92046FFF767
:1060600025FF04203434A07003206070002004F861
:10607000340902E006E001E0012700E000BF00BFB4
:106080004C4600E00127002F3FF47AAFFBF73EFCBF
:10609000461B23480068B04201D22148066000BF79
:1060A00000BF00BFFBF7F8F8834600BFFBF7A0FB7B
:1060B00000BF17480078401E154908700846007850
:1060C000D0B9FEF7DBFB1748008800280BDD00BFC6
:1060D000FBF7A8FB00BF5846FBF7E2F800BF00BF84
:1060E000FEF790FB11E000BFFBF79CFB00BF58469A
:1060F000FBF7D6F800BF08E000BFFBF793FB00BF3B
:106100005846FBF7CDF800BF00BF00BFBDE8F09FC9
:10611000B8000020F0000020846900087498002076
:10612000F40000207C0000201CB500BF0EE001AB95
:106130006A4600210846FCF72FFEBDF8040028B986
:1061400003480078012801D1FFF7DEFEEFE70000E9
:106150007000002010B58AB0044600201D49086078
:106160001D490860FFF7B0FD1C48006820B947F2E0
:10617000122020800AB010BD19480068194909682A
:10618000884203D247F213202080F3E716480078B4
:106190001F2803D347F211202080EBE70B200021BA
:1061A00005910A46CDE9070406910D4800680F499C
:1061B00009680A4B1B68CDE90131CDE903020A48A1
:1061C000007800230A4A0BA100900F48FCF7CCF995
:1061D00000BFCFE7F0000020F40000207469000841
:1061E0007C6900086869000870690008786900081F
:1061F0002961000875432F4F532D4949492054699F
:10620000636B205461736B00689F002070B58AB087
:1062100004460020314908603148006840B13148E7
:1062200000682F490968B0FBF1F02F49086006E0CB
:106230002C4800680A21B0FBF1F02B4908602A487D
:1062400000682A4908600020294908602949086037
:10625000002508E0284800EBC5060020B080F0804B
:106260003060681C85B2254800888542F2DB2448EE
:10627000006820B947F2473020800AB070BD21483D
:10628000006821490968884203D247F248302080DB
:10629000F3E71E4800781F2803D347F246302080DA
:1062A000EBE70B2000210591CDE907040691084694
:1062B00014490968164A1268114B1B68CDE901326E
:1062C000CDE90310114800780023124A12A1009072
:1062D0001748FCF749F900BFCFE70000F80000209D
:1062E000906900086C690008080100200C0100207A
:1062F0000401002000010020FC9A0020A46900088D
:10630000946900089C690008686900088C690008A5
:10631000986900082964000875432F4F532D494997
:10632000492054696D6572205461736B0000000050
:1063300030A00020F0B50C46022680F82A60012C1F
:1063400005D12D4F466A3F683E4486610CE0066ADF
:106350002EB9294F466A3F683E44866104E0264FC5
:10636000066A3F683E448661244F3F888669B6FBD3
:10637000F7FC07FB1C66B5B2214E06EBC50216689A
:1063800036B90026066146611060012696802CE031
:10639000194F86693F68F61BC661116820E0164FE9
:1063A0008E693F68F61BCE61C669CF69BE4209D9C6
:1063B0000E690EB1096913E00026066141610861AA
:1063C00000210DE04E692EB9002646610161486149
:1063D000106004E04B69436101611861486100216C
:1063E0000029DCD19688761C9680D6889788BE4294
:1063F00001DA9688D680F0BD04010020A469000867
:10640000FC9A0020002006E0054A02EBC0010022B1
:10641000CA80421C90B2034A12889042F4DB704753
:10642000FC9A0020A46900081CB500BF53E001AB32
:106430006A4600210846FCF7AFFC01A8FBF75EFEA8
:10644000FBF764FA064624480068401C22490860AD
:106450000846006821490988B0FBF1F201FB1200EF
:106460001FFA80FA1E4800EBCA08D8F800404FF027
:10647000000B21E0F4B1D4F810901749A069096825
:10648000884214D1204600F02FF8208D022804D134
:1064900001212046FFF74EFF02E0032084F82A0086
:1064A000A56815B12046E168A8474C4604E04FF0C6
:1064B000010B01E04FF0010BBBF1000FDAD0FBF74D
:1064C00025FA871B01A8FBF78DFE06480068B84235
:1064D00001D204480760AAE704010020A46900086B
:1064E000FC9A002000010020F0B5114E3688856925
:1064F000B5FBF6F706FB1755ACB20E4D05EBC40223
:106500001568854205D10169116039B100254D61D9
:1065100004E0416903690B6103B15961012580F809
:106520002A5000250561456195886D1E9580F0BD56
:10653000A4690008FC9A0020704700001CB5FBF716
:10654000DFFB01A90C48FBF70FFD044640F2255183
:106550000A48FAF759FE58B10848FAF7D5FD2070F5
:1065600001A800230122214600900548FCF786FB84
:10657000FBF7DCFB1CBD00002401002000380140BB
:10658000240D002000B585B001218803FAF7F0F949
:1065900001210420FAF7ECF94FF40070ADF8100077
:1065A00018208DF8130003208DF8120004A91A4852
:1065B000F9F728FF4FF48060ADF8100004208DF843
:1065C000130004A91448F9F71DFF4FF4E1300090BF
:1065D0000020ADF80400ADF80600ADF80800ADF8F5
:1065E0000C000C20ADF80A0069460C48FAF78FFC45
:1065F000FBF770FA012240F224410848FAF71FFD28
:10660000012240210548FAF73FFD01210348FAF72E
:106610000AFD05B000BD000000080140003801403F
:1066200000B58BB001210846FAF795F9144800909F
:1066300014480190002002904FF47A7003900020DB
:10664000049080200590002006900790202008905C
:106650004FF44050099000200A9069460A48FAF722
:10666000FFFA4FF48030FAF754FB01220821064864
:10667000FAF72DFB01210448FAF71DFB0BB000BD12
:1066800004380140B41600205800024000BFFEE765
:106690000FB4054B10B503A9044A029800F018F88E
:1066A00010BC5DF814FB0000896800082001002080
:1066B00002E008C8121F08C1002AFAD170477047CB
:1066C000002001E001C1121F002AFBD17047000029
:1066D0002DE9FF4F8BB09A460F460546002606E08F
:1066E00025280BD052460D9990476D1C761C2878B2
:1066F0000028F5D10FB03046BDE8F08F0024A04649
:106700000122604900E0044315F8013F203B02FAF2
:1067100003F00842F7D128782E2817D115F8010F79
:1067200044F004042A280ED06FF02F022878A0F13C
:10673000300109290AD808EB880102EB410100EB7E
:1067400001086D1CF2E757F8048B6D1C2878692846
:106750003ED006DC0028CDD063280BD0642804D1BD
:1067600036E0732810D075284BD052460D999047CB
:10677000761C85E017F8040B8DF8000000208DF8DA
:106780000100E946012003E057F8049B4FF0FF3079
:1067900061074FF0000401D40AE0641C44450DDA9F
:1067A0008442FADB19F804100029F6D106E0641CD3
:1067B0008442FCDB19F804100029F8D1264404E0D7
:1067C00019F8010B52460D999047641EF8D257E014
:1067D00001CF4FF00A0B002802DA40422D2102E0DF
:1067E000210504D52B218DF82410012103E0E107B8
:1067F00005D02021F7E70DF1200908910CE00021D8
:10680000F9E701CF4FF00A0BF9E75946FAF75AFDBD
:1068100001F1300209F8012D0028F6D1ADEB090095
:1068200000F1200B600701D44FF00108D84502DDCC
:10683000A8EB0B0000E000208046002406E009A839
:106840005246005D0D999047641C761C089884425E
:10685000F5DB04E0302052460D999047761CB8F1E4
:106860000001A8F10108F5DC05E019F8010B52461A
:106870000D999047761CBBF10001ABF1010BF4DCE4
:106880006D1C34E70928010070B504460D46E1B2DD
:106890000548FAF735FC00BF80210348FAF79EFC53
:1068A0000028F9D0204670BD0038014000B58BB0FB
:1068B0000AA8FBF743F90AA8032100220592CDE9B3
:1068C00006210890052080210C22094BCDE90132D8
:1068D000CDE9031002200023064A07A100900A48D0
:1068E000FBF742FE0AA8FBF7CDFC00200BB000BD71
:1068F0005C0200209D140008417070205461736B8D
:1069000020537461727400005C040020F48600203F
:106910000C0000008000000000020000F48800204D
:106920000A00000040010000348A00200C00000032
:106930008000000000020000348C00208000000075
:10694000000200006400000040060000348E0020B9
:106950000B0000000A000000749400200C000000EE
:10696000800000000002000040000000E80300007A
:106970000A000000749600200C0000008000000057
:106980000002000011000000880000000B00000061
:106990000A000000FC9800200C00000080000000AD
:1069A00000020000110000008800000090140000A8
:1069B00001010100785634120101000000000000BE
:1069C00000000000000000000000000000000000C7
:1069D00000000000000000000000000000000000B7
:1069E0000000000001010100280004002000010057
:1069F0000000000000000000000000000000000097
:106A00000000000000000000000000000000000086
:106A100001002000010010000C0010000000000028
:106A20000000000000000000000000000000000066
:106A30000000000000000000000000000000000056
:106A40000000000000000000010101002C00010115
:106A500020000C00200020000400040000000000C2
:106A60000000000000000000000000000000000026
:106A70000000000000000000000000000000000016
:106A80000000000000000000000000000101010102
:106A900030000100000000000000000000000000C5
:106AA00000000000000000000000000000000000E6
:106AB00000000000000000000000000001010101D2
:106AC00028000C0080010000040101010101010106
:106AD00001000101C80008000101000000000000E1
:106AE00000000000000000000000000000000000A6
:106AF0000000000000000000000000000000000096
:106B00000000000000000000000000000000000085
:106B10000101340008005D762A0600003C6B000885
:106B20000000002024010000B0660008606C00082E
:106B300024010020D4A30000C066000800A24A047B
:106B4000000000000000000001020304060708091D
:106B50000000000001020304010203040607080903
:106B60000204060800000000000000000000000011
:106B70000000000000000000000000000000000015
:106B80000000000000000000000000000000000005
:106B900000000000000000000000000000000000F5
:106BA00000000000000000000000000000000000E5
:106BB00000000000000000000000000000000000D5
:106BC00000000000000000000000000000000000C5
:106BD00000000000000000000000000000000000B5
:106BE00000000000000000000000000000000000A5
:106BF0000000000000000000000000000000000095
:106C00000000000000000000000000000000000084
:106C10000000000000000000000000000000000074
:106C20000000000000000000000000000000000064
:106C30000000000000000000000000000000000054
:106C40000000000000000000000000000000000044
:106C50000000000000000000000000000000000034
:0400000508000131BD
:00000001FF
