:020000040800F2
:1000000000B2002049010008871600089714000874
:10001000C5150008351200088160000800000000C6
:10002000000000000000000000000000FD5F00086C
:100030009514000800000000F30E0008C12F00080E
:100040006301000863010008630100086301000800
:1000500063010008630100086301000863010008F0
:1000600063010008630100086301000863010008E0
:1000700063010008630100086301000863010008D0
:1000800063010008630100086301000863010008C0
:1000900063010008630100086301000863010008B0
:1000A00063010008630100086301000863010008A0
:1000B0006301000863010008630100086301000890
:1000C0006301000863010008630100086301000880
:1000D0006301000863010008630100086301000870
:1000E0006301000863010008630100086301000860
:1000F0006301000863010008630100086301000850
:10010000630100086301000863010008630100083F
:10011000630100086301000863010008630100082F
:10012000630100086301000863010008630100081F
:10013000DFF810D000F0BAFE004800473D6200082A
:10014000AFF3008000B20020064880470648004711
:10015000FEE7FEE7FEE7FEE7FEE7FEE7FEE7FEE777
:10016000FEE7FEE749020008310100080CB5002057
:10017000019000906B48006840F480306949086045
:1001800000BF6848006800F4003000900198401CEF
:100190000190009818B90198B0F5A06FF1D16148AD
:1001A000006810F4003F02D00120009001E0002020
:1001B00000900098012842D15B48006840F0100090
:1001C000594908600846006820F0030008600846A6
:1001D000006840F002000860524840685149486099
:1001E0000846406848600846406840F480604860BF
:1001F0000846406820F47C1048600846406840F497
:10020000E81048600846006840F08070086000BF51
:100210004448006810F0007FFAD04248406820F05F
:100220000300404948600846406840F002004860CA
:1002300000BF3C48406800F00C000828F9D10CBD14
:1002400010B5FFF793FF10BD10B53648006840F0B9
:100250000100344908600846406834490840314983
:10026000486008460068324908402E490860084640
:10027000006820F4802008600846406820F4FE00F2
:1002800048604FF41F008860FFF7DAFF4FF000600E
:100290002849086010BD10B5002100200022214B24
:1002A0005B6803F00C0121B1042906D0082928D18C
:1002B00007E0214B214C236027E01F4B1F4C23609C
:1002C00023E0184B5B6803F47010164B5B6803F473
:1002D0008032022303EB904022B9194B4343174C61
:1002E00023600DE00F4B5B6813F4003F04D0144B08
:1002F0004343124C236003E00F4B43430F4C2360F6
:1003000003E00D4B0D4C236000BF00BF054B5B6845
:10031000C3F303130B4CE15C084B1B68CB40074C49
:10032000236010BD00100240002002400000FFF8D2
:10033000FFFFF6FE08ED00E000127A00000000204A
:1003400000093D000400002010B50446CA4884425C
:1003500008D10121042000F027FB0021042000F037
:1003600023FB46E0C548844208D10121082000F063
:100370001BFB0021082000F017FB3AE0C048844234
:1003800008D10121102000F00FFB0021102000F007
:100390000BFB2EE0BB48844208D10121202000F055
:1003A00003FB0021202000F0FFFA22E0B64884423F
:1003B00008D10121402000F0F7FA0021402000F090
:1003C000F3FA16E0B148844208D10121802000F000
:1003D000EBFA0021802000F0E7FA0AE0AC48844202
:1003E00007D10121801500F0DFFA0021A01500F0EF
:1003F000DBFA10BD10B50121084600F0D5FA002146
:10040000012000F0D1FA10BD2DE9F041024600258F
:100410000026002000230024002791F803C00CF0E0
:100420000F0591F803C01CF0100F03D091F802C023
:100430004CEA050591F800C0BCF1000F31D01468FA
:1004400000202BE04FF0010C0CFA00F3B1F800C0D3
:100450000CEA03069E4220D183004FF00F0C0CFAE9
:1004600003F7BC4305FA03FC4CEA040491F803C00B
:10047000BCF1280F06D14FF0010C0CFA00FCC2F8B9
:1004800014C00AE091F803C0BCF1480F05D14FF049
:10049000010C0CFA00FCC2F810C0401C0828D1D393
:1004A0001460B1F800C0BCF1FF0F34DD54680020C7
:1004B0002EE000F1080C4FF0010808FA0CF3B1F837
:1004C00000C00CEA03069E4221D183004FF00F0CBE
:1004D0000CFA03F7BC4305FA03FC4CEA040491F858
:1004E00003C0BCF1280F05D100F1080C08FA0CF884
:1004F000C2F8148091F803C0BCF1480F07D100F195
:10050000080C4FF0010808FA0CF8C2F81080401CE3
:100510000828CED35460BDE8F0814FF6FF7101800A
:10052000022181700421C170704702460020936847
:100530000B4201D0012000E000207047014688688E
:1005400080B2704702460020D3680B4201D00120E0
:1005500000E0002070470146C86880B27047016122
:100560007047416170470AB1016100E04161704725
:10057000C16070474FF480320A43826181618261B9
:1005800082698269704702460020424B18684FF624
:100590008073184040EA021008433E4B18607047D1
:1005A0003D49C8617047F0B50A4600230024002188
:1005B000002500F00046B6F1004F02D1354EF1693A
:1005C00001E0344E7168C0F3034583B200F4401675
:1005D000B6F5401F08D121F070612E4E766826F0E6
:1005E00070662C4F7E6012E000F48016B6F5801F16
:1005F00006D1032606FA05F4A14341F0706106E036
:10060000460D360103FA06F6B14341F0706122B19E
:10061000460D360103FA06F6314300F00046B6F106
:10062000004F02D11B4EF16101E01A4E7160F0BD26
:1006300030B500228B071C0F0F2303FA04F2154B71
:1006400008338C1053F824309343124C08348D1027
:1006500044F8253023468C1053F824308C07240F9F
:1006600000FA04F423430B4C08348D1044F8253071
:1006700030BD0A490860704700080140000C014085
:10068000001001400014014000180140001C01400E
:10069000002001400000014000002042DC00204218
:1006A000DD48006840F00100DB490860084640680A
:1006B000DA490840D849486008460068D8490840E7
:1006C000D54908600846006820F480200860084684
:1006D000406820F4FE0048604FF41F0088607047B7
:1006E000CD49096821F48031CB4A1160114609686F
:1006F00021F480211160B0F5803F03D0B0F5802F48
:100700000ED106E0C449096841F48031C24A116043
:1007100007E0C149096841F4A021BF4A116000E027
:1007200000BF00BF704710B5014600220023002023
:100730004A11012A02D1B84C236806E0022A02D1EC
:10074000B54C236A01E0B44C636A01F01F02012436
:1007500094401C4201D0012000E0002010BD38B5BB
:10076000002000900024002500BF3120FFF7DBFFB0
:1007700005460098401C00900098B0F5A06F01D08D
:10078000002DF2D03120FFF7CEFF08B1012400E0A8
:100790000024204638BD014600209F4A106820F002
:1007A000F80040EAC100106070479E490860704739
:1007B00002460020984B586820F47C1042EA01035E
:1007C0001843954B58607047964908667047014634
:1007D0000020914A506820F00300084350607047A1
:1007E0008D48406800F00C007047014600208A4A9E
:1007F000506820F0F0000843506070470146002028
:10080000854A506820F4E060084350607047014614
:100810000020814A506820F4605040EAC1005060D6
:10082000704729B17C4A527A02437B4B5A7204E0EA
:10083000794A527A8243784B5A7270477A490860F3
:10084000704701460020744A506820F44040084335
:10085000506070470021754A11706F4A82F820106D
:10086000012802D0042808D103E001216F4A117049
:1008700004E005216D4A117000E000BF00BF704721
:100880006B49086070476449096A0143624A116212
:100890007047674944390860704730B5002100222D
:1008A000002400235C4D6D6805F00C0121B1042982
:1008B00005D0082923D105E05E4D056022E05D4D9D
:1008C00005601FE0544D6D6805F47012524D6D685F
:1008D00005F48034022505EB92421CB9564D554370
:1008E00005600BE04C4D6D6815F4003F03D0524D90
:1008F0005543056002E04F4D5543056002E04D4D04
:10090000056000BF00BF444D6D6805F0F0010909A6
:100910004A4D6B5C0568DD4045603F4D6D6805F4F0
:10092000E061090A454D6B5C4568DD4085603A4DE4
:100930006D6805F46051C90A404D6B5C4568DD4047
:10094000C560354D6D6805F44041890B3C4D6B5CCD
:10095000C568B5FBF3F5056130BD29B12E4A526972
:1009600002432D4B5A6104E02B4A526982432A4BC1
:100970005A61704729B1284A92690243264B9A610D
:1009800004E0254A92698243234B9A61704729B15A
:10099000214AD2690243204BDA6104E01E4AD2693F
:1009A00082431D4BDA61704729B11B4AD26802436A
:1009B000194BDA6004E0184AD2688243164BDA60B9
:1009C000704729B1144A12690243134B1A6104E0BB
:1009D000114A12698243104B1A6170471449403919
:1009E000086070470F49C86470470B49C871704769
:1009F0000948406A40F080700749486270470146E4
:100A00000020054A92680A4201D0012000E000203F
:100A10007047014988727047001002400000FFF8DB
:100A2000FFFFF6FE00004242D80042422010024082
:100A30008004424200127A0000093D0014000020A8
:100A40002400002010B50446FB48844209D101214E
:100A50008803FFF7A9FF00214FF48040FFF7A4FFB0
:100A600032E0F648844209D101214804FFF7A9FF8A
:100A700000214FF40030FFF7A4FF25E0F048844246
:100A800009D101218804FFF79CFF00214FF4802049
:100A9000FFF797FF18E0EB48844209D10121C80411
:100AA000FFF78FFF00214FF40020FFF78AFF0BE0D4
:100AB000E548844208D101210805FFF782FF0021A3
:100AC0004FF48010FFF77DFF10BD2DE9F04786B091
:100AD00005460E460024A24600BFA1460027B08965
:100AE00000B100BF2F462C8A4CF6FF700440F088FE
:100AF00004432C82AC894EF6F3100440B08831894F
:100B00000843718908430443AC81AC8A4FF6FF4027
:100B10000440B0890443AC8201A8FFF7BEFEC6487A
:100B2000874202D1DDF810A001E0DDF80CA0A88911
:100B300010F4004F08D00AEBCA0000EB0A1031682D
:100B40004900B0FBF1F807E00AEBCA0000EB0A101D
:100B500031688900B0FBF1F86420B8FBF0F00401C3
:100B60002009642101FB1089A88910F4004F08D0E6
:100B7000322000EBC900B0FBF1F000F007000443A5
:100B800008E0322000EB09106421B0FBF1F000F026
:100B90000F0004432C8106B0BDE8F0874FF41651D6
:100BA000016000218180C18001810C2141810021EF
:100BB0008181704710B502460020108A4FF2FF0372
:100BC00018400B884C8823438C882343CC882343CC
:100BD0001843108210BD0021018041808180C180B6
:100BE000704721B1828942F40052828104E08289F7
:100BF0004DF6FF731A4082817047F0B5034600241A
:100C0000002600250020A1F510676A3F00D100BF33
:100C10001846C1F3421401F01F06012707FA06F532
:100C2000012C01D10C3004E0022C01D1103000E085
:100C300014301AB107682F43076002E00768AF431A
:100C40000760F0BD1AB1838A0B43838202E0838A76
:100C50008B4383827047028A4FF6F0731A400282F8
:100C6000028A0A430282704782894FF2FF731A4058
:100C7000828182890A438281704721B1828942F050
:100C80000202828104E082894FF6FD731A4082815C
:100C90007047028A4FF6DF731A400282028A0A43C3
:100CA0000282704721B1028A42F48042028204E04B
:100CB000028A4BF6FF731A4002827047C1F30802A2
:100CC0008280704701468888C0F308007047818998
:100CD00041F0010181817047028BD2B20283028B05
:100CE00042EA012202837047028B02F47F420283B0
:100CF000028B0A430283704721B1828A42F02002AC
:100D0000828204E0828A4FF6DF731A408282704743
:100D100021B1828A42F01002828204E0828A4FF678
:100D2000EF731A408282704721B1828A42F0080232
:100D3000828204E0828A4FF6F7731A4082827047FB
:100D400021B1828942F40042828103E08289C2F3A8
:100D50000E028281704721B1828A42F4006282824F
:100D600004E0828A4FF2FF731A4082827047828ABF
:100D70004FF6FB731A408282828A0A43828270474E
:100D800021B1828A42F00202828204E0828A4FF616
:100D9000FD731A408282704702460020B1F5007F41
:100DA00000D100BF13880B4201D0012000E00020D9
:100DB000704701F40072B2F5007F00D100BFCA4352
:100DC0000280704770B502460024002300250020F1
:100DD000A1F510666A3E00D100BFC1F3421501F0D3
:100DE0001F03012606FA03F3012D02D19689334031
:100DF00006E0022D02D1168A334001E0968A334084
:100E00000C12012606FA04F41688344013B10CB112
:100E1000012000E0002070BD10B500220023A1F5E4
:100E200010646A3C00D100BF0A1201249440A3B2AE
:100E3000DC43048010BD0000003801400044004045
:100E400000480040004C00400050004072B670471F
:100E500062B67047EFF3108072B6704780F3108867
:100E6000704730BF704720BF7047B0FA80F07047BE
:100E700090FAA0F0B0FA80F0704790FAA0F07047B6
:100E800030B50B46014600202022012409E021FA5A
:100E900002F59D4205D303FA02F5491B04FA02F557
:100EA0002844151EA2F10102F1DC30BD064C074DAD
:100EB00006E0E06840F0010394E80700984710342A
:100EC000AC42F6D3FFF738F9B0640008D0640008EC
:100ED00018484FF0FF010170002080F30988164880
:100EE000016881F3088815484FF08051016062B6AF
:100EF000FEE772B6EFF3098028B1203880E8F00FE2
:100F00000F490968086000B50E4880475DF804EB9A
:100F10000D480E490A78027009480D490A680260B6
:100F2000106890E8F00F203080F309884EF0040E2E
:100F300062B6704722ED00E01801002004ED00E0E9
:100F400010010020492B00089E0000209F00002077
:100F5000140100201FB50020029015E002AB002212
:100F600004210A4800F0C4FA28B103AA4FF4007122
:100F7000074800F04BFF03A8002114230A46CDE9DF
:100F80000010084601F0DAFEE8E700000018014012
:100F9000240100200EB5002600F03CF9054681E052
:100FA00002A801AB0022114600903F4800F020FE4D
:100FB00000F06AFA044601213C48FFF7C3FA20B169
:100FC00001213A48FFF7CDFA03E001213748FFF746
:100FD000C6FA00BF00BF00BFFFF73CFF064600BFD8
:100FE00000F0C4F900BF32480078401C3049087056
:100FF00008460078012801D103F07CF900BF00F019
:10100000CFF900BF3046FFF729FF00BF00BF00BF88
:1010100028A0019905F036F821462DA005F032F8F8
:101020003248B5FBF0F00199611AB1FBF0F739468F
:101030002FA005F027F800BF00BF00BFFFF70AFF91
:10104000064600BF00F092F900BF19480078401E24
:101050001749087008460078D0B903F059F92F48AD
:10106000008800280BDD00BF00F09AF900BF304671
:10107000FFF7F4FE00BF00BF03F00EF911E000BF60
:1010800000F08EF900BF3046FFF7E8FE00BF08E031
:1010900000BF00F085F900BF3046FFF7DFFE00BF5C
:1010A00000BF00BF7CE700002401002000100140C9
:1010B000B80000200D0AB7A2B2BCD0C5BAC5C1BFE6
:1010C000B5C4CAB1BCE4B4C1CAC7256400000000FD
:1010D0000D0ABDE2B3FDB5C8B4FDD7B4CCACB5C400
:1010E000CAB1BCE4B4C1CAC72564000040420F00C5
:1010F0000D0ABDD3CAD5B5BDD0C5BAC5C1BFD3EBE6
:10110000B7A2B2BCD0C5BAC5C1BFB5C4CAB1BCE4F0
:10111000CFE0B2EE256475730D0A00007C0000205C
:1011200070B58AB0064600F07DF800F085F800F052
:1011300071F8044624480068B4FBF0F5284601F035
:101140005FFF00F04BFA09A800F094FF00F0E2F80E
:1011500009AB00221DA1204800F0D8FC09A80321FA
:1011600000220592CDE90621089005204FF4806108
:1011700066221A4BCDE90132CDE90310032000238A
:10118000174A18A100901B4800F0FEFF09A8032190
:1011900000220592CDE90621089005204FF48061D8
:1011A0006622154BCDE90132CDE90310042000235E
:1011B000124A13A10090164800F0E6FF09A900208A
:1011C00001F038F90AB070BD0063000853656D4F37
:1011D000664B657900000000240100201406002001
:1011E000950F0008417070205461736B204C65644A
:1011F0003100000014160020DC160020550F0008F6
:10120000417070205461736B204B657900000000C1
:10121000DC26002000B585B06846FFF73EFB01984C
:1012200005B000BD10B500F05DF900F0B9F904F0AB
:10123000E7FE10BD00BFFEE710B500F0FBF800F0C0
:1012400003F800F0F3F810BD70B50026002018492F
:10125000088018490880184908601849086018492A
:1012600008601849086018490860002400BFFFF7AB
:10127000F1FD064600BF00250BE000201049086084
:1012800000F074F800F08CF80D4800680444681C05
:1012900085B2002DF1D00C48046000200849086098
:1012A0000849086000BF3046FFF7D8FD00BF70BD99
:1012B0002C0000202E0000203000002034000020F0
:1012C0003C00002040000020380000200146084675
:1012D000044A1268904203D9024A1268801A00E058
:1012E000002070473800002070B5002500BFFFF7D0
:1012F000B1FD054600BF0648046800BF2846FFF759
:10130000ADFD00BF2046FFF7E1FF0646304670BD49
:101310003C00002070B50025FFF7E6FF044600BF43
:10132000FFF798FD054600BF00200449086000BF94
:101330002846FFF793FD00BF204670BD3C0000200B
:1013400070B5002500BFFFF785FD054600BF0648C4
:10135000046800BF2846FFF781FD00BF2046FFF765
:10136000B5FF0646304670BD4000002010B5094864
:101370000088401C074908800748008818B900F019
:1013800083F80649086004480088401C0249088028
:1013900010BD00002C0000202E0000203000002096
:1013A00010B50F480088401E0D4908800846008887
:1013B000A0B900F069F80B490860084600680A49BE
:1013C0000968441A09480068A04201D2074804602D
:1013D00007480068A04201D20548046010BD000023
:1013E0002E00002034000020300000203C000020AF
:1013F0004000002010B5002400BF00BFFFF72AFD09
:10140000044600BFFFF7B2FF00BF1021064800F0FE
:10141000DBF800BFFFF7C4FF00BF2046FFF71EFD4B
:1014200000BF00BF10BD0000A427002010B5FFF7CB
:10143000E1FF10BD10B500200249086000F00AF875
:1014400010BD00002800002001490860704700001E
:101450002800002010B50A48006840F08070084954
:1014600008600020074948600846006840F0010015
:101470000860FFF7CFFE04462046FFF7E5FF10BDEA
:10148000FCED00E0001000E00148406870470000FB
:10149000001000E0704700BFFEE7000008B5012122
:1014A0004020FFF767FA0420ADF8000048208DF8CF
:1014B000030069460148FEF7A7FF08BD0018014078
:1014C00008B501214020FFF755FA0820ADF80000CB
:1014D00048208DF8030069460148FEF795FF08BDD6
:1014E0000018014010B5FFF7D9FFFFF7E9FF10BD65
:1014F0002DE9FE430746884614461D464FF0000975
:1015000041463846FFF711F80646A64211D102A817
:10151000002114230A46CDE90010084601F00EFC14
:1015200041463846FFF701F80646A64201D10120A0
:101530002870A64205D02878012802D181460020D3
:1015400028704846BDE8FE8308B501211020FFF74A
:1015500011FA0120ADF8000010208DF803000320DF
:101560008DF8020069460D48FEF74EFF012110205C
:10157000FFF700FA0220ADF8000069460748FEF7C1
:1015800043FF01211020FFF7F5F90420ADF800001A
:1015900069460248FEF738FF08BD00000010014010
:1015A00010B5FFF7D1FF01210548FEF7D8FF022152
:1015B0000348FEF7D4FF04210148FEF7D0FF10BD19
:1015C0000010014000BFFEE730B505460C4622463C
:1015D0000021284600F026F830BD00000D480E49D5
:1015E00001600146416000218160C160016141618B
:1015F0008161C16101620163C16241620749816326
:10160000C1634FF4D841016441640146044A11604A
:1016100070470000B427002048454150FC270020B7
:10162000440000202DE9F04103460C4617460FB94F
:10163000BDE8F08103B9FBE70025002202E02D029E
:101640002543521C042AFAD3384603F0030C1946EA
:10165000BCF1000F08D0624603E001F8014B401EC8
:10166000521C08B1042AF8D30E4601E020C6001F20
:101670000428FBD2314602E001F8014B401E00284D
:10168000FAD100BFD4E770477047000010B5034897
:10169000006810B101480068804710BD5400002068
:1016A00070B5044600F0C2F8002048490870484967
:1016B0000870484908704849086048490860484926
:1016C0000870484908704849087048490860484906
:1016D00008604849086048490870484800680A217D
:1016E000B0FBF1F0464908604648006858B14648EA
:1016F000056845B14348066803E0761E002028606F
:101700002D1D002EF9D10020404908604049086095
:101710004049086040490860404908604049086005
:10172000404908604049087002F000FC02F0FEFCED
:10173000204601F057FD208800B170BD204602F020
:1017400071F9208800B1F8E7204602F077F9208887
:1017500000B1F2E7204602F05BFA208800B1ECE726
:10176000204602F013FC208800B1E6E7204602F094
:101770007BFE208800B1E0E7204603F0E5F92088F1
:1017800000B1DAE7204602F0B9F8208800B1D4E7CA
:10179000204601F0C3FE208800B1CEE7204604F0C9
:1017A0003BFA208800B1C8E7204603F011F92088F1
:1017B00000B1C2E7204604F08BFA208800B1BCE7F4
:1017C00001F036FCFFF760FF00BFB6E768000020BD
:1017D00070000020B800002010010020140100203B
:1017E0009E0000209F000020A0000020AC000020F0
:1017F000B0000020B4000020C000002000630008FA
:10180000BC000020D0620008CC6200084800002024
:101810004C00002050000020540000205800002000
:101820005C00002060000020EE0000200A4A1168E1
:10183000002002E0002204C1401C084A12689042C5
:10184000F8D3054A1268054B1B6802EB8302121F8E
:10185000034B1A6070470000CC620008D062000899
:101860001801002010B500242E480078012800D06F
:1018700010BD00BFFFF7EEFA044600BF2A4800780B
:1018800028B900BF2046FFF7E9FA00BFF0E7264875
:101890000078401E2449087008460078002805DDBD
:1018A00000BF2046FFF7DAFA00BFE1E71F480078E3
:1018B000002805DD00BF2046FFF7D0FA00BFD7E7BC
:1018C00002F020FB1A4908700846007800EB40003F
:1018D000184951F82000184908600846006817495F
:1018E0000968884205D100BF2046FFF7B7FA00BF5C
:1018F000BEE711480068D0F89000401C0E49096806
:10190000C1F890000E480068401C0D4908604FF077
:1019100080500C49086000BF2046FFF79FFA00BFC7
:1019200000BFA5E77000002068000020B80000207C
:101930009F00002028AA0020140100201001002090
:10194000E400002004ED00E010B5002420480078F9
:10195000002800DD10BD1F480078002800DDF9E7F1
:1019600000BFFFF777FA044600BF02F0CBFA1A492E
:1019700008700846007800EB4000184951F8200034
:10198000174908600846006816490968884205D169
:1019900000BF2046FFF762FA00BFDBE7104800688F
:1019A000D0F89000401C0E490968C1F890000E481C
:1019B0000068401C0C4908604FF080500B490860DB
:1019C00000BF2046FFF74AFA00BF00BFC2E7000091
:1019D00068000020B80000209F00002028AA0020F6
:1019E0001401002010010020E400002004ED00E0BC
:1019F00070B5044600251A480078002803DD46F635
:101A00006250208070BD17480078012803D045F649
:101A100089602080F6E714480078FA2803DB45F255
:101A200009202080EEE700BF00BFFFF713FA05464C
:101A300000BFFFF79BFC00BF0B480078401C0A4921
:101A4000087002F057FC00BFFFF7AAFC00BF284651
:101A5000FFF704FA00BF00BF0020208000BFD1E7DD
:101A60006800002070000020B800002070B5044617
:101A7000002523480078002803DD46F665502080C5
:101A800070BD20480078012803D045F68960208089
:101A9000F6E71D48007818B946F664502080EFE755
:101AA00000BF00BFFFF7D6F9054600BFFFF75EFC99
:101AB00000BF15480078401E13490870084600789A
:101AC00000280CDD00BFFFF76BFC00BF2846FFF7C6
:101AD000C5F900BF00BF46F663502080D0E702F092
:101AE00017FC00BFFFF75CFC00BF2846FFF7B6F904
:101AF00000BF00BFFFF728FF0020208000BFBFE726
:101B00006800002070000020B80000202DE9F0419E
:101B100004460E4617461D464FF000083048007830
:101B2000002804DD42F6E1602880BDE8F0811CB9A0
:101B300045F6C3502880F8E700BF00BF00BFFFF79D
:101B400089F9804600BFFFF711FC00BF25480078E7
:101B5000401C2449087008460078012801D102F091
:101B6000C9FB00BFFFF71CFC00BF4046FFF776F93A
:101B700000BF00BF00BF1C482060276200206062D9
:101B8000666004F1080002F0D7F8204602F054FC29
:101B900016480088401C1549088000BF00BF00BFE0
:101BA000FFF758F9804600BFFFF7E0FB00BF0D4884
:101BB0000078401E0B4908700846007808B902F00A
:101BC000A7FB00BFFFF7ECFB00BF4046FFF746F95D
:101BD00000BF00BF00BF0020288000BFA5E70000B5
:101BE00068000020B800002053454D41C800002087
:101BF0002DE9F04788B00646894690461C46109D60
:101C00004FF0000A7D480078002806DD46F2AE104D
:101C10002880002008B0BDE8F08726B945F6C350FB
:101C200028800020F6E7B8F1000F03D0B8F5004F88
:101C300002D100E000BF04E045F6256028800020C6
:101C4000E8E700BF6E493068884204D045F6C450CA
:101C500028800020DEE70CB10020206000BF00BF1C
:101C6000FFF7F8F8824600BFFFF780FB00BF306A3D
:101C700098B1306A401E30620CB1706A2060376AD9
:101C800000BFFFF78DFB00BF5046FFF7E7F800BF2E
:101C900000BF002028803846BCE708F4004070B13F
:101CA000376A00BFFFF77CFB00BF5046FFF7D6F84E
:101CB00000BF00BF46F2B01028803846AAE751485E
:101CC000007800280DDD00BFFFF76AFB00BF50461B
:101CD000FFF7C4F800BF00BF46F66350288000201D
:101CE00098E700BF47480078401C464908700846FE
:101CF0000078012801D102F0FDFA00BFFFF750FB88
:101D000000BF5046FFF7AAF800BF00BF00BF4B4618
:101D100006223146684601F087FF00BF00BF00BFC2
:101D2000FFF798F8824600BFFFF720FB00BF354859
:101D30000078401E334908700846007808B902F060
:101D4000E7FA00BFFFF72CFB00BF5046FFF786F80D
:101D500000BF00BF00BFFFF7F7FD00BF00BFFFF7E8
:101D600079F8824600BFFFF701FB00BF26480068F4
:101D700090F8350030B101280CD002281AD0032881
:101D800021D110E01CB120480068006C20600020C8
:101D9000288026E01CB11C480068006C206046F2D8
:101DA000A91028801DE00CB10020206047F2D92046
:101DB000288016E01CB114480068006C206045F6CD
:101DC000C25028800DE046F62E60288000BFFFF745
:101DD000E7FA00BF5046FFF741F800BF00BF002000
:101DE00018E700BF376A00BFFFF7DAFA00BF5046B6
:101DF000FFF734F800BF00BF38460BE7680000204B
:101E000053454D41B8000020100100202DE9FF414D
:101E100005460F46144635B945F6C35020800020CC
:101E200004B0BDE8F0814FB1B7F5007F07D0B7F53A
:101E3000004F05D0B7F5024F04D102E000BF00BF4C
:101E400000BF04E045F6256020800020E8E700BFE1
:101E500012492868884204D045F6C45020800020EA
:101E6000DEE7FFF711FB06460D48007800280CDD81
:101E70000020034602462946CDE9017603940090EE
:101E8000064801F083FB0020CAE723463246394664
:101E9000284602F0F5FA80464046C1E753454D41D9
:101EA0006800002010B5044612480078E8B902F036
:101EB00029F81149087008460078104908700E4842
:101EC000007800EB40000E4951F820000D490860F1
:101ED000084600680C490860012006490870FEF7B2
:101EE000F7FF43F69920208002E045F68A602080C3
:101EF00010BD0000700000209F0000209E00002008
:101F000028AA002014010020100100202DE9F04132
:101F100007464FF0000800BF00BFFEF79BFF80465A
:101F200000BFFFF723FA00BF002047490860474978
:101F30000880474908804749086047490860474981
:101F4000086047490860474908604749088100BF61
:101F5000FFF726FA00BF4046FEF780FF00BF00BF34
:101F600000BF00BFFEF776FF804600BFFFF7FEF917
:101F700000BF3E48046800BFFFF712FA00BF4046AA
:101F8000FEF76CFF00BF00BF26E000BF00BFFEF7FA
:101F900061FF804600BFFFF7E9F900BF00207834F9
:101FA000E063206420602063A061A082E082606220
:101FB000A062FFF769FA2062783C04F16406002011
:101FC000B081D4F8C04000BFFFF7EAF900BF404637
:101FD000FEF744FF00BF00BF002CD6D100BF00BFFA
:101FE000FEF738FF804600BFFFF7C0F900BF20486A
:101FF000056800BFFFF7D4F900BF4046FEF72EFF8B
:1020000000BF00BF16E000BF00BFFEF723FF804601
:1020100000BFFFF7ABF900BF05F120060020B0813B
:10202000AD6900BFFFF7BCF900BF4046FEF716FFE1
:1020300000BF00BF002DE6D103F0B6FC03F044FF63
:1020400000203880BDE8F081840000207E00002060
:10205000CE000020E0000020F4000020000100205D
:102060006C000020B00000201CAA0020E800002026
:10207000A4000020F8B5044600266946364800F062
:1020800033FDBDF8000018B1BDF800002080F8BD98
:102090006A460021022000F0A9FDBDF8000018B139
:1020A000BDF800002080F2E700BF00BFFEF7D2FEBF
:1020B000064600BFFFF75AF900BF00202749086015
:1020C00000BFFFF76DF900BF3046FEF7C7FE00BF47
:1020D00000BF00252248006822490968884205D9C6
:1020E0001F4800681F490968B0FBF1F525B91C4875
:1020F00000680A21B0FBF1F56A460021284600F08D
:1021000075FD6946144800F0A5FABDF8000018B145
:10211000BDF800002080BAE700BF00BFFEF79AFEBE
:10212000064600BFFFF722F900BF00200E490860F5
:102130000A4800680D49086001200D49087000BF79
:10214000FFF72EF900BF3046FEF788FE00BF00BF44
:102150000020208000BF9AE738AD0020D00000208A
:1021600000630008E8620008E0000020D4000020BE
:10217000DC00002010B50348006810B10148006879
:10218000804710BD580000202DE9FF4F87B004465E
:102190009046DDE91BA5DDE91496179F002003900A
:1021A00095480078002805DD47F24A1028800BB0DA
:1021B000BDE8F08F1CB947F2AD102880F7E7B8F101
:1021C000000F03D147F24F102880F0E71EB946F602
:1021D0002F602880EBE789480068874203D246F6E3
:1021E00030602880E3E71698B84203D346F63160A2
:1021F0002880DCE7B9F1200F03D346F27320288052
:10220000D5E7B9F1000F06D17D48844203D046F2EC
:1022100073202880CBE7B9F11F0F06D1794884429B
:1022200003D046F273202880C1E7204602F09CFCD0
:10223000002028800AF0010090B10AF0020078B175
:1022400005960020069008E0002105980160059899
:10225000001D05900698401C06900698B842F3D3DE
:10226000169806EB80000490CDE9007A324640468D
:10227000049B0A9900F0D8FB0590C4F828800A98BE
:10228000E0620898206284F83790059820600498EE
:10229000A06019986065199818B95B480068A06536
:1022A00001E01998A0651A9860606662A763A4F8B7
:1022B0003CA04FF0000B08E0002104F17C0040F846
:1022C0002B100BF1010000F0FF0BBBF1000FF3D05E
:1022D00004F16400189901F011FC204600F09EF80A
:1022E00000BF00BF00BFFEF7B5FD039000BFFFF7C2
:1022F0003DF800BF45480078401C44490870084636
:102300000078012801D101F0F5FF00BFFFF748F880
:1023100000BF0398FEF7A2FD00BF00BF00BF94F806
:10232000370001F00FFE204601F048FF204602F082
:10233000D1FB37480088401C354908803548007873
:10234000012837D000BF00BF00BFFEF783FD039018
:1023500000BFFFF70BF800BF2C480078401E2B4948
:10236000087008460078D0B901F0D2FF2A480088EA
:1023700000280BDD00BFFFF713F800BF0398FEF73E
:102380006DFD00BF00BF01F087FF11E000BFFFF748
:1023900007F800BF0398FEF761FD00BF08E000BF2B
:1023A000FEF7FEFF00BF0398FEF758FD00BF00BF19
:1023B00000BFFCE600BF00BF00BFFEF74BFD03906F
:1023C00000BFFEF7D3FF00BF10480078401E0F4942
:1023D00008700846007808B901F09AFF00BFFEF7C0
:1023E000DFFF00BF0398FEF739FD00BF00BF00BF4D
:1023F000FFF7AAFA00BFDAE668000020FC620008D6
:1024000054A900208CA80020BC000020B8000020A7
:10241000EC000020700000207C00002010B5044675
:102420000348006818B1204601490968884710BD73
:102430004800002070B504460D4600267848007814
:10244000002803DD47F24E10288070BD7548844295
:1024500003D147F24C102880F7E77348844203D138
:1024600047F24D102880F0E79CB900BF00BFFEF78F
:10247000F1FC064600BFFEF779FF00BF6B48046819
:1024800000BFFEF78DFF00BF3046FEF7E7FC00BF40
:1024900000BF00BF00BF00BFFEF7DCFC064600BF68
:1024A000FEF764FF00BF62480078401C6049087076
:1024B00008460078012801D101F01CFF00BFFEF79B
:1024C0006FFF00BF3046FEF7C9FC00BF00BF00BF72
:1024D00094F8360008282DD2DFE800F004090E1029
:1024E000080A0F11204601F0A9FE5EE05DE000BF82
:1024F000204603F03DFA58E000BF00BF00BF204671
:1025000003F036FA94F83400082810D2DFE800F01F
:1025100004070508090A0B0600BF00BF08E000BF5A
:1025200000BF00BF00BF204601F03EFC00E000BF3E
:1025300000BF3AE000BF00BF00BFFEF78BFC0646BD
:1025400000BFFEF713FF00BF39480078401E38492E
:10255000087008460078D0B901F0DAFE35480088E6
:1025600000280BDD00BFFEF71BFF00BF3046FEF763
:1025700075FC00BF00BF01F08FFE11E000BFFEF749
:102580000FFF00BF3046FEF769FC00BF08E000BF48
:10259000FEF706FF00BF3046FEF760FC00BF00BF3D
:1025A00000BF46F62D6028804FE700BF04F16400AD
:1025B00001F082FA204600F041F8204602F0A2FA2B
:1025C0001D480088401E1C490880204602F0CCFAB5
:1025D000FF2084F8360000BF00BF00BFFEF73AFCC2
:1025E000064600BFFEF7C2FE00BF11480078401E3D
:1025F0000F4908700846007808B901F089FE00BF4D
:10260000FEF7CEFE00BF3046FEF728FC00BF00BF3D
:1026100000BF00202880FFF797F900BF15E70000F2
:10262000680000208CA8002054A900201001002080
:10263000B80000207C000020EC00002010B504460B
:102640000348006818B1204601490968884710BD51
:102650004C0000207FB504460D46002600BF00BF99
:10266000FEF7F8FB064600BFFEF780FE00BF1CB178
:102670001748006884420CD100BFFEF791FE00BFEE
:102680003046FEF7EBFB00BF00BF47F25710288033
:102690007FBD00BFFEF784FE00BF3046FEF7DEFBC5
:1026A00000BF00BF0B48007800280BDD0020009021
:1026B0000190034602462146CDE90205064800F096
:1026C00065FFE5E72946204602F0FAFB00BFDFE799
:1026D00010010020680000205452455310B50446F4
:1026E0000348006818B1204601490968884710BDB1
:1026F000500000202DE9F04780460E4614461D4646
:102700004FF000098C480078002805DD46F2AE1035
:1027100028800020BDE8F0871EB1B6F5004F02D139
:1027200000E000BF04E045F6256028800020F1E7C6
:1027300000BF0CB10020206000BF00BFFEF78AFB85
:10274000814600BFFEF712FE00BF7C480068406C67
:10275000B8B37A480068406C401E784909684864FC
:1027600076480068476C1CB174480068006C2060B3
:10277000FEF78AFE71490968096C401A6F490968B9
:10278000C1F8A4006D480068D0F8A8006B4909683A
:10279000D1F8A410884207D268480068D0F8A40095
:1027A00066490968C1F8A80000BFFEF7F9FD00BF3F
:1027B0004846FEF753FB00BF00BF00202880384684
:1027C000A8E7FFE706F4004068B100BFFEF7E8FDA8
:1027D00000BF4846FEF742FB00BF00BF46F2B01004
:1027E0002880002096E75648007800280DDD00BFBD
:1027F000FEF7D6FD00BF4846FEF730FB00BF00BF26
:1028000046F663502880002084E700BF4C480078DB
:10281000401C4B49087008460078012801D101F09E
:1028200069FD00BFFEF7BCFD00BF4846FEF716FB82
:1028300000BF00BF00BF434607220021084601F049
:10284000F3F900BF00BF00BFFEF704FB814600BFE5
:10285000FEF78CFD00BF3A480078401E38490870EA
:102860000846007808B901F053FD00BFFEF798FD57
:1028700000BF4846FEF7F2FA00BF00BF00BFFFF7F7
:1028800063F800BF00BFFEF7E5FA814600BFFEF720
:102890006DFD00BF2948006890F8350020B101287F
:1028A00026D0032834D12CE0FCB124480068006C09
:1028B0002060FEF7E9FD21490968096C401A1F49AB
:1028C0000968C1F8A4001D480068D0F8A8001B4999
:1028D0000968D1F8A410884207D218480068D0F8D7
:1028E000A40016490968C1F8A8000020288013E058
:1028F0001CB112480068006C206046F2A9102880C4
:102900000AE00CB10020206047F2D920288003E0C3
:1029100046F62E60288000BF00BF08480068476C5C
:1029200000BFFEF73DFD00BF4846FEF797FA00BF27
:1029300000BF3846EEE600006800002010010020CD
:10294000B80000202DE9F04705460E4617461C4604
:102950004FF0000A32480078002804DD47F2591091
:102960002080BDE8F0871EB946F2D5202080F8E728
:102970001FB946F2D5202080F3E700BF00BFFEF765
:1029800069FA824600BFFEF7F1FC00BF0DB9254889
:102990000568286878B900BFFEF702FD00BF504601
:1029A000FEF75CFA00BF00BF00203060386047F2DD
:1029B00052102080D5E795F83C0000F0010078B96E
:1029C00000BFFEF7EDFC00BF5046FEF747FA00BF20
:1029D00000BF00203060386047F254102080C0E70C
:1029E00000BFFEF7DDFC00BF5046FEF737FA00BF20
:1029F00000BF4FF00008D5F8249003E009F1040966
:102A000008F10108D9F800000028F7D0C6F80080C6
:102A1000A86BA0EB080038600020208000BFA0E772
:102A20006800002010010020F0B50446DDE90556DD
:102A300002EB85004FF0807C071F3846C7F800C0C6
:102A4000071F38463C60DFF89CC0071F3846C7F8B0
:102A500000C04FF0123C071F3846C7F800C04FF0C7
:102A6000033C071F3846C7F800C04FF0023C071F61
:102A70003846C7F800C0071F38463B60071F384676
:102A800039604FF0113C071F3846C7F800C04FF0BF
:102A9000103C071F3846C7F800C04FF0093C071F1D
:102AA0003846C7F800C04FF0083C071F3846C7F843
:102AB00000C04FF0073C071F3846C7F800C04FF072
:102AC000063C071F3846C7F800C04FF0053C071FFB
:102AD0003846C7F800C04FF0043C071F3846C7F817
:102AE00000C0F0BD3D5000087FB505460C461248B9
:102AF000854203D147F25B1020807FBD0F4885429D
:102B000003D147F25C102080F7E70D4800780028D9
:102B10000BDD002000900190034602462946CDE9D6
:102B20000204084800F032FDE7E72146284602F09B
:102B300065FD00BFE1E700008CA8002054A900203B
:102B4000680000205453555370B52448006810B1F4
:102B5000224800688047FEF797FC0446204800683A
:102B600020490968884215D01D480068D0F89800AF
:102B7000201A1B490968C1F8940019480068D0F868
:102B80009C0017490968D1F8941008441449096851
:102B9000C1F89C0013480068C0F89840FEF7BAFBE3
:102BA00005460F480068D0F8B400A84203D20C488C
:102BB0000068C0F8B4500A480068D0F8B8000A4964
:102BC0000968884205D20848006805490968C1F8C3
:102BD000B80000200449086070BD00005C000020BF
:102BE0001001002014010020B40000202DE9F04164
:102BF00005460E46144600274D480078002804DD9F
:102C000047F275202080BDE8F0814A48007800280E
:102C100003DD46F663502080F5E736B1022E05D07D
:102C2000042E0AD0082E09D101E000BF00BF1DB953
:102C300047F27E202080E6E704E003E045F62560C9
:102C40002080E0E700BF00BF00BF00BFFEF702F931
:102C5000074600BFFEF78AFB00BF36480078401CDD
:102C60003449087008460078012801D101F042FB80
:102C700000BFFEF795FB00BF3846FEF7EFF800BF38
:102C800000BF00BF01202C49096881F836002346A7
:102C9000324629462848006802F08CFD2088F0B1B1
:102CA00000BF00BF00BFFEF7D5F8074600BFFEF724
:102CB0005DFB00BF1F480078401E1E490870084693
:102CC000007808B901F024FB00BFFEF769FB00BFE4
:102CD0003846FEF7C3F800BF00BF00BF93E71648B1
:102CE000006801F0ABFA00BF00BF00BFFEF7B2F80A
:102CF000074600BFFEF73AFB00BF0E480078401EB3
:102D00000C4908700846007808B901F001FB00BFC3
:102D1000FEF746FB00BF3846FEF7A0F800BF00BF35
:102D200000BFFEF711FE0020208000BF6BE700000F
:102D300068000020B8000020100100202DE9FF5F8E
:102D400005460E4617469846DDE90EA40020009081
:102D500081480078002804DD47F275202080BDE816
:102D6000FF9F7E480078002803DD46F663502080F0
:102D7000F5E70AF00E0BBBF1000F09D0BBF1020F13
:102D800007D0BBF1040F10D0BBF1080F0ED101E04A
:102D900000BF00BFB8F1000F06D12FB926B91DB989
:102DA00047F27E202080DAE704E003E045F6256064
:102DB0002080D4E700BF2AF01E0008B1012000E007
:102DC000002003900398012803D145F62560208058
:102DD000C5E7CAF3001002900298C0B9B8F57A7F2F
:102DE00003D347F27B202080B9E73B2F03DD47F276
:102DF0007A202080B3E73B2E03DD47F27920208044
:102E0000ADE7632D12DD47F278202080A7E742F27C
:102E10000F70864203DD47F2792020809FE7B5F5E9
:102E20007A7F03DB47F27820208098E74C48D0F87F
:102E300000904FF4FA70B0FBF9F0404400FB09F049
:102E40004FF47A71B0FBF1F14FF461606843C6EB67
:102E5000061200EB8200384400FB09100190019833
:102E6000002873D000BF00BF00BFFDF7F3FF009044
:102E700000BFFEF77BFA00BF38480078401C374996
:102E8000087008460078012801D101F033FA00BF2C
:102E9000FEF786FA00BF0098FDF7E0FF00BF00BF15
:102EA00000BF01202F49096881F8360023465A46A1
:102EB0002C480199006802F07DFC2088F0B100BF29
:102EC00000BF00BFFDF7C6FF009000BFFEF74EFA3F
:102ED00000BF22480078401E20490870084600784C
:102EE00008B901F015FA00BFFEF75AFA00BF0098C2
:102EF000FDF7B4FF00BF00BF00BF30E7194800680E
:102F000001F09CF900BF00BF00BFFDF7A3FF0090D8
:102F100000BFFEF72BFA00BF10480078401E0F4993
:102F200008700846007808B901F0F2F900BFFEF712
:102F300037FA00BF0098FDF791FF00BF00BF00BF48
:102F4000FEF702FD0020208003E0FFE747F27E202D
:102F5000208000BF03E7000068000020B8000020C8
:102F6000006300081001002010B586B000F01EF8C4
:102F7000FEF78AFA044605A800210091CDE9011464
:102F800003900748007800EB4000064A02EB8001FE
:102F900000231A46044800F0F9FA06B010BD0000FC
:102FA0009E00002028AA00205449434B10B5034836
:102FB000006810B101480068804710BD6000002023
:102FC00010B5002400BF00BFFDF744FF044600BF5A
:102FD000FEF7CCF900BF09480078401C074908708B
:102FE00000BFFEF7DDF900BF2046FDF737FF00BF49
:102FF00000BFFFF7B9FFFEF735FC10BD68000020E9
:1030000001464A1E4FF0E0235A61084A106820F03A
:103010007F4000BF10601A46126942F005021A6133
:103020001A46126942F002021A61704720ED00E070
:10303000254A2649264A274A2749284A2848294A0C
:10304000294A2A4A2A4A2B482B482C482C4A2D48E0
:103050002D4A2E482E4A2F482F4830483048314AB2
:10306000314A324A3248334A334A34483448354880
:103070003548364836483748374A384A384A394A50
:1030800039483A483A483B4A3B4A3C4A3C483D4822
:103090003D483E493E483F4A3F4A404A404A414AED
:1030A000414A424A4248434A434A44484448454ABE
:1030B000454A4648464A474A47484848484800BF64
:1030C00000BF00BF7047000044630008AC64000804
:1030D0004563000846630008486300084C63000825
:1030E000506300084D6300087863000879630008A6
:1030F0007A6300087C6300087E6300088063000830
:103100008263000884630008A4630008A6630008C3
:10311000A8630008AA630008AC630008AE63000857
:10312000B0630008DC630008DD630008DE630008AC
:10313000E0630008E2630008E3630008E46300085A
:10314000E6630008E8630008EA630008EC6300082F
:10315000EE630008F06300082064000821640008A2
:103160002264000823640008246400082664000820
:103170002864000850640008516400085264000884
:10318000536400085464000856640008586400083A
:103190005C6400085D6400085E6400085F64000809
:1031A00060640008616400086264000863640008E9
:1031B00064640008666400086764000868640008C6
:1031C0006A6400086C6400086D640008706400089C
:1031D000A4640008A5640008A6640008A8640008A8
:1031E000AA6400080021034A1160034A118001808B
:1031F00070470000880000208C0000202DE9F04F6F
:1032000085B00446894692469B46DDF8388000200A
:10321000009000BF00BFFDF71DFE009000BFFEF74D
:10322000A5F800BFBAF1000F0AD0BAF1010F0DD016
:10323000BAF5004F05D06FF40040504460B906E085
:1032400000BF206A40EA0900206216E000BF206A41
:1032500020EA0900206210E000BFFEF7A1F800BFDD
:103260000098FDF7FBFD00BF00BF45F62560A8F8FC
:103270000000002005B0BDE8F08F00BFC4F824B006
:1032800004F1080001900198008968B900BFFEF7B9
:1032900087F800BF0098FDF7E1FD00BF00BF0020E8
:1032A000A8F80000206AE5E700BF71480078401CDC
:1032B0006F49087008460078012801D101F01AF81A
:1032C00000BFFEF76DF800BF0098FDF7C7FD00BF17
:1032D00000BF00BF01980768BD6889E07868029068
:1032E00095F8880000F00F0003900398012821D082
:1032F00002282ED0042802D0082836D10EE0206AF9
:10330000D5F8801000EA0106D5F88000B04204D15B
:103310005A463146284600F0AFF863E0206AD5F8F7
:10332000801000EA010626B15A463146284600F0D0
:10333000A3F857E0D5F88000216A20EA0106D5F805
:103340008000B04204D15A463146284600F094F835
:1033500048E0D5F88000216A20EA010626B15A46E5
:103360003146284600F088F83CE000BF00BF00BFAF
:10337000FDF770FD009000BFFDF7F8FF00BF3C486F
:103380000078401E3A49087008460078D0B900F02D
:10339000BFFF3848008800280BDD00BFFEF700F8AB
:1033A00000BF0098FDF75AFD00BF00BF00F074FF9A
:1033B00011E000BFFDF7F4FF00BF0098FDF74EFDE0
:1033C00000BF08E000BFFDF7EBFF00BF0098FDF76E
:1033D00045FD00BF00BF00BF43F6FF20A8F8000076
:1033E000002047E700BF029F0FB1BD6800E0002545
:1033F000002D7FF473AF00BF00BF00BFFDF72AFDB3
:10340000009000BFFDF7B2FF00BF19480078401ED2
:10341000174908700846007808B900F079FF00BF26
:10342000FDF7BEFF00BF0098FDF718FD00BF00BF0D
:1034300000BF0AF4004008B9FEF786FA00BF00BFDB
:10344000FDF708FD009000BFFDF790FF00BF206A68
:10345000049000BFFDF7A4FF00BF0098FDF7FEFC3D
:1034600000BF00BF0020A8F80000049802E7000099
:10347000B80000207C00002070B504460E461546BA
:1034800034342665002060702070E560A078343CFC
:10349000082816D2DFE800F0040508090706101115
:1034A00000BF00BF00BF0DE000BF204601F0FAFCE6
:1034B000002084F8360005E000BF042084F83600C0
:1034C00000E000BF00BF204600F06EFC70BD0000B1
:1034D000002400BF1DE000BF00BFFDF7BBFC044699
:1034E00000BFFDF743FF00BF0A480068401C0949C0
:1034F000086009480068401C0749086000BFFDF7E4
:103500004FFF00BF2046FDF7A9FC00BF00BFFEF73C
:10351000BDF8E0E764000020D000002010B58AB0BC
:10352000044600200E4908600B2000210591CDE9DA
:103530000704069108460B4909680B4A12680B4BB1
:103540001B68CDE90132CDE903101F200023084A92
:1035500008A100900C48FEF717FE0AB010BD00004D
:1035600064000020A8620008A4620008A0620008AD
:10357000D134000875432F4F532D494949204964E0
:103580006C65205461736B008CA800202DE9F84F06
:1035900004460D4616461F46DDE90BABDDF82890C4
:1035A000DDF834800020009000BF00BFFDF752FC22
:1035B000009000BFFDF7DAFE00BF2C4800882C49C0
:1035C000098888423EDA29480088401C274908803B
:1035D000284800880988884203DA24480088254959
:1035E00008802548006804602348006885602248F8
:1035F0000068C6602048006807821F480068C0F85D
:1036000014901D480068A0F818A01B480068C0F876
:103610001CB0194800684068174908600120174924
:103620000881174808604860002000F08BFC1548AE
:10363000007818B113480078134908700020A8F8E2
:10364000000008E011480088401C1049088044F23E
:103650005360A8F8000000BFFDF7A2FE00BF00986D
:10366000FDF7FCFB00BF00BFBDE8F88F7C00002029
:10367000B46200087E0000207400002028AA002008
:1036800054A900209E000020A000002080000020FF
:103690003EB5594800680068584A811A904279D06E
:1036A0000FDC5749084400283ED056490844A8B1C9
:1036B00055490844002860D05449084400286AD17C
:1036C0003FE053480844002850D05249084400289D
:1036D00062D0514908440028F1D110E002A8464DBB
:1036E00000902D68EB69444D2D682A8B424D2D6862
:1036F0006969414D2D68A868FFF780FD7AE002A94D
:103700003D480068C0693C4DCDE900012D682B8B18
:10371000394D2D682A8A384D2D68E968364D2D6857
:10372000A86800F03FFC65E0334B1B68DA69324B58
:103730001B68198B304B1B68986802AB00F0A0FE29
:1037400058E002A92C480068C0692B4DCDE9000162
:103750002D682B8B284D2D682A8A274D2D68E96806
:10376000254D2D68A86801F067FA43E022490968F1
:10377000886802A901F0A4FB3CE01F4B1B68DA69D2
:103780001D4B1B68198B1C4B1B68986802AB01F022
:1037900061FC2FE007E02CE017490968886802A95E
:1037A00001F02CFF26E01D49097801EB41011C4A7C
:1037B00002EB810000F0CAFD0F48006802AB002157
:1037C000C269184801F046FC17480068401E1649B7
:1037D00008600846006858B9144800680860FDF79A
:1037E00053FE044602AB22460021114801F032FC90
:1037F00000E000BF00BF3EBD780000205449434BAD
:10380000ADBAB2BE0DF90BFAF2F8F7FF0006F6FFFB
:1038100000F7FDF700FFEFFF03FE0FFEA000002002
:1038200028AA002070AC00200C0100200801002014
:1038300038AD0020002700BF56E0002652E000BF50
:1038400000BFFDF707FB074600BFFDF78FFD00BF78
:103850002648008898B900202549088108604860FA
:1038600000F082FB00BFFDF79BFD00BF3846FDF76F
:10387000F5FA00BF00BFFEF767F8012632E000BF8F
:10388000FDF78EFD00BF3846FDF7E8FA00BF00BF28
:10389000FDF7FAFD0546FFF7FBFEFDF7F5FD441BBE
:1038A00014480068A04201D21248046000BF00BF63
:1038B000FDF7D0FA074600BFFDF758FD00BF0E48E0
:1038C000006840680C49086008480088401E0749A5
:1038D000088000BFFDF764FD00BF3846FDF7BEFA63
:1038E00000BF00BF002EAAD0A7E700007C00002088
:1038F00028AA00208400002078000020F0B589B0BC
:1039000005460020314908803148006820B944F25A
:103910005260288009B0F0BD2E480088022803DAE2
:1039200044F254602880F5E700202B4908602848BD
:1039300004682646203600270CE028482060002036
:10394000A060E060208260612083666020342036C1
:10395000781C87B21F4800888742EEDB203C1C4859
:10396000066866601E4806601E48066000201E4904
:1039700008801E4908801E48006818B944F2556046
:103980002880C7E71B4800681B490968884203D2A2
:1039900044F256602880BDE7032000210591CDE95F
:1039A0000705069113480068144A1268104B1B68FB
:1039B000CDE90301CDE9013200910B46104A11A176
:1039C0001748FEF7E1FB00BFA4E7000080000020DD
:1039D000B0620008B4620008840000204E4F4E45DB
:1039E00074000020780000207C0000207E00002071
:1039F000BC620008C4620008FC620008C0620008E3
:103A00003538000875432F4F532D494949204953F4
:103A100052205175657565205461736B000000007C
:103A200054A900200021034A1160034A118001803B
:103A300070470000900000209400002070B50146FF
:103A40001A4D2D681DB945F21E750D8070BD184DBB
:103A50002D881DB945F21D750D80F7E7134D2868B7
:103A60002A681032124D2D886D1EACB2002308E07A
:103A70000260002545600581C560103010325D1C74
:103A8000ABB2A342F4DB0025056045600581C5604B
:103A9000064D2D68074E3560054D2D88B5800025F3
:103AA000F58035810D8000BFD0E70000E06200089E
:103AB000D86200081CAA002010B5014648894B892D
:103AC000002B17DD0A680C4B1B6813600A4C4B680F
:103AD00023602346DB884C891B1B074CE38023466D
:103AE0009B884C892344044CA38000234B818B8109
:103AF0000B604B6010BD00001CAA00200181002259
:103B00004281828102604260704700002DE9F041ED
:103B10000D46DDE90674B0F80AC0B0F80880C44567
:103B200005DB46F2935CA4F800C0BDE8F081DFF845
:103B3000DCC0BCF804C0BCF1000F04D145F21D7C10
:103B4000A4F800C0F1E7DFF8C4C0DCF80010DFF82B
:103B5000BC80D1F800C0C8F800C0C446BCF804C09E
:103B6000ACF1010CA8F804C0C446BCF806C00CF1C6
:103B7000010CA8F806C0C446BCF808C0B8F8068016
:103B8000C44507DADFF884C0BCF806C0DFF87C80E3
:103B9000A8F808C0B0F80AC0BCF1000F0AD1016053
:103BA00041604FF0010CA0F80AC04FF0000CC1F8C2
:103BB00000C017E003F0100CBCF1000F07D106683D
:103BC000316001604FF0000CC1F800C004E0D0F893
:103BD00004C0C1F800C04160B0F80AC00CF1010C8B
:103BE000A0F80AC0B0F80CC0B0F80A80C44503DAE7
:103BF000B0F80AC0A0F80CC04D600A81CF604FF049
:103C0000000CA4F800C000BF8FE700001CAA002031
:103C10000021034A1160034A1180018070470000AF
:103C2000980000209C0000202DE9F04105460C463C
:103C300016461F461548006880F834600020134976
:103C4000096881F8350039461048006800F026FF01
:103C50006CB104F10808EC60012229460B480068A9
:103C600000F016F82946404600F06BF806E0002008
:103C700006490968C8870549096808630348016857
:103C8000204600F019F8BDE8F08100001001002086
:103C900010B5C287016300230AE000244C600C6069
:103CA0000C614C610C83CC61886020315C1CA3B238
:103CB0009342F2DB10BD000030B548B14568C1F851
:103CC000C45000F10804226893681D6AC56113E0BE
:103CD00091F83450022D02D0072D08D103E007A53A
:103CE000C1F8C45007E007A5C1F8C45003E008A517
:103CF000C1F8C45000BF00BF30BD00005461736BF9
:103D0000205100005461736B2053656D000000006A
:103D10002000000030B507A5C1F8C45000F1080428
:103D200022681AB193681D6AC56101E001A5C561E9
:103D300030BD0000200000000021016041600181D1
:103D40007047F0B58E6896F8375007893FB901275C
:103D5000078100274F600F600160416023E0078901
:103D60007F1C0781026806E0946894F83770AF42C0
:103D700000DD02E05268002AF6D100BF32B9002708
:103D80004F6043680B60596041600CE017682FB9C1
:103D9000116000270F604A60016004E013680B6047
:103DA0004A6059601160F0BD2DE9F0410446256B71
:103DB000E68F0AE0D5F80C8008F108072946384656
:103DC00000F00AF82035701E86B2002EF2DC0020CA
:103DD000E0872063BDE8F08110B50489012C03D190
:103DE00000240460446011E00C6824B94A6800248F
:103DF000146002600AE04C6824B90B6800245C601F
:103E0000436003E00B684A685A6013600489641ECB
:103E1000048100244C600C6010BD2DE9F843064677
:103E20000C4617469846089D94F83600082850D24C
:103E3000DFE800F00405080906072B2C00BF00BFCF
:103E400000BF47E000BF94F83400032807D1434681
:103E50003A4621463046009500F03FF803E0E7651A
:103E6000A4F86080256436B12046FFF79DFF214607
:103E70003046FFF74FFF204601F014F8002034349D
:103E8000A070607004F8340924E000BF94F8340096
:103E9000032807D143463A4621463046009500F0B4
:103EA0001CF803E0E765A4F860802564204601F073
:103EB0005FFD36B12046FFF777FF21463046FFF71A
:103EC00029FF04203434A0700020607004F8340905
:103ED00000E000BF00BFBDE8F883F0B50446059ED2
:103EE000086BCD8F0AE0C768A74204D10461426124
:103EF0000383C66104E020306F1EBDB2002DF2DCEA
:103F000000BFF0BD70B50025074C03E005F12000AF
:103F1000C5B2241D20680028F8D02068FCF7A5FF52
:103F20002844C5B2284670BD1C010020002004E0D2
:103F30000021034A42F82010401C0028F8D07047A6
:103F40001C01002030B5420900F01F030121C3F11C
:103F50001F04A140034C54F822400C43014D45F886
:103F6000224030BD1C01002030B5420900F01F0383
:103F70000121C3F11F04A140034C54F822408C439B
:103F8000014D45F8224030BD1C0100200021034AAC
:103F90001160034A1180018070470000A4000020D6
:103FA000A80000202DE9F04F85B007468A469346C9
:103FB0001C460020029000BF00BF00BFFCF74AFF74
:103FC000029000BFFDF7D2F900BF56480078401CB0
:103FD0005449087008460078012801D100F08AF998
:103FE00000BFFDF7DDF900BF0298FCF737FF00BF07
:103FF00000BF00BF07F10806308900284CD104F04B
:10400000100010B94FF0000801E04FF01008DDE992
:104010000E0143465A46CDE90001514607F1200002
:10402000FFF774FD00BF00BF00BFFCF713FF029055
:1040300000BFFDF79BF900BF3A480078401E3949A0
:10404000087008460078D0B900F062F93648008858
:1040500000280BDD00BFFDF7A3F900BF0298FCF7B5
:10406000FDFE00BF00BF00F017F911E000BFFDF733
:1040700097F900BF0298FCF7F1FE00BF08E000BF0F
:10408000FDF78EF900BF0298FCF7E8FE00BF00BF05
:1040900000BF05B0BDE8F08F04F4007008B13589A9
:1040A00000E00125D6F8009011E0D9F8080003904F
:1040B000D9F8040004900E985B46524600903846AA
:1040C0000399FFF7AAFEDDF81090681E85B2002D57
:1040D000EBD100BF00BF00BFFCF7BCFE029000BFE9
:1040E000FDF744F900BF0F480078401E0D490870E5
:1040F0000846007808B900F00BF900BFFDF750F949
:1041000000BF0298FCF7AAFE00BF00BF00BF04F486
:10411000004008B9FDF718FC00210F98018000BF8E
:10412000B7E70000B80000207C00002000210AE072
:1041300001EB4102054B03EB820000220281026089
:1041400042604A1CD1B22029F2D3704728AA00202D
:1041500010B5044694F83700FFF7F4FE94F83700E2
:1041600005490978884203D1204600F027F802E08B
:10417000204600F003F810BD9E00002010B590F816
:10418000373003EB43030C4C04EB83010B893BB941
:1041900001230B810023C36003610860486009E0CC
:1041A0000B895B1C0B810B68C360002303610A68E9
:1041B0001061086010BD000028AA002010B590F81A
:1041C000373003EB43030B4C04EB83010B893BB902
:1041D00001230B810023C36003610860486008E08D
:1041E0000B895B1C0B810023C3604A680261D060AD
:1041F000486010BD28AA002010B501460C8924B1E2
:10420000012C03D0022C0CD101E000BF14E008689F
:104210004A6802610024C4601461D0600A6048608A
:104220000AE008684A68C36800241C61C46002612F
:10423000D0600B60486000BF00BF10BD2DE9F041A9
:10424000054695F8370000EB4000124901EB800469
:104250002F69EE6887B946B9002020812060606030
:1042600095F83700FFF780FE0EE02089401E208180
:1042700000203061266007E02089401E2081FE601A
:104280000EB9676000E0376100202861E860BDE892
:10429000F081000028AA002010B5002400BFFCF720
:1042A000D9FD044600BF00200D4908700D480E4995
:1042B000086008460068D0F89000401C0968C1F802
:1042C00090000A480068401C084908604FF0805080
:1042D0000749086000BF2046FCF7C0FD00BF10BDC5
:1042E0009F00002054A9002014010020E4000020B9
:1042F00004ED00E010B504480078012803D1FDF773
:10430000C3F80249086010BDB8000020AC000020CE
:1043100010B50A48007880B9FDF7B6F80849096871
:10432000441A08480068A04201D2064804600648C2
:104330000068A04201D20448046010BDB80000200B
:10434000AC000020B0000020B400002070B505468D
:10435000002635480078012800D070BD00BF00BF9E
:10436000FCF778FD064600BFFDF700F800BF2C689B
:104370004CB900BFFDF714F800BF3046FCF76EFDE6
:1043800000BF00BFE9E72948844209D100BFFDF71B
:1043900007F800BF3046FCF761FD00BF00BFDCE757
:1043A000A06D10B1A06D401EA065A06D48B100BF0A
:1043B000FCF7F6FF00BF3046FCF750FD00BF00BF22
:1043C000CBE72889022809DA00BFFCF7E9FF00BF24
:1043D0003046FCF743FD00BF00BFBEE7144800783D
:1043E000002809DD00BFFCF7DBFF00BF3046FCF70B
:1043F00035FD00BF00BFB0E72846FFF7FDFE2C6883
:10440000606D18B90B480068A06501E0606DA0659B
:1044100000BFFCF7C5FF00BF3046FCF71FFD00BF23
:1044200000BF00BF99E70000C00000208CA800205A
:10443000B8000020BC00002009A1C1610021416139
:104440000849096811B90021816105E00549096839
:1044500081610449096848610249086070470000A9
:1044600020000000C40000200021034A1160034A1C
:104470001180018070470000C4000020C8000020A7
:104480002DE9FF5F0446884691461D4600200190B5
:1044900000BF00BFFCF7DEFC019000BFFCF766FF29
:1044A00000BF04F108073889002857D104200128EB
:1044B00004D0022816D004283AD127E0206AFF2829
:1044C0000FD100BFFCF76CFF00BF0198FCF7C6FCE2
:1044D00000BF00BF46F6C5502880002004B0BDE8EC
:1044E000F09F26E04FF6FF71206A88420DD100BF91
:1044F000FCF756FF00BF0198FCF7B0FC00BF00BFFF
:1045000046F6C55028800020E8E712E0206A401CEB
:1045100068B900BFFCF744FF00BF0198FCF79EFCA0
:1045200000BF00BF46F6C55028800020D6E700E057
:1045300000BF00BF206A401C2062D4F820A0C4F84D
:10454000249000BFFCF72CFF00BF0198FCF786FC0D
:1045500000BF00BF002028805046BFE700BF2D48A5
:104560000078401C2B49087008460078012801D1CA
:10457000FFF7C0FE00BFFCF713FF00BF0198FCF778
:104580006DFC00BF00BF00BF08F4007008B13E8999
:1045900000E00126D7F800B011E0DBF80800029037
:1045A000DBF80400039000231A46CDF80090204663
:1045B0000299FFF732FCDDF80CB0701E86B2002EB7
:1045C000EBD1D4F820A000BF00BF00BFFCF742FC35
:1045D000019000BFFCF7CAFE00BF0E480078401EE5
:1045E0000C4908700846007808B9FFF791FE00BF33
:1045F000FCF7D6FE00BF0198FCF730FC00BF00BFFF
:1046000000BF08F4004008B9FDF79EF9002028809B
:10461000504663E7B800002086B00020009000BF3D
:1046200006E0D9490968480001AA0021FEF7DEFA30
:10463000D64800780128F4D101A8FDF767FC0027CF
:10464000D3480068D0490968884205D9D048006835
:10465000CD490968B0FBF1F727B9CD4800680A21B8
:10466000B0FBF1F78EE1FCF70FFF8246FCF768FE26
:10467000C849086000BF00BFFCF7ECFB009000BF1A
:10468000FCF774FE00BFC4480068C44908600020FD
:10469000C149086000BFFCF783FE00BF0098FCF72B
:1046A000DDFB00BF00BFBE480068BC490968884206
:1046B00048D9BB480068BB49884205D242F2107015
:1046C00003900120029023E0B5480068B649884273
:1046D00005D24FF47A7003900A20029018E0B04897
:1046E0000068B249884203D26420039002900FE030
:1046F000AB480068AE49884205D20A2003904FF4C7
:104700007A70029004E00120039042F2107002904F
:10471000A34801680298B1FBF0F9A0490398096821
:104720004843B0FBF9F042F21071081AA149088021
:10473000A14800880988884208DA9E4800889E4976
:10474000088003E042F210709A490880FDF712FDDC
:10475000002500BF00BFFCF77DFB009000BFFCF709
:1047600005FE00BF9548046800BFFCF719FE00BFB6
:104770000098FCF773FB00BF00BF72E000BF00BFF2
:1047800000BFFCF767FB009000BFFCF7EFFD00BF28
:104790008B480078401C8A49087008460078012838
:1047A00001D1FFF7A7FD00BFFCF7FAFD00BF00989D
:1047B000FCF754FB00BF00BF00BF54F89C0F6060C3
:1047C000002044F89C0900BF00BF00BFFCF742FB7B
:1047D000009000BFFCF7CAFD00BF79480078401E7A
:1047E0007749087008460078D0B9FFF791FD754801
:1047F000008800280BDD00BFFCF7D2FD00BF009849
:10480000FCF72CFB00BF00BFFFF746FD11E000BF27
:10481000FCF7C6FD00BF0098FCF720FB00BF08E0D6
:1048200000BFFCF7BDFD00BF0098FCF717FB00BF01
:1048300000BF00BFD4F8A000054400BF00BFFCF7D4
:1048400009FB009000BFFCF791FD00BFD4F8C04009
:1048500000BFFCF7A5FD00BF0098FCF7FFFA00BF02
:1048600000BF002C8AD145B34E48854205D242F2A2
:10487000107005904FF0010B1BE04B48854205D2AC
:104880004FF47A7005904FF00A0B12E047488542CA
:1048900003D26420059083460BE04548854204D24C
:1048A0000A2005904FF47A7B03E00120059042F244
:1048B000107BB5FBFBF0049003E000200590012085
:1048C000049000BF00BFFCF7C5FA009000BFFCF7E2
:1048D0004DFD00BF3948046800BFFCF761FD00BF13
:1048E0000098FCF7BBFA00BF00BF2FE0D4F8A0008F
:1048F000059948430499B0FBF1F086B242F210707A
:10490000864200D90646A4F88C60B4F88E00B04206
:1049100001DAA4F88E6001AB04F1AC02111D20464F
:10492000FEF710F800BF00BFFCF794FA009000BF3C
:10493000FCF71CFD00BFD4F8C04000BFFCF730FD01
:1049400000BF0098FCF78AFA00BF00BF002CCDD151
:104950001D480078012805D100201B49087001A8D6
:10496000FDF7D4FAFCF790FDA0EB0A0817480068A1
:10497000404502D21548C0F8008001AA00213846FF
:10498000FEF734F96FE60000E8620008DC00002062
:10499000006300086C000020D0000020D800002038
:1049A000D4000020801A060000093D00005A62026F
:1049B0000084D717CC000020CE000020E8000020A3
:1049C000B80000207C000020CA000020E000002089
:1049D00010B58AB0044600201F4908601F490860CE
:1049E0001F4908601F4908701F4908701F48006868
:1049F00020B946F62B6020800AB010BD1C48006824
:104A00001C490968884203D246F62C602080F3E7EF
:104A1000194800781F2803D346F62A602080EBE768
:104A2000032000210591CDE90704069108461049AD
:104A30000968124A12680D4B1B68CDE90132CDE9B5
:104A400003100D48007800230D4A0EA10090124873
:104A5000FDF79AFB00BFCFE7D0000020D800002070
:104A6000D4000020DC000020CA000020EC62000816
:104A7000F4620008FC620008E4620008F0620008CA
:104A80001946000875432F4F532D49494920537447
:104A90006174205461736B00A8AB002038B50446E4
:104AA0000D4685B16B4602222946204600F082FE63
:104AB000BDF8000018B9032084F8360006E0022093
:104AC00084F8360002E0022084F836002046FFF722
:104AD000B5FB38BD0021C0F8BC100949096819B9F7
:104AE0000021C0F8C01007E005490968C0F8C010EF
:104AF00003490968C1F8BC0001490860704700001B
:104B0000E8000020D0F8BC20D0F8C0104AB90D4B06
:104B1000196011B10023C1F8BC300023C0F8C030C7
:104B20000FE029B90023C2F8C030C0F8BC3008E05B
:104B3000C2F8C010C1F8BC200023C0F8C030C0F8D3
:104B4000BC307047E80000200021044A1160044A8C
:104B50001180044A1160018070470000E8000020C5
:104B6000EC000020E400002070B504460020206026
:104B7000A0606060E06020616061A061E0612BA0E6
:104B8000206200206062A062E0622063E08720640F
:104B9000E065A4F86000002104F16400FEF7AEFFB8
:104BA000002044F8740F6060E060A0822061743CD3
:104BB000002506E0002104F17C0040F82510681C67
:104BC000C5B2002DF6D00020343420612067606724
:104BD000606084F85600E067A06720814FF00040D5
:104BE00060610020A061E06120626062A4F858006A
:104BF000A4F85A00E0652066FCF746FC06466666A7
:104C00000020A066C4F88000C4F8840020706070A2
:104C1000A0702020E0700020C4F88800C4F88C0048
:104C200004A0C4F89000343C70BD00003F54617390
:104C30006B000000200000002DE9FC4704460F46F1
:104C400090469946DDE90A654FF0000A00BF00BFB3
:104C500000BFFCF7FFF8824600BFFCF787FB00BFF0
:104C60008D480078401C8C4908700846007801285F
:104C700001D1FFF73FFB00BFFCF792FB00BF50469E
:104C8000FCF7ECF800BF00BF00BF0CB98348046814
:104C90000020288094F8360008287CD2DFE800F055
:104CA0000405484906074A4B00BF00BF00BF4B46FA
:104CB0004246394604F16400CDE90065FEF726FF5F
:104CC00000BF00BF00BFFCF7C5F8824600BFFCF77D
:104CD0004DFB00BF70480078401E6F4908700846C1
:104CE0000078D0B9FFF714FB6D48008800280BDD71
:104CF00000BFFCF755FB00BF5046FCF7AFF800BF04
:104D000000BFFFF7C9FA11E000BFFCF749FB00BF85
:104D10005046FCF7A3F800BF08E000BFFCF740FBDB
:104D200000BF5046FCF79AF800BF00BF00BFAFE0DD
:104D300000BF00BF00BF94F8340002282CD14346C6
:104D40003A46214600200096FFF767F800BF00BFF3
:104D500000BFFCF77FF8824600BFFCF707FB00BFEF
:104D60004D480078401E4C4908700846007808B944
:104D7000FFF7CEFA00BFFCF713FB00BF5046FCF76D
:104D80006DF800BF00BF00BF09F40040002843D108
:104D9000FCF7DAFD40E040E04B464246394604F17C
:104DA0006400CDE90065FEF7B1FE00BF00BF00BFA3
:104DB000FCF750F8824600BFFCF7D8FA00BF36482F
:104DC0000078401E3449087008460078D0B9FFF7D3
:104DD0009FFA3348008800280BDD00BFFCF7E0FA9B
:104DE00000BF5046FCF73AF800BF00BFFFF754FA87
:104DF00011E000BFFCF7D4FA00BF5046FCF72EF8D4
:104E000000BF08E000BFFCF7CBFA00BF5046FCF73C
:104E100025F800BF00BF00BF3AE000BF00BF00BFE1
:104E2000FCF718F8824600BFFCF7A0FA00BF1A484A
:104E30000078401E1849087008460078D0B9FFF77E
:104E400067FA1748008800280BDD00BFFCF7A8FAB6
:104E500000BF5046FCF702F800BF00BFFFF71CFA86
:104E600011E000BFFCF79CFA00BF5046FBF7F6FFCD
:104E700000BF08E000BFFCF793FA00BF5046FBF705
:104E8000EDFF00BF00BF00BF46F62D60288000BFC9
:104E900000BFBDE8FC870000B80000201001002022
:104EA0007C00002010B50446204600F061FD94F817
:104EB000360000F0040010B92046FFF749F910BD94
:104EC00070B504460D46002600BF00BFFBF7C2FFC9
:104ED000064600BFFCF74AFA00BF0020288094F87D
:104EE000360008287ED2DFE800F0040506071456D5
:104EF0006A8000BF00BF00BF00BFFCF751FA00BFCF
:104F00003046FBF7ABFF00BF00BF47F253102880CD
:104F10008CE000BF48480078401C474908700846AC
:104F20000078012801D1FFF7E5F900BFFCF738FA56
:104F300000BF3046FBF792FF00BF00BF00BF14F870
:104F40008A0F401E207014F88A0928B9002084F8BE
:104F500036002046FFF7A6FF00BF00BF00BFFBF7EB
:104F600079FF064600BFFCF701FA00BF324800781F
:104F7000401E314908700846007808B9FFF7C8F9A3
:104F800000BFFCF70DFA00BF3046FBF767FF00BF1C
:104F900000BF00BF4AE014F88A0F401E207014F8CA
:104FA0008A0910B9012084F8360000BFFCF7F8F92F
:104FB00000BF3046FBF752FF00BF00BF36E014F8D9
:104FC0008A0F401E207014F88A0910B9022084F854
:104FD000360000BFFCF7E4F900BF3046FBF73EFFA8
:104FE00000BF00E015E000BF20E014F88A0F401E6B
:104FF000207014F88A0910B9032084F8360000BF25
:10500000FCF7CEF900BF3046FBF728FF00BF00BF1A
:105010000CE000BFFCF7C4F900BF3046FBF71EFFF1
:1050200000BF00BF46F62D60288070BD00BFFCF7B2
:105030008BFC00BFF9E70000B800002008B5044869
:105040000068FDF74BFB69460020FDF7F3F908BD4A
:10505000100100202DE9F8430446884617461D46F6
:105060004FF0000900BF00BF00BFFBF7F3FE814611
:1050700000BFFCF77BF900BFFB480078401CFA49F1
:10508000087008460078012801D1FFF733F900BF06
:10509000FCF786F900BF4846FBF7E0FE00BF00BF03
:1050A00000BF0CB9F148046827640020288094F8F8
:1050B000360008287AD2DFE800F00405FEFD060776
:1050C000FCFB00BF00BF00BF0420012804D0022861
:1050D00043D004286BD184E0606CFF283CD100BF32
:1050E00000BF00BFFBF7B6FE814600BFFCF73EF9EC
:1050F00000BFDD480078401EDB4908700846007894
:10510000D0B9FFF705F9DA48008800280BDD00BFA9
:10511000FCF746F900BF4846FBF7A0FE00BF00BF02
:10512000FFF7BAF811E000BFFCF73AF900BF4846B4
:10513000FBF794FE00BF08E000BFFCF731F900BFA9
:105140004846FBF78BFE00BF00BF00BF46F6C550C8
:1051500028800020BDE8F88385E04FF6FF71606C81
:1051600088423DD100BF00BF00BFFBF773FE814600
:1051700000BFFCF7FBF800BFBB480078401EBA49EF
:10518000087008460078E0B9FFF7C2F8B848008810
:1051900000280DDD00BFFCF703F900BF4846FBF710
:1051A0005DFE00BF00BFFFF777F813E0E2E159E0D2
:1051B00000BFFCF7F5F800BF4846FBF74FFE00BF05
:1051C00008E000BFFCF7ECF800BF4846FBF746FEDE
:1051D00000BF00BF00BF46F6C55028800020B9E7D9
:1051E00041E0606C401CD8BB00BF00BF00BFFBF7B4
:1051F00031FE814600BFFCF7B9F800BF9A4800783D
:10520000401E9949087008460078D0B9FFF780F829
:105210009748008800280BDD00BFFCF7C1F800BFED
:105220004846FBF71BFE00BF00BFFFF735F811E053
:1052300000BFFCF7B5F800BF4846FBF70FFE00BF04
:1052400008E000BFFCF7ACF800BF4846FBF706FEDD
:1052500000BF00BF00BF46F6C5502880002079E798
:10526000FFE700E000BF00BF606C401C6064666C3C
:1052700000BF00BF00BFFBF7EDFD814600BFFCF79C
:1052800075F800BF78480078401E774908700846D6
:105290000078F8B9FFF73CF875480088002810DD61
:1052A00000BFFCF77DF800BF4846FBF7D7FD03E0E1
:1052B0001EE01CE01AE018E000BF00BFFEF7ECFFA4
:1052C00011E000BFFCF76CF800BF4846FBF7C6FDD5
:1052D00000BF08E000BFFCF763F800BF4846FBF7DB
:1052E000BDFD00BF00BF00BF80E100BF00BF00BF29
:1052F00094F8340007282CD100231A46214618467A
:105300000097FEF78AFD666C00BF00BF00BFFBF789
:10531000A1FD814600BFFCF729F800BF5248007884
:10532000401E514908700846007808B9FEF7F0FFA2
:1053300000BFFCF735F800BF4846FBF78FFD00BF04
:1053400000BF00BF08F40040002801D1FCF7FCFAC0
:105350000FE10420012804D0022842D0042872D191
:1053600089E0606CFF283BD100BF00BF00BFFBF7A6
:1053700071FD814600BFFBF7F9FF00BF3A48007896
:10538000401E3949087008460078D0B9FEF7C0FFC2
:105390003748008800280BDD00BFFCF701F800BF8C
:1053A0004846FBF75BFD00BF00BFFEF775FF11E04D
:1053B00000BFFBF7F5FF00BF4846FBF74FFD00BFFE
:1053C00008E000BFFBF7ECFF00BF4846FBF746FDD7
:1053D00000BF00BF00BF46F6C55028800020B9E6D8
:1053E0008BE04FF6FF71606C884243D100BF00BF75
:1053F00000BFFBF72FFD814600BFFBF7B7FF00BFE3
:1054000019480078401E1849087008460078D8B935
:10541000FEF77EFF1648008800280BDD00BFFBF773
:10542000BFFF00BF4846FBF719FD00BF00BFFEF7F6
:1054300033FF12E000BFFBF7B3FF00BF4846FBF7A6
:105440000DFD00BF09E057E000BFFBF7A9FF00BF5B
:105450004846FBF703FD00BF00BF00BF46F6C5503E
:105460002880002076E60000B8000020100100200F
:105470007C00002041E0606C401CD8BB00BF00BF36
:1054800000BFFBF7E7FC814600BFFBF76FFF00BFE3
:1054900058480078401E5749087008460078D0B92F
:1054A000FEF736FF5448008800280BDD00BFFBF7ED
:1054B00077FF00BF4846FBF7D1FC00BF00BFFEF7F7
:1054C000EBFE11E000BFFBF76BFF00BF4846FBF7A8
:1054D000C5FC00BF08E000BFFBF762FF00BF484605
:1054E000FBF7BCFC00BF00BF00BF46F6C5502880DC
:1054F00000202FE6FFE700E000BF00BF606C401C0B
:105500006064666C00BF00BF00BFFBF7A3FC814670
:1055100000BFFBF72BFF00BF36480078401E35491F
:10552000087008460078D0B9FEF7F2FE32480088CD
:1055300000280BDD00BFFBF733FF00BF4846FBF739
:105540008DFC00BF00BFFEF7A7FE11E000BFFBF718
:1055500027FF00BF4846FBF781FC00BF08E000BF03
:10556000FBF71EFF00BF4846FBF778FC00BF00BFFB
:1055700000BF3BE000BF00BF00BFFBF76BFC8146F4
:1055800000BFFBF7F3FE00BF1A480078401E194920
:10559000087008460078D0B9FEF7BAFE16480088B1
:1055A00000280BDD00BFFBF7FBFE00BF4846FBF702
:1055B00055FC00BF00BFFEF76FFE11E000BFFBF718
:1055C000EFFE00BF4846FBF749FC00BF08E000BF04
:1055D000FBF7E6FE00BF4846FBF740FC00BF00BFFC
:1055E00000BF46F62D602880002600BF00BF304671
:1055F000B0E50000B80000207C00002070B5044633
:105600000D46002600BF00BFFBF724FC064600BF86
:10561000FBF7ACFE00BF0CB95A4804685948006853
:10562000844210D15848007800280CDD00BFFBF7F9
:10563000B7FE00BF3046FBF711FC00BF00BF46F6C7
:105640006350288070BD0020288094F83600082818
:1056500073D2DFE800F0044252627374757600BFC3
:1056600049480078401C48490870084600780128DD
:1056700001D1FEF73FFE00BFFBF792FE00BF3046B0
:10568000FBF7ECFB00BF00BF00BF042084F836002E
:10569000012084F88A002046FEF7D0FD00BF00BF3D
:1056A00000BFFBF7D7FB064600BFFBF75FFE00BF5E
:1056B00035480078401E344908700846007808B91B
:1056C000FEF726FE00BFFBF76BFE00BF3046FBF780
:1056D000C5FB00BF00BF00BF4FE0052084F83600C7
:1056E000012084F88A0000BFFBF75AFE00BF304655
:1056F000FBF7B4FB00BF00BF3FE0062084F8360094
:10570000012084F88A0000BFFBF74AFE00BF304644
:10571000FBF7A4FB00BF00BF2FE0072084F8360092
:10572000012084F88A0000BFFBF73AFE00BF304634
:10573000FBF794FB00BF00BF1FE011E000BF00BFFC
:1057400000BF94F88A00401C84F88A0000BFFBF771
:1057500027FE00BF3046FBF781FB00BF00BF0CE017
:1057600000BFFBF71DFE00BF3046FBF777FB00BF15
:1057700000BF46F62D60288064E700BFFCF7E4F820
:1057800000BF5FE710010020B8000020002108E002
:10579000064A02EBC100002202608280C2804A1CDD
:1057A00091B2034A12889142F2DB70477CA5002037
:1057B000186300082DE9F04F0C4616461D46042ECE
:1057C0001ED1DFF8A091D9F80090A4EB0909A9F146
:1057D000010313F5803F0DD94FF00009C0F84C903C
:1057E000C0F85090C0F81C9047F27E29A5F80090B0
:1057F000BDE8F08FC46403F10109C0F850903FE0A8
:1058000084B3082E25D1D0F8489009EB0407DFF8BF
:105810005491D9F80090A7EB0909A9F10103A3421B
:1058200001D2C76406E0DFF83C91D9F80090A144AA
:10583000C0F84C90DFF82CA1D0F84C90DAF800A01A
:10584000A9EB0A09C0F85090D0F84C90C0F84890E5
:1058500016E0DFF81091D9F80090A144C0F84C9000
:1058600004650DE0FFE74FF00009C0F84C90C0F868
:105870005090C0F81C9047F27E29A5F80090B7E739
:10588000DFF8E4A0BAF800A0D0F84C90B9FBFAFB1E
:105890000AFB1B991FFA89F8DFF8D09009EBC802C0
:1058A000B2F80490B9F1000F0BD14FF00009C0F825
:1058B0001490C0F8189010604FF00109A2F80490FD
:1058C0003EE0116834E0DFF89CA0D1F84C90DAF8A3
:1058D00000A0A9EB0A09C1F85090D0F85090D1F877
:1058E00050A0D1450ED9D1F81490B9F1000F01D0D4
:1058F00049691DE04FF00009C0F8149081614861CA
:10590000002115E0D1F81890B9F1000F07D14FF040
:105910000009C0F8189041618861106007E0D1F873
:1059200018C0C0F818C04161CCF81400886100218B
:105930000029C8D1B2F8049009F10109A2F8049035
:10594000B2F80690B2F804A0D14503DAB2F8049098
:10595000A2F80690C2614FF00009A5F8009000BFC0
:1059600046E70000F0000020186300087CA5002036
:1059700010B5C269BAB1002404651468844205D127
:105980004169116039B100248C6104E08169436987
:105990004B6103B19961002444618461C461C464B2
:1059A0009488641E948010BD002006E0054A02EB36
:1059B000C0010022CA80421C90B2034A1288904261
:1059C000F4DB70477CA50020186300082DE9F05F28
:1059D0004FF0000B00BF00BF00BFFBF73BFA834650
:1059E00000BFFBF7C3FC00BF7A480078401C794930
:1059F000087008460078012801D1FEF77BFC00BF43
:105A0000FBF7CEFC00BF5846FBF728FA00BF00BFEB
:105A100000BFFBF739FD05466F480068401C6E4922
:105A20000860084600686D490988B0FBF1F201FB87
:105A300012001FFA80FA6A4800EBCA08D8F8004042
:105A4000002782E0002C7FD0D4F8149094F8360020
:105A5000082875D2DFE800F00408051B063D075052
:105A600000BF00BF00BF6CE05B49E06C0968401AF2
:105A700020655949E06C0968884206D1002084F805
:105A800036002046FFF70EFA00E0012759E05249A0
:105A9000E06C0968401A20654F49E06C096888424B
:105AA00015D10020E065A4F86000FBF7EDFC206450
:105AB0002046FEF779F92046FFF7F4F90020343448
:105AC000A07003206070002004F8340900E0012772
:105AD00037E04149E06C0968401A20653E49E06CB6
:105AE0000968884206D1042084F836002046FFF772
:105AF0003FFF00E0012724E03749E06C0968401AC5
:105B000020653549E06C0968884217D10020E065BE
:105B1000A4F86000FBF7B8FC20642046FEF744F9C7
:105B20002046FFF725FF04203434A0700320607066
:105B3000002004F8340902E006E001E0012700E05B
:105B400000BF00BF4C4600E00127002F3FF47AAFB2
:105B5000FBF79AFC461B23480068B04201D221485B
:105B6000066000BF00BF00BFFBF774F9834600BFAB
:105B7000FBF7FCFB00BF17480078401E1549087072
:105B800008460078D0B9FEF7C3FB17480088002804
:105B90000BDD00BFFBF704FC00BF5846FBF75EF9C6
:105BA00000BF00BFFEF778FB11E000BFFBF7F8FB7A
:105BB00000BF5846FBF752F900BF08E000BFFBF7F3
:105BC000EFFB00BF5846FBF749F900BF00BF00BF1D
:105BD000BDE8F09FB8000020F00000201863000826
:105BE0007CA50020F40000207C0000201CB500BF34
:105BF0000EE001AB6A4600210846FCF77BFDBDF8CC
:105C0000040028B903480078012801D1FFF7DEFE1F
:105C1000EFE700007000002010B58AB004460020B5
:105C20001D4908601D490860FFF7B0FD1C48006869
:105C300020B947F2122020800AB010BD1948006830
:105C400019490968884203D247F213202080F3E7FC
:105C5000164800781F2803D347F211202080EBE775
:105C60000B20002105910A46CDE9070406910D4855
:105C700000680F4909680A4B1B68CDE90131CDE97D
:105C800003020A48007800230A4A0BA100900F483B
:105C9000FCF77AFA00BFCFE7F0000020F400002004
:105CA0000863000810630008FC6200080463000831
:105CB0000C630008ED5B000875432F4F532D4949D5
:105CC00049205469636B205461736B0070AC0020F1
:105CD00070B58AB004460020314908603148006838
:105CE00040B1314800682F490968B0FBF1F02F49F5
:105CF000086006E02C4800680A21B0FBF1F02B494F
:105D000008602A4800682A4908600020294908607C
:105D100029490860002508E0284800EBC506002056
:105D2000B080F0803060681C85B2254800888542CC
:105D3000F2DB2448006820B947F2473020800AB0DF
:105D400070BD2148006821490968884203D247F2A2
:105D500048302080F3E71E4800781F2803D347F21D
:105D600046302080EBE70B2000210591CDE90704A8
:105D70000691084614490968164A1268114B1B68B7
:105D8000CDE90132CDE90310114800780023124A11
:105D900012A100901748FCF7F7F900BFCFE7000009
:105DA000F8000020246300080063000808010020B8
:105DB0000C010020040100200001002004A80020A4
:105DC000386300082863000830630008FC6200089C
:105DD000206300082C630008ED5E000875432F4F18
:105DE000532D4949492054696D6572205461736B84
:105DF0000000000038AD0020F0B50C46022680F807
:105E00002A60012C05D12D4F466A3F683E448661C9
:105E10000CE0066A2EB9294F466A3F683E44866107
:105E200004E0264F066A3F683E448661244F3F885F
:105E30008669B6FBF7FC07FB1C66B5B2214E06EB84
:105E4000C502166836B90026066146611060012653
:105E500096802CE0194F86693F68F61BC661116871
:105E600020E0164F8E693F68F61BCE61C669CF6988
:105E7000BE4209D90E690EB1096913E00026066118
:105E80004161086100210DE04E692EB9002646618E
:105E900001614861106004E04B6943610161186170
:105EA000486100210029DCD19688761C9680D6882E
:105EB0009788BE4201DA9688D680F0BD04010020A2
:105EC0003863000804A80020002006E0054A02EB21
:105ED000C0010022CA80421C90B2034A128890423C
:105EE000F4DB704704A80020386300081CB500BF2D
:105EF00053E001AB6A4600210846FCF7FBFB01A812
:105F0000FBF776FDFBF7C0FA064624480068401C04
:105F1000224908600846006821490988B0FBF1F26F
:105F200001FB12001FFA80FA1E4800EBCA08D8F8DD
:105F300000404FF0000B21E0F4B1D4F81090174965
:105F4000A0690968884214D1204600F02FF8208DFE
:105F5000022804D101212046FFF74EFF02E0032072
:105F600084F82A00A56815B12046E168A8474C4688
:105F700004E04FF0010B01E04FF0010BBBF1000F0B
:105F8000DAD0FBF781FA871B01A8FBF76FFD064803
:105F90000068B84201D204480760AAE70401002063
:105FA0003863000804A8002000010020F0B5114E5D
:105FB00036888569B5FBF6F706FB1755ACB20E4D72
:105FC00005EBC4021568854205D10169116039B13C
:105FD00000254D6104E0416903690B6103B159611A
:105FE000012580F82A5000250561456195886D1EC0
:105FF0009580F0BD3863000804A8002070470000B9
:1060000000B585B001218803FAF7B4FC0121042012
:10601000FAF7B0FC4FF40070ADF8100018208DF8BE
:10602000130003208DF8120004A91348FAF7ECF9C5
:106030004FF48060ADF8100004208DF8130004A91F
:106040000D48FAF7E1F94FF4E13000900020ADF887
:106050000400ADF80600ADF80800ADF80C000C2007
:10606000ADF80A0069460548FAF72FFD01210348FB
:10607000FAF7B7FD05B000BD000801400038014047
:1060800000BFFEE70FB4054B10B503A9044A029800
:1060900000F018F810BC5DF814FB0000196200084D
:1060A0002001002002E008C8121F08C1002AFAD10E
:1060B00070477047002001E001C1121F002AFBD188
:1060C000704700002DE9FF4F89B09B46044600252C
:1060D00006E025280BD05A460B999047641C6D1C8E
:1060E00020780028F5D10DB02846BDE8F08F0027B4
:1060F000B8460122474900E0074314F8013F203B1E
:1061000002FA03F00842F7D120782E2819D114F8AA
:10611000010F47F004072A280ED06FF02F022078D5
:10612000A0F1300109290CD808EB880102EB4101EC
:1061300000EB0108641CF2E70A98641C50F8048B19
:106140000A9020780028CED0642808D0692806D08C
:1061500075281ED05A460B9990476D1C58E00A9935
:106160004FF00A0901C90A91002802DA40422D21A4
:1061700002E0390504D52B218DF82010012103E020
:10618000F90704D02021F7E78A4608AE0DE0002188
:10619000FAE70A994FF00A0901C90A91F7E7494657
:1061A000FAF76EFE303106F8011D0028F7D1ADEB8D
:1061B000060000F12009780701D44FF00108C84516
:1061C00002DDA8EB090000E000208046002706E081
:1061D00008A85A46C05D0B9990476D1C7F1C574517
:1061E000F6DB04E030205A460B9990476D1CB8F15D
:1061F0000001A8F10108F5DC05E016F8010B5A468C
:106200000B9990476D1CB9F10001A9F10109F4DC6B
:10621000641C65E70928010070B504460D46E1B22B
:106220000548FAF74BFD00BF80210348FAF7B4FD9B
:106230000028F9D0204670BD0038014000B58BB071
:106240000AA8FBF72DFA0AA8032100220592CDE93E
:106250000621089005204FF480711922094BCDE9E1
:106260000132CDE9031002200023074A07A1009064
:106270000A48FBF789FF0AA8FBF714FE00200BB0C1
:1062800000BD00004C010020211100084170702069
:106290005461736B20537461727400004C050020CC
:1062A000FC9300200C0000008000000000020000B1
:1062B000FC9500200A000000400100003C970020EF
:1062C0000C00000080000000000200003C9900204B
:1062D0008000000000020000640000004006000092
:1062E0003C9B00200B0000000A0000007CA1002065
:1062F0000C000000800000000002000040000000D0
:10630000E80300000A0000007CA300200C0000004D
:106310008000000000020000110000008800000062
:106320000B0000000A00000004A600200C00000082
:106330008000000000020000110000008800000042
:106340009014000001010100785634120101000090
:10635000000000000000000000000000000000003D
:10636000000000000000000000000000000000002D
:1063700000000000000000000101010028000400EE
:1063800020000100000000000000000000000000EC
:1063900000000000000000000000000000000000FD
:1063A0000000000001002000010010000C0010009F
:1063B00000000000000000000000000000000000DD
:1063C00000000000000000000000000000000000CD
:1063D00000000000000000000000000001010100BA
:1063E0002C00010120000C0020002000040004000B
:1063F000000000000000000000000000000000009D
:10640000000000000000000000000000000000008C
:10641000000000000000000000000000000000007C
:106420000101010130000100000000000000000037
:10643000000000000000000000000000000000005C
:10644000000000000000000000000000000000004C
:106450000101010128000C0080010000040101017C
:106460000101010101000101C80008000101000053
:10647000000000000000000000000000000000001C
:10648000000000000000000000000000000000000C
:1064900000000000000000000000000000000000FC
:1064A000000000000101340008005D762A060000AB
:1064B000D06400080000002024010000A46000084F
:1064C000F465000824010020DCB00000B46000087E
:1064D00000A24A04000000000000000001020304C2
:1064E000060708090000000001020304010203047A
:1064F000060708090204060800000000000000006A
:10650000000000000000000000000000000000008B
:10651000000000000000000000000000000000007B
:10652000000000000000000000000000000000006B
:10653000000000000000000000000000000000005B
:10654000000000000000000000000000000000004B
:10655000000000000000000000000000000000003B
:10656000000000000000000000000000000000002B
:10657000000000000000000000000000000000001B
:10658000000000000000000000000000000000000B
:1065900000000000000000000000000000000000FB
:1065A00000000000000000000000000000000000EB
:1065B00000000000000000000000000000000000DB
:1065C00000000000000000000000000000000000CB
:1065D00000000000000000000000000000000000BB
:1065E00000000000000000000000000000000000AB
:0465F00000000000A7
:0400000508000131BD
:00000001FF
